{
  "_format": "hh-sol-artifact-1",
  "contractName": "ApproveAndSwap",
  "sourceName": "contracts/modules/actions/ApproveAndSwap.sol",
  "abi": [
    {
      "inputs": [
        {
          "internalType": "address",
          "name": "_wethAddr",
          "type": "address"
        }
      ],
      "stateMutability": "nonpayable",
      "type": "constructor"
    },
    {
      "inputs": [],
      "name": "EMPTY_STATE",
      "outputs": [
        {
          "internalType": "bytes",
          "name": "",
          "type": "bytes"
        }
      ],
      "stateMutability": "view",
      "type": "function"
    },
    {
      "inputs": [
        {
          "internalType": "bytes",
          "name": "",
          "type": "bytes"
        }
      ],
      "name": "execute",
      "outputs": [
        {
          "internalType": "bytes",
          "name": "",
          "type": "bytes"
        }
      ],
      "stateMutability": "payable",
      "type": "function"
    },
    {
      "inputs": [
        {
          "internalType": "address",
          "name": "tokenAddr",
          "type": "address"
        },
        {
          "internalType": "address",
          "name": "routerAddr",
          "type": "address"
        },
        {
          "internalType": "uint256",
          "name": "amount",
          "type": "uint256"
        },
        {
          "internalType": "bytes",
          "name": "routerCallData",
          "type": "bytes"
        }
      ],
      "name": "executeSwapERC20",
      "outputs": [
        {
          "internalType": "bytes",
          "name": "",
          "type": "bytes"
        }
      ],
      "stateMutability": "nonpayable",
      "type": "function"
    },
    {
      "inputs": [
        {
          "internalType": "address",
          "name": "routerAddr",
          "type": "address"
        },
        {
          "internalType": "uint256",
          "name": "amount",
          "type": "uint256"
        },
        {
          "internalType": "bytes",
          "name": "routerCallData",
          "type": "bytes"
        }
      ],
      "name": "executeSwapETH",
      "outputs": [
        {
          "internalType": "bytes",
          "name": "",
          "type": "bytes"
        }
      ],
      "stateMutability": "nonpayable",
      "type": "function"
    },
    {
      "inputs": [],
      "name": "getState",
      "outputs": [
        {
          "internalType": "bytes",
          "name": "state",
          "type": "bytes"
        }
      ],
      "stateMutability": "view",
      "type": "function"
    },
    {
      "inputs": [],
      "name": "getWeth",
      "outputs": [
        {
          "internalType": "contract IWETH9",
          "name": "",
          "type": "address"
        }
      ],
      "stateMutability": "view",
      "type": "function"
    },
    {
      "inputs": [
        {
          "internalType": "bytes",
          "name": "",
          "type": "bytes"
        }
      ],
      "name": "init",
      "outputs": [
        {
          "internalType": "bytes",
          "name": "",
          "type": "bytes"
        }
      ],
      "stateMutability": "payable",
      "type": "function"
    },
    {
      "inputs": [],
      "name": "payFee",
      "outputs": [],
      "stateMutability": "payable",
      "type": "function"
    },
    {
      "inputs": [
        {
          "internalType": "bytes",
          "name": "data",
          "type": "bytes"
        },
        {
          "components": [
            {
              "internalType": "bytes32",
              "name": "action",
              "type": "bytes32"
            },
            {
              "internalType": "bytes",
              "name": "target",
              "type": "bytes"
            },
            {
              "internalType": "enum Keyword",
              "name": "keyword",
              "type": "uint8"
            },
            {
              "internalType": "bytes32",
              "name": "extent",
              "type": "bytes32"
            }
          ],
          "internalType": "struct Rule[]",
          "name": "rules",
          "type": "tuple[]"
        }
      ],
      "name": "validate",
      "outputs": [],
      "stateMutability": "pure",
      "type": "function"
    },
    {
      "stateMutability": "payable",
      "type": "receive"
    }
  ],
  "bytecode": "0x608060405234801561001057600080fd5b5060405161174e38038061174e83398101604081905261002f91610054565b600080546001600160a01b0319166001600160a01b0392909216919091179055610084565b60006020828403121561006657600080fd5b81516001600160a01b038116811461007d57600080fd5b9392505050565b6116bb806100936000396000f3fe60806040526004361061009a5760003560e01c80634242f0271161006957806352bd4f411161004e57806352bd4f411461014e5780636701b87d1461016e5780638db71efb1461018e57600080fd5b80634242f0271461011b5780634ddf47d41461013b57600080fd5b806309c5eabe146100a6578063107c279f146100cf5780631865c57d14610104578063296102521461011957600080fd5b366100a157005b600080fd5b6100b96100b43660046110af565b6101d7565b6040516100c6919061116b565b60405180910390f35b3480156100db57600080fd5b5060005460405173ffffffffffffffffffffffffffffffffffffffff90911681526020016100c6565b34801561011057600080fd5b506100b9610212565b005b34801561012757600080fd5b506100b96101363660046112c4565b6102b4565b6100b96101493660046110af565b61047d565b34801561015a57600080fd5b5061011961016936600461131d565b610501565b34801561017a57600080fd5b506100b96101893660046113b7565b610574565b34801561019a57600080fd5b506100b96040518060400160405280600b81526020017f454d5054595f535441544500000000000000000000000000000000000000000081525081565b60408051808201909152600b81527f454d5054595f535441544500000000000000000000000000000000000000000060208201525b92915050565b6040517fd06403d6000000000000000000000000000000000000000000000000000000008152306004820152606090339063d06403d690602401600060405180830381865afa158015610269573d6000803e3d6000fd5b505050506040513d6000823e601f3d9081017fffffffffffffffffffffffffffffffffffffffffffffffffffffffffffffffe01682016040526102af9190810190611423565b905090565b6000546040805160048152602481019091526020810180517bffffffffffffffffffffffffffffffffffffffffffffffffffffffff167fd0e30db00000000000000000000000000000000000000000000000000000000017905260609173ffffffffffffffffffffffffffffffffffffffff16906103338286836105bf565b506000546040517f70a08231000000000000000000000000000000000000000000000000000000008152336004820152869173ffffffffffffffffffffffffffffffffffffffff16906370a0823190602401602060405180830381865afa1580156103a2573d6000803e3d6000fd5b505050506040513d601f19601f820116820180604052508101906103c6919061149a565b1015610433576040517f08c379a000000000000000000000000000000000000000000000000000000000815260206004820152601a60248201527f42616c616e6365206973206e6f74206869676820656e6f75676800000000000060448201526064015b60405180910390fd5b61043f8287878761066f565b505060408051808201909152600b81527f454d5054595f53544154450000000000000000000000000000000000000000006020820152949350505050565b6060610487610212565b516104c6575060408051808201909152600b81527f454d5054595f5354415445000000000000000000000000000000000000000000602082015261020c565b5060408051808201909152600b81527f454d5054595f5354415445000000000000000000000000000000000000000000602082015292915050565b60008060006105108787610795565b506040805173ffffffffffffffffffffffffffffffffffffffff858116602083015284168183015260608082018490528251808303909101815260809091019091529295509093509150600061056987878385876107b7565b505050505050505050565b60606105828585858561066f565b5060408051808201909152600b81527f454d5054595f53544154450000000000000000000000000000000000000000006020820152949350505050565b6040517f20d2a20f00000000000000000000000000000000000000000000000000000000815260609033906320d2a20f90610602908790879087906004016114b3565b6000604051808303816000875af1158015610621573d6000803e3d6000fd5b505050506040513d6000823e601f3d9081017fffffffffffffffffffffffffffffffffffffffffffffffffffffffffffffffe01682016040526106679190810190611423565b949350505050565b6040805173ffffffffffffffffffffffffffffffffffffffff8516602482015260448082018590528251808303909101815260649091019091526020810180517bffffffffffffffffffffffffffffffffffffffffffffffffffffffff167f095ea7b30000000000000000000000000000000000000000000000000000000017905260006106fe8682846105bf565b905060008180602001905181019061071691906114e8565b90508061077f576040517f08c379a000000000000000000000000000000000000000000000000000000000815260206004820152600e60248201527f417070726f7665206661696c6564000000000000000000000000000000000000604482015260640161042a565b61078b866000866105bf565b5050505050505050565b6000808060606107a7858701876113b7565b9299919850965090945092505050565b60005b61ffff8116851115610fd4577f2a0000000000000000000000000000000000000000000000000000000000000086868361ffff168181106107fd576107fd61150a565b905060200281019061080f9190611539565b35148061084357508386868361ffff1681811061082e5761082e61150a565b90506020028101906108409190611539565b35145b15610fc257600086868361ffff168181106108605761086061150a565b90506020028101906108729190611539565b610880906020810190611577565b60405161088e9291906115dc565b60408051918290038220828201909152600182527f2a0000000000000000000000000000000000000000000000000000000000000060209092019190915290507f04994f67dc55b09e814ab7ffc8df3686b4afb2bb53e60eae97ef043fe03fb82981148061090157508351602085012081145b15610fc057600061093a88888561ffff168181106109215761092161150a565b90506020028101906109339190611539565b6060013590565b9050600688888561ffff168181106109545761095461150a565b90506020028101906109669190611539565b61097790606081019060400161161b565b6006811115610988576109886115ec565b14156109965750505061105f565b600088888561ffff168181106109ae576109ae61150a565b90506020028101906109c09190611539565b6109d190606081019060400161161b565b60068111156109e2576109e26115ec565b1415610a7c57808411610a77576040517f08c379a000000000000000000000000000000000000000000000000000000000815260206004820152603760248201527f556e617574686f72697a656420616374696f6e3a20657874656e742073686f7560448201527f6c642062652067726561746572207468616e2072756c65000000000000000000606482015260840161042a565b610fb8565b600188888561ffff16818110610a9457610a9461150a565b9050602002810190610aa69190611539565b610ab790606081019060400161161b565b6006811115610ac857610ac86115ec565b1415610b5d57808410610a77576040517f08c379a000000000000000000000000000000000000000000000000000000000815260206004820152603760248201527f556e617574686f72697a656420616374696f6e3a20657874656e742073686f7560448201527f6c6420626520736d616c6c6572207468616e2072756c65000000000000000000606482015260840161042a565b600288888561ffff16818110610b7557610b7561150a565b9050602002810190610b879190611539565b610b9890606081019060400161161b565b6006811115610ba957610ba96115ec565b1415610c6457808414610a77576040517f08c379a000000000000000000000000000000000000000000000000000000000815260206004820152604160248201527f556e617574686f72697a656420616374696f6e3a20657874656e742073686f7560448201527f6c6420626520657175616c20746f2074686520657874656e74206f662072756c60648201527f6500000000000000000000000000000000000000000000000000000000000000608482015260a40161042a565b600388888561ffff16818110610c7c57610c7c61150a565b9050602002810190610c8e9190611539565b610c9f90606081019060400161161b565b6006811115610cb057610cb06115ec565b1415610d6c5780841015610a77576040517f08c379a000000000000000000000000000000000000000000000000000000000815260206004820152604260248201527f556e617574686f72697a656420616374696f6e3a20657874656e742073686f7560448201527f6c642062652067726561746572206f7220657175616c20746f2074686520727560648201527f6c65000000000000000000000000000000000000000000000000000000000000608482015260a40161042a565b600488888561ffff16818110610d8457610d8461150a565b9050602002810190610d969190611539565b610da790606081019060400161161b565b6006811115610db857610db86115ec565b1415610e4e5780841115610a77576040517f08c379a000000000000000000000000000000000000000000000000000000000815260206004820152603f60248201527f556e617574686f72697a656420616374696f6e3a20657874656e742073686f7560448201527f6c64206265206c657373206f7220657175616c20746f207468652072756c6500606482015260840161042a565b600588888561ffff16818110610e6657610e6661150a565b9050602002810190610e789190611539565b610e8990606081019060400161161b565b6006811115610e9a57610e9a6115ec565b1415610f305780841415610a77576040517f08c379a000000000000000000000000000000000000000000000000000000000815260206004820152603b60248201527f556e617574686f72697a656420616374696f6e3a20657874656e742073686f7560448201527f6c64206265206e6f7420657175616c20746f207468652072756c650000000000606482015260840161042a565b6040517f08c379a000000000000000000000000000000000000000000000000000000000815260206004820152602960248201527f556e617574686f72697a656420616374696f6e3a20696e76616c69642072756c60448201527f65206b6579776f72640000000000000000000000000000000000000000000000606482015260840161042a565b50505061105f565b505b80610fcc8161163c565b9150506107ba565b50604080517f08c379a00000000000000000000000000000000000000000000000000000000081526020600482015260248101919091527f556e617574686f72697a656420616374696f6e3a206e6f2072756c65206d617460448201527f636865732e206661696c2074686520757365724f702062792064656661756c74606482015260840161042a565b5050505050565b60008083601f84011261107857600080fd5b50813567ffffffffffffffff81111561109057600080fd5b6020830191508360208285010111156110a857600080fd5b9250929050565b600080602083850312156110c257600080fd5b823567ffffffffffffffff8111156110d957600080fd5b6110e585828601611066565b90969095509350505050565b60005b8381101561110c5781810151838201526020016110f4565b8381111561111b576000848401525b50505050565b600081518084526111398160208601602086016110f1565b601f017fffffffffffffffffffffffffffffffffffffffffffffffffffffffffffffffe0169290920160200192915050565b60208152600061117e6020830184611121565b9392505050565b73ffffffffffffffffffffffffffffffffffffffff811681146111a757600080fd5b50565b7f4e487b7100000000000000000000000000000000000000000000000000000000600052604160045260246000fd5b604051601f82017fffffffffffffffffffffffffffffffffffffffffffffffffffffffffffffffe016810167ffffffffffffffff81118282101715611220576112206111aa565b604052919050565b600067ffffffffffffffff821115611242576112426111aa565b50601f017fffffffffffffffffffffffffffffffffffffffffffffffffffffffffffffffe01660200190565b600082601f83011261127f57600080fd5b813561129261128d82611228565b6111d9565b8181528460208386010111156112a757600080fd5b816020850160208301376000918101602001919091529392505050565b6000806000606084860312156112d957600080fd5b83356112e481611185565b925060208401359150604084013567ffffffffffffffff81111561130757600080fd5b6113138682870161126e565b9150509250925092565b6000806000806040858703121561133357600080fd5b843567ffffffffffffffff8082111561134b57600080fd5b61135788838901611066565b9096509450602087013591508082111561137057600080fd5b818701915087601f83011261138457600080fd5b81358181111561139357600080fd5b8860208260051b85010111156113a857600080fd5b95989497505060200194505050565b600080600080608085870312156113cd57600080fd5b84356113d881611185565b935060208501356113e881611185565b925060408501359150606085013567ffffffffffffffff81111561140b57600080fd5b6114178782880161126e565b91505092959194509250565b60006020828403121561143557600080fd5b815167ffffffffffffffff81111561144c57600080fd5b8201601f8101841361145d57600080fd5b805161146b61128d82611228565b81815285602083850101111561148057600080fd5b6114918260208301602086016110f1565b95945050505050565b6000602082840312156114ac57600080fd5b5051919050565b73ffffffffffffffffffffffffffffffffffffffff841681528260208201526060604082015260006114916060830184611121565b6000602082840312156114fa57600080fd5b8151801515811461117e57600080fd5b7f4e487b7100000000000000000000000000000000000000000000000000000000600052603260045260246000fd5b600082357fffffffffffffffffffffffffffffffffffffffffffffffffffffffffffffff8183360301811261156d57600080fd5b9190910192915050565b60008083357fffffffffffffffffffffffffffffffffffffffffffffffffffffffffffffffe18436030181126115ac57600080fd5b83018035915067ffffffffffffffff8211156115c757600080fd5b6020019150368190038213156110a857600080fd5b8183823760009101908152919050565b7f4e487b7100000000000000000000000000000000000000000000000000000000600052602160045260246000fd5b60006020828403121561162d57600080fd5b81356007811061117e57600080fd5b600061ffff8083168181141561167b577f4e487b7100000000000000000000000000000000000000000000000000000000600052601160045260246000fd5b600101939250505056fea26469706673582212209a7dbb28a1c8e23f6dc4056206930358b589e2b972be0c1fc27142db4945e27564736f6c634300080c0033",
  "linkReferences": {},
  "deployedLinkReferences": {}
}