{
  "_format": "hh-sol-artifact-1",
  "contractName": "ApproveAndSwap",
  "sourceName": "contracts/modules/actions/ApproveAndSwap.sol",
  "abi": [
    {
      "inputs": [],
      "name": "EMPTY_STATE",
      "outputs": [
        {
          "internalType": "bytes",
          "name": "",
          "type": "bytes"
        }
      ],
      "stateMutability": "view",
      "type": "function"
    },
    {
      "inputs": [
        {
          "internalType": "bytes",
          "name": "data",
          "type": "bytes"
        }
      ],
      "name": "execute",
      "outputs": [
        {
          "internalType": "bytes",
          "name": "",
          "type": "bytes"
        }
      ],
      "stateMutability": "payable",
      "type": "function"
    },
    {
      "inputs": [],
      "name": "getState",
      "outputs": [
        {
          "internalType": "bytes",
          "name": "state",
          "type": "bytes"
        }
      ],
      "stateMutability": "view",
      "type": "function"
    },
    {
      "inputs": [
        {
          "internalType": "bytes",
          "name": "",
          "type": "bytes"
        }
      ],
      "name": "init",
      "outputs": [
        {
          "internalType": "bytes",
          "name": "",
          "type": "bytes"
        }
      ],
      "stateMutability": "payable",
      "type": "function"
    },
    {
      "inputs": [],
      "name": "payFee",
      "outputs": [],
      "stateMutability": "payable",
      "type": "function"
    },
    {
      "inputs": [
        {
          "internalType": "bytes",
          "name": "data",
          "type": "bytes"
        },
        {
          "components": [
            {
              "internalType": "bytes32",
              "name": "action",
              "type": "bytes32"
            },
            {
              "internalType": "bytes",
              "name": "target",
              "type": "bytes"
            },
            {
              "internalType": "enum Keyword",
              "name": "keyword",
              "type": "uint8"
            },
            {
              "internalType": "bytes32",
              "name": "extent",
              "type": "bytes32"
            }
          ],
          "internalType": "struct Rule[]",
          "name": "rules",
          "type": "tuple[]"
        }
      ],
      "name": "validate",
      "outputs": [],
      "stateMutability": "pure",
      "type": "function"
    },
    {
      "stateMutability": "payable",
      "type": "receive"
    }
  ],
  "bytecode": "0x608060405234801561001057600080fd5b5061139f806100206000396000f3fe6080604052600436106100695760003560e01c80634ddf47d4116100435780634ddf47d4146100b557806352bd4f41146100c85780638db71efb146100e857600080fd5b806309c5eabe146100755780631865c57d1461009e57806329610252146100b357600080fd5b3661007057005b600080fd5b610088610083366004610e18565b610131565b6040516100959190610ed4565b60405180910390f35b3480156100aa57600080fd5b506100886102b5565b005b6100886100c3366004610e18565b610357565b3480156100d457600080fd5b506100b36100e3366004610eee565b6103db565b3480156100f457600080fd5b506100886040518060400160405280600b81526020017f454d5054595f535441544500000000000000000000000000000000000000000081525081565b6060600080600080610143878761044e565b6040805173ffffffffffffffffffffffffffffffffffffffff8516602482015260448082018590528251808303909101815260649091019091526020810180517bffffffffffffffffffffffffffffffffffffffffffffffffffffffff167f095ea7b3000000000000000000000000000000000000000000000000000000001790529397509195509350915060006101dc868284610470565b90506000818060200190518101906101f49190610f88565b905080610262576040517f08c379a000000000000000000000000000000000000000000000000000000000815260206004820152600e60248201527f417070726f7665206661696c656400000000000000000000000000000000000060448201526064015b60405180910390fd5b61026e86600086610470565b506040518060400160405280600b81526020017f454d5054595f53544154450000000000000000000000000000000000000000008152509750505050505050505b92915050565b6040517fd06403d6000000000000000000000000000000000000000000000000000000008152306004820152606090339063d06403d690602401600060405180830381865afa15801561030c573d6000803e3d6000fd5b505050506040513d6000823e601f3d9081017fffffffffffffffffffffffffffffffffffffffffffffffffffffffffffffffe0168201604052610352919081019061106e565b905090565b60606103616102b5565b516103a0575060408051808201909152600b81527f454d5054595f535441544500000000000000000000000000000000000000000060208201526102af565b5060408051808201909152600b81527f454d5054595f5354415445000000000000000000000000000000000000000000602082015292915050565b60008060006103ea878761044e565b506040805173ffffffffffffffffffffffffffffffffffffffff85811660208301528416818301526060808201849052825180830390910181526080909101909152929550909350915060006104438787838587610520565b505050505050505050565b60008080606061046085870187611113565b9299919850965090945092505050565b6040517f20d2a20f00000000000000000000000000000000000000000000000000000000815260609033906320d2a20f906104b3908790879087906004016111b9565b6000604051808303816000875af11580156104d2573d6000803e3d6000fd5b505050506040513d6000823e601f3d9081017fffffffffffffffffffffffffffffffffffffffffffffffffffffffffffffffe0168201604052610518919081019061106e565b949350505050565b60005b61ffff8116851115610d3d577f2a0000000000000000000000000000000000000000000000000000000000000086868361ffff16818110610566576105666111ee565b9050602002810190610578919061121d565b3514806105ac57508386868361ffff16818110610597576105976111ee565b90506020028101906105a9919061121d565b35145b15610d2b57600086868361ffff168181106105c9576105c96111ee565b90506020028101906105db919061121d565b6105e990602081019061125b565b6040516105f79291906112c0565b60408051918290038220828201909152600182527f2a0000000000000000000000000000000000000000000000000000000000000060209092019190915290507f04994f67dc55b09e814ab7ffc8df3686b4afb2bb53e60eae97ef043fe03fb82981148061066a57508351602085012081145b15610d295760006106a388888561ffff1681811061068a5761068a6111ee565b905060200281019061069c919061121d565b6060013590565b9050600688888561ffff168181106106bd576106bd6111ee565b90506020028101906106cf919061121d565b6106e09060608101906040016112ff565b60068111156106f1576106f16112d0565b14156106ff57505050610dc8565b600088888561ffff16818110610717576107176111ee565b9050602002810190610729919061121d565b61073a9060608101906040016112ff565b600681111561074b5761074b6112d0565b14156107e5578084116107e0576040517f08c379a000000000000000000000000000000000000000000000000000000000815260206004820152603760248201527f556e617574686f72697a656420616374696f6e3a20657874656e742073686f7560448201527f6c642062652067726561746572207468616e2072756c650000000000000000006064820152608401610259565b610d21565b600188888561ffff168181106107fd576107fd6111ee565b905060200281019061080f919061121d565b6108209060608101906040016112ff565b6006811115610831576108316112d0565b14156108c6578084106107e0576040517f08c379a000000000000000000000000000000000000000000000000000000000815260206004820152603760248201527f556e617574686f72697a656420616374696f6e3a20657874656e742073686f7560448201527f6c6420626520736d616c6c6572207468616e2072756c650000000000000000006064820152608401610259565b600288888561ffff168181106108de576108de6111ee565b90506020028101906108f0919061121d565b6109019060608101906040016112ff565b6006811115610912576109126112d0565b14156109cd578084146107e0576040517f08c379a000000000000000000000000000000000000000000000000000000000815260206004820152604160248201527f556e617574686f72697a656420616374696f6e3a20657874656e742073686f7560448201527f6c6420626520657175616c20746f2074686520657874656e74206f662072756c60648201527f6500000000000000000000000000000000000000000000000000000000000000608482015260a401610259565b600388888561ffff168181106109e5576109e56111ee565b90506020028101906109f7919061121d565b610a089060608101906040016112ff565b6006811115610a1957610a196112d0565b1415610ad557808410156107e0576040517f08c379a000000000000000000000000000000000000000000000000000000000815260206004820152604260248201527f556e617574686f72697a656420616374696f6e3a20657874656e742073686f7560448201527f6c642062652067726561746572206f7220657175616c20746f2074686520727560648201527f6c65000000000000000000000000000000000000000000000000000000000000608482015260a401610259565b600488888561ffff16818110610aed57610aed6111ee565b9050602002810190610aff919061121d565b610b109060608101906040016112ff565b6006811115610b2157610b216112d0565b1415610bb757808411156107e0576040517f08c379a000000000000000000000000000000000000000000000000000000000815260206004820152603f60248201527f556e617574686f72697a656420616374696f6e3a20657874656e742073686f7560448201527f6c64206265206c657373206f7220657175616c20746f207468652072756c65006064820152608401610259565b600588888561ffff16818110610bcf57610bcf6111ee565b9050602002810190610be1919061121d565b610bf29060608101906040016112ff565b6006811115610c0357610c036112d0565b1415610c9957808414156107e0576040517f08c379a000000000000000000000000000000000000000000000000000000000815260206004820152603b60248201527f556e617574686f72697a656420616374696f6e3a20657874656e742073686f7560448201527f6c64206265206e6f7420657175616c20746f207468652072756c6500000000006064820152608401610259565b6040517f08c379a000000000000000000000000000000000000000000000000000000000815260206004820152602960248201527f556e617574686f72697a656420616374696f6e3a20696e76616c69642072756c60448201527f65206b6579776f726400000000000000000000000000000000000000000000006064820152608401610259565b505050610dc8565b505b80610d3581611320565b915050610523565b50604080517f08c379a00000000000000000000000000000000000000000000000000000000081526020600482015260248101919091527f556e617574686f72697a656420616374696f6e3a206e6f2072756c65206d617460448201527f636865732e206661696c2074686520757365724f702062792064656661756c746064820152608401610259565b5050505050565b60008083601f840112610de157600080fd5b50813567ffffffffffffffff811115610df957600080fd5b602083019150836020828501011115610e1157600080fd5b9250929050565b60008060208385031215610e2b57600080fd5b823567ffffffffffffffff811115610e4257600080fd5b610e4e85828601610dcf565b90969095509350505050565b60005b83811015610e75578181015183820152602001610e5d565b83811115610e84576000848401525b50505050565b60008151808452610ea2816020860160208601610e5a565b601f017fffffffffffffffffffffffffffffffffffffffffffffffffffffffffffffffe0169290920160200192915050565b602081526000610ee76020830184610e8a565b9392505050565b60008060008060408587031215610f0457600080fd5b843567ffffffffffffffff80821115610f1c57600080fd5b610f2888838901610dcf565b90965094506020870135915080821115610f4157600080fd5b818701915087601f830112610f5557600080fd5b813581811115610f6457600080fd5b8860208260051b8501011115610f7957600080fd5b95989497505060200194505050565b600060208284031215610f9a57600080fd5b81518015158114610ee757600080fd5b7f4e487b7100000000000000000000000000000000000000000000000000000000600052604160045260246000fd5b604051601f82017fffffffffffffffffffffffffffffffffffffffffffffffffffffffffffffffe016810167ffffffffffffffff8111828210171561102057611020610faa565b604052919050565b600067ffffffffffffffff82111561104257611042610faa565b50601f017fffffffffffffffffffffffffffffffffffffffffffffffffffffffffffffffe01660200190565b60006020828403121561108057600080fd5b815167ffffffffffffffff81111561109757600080fd5b8201601f810184136110a857600080fd5b80516110bb6110b682611028565b610fd9565b8181528560208385010111156110d057600080fd5b6110e1826020830160208601610e5a565b95945050505050565b803573ffffffffffffffffffffffffffffffffffffffff8116811461110e57600080fd5b919050565b6000806000806080858703121561112957600080fd5b611132856110ea565b9350611140602086016110ea565b925060408501359150606085013567ffffffffffffffff81111561116357600080fd5b8501601f8101871361117457600080fd5b80356111826110b682611028565b81815288602083850101111561119757600080fd5b8160208401602083013760006020838301015280935050505092959194509250565b73ffffffffffffffffffffffffffffffffffffffff841681528260208201526060604082015260006110e16060830184610e8a565b7f4e487b7100000000000000000000000000000000000000000000000000000000600052603260045260246000fd5b600082357fffffffffffffffffffffffffffffffffffffffffffffffffffffffffffffff8183360301811261125157600080fd5b9190910192915050565b60008083357fffffffffffffffffffffffffffffffffffffffffffffffffffffffffffffffe184360301811261129057600080fd5b83018035915067ffffffffffffffff8211156112ab57600080fd5b602001915036819003821315610e1157600080fd5b8183823760009101908152919050565b7f4e487b7100000000000000000000000000000000000000000000000000000000600052602160045260246000fd5b60006020828403121561131157600080fd5b813560078110610ee757600080fd5b600061ffff8083168181141561135f577f4e487b7100000000000000000000000000000000000000000000000000000000600052601160045260246000fd5b600101939250505056fea26469706673582212208a1163b98d751dd04128181d8c248e06e572d35db302066a3b3fe8a5ce71a17d64736f6c634300080c0033",
  "linkReferences": {},
  "deployedLinkReferences": {}
}