{"_format":"hh-sol-artifact-1","contractName":"ApproveAndSwap","sourceName":"contracts/modules/actions/ApproveAndSwap.sol","abi":[{"inputs":[{"internalType":"address","name":"_wethAddr","type":"address"}],"stateMutability":"nonpayable","type":"constructor"},{"inputs":[],"name":"emptyBytes32","outputs":[{"internalType":"bytes32","name":"","type":"bytes32"}],"stateMutability":"view","type":"function"},{"inputs":[{"internalType":"bytes","name":"","type":"bytes"}],"name":"execute","outputs":[{"internalType":"bytes","name":"","type":"bytes"}],"stateMutability":"payable","type":"function"},{"inputs":[{"internalType":"address","name":"tokenAddr","type":"address"},{"internalType":"address","name":"routerAddr","type":"address"},{"internalType":"uint256","name":"amount","type":"uint256"},{"internalType":"bytes","name":"routerCallData","type":"bytes"}],"name":"executeSwapERC20","outputs":[{"internalType":"bytes","name":"","type":"bytes"}],"stateMutability":"nonpayable","type":"function"},{"inputs":[{"internalType":"address","name":"routerAddr","type":"address"},{"internalType":"uint256","name":"amount","type":"uint256"},{"internalType":"bytes","name":"routerCallData","type":"bytes"}],"name":"executeSwapETH","outputs":[{"internalType":"bytes","name":"","type":"bytes"}],"stateMutability":"nonpayable","type":"function"},{"inputs":[],"name":"getState","outputs":[{"internalType":"bytes","name":"state","type":"bytes"}],"stateMutability":"view","type":"function"},{"inputs":[],"name":"getWeth","outputs":[{"internalType":"contract IWETH9","name":"","type":"address"}],"stateMutability":"view","type":"function"},{"inputs":[{"internalType":"bytes","name":"","type":"bytes"}],"name":"init","outputs":[{"internalType":"bytes","name":"","type":"bytes"}],"stateMutability":"payable","type":"function"},{"inputs":[],"name":"payFee","outputs":[],"stateMutability":"payable","type":"function"},{"inputs":[{"internalType":"bytes","name":"data","type":"bytes"},{"components":[{"internalType":"bytes32","name":"action","type":"bytes32"},{"internalType":"bytes","name":"target","type":"bytes"},{"internalType":"enum Keyword","name":"keyword","type":"uint8"},{"internalType":"bytes32","name":"extent","type":"bytes32"}],"internalType":"struct Rule[]","name":"rules","type":"tuple[]"}],"name":"validate","outputs":[],"stateMutability":"pure","type":"function"},{"stateMutability":"payable","type":"receive"}],"bytecode":"0x608060405234801561001057600080fd5b5060405161158238038061158283398101604081905261002f91610054565b600080546001600160a01b0319166001600160a01b0392909216919091179055610084565b60006020828403121561006657600080fd5b81516001600160a01b038116811461007d57600080fd5b9392505050565b6114ef806100936000396000f3fe60806040526004361061009a5760003560e01c806329610252116100695780634ddf47d41161004e5780634ddf47d41461015e57806352bd4f41146101715780636701b87d1461019157600080fd5b8063296102521461013c5780634242f0271461013e57600080fd5b806309c5eabe146100a65780630cc6235f146100cf578063107c279f146100f25780631865c57d1461012757600080fd5b366100a157005b600080fd5b6100b96100b4366004610f3d565b6101b1565b6040516100c69190610fdb565b60405180910390f35b3480156100db57600080fd5b506100e4600081565b6040519081526020016100c6565b3480156100fe57600080fd5b5060005460405173ffffffffffffffffffffffffffffffffffffffff90911681526020016100c6565b34801561013357600080fd5b506100b96101ec565b005b34801561014a57600080fd5b506100b96101593660046110f8565b610270565b6100b961016c366004610f3d565b61041f565b34801561017d57600080fd5b5061013c61018c366004611151565b6104a3565b34801561019d57600080fd5b506100b96101ac3660046111eb565b610514565b60408051808201909152600b81527f454d5054595f535441544500000000000000000000000000000000000000000060208201525b92915050565b6040517fd06403d6000000000000000000000000000000000000000000000000000000008152306004820152606090339063d06403d690602401600060405180830381865afa158015610243573d6000803e3d6000fd5b505050506040513d6000823e601f3d908101601f1916820160405261026b9190810190611257565b905090565b6000546040805160048152602481019091526020810180517bffffffffffffffffffffffffffffffffffffffffffffffffffffffff167fd0e30db00000000000000000000000000000000000000000000000000000000017905260609173ffffffffffffffffffffffffffffffffffffffff16906102ef82868361055f565b506000546040517f70a08231000000000000000000000000000000000000000000000000000000008152336004820152869173ffffffffffffffffffffffffffffffffffffffff16906370a0823190602401602060405180830381865afa15801561035e573d6000803e3d6000fd5b505050506040513d601f19601f8201168201806040525081019061038291906112ce565b10156103d55760405162461bcd60e51b815260206004820152601a60248201527f42616c616e6365206973206e6f74206869676820656e6f75676800000000000060448201526064015b60405180910390fd5b6103e1828787876105f1565b505060408051808201909152600b81527f454d5054595f53544154450000000000000000000000000000000000000000006020820152949350505050565b60606104296101ec565b51610468575060408051808201909152600b81527f454d5054595f535441544500000000000000000000000000000000000000000060208201526101e6565b5060408051808201909152600b81527f454d5054595f5354415445000000000000000000000000000000000000000000602082015292915050565b60008060006104b287876106f3565b506040805173ffffffffffffffffffffffffffffffffffffffff85811660208301528416818301526060808201849052825180830390910181526080909101909152929550909350915061050a868660008486610715565b5050505050505050565b6060610522858585856105f1565b5060408051808201909152600b81527f454d5054595f53544154450000000000000000000000000000000000000000006020820152949350505050565b6040517f20d2a20f00000000000000000000000000000000000000000000000000000000815260609033906320d2a20f906105a2908790879087906004016112e7565b6000604051808303816000875af11580156105c1573d6000803e3d6000fd5b505050506040513d6000823e601f3d908101601f191682016040526105e99190810190611257565b949350505050565b6040805173ffffffffffffffffffffffffffffffffffffffff8516602482015260448082018590528251808303909101815260649091019091526020810180517bffffffffffffffffffffffffffffffffffffffffffffffffffffffff167f095ea7b300000000000000000000000000000000000000000000000000000000179052600061068086828461055f565b9050600081806020019051810190610698919061131c565b9050806106e75760405162461bcd60e51b815260206004820152600e60248201527f417070726f7665206661696c656400000000000000000000000000000000000060448201526064016103cc565b61050a8660008661055f565b600080806060610705858701876111eb565b9299919850965090945092505050565b60005b61ffff8116851115610e7c577f2a0000000000000000000000000000000000000000000000000000000000000086868361ffff1681811061075b5761075b61133e565b905060200281019061076d919061136d565b3514806107a157508386868361ffff1681811061078c5761078c61133e565b905060200281019061079e919061136d565b35145b15610e6a57600086868361ffff168181106107be576107be61133e565b90506020028101906107d0919061136d565b6107de9060208101906113ab565b6040516107ec929190611410565b60408051918290038220828201909152600182527f2a0000000000000000000000000000000000000000000000000000000000000060209092019190915290507f04994f67dc55b09e814ab7ffc8df3686b4afb2bb53e60eae97ef043fe03fb82981148061085f57508351602085012081145b15610e6857600061089888888561ffff1681811061087f5761087f61133e565b9050602002810190610891919061136d565b6060013590565b9050600688888561ffff168181106108b2576108b261133e565b90506020028101906108c4919061136d565b6108d590606081019060400161144f565b60068111156108e6576108e6611420565b14156108f457505050610eed565b600088888561ffff1681811061090c5761090c61133e565b905060200281019061091e919061136d565b61092f90606081019060400161144f565b600681111561094057610940611420565b14156109c0578084116109bb5760405162461bcd60e51b815260206004820152603760248201527f556e617574686f72697a656420616374696f6e3a20657874656e742073686f7560448201527f6c642062652067726561746572207468616e2072756c6500000000000000000060648201526084016103cc565b610e60565b600188888561ffff168181106109d8576109d861133e565b90506020028101906109ea919061136d565b6109fb90606081019060400161144f565b6006811115610a0c57610a0c611420565b1415610a87578084106109bb5760405162461bcd60e51b815260206004820152603760248201527f556e617574686f72697a656420616374696f6e3a20657874656e742073686f7560448201527f6c6420626520736d616c6c6572207468616e2072756c6500000000000000000060648201526084016103cc565b600288888561ffff16818110610a9f57610a9f61133e565b9050602002810190610ab1919061136d565b610ac290606081019060400161144f565b6006811115610ad357610ad3611420565b1415610b74578084146109bb5760405162461bcd60e51b815260206004820152604160248201527f556e617574686f72697a656420616374696f6e3a20657874656e742073686f7560448201527f6c6420626520657175616c20746f2074686520657874656e74206f662072756c60648201527f6500000000000000000000000000000000000000000000000000000000000000608482015260a4016103cc565b600388888561ffff16818110610b8c57610b8c61133e565b9050602002810190610b9e919061136d565b610baf90606081019060400161144f565b6006811115610bc057610bc0611420565b1415610c6257808410156109bb5760405162461bcd60e51b815260206004820152604260248201527f556e617574686f72697a656420616374696f6e3a20657874656e742073686f7560448201527f6c642062652067726561746572206f7220657175616c20746f2074686520727560648201527f6c65000000000000000000000000000000000000000000000000000000000000608482015260a4016103cc565b600488888561ffff16818110610c7a57610c7a61133e565b9050602002810190610c8c919061136d565b610c9d90606081019060400161144f565b6006811115610cae57610cae611420565b1415610d2a57808411156109bb5760405162461bcd60e51b815260206004820152603f60248201527f556e617574686f72697a656420616374696f6e3a20657874656e742073686f7560448201527f6c64206265206c657373206f7220657175616c20746f207468652072756c650060648201526084016103cc565b600588888561ffff16818110610d4257610d4261133e565b9050602002810190610d54919061136d565b610d6590606081019060400161144f565b6006811115610d7657610d76611420565b1415610df257808414156109bb5760405162461bcd60e51b815260206004820152603b60248201527f556e617574686f72697a656420616374696f6e3a20657874656e742073686f7560448201527f6c64206265206e6f7420657175616c20746f207468652072756c65000000000060648201526084016103cc565b60405162461bcd60e51b815260206004820152602960248201527f556e617574686f72697a656420616374696f6e3a20696e76616c69642072756c60448201527f65206b6579776f7264000000000000000000000000000000000000000000000060648201526084016103cc565b505050610eed565b505b80610e7481611470565b915050610718565b506040805162461bcd60e51b81526020600482015260248101919091527f556e617574686f72697a656420616374696f6e3a206e6f2072756c65206d617460448201527f636865732e206661696c2074686520757365724f702062792064656661756c7460648201526084016103cc565b5050505050565b60008083601f840112610f0657600080fd5b50813567ffffffffffffffff811115610f1e57600080fd5b602083019150836020828501011115610f3657600080fd5b9250929050565b60008060208385031215610f5057600080fd5b823567ffffffffffffffff811115610f6757600080fd5b610f7385828601610ef4565b90969095509350505050565b60005b83811015610f9a578181015183820152602001610f82565b83811115610fa9576000848401525b50505050565b60008151808452610fc7816020860160208601610f7f565b601f01601f19169290920160200192915050565b602081526000610fee6020830184610faf565b9392505050565b73ffffffffffffffffffffffffffffffffffffffff8116811461101757600080fd5b50565b7f4e487b7100000000000000000000000000000000000000000000000000000000600052604160045260246000fd5b604051601f8201601f1916810167ffffffffffffffff811182821017156110725761107261101a565b604052919050565b600067ffffffffffffffff8211156110945761109461101a565b50601f01601f191660200190565b600082601f8301126110b357600080fd5b81356110c66110c18261107a565b611049565b8181528460208386010111156110db57600080fd5b816020850160208301376000918101602001919091529392505050565b60008060006060848603121561110d57600080fd5b833561111881610ff5565b925060208401359150604084013567ffffffffffffffff81111561113b57600080fd5b611147868287016110a2565b9150509250925092565b6000806000806040858703121561116757600080fd5b843567ffffffffffffffff8082111561117f57600080fd5b61118b88838901610ef4565b909650945060208701359150808211156111a457600080fd5b818701915087601f8301126111b857600080fd5b8135818111156111c757600080fd5b8860208260051b85010111156111dc57600080fd5b95989497505060200194505050565b6000806000806080858703121561120157600080fd5b843561120c81610ff5565b9350602085013561121c81610ff5565b925060408501359150606085013567ffffffffffffffff81111561123f57600080fd5b61124b878288016110a2565b91505092959194509250565b60006020828403121561126957600080fd5b815167ffffffffffffffff81111561128057600080fd5b8201601f8101841361129157600080fd5b805161129f6110c18261107a565b8181528560208385010111156112b457600080fd5b6112c5826020830160208601610f7f565b95945050505050565b6000602082840312156112e057600080fd5b5051919050565b73ffffffffffffffffffffffffffffffffffffffff841681528260208201526060604082015260006112c56060830184610faf565b60006020828403121561132e57600080fd5b81518015158114610fee57600080fd5b7f4e487b7100000000000000000000000000000000000000000000000000000000600052603260045260246000fd5b600082357fffffffffffffffffffffffffffffffffffffffffffffffffffffffffffffff818336030181126113a157600080fd5b9190910192915050565b60008083357fffffffffffffffffffffffffffffffffffffffffffffffffffffffffffffffe18436030181126113e057600080fd5b83018035915067ffffffffffffffff8211156113fb57600080fd5b602001915036819003821315610f3657600080fd5b8183823760009101908152919050565b7f4e487b7100000000000000000000000000000000000000000000000000000000600052602160045260246000fd5b60006020828403121561146157600080fd5b813560078110610fee57600080fd5b600061ffff808316818114156114af577f4e487b7100000000000000000000000000000000000000000000000000000000600052601160045260246000fd5b600101939250505056fea2646970667358221220a44366037cf7d40f1b0d6a2288b8a8f7606cfb477654772c8fb258163ddac74964736f6c634300080c0033","linkReferences":{},"deployedLinkReferences":{},"fileHash":"3458bf7fe41debfdbe8e3468ff88e72c74b72567a8e9d98d2b6c5fb8d9e0a6fd"}