{"_format":"hh-sol-artifact-1","contractName":"EntryPoint","sourceName":"contracts/eip-4337/EntryPoint.sol","abi":[{"inputs":[{"internalType":"uint256","name":"preOpGas","type":"uint256"},{"internalType":"uint256","name":"paid","type":"uint256"},{"internalType":"uint64","name":"validAfter","type":"uint64"},{"internalType":"uint64","name":"validBefore","type":"uint64"},{"internalType":"bool","name":"targetSuccess","type":"bool"},{"internalType":"bytes","name":"targetResult","type":"bytes"}],"name":"ExecutionResult","type":"error"},{"inputs":[{"internalType":"uint256","name":"opIndex","type":"uint256"},{"internalType":"address","name":"paymaster","type":"address"},{"internalType":"string","name":"reason","type":"string"}],"name":"FailedOp","type":"error"},{"inputs":[{"internalType":"address","name":"sender","type":"address"}],"name":"SenderAddressResult","type":"error"},{"inputs":[{"internalType":"address","name":"aggregator","type":"address"}],"name":"SignatureValidationFailed","type":"error"},{"inputs":[{"components":[{"internalType":"uint256","name":"preOpGas","type":"uint256"},{"internalType":"uint256","name":"prefund","type":"uint256"},{"internalType":"bool","name":"sigFailed","type":"bool"},{"internalType":"uint64","name":"validAfter","type":"uint64"},{"internalType":"uint64","name":"validUntil","type":"uint64"},{"internalType":"bytes","name":"paymasterContext","type":"bytes"}],"internalType":"struct IEntryPoint.ReturnInfo","name":"returnInfo","type":"tuple"},{"components":[{"internalType":"uint256","name":"stake","type":"uint256"},{"internalType":"uint256","name":"unstakeDelaySec","type":"uint256"}],"internalType":"struct IStakeManager.StakeInfo","name":"senderInfo","type":"tuple"},{"components":[{"internalType":"uint256","name":"stake","type":"uint256"},{"internalType":"uint256","name":"unstakeDelaySec","type":"uint256"}],"internalType":"struct IStakeManager.StakeInfo","name":"factoryInfo","type":"tuple"},{"components":[{"internalType":"uint256","name":"stake","type":"uint256"},{"internalType":"uint256","name":"unstakeDelaySec","type":"uint256"}],"internalType":"struct IStakeManager.StakeInfo","name":"paymasterInfo","type":"tuple"}],"name":"ValidationResult","type":"error"},{"inputs":[{"components":[{"internalType":"uint256","name":"preOpGas","type":"uint256"},{"internalType":"uint256","name":"prefund","type":"uint256"},{"internalType":"bool","name":"sigFailed","type":"bool"},{"internalType":"uint64","name":"validAfter","type":"uint64"},{"internalType":"uint64","name":"validUntil","type":"uint64"},{"internalType":"bytes","name":"paymasterContext","type":"bytes"}],"internalType":"struct IEntryPoint.ReturnInfo","name":"returnInfo","type":"tuple"},{"components":[{"internalType":"uint256","name":"stake","type":"uint256"},{"internalType":"uint256","name":"unstakeDelaySec","type":"uint256"}],"internalType":"struct IStakeManager.StakeInfo","name":"senderInfo","type":"tuple"},{"components":[{"internalType":"uint256","name":"stake","type":"uint256"},{"internalType":"uint256","name":"unstakeDelaySec","type":"uint256"}],"internalType":"struct IStakeManager.StakeInfo","name":"factoryInfo","type":"tuple"},{"components":[{"internalType":"uint256","name":"stake","type":"uint256"},{"internalType":"uint256","name":"unstakeDelaySec","type":"uint256"}],"internalType":"struct IStakeManager.StakeInfo","name":"paymasterInfo","type":"tuple"},{"components":[{"internalType":"address","name":"actualAggregator","type":"address"},{"components":[{"internalType":"uint256","name":"stake","type":"uint256"},{"internalType":"uint256","name":"unstakeDelaySec","type":"uint256"}],"internalType":"struct IStakeManager.StakeInfo","name":"stakeInfo","type":"tuple"}],"internalType":"struct IEntryPoint.AggregatorStakeInfo","name":"aggregatorInfo","type":"tuple"}],"name":"ValidationResultWithAggregation","type":"error"},{"anonymous":false,"inputs":[{"indexed":true,"internalType":"bytes32","name":"userOpHash","type":"bytes32"},{"indexed":true,"internalType":"address","name":"sender","type":"address"},{"indexed":false,"internalType":"address","name":"factory","type":"address"},{"indexed":false,"internalType":"address","name":"paymaster","type":"address"}],"name":"AccountDeployed","type":"event"},{"anonymous":false,"inputs":[{"indexed":true,"internalType":"address","name":"account","type":"address"},{"indexed":false,"internalType":"uint256","name":"totalDeposit","type":"uint256"}],"name":"Deposited","type":"event"},{"anonymous":false,"inputs":[{"indexed":false,"internalType":"address","name":"aggregator","type":"address"}],"name":"SignatureAggregatorChanged","type":"event"},{"anonymous":false,"inputs":[{"indexed":true,"internalType":"address","name":"account","type":"address"},{"indexed":false,"internalType":"uint256","name":"totalStaked","type":"uint256"},{"indexed":false,"internalType":"uint256","name":"withdrawTime","type":"uint256"}],"name":"StakeLocked","type":"event"},{"anonymous":false,"inputs":[{"indexed":true,"internalType":"address","name":"account","type":"address"},{"indexed":false,"internalType":"uint256","name":"withdrawTime","type":"uint256"}],"name":"StakeUnlocked","type":"event"},{"anonymous":false,"inputs":[{"indexed":true,"internalType":"address","name":"account","type":"address"},{"indexed":false,"internalType":"address","name":"withdrawAddress","type":"address"},{"indexed":false,"internalType":"uint256","name":"amount","type":"uint256"}],"name":"StakeWithdrawn","type":"event"},{"anonymous":false,"inputs":[{"indexed":true,"internalType":"bytes32","name":"userOpHash","type":"bytes32"},{"indexed":true,"internalType":"address","name":"sender","type":"address"},{"indexed":true,"internalType":"address","name":"paymaster","type":"address"},{"indexed":false,"internalType":"uint256","name":"nonce","type":"uint256"},{"indexed":false,"internalType":"bool","name":"success","type":"bool"},{"indexed":false,"internalType":"uint256","name":"actualGasCost","type":"uint256"},{"indexed":false,"internalType":"uint256","name":"actualGasUsed","type":"uint256"}],"name":"UserOperationEvent","type":"event"},{"anonymous":false,"inputs":[{"indexed":true,"internalType":"bytes32","name":"userOpHash","type":"bytes32"},{"indexed":true,"internalType":"address","name":"sender","type":"address"},{"indexed":false,"internalType":"uint256","name":"nonce","type":"uint256"},{"indexed":false,"internalType":"bytes","name":"revertReason","type":"bytes"}],"name":"UserOperationRevertReason","type":"event"},{"anonymous":false,"inputs":[{"indexed":true,"internalType":"address","name":"account","type":"address"},{"indexed":false,"internalType":"address","name":"withdrawAddress","type":"address"},{"indexed":false,"internalType":"uint256","name":"amount","type":"uint256"}],"name":"Withdrawn","type":"event"},{"inputs":[],"name":"SIG_VALIDATION_FAILED","outputs":[{"internalType":"uint256","name":"","type":"uint256"}],"stateMutability":"view","type":"function"},{"inputs":[{"internalType":"address","name":"sender","type":"address"},{"internalType":"address","name":"paymaster","type":"address"}],"name":"_simulateFindAggregator","outputs":[],"stateMutability":"view","type":"function"},{"inputs":[{"internalType":"uint32","name":"_unstakeDelaySec","type":"uint32"}],"name":"addStake","outputs":[],"stateMutability":"payable","type":"function"},{"inputs":[{"internalType":"address","name":"account","type":"address"}],"name":"balanceOf","outputs":[{"internalType":"uint256","name":"","type":"uint256"}],"stateMutability":"view","type":"function"},{"inputs":[{"internalType":"address","name":"account","type":"address"}],"name":"depositTo","outputs":[],"stateMutability":"payable","type":"function"},{"inputs":[{"internalType":"address","name":"","type":"address"}],"name":"deposits","outputs":[{"internalType":"uint112","name":"deposit","type":"uint112"},{"internalType":"bool","name":"staked","type":"bool"},{"internalType":"uint112","name":"stake","type":"uint112"},{"internalType":"uint32","name":"unstakeDelaySec","type":"uint32"},{"internalType":"uint64","name":"withdrawTime","type":"uint64"}],"stateMutability":"view","type":"function"},{"inputs":[{"internalType":"address","name":"account","type":"address"}],"name":"getDepositInfo","outputs":[{"components":[{"internalType":"uint112","name":"deposit","type":"uint112"},{"internalType":"bool","name":"staked","type":"bool"},{"internalType":"uint112","name":"stake","type":"uint112"},{"internalType":"uint32","name":"unstakeDelaySec","type":"uint32"},{"internalType":"uint64","name":"withdrawTime","type":"uint64"}],"internalType":"struct IStakeManager.DepositInfo","name":"info","type":"tuple"}],"stateMutability":"view","type":"function"},{"inputs":[{"internalType":"bytes","name":"initCode","type":"bytes"}],"name":"getSenderAddress","outputs":[],"stateMutability":"nonpayable","type":"function"},{"inputs":[{"components":[{"internalType":"address","name":"sender","type":"address"},{"internalType":"uint256","name":"nonce","type":"uint256"},{"internalType":"bytes","name":"initCode","type":"bytes"},{"internalType":"bytes","name":"callData","type":"bytes"},{"internalType":"uint256","name":"callGasLimit","type":"uint256"},{"internalType":"uint256","name":"verificationGasLimit","type":"uint256"},{"internalType":"uint256","name":"preVerificationGas","type":"uint256"},{"internalType":"uint256","name":"maxFeePerGas","type":"uint256"},{"internalType":"uint256","name":"maxPriorityFeePerGas","type":"uint256"},{"internalType":"bytes","name":"paymasterAndData","type":"bytes"},{"internalType":"bytes","name":"signature","type":"bytes"}],"internalType":"struct UserOperation","name":"userOp","type":"tuple"}],"name":"getUserOpHash","outputs":[{"internalType":"bytes32","name":"","type":"bytes32"}],"stateMutability":"view","type":"function"},{"inputs":[{"components":[{"components":[{"internalType":"address","name":"sender","type":"address"},{"internalType":"uint256","name":"nonce","type":"uint256"},{"internalType":"bytes","name":"initCode","type":"bytes"},{"internalType":"bytes","name":"callData","type":"bytes"},{"internalType":"uint256","name":"callGasLimit","type":"uint256"},{"internalType":"uint256","name":"verificationGasLimit","type":"uint256"},{"internalType":"uint256","name":"preVerificationGas","type":"uint256"},{"internalType":"uint256","name":"maxFeePerGas","type":"uint256"},{"internalType":"uint256","name":"maxPriorityFeePerGas","type":"uint256"},{"internalType":"bytes","name":"paymasterAndData","type":"bytes"},{"internalType":"bytes","name":"signature","type":"bytes"}],"internalType":"struct UserOperation[]","name":"userOps","type":"tuple[]"},{"internalType":"contract IAggregator","name":"aggregator","type":"address"},{"internalType":"bytes","name":"signature","type":"bytes"}],"internalType":"struct IEntryPoint.UserOpsPerAggregator[]","name":"opsPerAggregator","type":"tuple[]"},{"internalType":"address payable","name":"beneficiary","type":"address"}],"name":"handleAggregatedOps","outputs":[],"stateMutability":"nonpayable","type":"function"},{"inputs":[{"components":[{"internalType":"address","name":"sender","type":"address"},{"internalType":"uint256","name":"nonce","type":"uint256"},{"internalType":"bytes","name":"initCode","type":"bytes"},{"internalType":"bytes","name":"callData","type":"bytes"},{"internalType":"uint256","name":"callGasLimit","type":"uint256"},{"internalType":"uint256","name":"verificationGasLimit","type":"uint256"},{"internalType":"uint256","name":"preVerificationGas","type":"uint256"},{"internalType":"uint256","name":"maxFeePerGas","type":"uint256"},{"internalType":"uint256","name":"maxPriorityFeePerGas","type":"uint256"},{"internalType":"bytes","name":"paymasterAndData","type":"bytes"},{"internalType":"bytes","name":"signature","type":"bytes"}],"internalType":"struct UserOperation[]","name":"ops","type":"tuple[]"},{"internalType":"address payable","name":"beneficiary","type":"address"}],"name":"handleOps","outputs":[],"stateMutability":"nonpayable","type":"function"},{"inputs":[{"internalType":"bytes","name":"callData","type":"bytes"},{"components":[{"components":[{"internalType":"address","name":"sender","type":"address"},{"internalType":"uint256","name":"nonce","type":"uint256"},{"internalType":"uint256","name":"callGasLimit","type":"uint256"},{"internalType":"uint256","name":"verificationGasLimit","type":"uint256"},{"internalType":"uint256","name":"preVerificationGas","type":"uint256"},{"internalType":"address","name":"paymaster","type":"address"},{"internalType":"uint256","name":"maxFeePerGas","type":"uint256"},{"internalType":"uint256","name":"maxPriorityFeePerGas","type":"uint256"}],"internalType":"struct EntryPoint.MemoryUserOp","name":"mUserOp","type":"tuple"},{"internalType":"bytes32","name":"userOpHash","type":"bytes32"},{"internalType":"uint256","name":"prefund","type":"uint256"},{"internalType":"uint256","name":"contextOffset","type":"uint256"},{"internalType":"uint256","name":"preOpGas","type":"uint256"}],"internalType":"struct EntryPoint.UserOpInfo","name":"opInfo","type":"tuple"},{"internalType":"bytes","name":"context","type":"bytes"}],"name":"innerHandleOp","outputs":[{"internalType":"uint256","name":"actualGasCost","type":"uint256"}],"stateMutability":"nonpayable","type":"function"},{"inputs":[{"components":[{"internalType":"address","name":"sender","type":"address"},{"internalType":"uint256","name":"nonce","type":"uint256"},{"internalType":"bytes","name":"initCode","type":"bytes"},{"internalType":"bytes","name":"callData","type":"bytes"},{"internalType":"uint256","name":"callGasLimit","type":"uint256"},{"internalType":"uint256","name":"verificationGasLimit","type":"uint256"},{"internalType":"uint256","name":"preVerificationGas","type":"uint256"},{"internalType":"uint256","name":"maxFeePerGas","type":"uint256"},{"internalType":"uint256","name":"maxPriorityFeePerGas","type":"uint256"},{"internalType":"bytes","name":"paymasterAndData","type":"bytes"},{"internalType":"bytes","name":"signature","type":"bytes"}],"internalType":"struct UserOperation","name":"op","type":"tuple"},{"internalType":"address","name":"target","type":"address"},{"internalType":"bytes","name":"targetCallData","type":"bytes"}],"name":"simulateHandleOp","outputs":[],"stateMutability":"nonpayable","type":"function"},{"inputs":[{"components":[{"internalType":"address","name":"sender","type":"address"},{"internalType":"uint256","name":"nonce","type":"uint256"},{"internalType":"bytes","name":"initCode","type":"bytes"},{"internalType":"bytes","name":"callData","type":"bytes"},{"internalType":"uint256","name":"callGasLimit","type":"uint256"},{"internalType":"uint256","name":"verificationGasLimit","type":"uint256"},{"internalType":"uint256","name":"preVerificationGas","type":"uint256"},{"internalType":"uint256","name":"maxFeePerGas","type":"uint256"},{"internalType":"uint256","name":"maxPriorityFeePerGas","type":"uint256"},{"internalType":"bytes","name":"paymasterAndData","type":"bytes"},{"internalType":"bytes","name":"signature","type":"bytes"}],"internalType":"struct UserOperation","name":"userOp","type":"tuple"}],"name":"simulateValidation","outputs":[],"stateMutability":"nonpayable","type":"function"},{"inputs":[],"name":"unlockStake","outputs":[],"stateMutability":"nonpayable","type":"function"},{"inputs":[{"internalType":"address payable","name":"withdrawAddress","type":"address"}],"name":"withdrawStake","outputs":[],"stateMutability":"nonpayable","type":"function"},{"inputs":[{"internalType":"address payable","name":"withdrawAddress","type":"address"},{"internalType":"uint256","name":"withdrawAmount","type":"uint256"}],"name":"withdrawTo","outputs":[],"stateMutability":"nonpayable","type":"function"},{"stateMutability":"payable","type":"receive"}],"bytecode":"0x60a0604052604051620000129062000050565b604051809103906000f0801580156200002f573d6000803e3d6000fd5b506001600160a01b03166080523480156200004957600080fd5b506200005e565b610233806200425883390190565b6080516141d762000081600039600081816111440152612f7401526141d76000f3fe6080604052600436106101125760003560e01c80639b249f69116100a5578063bb9fe6bf11610074578063d6383f9411610059578063d6383f9414610416578063ee21942314610436578063fc7e286d1461045657600080fd5b8063bb9fe6bf146103e1578063c23a5cea146103f657600080fd5b80639b249f691461036e578063a47a3fbc1461038e578063a6193531146103ae578063b760faf9146103ce57600080fd5b80634b1d7cf5116100e15780634b1d7cf5146101ad5780635287ce12146101cd57806370a08231146103135780638f41ec5a1461035957600080fd5b80630396cb60146101275780631d7327561461013a5780631fad948c1461016d578063205c28781461018d57600080fd5b366101225761012033610534565b005b600080fd5b61012061013536600461323f565b6105a2565b34801561014657600080fd5b5061015a610155366004613470565b6108be565b6040519081526020015b60405180910390f35b34801561017957600080fd5b5061012061018836600461357b565b610a4a565b34801561019957600080fd5b506101206101a83660046135d2565b610b8d565b3480156101b957600080fd5b506101206101c836600461357b565b610d41565b3480156101d957600080fd5b506102b26101e83660046135fe565b6040805160a081018252600080825260208201819052918101829052606081018290526080810191909152506001600160a01b031660009081526020818152604091829020825160a08101845281546dffffffffffffffffffffffffffff80821683526e010000000000000000000000000000820460ff161515948301949094526f0100000000000000000000000000000090049092169282019290925260019091015463ffffffff81166060830152640100000000900467ffffffffffffffff16608082015290565b6040805182516dffffffffffffffffffffffffffff908116825260208085015115159083015283830151169181019190915260608083015163ffffffff169082015260809182015167ffffffffffffffff169181019190915260a001610164565b34801561031f57600080fd5b5061015a61032e3660046135fe565b6001600160a01b03166000908152602081905260409020546dffffffffffffffffffffffffffff1690565b34801561036557600080fd5b5061015a600181565b34801561037a57600080fd5b5061012061038936600461361b565b611114565b34801561039a57600080fd5b506101206103a936600461365d565b6111fc565b3480156103ba57600080fd5b5061015a6103c93660046136af565b611384565b6101206103dc3660046135fe565b610534565b3480156103ed57600080fd5b506101206113c6565b34801561040257600080fd5b506101206104113660046135fe565b611545565b34801561042257600080fd5b506101206104313660046136e4565b6117c7565b34801561044257600080fd5b506101206104513660046136af565b6118d1565b34801561046257600080fd5b506104e56104713660046135fe565b600060208190529081526040902080546001909101546dffffffffffffffffffffffffffff808316926e010000000000000000000000000000810460ff16926f010000000000000000000000000000009091049091169063ffffffff811690640100000000900467ffffffffffffffff1685565b604080516dffffffffffffffffffffffffffff96871681529415156020860152929094169183019190915263ffffffff16606082015267ffffffffffffffff909116608082015260a001610164565b61053e8134611ba4565b6001600160a01b03811660008181526020818152604091829020805492516dffffffffffffffffffffffffffff909316835292917f2da466a7b24304f47e87fa2e1e5a81b9831ce54fec19055ce277ca2f39ba42c491015b60405180910390a25050565b33600090815260208190526040902063ffffffff82166106095760405162461bcd60e51b815260206004820152601a60248201527f6d757374207370656369667920756e7374616b652064656c617900000000000060448201526064015b60405180910390fd5b600181015463ffffffff90811690831610156106675760405162461bcd60e51b815260206004820152601c60248201527f63616e6e6f7420646563726561736520756e7374616b652074696d65000000006044820152606401610600565b805460009061069a9034906f0100000000000000000000000000000090046dffffffffffffffffffffffffffff16613775565b9050600081116106ec5760405162461bcd60e51b815260206004820152601260248201527f6e6f207374616b652073706563696669656400000000000000000000000000006044820152606401610600565b6dffffffffffffffffffffffffffff81106107495760405162461bcd60e51b815260206004820152600e60248201527f7374616b65206f766572666c6f770000000000000000000000000000000000006044820152606401610600565b6040805160a08101825283546dffffffffffffffffffffffffffff90811682526001602080840182815286841685870190815263ffffffff808b16606088019081526000608089018181523380835296829052908a9020985189549551945189166f01000000000000000000000000000000027fffffff0000000000000000000000000000ffffffffffffffffffffffffffffff9515156e010000000000000000000000000000027fffffffffffffffffffffffffffffffffff0000000000000000000000000000009097169190991617949094179290921695909517865551949092018054925167ffffffffffffffff16640100000000027fffffffffffffffffffffffffffffffffffffffff000000000000000000000000909316949093169390931717905590517fa5ae833d0bb1dcd632d98a8b70973e8516812898e19bf27b70071ebc8dc52c01906108b1908490879091825263ffffffff16602082015260400190565b60405180910390a2505050565b6000805a90503330146109135760405162461bcd60e51b815260206004820152601760248201527f4141393220696e7465726e616c2063616c6c206f6e6c790000000000000000006044820152606401610600565b8451604081015160608201518101611388015a1015610956577fdeaddead0000000000000000000000000000000000000000000000000000000060005260206000fd5b8751600090156109ea576000610973846000015160008c86611c7a565b9050806109e8576000610987610800611c92565b8051909150156109e25784600001516001600160a01b03168a602001517f1c4fada7374c0a9ee8841fc38afe82932dc0f8e69012e927f061a8bae611a2018760200151846040516109d99291906137e5565b60405180910390a35b60019250505b505b600088608001515a8603019050610a3c6000838b8b8b8080601f016020809104026020016040519081016040528093929190818152602001838380828437600092019190915250889250611cbe915050565b9a9950505050505050505050565b8160008167ffffffffffffffff811115610a6657610a66613265565b604051908082528060200260200182016040528015610a9f57816020015b610a8c6131b5565b815260200190600190039081610a845790505b50905060005b82811015610b1a576000828281518110610ac157610ac16137fe565b60200260200101519050600080610afe848a8a87818110610ae457610ae46137fe565b9050602002810190610af6919061382d565b856000611ff0565b5091509150610b0f8484848461218d565b505050600101610aa5565b506000805b83811015610b7a57610b6e81888884818110610b3d57610b3d6137fe565b9050602002810190610b4f919061382d565b858481518110610b6157610b616137fe565b602002602001015161235f565b90910190600101610b1f565b50610b8584826124c1565b505050505050565b33600090815260208190526040902080546dffffffffffffffffffffffffffff16821115610bfd5760405162461bcd60e51b815260206004820152601960248201527f576974686472617720616d6f756e7420746f6f206c61726765000000000000006044820152606401610600565b8054610c1a9083906dffffffffffffffffffffffffffff1661386b565b81547fffffffffffffffffffffffffffffffffffff0000000000000000000000000000166dffffffffffffffffffffffffffff91909116178155604080516001600160a01b03851681526020810184905233917fd1c19fbcd4551a5edfb66d43d2e337c04837afda3482b42bdf569a8fccdae5fb910160405180910390a26000836001600160a01b03168360405160006040518083038185875af1925050503d8060008114610ce5576040519150601f19603f3d011682016040523d82523d6000602084013e610cea565b606091505b5050905080610d3b5760405162461bcd60e51b815260206004820152601260248201527f6661696c656420746f20776974686472617700000000000000000000000000006044820152606401610600565b50505050565b816000805b82811015610d9b57858582818110610d6057610d606137fe565b9050602002810190610d729190613882565b610d7c90806138b6565b610d87915083613775565b915080610d9381613900565b915050610d46565b5060008167ffffffffffffffff811115610db757610db7613265565b604051908082528060200260200182016040528015610df057816020015b610ddd6131b5565b815260200190600190039081610dd55790505b5090506000805b84811015610fab5736888883818110610e1257610e126137fe565b9050602002810190610e249190613882565b9050366000610e3383806138b6565b90925090506000610e4a60408501602086016135fe565b90508160005b81811015610edc576000898981518110610e6c57610e6c6137fe565b60200260200101519050600080610ea88b898987818110610e8f57610e8f6137fe565b9050602002810190610ea1919061382d565b8589611ff0565b5091509150610eb98484848461218d565b8a610ec381613900565b9b50505050508080610ed490613900565b915050610e50565b506001600160a01b03821615610f93576001600160a01b03821663e3563a4f8585610f0a60408a018a613939565b6040518563ffffffff1660e01b8152600401610f299493929190613ae8565b60006040518083038186803b158015610f4157600080fd5b505afa925050508015610f52575060015b610f93576040517f86a9f7500000000000000000000000000000000000000000000000000000000081526001600160a01b0383166004820152602401610600565b50505050508080610fa390613900565b915050610df7565b50600080915060005b858110156110cb5736898983818110610fcf57610fcf6137fe565b9050602002810190610fe19190613882565b90507f575ff3acadd5ab348fe1855e217e0f3678f8d767d7494c9f9fefbee2e17cca4d61101460408301602084016135fe565b6040516001600160a01b03909116815260200160405180910390a136600061103c83806138b6565b90925090508060005b818110156110b35761108788858584818110611063576110636137fe565b9050602002810190611075919061382d565b8b8b81518110610b6157610b616137fe565b6110919088613775565b96508761109d81613900565b98505080806110ab90613900565b915050611045565b505050505080806110c390613900565b915050610fb4565b50604051600081527f575ff3acadd5ab348fe1855e217e0f3678f8d767d7494c9f9fefbee2e17cca4d9060200160405180910390a161110a86826124c1565b5050505050505050565b6040517f570e1a360000000000000000000000000000000000000000000000000000000081526001600160a01b037f0000000000000000000000000000000000000000000000000000000000000000169063570e1a369061117b9085908590600401613b9f565b6020604051808303816000875af115801561119a573d6000803e3d6000fd5b505050506040513d601f19601f820116820180604052508101906111be9190613bb3565b6040517f6ca7b8060000000000000000000000000000000000000000000000000000000081526001600160a01b039091166004820152602401610600565b33301461124b5760405162461bcd60e51b815260206004820152601760248201527f4141393220696e7465726e616c2063616c6c206f6e6c790000000000000000006044820152606401610600565b60006001600160a01b0383163b6112a45760405162461bcd60e51b815260206004820152601960248201527f41413230206163636f756e74206e6f74206465706c6f796564000000000000006044820152606401610600565b6001600160a01b038216158015906112c457506001600160a01b0382163b155b156113115760405162461bcd60e51b815260206004820152601b60248201527f41413330207061796d6173746572206e6f74206465706c6f79656400000000006044820152606401610600565b826001600160a01b0316633ad59dbc6040518163ffffffff1660e01b8152600401602060405180830381865afa92505050801561136b575060408051601f3d908101601f1916820190925261136891810190613bb3565b60015b6113775750600061137a565b90505b8060005260206000fd5b600061138f826125bf565b6040805160208101929092523090820152466060820152608001604051602081830303815290604052805190602001209050919050565b336000908152602081905260409020600181015463ffffffff1661142c5760405162461bcd60e51b815260206004820152600a60248201527f6e6f74207374616b6564000000000000000000000000000000000000000000006044820152606401610600565b80546e010000000000000000000000000000900460ff1661148f5760405162461bcd60e51b815260206004820152601160248201527f616c726561647920756e7374616b696e670000000000000000000000000000006044820152606401610600565b60018101546000906114a79063ffffffff1642613bd0565b6001830180547fffffffffffffffffffffffffffffffffffffffff0000000000000000ffffffff1664010000000067ffffffffffffffff84169081029190911790915583547fffffffffffffffffffffffffffffffffff00ffffffffffffffffffffffffffff16845560405190815290915033907ffa9b3c14cc825c412c9ed81b3ba365a5b459439403f18829e572ed53a4180f0a90602001610596565b33600090815260208190526040902080546f0100000000000000000000000000000090046dffffffffffffffffffffffffffff16806115c65760405162461bcd60e51b815260206004820152601460248201527f4e6f207374616b6520746f2077697468647261770000000000000000000000006044820152606401610600565b6001820154640100000000900467ffffffffffffffff166116295760405162461bcd60e51b815260206004820152601d60248201527f6d7573742063616c6c20756e6c6f636b5374616b6528292066697273740000006044820152606401610600565b60018201544264010000000090910467ffffffffffffffff1611156116905760405162461bcd60e51b815260206004820152601b60248201527f5374616b65207769746864726177616c206973206e6f742064756500000000006044820152606401610600565b6001820180547fffffffffffffffffffffffffffffffffffffffff00000000000000000000000016905581547fffffff0000000000000000000000000000ffffffffffffffffffffffffffffff168255604080516001600160a01b03851681526020810183905233917fb7c918e0e249f999e965cafeb6c664271b3f4317d296461500e71da39f0cbda3910160405180910390a26000836001600160a01b03168260405160006040518083038185875af1925050503d8060008114611771576040519150601f19603f3d011682016040523d82523d6000602084013e611776565b606091505b5050905080610d3b5760405162461bcd60e51b815260206004820152601860248201527f6661696c656420746f207769746864726177207374616b6500000000000000006044820152606401610600565b6117cf6131b5565b6000806117e0600088856001611ff0565b50915091506000806117f284846125d8565b925092505061180043600052565b600061180e60008b8861235f565b905061181943600052565b600060606001600160a01b038b161561188f578a6001600160a01b03168a8a604051611846929190613bfc565b6000604051808303816000865af19150503d8060008114611883576040519150601f19603f3d011682016040523d82523d6000602084013e611888565b606091505b5090925090505b876080015183868685856040517f8ec8198700000000000000000000000000000000000000000000000000000000815260040161060096959493929190613c0c565b6118d96131b5565b60008060006118ec600086866001611ff0565b865160a00151604080518082018252600080825260208083018281526001600160a01b03958616835282825284832080546dffffffffffffffffffffffffffff6f01000000000000000000000000000000918290048116875260019283015463ffffffff9081169094528f51518851808a018a5287815280870188815291909a168752868652888720805493909304909116895291015490911690528351808501909452818452830152949750929550909350903660006119b060408b018b613939565b9092509050600060148210156119c75760006119e2565b6119d5601460008486613c59565b6119de91613c83565b60601c5b604080518082018252600080825260208083018281526001600160a01b03861683529082905292902080546f0100000000000000000000000000000090046dffffffffffffffffffffffffffff1682526001015463ffffffff1690915290915093505050506000806000611a5689896125d8565b92509250925060006040518060c001604052808c6080015181526020018c60400151815260200185151581526020018467ffffffffffffffff1681526020018367ffffffffffffffff168152602001611ab08d6060015190565b905290506001600160a01b03881615611b6a576040805180820182526001600160a01b038a1680825282518084018452600080825260208083018281529382528181529085902080546f0100000000000000000000000000000090046dffffffffffffffffffffffffffff1683526001015463ffffffff169092529082015290517f356877a3000000000000000000000000000000000000000000000000000000008152610600908390899089908c908690600401613d24565b808686896040517ff04297e90000000000000000000000000000000000000000000000000000000081526004016106009493929190613da4565b6001600160a01b03821660009081526020819052604081208054909190611bdc9084906dffffffffffffffffffffffffffff16613775565b90506dffffffffffffffffffffffffffff811115611c3c5760405162461bcd60e51b815260206004820152601060248201527f6465706f736974206f766572666c6f77000000000000000000000000000000006044820152606401610600565b81547fffffffffffffffffffffffffffffffffffff0000000000000000000000000000166dffffffffffffffffffffffffffff919091161790555050565b6000806000845160208601878987f195945050505050565b60603d82811115611ca05750815b604051602082018101604052818152816000602083013e9392505050565b6000805a855190915060009081611cd482612655565b60a08301519091506001600160a01b038116611cf35782519350611ec8565b809350600088511115611ec857868202955060028a6002811115611d1957611d19613dfc565b14611da45760608301516040517fa9a234090000000000000000000000000000000000000000000000000000000081526001600160a01b0383169163a9a2340991611d6c908e908d908c90600401613e2b565b600060405180830381600088803b158015611d8657600080fd5b5087f1158015611d9a573d6000803e3d6000fd5b5050505050611ec8565b60608301516040517fa9a234090000000000000000000000000000000000000000000000000000000081526001600160a01b0383169163a9a2340991611df2908e908d908c90600401613e2b565b600060405180830381600088803b158015611e0c57600080fd5b5087f193505050508015611e1e575060015b611ec857611e2a613e8b565b806308c379a01415611e685750611e3f613ea7565b80611e4a5750611e6a565b8b828260405162fa072b60e01b815260040161060093929190613f4f565b505b60405162fa072b60e01b8152600481018c90526001600160a01b038216602482015260606044820152601160648201527f41353020706f73744f7020726576657274000000000000000000000000000000608482015260a401610600565b5a85038701965081870295508589604001511015611f3e5760405162fa072b60e01b8152600481018c90526001600160a01b038216602482015260606044820152601f60648201527f4135312070726566756e642062656c6f772061637475616c476173436f737400608482015260a401610600565b6040890151869003611f508582611ba4565b6000808c6002811115611f6557611f65613dfc565b1490508460a001516001600160a01b031685600001516001600160a01b03168c602001517f49628fd1471006c1482da88028e9ce4dbb080b815c9b0344d39e5a8e6ec1419f8860200151858d8f604051611fd8949392919093845291151560208401526040830152606082015260800190565b60405180910390a45050505050505095945050505050565b6000806000805a86519091506120068882612686565b61200f88611384565b6020880152604081015160608201516080830151171760e089013517610100890135176effffffffffffffffffffffffffffff8111156120915760405162461bcd60e51b815260206004820152601860248201527f41413934206761732076616c756573206f766572666c6f7700000000000000006044820152606401610600565b60008061209d8461277f565b90506120ac8c8c8c8c856127cc565b9950965091506120bb43600052565b60a08401516060906001600160a01b0316156120e3576120de8d8d8d8587612ba2565b985090505b60005a87039050808d60a00135101561215d578d8660a0015160405162fa072b60e01b81526004016106009291909182526001600160a01b03166020820152606060408201819052601e908201527f41413430206f76657220766572696669636174696f6e4761734c696d69740000608082015260a00190565b60408c018390528160608d015260c08d01355a8803018c6080018181525050505050505050509450945094915050565b60008061219984612e06565b9150915081156121f95760405162fa072b60e01b8152600481018790526000602482015260606044820152601460648201527f41413234207369676e6174757265206572726f72000000000000000000000000608482015260a401610600565b80156122555760405162fa072b60e01b8152600481018790526000602482015260606044820152601760648201527f414132322065787069726564206f72206e6f7420647565000000000000000000608482015260a401610600565b61225e83612e06565b909250905081156122ce57845160a0015160405162fa072b60e01b8152600481018890526001600160a01b03909116602482015260606044820152601460648201527f41413334207369676e6174757265206572726f72000000000000000000000000608482015260a401610600565b8015610b8557845160a0015160405162fa072b60e01b8152600481018890526001600160a01b03909116602482015260606044820152602160648201527f41413332207061796d61737465722065787069726564206f72206e6f7420647560848201527f650000000000000000000000000000000000000000000000000000000000000060a482015260c401610600565b6000805a90506000612372846060015190565b905030631d7327566123876060880188613939565b87856040518563ffffffff1660e01b81526004016123a89493929190613f77565b6020604051808303816000875af19250505080156123e3575060408051601f3d908101601f191682019092526123e09181019061402b565b60015b6124b557600060206000803e506000517fdeaddead0000000000000000000000000000000000000000000000000000000081141561248057845160a0015160405162fa072b60e01b8152600481018990526001600160a01b03909116602482015260606044820152600f60648201527f41413935206f7574206f66206761730000000000000000000000000000000000608482015260a401610600565b600085608001515a612492908661386b565b61249c9190613775565b90506124ac886002888685611cbe565b945050506124b8565b92505b50509392505050565b6001600160a01b0382166125175760405162461bcd60e51b815260206004820152601860248201527f4141393020696e76616c69642062656e656669636961727900000000000000006044820152606401610600565b6000826001600160a01b03168260405160006040518083038185875af1925050503d8060008114612564576040519150601f19603f3d011682016040523d82523d6000602084013e612569565b606091505b50509050806125ba5760405162461bcd60e51b815260206004820152601f60248201527f41413931206661696c65642073656e6420746f2062656e6566696369617279006044820152606401610600565b505050565b60006125ca82612e4f565b805190602001209050919050565b60008060006125e685612e8e565b91945092509050600080806125fa87612e8e565b92509250925085806126095750825b95508167ffffffffffffffff168567ffffffffffffffff16101561262b578194505b8067ffffffffffffffff168467ffffffffffffffff16111561264b578093505b5050509250925092565b60c081015160e08201516000919080821415612672575092915050565b61267e82488301612eb4565b949350505050565b61269360208301836135fe565b6001600160a01b0316815260208083013590820152608080830135604083015260a0830135606083015260c0808401359183019190915260e08084013591830191909152610100830135908201523660006126f2610120850185613939565b9092509050801561277257601481101561274e5760405162461bcd60e51b815260206004820152601d60248201527f4141393320696e76616c6964207061796d6173746572416e64446174610000006044820152606401610600565b61275c601460008385613c59565b61276591613c83565b60601c60a0840152610d3b565b600060a084015250505050565b60a081015160009081906001600160a01b031661279d5760016127a0565b60035b60ff16905060008360800151828560600151028560400151010190508360c00151810292505050919050565b6000806000805a87518051919250906127f28b8a6127ed60408e018e613939565b612ecc565b60a08201516001600160a01b038916600114156129425761281243600052565b6040517fa47a3fbc0000000000000000000000000000000000000000000000000000000081526001600160a01b03808416600483015282166024820152309063a47a3fbc9060440160006040518083038186803b15801561287257600080fd5b505afa925050508015612883575060015b6129425761288f613e8b565b806308c379a014156128cd57506128a4613ea7565b806128af57506128cf565b8c828260405162fa072b60e01b815260040161060093929190613f4f565b505b3d8080156128f9576040519150601f19603f3d011682016040523d82523d6000602084013e6128fe565b606091505b508051602014612927576000828260405162fa072b60e01b815260040161060093929190613f4f565b8080602001905181019061293b9190613bb3565b9650869950505b60006001600160a01b038216612991576001600160a01b0383166000908152602081905260409020546dffffffffffffffffffffffffffff1689811161298a57808a0361298d565b60005b9150505b826001600160a01b0316630825d1fc85606001518e8e602001518e866040518663ffffffff1660e01b81526004016129cc9493929190614044565b60206040518083038160008887f193505050508015612a08575060408051601f3d908101601f19168201909252612a059181019061402b565b60015b612aab57612a14613e8b565b806308c379a01415612a535750612a29613ea7565b80612a345750612a55565b8d60008260405162fa072b60e01b815260040161060093929190613f4f565b505b60405162fa072b60e01b8152600481018e90526000602482015260606044820152601660648201527f4141323320726576657274656420286f72204f4f472900000000000000000000608482015260a401610600565b95506001600160a01b038216612b8d576001600160a01b038316600090815260208190526040902080546dffffffffffffffffffffffffffff16808b1115612b51578e600060405162fa072b60e01b81526004016106009291909182526001600160a01b031660208201526060604082018190526017908201527f41413231206469646e2774207061792070726566756e64000000000000000000608082015260a00190565b81547fffffffffffffffffffffffffffffffffffff000000000000000000000000000016908b90036dffffffffffffffffffffffffffff161790555b5a850397505050505050955095509592505050565b82516060818101519091600091848111612bfe5760405162461bcd60e51b815260206004820152601f60248201527f4141343120746f6f206c6974746c6520766572696669636174696f6e476173006044820152606401610600565b60a08201516001600160a01b038116600090815260208190526040902080548784039291906dffffffffffffffffffffffffffff1689811015612c995760405162fa072b60e01b8152600481018e90526001600160a01b038416602482015260606044820152601e60648201527f41413331207061796d6173746572206465706f73697420746f6f206c6f770000608482015260a401610600565b8981038260000160006101000a8154816dffffffffffffffffffffffffffff02191690836dffffffffffffffffffffffffffff160217905550826001600160a01b031663f465c77e858e8e602001518e6040518563ffffffff1660e01b8152600401612d079392919061407c565b60006040518083038160008887f193505050508015612d4857506040513d6000823e601f3d908101601f19168201604052612d4591908101906140a1565b60015b612df257612d54613e8b565b806308c379a01415612d925750612d69613ea7565b80612d745750612d94565b8d848260405162fa072b60e01b815260040161060093929190613f4f565b505b60405162fa072b60e01b8152600481018e90526001600160a01b038416602482015260606044820152601660648201527f4141333320726576657274656420286f72204f4f472900000000000000000000608482015260a401610600565b909e909d509b505050505050505050505050565b60008082612e1957506000928392509050565b600080612e2585612e8e565b91955067ffffffffffffffff908116935016905042811080612e4657508142105b92505050915091565b6060366000612e62610140850185613939565b915091508360208184030360405194506020810185016040528085528082602087013750505050919050565b60ff81161515600080612ea66001600886901c61412d565b929460489490941c93915050565b6000818310612ec35781612ec5565b825b9392505050565b8015610d3b578251516001600160a01b0381163b15612f3b5760405162fa072b60e01b8152600481018690526000602482015260606044820152601f60648201527f414131302073656e64657220616c726561647920636f6e737472756374656400608482015260a401610600565b8351606001516040517f570e1a360000000000000000000000000000000000000000000000000000000081526000916001600160a01b037f0000000000000000000000000000000000000000000000000000000000000000169163570e1a369190612fac9088908890600401613b9f565b60206040518083038160008887f1158015612fcb573d6000803e3d6000fd5b50505050506040513d601f19601f82011682018060405250810190612ff09190613bb3565b90506001600160a01b0381166130565760405162fa072b60e01b8152600481018790526000602482015260606044820152601b60648201527f4141313320696e6974436f6465206661696c6564206f72204f4f470000000000608482015260a401610600565b816001600160a01b0316816001600160a01b0316146130c55760405162fa072b60e01b8152600481018790526000602482015260606044820152602060648201527f4141313420696e6974436f6465206d7573742072657475726e2073656e646572608482015260a401610600565b6001600160a01b0381163b61312a5760405162fa072b60e01b8152600481018790526000602482015260606044820152602060648201527f4141313520696e6974436f6465206d757374206372656174652073656e646572608482015260a401610600565b60006131396014828688613c59565b61314291613c83565b60601c9050826001600160a01b031686602001517fd51a9c61267aa6196961883ecf5ff2da6619c37dac0fa92122513fb32c032d2d83896000015160a001516040516131a49291906001600160a01b0392831681529116602082015260400190565b60405180910390a350505050505050565b6040518060a0016040528061321a60405180610100016040528060006001600160a01b031681526020016000815260200160008152602001600081526020016000815260200160006001600160a01b0316815260200160008152602001600081525090565b8152602001600080191681526020016000815260200160008152602001600081525090565b60006020828403121561325157600080fd5b813563ffffffff81168114612ec557600080fd5b7f4e487b7100000000000000000000000000000000000000000000000000000000600052604160045260246000fd5b60a0810181811067ffffffffffffffff821117156132b4576132b4613265565b60405250565b610100810181811067ffffffffffffffff821117156132b4576132b4613265565b601f19601f830116810181811067ffffffffffffffff8211171561330157613301613265565b6040525050565b600067ffffffffffffffff82111561332257613322613265565b50601f01601f191660200190565b6001600160a01b038116811461334557600080fd5b50565b803561335381613330565b919050565b600081830361018081121561336c57600080fd5b60405161337881613294565b8092506101008083121561338b57600080fd5b6040519250613399836132ba565b6133a285613348565b8352602085013560208401526040850135604084015260608501356060840152608085013560808401526133d860a08601613348565b60a084015260c085013560c084015260e085013560e084015282825280850135602083015250610120840135604082015261014084013560608201526101608401356080820152505092915050565b60008083601f84011261343957600080fd5b50813567ffffffffffffffff81111561345157600080fd5b60208301915083602082850101111561346957600080fd5b9250929050565b6000806000806101c0858703121561348757600080fd5b843567ffffffffffffffff8082111561349f57600080fd5b818701915087601f8301126134b357600080fd5b81356134be81613308565b6040516134cb82826132db565b8281528a60208487010111156134e057600080fd5b826020860160208301376000602084830101528098505050506135068860208901613358565b94506101a087013591508082111561351d57600080fd5b5061352a87828801613427565b95989497509550505050565b60008083601f84011261354857600080fd5b50813567ffffffffffffffff81111561356057600080fd5b6020830191508360208260051b850101111561346957600080fd5b60008060006040848603121561359057600080fd5b833567ffffffffffffffff8111156135a757600080fd5b6135b386828701613536565b90945092505060208401356135c781613330565b809150509250925092565b600080604083850312156135e557600080fd5b82356135f081613330565b946020939093013593505050565b60006020828403121561361057600080fd5b8135612ec581613330565b6000806020838503121561362e57600080fd5b823567ffffffffffffffff81111561364557600080fd5b61365185828601613427565b90969095509350505050565b6000806040838503121561367057600080fd5b823561367b81613330565b9150602083013561368b81613330565b809150509250929050565b600061016082840312156136a957600080fd5b50919050565b6000602082840312156136c157600080fd5b813567ffffffffffffffff8111156136d857600080fd5b61267e84828501613696565b600080600080606085870312156136fa57600080fd5b843567ffffffffffffffff8082111561371257600080fd5b61371e88838901613696565b95506020870135915061373082613330565b9093506040860135908082111561351d57600080fd5b7f4e487b7100000000000000000000000000000000000000000000000000000000600052601160045260246000fd5b6000821982111561378857613788613746565b500190565b60005b838110156137a8578181015183820152602001613790565b83811115610d3b5750506000910152565b600081518084526137d181602086016020860161378d565b601f01601f19169290920160200192915050565b82815260406020820152600061267e60408301846137b9565b7f4e487b7100000000000000000000000000000000000000000000000000000000600052603260045260246000fd5b600082357ffffffffffffffffffffffffffffffffffffffffffffffffffffffffffffffea183360301811261386157600080fd5b9190910192915050565b60008282101561387d5761387d613746565b500390565b600082357fffffffffffffffffffffffffffffffffffffffffffffffffffffffffffffffa183360301811261386157600080fd5b6000808335601e198436030181126138cd57600080fd5b83018035915067ffffffffffffffff8211156138e857600080fd5b6020019150600581901b360382131561346957600080fd5b60007fffffffffffffffffffffffffffffffffffffffffffffffffffffffffffffffff82141561393257613932613746565b5060010190565b6000808335601e1984360301811261395057600080fd5b83018035915067ffffffffffffffff82111561396b57600080fd5b60200191503681900382131561346957600080fd5b6000808335601e1984360301811261399757600080fd5b830160208101925035905067ffffffffffffffff8111156139b757600080fd5b80360383131561346957600080fd5b818352818160208501375060006020828401015260006020601f19601f840116840101905092915050565b6000610160613a1084613a0385613348565b6001600160a01b03169052565b60208301356020850152613a276040840184613980565b826040870152613a3a83870182846139c6565b92505050613a4b6060840184613980565b8583036060870152613a5e8382846139c6565b925050506080830135608085015260a083013560a085015260c083013560c085015260e083013560e0850152610100808401358186015250610120613aa581850185613980565b86840383880152613ab78482846139c6565b9350505050610140613acb81850185613980565b86840383880152613add8482846139c6565b979650505050505050565b6040808252810184905260006060600586901b830181019083018783805b89811015613b88577fffffffffffffffffffffffffffffffffffffffffffffffffffffffffffffffa087860301845282357ffffffffffffffffffffffffffffffffffffffffffffffffffffffffffffffea18c3603018112613b66578283fd5b613b72868d83016139f1565b9550506020938401939290920191600101613b06565b505050508281036020840152613add8185876139c6565b60208152600061267e6020830184866139c6565b600060208284031215613bc557600080fd5b8151612ec581613330565b600067ffffffffffffffff808316818516808303821115613bf357613bf3613746565b01949350505050565b8183823760009101908152919050565b868152856020820152600067ffffffffffffffff8087166040840152808616606084015250831515608083015260c060a0830152613c4d60c08301846137b9565b98975050505050505050565b60008085851115613c6957600080fd5b83861115613c7657600080fd5b5050820193919092039150565b7fffffffffffffffffffffffffffffffffffffffff0000000000000000000000008135818116916014851015613cc35780818660140360031b1b83161692505b505092915050565b80518252602081015160208301526040810151151560408301526000606082015167ffffffffffffffff8082166060860152806080850151166080860152505060a082015160c060a085015261267e60c08501826137b9565b6000610140808352613d3881840189613ccb565b915050613d52602083018780518252602090810151910152565b845160608301526020948501516080830152835160a08301529284015160c082015281516001600160a01b031660e0820152908301518051610100830152909201516101209092019190915292915050565b60e081526000613db760e0830187613ccb565b9050613dd0602083018680518252602090810151910152565b8351606083015260208401516080830152825160a0830152602083015160c08301525b95945050505050565b7f4e487b7100000000000000000000000000000000000000000000000000000000600052602160045260246000fd5b600060038510613e64577f4e487b7100000000000000000000000000000000000000000000000000000000600052602160045260246000fd5b84825260606020830152613e7b60608301856137b9565b9050826040830152949350505050565b600060033d1115613ea45760046000803e5060005160e01c5b90565b600060443d1015613eb55790565b6040517ffffffffffffffffffffffffffffffffffffffffffffffffffffffffffffffffc803d016004833e81513d67ffffffffffffffff8160248401118184111715613f0357505050505090565b8285019150815181811115613f1b5750505050505090565b843d8701016020828501011115613f355750505050505090565b613f44602082860101876132db565b509095945050505050565b8381526001600160a01b0383166020820152606060408201526000613df360608301846137b9565b60006101c0808352613f8c81840187896139c6565b905084516001600160a01b03808251166020860152602082015160408601526040820151606086015260608201516080860152608082015160a08601528060a08301511660c08601525060c081015160e085015260e08101516101008501525060208501516101208401526040850151610140840152606085015161016084015260808501516101808401528281036101a0840152613add81856137b9565b60006020828403121561403d57600080fd5b5051919050565b60808152600061405760808301876139f1565b6020830195909552506001600160a01b03929092166040830152606090910152919050565b60608152600061408f60608301866139f1565b60208301949094525060400152919050565b600080604083850312156140b457600080fd5b825167ffffffffffffffff8111156140cb57600080fd5b8301601f810185136140dc57600080fd5b80516140e781613308565b6040516140f482826132db565b82815287602084860101111561410957600080fd5b61411a83602083016020870161378d565b6020969096015195979596505050505050565b6000808312837f80000000000000000000000000000000000000000000000000000000000000000183128115161561416757614167613746565b837f7fffffffffffffffffffffffffffffffffffffffffffffffffffffffffffffff01831381161561419b5761419b613746565b5050039056fea26469706673582212206bef276384f40a7e6f88f69c6bc1e50f0cefb9f23cc334817cf96bc13a11e4c064736f6c634300080c0033608060405234801561001057600080fd5b50610213806100206000396000f3fe608060405234801561001057600080fd5b506004361061002b5760003560e01c8063570e1a3614610030575b600080fd5b61004361003e3660046100f9565b61006c565b60405173ffffffffffffffffffffffffffffffffffffffff909116815260200160405180910390f35b60008061007c601482858761016b565b61008591610195565b60601c90506000610099846014818861016b565b8080601f016020809104026020016040519081016040528093929190818152602001838380828437600092018290525084519495509360209350849250905082850182875af190506000519350806100f057600093505b50505092915050565b6000806020838503121561010c57600080fd5b823567ffffffffffffffff8082111561012457600080fd5b818501915085601f83011261013857600080fd5b81358181111561014757600080fd5b86602082850101111561015957600080fd5b60209290920196919550909350505050565b6000808585111561017b57600080fd5b8386111561018857600080fd5b5050820193919092039150565b7fffffffffffffffffffffffffffffffffffffffff00000000000000000000000081358181169160148510156101d55780818660140360031b1b83161692505b50509291505056fea264697066735822122049e571a60af43462fbb876c32de6008d3ee8b9348a241c45977e354517f0a1a464736f6c634300080c0033","linkReferences":{},"deployedLinkReferences":{},"fileHash":"c6fe29fc0fafd29ecc7a5c3f8aada0cea8be2b55fb3530eb1b1859d5238daaf2"}