{"_format":"hh-sol-artifact-1","contractName":"FunWalletFactory","sourceName":"contracts/FunWalletFactory.sol","abi":[{"inputs":[],"stateMutability":"nonpayable","type":"constructor"},{"inputs":[{"internalType":"address","name":"entryPointAddr","type":"address"},{"internalType":"address","name":"userAuthAddr","type":"address"},{"internalType":"address","name":"owner","type":"address"},{"internalType":"uint256","name":"salt","type":"uint256"}],"name":"createAccount","outputs":[{"internalType":"contract FunWallet","name":"funWallet","type":"address"}],"stateMutability":"nonpayable","type":"function"},{"inputs":[],"name":"funWalletImp","outputs":[{"internalType":"contract FunWallet","name":"","type":"address"}],"stateMutability":"view","type":"function"},{"inputs":[{"internalType":"address","name":"entryPointAddr","type":"address"},{"internalType":"address","name":"userAuthAddr","type":"address"},{"internalType":"address","name":"owner","type":"address"},{"internalType":"uint256","name":"salt","type":"uint256"}],"name":"getAddress","outputs":[{"internalType":"address","name":"","type":"address"}],"stateMutability":"view","type":"function"}],"bytecode":"0x60a060405234801561001057600080fd5b5060405161001d9061004b565b604051809103906000f080158015610039573d6000803e3d6000fd5b506001600160a01b0316608052610058565b61519380610d8183390190565b608051610d0161008060003960008181604b01528181610126015261027c0152610d016000f3fe608060405234801561001057600080fd5b50600436106100415760003560e01c80630497dec11461004657806361b36f4b146100965780639f3ee0f9146100a9575b600080fd5b61006d7f000000000000000000000000000000000000000000000000000000000000000081565b60405173ffffffffffffffffffffffffffffffffffffffff909116815260200160405180910390f35b61006d6100a43660046103f8565b6100bc565b61006d6100b73660046103f8565b610202565b6000806100cb86868686610202565b905073ffffffffffffffffffffffffffffffffffffffff81163b80156100f3575090506101fa565b60405173ffffffffffffffffffffffffffffffffffffffff808916602483015280881660448301528616606482015284907f000000000000000000000000000000000000000000000000000000000000000090608401604080517fffffffffffffffffffffffffffffffffffffffffffffffffffffffffffffffe08184030181529181526020820180517bffffffffffffffffffffffffffffffffffffffffffffffffffffffff167fc0c53b8b00000000000000000000000000000000000000000000000000000000179052516101c9906103c2565b6101d4929190610473565b8190604051809103906000f59050801580156101f4573d6000803e3d6000fd5b50925050505b949350505050565b600061037b8260001b6040518060200161021b906103c2565b7fffffffffffffffffffffffffffffffffffffffffffffffffffffffffffffffe082820381018352601f90910116604081905273ffffffffffffffffffffffffffffffffffffffff808a1660248301528089166044830152871660648201527f000000000000000000000000000000000000000000000000000000000000000090608401604080517fffffffffffffffffffffffffffffffffffffffffffffffffffffffffffffffe0818403018152918152602080830180517bffffffffffffffffffffffffffffffffffffffffffffffffffffffff167fc0c53b8b00000000000000000000000000000000000000000000000000000000179052905161032493929101610473565b604080517fffffffffffffffffffffffffffffffffffffffffffffffffffffffffffffffe08184030181529082905261036092916020016104e1565b60405160208183030381529060405280519060200120610384565b95945050505050565b6000610391838330610398565b9392505050565b6000604051836040820152846020820152828152600b8101905060ff815360559020949350505050565b6107bb8061051183390190565b803573ffffffffffffffffffffffffffffffffffffffff811681146103f357600080fd5b919050565b6000806000806080858703121561040e57600080fd5b610417856103cf565b9350610425602086016103cf565b9250610433604086016103cf565b9396929550929360600135925050565b60005b8381101561045e578181015183820152602001610446565b8381111561046d576000848401525b50505050565b73ffffffffffffffffffffffffffffffffffffffff8316815260406020820152600082518060408401526104ae816060850160208701610443565b601f017fffffffffffffffffffffffffffffffffffffffffffffffffffffffffffffffe016919091016060019392505050565b600083516104f3818460208801610443565b835190830190610507818360208801610443565b0194935050505056fe60806040526040516107bb3803806107bb8339810160408190526100229161031e565b61002e82826000610035565b505061043b565b61003e8361006b565b60008251118061004b5750805b156100665761006483836100ab60201b6100291760201c565b505b505050565b610074816100d7565b6040516001600160a01b038216907fbc7cd75a20ee27fd9adebab32041f755214dbc6bffa90cc0225b39da2e5c2d3b90600090a250565b60606100d08383604051806060016040528060278152602001610794602791396101a9565b9392505050565b6100ea8161022260201b6100551760201c565b6101515760405162461bcd60e51b815260206004820152602d60248201527f455243313936373a206e657720696d706c656d656e746174696f6e206973206e60448201526c1bdd08184818dbdb9d1c9858dd609a1b60648201526084015b60405180910390fd5b806101887f360894a13ba1a3210667c828492db98dca3e2076cc3735a920a3ca505d382bbc60001b61023160201b6100711760201c565b80546001600160a01b0319166001600160a01b039290921691909117905550565b6060600080856001600160a01b0316856040516101c691906103ec565b600060405180830381855af49150503d8060008114610201576040519150601f19603f3d011682016040523d82523d6000602084013e610206565b606091505b50909250905061021886838387610234565b9695505050505050565b6001600160a01b03163b151590565b90565b606083156102a0578251610299576001600160a01b0385163b6102995760405162461bcd60e51b815260206004820152601d60248201527f416464726573733a2063616c6c20746f206e6f6e2d636f6e74726163740000006044820152606401610148565b50816102aa565b6102aa83836102b2565b949350505050565b8151156102c25781518083602001fd5b8060405162461bcd60e51b81526004016101489190610408565b634e487b7160e01b600052604160045260246000fd5b60005b8381101561030d5781810151838201526020016102f5565b838111156100645750506000910152565b6000806040838503121561033157600080fd5b82516001600160a01b038116811461034857600080fd5b60208401519092506001600160401b038082111561036557600080fd5b818501915085601f83011261037957600080fd5b81518181111561038b5761038b6102dc565b604051601f8201601f19908116603f011681019083821181831017156103b3576103b36102dc565b816040528281528860208487010111156103cc57600080fd5b6103dd8360208301602088016102f2565b80955050505050509250929050565b600082516103fe8184602087016102f2565b9190910192915050565b60208152600082518060208401526104278160408501602087016102f2565b601f01601f19169190910160400192915050565b61034a8061044a6000396000f3fe60806040523661001357610011610017565b005b6100115b610027610022610074565b6100b9565b565b606061004e83836040518060600160405280602781526020016102ee602791396100dd565b9392505050565b73ffffffffffffffffffffffffffffffffffffffff163b151590565b90565b60006100b47f360894a13ba1a3210667c828492db98dca3e2076cc3735a920a3ca505d382bbc5473ffffffffffffffffffffffffffffffffffffffff1690565b905090565b3660008037600080366000845af43d6000803e8080156100d8573d6000f35b3d6000fd5b60606000808573ffffffffffffffffffffffffffffffffffffffff16856040516101079190610280565b600060405180830381855af49150503d8060008114610142576040519150601f19603f3d011682016040523d82523d6000602084013e610147565b606091505b509150915061015886838387610162565b9695505050505050565b606083156101fa5782516101f35773ffffffffffffffffffffffffffffffffffffffff85163b6101f3576040517f08c379a000000000000000000000000000000000000000000000000000000000815260206004820152601d60248201527f416464726573733a2063616c6c20746f206e6f6e2d636f6e747261637400000060448201526064015b60405180910390fd5b5081610204565b610204838361020c565b949350505050565b81511561021c5781518083602001fd5b806040517f08c379a00000000000000000000000000000000000000000000000000000000081526004016101ea919061029c565b60005b8381101561026b578181015183820152602001610253565b8381111561027a576000848401525b50505050565b60008251610292818460208701610250565b9190910192915050565b60208152600082518060208401526102bb816040850160208701610250565b601f017fffffffffffffffffffffffffffffffffffffffffffffffffffffffffffffffe016919091016040019291505056fe416464726573733a206c6f772d6c6576656c2064656c65676174652063616c6c206661696c6564a264697066735822122010d064158e9cfe4988728ba9e3031c32caeaf061e069548967976589ac8b51f464736f6c634300080c0033416464726573733a206c6f772d6c6576656c2064656c65676174652063616c6c206661696c6564a2646970667358221220f171031515b5078cae1d9e34a856dd0c961f142992110a2b3cd77dba5587d05664736f6c634300080c003360a06040523060805234801561001457600080fd5b5060805161514761004c600039600081816114870152818161153701528181611877015281816119270152611a7001526151476000f3fe6080604052600436106101d15760003560e01c80636517579c116100f7578063b0d691fe11610095578063cc793fa611610064578063cc793fa61461056b578063d06403d61461058b578063dc7c9848146105ab578063e374e90f146105cb57600080fd5b8063b0d691fe146104eb578063c0c53b8b14610516578063c399ec8814610536578063c7d763081461054b57600080fd5b80638da5cb5b116100d15780638da5cb5b1461046957806399d3fef3146104965780639cfdf5b6146104b6578063a55e593d146104cb57600080fd5b80636517579c146103e857806375b238fc146104155780637b8ea0281461044957600080fd5b80633659cfe61161016f57806352d1902d1161013e57806352d1902d1461036657806355cd05cc1461037b5780635cbf1e6e1461039b5780635e5d4320146103c857600080fd5b80633659cfe6146102c75780633a6e5a0a146102e75780633cb66ec4146103075780634f1ef2861461035357600080fd5b80631b71bb6e116101ab5780631b71bb6e1461025257806320d2a20f146102725780632ed6fb5d14610292578063357f7bb0146102b257600080fd5b8063033183e9146101dd5780630825d1fc146101ff57806315577ae21461023257600080fd5b366101d857005b600080fd5b3480156101e957600080fd5b506101fd6101f83660046140cb565b61060b565b005b34801561020b57600080fd5b5061021f61021a366004614127565b610a1a565b6040519081526020015b60405180910390f35b34801561023e57600080fd5b506101fd61024d36600461418e565b610ece565b34801561025e57600080fd5b506101fd61026d3660046141dc565b611046565b6102856102803660046141f9565b611162565b60405161022991906142f8565b34801561029e57600080fd5b506101fd6102ad36600461430b565b6111b8565b3480156102be57600080fd5b5061021f600481565b3480156102d357600080fd5b506101fd6102e23660046141dc565b61146f565b3480156102f357600080fd5b506101fd61030236600461436b565b611675565b34801561031357600080fd5b5060065473ffffffffffffffffffffffffffffffffffffffff165b60405173ffffffffffffffffffffffffffffffffffffffff9091168152602001610229565b6101fd610361366004614434565b61185f565b34801561037257600080fd5b5061021f611a56565b34801561038757600080fd5b506101fd6103963660046141f9565b611b42565b3480156103a757600080fd5b506103bb6103b6366004614516565b611bc8565b604051610229919061457e565b3480156103d457600080fd5b506101fd6103e3366004614631565b611e3b565b3480156103f457600080fd5b50610408610403366004614631565b611ef8565b604051610229919061465a565b34801561042157600080fd5b5061021f7f61646d696e00000000000000000000000000000000000000000000000000000081565b34801561045557600080fd5b506101fd6104643660046141dc565b612060565b34801561047557600080fd5b5060075461032e9073ffffffffffffffffffffffffffffffffffffffff1681565b3480156104a257600080fd5b506101fd6104b136600461430b565b61217c565b3480156104c257600080fd5b5061021f60c881565b3480156104d757600080fd5b506101fd6104e6366004614631565b6126f8565b3480156104f757600080fd5b5060055473ffffffffffffffffffffffffffffffffffffffff1661032e565b34801561052257600080fd5b506101fd610531366004614692565b612816565b34801561054257600080fd5b5061021f612d12565b34801561055757600080fd5b506101fd6105663660046146d2565b612daa565b34801561057757600080fd5b506101fd6105863660046146fe565b612edd565b34801561059757600080fd5b506102856105a63660046141dc565b613118565b3480156105b757600080fd5b506101fd6105c636600461418e565b6131d1565b3480156105d757600080fd5b506105fb6105e6366004614631565b60009081526002602052604090205460ff1690565b6040519015158152602001610229565b61061361332e565b8361067f576040517f08c379a000000000000000000000000000000000000000000000000000000000815260206004820152600d60248201527f726f6c6520697320656d7074790000000000000000000000000000000000000060448201526064015b60405180910390fd5b73ffffffffffffffffffffffffffffffffffffffff83166106fc576040517f08c379a000000000000000000000000000000000000000000000000000000000815260206004820152601760248201527f6d6f64756c65206164647265737320697320656d7074790000000000000000006044820152606401610676565b80610763576040517f08c379a000000000000000000000000000000000000000000000000000000000815260206004820152600f60248201527f72756c65732061726520656d70747900000000000000000000000000000000006044820152606401610676565b60005b61ffff811682111561094e576000838361ffff841681811061078a5761078a61472c565b905060200281019061079c919061475b565b351415610805576040517f08c379a000000000000000000000000000000000000000000000000000000000815260206004820152601560248201527f72756c652068617320656d70747920616374696f6e00000000000000000000006044820152606401610676565b600083838361ffff1681811061081d5761081d61472c565b905060200281019061082f919061475b565b61083d906020810190614799565b9050116108a6576040517f08c379a000000000000000000000000000000000000000000000000000000000815260206004820152601560248201527f72756c652068617320656d7074792074617267657400000000000000000000006044820152606401610676565b6000838361ffff84168181106108be576108be61472c565b90506020028101906108d0919061475b565b60600135141561093c576040517f08c379a000000000000000000000000000000000000000000000000000000000815260206004820152601560248201527f72756c652068617320656d70747920657874656e7400000000000000000000006044820152606401610676565b80610946816147fe565b915050610766565b50604080516020810186905273ffffffffffffffffffffffffffffffffffffffff851681830152815180820383018152606090910190915260005b61ffff8116831115610a12576004826040516109a59190614847565b908152602001604051809103902084848361ffff168181106109c9576109c961472c565b90506020028101906109db919061475b565b8154600181018355600092835260209092209091600402016109fd8282614954565b50508080610a0a906147fe565b915050610989565b505050505050565b6000610a246133f9565b6006546040517fa8a2de9300000000000000000000000000000000000000000000000000000000815260009173ffffffffffffffffffffffffffffffffffffffff169063a8a2de9390610a7f90899089908990600401614c58565b602060405180830381865afa158015610a9c573d6000803e3d6000fd5b505050506040513d601f19601f82011682018060405250810190610ac09190614c97565b9050610acb8161347a565b6000818152600360209081526040808320815160608101909252805482526001810154919290919083019060ff168015610b0757610b0761453b565b8015610b1557610b1561453b565b8152602001600282018054610b2990614859565b80601f0160208091040260200160405190810160405280929190818152602001828054610b5590614859565b8015610ba25780601f10610b7757610100808354040283529160200191610ba2565b820191906000526020600020905b815481529060010190602001808311610b8557829003601f168201915b505050919092525050600654602083015160408085015190517fd7acc99a00000000000000000000000000000000000000000000000000000000815294955073ffffffffffffffffffffffffffffffffffffffff9092169363d7acc99a9350610c1492908c908c908c90600401614cb0565b602060405180830381865afa158015610c31573d6000803e3d6000fd5b505050506040513d601f19601f82011682018060405250810190610c559190614c97565b9250610c646040880188614799565b15159050610c7557610c75876134ff565b600081600001516040518060400160405280600181526020017f2a00000000000000000000000000000000000000000000000000000000000000815250604051602001610cc3929190614d11565b60405160208183030381529060405290507f61646d696e000000000000000000000000000000000000000000000000000000826000015114158015610d2857506000600482604051610d159190614847565b9081526040519081900360200190205411155b15610eba57600080610d45610d4060608c018c614799565b6135bd565b86519294509250600091905073ffffffffffffffffffffffffffffffffffffffff841660408051602081019390935282015260600160405160208183030381529060405290506000600482604051610d9d9190614847565b9081526040519081900360200190205411610e14576040517f08c379a000000000000000000000000000000000000000000000000000000000815260206004820152601660248201527f75736572206973206e6f7420617574686f72697a6564000000000000000000006044820152606401610676565b8273ffffffffffffffffffffffffffffffffffffffff166352bd4f4183600484604051610e419190614847565b9081526040519081900360200181207fffffffff0000000000000000000000000000000000000000000000000000000060e085901b168252610e869291600401614d2a565b60006040518083038186803b158015610e9e57600080fd5b505afa158015610eb2573d6000803e3d6000fd5b505050505050505b610ec38561362f565b505050949350505050565b610ed661332e565b81610f3d576040517f08c379a000000000000000000000000000000000000000000000000000000000815260206004820152600e60248201527f696e76616c6964207573657249640000000000000000000000000000000000006044820152606401610676565b610f468261347a565b8035610fae576040517f08c379a000000000000000000000000000000000000000000000000000000000815260206004820152601360248201527f757365722068617320656d70747920726f6c65000000000000000000000000006044820152606401610676565b6000610fbd6040830183614799565b905011611026576040517f08c379a000000000000000000000000000000000000000000000000000000000815260206004820152601c60248201527f757365722068617320656d7074792061757468206d65746164617461000000006044820152606401610676565b600082815260036020526040902081906110408282614e78565b50505050565b61104e61332e565b73ffffffffffffffffffffffffffffffffffffffff81166110f1576040517f08c379a000000000000000000000000000000000000000000000000000000000815260206004820152603260248201527f66756e2077616c6c65743a206e657720656e74727920706f696e74206164647260448201527f6573732063616e6e6f74206265207a65726f00000000000000000000000000006064820152608401610676565b600580547fffffffffffffffffffffffff00000000000000000000000000000000000000001673ffffffffffffffffffffffffffffffffffffffff831690811790915560405181907f450909c1478d09248269d4ad4fa8cba61ca3f50faed58c7aedefa51c7f62b83a90600090a350565b606061116c61369a565b6111ad858585858080601f01602080910402602001604051908101604052809392919081815260200183838082843760009201919091525061374392505050565b90505b949350505050565b6111c061332e565b82611227576040517f08c379a000000000000000000000000000000000000000000000000000000000815260206004820152600d60248201527f726f6c6520697320656d707479000000000000000000000000000000000000006044820152606401610676565b73ffffffffffffffffffffffffffffffffffffffff82166112a4576040517f08c379a000000000000000000000000000000000000000000000000000000000815260206004820152601760248201527f6d6f64756c65206164647265737320697320656d7074790000000000000000006044820152606401610676565b803561130c576040517f08c379a000000000000000000000000000000000000000000000000000000000815260206004820152601560248201527f72756c652068617320656d70747920616374696f6e00000000000000000000006044820152606401610676565b600061131b6020830183614799565b905011611384576040517f08c379a000000000000000000000000000000000000000000000000000000000815260206004820152601560248201527f72756c652068617320656d7074792074617267657400000000000000000000006044820152606401610676565b60608101356113ef576040517f08c379a000000000000000000000000000000000000000000000000000000000815260206004820152601560248201527f72756c652068617320656d70747920657874656e7400000000000000000000006044820152606401610676565b604080516020810185905273ffffffffffffffffffffffffffffffffffffffff841681830152815180820383018152606090910190915261142f81613825565b60048160405161143f9190614847565b9081526040516020918190038201902080546001810182556000918252919020839160040201610a128282614954565b3073ffffffffffffffffffffffffffffffffffffffff7f0000000000000000000000000000000000000000000000000000000000000000161415611535576040517f08c379a000000000000000000000000000000000000000000000000000000000815260206004820152602c60248201527f46756e6374696f6e206d7573742062652063616c6c6564207468726f7567682060448201527f64656c656761746563616c6c00000000000000000000000000000000000000006064820152608401610676565b7f000000000000000000000000000000000000000000000000000000000000000073ffffffffffffffffffffffffffffffffffffffff166115aa7f360894a13ba1a3210667c828492db98dca3e2076cc3735a920a3ca505d382bbc5473ffffffffffffffffffffffffffffffffffffffff1690565b73ffffffffffffffffffffffffffffffffffffffff161461164d576040517f08c379a000000000000000000000000000000000000000000000000000000000815260206004820152602c60248201527f46756e6374696f6e206d7573742062652063616c6c6564207468726f7567682060448201527f6163746976652070726f787900000000000000000000000000000000000000006064820152608401610676565b611656816138fe565b6040805160008082526020820190925261167291839190613906565b50565b61167d61332e565b848314801561168b57508281145b6116f1576040517f08c379a000000000000000000000000000000000000000000000000000000000815260206004820152601760248201527f6461746120697320646966666572656e742073697a65730000000000000000006044820152606401610676565b60005b85811015611856576117288383838181106117115761171161472c565b90506020028101906117239190614799565b613b05565b1561184e5760006117d08888848181106117445761174461472c565b905060200201602081019061175991906141dc565b87878581811061176b5761176b61472c565b905060200201358686868181106117845761178461472c565b90506020028101906117969190614799565b8080601f01602080910402602001604051908101604052809392919081815260200183838082843760009201919091525061374392505050565b905080600160008a8a868181106117e9576117e961472c565b90506020020160208101906117fe91906141dc565b73ffffffffffffffffffffffffffffffffffffffff1673ffffffffffffffffffffffffffffffffffffffff168152602001908152602001600020908051906020019061184b929190613eff565b50505b6001016116f4565b50505050505050565b3073ffffffffffffffffffffffffffffffffffffffff7f0000000000000000000000000000000000000000000000000000000000000000161415611925576040517f08c379a000000000000000000000000000000000000000000000000000000000815260206004820152602c60248201527f46756e6374696f6e206d7573742062652063616c6c6564207468726f7567682060448201527f64656c656761746563616c6c00000000000000000000000000000000000000006064820152608401610676565b7f000000000000000000000000000000000000000000000000000000000000000073ffffffffffffffffffffffffffffffffffffffff1661199a7f360894a13ba1a3210667c828492db98dca3e2076cc3735a920a3ca505d382bbc5473ffffffffffffffffffffffffffffffffffffffff1690565b73ffffffffffffffffffffffffffffffffffffffff1614611a3d576040517f08c379a000000000000000000000000000000000000000000000000000000000815260206004820152602c60248201527f46756e6374696f6e206d7573742062652063616c6c6564207468726f7567682060448201527f6163746976652070726f787900000000000000000000000000000000000000006064820152608401610676565b611a46826138fe565b611a5282826001613906565b5050565b60003073ffffffffffffffffffffffffffffffffffffffff7f00000000000000000000000000000000000000000000000000000000000000001614611b1d576040517f08c379a000000000000000000000000000000000000000000000000000000000815260206004820152603860248201527f555550535570677261646561626c653a206d757374206e6f742062652063616c60448201527f6c6564207468726f7567682064656c656761746563616c6c00000000000000006064820152608401610676565b507f360894a13ba1a3210667c828492db98dca3e2076cc3735a920a3ca505d382bbc90565b611b4a61332e565b6000611b8d858585858080601f01602080910402602001604051908101604052809392919081815260200183838082843760009201919091525061374392505050565b73ffffffffffffffffffffffffffffffffffffffff861660009081526001602090815260409091208251929350610a12929091840190613eff565b606082611c31576040517f08c379a000000000000000000000000000000000000000000000000000000000815260206004820152600d60248201527f726f6c6520697320656d707479000000000000000000000000000000000000006044820152606401610676565b73ffffffffffffffffffffffffffffffffffffffff8216611cae576040517f08c379a000000000000000000000000000000000000000000000000000000000815260206004820152601760248201527f6d6f64756c65206164647265737320697320656d7074790000000000000000006044820152606401610676565b604080516020810185905273ffffffffffffffffffffffffffffffffffffffff84168183015281518082038301815260609091019182905290600490611cf5908390614847565b9081526020016040518091039020805480602002602001604051908101604052809291908181526020016000905b82821015611e2e578382906000526020600020906004020160405180608001604052908160008201548152602001600182018054611d6090614859565b80601f0160208091040260200160405190810160405280929190818152602001828054611d8c90614859565b8015611dd95780601f10611dae57610100808354040283529160200191611dd9565b820191906000526020600020905b815481529060010190602001808311611dbc57829003601f168201915b5050509183525050600282015460209091019060ff166006811115611e0057611e0061453b565b6006811115611e1157611e1161453b565b815260200160038201548152505081526020019060010190611d23565b5050505091505092915050565b611e4361332e565b80611eaa576040517f08c379a000000000000000000000000000000000000000000000000000000000815260206004820152600e60248201527f696e76616c6964207573657249640000000000000000000000000000000000006044820152606401610676565b60008181526003602052604081208181556001810180547fffffffffffffffffffffffffffffffffffffffffffffffffffffffffffffff0016905590611ef36002830182613f83565b505050565b6040805160608082018352600080835260208301529181019190915281611f7b576040517f08c379a000000000000000000000000000000000000000000000000000000000815260206004820152600e60248201527f696e76616c6964207573657249640000000000000000000000000000000000006044820152606401610676565b600082815260036020908152604091829020825160608101909352805483526001810154909183019060ff168015611fb557611fb561453b565b8015611fc357611fc361453b565b8152602001600282018054611fd790614859565b80601f016020809104026020016040519081016040528092919081815260200182805461200390614859565b80156120505780601f1061202557610100808354040283529160200191612050565b820191906000526020600020905b81548152906001019060200180831161203357829003601f168201915b5050505050815250509050919050565b61206861332e565b73ffffffffffffffffffffffffffffffffffffffff811661210b576040517f08c379a000000000000000000000000000000000000000000000000000000000815260206004820152603260248201527f66756e2077616c6c65743a206e657720656e74727920706f696e74206164647260448201527f6573732063616e6e6f74206265207a65726f00000000000000000000000000006064820152608401610676565b600680547fffffffffffffffffffffffff00000000000000000000000000000000000000001673ffffffffffffffffffffffffffffffffffffffff831690811790915560405181907f34a5e38fc8fe74f12b269fe92e724092f7f531dc4985c88fb113460cfcb5f67d90600090a350565b61218461332e565b826121eb576040517f08c379a000000000000000000000000000000000000000000000000000000000815260206004820152600d60248201527f726f6c6520697320656d707479000000000000000000000000000000000000006044820152606401610676565b73ffffffffffffffffffffffffffffffffffffffff8216612268576040517f08c379a000000000000000000000000000000000000000000000000000000000815260206004820152601760248201527f6d6f64756c65206164647265737320697320656d7074790000000000000000006044820152606401610676565b80356122d0576040517f08c379a000000000000000000000000000000000000000000000000000000000815260206004820152601560248201527f72756c652068617320656d70747920616374696f6e00000000000000000000006044820152606401610676565b60006122df6020830183614799565b905011612348576040517f08c379a000000000000000000000000000000000000000000000000000000000815260206004820152601560248201527f72756c652068617320656d7074792074617267657400000000000000000000006044820152606401610676565b60608101356123b3576040517f08c379a000000000000000000000000000000000000000000000000000000000815260206004820152601560248201527f72756c652068617320656d70747920657874656e7400000000000000000000006044820152606401610676565b604080516020810185905273ffffffffffffffffffffffffffffffffffffffff84168183015281518082038301815260609091019091526123f381613825565b60006004826040516124059190614847565b9081526020016040518091039020805480602002602001604051908101604052809291908181526020016000905b8282101561253e57838290600052602060002090600402016040518060800160405290816000820154815260200160018201805461247090614859565b80601f016020809104026020016040519081016040528092919081815260200182805461249c90614859565b80156124e95780601f106124be576101008083540402835291602001916124e9565b820191906000526020600020905b8154815290600101906020018083116124cc57829003601f168201915b5050509183525050600282015460209091019060ff1660068111156125105761251061453b565b60068111156125215761252161453b565b815260200160038201548152505081526020019060010190612433565b50505050905060008380602001906125569190614799565b6125666060870160408801614fe8565b866060013560405160200161257e949392919061501c565b60405160208183030381529060405280519060200120905060005b6004846040516125a99190614847565b9081526040519081900360200190205461ffff82161015611856576000838261ffff16815181106125dc576125dc61472c565b602002602001015160200151848361ffff16815181106125fe576125fe61472c565b602002602001015160400151858461ffff16815181106126205761262061472c565b60200260200101516060015160405160200161263e93929190615047565b604051602081830303815290604052805190602001209050808314156126e55760048560405161266e9190614847565b90815260200160405180910390208261ffff16815481106126915761269161472c565b600091825260208220600490910201818155906126b16001830182613f83565b506002810180547fffffffffffffffffffffffffffffffffffffffffffffffffffffffffffffff0016905560006003909101555b50806126f0816147fe565b915050612599565b612700613b6b565b80471015612790576040517f08c379a000000000000000000000000000000000000000000000000000000000815260206004820152602a60248201527f66756e2077616c6c65743a206e6f7420656e6f75676820657468657220696e2060448201527f7468652077616c6c6574000000000000000000000000000000000000000000006064820152608401610676565b6005546040517fb760faf900000000000000000000000000000000000000000000000000000000815230600482015273ffffffffffffffffffffffffffffffffffffffff9091169063b760faf990602401600060405180830381600087803b1580156127fb57600080fd5b505af115801561280f573d6000803e3d6000fd5b5050505050565b600054610100900460ff16158080156128365750600054600160ff909116105b806128505750303b158015612850575060005460ff166001145b6128dc576040517f08c379a000000000000000000000000000000000000000000000000000000000815260206004820152602e60248201527f496e697469616c697a61626c653a20636f6e747261637420697320616c72656160448201527f647920696e697469616c697a65640000000000000000000000000000000000006064820152608401610676565b600080547fffffffffffffffffffffffffffffffffffffffffffffffffffffffffffffff00166001179055801561293a57600080547fffffffffffffffffffffffffffffffffffffffffffffffffffffffffffff00ff166101001790555b73ffffffffffffffffffffffffffffffffffffffff84166129b7576040517f08c379a000000000000000000000000000000000000000000000000000000000815260206004820152601260248201527f496e76616c696420456e747279706f696e7400000000000000000000000000006044820152606401610676565b6005805473ffffffffffffffffffffffffffffffffffffffff8681167fffffffffffffffffffffffff00000000000000000000000000000000000000009283161790925560068054868416908316179055600780549285169290911682179055604080516060810182527f61646d696e000000000000000000000000000000000000000000000000000000815260006020808301828152845180830187905285518082038401815290860186528486015294825260039052919091208151815591516001838101805493949390917fffffffffffffffffffffffffffffffffffffffffffffffffffffffffffffff0090911690838015612ab957612ab961453b565b021790555060408201518051612ad9916002840191602090910190613eff565b5090505060007f61646d696e0000000000000000000000000000000000000000000000000000006040518060400160405280600181526020017f2a00000000000000000000000000000000000000000000000000000000000000815250604051602001612b47929190614d11565b6040516020818303038152906040529050600481604051612b689190614847565b908152602001604051809103902060405180608001604052807f2a0000000000000000000000000000000000000000000000000000000000000081526020016040518060400160405280600181526020017f2a000000000000000000000000000000000000000000000000000000000000008152508152602001600680811115612bf457612bf461453b565b81527f2a00000000000000000000000000000000000000000000000000000000000000602091820152825460018181018555600094855293829020835160049092020190815582820151805193949193612c5693928501929190910190613eff565b5060408201516002820180547fffffffffffffffffffffffffffffffffffffffffffffffffffffffffffffff00166001836006811115612c9857612c9861453b565b021790555060608201518160030155505050801561104057600080547fffffffffffffffffffffffffffffffffffffffffffffffffffffffffffff00ff169055604051600181527f7f26b83ff96e1f2b6a682f133852f6798a09c465da95921460cefb38474024989060200160405180910390a150505050565b6005546040517f70a0823100000000000000000000000000000000000000000000000000000000815230600482015260009173ffffffffffffffffffffffffffffffffffffffff16906370a0823190602401602060405180830381865afa158015612d81573d6000803e3d6000fd5b505050506040513d601f19601f82011682018060405250810190612da59190614c97565b905090565b612db2613b6b565b73ffffffffffffffffffffffffffffffffffffffff8216612e55576040517f08c379a000000000000000000000000000000000000000000000000000000000815260206004820152602b60248201527f66756e2077616c6c65743a20776974686472617720616464726573732063616e60448201527f6e6f74206265207a65726f0000000000000000000000000000000000000000006064820152608401610676565b6005546040517f205c287800000000000000000000000000000000000000000000000000000000815273ffffffffffffffffffffffffffffffffffffffff8481166004830152602482018490529091169063205c287890604401600060405180830381600087803b158015612ec957600080fd5b505af1158015610a12573d6000803e3d6000fd5b612ee561332e565b73ffffffffffffffffffffffffffffffffffffffff8116612f88576040517f08c379a000000000000000000000000000000000000000000000000000000000815260206004820152602d60248201527f66756e2077616c6c65743a206e6577206d6f64756c652061646472657373206360448201527f616e6e6f74206265207a65726f000000000000000000000000000000000000006064820152608401610676565b8173ffffffffffffffffffffffffffffffffffffffff168173ffffffffffffffffffffffffffffffffffffffff161415613044576040517f08c379a000000000000000000000000000000000000000000000000000000000815260206004820152603e60248201527f66756e2077616c6c65743a206e6577206d6f64756c652061646472657373206360448201527f616e6e6f7420626520657175616c20746f2070726576696f7573206f6e6500006064820152608401610676565b73ffffffffffffffffffffffffffffffffffffffff80831660009081526001602052604080822092841682529020815490919061308090614859565b61308b929190613fbd565b5073ffffffffffffffffffffffffffffffffffffffff821660009081526001602052604081206130ba91613f83565b8073ffffffffffffffffffffffffffffffffffffffff168273ffffffffffffffffffffffffffffffffffffffff167fdcbf4cc8a7afc3fe6e403a57745b98188844fdfee49c8752ae30fc46b3a39ebb60405160405180910390a35050565b73ffffffffffffffffffffffffffffffffffffffff8116600090815260016020526040902080546060919061314c90614859565b80601f016020809104026020016040519081016040528092919081815260200182805461317890614859565b80156131c55780601f1061319a576101008083540402835291602001916131c5565b820191906000526020600020905b8154815290600101906020018083116131a857829003601f168201915b50505050509050919050565b6131d961332e565b81613240576040517f08c379a000000000000000000000000000000000000000000000000000000000815260206004820152600e60248201527f696e76616c6964207573657249640000000000000000000000000000000000006044820152606401610676565b6000828152600360205260408120600201805461325c90614859565b905011156132c6576040517f08c379a000000000000000000000000000000000000000000000000000000000815260206004820152601360248201527f7573657220616c726561647920657869737473000000000000000000000000006044820152606401610676565b8035610fae576040517f08c379a000000000000000000000000000000000000000000000000000000000815260206004820152601460248201527f757365722068617320656d70747920726f6c65730000000000000000000000006044820152606401610676565b60055473ffffffffffffffffffffffffffffffffffffffff1633148061336b575060075473ffffffffffffffffffffffffffffffffffffffff1633145b6133f7576040517f08c379a000000000000000000000000000000000000000000000000000000000815260206004820152602860248201527f66756e2077616c6c65743a206e6f742066726f6d20456e747279506f696e742060448201527f6f72206f776e65720000000000000000000000000000000000000000000000006064820152608401610676565b565b60055473ffffffffffffffffffffffffffffffffffffffff1633146133f7576040517f08c379a000000000000000000000000000000000000000000000000000000000815260206004820152601f60248201527f66756e2077616c6c65743a206e6f742066726f6d20456e747279506f696e74006044820152606401610676565b6000818152600360205260408120600201805461349690614859565b905011611672576040517f08c379a000000000000000000000000000000000000000000000000000000000815260206004820152601f60248201527f66756e2077616c6c65743a207573657220646f6573206e6f74206578697374006044820152606401610676565b60208082013560009081526002909152604090205460ff161561357e576040517f08c379a000000000000000000000000000000000000000000000000000000000815260206004820152601960248201527f66756e2077616c6c65743a20696e76616c6964206e6f6e6365000000000000006044820152606401610676565b602090810135600090815260029091526040902080547fffffffffffffffffffffffffffffffffffffffffffffffffffffffffffffff00166001179055565b60008060606135cf8460048188615078565b8101906135dc91906146d2565b90935091506135ee8460c88188615078565b8080601f0160208091040260200160405190810160405280939291908181526020018383808284376000920191909152509598949750919550929350505050565b80156116725760405160009033907fffffffffffffffffffffffffffffffffffffffffffffffffffffffffffffffff90849084818181858888f193505050503d806000811461280f576040519150601f19603f3d011682016040523d82523d6000602084013e61280f565b33600090815260016020526040812080546136b490614859565b9050116133f7576040517f08c379a000000000000000000000000000000000000000000000000000000000815260206004820152602360248201527f66756e2077616c6c65743a206e6f742066726f6d2061206b6e6f776e204d6f6460448201527f756c6500000000000000000000000000000000000000000000000000000000006064820152608401610676565b60606000808573ffffffffffffffffffffffffffffffffffffffff16858560405161376e9190614847565b60006040518083038185875af1925050503d80600081146137ab576040519150601f19603f3d011682016040523d82523d6000602084013e6137b0565b606091505b50915091508161381c576040517f08c379a000000000000000000000000000000000000000000000000000000000815260206004820181905260248201527f66756e2077616c6c65743a2065787465726e616c2063616c6c206661696c65646044820152606401610676565b95945050505050565b60006004826040516138379190614847565b908152604051908190036020019020541180156138985750604051600090600490613863908490614847565b90815260200160405180910390206000815481106138835761388361472c565b90600052602060002090600402016000015414155b611672576040517f08c379a000000000000000000000000000000000000000000000000000000000815260206004820152601f60248201527f66756e2077616c6c65743a20726f6c6520646f6573206e6f74206578697374006044820152606401610676565b61167261332e565b7f4910fdfa16fed3260ed0e7147f7cc6da11a60208b5b9406d12a635614ffd91435460ff161561393957611ef383613bf6565b8273ffffffffffffffffffffffffffffffffffffffff166352d1902d6040518163ffffffff1660e01b8152600401602060405180830381865afa9250505080156139be575060408051601f3d9081017fffffffffffffffffffffffffffffffffffffffffffffffffffffffffffffffe01682019092526139bb91810190614c97565b60015b613a4a576040517f08c379a000000000000000000000000000000000000000000000000000000000815260206004820152602e60248201527f45524331393637557067726164653a206e657720696d706c656d656e7461746960448201527f6f6e206973206e6f7420555550530000000000000000000000000000000000006064820152608401610676565b7f360894a13ba1a3210667c828492db98dca3e2076cc3735a920a3ca505d382bbc8114613af9576040517f08c379a000000000000000000000000000000000000000000000000000000000815260206004820152602960248201527f45524331393637557067726164653a20756e737570706f727465642070726f7860448201527f6961626c655555494400000000000000000000000000000000000000000000006064820152608401610676565b50611ef3838383613d00565b600080613b156004828587615078565b613b1e916150a2565b7fffffffff00000000000000000000000000000000000000000000000000000000167f4ddf47d4000000000000000000000000000000000000000000000000000000001491505092915050565b60075473ffffffffffffffffffffffffffffffffffffffff16331480613b9057503330145b6133f7576040517f08c379a000000000000000000000000000000000000000000000000000000000815260206004820152601a60248201527f66756e2077616c6c65743a206e6f742066726f6d204f776e65720000000000006044820152606401610676565b73ffffffffffffffffffffffffffffffffffffffff81163b613c9a576040517f08c379a000000000000000000000000000000000000000000000000000000000815260206004820152602d60248201527f455243313936373a206e657720696d706c656d656e746174696f6e206973206e60448201527f6f74206120636f6e7472616374000000000000000000000000000000000000006064820152608401610676565b7f360894a13ba1a3210667c828492db98dca3e2076cc3735a920a3ca505d382bbc80547fffffffffffffffffffffffff00000000000000000000000000000000000000001673ffffffffffffffffffffffffffffffffffffffff92909216919091179055565b613d0983613d25565b600082511180613d165750805b15611ef3576110408383613d72565b613d2e81613bf6565b60405173ffffffffffffffffffffffffffffffffffffffff8216907fbc7cd75a20ee27fd9adebab32041f755214dbc6bffa90cc0225b39da2e5c2d3b90600090a250565b6060613d9783836040518060600160405280602781526020016150eb60279139613d9e565b9392505050565b60606000808573ffffffffffffffffffffffffffffffffffffffff1685604051613dc89190614847565b600060405180830381855af49150503d8060008114613e03576040519150601f19603f3d011682016040523d82523d6000602084013e613e08565b606091505b5091509150613e1986838387613e23565b9695505050505050565b60608315613eb6578251613eaf5773ffffffffffffffffffffffffffffffffffffffff85163b613eaf576040517f08c379a000000000000000000000000000000000000000000000000000000000815260206004820152601d60248201527f416464726573733a2063616c6c20746f206e6f6e2d636f6e74726163740000006044820152606401610676565b50816111b0565b6111b08383815115613ecb5781518083602001fd5b806040517f08c379a000000000000000000000000000000000000000000000000000000000815260040161067691906142f8565b828054613f0b90614859565b90600052602060002090601f016020900481019282613f2d5760008555613f73565b82601f10613f4657805160ff1916838001178555613f73565b82800160010185558215613f73579182015b82811115613f73578251825591602001919060010190613f58565b50613f7f929150614038565b5090565b508054613f8f90614859565b6000825580601f10613f9f575050565b601f0160209004906000526020600020908101906116729190614038565b828054613fc990614859565b90600052602060002090601f016020900481019282613feb5760008555613f73565b82601f10613ffc5780548555613f73565b82800160010185558215613f7357600052602060002091601f016020900482015b82811115613f7357825482559160010191906001019061401d565b5b80821115613f7f5760008155600101614039565b73ffffffffffffffffffffffffffffffffffffffff8116811461167257600080fd5b803561407a8161404d565b919050565b60008083601f84011261409157600080fd5b50813567ffffffffffffffff8111156140a957600080fd5b6020830191508360208260051b85010111156140c457600080fd5b9250929050565b600080600080606085870312156140e157600080fd5b8435935060208501356140f38161404d565b9250604085013567ffffffffffffffff81111561410f57600080fd5b61411b8782880161407f565b95989497509550505050565b6000806000806080858703121561413d57600080fd5b843567ffffffffffffffff81111561415457600080fd5b8501610160818803121561416757600080fd5b935060208501359250604085013561417e8161404d565b9396929550929360600135925050565b600080604083850312156141a157600080fd5b82359150602083013567ffffffffffffffff8111156141bf57600080fd5b8301606081860312156141d157600080fd5b809150509250929050565b6000602082840312156141ee57600080fd5b8135613d978161404d565b6000806000806060858703121561420f57600080fd5b843561421a8161404d565b935060208501359250604085013567ffffffffffffffff8082111561423e57600080fd5b818701915087601f83011261425257600080fd5b81358181111561426157600080fd5b88602082850101111561427357600080fd5b95989497505060200194505050565b60005b8381101561429d578181015183820152602001614285565b838111156110405750506000910152565b600081518084526142c6816020860160208601614282565b601f017fffffffffffffffffffffffffffffffffffffffffffffffffffffffffffffffe0169290920160200192915050565b602081526000613d9760208301846142ae565b60008060006060848603121561432057600080fd5b8335925060208401356143328161404d565b9150604084013567ffffffffffffffff81111561434e57600080fd5b84016080818703121561436057600080fd5b809150509250925092565b6000806000806000806060878903121561438457600080fd5b863567ffffffffffffffff8082111561439c57600080fd5b6143a88a838b0161407f565b909850965060208901359150808211156143c157600080fd5b6143cd8a838b0161407f565b909650945060408901359150808211156143e657600080fd5b506143f389828a0161407f565b979a9699509497509295939492505050565b7f4e487b7100000000000000000000000000000000000000000000000000000000600052604160045260246000fd5b6000806040838503121561444757600080fd5b82356144528161404d565b9150602083013567ffffffffffffffff8082111561446f57600080fd5b818501915085601f83011261448357600080fd5b81358181111561449557614495614405565b604051601f82017fffffffffffffffffffffffffffffffffffffffffffffffffffffffffffffffe0908116603f011681019083821181831017156144db576144db614405565b816040528281528860208487010111156144f457600080fd5b8260208601602083013760006020848301015280955050505050509250929050565b6000806040838503121561452957600080fd5b8235915060208301356141d18161404d565b7f4e487b7100000000000000000000000000000000000000000000000000000000600052602160045260246000fd5b6007811061457a5761457a61453b565b9052565b60006020808301818452808551808352604092508286019150828160051b87010184880160005b83811015614623577fffffffffffffffffffffffffffffffffffffffffffffffffffffffffffffffc0898403018552815160808151855288820151818a8701526145f1828701826142ae565b915050878201516146048987018261456a565b50606091820151949091019390935293860193908601906001016145a5565b509098975050505050505050565b60006020828403121561464357600080fd5b5035919050565b6001811061457a5761457a61453b565b602081528151602082015260006020830151614679604084018261464a565b5060408301516060808401526111b060808401826142ae565b6000806000606084860312156146a757600080fd5b83356146b28161404d565b925060208401356146c28161404d565b915060408401356143608161404d565b600080604083850312156146e557600080fd5b82356146f08161404d565b946020939093013593505050565b6000806040838503121561471157600080fd5b823561471c8161404d565b915060208301356141d18161404d565b7f4e487b7100000000000000000000000000000000000000000000000000000000600052603260045260246000fd5b600082357fffffffffffffffffffffffffffffffffffffffffffffffffffffffffffffff8183360301811261478f57600080fd5b9190910192915050565b60008083357fffffffffffffffffffffffffffffffffffffffffffffffffffffffffffffffe18436030181126147ce57600080fd5b83018035915067ffffffffffffffff8211156147e957600080fd5b6020019150368190038213156140c457600080fd5b600061ffff8083168181141561483d577f4e487b7100000000000000000000000000000000000000000000000000000000600052601160045260246000fd5b6001019392505050565b6000825161478f818460208701614282565b600181811c9082168061486d57607f821691505b602082108114156148a7577f4e487b7100000000000000000000000000000000000000000000000000000000600052602260045260246000fd5b50919050565b601f821115611ef357600081815260208120601f850160051c810160208610156148d45750805b601f850160051c820191505b81811015610a12578281556001016148e0565b6007811061167257600080fd5b6000813561490d816148f3565b92915050565b600782106149235761492361453b565b7fffffffffffffffffffffffffffffffffffffffffffffffffffffffffffffff0081541660ff831681178255505050565b813581556001808201602061496b81860186614799565b67ffffffffffffffff81111561498357614983614405565b614997816149918654614859565b866148ad565b6000601f8211600181146149e957600083156149b35750838201355b7fffffffffffffffffffffffffffffffffffffffffffffffffffffffffffffffff600385901b1c1916600184901b178655614a7a565b6000868152602090207fffffffffffffffffffffffffffffffffffffffffffffffffffffffffffffffe0841690835b82811015614a355786850135825593870193908901908701614a18565b5084821015614a70577fffffffffffffffffffffffffffffffffffffffffffffffffffffffffffffffff60f88660031b161c19848701351681555b50508683881b0186555b50505050505050614a99614a9060408401614900565b60028301614913565b606082013560038201555050565b60008083357fffffffffffffffffffffffffffffffffffffffffffffffffffffffffffffffe1843603018112614adc57600080fd5b830160208101925035905067ffffffffffffffff811115614afc57600080fd5b8036038313156140c457600080fd5b8183528181602085013750600060208284010152600060207fffffffffffffffffffffffffffffffffffffffffffffffffffffffffffffffe0601f840116840101905092915050565b6000610160614b8084614b668561406f565b73ffffffffffffffffffffffffffffffffffffffff169052565b60208301356020850152614b976040840184614aa7565b826040870152614baa8387018284614b0b565b92505050614bbb6060840184614aa7565b8583036060870152614bce838284614b0b565b925050506080830135608085015260a083013560a085015260c083013560c085015260e083013560e0850152610100808401358186015250610120614c1581850185614aa7565b86840383880152614c27848284614b0b565b9350505050610140614c3b81850185614aa7565b86840383880152614c4d848284614b0b565b979650505050505050565b606081526000614c6b6060830186614b54565b905083602083015273ffffffffffffffffffffffffffffffffffffffff83166040830152949350505050565b600060208284031215614ca957600080fd5b5051919050565b614cba818761464a565b60a060208201526000614cd060a08301876142ae565b8281036040840152614ce28187614b54565b91505083606083015273ffffffffffffffffffffffffffffffffffffffff831660808301529695505050505050565b8281526040602082015260006111b060408301846142ae565b60006040808352614d3d818401866142ae565b6020848203818601528186548084528284019150828160051b8501016000898152848120815b84811015614e67577fffffffffffffffffffffffffffffffffffffffffffffffffffffffffffffffe08885030186526080825485526001808401828a880152858154614dae81614859565b94890185905260a0948185168015614dcd5760018114614dff57614e2a565b7fffffffffffffffffffffffffffffffffffffffffffffffffffffffffffffff008316878c015260c08b019350614e2a565b848a528d8a208a5b83811015614e225781548d82018a0152908701908f01614e07565b8c0188019450505b505050600286015460ff169350614e438d89018561456a565b60038601546060989098019790975250505094860194600490910190600101614d63565b50919b9a5050505050505050505050565b813581556001808201602080850135838110614e9357600080fd5b7fffffffffffffffffffffffffffffffffffffffffffffffffffffffffffffff0083541660ff8216811784555050600284019150614ed46040860186614799565b67ffffffffffffffff811115614eec57614eec614405565b614efa816149918654614859565b6000601f821160018114614f4c5760008315614f165750838201355b7fffffffffffffffffffffffffffffffffffffffffffffffffffffffffffffffff600385901b1c1916600184901b178655614fdd565b6000868152602090207fffffffffffffffffffffffffffffffffffffffffffffffffffffffffffffffe0841690835b82811015614f985786850135825593870193908901908701614f7b565b5084821015614fd3577fffffffffffffffffffffffffffffffffffffffffffffffffffffffffffffffff60f88660031b161c19848701351681555b50508683881b0186555b505050505050505050565b600060208284031215614ffa57600080fd5b8135613d97816148f3565b600781106150155761501561453b565b60f81b9052565b838582376000848201600081526150338186615005565b600181019390935250506021019392505050565b60008451615059818460208901614282565b82016150658186615005565b6001810193909352505060210192915050565b6000808585111561508857600080fd5b8386111561509557600080fd5b5050820193919092039150565b7fffffffff0000000000000000000000000000000000000000000000000000000081358181169160048510156150e25780818660040360031b1b83161692505b50509291505056fe416464726573733a206c6f772d6c6576656c2064656c65676174652063616c6c206661696c6564a2646970667358221220e32ed900ffde62398bbef4f65d44fbbddc061989dc60443e0e755b9439ab9b7064736f6c634300080c0033","linkReferences":{},"deployedLinkReferences":{},"fileHash":"08605bf2e680faa6ea0e4bba315619ba9fd7d54ca2d787d3bdc9a2ed03b5d1a9"}