{
  "_format": "hh-sol-artifact-1",
  "contractName": "FunWalletFactory",
  "sourceName": "contracts/FunWalletFactory.sol",
  "abi": [
    {
      "inputs": [
        {
          "internalType": "address",
          "name": "entryPointAddr",
          "type": "address"
        },
        {
          "internalType": "address",
          "name": "userAuthAddr",
          "type": "address"
        },
        {
          "internalType": "address",
          "name": "owner",
          "type": "address"
        },
        {
          "internalType": "uint256",
          "name": "salt",
          "type": "uint256"
        }
      ],
      "name": "createAccount",
      "outputs": [
        {
          "internalType": "contract FunWallet",
          "name": "funWallet",
          "type": "address"
        }
      ],
      "stateMutability": "nonpayable",
      "type": "function"
    },
    {
      "inputs": [
        {
          "internalType": "address",
          "name": "entryPointAddr",
          "type": "address"
        },
        {
          "internalType": "address",
          "name": "userAuthAddr",
          "type": "address"
        },
        {
          "internalType": "address",
          "name": "owner",
          "type": "address"
        },
        {
          "internalType": "uint256",
          "name": "salt",
          "type": "uint256"
        }
      ],
      "name": "getAddress",
      "outputs": [
        {
          "internalType": "address",
          "name": "",
          "type": "address"
        }
      ],
      "stateMutability": "view",
      "type": "function"
    }
  ],
  "bytecode": "0x608060405234801561001057600080fd5b50614193806100206000396000f3fe608060405234801561001057600080fd5b50600436106100365760003560e01c806361b36f4b1461003b5780639f3ee0f914610077575b600080fd5b61004e610049366004610281565b61008a565b60405173ffffffffffffffffffffffffffffffffffffffff909116815260200160405180910390f35b61004e610085366004610281565b61012f565b6000806100998686868661012f565b905073ffffffffffffffffffffffffffffffffffffffff81163b80156100c157509050610127565b8360001b8787876040516100d49061024a565b73ffffffffffffffffffffffffffffffffffffffff9384168152918316602083015290911660408201526060018190604051809103906000f5905080158015610121573d6000803e3d6000fd5b50925050505b949350505050565b60006102038260001b604051806020016101489061024a565b7fffffffffffffffffffffffffffffffffffffffffffffffffffffffffffffffe082820381018352601f90910116604081815273ffffffffffffffffffffffffffffffffffffffff8a811660208401528981169183019190915287166060820152608001604080517fffffffffffffffffffffffffffffffffffffffffffffffffffffffffffffffe0818403018152908290526101e89291602001610307565b6040516020818303038152906040528051906020012061020c565b95945050505050565b6000610219838330610220565b9392505050565b6000604051836040820152846020820152828152600b8101905060ff815360559020949350505050565b613e41806200031d83390190565b803573ffffffffffffffffffffffffffffffffffffffff8116811461027c57600080fd5b919050565b6000806000806080858703121561029757600080fd5b6102a085610258565b93506102ae60208601610258565b92506102bc60408601610258565b9396929550929360600135925050565b6000815160005b818110156102ed57602081850181015186830152016102d3565b818111156102fc576000828601525b509290920192915050565b600061012761031683866102cc565b846102cc56fe60806040523480156200001157600080fd5b5060405162003e4138038062003e4183398101604081905262000034916200038f565b6001600160a01b038316620000845760405162461bcd60e51b8152602060048201526012602482015271125b9d985b1a5908115b9d1c9e5c1bda5b9d60721b604482015260640160405180910390fd5b600480546001600160a01b038581166001600160a01b03199283161790925560058054858416908316179055600680549284169290911682179055604080516060810182526430b236b4b760d91b815260006020808301919091528251908101939093529182820191016040516020818303038152906040528152506002600062000123846001600160a01b0316620002c060201b620023dd1760201c565b8152602080820192909252604001600020825181559082015160018083018054909160ff19909116908380156200015e576200015e620003d9565b02179055506040820151805162000180916002840191602090910190620002cc565b5090505060006430b236b4b760d91b604051806040016040528060018152602001601560f91b815250604051602001620001bc92919062000422565b6040516020818303038152906040529050600381604051620001df91906200045e565b90815260200160405180910390206040518060800160405280601560f91b8152602001604051806040016040528060018152602001601560f91b8152508152602001600680811115620002365762000236620003d9565b8152601560f91b6020918201528254600181810185556000948552938290208351600490920201908155828201518051939491936200027e93928501929190910190620002cc565b50604082015160028201805460ff19166001836006811115620002a557620002a5620003d9565b021790555060608201518160030155505050505050620004b9565b6001600160a01b031690565b828054620002da906200047c565b90600052602060002090601f016020900481019282620002fe576000855562000349565b82601f106200031957805160ff191683800117855562000349565b8280016001018555821562000349579182015b82811115620003495782518255916020019190600101906200032c565b50620003579291506200035b565b5090565b5b808211156200035757600081556001016200035c565b80516001600160a01b03811681146200038a57600080fd5b919050565b600080600060608486031215620003a557600080fd5b620003b08462000372565b9250620003c06020850162000372565b9150620003d06040850162000372565b90509250925092565b634e487b7160e01b600052602160045260246000fd5b60005b838110156200040c578181015183820152602001620003f2565b838111156200041c576000848401525b50505050565b828152604060208201526000825180604084015262000449816060850160208701620003ef565b601f01601f1916919091016060019392505050565b6000825162000472818460208701620003ef565b9190910192915050565b600181811c908216806200049157607f821691505b60208210811415620004b357634e487b7160e01b600052602260045260246000fd5b50919050565b61397880620004c96000396000f3fe60806040526004361061016e5760003560e01c80637b8ea028116100cb578063c399ec881161007f578063dc7c984811610059578063dc7c984814610415578063e374e90f14610435578063ea5d9eb71461047557600080fd5b8063c399ec88146103c0578063c7d76308146103d5578063d06403d6146103f557600080fd5b80638da5cb5b116100b05780638da5cb5b14610348578063a55e593d14610375578063b0d691fe1461039557600080fd5b80637b8ea0281461030857806383b739431461032857600080fd5b80633b66fc6b1161012257806355cd05cc1161010757806355cd05cc1461029b5780635e5d4320146102bb5780636517579c146102db57600080fd5b80633b66fc6b1461022f5780633cb66ec41461024f57600080fd5b80631b71bb6e116101535780631b71bb6e146101cf57806320d2a20f146101ef5780633a6e5a0a1461020f57600080fd5b80630825d1fc1461017a57806315577ae2146101ad57600080fd5b3661017557005b600080fd5b34801561018657600080fd5b5061019a610195366004612ada565b610495565b6040519081526020015b60405180910390f35b3480156101b957600080fd5b506101cd6101c8366004612b41565b610978565b005b3480156101db57600080fd5b506101cd6101ea366004612b8f565b610a88565b6102026101fd366004612bb3565b610ba4565b6040516101a49190612cb2565b34801561021b57600080fd5b506101cd61022a366004612d11565b610bf8565b34801561023b57600080fd5b506101cd61024a366004612dab565b610de1565b34801561025b57600080fd5b5060055473ffffffffffffffffffffffffffffffffffffffff165b60405173ffffffffffffffffffffffffffffffffffffffff90911681526020016101a4565b3480156102a757600080fd5b506101cd6102b6366004612bb3565b611257565b3480156102c757600080fd5b506101cd6102d6366004612e15565b6112e3565b3480156102e757600080fd5b506102fb6102f6366004612e15565b6113a2565b6040516101a49190612e71565b34801561031457600080fd5b506101cd610323366004612b8f565b61150a565b34801561033457600080fd5b506101cd610343366004612eb1565b611626565b34801561035457600080fd5b506006546102769073ffffffffffffffffffffffffffffffffffffffff1681565b34801561038157600080fd5b506101cd610390366004612e15565b611948565b3480156103a157600080fd5b5060045473ffffffffffffffffffffffffffffffffffffffff16610276565b3480156103cc57600080fd5b5061019a611a67565b3480156103e157600080fd5b506101cd6103f0366004612f19565b611b04565b34801561040157600080fd5b50610202610410366004612b8f565b611c39565b34801561042157600080fd5b506101cd610430366004612b41565b611cf2565b34801561044157600080fd5b50610465610450366004612e15565b60009081526001602052604090205460ff1690565b60405190151581526020016101a4565b34801561048157600080fd5b506101cd610490366004612eb1565b611dec565b600061049f6123f6565b6005546040517fa8a2de9300000000000000000000000000000000000000000000000000000000815260009173ffffffffffffffffffffffffffffffffffffffff169063a8a2de93906104fa908990899089906004016130f6565b602060405180830381865afa158015610517573d6000803e3d6000fd5b505050506040513d601f19601f8201168201806040525081019061053b9190613135565b905061054681612479565b6000818152600260209081526040808320815160608101909252805482526001810154919290919083019060ff16801561058257610582612e2e565b801561059057610590612e2e565b81526020016002820180546105a49061314e565b80601f01602080910402602001604051908101604052809291908181526020018280546105d09061314e565b801561061d5780601f106105f25761010080835404028352916020019161061d565b820191906000526020600020905b81548152906001019060200180831161060057829003601f168201915b505050919092525050600554602083015160408085015190517fd7acc99a00000000000000000000000000000000000000000000000000000000815294955073ffffffffffffffffffffffffffffffffffffffff9092169363d7acc99a935061068f92908c908c908c906004016131a2565b602060405180830381865afa1580156106ac573d6000803e3d6000fd5b505050506040513d601f19601f820116820180604052508101906106d09190613135565b92506106df6040880188613203565b151590506106f0576106f087612501565b600081600001516040518060400160405280600181526020017f2a0000000000000000000000000000000000000000000000000000000000000081525060405160200161073e929190613268565b60405160208183030381529060405290507f61646d696e0000000000000000000000000000000000000000000000000000008260000151141580156107a3575060006003826040516107909190613281565b9081526040519081900360200190205411155b15610964576000806107c06107bb60608c018c613203565b6125c0565b86519294509250600091905073ffffffffffffffffffffffffffffffffffffffff8416604080516020810193909352820152606001604051602081830303815290604052905060006003826040516108189190613281565b908152604051908190036020019020541180610853575060006003826040516108419190613281565b90815260405190819003602001902054115b6108be576040517f08c379a000000000000000000000000000000000000000000000000000000000815260206004820152601660248201527f75736572206973206e6f7420617574686f72697a65640000000000000000000060448201526064015b60405180910390fd5b8273ffffffffffffffffffffffffffffffffffffffff166352bd4f41836003846040516108eb9190613281565b9081526040519081900360200181207fffffffff0000000000000000000000000000000000000000000000000000000060e085901b16825261093092916004016132ad565b60006040518083038186803b15801561094857600080fd5b505afa15801561095c573d6000803e3d6000fd5b505050505050505b61096d85612632565b505050949350505050565b61098061269d565b816109e7576040517f08c379a000000000000000000000000000000000000000000000000000000000815260206004820152600e60248201527f696e76616c69642075736572496400000000000000000000000000000000000060448201526064016108b5565b6109f082612479565b60006109ff6040830183613203565b905011610a68576040517f08c379a000000000000000000000000000000000000000000000000000000000815260206004820152601c60248201527f757365722068617320656d7074792061757468206d657461646174610000000060448201526064016108b5565b60008281526002602052604090208190610a828282613470565b50505050565b610a9061269d565b73ffffffffffffffffffffffffffffffffffffffff8116610b33576040517f08c379a000000000000000000000000000000000000000000000000000000000815260206004820152603260248201527f66756e2077616c6c65743a206e657720656e74727920706f696e74206164647260448201527f6573732063616e6e6f74206265207a65726f000000000000000000000000000060648201526084016108b5565b600480547fffffffffffffffffffffffff00000000000000000000000000000000000000001673ffffffffffffffffffffffffffffffffffffffff831690811790915560405181907f450909c1478d09248269d4ad4fa8cba61ca3f50faed58c7aedefa51c7f62b83a90600090a350565b6060610bae612766565b610bef858585858080601f01602080910402602001604051908101604052809392919081815260200183838082843760009201919091525061280f92505050565b95945050505050565b610c0061269d565b8483148015610c0e57508281145b610c74576040517f08c379a000000000000000000000000000000000000000000000000000000000815260206004820152601760248201527f6461746120697320646966666572656e742073697a657300000000000000000060448201526064016108b5565b60005b85811015610dd857610cab838383818110610c9457610c946135e6565b9050602002810190610ca69190613203565b6128e8565b15610dd0576000610d53888884818110610cc757610cc76135e6565b9050602002016020810190610cdc9190612b8f565b878785818110610cee57610cee6135e6565b90506020020135868686818110610d0757610d076135e6565b9050602002810190610d199190613203565b8080601f01602080910402602001604051908101604052809392919081815260200183838082843760009201919091525061280f92505050565b9050806000808a8a86818110610d6b57610d6b6135e6565b9050602002016020810190610d809190612b8f565b73ffffffffffffffffffffffffffffffffffffffff1673ffffffffffffffffffffffffffffffffffffffff1681526020019081526020016000209080519060200190610dcd9291906129d9565b50505b600101610c77565b50505050505050565b610de961269d565b84610e50576040517f08c379a000000000000000000000000000000000000000000000000000000000815260206004820152600d60248201527f726f6c6520697320656d7074790000000000000000000000000000000000000060448201526064016108b5565b73ffffffffffffffffffffffffffffffffffffffff8416610ecd576040517f08c379a000000000000000000000000000000000000000000000000000000000815260206004820152601760248201527f6d6f64756c65206164647265737320697320656d70747900000000000000000060448201526064016108b5565b82610f34576040517f08c379a000000000000000000000000000000000000000000000000000000000815260206004820152600f60248201527f616374696f6e20697320656d707479000000000000000000000000000000000060448201526064016108b5565b80610f9b576040517f08c379a000000000000000000000000000000000000000000000000000000000815260206004820152600f60248201527f72756c65732061726520656d707479000000000000000000000000000000000060448201526064016108b5565b60005b61ffff8116821115611186576000838361ffff8416818110610fc257610fc26135e6565b9050602002810190610fd49190613615565b35141561103d576040517f08c379a000000000000000000000000000000000000000000000000000000000815260206004820152601560248201527f72756c652068617320656d70747920616374696f6e000000000000000000000060448201526064016108b5565b600083838361ffff16818110611055576110556135e6565b90506020028101906110679190613615565b611075906020810190613203565b9050116110de576040517f08c379a000000000000000000000000000000000000000000000000000000000815260206004820152601560248201527f72756c652068617320656d70747920746172676574000000000000000000000060448201526064016108b5565b6000838361ffff84168181106110f6576110f66135e6565b90506020028101906111089190613615565b606001351415611174576040517f08c379a000000000000000000000000000000000000000000000000000000000815260206004820152601560248201527f72756c652068617320656d70747920657874656e74000000000000000000000060448201526064016108b5565b8061117e81613649565b915050610f9e565b5060008573ffffffffffffffffffffffffffffffffffffffff861660408051602081019390935282015260608101859052608001604051602081830303815290604052905060005b61ffff8116831115610dd8576003826040516111ea9190613281565b908152602001604051809103902084848361ffff1681811061120e5761120e6135e6565b90506020028101906112209190613615565b81546001810183556000928352602090922090916004020161124282826136f3565b5050808061124f90613649565b9150506111ce565b61125f61269d565b60006112a2858585858080601f01602080910402602001604051908101604052809392919081815260200183838082843760009201919091525061280f92505050565b73ffffffffffffffffffffffffffffffffffffffff861660009081526020818152604090912082519293506112db9290918401906129d9565b505050505050565b6112eb61269d565b80611352576040517f08c379a000000000000000000000000000000000000000000000000000000000815260206004820152600e60248201527f696e76616c69642075736572496400000000000000000000000000000000000060448201526064016108b5565b600081815260026020819052604082208281556001810180547fffffffffffffffffffffffffffffffffffffffffffffffffffffffffffffff00169055919061139d90830182612a5d565b505050565b6040805160608082018352600080835260208301529181019190915281611425576040517f08c379a000000000000000000000000000000000000000000000000000000000815260206004820152600e60248201527f696e76616c69642075736572496400000000000000000000000000000000000060448201526064016108b5565b600082815260026020908152604091829020825160608101909352805483526001810154909183019060ff16801561145f5761145f612e2e565b801561146d5761146d612e2e565b81526020016002820180546114819061314e565b80601f01602080910402602001604051908101604052809291908181526020018280546114ad9061314e565b80156114fa5780601f106114cf576101008083540402835291602001916114fa565b820191906000526020600020905b8154815290600101906020018083116114dd57829003601f168201915b5050505050815250509050919050565b61151261269d565b73ffffffffffffffffffffffffffffffffffffffff81166115b5576040517f08c379a000000000000000000000000000000000000000000000000000000000815260206004820152603260248201527f66756e2077616c6c65743a206e657720656e74727920706f696e74206164647260448201527f6573732063616e6e6f74206265207a65726f000000000000000000000000000060648201526084016108b5565b600580547fffffffffffffffffffffffff00000000000000000000000000000000000000001673ffffffffffffffffffffffffffffffffffffffff831690811790915560405181907f34a5e38fc8fe74f12b269fe92e724092f7f531dc4985c88fb113460cfcb5f67d90600090a350565b61162e61269d565b83611695576040517f08c379a000000000000000000000000000000000000000000000000000000000815260206004820152600d60248201527f726f6c6520697320656d7074790000000000000000000000000000000000000060448201526064016108b5565b73ffffffffffffffffffffffffffffffffffffffff8316611712576040517f08c379a000000000000000000000000000000000000000000000000000000000815260206004820152601760248201527f6d6f64756c65206164647265737320697320656d70747900000000000000000060448201526064016108b5565b81611779576040517f08c379a000000000000000000000000000000000000000000000000000000000815260206004820152600f60248201527f616374696f6e20697320656d707479000000000000000000000000000000000060448201526064016108b5565b80356117e1576040517f08c379a000000000000000000000000000000000000000000000000000000000815260206004820152601560248201527f72756c652068617320656d70747920616374696f6e000000000000000000000060448201526064016108b5565b60006117f06020830183613203565b905011611859576040517f08c379a000000000000000000000000000000000000000000000000000000000815260206004820152601560248201527f72756c652068617320656d70747920746172676574000000000000000000000060448201526064016108b5565b60608101356118c4576040517f08c379a000000000000000000000000000000000000000000000000000000000815260206004820152601560248201527f72756c652068617320656d70747920657874656e74000000000000000000000060448201526064016108b5565b60008473ffffffffffffffffffffffffffffffffffffffff85166040805160208101939093528201526060810184905260800160405160208183030381529060405290506003816040516119189190613281565b9081526040516020918190038201902080546001810182556000918252919020839160040201610dd882826136f3565b61195061294e565b804710156119e0576040517f08c379a000000000000000000000000000000000000000000000000000000000815260206004820152602a60248201527f66756e2077616c6c65743a206e6f7420656e6f75676820657468657220696e2060448201527f7468652077616c6c65740000000000000000000000000000000000000000000060648201526084016108b5565b600480546040517fb760faf9000000000000000000000000000000000000000000000000000000008152309281019290925273ffffffffffffffffffffffffffffffffffffffff169063b760faf990602401600060405180830381600087803b158015611a4c57600080fd5b505af1158015611a60573d6000803e3d6000fd5b5050505050565b600480546040517f70a08231000000000000000000000000000000000000000000000000000000008152309281019290925260009173ffffffffffffffffffffffffffffffffffffffff909116906370a0823190602401602060405180830381865afa158015611adb573d6000803e3d6000fd5b505050506040513d601f19601f82011682018060405250810190611aff9190613135565b905090565b611b0c61294e565b73ffffffffffffffffffffffffffffffffffffffff8216611baf576040517f08c379a000000000000000000000000000000000000000000000000000000000815260206004820152602b60248201527f66756e2077616c6c65743a20776974686472617720616464726573732063616e60448201527f6e6f74206265207a65726f00000000000000000000000000000000000000000060648201526084016108b5565b600480546040517f205c287800000000000000000000000000000000000000000000000000000000815273ffffffffffffffffffffffffffffffffffffffff858116938201939093526024810184905291169063205c287890604401600060405180830381600087803b158015611c2557600080fd5b505af11580156112db573d6000803e3d6000fd5b73ffffffffffffffffffffffffffffffffffffffff81166000908152602081905260409020805460609190611c6d9061314e565b80601f0160208091040260200160405190810160405280929190818152602001828054611c999061314e565b8015611ce65780601f10611cbb57610100808354040283529160200191611ce6565b820191906000526020600020905b815481529060010190602001808311611cc957829003601f168201915b50505050509050919050565b611cfa61269d565b81611d61576040517f08c379a000000000000000000000000000000000000000000000000000000000815260206004820152600e60248201527f696e76616c69642075736572496400000000000000000000000000000000000060448201526064016108b5565b60008281526002602081905260408220018054611d7d9061314e565b90501115611de7576040517f08c379a000000000000000000000000000000000000000000000000000000000815260206004820152601360248201527f7573657220616c7265616479206578697374730000000000000000000000000060448201526064016108b5565b6109f0565b611df461269d565b83611e5b576040517f08c379a000000000000000000000000000000000000000000000000000000000815260206004820152600d60248201527f726f6c6520697320656d7074790000000000000000000000000000000000000060448201526064016108b5565b73ffffffffffffffffffffffffffffffffffffffff8316611ed8576040517f08c379a000000000000000000000000000000000000000000000000000000000815260206004820152601760248201527f6d6f64756c65206164647265737320697320656d70747900000000000000000060448201526064016108b5565b81611f3f576040517f08c379a000000000000000000000000000000000000000000000000000000000815260206004820152600f60248201527f616374696f6e20697320656d707479000000000000000000000000000000000060448201526064016108b5565b8035611fa7576040517f08c379a000000000000000000000000000000000000000000000000000000000815260206004820152601560248201527f72756c652068617320656d70747920616374696f6e000000000000000000000060448201526064016108b5565b6000611fb66020830183613203565b90501161201f576040517f08c379a000000000000000000000000000000000000000000000000000000000815260206004820152601560248201527f72756c652068617320656d70747920746172676574000000000000000000000060448201526064016108b5565b606081013561208a576040517f08c379a000000000000000000000000000000000000000000000000000000000815260206004820152601560248201527f72756c652068617320656d70747920657874656e74000000000000000000000060448201526064016108b5565b60008473ffffffffffffffffffffffffffffffffffffffff851660408051602081019390935282015260608101849052608001604051602081830303815290604052905060006003826040516120e09190613281565b9081526020016040518091039020805480602002602001604051908101604052809291908181526020016000905b8282101561221957838290600052602060002090600402016040518060800160405290816000820154815260200160018201805461214b9061314e565b80601f01602080910402602001604051908101604052809291908181526020018280546121779061314e565b80156121c45780601f10612199576101008083540402835291602001916121c4565b820191906000526020600020905b8154815290600101906020018083116121a757829003601f168201915b5050509183525050600282015460209091019060ff1660068111156121eb576121eb612e2e565b60068111156121fc576121fc612e2e565b81526020016003820154815250508152602001906001019061210e565b50505050905060008380602001906122319190613203565b6122416060870160408801613840565b86606001356040516020016122599493929190613874565b60405160208183030381529060405280519060200120905060005b6003846040516122849190613281565b9081526040519081900360200190205461ffff821610156123d3576000838261ffff16815181106122b7576122b76135e6565b602002602001015160200151848361ffff16815181106122d9576122d96135e6565b602002602001015160400151858461ffff16815181106122fb576122fb6135e6565b6020026020010151606001516040516020016123199392919061389f565b604051602081830303815290604052805190602001209050808314156123c0576003856040516123499190613281565b90815260200160405180910390208261ffff168154811061236c5761236c6135e6565b6000918252602082206004909102018181559061238c6001830182612a5d565b506002810180547fffffffffffffffffffffffffffffffffffffffffffffffffffffffffffffff0016905560006003909101555b50806123cb81613649565b915050612274565b5050505050505050565b73ffffffffffffffffffffffffffffffffffffffff1690565b60045473ffffffffffffffffffffffffffffffffffffffff163314612477576040517f08c379a000000000000000000000000000000000000000000000000000000000815260206004820152601f60248201527f66756e2077616c6c65743a206e6f742066726f6d20456e747279506f696e740060448201526064016108b5565b565b600081815260026020819052604082200180546124959061314e565b9050116124fe576040517f08c379a000000000000000000000000000000000000000000000000000000000815260206004820152601360248201527f7573657220646f6573206e6f742065786973740000000000000000000000000060448201526064016108b5565b50565b60208082013560009081526001909152604090205460ff1615612580576040517f08c379a000000000000000000000000000000000000000000000000000000000815260206004820152601960248201527f66756e2077616c6c65743a20696e76616c6964206e6f6e63650000000000000060448201526064016108b5565b60209081013560009081526001918290526040902080547fffffffffffffffffffffffffffffffffffffffffffffffffffffffffffffff00169091179055565b60008060606125d284600481886138d0565b8101906125df9190612f19565b90935091506125f184604481886138d0565b8080601f0160208091040260200160405190810160405280939291908181526020018383808284376000920191909152509598949750919550929350505050565b80156124fe5760405160009033907fffffffffffffffffffffffffffffffffffffffffffffffffffffffffffffffff90849084818181858888f193505050503d8060008114611a60576040519150601f19603f3d011682016040523d82523d6000602084013e611a60565b60045473ffffffffffffffffffffffffffffffffffffffff163314806126da575060065473ffffffffffffffffffffffffffffffffffffffff1633145b612477576040517f08c379a000000000000000000000000000000000000000000000000000000000815260206004820152602860248201527f66756e2077616c6c65743a206e6f742066726f6d20456e747279506f696e742060448201527f6f72206f776e657200000000000000000000000000000000000000000000000060648201526084016108b5565b33600090815260208190526040812080546127809061314e565b905011612477576040517f08c379a000000000000000000000000000000000000000000000000000000000815260206004820152602360248201527f66756e2077616c6c65743a206e6f742066726f6d2061206b6e6f776e204d6f6460448201527f756c65000000000000000000000000000000000000000000000000000000000060648201526084016108b5565b60606000808573ffffffffffffffffffffffffffffffffffffffff16858560405161283a9190613281565b60006040518083038185875af1925050503d8060008114612877576040519150601f19603f3d011682016040523d82523d6000602084013e61287c565b606091505b509150915081610bef576040517f08c379a000000000000000000000000000000000000000000000000000000000815260206004820181905260248201527f66756e2077616c6c65743a2065787465726e616c2063616c6c206661696c656460448201526064016108b5565b6000806128f860048285876138d0565b612901916138fa565b7fffffffff00000000000000000000000000000000000000000000000000000000167f4ddf47d4000000000000000000000000000000000000000000000000000000001491505092915050565b60065473ffffffffffffffffffffffffffffffffffffffff1633148061297357503330145b612477576040517f08c379a000000000000000000000000000000000000000000000000000000000815260206004820152601a60248201527f66756e2077616c6c65743a206e6f742066726f6d204f776e657200000000000060448201526064016108b5565b8280546129e59061314e565b90600052602060002090601f016020900481019282612a075760008555612a4d565b82601f10612a2057805160ff1916838001178555612a4d565b82800160010185558215612a4d579182015b82811115612a4d578251825591602001919060010190612a32565b50612a59929150612a93565b5090565b508054612a699061314e565b6000825580601f10612a79575050565b601f0160209004906000526020600020908101906124fe91905b5b80821115612a595760008155600101612a94565b73ffffffffffffffffffffffffffffffffffffffff811681146124fe57600080fd5b8035612ad581612aa8565b919050565b60008060008060808587031215612af057600080fd5b843567ffffffffffffffff811115612b0757600080fd5b85016101608188031215612b1a57600080fd5b9350602085013592506040850135612b3181612aa8565b9396929550929360600135925050565b60008060408385031215612b5457600080fd5b82359150602083013567ffffffffffffffff811115612b7257600080fd5b830160608186031215612b8457600080fd5b809150509250929050565b600060208284031215612ba157600080fd5b8135612bac81612aa8565b9392505050565b60008060008060608587031215612bc957600080fd5b8435612bd481612aa8565b935060208501359250604085013567ffffffffffffffff80821115612bf857600080fd5b818701915087601f830112612c0c57600080fd5b813581811115612c1b57600080fd5b886020828501011115612c2d57600080fd5b95989497505060200194505050565b60005b83811015612c57578181015183820152602001612c3f565b83811115610a825750506000910152565b60008151808452612c80816020860160208601612c3c565b601f017fffffffffffffffffffffffffffffffffffffffffffffffffffffffffffffffe0169290920160200192915050565b602081526000612bac6020830184612c68565b60008083601f840112612cd757600080fd5b50813567ffffffffffffffff811115612cef57600080fd5b6020830191508360208260051b8501011115612d0a57600080fd5b9250929050565b60008060008060008060608789031215612d2a57600080fd5b863567ffffffffffffffff80821115612d4257600080fd5b612d4e8a838b01612cc5565b90985096506020890135915080821115612d6757600080fd5b612d738a838b01612cc5565b90965094506040890135915080821115612d8c57600080fd5b50612d9989828a01612cc5565b979a9699509497509295939492505050565b600080600080600060808688031215612dc357600080fd5b853594506020860135612dd581612aa8565b935060408601359250606086013567ffffffffffffffff811115612df857600080fd5b612e0488828901612cc5565b969995985093965092949392505050565b600060208284031215612e2757600080fd5b5035919050565b7f4e487b7100000000000000000000000000000000000000000000000000000000600052602160045260246000fd5b60018110612e6d57612e6d612e2e565b9052565b602081528151602082015260006020830151612e906040840182612e5d565b506040830151606080840152612ea96080840182612c68565b949350505050565b60008060008060808587031215612ec757600080fd5b843593506020850135612ed981612aa8565b925060408501359150606085013567ffffffffffffffff811115612efc57600080fd5b850160808188031215612f0e57600080fd5b939692955090935050565b60008060408385031215612f2c57600080fd5b8235612f3781612aa8565b946020939093013593505050565b60008083357fffffffffffffffffffffffffffffffffffffffffffffffffffffffffffffffe1843603018112612f7a57600080fd5b830160208101925035905067ffffffffffffffff811115612f9a57600080fd5b803603831315612d0a57600080fd5b8183528181602085013750600060208284010152600060207fffffffffffffffffffffffffffffffffffffffffffffffffffffffffffffffe0601f840116840101905092915050565b600061016061301e8461300485612aca565b73ffffffffffffffffffffffffffffffffffffffff169052565b602083013560208501526130356040840184612f45565b8260408701526130488387018284612fa9565b925050506130596060840184612f45565b858303606087015261306c838284612fa9565b925050506080830135608085015260a083013560a085015260c083013560c085015260e083013560e08501526101008084013581860152506101206130b381850185612f45565b868403838801526130c5848284612fa9565b93505050506101406130d981850185612f45565b868403838801526130eb848284612fa9565b979650505050505050565b6060815260006131096060830186612ff2565b905083602083015273ffffffffffffffffffffffffffffffffffffffff83166040830152949350505050565b60006020828403121561314757600080fd5b5051919050565b600181811c9082168061316257607f821691505b6020821081141561319c577f4e487b7100000000000000000000000000000000000000000000000000000000600052602260045260246000fd5b50919050565b6131ac8187612e5d565b60a0602082015260006131c260a0830187612c68565b82810360408401526131d48187612ff2565b91505083606083015273ffffffffffffffffffffffffffffffffffffffff831660808301529695505050505050565b60008083357fffffffffffffffffffffffffffffffffffffffffffffffffffffffffffffffe184360301811261323857600080fd5b83018035915067ffffffffffffffff82111561325357600080fd5b602001915036819003821315612d0a57600080fd5b828152604060208201526000612ea96040830184612c68565b60008251613293818460208701612c3c565b9190910192915050565b60078110612e6d57612e6d612e2e565b600060408083526132c081840186612c68565b6020848203818601528186548084528284019150828160051b8501016000898152848120815b848110156133ea577fffffffffffffffffffffffffffffffffffffffffffffffffffffffffffffffe08885030186526080825485526001808401828a8801528581546133318161314e565b94890185905260a09481851680156133505760018114613382576133ad565b7fffffffffffffffffffffffffffffffffffffffffffffffffffffffffffffff008316878c015260c08b0193506133ad565b848a528d8a208a5b838110156133a55781548d82018a0152908701908f0161338a565b8c0188019450505b505050600286015460ff1693506133c68d89018561329d565b600386015460609890980197909752505050948601946004909101906001016132e6565b50919b9a5050505050505050505050565b7f4e487b7100000000000000000000000000000000000000000000000000000000600052604160045260246000fd5b601f82111561139d57600081815260208120601f850160051c810160208610156134515750805b601f850160051c820191505b818110156112db5782815560010161345d565b81358155600180820160208085013583811061348b57600080fd5b7fffffffffffffffffffffffffffffffffffffffffffffffffffffffffffffff0083541660ff82168117845550506002840191506134cc6040860186613203565b67ffffffffffffffff8111156134e4576134e46133fb565b6134f8816134f2865461314e565b8661342a565b6000601f82116001811461354a57600083156135145750838201355b7fffffffffffffffffffffffffffffffffffffffffffffffffffffffffffffffff600385901b1c1916600184901b1786556135db565b6000868152602090207fffffffffffffffffffffffffffffffffffffffffffffffffffffffffffffffe0841690835b828110156135965786850135825593870193908901908701613579565b50848210156135d1577fffffffffffffffffffffffffffffffffffffffffffffffffffffffffffffffff60f88660031b161c19848701351681555b50508683881b0186555b505050505050505050565b7f4e487b7100000000000000000000000000000000000000000000000000000000600052603260045260246000fd5b600082357fffffffffffffffffffffffffffffffffffffffffffffffffffffffffffffff8183360301811261329357600080fd5b600061ffff80831681811415613688577f4e487b7100000000000000000000000000000000000000000000000000000000600052601160045260246000fd5b6001019392505050565b600781106124fe57600080fd5b600081356136ac81613692565b92915050565b600782106136c2576136c2612e2e565b7fffffffffffffffffffffffffffffffffffffffffffffffffffffffffffffff0081541660ff831681178255505050565b813581556001808201602061370a81860186613203565b67ffffffffffffffff811115613722576137226133fb565b613730816134f2865461314e565b6000601f821160018114613782576000831561374c5750838201355b7fffffffffffffffffffffffffffffffffffffffffffffffffffffffffffffffff600385901b1c1916600184901b178655613813565b6000868152602090207fffffffffffffffffffffffffffffffffffffffffffffffffffffffffffffffe0841690835b828110156137ce57868501358255938701939089019087016137b1565b5084821015613809577fffffffffffffffffffffffffffffffffffffffffffffffffffffffffffffffff60f88660031b161c19848701351681555b50508683881b0186555b505050505050506138326138296040840161369f565b600283016136b2565b606082013560038201555050565b60006020828403121561385257600080fd5b8135612bac81613692565b6007811061386d5761386d612e2e565b60f81b9052565b8385823760008482016000815261388b818661385d565b600181019390935250506021019392505050565b600084516138b1818460208901612c3c565b82016138bd818661385d565b6001810193909352505060210192915050565b600080858511156138e057600080fd5b838611156138ed57600080fd5b5050820193919092039150565b7fffffffff00000000000000000000000000000000000000000000000000000000813581811691600485101561393a5780818660040360031b1b83161692505b50509291505056fea2646970667358221220f75b56dc1402e1d55f9307efa326e53a9229838b1d1b0b1627cb2a9c508a837664736f6c634300080c0033a2646970667358221220f391a3aba3eb51a5ae06e85265743c83adacabc8c136adf0ff00dabb2895a1e464736f6c634300080c0033",
  "linkReferences": {},
  "deployedLinkReferences": {}
}