{"_format":"hh-sol-artifact-1","contractName":"FunWallet","sourceName":"contracts/FunWallet.sol","abi":[{"inputs":[{"internalType":"address","name":"_entryPointAddr","type":"address"},{"internalType":"address","name":"_userAuthAddr","type":"address"},{"internalType":"address","name":"_owner","type":"address"}],"stateMutability":"nonpayable","type":"constructor"},{"anonymous":false,"inputs":[{"indexed":true,"internalType":"address","name":"oldEntryPoint","type":"address"},{"indexed":true,"internalType":"address","name":"newEntryPoint","type":"address"}],"name":"EntryPointChanged","type":"event"},{"anonymous":false,"inputs":[{"indexed":true,"internalType":"address","name":"oldUserAuthenticationAddr","type":"address"},{"indexed":true,"internalType":"address","name":"newUserAuthenticationAddr","type":"address"}],"name":"UserAuthenticationAddrChanged","type":"event"},{"inputs":[{"internalType":"bytes32","name":"role","type":"bytes32"},{"internalType":"address","name":"moduleAddr","type":"address"},{"internalType":"bytes32","name":"action","type":"bytes32"},{"components":[{"internalType":"bytes32","name":"action","type":"bytes32"},{"internalType":"bytes","name":"target","type":"bytes"},{"internalType":"enum Keyword","name":"keyword","type":"uint8"},{"internalType":"bytes32","name":"extent","type":"bytes32"}],"internalType":"struct Rule","name":"rule","type":"tuple"}],"name":"attachRuleToRole","outputs":[],"stateMutability":"nonpayable","type":"function"},{"inputs":[{"internalType":"uint256","name":"nonce","type":"uint256"}],"name":"checkNonce","outputs":[{"internalType":"bool","name":"","type":"bool"}],"stateMutability":"view","type":"function"},{"inputs":[{"internalType":"bytes32","name":"role","type":"bytes32"},{"internalType":"address","name":"moduleAddr","type":"address"},{"internalType":"bytes32","name":"action","type":"bytes32"},{"components":[{"internalType":"bytes32","name":"action","type":"bytes32"},{"internalType":"bytes","name":"target","type":"bytes"},{"internalType":"enum Keyword","name":"keyword","type":"uint8"},{"internalType":"bytes32","name":"extent","type":"bytes32"}],"internalType":"struct Rule[]","name":"rules","type":"tuple[]"}],"name":"createRole","outputs":[],"stateMutability":"nonpayable","type":"function"},{"inputs":[{"internalType":"bytes32","name":"userId","type":"bytes32"},{"components":[{"internalType":"bytes32","name":"role","type":"bytes32"},{"internalType":"enum AuthType","name":"authType","type":"uint8"},{"internalType":"bytes","name":"authMetadata","type":"bytes"}],"internalType":"struct IFunWallet.UserMetadata","name":"userMetadata","type":"tuple"}],"name":"createUser","outputs":[],"stateMutability":"nonpayable","type":"function"},{"inputs":[{"internalType":"bytes32","name":"userId","type":"bytes32"}],"name":"deleteUser","outputs":[],"stateMutability":"nonpayable","type":"function"},{"inputs":[{"internalType":"uint256","name":"amount","type":"uint256"}],"name":"depositToEntryPoint","outputs":[],"stateMutability":"nonpayable","type":"function"},{"inputs":[],"name":"entryPoint","outputs":[{"internalType":"contract IEntryPoint","name":"","type":"address"}],"stateMutability":"view","type":"function"},{"inputs":[{"internalType":"address[]","name":"dests","type":"address[]"},{"internalType":"uint256[]","name":"values","type":"uint256[]"},{"internalType":"bytes[]","name":"data","type":"bytes[]"}],"name":"execBatchInit","outputs":[],"stateMutability":"nonpayable","type":"function"},{"inputs":[{"internalType":"address","name":"dest","type":"address"},{"internalType":"uint256","name":"value","type":"uint256"},{"internalType":"bytes","name":"data","type":"bytes"}],"name":"execFromEntryPointOrOwner","outputs":[],"stateMutability":"nonpayable","type":"function"},{"inputs":[{"internalType":"address","name":"dest","type":"address"},{"internalType":"uint256","name":"value","type":"uint256"},{"internalType":"bytes","name":"data","type":"bytes"}],"name":"execFromModule","outputs":[{"internalType":"bytes","name":"","type":"bytes"}],"stateMutability":"payable","type":"function"},{"inputs":[],"name":"getDeposit","outputs":[{"internalType":"uint256","name":"","type":"uint256"}],"stateMutability":"view","type":"function"},{"inputs":[{"internalType":"address","name":"moduleAddr","type":"address"}],"name":"getModuleStateVal","outputs":[{"internalType":"bytes","name":"","type":"bytes"}],"stateMutability":"view","type":"function"},{"inputs":[{"internalType":"bytes32","name":"role","type":"bytes32"},{"internalType":"address","name":"moduleAddr","type":"address"},{"internalType":"bytes32","name":"action","type":"bytes32"}],"name":"getRulesOfRole","outputs":[{"components":[{"internalType":"bytes32","name":"action","type":"bytes32"},{"internalType":"bytes","name":"target","type":"bytes"},{"internalType":"enum Keyword","name":"keyword","type":"uint8"},{"internalType":"bytes32","name":"extent","type":"bytes32"}],"internalType":"struct Rule[]","name":"","type":"tuple[]"}],"stateMutability":"view","type":"function"},{"inputs":[{"internalType":"bytes32","name":"userId","type":"bytes32"}],"name":"getUser","outputs":[{"components":[{"internalType":"bytes32","name":"role","type":"bytes32"},{"internalType":"enum AuthType","name":"authType","type":"uint8"},{"internalType":"bytes","name":"authMetadata","type":"bytes"}],"internalType":"struct IFunWallet.UserMetadata","name":"","type":"tuple"}],"stateMutability":"view","type":"function"},{"inputs":[],"name":"owner","outputs":[{"internalType":"address","name":"","type":"address"}],"stateMutability":"view","type":"function"},{"inputs":[{"internalType":"bytes32","name":"role","type":"bytes32"},{"internalType":"address","name":"moduleAddr","type":"address"},{"internalType":"bytes32","name":"action","type":"bytes32"},{"components":[{"internalType":"bytes32","name":"action","type":"bytes32"},{"internalType":"bytes","name":"target","type":"bytes"},{"internalType":"enum Keyword","name":"keyword","type":"uint8"},{"internalType":"bytes32","name":"extent","type":"bytes32"}],"internalType":"struct Rule","name":"rule","type":"tuple"}],"name":"removeRuleFromRole","outputs":[],"stateMutability":"nonpayable","type":"function"},{"inputs":[{"internalType":"address","name":"_newEntryPoint","type":"address"}],"name":"updateEntryPoint","outputs":[],"stateMutability":"nonpayable","type":"function"},{"inputs":[{"internalType":"bytes32","name":"userId","type":"bytes32"},{"components":[{"internalType":"bytes32","name":"role","type":"bytes32"},{"internalType":"enum AuthType","name":"authType","type":"uint8"},{"internalType":"bytes","name":"authMetadata","type":"bytes"}],"internalType":"struct IFunWallet.UserMetadata","name":"userMetadata","type":"tuple"}],"name":"updateUser","outputs":[],"stateMutability":"nonpayable","type":"function"},{"inputs":[{"internalType":"address","name":"_newUserAuthentication","type":"address"}],"name":"updateUserAuthentication","outputs":[],"stateMutability":"nonpayable","type":"function"},{"inputs":[],"name":"userAuthentication","outputs":[{"internalType":"contract UserAuthentication","name":"","type":"address"}],"stateMutability":"view","type":"function"},{"inputs":[{"components":[{"internalType":"address","name":"sender","type":"address"},{"internalType":"uint256","name":"nonce","type":"uint256"},{"internalType":"bytes","name":"initCode","type":"bytes"},{"internalType":"bytes","name":"callData","type":"bytes"},{"internalType":"uint256","name":"callGasLimit","type":"uint256"},{"internalType":"uint256","name":"verificationGasLimit","type":"uint256"},{"internalType":"uint256","name":"preVerificationGas","type":"uint256"},{"internalType":"uint256","name":"maxFeePerGas","type":"uint256"},{"internalType":"uint256","name":"maxPriorityFeePerGas","type":"uint256"},{"internalType":"bytes","name":"paymasterAndData","type":"bytes"},{"internalType":"bytes","name":"signature","type":"bytes"}],"internalType":"struct UserOperation","name":"userOp","type":"tuple"},{"internalType":"bytes32","name":"userOpHash","type":"bytes32"},{"internalType":"address","name":"aggregator","type":"address"},{"internalType":"uint256","name":"missingAccountFunds","type":"uint256"}],"name":"validateUserOp","outputs":[{"internalType":"uint256","name":"sigTimeRange","type":"uint256"}],"stateMutability":"nonpayable","type":"function"},{"inputs":[{"internalType":"address payable","name":"withdrawAddress","type":"address"},{"internalType":"uint256","name":"amount","type":"uint256"}],"name":"withdrawFromEntryPoint","outputs":[],"stateMutability":"nonpayable","type":"function"},{"stateMutability":"payable","type":"receive"}],"bytecode":"0x60806040523480156200001157600080fd5b5060405162003bbc38038062003bbc83398101604081905262000034916200038f565b6001600160a01b038316620000845760405162461bcd60e51b8152602060048201526012602482015271125b9d985b1a5908115b9d1c9e5c1bda5b9d60721b604482015260640160405180910390fd5b600480546001600160a01b038581166001600160a01b03199283161790925560058054858416908316179055600680549284169290911682179055604080516060810182526430b236b4b760d91b815260006020808301919091528251908101939093529182820191016040516020818303038152906040528152506002600062000123846001600160a01b0316620002c060201b6200228a1760201c565b8152602080820192909252604001600020825181559082015160018083018054909160ff19909116908380156200015e576200015e620003d9565b02179055506040820151805162000180916002840191602090910190620002cc565b5090505060006430b236b4b760d91b604051806040016040528060018152602001601560f91b815250604051602001620001bc92919062000422565b6040516020818303038152906040529050600381604051620001df91906200045e565b90815260200160405180910390206040518060800160405280601560f91b8152602001604051806040016040528060018152602001601560f91b8152508152602001600680811115620002365762000236620003d9565b8152601560f91b6020918201528254600181810185556000948552938290208351600490920201908155828201518051939491936200027e93928501929190910190620002cc565b50604082015160028201805460ff19166001836006811115620002a557620002a5620003d9565b021790555060608201518160030155505050505050620004b9565b6001600160a01b031690565b828054620002da906200047c565b90600052602060002090601f016020900481019282620002fe576000855562000349565b82601f106200031957805160ff191683800117855562000349565b8280016001018555821562000349579182015b82811115620003495782518255916020019190600101906200032c565b50620003579291506200035b565b5090565b5b808211156200035757600081556001016200035c565b80516001600160a01b03811681146200038a57600080fd5b919050565b600080600060608486031215620003a557600080fd5b620003b08462000372565b9250620003c06020850162000372565b9150620003d06040850162000372565b90509250925092565b634e487b7160e01b600052602160045260246000fd5b60005b838110156200040c578181015183820152602001620003f2565b838111156200041c576000848401525b50505050565b828152604060208201526000825180604084015262000449816060850160208701620003ef565b601f01601f1916919091016060019392505050565b6000825162000472818460208701620003ef565b9190910192915050565b600181811c908216806200049157607f821691505b60208210811415620004b357634e487b7160e01b600052602260045260246000fd5b50919050565b6136f380620004c96000396000f3fe6080604052600436106101795760003560e01c80637b8ea028116100cb578063c399ec881161007f578063dc7c984811610059578063dc7c984814610419578063e374e90f14610439578063ea5d9eb71461047957600080fd5b8063c399ec88146103c4578063c7d76308146103d9578063d06403d6146103f957600080fd5b80638da5cb5b116100b05780638da5cb5b14610366578063a55e593d14610386578063b0d691fe146103a657600080fd5b80637b8ea0281461032657806383b739431461034657600080fd5b80633a6e5a0a1161012d57806355cd05cc1161010757806355cd05cc146102b95780635e5d4320146102d95780636517579c146102f957600080fd5b80633a6e5a0a146102475780633b66fc6b146102675780633cb66ec41461028757600080fd5b8063155f69cf1161015e578063155f69cf146101da5780631b71bb6e1461020757806320d2a20f1461022757600080fd5b80630825d1fc1461018557806315577ae2146101b857600080fd5b3661018057005b600080fd5b34801561019157600080fd5b506101a56101a03660046128f9565b610499565b6040519081526020015b60405180910390f35b3480156101c457600080fd5b506101d86101d3366004612960565b61092e565b005b3480156101e657600080fd5b506101fa6101f53660046129ae565b610a58565b6040516101af9190612a81565b34801561021357600080fd5b506101d8610222366004612b34565b610cd8565b61023a610235366004612b58565b610dc0565b6040516101af9190612be1565b34801561025357600080fd5b506101d8610262366004612c40565b610e14565b34801561027357600080fd5b506101d8610282366004612cda565b610fc9565b34801561029357600080fd5b506005546001600160a01b03165b6040516001600160a01b0390911681526020016101af565b3480156102c557600080fd5b506101d86102d4366004612b58565b61136f565b3480156102e557600080fd5b506101d86102f4366004612d44565b6113ee565b34801561030557600080fd5b50610319610314366004612d44565b611475565b6040516101af9190612d6d565b34801561033257600080fd5b506101d8610341366004612b34565b6115c3565b34801561035257600080fd5b506101d8610361366004612dad565b6116ab565b34801561037257600080fd5b506006546102a1906001600160a01b031681565b34801561039257600080fd5b506101d86103a1366004612d44565b611920565b3480156103b257600080fd5b506004546001600160a01b03166102a1565b3480156103d057600080fd5b506101a5611a18565b3480156103e557600080fd5b506101d86103f4366004612e15565b611aa8565b34801561040557600080fd5b5061023a610414366004612b34565b611ba9565b34801561042557600080fd5b506101d8610434366004612960565b611c55565b34801561044557600080fd5b50610469610454366004612d44565b60009081526001602052604090205460ff1690565b60405190151581526020016101af565b34801561048557600080fd5b506101d8610494366004612dad565b611d64565b60006104a3612296565b6005546040517fa8a2de930000000000000000000000000000000000000000000000000000000081526000916001600160a01b03169063a8a2de93906104f190899089908990600401612fc7565b602060405180830381865afa15801561050e573d6000803e3d6000fd5b505050506040513d601f19601f820116820180604052508101906105329190612ff9565b905061053d816122f2565b6000818152600260209081526040808320815160608101909252805482526001810154919290919083019060ff16801561057957610579612a3e565b801561058757610587612a3e565b815260200160028201805461059b90613012565b80601f01602080910402602001604051908101604052809291908181526020018280546105c790613012565b80156106145780601f106105e957610100808354040283529160200191610614565b820191906000526020600020905b8154815290600101906020018083116105f757829003601f168201915b505050919092525050600554602083015160408085015190517fd7acc99a0000000000000000000000000000000000000000000000000000000081529495506001600160a01b039092169363d7acc99a935061067992908c908c908c90600401613066565b602060405180830381865afa158015610696573d6000803e3d6000fd5b505050506040513d601f19601f820116820180604052508101906106ba9190612ff9565b92506106c960408801886130ba565b151590506106da576106da87612360565b600081600001516040518060400160405280600181526020017f2a0000000000000000000000000000000000000000000000000000000000000081525060405160200161072892919061311f565b60405160208183030381529060405290507f61646d696e00000000000000000000000000000000000000000000000000000082600001511415801561078d5750600060038260405161077a9190613138565b9081526040519081900360200190205411155b1561091a576000806107aa6107a560608c018c6130ba565b6123e7565b8651929450925060009190506001600160a01b038416604080516020810193909352820152606001604051602081830303815290604052905060006003826040516107f59190613138565b9081526040519081900360200190205411806108305750600060038260405161081e9190613138565b90815260405190819003602001902054115b6108815760405162461bcd60e51b815260206004820152601660248201527f75736572206973206e6f7420617574686f72697a65640000000000000000000060448201526064015b60405180910390fd5b826001600160a01b03166352bd4f41836003846040516108a19190613138565b9081526040519081900360200181207fffffffff0000000000000000000000000000000000000000000000000000000060e085901b1682526108e69291600401613154565b60006040518083038186803b1580156108fe57600080fd5b505afa158015610912573d6000803e3d6000fd5b505050505050505b61092385612459565b505050949350505050565b6109366124a6565b816109835760405162461bcd60e51b815260206004820152600e60248201527f696e76616c6964207573657249640000000000000000000000000000000000006044820152606401610878565b61098c826122f2565b80356109da5760405162461bcd60e51b815260206004820152601360248201527f757365722068617320656d70747920726f6c65000000000000000000000000006044820152606401610878565b60006109e960408301836130ba565b905011610a385760405162461bcd60e51b815260206004820152601c60248201527f757365722068617320656d7074792061757468206d65746164617461000000006044820152606401610878565b60008281526002602052604090208190610a5282826132db565b50505050565b606083610aa75760405162461bcd60e51b815260206004820152600d60248201527f726f6c6520697320656d707479000000000000000000000000000000000000006044820152606401610878565b6001600160a01b038316610afd5760405162461bcd60e51b815260206004820152601760248201527f6d6f64756c65206164647265737320697320656d7074790000000000000000006044820152606401610878565b81610b4a5760405162461bcd60e51b815260206004820152600f60248201527f616374696f6e20697320656d70747900000000000000000000000000000000006044820152606401610878565b6000846001600160a01b038516604080516020810193909352820152606081018490526080016040516020818303038152906040529050600381604051610b919190613138565b9081526020016040518091039020805480602002602001604051908101604052809291908181526020016000905b82821015610cca578382906000526020600020906004020160405180608001604052908160008201548152602001600182018054610bfc90613012565b80601f0160208091040260200160405190810160405280929190818152602001828054610c2890613012565b8015610c755780601f10610c4a57610100808354040283529160200191610c75565b820191906000526020600020905b815481529060010190602001808311610c5857829003601f168201915b5050509183525050600282015460209091019060ff166006811115610c9c57610c9c612a3e565b6006811115610cad57610cad612a3e565b815260200160038201548152505081526020019060010190610bbf565b505050509150509392505050565b610ce06124a6565b6001600160a01b038116610d5c5760405162461bcd60e51b815260206004820152603260248201527f66756e2077616c6c65743a206e657720656e74727920706f696e74206164647260448201527f6573732063616e6e6f74206265207a65726f00000000000000000000000000006064820152608401610878565b600480547fffffffffffffffffffffffff0000000000000000000000000000000000000000166001600160a01b03831690811790915560405181907f450909c1478d09248269d4ad4fa8cba61ca3f50faed58c7aedefa51c7f62b83a90600090a350565b6060610dca61253b565b610e0b858585858080601f0160208091040260200160405190810160405280939291908181526020018383808284376000920191909152506125ca92505050565b95945050505050565b610e1c6124a6565b8483148015610e2a57508281145b610e765760405162461bcd60e51b815260206004820152601760248201527f6461746120697320646966666572656e742073697a65730000000000000000006044820152606401610878565b60005b85811015610fc057610ead838383818110610e9657610e966133d9565b9050602002810190610ea891906130ba565b61267c565b15610fb8576000610f55888884818110610ec957610ec96133d9565b9050602002016020810190610ede9190612b34565b878785818110610ef057610ef06133d9565b90506020020135868686818110610f0957610f096133d9565b9050602002810190610f1b91906130ba565b8080601f0160208091040260200160405190810160405280939291908181526020018383808284376000920191909152506125ca92505050565b9050806000808a8a86818110610f6d57610f6d6133d9565b9050602002016020810190610f829190612b34565b6001600160a01b03166001600160a01b031681526020019081526020016000209080519060200190610fb5929190612805565b50505b600101610e79565b50505050505050565b610fd16124a6565b8461101e5760405162461bcd60e51b815260206004820152600d60248201527f726f6c6520697320656d707479000000000000000000000000000000000000006044820152606401610878565b6001600160a01b0384166110745760405162461bcd60e51b815260206004820152601760248201527f6d6f64756c65206164647265737320697320656d7074790000000000000000006044820152606401610878565b826110c15760405162461bcd60e51b815260206004820152600f60248201527f616374696f6e20697320656d70747900000000000000000000000000000000006044820152606401610878565b8061110e5760405162461bcd60e51b815260206004820152600f60248201527f72756c65732061726520656d70747900000000000000000000000000000000006044820152606401610878565b60005b61ffff81168211156112ab576000838361ffff8416818110611135576111356133d9565b90506020028101906111479190613408565b3514156111965760405162461bcd60e51b815260206004820152601560248201527f72756c652068617320656d70747920616374696f6e00000000000000000000006044820152606401610878565b600083838361ffff168181106111ae576111ae6133d9565b90506020028101906111c09190613408565b6111ce9060208101906130ba565b90501161121d5760405162461bcd60e51b815260206004820152601560248201527f72756c652068617320656d7074792074617267657400000000000000000000006044820152606401610878565b6000838361ffff8416818110611235576112356133d9565b90506020028101906112479190613408565b6060013514156112995760405162461bcd60e51b815260206004820152601560248201527f72756c652068617320656d70747920657874656e7400000000000000000000006044820152606401610878565b806112a38161343c565b915050611111565b506000856001600160a01b03861660408051602081019390935282015260608101859052608001604051602081830303815290604052905060005b61ffff8116831115610fc0576003826040516113029190613138565b908152602001604051809103902084848361ffff16818110611326576113266133d9565b90506020028101906113389190613408565b81546001810183556000928352602090922090916004020161135a82826134c8565b505080806113679061343c565b9150506112e6565b6113776124a6565b60006113ba858585858080601f0160208091040260200160405190810160405280939291908181526020018383808284376000920191909152506125ca92505050565b6001600160a01b03861660009081526020818152604090912082519293506113e6929091840190612805565b505050505050565b6113f66124a6565b806114435760405162461bcd60e51b815260206004820152600e60248201527f696e76616c6964207573657249640000000000000000000000000000000000006044820152606401610878565b6000818152600260208190526040822082815560018101805460ff19169055919061147090830182612889565b505050565b60408051606080820183526000808352602083015291810191909152816114de5760405162461bcd60e51b815260206004820152600e60248201527f696e76616c6964207573657249640000000000000000000000000000000000006044820152606401610878565b600082815260026020908152604091829020825160608101909352805483526001810154909183019060ff16801561151857611518612a3e565b801561152657611526612a3e565b815260200160028201805461153a90613012565b80601f016020809104026020016040519081016040528092919081815260200182805461156690613012565b80156115b35780601f10611588576101008083540402835291602001916115b3565b820191906000526020600020905b81548152906001019060200180831161159657829003601f168201915b5050505050815250509050919050565b6115cb6124a6565b6001600160a01b0381166116475760405162461bcd60e51b815260206004820152603260248201527f66756e2077616c6c65743a206e657720656e74727920706f696e74206164647260448201527f6573732063616e6e6f74206265207a65726f00000000000000000000000000006064820152608401610878565b600580547fffffffffffffffffffffffff0000000000000000000000000000000000000000166001600160a01b03831690811790915560405181907f34a5e38fc8fe74f12b269fe92e724092f7f531dc4985c88fb113460cfcb5f67d90600090a350565b6116b36124a6565b836117005760405162461bcd60e51b815260206004820152600d60248201527f726f6c6520697320656d707479000000000000000000000000000000000000006044820152606401610878565b6001600160a01b0383166117565760405162461bcd60e51b815260206004820152601760248201527f6d6f64756c65206164647265737320697320656d7074790000000000000000006044820152606401610878565b816117a35760405162461bcd60e51b815260206004820152600f60248201527f616374696f6e20697320656d70747900000000000000000000000000000000006044820152606401610878565b80356117f15760405162461bcd60e51b815260206004820152601560248201527f72756c652068617320656d70747920616374696f6e00000000000000000000006044820152606401610878565b600061180060208301836130ba565b90501161184f5760405162461bcd60e51b815260206004820152601560248201527f72756c652068617320656d7074792074617267657400000000000000000000006044820152606401610878565b60608101356118a05760405162461bcd60e51b815260206004820152601560248201527f72756c652068617320656d70747920657874656e7400000000000000000000006044820152606401610878565b6000846001600160a01b0385166040805160208101939093528201526060810184905260800160405160208183030381529060405290506118e0816126e2565b6003816040516118f09190613138565b9081526040516020918190038201902080546001810182556000918252919020839160040201610fc082826134c8565b6119286127a1565b8047101561199e5760405162461bcd60e51b815260206004820152602a60248201527f66756e2077616c6c65743a206e6f7420656e6f75676820657468657220696e2060448201527f7468652077616c6c6574000000000000000000000000000000000000000000006064820152608401610878565b600480546040517fb760faf900000000000000000000000000000000000000000000000000000000815230928101929092526001600160a01b03169063b760faf990602401600060405180830381600087803b1580156119fd57600080fd5b505af1158015611a11573d6000803e3d6000fd5b5050505050565b600480546040517f70a0823100000000000000000000000000000000000000000000000000000000815230928101929092526000916001600160a01b03909116906370a0823190602401602060405180830381865afa158015611a7f573d6000803e3d6000fd5b505050506040513d601f19601f82011682018060405250810190611aa39190612ff9565b905090565b611ab06127a1565b6001600160a01b038216611b2c5760405162461bcd60e51b815260206004820152602b60248201527f66756e2077616c6c65743a20776974686472617720616464726573732063616e60448201527f6e6f74206265207a65726f0000000000000000000000000000000000000000006064820152608401610878565b600480546040517f205c28780000000000000000000000000000000000000000000000000000000081526001600160a01b03858116938201939093526024810184905291169063205c287890604401600060405180830381600087803b158015611b9557600080fd5b505af11580156113e6573d6000803e3d6000fd5b6001600160a01b0381166000908152602081905260409020805460609190611bd090613012565b80601f0160208091040260200160405190810160405280929190818152602001828054611bfc90613012565b8015611c495780601f10611c1e57610100808354040283529160200191611c49565b820191906000526020600020905b815481529060010190602001808311611c2c57829003601f168201915b50505050509050919050565b611c5d6124a6565b81611caa5760405162461bcd60e51b815260206004820152600e60248201527f696e76616c6964207573657249640000000000000000000000000000000000006044820152606401610878565b60008281526002602081905260408220018054611cc690613012565b90501115611d165760405162461bcd60e51b815260206004820152601360248201527f7573657220616c726561647920657869737473000000000000000000000000006044820152606401610878565b80356109da5760405162461bcd60e51b815260206004820152601460248201527f757365722068617320656d70747920726f6c65730000000000000000000000006044820152606401610878565b611d6c6124a6565b83611db95760405162461bcd60e51b815260206004820152600d60248201527f726f6c6520697320656d707479000000000000000000000000000000000000006044820152606401610878565b6001600160a01b038316611e0f5760405162461bcd60e51b815260206004820152601760248201527f6d6f64756c65206164647265737320697320656d7074790000000000000000006044820152606401610878565b81611e5c5760405162461bcd60e51b815260206004820152600f60248201527f616374696f6e20697320656d70747900000000000000000000000000000000006044820152606401610878565b8035611eaa5760405162461bcd60e51b815260206004820152601560248201527f72756c652068617320656d70747920616374696f6e00000000000000000000006044820152606401610878565b6000611eb960208301836130ba565b905011611f085760405162461bcd60e51b815260206004820152601560248201527f72756c652068617320656d7074792074617267657400000000000000000000006044820152606401610878565b6060810135611f595760405162461bcd60e51b815260206004820152601560248201527f72756c652068617320656d70747920657874656e7400000000000000000000006044820152606401610878565b6000846001600160a01b038516604080516020810193909352820152606081018490526080016040516020818303038152906040529050611f99816126e2565b6000600382604051611fab9190613138565b9081526020016040518091039020805480602002602001604051908101604052809291908181526020016000905b828210156120e457838290600052602060002090600402016040518060800160405290816000820154815260200160018201805461201690613012565b80601f016020809104026020016040519081016040528092919081815260200182805461204290613012565b801561208f5780601f106120645761010080835404028352916020019161208f565b820191906000526020600020905b81548152906001019060200180831161207257829003601f168201915b5050509183525050600282015460209091019060ff1660068111156120b6576120b6612a3e565b60068111156120c7576120c7612a3e565b815260200160038201548152505081526020019060010190611fd9565b50505050905060008380602001906120fc91906130ba565b61210c60608701604088016135bb565b866060013560405160200161212494939291906135ef565b60405160208183030381529060405280519060200120905060005b60038460405161214f9190613138565b9081526040519081900360200190205461ffff82161015612280576000838261ffff1681518110612182576121826133d9565b602002602001015160200151848361ffff16815181106121a4576121a46133d9565b602002602001015160400151858461ffff16815181106121c6576121c66133d9565b6020026020010151606001516040516020016121e49392919061361a565b6040516020818303038152906040528051906020012090508083141561226d576003856040516122149190613138565b90815260200160405180910390208261ffff1681548110612237576122376133d9565b600091825260208220600490910201818155906122576001830182612889565b5060028101805460ff1916905560006003909101555b50806122788161343c565b91505061213f565b5050505050505050565b6001600160a01b031690565b6004546001600160a01b031633146122f05760405162461bcd60e51b815260206004820152601f60248201527f66756e2077616c6c65743a206e6f742066726f6d20456e747279506f696e74006044820152606401610878565b565b6000818152600260208190526040822001805461230e90613012565b90501161235d5760405162461bcd60e51b815260206004820152601f60248201527f66756e2077616c6c65743a207573657220646f6573206e6f74206578697374006044820152606401610878565b50565b60208082013560009081526001909152604090205460ff16156123c55760405162461bcd60e51b815260206004820152601960248201527f66756e2077616c6c65743a20696e76616c6964206e6f6e6365000000000000006044820152606401610878565b602090810135600090815260019182905260409020805460ff19169091179055565b60008060606123f9846004818861364b565b8101906124069190612e15565b9093509150612418846044818861364b565b8080601f0160208091040260200160405190810160405280939291908181526020018383808284376000920191909152509598949750919550929350505050565b801561235d57604051600090339060001990849084818181858888f193505050503d8060008114611a11576040519150601f19603f3d011682016040523d82523d6000602084013e611a11565b6004546001600160a01b03163314806124c957506006546001600160a01b031633145b6122f05760405162461bcd60e51b815260206004820152602860248201527f66756e2077616c6c65743a206e6f742066726f6d20456e747279506f696e742060448201527f6f72206f776e65720000000000000000000000000000000000000000000000006064820152608401610878565b336000908152602081905260408120805461255590613012565b9050116122f05760405162461bcd60e51b815260206004820152602360248201527f66756e2077616c6c65743a206e6f742066726f6d2061206b6e6f776e204d6f6460448201527f756c6500000000000000000000000000000000000000000000000000000000006064820152608401610878565b6060600080856001600160a01b031685856040516125e89190613138565b60006040518083038185875af1925050503d8060008114612625576040519150601f19603f3d011682016040523d82523d6000602084013e61262a565b606091505b509150915081610e0b5760405162461bcd60e51b815260206004820181905260248201527f66756e2077616c6c65743a2065787465726e616c2063616c6c206661696c65646044820152606401610878565b60008061268c600482858761364b565b61269591613675565b7fffffffff00000000000000000000000000000000000000000000000000000000167f4ddf47d4000000000000000000000000000000000000000000000000000000001491505092915050565b60006003826040516126f49190613138565b908152604051908190036020019020541180156127555750604051600090600390612720908490613138565b9081526020016040518091039020600081548110612740576127406133d9565b90600052602060002090600402016000015414155b61235d5760405162461bcd60e51b815260206004820152601f60248201527f66756e2077616c6c65743a20726f6c6520646f6573206e6f74206578697374006044820152606401610878565b6006546001600160a01b03163314806127b957503330145b6122f05760405162461bcd60e51b815260206004820152601a60248201527f66756e2077616c6c65743a206e6f742066726f6d204f776e65720000000000006044820152606401610878565b82805461281190613012565b90600052602060002090601f0160209004810192826128335760008555612879565b82601f1061284c57805160ff1916838001178555612879565b82800160010185558215612879579182015b8281111561287957825182559160200191906001019061285e565b506128859291506128bf565b5090565b50805461289590613012565b6000825580601f106128a5575050565b601f01602090049060005260206000209081019061235d91905b5b8082111561288557600081556001016128c0565b6001600160a01b038116811461235d57600080fd5b80356128f4816128d4565b919050565b6000806000806080858703121561290f57600080fd5b843567ffffffffffffffff81111561292657600080fd5b8501610160818803121561293957600080fd5b9350602085013592506040850135612950816128d4565b9396929550929360600135925050565b6000806040838503121561297357600080fd5b82359150602083013567ffffffffffffffff81111561299157600080fd5b8301606081860312156129a357600080fd5b809150509250929050565b6000806000606084860312156129c357600080fd5b8335925060208401356129d5816128d4565b929592945050506040919091013590565b60005b83811015612a015781810151838201526020016129e9565b83811115610a525750506000910152565b60008151808452612a2a8160208601602086016129e6565b601f01601f19169290920160200192915050565b7f4e487b7100000000000000000000000000000000000000000000000000000000600052602160045260246000fd5b60078110612a7d57612a7d612a3e565b9052565b60006020808301818452808551808352604092508286019150828160051b87010184880160005b83811015612b26577fffffffffffffffffffffffffffffffffffffffffffffffffffffffffffffffc0898403018552815160808151855288820151818a870152612af482870182612a12565b91505087820151612b0789870182612a6d565b5060609182015194909101939093529386019390860190600101612aa8565b509098975050505050505050565b600060208284031215612b4657600080fd5b8135612b51816128d4565b9392505050565b60008060008060608587031215612b6e57600080fd5b8435612b79816128d4565b935060208501359250604085013567ffffffffffffffff80821115612b9d57600080fd5b818701915087601f830112612bb157600080fd5b813581811115612bc057600080fd5b886020828501011115612bd257600080fd5b95989497505060200194505050565b602081526000612b516020830184612a12565b60008083601f840112612c0657600080fd5b50813567ffffffffffffffff811115612c1e57600080fd5b6020830191508360208260051b8501011115612c3957600080fd5b9250929050565b60008060008060008060608789031215612c5957600080fd5b863567ffffffffffffffff80821115612c7157600080fd5b612c7d8a838b01612bf4565b90985096506020890135915080821115612c9657600080fd5b612ca28a838b01612bf4565b90965094506040890135915080821115612cbb57600080fd5b50612cc889828a01612bf4565b979a9699509497509295939492505050565b600080600080600060808688031215612cf257600080fd5b853594506020860135612d04816128d4565b935060408601359250606086013567ffffffffffffffff811115612d2757600080fd5b612d3388828901612bf4565b969995985093965092949392505050565b600060208284031215612d5657600080fd5b5035919050565b60018110612a7d57612a7d612a3e565b602081528151602082015260006020830151612d8c6040840182612d5d565b506040830151606080840152612da56080840182612a12565b949350505050565b60008060008060808587031215612dc357600080fd5b843593506020850135612dd5816128d4565b925060408501359150606085013567ffffffffffffffff811115612df857600080fd5b850160808188031215612e0a57600080fd5b939692955090935050565b60008060408385031215612e2857600080fd5b8235612e33816128d4565b946020939093013593505050565b60008083357fffffffffffffffffffffffffffffffffffffffffffffffffffffffffffffffe1843603018112612e7657600080fd5b830160208101925035905067ffffffffffffffff811115612e9657600080fd5b803603831315612c3957600080fd5b818352818160208501375060006020828401015260006020601f19601f840116840101905092915050565b6000610160612eef84612ee2856128e9565b6001600160a01b03169052565b60208301356020850152612f066040840184612e41565b826040870152612f198387018284612ea5565b92505050612f2a6060840184612e41565b8583036060870152612f3d838284612ea5565b925050506080830135608085015260a083013560a085015260c083013560c085015260e083013560e0850152610100808401358186015250610120612f8481850185612e41565b86840383880152612f96848284612ea5565b9350505050610140612faa81850185612e41565b86840383880152612fbc848284612ea5565b979650505050505050565b606081526000612fda6060830186612ed0565b90508360208301526001600160a01b0383166040830152949350505050565b60006020828403121561300b57600080fd5b5051919050565b600181811c9082168061302657607f821691505b60208210811415613060577f4e487b7100000000000000000000000000000000000000000000000000000000600052602260045260246000fd5b50919050565b6130708187612d5d565b60a06020820152600061308660a0830187612a12565b82810360408401526130988187612ed0565b9150508360608301526001600160a01b03831660808301529695505050505050565b60008083357fffffffffffffffffffffffffffffffffffffffffffffffffffffffffffffffe18436030181126130ef57600080fd5b83018035915067ffffffffffffffff82111561310a57600080fd5b602001915036819003821315612c3957600080fd5b828152604060208201526000612da56040830184612a12565b6000825161314a8184602087016129e6565b9190910192915050565b6000604080835261316781840186612a12565b6020848203818601528186548084528284019150828160051b8501016000898152848120815b8481101561325557601f198885030186526080825485526001808401828a8801528581546131ba81613012565b94890185905260a09481851680156131d957600181146131ed57613218565b60ff198316878c015260c08b019350613218565b848a528d8a208a5b838110156132105781548d82018a0152908701908f016131f5565b8c0188019450505b505050600286015460ff1693506132318d890185612a6d565b6003860154606098909801979097525050509486019460049091019060010161318d565b50919b9a5050505050505050505050565b7f4e487b7100000000000000000000000000000000000000000000000000000000600052604160045260246000fd5b601f82111561147057600081815260208120601f850160051c810160208610156132bc5750805b601f850160051c820191505b818110156113e6578281556001016132c8565b8135815560018082016020808501358381106132f657600080fd5b60ff1983541660ff821681178455505060028401915061331960408601866130ba565b67ffffffffffffffff81111561333157613331613266565b6133458161333f8654613012565b86613295565b6000601f82116001811461337957600083156133615750838201355b600019600385901b1c1916600184901b1786556133ce565b600086815260209020601f19841690835b828110156133a7578685013582559387019390890190870161338a565b50848210156133c45760001960f88660031b161c19848701351681555b50508683881b0186555b505050505050505050565b7f4e487b7100000000000000000000000000000000000000000000000000000000600052603260045260246000fd5b600082357fffffffffffffffffffffffffffffffffffffffffffffffffffffffffffffff8183360301811261314a57600080fd5b600061ffff8083168181141561347b577f4e487b7100000000000000000000000000000000000000000000000000000000600052601160045260246000fd5b6001019392505050565b6007811061235d57600080fd5b6000813561349f81613485565b92915050565b600782106134b5576134b5612a3e565b60ff1981541660ff831681178255505050565b81358155600180820160206134df818601866130ba565b67ffffffffffffffff8111156134f7576134f7613266565b6135058161333f8654613012565b6000601f82116001811461353957600083156135215750838201355b600019600385901b1c1916600184901b17865561358e565b600086815260209020601f19841690835b82811015613567578685013582559387019390890190870161354a565b50848210156135845760001960f88660031b161c19848701351681555b50508683881b0186555b505050505050506135ad6135a460408401613492565b600283016134a5565b606082013560038201555050565b6000602082840312156135cd57600080fd5b8135612b5181613485565b600781106135e8576135e8612a3e565b60f81b9052565b8385823760008482016000815261360681866135d8565b600181019390935250506021019392505050565b6000845161362c8184602089016129e6565b820161363881866135d8565b6001810193909352505060210192915050565b6000808585111561365b57600080fd5b8386111561366857600080fd5b5050820193919092039150565b7fffffffff0000000000000000000000000000000000000000000000000000000081358181169160048510156136b55780818660040360031b1b83161692505b50509291505056fea2646970667358221220605f6cdc08403969cb49acb571ea536746f31341bec964ba77bcefdfa29f137164736f6c634300080c0033","linkReferences":{},"deployedLinkReferences":{},"fileHash":"2ca05f30ca97e9d15140acb984608b663653e725775aff45e4f45c16ced66028"}