{
  "_format": "hh-sol-artifact-1",
  "contractName": "TokenPriceOracle",
  "sourceName": "contracts/paymaster/Oracle.sol",
  "abi": [
    {
      "inputs": [
        {
          "internalType": "contract AggregatorV3Interface",
          "name": "aggregator",
          "type": "address"
        },
        {
          "internalType": "uint256",
          "name": "ethOutput",
          "type": "uint256"
        },
        {
          "internalType": "uint8",
          "name": "decimals",
          "type": "uint8"
        }
      ],
      "name": "getTokenValueOfEth",
      "outputs": [
        {
          "internalType": "uint256",
          "name": "",
          "type": "uint256"
        }
      ],
      "stateMutability": "view",
      "type": "function"
    }
  ],
  "bytecode": "0x608060405234801561001057600080fd5b506104a9806100206000396000f3fe608060405234801561001057600080fd5b506004361061002b5760003560e01c80636a2f491814610030575b600080fd5b61004361003e3660046101e6565b610055565b60405190815260200160405180910390f35b600080610062858461008a565b9050670de0b6b3a76400006100778286610270565b610081919061028f565b95945050505050565b6000808373ffffffffffffffffffffffffffffffffffffffff1663feaf968c6040518163ffffffff1660e01b815260040160a060405180830381865afa1580156100d8573d6000803e3d6000fd5b505050506040513d601f19601f820116820180604052508101906100fc91906102e9565b50505091505060008473ffffffffffffffffffffffffffffffffffffffff1663313ce5676040518163ffffffff1660e01b8152600401602060405180830381865afa15801561014f573d6000803e3d6000fd5b505050506040513d601f19601f820116820180604052508101906101739190610339565b90508060ff168460ff16116101aa5761018c848261035d565b61019790600a610464565b6101a1908361028f565b925050506101ce565b6101b4818561035d565b6101bf90600a610464565b6101c99083610270565b925050505b92915050565b60ff811681146101e357600080fd5b50565b6000806000606084860312156101fb57600080fd5b833573ffffffffffffffffffffffffffffffffffffffff8116811461021f57600080fd5b9250602084013591506040840135610236816101d4565b809150509250925092565b7f4e487b7100000000000000000000000000000000000000000000000000000000600052601160045260246000fd5b600081600019048311821515161561028a5761028a610241565b500290565b6000826102c5577f4e487b7100000000000000000000000000000000000000000000000000000000600052601260045260246000fd5b500490565b805169ffffffffffffffffffff811681146102e457600080fd5b919050565b600080600080600060a0868803121561030157600080fd5b61030a866102ca565b945060208601519350604086015192506060860151915061032d608087016102ca565b90509295509295909350565b60006020828403121561034b57600080fd5b8151610356816101d4565b9392505050565b600060ff821660ff84168082101561037757610377610241565b90039392505050565b600181815b808511156103bb5781600019048211156103a1576103a1610241565b808516156103ae57918102915b93841c9390800290610385565b509250929050565b6000826103d2575060016101ce565b816103df575060006101ce565b81600181146103f557600281146103ff5761041b565b60019150506101ce565b60ff84111561041057610410610241565b50506001821b6101ce565b5060208310610133831016604e8410600b841016171561043e575081810a6101ce565b6104488383610380565b806000190482111561045c5761045c610241565b029392505050565b600061035660ff8416836103c356fea26469706673582212206b9c8fcb5450b4b7092324667cee901b7d084838351df52399811fe5da6253bf64736f6c634300080c0033",
  "linkReferences": {},
  "deployedLinkReferences": {}
}