{"_format":"hh-sol-artifact-1","contractName":"TokenPaymaster","sourceName":"contracts/paymaster/TokenPaymaster.sol","abi":[{"inputs":[{"internalType":"contract IEntryPoint","name":"_entryPoint","type":"address"},{"internalType":"contract IOracle","name":"_tokenPriceOracle","type":"address"},{"internalType":"contract IERC20","name":"_token","type":"address"},{"internalType":"contract AggregatorV3Interface","name":"_aggregator","type":"address"}],"stateMutability":"nonpayable","type":"constructor"},{"anonymous":false,"inputs":[{"indexed":true,"internalType":"address","name":"previousOwner","type":"address"},{"indexed":true,"internalType":"address","name":"newOwner","type":"address"}],"name":"OwnershipTransferred","type":"event"},{"inputs":[],"name":"COST_OF_POST","outputs":[{"internalType":"uint256","name":"","type":"uint256"}],"stateMutability":"view","type":"function"},{"inputs":[{"internalType":"address","name":"account","type":"address"},{"internalType":"uint256","name":"amount","type":"uint256"}],"name":"addDepositFor","outputs":[],"stateMutability":"nonpayable","type":"function"},{"inputs":[{"internalType":"uint32","name":"unstakeDelaySec","type":"uint32"}],"name":"addStake","outputs":[],"stateMutability":"payable","type":"function"},{"inputs":[{"internalType":"address","name":"","type":"address"}],"name":"balances","outputs":[{"internalType":"uint256","name":"","type":"uint256"}],"stateMutability":"view","type":"function"},{"inputs":[],"name":"deposit","outputs":[],"stateMutability":"payable","type":"function"},{"inputs":[{"internalType":"address","name":"account","type":"address"}],"name":"depositInfo","outputs":[{"internalType":"uint256","name":"amount","type":"uint256"},{"internalType":"uint256","name":"_unlockBlock","type":"uint256"}],"stateMutability":"view","type":"function"},{"inputs":[],"name":"entryPoint","outputs":[{"internalType":"contract IEntryPoint","name":"","type":"address"}],"stateMutability":"view","type":"function"},{"inputs":[],"name":"getDeposit","outputs":[{"internalType":"uint256","name":"","type":"uint256"}],"stateMutability":"view","type":"function"},{"inputs":[],"name":"lockTokenDeposit","outputs":[],"stateMutability":"nonpayable","type":"function"},{"inputs":[],"name":"owner","outputs":[{"internalType":"address","name":"","type":"address"}],"stateMutability":"view","type":"function"},{"inputs":[{"internalType":"enum IPaymaster.PostOpMode","name":"mode","type":"uint8"},{"internalType":"bytes","name":"context","type":"bytes"},{"internalType":"uint256","name":"actualGasCost","type":"uint256"}],"name":"postOp","outputs":[],"stateMutability":"nonpayable","type":"function"},{"inputs":[],"name":"renounceOwnership","outputs":[],"stateMutability":"nonpayable","type":"function"},{"inputs":[{"internalType":"address","name":"newOwner","type":"address"}],"name":"transferOwnership","outputs":[],"stateMutability":"nonpayable","type":"function"},{"inputs":[{"internalType":"address","name":"","type":"address"}],"name":"unlockBlock","outputs":[{"internalType":"uint256","name":"","type":"uint256"}],"stateMutability":"view","type":"function"},{"inputs":[],"name":"unlockStake","outputs":[],"stateMutability":"nonpayable","type":"function"},{"inputs":[],"name":"unlockTokenDeposit","outputs":[],"stateMutability":"nonpayable","type":"function"},{"inputs":[{"components":[{"internalType":"address","name":"sender","type":"address"},{"internalType":"uint256","name":"nonce","type":"uint256"},{"internalType":"bytes","name":"initCode","type":"bytes"},{"internalType":"bytes","name":"callData","type":"bytes"},{"internalType":"uint256","name":"callGasLimit","type":"uint256"},{"internalType":"uint256","name":"verificationGasLimit","type":"uint256"},{"internalType":"uint256","name":"preVerificationGas","type":"uint256"},{"internalType":"uint256","name":"maxFeePerGas","type":"uint256"},{"internalType":"uint256","name":"maxPriorityFeePerGas","type":"uint256"},{"internalType":"bytes","name":"paymasterAndData","type":"bytes"},{"internalType":"bytes","name":"signature","type":"bytes"}],"internalType":"struct UserOperation","name":"userOp","type":"tuple"},{"internalType":"bytes32","name":"userOpHash","type":"bytes32"},{"internalType":"uint256","name":"maxCost","type":"uint256"}],"name":"validatePaymasterUserOp","outputs":[{"internalType":"bytes","name":"context","type":"bytes"},{"internalType":"uint256","name":"sigTimeRange","type":"uint256"}],"stateMutability":"nonpayable","type":"function"},{"inputs":[{"internalType":"address payable","name":"withdrawAddress","type":"address"}],"name":"withdrawStake","outputs":[],"stateMutability":"nonpayable","type":"function"},{"inputs":[{"internalType":"address payable","name":"withdrawAddress","type":"address"},{"internalType":"uint256","name":"amount","type":"uint256"}],"name":"withdrawTo","outputs":[],"stateMutability":"nonpayable","type":"function"},{"inputs":[{"internalType":"address","name":"target","type":"address"},{"internalType":"uint256","name":"amount","type":"uint256"}],"name":"withdrawTokensTo","outputs":[],"stateMutability":"nonpayable","type":"function"}],"bytecode":"0x60a06040523480156200001157600080fd5b5060405162001a5a38038062001a5a8339810160408190526200003491620001a7565b8362000040336200013e565b6001600160a01b031660805262000064336000908152600560205260409020439055565b600180546001600160a01b038086166001600160a01b0319928316179092556002805492851692909116821790556040805163313ce56760e01b8152905163313ce567916004808201926020929091908290030181865afa158015620000ce573d6000803e3d6000fd5b505050506040513d601f19601f82011682018060405250810190620000f491906200020f565b6002805460ff92909216600160a01b0260ff60a01b19909216919091179055600380546001600160a01b039092166001600160a01b0319909216919091179055506200023b915050565b600080546001600160a01b038381166001600160a01b0319831681178455604051919092169283917f8be0079c531659141344cd1fd0a4f28419497f9722a3daafe3b4186f6b6457e09190a35050565b6001600160a01b0381168114620001a457600080fd5b50565b60008060008060808587031215620001be57600080fd5b8451620001cb816200018e565b6020860151909450620001de816200018e565b6040860151909350620001f1816200018e565b606086015190925062000204816200018e565b939692955090935050565b6000602082840312156200022257600080fd5b815160ff811681146200023457600080fd5b9392505050565b6080516117d2620002886000396000818161033101528181610471015281816105210152818161060c015281816106b901528181610749015281816107ef0152610b4b01526117d26000f3fe60806040526004361061015f5760003560e01c8063a9a23409116100c0578063cd8f80c211610074578063f2fde38b11610059578063f2fde38b146103c7578063f465c77e146103e7578063f5bf3fcf1461041557600080fd5b8063cd8f80c21461039d578063d0e30db0146103bf57600080fd5b8063bb9fe6bf116100a5578063bb9fe6bf14610353578063c23a5cea14610368578063c399ec881461038857600080fd5b8063a9a23409146102ff578063b0d691fe1461031f57600080fd5b80636344598911610117578063796d4371116100fc578063796d4371146102935780638da5cb5b146102a95780639ed0fb68146102db57600080fd5b80636344598914610226578063715018a61461027e57600080fd5b806327e235e31161014857806327e235e3146101995780634a6f84cf146101d95780634f16bbf31461020657600080fd5b80630396cb6014610164578063205c287814610179575b600080fd5b610177610172366004611411565b610435565b005b34801561018557600080fd5b5061017761019436600461144c565b6104da565b3480156101a557600080fd5b506101c66101b4366004611478565b60046020526000908152604090205481565b6040519081526020015b60405180910390f35b3480156101e557600080fd5b506101c66101f4366004611478565b60056020526000908152604090205481565b34801561021257600080fd5b5061017761022136600461144c565b610565565b34801561023257600080fd5b50610269610241366004611478565b6001600160a01b03166000908152600460209081526040808320546005909252909120549091565b604080519283526020830191909152016101d0565b34801561028a57600080fd5b506101776105d4565b34801561029f57600080fd5b506101c66188b881565b3480156102b557600080fd5b506000546001600160a01b03165b6040516001600160a01b0390911681526020016101d0565b3480156102e757600080fd5b50610177336000908152600560205260409020439055565b34801561030b57600080fd5b5061017761031a366004611495565b6105e8565b34801561032b57600080fd5b506102c37f000000000000000000000000000000000000000000000000000000000000000081565b34801561035f57600080fd5b50610177610602565b34801561037457600080fd5b50610177610383366004611478565b610679565b34801561039457600080fd5b506101c6610718565b3480156103a957600080fd5b5061017733600090815260056020526040812055565b6101776107c1565b3480156103d357600080fd5b506101776103e2366004611478565b61083c565b3480156103f357600080fd5b50610407610402366004611524565b6108d1565b6040516101d09291906115d0565b34801561042157600080fd5b5061017761043036600461144c565b6108f4565b61043d6109cd565b6040517f0396cb6000000000000000000000000000000000000000000000000000000000815263ffffffff821660048201527f00000000000000000000000000000000000000000000000000000000000000006001600160a01b031690630396cb609034906024016000604051808303818588803b1580156104be57600080fd5b505af11580156104d2573d6000803e3d6000fd5b505050505050565b6104e26109cd565b6040517f205c28780000000000000000000000000000000000000000000000000000000081526001600160a01b038381166004830152602482018390527f0000000000000000000000000000000000000000000000000000000000000000169063205c287890604401600060405180830381600087803b1580156104be57600080fd5b60025461057d906001600160a01b0316333084610a27565b6001600160a01b038216600090815260046020526040812080548392906105a5908490611621565b9091555050336001600160a01b03831614156105d0576105d033600090815260056020526040812055565b5050565b6105dc6109cd565b6105e66000610ad8565b565b6105f0610b40565b6105fc84848484610b75565b50505050565b61060a6109cd565b7f00000000000000000000000000000000000000000000000000000000000000006001600160a01b031663bb9fe6bf6040518163ffffffff1660e01b8152600401600060405180830381600087803b15801561066557600080fd5b505af11580156105fc573d6000803e3d6000fd5b6106816109cd565b6040517fc23a5cea0000000000000000000000000000000000000000000000000000000081526001600160a01b0382811660048301527f0000000000000000000000000000000000000000000000000000000000000000169063c23a5cea90602401600060405180830381600087803b1580156106fd57600080fd5b505af1158015610711573d6000803e3d6000fd5b5050505050565b6040517f70a082310000000000000000000000000000000000000000000000000000000081523060048201526000907f00000000000000000000000000000000000000000000000000000000000000006001600160a01b0316906370a0823190602401602060405180830381865afa158015610798573d6000803e3d6000fd5b505050506040513d601f19601f820116820180604052508101906107bc9190611639565b905090565b6040517fb760faf90000000000000000000000000000000000000000000000000000000081523060048201527f00000000000000000000000000000000000000000000000000000000000000006001600160a01b03169063b760faf99034906024016000604051808303818588803b1580156106fd57600080fd5b6108446109cd565b6001600160a01b0381166108c55760405162461bcd60e51b815260206004820152602660248201527f4f776e61626c653a206e6577206f776e657220697320746865207a65726f206160448201527f646472657373000000000000000000000000000000000000000000000000000060648201526084015b60405180910390fd5b6108ce81610ad8565b50565b606060006108dd610b40565b6108e8858585610cf8565b91509150935093915050565b336000908152600560205260409020541580159061092057503360009081526005602052604090205443115b6109925760405162461bcd60e51b815260206004820152602960248201527f4465706f7369745061796d61737465723a206d75737420756e6c6f636b546f6b60448201527f656e4465706f736974000000000000000000000000000000000000000000000060648201526084016108bc565b33600090815260046020526040812080548392906109b1908490611652565b90915550506002546105d0906001600160a01b03168383610e73565b6000546001600160a01b031633146105e65760405162461bcd60e51b815260206004820181905260248201527f4f776e61626c653a2063616c6c6572206973206e6f7420746865206f776e657260448201526064016108bc565b6040516001600160a01b03808516602483015283166044820152606481018290526105fc9085907f23b872dd00000000000000000000000000000000000000000000000000000000906084015b60408051601f198184030181529190526020810180517bffffffffffffffffffffffffffffffffffffffffffffffffffffffff167fffffffff0000000000000000000000000000000000000000000000000000000090931692909217909152610ec1565b600080546001600160a01b038381167fffffffffffffffffffffffff0000000000000000000000000000000000000000831681178455604051919092169283917f8be0079c531659141344cd1fd0a4f28419497f9722a3daafe3b4186f6b6457e09190a35050565b336001600160a01b037f000000000000000000000000000000000000000000000000000000000000000016146105e657600080fd5b6000808080610b8686880188611669565b935093509350935060008183856188b8610ba091906116a4565b610baa9089611621565b610bb491906116a4565b610bbe91906116e1565b90506002896002811115610bd457610bd461171c565b14610c74576001600160a01b038516600090815260046020526040902054811115610c415760405162461bcd60e51b815260206004820152601460248201527f446f6573206e6f74206861766520746f6b656e7300000000000000000000000060448201526064016108bc565b6001600160a01b03851660009081526004602052604081208054839290610c69908490611652565b90915550610ca29050565b6001600160a01b03851660009081526004602052604081208054839290610c9c908490611652565b90915550505b8060046000610cb96000546001600160a01b031690565b6001600160a01b03166001600160a01b031681526020019081526020016000206000828254610ce89190611621565b9091555050505050505050505050565b606060006188b88560a0013511610d775760405162461bcd60e51b815260206004820152602860248201527f4465706f7369745061796d61737465723a2067617320746f6f206c6f7720666f60448201527f7220706f73744f7000000000000000000000000000000000000000000000000060648201526084016108bc565b84356000610d858186610fa6565b90506000610d9288611066565b6001600160a01b03841660009081526005602052604090205490915015610e205760405162461bcd60e51b8152602060048201526024808201527f4465706f7369745061796d61737465723a206465706f736974206e6f74206c6f60448201527f636b65640000000000000000000000000000000000000000000000000000000060648201526084016108bc565b610e2a8383611096565b604080516001600160a01b0385166020820152908101829052606081018390526080810187905260a00160408051601f1981840301815291905298600098509650505050505050565b6040516001600160a01b038316602482015260448101829052610ebc9084907fa9059cbb0000000000000000000000000000000000000000000000000000000090606401610a74565b505050565b6000610f16826040518060400160405280602081526020017f5361666545524332303a206c6f772d6c6576656c2063616c6c206661696c6564815250856001600160a01b031661125f9092919063ffffffff16565b805190915015610ebc5780806020019051810190610f34919061174b565b610ebc5760405162461bcd60e51b815260206004820152602a60248201527f5361666545524332303a204552433230206f7065726174696f6e20646964206e60448201527f6f7420737563636565640000000000000000000000000000000000000000000060648201526084016108bc565b6001546003546002546040517f6a2f49180000000000000000000000000000000000000000000000000000000081526001600160a01b039283166004820152602481018590527401000000000000000000000000000000000000000090910460ff1660448201526000929190911690636a2f491890606401602060405180830381865afa15801561103b573d6000803e3d6000fd5b505050506040513d601f19601f8201168201806040525081019061105f9190611639565b9392505050565b600060e082013561010083013580821415611082575092915050565b61108e8248830161126e565b949350505050565b6002546040517fdd62ed3e0000000000000000000000000000000000000000000000000000000081526001600160a01b038481166004830152306024830152600092169063dd62ed3e90604401602060405180830381865afa158015611100573d6000803e3d6000fd5b505050506040513d601f19601f820116820180604052508101906111249190611639565b6002546040517f70a082310000000000000000000000000000000000000000000000000000000081526001600160a01b038681166004830152929350600092909116906370a0823190602401602060405180830381865afa15801561118d573d6000803e3d6000fd5b505050506040513d601f19601f820116820180604052508101906111b19190611639565b6001600160a01b03851660009081526004602052604081205491925090841115908483108015906111e25750848410155b905081806111ed5750805b6104d25760405162461bcd60e51b815260206004820152602260248201527f4465706f7369745061796d61737465723a20757365722063616e206e6f74207060448201527f617900000000000000000000000000000000000000000000000000000000000060648201526084016108bc565b606061108e8484600085611284565b600081831061127d578161105f565b5090919050565b6060824710156112fc5760405162461bcd60e51b815260206004820152602660248201527f416464726573733a20696e73756666696369656e742062616c616e636520666f60448201527f722063616c6c000000000000000000000000000000000000000000000000000060648201526084016108bc565b600080866001600160a01b03168587604051611318919061176d565b60006040518083038185875af1925050503d8060008114611355576040519150601f19603f3d011682016040523d82523d6000602084013e61135a565b606091505b509150915061136b87838387611376565b979650505050505050565b606083156113e25782516113db576001600160a01b0385163b6113db5760405162461bcd60e51b815260206004820152601d60248201527f416464726573733a2063616c6c20746f206e6f6e2d636f6e747261637400000060448201526064016108bc565b508161108e565b61108e83838151156113f75781518083602001fd5b8060405162461bcd60e51b81526004016108bc9190611789565b60006020828403121561142357600080fd5b813563ffffffff8116811461105f57600080fd5b6001600160a01b03811681146108ce57600080fd5b6000806040838503121561145f57600080fd5b823561146a81611437565b946020939093013593505050565b60006020828403121561148a57600080fd5b813561105f81611437565b600080600080606085870312156114ab57600080fd5b8435600381106114ba57600080fd5b9350602085013567ffffffffffffffff808211156114d757600080fd5b818701915087601f8301126114eb57600080fd5b8135818111156114fa57600080fd5b88602082850101111561150c57600080fd5b95986020929092019750949560400135945092505050565b60008060006060848603121561153957600080fd5b833567ffffffffffffffff81111561155057600080fd5b8401610160818703121561156357600080fd5b95602085013595506040909401359392505050565b60005b8381101561159357818101518382015260200161157b565b838111156105fc5750506000910152565b600081518084526115bc816020860160208601611578565b601f01601f19169290920160200192915050565b6040815260006115e360408301856115a4565b90508260208301529392505050565b7f4e487b7100000000000000000000000000000000000000000000000000000000600052601160045260246000fd5b60008219821115611634576116346115f2565b500190565b60006020828403121561164b57600080fd5b5051919050565b600082821015611664576116646115f2565b500390565b6000806000806080858703121561167f57600080fd5b843561168a81611437565b966020860135965060408601359560600135945092505050565b6000817fffffffffffffffffffffffffffffffffffffffffffffffffffffffffffffffff04831182151516156116dc576116dc6115f2565b500290565b600082611717577f4e487b7100000000000000000000000000000000000000000000000000000000600052601260045260246000fd5b500490565b7f4e487b7100000000000000000000000000000000000000000000000000000000600052602160045260246000fd5b60006020828403121561175d57600080fd5b8151801515811461105f57600080fd5b6000825161177f818460208701611578565b9190910192915050565b60208152600061105f60208301846115a456fea26469706673582212205d72288ab38682151457c4c47c1c91e08b87008ac1aaef88174c08237f03843664736f6c634300080c0033","linkReferences":{},"deployedLinkReferences":{},"fileHash":"9e70bed34b25f99534fd1b5da30c2a12a367cadccad046d04d4c5f5113421dc2"}