{"_format":"hh-sol-artifact-1","contractName":"UserAuthentication","sourceName":"contracts/validations/UserAuthentication.sol","abi":[{"inputs":[{"components":[{"internalType":"address","name":"sender","type":"address"},{"internalType":"uint256","name":"nonce","type":"uint256"},{"internalType":"bytes","name":"initCode","type":"bytes"},{"internalType":"bytes","name":"callData","type":"bytes"},{"internalType":"uint256","name":"callGasLimit","type":"uint256"},{"internalType":"uint256","name":"verificationGasLimit","type":"uint256"},{"internalType":"uint256","name":"preVerificationGas","type":"uint256"},{"internalType":"uint256","name":"maxFeePerGas","type":"uint256"},{"internalType":"uint256","name":"maxPriorityFeePerGas","type":"uint256"},{"internalType":"bytes","name":"paymasterAndData","type":"bytes"},{"internalType":"bytes","name":"signature","type":"bytes"}],"internalType":"struct UserOperation","name":"userOp","type":"tuple"},{"internalType":"bytes32","name":"userOpHash","type":"bytes32"},{"internalType":"address","name":"aggregator","type":"address"}],"name":"getUserId","outputs":[{"internalType":"bytes32","name":"","type":"bytes32"}],"stateMutability":"view","type":"function"},{"inputs":[{"components":[{"internalType":"address","name":"sender","type":"address"},{"internalType":"uint256","name":"nonce","type":"uint256"},{"internalType":"bytes","name":"initCode","type":"bytes"},{"internalType":"bytes","name":"callData","type":"bytes"},{"internalType":"uint256","name":"callGasLimit","type":"uint256"},{"internalType":"uint256","name":"verificationGasLimit","type":"uint256"},{"internalType":"uint256","name":"preVerificationGas","type":"uint256"},{"internalType":"uint256","name":"maxFeePerGas","type":"uint256"},{"internalType":"uint256","name":"maxPriorityFeePerGas","type":"uint256"},{"internalType":"bytes","name":"paymasterAndData","type":"bytes"},{"internalType":"bytes","name":"signature","type":"bytes"}],"internalType":"struct UserOperation","name":"op","type":"tuple"},{"internalType":"bytes32","name":"userOpHash","type":"bytes32"},{"internalType":"address","name":"","type":"address"}],"name":"recoverUserIdFromSignature","outputs":[{"internalType":"bytes32","name":"","type":"bytes32"}],"stateMutability":"pure","type":"function"},{"inputs":[{"internalType":"enum AuthType","name":"authType","type":"uint8"},{"internalType":"bytes","name":"authMetadata","type":"bytes"},{"components":[{"internalType":"address","name":"sender","type":"address"},{"internalType":"uint256","name":"nonce","type":"uint256"},{"internalType":"bytes","name":"initCode","type":"bytes"},{"internalType":"bytes","name":"callData","type":"bytes"},{"internalType":"uint256","name":"callGasLimit","type":"uint256"},{"internalType":"uint256","name":"verificationGasLimit","type":"uint256"},{"internalType":"uint256","name":"preVerificationGas","type":"uint256"},{"internalType":"uint256","name":"maxFeePerGas","type":"uint256"},{"internalType":"uint256","name":"maxPriorityFeePerGas","type":"uint256"},{"internalType":"bytes","name":"paymasterAndData","type":"bytes"},{"internalType":"bytes","name":"signature","type":"bytes"}],"internalType":"struct UserOperation","name":"userOp","type":"tuple"},{"internalType":"bytes32","name":"userOpHash","type":"bytes32"},{"internalType":"address","name":"aggregator","type":"address"}],"name":"validate","outputs":[{"internalType":"uint256","name":"sigTimeRange","type":"uint256"}],"stateMutability":"view","type":"function"}],"bytecode":"0x608060405234801561001057600080fd5b50610bf4806100206000396000f3fe608060405234801561001057600080fd5b50600436106100415760003560e01c8063a856452f14610046578063a8a2de931461006b578063d7acc99a1461007e575b600080fd5b610059610054366004610779565b610091565b60405190815260200160405180910390f35b610059610079366004610779565b6100d0565b61005961008c3660046107d4565b610283565b6000806100ab846100a661014088018861089b565b610329565b905073ffffffffffffffffffffffffffffffffffffffff81165b9150505b9392505050565b60408051602081019091527fa856452f000000000000000000000000000000000000000000000000000000008152600090815b600181101561021b576000803084846001811061012257610122610900565b602002015189898960405160240161013c939291906109be565b60408051601f198184030181529181526020820180517bffffffffffffffffffffffffffffffffffffffffffffffffffffffff167fffffffff000000000000000000000000000000000000000000000000000000009094169390931790925290516101a79190610b1e565b600060405180830381855afa9150503d80600081146101e2576040519150601f19603f3d011682016040523d82523d6000602084013e6101e7565b606091505b5091509150811561021157808060200190518101906102069190610b59565b9450505050506100c9565b5050600101610103565b506040517f08c379a000000000000000000000000000000000000000000000000000000000815260206004820152601f60248201527f496e636f72726563742041757468656e7469636174696f6e204d6574686f640060448201526064015b60405180910390fd5b60008087801561029557610295610b72565b14156102bd5760006102a787876103c7565b90506102b5858585846103d5565b91505061031f565b6040517f08c379a000000000000000000000000000000000000000000000000000000000815260206004820181905260248201527f696e76616c696420757365722061757468656e7469636174696f6e2074797065604482015260640161027a565b9695505050505050565b600080610383856040517f19457468657265756d205369676e6564204d6573736167653a0a3332000000006020820152603c8101829052600090605c01604051602081830303815290604052805190602001209050919050565b90506100c584848080601f01602080910402602001604051908101604052809392919081815260200183838082843760009201919091525085939250506104399050565b60006100c982840184610ba1565b60006103e9846100a661014088018861089b565b73ffffffffffffffffffffffffffffffffffffffff168273ffffffffffffffffffffffffffffffffffffffff161480610420575032155b1561042d57506000610431565b5060015b949350505050565b6000806000610448858561045d565b91509150610455816104a3565b509392505050565b6000808251604114156104945760208301516040840151606085015160001a6104888782858561065d565b9450945050505061049c565b506000905060025b9250929050565b60008160048111156104b7576104b7610b72565b14156104c05750565b60018160048111156104d4576104d4610b72565b141561053c576040517f08c379a000000000000000000000000000000000000000000000000000000000815260206004820152601860248201527f45434453413a20696e76616c6964207369676e61747572650000000000000000604482015260640161027a565b600281600481111561055057610550610b72565b14156105b8576040517f08c379a000000000000000000000000000000000000000000000000000000000815260206004820152601f60248201527f45434453413a20696e76616c6964207369676e6174757265206c656e67746800604482015260640161027a565b60038160048111156105cc576105cc610b72565b141561065a576040517f08c379a000000000000000000000000000000000000000000000000000000000815260206004820152602260248201527f45434453413a20696e76616c6964207369676e6174757265202773272076616c60448201527f7565000000000000000000000000000000000000000000000000000000000000606482015260840161027a565b50565b6000807f7fffffffffffffffffffffffffffffff5d576e7357a4501ddfe92f46681b20a08311156106945750600090506003610725565b6040805160008082526020820180845289905260ff881692820192909252606081018690526080810185905260019060a0016020604051602081039080840390855afa1580156106e8573d6000803e3d6000fd5b5050604051601f19015191505073ffffffffffffffffffffffffffffffffffffffff811661071e57600060019250925050610725565b9150600090505b94509492505050565b6000610160828403121561074157600080fd5b50919050565b73ffffffffffffffffffffffffffffffffffffffff8116811461065a57600080fd5b803561077481610747565b919050565b60008060006060848603121561078e57600080fd5b833567ffffffffffffffff8111156107a557600080fd5b6107b18682870161072e565b9350506020840135915060408401356107c981610747565b809150509250925092565b60008060008060008060a087890312156107ed57600080fd5b8635600181106107fc57600080fd5b9550602087013567ffffffffffffffff8082111561081957600080fd5b818901915089601f83011261082d57600080fd5b81358181111561083c57600080fd5b8a602082850101111561084e57600080fd5b60208301975080965050604089013591508082111561086c57600080fd5b5061087989828a0161072e565b9350506060870135915061088f60808801610769565b90509295509295509295565b60008083357fffffffffffffffffffffffffffffffffffffffffffffffffffffffffffffffe18436030181126108d057600080fd5b83018035915067ffffffffffffffff8211156108eb57600080fd5b60200191503681900382131561049c57600080fd5b7f4e487b7100000000000000000000000000000000000000000000000000000000600052603260045260246000fd5b60008083357fffffffffffffffffffffffffffffffffffffffffffffffffffffffffffffffe184360301811261096457600080fd5b830160208101925035905067ffffffffffffffff81111561098457600080fd5b80360383131561049c57600080fd5b818352818160208501375060006020828401015260006020601f19601f840116840101905092915050565b606081526109ec606082016109d286610769565b73ffffffffffffffffffffffffffffffffffffffff169052565b602084013560808201526000610a05604086018661092f565b6101608060a0860152610a1d6101c086018385610993565b9250610a2c606089018961092f565b92507fffffffffffffffffffffffffffffffffffffffffffffffffffffffffffffffa0808786030160c0880152610a64858584610993565b945060808a013560e0880152610100935060a08a013584880152610120915060c08a01358288015261014060e08b013581890152848b013584890152610aac838c018c61092f565b955093508188870301610180890152610ac6868686610993565b9550610ad4818c018c61092f565b955093505080878603016101a08801525050610af1838383610993565b9350505050836020830152610431604083018473ffffffffffffffffffffffffffffffffffffffff169052565b6000825160005b81811015610b3f5760208186018101518583015201610b25565b81811115610b4e576000828501525b509190910192915050565b600060208284031215610b6b57600080fd5b5051919050565b7f4e487b7100000000000000000000000000000000000000000000000000000000600052602160045260246000fd5b600060208284031215610bb357600080fd5b81356100c98161074756fea2646970667358221220622e1a3c41e93ef65ddf9ef0e6d949b9726b894aa89c77f1a691a5b9690cd5b964736f6c634300080c0033","linkReferences":{},"deployedLinkReferences":{},"fileHash":"2bd000738ea4ca2b8e6102df5b19100fea2d630d362926ffc890afb4c1a516ec"}