{
  "contractName": "AaveLiquadation",
  "abi": [
    {
      "inputs": [
        {
          "internalType": "address",
          "name": "treasury",
          "type": "address"
        },
        {
          "internalType": "string",
          "name": "key",
          "type": "string"
        }
      ],
      "name": "getData",
      "outputs": [
        {
          "internalType": "bytes",
          "name": "",
          "type": "bytes"
        }
      ],
      "stateMutability": "view",
      "type": "function"
    },
    {
      "inputs": [
        {
          "internalType": "address",
          "name": "user",
          "type": "address"
        }
      ],
      "name": "getVerificationContract",
      "outputs": [],
      "stateMutability": "view",
      "type": "function"
    },
    {
      "inputs": [
        {
          "internalType": "string",
          "name": "",
          "type": "string"
        }
      ],
      "name": "requests",
      "outputs": [
        {
          "internalType": "bytes",
          "name": "",
          "type": "bytes"
        }
      ],
      "stateMutability": "view",
      "type": "function"
    },
    {
      "inputs": [
        {
          "internalType": "bytes",
          "name": "data",
          "type": "bytes"
        }
      ],
      "name": "init",
      "outputs": [
        {
          "internalType": "bytes",
          "name": "",
          "type": "bytes"
        }
      ],
      "stateMutability": "payable",
      "type": "function"
    },
    {
      "inputs": [],
      "name": "init",
      "outputs": [
        {
          "internalType": "bytes",
          "name": "",
          "type": "bytes"
        }
      ],
      "stateMutability": "payable",
      "type": "function"
    },
    {
      "inputs": [
        {
          "internalType": "bytes",
          "name": "data",
          "type": "bytes"
        }
      ],
      "name": "execute",
      "outputs": [
        {
          "internalType": "bytes",
          "name": "",
          "type": "bytes"
        }
      ],
      "stateMutability": "payable",
      "type": "function"
    }
  ],
  "bytecode": "0x608060405234801561001057600080fd5b50611007806100206000396000f3fe6080604052600436106100555760003560e01c806309c5eabe1461005a5780633bf58dba1461008a5780634ddf47d4146100c7578063692d51d2146100f7578063e1c7392a14610134578063eea9919214610152575b600080fd5b610074600480360381019061006f919061080e565b61017b565b60405161008191906108df565b60405180910390f35b34801561009657600080fd5b506100b160048036038101906100ac9190610a00565b61033e565b6040516100be91906108df565b60405180910390f35b6100e160048036038101906100dc919061080e565b61040d565b6040516100ee91906108df565b60405180910390f35b34801561010357600080fd5b5061011e60048036038101906101199190610a5c565b6104a3565b60405161012b91906108df565b60405180910390f35b61013c610559565b60405161014991906108df565b60405180910390f35b34801561015e57600080fd5b5061017960048036038101906101749190610aa5565b6105c7565b005b60606000828060200190518101906101939190610b42565b905060006101a1338361033e565b90506000806000806101b2856105ca565b935093509350935060008373ffffffffffffffffffffffffffffffffffffffff166370a08231866040518263ffffffff1660e01b81526004016101f59190610b9a565b602060405180830381865afa158015610212573d6000803e3d6000fd5b505050506040513d601f19601f820116820180604052508101906102369190610beb565b905060008473ffffffffffffffffffffffffffffffffffffffff16637535d2466040518163ffffffff1660e01b8152600401602060405180830381865afa158015610285573d6000803e3d6000fd5b505050506040513d601f19601f820116820180604052508101906102a99190610c56565b905060008573ffffffffffffffffffffffffffffffffffffffff1663b16a19de6040518163ffffffff1660e01b8152600401602060405180830381865afa1580156102f8573d6000803e3d6000fd5b505050506040513d601f19601f8201168201806040525081019061031c9190610c98565b9050604051806020016040528060008152509950505050505050505050919050565b606060003083604051602001610355929190610d1a565b6040516020818303038152906040526040516020016103749190610d86565b60405160208183030381529060405290508373ffffffffffffffffffffffffffffffffffffffff16639ff420b7826040518263ffffffff1660e01b81526004016103be9190610d9d565b600060405180830381865afa1580156103db573d6000803e3d6000fd5b505050506040513d6000823e3d601f19601f820116820180604052508101906104049190610e2f565b91505092915050565b606060016000803373ffffffffffffffffffffffffffffffffffffffff1673ffffffffffffffffffffffffffffffffffffffff16815260200190815260200160002060006101000a81548160ff021916908315150217905550600080600080610475866105ca565b93509350935093506104883382886105fc565b60405180602001604052806000815250945050505050919050565b60018180516020810182018051848252602083016020850120818352809550505050505060009150905080546104d890610ea7565b80601f016020809104026020016040519081016040528092919081815260200182805461050490610ea7565b80156105515780601f1061052657610100808354040283529160200191610551565b820191906000526020600020905b81548152906001019060200180831161053457829003601f168201915b505050505081565b606060016000803373ffffffffffffffffffffffffffffffffffffffff1673ffffffffffffffffffffffffffffffffffffffff16815260200190815260200160002060006101000a81548160ff02191690831515021790555060405180602001604052806000815250905090565b50565b60008060006060848060200190518101906105e59190610f17565b809450819550829650839750505050509193509193565b60003083604051602001610611929190610d1a565b6040516020818303038152906040526040516020016106309190610d86565b60405160208183030381529060405290508373ffffffffffffffffffffffffffffffffffffffff1663ae65c78b82846040518363ffffffff1660e01b815260040161067c929190610f9a565b600060405180830381600087803b15801561069657600080fd5b505af11580156106aa573d6000803e3d6000fd5b5050505050505050565b6000604051905090565b600080fd5b600080fd5b600080fd5b600080fd5b6000601f19601f8301169050919050565b7f4e487b7100000000000000000000000000000000000000000000000000000000600052604160045260246000fd5b61071b826106d2565b810181811067ffffffffffffffff8211171561073a576107396106e3565b5b80604052505050565b600061074d6106b4565b90506107598282610712565b919050565b600067ffffffffffffffff821115610779576107786106e3565b5b610782826106d2565b9050602081019050919050565b82818337600083830152505050565b60006107b16107ac8461075e565b610743565b9050828152602081018484840111156107cd576107cc6106cd565b5b6107d884828561078f565b509392505050565b600082601f8301126107f5576107f46106c8565b5b813561080584826020860161079e565b91505092915050565b600060208284031215610824576108236106be565b5b600082013567ffffffffffffffff811115610842576108416106c3565b5b61084e848285016107e0565b91505092915050565b600081519050919050565b600082825260208201905092915050565b60005b83811015610891578082015181840152602081019050610876565b838111156108a0576000848401525b50505050565b60006108b182610857565b6108bb8185610862565b93506108cb818560208601610873565b6108d4816106d2565b840191505092915050565b600060208201905081810360008301526108f981846108a6565b905092915050565b600073ffffffffffffffffffffffffffffffffffffffff82169050919050565b600061092c82610901565b9050919050565b61093c81610921565b811461094757600080fd5b50565b60008135905061095981610933565b92915050565b600067ffffffffffffffff82111561097a576109796106e3565b5b610983826106d2565b9050602081019050919050565b60006109a361099e8461095f565b610743565b9050828152602081018484840111156109bf576109be6106cd565b5b6109ca84828561078f565b509392505050565b600082601f8301126109e7576109e66106c8565b5b81356109f7848260208601610990565b91505092915050565b60008060408385031215610a1757610a166106be565b5b6000610a258582860161094a565b925050602083013567ffffffffffffffff811115610a4657610a456106c3565b5b610a52858286016109d2565b9150509250929050565b600060208284031215610a7257610a716106be565b5b600082013567ffffffffffffffff811115610a9057610a8f6106c3565b5b610a9c848285016109d2565b91505092915050565b600060208284031215610abb57610aba6106be565b5b6000610ac98482850161094a565b91505092915050565b6000610ae5610ae08461095f565b610743565b905082815260208101848484011115610b0157610b006106cd565b5b610b0c848285610873565b509392505050565b600082601f830112610b2957610b286106c8565b5b8151610b39848260208601610ad2565b91505092915050565b600060208284031215610b5857610b576106be565b5b600082015167ffffffffffffffff811115610b7657610b756106c3565b5b610b8284828501610b14565b91505092915050565b610b9481610921565b82525050565b6000602082019050610baf6000830184610b8b565b92915050565b6000819050919050565b610bc881610bb5565b8114610bd357600080fd5b50565b600081519050610be581610bbf565b92915050565b600060208284031215610c0157610c006106be565b5b6000610c0f84828501610bd6565b91505092915050565b6000610c2382610921565b9050919050565b610c3381610c18565b8114610c3e57600080fd5b50565b600081519050610c5081610c2a565b92915050565b600060208284031215610c6c57610c6b6106be565b5b6000610c7a84828501610c41565b91505092915050565b600081519050610c9281610933565b92915050565b600060208284031215610cae57610cad6106be565b5b6000610cbc84828501610c83565b91505092915050565b600081519050919050565b600082825260208201905092915050565b6000610cec82610cc5565b610cf68185610cd0565b9350610d06818560208601610873565b610d0f816106d2565b840191505092915050565b6000604082019050610d2f6000830185610b8b565b8181036020830152610d418184610ce1565b90509392505050565b600081905092915050565b6000610d6082610857565b610d6a8185610d4a565b9350610d7a818560208601610873565b80840191505092915050565b6000610d928284610d55565b915081905092915050565b60006020820190508181036000830152610db78184610ce1565b905092915050565b6000610dd2610dcd8461075e565b610743565b905082815260208101848484011115610dee57610ded6106cd565b5b610df9848285610873565b509392505050565b600082601f830112610e1657610e156106c8565b5b8151610e26848260208601610dbf565b91505092915050565b600060208284031215610e4557610e446106be565b5b600082015167ffffffffffffffff811115610e6357610e626106c3565b5b610e6f84828501610e01565b91505092915050565b7f4e487b7100000000000000000000000000000000000000000000000000000000600052602260045260246000fd5b60006002820490506001821680610ebf57607f821691505b60208210811415610ed357610ed2610e78565b5b50919050565b6000610ee482610901565b9050919050565b610ef481610ed9565b8114610eff57600080fd5b50565b600081519050610f1181610eeb565b92915050565b60008060008060808587031215610f3157610f306106be565b5b6000610f3f87828801610f02565b9450506020610f5087828801610f02565b9350506040610f6187828801610bd6565b925050606085015167ffffffffffffffff811115610f8257610f816106c3565b5b610f8e87828801610b14565b91505092959194509250565b60006040820190508181036000830152610fb48185610ce1565b90508181036020830152610fc881846108a6565b9050939250505056fea264697066735822122013d83cd726639b92af349cc30730bd6a4b80a2d0fa06136bf560ab7bf4eb07ff64736f6c634300080a0033",
  "immutableReferences": {},
  "source": "// SPDX-License-Identifier: UNLICENSED\npragma solidity ^0.8.0;\n\nimport \"../Action.sol\";\n\nimport {IPool} from \"@aave/core-v3/contracts/interfaces/IPool.sol\";\nimport {AToken} from \"@aave/core-v3/contracts/protocol/tokenization/AToken.sol\";\n\ncontract AaveLiquadation is Action {\n    mapping(string => bytes) public requests;\n\n    function _init(\n        address userAddr,\n        address aTokenAddr,\n        uint256 positionMax,\n        string memory key,\n        bytes memory data\n    ) private {\n        // require(AToken(aTokenAddr).allowance(userAddr, msg.sender) >= positionMax);\n    }\n\n    function init(bytes memory data)\n        external\n        payable\n        override\n        returns (bytes memory)\n    {\n        whitelist[msg.sender] = true;\n        (\n            address userAddr,\n            address aTokenAddr,\n            uint256 positionMax,\n            string memory key\n        ) = decode(data);\n\n        storeData(msg.sender, key, data);\n\n        // _init(userAddr, aTokenAddr, positionMax, key, data);\n        return bytes(\"\");\n    }\n\n    function decode(bytes memory data)\n        internal\n        pure\n        returns (\n            address userAddr,\n            address aTokenAddr,\n            uint256 positionMax,\n            string memory key\n        )\n    {\n        (userAddr, aTokenAddr, positionMax, key) = abi.decode(\n            data,\n            (address, address, uint256, string)\n        );\n    }\n\n    function execute(bytes memory data)\n        public\n        payable\n        override\n        returns (bytes memory)\n    {\n        string memory key = abi.decode(data, (string));\n        bytes memory externaldata = getData(msg.sender, key);\n        (\n            address userAddr,\n            address aTokenAddr,\n            uint256 positionMax,\n            string memory throwaway\n        ) = decode(externaldata);\n\n        uint256 balance = AToken(aTokenAddr).balanceOf(userAddr);\n\n        // bytes memory actionData = abi.encodeWithSignature(\n        //     \"transferFrom(address,address,uint256)\",\n        //     userAddr,\n        //     msg.sender,\n        //     balance\n        // );\n        // sendCallOp(msg.sender, aTokenAddr, actionData, 0);\n\n        IPool pool = AToken(aTokenAddr).POOL();\n        address assetAddr = AToken(aTokenAddr).UNDERLYING_ASSET_ADDRESS();\n\n        // actionData = abi.encodeWithSignature(\n        //     \"withdraw(address,uint256,address)\",\n        //     assetAddr,\n        //     balance,\n        //     userAddr\n        // );\n        // sendCallOp(msg.sender, address(pool), actionData, 0);\n\n        return bytes(\"\");\n    }\n}\n",
  "sourcePath": "/Users/calebsirak/fun/wallet-sdk-v1/web3/contracts/wallet/actions/AaveAction.sol",
  "compiler": {
    "name": "solc",
    "version": "0.8.10+commit.fc410830.Emscripten.clang"
  },
  "schemaVersion": "3.4.10",
  "updatedAt": "2023-01-06T16:41:43.835Z",
  "devdoc": {
    "kind": "dev",
    "methods": {},
    "version": 1
  },
  "userdoc": {
    "kind": "user",
    "methods": {},
    "version": 1
  }
}