{
  "contractName": "Errors",
  "abi": [
    {
      "inputs": [],
      "name": "ACL_ADMIN_CANNOT_BE_ZERO",
      "outputs": [
        {
          "internalType": "string",
          "name": "",
          "type": "string"
        }
      ],
      "stateMutability": "view",
      "type": "function"
    },
    {
      "inputs": [],
      "name": "ADDRESSES_PROVIDER_ALREADY_ADDED",
      "outputs": [
        {
          "internalType": "string",
          "name": "",
          "type": "string"
        }
      ],
      "stateMutability": "view",
      "type": "function"
    },
    {
      "inputs": [],
      "name": "ADDRESSES_PROVIDER_NOT_REGISTERED",
      "outputs": [
        {
          "internalType": "string",
          "name": "",
          "type": "string"
        }
      ],
      "stateMutability": "view",
      "type": "function"
    },
    {
      "inputs": [],
      "name": "AMOUNT_BIGGER_THAN_MAX_LOAN_SIZE_STABLE",
      "outputs": [
        {
          "internalType": "string",
          "name": "",
          "type": "string"
        }
      ],
      "stateMutability": "view",
      "type": "function"
    },
    {
      "inputs": [],
      "name": "ASSET_NOT_BORROWABLE_IN_ISOLATION",
      "outputs": [
        {
          "internalType": "string",
          "name": "",
          "type": "string"
        }
      ],
      "stateMutability": "view",
      "type": "function"
    },
    {
      "inputs": [],
      "name": "ASSET_NOT_LISTED",
      "outputs": [
        {
          "internalType": "string",
          "name": "",
          "type": "string"
        }
      ],
      "stateMutability": "view",
      "type": "function"
    },
    {
      "inputs": [],
      "name": "BORROWING_NOT_ENABLED",
      "outputs": [
        {
          "internalType": "string",
          "name": "",
          "type": "string"
        }
      ],
      "stateMutability": "view",
      "type": "function"
    },
    {
      "inputs": [],
      "name": "BORROW_CAP_EXCEEDED",
      "outputs": [
        {
          "internalType": "string",
          "name": "",
          "type": "string"
        }
      ],
      "stateMutability": "view",
      "type": "function"
    },
    {
      "inputs": [],
      "name": "BRIDGE_PROTOCOL_FEE_INVALID",
      "outputs": [
        {
          "internalType": "string",
          "name": "",
          "type": "string"
        }
      ],
      "stateMutability": "view",
      "type": "function"
    },
    {
      "inputs": [],
      "name": "CALLER_MUST_BE_POOL",
      "outputs": [
        {
          "internalType": "string",
          "name": "",
          "type": "string"
        }
      ],
      "stateMutability": "view",
      "type": "function"
    },
    {
      "inputs": [],
      "name": "CALLER_NOT_ASSET_LISTING_OR_POOL_ADMIN",
      "outputs": [
        {
          "internalType": "string",
          "name": "",
          "type": "string"
        }
      ],
      "stateMutability": "view",
      "type": "function"
    },
    {
      "inputs": [],
      "name": "CALLER_NOT_ATOKEN",
      "outputs": [
        {
          "internalType": "string",
          "name": "",
          "type": "string"
        }
      ],
      "stateMutability": "view",
      "type": "function"
    },
    {
      "inputs": [],
      "name": "CALLER_NOT_BRIDGE",
      "outputs": [
        {
          "internalType": "string",
          "name": "",
          "type": "string"
        }
      ],
      "stateMutability": "view",
      "type": "function"
    },
    {
      "inputs": [],
      "name": "CALLER_NOT_EMERGENCY_ADMIN",
      "outputs": [
        {
          "internalType": "string",
          "name": "",
          "type": "string"
        }
      ],
      "stateMutability": "view",
      "type": "function"
    },
    {
      "inputs": [],
      "name": "CALLER_NOT_POOL_ADMIN",
      "outputs": [
        {
          "internalType": "string",
          "name": "",
          "type": "string"
        }
      ],
      "stateMutability": "view",
      "type": "function"
    },
    {
      "inputs": [],
      "name": "CALLER_NOT_POOL_CONFIGURATOR",
      "outputs": [
        {
          "internalType": "string",
          "name": "",
          "type": "string"
        }
      ],
      "stateMutability": "view",
      "type": "function"
    },
    {
      "inputs": [],
      "name": "CALLER_NOT_POOL_OR_EMERGENCY_ADMIN",
      "outputs": [
        {
          "internalType": "string",
          "name": "",
          "type": "string"
        }
      ],
      "stateMutability": "view",
      "type": "function"
    },
    {
      "inputs": [],
      "name": "CALLER_NOT_RISK_OR_POOL_ADMIN",
      "outputs": [
        {
          "internalType": "string",
          "name": "",
          "type": "string"
        }
      ],
      "stateMutability": "view",
      "type": "function"
    },
    {
      "inputs": [],
      "name": "COLLATERAL_BALANCE_IS_ZERO",
      "outputs": [
        {
          "internalType": "string",
          "name": "",
          "type": "string"
        }
      ],
      "stateMutability": "view",
      "type": "function"
    },
    {
      "inputs": [],
      "name": "COLLATERAL_CANNOT_BE_LIQUIDATED",
      "outputs": [
        {
          "internalType": "string",
          "name": "",
          "type": "string"
        }
      ],
      "stateMutability": "view",
      "type": "function"
    },
    {
      "inputs": [],
      "name": "COLLATERAL_CANNOT_COVER_NEW_BORROW",
      "outputs": [
        {
          "internalType": "string",
          "name": "",
          "type": "string"
        }
      ],
      "stateMutability": "view",
      "type": "function"
    },
    {
      "inputs": [],
      "name": "COLLATERAL_SAME_AS_BORROWING_CURRENCY",
      "outputs": [
        {
          "internalType": "string",
          "name": "",
          "type": "string"
        }
      ],
      "stateMutability": "view",
      "type": "function"
    },
    {
      "inputs": [],
      "name": "DEBT_CEILING_EXCEEDED",
      "outputs": [
        {
          "internalType": "string",
          "name": "",
          "type": "string"
        }
      ],
      "stateMutability": "view",
      "type": "function"
    },
    {
      "inputs": [],
      "name": "DEBT_CEILING_NOT_ZERO",
      "outputs": [
        {
          "internalType": "string",
          "name": "",
          "type": "string"
        }
      ],
      "stateMutability": "view",
      "type": "function"
    },
    {
      "inputs": [],
      "name": "EMODE_CATEGORY_RESERVED",
      "outputs": [
        {
          "internalType": "string",
          "name": "",
          "type": "string"
        }
      ],
      "stateMutability": "view",
      "type": "function"
    },
    {
      "inputs": [],
      "name": "FLASHLOAN_DISABLED",
      "outputs": [
        {
          "internalType": "string",
          "name": "",
          "type": "string"
        }
      ],
      "stateMutability": "view",
      "type": "function"
    },
    {
      "inputs": [],
      "name": "FLASHLOAN_PREMIUM_INVALID",
      "outputs": [
        {
          "internalType": "string",
          "name": "",
          "type": "string"
        }
      ],
      "stateMutability": "view",
      "type": "function"
    },
    {
      "inputs": [],
      "name": "HEALTH_FACTOR_LOWER_THAN_LIQUIDATION_THRESHOLD",
      "outputs": [
        {
          "internalType": "string",
          "name": "",
          "type": "string"
        }
      ],
      "stateMutability": "view",
      "type": "function"
    },
    {
      "inputs": [],
      "name": "HEALTH_FACTOR_NOT_BELOW_THRESHOLD",
      "outputs": [
        {
          "internalType": "string",
          "name": "",
          "type": "string"
        }
      ],
      "stateMutability": "view",
      "type": "function"
    },
    {
      "inputs": [],
      "name": "INCONSISTENT_EMODE_CATEGORY",
      "outputs": [
        {
          "internalType": "string",
          "name": "",
          "type": "string"
        }
      ],
      "stateMutability": "view",
      "type": "function"
    },
    {
      "inputs": [],
      "name": "INCONSISTENT_FLASHLOAN_PARAMS",
      "outputs": [
        {
          "internalType": "string",
          "name": "",
          "type": "string"
        }
      ],
      "stateMutability": "view",
      "type": "function"
    },
    {
      "inputs": [],
      "name": "INCONSISTENT_PARAMS_LENGTH",
      "outputs": [
        {
          "internalType": "string",
          "name": "",
          "type": "string"
        }
      ],
      "stateMutability": "view",
      "type": "function"
    },
    {
      "inputs": [],
      "name": "INTEREST_RATE_REBALANCE_CONDITIONS_NOT_MET",
      "outputs": [
        {
          "internalType": "string",
          "name": "",
          "type": "string"
        }
      ],
      "stateMutability": "view",
      "type": "function"
    },
    {
      "inputs": [],
      "name": "INVALID_ADDRESSES_PROVIDER",
      "outputs": [
        {
          "internalType": "string",
          "name": "",
          "type": "string"
        }
      ],
      "stateMutability": "view",
      "type": "function"
    },
    {
      "inputs": [],
      "name": "INVALID_ADDRESSES_PROVIDER_ID",
      "outputs": [
        {
          "internalType": "string",
          "name": "",
          "type": "string"
        }
      ],
      "stateMutability": "view",
      "type": "function"
    },
    {
      "inputs": [],
      "name": "INVALID_AMOUNT",
      "outputs": [
        {
          "internalType": "string",
          "name": "",
          "type": "string"
        }
      ],
      "stateMutability": "view",
      "type": "function"
    },
    {
      "inputs": [],
      "name": "INVALID_BORROW_CAP",
      "outputs": [
        {
          "internalType": "string",
          "name": "",
          "type": "string"
        }
      ],
      "stateMutability": "view",
      "type": "function"
    },
    {
      "inputs": [],
      "name": "INVALID_BURN_AMOUNT",
      "outputs": [
        {
          "internalType": "string",
          "name": "",
          "type": "string"
        }
      ],
      "stateMutability": "view",
      "type": "function"
    },
    {
      "inputs": [],
      "name": "INVALID_DEBT_CEILING",
      "outputs": [
        {
          "internalType": "string",
          "name": "",
          "type": "string"
        }
      ],
      "stateMutability": "view",
      "type": "function"
    },
    {
      "inputs": [],
      "name": "INVALID_DECIMALS",
      "outputs": [
        {
          "internalType": "string",
          "name": "",
          "type": "string"
        }
      ],
      "stateMutability": "view",
      "type": "function"
    },
    {
      "inputs": [],
      "name": "INVALID_EMODE_CATEGORY",
      "outputs": [
        {
          "internalType": "string",
          "name": "",
          "type": "string"
        }
      ],
      "stateMutability": "view",
      "type": "function"
    },
    {
      "inputs": [],
      "name": "INVALID_EMODE_CATEGORY_ASSIGNMENT",
      "outputs": [
        {
          "internalType": "string",
          "name": "",
          "type": "string"
        }
      ],
      "stateMutability": "view",
      "type": "function"
    },
    {
      "inputs": [],
      "name": "INVALID_EMODE_CATEGORY_PARAMS",
      "outputs": [
        {
          "internalType": "string",
          "name": "",
          "type": "string"
        }
      ],
      "stateMutability": "view",
      "type": "function"
    },
    {
      "inputs": [],
      "name": "INVALID_EXPIRATION",
      "outputs": [
        {
          "internalType": "string",
          "name": "",
          "type": "string"
        }
      ],
      "stateMutability": "view",
      "type": "function"
    },
    {
      "inputs": [],
      "name": "INVALID_FLASHLOAN_EXECUTOR_RETURN",
      "outputs": [
        {
          "internalType": "string",
          "name": "",
          "type": "string"
        }
      ],
      "stateMutability": "view",
      "type": "function"
    },
    {
      "inputs": [],
      "name": "INVALID_INTEREST_RATE_MODE_SELECTED",
      "outputs": [
        {
          "internalType": "string",
          "name": "",
          "type": "string"
        }
      ],
      "stateMutability": "view",
      "type": "function"
    },
    {
      "inputs": [],
      "name": "INVALID_LIQUIDATION_PROTOCOL_FEE",
      "outputs": [
        {
          "internalType": "string",
          "name": "",
          "type": "string"
        }
      ],
      "stateMutability": "view",
      "type": "function"
    },
    {
      "inputs": [],
      "name": "INVALID_LIQ_BONUS",
      "outputs": [
        {
          "internalType": "string",
          "name": "",
          "type": "string"
        }
      ],
      "stateMutability": "view",
      "type": "function"
    },
    {
      "inputs": [],
      "name": "INVALID_LIQ_THRESHOLD",
      "outputs": [
        {
          "internalType": "string",
          "name": "",
          "type": "string"
        }
      ],
      "stateMutability": "view",
      "type": "function"
    },
    {
      "inputs": [],
      "name": "INVALID_LTV",
      "outputs": [
        {
          "internalType": "string",
          "name": "",
          "type": "string"
        }
      ],
      "stateMutability": "view",
      "type": "function"
    },
    {
      "inputs": [],
      "name": "INVALID_MINT_AMOUNT",
      "outputs": [
        {
          "internalType": "string",
          "name": "",
          "type": "string"
        }
      ],
      "stateMutability": "view",
      "type": "function"
    },
    {
      "inputs": [],
      "name": "INVALID_OPTIMAL_STABLE_TO_TOTAL_DEBT_RATIO",
      "outputs": [
        {
          "internalType": "string",
          "name": "",
          "type": "string"
        }
      ],
      "stateMutability": "view",
      "type": "function"
    },
    {
      "inputs": [],
      "name": "INVALID_OPTIMAL_USAGE_RATIO",
      "outputs": [
        {
          "internalType": "string",
          "name": "",
          "type": "string"
        }
      ],
      "stateMutability": "view",
      "type": "function"
    },
    {
      "inputs": [],
      "name": "INVALID_RESERVE_FACTOR",
      "outputs": [
        {
          "internalType": "string",
          "name": "",
          "type": "string"
        }
      ],
      "stateMutability": "view",
      "type": "function"
    },
    {
      "inputs": [],
      "name": "INVALID_RESERVE_INDEX",
      "outputs": [
        {
          "internalType": "string",
          "name": "",
          "type": "string"
        }
      ],
      "stateMutability": "view",
      "type": "function"
    },
    {
      "inputs": [],
      "name": "INVALID_RESERVE_PARAMS",
      "outputs": [
        {
          "internalType": "string",
          "name": "",
          "type": "string"
        }
      ],
      "stateMutability": "view",
      "type": "function"
    },
    {
      "inputs": [],
      "name": "INVALID_SIGNATURE",
      "outputs": [
        {
          "internalType": "string",
          "name": "",
          "type": "string"
        }
      ],
      "stateMutability": "view",
      "type": "function"
    },
    {
      "inputs": [],
      "name": "INVALID_SUPPLY_CAP",
      "outputs": [
        {
          "internalType": "string",
          "name": "",
          "type": "string"
        }
      ],
      "stateMutability": "view",
      "type": "function"
    },
    {
      "inputs": [],
      "name": "INVALID_UNBACKED_MINT_CAP",
      "outputs": [
        {
          "internalType": "string",
          "name": "",
          "type": "string"
        }
      ],
      "stateMutability": "view",
      "type": "function"
    },
    {
      "inputs": [],
      "name": "LTV_VALIDATION_FAILED",
      "outputs": [
        {
          "internalType": "string",
          "name": "",
          "type": "string"
        }
      ],
      "stateMutability": "view",
      "type": "function"
    },
    {
      "inputs": [],
      "name": "NOT_CONTRACT",
      "outputs": [
        {
          "internalType": "string",
          "name": "",
          "type": "string"
        }
      ],
      "stateMutability": "view",
      "type": "function"
    },
    {
      "inputs": [],
      "name": "NOT_ENOUGH_AVAILABLE_USER_BALANCE",
      "outputs": [
        {
          "internalType": "string",
          "name": "",
          "type": "string"
        }
      ],
      "stateMutability": "view",
      "type": "function"
    },
    {
      "inputs": [],
      "name": "NO_DEBT_OF_SELECTED_TYPE",
      "outputs": [
        {
          "internalType": "string",
          "name": "",
          "type": "string"
        }
      ],
      "stateMutability": "view",
      "type": "function"
    },
    {
      "inputs": [],
      "name": "NO_EXPLICIT_AMOUNT_TO_REPAY_ON_BEHALF",
      "outputs": [
        {
          "internalType": "string",
          "name": "",
          "type": "string"
        }
      ],
      "stateMutability": "view",
      "type": "function"
    },
    {
      "inputs": [],
      "name": "NO_MORE_RESERVES_ALLOWED",
      "outputs": [
        {
          "internalType": "string",
          "name": "",
          "type": "string"
        }
      ],
      "stateMutability": "view",
      "type": "function"
    },
    {
      "inputs": [],
      "name": "NO_OUTSTANDING_STABLE_DEBT",
      "outputs": [
        {
          "internalType": "string",
          "name": "",
          "type": "string"
        }
      ],
      "stateMutability": "view",
      "type": "function"
    },
    {
      "inputs": [],
      "name": "NO_OUTSTANDING_VARIABLE_DEBT",
      "outputs": [
        {
          "internalType": "string",
          "name": "",
          "type": "string"
        }
      ],
      "stateMutability": "view",
      "type": "function"
    },
    {
      "inputs": [],
      "name": "OPERATION_NOT_SUPPORTED",
      "outputs": [
        {
          "internalType": "string",
          "name": "",
          "type": "string"
        }
      ],
      "stateMutability": "view",
      "type": "function"
    },
    {
      "inputs": [],
      "name": "POOL_ADDRESSES_DO_NOT_MATCH",
      "outputs": [
        {
          "internalType": "string",
          "name": "",
          "type": "string"
        }
      ],
      "stateMutability": "view",
      "type": "function"
    },
    {
      "inputs": [],
      "name": "PRICE_ORACLE_SENTINEL_CHECK_FAILED",
      "outputs": [
        {
          "internalType": "string",
          "name": "",
          "type": "string"
        }
      ],
      "stateMutability": "view",
      "type": "function"
    },
    {
      "inputs": [],
      "name": "RESERVE_ALREADY_ADDED",
      "outputs": [
        {
          "internalType": "string",
          "name": "",
          "type": "string"
        }
      ],
      "stateMutability": "view",
      "type": "function"
    },
    {
      "inputs": [],
      "name": "RESERVE_ALREADY_INITIALIZED",
      "outputs": [
        {
          "internalType": "string",
          "name": "",
          "type": "string"
        }
      ],
      "stateMutability": "view",
      "type": "function"
    },
    {
      "inputs": [],
      "name": "RESERVE_DEBT_NOT_ZERO",
      "outputs": [
        {
          "internalType": "string",
          "name": "",
          "type": "string"
        }
      ],
      "stateMutability": "view",
      "type": "function"
    },
    {
      "inputs": [],
      "name": "RESERVE_FROZEN",
      "outputs": [
        {
          "internalType": "string",
          "name": "",
          "type": "string"
        }
      ],
      "stateMutability": "view",
      "type": "function"
    },
    {
      "inputs": [],
      "name": "RESERVE_INACTIVE",
      "outputs": [
        {
          "internalType": "string",
          "name": "",
          "type": "string"
        }
      ],
      "stateMutability": "view",
      "type": "function"
    },
    {
      "inputs": [],
      "name": "RESERVE_LIQUIDITY_NOT_ZERO",
      "outputs": [
        {
          "internalType": "string",
          "name": "",
          "type": "string"
        }
      ],
      "stateMutability": "view",
      "type": "function"
    },
    {
      "inputs": [],
      "name": "RESERVE_PAUSED",
      "outputs": [
        {
          "internalType": "string",
          "name": "",
          "type": "string"
        }
      ],
      "stateMutability": "view",
      "type": "function"
    },
    {
      "inputs": [],
      "name": "SILOED_BORROWING_VIOLATION",
      "outputs": [
        {
          "internalType": "string",
          "name": "",
          "type": "string"
        }
      ],
      "stateMutability": "view",
      "type": "function"
    },
    {
      "inputs": [],
      "name": "SPECIFIED_CURRENCY_NOT_BORROWED_BY_USER",
      "outputs": [
        {
          "internalType": "string",
          "name": "",
          "type": "string"
        }
      ],
      "stateMutability": "view",
      "type": "function"
    },
    {
      "inputs": [],
      "name": "STABLE_BORROWING_ENABLED",
      "outputs": [
        {
          "internalType": "string",
          "name": "",
          "type": "string"
        }
      ],
      "stateMutability": "view",
      "type": "function"
    },
    {
      "inputs": [],
      "name": "STABLE_BORROWING_NOT_ENABLED",
      "outputs": [
        {
          "internalType": "string",
          "name": "",
          "type": "string"
        }
      ],
      "stateMutability": "view",
      "type": "function"
    },
    {
      "inputs": [],
      "name": "STABLE_DEBT_NOT_ZERO",
      "outputs": [
        {
          "internalType": "string",
          "name": "",
          "type": "string"
        }
      ],
      "stateMutability": "view",
      "type": "function"
    },
    {
      "inputs": [],
      "name": "SUPPLY_CAP_EXCEEDED",
      "outputs": [
        {
          "internalType": "string",
          "name": "",
          "type": "string"
        }
      ],
      "stateMutability": "view",
      "type": "function"
    },
    {
      "inputs": [],
      "name": "UNBACKED_MINT_CAP_EXCEEDED",
      "outputs": [
        {
          "internalType": "string",
          "name": "",
          "type": "string"
        }
      ],
      "stateMutability": "view",
      "type": "function"
    },
    {
      "inputs": [],
      "name": "UNDERLYING_BALANCE_ZERO",
      "outputs": [
        {
          "internalType": "string",
          "name": "",
          "type": "string"
        }
      ],
      "stateMutability": "view",
      "type": "function"
    },
    {
      "inputs": [],
      "name": "UNDERLYING_CANNOT_BE_RESCUED",
      "outputs": [
        {
          "internalType": "string",
          "name": "",
          "type": "string"
        }
      ],
      "stateMutability": "view",
      "type": "function"
    },
    {
      "inputs": [],
      "name": "UNDERLYING_CLAIMABLE_RIGHTS_NOT_ZERO",
      "outputs": [
        {
          "internalType": "string",
          "name": "",
          "type": "string"
        }
      ],
      "stateMutability": "view",
      "type": "function"
    },
    {
      "inputs": [],
      "name": "USER_IN_ISOLATION_MODE",
      "outputs": [
        {
          "internalType": "string",
          "name": "",
          "type": "string"
        }
      ],
      "stateMutability": "view",
      "type": "function"
    },
    {
      "inputs": [],
      "name": "VARIABLE_DEBT_SUPPLY_NOT_ZERO",
      "outputs": [
        {
          "internalType": "string",
          "name": "",
          "type": "string"
        }
      ],
      "stateMutability": "view",
      "type": "function"
    },
    {
      "inputs": [],
      "name": "ZERO_ADDRESS_NOT_VALID",
      "outputs": [
        {
          "internalType": "string",
          "name": "",
          "type": "string"
        }
      ],
      "stateMutability": "view",
      "type": "function"
    }
  ],
  "bytecode": "0x612484610053600b82828239805160001a607314610046577f4e487b7100000000000000000000000000000000000000000000000000000000600052600060045260246000fd5b30600052607381538281f3fe73000000000000000000000000000000000000000030146080604052600436106104f85760003560e01c80638aa3ca4c11610298578063bad8308c11610171578063dd1dd95f116100e3578063f07f67851161009c578063f07f678514610ed5578063f10727db14610ef3578063f479ea1114610f11578063fa163a8314610f2f578063fae8279114610f4d578063fd1828ff14610f6b576104f8565b8063dd1dd95f14610e21578063de24948c14610e3f578063e02f07ee14610e5d578063e3fa20f514610e7b578063e4dd8b7414610e99578063e981483a14610eb7576104f8565b8063d14bb17a11610135578063d14bb17a14610d6d578063d1cd8b1d14610d8b578063d6f9fcde14610da9578063d9adda8514610dc7578063dc191bd914610de5578063dcc56db614610e03576104f8565b8063bad8308c14610cd7578063c08a114614610cf5578063c863808214610d13578063c899301a14610d31578063cd23367c14610d4f576104f8565b8063a4868dca1161020a578063b0510054116101ce578063b051005414610c23578063b4a4573014610c41578063b5e7936614610c5f578063b68774e914610c7d578063b7f5e22414610c9b578063b87041c214610cb9576104f8565b8063a4868dca14610b8d578063a8c9785314610bab578063ab883ca014610bc9578063abd351b114610be7578063ac75323614610c05576104f8565b8063952633c51161025c578063952633c514610ad95780639527e9d914610af757806399ce53f314610b15578063a2797c8014610b33578063a2e976c614610b51578063a3402a3814610b6f576104f8565b80638aa3ca4c14610a435780638b8b98d714610a615780638eda46bd14610a7f5780638f7722b214610a9d57806394f9fd8a14610abb576104f8565b80634ef999ff116103d5578063712f536a116103475780637aa0767e116103005780637aa0767e1461098f5780637fea6f36146109ad5780638596aad5146109cb578063895f7dc8146109e957806389c5d45f14610a075780638a34400014610a25576104f8565b8063712f536a146108db57806373dea5e3146108f9578063744465cc1461091757806374459b1414610935578063747fa5561461095357806376ae8fca14610971576104f8565b806360c3de801161039957806360c3de801461082757806361c111d21461084557806365a83bab1461086357806365e7ef4c146108815780636b3f7cc71461089f5780636cd3cfbc146108bd576104f8565b80634ef999ff146107915780634f77647b146107af57806351267450146107cd57806352ba9dbe146107eb5780635d9c76c014610809576104f8565b80632eed17e81161046e57806347ba93d81161043257806347ba93d8146106dd57806347cf1523146106fb578063485c8ff6146107195780634d86f393146107375780634e01e3c1146107555780634e3aed3714610773576104f8565b80632eed17e814610647578063335763de14610665578063366eb54d1461068357806337930782146106a1578063471df685146106bf576104f8565b80631abbb001116104c05780631abbb0011461059357806322a73446146105b157806326bbd053146105cf57806326e7b312146105ed5780632926c9711461060b5780632c8e3b4c14610629576104f8565b8063084dfa0d146104fd57806311d7b0061461051b57806312dcade81461053957806314dcfbbc14610557578063198d6a6b14610575575b600080fd5b610505610f89565b604051610512919061242c565b60405180910390f35b610523610fc2565b604051610530919061242c565b60405180910390f35b610541610ffb565b60405161054e919061242c565b60405180910390f35b61055f611034565b60405161056c919061242c565b60405180910390f35b61057d61106d565b60405161058a919061242c565b60405180910390f35b61059b6110a6565b6040516105a8919061242c565b60405180910390f35b6105b96110df565b6040516105c6919061242c565b60405180910390f35b6105d7611118565b6040516105e4919061242c565b60405180910390f35b6105f5611151565b604051610602919061242c565b60405180910390f35b61061361118a565b604051610620919061242c565b60405180910390f35b6106316111c3565b60405161063e919061242c565b60405180910390f35b61064f6111fc565b60405161065c919061242c565b60405180910390f35b61066d611235565b60405161067a919061242c565b60405180910390f35b61068b61126e565b604051610698919061242c565b60405180910390f35b6106a96112a7565b6040516106b6919061242c565b60405180910390f35b6106c76112e0565b6040516106d4919061242c565b60405180910390f35b6106e5611319565b6040516106f2919061242c565b60405180910390f35b610703611352565b604051610710919061242c565b60405180910390f35b61072161138b565b60405161072e919061242c565b60405180910390f35b61073f6113c4565b60405161074c919061242c565b60405180910390f35b61075d6113fd565b60405161076a919061242c565b60405180910390f35b61077b611436565b604051610788919061242c565b60405180910390f35b61079961146f565b6040516107a6919061242c565b60405180910390f35b6107b76114a8565b6040516107c4919061242c565b60405180910390f35b6107d56114e1565b6040516107e2919061242c565b60405180910390f35b6107f361151a565b604051610800919061242c565b60405180910390f35b610811611553565b60405161081e919061242c565b60405180910390f35b61082f61158c565b60405161083c919061242c565b60405180910390f35b61084d6115c5565b60405161085a919061242c565b60405180910390f35b61086b6115fe565b604051610878919061242c565b60405180910390f35b610889611637565b604051610896919061242c565b60405180910390f35b6108a7611670565b6040516108b4919061242c565b60405180910390f35b6108c56116a9565b6040516108d2919061242c565b60405180910390f35b6108e36116e2565b6040516108f0919061242c565b60405180910390f35b61090161171b565b60405161090e919061242c565b60405180910390f35b61091f611754565b60405161092c919061242c565b60405180910390f35b61093d61178d565b60405161094a919061242c565b60405180910390f35b61095b6117c6565b604051610968919061242c565b60405180910390f35b6109796117ff565b604051610986919061242c565b60405180910390f35b610997611838565b6040516109a4919061242c565b60405180910390f35b6109b5611871565b6040516109c2919061242c565b60405180910390f35b6109d36118aa565b6040516109e0919061242c565b60405180910390f35b6109f16118e3565b6040516109fe919061242c565b60405180910390f35b610a0f61191c565b604051610a1c919061242c565b60405180910390f35b610a2d611955565b604051610a3a919061242c565b60405180910390f35b610a4b61198e565b604051610a58919061242c565b60405180910390f35b610a696119c7565b604051610a76919061242c565b60405180910390f35b610a87611a00565b604051610a94919061242c565b60405180910390f35b610aa5611a39565b604051610ab2919061242c565b60405180910390f35b610ac3611a72565b604051610ad0919061242c565b60405180910390f35b610ae1611aab565b604051610aee919061242c565b60405180910390f35b610aff611ae4565b604051610b0c919061242c565b60405180910390f35b610b1d611b1d565b604051610b2a919061242c565b60405180910390f35b610b3b611b56565b604051610b48919061242c565b60405180910390f35b610b59611b8f565b604051610b66919061242c565b60405180910390f35b610b77611bc8565b604051610b84919061242c565b60405180910390f35b610b95611c01565b604051610ba2919061242c565b60405180910390f35b610bb3611c3a565b604051610bc0919061242c565b60405180910390f35b610bd1611c73565b604051610bde919061242c565b60405180910390f35b610bef611cac565b604051610bfc919061242c565b60405180910390f35b610c0d611ce5565b604051610c1a919061242c565b60405180910390f35b610c2b611d1e565b604051610c38919061242c565b60405180910390f35b610c49611d57565b604051610c56919061242c565b60405180910390f35b610c67611d90565b604051610c74919061242c565b60405180910390f35b610c85611dc9565b604051610c92919061242c565b60405180910390f35b610ca3611e02565b604051610cb0919061242c565b60405180910390f35b610cc1611e3b565b604051610cce919061242c565b60405180910390f35b610cdf611e74565b604051610cec919061242c565b60405180910390f35b610cfd611ead565b604051610d0a919061242c565b60405180910390f35b610d1b611ee6565b604051610d28919061242c565b60405180910390f35b610d39611f1f565b604051610d46919061242c565b60405180910390f35b610d57611f58565b604051610d64919061242c565b60405180910390f35b610d75611f91565b604051610d82919061242c565b60405180910390f35b610d93611fca565b604051610da0919061242c565b60405180910390f35b610db1612003565b604051610dbe919061242c565b60405180910390f35b610dcf61203c565b604051610ddc919061242c565b60405180910390f35b610ded612075565b604051610dfa919061242c565b60405180910390f35b610e0b6120ae565b604051610e18919061242c565b60405180910390f35b610e296120e7565b604051610e36919061242c565b60405180910390f35b610e47612120565b604051610e54919061242c565b60405180910390f35b610e65612159565b604051610e72919061242c565b60405180910390f35b610e83612192565b604051610e90919061242c565b60405180910390f35b610ea16121cb565b604051610eae919061242c565b60405180910390f35b610ebf612204565b604051610ecc919061242c565b60405180910390f35b610edd61223d565b604051610eea919061242c565b60405180910390f35b610efb612276565b604051610f08919061242c565b60405180910390f35b610f196122af565b604051610f26919061242c565b60405180910390f35b610f376122e8565b604051610f44919061242c565b60405180910390f35b610f55612321565b604051610f62919061242c565b60405180910390f35b610f7361235a565b604051610f80919061242c565b60405180910390f35b6040518060400160405280600281526020017f313800000000000000000000000000000000000000000000000000000000000081525081565b6040518060400160405280600181526020017f390000000000000000000000000000000000000000000000000000000000000081525081565b6040518060400160405280600281526020017f313400000000000000000000000000000000000000000000000000000000000081525081565b6040518060400160405280600281526020017f383600000000000000000000000000000000000000000000000000000000000081525081565b6040518060400160405280600281526020017f383800000000000000000000000000000000000000000000000000000000000081525081565b6040518060400160405280600281526020017f383700000000000000000000000000000000000000000000000000000000000081525081565b6040518060400160405280600281526020017f343700000000000000000000000000000000000000000000000000000000000081525081565b6040518060400160405280600281526020017f363900000000000000000000000000000000000000000000000000000000000081525081565b6040518060400160405280600181526020017f330000000000000000000000000000000000000000000000000000000000000081525081565b6040518060400160405280600281526020017f343400000000000000000000000000000000000000000000000000000000000081525081565b6040518060400160405280600181526020017f350000000000000000000000000000000000000000000000000000000000000081525081565b6040518060400160405280600281526020017f353000000000000000000000000000000000000000000000000000000000000081525081565b6040518060400160405280600281526020017f323000000000000000000000000000000000000000000000000000000000000081525081565b6040518060400160405280600281526020017f333500000000000000000000000000000000000000000000000000000000000081525081565b6040518060400160405280600281526020017f313200000000000000000000000000000000000000000000000000000000000081525081565b6040518060400160405280600281526020017f323300000000000000000000000000000000000000000000000000000000000081525081565b6040518060400160405280600281526020017f373200000000000000000000000000000000000000000000000000000000000081525081565b6040518060400160405280600281526020017f323100000000000000000000000000000000000000000000000000000000000081525081565b6040518060400160405280600181526020017f320000000000000000000000000000000000000000000000000000000000000081525081565b6040518060400160405280600281526020017f333100000000000000000000000000000000000000000000000000000000000081525081565b6040518060400160405280600281526020017f333400000000000000000000000000000000000000000000000000000000000081525081565b6040518060400160405280600281526020017f383300000000000000000000000000000000000000000000000000000000000081525081565b6040518060400160405280600281526020017f333000000000000000000000000000000000000000000000000000000000000081525081565b6040518060400160405280600181526020017f360000000000000000000000000000000000000000000000000000000000000081525081565b6040518060400160405280600281526020017f323500000000000000000000000000000000000000000000000000000000000081525081565b6040518060400160405280600281526020017f323700000000000000000000000000000000000000000000000000000000000081525081565b6040518060400160405280600281526020017f313700000000000000000000000000000000000000000000000000000000000081525081565b6040518060400160405280600181526020017f380000000000000000000000000000000000000000000000000000000000000081525081565b6040518060400160405280600281526020017f313000000000000000000000000000000000000000000000000000000000000081525081565b6040518060400160405280600281526020017f353300000000000000000000000000000000000000000000000000000000000081525081565b6040518060400160405280600281526020017f353500000000000000000000000000000000000000000000000000000000000081525081565b6040518060400160405280600281526020017f353200000000000000000000000000000000000000000000000000000000000081525081565b6040518060400160405280600281526020017f323800000000000000000000000000000000000000000000000000000000000081525081565b6040518060400160405280600281526020017f343000000000000000000000000000000000000000000000000000000000000081525081565b6040518060400160405280600281526020017f343900000000000000000000000000000000000000000000000000000000000081525081565b6040518060400160405280600281526020017f363200000000000000000000000000000000000000000000000000000000000081525081565b6040518060400160405280600281526020017f343100000000000000000000000000000000000000000000000000000000000081525081565b6040518060400160405280600281526020017f313900000000000000000000000000000000000000000000000000000000000081525081565b6040518060400160405280600281526020017f313500000000000000000000000000000000000000000000000000000000000081525081565b6040518060400160405280600281526020017f323200000000000000000000000000000000000000000000000000000000000081525081565b6040518060400160405280600281526020017f313300000000000000000000000000000000000000000000000000000000000081525081565b6040518060400160405280600281526020017f363000000000000000000000000000000000000000000000000000000000000081525081565b6040518060400160405280600281526020017f343600000000000000000000000000000000000000000000000000000000000081525081565b6040518060400160405280600281526020017f333300000000000000000000000000000000000000000000000000000000000081525081565b6040518060400160405280600281526020017f333700000000000000000000000000000000000000000000000000000000000081525081565b6040518060400160405280600281526020017f393100000000000000000000000000000000000000000000000000000000000081525081565b6040518060400160405280600281526020017f383000000000000000000000000000000000000000000000000000000000000081525081565b6040518060400160405280600281526020017f373000000000000000000000000000000000000000000000000000000000000081525081565b6040518060400160405280600281526020017f353800000000000000000000000000000000000000000000000000000000000081525081565b6040518060400160405280600281526020017f353400000000000000000000000000000000000000000000000000000000000081525081565b6040518060400160405280600281526020017f343500000000000000000000000000000000000000000000000000000000000081525081565b6040518060400160405280600281526020017f363500000000000000000000000000000000000000000000000000000000000081525081565b6040518060400160405280600281526020017f363300000000000000000000000000000000000000000000000000000000000081525081565b6040518060400160405280600281526020017f343300000000000000000000000000000000000000000000000000000000000081525081565b6040518060400160405280600281526020017f313100000000000000000000000000000000000000000000000000000000000081525081565b6040518060400160405280600281526020017f373900000000000000000000000000000000000000000000000000000000000081525081565b6040518060400160405280600281526020017f363700000000000000000000000000000000000000000000000000000000000081525081565b6040518060400160405280600281526020017f373100000000000000000000000000000000000000000000000000000000000081525081565b6040518060400160405280600281526020017f383500000000000000000000000000000000000000000000000000000000000081525081565b6040518060400160405280600281526020017f323400000000000000000000000000000000000000000000000000000000000081525081565b6040518060400160405280600181526020017f310000000000000000000000000000000000000000000000000000000000000081525081565b6040518060400160405280600281526020017f353100000000000000000000000000000000000000000000000000000000000081525081565b6040518060400160405280600281526020017f343200000000000000000000000000000000000000000000000000000000000081525081565b6040518060400160405280600181526020017f340000000000000000000000000000000000000000000000000000000000000081525081565b6040518060400160405280600281526020017f323900000000000000000000000000000000000000000000000000000000000081525081565b6040518060400160405280600281526020017f333200000000000000000000000000000000000000000000000000000000000081525081565b6040518060400160405280600281526020017f353700000000000000000000000000000000000000000000000000000000000081525081565b6040518060400160405280600281526020017f373600000000000000000000000000000000000000000000000000000000000081525081565b6040518060400160405280600281526020017f373800000000000000000000000000000000000000000000000000000000000081525081565b6040518060400160405280600281526020017f353900000000000000000000000000000000000000000000000000000000000081525081565b6040518060400160405280600281526020017f383400000000000000000000000000000000000000000000000000000000000081525081565b6040518060400160405280600281526020017f383200000000000000000000000000000000000000000000000000000000000081525081565b6040518060400160405280600281526020017f373700000000000000000000000000000000000000000000000000000000000081525081565b6040518060400160405280600281526020017f373400000000000000000000000000000000000000000000000000000000000081525081565b6040518060400160405280600281526020017f363800000000000000000000000000000000000000000000000000000000000081525081565b6040518060400160405280600281526020017f363100000000000000000000000000000000000000000000000000000000000081525081565b6040518060400160405280600281526020017f333900000000000000000000000000000000000000000000000000000000000081525081565b6040518060400160405280600281526020017f373300000000000000000000000000000000000000000000000000000000000081525081565b6040518060400160405280600281526020017f363400000000000000000000000000000000000000000000000000000000000081525081565b6040518060400160405280600281526020017f383900000000000000000000000000000000000000000000000000000000000081525081565b6040518060400160405280600181526020017f370000000000000000000000000000000000000000000000000000000000000081525081565b6040518060400160405280600281526020017f333600000000000000000000000000000000000000000000000000000000000081525081565b6040518060400160405280600281526020017f383100000000000000000000000000000000000000000000000000000000000081525081565b6040518060400160405280600281526020017f393000000000000000000000000000000000000000000000000000000000000081525081565b6040518060400160405280600281526020017f333800000000000000000000000000000000000000000000000000000000000081525081565b6040518060400160405280600281526020017f353600000000000000000000000000000000000000000000000000000000000081525081565b6040518060400160405280600281526020017f313600000000000000000000000000000000000000000000000000000000000081525081565b6040518060400160405280600281526020017f363600000000000000000000000000000000000000000000000000000000000081525081565b6040518060400160405280600281526020017f323600000000000000000000000000000000000000000000000000000000000081525081565b6040518060400160405280600281526020017f373500000000000000000000000000000000000000000000000000000000000081525081565b600081519050919050565b600082825260208201905092915050565b60005b838110156123cd5780820151818401526020810190506123b2565b838111156123dc576000848401525b50505050565b6000601f19601f8301169050919050565b60006123fe82612393565b612408818561239e565b93506124188185602086016123af565b612421816123e2565b840191505092915050565b6000602082019050818103600083015261244681846123f3565b90509291505056fea2646970667358221220fb9c011a147efd5a0dd31c91dc662ec8b40d74a7ae5bddcd84cc023dfdf59fb964736f6c634300080a0033",
  "immutableReferences": {},
  "source": "// SPDX-License-Identifier: BUSL-1.1\npragma solidity ^0.8.0;\n\n/**\n * @title Errors library\n * @author Aave\n * @notice Defines the error messages emitted by the different contracts of the Aave protocol\n */\nlibrary Errors {\n  string public constant CALLER_NOT_POOL_ADMIN = '1'; // 'The caller of the function is not a pool admin'\n  string public constant CALLER_NOT_EMERGENCY_ADMIN = '2'; // 'The caller of the function is not an emergency admin'\n  string public constant CALLER_NOT_POOL_OR_EMERGENCY_ADMIN = '3'; // 'The caller of the function is not a pool or emergency admin'\n  string public constant CALLER_NOT_RISK_OR_POOL_ADMIN = '4'; // 'The caller of the function is not a risk or pool admin'\n  string public constant CALLER_NOT_ASSET_LISTING_OR_POOL_ADMIN = '5'; // 'The caller of the function is not an asset listing or pool admin'\n  string public constant CALLER_NOT_BRIDGE = '6'; // 'The caller of the function is not a bridge'\n  string public constant ADDRESSES_PROVIDER_NOT_REGISTERED = '7'; // 'Pool addresses provider is not registered'\n  string public constant INVALID_ADDRESSES_PROVIDER_ID = '8'; // 'Invalid id for the pool addresses provider'\n  string public constant NOT_CONTRACT = '9'; // 'Address is not a contract'\n  string public constant CALLER_NOT_POOL_CONFIGURATOR = '10'; // 'The caller of the function is not the pool configurator'\n  string public constant CALLER_NOT_ATOKEN = '11'; // 'The caller of the function is not an AToken'\n  string public constant INVALID_ADDRESSES_PROVIDER = '12'; // 'The address of the pool addresses provider is invalid'\n  string public constant INVALID_FLASHLOAN_EXECUTOR_RETURN = '13'; // 'Invalid return value of the flashloan executor function'\n  string public constant RESERVE_ALREADY_ADDED = '14'; // 'Reserve has already been added to reserve list'\n  string public constant NO_MORE_RESERVES_ALLOWED = '15'; // 'Maximum amount of reserves in the pool reached'\n  string public constant EMODE_CATEGORY_RESERVED = '16'; // 'Zero eMode category is reserved for volatile heterogeneous assets'\n  string public constant INVALID_EMODE_CATEGORY_ASSIGNMENT = '17'; // 'Invalid eMode category assignment to asset'\n  string public constant RESERVE_LIQUIDITY_NOT_ZERO = '18'; // 'The liquidity of the reserve needs to be 0'\n  string public constant FLASHLOAN_PREMIUM_INVALID = '19'; // 'Invalid flashloan premium'\n  string public constant INVALID_RESERVE_PARAMS = '20'; // 'Invalid risk parameters for the reserve'\n  string public constant INVALID_EMODE_CATEGORY_PARAMS = '21'; // 'Invalid risk parameters for the eMode category'\n  string public constant BRIDGE_PROTOCOL_FEE_INVALID = '22'; // 'Invalid bridge protocol fee'\n  string public constant CALLER_MUST_BE_POOL = '23'; // 'The caller of this function must be a pool'\n  string public constant INVALID_MINT_AMOUNT = '24'; // 'Invalid amount to mint'\n  string public constant INVALID_BURN_AMOUNT = '25'; // 'Invalid amount to burn'\n  string public constant INVALID_AMOUNT = '26'; // 'Amount must be greater than 0'\n  string public constant RESERVE_INACTIVE = '27'; // 'Action requires an active reserve'\n  string public constant RESERVE_FROZEN = '28'; // 'Action cannot be performed because the reserve is frozen'\n  string public constant RESERVE_PAUSED = '29'; // 'Action cannot be performed because the reserve is paused'\n  string public constant BORROWING_NOT_ENABLED = '30'; // 'Borrowing is not enabled'\n  string public constant STABLE_BORROWING_NOT_ENABLED = '31'; // 'Stable borrowing is not enabled'\n  string public constant NOT_ENOUGH_AVAILABLE_USER_BALANCE = '32'; // 'User cannot withdraw more than the available balance'\n  string public constant INVALID_INTEREST_RATE_MODE_SELECTED = '33'; // 'Invalid interest rate mode selected'\n  string public constant COLLATERAL_BALANCE_IS_ZERO = '34'; // 'The collateral balance is 0'\n  string public constant HEALTH_FACTOR_LOWER_THAN_LIQUIDATION_THRESHOLD = '35'; // 'Health factor is lesser than the liquidation threshold'\n  string public constant COLLATERAL_CANNOT_COVER_NEW_BORROW = '36'; // 'There is not enough collateral to cover a new borrow'\n  string public constant COLLATERAL_SAME_AS_BORROWING_CURRENCY = '37'; // 'Collateral is (mostly) the same currency that is being borrowed'\n  string public constant AMOUNT_BIGGER_THAN_MAX_LOAN_SIZE_STABLE = '38'; // 'The requested amount is greater than the max loan size in stable rate mode'\n  string public constant NO_DEBT_OF_SELECTED_TYPE = '39'; // 'For repayment of a specific type of debt, the user needs to have debt that type'\n  string public constant NO_EXPLICIT_AMOUNT_TO_REPAY_ON_BEHALF = '40'; // 'To repay on behalf of a user an explicit amount to repay is needed'\n  string public constant NO_OUTSTANDING_STABLE_DEBT = '41'; // 'User does not have outstanding stable rate debt on this reserve'\n  string public constant NO_OUTSTANDING_VARIABLE_DEBT = '42'; // 'User does not have outstanding variable rate debt on this reserve'\n  string public constant UNDERLYING_BALANCE_ZERO = '43'; // 'The underlying balance needs to be greater than 0'\n  string public constant INTEREST_RATE_REBALANCE_CONDITIONS_NOT_MET = '44'; // 'Interest rate rebalance conditions were not met'\n  string public constant HEALTH_FACTOR_NOT_BELOW_THRESHOLD = '45'; // 'Health factor is not below the threshold'\n  string public constant COLLATERAL_CANNOT_BE_LIQUIDATED = '46'; // 'The collateral chosen cannot be liquidated'\n  string public constant SPECIFIED_CURRENCY_NOT_BORROWED_BY_USER = '47'; // 'User did not borrow the specified currency'\n  string public constant INCONSISTENT_FLASHLOAN_PARAMS = '49'; // 'Inconsistent flashloan parameters'\n  string public constant BORROW_CAP_EXCEEDED = '50'; // 'Borrow cap is exceeded'\n  string public constant SUPPLY_CAP_EXCEEDED = '51'; // 'Supply cap is exceeded'\n  string public constant UNBACKED_MINT_CAP_EXCEEDED = '52'; // 'Unbacked mint cap is exceeded'\n  string public constant DEBT_CEILING_EXCEEDED = '53'; // 'Debt ceiling is exceeded'\n  string public constant UNDERLYING_CLAIMABLE_RIGHTS_NOT_ZERO = '54'; // 'Claimable rights over underlying not zero (aToken supply or accruedToTreasury)'\n  string public constant STABLE_DEBT_NOT_ZERO = '55'; // 'Stable debt supply is not zero'\n  string public constant VARIABLE_DEBT_SUPPLY_NOT_ZERO = '56'; // 'Variable debt supply is not zero'\n  string public constant LTV_VALIDATION_FAILED = '57'; // 'Ltv validation failed'\n  string public constant INCONSISTENT_EMODE_CATEGORY = '58'; // 'Inconsistent eMode category'\n  string public constant PRICE_ORACLE_SENTINEL_CHECK_FAILED = '59'; // 'Price oracle sentinel validation failed'\n  string public constant ASSET_NOT_BORROWABLE_IN_ISOLATION = '60'; // 'Asset is not borrowable in isolation mode'\n  string public constant RESERVE_ALREADY_INITIALIZED = '61'; // 'Reserve has already been initialized'\n  string public constant USER_IN_ISOLATION_MODE = '62'; // 'User is in isolation mode'\n  string public constant INVALID_LTV = '63'; // 'Invalid ltv parameter for the reserve'\n  string public constant INVALID_LIQ_THRESHOLD = '64'; // 'Invalid liquidity threshold parameter for the reserve'\n  string public constant INVALID_LIQ_BONUS = '65'; // 'Invalid liquidity bonus parameter for the reserve'\n  string public constant INVALID_DECIMALS = '66'; // 'Invalid decimals parameter of the underlying asset of the reserve'\n  string public constant INVALID_RESERVE_FACTOR = '67'; // 'Invalid reserve factor parameter for the reserve'\n  string public constant INVALID_BORROW_CAP = '68'; // 'Invalid borrow cap for the reserve'\n  string public constant INVALID_SUPPLY_CAP = '69'; // 'Invalid supply cap for the reserve'\n  string public constant INVALID_LIQUIDATION_PROTOCOL_FEE = '70'; // 'Invalid liquidation protocol fee for the reserve'\n  string public constant INVALID_EMODE_CATEGORY = '71'; // 'Invalid eMode category for the reserve'\n  string public constant INVALID_UNBACKED_MINT_CAP = '72'; // 'Invalid unbacked mint cap for the reserve'\n  string public constant INVALID_DEBT_CEILING = '73'; // 'Invalid debt ceiling for the reserve\n  string public constant INVALID_RESERVE_INDEX = '74'; // 'Invalid reserve index'\n  string public constant ACL_ADMIN_CANNOT_BE_ZERO = '75'; // 'ACL admin cannot be set to the zero address'\n  string public constant INCONSISTENT_PARAMS_LENGTH = '76'; // 'Array parameters that should be equal length are not'\n  string public constant ZERO_ADDRESS_NOT_VALID = '77'; // 'Zero address not valid'\n  string public constant INVALID_EXPIRATION = '78'; // 'Invalid expiration'\n  string public constant INVALID_SIGNATURE = '79'; // 'Invalid signature'\n  string public constant OPERATION_NOT_SUPPORTED = '80'; // 'Operation not supported'\n  string public constant DEBT_CEILING_NOT_ZERO = '81'; // 'Debt ceiling is not zero'\n  string public constant ASSET_NOT_LISTED = '82'; // 'Asset is not listed'\n  string public constant INVALID_OPTIMAL_USAGE_RATIO = '83'; // 'Invalid optimal usage ratio'\n  string public constant INVALID_OPTIMAL_STABLE_TO_TOTAL_DEBT_RATIO = '84'; // 'Invalid optimal stable to total debt ratio'\n  string public constant UNDERLYING_CANNOT_BE_RESCUED = '85'; // 'The underlying asset cannot be rescued'\n  string public constant ADDRESSES_PROVIDER_ALREADY_ADDED = '86'; // 'Reserve has already been added to reserve list'\n  string public constant POOL_ADDRESSES_DO_NOT_MATCH = '87'; // 'The token implementation pool address and the pool address provided by the initializing pool do not match'\n  string public constant STABLE_BORROWING_ENABLED = '88'; // 'Stable borrowing is enabled'\n  string public constant SILOED_BORROWING_VIOLATION = '89'; // 'User is trying to borrow multiple assets including a siloed one'\n  string public constant RESERVE_DEBT_NOT_ZERO = '90'; // the total debt of the reserve needs to be 0\n  string public constant FLASHLOAN_DISABLED = '91'; // FlashLoaning for this asset is disabled\n}\n",
  "sourcePath": "@aave/core-v3/contracts/protocol/libraries/helpers/Errors.sol",
  "compiler": {
    "name": "solc",
    "version": "0.8.10+commit.fc410830.Emscripten.clang"
  },
  "schemaVersion": "3.4.10",
  "updatedAt": "2022-12-27T10:19:56.660Z",
  "devdoc": {
    "author": "Aave",
    "kind": "dev",
    "methods": {},
    "title": "Errors library",
    "version": 1
  },
  "userdoc": {
    "kind": "user",
    "methods": {},
    "notice": "Defines the error messages emitted by the different contracts of the Aave protocol",
    "version": 1
  }
}