{
  "contractName": "UniV3Close",
  "abi": [
    {
      "inputs": [
        {
          "internalType": "address",
          "name": "treasury",
          "type": "address"
        },
        {
          "internalType": "string",
          "name": "key",
          "type": "string"
        }
      ],
      "name": "getData",
      "outputs": [
        {
          "internalType": "bytes",
          "name": "",
          "type": "bytes"
        }
      ],
      "stateMutability": "view",
      "type": "function"
    },
    {
      "inputs": [
        {
          "internalType": "address",
          "name": "user",
          "type": "address"
        }
      ],
      "name": "getVerificationContract",
      "outputs": [],
      "stateMutability": "view",
      "type": "function"
    },
    {
      "inputs": [
        {
          "internalType": "bytes",
          "name": "data",
          "type": "bytes"
        }
      ],
      "name": "init",
      "outputs": [
        {
          "internalType": "bytes",
          "name": "",
          "type": "bytes"
        }
      ],
      "stateMutability": "payable",
      "type": "function"
    },
    {
      "inputs": [],
      "name": "init",
      "outputs": [
        {
          "internalType": "bytes",
          "name": "",
          "type": "bytes"
        }
      ],
      "stateMutability": "payable",
      "type": "function"
    },
    {
      "inputs": [
        {
          "internalType": "bytes",
          "name": "data",
          "type": "bytes"
        }
      ],
      "name": "execute",
      "outputs": [
        {
          "internalType": "bytes",
          "name": "",
          "type": "bytes"
        }
      ],
      "stateMutability": "payable",
      "type": "function"
    }
  ],
  "bytecode": "0x608060405234801561001057600080fd5b506110d0806100206000396000f3fe60806040526004361061004a5760003560e01c806309c5eabe1461004f5780633bf58dba1461007f5780634ddf47d4146100bc578063e1c7392a146100ec578063eea991921461010a575b600080fd5b61006960048036038101906100649190610701565b610133565b60405161007691906107e7565b60405180910390f35b34801561008b57600080fd5b506100a660048036038101906100a19190610997565b61017b565b6040516100b391906107e7565b60405180910390f35b6100d660048036038101906100d19190610a94565b61024a565b6040516100e391906107e7565b60405180910390f35b6100f46102ba565b60405161010191906107e7565b60405180910390f35b34801561011657600080fd5b50610131600480360381019061012c9190610add565b610328565b005b60606000806000610144868661032b565b9250925092506101548183610352565b61015e8383610425565b505060405180602001604052806000815250935050505092915050565b606060003083604051602001610192929190610b6e565b6040516020818303038152906040526040516020016101b19190610bda565b60405160208183030381529060405290508373ffffffffffffffffffffffffffffffffffffffff16639ff420b7826040518263ffffffff1660e01b81526004016101fb9190610bf1565b600060405180830381865afa158015610218573d6000803e3d6000fd5b505050506040513d6000823e3d601f19601f820116820180604052508101906102419190610c83565b91505092915050565b606060016000803373ffffffffffffffffffffffffffffffffffffffff1673ffffffffffffffffffffffffffffffffffffffff16815260200190815260200160002060006101000a81548160ff021916908315150217905550604051806020016040528060008152509050919050565b606060016000803373ffffffffffffffffffffffffffffffffffffffff1673ffffffffffffffffffffffffffffffffffffffff16815260200190815260200160002060006101000a81548160ff02191690831515021790555060405180602001604052806000815250905090565b50565b6000806060848481019061033f9190610d40565b8093508194508295505050509250925092565b600080600080600080610364886105b9565b955095509550955095509550600086868686868660405160240161038d96959493929190610df3565b6040516020818303038152906040527f7ac2ff7b000000000000000000000000000000000000000000000000000000007bffffffffffffffffffffffffffffffffffffffffffffffffffffffff19166020820180517bffffffffffffffffffffffffffffffffffffffffffffffffffffffff8381831617835250505050905061041933898360006105f7565b50505050505050505050565b6000806000839050600060405180608001604052808781526020013073ffffffffffffffffffffffffffffffffffffffff1681526020016fffffffffffffffffffffffffffffffff801681526020016fffffffffffffffffffffffffffffffff801681525090508173ffffffffffffffffffffffffffffffffffffffff1663fc6f7865826040518263ffffffff1660e01b81526004016104c59190610ef2565b60408051808303816000875af11580156104e3573d6000803e3d6000fd5b505050506040513d601f19601f820116820180604052508101906105079190610f22565b80945081955050506000816040516024016105229190610ef2565b6040516020818303038152906040527ffc6f7865000000000000000000000000000000000000000000000000000000007bffffffffffffffffffffffffffffffffffffffffffffffffffffffff19166020820180517bffffffffffffffffffffffffffffffffffffffffffffffffffffffff838183161783525050505090506105ae33878360006105f7565b505050509250929050565b600080600080600080868060200190518101906105d69190610fcf565b809650819750829850839950849a50859b5050505050505091939550919395565b60608473ffffffffffffffffffffffffffffffffffffffff16633595a80d8584866040518463ffffffff1660e01b81526004016106369392919061105c565b6000604051808303816000875af1158015610655573d6000803e3d6000fd5b505050506040513d6000823e3d601f19601f8201168201806040525081019061067e9190610c83565b9050949350505050565b6000604051905090565b600080fd5b600080fd5b600080fd5b600080fd5b600080fd5b60008083601f8401126106c1576106c061069c565b5b8235905067ffffffffffffffff8111156106de576106dd6106a1565b5b6020830191508360018202830111156106fa576106f96106a6565b5b9250929050565b6000806020838503121561071857610717610692565b5b600083013567ffffffffffffffff81111561073657610735610697565b5b610742858286016106ab565b92509250509250929050565b600081519050919050565b600082825260208201905092915050565b60005b8381101561078857808201518184015260208101905061076d565b83811115610797576000848401525b50505050565b6000601f19601f8301169050919050565b60006107b98261074e565b6107c38185610759565b93506107d381856020860161076a565b6107dc8161079d565b840191505092915050565b6000602082019050818103600083015261080181846107ae565b905092915050565b600073ffffffffffffffffffffffffffffffffffffffff82169050919050565b600061083482610809565b9050919050565b61084481610829565b811461084f57600080fd5b50565b6000813590506108618161083b565b92915050565b600080fd5b7f4e487b7100000000000000000000000000000000000000000000000000000000600052604160045260246000fd5b6108a48261079d565b810181811067ffffffffffffffff821117156108c3576108c261086c565b5b80604052505050565b60006108d6610688565b90506108e2828261089b565b919050565b600067ffffffffffffffff8211156109025761090161086c565b5b61090b8261079d565b9050602081019050919050565b82818337600083830152505050565b600061093a610935846108e7565b6108cc565b90508281526020810184848401111561095657610955610867565b5b610961848285610918565b509392505050565b600082601f83011261097e5761097d61069c565b5b813561098e848260208601610927565b91505092915050565b600080604083850312156109ae576109ad610692565b5b60006109bc85828601610852565b925050602083013567ffffffffffffffff8111156109dd576109dc610697565b5b6109e985828601610969565b9150509250929050565b600067ffffffffffffffff821115610a0e57610a0d61086c565b5b610a178261079d565b9050602081019050919050565b6000610a37610a32846109f3565b6108cc565b905082815260208101848484011115610a5357610a52610867565b5b610a5e848285610918565b509392505050565b600082601f830112610a7b57610a7a61069c565b5b8135610a8b848260208601610a24565b91505092915050565b600060208284031215610aaa57610aa9610692565b5b600082013567ffffffffffffffff811115610ac857610ac7610697565b5b610ad484828501610a66565b91505092915050565b600060208284031215610af357610af2610692565b5b6000610b0184828501610852565b91505092915050565b610b1381610829565b82525050565b600081519050919050565b600082825260208201905092915050565b6000610b4082610b19565b610b4a8185610b24565b9350610b5a81856020860161076a565b610b638161079d565b840191505092915050565b6000604082019050610b836000830185610b0a565b8181036020830152610b958184610b35565b90509392505050565b600081905092915050565b6000610bb48261074e565b610bbe8185610b9e565b9350610bce81856020860161076a565b80840191505092915050565b6000610be68284610ba9565b915081905092915050565b60006020820190508181036000830152610c0b8184610b35565b905092915050565b6000610c26610c21846109f3565b6108cc565b905082815260208101848484011115610c4257610c41610867565b5b610c4d84828561076a565b509392505050565b600082601f830112610c6a57610c6961069c565b5b8151610c7a848260208601610c13565b91505092915050565b600060208284031215610c9957610c98610692565b5b600082015167ffffffffffffffff811115610cb757610cb6610697565b5b610cc384828501610c55565b91505092915050565b6000819050919050565b610cdf81610ccc565b8114610cea57600080fd5b50565b600081359050610cfc81610cd6565b92915050565b6000610d0d82610809565b9050919050565b610d1d81610d02565b8114610d2857600080fd5b50565b600081359050610d3a81610d14565b92915050565b600080600060608486031215610d5957610d58610692565b5b6000610d6786828701610ced565b9350506020610d7886828701610d2b565b925050604084013567ffffffffffffffff811115610d9957610d98610697565b5b610da586828701610a66565b9150509250925092565b610db881610ccc565b82525050565b600060ff82169050919050565b610dd481610dbe565b82525050565b6000819050919050565b610ded81610dda565b82525050565b600060c082019050610e086000830189610b0a565b610e156020830188610daf565b610e226040830187610daf565b610e2f6060830186610dcb565b610e3c6080830185610de4565b610e4960a0830184610de4565b979650505050505050565b610e5d81610ccc565b82525050565b610e6c81610829565b82525050565b60006fffffffffffffffffffffffffffffffff82169050919050565b610e9781610e72565b82525050565b608082016000820151610eb36000850182610e54565b506020820151610ec66020850182610e63565b506040820151610ed96040850182610e8e565b506060820151610eec6060850182610e8e565b50505050565b6000608082019050610f076000830184610e9d565b92915050565b600081519050610f1c81610cd6565b92915050565b60008060408385031215610f3957610f38610692565b5b6000610f4785828601610f0d565b9250506020610f5885828601610f0d565b9150509250929050565b600081519050610f7181610d14565b92915050565b610f8081610dbe565b8114610f8b57600080fd5b50565b600081519050610f9d81610f77565b92915050565b610fac81610dda565b8114610fb757600080fd5b50565b600081519050610fc981610fa3565b92915050565b60008060008060008060c08789031215610fec57610feb610692565b5b6000610ffa89828a01610f62565b965050602061100b89828a01610f0d565b955050604061101c89828a01610f0d565b945050606061102d89828a01610f8e565b935050608061103e89828a01610fba565b92505060a061104f89828a01610fba565b9150509295509295509295565b60006060820190506110716000830186610b0a565b61107e6020830185610daf565b818103604083015261109081846107ae565b905094935050505056fea2646970667358221220917d269e0a1df622a86603d70a8c9b76a3ceb6f9e4f403ba72f8cdb5cb0a133564736f6c634300080a0033",
  "immutableReferences": {},
  "source": "// SPDX-License-Identifier: UNLICENSED\npragma solidity ^0.8.0;\n\nimport \"../Action.sol\";\n\ninterface INonfungiblePositionManager {\n    struct MintParams {\n        address token0;\n        address token1;\n        uint24 fee;\n        int24 tickLower;\n        int24 tickUpper;\n        uint256 amount0Desired;\n        uint256 amount1Desired;\n        uint256 amount0Min;\n        uint256 amount1Min;\n        address recipient;\n        uint256 deadline;\n    }\n\n    function mint(MintParams calldata params)\n        external\n        payable\n        returns (\n            uint256 tokenId,\n            uint128 liquidity,\n            uint256 amount0,\n            uint256 amount1\n        );\n\n    struct IncreaseLiquidityParams {\n        uint256 tokenId;\n        uint256 amount0Desired;\n        uint256 amount1Desired;\n        uint256 amount0Min;\n        uint256 amount1Min;\n        uint256 deadline;\n    }\n\n    function increaseLiquidity(IncreaseLiquidityParams calldata params)\n        external\n        payable\n        returns (\n            uint128 liquidity,\n            uint256 amount0,\n            uint256 amount1\n        );\n\n    struct DecreaseLiquidityParams {\n        uint256 tokenId;\n        uint128 liquidity;\n        uint256 amount0Min;\n        uint256 amount1Min;\n        uint256 deadline;\n    }\n\n    function decreaseLiquidity(DecreaseLiquidityParams calldata params)\n        external\n        payable\n        returns (uint256 amount0, uint256 amount1);\n\n    struct CollectParams {\n        uint256 tokenId;\n        address recipient;\n        uint128 amount0Max;\n        uint128 amount1Max;\n    }\n\n    function collect(CollectParams calldata params)\n        external\n        payable\n        returns (uint256 amount0, uint256 amount1);\n}\n\n\ncontract UniV3Close is Action {\n    // function _init(\n    //     uint256 tokenId,\n    //     address positionManagerAddress,\n    //     bytes calldata data,\n    //     string memory key\n    // ) internal {\n    //     storeData(msg.sender, key, data);\n    // }\n\n    function execute(bytes calldata data)\n        external\n        payable\n        override\n        returns (bytes memory)\n    {\n        (\n            uint256 tokenId,\n            address positionManagerAddress,\n            bytes memory sigInfo\n        ) = decode(data);\n        verifyPermitTransfer(sigInfo, positionManagerAddress);\n        collectAllFees(tokenId, positionManagerAddress);\n        return bytes(\"\");\n    }\n\n    function decodeSig(bytes memory data)\n        internal\n        pure\n        returns (\n            address spender,\n            uint256 tokenId,\n            uint256 deadline,\n            uint8 v,\n            bytes32 r,\n            bytes32 s\n        )\n    {\n        (spender, tokenId, deadline, v, r, s) = abi.decode(\n            data,\n            (address, uint256, uint256, uint8, bytes32, bytes32)\n        );\n    }\n\n    function decode(bytes calldata data)\n        internal\n        pure\n        returns (\n            uint256 tokenId,\n            address positionManagerAddress,\n            bytes memory sigInfo\n        )\n    {\n        (tokenId, positionManagerAddress, sigInfo) = abi.decode(\n            data,\n            (uint256, address, bytes)\n        );\n    }\n\n    function verifyPermitTransfer(\n        bytes memory sigInfo,\n        address positionManagerAddress\n    ) private {\n        (\n            address spender,\n            uint256 tokenId,\n            uint256 deadline,\n            uint8 v,\n            bytes32 r,\n            bytes32 s\n        ) = decodeSig(sigInfo);\n        bytes memory data = abi.encodeWithSignature(\n            \"permit(address,uint256,uint256,uint8,bytes32,bytes32)\",\n            spender,\n            tokenId,\n            deadline,\n            v,\n            r,\n            s\n        );\n        sendCallOp(msg.sender, positionManagerAddress, data, 0);\n    }\n\n    function collectAllFees(uint256 tokenId, address positionManagerAddress)\n        internal\n        returns (uint256 amount0, uint256 amount1)\n    {\n        INonfungiblePositionManager nonfungiblePositionManager = INonfungiblePositionManager(\n                positionManagerAddress\n            );\n        INonfungiblePositionManager.CollectParams\n            memory params = INonfungiblePositionManager.CollectParams({\n                tokenId: tokenId,\n                recipient: address(this),\n                amount0Max: type(uint128).max,\n                amount1Max: type(uint128).max\n            });\n\n        (amount0, amount1) = nonfungiblePositionManager.collect(params);\n        bytes memory data = abi.encodeWithSignature(\n            \"collect((uint256,address,uint128,uint128))\",\n            params\n        );\n        sendCallOp(msg.sender, positionManagerAddress, data, 0);\n    }\n}\n",
  "sourcePath": "/Users/calebsirak/fun/wallet-sdk-v1/web3/contracts/wallet/actions/UniCloseAction.sol",
  "compiler": {
    "name": "solc",
    "version": "0.8.10+commit.fc410830.Emscripten.clang"
  },
  "schemaVersion": "3.4.10",
  "updatedAt": "2023-01-06T16:41:43.841Z",
  "devdoc": {
    "kind": "dev",
    "methods": {},
    "version": 1
  },
  "userdoc": {
    "kind": "user",
    "methods": {},
    "version": 1
  }
}