{"_format":"hh-sol-artifact-1","contractName":"AaveWithdraw","sourceName":"contracts/modules/actions/AaveWithdraw.sol","abi":[{"anonymous":false,"inputs":[{"indexed":true,"internalType":"address","name":"userAddr","type":"address"},{"indexed":true,"internalType":"address","name":"assetAddr","type":"address"},{"indexed":false,"internalType":"uint256","name":"position","type":"uint256"}],"name":"AaveWithdrawExecuted","type":"event"},{"inputs":[],"name":"EMPTY_BYTES32","outputs":[{"internalType":"bytes32","name":"","type":"bytes32"}],"stateMutability":"view","type":"function"},{"inputs":[],"name":"EMPTY_STATE","outputs":[{"internalType":"bytes","name":"","type":"bytes"}],"stateMutability":"view","type":"function"},{"inputs":[{"internalType":"bytes","name":"data","type":"bytes"}],"name":"execute","outputs":[{"internalType":"bytes","name":"","type":"bytes"}],"stateMutability":"payable","type":"function"},{"inputs":[],"name":"getState","outputs":[{"internalType":"bytes","name":"state","type":"bytes"}],"stateMutability":"view","type":"function"},{"inputs":[{"internalType":"bytes","name":"","type":"bytes"}],"name":"init","outputs":[{"internalType":"bytes","name":"","type":"bytes"}],"stateMutability":"payable","type":"function"},{"inputs":[],"name":"payFee","outputs":[],"stateMutability":"payable","type":"function"},{"inputs":[{"internalType":"bytes","name":"data","type":"bytes"},{"components":[{"internalType":"bytes32","name":"action","type":"bytes32"},{"internalType":"bytes","name":"target","type":"bytes"},{"internalType":"enum Keyword","name":"keyword","type":"uint8"},{"internalType":"bytes32","name":"extent","type":"bytes32"}],"internalType":"struct Rule[]","name":"rules","type":"tuple[]"}],"name":"validate","outputs":[],"stateMutability":"view","type":"function"},{"stateMutability":"payable","type":"receive"}],"bytecode":"0x608060405234801561001057600080fd5b50611675806100206000396000f3fe6080604052600436106100745760003560e01c80633d14319d1161004e5780633d14319d146100c05780634ddf47d4146100e357806352bd4f41146100f65780638db71efb1461011657600080fd5b806309c5eabe146100805780631865c57d146100a957806329610252146100be57600080fd5b3661007b57005b600080fd5b61009361008e366004611180565b61015f565b6040516100a0919061123c565b60405180910390f35b3480156100b557600080fd5b506100936105cf565b005b3480156100cc57600080fd5b506100d5600081565b6040519081526020016100a0565b6100936100f1366004611180565b610671565b34801561010257600080fd5b506100be610111366004611256565b610726565b34801561012257600080fd5b506100936040518060400160405280600b81526020017f454d5054595f535441544500000000000000000000000000000000000000000081525081565b6060600080600061017086866107ba565b92509250925060008273ffffffffffffffffffffffffffffffffffffffff16637535d2466040518163ffffffff1660e01b8152600401602060405180830381865afa1580156101c3573d6000803e3d6000fd5b505050506040513d601f19601f820116820180604052508101906101e79190611315565b6040517fdd62ed3e00000000000000000000000000000000000000000000000000000000815273ffffffffffffffffffffffffffffffffffffffff868116600483015233602483015291925060009185169063dd62ed3e90604401602060405180830381865afa15801561025f573d6000803e3d6000fd5b505050506040513d601f19601f820116820180604052508101906102839190611332565b6040517f70a0823100000000000000000000000000000000000000000000000000000000815273ffffffffffffffffffffffffffffffffffffffff87811660048301529192506000918616906370a0823190602401602060405180830381865afa1580156102f5573d6000803e3d6000fd5b505050506040513d601f19601f820116820180604052508101906103199190611332565b905060008573ffffffffffffffffffffffffffffffffffffffff1663b16a19de6040518163ffffffff1660e01b8152600401602060405180830381865afa158015610368573d6000803e3d6000fd5b505050506040513d601f19601f8201168201806040525081019061038c9190611315565b9050600082841061039d578261039f565b835b90508581106103ae57856103b0565b805b60405173ffffffffffffffffffffffffffffffffffffffff8a16602482015233604482015260648101829052909150600090608401604080517fffffffffffffffffffffffffffffffffffffffffffffffffffffffffffffffe08184030181529190526020810180517bffffffffffffffffffffffffffffffffffffffffffffffffffffffff167f23b872dd000000000000000000000000000000000000000000000000000000001790529050610469886000836107d8565b5060405173ffffffffffffffffffffffffffffffffffffffff8085166024830152604482018490528a166064820152600090608401604080517fffffffffffffffffffffffffffffffffffffffffffffffffffffffffffffffe08184030181529190526020810180517bffffffffffffffffffffffffffffffffffffffffffffffffffffffff167f69328dec000000000000000000000000000000000000000000000000000000001790529050610522876000836107d8565b508373ffffffffffffffffffffffffffffffffffffffff168a73ffffffffffffffffffffffffffffffffffffffff167f0bc5caef5a4698763d4432bfa1476f93d9e2db5e391abf21afb23761745d84f78560405161058291815260200190565b60405180910390a3505060408051808201909152600b81527f454d5054595f535441544500000000000000000000000000000000000000000060208201529b9a5050505050505050505050565b6040517fd06403d6000000000000000000000000000000000000000000000000000000008152306004820152606090339063d06403d690602401600060405180830381865afa158015610626573d6000803e3d6000fd5b505050506040513d6000823e601f3d9081017fffffffffffffffffffffffffffffffffffffffffffffffffffffffffffffffe016820160405261066c919081019061137a565b905090565b6060600061067d6105cf565b5111156106eb576040517f08c379a000000000000000000000000000000000000000000000000000000000815260206004820152601d60248201527f6d6f64756c6520697320616c726561647920696e697469616c697a656400000060448201526064015b60405180910390fd5b5060408051808201909152600b81527f454d5054595f5354415445000000000000000000000000000000000000000000602082015292915050565b600080600061073587876107ba565b9250925092506000838360405160200161077292919073ffffffffffffffffffffffffffffffffffffffff92831681529116602082015260400190565b604080517fffffffffffffffffffffffffffffffffffffffffffffffffffffffffffffffe081840301815291905290506107b0868660008486610888565b5050505050505050565b600080806107ca84860186611445565b919790965090945092505050565b6040517f20d2a20f00000000000000000000000000000000000000000000000000000000815260609033906320d2a20f9061081b90879087908790600401611486565b6000604051808303816000875af115801561083a573d6000803e3d6000fd5b505050506040513d6000823e601f3d9081017fffffffffffffffffffffffffffffffffffffffffffffffffffffffffffffffe0168201604052610880919081019061137a565b949350505050565b60005b61ffff81168511156110a5577f2a0000000000000000000000000000000000000000000000000000000000000086868361ffff168181106108ce576108ce6114c4565b90506020028101906108e091906114f3565b35148061091457508386868361ffff168181106108ff576108ff6114c4565b905060200281019061091191906114f3565b35145b1561109357600086868361ffff16818110610931576109316114c4565b905060200281019061094391906114f3565b610951906020810190611531565b60405161095f929190611596565b60408051918290038220828201909152600182527f2a0000000000000000000000000000000000000000000000000000000000000060209092019190915290507f04994f67dc55b09e814ab7ffc8df3686b4afb2bb53e60eae97ef043fe03fb8298114806109d257508351602085012081145b15611091576000610a0b88888561ffff168181106109f2576109f26114c4565b9050602002810190610a0491906114f3565b6060013590565b9050600688888561ffff16818110610a2557610a256114c4565b9050602002810190610a3791906114f3565b610a489060608101906040016115d5565b6006811115610a5957610a596115a6565b1415610a6757505050611130565b600088888561ffff16818110610a7f57610a7f6114c4565b9050602002810190610a9191906114f3565b610aa29060608101906040016115d5565b6006811115610ab357610ab36115a6565b1415610b4d57808411610b48576040517f08c379a000000000000000000000000000000000000000000000000000000000815260206004820152603760248201527f556e617574686f72697a656420616374696f6e3a20657874656e742073686f7560448201527f6c642062652067726561746572207468616e2072756c6500000000000000000060648201526084016106e2565b611089565b600188888561ffff16818110610b6557610b656114c4565b9050602002810190610b7791906114f3565b610b889060608101906040016115d5565b6006811115610b9957610b996115a6565b1415610c2e57808410610b48576040517f08c379a000000000000000000000000000000000000000000000000000000000815260206004820152603760248201527f556e617574686f72697a656420616374696f6e3a20657874656e742073686f7560448201527f6c6420626520736d616c6c6572207468616e2072756c6500000000000000000060648201526084016106e2565b600288888561ffff16818110610c4657610c466114c4565b9050602002810190610c5891906114f3565b610c699060608101906040016115d5565b6006811115610c7a57610c7a6115a6565b1415610d3557808414610b48576040517f08c379a000000000000000000000000000000000000000000000000000000000815260206004820152604160248201527f556e617574686f72697a656420616374696f6e3a20657874656e742073686f7560448201527f6c6420626520657175616c20746f2074686520657874656e74206f662072756c60648201527f6500000000000000000000000000000000000000000000000000000000000000608482015260a4016106e2565b600388888561ffff16818110610d4d57610d4d6114c4565b9050602002810190610d5f91906114f3565b610d709060608101906040016115d5565b6006811115610d8157610d816115a6565b1415610e3d5780841015610b48576040517f08c379a000000000000000000000000000000000000000000000000000000000815260206004820152604260248201527f556e617574686f72697a656420616374696f6e3a20657874656e742073686f7560448201527f6c642062652067726561746572206f7220657175616c20746f2074686520727560648201527f6c65000000000000000000000000000000000000000000000000000000000000608482015260a4016106e2565b600488888561ffff16818110610e5557610e556114c4565b9050602002810190610e6791906114f3565b610e789060608101906040016115d5565b6006811115610e8957610e896115a6565b1415610f1f5780841115610b48576040517f08c379a000000000000000000000000000000000000000000000000000000000815260206004820152603f60248201527f556e617574686f72697a656420616374696f6e3a20657874656e742073686f7560448201527f6c64206265206c657373206f7220657175616c20746f207468652072756c650060648201526084016106e2565b600588888561ffff16818110610f3757610f376114c4565b9050602002810190610f4991906114f3565b610f5a9060608101906040016115d5565b6006811115610f6b57610f6b6115a6565b14156110015780841415610b48576040517f08c379a000000000000000000000000000000000000000000000000000000000815260206004820152603b60248201527f556e617574686f72697a656420616374696f6e3a20657874656e742073686f7560448201527f6c64206265206e6f7420657175616c20746f207468652072756c65000000000060648201526084016106e2565b6040517f08c379a000000000000000000000000000000000000000000000000000000000815260206004820152602960248201527f556e617574686f72697a656420616374696f6e3a20696e76616c69642072756c60448201527f65206b6579776f7264000000000000000000000000000000000000000000000060648201526084016106e2565b505050611130565b505b8061109d816115f6565b91505061088b565b50604080517f08c379a00000000000000000000000000000000000000000000000000000000081526020600482015260248101919091527f556e617574686f72697a656420616374696f6e3a206e6f2072756c65206d617460448201527f636865732e206661696c2074686520757365724f702062792064656661756c7460648201526084016106e2565b5050505050565b60008083601f84011261114957600080fd5b50813567ffffffffffffffff81111561116157600080fd5b60208301915083602082850101111561117957600080fd5b9250929050565b6000806020838503121561119357600080fd5b823567ffffffffffffffff8111156111aa57600080fd5b6111b685828601611137565b90969095509350505050565b60005b838110156111dd5781810151838201526020016111c5565b838111156111ec576000848401525b50505050565b6000815180845261120a8160208601602086016111c2565b601f017fffffffffffffffffffffffffffffffffffffffffffffffffffffffffffffffe0169290920160200192915050565b60208152600061124f60208301846111f2565b9392505050565b6000806000806040858703121561126c57600080fd5b843567ffffffffffffffff8082111561128457600080fd5b61129088838901611137565b909650945060208701359150808211156112a957600080fd5b818701915087601f8301126112bd57600080fd5b8135818111156112cc57600080fd5b8860208260051b85010111156112e157600080fd5b95989497505060200194505050565b73ffffffffffffffffffffffffffffffffffffffff8116811461131257600080fd5b50565b60006020828403121561132757600080fd5b815161124f816112f0565b60006020828403121561134457600080fd5b5051919050565b7f4e487b7100000000000000000000000000000000000000000000000000000000600052604160045260246000fd5b60006020828403121561138c57600080fd5b815167ffffffffffffffff808211156113a457600080fd5b818401915084601f8301126113b857600080fd5b8151818111156113ca576113ca61134b565b604051601f82017fffffffffffffffffffffffffffffffffffffffffffffffffffffffffffffffe0908116603f011681019083821181831017156114105761141061134b565b8160405282815287602084870101111561142957600080fd5b61143a8360208301602088016111c2565b979650505050505050565b60008060006060848603121561145a57600080fd5b8335611465816112f0565b92506020840135611475816112f0565b929592945050506040919091013590565b73ffffffffffffffffffffffffffffffffffffffff841681528260208201526060604082015260006114bb60608301846111f2565b95945050505050565b7f4e487b7100000000000000000000000000000000000000000000000000000000600052603260045260246000fd5b600082357fffffffffffffffffffffffffffffffffffffffffffffffffffffffffffffff8183360301811261152757600080fd5b9190910192915050565b60008083357fffffffffffffffffffffffffffffffffffffffffffffffffffffffffffffffe184360301811261156657600080fd5b83018035915067ffffffffffffffff82111561158157600080fd5b60200191503681900382131561117957600080fd5b8183823760009101908152919050565b7f4e487b7100000000000000000000000000000000000000000000000000000000600052602160045260246000fd5b6000602082840312156115e757600080fd5b81356007811061124f57600080fd5b600061ffff80831681811415611635577f4e487b7100000000000000000000000000000000000000000000000000000000600052601160045260246000fd5b600101939250505056fea2646970667358221220ced84e4e6bf9be7873d6ebb64e66cca7a78efc91807de5dd5823ab722f29890b64736f6c634300080c0033","linkReferences":{},"deployedLinkReferences":{},"fileHash":"592a02e66b3d13208dcd8115f1a33f54f676d0fcb8e4f76f574d048ba1ac6b1a"}