{
  "_format": "hh-sol-artifact-1",
  "contractName": "AaveSupply",
  "sourceName": "contracts/modules/actions/AaveSupply.sol",
  "abi": [
    {
      "anonymous": false,
      "inputs": [
        {
          "indexed": true,
          "internalType": "address",
          "name": "userAddr",
          "type": "address"
        },
        {
          "indexed": true,
          "internalType": "address",
          "name": "tokenAddr",
          "type": "address"
        },
        {
          "indexed": false,
          "internalType": "uint256",
          "name": "position",
          "type": "uint256"
        }
      ],
      "name": "AaveSupplyExecuted",
      "type": "event"
    },
    {
      "inputs": [
        {
          "internalType": "bytes",
          "name": "data",
          "type": "bytes"
        }
      ],
      "name": "execute",
      "outputs": [
        {
          "internalType": "bytes",
          "name": "",
          "type": "bytes"
        }
      ],
      "stateMutability": "payable",
      "type": "function"
    },
    {
      "inputs": [
        {
          "internalType": "address",
          "name": "funWallet",
          "type": "address"
        }
      ],
      "name": "getState",
      "outputs": [
        {
          "internalType": "bytes",
          "name": "state",
          "type": "bytes"
        }
      ],
      "stateMutability": "view",
      "type": "function"
    },
    {
      "inputs": [
        {
          "internalType": "bytes",
          "name": "",
          "type": "bytes"
        }
      ],
      "name": "init",
      "outputs": [
        {
          "internalType": "bytes",
          "name": "",
          "type": "bytes"
        }
      ],
      "stateMutability": "payable",
      "type": "function"
    },
    {
      "inputs": [],
      "name": "payTransactionFee",
      "outputs": [],
      "stateMutability": "payable",
      "type": "function"
    },
    {
      "inputs": [
        {
          "internalType": "bytes",
          "name": "",
          "type": "bytes"
        }
      ],
      "name": "validate",
      "outputs": [],
      "stateMutability": "pure",
      "type": "function"
    },
    {
      "stateMutability": "payable",
      "type": "receive"
    }
  ],
  "bytecode": "0x60c0604052600b60808190526a454d5054595f535441544560a81b60a090815261002c916000919061003f565b5034801561003957600080fd5b50610113565b82805461004b906100d8565b90600052602060002090601f01602090048101928261006d57600085556100b3565b82601f1061008657805160ff19168380011785556100b3565b828001600101855582156100b3579182015b828111156100b3578251825591602001919060010190610098565b506100bf9291506100c3565b5090565b5b808211156100bf57600081556001016100c4565b600181811c908216806100ec57607f821691505b6020821081141561010d57634e487b7160e01b600052602260045260246000fd5b50919050565b610af4806101226000396000f3fe60806040526004361061005e5760003560e01c80631bab58f5116100435780631bab58f5146100955780634ddf47d4146100b5578063c16e50ef146100c857600080fd5b806309c5eabe1461006a5780630a51f7e61461009357600080fd5b3661006557005b600080fd5b61007d610078366004610789565b6100e7565b60405161008a9190610875565b60405180910390f35b005b3480156100a157600080fd5b5061007d6100b03660046108b4565b6104db565b61007d6100c3366004610789565b610594565b3480156100d457600080fd5b506100936100e3366004610789565b5050565b60606000806000806100f987876106a1565b6040517f70a0823100000000000000000000000000000000000000000000000000000000815273ffffffffffffffffffffffffffffffffffffffff808616600483015294985092965090945092506000918416906370a0823190602401602060405180830381865afa158015610173573d6000803e3d6000fd5b505050506040513d601f19601f8201168201806040525081019061019791906108d1565b905060008183106101a857816101aa565b825b60405173ffffffffffffffffffffffffffffffffffffffff8816602482015233604482015260648101829052909150600090608401604080517fffffffffffffffffffffffffffffffffffffffffffffffffffffffffffffffe08184030181529190526020810180517bffffffffffffffffffffffffffffffffffffffffffffffffffffffff167f23b872dd00000000000000000000000000000000000000000000000000000000179052905061026433866000846106c2565b5060405173ffffffffffffffffffffffffffffffffffffffff8716602482015260448101839052600090606401604080517fffffffffffffffffffffffffffffffffffffffffffffffffffffffffffffffe08184030181529190526020810180517bffffffffffffffffffffffffffffffffffffffffffffffffffffffff167f095ea7b300000000000000000000000000000000000000000000000000000000179052905061031633876000846106c2565b5060405173ffffffffffffffffffffffffffffffffffffffff808816602483015260448201859052891660648201526000608482018190529060a401604080517fffffffffffffffffffffffffffffffffffffffffffffffffffffffffffffffe08184030181529190526020810180517bffffffffffffffffffffffffffffffffffffffffffffffffffffffff167f617ba0370000000000000000000000000000000000000000000000000000000017905290506103d733896000846106c2565b508673ffffffffffffffffffffffffffffffffffffffff168973ffffffffffffffffffffffffffffffffffffffff167f2f7d1bcf84b80df9da777d64dfde634b7196606764c66df9f3d2098940f3b7c18660405161043791815260200190565b60405180910390a36000805461044c906108ea565b80601f0160208091040260200160405190810160405280929190818152602001828054610478906108ea565b80156104c55780601f1061049a576101008083540402835291602001916104c5565b820191906000526020600020905b8154815290600101906020018083116104a857829003601f168201915b5050505050995050505050505050505092915050565b6040517fd06403d600000000000000000000000000000000000000000000000000000000815230600482015260609073ffffffffffffffffffffffffffffffffffffffff83169063d06403d690602401600060405180830381865afa158015610548573d6000803e3d6000fd5b505050506040513d6000823e601f3d9081017fffffffffffffffffffffffffffffffffffffffffffffffffffffffffffffffe016820160405261058e919081019061096d565b92915050565b606060006105a1336104db565b51111561060e576040517f08c379a000000000000000000000000000000000000000000000000000000000815260206004820152601d60248201527f6d6f64756c6520697320616c726561647920696e697469616c697a6564000000604482015260640160405180910390fd5b6000805461061b906108ea565b80601f0160208091040260200160405190810160405280929190818152602001828054610647906108ea565b80156106945780601f1061066957610100808354040283529160200191610694565b820191906000526020600020905b81548152906001019060200180831161067757829003601f168201915b5050505050905092915050565b60008080806106b285870187610a38565b9299919850965090945092505050565b6040517f20d2a20f00000000000000000000000000000000000000000000000000000000815260609073ffffffffffffffffffffffffffffffffffffffff8616906320d2a20f9061071b90879087908790600401610a89565b6000604051808303816000875af115801561073a573d6000803e3d6000fd5b505050506040513d6000823e601f3d9081017fffffffffffffffffffffffffffffffffffffffffffffffffffffffffffffffe0168201604052610780919081019061096d565b95945050505050565b6000806020838503121561079c57600080fd5b823567ffffffffffffffff808211156107b457600080fd5b818501915085601f8301126107c857600080fd5b8135818111156107d757600080fd5b8660208285010111156107e957600080fd5b60209290920196919550909350505050565b60005b838110156108165781810151838201526020016107fe565b83811115610825576000848401525b50505050565b600081518084526108438160208601602086016107fb565b601f017fffffffffffffffffffffffffffffffffffffffffffffffffffffffffffffffe0169290920160200192915050565b602081526000610888602083018461082b565b9392505050565b73ffffffffffffffffffffffffffffffffffffffff811681146108b157600080fd5b50565b6000602082840312156108c657600080fd5b81356108888161088f565b6000602082840312156108e357600080fd5b5051919050565b600181811c908216806108fe57607f821691505b60208210811415610938577f4e487b7100000000000000000000000000000000000000000000000000000000600052602260045260246000fd5b50919050565b7f4e487b7100000000000000000000000000000000000000000000000000000000600052604160045260246000fd5b60006020828403121561097f57600080fd5b815167ffffffffffffffff8082111561099757600080fd5b818401915084601f8301126109ab57600080fd5b8151818111156109bd576109bd61093e565b604051601f82017fffffffffffffffffffffffffffffffffffffffffffffffffffffffffffffffe0908116603f01168101908382118183101715610a0357610a0361093e565b81604052828152876020848701011115610a1c57600080fd5b610a2d8360208301602088016107fb565b979650505050505050565b60008060008060808587031215610a4e57600080fd5b8435610a598161088f565b93506020850135610a698161088f565b92506040850135610a798161088f565b9396929550929360600135925050565b73ffffffffffffffffffffffffffffffffffffffff84168152826020820152606060408201526000610780606083018461082b56fea264697066735822122016960c8a2a67487c040417b782bbcbdfb9f87cacf9e2c6471e8b165fca151aa264736f6c634300080c0033",
  "linkReferences": {},
  "deployedLinkReferences": {}
}