{
    "_format": "hh-sol-artifact-1",
    "contractName": "AaveWithdraw",
    "sourceName": "contracts/modules/actions/AaveWithdraw.sol",
    "abi": [
        {
            "anonymous": false,
            "inputs": [
                {
                    "indexed": true,
                    "internalType": "address",
                    "name": "userAddr",
                    "type": "address"
                },
                {
                    "indexed": true,
                    "internalType": "address",
                    "name": "assetAddr",
                    "type": "address"
                },
                {
                    "indexed": false,
                    "internalType": "uint256",
                    "name": "position",
                    "type": "uint256"
                }
            ],
            "name": "AaveWithdrawExecuted",
            "type": "event"
        },
        {
            "inputs": [],
            "name": "emptyBytes32",
            "outputs": [
                {
                    "internalType": "bytes32",
                    "name": "",
                    "type": "bytes32"
                }
            ],
            "stateMutability": "view",
            "type": "function"
        },
        {
            "inputs": [
                {
                    "internalType": "bytes",
                    "name": "data",
                    "type": "bytes"
                }
            ],
            "name": "execute",
            "outputs": [
                {
                    "internalType": "bytes",
                    "name": "",
                    "type": "bytes"
                }
            ],
            "stateMutability": "payable",
            "type": "function"
        },
        {
            "inputs": [],
            "name": "getState",
            "outputs": [
                {
                    "internalType": "bytes",
                    "name": "state",
                    "type": "bytes"
                }
            ],
            "stateMutability": "view",
            "type": "function"
        },
        {
            "inputs": [
                {
                    "internalType": "bytes",
                    "name": "",
                    "type": "bytes"
                }
            ],
            "name": "init",
            "outputs": [
                {
                    "internalType": "bytes",
                    "name": "",
                    "type": "bytes"
                }
            ],
            "stateMutability": "payable",
            "type": "function"
        },
        {
            "inputs": [],
            "name": "payFee",
            "outputs": [],
            "stateMutability": "payable",
            "type": "function"
        },
        {
            "inputs": [
                {
                    "internalType": "bytes",
                    "name": "data",
                    "type": "bytes"
                },
                {
                    "components": [
                        {
                            "internalType": "bytes32",
                            "name": "action",
                            "type": "bytes32"
                        },
                        {
                            "internalType": "bytes",
                            "name": "target",
                            "type": "bytes"
                        },
                        {
                            "internalType": "enum Keyword",
                            "name": "keyword",
                            "type": "uint8"
                        },
                        {
                            "internalType": "bytes32",
                            "name": "extent",
                            "type": "bytes32"
                        }
                    ],
                    "internalType": "struct Rule[]",
                    "name": "rules",
                    "type": "tuple[]"
                }
            ],
            "name": "validate",
            "outputs": [],
            "stateMutability": "view",
            "type": "function"
        },
        {
            "stateMutability": "payable",
            "type": "receive"
        }
    ],
    "bytecode": "0x608060405234801561001057600080fd5b50610adf806100206000396000f3fe6080604052600436106100695760003560e01c8063296102521161004357806329610252146100d65780634ddf47d4146100d857806352bd4f411461011f57600080fd5b806309c5eabe146100755780630cc6235f1461009e5780631865c57d146100c157600080fd5b3661007057005b600080fd5b610088610083366004610769565b610140565b6040516100959190610821565b60405180910390f35b3480156100aa57600080fd5b506100b3600081565b604051908152602001610095565b3480156100cd57600080fd5b506100886105b0565b005b6100886100e6366004610769565b505060408051808201909152600b81527f454d5054595f5354415445000000000000000000000000000000000000000000602082015290565b34801561012b57600080fd5b506100d661013a36600461083b565b50505050565b606060008060006101518686610652565b92509250925060008273ffffffffffffffffffffffffffffffffffffffff16637535d2466040518163ffffffff1660e01b8152600401602060405180830381865afa1580156101a4573d6000803e3d6000fd5b505050506040513d601f19601f820116820180604052508101906101c891906108fa565b6040517fdd62ed3e00000000000000000000000000000000000000000000000000000000815273ffffffffffffffffffffffffffffffffffffffff868116600483015233602483015291925060009185169063dd62ed3e90604401602060405180830381865afa158015610240573d6000803e3d6000fd5b505050506040513d601f19601f820116820180604052508101906102649190610917565b6040517f70a0823100000000000000000000000000000000000000000000000000000000815273ffffffffffffffffffffffffffffffffffffffff87811660048301529192506000918616906370a0823190602401602060405180830381865afa1580156102d6573d6000803e3d6000fd5b505050506040513d601f19601f820116820180604052508101906102fa9190610917565b905060008573ffffffffffffffffffffffffffffffffffffffff1663b16a19de6040518163ffffffff1660e01b8152600401602060405180830381865afa158015610349573d6000803e3d6000fd5b505050506040513d601f19601f8201168201806040525081019061036d91906108fa565b9050600082841061037e5782610380565b835b905085811061038f5785610391565b805b60405173ffffffffffffffffffffffffffffffffffffffff8a16602482015233604482015260648101829052909150600090608401604080517fffffffffffffffffffffffffffffffffffffffffffffffffffffffffffffffe08184030181529190526020810180517bffffffffffffffffffffffffffffffffffffffffffffffffffffffff167f23b872dd00000000000000000000000000000000000000000000000000000000179052905061044a88600083610670565b5060405173ffffffffffffffffffffffffffffffffffffffff8085166024830152604482018490528a166064820152600090608401604080517fffffffffffffffffffffffffffffffffffffffffffffffffffffffffffffffe08184030181529190526020810180517bffffffffffffffffffffffffffffffffffffffffffffffffffffffff167f69328dec00000000000000000000000000000000000000000000000000000000179052905061050387600083610670565b508373ffffffffffffffffffffffffffffffffffffffff168a73ffffffffffffffffffffffffffffffffffffffff167f0bc5caef5a4698763d4432bfa1476f93d9e2db5e391abf21afb23761745d84f78560405161056391815260200190565b60405180910390a3505060408051808201909152600b81527f454d5054595f535441544500000000000000000000000000000000000000000060208201529b9a5050505050505050505050565b6040517fd06403d6000000000000000000000000000000000000000000000000000000008152306004820152606090339063d06403d690602401600060405180830381865afa158015610607573d6000803e3d6000fd5b505050506040513d6000823e601f3d9081017fffffffffffffffffffffffffffffffffffffffffffffffffffffffffffffffe016820160405261064d919081019061095f565b905090565b6000808061066284860186610a2a565b919790965090945092505050565b6040517f20d2a20f00000000000000000000000000000000000000000000000000000000815260609033906320d2a20f906106b390879087908790600401610a6b565b6000604051808303816000875af11580156106d2573d6000803e3d6000fd5b505050506040513d6000823e601f3d9081017fffffffffffffffffffffffffffffffffffffffffffffffffffffffffffffffe0168201604052610718919081019061095f565b949350505050565b60008083601f84011261073257600080fd5b50813567ffffffffffffffff81111561074a57600080fd5b60208301915083602082850101111561076257600080fd5b9250929050565b6000806020838503121561077c57600080fd5b823567ffffffffffffffff81111561079357600080fd5b61079f85828601610720565b90969095509350505050565b60005b838110156107c65781810151838201526020016107ae565b8381111561013a5750506000910152565b600081518084526107ef8160208601602086016107ab565b601f017fffffffffffffffffffffffffffffffffffffffffffffffffffffffffffffffe0169290920160200192915050565b60208152600061083460208301846107d7565b9392505050565b6000806000806040858703121561085157600080fd5b843567ffffffffffffffff8082111561086957600080fd5b61087588838901610720565b9096509450602087013591508082111561088e57600080fd5b818701915087601f8301126108a257600080fd5b8135818111156108b157600080fd5b8860208260051b85010111156108c657600080fd5b95989497505060200194505050565b73ffffffffffffffffffffffffffffffffffffffff811681146108f757600080fd5b50565b60006020828403121561090c57600080fd5b8151610834816108d5565b60006020828403121561092957600080fd5b5051919050565b7f4e487b7100000000000000000000000000000000000000000000000000000000600052604160045260246000fd5b60006020828403121561097157600080fd5b815167ffffffffffffffff8082111561098957600080fd5b818401915084601f83011261099d57600080fd5b8151818111156109af576109af610930565b604051601f82017fffffffffffffffffffffffffffffffffffffffffffffffffffffffffffffffe0908116603f011681019083821181831017156109f5576109f5610930565b81604052828152876020848701011115610a0e57600080fd5b610a1f8360208301602088016107ab565b979650505050505050565b600080600060608486031215610a3f57600080fd5b8335610a4a816108d5565b92506020840135610a5a816108d5565b929592945050506040919091013590565b73ffffffffffffffffffffffffffffffffffffffff84168152826020820152606060408201526000610aa060608301846107d7565b9594505050505056fea2646970667358221220cc785484893a5cbcce93815fe13155b552c80890f1b34bfa345d961cb67f156764736f6c634300080c0033",
    "linkReferences": {},
    "deployedLinkReferences": {}
}