{"_format":"hh-sol-artifact-1","contractName":"AaveWithdraw","sourceName":"contracts/modules/actions/AaveWithdraw.sol","abi":[{"anonymous":false,"inputs":[{"indexed":true,"internalType":"address","name":"userAddr","type":"address"},{"indexed":true,"internalType":"address","name":"assetAddr","type":"address"},{"indexed":false,"internalType":"uint256","name":"position","type":"uint256"}],"name":"AaveWithdrawExecuted","type":"event"},{"inputs":[],"name":"emptyBytes32","outputs":[{"internalType":"bytes32","name":"","type":"bytes32"}],"stateMutability":"view","type":"function"},{"inputs":[{"internalType":"bytes","name":"data","type":"bytes"}],"name":"execute","outputs":[{"internalType":"bytes","name":"","type":"bytes"}],"stateMutability":"payable","type":"function"},{"inputs":[],"name":"getState","outputs":[{"internalType":"bytes","name":"state","type":"bytes"}],"stateMutability":"view","type":"function"},{"inputs":[{"internalType":"bytes","name":"","type":"bytes"}],"name":"init","outputs":[{"internalType":"bytes","name":"","type":"bytes"}],"stateMutability":"payable","type":"function"},{"inputs":[],"name":"payFee","outputs":[],"stateMutability":"payable","type":"function"},{"inputs":[{"internalType":"bytes","name":"data","type":"bytes"},{"components":[{"internalType":"bytes32","name":"action","type":"bytes32"},{"internalType":"bytes","name":"target","type":"bytes"},{"internalType":"enum Keyword","name":"keyword","type":"uint8"},{"internalType":"bytes32","name":"extent","type":"bytes32"}],"internalType":"struct Rule[]","name":"rules","type":"tuple[]"}],"name":"validate","outputs":[],"stateMutability":"view","type":"function"},{"stateMutability":"payable","type":"receive"}],"bytecode":"0x608060405234801561001057600080fd5b50610afe806100206000396000f3fe6080604052600436106100695760003560e01c8063296102521161004357806329610252146100d65780634ddf47d4146100d857806352bd4f411461011f57600080fd5b806309c5eabe146100755780630cc6235f1461009e5780631865c57d146100c157600080fd5b3661007057005b600080fd5b610088610083366004610788565b610140565b6040516100959190610840565b60405180910390f35b3480156100aa57600080fd5b506100b3600081565b604051908152602001610095565b3480156100cd57600080fd5b506100886105cf565b005b6100886100e6366004610788565b505060408051808201909152600b81527f454d5054595f5354415445000000000000000000000000000000000000000000602082015290565b34801561012b57600080fd5b506100d661013a36600461085a565b50505050565b606060008060006101518686610671565b92509250925060008273ffffffffffffffffffffffffffffffffffffffff16637535d2466040518163ffffffff1660e01b8152600401602060405180830381865afa1580156101a4573d6000803e3d6000fd5b505050506040513d601f19601f820116820180604052508101906101c89190610919565b6040517fdd62ed3e00000000000000000000000000000000000000000000000000000000815273ffffffffffffffffffffffffffffffffffffffff868116600483015233602483015291925060009185169063dd62ed3e90604401602060405180830381865afa158015610240573d6000803e3d6000fd5b505050506040513d601f19601f820116820180604052508101906102649190610936565b6040517f70a0823100000000000000000000000000000000000000000000000000000000815273ffffffffffffffffffffffffffffffffffffffff87811660048301529192506000918616906370a0823190602401602060405180830381865afa1580156102d6573d6000803e3d6000fd5b505050506040513d601f19601f820116820180604052508101906102fa9190610936565b905060008573ffffffffffffffffffffffffffffffffffffffff1663b16a19de6040518163ffffffff1660e01b8152600401602060405180830381865afa158015610349573d6000803e3d6000fd5b505050506040513d601f19601f8201168201806040525081019061036d9190610919565b9050600082841061037e5782610380565b835b905085811061038f5785610391565b805b60405173ffffffffffffffffffffffffffffffffffffffff8a16602482015233604482015260648101829052909150600090608401604080517fffffffffffffffffffffffffffffffffffffffffffffffffffffffffffffffe08184030181529190526020810180517bffffffffffffffffffffffffffffffffffffffffffffffffffffffff167f23b872dd00000000000000000000000000000000000000000000000000000000179052905061044a8860008361068f565b5060405173ffffffffffffffffffffffffffffffffffffffff80851660248301527fffffffffffffffffffffffffffffffffffffffffffffffffffffffffffffffff60448301528a166064820152600090608401604080517fffffffffffffffffffffffffffffffffffffffffffffffffffffffffffffffe08184030181529190526020810180517bffffffffffffffffffffffffffffffffffffffffffffffffffffffff167f69328dec0000000000000000000000000000000000000000000000000000000017905290506105228760008361068f565b508373ffffffffffffffffffffffffffffffffffffffff168a73ffffffffffffffffffffffffffffffffffffffff167f0bc5caef5a4698763d4432bfa1476f93d9e2db5e391abf21afb23761745d84f78560405161058291815260200190565b60405180910390a3505060408051808201909152600b81527f454d5054595f535441544500000000000000000000000000000000000000000060208201529b9a5050505050505050505050565b6040517fd06403d6000000000000000000000000000000000000000000000000000000008152306004820152606090339063d06403d690602401600060405180830381865afa158015610626573d6000803e3d6000fd5b505050506040513d6000823e601f3d9081017fffffffffffffffffffffffffffffffffffffffffffffffffffffffffffffffe016820160405261066c919081019061097e565b905090565b6000808061068184860186610a49565b919790965090945092505050565b6040517f20d2a20f00000000000000000000000000000000000000000000000000000000815260609033906320d2a20f906106d290879087908790600401610a8a565b6000604051808303816000875af11580156106f1573d6000803e3d6000fd5b505050506040513d6000823e601f3d9081017fffffffffffffffffffffffffffffffffffffffffffffffffffffffffffffffe0168201604052610737919081019061097e565b949350505050565b60008083601f84011261075157600080fd5b50813567ffffffffffffffff81111561076957600080fd5b60208301915083602082850101111561078157600080fd5b9250929050565b6000806020838503121561079b57600080fd5b823567ffffffffffffffff8111156107b257600080fd5b6107be8582860161073f565b90969095509350505050565b60005b838110156107e55781810151838201526020016107cd565b8381111561013a5750506000910152565b6000815180845261080e8160208601602086016107ca565b601f017fffffffffffffffffffffffffffffffffffffffffffffffffffffffffffffffe0169290920160200192915050565b60208152600061085360208301846107f6565b9392505050565b6000806000806040858703121561087057600080fd5b843567ffffffffffffffff8082111561088857600080fd5b6108948883890161073f565b909650945060208701359150808211156108ad57600080fd5b818701915087601f8301126108c157600080fd5b8135818111156108d057600080fd5b8860208260051b85010111156108e557600080fd5b95989497505060200194505050565b73ffffffffffffffffffffffffffffffffffffffff8116811461091657600080fd5b50565b60006020828403121561092b57600080fd5b8151610853816108f4565b60006020828403121561094857600080fd5b5051919050565b7f4e487b7100000000000000000000000000000000000000000000000000000000600052604160045260246000fd5b60006020828403121561099057600080fd5b815167ffffffffffffffff808211156109a857600080fd5b818401915084601f8301126109bc57600080fd5b8151818111156109ce576109ce61094f565b604051601f82017fffffffffffffffffffffffffffffffffffffffffffffffffffffffffffffffe0908116603f01168101908382118183101715610a1457610a1461094f565b81604052828152876020848701011115610a2d57600080fd5b610a3e8360208301602088016107ca565b979650505050505050565b600080600060608486031215610a5e57600080fd5b8335610a69816108f4565b92506020840135610a79816108f4565b929592945050506040919091013590565b73ffffffffffffffffffffffffffffffffffffffff84168152826020820152606060408201526000610abf60608301846107f6565b9594505050505056fea2646970667358221220297bcc76c6603304178d3248c16bad8f79a588653477f0dc12185efcffaf843664736f6c634300080c0033","linkReferences":{},"deployedLinkReferences":{},"fileHash":"f495563ac29f2900f2cd8ed9dc2c7e5612169011f4cf86ff3361f1f58984b177"}