{
  "_format": "hh-sol-artifact-1",
  "contractName": "AaveWithdraw",
  "sourceName": "contracts/modules/actions/AaveWithdraw.sol",
  "abi": [
    {
      "anonymous": false,
      "inputs": [
        {
          "indexed": true,
          "internalType": "address",
          "name": "userAddr",
          "type": "address"
        },
        {
          "indexed": true,
          "internalType": "address",
          "name": "assetAddr",
          "type": "address"
        },
        {
          "indexed": false,
          "internalType": "uint256",
          "name": "position",
          "type": "uint256"
        }
      ],
      "name": "AaveWithdrawExecuted",
      "type": "event"
    },
    {
      "inputs": [],
      "name": "EMPTY_STATE",
      "outputs": [
        {
          "internalType": "bytes",
          "name": "",
          "type": "bytes"
        }
      ],
      "stateMutability": "view",
      "type": "function"
    },
    {
      "inputs": [],
      "name": "emptyBytes32",
      "outputs": [
        {
          "internalType": "bytes32",
          "name": "",
          "type": "bytes32"
        }
      ],
      "stateMutability": "view",
      "type": "function"
    },
    {
      "inputs": [
        {
          "internalType": "bytes",
          "name": "data",
          "type": "bytes"
        }
      ],
      "name": "execute",
      "outputs": [
        {
          "internalType": "bytes",
          "name": "",
          "type": "bytes"
        }
      ],
      "stateMutability": "payable",
      "type": "function"
    },
    {
      "inputs": [],
      "name": "getState",
      "outputs": [
        {
          "internalType": "bytes",
          "name": "state",
          "type": "bytes"
        }
      ],
      "stateMutability": "view",
      "type": "function"
    },
    {
      "inputs": [
        {
          "internalType": "bytes",
          "name": "",
          "type": "bytes"
        }
      ],
      "name": "init",
      "outputs": [
        {
          "internalType": "bytes",
          "name": "",
          "type": "bytes"
        }
      ],
      "stateMutability": "payable",
      "type": "function"
    },
    {
      "inputs": [],
      "name": "payFee",
      "outputs": [],
      "stateMutability": "payable",
      "type": "function"
    },
    {
      "inputs": [
        {
          "internalType": "bytes",
          "name": "data",
          "type": "bytes"
        },
        {
          "components": [
            {
              "internalType": "bytes32",
              "name": "action",
              "type": "bytes32"
            },
            {
              "internalType": "bytes",
              "name": "target",
              "type": "bytes"
            },
            {
              "internalType": "enum Keyword",
              "name": "keyword",
              "type": "uint8"
            },
            {
              "internalType": "bytes32",
              "name": "extent",
              "type": "bytes32"
            }
          ],
          "internalType": "struct Rule[]",
          "name": "rules",
          "type": "tuple[]"
        }
      ],
      "name": "validate",
      "outputs": [],
      "stateMutability": "pure",
      "type": "function"
    },
    {
      "stateMutability": "payable",
      "type": "receive"
    }
  ],
  "bytecode": "0x608060405234801561001057600080fd5b50611683806100206000396000f3fe6080604052600436106100745760003560e01c8063296102521161004e57806329610252146100e15780634ddf47d4146100e357806352bd4f41146100f65780638db71efb1461011657600080fd5b806309c5eabe146100805780630cc6235f146100a95780631865c57d146100cc57600080fd5b3661007b57005b600080fd5b61009361008e366004611187565b61015f565b6040516100a09190611243565b60405180910390f35b3480156100b557600080fd5b506100be600081565b6040519081526020016100a0565b3480156100d857600080fd5b506100936105d0565b005b6100936100f1366004611187565b610672565b34801561010257600080fd5b506100e161011136600461125d565b610727565b34801561012257600080fd5b506100936040518060400160405280600b81526020017f454d5054595f535441544500000000000000000000000000000000000000000081525081565b6060600080600061017086866107be565b9350935093505060008273ffffffffffffffffffffffffffffffffffffffff16637535d2466040518163ffffffff1660e01b8152600401602060405180830381865afa1580156101c4573d6000803e3d6000fd5b505050506040513d601f19601f820116820180604052508101906101e8919061131c565b6040517fdd62ed3e00000000000000000000000000000000000000000000000000000000815273ffffffffffffffffffffffffffffffffffffffff868116600483015233602483015291925060009185169063dd62ed3e90604401602060405180830381865afa158015610260573d6000803e3d6000fd5b505050506040513d601f19601f820116820180604052508101906102849190611339565b6040517f70a0823100000000000000000000000000000000000000000000000000000000815273ffffffffffffffffffffffffffffffffffffffff87811660048301529192506000918616906370a0823190602401602060405180830381865afa1580156102f6573d6000803e3d6000fd5b505050506040513d601f19601f8201168201806040525081019061031a9190611339565b9050600081831061032b578161032d565b825b905084811061033c578461033e565b805b905060008673ffffffffffffffffffffffffffffffffffffffff1663b16a19de6040518163ffffffff1660e01b8152600401602060405180830381865afa15801561038d573d6000803e3d6000fd5b505050506040513d601f19601f820116820180604052508101906103b1919061131c565b60405173ffffffffffffffffffffffffffffffffffffffff8a16602482015233604482015260648101849052909150600090608401604080517fffffffffffffffffffffffffffffffffffffffffffffffffffffffffffffffe08184030181529190526020810180517bffffffffffffffffffffffffffffffffffffffffffffffffffffffff167f23b872dd00000000000000000000000000000000000000000000000000000000179052905061046a886000836107df565b5060405173ffffffffffffffffffffffffffffffffffffffff8084166024830152604482018590528a166064820152600090608401604080517fffffffffffffffffffffffffffffffffffffffffffffffffffffffffffffffe08184030181529190526020810180517bffffffffffffffffffffffffffffffffffffffffffffffffffffffff167f69328dec000000000000000000000000000000000000000000000000000000001790529050610523876000836107df565b508273ffffffffffffffffffffffffffffffffffffffff168a73ffffffffffffffffffffffffffffffffffffffff167f0bc5caef5a4698763d4432bfa1476f93d9e2db5e391abf21afb23761745d84f78660405161058391815260200190565b60405180910390a3505060408051808201909152600b81527f454d5054595f535441544500000000000000000000000000000000000000000060208201529b9a5050505050505050505050565b6040517fd06403d6000000000000000000000000000000000000000000000000000000008152306004820152606090339063d06403d690602401600060405180830381865afa158015610627573d6000803e3d6000fd5b505050506040513d6000823e601f3d9081017fffffffffffffffffffffffffffffffffffffffffffffffffffffffffffffffe016820160405261066d9190810190611381565b905090565b6060600061067e6105d0565b5111156106ec576040517f08c379a000000000000000000000000000000000000000000000000000000000815260206004820152601d60248201527f6d6f64756c6520697320616c726561647920696e697469616c697a656400000060448201526064015b60405180910390fd5b5060408051808201909152600b81527f454d5054595f5354415445000000000000000000000000000000000000000000602082015292915050565b60008060008061073788886107be565b93509350935093506000838360405160200161077692919073ffffffffffffffffffffffffffffffffffffffff92831681529116602082015260400190565b604080517fffffffffffffffffffffffffffffffffffffffffffffffffffffffffffffffe081840301815291905290506107b3878787848661088f565b505050505050505050565b60008080806107cf8587018761144c565b9299919850965090945092505050565b6040517f20d2a20f00000000000000000000000000000000000000000000000000000000815260609033906320d2a20f9061082290879087908790600401611494565b6000604051808303816000875af1158015610841573d6000803e3d6000fd5b505050506040513d6000823e601f3d9081017fffffffffffffffffffffffffffffffffffffffffffffffffffffffffffffffe01682016040526108879190810190611381565b949350505050565b60005b61ffff81168511156110ac577f2a0000000000000000000000000000000000000000000000000000000000000086868361ffff168181106108d5576108d56114d2565b90506020028101906108e79190611501565b35148061091b57508386868361ffff16818110610906576109066114d2565b90506020028101906109189190611501565b35145b1561109a57600086868361ffff16818110610938576109386114d2565b905060200281019061094a9190611501565b61095890602081019061153f565b6040516109669291906115a4565b60408051918290038220828201909152600182527f2a0000000000000000000000000000000000000000000000000000000000000060209092019190915290507f04994f67dc55b09e814ab7ffc8df3686b4afb2bb53e60eae97ef043fe03fb8298114806109d957508351602085012081145b15611098576000610a1288888561ffff168181106109f9576109f96114d2565b9050602002810190610a0b9190611501565b6060013590565b9050600688888561ffff16818110610a2c57610a2c6114d2565b9050602002810190610a3e9190611501565b610a4f9060608101906040016115e3565b6006811115610a6057610a606115b4565b1415610a6e57505050611137565b600088888561ffff16818110610a8657610a866114d2565b9050602002810190610a989190611501565b610aa99060608101906040016115e3565b6006811115610aba57610aba6115b4565b1415610b5457808411610b4f576040517f08c379a000000000000000000000000000000000000000000000000000000000815260206004820152603760248201527f556e617574686f72697a656420616374696f6e3a20657874656e742073686f7560448201527f6c642062652067726561746572207468616e2072756c6500000000000000000060648201526084016106e3565b611090565b600188888561ffff16818110610b6c57610b6c6114d2565b9050602002810190610b7e9190611501565b610b8f9060608101906040016115e3565b6006811115610ba057610ba06115b4565b1415610c3557808410610b4f576040517f08c379a000000000000000000000000000000000000000000000000000000000815260206004820152603760248201527f556e617574686f72697a656420616374696f6e3a20657874656e742073686f7560448201527f6c6420626520736d616c6c6572207468616e2072756c6500000000000000000060648201526084016106e3565b600288888561ffff16818110610c4d57610c4d6114d2565b9050602002810190610c5f9190611501565b610c709060608101906040016115e3565b6006811115610c8157610c816115b4565b1415610d3c57808414610b4f576040517f08c379a000000000000000000000000000000000000000000000000000000000815260206004820152604160248201527f556e617574686f72697a656420616374696f6e3a20657874656e742073686f7560448201527f6c6420626520657175616c20746f2074686520657874656e74206f662072756c60648201527f6500000000000000000000000000000000000000000000000000000000000000608482015260a4016106e3565b600388888561ffff16818110610d5457610d546114d2565b9050602002810190610d669190611501565b610d779060608101906040016115e3565b6006811115610d8857610d886115b4565b1415610e445780841015610b4f576040517f08c379a000000000000000000000000000000000000000000000000000000000815260206004820152604260248201527f556e617574686f72697a656420616374696f6e3a20657874656e742073686f7560448201527f6c642062652067726561746572206f7220657175616c20746f2074686520727560648201527f6c65000000000000000000000000000000000000000000000000000000000000608482015260a4016106e3565b600488888561ffff16818110610e5c57610e5c6114d2565b9050602002810190610e6e9190611501565b610e7f9060608101906040016115e3565b6006811115610e9057610e906115b4565b1415610f265780841115610b4f576040517f08c379a000000000000000000000000000000000000000000000000000000000815260206004820152603f60248201527f556e617574686f72697a656420616374696f6e3a20657874656e742073686f7560448201527f6c64206265206c657373206f7220657175616c20746f207468652072756c650060648201526084016106e3565b600588888561ffff16818110610f3e57610f3e6114d2565b9050602002810190610f509190611501565b610f619060608101906040016115e3565b6006811115610f7257610f726115b4565b14156110085780841415610b4f576040517f08c379a000000000000000000000000000000000000000000000000000000000815260206004820152603b60248201527f556e617574686f72697a656420616374696f6e3a20657874656e742073686f7560448201527f6c64206265206e6f7420657175616c20746f207468652072756c65000000000060648201526084016106e3565b6040517f08c379a000000000000000000000000000000000000000000000000000000000815260206004820152602960248201527f556e617574686f72697a656420616374696f6e3a20696e76616c69642072756c60448201527f65206b6579776f7264000000000000000000000000000000000000000000000060648201526084016106e3565b505050611137565b505b806110a481611604565b915050610892565b50604080517f08c379a00000000000000000000000000000000000000000000000000000000081526020600482015260248101919091527f556e617574686f72697a656420616374696f6e3a206e6f2072756c65206d617460448201527f636865732e206661696c2074686520757365724f702062792064656661756c7460648201526084016106e3565b5050505050565b60008083601f84011261115057600080fd5b50813567ffffffffffffffff81111561116857600080fd5b60208301915083602082850101111561118057600080fd5b9250929050565b6000806020838503121561119a57600080fd5b823567ffffffffffffffff8111156111b157600080fd5b6111bd8582860161113e565b90969095509350505050565b60005b838110156111e45781810151838201526020016111cc565b838111156111f3576000848401525b50505050565b600081518084526112118160208601602086016111c9565b601f017fffffffffffffffffffffffffffffffffffffffffffffffffffffffffffffffe0169290920160200192915050565b60208152600061125660208301846111f9565b9392505050565b6000806000806040858703121561127357600080fd5b843567ffffffffffffffff8082111561128b57600080fd5b6112978883890161113e565b909650945060208701359150808211156112b057600080fd5b818701915087601f8301126112c457600080fd5b8135818111156112d357600080fd5b8860208260051b85010111156112e857600080fd5b95989497505060200194505050565b73ffffffffffffffffffffffffffffffffffffffff8116811461131957600080fd5b50565b60006020828403121561132e57600080fd5b8151611256816112f7565b60006020828403121561134b57600080fd5b5051919050565b7f4e487b7100000000000000000000000000000000000000000000000000000000600052604160045260246000fd5b60006020828403121561139357600080fd5b815167ffffffffffffffff808211156113ab57600080fd5b818401915084601f8301126113bf57600080fd5b8151818111156113d1576113d1611352565b604051601f82017fffffffffffffffffffffffffffffffffffffffffffffffffffffffffffffffe0908116603f0116810190838211818310171561141757611417611352565b8160405282815287602084870101111561143057600080fd5b6114418360208301602088016111c9565b979650505050505050565b6000806000806080858703121561146257600080fd5b843593506020850135611474816112f7565b92506040850135611484816112f7565b9396929550929360600135925050565b73ffffffffffffffffffffffffffffffffffffffff841681528260208201526060604082015260006114c960608301846111f9565b95945050505050565b7f4e487b7100000000000000000000000000000000000000000000000000000000600052603260045260246000fd5b600082357fffffffffffffffffffffffffffffffffffffffffffffffffffffffffffffff8183360301811261153557600080fd5b9190910192915050565b60008083357fffffffffffffffffffffffffffffffffffffffffffffffffffffffffffffffe184360301811261157457600080fd5b83018035915067ffffffffffffffff82111561158f57600080fd5b60200191503681900382131561118057600080fd5b8183823760009101908152919050565b7f4e487b7100000000000000000000000000000000000000000000000000000000600052602160045260246000fd5b6000602082840312156115f557600080fd5b81356007811061125657600080fd5b600061ffff80831681811415611643577f4e487b7100000000000000000000000000000000000000000000000000000000600052601160045260246000fd5b600101939250505056fea264697066735822122066cd14e7e245cf53322037cdce701b88709166618771fb302f9ef0dda949715964736f6c634300080a0033",
  "linkReferences": {},
  "deployedLinkReferences": {},
  "fileHash": "19efccbf50b8fb439f8dfcddd7e99f886ebfbc99cef94c5e5ae19bf8fd7c9e3d"
}