{"_format":"hh-sol-artifact-1","contractName":"ApproveAndSwap","sourceName":"contracts/modules/actions/ApproveAndSwap.sol","abi":[{"inputs":[{"internalType":"address","name":"_wethAddr","type":"address"}],"stateMutability":"nonpayable","type":"constructor"},{"inputs":[],"name":"EMPTY_BYTES32","outputs":[{"internalType":"bytes32","name":"","type":"bytes32"}],"stateMutability":"view","type":"function"},{"inputs":[],"name":"EMPTY_STATE","outputs":[{"internalType":"bytes","name":"","type":"bytes"}],"stateMutability":"view","type":"function"},{"inputs":[{"internalType":"bytes","name":"","type":"bytes"}],"name":"execute","outputs":[{"internalType":"bytes","name":"","type":"bytes"}],"stateMutability":"payable","type":"function"},{"inputs":[{"internalType":"address","name":"tokenAddr","type":"address"},{"internalType":"address","name":"routerAddr","type":"address"},{"internalType":"uint256","name":"amount","type":"uint256"},{"internalType":"bytes","name":"routerCallData","type":"bytes"}],"name":"executeSwapERC20","outputs":[{"internalType":"bytes","name":"","type":"bytes"}],"stateMutability":"nonpayable","type":"function"},{"inputs":[{"internalType":"address","name":"routerAddr","type":"address"},{"internalType":"uint256","name":"amount","type":"uint256"},{"internalType":"bytes","name":"routerCallData","type":"bytes"}],"name":"executeSwapETH","outputs":[{"internalType":"bytes","name":"","type":"bytes"}],"stateMutability":"nonpayable","type":"function"},{"inputs":[],"name":"getState","outputs":[{"internalType":"bytes","name":"state","type":"bytes"}],"stateMutability":"view","type":"function"},{"inputs":[],"name":"getWeth","outputs":[{"internalType":"contract IWETH9","name":"","type":"address"}],"stateMutability":"view","type":"function"},{"inputs":[{"internalType":"bytes","name":"","type":"bytes"}],"name":"init","outputs":[{"internalType":"bytes","name":"","type":"bytes"}],"stateMutability":"payable","type":"function"},{"inputs":[],"name":"payFee","outputs":[],"stateMutability":"payable","type":"function"},{"inputs":[{"internalType":"bytes","name":"data","type":"bytes"},{"components":[{"internalType":"bytes32","name":"action","type":"bytes32"},{"internalType":"bytes","name":"target","type":"bytes"},{"internalType":"enum Keyword","name":"keyword","type":"uint8"},{"internalType":"bytes32","name":"extent","type":"bytes32"}],"internalType":"struct Rule[]","name":"rules","type":"tuple[]"}],"name":"validate","outputs":[],"stateMutability":"pure","type":"function"},{"stateMutability":"payable","type":"receive"}],"bytecode":"0x608060405234801561001057600080fd5b506040516117a53803806117a583398101604081905261002f91610054565b600080546001600160a01b0319166001600160a01b0392909216919091179055610084565b60006020828403121561006657600080fd5b81516001600160a01b038116811461007d57600080fd5b9392505050565b611712806100936000396000f3fe6080604052600436106100b55760003560e01c80634242f0271161006957806352bd4f411161004e57806352bd4f41146101c05780636701b87d146101e05780638db71efb1461020057600080fd5b80634242f0271461018d5780634ddf47d4146101ad57600080fd5b80631865c57d1161009a5780631865c57d1461015357806329610252146101685780633d14319d1461016a57600080fd5b806309c5eabe146100c1578063107c279f1461011e57600080fd5b366100bc57005b600080fd5b6101086100cf366004611106565b505060408051808201909152600b81527f454d5054595f5354415445000000000000000000000000000000000000000000602082015290565b60405161011591906111c2565b60405180910390f35b34801561012a57600080fd5b5060005460405173ffffffffffffffffffffffffffffffffffffffff9091168152602001610115565b34801561015f57600080fd5b50610108610249565b005b34801561017657600080fd5b5061017f600081565b604051908152602001610115565b34801561019957600080fd5b506101086101a836600461131b565b6102eb565b6101086101bb366004611106565b6104b4565b3480156101cc57600080fd5b506101686101db366004611374565b610564565b3480156101ec57600080fd5b506101086101fb36600461140e565b6105d5565b34801561020c57600080fd5b506101086040518060400160405280600b81526020017f454d5054595f535441544500000000000000000000000000000000000000000081525081565b6040517fd06403d6000000000000000000000000000000000000000000000000000000008152306004820152606090339063d06403d690602401600060405180830381865afa1580156102a0573d6000803e3d6000fd5b505050506040513d6000823e601f3d9081017fffffffffffffffffffffffffffffffffffffffffffffffffffffffffffffffe01682016040526102e6919081019061147a565b905090565b6000546040805160048152602481019091526020810180517bffffffffffffffffffffffffffffffffffffffffffffffffffffffff167fd0e30db00000000000000000000000000000000000000000000000000000000017905260609173ffffffffffffffffffffffffffffffffffffffff169061036a828683610620565b506000546040517f70a08231000000000000000000000000000000000000000000000000000000008152336004820152869173ffffffffffffffffffffffffffffffffffffffff16906370a0823190602401602060405180830381865afa1580156103d9573d6000803e3d6000fd5b505050506040513d601f19601f820116820180604052508101906103fd91906114f1565b101561046a576040517f08c379a000000000000000000000000000000000000000000000000000000000815260206004820152601a60248201527f42616c616e6365206973206e6f74206869676820656e6f75676800000000000060448201526064015b60405180910390fd5b610476828787876106d0565b505060408051808201909152600b81527f454d5054595f53544154450000000000000000000000000000000000000000006020820152949350505050565b606060006104c0610249565b511115610529576040517f08c379a000000000000000000000000000000000000000000000000000000000815260206004820152601d60248201527f6d6f64756c6520697320616c726561647920696e697469616c697a65640000006044820152606401610461565b5060408051808201909152600b81527f454d5054595f5354415445000000000000000000000000000000000000000000602082015292915050565b600080600061057387876107ec565b506040805173ffffffffffffffffffffffffffffffffffffffff8581166020830152841681830152606080820184905282518083039091018152608090910190915292955090935091506105cb86866000848661080e565b5050505050505050565b60606105e3858585856106d0565b5060408051808201909152600b81527f454d5054595f53544154450000000000000000000000000000000000000000006020820152949350505050565b6040517f20d2a20f00000000000000000000000000000000000000000000000000000000815260609033906320d2a20f906106639087908790879060040161150a565b6000604051808303816000875af1158015610682573d6000803e3d6000fd5b505050506040513d6000823e601f3d9081017fffffffffffffffffffffffffffffffffffffffffffffffffffffffffffffffe01682016040526106c8919081019061147a565b949350505050565b6040805173ffffffffffffffffffffffffffffffffffffffff8516602482015260448082018590528251808303909101815260649091019091526020810180517bffffffffffffffffffffffffffffffffffffffffffffffffffffffff167f095ea7b300000000000000000000000000000000000000000000000000000000179052600061075f868284610620565b9050600081806020019051810190610777919061153f565b9050806107e0576040517f08c379a000000000000000000000000000000000000000000000000000000000815260206004820152600e60248201527f417070726f7665206661696c65640000000000000000000000000000000000006044820152606401610461565b6105cb86600086610620565b6000808060606107fe8587018761140e565b9299919850965090945092505050565b60005b61ffff811685111561102b577f2a0000000000000000000000000000000000000000000000000000000000000086868361ffff1681811061085457610854611561565b90506020028101906108669190611590565b35148061089a57508386868361ffff1681811061088557610885611561565b90506020028101906108979190611590565b35145b1561101957600086868361ffff168181106108b7576108b7611561565b90506020028101906108c99190611590565b6108d79060208101906115ce565b6040516108e5929190611633565b60408051918290038220828201909152600182527f2a0000000000000000000000000000000000000000000000000000000000000060209092019190915290507f04994f67dc55b09e814ab7ffc8df3686b4afb2bb53e60eae97ef043fe03fb82981148061095857508351602085012081145b1561101757600061099188888561ffff1681811061097857610978611561565b905060200281019061098a9190611590565b6060013590565b9050600688888561ffff168181106109ab576109ab611561565b90506020028101906109bd9190611590565b6109ce906060810190604001611672565b60068111156109df576109df611643565b14156109ed575050506110b6565b600088888561ffff16818110610a0557610a05611561565b9050602002810190610a179190611590565b610a28906060810190604001611672565b6006811115610a3957610a39611643565b1415610ad357808411610ace576040517f08c379a000000000000000000000000000000000000000000000000000000000815260206004820152603760248201527f556e617574686f72697a656420616374696f6e3a20657874656e742073686f7560448201527f6c642062652067726561746572207468616e2072756c650000000000000000006064820152608401610461565b61100f565b600188888561ffff16818110610aeb57610aeb611561565b9050602002810190610afd9190611590565b610b0e906060810190604001611672565b6006811115610b1f57610b1f611643565b1415610bb457808410610ace576040517f08c379a000000000000000000000000000000000000000000000000000000000815260206004820152603760248201527f556e617574686f72697a656420616374696f6e3a20657874656e742073686f7560448201527f6c6420626520736d616c6c6572207468616e2072756c650000000000000000006064820152608401610461565b600288888561ffff16818110610bcc57610bcc611561565b9050602002810190610bde9190611590565b610bef906060810190604001611672565b6006811115610c0057610c00611643565b1415610cbb57808414610ace576040517f08c379a000000000000000000000000000000000000000000000000000000000815260206004820152604160248201527f556e617574686f72697a656420616374696f6e3a20657874656e742073686f7560448201527f6c6420626520657175616c20746f2074686520657874656e74206f662072756c60648201527f6500000000000000000000000000000000000000000000000000000000000000608482015260a401610461565b600388888561ffff16818110610cd357610cd3611561565b9050602002810190610ce59190611590565b610cf6906060810190604001611672565b6006811115610d0757610d07611643565b1415610dc35780841015610ace576040517f08c379a000000000000000000000000000000000000000000000000000000000815260206004820152604260248201527f556e617574686f72697a656420616374696f6e3a20657874656e742073686f7560448201527f6c642062652067726561746572206f7220657175616c20746f2074686520727560648201527f6c65000000000000000000000000000000000000000000000000000000000000608482015260a401610461565b600488888561ffff16818110610ddb57610ddb611561565b9050602002810190610ded9190611590565b610dfe906060810190604001611672565b6006811115610e0f57610e0f611643565b1415610ea55780841115610ace576040517f08c379a000000000000000000000000000000000000000000000000000000000815260206004820152603f60248201527f556e617574686f72697a656420616374696f6e3a20657874656e742073686f7560448201527f6c64206265206c657373206f7220657175616c20746f207468652072756c65006064820152608401610461565b600588888561ffff16818110610ebd57610ebd611561565b9050602002810190610ecf9190611590565b610ee0906060810190604001611672565b6006811115610ef157610ef1611643565b1415610f875780841415610ace576040517f08c379a000000000000000000000000000000000000000000000000000000000815260206004820152603b60248201527f556e617574686f72697a656420616374696f6e3a20657874656e742073686f7560448201527f6c64206265206e6f7420657175616c20746f207468652072756c6500000000006064820152608401610461565b6040517f08c379a000000000000000000000000000000000000000000000000000000000815260206004820152602960248201527f556e617574686f72697a656420616374696f6e3a20696e76616c69642072756c60448201527f65206b6579776f726400000000000000000000000000000000000000000000006064820152608401610461565b5050506110b6565b505b8061102381611693565b915050610811565b50604080517f08c379a00000000000000000000000000000000000000000000000000000000081526020600482015260248101919091527f556e617574686f72697a656420616374696f6e3a206e6f2072756c65206d617460448201527f636865732e206661696c2074686520757365724f702062792064656661756c746064820152608401610461565b5050505050565b60008083601f8401126110cf57600080fd5b50813567ffffffffffffffff8111156110e757600080fd5b6020830191508360208285010111156110ff57600080fd5b9250929050565b6000806020838503121561111957600080fd5b823567ffffffffffffffff81111561113057600080fd5b61113c858286016110bd565b90969095509350505050565b60005b8381101561116357818101518382015260200161114b565b83811115611172576000848401525b50505050565b60008151808452611190816020860160208601611148565b601f017fffffffffffffffffffffffffffffffffffffffffffffffffffffffffffffffe0169290920160200192915050565b6020815260006111d56020830184611178565b9392505050565b73ffffffffffffffffffffffffffffffffffffffff811681146111fe57600080fd5b50565b7f4e487b7100000000000000000000000000000000000000000000000000000000600052604160045260246000fd5b604051601f82017fffffffffffffffffffffffffffffffffffffffffffffffffffffffffffffffe016810167ffffffffffffffff8111828210171561127757611277611201565b604052919050565b600067ffffffffffffffff82111561129957611299611201565b50601f017fffffffffffffffffffffffffffffffffffffffffffffffffffffffffffffffe01660200190565b600082601f8301126112d657600080fd5b81356112e96112e48261127f565b611230565b8181528460208386010111156112fe57600080fd5b816020850160208301376000918101602001919091529392505050565b60008060006060848603121561133057600080fd5b833561133b816111dc565b925060208401359150604084013567ffffffffffffffff81111561135e57600080fd5b61136a868287016112c5565b9150509250925092565b6000806000806040858703121561138a57600080fd5b843567ffffffffffffffff808211156113a257600080fd5b6113ae888389016110bd565b909650945060208701359150808211156113c757600080fd5b818701915087601f8301126113db57600080fd5b8135818111156113ea57600080fd5b8860208260051b85010111156113ff57600080fd5b95989497505060200194505050565b6000806000806080858703121561142457600080fd5b843561142f816111dc565b9350602085013561143f816111dc565b925060408501359150606085013567ffffffffffffffff81111561146257600080fd5b61146e878288016112c5565b91505092959194509250565b60006020828403121561148c57600080fd5b815167ffffffffffffffff8111156114a357600080fd5b8201601f810184136114b457600080fd5b80516114c26112e48261127f565b8181528560208385010111156114d757600080fd5b6114e8826020830160208601611148565b95945050505050565b60006020828403121561150357600080fd5b5051919050565b73ffffffffffffffffffffffffffffffffffffffff841681528260208201526060604082015260006114e86060830184611178565b60006020828403121561155157600080fd5b815180151581146111d557600080fd5b7f4e487b7100000000000000000000000000000000000000000000000000000000600052603260045260246000fd5b600082357fffffffffffffffffffffffffffffffffffffffffffffffffffffffffffffff818336030181126115c457600080fd5b9190910192915050565b60008083357fffffffffffffffffffffffffffffffffffffffffffffffffffffffffffffffe184360301811261160357600080fd5b83018035915067ffffffffffffffff82111561161e57600080fd5b6020019150368190038213156110ff57600080fd5b8183823760009101908152919050565b7f4e487b7100000000000000000000000000000000000000000000000000000000600052602160045260246000fd5b60006020828403121561168457600080fd5b8135600781106111d557600080fd5b600061ffff808316818114156116d2577f4e487b7100000000000000000000000000000000000000000000000000000000600052601160045260246000fd5b600101939250505056fea26469706673582212201480b25aa098b9a10953c30b448ac9be3011397bcd4738f5735d5ba7f566ff2564736f6c634300080c0033","linkReferences":{},"deployedLinkReferences":{},"fileHash":"86f42f9059373313b16e85b92e83cd9b70185ba91a4171d558e463ff9dfbb9a3"}