{"_format":"hh-sol-artifact-1","contractName":"ApproveAndSwap","sourceName":"contracts/modules/actions/ApproveAndSwap.sol","abi":[{"inputs":[{"internalType":"address","name":"_wethAddr","type":"address"}],"stateMutability":"nonpayable","type":"constructor"},{"inputs":[],"name":"EMPTY_BYTES32","outputs":[{"internalType":"bytes32","name":"","type":"bytes32"}],"stateMutability":"view","type":"function"},{"inputs":[],"name":"EMPTY_STATE","outputs":[{"internalType":"bytes","name":"","type":"bytes"}],"stateMutability":"view","type":"function"},{"inputs":[{"internalType":"bytes","name":"","type":"bytes"}],"name":"execute","outputs":[{"internalType":"bytes","name":"","type":"bytes"}],"stateMutability":"payable","type":"function"},{"inputs":[{"internalType":"address","name":"tokenAddr","type":"address"},{"internalType":"address","name":"routerAddr","type":"address"},{"internalType":"uint256","name":"amount","type":"uint256"},{"internalType":"bytes","name":"routerCallData","type":"bytes"}],"name":"executeSwapERC20","outputs":[{"internalType":"bytes","name":"","type":"bytes"}],"stateMutability":"nonpayable","type":"function"},{"inputs":[{"internalType":"address","name":"routerAddr","type":"address"},{"internalType":"uint256","name":"amount","type":"uint256"},{"internalType":"bytes","name":"routerCallData","type":"bytes"}],"name":"executeSwapETH","outputs":[{"internalType":"bytes","name":"","type":"bytes"}],"stateMutability":"nonpayable","type":"function"},{"inputs":[],"name":"getState","outputs":[{"internalType":"bytes","name":"state","type":"bytes"}],"stateMutability":"view","type":"function"},{"inputs":[],"name":"getWeth","outputs":[{"internalType":"contract IWETH9","name":"","type":"address"}],"stateMutability":"view","type":"function"},{"inputs":[{"internalType":"bytes","name":"","type":"bytes"}],"name":"init","outputs":[{"internalType":"bytes","name":"","type":"bytes"}],"stateMutability":"payable","type":"function"},{"inputs":[],"name":"payFee","outputs":[],"stateMutability":"payable","type":"function"},{"inputs":[{"internalType":"bytes","name":"data","type":"bytes"},{"components":[{"internalType":"bytes32","name":"action","type":"bytes32"},{"internalType":"bytes","name":"target","type":"bytes"},{"internalType":"enum Keyword","name":"keyword","type":"uint8"},{"internalType":"bytes32","name":"extent","type":"bytes32"}],"internalType":"struct Rule[]","name":"rules","type":"tuple[]"}],"name":"validate","outputs":[],"stateMutability":"view","type":"function"},{"stateMutability":"payable","type":"receive"}],"bytecode":"0x608060405234801561001057600080fd5b5060405161196f38038061196f83398101604081905261002f91610054565b600080546001600160a01b0319166001600160a01b0392909216919091179055610084565b60006020828403121561006657600080fd5b81516001600160a01b038116811461007d57600080fd5b9392505050565b6118dc806100936000396000f3fe6080604052600436106100b55760003560e01c80634242f0271161006957806352bd4f411161004e57806352bd4f41146101c05780636701b87d146101e05780638db71efb1461020057600080fd5b80634242f0271461018d5780634ddf47d4146101ad57600080fd5b80631865c57d1161009a5780631865c57d1461015357806329610252146101685780633d14319d1461016a57600080fd5b806309c5eabe146100c1578063107c279f1461011e57600080fd5b366100bc57005b600080fd5b6101086100cf36600461125e565b505060408051808201909152600b81527f454d5054595f5354415445000000000000000000000000000000000000000000602082015290565b604051610115919061131a565b60405180910390f35b34801561012a57600080fd5b5060005460405173ffffffffffffffffffffffffffffffffffffffff9091168152602001610115565b34801561015f57600080fd5b50610108610249565b005b34801561017657600080fd5b5061017f600081565b604051908152602001610115565b34801561019957600080fd5b506101086101a8366004611473565b6102eb565b6101086101bb36600461125e565b6104b4565b3480156101cc57600080fd5b506101686101db3660046114cc565b610564565b3480156101ec57600080fd5b506101086101fb366004611566565b6105f9565b34801561020c57600080fd5b506101086040518060400160405280600b81526020017f454d5054595f535441544500000000000000000000000000000000000000000081525081565b6040517fd06403d6000000000000000000000000000000000000000000000000000000008152306004820152606090339063d06403d690602401600060405180830381865afa1580156102a0573d6000803e3d6000fd5b505050506040513d6000823e601f3d9081017fffffffffffffffffffffffffffffffffffffffffffffffffffffffffffffffe01682016040526102e691908101906115d2565b905090565b6000546040805160048152602481019091526020810180517bffffffffffffffffffffffffffffffffffffffffffffffffffffffff167fd0e30db00000000000000000000000000000000000000000000000000000000017905260609173ffffffffffffffffffffffffffffffffffffffff169061036a828683610644565b506000546040517f70a08231000000000000000000000000000000000000000000000000000000008152336004820152869173ffffffffffffffffffffffffffffffffffffffff16906370a0823190602401602060405180830381865afa1580156103d9573d6000803e3d6000fd5b505050506040513d601f19601f820116820180604052508101906103fd9190611649565b101561046a576040517f08c379a000000000000000000000000000000000000000000000000000000000815260206004820152601a60248201527f42616c616e6365206973206e6f74206869676820656e6f75676800000000000060448201526064015b60405180910390fd5b610476828787876106f4565b505060408051808201909152600b81527f454d5054595f53544154450000000000000000000000000000000000000000006020820152949350505050565b606060006104c0610249565b511115610529576040517f08c379a000000000000000000000000000000000000000000000000000000000815260206004820152601d60248201527f6d6f64756c6520697320616c726561647920696e697469616c697a65640000006044820152606401610461565b5060408051808201909152600b81527f454d5054595f5354415445000000000000000000000000000000000000000000602082015292915050565b60008060006105738787610810565b50925092509250600083836040516020016105b192919073ffffffffffffffffffffffffffffffffffffffff92831681529116602082015260400190565b604080517fffffffffffffffffffffffffffffffffffffffffffffffffffffffffffffffe081840301815291905290506105ef868660008486610925565b5050505050505050565b6060610607858585856106f4565b5060408051808201909152600b81527f454d5054595f53544154450000000000000000000000000000000000000000006020820152949350505050565b6040517f20d2a20f00000000000000000000000000000000000000000000000000000000815260609033906320d2a20f9061068790879087908790600401611662565b6000604051808303816000875af11580156106a6573d6000803e3d6000fd5b505050506040513d6000823e601f3d9081017fffffffffffffffffffffffffffffffffffffffffffffffffffffffffffffffe01682016040526106ec91908101906115d2565b949350505050565b6040805173ffffffffffffffffffffffffffffffffffffffff8516602482015260448082018590528251808303909101815260649091019091526020810180517bffffffffffffffffffffffffffffffffffffffffffffffffffffffff167f095ea7b3000000000000000000000000000000000000000000000000000000001790526000610783868284610644565b905060008180602001905181019061079b9190611697565b905080610804576040517f08c379a000000000000000000000000000000000000000000000000000000000815260206004820152600e60248201527f417070726f7665206661696c65640000000000000000000000000000000000006044820152606401610461565b6105ef86600086610644565b60008080606081610824600482888a6116b9565b61082d916116e3565b90507fffffffff0000000000000000000000000000000000000000000000000000000081167f6701b87d0000000000000000000000000000000000000000000000000000000014156108995761088e610889876004818b6116b9565b6111d4565b929750909550935091505b7fffffffff0000000000000000000000000000000000000000000000000000000081167f4242f02700000000000000000000000000000000000000000000000000000000141561091b576108f86108f3876004818b6116b9565b6111f6565b60005473ffffffffffffffffffffffffffffffffffffffff169750919550935091505b5092959194509250565b60005b61ffff8116851115611142577f2a0000000000000000000000000000000000000000000000000000000000000086868361ffff1681811061096b5761096b61172b565b905060200281019061097d919061175a565b3514806109b157508386868361ffff1681811061099c5761099c61172b565b90506020028101906109ae919061175a565b35145b1561113057600086868361ffff168181106109ce576109ce61172b565b90506020028101906109e0919061175a565b6109ee906020810190611798565b6040516109fc9291906117fd565b60408051918290038220828201909152600182527f2a0000000000000000000000000000000000000000000000000000000000000060209092019190915290507f04994f67dc55b09e814ab7ffc8df3686b4afb2bb53e60eae97ef043fe03fb829811480610a6f57508351602085012081145b1561112e576000610aa888888561ffff16818110610a8f57610a8f61172b565b9050602002810190610aa1919061175a565b6060013590565b9050600688888561ffff16818110610ac257610ac261172b565b9050602002810190610ad4919061175a565b610ae590606081019060400161183c565b6006811115610af657610af661180d565b1415610b04575050506111cd565b600088888561ffff16818110610b1c57610b1c61172b565b9050602002810190610b2e919061175a565b610b3f90606081019060400161183c565b6006811115610b5057610b5061180d565b1415610bea57808411610be5576040517f08c379a000000000000000000000000000000000000000000000000000000000815260206004820152603760248201527f556e617574686f72697a656420616374696f6e3a20657874656e742073686f7560448201527f6c642062652067726561746572207468616e2072756c650000000000000000006064820152608401610461565b611126565b600188888561ffff16818110610c0257610c0261172b565b9050602002810190610c14919061175a565b610c2590606081019060400161183c565b6006811115610c3657610c3661180d565b1415610ccb57808410610be5576040517f08c379a000000000000000000000000000000000000000000000000000000000815260206004820152603760248201527f556e617574686f72697a656420616374696f6e3a20657874656e742073686f7560448201527f6c6420626520736d616c6c6572207468616e2072756c650000000000000000006064820152608401610461565b600288888561ffff16818110610ce357610ce361172b565b9050602002810190610cf5919061175a565b610d0690606081019060400161183c565b6006811115610d1757610d1761180d565b1415610dd257808414610be5576040517f08c379a000000000000000000000000000000000000000000000000000000000815260206004820152604160248201527f556e617574686f72697a656420616374696f6e3a20657874656e742073686f7560448201527f6c6420626520657175616c20746f2074686520657874656e74206f662072756c60648201527f6500000000000000000000000000000000000000000000000000000000000000608482015260a401610461565b600388888561ffff16818110610dea57610dea61172b565b9050602002810190610dfc919061175a565b610e0d90606081019060400161183c565b6006811115610e1e57610e1e61180d565b1415610eda5780841015610be5576040517f08c379a000000000000000000000000000000000000000000000000000000000815260206004820152604260248201527f556e617574686f72697a656420616374696f6e3a20657874656e742073686f7560448201527f6c642062652067726561746572206f7220657175616c20746f2074686520727560648201527f6c65000000000000000000000000000000000000000000000000000000000000608482015260a401610461565b600488888561ffff16818110610ef257610ef261172b565b9050602002810190610f04919061175a565b610f1590606081019060400161183c565b6006811115610f2657610f2661180d565b1415610fbc5780841115610be5576040517f08c379a000000000000000000000000000000000000000000000000000000000815260206004820152603f60248201527f556e617574686f72697a656420616374696f6e3a20657874656e742073686f7560448201527f6c64206265206c657373206f7220657175616c20746f207468652072756c65006064820152608401610461565b600588888561ffff16818110610fd457610fd461172b565b9050602002810190610fe6919061175a565b610ff790606081019060400161183c565b60068111156110085761100861180d565b141561109e5780841415610be5576040517f08c379a000000000000000000000000000000000000000000000000000000000815260206004820152603b60248201527f556e617574686f72697a656420616374696f6e3a20657874656e742073686f7560448201527f6c64206265206e6f7420657175616c20746f207468652072756c6500000000006064820152608401610461565b6040517f08c379a000000000000000000000000000000000000000000000000000000000815260206004820152602960248201527f556e617574686f72697a656420616374696f6e3a20696e76616c69642072756c60448201527f65206b6579776f726400000000000000000000000000000000000000000000006064820152608401610461565b5050506111cd565b505b8061113a8161185d565b915050610928565b50604080517f08c379a00000000000000000000000000000000000000000000000000000000081526020600482015260248101919091527f556e617574686f72697a656420616374696f6e3a206e6f2072756c65206d617460448201527f636865732e206661696c2074686520757365724f702062792064656661756c746064820152608401610461565b5050505050565b6000808060606111e685870187611566565b9299919850965090945092505050565b600080606061120784860186611473565b919790965090945092505050565b60008083601f84011261122757600080fd5b50813567ffffffffffffffff81111561123f57600080fd5b60208301915083602082850101111561125757600080fd5b9250929050565b6000806020838503121561127157600080fd5b823567ffffffffffffffff81111561128857600080fd5b61129485828601611215565b90969095509350505050565b60005b838110156112bb5781810151838201526020016112a3565b838111156112ca576000848401525b50505050565b600081518084526112e88160208601602086016112a0565b601f017fffffffffffffffffffffffffffffffffffffffffffffffffffffffffffffffe0169290920160200192915050565b60208152600061132d60208301846112d0565b9392505050565b73ffffffffffffffffffffffffffffffffffffffff8116811461135657600080fd5b50565b7f4e487b7100000000000000000000000000000000000000000000000000000000600052604160045260246000fd5b604051601f82017fffffffffffffffffffffffffffffffffffffffffffffffffffffffffffffffe016810167ffffffffffffffff811182821017156113cf576113cf611359565b604052919050565b600067ffffffffffffffff8211156113f1576113f1611359565b50601f017fffffffffffffffffffffffffffffffffffffffffffffffffffffffffffffffe01660200190565b600082601f83011261142e57600080fd5b813561144161143c826113d7565b611388565b81815284602083860101111561145657600080fd5b816020850160208301376000918101602001919091529392505050565b60008060006060848603121561148857600080fd5b833561149381611334565b925060208401359150604084013567ffffffffffffffff8111156114b657600080fd5b6114c28682870161141d565b9150509250925092565b600080600080604085870312156114e257600080fd5b843567ffffffffffffffff808211156114fa57600080fd5b61150688838901611215565b9096509450602087013591508082111561151f57600080fd5b818701915087601f83011261153357600080fd5b81358181111561154257600080fd5b8860208260051b850101111561155757600080fd5b95989497505060200194505050565b6000806000806080858703121561157c57600080fd5b843561158781611334565b9350602085013561159781611334565b925060408501359150606085013567ffffffffffffffff8111156115ba57600080fd5b6115c68782880161141d565b91505092959194509250565b6000602082840312156115e457600080fd5b815167ffffffffffffffff8111156115fb57600080fd5b8201601f8101841361160c57600080fd5b805161161a61143c826113d7565b81815285602083850101111561162f57600080fd5b6116408260208301602086016112a0565b95945050505050565b60006020828403121561165b57600080fd5b5051919050565b73ffffffffffffffffffffffffffffffffffffffff8416815282602082015260606040820152600061164060608301846112d0565b6000602082840312156116a957600080fd5b8151801515811461132d57600080fd5b600080858511156116c957600080fd5b838611156116d657600080fd5b5050820193919092039150565b7fffffffff0000000000000000000000000000000000000000000000000000000081358181169160048510156117235780818660040360031b1b83161692505b505092915050565b7f4e487b7100000000000000000000000000000000000000000000000000000000600052603260045260246000fd5b600082357fffffffffffffffffffffffffffffffffffffffffffffffffffffffffffffff8183360301811261178e57600080fd5b9190910192915050565b60008083357fffffffffffffffffffffffffffffffffffffffffffffffffffffffffffffffe18436030181126117cd57600080fd5b83018035915067ffffffffffffffff8211156117e857600080fd5b60200191503681900382131561125757600080fd5b8183823760009101908152919050565b7f4e487b7100000000000000000000000000000000000000000000000000000000600052602160045260246000fd5b60006020828403121561184e57600080fd5b81356007811061132d57600080fd5b600061ffff8083168181141561189c577f4e487b7100000000000000000000000000000000000000000000000000000000600052601160045260246000fd5b600101939250505056fea26469706673582212203fbd5d88086ea68fa9049b4c4fff90f95ab5101e15d63afb55f5ac749a60c35b64736f6c634300080c0033","linkReferences":{},"deployedLinkReferences":{},"fileHash":"c49c570f9b555848f1b257a7afb0edf0ab660071111953edce67055daf54b099"}