{"_format":"hh-sol-artifact-1","contractName":"ApproveAndSwap","sourceName":"contracts/modules/actions/ApproveAndSwap.sol","abi":[{"inputs":[{"internalType":"address","name":"_wethAddr","type":"address"}],"stateMutability":"nonpayable","type":"constructor"},{"inputs":[],"name":"emptyBytes32","outputs":[{"internalType":"bytes32","name":"","type":"bytes32"}],"stateMutability":"view","type":"function"},{"inputs":[{"internalType":"bytes","name":"","type":"bytes"}],"name":"execute","outputs":[{"internalType":"bytes","name":"","type":"bytes"}],"stateMutability":"payable","type":"function"},{"inputs":[{"internalType":"address","name":"tokenAddr","type":"address"},{"internalType":"address","name":"routerAddr","type":"address"},{"internalType":"uint256","name":"amount","type":"uint256"},{"internalType":"bytes","name":"routerCallData","type":"bytes"}],"name":"executeSwapERC20","outputs":[{"internalType":"bytes","name":"","type":"bytes"}],"stateMutability":"nonpayable","type":"function"},{"inputs":[{"internalType":"address","name":"routerAddr","type":"address"},{"internalType":"uint256","name":"amount","type":"uint256"},{"internalType":"bytes","name":"routerCallData","type":"bytes"}],"name":"executeSwapETH","outputs":[{"internalType":"bytes","name":"","type":"bytes"}],"stateMutability":"nonpayable","type":"function"},{"inputs":[],"name":"getState","outputs":[{"internalType":"bytes","name":"state","type":"bytes"}],"stateMutability":"view","type":"function"},{"inputs":[],"name":"getWeth","outputs":[{"internalType":"contract IWETH9","name":"","type":"address"}],"stateMutability":"view","type":"function"},{"inputs":[{"internalType":"bytes","name":"","type":"bytes"}],"name":"init","outputs":[{"internalType":"bytes","name":"","type":"bytes"}],"stateMutability":"payable","type":"function"},{"inputs":[],"name":"payFee","outputs":[],"stateMutability":"payable","type":"function"},{"inputs":[{"internalType":"bytes","name":"data","type":"bytes"},{"components":[{"internalType":"bytes32","name":"action","type":"bytes32"},{"internalType":"bytes","name":"target","type":"bytes"},{"internalType":"enum Keyword","name":"keyword","type":"uint8"},{"internalType":"bytes32","name":"extent","type":"bytes32"}],"internalType":"struct Rule[]","name":"rules","type":"tuple[]"}],"name":"validate","outputs":[],"stateMutability":"pure","type":"function"},{"stateMutability":"payable","type":"receive"}],"bytecode":"0x608060405234801561001057600080fd5b5060405161174138038061174183398101604081905261002f91610054565b600080546001600160a01b0319166001600160a01b0392909216919091179055610084565b60006020828403121561006657600080fd5b81516001600160a01b038116811461007d57600080fd5b9392505050565b6116ae806100936000396000f3fe60806040526004361061009a5760003560e01c806329610252116100695780634ddf47d41161004e5780634ddf47d41461019257806352bd4f41146101a55780636701b87d146101c557600080fd5b806329610252146101705780634242f0271461017257600080fd5b806309c5eabe146100a65780630cc6235f14610103578063107c279f146101265780631865c57d1461015b57600080fd5b366100a157005b600080fd5b6100ed6100b43660046110a2565b505060408051808201909152600b81527f454d5054595f5354415445000000000000000000000000000000000000000000602082015290565b6040516100fa919061115e565b60405180910390f35b34801561010f57600080fd5b50610118600081565b6040519081526020016100fa565b34801561013257600080fd5b5060005460405173ffffffffffffffffffffffffffffffffffffffff90911681526020016100fa565b34801561016757600080fd5b506100ed6101e5565b005b34801561017e57600080fd5b506100ed61018d3660046112b7565b610287565b6100ed6101a03660046110a2565b610450565b3480156101b157600080fd5b506101706101c0366004611310565b610500565b3480156101d157600080fd5b506100ed6101e03660046113aa565b610571565b6040517fd06403d6000000000000000000000000000000000000000000000000000000008152306004820152606090339063d06403d690602401600060405180830381865afa15801561023c573d6000803e3d6000fd5b505050506040513d6000823e601f3d9081017fffffffffffffffffffffffffffffffffffffffffffffffffffffffffffffffe01682016040526102829190810190611416565b905090565b6000546040805160048152602481019091526020810180517bffffffffffffffffffffffffffffffffffffffffffffffffffffffff167fd0e30db00000000000000000000000000000000000000000000000000000000017905260609173ffffffffffffffffffffffffffffffffffffffff16906103068286836105bc565b506000546040517f70a08231000000000000000000000000000000000000000000000000000000008152336004820152869173ffffffffffffffffffffffffffffffffffffffff16906370a0823190602401602060405180830381865afa158015610375573d6000803e3d6000fd5b505050506040513d601f19601f82011682018060405250810190610399919061148d565b1015610406576040517f08c379a000000000000000000000000000000000000000000000000000000000815260206004820152601a60248201527f42616c616e6365206973206e6f74206869676820656e6f75676800000000000060448201526064015b60405180910390fd5b6104128287878761066c565b505060408051808201909152600b81527f454d5054595f53544154450000000000000000000000000000000000000000006020820152949350505050565b6060600061045c6101e5565b5111156104c5576040517f08c379a000000000000000000000000000000000000000000000000000000000815260206004820152601d60248201527f6d6f64756c6520697320616c726561647920696e697469616c697a656400000060448201526064016103fd565b5060408051808201909152600b81527f454d5054595f5354415445000000000000000000000000000000000000000000602082015292915050565b600080600061050f8787610788565b506040805173ffffffffffffffffffffffffffffffffffffffff8581166020830152841681830152606080820184905282518083039091018152608090910190915292955090935091506105678686600084866107aa565b5050505050505050565b606061057f8585858561066c565b5060408051808201909152600b81527f454d5054595f53544154450000000000000000000000000000000000000000006020820152949350505050565b6040517f20d2a20f00000000000000000000000000000000000000000000000000000000815260609033906320d2a20f906105ff908790879087906004016114a6565b6000604051808303816000875af115801561061e573d6000803e3d6000fd5b505050506040513d6000823e601f3d9081017fffffffffffffffffffffffffffffffffffffffffffffffffffffffffffffffe01682016040526106649190810190611416565b949350505050565b6040805173ffffffffffffffffffffffffffffffffffffffff8516602482015260448082018590528251808303909101815260649091019091526020810180517bffffffffffffffffffffffffffffffffffffffffffffffffffffffff167f095ea7b30000000000000000000000000000000000000000000000000000000017905260006106fb8682846105bc565b905060008180602001905181019061071391906114db565b90508061077c576040517f08c379a000000000000000000000000000000000000000000000000000000000815260206004820152600e60248201527f417070726f7665206661696c656400000000000000000000000000000000000060448201526064016103fd565b610567866000866105bc565b60008080606061079a858701876113aa565b9299919850965090945092505050565b60005b61ffff8116851115610fc7577f2a0000000000000000000000000000000000000000000000000000000000000086868361ffff168181106107f0576107f06114fd565b9050602002810190610802919061152c565b35148061083657508386868361ffff16818110610821576108216114fd565b9050602002810190610833919061152c565b35145b15610fb557600086868361ffff16818110610853576108536114fd565b9050602002810190610865919061152c565b61087390602081019061156a565b6040516108819291906115cf565b60408051918290038220828201909152600182527f2a0000000000000000000000000000000000000000000000000000000000000060209092019190915290507f04994f67dc55b09e814ab7ffc8df3686b4afb2bb53e60eae97ef043fe03fb8298114806108f457508351602085012081145b15610fb357600061092d88888561ffff16818110610914576109146114fd565b9050602002810190610926919061152c565b6060013590565b9050600688888561ffff16818110610947576109476114fd565b9050602002810190610959919061152c565b61096a90606081019060400161160e565b600681111561097b5761097b6115df565b141561098957505050611052565b600088888561ffff168181106109a1576109a16114fd565b90506020028101906109b3919061152c565b6109c490606081019060400161160e565b60068111156109d5576109d56115df565b1415610a6f57808411610a6a576040517f08c379a000000000000000000000000000000000000000000000000000000000815260206004820152603760248201527f556e617574686f72697a656420616374696f6e3a20657874656e742073686f7560448201527f6c642062652067726561746572207468616e2072756c6500000000000000000060648201526084016103fd565b610fab565b600188888561ffff16818110610a8757610a876114fd565b9050602002810190610a99919061152c565b610aaa90606081019060400161160e565b6006811115610abb57610abb6115df565b1415610b5057808410610a6a576040517f08c379a000000000000000000000000000000000000000000000000000000000815260206004820152603760248201527f556e617574686f72697a656420616374696f6e3a20657874656e742073686f7560448201527f6c6420626520736d616c6c6572207468616e2072756c6500000000000000000060648201526084016103fd565b600288888561ffff16818110610b6857610b686114fd565b9050602002810190610b7a919061152c565b610b8b90606081019060400161160e565b6006811115610b9c57610b9c6115df565b1415610c5757808414610a6a576040517f08c379a000000000000000000000000000000000000000000000000000000000815260206004820152604160248201527f556e617574686f72697a656420616374696f6e3a20657874656e742073686f7560448201527f6c6420626520657175616c20746f2074686520657874656e74206f662072756c60648201527f6500000000000000000000000000000000000000000000000000000000000000608482015260a4016103fd565b600388888561ffff16818110610c6f57610c6f6114fd565b9050602002810190610c81919061152c565b610c9290606081019060400161160e565b6006811115610ca357610ca36115df565b1415610d5f5780841015610a6a576040517f08c379a000000000000000000000000000000000000000000000000000000000815260206004820152604260248201527f556e617574686f72697a656420616374696f6e3a20657874656e742073686f7560448201527f6c642062652067726561746572206f7220657175616c20746f2074686520727560648201527f6c65000000000000000000000000000000000000000000000000000000000000608482015260a4016103fd565b600488888561ffff16818110610d7757610d776114fd565b9050602002810190610d89919061152c565b610d9a90606081019060400161160e565b6006811115610dab57610dab6115df565b1415610e415780841115610a6a576040517f08c379a000000000000000000000000000000000000000000000000000000000815260206004820152603f60248201527f556e617574686f72697a656420616374696f6e3a20657874656e742073686f7560448201527f6c64206265206c657373206f7220657175616c20746f207468652072756c650060648201526084016103fd565b600588888561ffff16818110610e5957610e596114fd565b9050602002810190610e6b919061152c565b610e7c90606081019060400161160e565b6006811115610e8d57610e8d6115df565b1415610f235780841415610a6a576040517f08c379a000000000000000000000000000000000000000000000000000000000815260206004820152603b60248201527f556e617574686f72697a656420616374696f6e3a20657874656e742073686f7560448201527f6c64206265206e6f7420657175616c20746f207468652072756c65000000000060648201526084016103fd565b6040517f08c379a000000000000000000000000000000000000000000000000000000000815260206004820152602960248201527f556e617574686f72697a656420616374696f6e3a20696e76616c69642072756c60448201527f65206b6579776f7264000000000000000000000000000000000000000000000060648201526084016103fd565b505050611052565b505b80610fbf8161162f565b9150506107ad565b50604080517f08c379a00000000000000000000000000000000000000000000000000000000081526020600482015260248101919091527f556e617574686f72697a656420616374696f6e3a206e6f2072756c65206d617460448201527f636865732e206661696c2074686520757365724f702062792064656661756c7460648201526084016103fd565b5050505050565b60008083601f84011261106b57600080fd5b50813567ffffffffffffffff81111561108357600080fd5b60208301915083602082850101111561109b57600080fd5b9250929050565b600080602083850312156110b557600080fd5b823567ffffffffffffffff8111156110cc57600080fd5b6110d885828601611059565b90969095509350505050565b60005b838110156110ff5781810151838201526020016110e7565b8381111561110e576000848401525b50505050565b6000815180845261112c8160208601602086016110e4565b601f017fffffffffffffffffffffffffffffffffffffffffffffffffffffffffffffffe0169290920160200192915050565b6020815260006111716020830184611114565b9392505050565b73ffffffffffffffffffffffffffffffffffffffff8116811461119a57600080fd5b50565b7f4e487b7100000000000000000000000000000000000000000000000000000000600052604160045260246000fd5b604051601f82017fffffffffffffffffffffffffffffffffffffffffffffffffffffffffffffffe016810167ffffffffffffffff811182821017156112135761121361119d565b604052919050565b600067ffffffffffffffff8211156112355761123561119d565b50601f017fffffffffffffffffffffffffffffffffffffffffffffffffffffffffffffffe01660200190565b600082601f83011261127257600080fd5b81356112856112808261121b565b6111cc565b81815284602083860101111561129a57600080fd5b816020850160208301376000918101602001919091529392505050565b6000806000606084860312156112cc57600080fd5b83356112d781611178565b925060208401359150604084013567ffffffffffffffff8111156112fa57600080fd5b61130686828701611261565b9150509250925092565b6000806000806040858703121561132657600080fd5b843567ffffffffffffffff8082111561133e57600080fd5b61134a88838901611059565b9096509450602087013591508082111561136357600080fd5b818701915087601f83011261137757600080fd5b81358181111561138657600080fd5b8860208260051b850101111561139b57600080fd5b95989497505060200194505050565b600080600080608085870312156113c057600080fd5b84356113cb81611178565b935060208501356113db81611178565b925060408501359150606085013567ffffffffffffffff8111156113fe57600080fd5b61140a87828801611261565b91505092959194509250565b60006020828403121561142857600080fd5b815167ffffffffffffffff81111561143f57600080fd5b8201601f8101841361145057600080fd5b805161145e6112808261121b565b81815285602083850101111561147357600080fd5b6114848260208301602086016110e4565b95945050505050565b60006020828403121561149f57600080fd5b5051919050565b73ffffffffffffffffffffffffffffffffffffffff841681528260208201526060604082015260006114846060830184611114565b6000602082840312156114ed57600080fd5b8151801515811461117157600080fd5b7f4e487b7100000000000000000000000000000000000000000000000000000000600052603260045260246000fd5b600082357fffffffffffffffffffffffffffffffffffffffffffffffffffffffffffffff8183360301811261156057600080fd5b9190910192915050565b60008083357fffffffffffffffffffffffffffffffffffffffffffffffffffffffffffffffe184360301811261159f57600080fd5b83018035915067ffffffffffffffff8211156115ba57600080fd5b60200191503681900382131561109b57600080fd5b8183823760009101908152919050565b7f4e487b7100000000000000000000000000000000000000000000000000000000600052602160045260246000fd5b60006020828403121561162057600080fd5b81356007811061117157600080fd5b600061ffff8083168181141561166e577f4e487b7100000000000000000000000000000000000000000000000000000000600052601160045260246000fd5b600101939250505056fea264697066735822122071d8fb36494ec5f12fe1825738155f88322a0d9664782baaabc9af6a2e7b389864736f6c634300080c0033","linkReferences":{},"deployedLinkReferences":{},"fileHash":"32cd21aa54a9648cb94a1ff5fa3be3faf7c199f598aaf70ec4180d67e7de85a0"}