{"_format":"hh-sol-artifact-1","contractName":"EntryPoint","sourceName":"contracts/eip-4337/EntryPoint.sol","abi":[{"inputs":[{"internalType":"uint256","name":"preOpGas","type":"uint256"},{"internalType":"uint256","name":"paid","type":"uint256"},{"internalType":"uint48","name":"validAfter","type":"uint48"},{"internalType":"uint48","name":"validUntil","type":"uint48"},{"internalType":"bool","name":"targetSuccess","type":"bool"},{"internalType":"bytes","name":"targetResult","type":"bytes"}],"name":"ExecutionResult","type":"error"},{"inputs":[{"internalType":"uint256","name":"opIndex","type":"uint256"},{"internalType":"string","name":"reason","type":"string"}],"name":"FailedOp","type":"error"},{"inputs":[{"internalType":"address","name":"sender","type":"address"}],"name":"SenderAddressResult","type":"error"},{"inputs":[{"internalType":"address","name":"aggregator","type":"address"}],"name":"SignatureValidationFailed","type":"error"},{"inputs":[{"components":[{"internalType":"uint256","name":"preOpGas","type":"uint256"},{"internalType":"uint256","name":"prefund","type":"uint256"},{"internalType":"bool","name":"sigFailed","type":"bool"},{"internalType":"uint48","name":"validAfter","type":"uint48"},{"internalType":"uint48","name":"validUntil","type":"uint48"},{"internalType":"bytes","name":"paymasterContext","type":"bytes"}],"internalType":"struct IEntryPoint.ReturnInfo","name":"returnInfo","type":"tuple"},{"components":[{"internalType":"uint256","name":"stake","type":"uint256"},{"internalType":"uint256","name":"unstakeDelaySec","type":"uint256"}],"internalType":"struct IStakeManager.StakeInfo","name":"senderInfo","type":"tuple"},{"components":[{"internalType":"uint256","name":"stake","type":"uint256"},{"internalType":"uint256","name":"unstakeDelaySec","type":"uint256"}],"internalType":"struct IStakeManager.StakeInfo","name":"factoryInfo","type":"tuple"},{"components":[{"internalType":"uint256","name":"stake","type":"uint256"},{"internalType":"uint256","name":"unstakeDelaySec","type":"uint256"}],"internalType":"struct IStakeManager.StakeInfo","name":"paymasterInfo","type":"tuple"}],"name":"ValidationResult","type":"error"},{"inputs":[{"components":[{"internalType":"uint256","name":"preOpGas","type":"uint256"},{"internalType":"uint256","name":"prefund","type":"uint256"},{"internalType":"bool","name":"sigFailed","type":"bool"},{"internalType":"uint48","name":"validAfter","type":"uint48"},{"internalType":"uint48","name":"validUntil","type":"uint48"},{"internalType":"bytes","name":"paymasterContext","type":"bytes"}],"internalType":"struct IEntryPoint.ReturnInfo","name":"returnInfo","type":"tuple"},{"components":[{"internalType":"uint256","name":"stake","type":"uint256"},{"internalType":"uint256","name":"unstakeDelaySec","type":"uint256"}],"internalType":"struct IStakeManager.StakeInfo","name":"senderInfo","type":"tuple"},{"components":[{"internalType":"uint256","name":"stake","type":"uint256"},{"internalType":"uint256","name":"unstakeDelaySec","type":"uint256"}],"internalType":"struct IStakeManager.StakeInfo","name":"factoryInfo","type":"tuple"},{"components":[{"internalType":"uint256","name":"stake","type":"uint256"},{"internalType":"uint256","name":"unstakeDelaySec","type":"uint256"}],"internalType":"struct IStakeManager.StakeInfo","name":"paymasterInfo","type":"tuple"},{"components":[{"internalType":"address","name":"aggregator","type":"address"},{"components":[{"internalType":"uint256","name":"stake","type":"uint256"},{"internalType":"uint256","name":"unstakeDelaySec","type":"uint256"}],"internalType":"struct IStakeManager.StakeInfo","name":"stakeInfo","type":"tuple"}],"internalType":"struct IEntryPoint.AggregatorStakeInfo","name":"aggregatorInfo","type":"tuple"}],"name":"ValidationResultWithAggregation","type":"error"},{"anonymous":false,"inputs":[{"indexed":true,"internalType":"bytes32","name":"userOpHash","type":"bytes32"},{"indexed":true,"internalType":"address","name":"sender","type":"address"},{"indexed":false,"internalType":"address","name":"factory","type":"address"},{"indexed":false,"internalType":"address","name":"paymaster","type":"address"}],"name":"AccountDeployed","type":"event"},{"anonymous":false,"inputs":[{"indexed":true,"internalType":"address","name":"account","type":"address"},{"indexed":false,"internalType":"uint256","name":"totalDeposit","type":"uint256"}],"name":"Deposited","type":"event"},{"anonymous":false,"inputs":[{"indexed":true,"internalType":"address","name":"aggregator","type":"address"}],"name":"SignatureAggregatorChanged","type":"event"},{"anonymous":false,"inputs":[{"indexed":true,"internalType":"address","name":"account","type":"address"},{"indexed":false,"internalType":"uint256","name":"totalStaked","type":"uint256"},{"indexed":false,"internalType":"uint256","name":"unstakeDelaySec","type":"uint256"}],"name":"StakeLocked","type":"event"},{"anonymous":false,"inputs":[{"indexed":true,"internalType":"address","name":"account","type":"address"},{"indexed":false,"internalType":"uint256","name":"withdrawTime","type":"uint256"}],"name":"StakeUnlocked","type":"event"},{"anonymous":false,"inputs":[{"indexed":true,"internalType":"address","name":"account","type":"address"},{"indexed":false,"internalType":"address","name":"withdrawAddress","type":"address"},{"indexed":false,"internalType":"uint256","name":"amount","type":"uint256"}],"name":"StakeWithdrawn","type":"event"},{"anonymous":false,"inputs":[{"indexed":true,"internalType":"bytes32","name":"userOpHash","type":"bytes32"},{"indexed":true,"internalType":"address","name":"sender","type":"address"},{"indexed":true,"internalType":"address","name":"paymaster","type":"address"},{"indexed":false,"internalType":"uint256","name":"nonce","type":"uint256"},{"indexed":false,"internalType":"bool","name":"success","type":"bool"},{"indexed":false,"internalType":"uint256","name":"actualGasCost","type":"uint256"},{"indexed":false,"internalType":"uint256","name":"actualGasUsed","type":"uint256"}],"name":"UserOperationEvent","type":"event"},{"anonymous":false,"inputs":[{"indexed":true,"internalType":"bytes32","name":"userOpHash","type":"bytes32"},{"indexed":true,"internalType":"address","name":"sender","type":"address"},{"indexed":false,"internalType":"uint256","name":"nonce","type":"uint256"},{"indexed":false,"internalType":"bytes","name":"revertReason","type":"bytes"}],"name":"UserOperationRevertReason","type":"event"},{"anonymous":false,"inputs":[{"indexed":true,"internalType":"address","name":"account","type":"address"},{"indexed":false,"internalType":"address","name":"withdrawAddress","type":"address"},{"indexed":false,"internalType":"uint256","name":"amount","type":"uint256"}],"name":"Withdrawn","type":"event"},{"inputs":[],"name":"SIG_VALIDATION_FAILED","outputs":[{"internalType":"uint256","name":"","type":"uint256"}],"stateMutability":"view","type":"function"},{"inputs":[{"internalType":"bytes","name":"initCode","type":"bytes"},{"internalType":"address","name":"sender","type":"address"},{"internalType":"bytes","name":"paymasterAndData","type":"bytes"}],"name":"_validateSenderAndPaymaster","outputs":[],"stateMutability":"view","type":"function"},{"inputs":[{"internalType":"uint32","name":"unstakeDelaySec","type":"uint32"}],"name":"addStake","outputs":[],"stateMutability":"payable","type":"function"},{"inputs":[{"internalType":"address","name":"account","type":"address"}],"name":"balanceOf","outputs":[{"internalType":"uint256","name":"","type":"uint256"}],"stateMutability":"view","type":"function"},{"inputs":[{"internalType":"address","name":"account","type":"address"}],"name":"depositTo","outputs":[],"stateMutability":"payable","type":"function"},{"inputs":[{"internalType":"address","name":"","type":"address"}],"name":"deposits","outputs":[{"internalType":"uint112","name":"deposit","type":"uint112"},{"internalType":"bool","name":"staked","type":"bool"},{"internalType":"uint112","name":"stake","type":"uint112"},{"internalType":"uint32","name":"unstakeDelaySec","type":"uint32"},{"internalType":"uint48","name":"withdrawTime","type":"uint48"}],"stateMutability":"view","type":"function"},{"inputs":[{"internalType":"address","name":"account","type":"address"}],"name":"getDepositInfo","outputs":[{"components":[{"internalType":"uint112","name":"deposit","type":"uint112"},{"internalType":"bool","name":"staked","type":"bool"},{"internalType":"uint112","name":"stake","type":"uint112"},{"internalType":"uint32","name":"unstakeDelaySec","type":"uint32"},{"internalType":"uint48","name":"withdrawTime","type":"uint48"}],"internalType":"struct IStakeManager.DepositInfo","name":"info","type":"tuple"}],"stateMutability":"view","type":"function"},{"inputs":[{"internalType":"bytes","name":"initCode","type":"bytes"}],"name":"getSenderAddress","outputs":[],"stateMutability":"nonpayable","type":"function"},{"inputs":[{"components":[{"internalType":"address","name":"sender","type":"address"},{"internalType":"uint256","name":"nonce","type":"uint256"},{"internalType":"bytes","name":"initCode","type":"bytes"},{"internalType":"bytes","name":"callData","type":"bytes"},{"internalType":"uint256","name":"callGasLimit","type":"uint256"},{"internalType":"uint256","name":"verificationGasLimit","type":"uint256"},{"internalType":"uint256","name":"preVerificationGas","type":"uint256"},{"internalType":"uint256","name":"maxFeePerGas","type":"uint256"},{"internalType":"uint256","name":"maxPriorityFeePerGas","type":"uint256"},{"internalType":"bytes","name":"paymasterAndData","type":"bytes"},{"internalType":"bytes","name":"signature","type":"bytes"}],"internalType":"struct UserOperation","name":"userOp","type":"tuple"}],"name":"getUserOpHash","outputs":[{"internalType":"bytes32","name":"","type":"bytes32"}],"stateMutability":"view","type":"function"},{"inputs":[{"components":[{"components":[{"internalType":"address","name":"sender","type":"address"},{"internalType":"uint256","name":"nonce","type":"uint256"},{"internalType":"bytes","name":"initCode","type":"bytes"},{"internalType":"bytes","name":"callData","type":"bytes"},{"internalType":"uint256","name":"callGasLimit","type":"uint256"},{"internalType":"uint256","name":"verificationGasLimit","type":"uint256"},{"internalType":"uint256","name":"preVerificationGas","type":"uint256"},{"internalType":"uint256","name":"maxFeePerGas","type":"uint256"},{"internalType":"uint256","name":"maxPriorityFeePerGas","type":"uint256"},{"internalType":"bytes","name":"paymasterAndData","type":"bytes"},{"internalType":"bytes","name":"signature","type":"bytes"}],"internalType":"struct UserOperation[]","name":"userOps","type":"tuple[]"},{"internalType":"contract IAggregator","name":"aggregator","type":"address"},{"internalType":"bytes","name":"signature","type":"bytes"}],"internalType":"struct IEntryPoint.UserOpsPerAggregator[]","name":"opsPerAggregator","type":"tuple[]"},{"internalType":"address payable","name":"beneficiary","type":"address"}],"name":"handleAggregatedOps","outputs":[],"stateMutability":"nonpayable","type":"function"},{"inputs":[{"components":[{"internalType":"address","name":"sender","type":"address"},{"internalType":"uint256","name":"nonce","type":"uint256"},{"internalType":"bytes","name":"initCode","type":"bytes"},{"internalType":"bytes","name":"callData","type":"bytes"},{"internalType":"uint256","name":"callGasLimit","type":"uint256"},{"internalType":"uint256","name":"verificationGasLimit","type":"uint256"},{"internalType":"uint256","name":"preVerificationGas","type":"uint256"},{"internalType":"uint256","name":"maxFeePerGas","type":"uint256"},{"internalType":"uint256","name":"maxPriorityFeePerGas","type":"uint256"},{"internalType":"bytes","name":"paymasterAndData","type":"bytes"},{"internalType":"bytes","name":"signature","type":"bytes"}],"internalType":"struct UserOperation[]","name":"ops","type":"tuple[]"},{"internalType":"address payable","name":"beneficiary","type":"address"}],"name":"handleOps","outputs":[],"stateMutability":"nonpayable","type":"function"},{"inputs":[{"internalType":"bytes","name":"callData","type":"bytes"},{"components":[{"components":[{"internalType":"address","name":"sender","type":"address"},{"internalType":"uint256","name":"nonce","type":"uint256"},{"internalType":"uint256","name":"callGasLimit","type":"uint256"},{"internalType":"uint256","name":"verificationGasLimit","type":"uint256"},{"internalType":"uint256","name":"preVerificationGas","type":"uint256"},{"internalType":"address","name":"paymaster","type":"address"},{"internalType":"uint256","name":"maxFeePerGas","type":"uint256"},{"internalType":"uint256","name":"maxPriorityFeePerGas","type":"uint256"}],"internalType":"struct EntryPoint.MemoryUserOp","name":"mUserOp","type":"tuple"},{"internalType":"bytes32","name":"userOpHash","type":"bytes32"},{"internalType":"uint256","name":"prefund","type":"uint256"},{"internalType":"uint256","name":"contextOffset","type":"uint256"},{"internalType":"uint256","name":"preOpGas","type":"uint256"}],"internalType":"struct EntryPoint.UserOpInfo","name":"opInfo","type":"tuple"},{"internalType":"bytes","name":"context","type":"bytes"}],"name":"innerHandleOp","outputs":[{"internalType":"uint256","name":"actualGasCost","type":"uint256"}],"stateMutability":"nonpayable","type":"function"},{"inputs":[{"components":[{"internalType":"address","name":"sender","type":"address"},{"internalType":"uint256","name":"nonce","type":"uint256"},{"internalType":"bytes","name":"initCode","type":"bytes"},{"internalType":"bytes","name":"callData","type":"bytes"},{"internalType":"uint256","name":"callGasLimit","type":"uint256"},{"internalType":"uint256","name":"verificationGasLimit","type":"uint256"},{"internalType":"uint256","name":"preVerificationGas","type":"uint256"},{"internalType":"uint256","name":"maxFeePerGas","type":"uint256"},{"internalType":"uint256","name":"maxPriorityFeePerGas","type":"uint256"},{"internalType":"bytes","name":"paymasterAndData","type":"bytes"},{"internalType":"bytes","name":"signature","type":"bytes"}],"internalType":"struct UserOperation","name":"op","type":"tuple"},{"internalType":"address","name":"target","type":"address"},{"internalType":"bytes","name":"targetCallData","type":"bytes"}],"name":"simulateHandleOp","outputs":[],"stateMutability":"nonpayable","type":"function"},{"inputs":[{"components":[{"internalType":"address","name":"sender","type":"address"},{"internalType":"uint256","name":"nonce","type":"uint256"},{"internalType":"bytes","name":"initCode","type":"bytes"},{"internalType":"bytes","name":"callData","type":"bytes"},{"internalType":"uint256","name":"callGasLimit","type":"uint256"},{"internalType":"uint256","name":"verificationGasLimit","type":"uint256"},{"internalType":"uint256","name":"preVerificationGas","type":"uint256"},{"internalType":"uint256","name":"maxFeePerGas","type":"uint256"},{"internalType":"uint256","name":"maxPriorityFeePerGas","type":"uint256"},{"internalType":"bytes","name":"paymasterAndData","type":"bytes"},{"internalType":"bytes","name":"signature","type":"bytes"}],"internalType":"struct UserOperation","name":"userOp","type":"tuple"}],"name":"simulateValidation","outputs":[],"stateMutability":"nonpayable","type":"function"},{"inputs":[],"name":"unlockStake","outputs":[],"stateMutability":"nonpayable","type":"function"},{"inputs":[{"internalType":"address payable","name":"withdrawAddress","type":"address"}],"name":"withdrawStake","outputs":[],"stateMutability":"nonpayable","type":"function"},{"inputs":[{"internalType":"address payable","name":"withdrawAddress","type":"address"},{"internalType":"uint256","name":"withdrawAmount","type":"uint256"}],"name":"withdrawTo","outputs":[],"stateMutability":"nonpayable","type":"function"},{"stateMutability":"payable","type":"receive"}],"bytecode":"0x60a0604052604051620000129062000050565b604051809103906000f0801580156200002f573d6000803e3d6000fd5b506001600160a01b03166080523480156200004957600080fd5b506200005e565b6102338062004b1883390190565b608051614a97620000816000396000818161144d01526136160152614a976000f3fe6080604052600436106101125760003560e01c8063957122ab116100a5578063bb9fe6bf11610074578063d6383f9411610059578063d6383f941461042c578063ee2194231461044c578063fc7e286d1461046c57600080fd5b8063bb9fe6bf146103f7578063c23a5cea1461040c57600080fd5b8063957122ab146103845780639b249f69146103a4578063a6193531146103c4578063b760faf9146103e457600080fd5b80634b1d7cf5116100e15780634b1d7cf5146101ad5780635287ce12146101cd57806370a082311461031c5780638f41ec5a1461036f57600080fd5b80630396cb60146101275780631d7327561461013a5780631fad948c1461016d578063205c28781461018d57600080fd5b366101225761012033610546565b005b600080fd5b610120610135366004613986565b6105c1565b34801561014657600080fd5b5061015a610155366004613bfd565b610944565b6040519081526020015b60405180910390f35b34801561017957600080fd5b50610120610188366004613d08565b610af7565b34801561019957600080fd5b506101206101a8366004613d5f565b610c38565b3480156101b957600080fd5b506101206101c8366004613d08565b610e3a565b3480156101d957600080fd5b506102bd6101e8366004613d8b565b6040805160a0810182526000808252602082018190529181018290526060810182905260808101919091525073ffffffffffffffffffffffffffffffffffffffff1660009081526020818152604091829020825160a08101845281546dffffffffffffffffffffffffffff80821683526e010000000000000000000000000000820460ff161515948301949094526f0100000000000000000000000000000090049092169282019290925260019091015463ffffffff81166060830152640100000000900465ffffffffffff16608082015290565b6040805182516dffffffffffffffffffffffffffff908116825260208085015115159083015283830151169181019190915260608083015163ffffffff169082015260809182015165ffffffffffff169181019190915260a001610164565b34801561032857600080fd5b5061015a610337366004613d8b565b73ffffffffffffffffffffffffffffffffffffffff166000908152602081905260409020546dffffffffffffffffffffffffffff1690565b34801561037b57600080fd5b5061015a600181565b34801561039057600080fd5b5061012061039f366004613da8565b6112bb565b3480156103b057600080fd5b506101206103bf366004613e2d565b611410565b3480156103d057600080fd5b5061015a6103df366004613e88565b611512565b6101206103f2366004613d8b565b610546565b34801561040357600080fd5b50610120611554565b34801561041857600080fd5b50610120610427366004613d8b565b611705565b34801561043857600080fd5b50610120610447366004613ebd565b611a05565b34801561045857600080fd5b50610120610467366004613e88565b611b33565b34801561047857600080fd5b506104f9610487366004613d8b565b600060208190529081526040902080546001909101546dffffffffffffffffffffffffffff808316926e010000000000000000000000000000810460ff16926f010000000000000000000000000000009091049091169063ffffffff811690640100000000900465ffffffffffff1685565b604080516dffffffffffffffffffffffffffff96871681529415156020860152929094169183019190915263ffffffff16606082015265ffffffffffff909116608082015260a001610164565b6105508134611e9b565b73ffffffffffffffffffffffffffffffffffffffff811660008181526020818152604091829020805492516dffffffffffffffffffffffffffff909316835292917f2da466a7b24304f47e87fa2e1e5a81b9831ce54fec19055ce277ca2f39ba42c491015b60405180910390a25050565b33600090815260208190526040902063ffffffff8216610642576040517f08c379a000000000000000000000000000000000000000000000000000000000815260206004820152601a60248201527f6d757374207370656369667920756e7374616b652064656c617900000000000060448201526064015b60405180910390fd5b600181015463ffffffff90811690831610156106ba576040517f08c379a000000000000000000000000000000000000000000000000000000000815260206004820152601c60248201527f63616e6e6f7420646563726561736520756e7374616b652074696d65000000006044820152606401610639565b80546000906106ed9034906f0100000000000000000000000000000090046dffffffffffffffffffffffffffff16613f4e565b905060008111610759576040517f08c379a000000000000000000000000000000000000000000000000000000000815260206004820152601260248201527f6e6f207374616b652073706563696669656400000000000000000000000000006044820152606401610639565b6dffffffffffffffffffffffffffff8111156107d1576040517f08c379a000000000000000000000000000000000000000000000000000000000815260206004820152600e60248201527f7374616b65206f766572666c6f770000000000000000000000000000000000006044820152606401610639565b6040805160a08101825283546dffffffffffffffffffffffffffff90811682526001602080840182815286841685870190815263ffffffff808b16606088019081526000608089018181523380835296829052908a9020985189549551945189166f01000000000000000000000000000000027fffffff0000000000000000000000000000ffffffffffffffffffffffffffffff9515156e010000000000000000000000000000027fffffffffffffffffffffffffffffffffff0000000000000000000000000000009097169190991617949094179290921695909517865551949092018054925165ffffffffffff16640100000000027fffffffffffffffffffffffffffffffffffffffffffff00000000000000000000909316949093169390931717905590517fa5ae833d0bb1dcd632d98a8b70973e8516812898e19bf27b70071ebc8dc52c0190610937908490879091825263ffffffff16602082015260400190565b60405180910390a2505050565b6000805a90503330146109b3576040517f08c379a000000000000000000000000000000000000000000000000000000000815260206004820152601760248201527f4141393220696e7465726e616c2063616c6c206f6e6c790000000000000000006044820152606401610639565b8451604081015160608201518101611388015a10156109f6577fdeaddead0000000000000000000000000000000000000000000000000000000060005260206000fd5b875160009015610a97576000610a13846000015160008c86611f98565b905080610a95576000610a27610800611fb0565b805190915015610a8f57846000015173ffffffffffffffffffffffffffffffffffffffff168a602001517f1c4fada7374c0a9ee8841fc38afe82932dc0f8e69012e927f061a8bae611a201876020015184604051610a86929190613fdc565b60405180910390a35b60019250505b505b600088608001515a8603019050610ae96000838b8b8b8080601f016020809104026020016040519081016040528093929190818152602001838380828437600092019190915250889250611fdc915050565b9a9950505050505050505050565b8160008167ffffffffffffffff811115610b1357610b136139ac565b604051908082528060200260200182016040528015610b4c57816020015b610b396138e2565b815260200190600190039081610b315790505b50905060005b82811015610bc5576000828281518110610b6e57610b6e613ff5565b60200260200101519050600080610ba9848a8a87818110610b9157610b91613ff5565b9050602002810190610ba39190614024565b856123bb565b91509150610bba848383600061257d565b505050600101610b52565b506000805b83811015610c2557610c1981888884818110610be857610be8613ff5565b9050602002810190610bfa9190614024565b858481518110610c0c57610c0c613ff5565b60200260200101516127d2565b90910190600101610bca565b50610c308482612958565b505050505050565b33600090815260208190526040902080546dffffffffffffffffffffffffffff16821115610cc2576040517f08c379a000000000000000000000000000000000000000000000000000000000815260206004820152601960248201527f576974686472617720616d6f756e7420746f6f206c61726765000000000000006044820152606401610639565b8054610cdf9083906dffffffffffffffffffffffffffff16614062565b81547fffffffffffffffffffffffffffffffffffff0000000000000000000000000000166dffffffffffffffffffffffffffff919091161781556040805173ffffffffffffffffffffffffffffffffffffffff851681526020810184905233917fd1c19fbcd4551a5edfb66d43d2e337c04837afda3482b42bdf569a8fccdae5fb910160405180910390a260008373ffffffffffffffffffffffffffffffffffffffff168360405160006040518083038185875af1925050503d8060008114610dc4576040519150601f19603f3d011682016040523d82523d6000602084013e610dc9565b606091505b5050905080610e34576040517f08c379a000000000000000000000000000000000000000000000000000000000815260206004820152601260248201527f6661696c656420746f20776974686472617700000000000000000000000000006044820152606401610639565b50505050565b816000805b828110156110155736868683818110610e5a57610e5a613ff5565b9050602002810190610e6c9190614079565b9050366000610e7b83806140ad565b90925090506000610e926040850160208601613d8b565b905073ffffffffffffffffffffffffffffffffffffffff811660011415610f15576040517f08c379a000000000000000000000000000000000000000000000000000000000815260206004820152601760248201527f4141393620696e76616c69642061676772656761746f720000000000000000006044820152606401610639565b73ffffffffffffffffffffffffffffffffffffffff811615610ff25773ffffffffffffffffffffffffffffffffffffffff811663e3563a4f8484610f5c6040890189614115565b6040518563ffffffff1660e01b8152600401610f7b949392919061432b565b60006040518083038186803b158015610f9357600080fd5b505afa925050508015610fa4575060015b610ff2576040517f86a9f75000000000000000000000000000000000000000000000000000000000815273ffffffffffffffffffffffffffffffffffffffff82166004820152602401610639565b610ffc8287613f4e565b955050505050808061100d906143e2565b915050610e3f565b5060008167ffffffffffffffff811115611031576110316139ac565b60405190808252806020026020018201604052801561106a57816020015b6110576138e2565b81526020019060019003908161104f5790505b5090506000805b84811015611155573688888381811061108c5761108c613ff5565b905060200281019061109e9190614079565b90503660006110ad83806140ad565b909250905060006110c46040850160208601613d8b565b90508160005b8181101561113c5760008989815181106110e6576110e6613ff5565b602002602001015190506000806111098b898987818110610b9157610b91613ff5565b915091506111198483838961257d565b8a611123816143e2565b9b50505050508080611134906143e2565b9150506110ca565b505050505050808061114d906143e2565b915050611071565b50600080915060005b8581101561127b573689898381811061117957611179613ff5565b905060200281019061118b9190614079565b905061119d6040820160208301613d8b565b73ffffffffffffffffffffffffffffffffffffffff167f575ff3acadd5ab348fe1855e217e0f3678f8d767d7494c9f9fefbee2e17cca4d60405160405180910390a23660006111ec83806140ad565b90925090508060005b81811015611263576112378885858481811061121357611213613ff5565b90506020028101906112259190614024565b8b8b81518110610c0c57610c0c613ff5565b6112419088613f4e565b96508761124d816143e2565b985050808061125b906143e2565b9150506111f5565b50505050508080611273906143e2565b91505061115e565b506040516000907f575ff3acadd5ab348fe1855e217e0f3678f8d767d7494c9f9fefbee2e17cca4d908290a26112b18682612958565b5050505050505050565b831580156112de575073ffffffffffffffffffffffffffffffffffffffff83163b155b15611345576040517f08c379a000000000000000000000000000000000000000000000000000000000815260206004820152601960248201527f41413230206163636f756e74206e6f74206465706c6f796564000000000000006044820152606401610639565b601481106113d457600061135c601482848661441b565b61136591614445565b60601c9050803b6113d2576040517f08c379a000000000000000000000000000000000000000000000000000000000815260206004820152601b60248201527f41413330207061796d6173746572206e6f74206465706c6f79656400000000006044820152606401610639565b505b6040517f08c379a00000000000000000000000000000000000000000000000000000000081526020600482015260006024820152604401610639565b6040517f570e1a3600000000000000000000000000000000000000000000000000000000815273ffffffffffffffffffffffffffffffffffffffff7f0000000000000000000000000000000000000000000000000000000000000000169063570e1a3690611484908590859060040161448d565b6020604051808303816000875af11580156114a3573d6000803e3d6000fd5b505050506040513d601f19601f820116820180604052508101906114c791906144a1565b6040517f6ca7b80600000000000000000000000000000000000000000000000000000000815273ffffffffffffffffffffffffffffffffffffffff9091166004820152602401610639565b600061151d82612aa4565b6040805160208101929092523090820152466060820152608001604051602081830303815290604052805190602001209050919050565b336000908152602081905260409020600181015463ffffffff166115d4576040517f08c379a000000000000000000000000000000000000000000000000000000000815260206004820152600a60248201527f6e6f74207374616b6564000000000000000000000000000000000000000000006044820152606401610639565b80546e010000000000000000000000000000900460ff16611651576040517f08c379a000000000000000000000000000000000000000000000000000000000815260206004820152601160248201527f616c726561647920756e7374616b696e670000000000000000000000000000006044820152606401610639565b60018101546000906116699063ffffffff16426144be565b6001830180547fffffffffffffffffffffffffffffffffffffffffffff000000000000ffffffff1664010000000065ffffffffffff84169081029190911790915583547fffffffffffffffffffffffffffffffffff00ffffffffffffffffffffffffffff16845560405190815290915033907ffa9b3c14cc825c412c9ed81b3ba365a5b459439403f18829e572ed53a4180f0a906020016105b5565b33600090815260208190526040902080546f0100000000000000000000000000000090046dffffffffffffffffffffffffffff16806117a0576040517f08c379a000000000000000000000000000000000000000000000000000000000815260206004820152601460248201527f4e6f207374616b6520746f2077697468647261770000000000000000000000006044820152606401610639565b6001820154640100000000900465ffffffffffff1661181b576040517f08c379a000000000000000000000000000000000000000000000000000000000815260206004820152601d60248201527f6d7573742063616c6c20756e6c6f636b5374616b6528292066697273740000006044820152606401610639565b60018201544264010000000090910465ffffffffffff16111561189a576040517f08c379a000000000000000000000000000000000000000000000000000000000815260206004820152601b60248201527f5374616b65207769746864726177616c206973206e6f742064756500000000006044820152606401610639565b6001820180547fffffffffffffffffffffffffffffffffffffffffffff0000000000000000000016905581547fffffff0000000000000000000000000000ffffffffffffffffffffffffffffff1682556040805173ffffffffffffffffffffffffffffffffffffffff851681526020810183905233917fb7c918e0e249f999e965cafeb6c664271b3f4317d296461500e71da39f0cbda3910160405180910390a260008373ffffffffffffffffffffffffffffffffffffffff168260405160006040518083038185875af1925050503d8060008114611995576040519150601f19603f3d011682016040523d82523d6000602084013e61199a565b606091505b5050905080610e34576040517f08c379a000000000000000000000000000000000000000000000000000000000815260206004820152601860248201527f6661696c656420746f207769746864726177207374616b6500000000000000006044820152606401610639565b611a0d6138e2565b611a1685612abd565b600080611a25600088856123bb565b915091506000611a358383612bb1565b9050611a4043600052565b6000611a4e60008a876127d2565b9050611a5943600052565b6000606073ffffffffffffffffffffffffffffffffffffffff8a1615611ae9578973ffffffffffffffffffffffffffffffffffffffff168989604051611aa09291906144e8565b6000604051808303816000865af19150503d8060008114611add576040519150601f19603f3d011682016040523d82523d6000602084013e611ae2565b606091505b5090925090505b8660800151838560200151866040015185856040517f8b7ac980000000000000000000000000000000000000000000000000000000008152600401610639969594939291906144f8565b611b3b6138e2565b611b4482612abd565b600080611b53600085856123bb565b845160a001516040805180820182526000808252602080830182815273ffffffffffffffffffffffffffffffffffffffff958616835282825284832080546dffffffffffffffffffffffffffff6f01000000000000000000000000000000918290048116875260019283015463ffffffff9081169094528d51518851808a018a5287815280870188815291909a16875286865288872080549390930490911689529101549091169052835180850190945281845283015293955091935090366000611c2160408a018a614115565b909250905060006014821015611c38576000611c53565b611c4660146000848661441b565b611c4f91614445565b60601c5b6040805180820182526000808252602080830182815273ffffffffffffffffffffffffffffffffffffffff861683529082905292902080546f0100000000000000000000000000000090046dffffffffffffffffffffffffffff1682526001015463ffffffff1690915290915093505050506000611cd18686612bb1565b90506000816000015190506000600173ffffffffffffffffffffffffffffffffffffffff168273ffffffffffffffffffffffffffffffffffffffff1614905060006040518060c001604052808b6080015181526020018b6040015181526020018315158152602001856020015165ffffffffffff168152602001856040015165ffffffffffff168152602001611d688c6060015190565b9052905073ffffffffffffffffffffffffffffffffffffffff831615801590611da8575073ffffffffffffffffffffffffffffffffffffffff8316600114155b15611e615760408051808201825273ffffffffffffffffffffffffffffffffffffffff851680825282518084018452600080825260208083018281529382528181529085902080546f0100000000000000000000000000000090046dffffffffffffffffffffffffffff1683526001015463ffffffff169092529082015290517ffaecb4e4000000000000000000000000000000000000000000000000000000008152610639908390899089908c90869060040161459a565b808686896040517fe0cff05f0000000000000000000000000000000000000000000000000000000081526004016106399493929190614627565b73ffffffffffffffffffffffffffffffffffffffff821660009081526020819052604081208054909190611ee09084906dffffffffffffffffffffffffffff16613f4e565b90506dffffffffffffffffffffffffffff811115611f5a576040517f08c379a000000000000000000000000000000000000000000000000000000000815260206004820152601060248201527f6465706f736974206f766572666c6f77000000000000000000000000000000006044820152606401610639565b81547fffffffffffffffffffffffffffffffffffff0000000000000000000000000000166dffffffffffffffffffffffffffff919091161790555050565b6000806000845160208601878987f195945050505050565b60603d82811115611fbe5750815b604051602082018101604052818152816000602083013e9392505050565b6000805a855190915060009081611ff282612c97565b60a083015190915073ffffffffffffffffffffffffffffffffffffffff811661201e578251935061226d565b80935060008851111561226d57868202955060028a60028111156120445761204461467e565b146120dc5760608301516040517fa9a2340900000000000000000000000000000000000000000000000000000000815273ffffffffffffffffffffffffffffffffffffffff83169163a9a23409916120a4908e908d908c906004016146ad565b600060405180830381600088803b1580156120be57600080fd5b5087f11580156120d2573d6000803e3d6000fd5b505050505061226d565b60608301516040517fa9a2340900000000000000000000000000000000000000000000000000000000815273ffffffffffffffffffffffffffffffffffffffff83169163a9a2340991612137908e908d908c906004016146ad565b600060405180830381600088803b15801561215157600080fd5b5087f193505050508015612163575060015b61226d5761216f61470d565b806308c379a014156122005750612184614729565b8061218f5750612202565b8b816040516020016121a191906147d1565b604080517fffffffffffffffffffffffffffffffffffffffffffffffffffffffffffffffe0818403018152908290527f220266b60000000000000000000000000000000000000000000000000000000082526106399291600401613fdc565b505b8a6040517f220266b60000000000000000000000000000000000000000000000000000000081526004016106399181526040602082018190526012908201527f4141353020706f73744f70207265766572740000000000000000000000000000606082015260800190565b5a850387019650818702955085896040015110156122ef578a6040517f220266b600000000000000000000000000000000000000000000000000000000815260040161063991815260406020808301829052908201527f414135312070726566756e642062656c6f772061637475616c476173436f7374606082015260800190565b60408901518690036123018582611e9b565b6000808c60028111156123165761231661467e565b1490508460a0015173ffffffffffffffffffffffffffffffffffffffff16856000015173ffffffffffffffffffffffffffffffffffffffff168c602001517f49628fd1471006c1482da88028e9ce4dbb080b815c9b0344d39e5a8e6ec1419f8860200151858d8f6040516123a3949392919093845291151560208401526040830152606082015260800190565b60405180910390a45050505050505095945050505050565b60008060005a84519091506123d08682612cc8565b6123d986611512565b6020860152604081015160608201516080830151171760e087013517610100870135176effffffffffffffffffffffffffffff811115612475576040517f08c379a000000000000000000000000000000000000000000000000000000000815260206004820152601860248201527f41413934206761732076616c756573206f766572666c6f7700000000000000006044820152606401610639565b60008061248184612de8565b905061248f8a8a8a84612e42565b9750915061249c43600052565b60a084015160609073ffffffffffffffffffffffffffffffffffffffff16156124d1576124cc8b8b8b8587613159565b975090505b60005a87039050808b60a00135101561254f578b6040517f220266b6000000000000000000000000000000000000000000000000000000008152600401610639918152604060208201819052601e908201527f41413430206f76657220766572696669636174696f6e4761734c696d69740000606082015260800190565b60408a018390528160608b015260c08b01355a8803018a608001818152505050505050505050935093915050565b6000806125898561341d565b915091508173ffffffffffffffffffffffffffffffffffffffff168373ffffffffffffffffffffffffffffffffffffffff161461262b57856040517f220266b60000000000000000000000000000000000000000000000000000000081526004016106399181526040602082018190526014908201527f41413234207369676e6174757265206572726f72000000000000000000000000606082015260800190565b801561269c57856040517f220266b60000000000000000000000000000000000000000000000000000000081526004016106399181526040602082018190526017908201527f414132322065787069726564206f72206e6f7420647565000000000000000000606082015260800190565b60006126a78561341d565b9250905073ffffffffffffffffffffffffffffffffffffffff81161561273257866040517f220266b60000000000000000000000000000000000000000000000000000000081526004016106399181526040602082018190526014908201527f41413334207369676e6174757265206572726f72000000000000000000000000606082015260800190565b81156127c957866040517f220266b60000000000000000000000000000000000000000000000000000000081526004016106399181526040602082018190526021908201527f41413332207061796d61737465722065787069726564206f72206e6f7420647560608201527f6500000000000000000000000000000000000000000000000000000000000000608082015260a00190565b50505050505050565b6000805a905060006127e5846060015190565b905030631d7327566127fa6060880188614115565b87856040518563ffffffff1660e01b815260040161281b9493929190614816565b6020604051808303816000875af1925050508015612874575060408051601f3d9081017fffffffffffffffffffffffffffffffffffffffffffffffffffffffffffffffe0168201909252612871918101906148d7565b60015b61294c57600060206000803e506000517fdeaddead0000000000000000000000000000000000000000000000000000000081141561291757866040517f220266b6000000000000000000000000000000000000000000000000000000008152600401610639918152604060208201819052600f908201527f41413935206f7574206f66206761730000000000000000000000000000000000606082015260800190565b600085608001515a6129299086614062565b6129339190613f4e565b9050612943886002888685611fdc565b9450505061294f565b92505b50509392505050565b73ffffffffffffffffffffffffffffffffffffffff82166129d5576040517f08c379a000000000000000000000000000000000000000000000000000000000815260206004820152601860248201527f4141393020696e76616c69642062656e656669636961727900000000000000006044820152606401610639565b60008273ffffffffffffffffffffffffffffffffffffffff168260405160006040518083038185875af1925050503d8060008114612a2f576040519150601f19603f3d011682016040523d82523d6000602084013e612a34565b606091505b5050905080612a9f576040517f08c379a000000000000000000000000000000000000000000000000000000000815260206004820152601f60248201527f41413931206661696c65642073656e6420746f2062656e6566696369617279006044820152606401610639565b505050565b6000612aaf8261346d565b805190602001209050919050565b3063957122ab612ad06040840184614115565b612add6020860186613d8b565b612aeb610120870187614115565b6040518663ffffffff1660e01b8152600401612b0b9594939291906148f0565b60006040518083038186803b158015612b2357600080fd5b505afa925050508015612b34575060015b612bae57612b4061470d565b806308c379a01415612ba25750612b55614729565b80612b605750612ba4565b805115612b9e576000816040517f220266b6000000000000000000000000000000000000000000000000000000008152600401610639929190613fdc565b5050565b505b3d6000803e3d6000fd5b50565b6040805160608101825260008082526020820181905291810182905290612bd7846134ac565b90506000612be4846134ac565b825190915073ffffffffffffffffffffffffffffffffffffffff8116612c08575080515b602080840151604080860151928501519085015191929165ffffffffffff8083169085161015612c36578193505b8065ffffffffffff168365ffffffffffff161115612c52578092505b50506040805160608101825273ffffffffffffffffffffffffffffffffffffffff909416845265ffffffffffff92831660208501529116908201529250505092915050565b60c081015160e08201516000919080821415612cb4575092915050565b612cc082488301613527565b949350505050565b612cd56020830183613d8b565b73ffffffffffffffffffffffffffffffffffffffff16815260208083013590820152608080830135604083015260a0830135606083015260c0808401359183019190915260e0808401359183019190915261010083013590820152366000612d41610120850185614115565b90925090508015612ddb576014811015612db7576040517f08c379a000000000000000000000000000000000000000000000000000000000815260206004820152601d60248201527f4141393320696e76616c6964207061796d6173746572416e64446174610000006044820152606401610639565b612dc560146000838561441b565b612dce91614445565b60601c60a0840152610e34565b600060a084015250505050565b60a0810151600090819073ffffffffffffffffffffffffffffffffffffffff16612e13576001612e16565b60035b60ff16905060008360800151828560600151028560400151010190508360c00151810292505050919050565b60008060005a8551805191925090612e678988612e6260408c018c614115565b61353f565b60a0820151612e7543600052565b600073ffffffffffffffffffffffffffffffffffffffff8216612ede5773ffffffffffffffffffffffffffffffffffffffff83166000908152602081905260409020546dffffffffffffffffffffffffffff16888111612ed757808903612eda565b60005b9150505b606084015160208a01516040517f3a871cdd00000000000000000000000000000000000000000000000000000000815273ffffffffffffffffffffffffffffffffffffffff861692633a871cdd929091612f3e918f918790600401614933565b60206040518083038160008887f193505050508015612f98575060408051601f3d9081017fffffffffffffffffffffffffffffffffffffffffffffffffffffffffffffffe0168201909252612f95918101906148d7565b60015b61304357612fa461470d565b806308c379a01415612fd65750612fb9614729565b80612fc45750612fd8565b8b816040516020016121a19190614958565b505b8a6040517f220266b60000000000000000000000000000000000000000000000000000000081526004016106399181526040602082018190526016908201527f4141323320726576657274656420286f72204f4f472900000000000000000000606082015260800190565b955073ffffffffffffffffffffffffffffffffffffffff82166131465773ffffffffffffffffffffffffffffffffffffffff8316600090815260208190526040902080546dffffffffffffffffffffffffffff16808a111561310a578c6040517f220266b60000000000000000000000000000000000000000000000000000000081526004016106399181526040602082018190526017908201527f41413231206469646e2774207061792070726566756e64000000000000000000606082015260800190565b81547fffffffffffffffffffffffffffffffffffff000000000000000000000000000016908a90036dffffffffffffffffffffffffffff161790555b5a85039650505050505094509492505050565b825160608181015190916000918481116131cf576040517f08c379a000000000000000000000000000000000000000000000000000000000815260206004820152601f60248201527f4141343120746f6f206c6974746c6520766572696669636174696f6e476173006044820152606401610639565b60a082015173ffffffffffffffffffffffffffffffffffffffff8116600090815260208190526040902080548784039291906dffffffffffffffffffffffffffff1689811015613284578c6040517f220266b6000000000000000000000000000000000000000000000000000000008152600401610639918152604060208201819052601e908201527f41413331207061796d6173746572206465706f73697420746f6f206c6f770000606082015260800190565b8981038260000160006101000a8154816dffffffffffffffffffffffffffff02191690836dffffffffffffffffffffffffffff1602179055508273ffffffffffffffffffffffffffffffffffffffff1663f465c77e858e8e602001518e6040518563ffffffff1660e01b81526004016132ff93929190614933565b60006040518083038160008887f19350505050801561335e57506040513d6000823e601f3d9081017fffffffffffffffffffffffffffffffffffffffffffffffffffffffffffffffe016820160405261335b919081019061499d565b60015b6134095761336a61470d565b806308c379a0141561339c575061337f614729565b8061338a575061339e565b8d816040516020016121a19190614a29565b505b8c6040517f220266b60000000000000000000000000000000000000000000000000000000081526004016106399181526040602082018190526016908201527f4141333320726576657274656420286f72204f4f472900000000000000000000606082015260800190565b909e909d509b505050505050505050505050565b6000808261343057506000928392509050565b600061343b846134ac565b9050806040015165ffffffffffff164211806134625750806020015165ffffffffffff1642105b905194909350915050565b6060366000613480610140850185614115565b915091508360208184030360405194506020810185016040528085528082602087013750505050919050565b60408051606081018252600080825260208201819052918101919091528160a081901c65ffffffffffff81166134e5575065ffffffffffff5b6040805160608101825273ffffffffffffffffffffffffffffffffffffffff909316835260d09490941c602083015265ffffffffffff16928101929092525090565b60008183106135365781613538565b825b9392505050565b8015610e345782515173ffffffffffffffffffffffffffffffffffffffff81163b156135d057846040517f220266b6000000000000000000000000000000000000000000000000000000008152600401610639918152604060208201819052601f908201527f414131302073656e64657220616c726561647920636f6e737472756374656400606082015260800190565b8351606001516040517f570e1a3600000000000000000000000000000000000000000000000000000000815260009173ffffffffffffffffffffffffffffffffffffffff7f0000000000000000000000000000000000000000000000000000000000000000169163570e1a36919061364e908890889060040161448d565b60206040518083038160008887f115801561366d573d6000803e3d6000fd5b50505050506040513d601f19601f8201168201806040525081019061369291906144a1565b905073ffffffffffffffffffffffffffffffffffffffff811661371a57856040517f220266b6000000000000000000000000000000000000000000000000000000008152600401610639918152604060208201819052601b908201527f4141313320696e6974436f6465206661696c6564206f72204f4f470000000000606082015260800190565b8173ffffffffffffffffffffffffffffffffffffffff168173ffffffffffffffffffffffffffffffffffffffff16146137b757856040517f220266b600000000000000000000000000000000000000000000000000000000815260040161063991815260406020808301829052908201527f4141313420696e6974436f6465206d7573742072657475726e2073656e646572606082015260800190565b73ffffffffffffffffffffffffffffffffffffffff81163b61383d57856040517f220266b600000000000000000000000000000000000000000000000000000000815260040161063991815260406020808301829052908201527f4141313520696e6974436f6465206d757374206372656174652073656e646572606082015260800190565b600061384c601482868861441b565b61385591614445565b60601c90508273ffffffffffffffffffffffffffffffffffffffff1686602001517fd51a9c61267aa6196961883ecf5ff2da6619c37dac0fa92122513fb32c032d2d83896000015160a001516040516138d192919073ffffffffffffffffffffffffffffffffffffffff92831681529116602082015260400190565b60405180910390a350505050505050565b6040518060a00160405280613961604051806101000160405280600073ffffffffffffffffffffffffffffffffffffffff16815260200160008152602001600081526020016000815260200160008152602001600073ffffffffffffffffffffffffffffffffffffffff16815260200160008152602001600081525090565b8152602001600080191681526020016000815260200160008152602001600081525090565b60006020828403121561399857600080fd5b813563ffffffff8116811461353857600080fd5b7f4e487b7100000000000000000000000000000000000000000000000000000000600052604160045260246000fd5b60a0810181811067ffffffffffffffff821117156139fb576139fb6139ac565b60405250565b610100810181811067ffffffffffffffff821117156139fb576139fb6139ac565b7fffffffffffffffffffffffffffffffffffffffffffffffffffffffffffffffe0601f830116810181811067ffffffffffffffff82111715613a6657613a666139ac565b6040525050565b600067ffffffffffffffff821115613a8757613a876139ac565b50601f017fffffffffffffffffffffffffffffffffffffffffffffffffffffffffffffffe01660200190565b73ffffffffffffffffffffffffffffffffffffffff81168114612bae57600080fd5b8035613ae081613ab3565b919050565b6000818303610180811215613af957600080fd5b604051613b05816139db565b80925061010080831215613b1857600080fd5b6040519250613b2683613a01565b613b2f85613ad5565b835260208501356020840152604085013560408401526060850135606084015260808501356080840152613b6560a08601613ad5565b60a084015260c085013560c084015260e085013560e084015282825280850135602083015250610120840135604082015261014084013560608201526101608401356080820152505092915050565b60008083601f840112613bc657600080fd5b50813567ffffffffffffffff811115613bde57600080fd5b602083019150836020828501011115613bf657600080fd5b9250929050565b6000806000806101c08587031215613c1457600080fd5b843567ffffffffffffffff80821115613c2c57600080fd5b818701915087601f830112613c4057600080fd5b8135613c4b81613a6d565b604051613c588282613a22565b8281528a6020848701011115613c6d57600080fd5b82602086016020830137600060208483010152809850505050613c938860208901613ae5565b94506101a0870135915080821115613caa57600080fd5b50613cb787828801613bb4565b95989497509550505050565b60008083601f840112613cd557600080fd5b50813567ffffffffffffffff811115613ced57600080fd5b6020830191508360208260051b8501011115613bf657600080fd5b600080600060408486031215613d1d57600080fd5b833567ffffffffffffffff811115613d3457600080fd5b613d4086828701613cc3565b9094509250506020840135613d5481613ab3565b809150509250925092565b60008060408385031215613d7257600080fd5b8235613d7d81613ab3565b946020939093013593505050565b600060208284031215613d9d57600080fd5b813561353881613ab3565b600080600080600060608688031215613dc057600080fd5b853567ffffffffffffffff80821115613dd857600080fd5b613de489838a01613bb4565b909750955060208801359150613df982613ab3565b90935060408701359080821115613e0f57600080fd5b50613e1c88828901613bb4565b969995985093965092949392505050565b60008060208385031215613e4057600080fd5b823567ffffffffffffffff811115613e5757600080fd5b613e6385828601613bb4565b90969095509350505050565b60006101608284031215613e8257600080fd5b50919050565b600060208284031215613e9a57600080fd5b813567ffffffffffffffff811115613eb157600080fd5b612cc084828501613e6f565b60008060008060608587031215613ed357600080fd5b843567ffffffffffffffff80821115613eeb57600080fd5b613ef788838901613e6f565b955060208701359150613f0982613ab3565b90935060408601359080821115613caa57600080fd5b7f4e487b7100000000000000000000000000000000000000000000000000000000600052601160045260246000fd5b60008219821115613f6157613f61613f1f565b500190565b60005b83811015613f81578181015183820152602001613f69565b83811115610e345750506000910152565b60008151808452613faa816020860160208601613f66565b601f017fffffffffffffffffffffffffffffffffffffffffffffffffffffffffffffffe0169290920160200192915050565b828152604060208201526000612cc06040830184613f92565b7f4e487b7100000000000000000000000000000000000000000000000000000000600052603260045260246000fd5b600082357ffffffffffffffffffffffffffffffffffffffffffffffffffffffffffffffea183360301811261405857600080fd5b9190910192915050565b60008282101561407457614074613f1f565b500390565b600082357fffffffffffffffffffffffffffffffffffffffffffffffffffffffffffffffa183360301811261405857600080fd5b60008083357fffffffffffffffffffffffffffffffffffffffffffffffffffffffffffffffe18436030181126140e257600080fd5b83018035915067ffffffffffffffff8211156140fd57600080fd5b6020019150600581901b3603821315613bf657600080fd5b60008083357fffffffffffffffffffffffffffffffffffffffffffffffffffffffffffffffe184360301811261414a57600080fd5b83018035915067ffffffffffffffff82111561416557600080fd5b602001915036819003821315613bf657600080fd5b60008083357fffffffffffffffffffffffffffffffffffffffffffffffffffffffffffffffe18436030181126141af57600080fd5b830160208101925035905067ffffffffffffffff8111156141cf57600080fd5b803603831315613bf657600080fd5b8183528181602085013750600060208284010152600060207fffffffffffffffffffffffffffffffffffffffffffffffffffffffffffffffe0601f840116840101905092915050565b60006101606142538461423985613ad5565b73ffffffffffffffffffffffffffffffffffffffff169052565b6020830135602085015261426a604084018461417a565b82604087015261427d83870182846141de565b9250505061428e606084018461417a565b85830360608701526142a18382846141de565b925050506080830135608085015260a083013560a085015260c083013560c085015260e083013560e08501526101008084013581860152506101206142e88185018561417a565b868403838801526142fa8482846141de565b935050505061014061430e8185018561417a565b868403838801526143208482846141de565b979650505050505050565b6040808252810184905260006060600586901b830181019083018783805b898110156143cb577fffffffffffffffffffffffffffffffffffffffffffffffffffffffffffffffa087860301845282357ffffffffffffffffffffffffffffffffffffffffffffffffffffffffffffffea18c36030181126143a9578283fd5b6143b5868d8301614227565b9550506020938401939290920191600101614349565b5050505082810360208401526143208185876141de565b60007fffffffffffffffffffffffffffffffffffffffffffffffffffffffffffffffff82141561441457614414613f1f565b5060010190565b6000808585111561442b57600080fd5b8386111561443857600080fd5b5050820193919092039150565b7fffffffffffffffffffffffffffffffffffffffff00000000000000000000000081358181169160148510156144855780818660140360031b1b83161692505b505092915050565b602081526000612cc06020830184866141de565b6000602082840312156144b357600080fd5b815161353881613ab3565b600065ffffffffffff8083168185168083038211156144df576144df613f1f565b01949350505050565b8183823760009101908152919050565b868152856020820152600065ffffffffffff8087166040840152808616606084015250831515608083015260c060a083015261453760c0830184613f92565b98975050505050505050565b80518252602081015160208301526040810151151560408301526000606082015165ffffffffffff8082166060860152806080850151166080860152505060a082015160c060a0850152612cc060c0850182613f92565b60006101408083526145ae81840189614543565b9150506145c8602083018780518252602090810151910152565b845160608301526020948501516080830152835160a08301529284015160c0820152815173ffffffffffffffffffffffffffffffffffffffff1660e0820152908301518051610100830152909201516101209092019190915292915050565b60e08152600061463a60e0830187614543565b9050614653602083018680518252602090810151910152565b8351606083015260208401516080830152825160a0830152602083015160c083015295945050505050565b7f4e487b7100000000000000000000000000000000000000000000000000000000600052602160045260246000fd5b6000600385106146e6577f4e487b7100000000000000000000000000000000000000000000000000000000600052602160045260246000fd5b848252606060208301526146fd6060830185613f92565b9050826040830152949350505050565b600060033d11156147265760046000803e5060005160e01c5b90565b600060443d10156147375790565b6040517ffffffffffffffffffffffffffffffffffffffffffffffffffffffffffffffffc803d016004833e81513d67ffffffffffffffff816024840111818411171561478557505050505090565b828501915081518181111561479d5750505050505090565b843d87010160208285010111156147b75750505050505090565b6147c660208286010187613a22565b509095945050505050565b7f4141353020706f73744f702072657665727465643a2000000000000000000000815260008251614809816016850160208701613f66565b9190910160160192915050565b60006101c080835261482b81840187896141de565b9050845173ffffffffffffffffffffffffffffffffffffffff808251166020860152602082015160408601526040820151606086015260608201516080860152608082015160a08601528060a08301511660c08601525060c081015160e085015260e08101516101008501525060208501516101208401526040850151610140840152606085015161016084015260808501516101808401528281036101a08401526143208185613f92565b6000602082840312156148e957600080fd5b5051919050565b6060815260006149046060830187896141de565b73ffffffffffffffffffffffffffffffffffffffff8616602084015282810360408401526145378185876141de565b6060815260006149466060830186614227565b60208301949094525060400152919050565b7f414132332072657665727465643a20000000000000000000000000000000000081526000825161499081600f850160208701613f66565b91909101600f0192915050565b600080604083850312156149b057600080fd5b825167ffffffffffffffff8111156149c757600080fd5b8301601f810185136149d857600080fd5b80516149e381613a6d565b6040516149f08282613a22565b828152876020848601011115614a0557600080fd5b614a16836020830160208701613f66565b6020969096015195979596505050505050565b7f414133332072657665727465643a20000000000000000000000000000000000081526000825161499081600f850160208701613f6656fea264697066735822122072f059b17574514655e9ab8c70ce5745b16697e422121009c418963eb1be40ed64736f6c634300080c0033608060405234801561001057600080fd5b50610213806100206000396000f3fe608060405234801561001057600080fd5b506004361061002b5760003560e01c8063570e1a3614610030575b600080fd5b61004361003e3660046100f9565b61006c565b60405173ffffffffffffffffffffffffffffffffffffffff909116815260200160405180910390f35b60008061007c601482858761016b565b61008591610195565b60601c90506000610099846014818861016b565b8080601f016020809104026020016040519081016040528093929190818152602001838380828437600092018290525084519495509360209350849250905082850182875af190506000519350806100f057600093505b50505092915050565b6000806020838503121561010c57600080fd5b823567ffffffffffffffff8082111561012457600080fd5b818501915085601f83011261013857600080fd5b81358181111561014757600080fd5b86602082850101111561015957600080fd5b60209290920196919550909350505050565b6000808585111561017b57600080fd5b8386111561018857600080fd5b5050820193919092039150565b7fffffffffffffffffffffffffffffffffffffffff00000000000000000000000081358181169160148510156101d55780818660140360031b1b83161692505b50509291505056fea2646970667358221220af38731ee2475f22b4c0369f2f2b69f9d19179a4254424e990db73be8bd451d764736f6c634300080c0033","linkReferences":{},"deployedLinkReferences":{},"fileHash":"e2cd4f5ad5ef67ccca8c16c3cd6e3771718b0dfa91bdfcca0a3bbe9a40e86998"}