{"_format":"hh-sol-artifact-1","contractName":"EntryPoint","sourceName":"contracts/eip-4337/EntryPoint.sol","abi":[{"inputs":[{"internalType":"uint256","name":"preOpGas","type":"uint256"},{"internalType":"uint256","name":"paid","type":"uint256"},{"internalType":"uint64","name":"validAfter","type":"uint64"},{"internalType":"uint64","name":"validBefore","type":"uint64"},{"internalType":"bool","name":"targetSuccess","type":"bool"},{"internalType":"bytes","name":"targetResult","type":"bytes"}],"name":"ExecutionResult","type":"error"},{"inputs":[{"internalType":"uint256","name":"opIndex","type":"uint256"},{"internalType":"address","name":"paymaster","type":"address"},{"internalType":"string","name":"reason","type":"string"}],"name":"FailedOp","type":"error"},{"inputs":[{"internalType":"address","name":"sender","type":"address"}],"name":"SenderAddressResult","type":"error"},{"inputs":[{"internalType":"address","name":"aggregator","type":"address"}],"name":"SignatureValidationFailed","type":"error"},{"inputs":[{"components":[{"internalType":"uint256","name":"preOpGas","type":"uint256"},{"internalType":"uint256","name":"prefund","type":"uint256"},{"internalType":"bool","name":"sigFailed","type":"bool"},{"internalType":"uint64","name":"validAfter","type":"uint64"},{"internalType":"uint64","name":"validUntil","type":"uint64"},{"internalType":"bytes","name":"paymasterContext","type":"bytes"}],"internalType":"struct IEntryPoint.ReturnInfo","name":"returnInfo","type":"tuple"},{"components":[{"internalType":"uint256","name":"stake","type":"uint256"},{"internalType":"uint256","name":"unstakeDelaySec","type":"uint256"}],"internalType":"struct IStakeManager.StakeInfo","name":"senderInfo","type":"tuple"},{"components":[{"internalType":"uint256","name":"stake","type":"uint256"},{"internalType":"uint256","name":"unstakeDelaySec","type":"uint256"}],"internalType":"struct IStakeManager.StakeInfo","name":"factoryInfo","type":"tuple"},{"components":[{"internalType":"uint256","name":"stake","type":"uint256"},{"internalType":"uint256","name":"unstakeDelaySec","type":"uint256"}],"internalType":"struct IStakeManager.StakeInfo","name":"paymasterInfo","type":"tuple"}],"name":"ValidationResult","type":"error"},{"inputs":[{"components":[{"internalType":"uint256","name":"preOpGas","type":"uint256"},{"internalType":"uint256","name":"prefund","type":"uint256"},{"internalType":"bool","name":"sigFailed","type":"bool"},{"internalType":"uint64","name":"validAfter","type":"uint64"},{"internalType":"uint64","name":"validUntil","type":"uint64"},{"internalType":"bytes","name":"paymasterContext","type":"bytes"}],"internalType":"struct IEntryPoint.ReturnInfo","name":"returnInfo","type":"tuple"},{"components":[{"internalType":"uint256","name":"stake","type":"uint256"},{"internalType":"uint256","name":"unstakeDelaySec","type":"uint256"}],"internalType":"struct IStakeManager.StakeInfo","name":"senderInfo","type":"tuple"},{"components":[{"internalType":"uint256","name":"stake","type":"uint256"},{"internalType":"uint256","name":"unstakeDelaySec","type":"uint256"}],"internalType":"struct IStakeManager.StakeInfo","name":"factoryInfo","type":"tuple"},{"components":[{"internalType":"uint256","name":"stake","type":"uint256"},{"internalType":"uint256","name":"unstakeDelaySec","type":"uint256"}],"internalType":"struct IStakeManager.StakeInfo","name":"paymasterInfo","type":"tuple"},{"components":[{"internalType":"address","name":"actualAggregator","type":"address"},{"components":[{"internalType":"uint256","name":"stake","type":"uint256"},{"internalType":"uint256","name":"unstakeDelaySec","type":"uint256"}],"internalType":"struct IStakeManager.StakeInfo","name":"stakeInfo","type":"tuple"}],"internalType":"struct IEntryPoint.AggregatorStakeInfo","name":"aggregatorInfo","type":"tuple"}],"name":"ValidationResultWithAggregation","type":"error"},{"anonymous":false,"inputs":[{"indexed":true,"internalType":"bytes32","name":"userOpHash","type":"bytes32"},{"indexed":true,"internalType":"address","name":"sender","type":"address"},{"indexed":false,"internalType":"address","name":"factory","type":"address"},{"indexed":false,"internalType":"address","name":"paymaster","type":"address"}],"name":"AccountDeployed","type":"event"},{"anonymous":false,"inputs":[{"indexed":true,"internalType":"address","name":"account","type":"address"},{"indexed":false,"internalType":"uint256","name":"totalDeposit","type":"uint256"}],"name":"Deposited","type":"event"},{"anonymous":false,"inputs":[{"indexed":false,"internalType":"address","name":"aggregator","type":"address"}],"name":"SignatureAggregatorChanged","type":"event"},{"anonymous":false,"inputs":[{"indexed":true,"internalType":"address","name":"account","type":"address"},{"indexed":false,"internalType":"uint256","name":"totalStaked","type":"uint256"},{"indexed":false,"internalType":"uint256","name":"withdrawTime","type":"uint256"}],"name":"StakeLocked","type":"event"},{"anonymous":false,"inputs":[{"indexed":true,"internalType":"address","name":"account","type":"address"},{"indexed":false,"internalType":"uint256","name":"withdrawTime","type":"uint256"}],"name":"StakeUnlocked","type":"event"},{"anonymous":false,"inputs":[{"indexed":true,"internalType":"address","name":"account","type":"address"},{"indexed":false,"internalType":"address","name":"withdrawAddress","type":"address"},{"indexed":false,"internalType":"uint256","name":"amount","type":"uint256"}],"name":"StakeWithdrawn","type":"event"},{"anonymous":false,"inputs":[{"indexed":true,"internalType":"bytes32","name":"userOpHash","type":"bytes32"},{"indexed":true,"internalType":"address","name":"sender","type":"address"},{"indexed":true,"internalType":"address","name":"paymaster","type":"address"},{"indexed":false,"internalType":"uint256","name":"nonce","type":"uint256"},{"indexed":false,"internalType":"bool","name":"success","type":"bool"},{"indexed":false,"internalType":"uint256","name":"actualGasCost","type":"uint256"},{"indexed":false,"internalType":"uint256","name":"actualGasUsed","type":"uint256"}],"name":"UserOperationEvent","type":"event"},{"anonymous":false,"inputs":[{"indexed":true,"internalType":"bytes32","name":"userOpHash","type":"bytes32"},{"indexed":true,"internalType":"address","name":"sender","type":"address"},{"indexed":false,"internalType":"uint256","name":"nonce","type":"uint256"},{"indexed":false,"internalType":"bytes","name":"revertReason","type":"bytes"}],"name":"UserOperationRevertReason","type":"event"},{"anonymous":false,"inputs":[{"indexed":true,"internalType":"address","name":"account","type":"address"},{"indexed":false,"internalType":"address","name":"withdrawAddress","type":"address"},{"indexed":false,"internalType":"uint256","name":"amount","type":"uint256"}],"name":"Withdrawn","type":"event"},{"inputs":[],"name":"SIG_VALIDATION_FAILED","outputs":[{"internalType":"uint256","name":"","type":"uint256"}],"stateMutability":"view","type":"function"},{"inputs":[{"internalType":"address","name":"sender","type":"address"},{"internalType":"address","name":"paymaster","type":"address"}],"name":"_simulateFindAggregator","outputs":[],"stateMutability":"view","type":"function"},{"inputs":[{"internalType":"uint32","name":"_unstakeDelaySec","type":"uint32"}],"name":"addStake","outputs":[],"stateMutability":"payable","type":"function"},{"inputs":[{"internalType":"address","name":"account","type":"address"}],"name":"balanceOf","outputs":[{"internalType":"uint256","name":"","type":"uint256"}],"stateMutability":"view","type":"function"},{"inputs":[{"internalType":"address","name":"account","type":"address"}],"name":"depositTo","outputs":[],"stateMutability":"payable","type":"function"},{"inputs":[{"internalType":"address","name":"","type":"address"}],"name":"deposits","outputs":[{"internalType":"uint112","name":"deposit","type":"uint112"},{"internalType":"bool","name":"staked","type":"bool"},{"internalType":"uint112","name":"stake","type":"uint112"},{"internalType":"uint32","name":"unstakeDelaySec","type":"uint32"},{"internalType":"uint64","name":"withdrawTime","type":"uint64"}],"stateMutability":"view","type":"function"},{"inputs":[{"internalType":"address","name":"account","type":"address"}],"name":"getDepositInfo","outputs":[{"components":[{"internalType":"uint112","name":"deposit","type":"uint112"},{"internalType":"bool","name":"staked","type":"bool"},{"internalType":"uint112","name":"stake","type":"uint112"},{"internalType":"uint32","name":"unstakeDelaySec","type":"uint32"},{"internalType":"uint64","name":"withdrawTime","type":"uint64"}],"internalType":"struct IStakeManager.DepositInfo","name":"info","type":"tuple"}],"stateMutability":"view","type":"function"},{"inputs":[{"internalType":"bytes","name":"initCode","type":"bytes"}],"name":"getSenderAddress","outputs":[],"stateMutability":"nonpayable","type":"function"},{"inputs":[{"components":[{"internalType":"address","name":"sender","type":"address"},{"internalType":"uint256","name":"nonce","type":"uint256"},{"internalType":"bytes","name":"initCode","type":"bytes"},{"internalType":"bytes","name":"callData","type":"bytes"},{"internalType":"uint256","name":"callGasLimit","type":"uint256"},{"internalType":"uint256","name":"verificationGasLimit","type":"uint256"},{"internalType":"uint256","name":"preVerificationGas","type":"uint256"},{"internalType":"uint256","name":"maxFeePerGas","type":"uint256"},{"internalType":"uint256","name":"maxPriorityFeePerGas","type":"uint256"},{"internalType":"bytes","name":"paymasterAndData","type":"bytes"},{"internalType":"bytes","name":"signature","type":"bytes"}],"internalType":"struct UserOperation","name":"userOp","type":"tuple"}],"name":"getUserOpHash","outputs":[{"internalType":"bytes32","name":"","type":"bytes32"}],"stateMutability":"view","type":"function"},{"inputs":[{"components":[{"components":[{"internalType":"address","name":"sender","type":"address"},{"internalType":"uint256","name":"nonce","type":"uint256"},{"internalType":"bytes","name":"initCode","type":"bytes"},{"internalType":"bytes","name":"callData","type":"bytes"},{"internalType":"uint256","name":"callGasLimit","type":"uint256"},{"internalType":"uint256","name":"verificationGasLimit","type":"uint256"},{"internalType":"uint256","name":"preVerificationGas","type":"uint256"},{"internalType":"uint256","name":"maxFeePerGas","type":"uint256"},{"internalType":"uint256","name":"maxPriorityFeePerGas","type":"uint256"},{"internalType":"bytes","name":"paymasterAndData","type":"bytes"},{"internalType":"bytes","name":"signature","type":"bytes"}],"internalType":"struct UserOperation[]","name":"userOps","type":"tuple[]"},{"internalType":"contract IAggregator","name":"aggregator","type":"address"},{"internalType":"bytes","name":"signature","type":"bytes"}],"internalType":"struct IEntryPoint.UserOpsPerAggregator[]","name":"opsPerAggregator","type":"tuple[]"},{"internalType":"address payable","name":"beneficiary","type":"address"}],"name":"handleAggregatedOps","outputs":[],"stateMutability":"nonpayable","type":"function"},{"inputs":[{"components":[{"internalType":"address","name":"sender","type":"address"},{"internalType":"uint256","name":"nonce","type":"uint256"},{"internalType":"bytes","name":"initCode","type":"bytes"},{"internalType":"bytes","name":"callData","type":"bytes"},{"internalType":"uint256","name":"callGasLimit","type":"uint256"},{"internalType":"uint256","name":"verificationGasLimit","type":"uint256"},{"internalType":"uint256","name":"preVerificationGas","type":"uint256"},{"internalType":"uint256","name":"maxFeePerGas","type":"uint256"},{"internalType":"uint256","name":"maxPriorityFeePerGas","type":"uint256"},{"internalType":"bytes","name":"paymasterAndData","type":"bytes"},{"internalType":"bytes","name":"signature","type":"bytes"}],"internalType":"struct UserOperation[]","name":"ops","type":"tuple[]"},{"internalType":"address payable","name":"beneficiary","type":"address"}],"name":"handleOps","outputs":[],"stateMutability":"nonpayable","type":"function"},{"inputs":[{"internalType":"bytes","name":"callData","type":"bytes"},{"components":[{"components":[{"internalType":"address","name":"sender","type":"address"},{"internalType":"uint256","name":"nonce","type":"uint256"},{"internalType":"uint256","name":"callGasLimit","type":"uint256"},{"internalType":"uint256","name":"verificationGasLimit","type":"uint256"},{"internalType":"uint256","name":"preVerificationGas","type":"uint256"},{"internalType":"address","name":"paymaster","type":"address"},{"internalType":"uint256","name":"maxFeePerGas","type":"uint256"},{"internalType":"uint256","name":"maxPriorityFeePerGas","type":"uint256"}],"internalType":"struct EntryPoint.MemoryUserOp","name":"mUserOp","type":"tuple"},{"internalType":"bytes32","name":"userOpHash","type":"bytes32"},{"internalType":"uint256","name":"prefund","type":"uint256"},{"internalType":"uint256","name":"contextOffset","type":"uint256"},{"internalType":"uint256","name":"preOpGas","type":"uint256"}],"internalType":"struct EntryPoint.UserOpInfo","name":"opInfo","type":"tuple"},{"internalType":"bytes","name":"context","type":"bytes"}],"name":"innerHandleOp","outputs":[{"internalType":"uint256","name":"actualGasCost","type":"uint256"}],"stateMutability":"nonpayable","type":"function"},{"inputs":[{"components":[{"internalType":"address","name":"sender","type":"address"},{"internalType":"uint256","name":"nonce","type":"uint256"},{"internalType":"bytes","name":"initCode","type":"bytes"},{"internalType":"bytes","name":"callData","type":"bytes"},{"internalType":"uint256","name":"callGasLimit","type":"uint256"},{"internalType":"uint256","name":"verificationGasLimit","type":"uint256"},{"internalType":"uint256","name":"preVerificationGas","type":"uint256"},{"internalType":"uint256","name":"maxFeePerGas","type":"uint256"},{"internalType":"uint256","name":"maxPriorityFeePerGas","type":"uint256"},{"internalType":"bytes","name":"paymasterAndData","type":"bytes"},{"internalType":"bytes","name":"signature","type":"bytes"}],"internalType":"struct UserOperation","name":"op","type":"tuple"},{"internalType":"address","name":"target","type":"address"},{"internalType":"bytes","name":"targetCallData","type":"bytes"}],"name":"simulateHandleOp","outputs":[],"stateMutability":"nonpayable","type":"function"},{"inputs":[{"components":[{"internalType":"address","name":"sender","type":"address"},{"internalType":"uint256","name":"nonce","type":"uint256"},{"internalType":"bytes","name":"initCode","type":"bytes"},{"internalType":"bytes","name":"callData","type":"bytes"},{"internalType":"uint256","name":"callGasLimit","type":"uint256"},{"internalType":"uint256","name":"verificationGasLimit","type":"uint256"},{"internalType":"uint256","name":"preVerificationGas","type":"uint256"},{"internalType":"uint256","name":"maxFeePerGas","type":"uint256"},{"internalType":"uint256","name":"maxPriorityFeePerGas","type":"uint256"},{"internalType":"bytes","name":"paymasterAndData","type":"bytes"},{"internalType":"bytes","name":"signature","type":"bytes"}],"internalType":"struct UserOperation","name":"userOp","type":"tuple"}],"name":"simulateValidation","outputs":[],"stateMutability":"nonpayable","type":"function"},{"inputs":[],"name":"unlockStake","outputs":[],"stateMutability":"nonpayable","type":"function"},{"inputs":[{"internalType":"address payable","name":"withdrawAddress","type":"address"}],"name":"withdrawStake","outputs":[],"stateMutability":"nonpayable","type":"function"},{"inputs":[{"internalType":"address payable","name":"withdrawAddress","type":"address"},{"internalType":"uint256","name":"withdrawAmount","type":"uint256"}],"name":"withdrawTo","outputs":[],"stateMutability":"nonpayable","type":"function"},{"stateMutability":"payable","type":"receive"}],"bytecode":"0x60a0604052604051620000129062000050565b604051809103906000f0801580156200002f573d6000803e3d6000fd5b506001600160a01b03166080523480156200004957600080fd5b506200005e565b6102338062004b6c83390190565b608051614aeb620000816000396000818161128901526136b50152614aeb6000f3fe6080604052600436106101125760003560e01c80639b249f69116100a5578063bb9fe6bf11610074578063d6383f9411610059578063d6383f9414610430578063ee21942314610450578063fc7e286d1461047057600080fd5b8063bb9fe6bf146103fb578063c23a5cea1461041057600080fd5b80639b249f6914610388578063a47a3fbc146103a8578063a6193531146103c8578063b760faf9146103e857600080fd5b80634b1d7cf5116100e15780634b1d7cf5146101ad5780635287ce12146101cd57806370a08231146103205780638f41ec5a1461037357600080fd5b80630396cb60146101275780631d7327561461013a5780631fad948c1461016d578063205c28781461018d57600080fd5b36610122576101203361054e565b005b600080fd5b610120610135366004613a33565b6105c9565b34801561014657600080fd5b5061015a610155366004613cad565b61094d565b6040519081526020015b60405180910390f35b34801561017957600080fd5b50610120610188366004613db8565b610b00565b34801561019957600080fd5b506101206101a8366004613e0f565b610c43565b3480156101b957600080fd5b506101206101c8366004613db8565b610e45565b3480156101d957600080fd5b506102bf6101e8366004613e3b565b6040805160a0810182526000808252602082018190529181018290526060810182905260808101919091525073ffffffffffffffffffffffffffffffffffffffff1660009081526020818152604091829020825160a08101845281546dffffffffffffffffffffffffffff80821683526e010000000000000000000000000000820460ff161515948301949094526f0100000000000000000000000000000090049092169282019290925260019091015463ffffffff81166060830152640100000000900467ffffffffffffffff16608082015290565b6040805182516dffffffffffffffffffffffffffff908116825260208085015115159083015283830151169181019190915260608083015163ffffffff169082015260809182015167ffffffffffffffff169181019190915260a001610164565b34801561032c57600080fd5b5061015a61033b366004613e3b565b73ffffffffffffffffffffffffffffffffffffffff166000908152602081905260409020546dffffffffffffffffffffffffffff1690565b34801561037f57600080fd5b5061015a600181565b34801561039457600080fd5b506101206103a3366004613e58565b61124c565b3480156103b457600080fd5b506101206103c3366004613e9a565b61134e565b3480156103d457600080fd5b5061015a6103e3366004613eec565b611576565b6101206103f6366004613e3b565b61054e565b34801561040757600080fd5b506101206115b8565b34801561041c57600080fd5b5061012061042b366004613e3b565b61176b565b34801561043c57600080fd5b5061012061044b366004613f21565b611a6f565b34801561045c57600080fd5b5061012061046b366004613eec565b611b93565b34801561047c57600080fd5b506104ff61048b366004613e3b565b600060208190529081526040902080546001909101546dffffffffffffffffffffffffffff808316926e010000000000000000000000000000810460ff16926f010000000000000000000000000000009091049091169063ffffffff811690640100000000900467ffffffffffffffff1685565b604080516dffffffffffffffffffffffffffff96871681529415156020860152929094169183019190915263ffffffff16606082015267ffffffffffffffff909116608082015260a001610164565b6105588134611e9a565b73ffffffffffffffffffffffffffffffffffffffff811660008181526020818152604091829020805492516dffffffffffffffffffffffffffff909316835292917f2da466a7b24304f47e87fa2e1e5a81b9831ce54fec19055ce277ca2f39ba42c491015b60405180910390a25050565b33600090815260208190526040902063ffffffff821661064a576040517f08c379a000000000000000000000000000000000000000000000000000000000815260206004820152601a60248201527f6d757374207370656369667920756e7374616b652064656c617900000000000060448201526064015b60405180910390fd5b600181015463ffffffff90811690831610156106c2576040517f08c379a000000000000000000000000000000000000000000000000000000000815260206004820152601c60248201527f63616e6e6f7420646563726561736520756e7374616b652074696d65000000006044820152606401610641565b80546000906106f59034906f0100000000000000000000000000000090046dffffffffffffffffffffffffffff16613fb2565b905060008111610761576040517f08c379a000000000000000000000000000000000000000000000000000000000815260206004820152601260248201527f6e6f207374616b652073706563696669656400000000000000000000000000006044820152606401610641565b6dffffffffffffffffffffffffffff81106107d8576040517f08c379a000000000000000000000000000000000000000000000000000000000815260206004820152600e60248201527f7374616b65206f766572666c6f770000000000000000000000000000000000006044820152606401610641565b6040805160a08101825283546dffffffffffffffffffffffffffff90811682526001602080840182815286841685870190815263ffffffff808b16606088019081526000608089018181523380835296829052908a9020985189549551945189166f01000000000000000000000000000000027fffffff0000000000000000000000000000ffffffffffffffffffffffffffffff9515156e010000000000000000000000000000027fffffffffffffffffffffffffffffffffff0000000000000000000000000000009097169190991617949094179290921695909517865551949092018054925167ffffffffffffffff16640100000000027fffffffffffffffffffffffffffffffffffffffff000000000000000000000000909316949093169390931717905590517fa5ae833d0bb1dcd632d98a8b70973e8516812898e19bf27b70071ebc8dc52c0190610940908490879091825263ffffffff16602082015260400190565b60405180910390a2505050565b6000805a90503330146109bc576040517f08c379a000000000000000000000000000000000000000000000000000000000815260206004820152601760248201527f4141393220696e7465726e616c2063616c6c206f6e6c790000000000000000006044820152606401610641565b8451604081015160608201518101611388015a10156109ff577fdeaddead0000000000000000000000000000000000000000000000000000000060005260206000fd5b875160009015610aa0576000610a1c846000015160008c86611f97565b905080610a9e576000610a30610800611faf565b805190915015610a9857846000015173ffffffffffffffffffffffffffffffffffffffff168a602001517f1c4fada7374c0a9ee8841fc38afe82932dc0f8e69012e927f061a8bae611a201876020015184604051610a8f929190614040565b60405180910390a35b60019250505b505b600088608001515a8603019050610af26000838b8b8b8080601f016020809104026020016040519081016040528093929190818152602001838380828437600092019190915250889250611fdb915050565b9a9950505050505050505050565b8160008167ffffffffffffffff811115610b1c57610b1c613a59565b604051908082528060200260200182016040528015610b5557816020015b610b4261398f565b815260200190600190039081610b3a5790505b50905060005b82811015610bd0576000828281518110610b7757610b77614059565b60200260200101519050600080610bb4848a8a87818110610b9a57610b9a614059565b9050602002810190610bac9190614088565b8560006123b3565b5091509150610bc58484848461259d565b505050600101610b5b565b506000805b83811015610c3057610c2481888884818110610bf357610bf3614059565b9050602002810190610c059190614088565b858481518110610c1757610c17614059565b60200260200101516127ed565b90910190600101610bd5565b50610c3b8482612993565b505050505050565b33600090815260208190526040902080546dffffffffffffffffffffffffffff16821115610ccd576040517f08c379a000000000000000000000000000000000000000000000000000000000815260206004820152601960248201527f576974686472617720616d6f756e7420746f6f206c61726765000000000000006044820152606401610641565b8054610cea9083906dffffffffffffffffffffffffffff166140c6565b81547fffffffffffffffffffffffffffffffffffff0000000000000000000000000000166dffffffffffffffffffffffffffff919091161781556040805173ffffffffffffffffffffffffffffffffffffffff851681526020810184905233917fd1c19fbcd4551a5edfb66d43d2e337c04837afda3482b42bdf569a8fccdae5fb910160405180910390a260008373ffffffffffffffffffffffffffffffffffffffff168360405160006040518083038185875af1925050503d8060008114610dcf576040519150601f19603f3d011682016040523d82523d6000602084013e610dd4565b606091505b5050905080610e3f576040517f08c379a000000000000000000000000000000000000000000000000000000000815260206004820152601260248201527f6661696c656420746f20776974686472617700000000000000000000000000006044820152606401610641565b50505050565b816000805b82811015610e9f57858582818110610e6457610e64614059565b9050602002810190610e7691906140dd565b610e809080614111565b610e8b915083613fb2565b915080610e9781614179565b915050610e4a565b5060008167ffffffffffffffff811115610ebb57610ebb613a59565b604051908082528060200260200182016040528015610ef457816020015b610ee161398f565b815260200190600190039081610ed95790505b5090506000805b848110156110d65736888883818110610f1657610f16614059565b9050602002810190610f2891906140dd565b9050366000610f378380614111565b90925090506000610f4e6040850160208601613e3b565b90508160005b81811015610fe0576000898981518110610f7057610f70614059565b60200260200101519050600080610fac8b898987818110610f9357610f93614059565b9050602002810190610fa59190614088565b85896123b3565b5091509150610fbd8484848461259d565b8a610fc781614179565b9b50505050508080610fd890614179565b915050610f54565b5073ffffffffffffffffffffffffffffffffffffffff8216156110be5773ffffffffffffffffffffffffffffffffffffffff821663e3563a4f858561102860408a018a6141b2565b6040518563ffffffff1660e01b815260040161104794939291906143c8565b60006040518083038186803b15801561105f57600080fd5b505afa925050508015611070575060015b6110be576040517f86a9f75000000000000000000000000000000000000000000000000000000000815273ffffffffffffffffffffffffffffffffffffffff83166004820152602401610641565b505050505080806110ce90614179565b915050610efb565b50600080915060005b8581101561120357368989838181106110fa576110fa614059565b905060200281019061110c91906140dd565b90507f575ff3acadd5ab348fe1855e217e0f3678f8d767d7494c9f9fefbee2e17cca4d61113f6040830160208401613e3b565b60405173ffffffffffffffffffffffffffffffffffffffff909116815260200160405180910390a13660006111748380614111565b90925090508060005b818110156111eb576111bf8885858481811061119b5761119b614059565b90506020028101906111ad9190614088565b8b8b81518110610c1757610c17614059565b6111c99088613fb2565b9650876111d581614179565b98505080806111e390614179565b91505061117d565b505050505080806111fb90614179565b9150506110df565b50604051600081527f575ff3acadd5ab348fe1855e217e0f3678f8d767d7494c9f9fefbee2e17cca4d9060200160405180910390a16112428682612993565b5050505050505050565b6040517f570e1a3600000000000000000000000000000000000000000000000000000000815273ffffffffffffffffffffffffffffffffffffffff7f0000000000000000000000000000000000000000000000000000000000000000169063570e1a36906112c0908590859060040161447f565b6020604051808303816000875af11580156112df573d6000803e3d6000fd5b505050506040513d601f19601f820116820180604052508101906113039190614493565b6040517f6ca7b80600000000000000000000000000000000000000000000000000000000815273ffffffffffffffffffffffffffffffffffffffff9091166004820152602401610641565b3330146113b7576040517f08c379a000000000000000000000000000000000000000000000000000000000815260206004820152601760248201527f4141393220696e7465726e616c2063616c6c206f6e6c790000000000000000006044820152606401610641565b600073ffffffffffffffffffffffffffffffffffffffff83163b611437576040517f08c379a000000000000000000000000000000000000000000000000000000000815260206004820152601960248201527f41413230206163636f756e74206e6f74206465706c6f796564000000000000006044820152606401610641565b73ffffffffffffffffffffffffffffffffffffffff821615801590611471575073ffffffffffffffffffffffffffffffffffffffff82163b155b156114d8576040517f08c379a000000000000000000000000000000000000000000000000000000000815260206004820152601b60248201527f41413330207061796d6173746572206e6f74206465706c6f79656400000000006044820152606401610641565b8273ffffffffffffffffffffffffffffffffffffffff16633ad59dbc6040518163ffffffff1660e01b8152600401602060405180830381865afa92505050801561155d575060408051601f3d9081017fffffffffffffffffffffffffffffffffffffffffffffffffffffffffffffffe016820190925261155a91810190614493565b60015b6115695750600061156c565b90505b8060005260206000fd5b600061158182612adf565b6040805160208101929092523090820152466060820152608001604051602081830303815290604052805190602001209050919050565b336000908152602081905260409020600181015463ffffffff16611638576040517f08c379a000000000000000000000000000000000000000000000000000000000815260206004820152600a60248201527f6e6f74207374616b6564000000000000000000000000000000000000000000006044820152606401610641565b80546e010000000000000000000000000000900460ff166116b5576040517f08c379a000000000000000000000000000000000000000000000000000000000815260206004820152601160248201527f616c726561647920756e7374616b696e670000000000000000000000000000006044820152606401610641565b60018101546000906116cd9063ffffffff16426144b0565b6001830180547fffffffffffffffffffffffffffffffffffffffff0000000000000000ffffffff1664010000000067ffffffffffffffff84169081029190911790915583547fffffffffffffffffffffffffffffffffff00ffffffffffffffffffffffffffff16845560405190815290915033907ffa9b3c14cc825c412c9ed81b3ba365a5b459439403f18829e572ed53a4180f0a906020016105bd565b33600090815260208190526040902080546f0100000000000000000000000000000090046dffffffffffffffffffffffffffff1680611806576040517f08c379a000000000000000000000000000000000000000000000000000000000815260206004820152601460248201527f4e6f207374616b6520746f2077697468647261770000000000000000000000006044820152606401610641565b6001820154640100000000900467ffffffffffffffff16611883576040517f08c379a000000000000000000000000000000000000000000000000000000000815260206004820152601d60248201527f6d7573742063616c6c20756e6c6f636b5374616b6528292066697273740000006044820152606401610641565b60018201544264010000000090910467ffffffffffffffff161115611904576040517f08c379a000000000000000000000000000000000000000000000000000000000815260206004820152601b60248201527f5374616b65207769746864726177616c206973206e6f742064756500000000006044820152606401610641565b6001820180547fffffffffffffffffffffffffffffffffffffffff00000000000000000000000016905581547fffffff0000000000000000000000000000ffffffffffffffffffffffffffffff1682556040805173ffffffffffffffffffffffffffffffffffffffff851681526020810183905233917fb7c918e0e249f999e965cafeb6c664271b3f4317d296461500e71da39f0cbda3910160405180910390a260008373ffffffffffffffffffffffffffffffffffffffff168260405160006040518083038185875af1925050503d80600081146119ff576040519150601f19603f3d011682016040523d82523d6000602084013e611a04565b606091505b5050905080610e3f576040517f08c379a000000000000000000000000000000000000000000000000000000000815260206004820152601860248201527f6661696c656420746f207769746864726177207374616b6500000000000000006044820152606401610641565b611a7761398f565b600080611a886000888560016123b3565b5091509150600080611a9a8484612af8565b9250925050611aa843600052565b6000611ab660008b886127ed565b9050611ac143600052565b6000606073ffffffffffffffffffffffffffffffffffffffff8b1615611b51578a73ffffffffffffffffffffffffffffffffffffffff168a8a604051611b089291906144dc565b6000604051808303816000865af19150503d8060008114611b45576040519150601f19603f3d011682016040523d82523d6000602084013e611b4a565b606091505b5090925090505b876080015183868685856040517f8ec81987000000000000000000000000000000000000000000000000000000008152600401610641969594939291906144ec565b611b9b61398f565b6000806000611bae6000868660016123b3565b865160a001516040805180820182526000808252602080830182815273ffffffffffffffffffffffffffffffffffffffff958616835282825284832080546dffffffffffffffffffffffffffff6f01000000000000000000000000000000918290048116875260019283015463ffffffff9081169094528f51518851808a018a5287815280870188815291909a16875286865288872080549390930490911689529101549091169052835180850190945281845283015294975092955090935090366000611c7f60408b018b6141b2565b909250905060006014821015611c96576000611cb1565b611ca4601460008486614539565b611cad91614563565b60601c5b6040805180820182526000808252602080830182815273ffffffffffffffffffffffffffffffffffffffff861683529082905292902080546f0100000000000000000000000000000090046dffffffffffffffffffffffffffff1682526001015463ffffffff1690915290915093505050506000806000611d328989612af8565b92509250925060006040518060c001604052808c6080015181526020018c60400151815260200185151581526020018467ffffffffffffffff1681526020018367ffffffffffffffff168152602001611d8c8d6060015190565b9052905073ffffffffffffffffffffffffffffffffffffffff881615611e605760408051808201825273ffffffffffffffffffffffffffffffffffffffff8a1680825282518084018452600080825260208083018281529382528181529085902080546f0100000000000000000000000000000090046dffffffffffffffffffffffffffff1683526001015463ffffffff169092529082015290517f356877a3000000000000000000000000000000000000000000000000000000008152610641908390899089908c908690600401614604565b808686896040517ff04297e90000000000000000000000000000000000000000000000000000000081526004016106419493929190614691565b73ffffffffffffffffffffffffffffffffffffffff821660009081526020819052604081208054909190611edf9084906dffffffffffffffffffffffffffff16613fb2565b90506dffffffffffffffffffffffffffff811115611f59576040517f08c379a000000000000000000000000000000000000000000000000000000000815260206004820152601060248201527f6465706f736974206f766572666c6f77000000000000000000000000000000006044820152606401610641565b81547fffffffffffffffffffffffffffffffffffff0000000000000000000000000000166dffffffffffffffffffffffffffff919091161790555050565b6000806000845160208601878987f195945050505050565b60603d82811115611fbd5750815b604051602082018101604052818152816000602083013e9392505050565b6000805a855190915060009081611ff182612b75565b60a083015190915073ffffffffffffffffffffffffffffffffffffffff811661201d578251935061224b565b80935060008851111561224b57868202955060028a6002811115612043576120436146e9565b146120db5760608301516040517fa9a2340900000000000000000000000000000000000000000000000000000000815273ffffffffffffffffffffffffffffffffffffffff83169163a9a23409916120a3908e908d908c90600401614718565b600060405180830381600088803b1580156120bd57600080fd5b5087f11580156120d1573d6000803e3d6000fd5b505050505061224b565b60608301516040517fa9a2340900000000000000000000000000000000000000000000000000000000815273ffffffffffffffffffffffffffffffffffffffff83169163a9a2340991612136908e908d908c90600401614718565b600060405180830381600088803b15801561215057600080fd5b5087f193505050508015612162575060015b61224b5761216e614778565b806308c379a014156121c55750612183614794565b8061218e57506121c7565b8b82826040517efa072b0000000000000000000000000000000000000000000000000000000081526004016106419392919061483c565b505b6040517efa072b000000000000000000000000000000000000000000000000000000008152600481018c905273ffffffffffffffffffffffffffffffffffffffff8216602482015260606044820152601160648201527f41353020706f73744f7020726576657274000000000000000000000000000000608482015260a401610641565b5a850387019650818702955085896040015110156122e7576040517efa072b000000000000000000000000000000000000000000000000000000008152600481018c905273ffffffffffffffffffffffffffffffffffffffff8216602482015260606044820152601f60648201527f4135312070726566756e642062656c6f772061637475616c476173436f737400608482015260a401610641565b60408901518690036122f98582611e9a565b6000808c600281111561230e5761230e6146e9565b1490508460a0015173ffffffffffffffffffffffffffffffffffffffff16856000015173ffffffffffffffffffffffffffffffffffffffff168c602001517f49628fd1471006c1482da88028e9ce4dbb080b815c9b0344d39e5a8e6ec1419f8860200151858d8f60405161239b949392919093845291151560208401526040830152606082015260800190565b60405180910390a45050505050505095945050505050565b6000806000805a86519091506123c98882612ba6565b6123d288611576565b6020880152604081015160608201516080830151171760e089013517610100890135176effffffffffffffffffffffffffffff81111561246e576040517f08c379a000000000000000000000000000000000000000000000000000000000815260206004820152601860248201527f41413934206761732076616c756573206f766572666c6f7700000000000000006044820152606401610641565b60008061247a84612cc6565b90506124898c8c8c8c85612d20565b99509650915061249843600052565b60a084015160609073ffffffffffffffffffffffffffffffffffffffff16156124cd576124c88d8d8d85876131f9565b985090505b60005a87039050808d60a00135101561256d578d8660a001516040517efa072b00000000000000000000000000000000000000000000000000000000815260040161064192919091825273ffffffffffffffffffffffffffffffffffffffff166020820152606060408201819052601e908201527f41413430206f76657220766572696669636174696f6e4761734c696d69740000608082015260a00190565b60408c018390528160608d015260c08d01355a8803018c6080018181525050505050505050509450945094915050565b6000806125a984613514565b915091508115612622576040517efa072b000000000000000000000000000000000000000000000000000000008152600481018790526000602482015260606044820152601460648201527f41413234207369676e6174757265206572726f72000000000000000000000000608482015260a401610641565b8015612697576040517efa072b000000000000000000000000000000000000000000000000000000008152600481018790526000602482015260606044820152601760648201527f414132322065787069726564206f72206e6f7420647565000000000000000000608482015260a401610641565b6126a083613514565b9092509050811561273657845160a001516040517efa072b0000000000000000000000000000000000000000000000000000000081526004810188905273ffffffffffffffffffffffffffffffffffffffff909116602482015260606044820152601460648201527f41413334207369676e6174757265206572726f72000000000000000000000000608482015260a401610641565b8015610c3b57845160a001516040517efa072b0000000000000000000000000000000000000000000000000000000081526004810188905273ffffffffffffffffffffffffffffffffffffffff909116602482015260606044820152602160648201527f41413332207061796d61737465722065787069726564206f72206e6f7420647560848201527f650000000000000000000000000000000000000000000000000000000000000060a482015260c401610641565b6000805a90506000612800846060015190565b905030631d73275661281560608801886141b2565b87856040518563ffffffff1660e01b81526004016128369493929190614871565b6020604051808303816000875af192505050801561288f575060408051601f3d9081017fffffffffffffffffffffffffffffffffffffffffffffffffffffffffffffffe016820190925261288c91810190614932565b60015b61298757600060206000803e506000517fdeaddead0000000000000000000000000000000000000000000000000000000081141561295257845160a001516040517efa072b0000000000000000000000000000000000000000000000000000000081526004810189905273ffffffffffffffffffffffffffffffffffffffff909116602482015260606044820152600f60648201527f41413935206f7574206f66206761730000000000000000000000000000000000608482015260a401610641565b600085608001515a61296490866140c6565b61296e9190613fb2565b905061297e886002888685611fdb565b9450505061298a565b92505b50509392505050565b73ffffffffffffffffffffffffffffffffffffffff8216612a10576040517f08c379a000000000000000000000000000000000000000000000000000000000815260206004820152601860248201527f4141393020696e76616c69642062656e656669636961727900000000000000006044820152606401610641565b60008273ffffffffffffffffffffffffffffffffffffffff168260405160006040518083038185875af1925050503d8060008114612a6a576040519150601f19603f3d011682016040523d82523d6000602084013e612a6f565b606091505b5050905080612ada576040517f08c379a000000000000000000000000000000000000000000000000000000000815260206004820152601f60248201527f41413931206661696c65642073656e6420746f2062656e6566696369617279006044820152606401610641565b505050565b6000612aea8261355d565b805190602001209050919050565b6000806000612b068561359c565b9194509250905060008080612b1a8761359c565b9250925092508580612b295750825b95508167ffffffffffffffff168567ffffffffffffffff161015612b4b578194505b8067ffffffffffffffff168467ffffffffffffffff161115612b6b578093505b5050509250925092565b60c081015160e08201516000919080821415612b92575092915050565b612b9e824883016135c2565b949350505050565b612bb36020830183613e3b565b73ffffffffffffffffffffffffffffffffffffffff16815260208083013590820152608080830135604083015260a0830135606083015260c0808401359183019190915260e0808401359183019190915261010083013590820152366000612c1f6101208501856141b2565b90925090508015612cb9576014811015612c95576040517f08c379a000000000000000000000000000000000000000000000000000000000815260206004820152601d60248201527f4141393320696e76616c6964207061796d6173746572416e64446174610000006044820152606401610641565b612ca3601460008385614539565b612cac91614563565b60601c60a0840152610e3f565b600060a084015250505050565b60a0810151600090819073ffffffffffffffffffffffffffffffffffffffff16612cf1576001612cf4565b60035b60ff16905060008360800151828560600151028560400151010190508360c00151810292505050919050565b6000806000805a8751805191925090612d468b8a612d4160408e018e6141b2565b6135da565b60a082015173ffffffffffffffffffffffffffffffffffffffff891660011415612ee257612d7343600052565b6040517fa47a3fbc00000000000000000000000000000000000000000000000000000000815273ffffffffffffffffffffffffffffffffffffffff808416600483015282166024820152309063a47a3fbc9060440160006040518083038186803b158015612de057600080fd5b505afa925050508015612df1575060015b612ee257612dfd614778565b806308c379a01415612e545750612e12614794565b80612e1d5750612e56565b8c82826040517efa072b0000000000000000000000000000000000000000000000000000000081526004016106419392919061483c565b505b3d808015612e80576040519150601f19603f3d011682016040523d82523d6000602084013e612e85565b606091505b508051602014612ec757600082826040517efa072b0000000000000000000000000000000000000000000000000000000081526004016106419392919061483c565b80806020019051810190612edb9190614493565b9650869950505b600073ffffffffffffffffffffffffffffffffffffffff8216612f4b5773ffffffffffffffffffffffffffffffffffffffff83166000908152602081905260409020546dffffffffffffffffffffffffffff16898111612f4457808a03612f47565b60005b9150505b8273ffffffffffffffffffffffffffffffffffffffff16630825d1fc85606001518e8e602001518e866040518663ffffffff1660e01b8152600401612f93949392919061494b565b60206040518083038160008887f193505050508015612fed575060408051601f3d9081017fffffffffffffffffffffffffffffffffffffffffffffffffffffffffffffffe0168201909252612fea91810190614932565b60015b6130c257612ff9614778565b806308c379a01415613051575061300e614794565b806130195750613053565b8d6000826040517efa072b0000000000000000000000000000000000000000000000000000000081526004016106419392919061483c565b505b6040517efa072b000000000000000000000000000000000000000000000000000000008152600481018e90526000602482015260606044820152601660648201527f4141323320726576657274656420286f72204f4f472900000000000000000000608482015260a401610641565b955073ffffffffffffffffffffffffffffffffffffffff82166131e45773ffffffffffffffffffffffffffffffffffffffff8316600090815260208190526040902080546dffffffffffffffffffffffffffff16808b11156131a8578e60006040517efa072b00000000000000000000000000000000000000000000000000000000815260040161064192919091825273ffffffffffffffffffffffffffffffffffffffff1660208201526060604082018190526017908201527f41413231206469646e2774207061792070726566756e64000000000000000000608082015260a00190565b81547fffffffffffffffffffffffffffffffffffff000000000000000000000000000016908b90036dffffffffffffffffffffffffffff161790555b5a850397505050505050955095509592505050565b8251606081810151909160009184811161326f576040517f08c379a000000000000000000000000000000000000000000000000000000000815260206004820152601f60248201527f4141343120746f6f206c6974746c6520766572696669636174696f6e476173006044820152606401610641565b60a082015173ffffffffffffffffffffffffffffffffffffffff8116600090815260208190526040902080548784039291906dffffffffffffffffffffffffffff168981101561333d576040517efa072b000000000000000000000000000000000000000000000000000000008152600481018e905273ffffffffffffffffffffffffffffffffffffffff8416602482015260606044820152601e60648201527f41413331207061796d6173746572206465706f73697420746f6f206c6f770000608482015260a401610641565b8981038260000160006101000a8154816dffffffffffffffffffffffffffff02191690836dffffffffffffffffffffffffffff1602179055508273ffffffffffffffffffffffffffffffffffffffff1663f465c77e858e8e602001518e6040518563ffffffff1660e01b81526004016133b893929190614990565b60006040518083038160008887f19350505050801561341757506040513d6000823e601f3d9081017fffffffffffffffffffffffffffffffffffffffffffffffffffffffffffffffe016820160405261341491908101906149b5565b60015b61350057613423614778565b806308c379a0141561347a5750613438614794565b80613443575061347c565b8d84826040517efa072b0000000000000000000000000000000000000000000000000000000081526004016106419392919061483c565b505b6040517efa072b000000000000000000000000000000000000000000000000000000008152600481018e905273ffffffffffffffffffffffffffffffffffffffff8416602482015260606044820152601660648201527f4141333320726576657274656420286f72204f4f472900000000000000000000608482015260a401610641565b909e909d509b505050505050505050505050565b6000808261352757506000928392509050565b6000806135338561359c565b91955067ffffffffffffffff90811693501690504281108061355457508142105b92505050915091565b60603660006135706101408501856141b2565b915091508360208184030360405194506020810185016040528085528082602087013750505050919050565b60ff811615156000806135b46001600886901c614a41565b929460489490941c93915050565b60008183106135d157816135d3565b825b9392505050565b8015610e3f5782515173ffffffffffffffffffffffffffffffffffffffff81163b1561366f576040517efa072b000000000000000000000000000000000000000000000000000000008152600481018690526000602482015260606044820152601f60648201527f414131302073656e64657220616c726561647920636f6e737472756374656400608482015260a401610641565b8351606001516040517f570e1a3600000000000000000000000000000000000000000000000000000000815260009173ffffffffffffffffffffffffffffffffffffffff7f0000000000000000000000000000000000000000000000000000000000000000169163570e1a3691906136ed908890889060040161447f565b60206040518083038160008887f115801561370c573d6000803e3d6000fd5b50505050506040513d601f19601f820116820180604052508101906137319190614493565b905073ffffffffffffffffffffffffffffffffffffffff81166137bd576040517efa072b000000000000000000000000000000000000000000000000000000008152600481018790526000602482015260606044820152601b60648201527f4141313320696e6974436f6465206661696c6564206f72204f4f470000000000608482015260a401610641565b8173ffffffffffffffffffffffffffffffffffffffff168173ffffffffffffffffffffffffffffffffffffffff161461385f576040517efa072b000000000000000000000000000000000000000000000000000000008152600481018790526000602482015260606044820152602060648201527f4141313420696e6974436f6465206d7573742072657475726e2073656e646572608482015260a401610641565b73ffffffffffffffffffffffffffffffffffffffff81163b6138ea576040517efa072b000000000000000000000000000000000000000000000000000000008152600481018790526000602482015260606044820152602060648201527f4141313520696e6974436f6465206d757374206372656174652073656e646572608482015260a401610641565b60006138f96014828688614539565b61390291614563565b60601c90508273ffffffffffffffffffffffffffffffffffffffff1686602001517fd51a9c61267aa6196961883ecf5ff2da6619c37dac0fa92122513fb32c032d2d83896000015160a0015160405161397e92919073ffffffffffffffffffffffffffffffffffffffff92831681529116602082015260400190565b60405180910390a350505050505050565b6040518060a00160405280613a0e604051806101000160405280600073ffffffffffffffffffffffffffffffffffffffff16815260200160008152602001600081526020016000815260200160008152602001600073ffffffffffffffffffffffffffffffffffffffff16815260200160008152602001600081525090565b8152602001600080191681526020016000815260200160008152602001600081525090565b600060208284031215613a4557600080fd5b813563ffffffff811681146135d357600080fd5b7f4e487b7100000000000000000000000000000000000000000000000000000000600052604160045260246000fd5b60a0810181811067ffffffffffffffff82111715613aa857613aa8613a59565b60405250565b610100810181811067ffffffffffffffff82111715613aa857613aa8613a59565b7fffffffffffffffffffffffffffffffffffffffffffffffffffffffffffffffe0601f830116810181811067ffffffffffffffff82111715613b1357613b13613a59565b6040525050565b600067ffffffffffffffff821115613b3457613b34613a59565b50601f017fffffffffffffffffffffffffffffffffffffffffffffffffffffffffffffffe01660200190565b73ffffffffffffffffffffffffffffffffffffffff81168114613b8257600080fd5b50565b8035613b9081613b60565b919050565b6000818303610180811215613ba957600080fd5b604051613bb581613a88565b80925061010080831215613bc857600080fd5b6040519250613bd683613aae565b613bdf85613b85565b835260208501356020840152604085013560408401526060850135606084015260808501356080840152613c1560a08601613b85565b60a084015260c085013560c084015260e085013560e084015282825280850135602083015250610120840135604082015261014084013560608201526101608401356080820152505092915050565b60008083601f840112613c7657600080fd5b50813567ffffffffffffffff811115613c8e57600080fd5b602083019150836020828501011115613ca657600080fd5b9250929050565b6000806000806101c08587031215613cc457600080fd5b843567ffffffffffffffff80821115613cdc57600080fd5b818701915087601f830112613cf057600080fd5b8135613cfb81613b1a565b604051613d088282613acf565b8281528a6020848701011115613d1d57600080fd5b82602086016020830137600060208483010152809850505050613d438860208901613b95565b94506101a0870135915080821115613d5a57600080fd5b50613d6787828801613c64565b95989497509550505050565b60008083601f840112613d8557600080fd5b50813567ffffffffffffffff811115613d9d57600080fd5b6020830191508360208260051b8501011115613ca657600080fd5b600080600060408486031215613dcd57600080fd5b833567ffffffffffffffff811115613de457600080fd5b613df086828701613d73565b9094509250506020840135613e0481613b60565b809150509250925092565b60008060408385031215613e2257600080fd5b8235613e2d81613b60565b946020939093013593505050565b600060208284031215613e4d57600080fd5b81356135d381613b60565b60008060208385031215613e6b57600080fd5b823567ffffffffffffffff811115613e8257600080fd5b613e8e85828601613c64565b90969095509350505050565b60008060408385031215613ead57600080fd5b8235613eb881613b60565b91506020830135613ec881613b60565b809150509250929050565b60006101608284031215613ee657600080fd5b50919050565b600060208284031215613efe57600080fd5b813567ffffffffffffffff811115613f1557600080fd5b612b9e84828501613ed3565b60008060008060608587031215613f3757600080fd5b843567ffffffffffffffff80821115613f4f57600080fd5b613f5b88838901613ed3565b955060208701359150613f6d82613b60565b90935060408601359080821115613d5a57600080fd5b7f4e487b7100000000000000000000000000000000000000000000000000000000600052601160045260246000fd5b60008219821115613fc557613fc5613f83565b500190565b60005b83811015613fe5578181015183820152602001613fcd565b83811115610e3f5750506000910152565b6000815180845261400e816020860160208601613fca565b601f017fffffffffffffffffffffffffffffffffffffffffffffffffffffffffffffffe0169290920160200192915050565b828152604060208201526000612b9e6040830184613ff6565b7f4e487b7100000000000000000000000000000000000000000000000000000000600052603260045260246000fd5b600082357ffffffffffffffffffffffffffffffffffffffffffffffffffffffffffffffea18336030181126140bc57600080fd5b9190910192915050565b6000828210156140d8576140d8613f83565b500390565b600082357fffffffffffffffffffffffffffffffffffffffffffffffffffffffffffffffa18336030181126140bc57600080fd5b60008083357fffffffffffffffffffffffffffffffffffffffffffffffffffffffffffffffe184360301811261414657600080fd5b83018035915067ffffffffffffffff82111561416157600080fd5b6020019150600581901b3603821315613ca657600080fd5b60007fffffffffffffffffffffffffffffffffffffffffffffffffffffffffffffffff8214156141ab576141ab613f83565b5060010190565b60008083357fffffffffffffffffffffffffffffffffffffffffffffffffffffffffffffffe18436030181126141e757600080fd5b83018035915067ffffffffffffffff82111561420257600080fd5b602001915036819003821315613ca657600080fd5b60008083357fffffffffffffffffffffffffffffffffffffffffffffffffffffffffffffffe184360301811261424c57600080fd5b830160208101925035905067ffffffffffffffff81111561426c57600080fd5b803603831315613ca657600080fd5b8183528181602085013750600060208284010152600060207fffffffffffffffffffffffffffffffffffffffffffffffffffffffffffffffe0601f840116840101905092915050565b60006101606142f0846142d685613b85565b73ffffffffffffffffffffffffffffffffffffffff169052565b602083013560208501526143076040840184614217565b82604087015261431a838701828461427b565b9250505061432b6060840184614217565b858303606087015261433e83828461427b565b925050506080830135608085015260a083013560a085015260c083013560c085015260e083013560e085015261010080840135818601525061012061438581850185614217565b8684038388015261439784828461427b565b93505050506101406143ab81850185614217565b868403838801526143bd84828461427b565b979650505050505050565b6040808252810184905260006060600586901b830181019083018783805b89811015614468577fffffffffffffffffffffffffffffffffffffffffffffffffffffffffffffffa087860301845282357ffffffffffffffffffffffffffffffffffffffffffffffffffffffffffffffea18c3603018112614446578283fd5b614452868d83016142c4565b95505060209384019392909201916001016143e6565b5050505082810360208401526143bd81858761427b565b602081526000612b9e60208301848661427b565b6000602082840312156144a557600080fd5b81516135d381613b60565b600067ffffffffffffffff8083168185168083038211156144d3576144d3613f83565b01949350505050565b8183823760009101908152919050565b868152856020820152600067ffffffffffffffff8087166040840152808616606084015250831515608083015260c060a083015261452d60c0830184613ff6565b98975050505050505050565b6000808585111561454957600080fd5b8386111561455657600080fd5b5050820193919092039150565b7fffffffffffffffffffffffffffffffffffffffff00000000000000000000000081358181169160148510156145a35780818660140360031b1b83161692505b505092915050565b80518252602081015160208301526040810151151560408301526000606082015167ffffffffffffffff8082166060860152806080850151166080860152505060a082015160c060a0850152612b9e60c0850182613ff6565b6000610140808352614618818401896145ab565b915050614632602083018780518252602090810151910152565b845160608301526020948501516080830152835160a08301529284015160c0820152815173ffffffffffffffffffffffffffffffffffffffff1660e0820152908301518051610100830152909201516101209092019190915292915050565b60e0815260006146a460e08301876145ab565b90506146bd602083018680518252602090810151910152565b8351606083015260208401516080830152825160a0830152602083015160c08301525b95945050505050565b7f4e487b7100000000000000000000000000000000000000000000000000000000600052602160045260246000fd5b600060038510614751577f4e487b7100000000000000000000000000000000000000000000000000000000600052602160045260246000fd5b848252606060208301526147686060830185613ff6565b9050826040830152949350505050565b600060033d11156147915760046000803e5060005160e01c5b90565b600060443d10156147a25790565b6040517ffffffffffffffffffffffffffffffffffffffffffffffffffffffffffffffffc803d016004833e81513d67ffffffffffffffff81602484011181841117156147f057505050505090565b82850191508151818111156148085750505050505090565b843d87010160208285010111156148225750505050505090565b61483160208286010187613acf565b509095945050505050565b83815273ffffffffffffffffffffffffffffffffffffffff831660208201526060604082015260006146e06060830184613ff6565b60006101c0808352614886818401878961427b565b9050845173ffffffffffffffffffffffffffffffffffffffff808251166020860152602082015160408601526040820151606086015260608201516080860152608082015160a08601528060a08301511660c08601525060c081015160e085015260e08101516101008501525060208501516101208401526040850151610140840152606085015161016084015260808501516101808401528281036101a08401526143bd8185613ff6565b60006020828403121561494457600080fd5b5051919050565b60808152600061495e60808301876142c4565b60208301959095525073ffffffffffffffffffffffffffffffffffffffff929092166040830152606090910152919050565b6060815260006149a360608301866142c4565b60208301949094525060400152919050565b600080604083850312156149c857600080fd5b825167ffffffffffffffff8111156149df57600080fd5b8301601f810185136149f057600080fd5b80516149fb81613b1a565b604051614a088282613acf565b828152876020848601011115614a1d57600080fd5b614a2e836020830160208701613fca565b6020969096015195979596505050505050565b6000808312837f800000000000000000000000000000000000000000000000000000000000000001831281151615614a7b57614a7b613f83565b837f7fffffffffffffffffffffffffffffffffffffffffffffffffffffffffffffff018313811615614aaf57614aaf613f83565b5050039056fea2646970667358221220b2401f5fe63f6e667a280ae049534c84f5d03e181a8e4310ebed2c237d5e568b64736f6c634300080c0033608060405234801561001057600080fd5b50610213806100206000396000f3fe608060405234801561001057600080fd5b506004361061002b5760003560e01c8063570e1a3614610030575b600080fd5b61004361003e3660046100f9565b61006c565b60405173ffffffffffffffffffffffffffffffffffffffff909116815260200160405180910390f35b60008061007c601482858761016b565b61008591610195565b60601c90506000610099846014818861016b565b8080601f016020809104026020016040519081016040528093929190818152602001838380828437600092018290525084519495509360209350849250905082850182875af190506000519350806100f057600093505b50505092915050565b6000806020838503121561010c57600080fd5b823567ffffffffffffffff8082111561012457600080fd5b818501915085601f83011261013857600080fd5b81358181111561014757600080fd5b86602082850101111561015957600080fd5b60209290920196919550909350505050565b6000808585111561017b57600080fd5b8386111561018857600080fd5b5050820193919092039150565b7fffffffffffffffffffffffffffffffffffffffff00000000000000000000000081358181169160148510156101d55780818660140360031b1b83161692505b50509291505056fea264697066735822122032aa3b970ecbaf424967949239e9dc44455c8dcf8c8491c0ee6e39ba8805313f64736f6c634300080c0033","linkReferences":{},"deployedLinkReferences":{},"fileHash":"c67cc2ae12891b16fb23fcb94b094ebb57ff8dbb6199fbc6b2c6faed9dee1f5d"}