{
  "_format": "hh-sol-artifact-1",
  "contractName": "FunWalletFactory",
  "sourceName": "contracts/deployer/FunWalletFactory.sol",
  "abi": [
    {
      "inputs": [],
      "stateMutability": "nonpayable",
      "type": "constructor"
    },
    {
      "inputs": [
        {
          "internalType": "bytes",
          "name": "initializerCallData",
          "type": "bytes"
        },
        {
          "internalType": "address",
          "name": "implementation",
          "type": "address"
        },
        {
          "internalType": "bytes32",
          "name": "salt",
          "type": "bytes32"
        }
      ],
      "name": "createAccount",
      "outputs": [
        {
          "internalType": "contract FunWallet",
          "name": "funWallet",
          "type": "address"
        }
      ],
      "stateMutability": "nonpayable",
      "type": "function"
    },
    {
      "inputs": [],
      "name": "funWalletImpAddress",
      "outputs": [
        {
          "internalType": "address",
          "name": "",
          "type": "address"
        }
      ],
      "stateMutability": "view",
      "type": "function"
    },
    {
      "inputs": [
        {
          "internalType": "bytes32",
          "name": "salt",
          "type": "bytes32"
        }
      ],
      "name": "getAddress",
      "outputs": [
        {
          "internalType": "address",
          "name": "",
          "type": "address"
        }
      ],
      "stateMutability": "view",
      "type": "function"
    }
  ],
  "bytecode": "0x60a060405234801561001057600080fd5b5060405161001d9061004b565b604051809103906000f080158015610039573d6000803e3d6000fd5b506001600160a01b0316608052610058565b6154c880610d7583390190565b608051610cee61008760003960008181609a01528181610107015281816101e501526102860152610cee6000f3fe608060405234801561001057600080fd5b50600436106100415760003560e01c806321f8a72114610046578063780c11f0146100825780638bb0862014610095575b600080fd5b610059610054366004610388565b6100bc565b60405173ffffffffffffffffffffffffffffffffffffffff909116815260200160405180910390f35b6100596100903660046103a1565b6101ac565b6100597f000000000000000000000000000000000000000000000000000000000000000081565b60006101a682604051806020016100d29061037b565b7fffffffffffffffffffffffffffffffffffffffffffffffffffffffffffffffe082820381018352601f9091011660408181527f000000000000000000000000000000000000000000000000000000000000000073ffffffffffffffffffffffffffffffffffffffff1660208301528082015260006060820152608001604080517fffffffffffffffffffffffffffffffffffffffffffffffffffffffffffffffe08184030181529082905261018b929160200161047e565b6040516020818303038152906040528051906020012061033d565b92915050565b6000806101b8836100bc565b905073ffffffffffffffffffffffffffffffffffffffff81163b80156101e057509050610335565b6000847f00000000000000000000000000000000000000000000000000000000000000006040516102109061037b565b73ffffffffffffffffffffffffffffffffffffffff90911681526040602082018190526000908201526060018190604051809103906000f590508015801561025c573d6000803e3d6000fd5b50935083905073ffffffffffffffffffffffffffffffffffffffff86161561028457856102a6565b7f00000000000000000000000000000000000000000000000000000000000000005b6040517f4192d25100000000000000000000000000000000000000000000000000000000815290965073ffffffffffffffffffffffffffffffffffffffff851690634192d251906102ff9089908c908c90600401610493565b600060405180830381600087803b15801561031957600080fd5b505af115801561032d573d6000803e3d6000fd5b505050505050505b949350505050565b600061034a838330610351565b9392505050565b6000604051836040820152846020820152828152600b8101905060ff815360559020949350505050565b6107bb806104fe83390190565b60006020828403121561039a57600080fd5b5035919050565b600080600080606085870312156103b757600080fd5b843567ffffffffffffffff808211156103cf57600080fd5b818701915087601f8301126103e357600080fd5b8135818111156103f257600080fd5b88602082850101111561040457600080fd5b6020928301965094505085013573ffffffffffffffffffffffffffffffffffffffff8116811461043357600080fd5b9396929550929360400135925050565b6000815160005b81811015610464576020818501810151868301520161044a565b81811115610473576000828601525b509290920192915050565b600061033561048d8386610443565b84610443565b73ffffffffffffffffffffffffffffffffffffffff8416815260406020820152816040820152818360608301376000818301606090810191909152601f9092017fffffffffffffffffffffffffffffffffffffffffffffffffffffffffffffffe01601019291505056fe60806040526040516107bb3803806107bb8339810160408190526100229161031e565b61002e82826000610035565b505061043b565b61003e8361006b565b60008251118061004b5750805b156100665761006483836100ab60201b6100291760201c565b505b505050565b610074816100d7565b6040516001600160a01b038216907fbc7cd75a20ee27fd9adebab32041f755214dbc6bffa90cc0225b39da2e5c2d3b90600090a250565b60606100d08383604051806060016040528060278152602001610794602791396101a9565b9392505050565b6100ea8161022260201b6100551760201c565b6101515760405162461bcd60e51b815260206004820152602d60248201527f455243313936373a206e657720696d706c656d656e746174696f6e206973206e60448201526c1bdd08184818dbdb9d1c9858dd609a1b60648201526084015b60405180910390fd5b806101887f360894a13ba1a3210667c828492db98dca3e2076cc3735a920a3ca505d382bbc60001b61023160201b6100711760201c565b80546001600160a01b0319166001600160a01b039290921691909117905550565b6060600080856001600160a01b0316856040516101c691906103ec565b600060405180830381855af49150503d8060008114610201576040519150601f19603f3d011682016040523d82523d6000602084013e610206565b606091505b50909250905061021886838387610234565b9695505050505050565b6001600160a01b03163b151590565b90565b606083156102a0578251610299576001600160a01b0385163b6102995760405162461bcd60e51b815260206004820152601d60248201527f416464726573733a2063616c6c20746f206e6f6e2d636f6e74726163740000006044820152606401610148565b50816102aa565b6102aa83836102b2565b949350505050565b8151156102c25781518083602001fd5b8060405162461bcd60e51b81526004016101489190610408565b634e487b7160e01b600052604160045260246000fd5b60005b8381101561030d5781810151838201526020016102f5565b838111156100645750506000910152565b6000806040838503121561033157600080fd5b82516001600160a01b038116811461034857600080fd5b60208401519092506001600160401b038082111561036557600080fd5b818501915085601f83011261037957600080fd5b81518181111561038b5761038b6102dc565b604051601f8201601f19908116603f011681019083821181831017156103b3576103b36102dc565b816040528281528860208487010111156103cc57600080fd5b6103dd8360208301602088016102f2565b80955050505050509250929050565b600082516103fe8184602087016102f2565b9190910192915050565b60208152600082518060208401526104278160408501602087016102f2565b601f01601f19169190910160400192915050565b61034a8061044a6000396000f3fe60806040523661001357610011610017565b005b6100115b610027610022610074565b6100b9565b565b606061004e83836040518060600160405280602781526020016102ee602791396100dd565b9392505050565b73ffffffffffffffffffffffffffffffffffffffff163b151590565b90565b60006100b47f360894a13ba1a3210667c828492db98dca3e2076cc3735a920a3ca505d382bbc5473ffffffffffffffffffffffffffffffffffffffff1690565b905090565b3660008037600080366000845af43d6000803e8080156100d8573d6000f35b3d6000fd5b60606000808573ffffffffffffffffffffffffffffffffffffffff16856040516101079190610280565b600060405180830381855af49150503d8060008114610142576040519150601f19603f3d011682016040523d82523d6000602084013e610147565b606091505b509150915061015886838387610162565b9695505050505050565b606083156101fa5782516101f35773ffffffffffffffffffffffffffffffffffffffff85163b6101f3576040517f08c379a000000000000000000000000000000000000000000000000000000000815260206004820152601d60248201527f416464726573733a2063616c6c20746f206e6f6e2d636f6e747261637400000060448201526064015b60405180910390fd5b5081610204565b610204838361020c565b949350505050565b81511561021c5781518083602001fd5b806040517f08c379a00000000000000000000000000000000000000000000000000000000081526004016101ea919061029c565b60005b8381101561026b578181015183820152602001610253565b8381111561027a576000848401525b50505050565b60008251610292818460208701610250565b9190910192915050565b60208152600082518060208401526102bb816040850160208701610250565b601f017fffffffffffffffffffffffffffffffffffffffffffffffffffffffffffffffe016919091016040019291505056fe416464726573733a206c6f772d6c6576656c2064656c65676174652063616c6c206661696c6564a264697066735822122048b4772a345164af1273505ce1226eb0faeacddb6d9cb8aee934363126dcc9de64736f6c634300080c0033416464726573733a206c6f772d6c6576656c2064656c65676174652063616c6c206661696c6564a2646970667358221220e6f2e1b0215414f9e2d802430999aabd48f08bd315d81dea112ee16acdcca77164736f6c634300080c003360a0604052306080526000805462ff00001916905534801561002057600080fd5b5060805161547061005860003960008181611542015281816115f201528181611a3d01528181611aed0152611c3601526154706000f3fe6080604052600436106101dc5760003560e01c80635e5d432011610102578063b0d691fe11610095578063cc793fa611610064578063cc793fa614610596578063d06403d6146105b6578063dc7c9848146105d6578063e374e90f146105f657600080fd5b8063b0d691fe14610516578063c0c53b8b14610541578063c399ec8814610561578063c7d763081461057657600080fd5b80638da5cb5b116100d15780638da5cb5b1461049457806399d3fef3146104c15780639cfdf5b6146104e1578063a55e593d146104f657600080fd5b80635e5d4320146103f35780636517579c1461041357806375b238fc146104405780637b8ea0281461047457600080fd5b80633659cfe61161017a5780634f1ef286116101495780634f1ef2861461037e57806352d1902d1461039157806355cd05cc146103a65780635cbf1e6e146103c657600080fd5b80633659cfe6146102d25780633a6e5a0a146102f25780633cb66ec4146103125780634192d2511461035e57600080fd5b80631b71bb6e116101b65780631b71bb6e1461025d57806320d2a20f1461027d5780632ed6fb5d1461029d578063357f7bb0146102bd57600080fd5b8063033183e9146101e85780630825d1fc1461020a57806315577ae21461023d57600080fd5b366101e357005b600080fd5b3480156101f457600080fd5b50610208610203366004614348565b610636565b005b34801561021657600080fd5b5061022a6102253660046143a4565b610ad5565b6040519081526020015b60405180910390f35b34801561024957600080fd5b5061020861025836600461440b565b610f89565b34801561026957600080fd5b50610208610278366004614459565b611101565b61029061028b3660046144b8565b61121d565b604051610234919061457e565b3480156102a957600080fd5b506102086102b8366004614591565b611273565b3480156102c957600080fd5b5061022a600481565b3480156102de57600080fd5b506102086102ed366004614459565b61152a565b3480156102fe57600080fd5b5061020861030d3660046145f1565b611730565b34801561031e57600080fd5b5060065473ffffffffffffffffffffffffffffffffffffffff165b60405173ffffffffffffffffffffffffffffffffffffffff9091168152602001610234565b34801561036a57600080fd5b5061020861037936600461468b565b61191a565b61020861038c36600461470f565b611a25565b34801561039d57600080fd5b5061022a611c1c565b3480156103b257600080fd5b506102086103c13660046144b8565b611d08565b3480156103d257600080fd5b506103e66103e13660046147f1565b611d8e565b6040516102349190614859565b3480156103ff57600080fd5b5061020861040e36600461490c565b612001565b34801561041f57600080fd5b5061043361042e36600461490c565b6120be565b6040516102349190614935565b34801561044c57600080fd5b5061022a7f61646d696e00000000000000000000000000000000000000000000000000000081565b34801561048057600080fd5b5061020861048f366004614459565b612226565b3480156104a057600080fd5b506007546103399073ffffffffffffffffffffffffffffffffffffffff1681565b3480156104cd57600080fd5b506102086104dc366004614591565b612342565b3480156104ed57600080fd5b5061022a60c881565b34801561050257600080fd5b5061020861051136600461490c565b6129c5565b34801561052257600080fd5b5060055473ffffffffffffffffffffffffffffffffffffffff16610339565b34801561054d57600080fd5b5061020861055c36600461496d565b612ae3565b34801561056d57600080fd5b5061022a612fdf565b34801561058257600080fd5b506102086105913660046149ad565b613077565b3480156105a257600080fd5b506102086105b13660046149d9565b6131aa565b3480156105c257600080fd5b506102906105d1366004614459565b6133e5565b3480156105e257600080fd5b506102086105f136600461440b565b61349e565b34801561060257600080fd5b5061062661061136600461490c565b60009081526002602052604090205460ff1690565b6040519015158152602001610234565b61063e6135fb565b836106aa576040517f08c379a000000000000000000000000000000000000000000000000000000000815260206004820152600d60248201527f726f6c6520697320656d7074790000000000000000000000000000000000000060448201526064015b60405180910390fd5b73ffffffffffffffffffffffffffffffffffffffff8316610727576040517f08c379a000000000000000000000000000000000000000000000000000000000815260206004820152601760248201527f6d6f64756c65206164647265737320697320656d70747900000000000000000060448201526064016106a1565b8061078e576040517f08c379a000000000000000000000000000000000000000000000000000000000815260206004820152600f60248201527f72756c65732061726520656d707479000000000000000000000000000000000060448201526064016106a1565b60005b61ffff8116821115610979576000838361ffff84168181106107b5576107b5614a07565b90506020028101906107c79190614a36565b351415610830576040517f08c379a000000000000000000000000000000000000000000000000000000000815260206004820152601560248201527f72756c652068617320656d70747920616374696f6e000000000000000000000060448201526064016106a1565b600083838361ffff1681811061084857610848614a07565b905060200281019061085a9190614a36565b610868906020810190614a74565b9050116108d1576040517f08c379a000000000000000000000000000000000000000000000000000000000815260206004820152601560248201527f72756c652068617320656d70747920746172676574000000000000000000000060448201526064016106a1565b6000838361ffff84168181106108e9576108e9614a07565b90506020028101906108fb9190614a36565b606001351415610967576040517f08c379a000000000000000000000000000000000000000000000000000000000815260206004820152601560248201527f72756c652068617320656d70747920657874656e74000000000000000000000060448201526064016106a1565b8061097181614b08565b915050610791565b5060008473ffffffffffffffffffffffffffffffffffffffff8516604080516020810193909352820152606001604051602081830303815290604052905060006004826040516109c99190614b2a565b908152604051908190036020019020541115610a41576040517f08c379a000000000000000000000000000000000000000000000000000000000815260206004820152601360248201527f726f6c6520616c7265616479206578697374730000000000000000000000000060448201526064016106a1565b60005b61ffff8116831115610acd57600482604051610a609190614b2a565b908152602001604051809103902084848361ffff16818110610a8457610a84614a07565b9050602002810190610a969190614a36565b815460018101835560009283526020909220909160040201610ab88282614c37565b50508080610ac590614b08565b915050610a44565b505050505050565b6000610adf6136c6565b6006546040517fa8a2de9300000000000000000000000000000000000000000000000000000000815260009173ffffffffffffffffffffffffffffffffffffffff169063a8a2de9390610b3a90899089908990600401614f3b565b602060405180830381865afa158015610b57573d6000803e3d6000fd5b505050506040513d601f19601f82011682018060405250810190610b7b9190614f7a565b9050610b8681613747565b6000818152600360209081526040808320815160608101909252805482526001810154919290919083019060ff168015610bc257610bc2614816565b8015610bd057610bd0614816565b8152602001600282018054610be490614b3c565b80601f0160208091040260200160405190810160405280929190818152602001828054610c1090614b3c565b8015610c5d5780601f10610c3257610100808354040283529160200191610c5d565b820191906000526020600020905b815481529060010190602001808311610c4057829003601f168201915b505050919092525050600654602083015160408085015190517fd7acc99a00000000000000000000000000000000000000000000000000000000815294955073ffffffffffffffffffffffffffffffffffffffff9092169363d7acc99a9350610ccf92908c908c908c90600401614f93565b602060405180830381865afa158015610cec573d6000803e3d6000fd5b505050506040513d601f19601f82011682018060405250810190610d109190614f7a565b9250610d1f6040880188614a74565b15159050610d3057610d30876137cc565b600081600001516040518060400160405280600181526020017f2a00000000000000000000000000000000000000000000000000000000000000815250604051602001610d7e929190614ff4565b60405160208183030381529060405290507f61646d696e000000000000000000000000000000000000000000000000000000826000015114158015610de357506000600482604051610dd09190614b2a565b9081526040519081900360200190205411155b15610f7557600080610e00610dfb60608c018c614a74565b61388a565b86519294509250600091905073ffffffffffffffffffffffffffffffffffffffff841660408051602081019390935282015260600160405160208183030381529060405290506000600482604051610e589190614b2a565b9081526040519081900360200190205411610ecf576040517f08c379a000000000000000000000000000000000000000000000000000000000815260206004820152601660248201527f75736572206973206e6f7420617574686f72697a65640000000000000000000060448201526064016106a1565b8273ffffffffffffffffffffffffffffffffffffffff166352bd4f4183600484604051610efc9190614b2a565b9081526040519081900360200181207fffffffff0000000000000000000000000000000000000000000000000000000060e085901b168252610f41929160040161500d565b60006040518083038186803b158015610f5957600080fd5b505afa158015610f6d573d6000803e3d6000fd5b505050505050505b610f7e856138fc565b505050949350505050565b610f916135fb565b81610ff8576040517f08c379a000000000000000000000000000000000000000000000000000000000815260206004820152600e60248201527f696e76616c69642075736572496400000000000000000000000000000000000060448201526064016106a1565b61100182613747565b8035611069576040517f08c379a000000000000000000000000000000000000000000000000000000000815260206004820152601360248201527f757365722068617320656d70747920726f6c650000000000000000000000000060448201526064016106a1565b60006110786040830183614a74565b9050116110e1576040517f08c379a000000000000000000000000000000000000000000000000000000000815260206004820152601c60248201527f757365722068617320656d7074792061757468206d657461646174610000000060448201526064016106a1565b600082815260036020526040902081906110fb828261515b565b50505050565b6111096135fb565b73ffffffffffffffffffffffffffffffffffffffff81166111ac576040517f08c379a000000000000000000000000000000000000000000000000000000000815260206004820152603260248201527f66756e2077616c6c65743a206e657720656e74727920706f696e74206164647260448201527f6573732063616e6e6f74206265207a65726f000000000000000000000000000060648201526084016106a1565b600580547fffffffffffffffffffffffff00000000000000000000000000000000000000001673ffffffffffffffffffffffffffffffffffffffff831690811790915560405181907f450909c1478d09248269d4ad4fa8cba61ca3f50faed58c7aedefa51c7f62b83a90600090a350565b6060611227613967565b611268858585858080601f016020809104026020016040519081016040528093929190818152602001838380828437600092019190915250613a1092505050565b90505b949350505050565b61127b6135fb565b826112e2576040517f08c379a000000000000000000000000000000000000000000000000000000000815260206004820152600d60248201527f726f6c6520697320656d7074790000000000000000000000000000000000000060448201526064016106a1565b73ffffffffffffffffffffffffffffffffffffffff821661135f576040517f08c379a000000000000000000000000000000000000000000000000000000000815260206004820152601760248201527f6d6f64756c65206164647265737320697320656d70747900000000000000000060448201526064016106a1565b80356113c7576040517f08c379a000000000000000000000000000000000000000000000000000000000815260206004820152601560248201527f72756c652068617320656d70747920616374696f6e000000000000000000000060448201526064016106a1565b60006113d66020830183614a74565b90501161143f576040517f08c379a000000000000000000000000000000000000000000000000000000000815260206004820152601560248201527f72756c652068617320656d70747920746172676574000000000000000000000060448201526064016106a1565b60608101356114aa576040517f08c379a000000000000000000000000000000000000000000000000000000000815260206004820152601560248201527f72756c652068617320656d70747920657874656e74000000000000000000000060448201526064016106a1565b604080516020810185905273ffffffffffffffffffffffffffffffffffffffff84168183015281518082038301815260609091019091526114ea81613af2565b6004816040516114fa9190614b2a565b9081526040516020918190038201902080546001810182556000918252919020839160040201610acd8282614c37565b3073ffffffffffffffffffffffffffffffffffffffff7f00000000000000000000000000000000000000000000000000000000000000001614156115f0576040517f08c379a000000000000000000000000000000000000000000000000000000000815260206004820152602c60248201527f46756e6374696f6e206d7573742062652063616c6c6564207468726f7567682060448201527f64656c656761746563616c6c000000000000000000000000000000000000000060648201526084016106a1565b7f000000000000000000000000000000000000000000000000000000000000000073ffffffffffffffffffffffffffffffffffffffff166116657f360894a13ba1a3210667c828492db98dca3e2076cc3735a920a3ca505d382bbc5473ffffffffffffffffffffffffffffffffffffffff1690565b73ffffffffffffffffffffffffffffffffffffffff1614611708576040517f08c379a000000000000000000000000000000000000000000000000000000000815260206004820152602c60248201527f46756e6374696f6e206d7573742062652063616c6c6564207468726f7567682060448201527f6163746976652070726f7879000000000000000000000000000000000000000060648201526084016106a1565b61171181613b7b565b6040805160008082526020820190925261172d91839190613b83565b50565b6117386135fb565b848314801561174657508281145b6117ac576040517f08c379a000000000000000000000000000000000000000000000000000000000815260206004820152601760248201527f6461746120697320646966666572656e742073697a657300000000000000000060448201526064016106a1565b60005b85811015611911576117e38383838181106117cc576117cc614a07565b90506020028101906117de9190614a74565b613d82565b1561190957600061188b8888848181106117ff576117ff614a07565b90506020020160208101906118149190614459565b87878581811061182657611826614a07565b9050602002013586868681811061183f5761183f614a07565b90506020028101906118519190614a74565b8080601f016020809104026020016040519081016040528093929190818152602001838380828437600092019190915250613a1092505050565b905080600160008a8a868181106118a4576118a4614a07565b90506020020160208101906118b99190614459565b73ffffffffffffffffffffffffffffffffffffffff1673ffffffffffffffffffffffffffffffffffffffff168152602001908152602001600020908051906020019061190692919061417c565b50505b6001016117af565b50505050505050565b60005462010000900460ff16156119b3576040517f08c379a000000000000000000000000000000000000000000000000000000000815260206004820152602260248201527f436f6e74726163742068617320616c7265616479206265656e206465706c6f7960448201527f656400000000000000000000000000000000000000000000000000000000000060648201526084016106a1565b6119f38383838080601f01602080910402602001604051908101604052809392919081815260200183838082843760009201829052509250613de8915050565b5050600080547fffffffffffffffffffffffffffffffffffffffffffffffffffffffffff00ffff166201000017905550565b3073ffffffffffffffffffffffffffffffffffffffff7f0000000000000000000000000000000000000000000000000000000000000000161415611aeb576040517f08c379a000000000000000000000000000000000000000000000000000000000815260206004820152602c60248201527f46756e6374696f6e206d7573742062652063616c6c6564207468726f7567682060448201527f64656c656761746563616c6c000000000000000000000000000000000000000060648201526084016106a1565b7f000000000000000000000000000000000000000000000000000000000000000073ffffffffffffffffffffffffffffffffffffffff16611b607f360894a13ba1a3210667c828492db98dca3e2076cc3735a920a3ca505d382bbc5473ffffffffffffffffffffffffffffffffffffffff1690565b73ffffffffffffffffffffffffffffffffffffffff1614611c03576040517f08c379a000000000000000000000000000000000000000000000000000000000815260206004820152602c60248201527f46756e6374696f6e206d7573742062652063616c6c6564207468726f7567682060448201527f6163746976652070726f7879000000000000000000000000000000000000000060648201526084016106a1565b611c0c82613b7b565b611c1882826001613b83565b5050565b60003073ffffffffffffffffffffffffffffffffffffffff7f00000000000000000000000000000000000000000000000000000000000000001614611ce3576040517f08c379a000000000000000000000000000000000000000000000000000000000815260206004820152603860248201527f555550535570677261646561626c653a206d757374206e6f742062652063616c60448201527f6c6564207468726f7567682064656c656761746563616c6c000000000000000060648201526084016106a1565b507f360894a13ba1a3210667c828492db98dca3e2076cc3735a920a3ca505d382bbc90565b611d106135fb565b6000611d53858585858080601f016020809104026020016040519081016040528093929190818152602001838380828437600092019190915250613a1092505050565b73ffffffffffffffffffffffffffffffffffffffff861660009081526001602090815260409091208251929350610acd92909184019061417c565b606082611df7576040517f08c379a000000000000000000000000000000000000000000000000000000000815260206004820152600d60248201527f726f6c6520697320656d7074790000000000000000000000000000000000000060448201526064016106a1565b73ffffffffffffffffffffffffffffffffffffffff8216611e74576040517f08c379a000000000000000000000000000000000000000000000000000000000815260206004820152601760248201527f6d6f64756c65206164647265737320697320656d70747900000000000000000060448201526064016106a1565b604080516020810185905273ffffffffffffffffffffffffffffffffffffffff84168183015281518082038301815260609091019182905290600490611ebb908390614b2a565b9081526020016040518091039020805480602002602001604051908101604052809291908181526020016000905b82821015611ff4578382906000526020600020906004020160405180608001604052908160008201548152602001600182018054611f2690614b3c565b80601f0160208091040260200160405190810160405280929190818152602001828054611f5290614b3c565b8015611f9f5780601f10611f7457610100808354040283529160200191611f9f565b820191906000526020600020905b815481529060010190602001808311611f8257829003601f168201915b5050509183525050600282015460209091019060ff166006811115611fc657611fc6614816565b6006811115611fd757611fd7614816565b815260200160038201548152505081526020019060010190611ee9565b5050505091505092915050565b6120096135fb565b80612070576040517f08c379a000000000000000000000000000000000000000000000000000000000815260206004820152600e60248201527f696e76616c69642075736572496400000000000000000000000000000000000060448201526064016106a1565b60008181526003602052604081208181556001810180547fffffffffffffffffffffffffffffffffffffffffffffffffffffffffffffff00169055906120b96002830182614200565b505050565b6040805160608082018352600080835260208301529181019190915281612141576040517f08c379a000000000000000000000000000000000000000000000000000000000815260206004820152600e60248201527f696e76616c69642075736572496400000000000000000000000000000000000060448201526064016106a1565b600082815260036020908152604091829020825160608101909352805483526001810154909183019060ff16801561217b5761217b614816565b801561218957612189614816565b815260200160028201805461219d90614b3c565b80601f01602080910402602001604051908101604052809291908181526020018280546121c990614b3c565b80156122165780601f106121eb57610100808354040283529160200191612216565b820191906000526020600020905b8154815290600101906020018083116121f957829003601f168201915b5050505050815250509050919050565b61222e6135fb565b73ffffffffffffffffffffffffffffffffffffffff81166122d1576040517f08c379a000000000000000000000000000000000000000000000000000000000815260206004820152603260248201527f66756e2077616c6c65743a206e657720656e74727920706f696e74206164647260448201527f6573732063616e6e6f74206265207a65726f000000000000000000000000000060648201526084016106a1565b600680547fffffffffffffffffffffffff00000000000000000000000000000000000000001673ffffffffffffffffffffffffffffffffffffffff831690811790915560405181907f34a5e38fc8fe74f12b269fe92e724092f7f531dc4985c88fb113460cfcb5f67d90600090a350565b61234a6135fb565b826123b1576040517f08c379a000000000000000000000000000000000000000000000000000000000815260206004820152600d60248201527f726f6c6520697320656d7074790000000000000000000000000000000000000060448201526064016106a1565b73ffffffffffffffffffffffffffffffffffffffff821661242e576040517f08c379a000000000000000000000000000000000000000000000000000000000815260206004820152601760248201527f6d6f64756c65206164647265737320697320656d70747900000000000000000060448201526064016106a1565b8035612496576040517f08c379a000000000000000000000000000000000000000000000000000000000815260206004820152601560248201527f72756c652068617320656d70747920616374696f6e000000000000000000000060448201526064016106a1565b60006124a56020830183614a74565b90501161250e576040517f08c379a000000000000000000000000000000000000000000000000000000000815260206004820152601560248201527f72756c652068617320656d70747920746172676574000000000000000000000060448201526064016106a1565b6060810135612579576040517f08c379a000000000000000000000000000000000000000000000000000000000815260206004820152601560248201527f72756c652068617320656d70747920657874656e74000000000000000000000060448201526064016106a1565b604080516020810185905273ffffffffffffffffffffffffffffffffffffffff84168183015281518082038301815260609091019091526125b981613af2565b60006004826040516125cb9190614b2a565b9081526020016040518091039020805480602002602001604051908101604052809291908181526020016000905b8282101561270457838290600052602060002090600402016040518060800160405290816000820154815260200160018201805461263690614b3c565b80601f016020809104026020016040519081016040528092919081815260200182805461266290614b3c565b80156126af5780601f10612684576101008083540402835291602001916126af565b820191906000526020600020905b81548152906001019060200180831161269257829003601f168201915b5050509183525050600282015460209091019060ff1660068111156126d6576126d6614816565b60068111156126e7576126e7614816565b8152602001600382015481525050815260200190600101906125f9565b505050509050600083806020019061271c9190614a74565b61272c60608701604088016152cb565b866060013560405160200161274494939291906152ff565b60405160208183030381529060405280519060200120905060005b60048460405161276f9190614b2a565b9081526040519081900360200190205461ffff82161015611911576000838261ffff16815181106127a2576127a2614a07565b602002602001015160200151848361ffff16815181106127c4576127c4614a07565b602002602001015160400151858461ffff16815181106127e6576127e6614a07565b6020026020010151606001516040516020016128049392919061532a565b604051602081830303815290604052805190602001209050808314156129b2578360018551612833919061535b565b8151811061284357612843614a07565b602002602001015160048660405161285b9190614b2a565b90815260200160405180910390208361ffff168154811061287e5761287e614a07565b90600052602060002090600402016000820151816000015560208201518160010190805190602001906128b292919061417c565b5060408201516002820180547fffffffffffffffffffffffffffffffffffffffffffffffffffffffffffffff001660018360068111156128f4576128f4614816565b0217905550606082015181600301559050506004856040516129169190614b2a565b908152602001604051809103902080548061293357612933615372565b60008281526020812060047fffffffffffffffffffffffffffffffffffffffffffffffffffffffffffffffff90930192830201818155906129776001830182614200565b506002810180547fffffffffffffffffffffffffffffffffffffffffffffffffffffffffffffff001690556000600390910155905550611911565b50806129bd81614b08565b91505061275f565b6129cd613e0d565b80471015612a5d576040517f08c379a000000000000000000000000000000000000000000000000000000000815260206004820152602a60248201527f66756e2077616c6c65743a206e6f7420656e6f75676820657468657220696e2060448201527f7468652077616c6c65740000000000000000000000000000000000000000000060648201526084016106a1565b6005546040517fb760faf900000000000000000000000000000000000000000000000000000000815230600482015273ffffffffffffffffffffffffffffffffffffffff9091169063b760faf990602401600060405180830381600087803b158015612ac857600080fd5b505af1158015612adc573d6000803e3d6000fd5b5050505050565b600054610100900460ff1615808015612b035750600054600160ff909116105b80612b1d5750303b158015612b1d575060005460ff166001145b612ba9576040517f08c379a000000000000000000000000000000000000000000000000000000000815260206004820152602e60248201527f496e697469616c697a61626c653a20636f6e747261637420697320616c72656160448201527f647920696e697469616c697a656400000000000000000000000000000000000060648201526084016106a1565b600080547fffffffffffffffffffffffffffffffffffffffffffffffffffffffffffffff001660011790558015612c0757600080547fffffffffffffffffffffffffffffffffffffffffffffffffffffffffffff00ff166101001790555b73ffffffffffffffffffffffffffffffffffffffff8416612c84576040517f08c379a000000000000000000000000000000000000000000000000000000000815260206004820152601260248201527f496e76616c696420456e747279706f696e74000000000000000000000000000060448201526064016106a1565b6005805473ffffffffffffffffffffffffffffffffffffffff8681167fffffffffffffffffffffffff00000000000000000000000000000000000000009283161790925560068054868416908316179055600780549285169290911682179055604080516060810182527f61646d696e000000000000000000000000000000000000000000000000000000815260006020808301828152845180830187905285518082038401815290860186528486015294825260039052919091208151815591516001838101805493949390917fffffffffffffffffffffffffffffffffffffffffffffffffffffffffffffff0090911690838015612d8657612d86614816565b021790555060408201518051612da691600284019160209091019061417c565b5090505060007f61646d696e0000000000000000000000000000000000000000000000000000006040518060400160405280600181526020017f2a00000000000000000000000000000000000000000000000000000000000000815250604051602001612e14929190614ff4565b6040516020818303038152906040529050600481604051612e359190614b2a565b908152602001604051809103902060405180608001604052807f2a0000000000000000000000000000000000000000000000000000000000000081526020016040518060400160405280600181526020017f2a000000000000000000000000000000000000000000000000000000000000008152508152602001600680811115612ec157612ec1614816565b81527f2a00000000000000000000000000000000000000000000000000000000000000602091820152825460018181018555600094855293829020835160049092020190815582820151805193949193612f239392850192919091019061417c565b5060408201516002820180547fffffffffffffffffffffffffffffffffffffffffffffffffffffffffffffff00166001836006811115612f6557612f65614816565b02179055506060820151816003015550505080156110fb57600080547fffffffffffffffffffffffffffffffffffffffffffffffffffffffffffff00ff169055604051600181527f7f26b83ff96e1f2b6a682f133852f6798a09c465da95921460cefb38474024989060200160405180910390a150505050565b6005546040517f70a0823100000000000000000000000000000000000000000000000000000000815230600482015260009173ffffffffffffffffffffffffffffffffffffffff16906370a0823190602401602060405180830381865afa15801561304e573d6000803e3d6000fd5b505050506040513d601f19601f820116820180604052508101906130729190614f7a565b905090565b61307f613e0d565b73ffffffffffffffffffffffffffffffffffffffff8216613122576040517f08c379a000000000000000000000000000000000000000000000000000000000815260206004820152602b60248201527f66756e2077616c6c65743a20776974686472617720616464726573732063616e60448201527f6e6f74206265207a65726f00000000000000000000000000000000000000000060648201526084016106a1565b6005546040517f205c287800000000000000000000000000000000000000000000000000000000815273ffffffffffffffffffffffffffffffffffffffff8481166004830152602482018490529091169063205c287890604401600060405180830381600087803b15801561319657600080fd5b505af1158015610acd573d6000803e3d6000fd5b6131b26135fb565b73ffffffffffffffffffffffffffffffffffffffff8116613255576040517f08c379a000000000000000000000000000000000000000000000000000000000815260206004820152602d60248201527f66756e2077616c6c65743a206e6577206d6f64756c652061646472657373206360448201527f616e6e6f74206265207a65726f0000000000000000000000000000000000000060648201526084016106a1565b8173ffffffffffffffffffffffffffffffffffffffff168173ffffffffffffffffffffffffffffffffffffffff161415613311576040517f08c379a000000000000000000000000000000000000000000000000000000000815260206004820152603e60248201527f66756e2077616c6c65743a206e6577206d6f64756c652061646472657373206360448201527f616e6e6f7420626520657175616c20746f2070726576696f7573206f6e65000060648201526084016106a1565b73ffffffffffffffffffffffffffffffffffffffff80831660009081526001602052604080822092841682529020815490919061334d90614b3c565b61335892919061423a565b5073ffffffffffffffffffffffffffffffffffffffff8216600090815260016020526040812061338791614200565b8073ffffffffffffffffffffffffffffffffffffffff168273ffffffffffffffffffffffffffffffffffffffff167fdcbf4cc8a7afc3fe6e403a57745b98188844fdfee49c8752ae30fc46b3a39ebb60405160405180910390a35050565b73ffffffffffffffffffffffffffffffffffffffff8116600090815260016020526040902080546060919061341990614b3c565b80601f016020809104026020016040519081016040528092919081815260200182805461344590614b3c565b80156134925780601f1061346757610100808354040283529160200191613492565b820191906000526020600020905b81548152906001019060200180831161347557829003601f168201915b50505050509050919050565b6134a66135fb565b8161350d576040517f08c379a000000000000000000000000000000000000000000000000000000000815260206004820152600e60248201527f696e76616c69642075736572496400000000000000000000000000000000000060448201526064016106a1565b6000828152600360205260408120600201805461352990614b3c565b90501115613593576040517f08c379a000000000000000000000000000000000000000000000000000000000815260206004820152601360248201527f7573657220616c7265616479206578697374730000000000000000000000000060448201526064016106a1565b8035611069576040517f08c379a000000000000000000000000000000000000000000000000000000000815260206004820152601460248201527f757365722068617320656d70747920726f6c657300000000000000000000000060448201526064016106a1565b60055473ffffffffffffffffffffffffffffffffffffffff16331480613638575060075473ffffffffffffffffffffffffffffffffffffffff1633145b6136c4576040517f08c379a000000000000000000000000000000000000000000000000000000000815260206004820152602860248201527f66756e2077616c6c65743a206e6f742066726f6d20456e747279506f696e742060448201527f6f72206f776e657200000000000000000000000000000000000000000000000060648201526084016106a1565b565b60055473ffffffffffffffffffffffffffffffffffffffff1633146136c4576040517f08c379a000000000000000000000000000000000000000000000000000000000815260206004820152601f60248201527f66756e2077616c6c65743a206e6f742066726f6d20456e747279506f696e740060448201526064016106a1565b6000818152600360205260408120600201805461376390614b3c565b90501161172d576040517f08c379a000000000000000000000000000000000000000000000000000000000815260206004820152601f60248201527f66756e2077616c6c65743a207573657220646f6573206e6f742065786973740060448201526064016106a1565b60208082013560009081526002909152604090205460ff161561384b576040517f08c379a000000000000000000000000000000000000000000000000000000000815260206004820152601960248201527f66756e2077616c6c65743a20696e76616c6964206e6f6e63650000000000000060448201526064016106a1565b602090810135600090815260029091526040902080547fffffffffffffffffffffffffffffffffffffffffffffffffffffffffffffff00166001179055565b600080606061389c84600481886153a1565b8101906138a991906149ad565b90935091506138bb8460c881886153a1565b8080601f0160208091040260200160405190810160405280939291908181526020018383808284376000920191909152509598949750919550929350505050565b801561172d5760405160009033907fffffffffffffffffffffffffffffffffffffffffffffffffffffffffffffffff90849084818181858888f193505050503d8060008114612adc576040519150601f19603f3d011682016040523d82523d6000602084013e612adc565b336000908152600160205260408120805461398190614b3c565b9050116136c4576040517f08c379a000000000000000000000000000000000000000000000000000000000815260206004820152602360248201527f66756e2077616c6c65743a206e6f742066726f6d2061206b6e6f776e204d6f6460448201527f756c65000000000000000000000000000000000000000000000000000000000060648201526084016106a1565b60606000808573ffffffffffffffffffffffffffffffffffffffff168585604051613a3b9190614b2a565b60006040518083038185875af1925050503d8060008114613a78576040519150601f19603f3d011682016040523d82523d6000602084013e613a7d565b606091505b509150915081613ae9576040517f08c379a000000000000000000000000000000000000000000000000000000000815260206004820181905260248201527f66756e2077616c6c65743a2065787465726e616c2063616c6c206661696c656460448201526064016106a1565b95945050505050565b6000600482604051613b049190614b2a565b908152604051908190036020019020541161172d576040517f08c379a000000000000000000000000000000000000000000000000000000000815260206004820152601f60248201527f66756e2077616c6c65743a20726f6c6520646f6573206e6f742065786973740060448201526064016106a1565b61172d6135fb565b7f4910fdfa16fed3260ed0e7147f7cc6da11a60208b5b9406d12a635614ffd91435460ff1615613bb6576120b983613e98565b8273ffffffffffffffffffffffffffffffffffffffff166352d1902d6040518163ffffffff1660e01b8152600401602060405180830381865afa925050508015613c3b575060408051601f3d9081017fffffffffffffffffffffffffffffffffffffffffffffffffffffffffffffffe0168201909252613c3891810190614f7a565b60015b613cc7576040517f08c379a000000000000000000000000000000000000000000000000000000000815260206004820152602e60248201527f45524331393637557067726164653a206e657720696d706c656d656e7461746960448201527f6f6e206973206e6f74205555505300000000000000000000000000000000000060648201526084016106a1565b7f360894a13ba1a3210667c828492db98dca3e2076cc3735a920a3ca505d382bbc8114613d76576040517f08c379a000000000000000000000000000000000000000000000000000000000815260206004820152602960248201527f45524331393637557067726164653a20756e737570706f727465642070726f7860448201527f6961626c6555554944000000000000000000000000000000000000000000000060648201526084016106a1565b506120b9838383613de8565b600080613d9260048285876153a1565b613d9b916153cb565b7fffffffff00000000000000000000000000000000000000000000000000000000167f4ddf47d4000000000000000000000000000000000000000000000000000000001491505092915050565b613df183613fa2565b600082511180613dfe5750805b156120b9576110fb8383613fef565b60075473ffffffffffffffffffffffffffffffffffffffff16331480613e3257503330145b6136c4576040517f08c379a000000000000000000000000000000000000000000000000000000000815260206004820152601a60248201527f66756e2077616c6c65743a206e6f742066726f6d204f776e657200000000000060448201526064016106a1565b73ffffffffffffffffffffffffffffffffffffffff81163b613f3c576040517f08c379a000000000000000000000000000000000000000000000000000000000815260206004820152602d60248201527f455243313936373a206e657720696d706c656d656e746174696f6e206973206e60448201527f6f74206120636f6e74726163740000000000000000000000000000000000000060648201526084016106a1565b7f360894a13ba1a3210667c828492db98dca3e2076cc3735a920a3ca505d382bbc80547fffffffffffffffffffffffff00000000000000000000000000000000000000001673ffffffffffffffffffffffffffffffffffffffff92909216919091179055565b613fab81613e98565b60405173ffffffffffffffffffffffffffffffffffffffff8216907fbc7cd75a20ee27fd9adebab32041f755214dbc6bffa90cc0225b39da2e5c2d3b90600090a250565b606061401483836040518060600160405280602781526020016154146027913961401b565b9392505050565b60606000808573ffffffffffffffffffffffffffffffffffffffff16856040516140459190614b2a565b600060405180830381855af49150503d8060008114614080576040519150601f19603f3d011682016040523d82523d6000602084013e614085565b606091505b5091509150614096868383876140a0565b9695505050505050565b6060831561413357825161412c5773ffffffffffffffffffffffffffffffffffffffff85163b61412c576040517f08c379a000000000000000000000000000000000000000000000000000000000815260206004820152601d60248201527f416464726573733a2063616c6c20746f206e6f6e2d636f6e747261637400000060448201526064016106a1565b508161126b565b61126b83838151156141485781518083602001fd5b806040517f08c379a00000000000000000000000000000000000000000000000000000000081526004016106a1919061457e565b82805461418890614b3c565b90600052602060002090601f0160209004810192826141aa57600085556141f0565b82601f106141c357805160ff19168380011785556141f0565b828001600101855582156141f0579182015b828111156141f05782518255916020019190600101906141d5565b506141fc9291506142b5565b5090565b50805461420c90614b3c565b6000825580601f1061421c575050565b601f01602090049060005260206000209081019061172d91906142b5565b82805461424690614b3c565b90600052602060002090601f01602090048101928261426857600085556141f0565b82601f1061427957805485556141f0565b828001600101855582156141f057600052602060002091601f016020900482015b828111156141f057825482559160010191906001019061429a565b5b808211156141fc57600081556001016142b6565b73ffffffffffffffffffffffffffffffffffffffff8116811461172d57600080fd5b80356142f7816142ca565b919050565b60008083601f84011261430e57600080fd5b50813567ffffffffffffffff81111561432657600080fd5b6020830191508360208260051b850101111561434157600080fd5b9250929050565b6000806000806060858703121561435e57600080fd5b843593506020850135614370816142ca565b9250604085013567ffffffffffffffff81111561438c57600080fd5b614398878288016142fc565b95989497509550505050565b600080600080608085870312156143ba57600080fd5b843567ffffffffffffffff8111156143d157600080fd5b850161016081880312156143e457600080fd5b93506020850135925060408501356143fb816142ca565b9396929550929360600135925050565b6000806040838503121561441e57600080fd5b82359150602083013567ffffffffffffffff81111561443c57600080fd5b83016060818603121561444e57600080fd5b809150509250929050565b60006020828403121561446b57600080fd5b8135614014816142ca565b60008083601f84011261448857600080fd5b50813567ffffffffffffffff8111156144a057600080fd5b60208301915083602082850101111561434157600080fd5b600080600080606085870312156144ce57600080fd5b84356144d9816142ca565b935060208501359250604085013567ffffffffffffffff8111156144fc57600080fd5b61439887828801614476565b60005b8381101561452357818101518382015260200161450b565b838111156110fb5750506000910152565b6000815180845261454c816020860160208601614508565b601f017fffffffffffffffffffffffffffffffffffffffffffffffffffffffffffffffe0169290920160200192915050565b6020815260006140146020830184614534565b6000806000606084860312156145a657600080fd5b8335925060208401356145b8816142ca565b9150604084013567ffffffffffffffff8111156145d457600080fd5b8401608081870312156145e657600080fd5b809150509250925092565b6000806000806000806060878903121561460a57600080fd5b863567ffffffffffffffff8082111561462257600080fd5b61462e8a838b016142fc565b9098509650602089013591508082111561464757600080fd5b6146538a838b016142fc565b9096509450604089013591508082111561466c57600080fd5b5061467989828a016142fc565b979a9699509497509295939492505050565b6000806000604084860312156146a057600080fd5b83356146ab816142ca565b9250602084013567ffffffffffffffff8111156146c757600080fd5b6146d386828701614476565b9497909650939450505050565b7f4e487b7100000000000000000000000000000000000000000000000000000000600052604160045260246000fd5b6000806040838503121561472257600080fd5b823561472d816142ca565b9150602083013567ffffffffffffffff8082111561474a57600080fd5b818501915085601f83011261475e57600080fd5b813581811115614770576147706146e0565b604051601f82017fffffffffffffffffffffffffffffffffffffffffffffffffffffffffffffffe0908116603f011681019083821181831017156147b6576147b66146e0565b816040528281528860208487010111156147cf57600080fd5b8260208601602083013760006020848301015280955050505050509250929050565b6000806040838503121561480457600080fd5b82359150602083013561444e816142ca565b7f4e487b7100000000000000000000000000000000000000000000000000000000600052602160045260246000fd5b6007811061485557614855614816565b9052565b60006020808301818452808551808352604092508286019150828160051b87010184880160005b838110156148fe577fffffffffffffffffffffffffffffffffffffffffffffffffffffffffffffffc0898403018552815160808151855288820151818a8701526148cc82870182614534565b915050878201516148df89870182614845565b5060609182015194909101939093529386019390860190600101614880565b509098975050505050505050565b60006020828403121561491e57600080fd5b5035919050565b6001811061485557614855614816565b6020815281516020820152600060208301516149546040840182614925565b50604083015160608084015261126b6080840182614534565b60008060006060848603121561498257600080fd5b833561498d816142ca565b9250602084013561499d816142ca565b915060408401356145e6816142ca565b600080604083850312156149c057600080fd5b82356149cb816142ca565b946020939093013593505050565b600080604083850312156149ec57600080fd5b82356149f7816142ca565b9150602083013561444e816142ca565b7f4e487b7100000000000000000000000000000000000000000000000000000000600052603260045260246000fd5b600082357fffffffffffffffffffffffffffffffffffffffffffffffffffffffffffffff81833603018112614a6a57600080fd5b9190910192915050565b60008083357fffffffffffffffffffffffffffffffffffffffffffffffffffffffffffffffe1843603018112614aa957600080fd5b83018035915067ffffffffffffffff821115614ac457600080fd5b60200191503681900382131561434157600080fd5b7f4e487b7100000000000000000000000000000000000000000000000000000000600052601160045260246000fd5b600061ffff80831681811415614b2057614b20614ad9565b6001019392505050565b60008251614a6a818460208701614508565b600181811c90821680614b5057607f821691505b60208210811415614b8a577f4e487b7100000000000000000000000000000000000000000000000000000000600052602260045260246000fd5b50919050565b601f8211156120b957600081815260208120601f850160051c81016020861015614bb75750805b601f850160051c820191505b81811015610acd57828155600101614bc3565b6007811061172d57600080fd5b60008135614bf081614bd6565b92915050565b60078210614c0657614c06614816565b7fffffffffffffffffffffffffffffffffffffffffffffffffffffffffffffff0081541660ff831681178255505050565b8135815560018082016020614c4e81860186614a74565b67ffffffffffffffff811115614c6657614c666146e0565b614c7a81614c748654614b3c565b86614b90565b6000601f821160018114614ccc5760008315614c965750838201355b7fffffffffffffffffffffffffffffffffffffffffffffffffffffffffffffffff600385901b1c1916600184901b178655614d5d565b6000868152602090207fffffffffffffffffffffffffffffffffffffffffffffffffffffffffffffffe0841690835b82811015614d185786850135825593870193908901908701614cfb565b5084821015614d53577fffffffffffffffffffffffffffffffffffffffffffffffffffffffffffffffff60f88660031b161c19848701351681555b50508683881b0186555b50505050505050614d7c614d7360408401614be3565b60028301614bf6565b606082013560038201555050565b60008083357fffffffffffffffffffffffffffffffffffffffffffffffffffffffffffffffe1843603018112614dbf57600080fd5b830160208101925035905067ffffffffffffffff811115614ddf57600080fd5b80360383131561434157600080fd5b8183528181602085013750600060208284010152600060207fffffffffffffffffffffffffffffffffffffffffffffffffffffffffffffffe0601f840116840101905092915050565b6000610160614e6384614e49856142ec565b73ffffffffffffffffffffffffffffffffffffffff169052565b60208301356020850152614e7a6040840184614d8a565b826040870152614e8d8387018284614dee565b92505050614e9e6060840184614d8a565b8583036060870152614eb1838284614dee565b925050506080830135608085015260a083013560a085015260c083013560c085015260e083013560e0850152610100808401358186015250610120614ef881850185614d8a565b86840383880152614f0a848284614dee565b9350505050610140614f1e81850185614d8a565b86840383880152614f30848284614dee565b979650505050505050565b606081526000614f4e6060830186614e37565b905083602083015273ffffffffffffffffffffffffffffffffffffffff83166040830152949350505050565b600060208284031215614f8c57600080fd5b5051919050565b614f9d8187614925565b60a060208201526000614fb360a0830187614534565b8281036040840152614fc58187614e37565b91505083606083015273ffffffffffffffffffffffffffffffffffffffff831660808301529695505050505050565b82815260406020820152600061126b6040830184614534565b6000604080835261502081840186614534565b6020848203818601528186548084528284019150828160051b8501016000898152848120815b8481101561514a577fffffffffffffffffffffffffffffffffffffffffffffffffffffffffffffffe08885030186526080825485526001808401828a88015285815461509181614b3c565b94890185905260a09481851680156150b057600181146150e25761510d565b7fffffffffffffffffffffffffffffffffffffffffffffffffffffffffffffff008316878c015260c08b01935061510d565b848a528d8a208a5b838110156151055781548d82018a0152908701908f016150ea565b8c0188019450505b505050600286015460ff1693506151268d890185614845565b60038601546060989098019790975250505094860194600490910190600101615046565b50919b9a5050505050505050505050565b81358155600180820160208085013583811061517657600080fd5b7fffffffffffffffffffffffffffffffffffffffffffffffffffffffffffffff0083541660ff82168117845550506002840191506151b76040860186614a74565b67ffffffffffffffff8111156151cf576151cf6146e0565b6151dd81614c748654614b3c565b6000601f82116001811461522f57600083156151f95750838201355b7fffffffffffffffffffffffffffffffffffffffffffffffffffffffffffffffff600385901b1c1916600184901b1786556152c0565b6000868152602090207fffffffffffffffffffffffffffffffffffffffffffffffffffffffffffffffe0841690835b8281101561527b578685013582559387019390890190870161525e565b50848210156152b6577fffffffffffffffffffffffffffffffffffffffffffffffffffffffffffffffff60f88660031b161c19848701351681555b50508683881b0186555b505050505050505050565b6000602082840312156152dd57600080fd5b813561401481614bd6565b600781106152f8576152f8614816565b60f81b9052565b8385823760008482016000815261531681866152e8565b600181019390935250506021019392505050565b6000845161533c818460208901614508565b820161534881866152e8565b6001810193909352505060210192915050565b60008282101561536d5761536d614ad9565b500390565b7f4e487b7100000000000000000000000000000000000000000000000000000000600052603160045260246000fd5b600080858511156153b157600080fd5b838611156153be57600080fd5b5050820193919092039150565b7fffffffff00000000000000000000000000000000000000000000000000000000813581811691600485101561540b5780818660040360031b1b83161692505b50509291505056fe416464726573733a206c6f772d6c6576656c2064656c65676174652063616c6c206661696c6564a2646970667358221220045fa388489b19e0ea472841e36eec1dc003c49682c8569b344d68e8347e2e5e64736f6c634300080c0033",
  "linkReferences": {},
  "deployedLinkReferences": {}
}