{"_format":"hh-sol-artifact-1","contractName":"FunWalletFactory","sourceName":"contracts/FunWalletFactory.sol","abi":[{"inputs":[],"stateMutability":"nonpayable","type":"constructor"},{"inputs":[{"internalType":"address","name":"entryPointAddr","type":"address"},{"internalType":"address","name":"userAuthAddr","type":"address"},{"internalType":"address","name":"owner","type":"address"},{"internalType":"uint256","name":"salt","type":"uint256"}],"name":"createAccount","outputs":[{"internalType":"contract FunWallet","name":"funWallet","type":"address"}],"stateMutability":"nonpayable","type":"function"},{"inputs":[],"name":"funWalletImp","outputs":[{"internalType":"contract FunWallet","name":"","type":"address"}],"stateMutability":"view","type":"function"},{"inputs":[{"internalType":"address","name":"entryPointAddr","type":"address"},{"internalType":"address","name":"userAuthAddr","type":"address"},{"internalType":"address","name":"owner","type":"address"},{"internalType":"uint256","name":"salt","type":"uint256"}],"name":"getAddress","outputs":[{"internalType":"address","name":"","type":"address"}],"stateMutability":"view","type":"function"}],"bytecode":"0x60a060405234801561001057600080fd5b5060405161001d9061004b565b604051809103906000f080158015610039573d6000803e3d6000fd5b506001600160a01b0316608052610058565b61511480610d8183390190565b608051610d0161008060003960008181604b01528181610126015261027c0152610d016000f3fe608060405234801561001057600080fd5b50600436106100415760003560e01c80630497dec11461004657806361b36f4b146100965780639f3ee0f9146100a9575b600080fd5b61006d7f000000000000000000000000000000000000000000000000000000000000000081565b60405173ffffffffffffffffffffffffffffffffffffffff909116815260200160405180910390f35b61006d6100a43660046103f8565b6100bc565b61006d6100b73660046103f8565b610202565b6000806100cb86868686610202565b905073ffffffffffffffffffffffffffffffffffffffff81163b80156100f3575090506101fa565b60405173ffffffffffffffffffffffffffffffffffffffff808916602483015280881660448301528616606482015284907f000000000000000000000000000000000000000000000000000000000000000090608401604080517fffffffffffffffffffffffffffffffffffffffffffffffffffffffffffffffe08184030181529181526020820180517bffffffffffffffffffffffffffffffffffffffffffffffffffffffff167fc0c53b8b00000000000000000000000000000000000000000000000000000000179052516101c9906103c2565b6101d4929190610473565b8190604051809103906000f59050801580156101f4573d6000803e3d6000fd5b50925050505b949350505050565b600061037b8260001b6040518060200161021b906103c2565b7fffffffffffffffffffffffffffffffffffffffffffffffffffffffffffffffe082820381018352601f90910116604081905273ffffffffffffffffffffffffffffffffffffffff808a1660248301528089166044830152871660648201527f000000000000000000000000000000000000000000000000000000000000000090608401604080517fffffffffffffffffffffffffffffffffffffffffffffffffffffffffffffffe0818403018152918152602080830180517bffffffffffffffffffffffffffffffffffffffffffffffffffffffff167fc0c53b8b00000000000000000000000000000000000000000000000000000000179052905161032493929101610473565b604080517fffffffffffffffffffffffffffffffffffffffffffffffffffffffffffffffe08184030181529082905261036092916020016104e1565b60405160208183030381529060405280519060200120610384565b95945050505050565b6000610391838330610398565b9392505050565b6000604051836040820152846020820152828152600b8101905060ff815360559020949350505050565b6107bb8061051183390190565b803573ffffffffffffffffffffffffffffffffffffffff811681146103f357600080fd5b919050565b6000806000806080858703121561040e57600080fd5b610417856103cf565b9350610425602086016103cf565b9250610433604086016103cf565b9396929550929360600135925050565b60005b8381101561045e578181015183820152602001610446565b8381111561046d576000848401525b50505050565b73ffffffffffffffffffffffffffffffffffffffff8316815260406020820152600082518060408401526104ae816060850160208701610443565b601f017fffffffffffffffffffffffffffffffffffffffffffffffffffffffffffffffe016919091016060019392505050565b600083516104f3818460208801610443565b835190830190610507818360208801610443565b0194935050505056fe60806040526040516107bb3803806107bb8339810160408190526100229161031e565b61002e82826000610035565b505061043b565b61003e8361006b565b60008251118061004b5750805b156100665761006483836100ab60201b6100291760201c565b505b505050565b610074816100d7565b6040516001600160a01b038216907fbc7cd75a20ee27fd9adebab32041f755214dbc6bffa90cc0225b39da2e5c2d3b90600090a250565b60606100d08383604051806060016040528060278152602001610794602791396101a9565b9392505050565b6100ea8161022260201b6100551760201c565b6101515760405162461bcd60e51b815260206004820152602d60248201527f455243313936373a206e657720696d706c656d656e746174696f6e206973206e60448201526c1bdd08184818dbdb9d1c9858dd609a1b60648201526084015b60405180910390fd5b806101887f360894a13ba1a3210667c828492db98dca3e2076cc3735a920a3ca505d382bbc60001b61023160201b6100711760201c565b80546001600160a01b0319166001600160a01b039290921691909117905550565b6060600080856001600160a01b0316856040516101c691906103ec565b600060405180830381855af49150503d8060008114610201576040519150601f19603f3d011682016040523d82523d6000602084013e610206565b606091505b50909250905061021886838387610234565b9695505050505050565b6001600160a01b03163b151590565b90565b606083156102a0578251610299576001600160a01b0385163b6102995760405162461bcd60e51b815260206004820152601d60248201527f416464726573733a2063616c6c20746f206e6f6e2d636f6e74726163740000006044820152606401610148565b50816102aa565b6102aa83836102b2565b949350505050565b8151156102c25781518083602001fd5b8060405162461bcd60e51b81526004016101489190610408565b634e487b7160e01b600052604160045260246000fd5b60005b8381101561030d5781810151838201526020016102f5565b838111156100645750506000910152565b6000806040838503121561033157600080fd5b82516001600160a01b038116811461034857600080fd5b60208401519092506001600160401b038082111561036557600080fd5b818501915085601f83011261037957600080fd5b81518181111561038b5761038b6102dc565b604051601f8201601f19908116603f011681019083821181831017156103b3576103b36102dc565b816040528281528860208487010111156103cc57600080fd5b6103dd8360208301602088016102f2565b80955050505050509250929050565b600082516103fe8184602087016102f2565b9190910192915050565b60208152600082518060208401526104278160408501602087016102f2565b601f01601f19169190910160400192915050565b61034a8061044a6000396000f3fe60806040523661001357610011610017565b005b6100115b610027610022610074565b6100b9565b565b606061004e83836040518060600160405280602781526020016102ee602791396100dd565b9392505050565b73ffffffffffffffffffffffffffffffffffffffff163b151590565b90565b60006100b47f360894a13ba1a3210667c828492db98dca3e2076cc3735a920a3ca505d382bbc5473ffffffffffffffffffffffffffffffffffffffff1690565b905090565b3660008037600080366000845af43d6000803e8080156100d8573d6000f35b3d6000fd5b60606000808573ffffffffffffffffffffffffffffffffffffffff16856040516101079190610280565b600060405180830381855af49150503d8060008114610142576040519150601f19603f3d011682016040523d82523d6000602084013e610147565b606091505b509150915061015886838387610162565b9695505050505050565b606083156101fa5782516101f35773ffffffffffffffffffffffffffffffffffffffff85163b6101f3576040517f08c379a000000000000000000000000000000000000000000000000000000000815260206004820152601d60248201527f416464726573733a2063616c6c20746f206e6f6e2d636f6e747261637400000060448201526064015b60405180910390fd5b5081610204565b610204838361020c565b949350505050565b81511561021c5781518083602001fd5b806040517f08c379a00000000000000000000000000000000000000000000000000000000081526004016101ea919061029c565b60005b8381101561026b578181015183820152602001610253565b8381111561027a576000848401525b50505050565b60008251610292818460208701610250565b9190910192915050565b60208152600082518060208401526102bb816040850160208701610250565b601f017fffffffffffffffffffffffffffffffffffffffffffffffffffffffffffffffe016919091016040019291505056fe416464726573733a206c6f772d6c6576656c2064656c65676174652063616c6c206661696c6564a264697066735822122048b4772a345164af1273505ce1226eb0faeacddb6d9cb8aee934363126dcc9de64736f6c634300080c0033416464726573733a206c6f772d6c6576656c2064656c65676174652063616c6c206661696c6564a26469706673582212201ea28223d40ae8e65ae65160628a93c40a8767d7b550302d642a7868b159bc1464736f6c634300080c003360a06040523060805234801561001457600080fd5b506080516150c861004c60003960008181611408015281816114b8015281816117f8015281816118a801526119f101526150c86000f3fe6080604052600436106101b05760003560e01c80635e5d4320116100ec578063c0c53b8b1161008a578063cc793fa611610064578063cc793fa6146104ec578063d06403d61461050c578063dc7c98481461052c578063e374e90f1461054c57600080fd5b8063c0c53b8b14610497578063c399ec88146104b7578063c7d76308146104cc57600080fd5b80638da5cb5b116100c65780638da5cb5b146103ff57806399d3fef31461042c578063a55e593d1461044c578063b0d691fe1461046c57600080fd5b80635e5d4320146103925780636517579c146103b25780637b8ea028146103df57600080fd5b80633659cfe6116101595780634f1ef286116101335780634f1ef2861461031d57806352d1902d1461033057806355cd05cc146103455780635cbf1e6e1461036557600080fd5b80633659cfe6146102915780633a6e5a0a146102b15780633cb66ec4146102d157600080fd5b80631b71bb6e1161018a5780631b71bb6e1461023157806320d2a20f146102515780632ed6fb5d1461027157600080fd5b8063033183e9146101bc5780630825d1fc146101de57806315577ae21461021157600080fd5b366101b757005b600080fd5b3480156101c857600080fd5b506101dc6101d736600461404c565b61058c565b005b3480156101ea57600080fd5b506101fe6101f93660046140a8565b61099b565b6040519081526020015b60405180910390f35b34801561021d57600080fd5b506101dc61022c36600461410f565b610e4f565b34801561023d57600080fd5b506101dc61024c36600461415d565b610fc7565b61026461025f36600461417a565b6110e3565b6040516102089190614279565b34801561027d57600080fd5b506101dc61028c36600461428c565b611139565b34801561029d57600080fd5b506101dc6102ac36600461415d565b6113f0565b3480156102bd57600080fd5b506101dc6102cc3660046142ec565b6115f6565b3480156102dd57600080fd5b5060065473ffffffffffffffffffffffffffffffffffffffff165b60405173ffffffffffffffffffffffffffffffffffffffff9091168152602001610208565b6101dc61032b3660046143b5565b6117e0565b34801561033c57600080fd5b506101fe6119d7565b34801561035157600080fd5b506101dc61036036600461417a565b611ac3565b34801561037157600080fd5b50610385610380366004614497565b611b49565b60405161020891906144ff565b34801561039e57600080fd5b506101dc6103ad3660046145b2565b611dbc565b3480156103be57600080fd5b506103d26103cd3660046145b2565b611e79565b60405161020891906145db565b3480156103eb57600080fd5b506101dc6103fa36600461415d565b611fe1565b34801561040b57600080fd5b506007546102f89073ffffffffffffffffffffffffffffffffffffffff1681565b34801561043857600080fd5b506101dc61044736600461428c565b6120fd565b34801561045857600080fd5b506101dc6104673660046145b2565b612679565b34801561047857600080fd5b5060055473ffffffffffffffffffffffffffffffffffffffff166102f8565b3480156104a357600080fd5b506101dc6104b2366004614613565b612797565b3480156104c357600080fd5b506101fe612c93565b3480156104d857600080fd5b506101dc6104e7366004614653565b612d2b565b3480156104f857600080fd5b506101dc61050736600461467f565b612e5e565b34801561051857600080fd5b5061026461052736600461415d565b613099565b34801561053857600080fd5b506101dc61054736600461410f565b613152565b34801561055857600080fd5b5061057c6105673660046145b2565b60009081526002602052604090205460ff1690565b6040519015158152602001610208565b6105946132af565b83610600576040517f08c379a000000000000000000000000000000000000000000000000000000000815260206004820152600d60248201527f726f6c6520697320656d7074790000000000000000000000000000000000000060448201526064015b60405180910390fd5b73ffffffffffffffffffffffffffffffffffffffff831661067d576040517f08c379a000000000000000000000000000000000000000000000000000000000815260206004820152601760248201527f6d6f64756c65206164647265737320697320656d70747900000000000000000060448201526064016105f7565b806106e4576040517f08c379a000000000000000000000000000000000000000000000000000000000815260206004820152600f60248201527f72756c65732061726520656d707479000000000000000000000000000000000060448201526064016105f7565b60005b61ffff81168211156108cf576000838361ffff841681811061070b5761070b6146ad565b905060200281019061071d91906146dc565b351415610786576040517f08c379a000000000000000000000000000000000000000000000000000000000815260206004820152601560248201527f72756c652068617320656d70747920616374696f6e000000000000000000000060448201526064016105f7565b600083838361ffff1681811061079e5761079e6146ad565b90506020028101906107b091906146dc565b6107be90602081019061471a565b905011610827576040517f08c379a000000000000000000000000000000000000000000000000000000000815260206004820152601560248201527f72756c652068617320656d70747920746172676574000000000000000000000060448201526064016105f7565b6000838361ffff841681811061083f5761083f6146ad565b905060200281019061085191906146dc565b6060013514156108bd576040517f08c379a000000000000000000000000000000000000000000000000000000000815260206004820152601560248201527f72756c652068617320656d70747920657874656e74000000000000000000000060448201526064016105f7565b806108c78161477f565b9150506106e7565b50604080516020810186905273ffffffffffffffffffffffffffffffffffffffff851681830152815180820383018152606090910190915260005b61ffff81168311156109935760048260405161092691906147c8565b908152602001604051809103902084848361ffff1681811061094a5761094a6146ad565b905060200281019061095c91906146dc565b81546001810183556000928352602090922090916004020161097e82826148d5565b5050808061098b9061477f565b91505061090a565b505050505050565b60006109a561337a565b6006546040517fa8a2de9300000000000000000000000000000000000000000000000000000000815260009173ffffffffffffffffffffffffffffffffffffffff169063a8a2de9390610a0090899089908990600401614bd9565b602060405180830381865afa158015610a1d573d6000803e3d6000fd5b505050506040513d601f19601f82011682018060405250810190610a419190614c18565b9050610a4c816133fb565b6000818152600360209081526040808320815160608101909252805482526001810154919290919083019060ff168015610a8857610a886144bc565b8015610a9657610a966144bc565b8152602001600282018054610aaa906147da565b80601f0160208091040260200160405190810160405280929190818152602001828054610ad6906147da565b8015610b235780601f10610af857610100808354040283529160200191610b23565b820191906000526020600020905b815481529060010190602001808311610b0657829003601f168201915b505050919092525050600654602083015160408085015190517fd7acc99a00000000000000000000000000000000000000000000000000000000815294955073ffffffffffffffffffffffffffffffffffffffff9092169363d7acc99a9350610b9592908c908c908c90600401614c31565b602060405180830381865afa158015610bb2573d6000803e3d6000fd5b505050506040513d601f19601f82011682018060405250810190610bd69190614c18565b9250610be5604088018861471a565b15159050610bf657610bf687613480565b600081600001516040518060400160405280600181526020017f2a00000000000000000000000000000000000000000000000000000000000000815250604051602001610c44929190614c92565b60405160208183030381529060405290507f61646d696e000000000000000000000000000000000000000000000000000000826000015114158015610ca957506000600482604051610c9691906147c8565b9081526040519081900360200190205411155b15610e3b57600080610cc6610cc160608c018c61471a565b61353e565b86519294509250600091905073ffffffffffffffffffffffffffffffffffffffff841660408051602081019390935282015260600160405160208183030381529060405290506000600482604051610d1e91906147c8565b9081526040519081900360200190205411610d95576040517f08c379a000000000000000000000000000000000000000000000000000000000815260206004820152601660248201527f75736572206973206e6f7420617574686f72697a65640000000000000000000060448201526064016105f7565b8273ffffffffffffffffffffffffffffffffffffffff166352bd4f4183600484604051610dc291906147c8565b9081526040519081900360200181207fffffffff0000000000000000000000000000000000000000000000000000000060e085901b168252610e079291600401614cab565b60006040518083038186803b158015610e1f57600080fd5b505afa158015610e33573d6000803e3d6000fd5b505050505050505b610e44856135b0565b505050949350505050565b610e576132af565b81610ebe576040517f08c379a000000000000000000000000000000000000000000000000000000000815260206004820152600e60248201527f696e76616c69642075736572496400000000000000000000000000000000000060448201526064016105f7565b610ec7826133fb565b8035610f2f576040517f08c379a000000000000000000000000000000000000000000000000000000000815260206004820152601360248201527f757365722068617320656d70747920726f6c650000000000000000000000000060448201526064016105f7565b6000610f3e604083018361471a565b905011610fa7576040517f08c379a000000000000000000000000000000000000000000000000000000000815260206004820152601c60248201527f757365722068617320656d7074792061757468206d657461646174610000000060448201526064016105f7565b60008281526003602052604090208190610fc18282614df9565b50505050565b610fcf6132af565b73ffffffffffffffffffffffffffffffffffffffff8116611072576040517f08c379a000000000000000000000000000000000000000000000000000000000815260206004820152603260248201527f66756e2077616c6c65743a206e657720656e74727920706f696e74206164647260448201527f6573732063616e6e6f74206265207a65726f000000000000000000000000000060648201526084016105f7565b600580547fffffffffffffffffffffffff00000000000000000000000000000000000000001673ffffffffffffffffffffffffffffffffffffffff831690811790915560405181907f450909c1478d09248269d4ad4fa8cba61ca3f50faed58c7aedefa51c7f62b83a90600090a350565b60606110ed61361b565b61112e858585858080601f0160208091040260200160405190810160405280939291908181526020018383808284376000920191909152506136c492505050565b90505b949350505050565b6111416132af565b826111a8576040517f08c379a000000000000000000000000000000000000000000000000000000000815260206004820152600d60248201527f726f6c6520697320656d7074790000000000000000000000000000000000000060448201526064016105f7565b73ffffffffffffffffffffffffffffffffffffffff8216611225576040517f08c379a000000000000000000000000000000000000000000000000000000000815260206004820152601760248201527f6d6f64756c65206164647265737320697320656d70747900000000000000000060448201526064016105f7565b803561128d576040517f08c379a000000000000000000000000000000000000000000000000000000000815260206004820152601560248201527f72756c652068617320656d70747920616374696f6e000000000000000000000060448201526064016105f7565b600061129c602083018361471a565b905011611305576040517f08c379a000000000000000000000000000000000000000000000000000000000815260206004820152601560248201527f72756c652068617320656d70747920746172676574000000000000000000000060448201526064016105f7565b6060810135611370576040517f08c379a000000000000000000000000000000000000000000000000000000000815260206004820152601560248201527f72756c652068617320656d70747920657874656e74000000000000000000000060448201526064016105f7565b604080516020810185905273ffffffffffffffffffffffffffffffffffffffff84168183015281518082038301815260609091019091526113b0816137a6565b6004816040516113c091906147c8565b908152604051602091819003820190208054600181018255600091825291902083916004020161099382826148d5565b3073ffffffffffffffffffffffffffffffffffffffff7f00000000000000000000000000000000000000000000000000000000000000001614156114b6576040517f08c379a000000000000000000000000000000000000000000000000000000000815260206004820152602c60248201527f46756e6374696f6e206d7573742062652063616c6c6564207468726f7567682060448201527f64656c656761746563616c6c000000000000000000000000000000000000000060648201526084016105f7565b7f000000000000000000000000000000000000000000000000000000000000000073ffffffffffffffffffffffffffffffffffffffff1661152b7f360894a13ba1a3210667c828492db98dca3e2076cc3735a920a3ca505d382bbc5473ffffffffffffffffffffffffffffffffffffffff1690565b73ffffffffffffffffffffffffffffffffffffffff16146115ce576040517f08c379a000000000000000000000000000000000000000000000000000000000815260206004820152602c60248201527f46756e6374696f6e206d7573742062652063616c6c6564207468726f7567682060448201527f6163746976652070726f7879000000000000000000000000000000000000000060648201526084016105f7565b6115d78161387f565b604080516000808252602082019092526115f391839190613887565b50565b6115fe6132af565b848314801561160c57508281145b611672576040517f08c379a000000000000000000000000000000000000000000000000000000000815260206004820152601760248201527f6461746120697320646966666572656e742073697a657300000000000000000060448201526064016105f7565b60005b858110156117d7576116a9838383818110611692576116926146ad565b90506020028101906116a4919061471a565b613a86565b156117cf5760006117518888848181106116c5576116c56146ad565b90506020020160208101906116da919061415d565b8787858181106116ec576116ec6146ad565b90506020020135868686818110611705576117056146ad565b9050602002810190611717919061471a565b8080601f0160208091040260200160405190810160405280939291908181526020018383808284376000920191909152506136c492505050565b905080600160008a8a8681811061176a5761176a6146ad565b905060200201602081019061177f919061415d565b73ffffffffffffffffffffffffffffffffffffffff1673ffffffffffffffffffffffffffffffffffffffff16815260200190815260200160002090805190602001906117cc929190613e80565b50505b600101611675565b50505050505050565b3073ffffffffffffffffffffffffffffffffffffffff7f00000000000000000000000000000000000000000000000000000000000000001614156118a6576040517f08c379a000000000000000000000000000000000000000000000000000000000815260206004820152602c60248201527f46756e6374696f6e206d7573742062652063616c6c6564207468726f7567682060448201527f64656c656761746563616c6c000000000000000000000000000000000000000060648201526084016105f7565b7f000000000000000000000000000000000000000000000000000000000000000073ffffffffffffffffffffffffffffffffffffffff1661191b7f360894a13ba1a3210667c828492db98dca3e2076cc3735a920a3ca505d382bbc5473ffffffffffffffffffffffffffffffffffffffff1690565b73ffffffffffffffffffffffffffffffffffffffff16146119be576040517f08c379a000000000000000000000000000000000000000000000000000000000815260206004820152602c60248201527f46756e6374696f6e206d7573742062652063616c6c6564207468726f7567682060448201527f6163746976652070726f7879000000000000000000000000000000000000000060648201526084016105f7565b6119c78261387f565b6119d382826001613887565b5050565b60003073ffffffffffffffffffffffffffffffffffffffff7f00000000000000000000000000000000000000000000000000000000000000001614611a9e576040517f08c379a000000000000000000000000000000000000000000000000000000000815260206004820152603860248201527f555550535570677261646561626c653a206d757374206e6f742062652063616c60448201527f6c6564207468726f7567682064656c656761746563616c6c000000000000000060648201526084016105f7565b507f360894a13ba1a3210667c828492db98dca3e2076cc3735a920a3ca505d382bbc90565b611acb6132af565b6000611b0e858585858080601f0160208091040260200160405190810160405280939291908181526020018383808284376000920191909152506136c492505050565b73ffffffffffffffffffffffffffffffffffffffff861660009081526001602090815260409091208251929350610993929091840190613e80565b606082611bb2576040517f08c379a000000000000000000000000000000000000000000000000000000000815260206004820152600d60248201527f726f6c6520697320656d7074790000000000000000000000000000000000000060448201526064016105f7565b73ffffffffffffffffffffffffffffffffffffffff8216611c2f576040517f08c379a000000000000000000000000000000000000000000000000000000000815260206004820152601760248201527f6d6f64756c65206164647265737320697320656d70747900000000000000000060448201526064016105f7565b604080516020810185905273ffffffffffffffffffffffffffffffffffffffff84168183015281518082038301815260609091019182905290600490611c769083906147c8565b9081526020016040518091039020805480602002602001604051908101604052809291908181526020016000905b82821015611daf578382906000526020600020906004020160405180608001604052908160008201548152602001600182018054611ce1906147da565b80601f0160208091040260200160405190810160405280929190818152602001828054611d0d906147da565b8015611d5a5780601f10611d2f57610100808354040283529160200191611d5a565b820191906000526020600020905b815481529060010190602001808311611d3d57829003601f168201915b5050509183525050600282015460209091019060ff166006811115611d8157611d816144bc565b6006811115611d9257611d926144bc565b815260200160038201548152505081526020019060010190611ca4565b5050505091505092915050565b611dc46132af565b80611e2b576040517f08c379a000000000000000000000000000000000000000000000000000000000815260206004820152600e60248201527f696e76616c69642075736572496400000000000000000000000000000000000060448201526064016105f7565b60008181526003602052604081208181556001810180547fffffffffffffffffffffffffffffffffffffffffffffffffffffffffffffff0016905590611e746002830182613f04565b505050565b6040805160608082018352600080835260208301529181019190915281611efc576040517f08c379a000000000000000000000000000000000000000000000000000000000815260206004820152600e60248201527f696e76616c69642075736572496400000000000000000000000000000000000060448201526064016105f7565b600082815260036020908152604091829020825160608101909352805483526001810154909183019060ff168015611f3657611f366144bc565b8015611f4457611f446144bc565b8152602001600282018054611f58906147da565b80601f0160208091040260200160405190810160405280929190818152602001828054611f84906147da565b8015611fd15780601f10611fa657610100808354040283529160200191611fd1565b820191906000526020600020905b815481529060010190602001808311611fb457829003601f168201915b5050505050815250509050919050565b611fe96132af565b73ffffffffffffffffffffffffffffffffffffffff811661208c576040517f08c379a000000000000000000000000000000000000000000000000000000000815260206004820152603260248201527f66756e2077616c6c65743a206e657720656e74727920706f696e74206164647260448201527f6573732063616e6e6f74206265207a65726f000000000000000000000000000060648201526084016105f7565b600680547fffffffffffffffffffffffff00000000000000000000000000000000000000001673ffffffffffffffffffffffffffffffffffffffff831690811790915560405181907f34a5e38fc8fe74f12b269fe92e724092f7f531dc4985c88fb113460cfcb5f67d90600090a350565b6121056132af565b8261216c576040517f08c379a000000000000000000000000000000000000000000000000000000000815260206004820152600d60248201527f726f6c6520697320656d7074790000000000000000000000000000000000000060448201526064016105f7565b73ffffffffffffffffffffffffffffffffffffffff82166121e9576040517f08c379a000000000000000000000000000000000000000000000000000000000815260206004820152601760248201527f6d6f64756c65206164647265737320697320656d70747900000000000000000060448201526064016105f7565b8035612251576040517f08c379a000000000000000000000000000000000000000000000000000000000815260206004820152601560248201527f72756c652068617320656d70747920616374696f6e000000000000000000000060448201526064016105f7565b6000612260602083018361471a565b9050116122c9576040517f08c379a000000000000000000000000000000000000000000000000000000000815260206004820152601560248201527f72756c652068617320656d70747920746172676574000000000000000000000060448201526064016105f7565b6060810135612334576040517f08c379a000000000000000000000000000000000000000000000000000000000815260206004820152601560248201527f72756c652068617320656d70747920657874656e74000000000000000000000060448201526064016105f7565b604080516020810185905273ffffffffffffffffffffffffffffffffffffffff8416818301528151808203830181526060909101909152612374816137a6565b600060048260405161238691906147c8565b9081526020016040518091039020805480602002602001604051908101604052809291908181526020016000905b828210156124bf5783829060005260206000209060040201604051806080016040529081600082015481526020016001820180546123f1906147da565b80601f016020809104026020016040519081016040528092919081815260200182805461241d906147da565b801561246a5780601f1061243f5761010080835404028352916020019161246a565b820191906000526020600020905b81548152906001019060200180831161244d57829003601f168201915b5050509183525050600282015460209091019060ff166006811115612491576124916144bc565b60068111156124a2576124a26144bc565b8152602001600382015481525050815260200190600101906123b4565b50505050905060008380602001906124d7919061471a565b6124e76060870160408801614f69565b86606001356040516020016124ff9493929190614f9d565b60405160208183030381529060405280519060200120905060005b60048460405161252a91906147c8565b9081526040519081900360200190205461ffff821610156117d7576000838261ffff168151811061255d5761255d6146ad565b602002602001015160200151848361ffff168151811061257f5761257f6146ad565b602002602001015160400151858461ffff16815181106125a1576125a16146ad565b6020026020010151606001516040516020016125bf93929190614fc8565b60405160208183030381529060405280519060200120905080831415612666576004856040516125ef91906147c8565b90815260200160405180910390208261ffff1681548110612612576126126146ad565b600091825260208220600490910201818155906126326001830182613f04565b506002810180547fffffffffffffffffffffffffffffffffffffffffffffffffffffffffffffff0016905560006003909101555b50806126718161477f565b91505061251a565b612681613aec565b80471015612711576040517f08c379a000000000000000000000000000000000000000000000000000000000815260206004820152602a60248201527f66756e2077616c6c65743a206e6f7420656e6f75676820657468657220696e2060448201527f7468652077616c6c65740000000000000000000000000000000000000000000060648201526084016105f7565b6005546040517fb760faf900000000000000000000000000000000000000000000000000000000815230600482015273ffffffffffffffffffffffffffffffffffffffff9091169063b760faf990602401600060405180830381600087803b15801561277c57600080fd5b505af1158015612790573d6000803e3d6000fd5b5050505050565b600054610100900460ff16158080156127b75750600054600160ff909116105b806127d15750303b1580156127d1575060005460ff166001145b61285d576040517f08c379a000000000000000000000000000000000000000000000000000000000815260206004820152602e60248201527f496e697469616c697a61626c653a20636f6e747261637420697320616c72656160448201527f647920696e697469616c697a656400000000000000000000000000000000000060648201526084016105f7565b600080547fffffffffffffffffffffffffffffffffffffffffffffffffffffffffffffff0016600117905580156128bb57600080547fffffffffffffffffffffffffffffffffffffffffffffffffffffffffffff00ff166101001790555b73ffffffffffffffffffffffffffffffffffffffff8416612938576040517f08c379a000000000000000000000000000000000000000000000000000000000815260206004820152601260248201527f496e76616c696420456e747279706f696e74000000000000000000000000000060448201526064016105f7565b6005805473ffffffffffffffffffffffffffffffffffffffff8681167fffffffffffffffffffffffff00000000000000000000000000000000000000009283161790925560068054868416908316179055600780549285169290911682179055604080516060810182527f61646d696e000000000000000000000000000000000000000000000000000000815260006020808301828152845180830187905285518082038401815290860186528486015294825260039052919091208151815591516001838101805493949390917fffffffffffffffffffffffffffffffffffffffffffffffffffffffffffffff0090911690838015612a3a57612a3a6144bc565b021790555060408201518051612a5a916002840191602090910190613e80565b5090505060007f61646d696e0000000000000000000000000000000000000000000000000000006040518060400160405280600181526020017f2a00000000000000000000000000000000000000000000000000000000000000815250604051602001612ac8929190614c92565b6040516020818303038152906040529050600481604051612ae991906147c8565b908152602001604051809103902060405180608001604052807f2a0000000000000000000000000000000000000000000000000000000000000081526020016040518060400160405280600181526020017f2a000000000000000000000000000000000000000000000000000000000000008152508152602001600680811115612b7557612b756144bc565b81527f2a00000000000000000000000000000000000000000000000000000000000000602091820152825460018181018555600094855293829020835160049092020190815582820151805193949193612bd793928501929190910190613e80565b5060408201516002820180547fffffffffffffffffffffffffffffffffffffffffffffffffffffffffffffff00166001836006811115612c1957612c196144bc565b0217905550606082015181600301555050508015610fc157600080547fffffffffffffffffffffffffffffffffffffffffffffffffffffffffffff00ff169055604051600181527f7f26b83ff96e1f2b6a682f133852f6798a09c465da95921460cefb38474024989060200160405180910390a150505050565b6005546040517f70a0823100000000000000000000000000000000000000000000000000000000815230600482015260009173ffffffffffffffffffffffffffffffffffffffff16906370a0823190602401602060405180830381865afa158015612d02573d6000803e3d6000fd5b505050506040513d601f19601f82011682018060405250810190612d269190614c18565b905090565b612d33613aec565b73ffffffffffffffffffffffffffffffffffffffff8216612dd6576040517f08c379a000000000000000000000000000000000000000000000000000000000815260206004820152602b60248201527f66756e2077616c6c65743a20776974686472617720616464726573732063616e60448201527f6e6f74206265207a65726f00000000000000000000000000000000000000000060648201526084016105f7565b6005546040517f205c287800000000000000000000000000000000000000000000000000000000815273ffffffffffffffffffffffffffffffffffffffff8481166004830152602482018490529091169063205c287890604401600060405180830381600087803b158015612e4a57600080fd5b505af1158015610993573d6000803e3d6000fd5b612e666132af565b73ffffffffffffffffffffffffffffffffffffffff8116612f09576040517f08c379a000000000000000000000000000000000000000000000000000000000815260206004820152602d60248201527f66756e2077616c6c65743a206e6577206d6f64756c652061646472657373206360448201527f616e6e6f74206265207a65726f0000000000000000000000000000000000000060648201526084016105f7565b8173ffffffffffffffffffffffffffffffffffffffff168173ffffffffffffffffffffffffffffffffffffffff161415612fc5576040517f08c379a000000000000000000000000000000000000000000000000000000000815260206004820152603e60248201527f66756e2077616c6c65743a206e6577206d6f64756c652061646472657373206360448201527f616e6e6f7420626520657175616c20746f2070726576696f7573206f6e65000060648201526084016105f7565b73ffffffffffffffffffffffffffffffffffffffff808316600090815260016020526040808220928416825290208154909190613001906147da565b61300c929190613f3e565b5073ffffffffffffffffffffffffffffffffffffffff8216600090815260016020526040812061303b91613f04565b8073ffffffffffffffffffffffffffffffffffffffff168273ffffffffffffffffffffffffffffffffffffffff167fdcbf4cc8a7afc3fe6e403a57745b98188844fdfee49c8752ae30fc46b3a39ebb60405160405180910390a35050565b73ffffffffffffffffffffffffffffffffffffffff811660009081526001602052604090208054606091906130cd906147da565b80601f01602080910402602001604051908101604052809291908181526020018280546130f9906147da565b80156131465780601f1061311b57610100808354040283529160200191613146565b820191906000526020600020905b81548152906001019060200180831161312957829003601f168201915b50505050509050919050565b61315a6132af565b816131c1576040517f08c379a000000000000000000000000000000000000000000000000000000000815260206004820152600e60248201527f696e76616c69642075736572496400000000000000000000000000000000000060448201526064016105f7565b600082815260036020526040812060020180546131dd906147da565b90501115613247576040517f08c379a000000000000000000000000000000000000000000000000000000000815260206004820152601360248201527f7573657220616c7265616479206578697374730000000000000000000000000060448201526064016105f7565b8035610f2f576040517f08c379a000000000000000000000000000000000000000000000000000000000815260206004820152601460248201527f757365722068617320656d70747920726f6c657300000000000000000000000060448201526064016105f7565b60055473ffffffffffffffffffffffffffffffffffffffff163314806132ec575060075473ffffffffffffffffffffffffffffffffffffffff1633145b613378576040517f08c379a000000000000000000000000000000000000000000000000000000000815260206004820152602860248201527f66756e2077616c6c65743a206e6f742066726f6d20456e747279506f696e742060448201527f6f72206f776e657200000000000000000000000000000000000000000000000060648201526084016105f7565b565b60055473ffffffffffffffffffffffffffffffffffffffff163314613378576040517f08c379a000000000000000000000000000000000000000000000000000000000815260206004820152601f60248201527f66756e2077616c6c65743a206e6f742066726f6d20456e747279506f696e740060448201526064016105f7565b60008181526003602052604081206002018054613417906147da565b9050116115f3576040517f08c379a000000000000000000000000000000000000000000000000000000000815260206004820152601f60248201527f66756e2077616c6c65743a207573657220646f6573206e6f742065786973740060448201526064016105f7565b60208082013560009081526002909152604090205460ff16156134ff576040517f08c379a000000000000000000000000000000000000000000000000000000000815260206004820152601960248201527f66756e2077616c6c65743a20696e76616c6964206e6f6e63650000000000000060448201526064016105f7565b602090810135600090815260029091526040902080547fffffffffffffffffffffffffffffffffffffffffffffffffffffffffffffff00166001179055565b60008060606135508460048188614ff9565b81019061355d9190614653565b909350915061356f8460c88188614ff9565b8080601f0160208091040260200160405190810160405280939291908181526020018383808284376000920191909152509598949750919550929350505050565b80156115f35760405160009033907fffffffffffffffffffffffffffffffffffffffffffffffffffffffffffffffff90849084818181858888f193505050503d8060008114612790576040519150601f19603f3d011682016040523d82523d6000602084013e612790565b3360009081526001602052604081208054613635906147da565b905011613378576040517f08c379a000000000000000000000000000000000000000000000000000000000815260206004820152602360248201527f66756e2077616c6c65743a206e6f742066726f6d2061206b6e6f776e204d6f6460448201527f756c65000000000000000000000000000000000000000000000000000000000060648201526084016105f7565b60606000808573ffffffffffffffffffffffffffffffffffffffff1685856040516136ef91906147c8565b60006040518083038185875af1925050503d806000811461372c576040519150601f19603f3d011682016040523d82523d6000602084013e613731565b606091505b50915091508161379d576040517f08c379a000000000000000000000000000000000000000000000000000000000815260206004820181905260248201527f66756e2077616c6c65743a2065787465726e616c2063616c6c206661696c656460448201526064016105f7565b95945050505050565b60006004826040516137b891906147c8565b9081526040519081900360200190205411801561381957506040516000906004906137e49084906147c8565b9081526020016040518091039020600081548110613804576138046146ad565b90600052602060002090600402016000015414155b6115f3576040517f08c379a000000000000000000000000000000000000000000000000000000000815260206004820152601f60248201527f66756e2077616c6c65743a20726f6c6520646f6573206e6f742065786973740060448201526064016105f7565b6115f36132af565b7f4910fdfa16fed3260ed0e7147f7cc6da11a60208b5b9406d12a635614ffd91435460ff16156138ba57611e7483613b77565b8273ffffffffffffffffffffffffffffffffffffffff166352d1902d6040518163ffffffff1660e01b8152600401602060405180830381865afa92505050801561393f575060408051601f3d9081017fffffffffffffffffffffffffffffffffffffffffffffffffffffffffffffffe016820190925261393c91810190614c18565b60015b6139cb576040517f08c379a000000000000000000000000000000000000000000000000000000000815260206004820152602e60248201527f45524331393637557067726164653a206e657720696d706c656d656e7461746960448201527f6f6e206973206e6f74205555505300000000000000000000000000000000000060648201526084016105f7565b7f360894a13ba1a3210667c828492db98dca3e2076cc3735a920a3ca505d382bbc8114613a7a576040517f08c379a000000000000000000000000000000000000000000000000000000000815260206004820152602960248201527f45524331393637557067726164653a20756e737570706f727465642070726f7860448201527f6961626c6555554944000000000000000000000000000000000000000000000060648201526084016105f7565b50611e74838383613c81565b600080613a966004828587614ff9565b613a9f91615023565b7fffffffff00000000000000000000000000000000000000000000000000000000167f4ddf47d4000000000000000000000000000000000000000000000000000000001491505092915050565b60075473ffffffffffffffffffffffffffffffffffffffff16331480613b1157503330145b613378576040517f08c379a000000000000000000000000000000000000000000000000000000000815260206004820152601a60248201527f66756e2077616c6c65743a206e6f742066726f6d204f776e657200000000000060448201526064016105f7565b73ffffffffffffffffffffffffffffffffffffffff81163b613c1b576040517f08c379a000000000000000000000000000000000000000000000000000000000815260206004820152602d60248201527f455243313936373a206e657720696d706c656d656e746174696f6e206973206e60448201527f6f74206120636f6e74726163740000000000000000000000000000000000000060648201526084016105f7565b7f360894a13ba1a3210667c828492db98dca3e2076cc3735a920a3ca505d382bbc80547fffffffffffffffffffffffff00000000000000000000000000000000000000001673ffffffffffffffffffffffffffffffffffffffff92909216919091179055565b613c8a83613ca6565b600082511180613c975750805b15611e7457610fc18383613cf3565b613caf81613b77565b60405173ffffffffffffffffffffffffffffffffffffffff8216907fbc7cd75a20ee27fd9adebab32041f755214dbc6bffa90cc0225b39da2e5c2d3b90600090a250565b6060613d18838360405180606001604052806027815260200161506c60279139613d1f565b9392505050565b60606000808573ffffffffffffffffffffffffffffffffffffffff1685604051613d4991906147c8565b600060405180830381855af49150503d8060008114613d84576040519150601f19603f3d011682016040523d82523d6000602084013e613d89565b606091505b5091509150613d9a86838387613da4565b9695505050505050565b60608315613e37578251613e305773ffffffffffffffffffffffffffffffffffffffff85163b613e30576040517f08c379a000000000000000000000000000000000000000000000000000000000815260206004820152601d60248201527f416464726573733a2063616c6c20746f206e6f6e2d636f6e747261637400000060448201526064016105f7565b5081611131565b6111318383815115613e4c5781518083602001fd5b806040517f08c379a00000000000000000000000000000000000000000000000000000000081526004016105f79190614279565b828054613e8c906147da565b90600052602060002090601f016020900481019282613eae5760008555613ef4565b82601f10613ec757805160ff1916838001178555613ef4565b82800160010185558215613ef4579182015b82811115613ef4578251825591602001919060010190613ed9565b50613f00929150613fb9565b5090565b508054613f10906147da565b6000825580601f10613f20575050565b601f0160209004906000526020600020908101906115f39190613fb9565b828054613f4a906147da565b90600052602060002090601f016020900481019282613f6c5760008555613ef4565b82601f10613f7d5780548555613ef4565b82800160010185558215613ef457600052602060002091601f016020900482015b82811115613ef4578254825591600101919060010190613f9e565b5b80821115613f005760008155600101613fba565b73ffffffffffffffffffffffffffffffffffffffff811681146115f357600080fd5b8035613ffb81613fce565b919050565b60008083601f84011261401257600080fd5b50813567ffffffffffffffff81111561402a57600080fd5b6020830191508360208260051b850101111561404557600080fd5b9250929050565b6000806000806060858703121561406257600080fd5b84359350602085013561407481613fce565b9250604085013567ffffffffffffffff81111561409057600080fd5b61409c87828801614000565b95989497509550505050565b600080600080608085870312156140be57600080fd5b843567ffffffffffffffff8111156140d557600080fd5b850161016081880312156140e857600080fd5b93506020850135925060408501356140ff81613fce565b9396929550929360600135925050565b6000806040838503121561412257600080fd5b82359150602083013567ffffffffffffffff81111561414057600080fd5b83016060818603121561415257600080fd5b809150509250929050565b60006020828403121561416f57600080fd5b8135613d1881613fce565b6000806000806060858703121561419057600080fd5b843561419b81613fce565b935060208501359250604085013567ffffffffffffffff808211156141bf57600080fd5b818701915087601f8301126141d357600080fd5b8135818111156141e257600080fd5b8860208285010111156141f457600080fd5b95989497505060200194505050565b60005b8381101561421e578181015183820152602001614206565b83811115610fc15750506000910152565b60008151808452614247816020860160208601614203565b601f017fffffffffffffffffffffffffffffffffffffffffffffffffffffffffffffffe0169290920160200192915050565b602081526000613d18602083018461422f565b6000806000606084860312156142a157600080fd5b8335925060208401356142b381613fce565b9150604084013567ffffffffffffffff8111156142cf57600080fd5b8401608081870312156142e157600080fd5b809150509250925092565b6000806000806000806060878903121561430557600080fd5b863567ffffffffffffffff8082111561431d57600080fd5b6143298a838b01614000565b9098509650602089013591508082111561434257600080fd5b61434e8a838b01614000565b9096509450604089013591508082111561436757600080fd5b5061437489828a01614000565b979a9699509497509295939492505050565b7f4e487b7100000000000000000000000000000000000000000000000000000000600052604160045260246000fd5b600080604083850312156143c857600080fd5b82356143d381613fce565b9150602083013567ffffffffffffffff808211156143f057600080fd5b818501915085601f83011261440457600080fd5b81358181111561441657614416614386565b604051601f82017fffffffffffffffffffffffffffffffffffffffffffffffffffffffffffffffe0908116603f0116810190838211818310171561445c5761445c614386565b8160405282815288602084870101111561447557600080fd5b8260208601602083013760006020848301015280955050505050509250929050565b600080604083850312156144aa57600080fd5b82359150602083013561415281613fce565b7f4e487b7100000000000000000000000000000000000000000000000000000000600052602160045260246000fd5b600781106144fb576144fb6144bc565b9052565b60006020808301818452808551808352604092508286019150828160051b87010184880160005b838110156145a4577fffffffffffffffffffffffffffffffffffffffffffffffffffffffffffffffc0898403018552815160808151855288820151818a8701526145728287018261422f565b91505087820151614585898701826144eb565b5060609182015194909101939093529386019390860190600101614526565b509098975050505050505050565b6000602082840312156145c457600080fd5b5035919050565b600181106144fb576144fb6144bc565b6020815281516020820152600060208301516145fa60408401826145cb565b506040830151606080840152611131608084018261422f565b60008060006060848603121561462857600080fd5b833561463381613fce565b9250602084013561464381613fce565b915060408401356142e181613fce565b6000806040838503121561466657600080fd5b823561467181613fce565b946020939093013593505050565b6000806040838503121561469257600080fd5b823561469d81613fce565b9150602083013561415281613fce565b7f4e487b7100000000000000000000000000000000000000000000000000000000600052603260045260246000fd5b600082357fffffffffffffffffffffffffffffffffffffffffffffffffffffffffffffff8183360301811261471057600080fd5b9190910192915050565b60008083357fffffffffffffffffffffffffffffffffffffffffffffffffffffffffffffffe184360301811261474f57600080fd5b83018035915067ffffffffffffffff82111561476a57600080fd5b60200191503681900382131561404557600080fd5b600061ffff808316818114156147be577f4e487b7100000000000000000000000000000000000000000000000000000000600052601160045260246000fd5b6001019392505050565b60008251614710818460208701614203565b600181811c908216806147ee57607f821691505b60208210811415614828577f4e487b7100000000000000000000000000000000000000000000000000000000600052602260045260246000fd5b50919050565b601f821115611e7457600081815260208120601f850160051c810160208610156148555750805b601f850160051c820191505b8181101561099357828155600101614861565b600781106115f357600080fd5b6000813561488e81614874565b92915050565b600782106148a4576148a46144bc565b7fffffffffffffffffffffffffffffffffffffffffffffffffffffffffffffff0081541660ff831681178255505050565b81358155600180820160206148ec8186018661471a565b67ffffffffffffffff81111561490457614904614386565b6149188161491286546147da565b8661482e565b6000601f82116001811461496a57600083156149345750838201355b7fffffffffffffffffffffffffffffffffffffffffffffffffffffffffffffffff600385901b1c1916600184901b1786556149fb565b6000868152602090207fffffffffffffffffffffffffffffffffffffffffffffffffffffffffffffffe0841690835b828110156149b65786850135825593870193908901908701614999565b50848210156149f1577fffffffffffffffffffffffffffffffffffffffffffffffffffffffffffffffff60f88660031b161c19848701351681555b50508683881b0186555b50505050505050614a1a614a1160408401614881565b60028301614894565b606082013560038201555050565b60008083357fffffffffffffffffffffffffffffffffffffffffffffffffffffffffffffffe1843603018112614a5d57600080fd5b830160208101925035905067ffffffffffffffff811115614a7d57600080fd5b80360383131561404557600080fd5b8183528181602085013750600060208284010152600060207fffffffffffffffffffffffffffffffffffffffffffffffffffffffffffffffe0601f840116840101905092915050565b6000610160614b0184614ae785613ff0565b73ffffffffffffffffffffffffffffffffffffffff169052565b60208301356020850152614b186040840184614a28565b826040870152614b2b8387018284614a8c565b92505050614b3c6060840184614a28565b8583036060870152614b4f838284614a8c565b925050506080830135608085015260a083013560a085015260c083013560c085015260e083013560e0850152610100808401358186015250610120614b9681850185614a28565b86840383880152614ba8848284614a8c565b9350505050610140614bbc81850185614a28565b86840383880152614bce848284614a8c565b979650505050505050565b606081526000614bec6060830186614ad5565b905083602083015273ffffffffffffffffffffffffffffffffffffffff83166040830152949350505050565b600060208284031215614c2a57600080fd5b5051919050565b614c3b81876145cb565b60a060208201526000614c5160a083018761422f565b8281036040840152614c638187614ad5565b91505083606083015273ffffffffffffffffffffffffffffffffffffffff831660808301529695505050505050565b828152604060208201526000611131604083018461422f565b60006040808352614cbe8184018661422f565b6020848203818601528186548084528284019150828160051b8501016000898152848120815b84811015614de8577fffffffffffffffffffffffffffffffffffffffffffffffffffffffffffffffe08885030186526080825485526001808401828a880152858154614d2f816147da565b94890185905260a0948185168015614d4e5760018114614d8057614dab565b7fffffffffffffffffffffffffffffffffffffffffffffffffffffffffffffff008316878c015260c08b019350614dab565b848a528d8a208a5b83811015614da35781548d82018a0152908701908f01614d88565b8c0188019450505b505050600286015460ff169350614dc48d8901856144eb565b60038601546060989098019790975250505094860194600490910190600101614ce4565b50919b9a5050505050505050505050565b813581556001808201602080850135838110614e1457600080fd5b7fffffffffffffffffffffffffffffffffffffffffffffffffffffffffffffff0083541660ff8216811784555050600284019150614e55604086018661471a565b67ffffffffffffffff811115614e6d57614e6d614386565b614e7b8161491286546147da565b6000601f821160018114614ecd5760008315614e975750838201355b7fffffffffffffffffffffffffffffffffffffffffffffffffffffffffffffffff600385901b1c1916600184901b178655614f5e565b6000868152602090207fffffffffffffffffffffffffffffffffffffffffffffffffffffffffffffffe0841690835b82811015614f195786850135825593870193908901908701614efc565b5084821015614f54577fffffffffffffffffffffffffffffffffffffffffffffffffffffffffffffffff60f88660031b161c19848701351681555b50508683881b0186555b505050505050505050565b600060208284031215614f7b57600080fd5b8135613d1881614874565b60078110614f9657614f966144bc565b60f81b9052565b83858237600084820160008152614fb48186614f86565b600181019390935250506021019392505050565b60008451614fda818460208901614203565b8201614fe68186614f86565b6001810193909352505060210192915050565b6000808585111561500957600080fd5b8386111561501657600080fd5b5050820193919092039150565b7fffffffff0000000000000000000000000000000000000000000000000000000081358181169160048510156150635780818660040360031b1b83161692505b50509291505056fe416464726573733a206c6f772d6c6576656c2064656c65676174652063616c6c206661696c6564a26469706673582212207a2c991540841bf246128f4f31e6279fd8d7b7a953d8f90f88b314a37f2bf5db64736f6c634300080c0033","linkReferences":{},"deployedLinkReferences":{},"fileHash":"ab276396834ceddbbae0c05d5bdf9217bf7599fbece9a4a20c649c696aaa5da6"}