{"_format":"hh-sol-artifact-1","contractName":"FunWalletFactory","sourceName":"contracts/deployer/FunWalletFactory.sol","abi":[{"inputs":[],"stateMutability":"nonpayable","type":"constructor"},{"inputs":[{"internalType":"bytes","name":"initializerCallData","type":"bytes"},{"internalType":"address","name":"implementation","type":"address"},{"internalType":"bytes32","name":"salt","type":"bytes32"}],"name":"createAccount","outputs":[{"internalType":"contract FunWallet","name":"funWallet","type":"address"}],"stateMutability":"nonpayable","type":"function"},{"inputs":[],"name":"funWalletImpAddress","outputs":[{"internalType":"address","name":"","type":"address"}],"stateMutability":"view","type":"function"},{"inputs":[{"internalType":"bytes32","name":"salt","type":"bytes32"}],"name":"getAddress","outputs":[{"internalType":"address","name":"","type":"address"}],"stateMutability":"view","type":"function"}],"bytecode":"0x60a060405234801561001057600080fd5b5060405161001d9061004b565b604051809103906000f080158015610039573d6000803e3d6000fd5b506001600160a01b0316608052610058565b61533380610d7583390190565b608051610cee61008760003960008181609a01528181610107015281816101e501526102860152610cee6000f3fe608060405234801561001057600080fd5b50600436106100415760003560e01c806321f8a72114610046578063780c11f0146100825780638bb0862014610095575b600080fd5b610059610054366004610388565b6100bc565b60405173ffffffffffffffffffffffffffffffffffffffff909116815260200160405180910390f35b6100596100903660046103a1565b6101ac565b6100597f000000000000000000000000000000000000000000000000000000000000000081565b60006101a682604051806020016100d29061037b565b7fffffffffffffffffffffffffffffffffffffffffffffffffffffffffffffffe082820381018352601f9091011660408181527f000000000000000000000000000000000000000000000000000000000000000073ffffffffffffffffffffffffffffffffffffffff1660208301528082015260006060820152608001604080517fffffffffffffffffffffffffffffffffffffffffffffffffffffffffffffffe08184030181529082905261018b929160200161047e565b6040516020818303038152906040528051906020012061033d565b92915050565b6000806101b8836100bc565b905073ffffffffffffffffffffffffffffffffffffffff81163b80156101e057509050610335565b6000847f00000000000000000000000000000000000000000000000000000000000000006040516102109061037b565b73ffffffffffffffffffffffffffffffffffffffff90911681526040602082018190526000908201526060018190604051809103906000f590508015801561025c573d6000803e3d6000fd5b50935083905073ffffffffffffffffffffffffffffffffffffffff86161561028457856102a6565b7f00000000000000000000000000000000000000000000000000000000000000005b6040517f4192d25100000000000000000000000000000000000000000000000000000000815290965073ffffffffffffffffffffffffffffffffffffffff851690634192d251906102ff9089908c908c90600401610493565b600060405180830381600087803b15801561031957600080fd5b505af115801561032d573d6000803e3d6000fd5b505050505050505b949350505050565b600061034a838330610351565b9392505050565b6000604051836040820152846020820152828152600b8101905060ff815360559020949350505050565b6107bb806104fe83390190565b60006020828403121561039a57600080fd5b5035919050565b600080600080606085870312156103b757600080fd5b843567ffffffffffffffff808211156103cf57600080fd5b818701915087601f8301126103e357600080fd5b8135818111156103f257600080fd5b88602082850101111561040457600080fd5b6020928301965094505085013573ffffffffffffffffffffffffffffffffffffffff8116811461043357600080fd5b9396929550929360400135925050565b6000815160005b81811015610464576020818501810151868301520161044a565b81811115610473576000828601525b509290920192915050565b600061033561048d8386610443565b84610443565b73ffffffffffffffffffffffffffffffffffffffff8416815260406020820152816040820152818360608301376000818301606090810191909152601f9092017fffffffffffffffffffffffffffffffffffffffffffffffffffffffffffffffe01601019291505056fe60806040526040516107bb3803806107bb8339810160408190526100229161031e565b61002e82826000610035565b505061043b565b61003e8361006b565b60008251118061004b5750805b156100665761006483836100ab60201b6100291760201c565b505b505050565b610074816100d7565b6040516001600160a01b038216907fbc7cd75a20ee27fd9adebab32041f755214dbc6bffa90cc0225b39da2e5c2d3b90600090a250565b60606100d08383604051806060016040528060278152602001610794602791396101a9565b9392505050565b6100ea8161022260201b6100551760201c565b6101515760405162461bcd60e51b815260206004820152602d60248201527f455243313936373a206e657720696d706c656d656e746174696f6e206973206e60448201526c1bdd08184818dbdb9d1c9858dd609a1b60648201526084015b60405180910390fd5b806101887f360894a13ba1a3210667c828492db98dca3e2076cc3735a920a3ca505d382bbc60001b61023160201b6100711760201c565b80546001600160a01b0319166001600160a01b039290921691909117905550565b6060600080856001600160a01b0316856040516101c691906103ec565b600060405180830381855af49150503d8060008114610201576040519150601f19603f3d011682016040523d82523d6000602084013e610206565b606091505b50909250905061021886838387610234565b9695505050505050565b6001600160a01b03163b151590565b90565b606083156102a0578251610299576001600160a01b0385163b6102995760405162461bcd60e51b815260206004820152601d60248201527f416464726573733a2063616c6c20746f206e6f6e2d636f6e74726163740000006044820152606401610148565b50816102aa565b6102aa83836102b2565b949350505050565b8151156102c25781518083602001fd5b8060405162461bcd60e51b81526004016101489190610408565b634e487b7160e01b600052604160045260246000fd5b60005b8381101561030d5781810151838201526020016102f5565b838111156100645750506000910152565b6000806040838503121561033157600080fd5b82516001600160a01b038116811461034857600080fd5b60208401519092506001600160401b038082111561036557600080fd5b818501915085601f83011261037957600080fd5b81518181111561038b5761038b6102dc565b604051601f8201601f19908116603f011681019083821181831017156103b3576103b36102dc565b816040528281528860208487010111156103cc57600080fd5b6103dd8360208301602088016102f2565b80955050505050509250929050565b600082516103fe8184602087016102f2565b9190910192915050565b60208152600082518060208401526104278160408501602087016102f2565b601f01601f19169190910160400192915050565b61034a8061044a6000396000f3fe60806040523661001357610011610017565b005b6100115b610027610022610074565b6100b9565b565b606061004e83836040518060600160405280602781526020016102ee602791396100dd565b9392505050565b73ffffffffffffffffffffffffffffffffffffffff163b151590565b90565b60006100b47f360894a13ba1a3210667c828492db98dca3e2076cc3735a920a3ca505d382bbc5473ffffffffffffffffffffffffffffffffffffffff1690565b905090565b3660008037600080366000845af43d6000803e8080156100d8573d6000f35b3d6000fd5b60606000808573ffffffffffffffffffffffffffffffffffffffff16856040516101079190610280565b600060405180830381855af49150503d8060008114610142576040519150601f19603f3d011682016040523d82523d6000602084013e610147565b606091505b509150915061015886838387610162565b9695505050505050565b606083156101fa5782516101f35773ffffffffffffffffffffffffffffffffffffffff85163b6101f3576040517f08c379a000000000000000000000000000000000000000000000000000000000815260206004820152601d60248201527f416464726573733a2063616c6c20746f206e6f6e2d636f6e747261637400000060448201526064015b60405180910390fd5b5081610204565b610204838361020c565b949350505050565b81511561021c5781518083602001fd5b806040517f08c379a00000000000000000000000000000000000000000000000000000000081526004016101ea919061029c565b60005b8381101561026b578181015183820152602001610253565b8381111561027a576000848401525b50505050565b60008251610292818460208701610250565b9190910192915050565b60208152600082518060208401526102bb816040850160208701610250565b601f017fffffffffffffffffffffffffffffffffffffffffffffffffffffffffffffffe016919091016040019291505056fe416464726573733a206c6f772d6c6576656c2064656c65676174652063616c6c206661696c6564a264697066735822122048b4772a345164af1273505ce1226eb0faeacddb6d9cb8aee934363126dcc9de64736f6c634300080c0033416464726573733a206c6f772d6c6576656c2064656c65676174652063616c6c206661696c6564a264697066735822122075bf47e88fc891ae69bdf0b81f0fb93a6edaecf0c160a882b50cf761e6c41d7264736f6c634300080c003360a0604052306080526000805462ff00001916905534801561002057600080fd5b506080516152db610058600039600081816114b201528181611562015281816119ad01528181611a5d0152611ba601526152db6000f3fe6080604052600436106101dc5760003560e01c80635e5d432011610102578063b0d691fe11610095578063cc793fa611610064578063cc793fa614610596578063d06403d6146105b6578063dc7c9848146105d6578063e374e90f146105f657600080fd5b8063b0d691fe14610516578063c0c53b8b14610541578063c399ec8814610561578063c7d763081461057657600080fd5b80638da5cb5b116100d15780638da5cb5b1461049457806399d3fef3146104c15780639cfdf5b6146104e1578063a55e593d146104f657600080fd5b80635e5d4320146103f35780636517579c1461041357806375b238fc146104405780637b8ea0281461047457600080fd5b80633659cfe61161017a5780634f1ef286116101495780634f1ef2861461037e57806352d1902d1461039157806355cd05cc146103a65780635cbf1e6e146103c657600080fd5b80633659cfe6146102d25780633a6e5a0a146102f25780633cb66ec4146103125780634192d2511461035e57600080fd5b80631b71bb6e116101b65780631b71bb6e1461025d57806320d2a20f1461027d5780632ed6fb5d1461029d578063357f7bb0146102bd57600080fd5b8063033183e9146101e85780630825d1fc1461020a57806315577ae21461023d57600080fd5b366101e357005b600080fd5b3480156101f457600080fd5b50610208610203366004614201565b610636565b005b34801561021657600080fd5b5061022a61022536600461425d565b610a45565b6040519081526020015b60405180910390f35b34801561024957600080fd5b506102086102583660046142c4565b610ef9565b34801561026957600080fd5b50610208610278366004614312565b611071565b61029061028b366004614371565b61118d565b6040516102349190614437565b3480156102a957600080fd5b506102086102b836600461444a565b6111e3565b3480156102c957600080fd5b5061022a600481565b3480156102de57600080fd5b506102086102ed366004614312565b61149a565b3480156102fe57600080fd5b5061020861030d3660046144aa565b6116a0565b34801561031e57600080fd5b5060065473ffffffffffffffffffffffffffffffffffffffff165b60405173ffffffffffffffffffffffffffffffffffffffff9091168152602001610234565b34801561036a57600080fd5b50610208610379366004614544565b61188a565b61020861038c3660046145c8565b611995565b34801561039d57600080fd5b5061022a611b8c565b3480156103b257600080fd5b506102086103c1366004614371565b611c78565b3480156103d257600080fd5b506103e66103e13660046146aa565b611cfe565b6040516102349190614712565b3480156103ff57600080fd5b5061020861040e3660046147c5565b611f71565b34801561041f57600080fd5b5061043361042e3660046147c5565b61202e565b60405161023491906147ee565b34801561044c57600080fd5b5061022a7f61646d696e00000000000000000000000000000000000000000000000000000081565b34801561048057600080fd5b5061020861048f366004614312565b612196565b3480156104a057600080fd5b506007546103399073ffffffffffffffffffffffffffffffffffffffff1681565b3480156104cd57600080fd5b506102086104dc36600461444a565b6122b2565b3480156104ed57600080fd5b5061022a60c881565b34801561050257600080fd5b506102086105113660046147c5565b61282e565b34801561052257600080fd5b5060055473ffffffffffffffffffffffffffffffffffffffff16610339565b34801561054d57600080fd5b5061020861055c366004614826565b61294c565b34801561056d57600080fd5b5061022a612e48565b34801561058257600080fd5b50610208610591366004614866565b612ee0565b3480156105a257600080fd5b506102086105b1366004614892565b613013565b3480156105c257600080fd5b506102906105d1366004614312565b61324e565b3480156105e257600080fd5b506102086105f13660046142c4565b613307565b34801561060257600080fd5b506106266106113660046147c5565b60009081526002602052604090205460ff1690565b6040519015158152602001610234565b61063e613464565b836106aa576040517f08c379a000000000000000000000000000000000000000000000000000000000815260206004820152600d60248201527f726f6c6520697320656d7074790000000000000000000000000000000000000060448201526064015b60405180910390fd5b73ffffffffffffffffffffffffffffffffffffffff8316610727576040517f08c379a000000000000000000000000000000000000000000000000000000000815260206004820152601760248201527f6d6f64756c65206164647265737320697320656d70747900000000000000000060448201526064016106a1565b8061078e576040517f08c379a000000000000000000000000000000000000000000000000000000000815260206004820152600f60248201527f72756c65732061726520656d707479000000000000000000000000000000000060448201526064016106a1565b60005b61ffff8116821115610979576000838361ffff84168181106107b5576107b56148c0565b90506020028101906107c791906148ef565b351415610830576040517f08c379a000000000000000000000000000000000000000000000000000000000815260206004820152601560248201527f72756c652068617320656d70747920616374696f6e000000000000000000000060448201526064016106a1565b600083838361ffff16818110610848576108486148c0565b905060200281019061085a91906148ef565b61086890602081019061492d565b9050116108d1576040517f08c379a000000000000000000000000000000000000000000000000000000000815260206004820152601560248201527f72756c652068617320656d70747920746172676574000000000000000000000060448201526064016106a1565b6000838361ffff84168181106108e9576108e96148c0565b90506020028101906108fb91906148ef565b606001351415610967576040517f08c379a000000000000000000000000000000000000000000000000000000000815260206004820152601560248201527f72756c652068617320656d70747920657874656e74000000000000000000000060448201526064016106a1565b8061097181614992565b915050610791565b50604080516020810186905273ffffffffffffffffffffffffffffffffffffffff851681830152815180820383018152606090910190915260005b61ffff8116831115610a3d576004826040516109d091906149db565b908152602001604051809103902084848361ffff168181106109f4576109f46148c0565b9050602002810190610a0691906148ef565b815460018101835560009283526020909220909160040201610a288282614ae8565b50508080610a3590614992565b9150506109b4565b505050505050565b6000610a4f61352f565b6006546040517fa8a2de9300000000000000000000000000000000000000000000000000000000815260009173ffffffffffffffffffffffffffffffffffffffff169063a8a2de9390610aaa90899089908990600401614dec565b602060405180830381865afa158015610ac7573d6000803e3d6000fd5b505050506040513d601f19601f82011682018060405250810190610aeb9190614e2b565b9050610af6816135b0565b6000818152600360209081526040808320815160608101909252805482526001810154919290919083019060ff168015610b3257610b326146cf565b8015610b4057610b406146cf565b8152602001600282018054610b54906149ed565b80601f0160208091040260200160405190810160405280929190818152602001828054610b80906149ed565b8015610bcd5780601f10610ba257610100808354040283529160200191610bcd565b820191906000526020600020905b815481529060010190602001808311610bb057829003601f168201915b505050919092525050600654602083015160408085015190517fd7acc99a00000000000000000000000000000000000000000000000000000000815294955073ffffffffffffffffffffffffffffffffffffffff9092169363d7acc99a9350610c3f92908c908c908c90600401614e44565b602060405180830381865afa158015610c5c573d6000803e3d6000fd5b505050506040513d601f19601f82011682018060405250810190610c809190614e2b565b9250610c8f604088018861492d565b15159050610ca057610ca087613635565b600081600001516040518060400160405280600181526020017f2a00000000000000000000000000000000000000000000000000000000000000815250604051602001610cee929190614ea5565b60405160208183030381529060405290507f61646d696e000000000000000000000000000000000000000000000000000000826000015114158015610d5357506000600482604051610d4091906149db565b9081526040519081900360200190205411155b15610ee557600080610d70610d6b60608c018c61492d565b6136f3565b86519294509250600091905073ffffffffffffffffffffffffffffffffffffffff841660408051602081019390935282015260600160405160208183030381529060405290506000600482604051610dc891906149db565b9081526040519081900360200190205411610e3f576040517f08c379a000000000000000000000000000000000000000000000000000000000815260206004820152601660248201527f75736572206973206e6f7420617574686f72697a65640000000000000000000060448201526064016106a1565b8273ffffffffffffffffffffffffffffffffffffffff166352bd4f4183600484604051610e6c91906149db565b9081526040519081900360200181207fffffffff0000000000000000000000000000000000000000000000000000000060e085901b168252610eb19291600401614ebe565b60006040518083038186803b158015610ec957600080fd5b505afa158015610edd573d6000803e3d6000fd5b505050505050505b610eee85613765565b505050949350505050565b610f01613464565b81610f68576040517f08c379a000000000000000000000000000000000000000000000000000000000815260206004820152600e60248201527f696e76616c69642075736572496400000000000000000000000000000000000060448201526064016106a1565b610f71826135b0565b8035610fd9576040517f08c379a000000000000000000000000000000000000000000000000000000000815260206004820152601360248201527f757365722068617320656d70747920726f6c650000000000000000000000000060448201526064016106a1565b6000610fe8604083018361492d565b905011611051576040517f08c379a000000000000000000000000000000000000000000000000000000000815260206004820152601c60248201527f757365722068617320656d7074792061757468206d657461646174610000000060448201526064016106a1565b6000828152600360205260409020819061106b828261500c565b50505050565b611079613464565b73ffffffffffffffffffffffffffffffffffffffff811661111c576040517f08c379a000000000000000000000000000000000000000000000000000000000815260206004820152603260248201527f66756e2077616c6c65743a206e657720656e74727920706f696e74206164647260448201527f6573732063616e6e6f74206265207a65726f000000000000000000000000000060648201526084016106a1565b600580547fffffffffffffffffffffffff00000000000000000000000000000000000000001673ffffffffffffffffffffffffffffffffffffffff831690811790915560405181907f450909c1478d09248269d4ad4fa8cba61ca3f50faed58c7aedefa51c7f62b83a90600090a350565b60606111976137d0565b6111d8858585858080601f01602080910402602001604051908101604052809392919081815260200183838082843760009201919091525061387992505050565b90505b949350505050565b6111eb613464565b82611252576040517f08c379a000000000000000000000000000000000000000000000000000000000815260206004820152600d60248201527f726f6c6520697320656d7074790000000000000000000000000000000000000060448201526064016106a1565b73ffffffffffffffffffffffffffffffffffffffff82166112cf576040517f08c379a000000000000000000000000000000000000000000000000000000000815260206004820152601760248201527f6d6f64756c65206164647265737320697320656d70747900000000000000000060448201526064016106a1565b8035611337576040517f08c379a000000000000000000000000000000000000000000000000000000000815260206004820152601560248201527f72756c652068617320656d70747920616374696f6e000000000000000000000060448201526064016106a1565b6000611346602083018361492d565b9050116113af576040517f08c379a000000000000000000000000000000000000000000000000000000000815260206004820152601560248201527f72756c652068617320656d70747920746172676574000000000000000000000060448201526064016106a1565b606081013561141a576040517f08c379a000000000000000000000000000000000000000000000000000000000815260206004820152601560248201527f72756c652068617320656d70747920657874656e74000000000000000000000060448201526064016106a1565b604080516020810185905273ffffffffffffffffffffffffffffffffffffffff841681830152815180820383018152606090910190915261145a8161395b565b60048160405161146a91906149db565b9081526040516020918190038201902080546001810182556000918252919020839160040201610a3d8282614ae8565b3073ffffffffffffffffffffffffffffffffffffffff7f0000000000000000000000000000000000000000000000000000000000000000161415611560576040517f08c379a000000000000000000000000000000000000000000000000000000000815260206004820152602c60248201527f46756e6374696f6e206d7573742062652063616c6c6564207468726f7567682060448201527f64656c656761746563616c6c000000000000000000000000000000000000000060648201526084016106a1565b7f000000000000000000000000000000000000000000000000000000000000000073ffffffffffffffffffffffffffffffffffffffff166115d57f360894a13ba1a3210667c828492db98dca3e2076cc3735a920a3ca505d382bbc5473ffffffffffffffffffffffffffffffffffffffff1690565b73ffffffffffffffffffffffffffffffffffffffff1614611678576040517f08c379a000000000000000000000000000000000000000000000000000000000815260206004820152602c60248201527f46756e6374696f6e206d7573742062652063616c6c6564207468726f7567682060448201527f6163746976652070726f7879000000000000000000000000000000000000000060648201526084016106a1565b61168181613a34565b6040805160008082526020820190925261169d91839190613a3c565b50565b6116a8613464565b84831480156116b657508281145b61171c576040517f08c379a000000000000000000000000000000000000000000000000000000000815260206004820152601760248201527f6461746120697320646966666572656e742073697a657300000000000000000060448201526064016106a1565b60005b858110156118815761175383838381811061173c5761173c6148c0565b905060200281019061174e919061492d565b613c3b565b156118795760006117fb88888481811061176f5761176f6148c0565b90506020020160208101906117849190614312565b878785818110611796576117966148c0565b905060200201358686868181106117af576117af6148c0565b90506020028101906117c1919061492d565b8080601f01602080910402602001604051908101604052809392919081815260200183838082843760009201919091525061387992505050565b905080600160008a8a86818110611814576118146148c0565b90506020020160208101906118299190614312565b73ffffffffffffffffffffffffffffffffffffffff1673ffffffffffffffffffffffffffffffffffffffff1681526020019081526020016000209080519060200190611876929190614035565b50505b60010161171f565b50505050505050565b60005462010000900460ff1615611923576040517f08c379a000000000000000000000000000000000000000000000000000000000815260206004820152602260248201527f436f6e74726163742068617320616c7265616479206265656e206465706c6f7960448201527f656400000000000000000000000000000000000000000000000000000000000060648201526084016106a1565b6119638383838080601f01602080910402602001604051908101604052809392919081815260200183838082843760009201829052509250613ca1915050565b5050600080547fffffffffffffffffffffffffffffffffffffffffffffffffffffffffff00ffff166201000017905550565b3073ffffffffffffffffffffffffffffffffffffffff7f0000000000000000000000000000000000000000000000000000000000000000161415611a5b576040517f08c379a000000000000000000000000000000000000000000000000000000000815260206004820152602c60248201527f46756e6374696f6e206d7573742062652063616c6c6564207468726f7567682060448201527f64656c656761746563616c6c000000000000000000000000000000000000000060648201526084016106a1565b7f000000000000000000000000000000000000000000000000000000000000000073ffffffffffffffffffffffffffffffffffffffff16611ad07f360894a13ba1a3210667c828492db98dca3e2076cc3735a920a3ca505d382bbc5473ffffffffffffffffffffffffffffffffffffffff1690565b73ffffffffffffffffffffffffffffffffffffffff1614611b73576040517f08c379a000000000000000000000000000000000000000000000000000000000815260206004820152602c60248201527f46756e6374696f6e206d7573742062652063616c6c6564207468726f7567682060448201527f6163746976652070726f7879000000000000000000000000000000000000000060648201526084016106a1565b611b7c82613a34565b611b8882826001613a3c565b5050565b60003073ffffffffffffffffffffffffffffffffffffffff7f00000000000000000000000000000000000000000000000000000000000000001614611c53576040517f08c379a000000000000000000000000000000000000000000000000000000000815260206004820152603860248201527f555550535570677261646561626c653a206d757374206e6f742062652063616c60448201527f6c6564207468726f7567682064656c656761746563616c6c000000000000000060648201526084016106a1565b507f360894a13ba1a3210667c828492db98dca3e2076cc3735a920a3ca505d382bbc90565b611c80613464565b6000611cc3858585858080601f01602080910402602001604051908101604052809392919081815260200183838082843760009201919091525061387992505050565b73ffffffffffffffffffffffffffffffffffffffff861660009081526001602090815260409091208251929350610a3d929091840190614035565b606082611d67576040517f08c379a000000000000000000000000000000000000000000000000000000000815260206004820152600d60248201527f726f6c6520697320656d7074790000000000000000000000000000000000000060448201526064016106a1565b73ffffffffffffffffffffffffffffffffffffffff8216611de4576040517f08c379a000000000000000000000000000000000000000000000000000000000815260206004820152601760248201527f6d6f64756c65206164647265737320697320656d70747900000000000000000060448201526064016106a1565b604080516020810185905273ffffffffffffffffffffffffffffffffffffffff84168183015281518082038301815260609091019182905290600490611e2b9083906149db565b9081526020016040518091039020805480602002602001604051908101604052809291908181526020016000905b82821015611f64578382906000526020600020906004020160405180608001604052908160008201548152602001600182018054611e96906149ed565b80601f0160208091040260200160405190810160405280929190818152602001828054611ec2906149ed565b8015611f0f5780601f10611ee457610100808354040283529160200191611f0f565b820191906000526020600020905b815481529060010190602001808311611ef257829003601f168201915b5050509183525050600282015460209091019060ff166006811115611f3657611f366146cf565b6006811115611f4757611f476146cf565b815260200160038201548152505081526020019060010190611e59565b5050505091505092915050565b611f79613464565b80611fe0576040517f08c379a000000000000000000000000000000000000000000000000000000000815260206004820152600e60248201527f696e76616c69642075736572496400000000000000000000000000000000000060448201526064016106a1565b60008181526003602052604081208181556001810180547fffffffffffffffffffffffffffffffffffffffffffffffffffffffffffffff001690559061202960028301826140b9565b505050565b60408051606080820183526000808352602083015291810191909152816120b1576040517f08c379a000000000000000000000000000000000000000000000000000000000815260206004820152600e60248201527f696e76616c69642075736572496400000000000000000000000000000000000060448201526064016106a1565b600082815260036020908152604091829020825160608101909352805483526001810154909183019060ff1680156120eb576120eb6146cf565b80156120f9576120f96146cf565b815260200160028201805461210d906149ed565b80601f0160208091040260200160405190810160405280929190818152602001828054612139906149ed565b80156121865780601f1061215b57610100808354040283529160200191612186565b820191906000526020600020905b81548152906001019060200180831161216957829003601f168201915b5050505050815250509050919050565b61219e613464565b73ffffffffffffffffffffffffffffffffffffffff8116612241576040517f08c379a000000000000000000000000000000000000000000000000000000000815260206004820152603260248201527f66756e2077616c6c65743a206e657720656e74727920706f696e74206164647260448201527f6573732063616e6e6f74206265207a65726f000000000000000000000000000060648201526084016106a1565b600680547fffffffffffffffffffffffff00000000000000000000000000000000000000001673ffffffffffffffffffffffffffffffffffffffff831690811790915560405181907f34a5e38fc8fe74f12b269fe92e724092f7f531dc4985c88fb113460cfcb5f67d90600090a350565b6122ba613464565b82612321576040517f08c379a000000000000000000000000000000000000000000000000000000000815260206004820152600d60248201527f726f6c6520697320656d7074790000000000000000000000000000000000000060448201526064016106a1565b73ffffffffffffffffffffffffffffffffffffffff821661239e576040517f08c379a000000000000000000000000000000000000000000000000000000000815260206004820152601760248201527f6d6f64756c65206164647265737320697320656d70747900000000000000000060448201526064016106a1565b8035612406576040517f08c379a000000000000000000000000000000000000000000000000000000000815260206004820152601560248201527f72756c652068617320656d70747920616374696f6e000000000000000000000060448201526064016106a1565b6000612415602083018361492d565b90501161247e576040517f08c379a000000000000000000000000000000000000000000000000000000000815260206004820152601560248201527f72756c652068617320656d70747920746172676574000000000000000000000060448201526064016106a1565b60608101356124e9576040517f08c379a000000000000000000000000000000000000000000000000000000000815260206004820152601560248201527f72756c652068617320656d70747920657874656e74000000000000000000000060448201526064016106a1565b604080516020810185905273ffffffffffffffffffffffffffffffffffffffff84168183015281518082038301815260609091019091526125298161395b565b600060048260405161253b91906149db565b9081526020016040518091039020805480602002602001604051908101604052809291908181526020016000905b828210156126745783829060005260206000209060040201604051806080016040529081600082015481526020016001820180546125a6906149ed565b80601f01602080910402602001604051908101604052809291908181526020018280546125d2906149ed565b801561261f5780601f106125f45761010080835404028352916020019161261f565b820191906000526020600020905b81548152906001019060200180831161260257829003601f168201915b5050509183525050600282015460209091019060ff166006811115612646576126466146cf565b6006811115612657576126576146cf565b815260200160038201548152505081526020019060010190612569565b505050509050600083806020019061268c919061492d565b61269c606087016040880161517c565b86606001356040516020016126b494939291906151b0565b60405160208183030381529060405280519060200120905060005b6004846040516126df91906149db565b9081526040519081900360200190205461ffff82161015611881576000838261ffff1681518110612712576127126148c0565b602002602001015160200151848361ffff1681518110612734576127346148c0565b602002602001015160400151858461ffff1681518110612756576127566148c0565b602002602001015160600151604051602001612774939291906151db565b6040516020818303038152906040528051906020012090508083141561281b576004856040516127a491906149db565b90815260200160405180910390208261ffff16815481106127c7576127c76148c0565b600091825260208220600490910201818155906127e760018301826140b9565b506002810180547fffffffffffffffffffffffffffffffffffffffffffffffffffffffffffffff0016905560006003909101555b508061282681614992565b9150506126cf565b612836613cc6565b804710156128c6576040517f08c379a000000000000000000000000000000000000000000000000000000000815260206004820152602a60248201527f66756e2077616c6c65743a206e6f7420656e6f75676820657468657220696e2060448201527f7468652077616c6c65740000000000000000000000000000000000000000000060648201526084016106a1565b6005546040517fb760faf900000000000000000000000000000000000000000000000000000000815230600482015273ffffffffffffffffffffffffffffffffffffffff9091169063b760faf990602401600060405180830381600087803b15801561293157600080fd5b505af1158015612945573d6000803e3d6000fd5b5050505050565b600054610100900460ff161580801561296c5750600054600160ff909116105b806129865750303b158015612986575060005460ff166001145b612a12576040517f08c379a000000000000000000000000000000000000000000000000000000000815260206004820152602e60248201527f496e697469616c697a61626c653a20636f6e747261637420697320616c72656160448201527f647920696e697469616c697a656400000000000000000000000000000000000060648201526084016106a1565b600080547fffffffffffffffffffffffffffffffffffffffffffffffffffffffffffffff001660011790558015612a7057600080547fffffffffffffffffffffffffffffffffffffffffffffffffffffffffffff00ff166101001790555b73ffffffffffffffffffffffffffffffffffffffff8416612aed576040517f08c379a000000000000000000000000000000000000000000000000000000000815260206004820152601260248201527f496e76616c696420456e747279706f696e74000000000000000000000000000060448201526064016106a1565b6005805473ffffffffffffffffffffffffffffffffffffffff8681167fffffffffffffffffffffffff00000000000000000000000000000000000000009283161790925560068054868416908316179055600780549285169290911682179055604080516060810182527f61646d696e000000000000000000000000000000000000000000000000000000815260006020808301828152845180830187905285518082038401815290860186528486015294825260039052919091208151815591516001838101805493949390917fffffffffffffffffffffffffffffffffffffffffffffffffffffffffffffff0090911690838015612bef57612bef6146cf565b021790555060408201518051612c0f916002840191602090910190614035565b5090505060007f61646d696e0000000000000000000000000000000000000000000000000000006040518060400160405280600181526020017f2a00000000000000000000000000000000000000000000000000000000000000815250604051602001612c7d929190614ea5565b6040516020818303038152906040529050600481604051612c9e91906149db565b908152602001604051809103902060405180608001604052807f2a0000000000000000000000000000000000000000000000000000000000000081526020016040518060400160405280600181526020017f2a000000000000000000000000000000000000000000000000000000000000008152508152602001600680811115612d2a57612d2a6146cf565b81527f2a00000000000000000000000000000000000000000000000000000000000000602091820152825460018181018555600094855293829020835160049092020190815582820151805193949193612d8c93928501929190910190614035565b5060408201516002820180547fffffffffffffffffffffffffffffffffffffffffffffffffffffffffffffff00166001836006811115612dce57612dce6146cf565b021790555060608201518160030155505050801561106b57600080547fffffffffffffffffffffffffffffffffffffffffffffffffffffffffffff00ff169055604051600181527f7f26b83ff96e1f2b6a682f133852f6798a09c465da95921460cefb38474024989060200160405180910390a150505050565b6005546040517f70a0823100000000000000000000000000000000000000000000000000000000815230600482015260009173ffffffffffffffffffffffffffffffffffffffff16906370a0823190602401602060405180830381865afa158015612eb7573d6000803e3d6000fd5b505050506040513d601f19601f82011682018060405250810190612edb9190614e2b565b905090565b612ee8613cc6565b73ffffffffffffffffffffffffffffffffffffffff8216612f8b576040517f08c379a000000000000000000000000000000000000000000000000000000000815260206004820152602b60248201527f66756e2077616c6c65743a20776974686472617720616464726573732063616e60448201527f6e6f74206265207a65726f00000000000000000000000000000000000000000060648201526084016106a1565b6005546040517f205c287800000000000000000000000000000000000000000000000000000000815273ffffffffffffffffffffffffffffffffffffffff8481166004830152602482018490529091169063205c287890604401600060405180830381600087803b158015612fff57600080fd5b505af1158015610a3d573d6000803e3d6000fd5b61301b613464565b73ffffffffffffffffffffffffffffffffffffffff81166130be576040517f08c379a000000000000000000000000000000000000000000000000000000000815260206004820152602d60248201527f66756e2077616c6c65743a206e6577206d6f64756c652061646472657373206360448201527f616e6e6f74206265207a65726f0000000000000000000000000000000000000060648201526084016106a1565b8173ffffffffffffffffffffffffffffffffffffffff168173ffffffffffffffffffffffffffffffffffffffff16141561317a576040517f08c379a000000000000000000000000000000000000000000000000000000000815260206004820152603e60248201527f66756e2077616c6c65743a206e6577206d6f64756c652061646472657373206360448201527f616e6e6f7420626520657175616c20746f2070726576696f7573206f6e65000060648201526084016106a1565b73ffffffffffffffffffffffffffffffffffffffff8083166000908152600160205260408082209284168252902081549091906131b6906149ed565b6131c19291906140f3565b5073ffffffffffffffffffffffffffffffffffffffff821660009081526001602052604081206131f0916140b9565b8073ffffffffffffffffffffffffffffffffffffffff168273ffffffffffffffffffffffffffffffffffffffff167fdcbf4cc8a7afc3fe6e403a57745b98188844fdfee49c8752ae30fc46b3a39ebb60405160405180910390a35050565b73ffffffffffffffffffffffffffffffffffffffff81166000908152600160205260409020805460609190613282906149ed565b80601f01602080910402602001604051908101604052809291908181526020018280546132ae906149ed565b80156132fb5780601f106132d0576101008083540402835291602001916132fb565b820191906000526020600020905b8154815290600101906020018083116132de57829003601f168201915b50505050509050919050565b61330f613464565b81613376576040517f08c379a000000000000000000000000000000000000000000000000000000000815260206004820152600e60248201527f696e76616c69642075736572496400000000000000000000000000000000000060448201526064016106a1565b60008281526003602052604081206002018054613392906149ed565b905011156133fc576040517f08c379a000000000000000000000000000000000000000000000000000000000815260206004820152601360248201527f7573657220616c7265616479206578697374730000000000000000000000000060448201526064016106a1565b8035610fd9576040517f08c379a000000000000000000000000000000000000000000000000000000000815260206004820152601460248201527f757365722068617320656d70747920726f6c657300000000000000000000000060448201526064016106a1565b60055473ffffffffffffffffffffffffffffffffffffffff163314806134a1575060075473ffffffffffffffffffffffffffffffffffffffff1633145b61352d576040517f08c379a000000000000000000000000000000000000000000000000000000000815260206004820152602860248201527f66756e2077616c6c65743a206e6f742066726f6d20456e747279506f696e742060448201527f6f72206f776e657200000000000000000000000000000000000000000000000060648201526084016106a1565b565b60055473ffffffffffffffffffffffffffffffffffffffff16331461352d576040517f08c379a000000000000000000000000000000000000000000000000000000000815260206004820152601f60248201527f66756e2077616c6c65743a206e6f742066726f6d20456e747279506f696e740060448201526064016106a1565b600081815260036020526040812060020180546135cc906149ed565b90501161169d576040517f08c379a000000000000000000000000000000000000000000000000000000000815260206004820152601f60248201527f66756e2077616c6c65743a207573657220646f6573206e6f742065786973740060448201526064016106a1565b60208082013560009081526002909152604090205460ff16156136b4576040517f08c379a000000000000000000000000000000000000000000000000000000000815260206004820152601960248201527f66756e2077616c6c65743a20696e76616c6964206e6f6e63650000000000000060448201526064016106a1565b602090810135600090815260029091526040902080547fffffffffffffffffffffffffffffffffffffffffffffffffffffffffffffff00166001179055565b6000806060613705846004818861520c565b8101906137129190614866565b90935091506137248460c8818861520c565b8080601f0160208091040260200160405190810160405280939291908181526020018383808284376000920191909152509598949750919550929350505050565b801561169d5760405160009033907fffffffffffffffffffffffffffffffffffffffffffffffffffffffffffffffff90849084818181858888f193505050503d8060008114612945576040519150601f19603f3d011682016040523d82523d6000602084013e612945565b33600090815260016020526040812080546137ea906149ed565b90501161352d576040517f08c379a000000000000000000000000000000000000000000000000000000000815260206004820152602360248201527f66756e2077616c6c65743a206e6f742066726f6d2061206b6e6f776e204d6f6460448201527f756c65000000000000000000000000000000000000000000000000000000000060648201526084016106a1565b60606000808573ffffffffffffffffffffffffffffffffffffffff1685856040516138a491906149db565b60006040518083038185875af1925050503d80600081146138e1576040519150601f19603f3d011682016040523d82523d6000602084013e6138e6565b606091505b509150915081613952576040517f08c379a000000000000000000000000000000000000000000000000000000000815260206004820181905260248201527f66756e2077616c6c65743a2065787465726e616c2063616c6c206661696c656460448201526064016106a1565b95945050505050565b600060048260405161396d91906149db565b908152604051908190036020019020541180156139ce57506040516000906004906139999084906149db565b90815260200160405180910390206000815481106139b9576139b96148c0565b90600052602060002090600402016000015414155b61169d576040517f08c379a000000000000000000000000000000000000000000000000000000000815260206004820152601f60248201527f66756e2077616c6c65743a20726f6c6520646f6573206e6f742065786973740060448201526064016106a1565b61169d613464565b7f4910fdfa16fed3260ed0e7147f7cc6da11a60208b5b9406d12a635614ffd91435460ff1615613a6f5761202983613d51565b8273ffffffffffffffffffffffffffffffffffffffff166352d1902d6040518163ffffffff1660e01b8152600401602060405180830381865afa925050508015613af4575060408051601f3d9081017fffffffffffffffffffffffffffffffffffffffffffffffffffffffffffffffe0168201909252613af191810190614e2b565b60015b613b80576040517f08c379a000000000000000000000000000000000000000000000000000000000815260206004820152602e60248201527f45524331393637557067726164653a206e657720696d706c656d656e7461746960448201527f6f6e206973206e6f74205555505300000000000000000000000000000000000060648201526084016106a1565b7f360894a13ba1a3210667c828492db98dca3e2076cc3735a920a3ca505d382bbc8114613c2f576040517f08c379a000000000000000000000000000000000000000000000000000000000815260206004820152602960248201527f45524331393637557067726164653a20756e737570706f727465642070726f7860448201527f6961626c6555554944000000000000000000000000000000000000000000000060648201526084016106a1565b50612029838383613ca1565b600080613c4b600482858761520c565b613c5491615236565b7fffffffff00000000000000000000000000000000000000000000000000000000167f4ddf47d4000000000000000000000000000000000000000000000000000000001491505092915050565b613caa83613e5b565b600082511180613cb75750805b156120295761106b8383613ea8565b60075473ffffffffffffffffffffffffffffffffffffffff16331480613ceb57503330145b61352d576040517f08c379a000000000000000000000000000000000000000000000000000000000815260206004820152601a60248201527f66756e2077616c6c65743a206e6f742066726f6d204f776e657200000000000060448201526064016106a1565b73ffffffffffffffffffffffffffffffffffffffff81163b613df5576040517f08c379a000000000000000000000000000000000000000000000000000000000815260206004820152602d60248201527f455243313936373a206e657720696d706c656d656e746174696f6e206973206e60448201527f6f74206120636f6e74726163740000000000000000000000000000000000000060648201526084016106a1565b7f360894a13ba1a3210667c828492db98dca3e2076cc3735a920a3ca505d382bbc80547fffffffffffffffffffffffff00000000000000000000000000000000000000001673ffffffffffffffffffffffffffffffffffffffff92909216919091179055565b613e6481613d51565b60405173ffffffffffffffffffffffffffffffffffffffff8216907fbc7cd75a20ee27fd9adebab32041f755214dbc6bffa90cc0225b39da2e5c2d3b90600090a250565b6060613ecd838360405180606001604052806027815260200161527f60279139613ed4565b9392505050565b60606000808573ffffffffffffffffffffffffffffffffffffffff1685604051613efe91906149db565b600060405180830381855af49150503d8060008114613f39576040519150601f19603f3d011682016040523d82523d6000602084013e613f3e565b606091505b5091509150613f4f86838387613f59565b9695505050505050565b60608315613fec578251613fe55773ffffffffffffffffffffffffffffffffffffffff85163b613fe5576040517f08c379a000000000000000000000000000000000000000000000000000000000815260206004820152601d60248201527f416464726573733a2063616c6c20746f206e6f6e2d636f6e747261637400000060448201526064016106a1565b50816111db565b6111db83838151156140015781518083602001fd5b806040517f08c379a00000000000000000000000000000000000000000000000000000000081526004016106a19190614437565b828054614041906149ed565b90600052602060002090601f01602090048101928261406357600085556140a9565b82601f1061407c57805160ff19168380011785556140a9565b828001600101855582156140a9579182015b828111156140a957825182559160200191906001019061408e565b506140b592915061416e565b5090565b5080546140c5906149ed565b6000825580601f106140d5575050565b601f01602090049060005260206000209081019061169d919061416e565b8280546140ff906149ed565b90600052602060002090601f01602090048101928261412157600085556140a9565b82601f1061413257805485556140a9565b828001600101855582156140a957600052602060002091601f016020900482015b828111156140a9578254825591600101919060010190614153565b5b808211156140b5576000815560010161416f565b73ffffffffffffffffffffffffffffffffffffffff8116811461169d57600080fd5b80356141b081614183565b919050565b60008083601f8401126141c757600080fd5b50813567ffffffffffffffff8111156141df57600080fd5b6020830191508360208260051b85010111156141fa57600080fd5b9250929050565b6000806000806060858703121561421757600080fd5b84359350602085013561422981614183565b9250604085013567ffffffffffffffff81111561424557600080fd5b614251878288016141b5565b95989497509550505050565b6000806000806080858703121561427357600080fd5b843567ffffffffffffffff81111561428a57600080fd5b8501610160818803121561429d57600080fd5b93506020850135925060408501356142b481614183565b9396929550929360600135925050565b600080604083850312156142d757600080fd5b82359150602083013567ffffffffffffffff8111156142f557600080fd5b83016060818603121561430757600080fd5b809150509250929050565b60006020828403121561432457600080fd5b8135613ecd81614183565b60008083601f84011261434157600080fd5b50813567ffffffffffffffff81111561435957600080fd5b6020830191508360208285010111156141fa57600080fd5b6000806000806060858703121561438757600080fd5b843561439281614183565b935060208501359250604085013567ffffffffffffffff8111156143b557600080fd5b6142518782880161432f565b60005b838110156143dc5781810151838201526020016143c4565b8381111561106b5750506000910152565b600081518084526144058160208601602086016143c1565b601f017fffffffffffffffffffffffffffffffffffffffffffffffffffffffffffffffe0169290920160200192915050565b602081526000613ecd60208301846143ed565b60008060006060848603121561445f57600080fd5b83359250602084013561447181614183565b9150604084013567ffffffffffffffff81111561448d57600080fd5b84016080818703121561449f57600080fd5b809150509250925092565b600080600080600080606087890312156144c357600080fd5b863567ffffffffffffffff808211156144db57600080fd5b6144e78a838b016141b5565b9098509650602089013591508082111561450057600080fd5b61450c8a838b016141b5565b9096509450604089013591508082111561452557600080fd5b5061453289828a016141b5565b979a9699509497509295939492505050565b60008060006040848603121561455957600080fd5b833561456481614183565b9250602084013567ffffffffffffffff81111561458057600080fd5b61458c8682870161432f565b9497909650939450505050565b7f4e487b7100000000000000000000000000000000000000000000000000000000600052604160045260246000fd5b600080604083850312156145db57600080fd5b82356145e681614183565b9150602083013567ffffffffffffffff8082111561460357600080fd5b818501915085601f83011261461757600080fd5b81358181111561462957614629614599565b604051601f82017fffffffffffffffffffffffffffffffffffffffffffffffffffffffffffffffe0908116603f0116810190838211818310171561466f5761466f614599565b8160405282815288602084870101111561468857600080fd5b8260208601602083013760006020848301015280955050505050509250929050565b600080604083850312156146bd57600080fd5b82359150602083013561430781614183565b7f4e487b7100000000000000000000000000000000000000000000000000000000600052602160045260246000fd5b6007811061470e5761470e6146cf565b9052565b60006020808301818452808551808352604092508286019150828160051b87010184880160005b838110156147b7577fffffffffffffffffffffffffffffffffffffffffffffffffffffffffffffffc0898403018552815160808151855288820151818a870152614785828701826143ed565b91505087820151614798898701826146fe565b5060609182015194909101939093529386019390860190600101614739565b509098975050505050505050565b6000602082840312156147d757600080fd5b5035919050565b6001811061470e5761470e6146cf565b60208152815160208201526000602083015161480d60408401826147de565b5060408301516060808401526111db60808401826143ed565b60008060006060848603121561483b57600080fd5b833561484681614183565b9250602084013561485681614183565b9150604084013561449f81614183565b6000806040838503121561487957600080fd5b823561488481614183565b946020939093013593505050565b600080604083850312156148a557600080fd5b82356148b081614183565b9150602083013561430781614183565b7f4e487b7100000000000000000000000000000000000000000000000000000000600052603260045260246000fd5b600082357fffffffffffffffffffffffffffffffffffffffffffffffffffffffffffffff8183360301811261492357600080fd5b9190910192915050565b60008083357fffffffffffffffffffffffffffffffffffffffffffffffffffffffffffffffe184360301811261496257600080fd5b83018035915067ffffffffffffffff82111561497d57600080fd5b6020019150368190038213156141fa57600080fd5b600061ffff808316818114156149d1577f4e487b7100000000000000000000000000000000000000000000000000000000600052601160045260246000fd5b6001019392505050565b600082516149238184602087016143c1565b600181811c90821680614a0157607f821691505b60208210811415614a3b577f4e487b7100000000000000000000000000000000000000000000000000000000600052602260045260246000fd5b50919050565b601f82111561202957600081815260208120601f850160051c81016020861015614a685750805b601f850160051c820191505b81811015610a3d57828155600101614a74565b6007811061169d57600080fd5b60008135614aa181614a87565b92915050565b60078210614ab757614ab76146cf565b7fffffffffffffffffffffffffffffffffffffffffffffffffffffffffffffff0081541660ff831681178255505050565b8135815560018082016020614aff8186018661492d565b67ffffffffffffffff811115614b1757614b17614599565b614b2b81614b2586546149ed565b86614a41565b6000601f821160018114614b7d5760008315614b475750838201355b7fffffffffffffffffffffffffffffffffffffffffffffffffffffffffffffffff600385901b1c1916600184901b178655614c0e565b6000868152602090207fffffffffffffffffffffffffffffffffffffffffffffffffffffffffffffffe0841690835b82811015614bc95786850135825593870193908901908701614bac565b5084821015614c04577fffffffffffffffffffffffffffffffffffffffffffffffffffffffffffffffff60f88660031b161c19848701351681555b50508683881b0186555b50505050505050614c2d614c2460408401614a94565b60028301614aa7565b606082013560038201555050565b60008083357fffffffffffffffffffffffffffffffffffffffffffffffffffffffffffffffe1843603018112614c7057600080fd5b830160208101925035905067ffffffffffffffff811115614c9057600080fd5b8036038313156141fa57600080fd5b8183528181602085013750600060208284010152600060207fffffffffffffffffffffffffffffffffffffffffffffffffffffffffffffffe0601f840116840101905092915050565b6000610160614d1484614cfa856141a5565b73ffffffffffffffffffffffffffffffffffffffff169052565b60208301356020850152614d2b6040840184614c3b565b826040870152614d3e8387018284614c9f565b92505050614d4f6060840184614c3b565b8583036060870152614d62838284614c9f565b925050506080830135608085015260a083013560a085015260c083013560c085015260e083013560e0850152610100808401358186015250610120614da981850185614c3b565b86840383880152614dbb848284614c9f565b9350505050610140614dcf81850185614c3b565b86840383880152614de1848284614c9f565b979650505050505050565b606081526000614dff6060830186614ce8565b905083602083015273ffffffffffffffffffffffffffffffffffffffff83166040830152949350505050565b600060208284031215614e3d57600080fd5b5051919050565b614e4e81876147de565b60a060208201526000614e6460a08301876143ed565b8281036040840152614e768187614ce8565b91505083606083015273ffffffffffffffffffffffffffffffffffffffff831660808301529695505050505050565b8281526040602082015260006111db60408301846143ed565b60006040808352614ed1818401866143ed565b6020848203818601528186548084528284019150828160051b8501016000898152848120815b84811015614ffb577fffffffffffffffffffffffffffffffffffffffffffffffffffffffffffffffe08885030186526080825485526001808401828a880152858154614f42816149ed565b94890185905260a0948185168015614f615760018114614f9357614fbe565b7fffffffffffffffffffffffffffffffffffffffffffffffffffffffffffffff008316878c015260c08b019350614fbe565b848a528d8a208a5b83811015614fb65781548d82018a0152908701908f01614f9b565b8c0188019450505b505050600286015460ff169350614fd78d8901856146fe565b60038601546060989098019790975250505094860194600490910190600101614ef7565b50919b9a5050505050505050505050565b81358155600180820160208085013583811061502757600080fd5b7fffffffffffffffffffffffffffffffffffffffffffffffffffffffffffffff0083541660ff8216811784555050600284019150615068604086018661492d565b67ffffffffffffffff81111561508057615080614599565b61508e81614b2586546149ed565b6000601f8211600181146150e057600083156150aa5750838201355b7fffffffffffffffffffffffffffffffffffffffffffffffffffffffffffffffff600385901b1c1916600184901b178655615171565b6000868152602090207fffffffffffffffffffffffffffffffffffffffffffffffffffffffffffffffe0841690835b8281101561512c578685013582559387019390890190870161510f565b5084821015615167577fffffffffffffffffffffffffffffffffffffffffffffffffffffffffffffffff60f88660031b161c19848701351681555b50508683881b0186555b505050505050505050565b60006020828403121561518e57600080fd5b8135613ecd81614a87565b600781106151a9576151a96146cf565b60f81b9052565b838582376000848201600081526151c78186615199565b600181019390935250506021019392505050565b600084516151ed8184602089016143c1565b82016151f98186615199565b6001810193909352505060210192915050565b6000808585111561521c57600080fd5b8386111561522957600080fd5b5050820193919092039150565b7fffffffff0000000000000000000000000000000000000000000000000000000081358181169160048510156152765780818660040360031b1b83161692505b50509291505056fe416464726573733a206c6f772d6c6576656c2064656c65676174652063616c6c206661696c6564a264697066735822122041890d436b8c43a3d11f5df3b9363f0f2bf7c7b81285f387cfdf67f9d2de10c564736f6c634300080c0033","linkReferences":{},"deployedLinkReferences":{},"fileHash":"b45bfe6c0c4dd8a9bd071374d85a03955ba9b104480ac687f57a21a99a2c2aae"}