{"_format":"hh-sol-artifact-1","contractName":"FunWallet","sourceName":"contracts/FunWallet.sol","abi":[{"anonymous":false,"inputs":[{"indexed":false,"internalType":"address","name":"previousAdmin","type":"address"},{"indexed":false,"internalType":"address","name":"newAdmin","type":"address"}],"name":"AdminChanged","type":"event"},{"anonymous":false,"inputs":[{"indexed":true,"internalType":"address","name":"beacon","type":"address"}],"name":"BeaconUpgraded","type":"event"},{"anonymous":false,"inputs":[{"indexed":true,"internalType":"address","name":"oldEntryPoint","type":"address"},{"indexed":true,"internalType":"address","name":"newEntryPoint","type":"address"}],"name":"EntryPointChanged","type":"event"},{"anonymous":false,"inputs":[{"indexed":false,"internalType":"uint8","name":"version","type":"uint8"}],"name":"Initialized","type":"event"},{"anonymous":false,"inputs":[{"indexed":true,"internalType":"address","name":"oldModuleAddr","type":"address"},{"indexed":true,"internalType":"address","name":"newModuleAddr","type":"address"}],"name":"ModuleAddrChanged","type":"event"},{"anonymous":false,"inputs":[{"indexed":true,"internalType":"address","name":"implementation","type":"address"}],"name":"Upgraded","type":"event"},{"anonymous":false,"inputs":[{"indexed":true,"internalType":"address","name":"oldUserAuthenticationAddr","type":"address"},{"indexed":true,"internalType":"address","name":"newUserAuthenticationAddr","type":"address"}],"name":"UserAuthenticationAddrChanged","type":"event"},{"inputs":[],"name":"ADMIN_ROLE","outputs":[{"internalType":"bytes32","name":"","type":"bytes32"}],"stateMutability":"view","type":"function"},{"inputs":[],"name":"CALL_DATA_OFFSET","outputs":[{"internalType":"uint256","name":"","type":"uint256"}],"stateMutability":"view","type":"function"},{"inputs":[],"name":"METHOD_SIGNATURE_OFFSET","outputs":[{"internalType":"uint256","name":"","type":"uint256"}],"stateMutability":"view","type":"function"},{"inputs":[{"internalType":"bytes32","name":"role","type":"bytes32"},{"internalType":"address","name":"moduleAddr","type":"address"},{"components":[{"internalType":"bytes32","name":"action","type":"bytes32"},{"internalType":"bytes","name":"target","type":"bytes"},{"internalType":"enum Keyword","name":"keyword","type":"uint8"},{"internalType":"bytes32","name":"extent","type":"bytes32"}],"internalType":"struct Rule","name":"rule","type":"tuple"}],"name":"attachRuleToRole","outputs":[],"stateMutability":"nonpayable","type":"function"},{"inputs":[{"internalType":"uint256","name":"nonce","type":"uint256"}],"name":"checkNonce","outputs":[{"internalType":"bool","name":"","type":"bool"}],"stateMutability":"view","type":"function"},{"inputs":[{"internalType":"bytes32","name":"role","type":"bytes32"},{"internalType":"address","name":"moduleAddr","type":"address"},{"components":[{"internalType":"bytes32","name":"action","type":"bytes32"},{"internalType":"bytes","name":"target","type":"bytes"},{"internalType":"enum Keyword","name":"keyword","type":"uint8"},{"internalType":"bytes32","name":"extent","type":"bytes32"}],"internalType":"struct Rule[]","name":"rules","type":"tuple[]"}],"name":"createRole","outputs":[],"stateMutability":"nonpayable","type":"function"},{"inputs":[{"internalType":"bytes32","name":"userId","type":"bytes32"},{"components":[{"internalType":"bytes32","name":"role","type":"bytes32"},{"internalType":"enum AuthType","name":"authType","type":"uint8"},{"internalType":"bytes","name":"authMetadata","type":"bytes"}],"internalType":"struct IFunWallet.UserMetadata","name":"userMetadata","type":"tuple"}],"name":"createUser","outputs":[],"stateMutability":"nonpayable","type":"function"},{"inputs":[{"internalType":"bytes32","name":"userId","type":"bytes32"}],"name":"deleteUser","outputs":[],"stateMutability":"nonpayable","type":"function"},{"inputs":[{"internalType":"uint256","name":"amount","type":"uint256"}],"name":"depositToEntryPoint","outputs":[],"stateMutability":"nonpayable","type":"function"},{"inputs":[],"name":"entryPoint","outputs":[{"internalType":"contract IEntryPoint","name":"","type":"address"}],"stateMutability":"view","type":"function"},{"inputs":[{"internalType":"address[]","name":"dests","type":"address[]"},{"internalType":"uint256[]","name":"values","type":"uint256[]"},{"internalType":"bytes[]","name":"data","type":"bytes[]"}],"name":"execBatchInit","outputs":[],"stateMutability":"nonpayable","type":"function"},{"inputs":[{"internalType":"address","name":"dest","type":"address"},{"internalType":"uint256","name":"value","type":"uint256"},{"internalType":"bytes","name":"data","type":"bytes"}],"name":"execFromEntryPointOrOwner","outputs":[],"stateMutability":"nonpayable","type":"function"},{"inputs":[{"internalType":"address","name":"dest","type":"address"},{"internalType":"uint256","name":"value","type":"uint256"},{"internalType":"bytes","name":"data","type":"bytes"}],"name":"execFromModule","outputs":[{"internalType":"bytes","name":"","type":"bytes"}],"stateMutability":"payable","type":"function"},{"inputs":[],"name":"getDeposit","outputs":[{"internalType":"uint256","name":"","type":"uint256"}],"stateMutability":"view","type":"function"},{"inputs":[{"internalType":"address","name":"moduleAddr","type":"address"}],"name":"getModuleStateVal","outputs":[{"internalType":"bytes","name":"","type":"bytes"}],"stateMutability":"view","type":"function"},{"inputs":[{"internalType":"bytes32","name":"role","type":"bytes32"},{"internalType":"address","name":"moduleAddr","type":"address"}],"name":"getRulesOfRole","outputs":[{"components":[{"internalType":"bytes32","name":"action","type":"bytes32"},{"internalType":"bytes","name":"target","type":"bytes"},{"internalType":"enum Keyword","name":"keyword","type":"uint8"},{"internalType":"bytes32","name":"extent","type":"bytes32"}],"internalType":"struct Rule[]","name":"","type":"tuple[]"}],"stateMutability":"view","type":"function"},{"inputs":[{"internalType":"bytes32","name":"userId","type":"bytes32"}],"name":"getUser","outputs":[{"components":[{"internalType":"bytes32","name":"role","type":"bytes32"},{"internalType":"enum AuthType","name":"authType","type":"uint8"},{"internalType":"bytes","name":"authMetadata","type":"bytes"}],"internalType":"struct IFunWallet.UserMetadata","name":"","type":"tuple"}],"stateMutability":"view","type":"function"},{"inputs":[{"internalType":"address","name":"_entryPointAddr","type":"address"},{"internalType":"address","name":"_userAuthAddr","type":"address"},{"internalType":"address","name":"_owner","type":"address"}],"name":"initialize","outputs":[],"stateMutability":"nonpayable","type":"function"},{"inputs":[],"name":"owner","outputs":[{"internalType":"address","name":"","type":"address"}],"stateMutability":"view","type":"function"},{"inputs":[],"name":"proxiableUUID","outputs":[{"internalType":"bytes32","name":"","type":"bytes32"}],"stateMutability":"view","type":"function"},{"inputs":[{"internalType":"bytes32","name":"role","type":"bytes32"},{"internalType":"address","name":"moduleAddr","type":"address"},{"components":[{"internalType":"bytes32","name":"action","type":"bytes32"},{"internalType":"bytes","name":"target","type":"bytes"},{"internalType":"enum Keyword","name":"keyword","type":"uint8"},{"internalType":"bytes32","name":"extent","type":"bytes32"}],"internalType":"struct Rule","name":"rule","type":"tuple"}],"name":"removeRuleFromRole","outputs":[],"stateMutability":"nonpayable","type":"function"},{"inputs":[{"internalType":"address","name":"newImplementation","type":"address"},{"internalType":"bytes","name":"initializerCallData","type":"bytes"}],"name":"setImplementationOnDeployment","outputs":[],"stateMutability":"nonpayable","type":"function"},{"inputs":[{"internalType":"address","name":"_newEntryPoint","type":"address"}],"name":"updateEntryPoint","outputs":[],"stateMutability":"nonpayable","type":"function"},{"inputs":[{"internalType":"address","name":"oldModuleAddr","type":"address"},{"internalType":"address","name":"newModuleAddr","type":"address"}],"name":"updateModuleAddr","outputs":[],"stateMutability":"nonpayable","type":"function"},{"inputs":[{"internalType":"bytes32","name":"userId","type":"bytes32"},{"components":[{"internalType":"bytes32","name":"role","type":"bytes32"},{"internalType":"enum AuthType","name":"authType","type":"uint8"},{"internalType":"bytes","name":"authMetadata","type":"bytes"}],"internalType":"struct IFunWallet.UserMetadata","name":"userMetadata","type":"tuple"}],"name":"updateUser","outputs":[],"stateMutability":"nonpayable","type":"function"},{"inputs":[{"internalType":"address","name":"_newUserAuthentication","type":"address"}],"name":"updateUserAuthentication","outputs":[],"stateMutability":"nonpayable","type":"function"},{"inputs":[{"internalType":"address","name":"newImplementation","type":"address"}],"name":"upgradeTo","outputs":[],"stateMutability":"nonpayable","type":"function"},{"inputs":[{"internalType":"address","name":"newImplementation","type":"address"},{"internalType":"bytes","name":"data","type":"bytes"}],"name":"upgradeToAndCall","outputs":[],"stateMutability":"payable","type":"function"},{"inputs":[],"name":"userAuthentication","outputs":[{"internalType":"contract UserAuthentication","name":"","type":"address"}],"stateMutability":"view","type":"function"},{"inputs":[{"components":[{"internalType":"address","name":"sender","type":"address"},{"internalType":"uint256","name":"nonce","type":"uint256"},{"internalType":"bytes","name":"initCode","type":"bytes"},{"internalType":"bytes","name":"callData","type":"bytes"},{"internalType":"uint256","name":"callGasLimit","type":"uint256"},{"internalType":"uint256","name":"verificationGasLimit","type":"uint256"},{"internalType":"uint256","name":"preVerificationGas","type":"uint256"},{"internalType":"uint256","name":"maxFeePerGas","type":"uint256"},{"internalType":"uint256","name":"maxPriorityFeePerGas","type":"uint256"},{"internalType":"bytes","name":"paymasterAndData","type":"bytes"},{"internalType":"bytes","name":"signature","type":"bytes"}],"internalType":"struct UserOperation","name":"userOp","type":"tuple"},{"internalType":"bytes32","name":"userOpHash","type":"bytes32"},{"internalType":"uint256","name":"missingAccountFunds","type":"uint256"}],"name":"validateUserOp","outputs":[{"internalType":"uint256","name":"sigTimeRange","type":"uint256"}],"stateMutability":"nonpayable","type":"function"},{"inputs":[{"internalType":"address payable","name":"withdrawAddress","type":"address"},{"internalType":"uint256","name":"amount","type":"uint256"}],"name":"withdrawFromEntryPoint","outputs":[],"stateMutability":"nonpayable","type":"function"},{"stateMutability":"payable","type":"receive"}],"bytecode":"0x60a0604052306080526000805462ff00001916905534801561002057600080fd5b50608051615422610058600039600081816110920152818161114201528181611a3c01528181611aec0152611c3501526154226000f3fe6080604052600436106101dc5760003560e01c80635e5d432011610102578063b0d691fe11610095578063cc793fa611610064578063cc793fa61461059a578063d06403d6146105ba578063dc7c9848146105da578063e374e90f146105fa57600080fd5b8063b0d691fe1461051a578063c0c53b8b14610545578063c399ec8814610565578063c7d763081461057a57600080fd5b80638da5cb5b116100d15780638da5cb5b1461049857806399d3fef3146104c55780639cfdf5b6146104e5578063a55e593d146104fa57600080fd5b80635e5d4320146103f75780636517579c1461041757806375b238fc146104445780637b8ea0281461047857600080fd5b80633a6e5a0a1161017a5780634f1ef286116101495780634f1ef2861461038257806352d1902d1461039557806355cd05cc146103aa5780635cbf1e6e146103ca57600080fd5b80633a6e5a0a146102d65780633a871cdd146102f65780633cb66ec4146103165780634192d2511461036257600080fd5b806320d2a20f116101b657806320d2a20f1461024a5780632ed6fb5d14610273578063357f7bb0146102935780633659cfe6146102b657600080fd5b8063033183e9146101e857806315577ae21461020a5780631b71bb6e1461022a57600080fd5b366101e357005b600080fd5b3480156101f457600080fd5b50610208610203366004614347565b61063a565b005b34801561021657600080fd5b506102086102253660046143a3565b610ad9565b34801561023657600080fd5b506102086102453660046143f1565b610c51565b61025d610258366004614450565b610d6d565b60405161026a9190614516565b60405180910390f35b34801561027f57600080fd5b5061020861028e366004614529565b610dc3565b34801561029f57600080fd5b506102a8600481565b60405190815260200161026a565b3480156102c257600080fd5b506102086102d13660046143f1565b61107a565b3480156102e257600080fd5b506102086102f1366004614589565b611280565b34801561030257600080fd5b506102a8610311366004614623565b61146a565b34801561032257600080fd5b5060065473ffffffffffffffffffffffffffffffffffffffff165b60405173ffffffffffffffffffffffffffffffffffffffff909116815260200161026a565b34801561036e57600080fd5b5061020861037d366004614677565b611919565b6102086103903660046146fb565b611a24565b3480156103a157600080fd5b506102a8611c1b565b3480156103b657600080fd5b506102086103c5366004614450565b611d07565b3480156103d657600080fd5b506103ea6103e53660046147dd565b611d8d565b60405161026a9190614845565b34801561040357600080fd5b506102086104123660046148f8565b612000565b34801561042357600080fd5b506104376104323660046148f8565b6120bd565b60405161026a9190614921565b34801561045057600080fd5b506102a87f61646d696e00000000000000000000000000000000000000000000000000000081565b34801561048457600080fd5b506102086104933660046143f1565b612225565b3480156104a457600080fd5b5060075461033d9073ffffffffffffffffffffffffffffffffffffffff1681565b3480156104d157600080fd5b506102086104e0366004614529565b612341565b3480156104f157600080fd5b506102a860c881565b34801561050657600080fd5b506102086105153660046148f8565b6129c4565b34801561052657600080fd5b5060055473ffffffffffffffffffffffffffffffffffffffff1661033d565b34801561055157600080fd5b50610208610560366004614959565b612ae2565b34801561057157600080fd5b506102a8612fde565b34801561058657600080fd5b50610208610595366004614999565b613076565b3480156105a657600080fd5b506102086105b53660046149c5565b6131a9565b3480156105c657600080fd5b5061025d6105d53660046143f1565b6133e4565b3480156105e657600080fd5b506102086105f53660046143a3565b61349d565b34801561060657600080fd5b5061062a6106153660046148f8565b60009081526002602052604090205460ff1690565b604051901515815260200161026a565b6106426135fa565b836106ae576040517f08c379a000000000000000000000000000000000000000000000000000000000815260206004820152600d60248201527f726f6c6520697320656d7074790000000000000000000000000000000000000060448201526064015b60405180910390fd5b73ffffffffffffffffffffffffffffffffffffffff831661072b576040517f08c379a000000000000000000000000000000000000000000000000000000000815260206004820152601760248201527f6d6f64756c65206164647265737320697320656d70747900000000000000000060448201526064016106a5565b80610792576040517f08c379a000000000000000000000000000000000000000000000000000000000815260206004820152600f60248201527f72756c65732061726520656d707479000000000000000000000000000000000060448201526064016106a5565b60005b61ffff811682111561097d576000838361ffff84168181106107b9576107b96149f3565b90506020028101906107cb9190614a22565b351415610834576040517f08c379a000000000000000000000000000000000000000000000000000000000815260206004820152601560248201527f72756c652068617320656d70747920616374696f6e000000000000000000000060448201526064016106a5565b600083838361ffff1681811061084c5761084c6149f3565b905060200281019061085e9190614a22565b61086c906020810190614a60565b9050116108d5576040517f08c379a000000000000000000000000000000000000000000000000000000000815260206004820152601560248201527f72756c652068617320656d70747920746172676574000000000000000000000060448201526064016106a5565b6000838361ffff84168181106108ed576108ed6149f3565b90506020028101906108ff9190614a22565b60600135141561096b576040517f08c379a000000000000000000000000000000000000000000000000000000000815260206004820152601560248201527f72756c652068617320656d70747920657874656e74000000000000000000000060448201526064016106a5565b8061097581614af4565b915050610795565b5060008473ffffffffffffffffffffffffffffffffffffffff8516604080516020810193909352820152606001604051602081830303815290604052905060006004826040516109cd9190614b16565b908152604051908190036020019020541115610a45576040517f08c379a000000000000000000000000000000000000000000000000000000000815260206004820152601360248201527f726f6c6520616c7265616479206578697374730000000000000000000000000060448201526064016106a5565b60005b61ffff8116831115610ad157600482604051610a649190614b16565b908152602001604051809103902084848361ffff16818110610a8857610a886149f3565b9050602002810190610a9a9190614a22565b815460018101835560009283526020909220909160040201610abc8282614c23565b50508080610ac990614af4565b915050610a48565b505050505050565b610ae16135fa565b81610b48576040517f08c379a000000000000000000000000000000000000000000000000000000000815260206004820152600e60248201527f696e76616c69642075736572496400000000000000000000000000000000000060448201526064016106a5565b610b51826136c5565b8035610bb9576040517f08c379a000000000000000000000000000000000000000000000000000000000815260206004820152601360248201527f757365722068617320656d70747920726f6c650000000000000000000000000060448201526064016106a5565b6000610bc86040830183614a60565b905011610c31576040517f08c379a000000000000000000000000000000000000000000000000000000000815260206004820152601c60248201527f757365722068617320656d7074792061757468206d657461646174610000000060448201526064016106a5565b60008281526003602052604090208190610c4b8282614d76565b50505050565b610c596135fa565b73ffffffffffffffffffffffffffffffffffffffff8116610cfc576040517f08c379a000000000000000000000000000000000000000000000000000000000815260206004820152603260248201527f66756e2077616c6c65743a206e657720656e74727920706f696e74206164647260448201527f6573732063616e6e6f74206265207a65726f000000000000000000000000000060648201526084016106a5565b600580547fffffffffffffffffffffffff00000000000000000000000000000000000000001673ffffffffffffffffffffffffffffffffffffffff831690811790915560405181907f450909c1478d09248269d4ad4fa8cba61ca3f50faed58c7aedefa51c7f62b83a90600090a350565b6060610d7761374a565b610db8858585858080601f0160208091040260200160405190810160405280939291908181526020018383808284376000920191909152506137f392505050565b90505b949350505050565b610dcb6135fa565b82610e32576040517f08c379a000000000000000000000000000000000000000000000000000000000815260206004820152600d60248201527f726f6c6520697320656d7074790000000000000000000000000000000000000060448201526064016106a5565b73ffffffffffffffffffffffffffffffffffffffff8216610eaf576040517f08c379a000000000000000000000000000000000000000000000000000000000815260206004820152601760248201527f6d6f64756c65206164647265737320697320656d70747900000000000000000060448201526064016106a5565b8035610f17576040517f08c379a000000000000000000000000000000000000000000000000000000000815260206004820152601560248201527f72756c652068617320656d70747920616374696f6e000000000000000000000060448201526064016106a5565b6000610f266020830183614a60565b905011610f8f576040517f08c379a000000000000000000000000000000000000000000000000000000000815260206004820152601560248201527f72756c652068617320656d70747920746172676574000000000000000000000060448201526064016106a5565b6060810135610ffa576040517f08c379a000000000000000000000000000000000000000000000000000000000815260206004820152601560248201527f72756c652068617320656d70747920657874656e74000000000000000000000060448201526064016106a5565b604080516020810185905273ffffffffffffffffffffffffffffffffffffffff841681830152815180820383018152606090910190915261103a816138d5565b60048160405161104a9190614b16565b9081526040516020918190038201902080546001810182556000918252919020839160040201610ad18282614c23565b3073ffffffffffffffffffffffffffffffffffffffff7f0000000000000000000000000000000000000000000000000000000000000000161415611140576040517f08c379a000000000000000000000000000000000000000000000000000000000815260206004820152602c60248201527f46756e6374696f6e206d7573742062652063616c6c6564207468726f7567682060448201527f64656c656761746563616c6c000000000000000000000000000000000000000060648201526084016106a5565b7f000000000000000000000000000000000000000000000000000000000000000073ffffffffffffffffffffffffffffffffffffffff166111b57f360894a13ba1a3210667c828492db98dca3e2076cc3735a920a3ca505d382bbc5473ffffffffffffffffffffffffffffffffffffffff1690565b73ffffffffffffffffffffffffffffffffffffffff1614611258576040517f08c379a000000000000000000000000000000000000000000000000000000000815260206004820152602c60248201527f46756e6374696f6e206d7573742062652063616c6c6564207468726f7567682060448201527f6163746976652070726f7879000000000000000000000000000000000000000060648201526084016106a5565b6112618161395e565b6040805160008082526020820190925261127d91839190613966565b50565b6112886135fa565b848314801561129657508281145b6112fc576040517f08c379a000000000000000000000000000000000000000000000000000000000815260206004820152601760248201527f6461746120697320646966666572656e742073697a657300000000000000000060448201526064016106a5565b60005b858110156114615761133383838381811061131c5761131c6149f3565b905060200281019061132e9190614a60565b613b65565b156114595760006113db88888481811061134f5761134f6149f3565b905060200201602081019061136491906143f1565b878785818110611376576113766149f3565b9050602002013586868681811061138f5761138f6149f3565b90506020028101906113a19190614a60565b8080601f0160208091040260200160405190810160405280939291908181526020018383808284376000920191909152506137f392505050565b905080600160008a8a868181106113f4576113f46149f3565b905060200201602081019061140991906143f1565b73ffffffffffffffffffffffffffffffffffffffff1673ffffffffffffffffffffffffffffffffffffffff168152602001908152602001600020908051906020019061145692919061417b565b50505b6001016112ff565b50505050505050565b6000611474613bcb565b6006546040517f81adfce600000000000000000000000000000000000000000000000000000000815260009173ffffffffffffffffffffffffffffffffffffffff16906381adfce6906114cd9088908890600401615097565b602060405180830381865afa1580156114ea573d6000803e3d6000fd5b505050506040513d601f19601f8201168201806040525081019061150e91906150b9565b9050611519816136c5565b6000818152600360209081526040808320815160608101909252805482526001810154919290919083019060ff16801561155557611555614802565b801561156357611563614802565b815260200160028201805461157790614b28565b80601f01602080910402602001604051908101604052809291908181526020018280546115a390614b28565b80156115f05780601f106115c5576101008083540402835291602001916115f0565b820191906000526020600020905b8154815290600101906020018083116115d357829003601f168201915b505050919092525050600654602083015160408085015190517fdeca388700000000000000000000000000000000000000000000000000000000815294955073ffffffffffffffffffffffffffffffffffffffff9092169363deca3887935061166092908b908b906004016150d2565b602060405180830381865afa15801561167d573d6000803e3d6000fd5b505050506040513d601f19601f820116820180604052508101906116a191906150b9565b92506116b06040870187614a60565b151590506116c1576116c186613c4c565b600081600001516040518060400160405280600181526020017f2a0000000000000000000000000000000000000000000000000000000000000081525060405160200161170f929190615116565b60405160208183030381529060405290507f61646d696e000000000000000000000000000000000000000000000000000000826000015114158015611774575060006004826040516117619190614b16565b9081526040519081900360200190205411155b156119065760008061179161178c60608b018b614a60565b613d0a565b86519294509250600091905073ffffffffffffffffffffffffffffffffffffffff8416604080516020810193909352820152606001604051602081830303815290604052905060006004826040516117e99190614b16565b9081526040519081900360200190205411611860576040517f08c379a000000000000000000000000000000000000000000000000000000000815260206004820152601660248201527f75736572206973206e6f7420617574686f72697a65640000000000000000000060448201526064016106a5565b8273ffffffffffffffffffffffffffffffffffffffff166352bd4f418360048460405161188d9190614b16565b9081526040519081900360200181207fffffffff0000000000000000000000000000000000000000000000000000000060e085901b1682526118d2929160040161512f565b60006040518083038186803b1580156118ea57600080fd5b505afa1580156118fe573d6000803e3d6000fd5b505050505050505b61190f85613d7c565b5050509392505050565b60005462010000900460ff16156119b2576040517f08c379a000000000000000000000000000000000000000000000000000000000815260206004820152602260248201527f436f6e74726163742068617320616c7265616479206265656e206465706c6f7960448201527f656400000000000000000000000000000000000000000000000000000000000060648201526084016106a5565b6119f28383838080601f01602080910402602001604051908101604052809392919081815260200183838082843760009201829052509250613de7915050565b5050600080547fffffffffffffffffffffffffffffffffffffffffffffffffffffffffff00ffff166201000017905550565b3073ffffffffffffffffffffffffffffffffffffffff7f0000000000000000000000000000000000000000000000000000000000000000161415611aea576040517f08c379a000000000000000000000000000000000000000000000000000000000815260206004820152602c60248201527f46756e6374696f6e206d7573742062652063616c6c6564207468726f7567682060448201527f64656c656761746563616c6c000000000000000000000000000000000000000060648201526084016106a5565b7f000000000000000000000000000000000000000000000000000000000000000073ffffffffffffffffffffffffffffffffffffffff16611b5f7f360894a13ba1a3210667c828492db98dca3e2076cc3735a920a3ca505d382bbc5473ffffffffffffffffffffffffffffffffffffffff1690565b73ffffffffffffffffffffffffffffffffffffffff1614611c02576040517f08c379a000000000000000000000000000000000000000000000000000000000815260206004820152602c60248201527f46756e6374696f6e206d7573742062652063616c6c6564207468726f7567682060448201527f6163746976652070726f7879000000000000000000000000000000000000000060648201526084016106a5565b611c0b8261395e565b611c1782826001613966565b5050565b60003073ffffffffffffffffffffffffffffffffffffffff7f00000000000000000000000000000000000000000000000000000000000000001614611ce2576040517f08c379a000000000000000000000000000000000000000000000000000000000815260206004820152603860248201527f555550535570677261646561626c653a206d757374206e6f742062652063616c60448201527f6c6564207468726f7567682064656c656761746563616c6c000000000000000060648201526084016106a5565b507f360894a13ba1a3210667c828492db98dca3e2076cc3735a920a3ca505d382bbc90565b611d0f6135fa565b6000611d52858585858080601f0160208091040260200160405190810160405280939291908181526020018383808284376000920191909152506137f392505050565b73ffffffffffffffffffffffffffffffffffffffff861660009081526001602090815260409091208251929350610ad192909184019061417b565b606082611df6576040517f08c379a000000000000000000000000000000000000000000000000000000000815260206004820152600d60248201527f726f6c6520697320656d7074790000000000000000000000000000000000000060448201526064016106a5565b73ffffffffffffffffffffffffffffffffffffffff8216611e73576040517f08c379a000000000000000000000000000000000000000000000000000000000815260206004820152601760248201527f6d6f64756c65206164647265737320697320656d70747900000000000000000060448201526064016106a5565b604080516020810185905273ffffffffffffffffffffffffffffffffffffffff84168183015281518082038301815260609091019182905290600490611eba908390614b16565b9081526020016040518091039020805480602002602001604051908101604052809291908181526020016000905b82821015611ff3578382906000526020600020906004020160405180608001604052908160008201548152602001600182018054611f2590614b28565b80601f0160208091040260200160405190810160405280929190818152602001828054611f5190614b28565b8015611f9e5780601f10611f7357610100808354040283529160200191611f9e565b820191906000526020600020905b815481529060010190602001808311611f8157829003601f168201915b5050509183525050600282015460209091019060ff166006811115611fc557611fc5614802565b6006811115611fd657611fd6614802565b815260200160038201548152505081526020019060010190611ee8565b5050505091505092915050565b6120086135fa565b8061206f576040517f08c379a000000000000000000000000000000000000000000000000000000000815260206004820152600e60248201527f696e76616c69642075736572496400000000000000000000000000000000000060448201526064016106a5565b60008181526003602052604081208181556001810180547fffffffffffffffffffffffffffffffffffffffffffffffffffffffffffffff00169055906120b860028301826141ff565b505050565b6040805160608082018352600080835260208301529181019190915281612140576040517f08c379a000000000000000000000000000000000000000000000000000000000815260206004820152600e60248201527f696e76616c69642075736572496400000000000000000000000000000000000060448201526064016106a5565b600082815260036020908152604091829020825160608101909352805483526001810154909183019060ff16801561217a5761217a614802565b801561218857612188614802565b815260200160028201805461219c90614b28565b80601f01602080910402602001604051908101604052809291908181526020018280546121c890614b28565b80156122155780601f106121ea57610100808354040283529160200191612215565b820191906000526020600020905b8154815290600101906020018083116121f857829003601f168201915b5050505050815250509050919050565b61222d6135fa565b73ffffffffffffffffffffffffffffffffffffffff81166122d0576040517f08c379a000000000000000000000000000000000000000000000000000000000815260206004820152603260248201527f66756e2077616c6c65743a206e657720656e74727920706f696e74206164647260448201527f6573732063616e6e6f74206265207a65726f000000000000000000000000000060648201526084016106a5565b600680547fffffffffffffffffffffffff00000000000000000000000000000000000000001673ffffffffffffffffffffffffffffffffffffffff831690811790915560405181907f34a5e38fc8fe74f12b269fe92e724092f7f531dc4985c88fb113460cfcb5f67d90600090a350565b6123496135fa565b826123b0576040517f08c379a000000000000000000000000000000000000000000000000000000000815260206004820152600d60248201527f726f6c6520697320656d7074790000000000000000000000000000000000000060448201526064016106a5565b73ffffffffffffffffffffffffffffffffffffffff821661242d576040517f08c379a000000000000000000000000000000000000000000000000000000000815260206004820152601760248201527f6d6f64756c65206164647265737320697320656d70747900000000000000000060448201526064016106a5565b8035612495576040517f08c379a000000000000000000000000000000000000000000000000000000000815260206004820152601560248201527f72756c652068617320656d70747920616374696f6e000000000000000000000060448201526064016106a5565b60006124a46020830183614a60565b90501161250d576040517f08c379a000000000000000000000000000000000000000000000000000000000815260206004820152601560248201527f72756c652068617320656d70747920746172676574000000000000000000000060448201526064016106a5565b6060810135612578576040517f08c379a000000000000000000000000000000000000000000000000000000000815260206004820152601560248201527f72756c652068617320656d70747920657874656e74000000000000000000000060448201526064016106a5565b604080516020810185905273ffffffffffffffffffffffffffffffffffffffff84168183015281518082038301815260609091019091526125b8816138d5565b60006004826040516125ca9190614b16565b9081526020016040518091039020805480602002602001604051908101604052809291908181526020016000905b8282101561270357838290600052602060002090600402016040518060800160405290816000820154815260200160018201805461263590614b28565b80601f016020809104026020016040519081016040528092919081815260200182805461266190614b28565b80156126ae5780601f10612683576101008083540402835291602001916126ae565b820191906000526020600020905b81548152906001019060200180831161269157829003601f168201915b5050509183525050600282015460209091019060ff1660068111156126d5576126d5614802565b60068111156126e6576126e6614802565b8152602001600382015481525050815260200190600101906125f8565b505050509050600083806020019061271b9190614a60565b61272b606087016040880161527d565b866060013560405160200161274394939291906152b1565b60405160208183030381529060405280519060200120905060005b60048460405161276e9190614b16565b9081526040519081900360200190205461ffff82161015611461576000838261ffff16815181106127a1576127a16149f3565b602002602001015160200151848361ffff16815181106127c3576127c36149f3565b602002602001015160400151858461ffff16815181106127e5576127e56149f3565b602002602001015160600151604051602001612803939291906152dc565b604051602081830303815290604052805190602001209050808314156129b1578360018551612832919061530d565b81518110612842576128426149f3565b602002602001015160048660405161285a9190614b16565b90815260200160405180910390208361ffff168154811061287d5761287d6149f3565b90600052602060002090600402016000820151816000015560208201518160010190805190602001906128b192919061417b565b5060408201516002820180547fffffffffffffffffffffffffffffffffffffffffffffffffffffffffffffff001660018360068111156128f3576128f3614802565b0217905550606082015181600301559050506004856040516129159190614b16565b908152602001604051809103902080548061293257612932615324565b60008281526020812060047fffffffffffffffffffffffffffffffffffffffffffffffffffffffffffffffff909301928302018181559061297660018301826141ff565b506002810180547fffffffffffffffffffffffffffffffffffffffffffffffffffffffffffffff001690556000600390910155905550611461565b50806129bc81614af4565b91505061275e565b6129cc613e0c565b80471015612a5c576040517f08c379a000000000000000000000000000000000000000000000000000000000815260206004820152602a60248201527f66756e2077616c6c65743a206e6f7420656e6f75676820657468657220696e2060448201527f7468652077616c6c65740000000000000000000000000000000000000000000060648201526084016106a5565b6005546040517fb760faf900000000000000000000000000000000000000000000000000000000815230600482015273ffffffffffffffffffffffffffffffffffffffff9091169063b760faf990602401600060405180830381600087803b158015612ac757600080fd5b505af1158015612adb573d6000803e3d6000fd5b5050505050565b600054610100900460ff1615808015612b025750600054600160ff909116105b80612b1c5750303b158015612b1c575060005460ff166001145b612ba8576040517f08c379a000000000000000000000000000000000000000000000000000000000815260206004820152602e60248201527f496e697469616c697a61626c653a20636f6e747261637420697320616c72656160448201527f647920696e697469616c697a656400000000000000000000000000000000000060648201526084016106a5565b600080547fffffffffffffffffffffffffffffffffffffffffffffffffffffffffffffff001660011790558015612c0657600080547fffffffffffffffffffffffffffffffffffffffffffffffffffffffffffff00ff166101001790555b73ffffffffffffffffffffffffffffffffffffffff8416612c83576040517f08c379a000000000000000000000000000000000000000000000000000000000815260206004820152601260248201527f496e76616c696420456e747279706f696e74000000000000000000000000000060448201526064016106a5565b6005805473ffffffffffffffffffffffffffffffffffffffff8681167fffffffffffffffffffffffff00000000000000000000000000000000000000009283161790925560068054868416908316179055600780549285169290911682179055604080516060810182527f61646d696e000000000000000000000000000000000000000000000000000000815260006020808301828152845180830187905285518082038401815290860186528486015294825260039052919091208151815591516001838101805493949390917fffffffffffffffffffffffffffffffffffffffffffffffffffffffffffffff0090911690838015612d8557612d85614802565b021790555060408201518051612da591600284019160209091019061417b565b5090505060007f61646d696e0000000000000000000000000000000000000000000000000000006040518060400160405280600181526020017f2a00000000000000000000000000000000000000000000000000000000000000815250604051602001612e13929190615116565b6040516020818303038152906040529050600481604051612e349190614b16565b908152602001604051809103902060405180608001604052807f2a0000000000000000000000000000000000000000000000000000000000000081526020016040518060400160405280600181526020017f2a000000000000000000000000000000000000000000000000000000000000008152508152602001600680811115612ec057612ec0614802565b81527f2a00000000000000000000000000000000000000000000000000000000000000602091820152825460018181018555600094855293829020835160049092020190815582820151805193949193612f229392850192919091019061417b565b5060408201516002820180547fffffffffffffffffffffffffffffffffffffffffffffffffffffffffffffff00166001836006811115612f6457612f64614802565b0217905550606082015181600301555050508015610c4b57600080547fffffffffffffffffffffffffffffffffffffffffffffffffffffffffffff00ff169055604051600181527f7f26b83ff96e1f2b6a682f133852f6798a09c465da95921460cefb38474024989060200160405180910390a150505050565b6005546040517f70a0823100000000000000000000000000000000000000000000000000000000815230600482015260009173ffffffffffffffffffffffffffffffffffffffff16906370a0823190602401602060405180830381865afa15801561304d573d6000803e3d6000fd5b505050506040513d601f19601f8201168201806040525081019061307191906150b9565b905090565b61307e613e0c565b73ffffffffffffffffffffffffffffffffffffffff8216613121576040517f08c379a000000000000000000000000000000000000000000000000000000000815260206004820152602b60248201527f66756e2077616c6c65743a20776974686472617720616464726573732063616e60448201527f6e6f74206265207a65726f00000000000000000000000000000000000000000060648201526084016106a5565b6005546040517f205c287800000000000000000000000000000000000000000000000000000000815273ffffffffffffffffffffffffffffffffffffffff8481166004830152602482018490529091169063205c287890604401600060405180830381600087803b15801561319557600080fd5b505af1158015610ad1573d6000803e3d6000fd5b6131b16135fa565b73ffffffffffffffffffffffffffffffffffffffff8116613254576040517f08c379a000000000000000000000000000000000000000000000000000000000815260206004820152602d60248201527f66756e2077616c6c65743a206e6577206d6f64756c652061646472657373206360448201527f616e6e6f74206265207a65726f0000000000000000000000000000000000000060648201526084016106a5565b8173ffffffffffffffffffffffffffffffffffffffff168173ffffffffffffffffffffffffffffffffffffffff161415613310576040517f08c379a000000000000000000000000000000000000000000000000000000000815260206004820152603e60248201527f66756e2077616c6c65743a206e6577206d6f64756c652061646472657373206360448201527f616e6e6f7420626520657175616c20746f2070726576696f7573206f6e65000060648201526084016106a5565b73ffffffffffffffffffffffffffffffffffffffff80831660009081526001602052604080822092841682529020815490919061334c90614b28565b613357929190614239565b5073ffffffffffffffffffffffffffffffffffffffff82166000908152600160205260408120613386916141ff565b8073ffffffffffffffffffffffffffffffffffffffff168273ffffffffffffffffffffffffffffffffffffffff167fdcbf4cc8a7afc3fe6e403a57745b98188844fdfee49c8752ae30fc46b3a39ebb60405160405180910390a35050565b73ffffffffffffffffffffffffffffffffffffffff8116600090815260016020526040902080546060919061341890614b28565b80601f016020809104026020016040519081016040528092919081815260200182805461344490614b28565b80156134915780601f1061346657610100808354040283529160200191613491565b820191906000526020600020905b81548152906001019060200180831161347457829003601f168201915b50505050509050919050565b6134a56135fa565b8161350c576040517f08c379a000000000000000000000000000000000000000000000000000000000815260206004820152600e60248201527f696e76616c69642075736572496400000000000000000000000000000000000060448201526064016106a5565b6000828152600360205260408120600201805461352890614b28565b90501115613592576040517f08c379a000000000000000000000000000000000000000000000000000000000815260206004820152601360248201527f7573657220616c7265616479206578697374730000000000000000000000000060448201526064016106a5565b8035610bb9576040517f08c379a000000000000000000000000000000000000000000000000000000000815260206004820152601460248201527f757365722068617320656d70747920726f6c657300000000000000000000000060448201526064016106a5565b60055473ffffffffffffffffffffffffffffffffffffffff16331480613637575060075473ffffffffffffffffffffffffffffffffffffffff1633145b6136c3576040517f08c379a000000000000000000000000000000000000000000000000000000000815260206004820152602860248201527f66756e2077616c6c65743a206e6f742066726f6d20456e747279506f696e742060448201527f6f72206f776e657200000000000000000000000000000000000000000000000060648201526084016106a5565b565b600081815260036020526040812060020180546136e190614b28565b90501161127d576040517f08c379a000000000000000000000000000000000000000000000000000000000815260206004820152601f60248201527f66756e2077616c6c65743a207573657220646f6573206e6f742065786973740060448201526064016106a5565b336000908152600160205260408120805461376490614b28565b9050116136c3576040517f08c379a000000000000000000000000000000000000000000000000000000000815260206004820152602360248201527f66756e2077616c6c65743a206e6f742066726f6d2061206b6e6f776e204d6f6460448201527f756c65000000000000000000000000000000000000000000000000000000000060648201526084016106a5565b60606000808573ffffffffffffffffffffffffffffffffffffffff16858560405161381e9190614b16565b60006040518083038185875af1925050503d806000811461385b576040519150601f19603f3d011682016040523d82523d6000602084013e613860565b606091505b5091509150816138cc576040517f08c379a000000000000000000000000000000000000000000000000000000000815260206004820181905260248201527f66756e2077616c6c65743a2065787465726e616c2063616c6c206661696c656460448201526064016106a5565b95945050505050565b60006004826040516138e79190614b16565b908152604051908190036020019020541161127d576040517f08c379a000000000000000000000000000000000000000000000000000000000815260206004820152601f60248201527f66756e2077616c6c65743a20726f6c6520646f6573206e6f742065786973740060448201526064016106a5565b61127d6135fa565b7f4910fdfa16fed3260ed0e7147f7cc6da11a60208b5b9406d12a635614ffd91435460ff1615613999576120b883613e97565b8273ffffffffffffffffffffffffffffffffffffffff166352d1902d6040518163ffffffff1660e01b8152600401602060405180830381865afa925050508015613a1e575060408051601f3d9081017fffffffffffffffffffffffffffffffffffffffffffffffffffffffffffffffe0168201909252613a1b918101906150b9565b60015b613aaa576040517f08c379a000000000000000000000000000000000000000000000000000000000815260206004820152602e60248201527f45524331393637557067726164653a206e657720696d706c656d656e7461746960448201527f6f6e206973206e6f74205555505300000000000000000000000000000000000060648201526084016106a5565b7f360894a13ba1a3210667c828492db98dca3e2076cc3735a920a3ca505d382bbc8114613b59576040517f08c379a000000000000000000000000000000000000000000000000000000000815260206004820152602960248201527f45524331393637557067726164653a20756e737570706f727465642070726f7860448201527f6961626c6555554944000000000000000000000000000000000000000000000060648201526084016106a5565b506120b8838383613de7565b600080613b756004828587615353565b613b7e9161537d565b7fffffffff00000000000000000000000000000000000000000000000000000000167f4ddf47d4000000000000000000000000000000000000000000000000000000001491505092915050565b60055473ffffffffffffffffffffffffffffffffffffffff1633146136c3576040517f08c379a000000000000000000000000000000000000000000000000000000000815260206004820152601f60248201527f66756e2077616c6c65743a206e6f742066726f6d20456e747279506f696e740060448201526064016106a5565b60208082013560009081526002909152604090205460ff1615613ccb576040517f08c379a000000000000000000000000000000000000000000000000000000000815260206004820152601960248201527f66756e2077616c6c65743a20696e76616c6964206e6f6e63650000000000000060448201526064016106a5565b602090810135600090815260029091526040902080547fffffffffffffffffffffffffffffffffffffffffffffffffffffffffffffff00166001179055565b6000806060613d1c8460048188615353565b810190613d299190614999565b9093509150613d3b8460c88188615353565b8080601f0160208091040260200160405190810160405280939291908181526020018383808284376000920191909152509598949750919550929350505050565b801561127d5760405160009033907fffffffffffffffffffffffffffffffffffffffffffffffffffffffffffffffff90849084818181858888f193505050503d8060008114612adb576040519150601f19603f3d011682016040523d82523d6000602084013e612adb565b613df083613fa1565b600082511180613dfd5750805b156120b857610c4b8383613fee565b60075473ffffffffffffffffffffffffffffffffffffffff16331480613e3157503330145b6136c3576040517f08c379a000000000000000000000000000000000000000000000000000000000815260206004820152601a60248201527f66756e2077616c6c65743a206e6f742066726f6d204f776e657200000000000060448201526064016106a5565b73ffffffffffffffffffffffffffffffffffffffff81163b613f3b576040517f08c379a000000000000000000000000000000000000000000000000000000000815260206004820152602d60248201527f455243313936373a206e657720696d706c656d656e746174696f6e206973206e60448201527f6f74206120636f6e74726163740000000000000000000000000000000000000060648201526084016106a5565b7f360894a13ba1a3210667c828492db98dca3e2076cc3735a920a3ca505d382bbc80547fffffffffffffffffffffffff00000000000000000000000000000000000000001673ffffffffffffffffffffffffffffffffffffffff92909216919091179055565b613faa81613e97565b60405173ffffffffffffffffffffffffffffffffffffffff8216907fbc7cd75a20ee27fd9adebab32041f755214dbc6bffa90cc0225b39da2e5c2d3b90600090a250565b606061401383836040518060600160405280602781526020016153c66027913961401a565b9392505050565b60606000808573ffffffffffffffffffffffffffffffffffffffff16856040516140449190614b16565b600060405180830381855af49150503d806000811461407f576040519150601f19603f3d011682016040523d82523d6000602084013e614084565b606091505b50915091506140958683838761409f565b9695505050505050565b6060831561413257825161412b5773ffffffffffffffffffffffffffffffffffffffff85163b61412b576040517f08c379a000000000000000000000000000000000000000000000000000000000815260206004820152601d60248201527f416464726573733a2063616c6c20746f206e6f6e2d636f6e747261637400000060448201526064016106a5565b5081610dbb565b610dbb83838151156141475781518083602001fd5b806040517f08c379a00000000000000000000000000000000000000000000000000000000081526004016106a59190614516565b82805461418790614b28565b90600052602060002090601f0160209004810192826141a957600085556141ef565b82601f106141c257805160ff19168380011785556141ef565b828001600101855582156141ef579182015b828111156141ef5782518255916020019190600101906141d4565b506141fb9291506142b4565b5090565b50805461420b90614b28565b6000825580601f1061421b575050565b601f01602090049060005260206000209081019061127d91906142b4565b82805461424590614b28565b90600052602060002090601f01602090048101928261426757600085556141ef565b82601f1061427857805485556141ef565b828001600101855582156141ef57600052602060002091601f016020900482015b828111156141ef578254825591600101919060010190614299565b5b808211156141fb57600081556001016142b5565b73ffffffffffffffffffffffffffffffffffffffff8116811461127d57600080fd5b80356142f6816142c9565b919050565b60008083601f84011261430d57600080fd5b50813567ffffffffffffffff81111561432557600080fd5b6020830191508360208260051b850101111561434057600080fd5b9250929050565b6000806000806060858703121561435d57600080fd5b84359350602085013561436f816142c9565b9250604085013567ffffffffffffffff81111561438b57600080fd5b614397878288016142fb565b95989497509550505050565b600080604083850312156143b657600080fd5b82359150602083013567ffffffffffffffff8111156143d457600080fd5b8301606081860312156143e657600080fd5b809150509250929050565b60006020828403121561440357600080fd5b8135614013816142c9565b60008083601f84011261442057600080fd5b50813567ffffffffffffffff81111561443857600080fd5b60208301915083602082850101111561434057600080fd5b6000806000806060858703121561446657600080fd5b8435614471816142c9565b935060208501359250604085013567ffffffffffffffff81111561449457600080fd5b6143978782880161440e565b60005b838110156144bb5781810151838201526020016144a3565b83811115610c4b5750506000910152565b600081518084526144e48160208601602086016144a0565b601f017fffffffffffffffffffffffffffffffffffffffffffffffffffffffffffffffe0169290920160200192915050565b60208152600061401360208301846144cc565b60008060006060848603121561453e57600080fd5b833592506020840135614550816142c9565b9150604084013567ffffffffffffffff81111561456c57600080fd5b84016080818703121561457e57600080fd5b809150509250925092565b600080600080600080606087890312156145a257600080fd5b863567ffffffffffffffff808211156145ba57600080fd5b6145c68a838b016142fb565b909850965060208901359150808211156145df57600080fd5b6145eb8a838b016142fb565b9096509450604089013591508082111561460457600080fd5b5061461189828a016142fb565b979a9699509497509295939492505050565b60008060006060848603121561463857600080fd5b833567ffffffffffffffff81111561464f57600080fd5b8401610160818703121561466257600080fd5b95602085013595506040909401359392505050565b60008060006040848603121561468c57600080fd5b8335614697816142c9565b9250602084013567ffffffffffffffff8111156146b357600080fd5b6146bf8682870161440e565b9497909650939450505050565b7f4e487b7100000000000000000000000000000000000000000000000000000000600052604160045260246000fd5b6000806040838503121561470e57600080fd5b8235614719816142c9565b9150602083013567ffffffffffffffff8082111561473657600080fd5b818501915085601f83011261474a57600080fd5b81358181111561475c5761475c6146cc565b604051601f82017fffffffffffffffffffffffffffffffffffffffffffffffffffffffffffffffe0908116603f011681019083821181831017156147a2576147a26146cc565b816040528281528860208487010111156147bb57600080fd5b8260208601602083013760006020848301015280955050505050509250929050565b600080604083850312156147f057600080fd5b8235915060208301356143e6816142c9565b7f4e487b7100000000000000000000000000000000000000000000000000000000600052602160045260246000fd5b6007811061484157614841614802565b9052565b60006020808301818452808551808352604092508286019150828160051b87010184880160005b838110156148ea577fffffffffffffffffffffffffffffffffffffffffffffffffffffffffffffffc0898403018552815160808151855288820151818a8701526148b8828701826144cc565b915050878201516148cb89870182614831565b506060918201519490910193909352938601939086019060010161486c565b509098975050505050505050565b60006020828403121561490a57600080fd5b5035919050565b6001811061484157614841614802565b6020815281516020820152600060208301516149406040840182614911565b506040830151606080840152610dbb60808401826144cc565b60008060006060848603121561496e57600080fd5b8335614979816142c9565b92506020840135614989816142c9565b9150604084013561457e816142c9565b600080604083850312156149ac57600080fd5b82356149b7816142c9565b946020939093013593505050565b600080604083850312156149d857600080fd5b82356149e3816142c9565b915060208301356143e6816142c9565b7f4e487b7100000000000000000000000000000000000000000000000000000000600052603260045260246000fd5b600082357fffffffffffffffffffffffffffffffffffffffffffffffffffffffffffffff81833603018112614a5657600080fd5b9190910192915050565b60008083357fffffffffffffffffffffffffffffffffffffffffffffffffffffffffffffffe1843603018112614a9557600080fd5b83018035915067ffffffffffffffff821115614ab057600080fd5b60200191503681900382131561434057600080fd5b7f4e487b7100000000000000000000000000000000000000000000000000000000600052601160045260246000fd5b600061ffff80831681811415614b0c57614b0c614ac5565b6001019392505050565b60008251614a568184602087016144a0565b600181811c90821680614b3c57607f821691505b60208210811415614b76577f4e487b7100000000000000000000000000000000000000000000000000000000600052602260045260246000fd5b50919050565b601f8211156120b857600081815260208120601f850160051c81016020861015614ba35750805b601f850160051c820191505b81811015610ad157828155600101614baf565b6007811061127d57600080fd5b60008135614bdc81614bc2565b92915050565b60078210614bf257614bf2614802565b7fffffffffffffffffffffffffffffffffffffffffffffffffffffffffffffff0081541660ff831681178255505050565b8135815560018082016020614c3a81860186614a60565b67ffffffffffffffff811115614c5257614c526146cc565b614c6681614c608654614b28565b86614b7c565b6000601f821160018114614cb85760008315614c825750838201355b7fffffffffffffffffffffffffffffffffffffffffffffffffffffffffffffffff600385901b1c1916600184901b178655614d49565b6000868152602090207fffffffffffffffffffffffffffffffffffffffffffffffffffffffffffffffe0841690835b82811015614d045786850135825593870193908901908701614ce7565b5084821015614d3f577fffffffffffffffffffffffffffffffffffffffffffffffffffffffffffffffff60f88660031b161c19848701351681555b50508683881b0186555b50505050505050614d68614d5f60408401614bcf565b60028301614be2565b606082013560038201555050565b813581556001808201602080850135838110614d9157600080fd5b7fffffffffffffffffffffffffffffffffffffffffffffffffffffffffffffff0083541660ff8216811784555050600284019150614dd26040860186614a60565b67ffffffffffffffff811115614dea57614dea6146cc565b614df881614c608654614b28565b6000601f821160018114614e4a5760008315614e145750838201355b7fffffffffffffffffffffffffffffffffffffffffffffffffffffffffffffffff600385901b1c1916600184901b178655614edb565b6000868152602090207fffffffffffffffffffffffffffffffffffffffffffffffffffffffffffffffe0841690835b82811015614e965786850135825593870193908901908701614e79565b5084821015614ed1577fffffffffffffffffffffffffffffffffffffffffffffffffffffffffffffffff60f88660031b161c19848701351681555b50508683881b0186555b505050505050505050565b60008083357fffffffffffffffffffffffffffffffffffffffffffffffffffffffffffffffe1843603018112614f1b57600080fd5b830160208101925035905067ffffffffffffffff811115614f3b57600080fd5b80360383131561434057600080fd5b8183528181602085013750600060208284010152600060207fffffffffffffffffffffffffffffffffffffffffffffffffffffffffffffffe0601f840116840101905092915050565b6000610160614fbf84614fa5856142eb565b73ffffffffffffffffffffffffffffffffffffffff169052565b60208301356020850152614fd66040840184614ee6565b826040870152614fe98387018284614f4a565b92505050614ffa6060840184614ee6565b858303606087015261500d838284614f4a565b925050506080830135608085015260a083013560a085015260c083013560c085015260e083013560e085015261010080840135818601525061012061505481850185614ee6565b86840383880152615066848284614f4a565b935050505061014061507a81850185614ee6565b8684038388015261508c848284614f4a565b979650505050505050565b6040815260006150aa6040830185614f93565b90508260208301529392505050565b6000602082840312156150cb57600080fd5b5051919050565b6150dc8186614911565b6080602082015260006150f260808301866144cc565b82810360408401526151048186614f93565b91505082606083015295945050505050565b828152604060208201526000610dbb60408301846144cc565b60006040808352615142818401866144cc565b6020848203818601528186548084528284019150828160051b8501016000898152848120815b8481101561526c577fffffffffffffffffffffffffffffffffffffffffffffffffffffffffffffffe08885030186526080825485526001808401828a8801528581546151b381614b28565b94890185905260a09481851680156151d257600181146152045761522f565b7fffffffffffffffffffffffffffffffffffffffffffffffffffffffffffffff008316878c015260c08b01935061522f565b848a528d8a208a5b838110156152275781548d82018a0152908701908f0161520c565b8c0188019450505b505050600286015460ff1693506152488d890185614831565b60038601546060989098019790975250505094860194600490910190600101615168565b50919b9a5050505050505050505050565b60006020828403121561528f57600080fd5b813561401381614bc2565b600781106152aa576152aa614802565b60f81b9052565b838582376000848201600081526152c8818661529a565b600181019390935250506021019392505050565b600084516152ee8184602089016144a0565b82016152fa818661529a565b6001810193909352505060210192915050565b60008282101561531f5761531f614ac5565b500390565b7f4e487b7100000000000000000000000000000000000000000000000000000000600052603160045260246000fd5b6000808585111561536357600080fd5b8386111561537057600080fd5b5050820193919092039150565b7fffffffff0000000000000000000000000000000000000000000000000000000081358181169160048510156153bd5780818660040360031b1b83161692505b50509291505056fe416464726573733a206c6f772d6c6576656c2064656c65676174652063616c6c206661696c6564a26469706673582212205654b769b8d0f18627b7172ae6bf4995a05275238322c9b67342be33ee6230bf64736f6c634300080c0033","linkReferences":{},"deployedLinkReferences":{},"fileHash":"2f94904ac4f1a5329104d542d2275da02dc35275809112483c62f0962d7790f4"}