{"_format":"hh-sol-artifact-1","contractName":"TokenPaymaster","sourceName":"contracts/paymaster/TokenPaymaster.sol","abi":[{"inputs":[{"internalType":"contract IEntryPoint","name":"_entryPoint","type":"address"},{"internalType":"contract ITokenPriceOracle","name":"_tokenPriceOracle","type":"address"},{"internalType":"contract IERC20","name":"_token","type":"address"},{"internalType":"contract AggregatorV3Interface","name":"_aggregator","type":"address"}],"stateMutability":"nonpayable","type":"constructor"},{"anonymous":false,"inputs":[{"indexed":true,"internalType":"address","name":"previousOwner","type":"address"},{"indexed":true,"internalType":"address","name":"newOwner","type":"address"}],"name":"OwnershipTransferred","type":"event"},{"inputs":[],"name":"COST_OF_POST","outputs":[{"internalType":"uint256","name":"","type":"uint256"}],"stateMutability":"view","type":"function"},{"inputs":[{"internalType":"address","name":"account","type":"address"},{"internalType":"uint256","name":"amount","type":"uint256"}],"name":"addDepositFor","outputs":[],"stateMutability":"nonpayable","type":"function"},{"inputs":[{"internalType":"address","name":"sponsor","type":"address"}],"name":"addEthDepositForSponsor","outputs":[],"stateMutability":"payable","type":"function"},{"inputs":[{"internalType":"uint32","name":"unstakeDelaySec","type":"uint32"}],"name":"addStake","outputs":[],"stateMutability":"payable","type":"function"},{"inputs":[],"name":"deposit","outputs":[],"stateMutability":"payable","type":"function"},{"inputs":[{"internalType":"address","name":"account","type":"address"}],"name":"depositInfo","outputs":[{"internalType":"uint256","name":"amount","type":"uint256"},{"internalType":"uint256","name":"_unlockBlock","type":"uint256"}],"stateMutability":"view","type":"function"},{"inputs":[],"name":"entryPoint","outputs":[{"internalType":"contract IEntryPoint","name":"","type":"address"}],"stateMutability":"view","type":"function"},{"inputs":[],"name":"getDeposit","outputs":[{"internalType":"uint256","name":"","type":"uint256"}],"stateMutability":"view","type":"function"},{"inputs":[{"internalType":"address","name":"sponsor","type":"address"}],"name":"getEthDepositInfoForSponsor","outputs":[{"internalType":"uint256","name":"","type":"uint256"}],"stateMutability":"view","type":"function"},{"inputs":[{"internalType":"address","name":"account","type":"address"}],"name":"getUnlockBlock","outputs":[{"internalType":"uint256","name":"","type":"uint256"}],"stateMutability":"view","type":"function"},{"inputs":[],"name":"lockSponsorEntrypointStake","outputs":[],"stateMutability":"nonpayable","type":"function"},{"inputs":[],"name":"lockTokenDeposit","outputs":[],"stateMutability":"nonpayable","type":"function"},{"inputs":[],"name":"owner","outputs":[{"internalType":"address","name":"","type":"address"}],"stateMutability":"view","type":"function"},{"inputs":[{"internalType":"enum IPaymaster.PostOpMode","name":"mode","type":"uint8"},{"internalType":"bytes","name":"context","type":"bytes"},{"internalType":"uint256","name":"actualGasCost","type":"uint256"}],"name":"postOp","outputs":[],"stateMutability":"nonpayable","type":"function"},{"inputs":[],"name":"renounceOwnership","outputs":[],"stateMutability":"nonpayable","type":"function"},{"inputs":[{"internalType":"address","name":"spender","type":"address"},{"internalType":"bool","name":"mode","type":"bool"}],"name":"setSpenderToBlackListMode","outputs":[],"stateMutability":"nonpayable","type":"function"},{"inputs":[{"internalType":"address","name":"sponsor","type":"address"},{"internalType":"address","name":"account","type":"address"},{"internalType":"bool","name":"setting","type":"bool"}],"name":"setSponsorApproval","outputs":[],"stateMutability":"nonpayable","type":"function"},{"inputs":[{"internalType":"bool","name":"mode","type":"bool"}],"name":"setWhitelistMode","outputs":[],"stateMutability":"nonpayable","type":"function"},{"inputs":[{"internalType":"bytes32","name":"","type":"bytes32"}],"name":"sponsorApprovals","outputs":[{"internalType":"bool","name":"","type":"bool"}],"stateMutability":"view","type":"function"},{"inputs":[{"internalType":"address","name":"","type":"address"}],"name":"sponsorBalances","outputs":[{"internalType":"uint256","name":"","type":"uint256"}],"stateMutability":"view","type":"function"},{"inputs":[{"internalType":"address","name":"","type":"address"}],"name":"tokenBalances","outputs":[{"internalType":"uint256","name":"","type":"uint256"}],"stateMutability":"view","type":"function"},{"inputs":[{"internalType":"address","name":"newOwner","type":"address"}],"name":"transferOwnership","outputs":[],"stateMutability":"nonpayable","type":"function"},{"inputs":[{"internalType":"address","name":"","type":"address"}],"name":"unlockBlock","outputs":[{"internalType":"uint256","name":"","type":"uint256"}],"stateMutability":"view","type":"function"},{"inputs":[{"internalType":"uint256","name":"blockNum","type":"uint256"}],"name":"unlockSponsorEntrypointStakeAfter","outputs":[],"stateMutability":"nonpayable","type":"function"},{"inputs":[],"name":"unlockStake","outputs":[],"stateMutability":"nonpayable","type":"function"},{"inputs":[],"name":"unlockTokenDeposit","outputs":[],"stateMutability":"nonpayable","type":"function"},{"inputs":[{"components":[{"internalType":"address","name":"sender","type":"address"},{"internalType":"uint256","name":"nonce","type":"uint256"},{"internalType":"bytes","name":"initCode","type":"bytes"},{"internalType":"bytes","name":"callData","type":"bytes"},{"internalType":"uint256","name":"callGasLimit","type":"uint256"},{"internalType":"uint256","name":"verificationGasLimit","type":"uint256"},{"internalType":"uint256","name":"preVerificationGas","type":"uint256"},{"internalType":"uint256","name":"maxFeePerGas","type":"uint256"},{"internalType":"uint256","name":"maxPriorityFeePerGas","type":"uint256"},{"internalType":"bytes","name":"paymasterAndData","type":"bytes"},{"internalType":"bytes","name":"signature","type":"bytes"}],"internalType":"struct UserOperation","name":"userOp","type":"tuple"},{"internalType":"bytes32","name":"userOpHash","type":"bytes32"},{"internalType":"uint256","name":"maxCost","type":"uint256"}],"name":"validatePaymasterUserOp","outputs":[{"internalType":"bytes","name":"context","type":"bytes"},{"internalType":"uint256","name":"sigTimeRange","type":"uint256"}],"stateMutability":"nonpayable","type":"function"},{"inputs":[{"internalType":"address","name":"target","type":"address"},{"internalType":"uint256","name":"amount","type":"uint256"}],"name":"withdrawEthDepositTo","outputs":[],"stateMutability":"nonpayable","type":"function"},{"inputs":[{"internalType":"address payable","name":"withdrawAddress","type":"address"}],"name":"withdrawStake","outputs":[],"stateMutability":"nonpayable","type":"function"},{"inputs":[{"internalType":"address payable","name":"withdrawAddress","type":"address"},{"internalType":"uint256","name":"amount","type":"uint256"}],"name":"withdrawTo","outputs":[],"stateMutability":"nonpayable","type":"function"},{"inputs":[{"internalType":"address","name":"target","type":"address"},{"internalType":"uint256","name":"amount","type":"uint256"}],"name":"withdrawTokensTo","outputs":[],"stateMutability":"nonpayable","type":"function"}],"bytecode":"0x60a06040523480156200001157600080fd5b5060405162002a2438038062002a248339810160408190526200003491620001a7565b8362000040336200013e565b6001600160a01b031660805262000064336000908152600560205260409020439055565b600180546001600160a01b038086166001600160a01b0319928316179092556002805492851692909116821790556040805163313ce56760e01b8152905163313ce567916004808201926020929091908290030181865afa158015620000ce573d6000803e3d6000fd5b505050506040513d601f19601f82011682018060405250810190620000f491906200020f565b6002805460ff92909216600160a01b0260ff60a01b19909216919091179055600380546001600160a01b039092166001600160a01b0319909216919091179055506200023b915050565b600080546001600160a01b038381166001600160a01b0319831681178455604051919092169283917f8be0079c531659141344cd1fd0a4f28419497f9722a3daafe3b4186f6b6457e09190a35050565b6001600160a01b0381168114620001a457600080fd5b50565b60008060008060808587031215620001be57600080fd5b8451620001cb816200018e565b6020860151909450620001de816200018e565b6040860151909350620001f1816200018e565b606086015190925062000204816200018e565b939692955090935050565b6000602082840312156200022257600080fd5b815160ff811681146200023457600080fd5b9392505050565b6080516127956200028f6000396000818161071f015281816108c0015281816109ce01528181610b0601528181610c1801528181610cdf01528181610d6f01528181610e2201526112fd01526127956000f3fe6080604052600436106101d85760003560e01c80638da5cb5b11610102578063cd8f80c211610095578063e8db215d11610064578063e8db215d146107d3578063f2fde38b14610816578063f465c77e14610836578063f5bf3fcf1461086457600080fd5b8063cd8f80c214610225578063d0e30db01461078b578063d3eccaff14610793578063e6e61d1b146107b357600080fd5b8063b0d691fe116100d1578063b0d691fe1461070d578063bb9fe6bf14610741578063c23a5cea14610756578063c399ec881461077657600080fd5b80638da5cb5b146106505780639d31b69d1461069c5780639ed0fb68146106c9578063a9a23409146106ed57600080fd5b806335c293a91161017a578063523fba7f11610149578063523fba7f1461059357806363445989146105c0578063715018a614610625578063796d43711461063a57600080fd5b806335c293a91461037a578063425bc1e91461046f5780634a6f84cf146105465780634f16bbf31461057357600080fd5b806315dab52e116101b657806315dab52e1461024757806318f95857146102875780631c766d701461029a578063205c28781461035a57600080fd5b80630396cb60146101dd5780630bb4df0c146101f2578063107d5fdf14610225575b600080fd5b6101f06101eb3660046121f2565b610884565b005b3480156101fe57600080fd5b5061021261020d36600461223a565b610936565b6040519081526020015b60405180910390f35b34801561023157600080fd5b506101f033600090815260056020526040812055565b34801561025357600080fd5b50610277610262366004612257565b60046020526000908152604090205460ff1681565b604051901515815260200161021c565b6101f061029536600461223a565b6109a0565b3480156102a657600080fd5b506101f06102b536600461227e565b6040805173ffffffffffffffffffffffffffffffffffffffff8086166020830152841691810191909152600090606001604080518083037fffffffffffffffffffffffffffffffffffffffffffffffffffffffffffffffe0018152918152815160209283012060009081526004909252902080547fffffffffffffffffffffffffffffffffffffffffffffffffffffffffffffff001692151592909217909155505050565b34801561036657600080fd5b506101f06103753660046122c9565b610ab2565b34801561038657600080fd5b506101f06103953660046122f5565b6040805133602082015273ffffffffffffffffffffffffffffffffffffffff841691810191909152606080820152600960808201527f626c61636b6c697374000000000000000000000000000000000000000000000060a0820152819060049060009060c001604080518083037fffffffffffffffffffffffffffffffffffffffffffffffffffffffffffffffe001815291815281516020928301208352908201929092520160002080547fffffffffffffffffffffffffffffffffffffffffffffffffffffffffffffff00169115159190911790555050565b34801561047b57600080fd5b506101f061048a36600461232e565b6040805133602082015280820191909152600960608201527f77686974656c69737400000000000000000000000000000000000000000000006080820152819060049060009060a001604080518083037fffffffffffffffffffffffffffffffffffffffffffffffffffffffffffffffe001815291815281516020928301208352908201929092520160002080547fffffffffffffffffffffffffffffffffffffffffffffffffffffffffffffff001691151591909117905550565b34801561055257600080fd5b5061021261056136600461223a565b60056020526000908152604090205481565b34801561057f57600080fd5b506101f061058e3660046122c9565b610b4a565b34801561059f57600080fd5b506102126105ae36600461223a565b60066020526000908152604090205481565b3480156105cc57600080fd5b506106106105db36600461223a565b73ffffffffffffffffffffffffffffffffffffffff166000908152600660209081526040808320546005909252909120549091565b6040805192835260208301919091520161021c565b34801561063157600080fd5b506101f0610be0565b34801561064657600080fd5b506102126188b881565b34801561065c57600080fd5b5060005473ffffffffffffffffffffffffffffffffffffffff165b60405173ffffffffffffffffffffffffffffffffffffffff909116815260200161021c565b3480156106a857600080fd5b506102126106b736600461223a565b60076020526000908152604090205481565b3480156106d557600080fd5b506101f0336000908152600560205260409020439055565b3480156106f957600080fd5b506101f061070836600461234b565b610bf4565b34801561071957600080fd5b506106777f000000000000000000000000000000000000000000000000000000000000000081565b34801561074d57600080fd5b506101f0610c0e565b34801561076257600080fd5b506101f061077136600461223a565b610c92565b34801561078257600080fd5b50610212610d3e565b6101f0610df4565b34801561079f57600080fd5b506101f06107ae3660046122c9565b610e7c565b3480156107bf57600080fd5b506101f06107ce366004612257565b610f67565b3480156107df57600080fd5b506102126107ee36600461223a565b73ffffffffffffffffffffffffffffffffffffffff1660009081526007602052604090205490565b34801561082257600080fd5b506101f061083136600461223a565b610f84565b34801561084257600080fd5b506108566108513660046123da565b611038565b60405161021c9291906124a4565b34801561087057600080fd5b506101f061087f3660046122c9565b61105b565b61088c611113565b6040517f0396cb6000000000000000000000000000000000000000000000000000000000815263ffffffff821660048201527f000000000000000000000000000000000000000000000000000000000000000073ffffffffffffffffffffffffffffffffffffffff1690630396cb609034906024016000604051808303818588803b15801561091a57600080fd5b505af115801561092e573d6000803e3d6000fd5b505050505050565b73ffffffffffffffffffffffffffffffffffffffff8116600090815260056020526040812054431061096957600061099a565b73ffffffffffffffffffffffffffffffffffffffff821660009081526005602052604090205461099a9043906124f5565b92915050565b6040517fb760faf90000000000000000000000000000000000000000000000000000000081523060048201527f000000000000000000000000000000000000000000000000000000000000000073ffffffffffffffffffffffffffffffffffffffff169063b760faf99034906024016000604051808303818588803b158015610a2857600080fd5b505af1158015610a3c573d6000803e3d6000fd5b50505073ffffffffffffffffffffffffffffffffffffffff831660009081526007602052604081208054349450909250610a7790849061250c565b90915550503373ffffffffffffffffffffffffffffffffffffffff82161415610aaf57610aaf33600090815260056020526040812055565b50565b610aba611113565b6040517f205c287800000000000000000000000000000000000000000000000000000000815273ffffffffffffffffffffffffffffffffffffffff8381166004830152602482018390527f0000000000000000000000000000000000000000000000000000000000000000169063205c287890604401600060405180830381600087803b15801561091a57600080fd5b600254610b6f9073ffffffffffffffffffffffffffffffffffffffff16333084611194565b73ffffffffffffffffffffffffffffffffffffffff821660009081526006602052604081208054839290610ba490849061250c565b90915550503373ffffffffffffffffffffffffffffffffffffffff83161415610bdc57610bdc33600090815260056020526040812055565b5050565b610be8611113565b610bf26000611270565b565b610bfc6112e5565b610c0884848484611327565b50505050565b610c16611113565b7f000000000000000000000000000000000000000000000000000000000000000073ffffffffffffffffffffffffffffffffffffffff1663bb9fe6bf6040518163ffffffff1660e01b8152600401600060405180830381600087803b158015610c7e57600080fd5b505af1158015610c08573d6000803e3d6000fd5b610c9a611113565b6040517fc23a5cea00000000000000000000000000000000000000000000000000000000815273ffffffffffffffffffffffffffffffffffffffff82811660048301527f0000000000000000000000000000000000000000000000000000000000000000169063c23a5cea90602401600060405180830381600087803b158015610d2357600080fd5b505af1158015610d37573d6000803e3d6000fd5b5050505050565b6040517f70a082310000000000000000000000000000000000000000000000000000000081523060048201526000907f000000000000000000000000000000000000000000000000000000000000000073ffffffffffffffffffffffffffffffffffffffff16906370a0823190602401602060405180830381865afa158015610dcb573d6000803e3d6000fd5b505050506040513d601f19601f82011682018060405250810190610def9190612524565b905090565b6040517fb760faf90000000000000000000000000000000000000000000000000000000081523060048201527f000000000000000000000000000000000000000000000000000000000000000073ffffffffffffffffffffffffffffffffffffffff169063b760faf99034906024016000604051808303818588803b158015610d2357600080fd5b336000908152600560205260409020544311610f1f576040517f08c379a000000000000000000000000000000000000000000000000000000000815260206004820152602960248201527f4465706f7369745061796d61737465723a206d75737420756e6c6f636b546f6b60448201527f656e4465706f736974000000000000000000000000000000000000000000000060648201526084015b60405180910390fd5b3360009081526006602052604081208054839290610f3e9084906124f5565b9091555050600254610bdc9073ffffffffffffffffffffffffffffffffffffffff168383611518565b610f71814361250c565b3360009081526005602052604090205550565b610f8c611113565b73ffffffffffffffffffffffffffffffffffffffff811661102f576040517f08c379a000000000000000000000000000000000000000000000000000000000815260206004820152602660248201527f4f776e61626c653a206e6577206f776e657220697320746865207a65726f206160448201527f64647265737300000000000000000000000000000000000000000000000000006064820152608401610f16565b610aaf81611270565b606060006110446112e5565b61104f858585611573565b91509150935093915050565b336000908152600560205260409020541580159061108757503360009081526005602052604090205443115b610f1f576040517f08c379a000000000000000000000000000000000000000000000000000000000815260206004820152602960248201527f4465706f7369745061796d61737465723a206d75737420756e6c6f636b546f6b60448201527f656e4465706f73697400000000000000000000000000000000000000000000006064820152608401610f16565b60005473ffffffffffffffffffffffffffffffffffffffff163314610bf2576040517f08c379a000000000000000000000000000000000000000000000000000000000815260206004820181905260248201527f4f776e61626c653a2063616c6c6572206973206e6f7420746865206f776e65726044820152606401610f16565b60405173ffffffffffffffffffffffffffffffffffffffff80851660248301528316604482015260648101829052610c089085907f23b872dd00000000000000000000000000000000000000000000000000000000906084015b604080517fffffffffffffffffffffffffffffffffffffffffffffffffffffffffffffffe08184030181529190526020810180517bffffffffffffffffffffffffffffffffffffffffffffffffffffffff167fffffffff0000000000000000000000000000000000000000000000000000000090931692909217909152611ac7565b6000805473ffffffffffffffffffffffffffffffffffffffff8381167fffffffffffffffffffffffff0000000000000000000000000000000000000000831681178455604051919092169283917f8be0079c531659141344cd1fd0a4f28419497f9722a3daafe3b4186f6b6457e09190a35050565b3373ffffffffffffffffffffffffffffffffffffffff7f00000000000000000000000000000000000000000000000000000000000000001614610bf257600080fd5b6000808080806113398789018961253d565b9450945094509450945060008183856188b8611355919061258e565b61135f908a61250c565b611369919061258e565b61137391906125cb565b905060028a600281111561138957611389612606565b1461145d5773ffffffffffffffffffffffffffffffffffffffff861660009081526006602052604090205481111561141d576040517f08c379a000000000000000000000000000000000000000000000000000000000815260206004820152601460248201527f446f6573206e6f74206861766520746f6b656e730000000000000000000000006044820152606401610f16565b73ffffffffffffffffffffffffffffffffffffffff8616600090815260066020526040812080548392906114529084906124f5565b909155506114989050565b73ffffffffffffffffffffffffffffffffffffffff8616600090815260066020526040812080548392906114929084906124f5565b90915550505b73ffffffffffffffffffffffffffffffffffffffff8516600090815260066020526040812080548392906114cd90849061250c565b909155505073ffffffffffffffffffffffffffffffffffffffff8516600090815260076020526040812080548992906115079084906124f5565b909155505050505050505050505050565b60405173ffffffffffffffffffffffffffffffffffffffff831660248201526044810182905261156e9084907fa9059cbb00000000000000000000000000000000000000000000000000000000906064016111ee565b505050565b60606000611585610120860186612635565b9050602814611616576040517f08c379a000000000000000000000000000000000000000000000000000000000815260206004820152603560248201527f546f6b656e5061796d61737465723a207061796d6173746572416e644461746160448201527f206d75737420737065636966792073706f6e736f7200000000000000000000006064820152608401610f16565b6188b88560a00135116116ab576040517f08c379a000000000000000000000000000000000000000000000000000000000815260206004820152602660248201527f546f6b656e5061796d61737465723a2067617320746f6f206c6f7720666f722060448201527f706f73744f7000000000000000000000000000000000000000000000000000006064820152608401610f16565b3660006116bc610120880188612635565b909250905060006116d082601481866126a1565b6116d9916126cb565b60601c600081815260056020526040902054909150158061171e575073ffffffffffffffffffffffffffffffffffffffff811660009081526005602052604090205443105b611784576040517f08c379a000000000000000000000000000000000000000000000000000000000815260206004820152601c60248201527f546f6b656e5061796d61737465723a205374616b65204c6f636b6564000000006044820152606401610f16565b873573ffffffffffffffffffffffffffffffffffffffff811660009081526005602052604090205415806117dc575073ffffffffffffffffffffffffffffffffffffffff811660009081526005602052604090205443105b611868576040517f08c379a000000000000000000000000000000000000000000000000000000000815260206004820152602260248201527f546f6b656e5061796d61737465723a206465706f736974206e6f74206c6f636b60448201527f65640000000000000000000000000000000000000000000000000000000000006064820152608401610f16565b73ffffffffffffffffffffffffffffffffffffffff821660009081526007602052604090205487111561191d576040517f08c379a000000000000000000000000000000000000000000000000000000000815260206004820152602c60248201527f546f6b656e5061796d61737465723a20646f6573206e6f74206861766520656e60448201527f6f75676820746f2066756e6400000000000000000000000000000000000000006064820152608401610f16565b6119278282611bd3565b6119b3576040517f08c379a000000000000000000000000000000000000000000000000000000000815260206004820152603360248201527f546f6b656e5061796d61737465723a20686173206e6f74206f7220646f65732060448201527f6e6f7420617070726f7665207370656e646572000000000000000000000000006064820152608401610f16565b60006119be88611d7b565b90506119ca8282611d88565b806119fa575073ffffffffffffffffffffffffffffffffffffffff82166000908152600660205260409020548111155b611a60576040517f08c379a000000000000000000000000000000000000000000000000000000000815260206004820181905260248201527f546f6b656e5061796d61737465723a20757365722063616e206e6f74207061796044820152606401610f16565b6000611a6b8b611edb565b6040805173ffffffffffffffffffffffffffffffffffffffff95861660208201529590941685850152606085015250608083015260a0808301979097528051808303909701875260c09091019052509295600095509350505050565b6000611b29826040518060400160405280602081526020017f5361666545524332303a206c6f772d6c6576656c2063616c6c206661696c65648152508573ffffffffffffffffffffffffffffffffffffffff16611f0b9092919063ffffffff16565b80519091501561156e5780806020019051810190611b479190612713565b61156e576040517f08c379a000000000000000000000000000000000000000000000000000000000815260206004820152602a60248201527f5361666545524332303a204552433230206f7065726174696f6e20646964206e60448201527f6f742073756363656564000000000000000000000000000000000000000000006064820152608401610f16565b6040805173ffffffffffffffffffffffffffffffffffffffff8416602080830191909152818301839052600960608301527f77686974656c69737400000000000000000000000000000000000000000000006080808401919091528351808403909101815260a09092018352815191810191909120600090815260049091529081205460ff168015611cf35750506040805173ffffffffffffffffffffffffffffffffffffffff84811660208084019190915290841682840152606080830152600960808301527f626c61636b6c697374000000000000000000000000000000000000000000000060a0808401919091528351808403909101815260c0909201835281519181019190912060009081526004909152205460ff161561099a565b600460008585604051602001611d2c92919073ffffffffffffffffffffffffffffffffffffffff92831681529116602082015260400190565b604080518083037fffffffffffffffffffffffffffffffffffffffffffffffffffffffffffffffe00181529181528151602092830120835290820192909252016000205460ff16949350505050565b600061099a600083611f1a565b6002546040517fdd62ed3e00000000000000000000000000000000000000000000000000000000815273ffffffffffffffffffffffffffffffffffffffff8481166004830152306024830152600092839291169063dd62ed3e90604401602060405180830381865afa158015611e02573d6000803e3d6000fd5b505050506040513d601f19601f82011682018060405250810190611e269190612524565b6002546040517f70a0823100000000000000000000000000000000000000000000000000000000815273ffffffffffffffffffffffffffffffffffffffff8781166004830152929350600092909116906370a0823190602401602060405180830381865afa158015611e9c573d6000803e3d6000fd5b505050506040513d601f19601f82011682018060405250810190611ec09190612524565b9050838110158015611ed25750838210155b95945050505050565b600060e082013561010083013580821415611ef7575092915050565b611f0382488301611fe7565b949350505050565b6060611f038484600085611ffd565b6001546003546002546040517f6a2f491800000000000000000000000000000000000000000000000000000000815273ffffffffffffffffffffffffffffffffffffffff9283166004820152602481018590527401000000000000000000000000000000000000000090910460ff1660448201526000929190911690636a2f491890606401602060405180830381865afa158015611fbc573d6000803e3d6000fd5b505050506040513d601f19601f82011682018060405250810190611fe09190612524565b9392505050565b6000818310611ff65781611fe0565b5090919050565b60608247101561208f576040517f08c379a000000000000000000000000000000000000000000000000000000000815260206004820152602660248201527f416464726573733a20696e73756666696369656e742062616c616e636520666f60448201527f722063616c6c00000000000000000000000000000000000000000000000000006064820152608401610f16565b6000808673ffffffffffffffffffffffffffffffffffffffff1685876040516120b89190612730565b60006040518083038185875af1925050503d80600081146120f5576040519150601f19603f3d011682016040523d82523d6000602084013e6120fa565b606091505b509150915061210b87838387612116565b979650505050505050565b606083156121a95782516121a25773ffffffffffffffffffffffffffffffffffffffff85163b6121a2576040517f08c379a000000000000000000000000000000000000000000000000000000000815260206004820152601d60248201527f416464726573733a2063616c6c20746f206e6f6e2d636f6e74726163740000006044820152606401610f16565b5081611f03565b611f0383838151156121be5781518083602001fd5b806040517f08c379a0000000000000000000000000000000000000000000000000000000008152600401610f16919061274c565b60006020828403121561220457600080fd5b813563ffffffff81168114611fe057600080fd5b73ffffffffffffffffffffffffffffffffffffffff81168114610aaf57600080fd5b60006020828403121561224c57600080fd5b8135611fe081612218565b60006020828403121561226957600080fd5b5035919050565b8015158114610aaf57600080fd5b60008060006060848603121561229357600080fd5b833561229e81612218565b925060208401356122ae81612218565b915060408401356122be81612270565b809150509250925092565b600080604083850312156122dc57600080fd5b82356122e781612218565b946020939093013593505050565b6000806040838503121561230857600080fd5b823561231381612218565b9150602083013561232381612270565b809150509250929050565b60006020828403121561234057600080fd5b8135611fe081612270565b6000806000806060858703121561236157600080fd5b84356003811061237057600080fd5b9350602085013567ffffffffffffffff8082111561238d57600080fd5b818701915087601f8301126123a157600080fd5b8135818111156123b057600080fd5b8860208285010111156123c257600080fd5b95986020929092019750949560400135945092505050565b6000806000606084860312156123ef57600080fd5b833567ffffffffffffffff81111561240657600080fd5b8401610160818703121561241957600080fd5b95602085013595506040909401359392505050565b60005b83811015612449578181015183820152602001612431565b83811115610c085750506000910152565b6000815180845261247281602086016020860161242e565b601f017fffffffffffffffffffffffffffffffffffffffffffffffffffffffffffffffe0169290920160200192915050565b6040815260006124b7604083018561245a565b90508260208301529392505050565b7f4e487b7100000000000000000000000000000000000000000000000000000000600052601160045260246000fd5b600082821015612507576125076124c6565b500390565b6000821982111561251f5761251f6124c6565b500190565b60006020828403121561253657600080fd5b5051919050565b600080600080600060a0868803121561255557600080fd5b853561256081612218565b9450602086013561257081612218565b94979496505050506040830135926060810135926080909101359150565b6000817fffffffffffffffffffffffffffffffffffffffffffffffffffffffffffffffff04831182151516156125c6576125c66124c6565b500290565b600082612601577f4e487b7100000000000000000000000000000000000000000000000000000000600052601260045260246000fd5b500490565b7f4e487b7100000000000000000000000000000000000000000000000000000000600052602160045260246000fd5b60008083357fffffffffffffffffffffffffffffffffffffffffffffffffffffffffffffffe184360301811261266a57600080fd5b83018035915067ffffffffffffffff82111561268557600080fd5b60200191503681900382131561269a57600080fd5b9250929050565b600080858511156126b157600080fd5b838611156126be57600080fd5b5050820193919092039150565b7fffffffffffffffffffffffffffffffffffffffff000000000000000000000000813581811691601485101561270b5780818660140360031b1b83161692505b505092915050565b60006020828403121561272557600080fd5b8151611fe081612270565b6000825161274281846020870161242e565b9190910192915050565b602081526000611fe0602083018461245a56fea2646970667358221220e22dbd74ffb75f6b71389f582798751c1f7566f35b8e3e6ace4017fdee4a381364736f6c634300080c0033","linkReferences":{},"deployedLinkReferences":{},"fileHash":"ad1e25c184a859fbe07c8fc801407d8c2f7e4ea3955bee5f33b2357a662b8021"}