{"_format":"hh-sol-artifact-1","contractName":"TokenPaymaster","sourceName":"contracts/paymaster/TokenPaymaster.sol","abi":[{"inputs":[{"internalType":"contract IEntryPoint","name":"_entryPoint","type":"address"},{"internalType":"contract ITokenPriceOracle","name":"_tokenPriceOracle","type":"address"},{"internalType":"contract IERC20","name":"_token","type":"address"},{"internalType":"contract AggregatorV3Interface","name":"_aggregator","type":"address"}],"stateMutability":"nonpayable","type":"constructor"},{"anonymous":false,"inputs":[{"indexed":true,"internalType":"address","name":"previousOwner","type":"address"},{"indexed":true,"internalType":"address","name":"newOwner","type":"address"}],"name":"OwnershipTransferred","type":"event"},{"inputs":[],"name":"COST_OF_POST","outputs":[{"internalType":"uint256","name":"","type":"uint256"}],"stateMutability":"view","type":"function"},{"inputs":[{"internalType":"address","name":"sponsor","type":"address"},{"internalType":"uint256","name":"amount","type":"uint256"}],"name":"addEthDepositForSponsor","outputs":[],"stateMutability":"payable","type":"function"},{"inputs":[{"internalType":"uint32","name":"unstakeDelaySec","type":"uint32"}],"name":"addStake","outputs":[],"stateMutability":"payable","type":"function"},{"inputs":[{"internalType":"address","name":"account","type":"address"},{"internalType":"uint256","name":"amount","type":"uint256"}],"name":"addTokenDepositTo","outputs":[],"stateMutability":"payable","type":"function"},{"inputs":[{"internalType":"bytes[]","name":"data","type":"bytes[]"}],"name":"batchActions","outputs":[],"stateMutability":"payable","type":"function"},{"inputs":[],"name":"deposit","outputs":[],"stateMutability":"payable","type":"function"},{"inputs":[{"internalType":"address","name":"account","type":"address"}],"name":"depositInfo","outputs":[{"internalType":"uint256","name":"tokenAmount","type":"uint256"},{"internalType":"uint256","name":"sponsorAmount","type":"uint256"},{"internalType":"uint256","name":"_unlockBlockSponsor","type":"uint256"},{"internalType":"uint256","name":"_unlockBlockAccount","type":"uint256"}],"stateMutability":"view","type":"function"},{"inputs":[],"name":"entryPoint","outputs":[{"internalType":"contract IEntryPoint","name":"","type":"address"}],"stateMutability":"view","type":"function"},{"inputs":[],"name":"getDeposit","outputs":[{"internalType":"uint256","name":"","type":"uint256"}],"stateMutability":"view","type":"function"},{"inputs":[{"internalType":"address","name":"sponsor","type":"address"}],"name":"getEthDepositInfoForSponsor","outputs":[{"internalType":"uint256","name":"","type":"uint256"}],"stateMutability":"view","type":"function"},{"inputs":[],"name":"getToken","outputs":[{"internalType":"address","name":"","type":"address"}],"stateMutability":"view","type":"function"},{"inputs":[{"internalType":"address","name":"account","type":"address"},{"internalType":"bool","name":"sponsorMode","type":"bool"}],"name":"getUnlockBlockWithSponsor","outputs":[{"internalType":"uint256","name":"","type":"uint256"}],"stateMutability":"view","type":"function"},{"inputs":[],"name":"lockTokenDeposit","outputs":[],"stateMutability":"payable","type":"function"},{"inputs":[],"name":"owner","outputs":[{"internalType":"address","name":"","type":"address"}],"stateMutability":"view","type":"function"},{"inputs":[{"internalType":"enum IPaymaster.PostOpMode","name":"mode","type":"uint8"},{"internalType":"bytes","name":"context","type":"bytes"},{"internalType":"uint256","name":"actualGasCost","type":"uint256"}],"name":"postOp","outputs":[],"stateMutability":"nonpayable","type":"function"},{"inputs":[],"name":"renounceOwnership","outputs":[],"stateMutability":"nonpayable","type":"function"},{"inputs":[{"internalType":"address","name":"spender","type":"address"},{"internalType":"bool","name":"mode","type":"bool"}],"name":"setSpenderToBlackListMode","outputs":[],"stateMutability":"payable","type":"function"},{"inputs":[{"internalType":"address","name":"spender","type":"address"},{"internalType":"bool","name":"isWhiteListed","type":"bool"}],"name":"setSponsorApproval","outputs":[],"stateMutability":"payable","type":"function"},{"inputs":[{"internalType":"bool","name":"mode","type":"bool"}],"name":"setWhitelistMode","outputs":[],"stateMutability":"payable","type":"function"},{"inputs":[{"internalType":"bytes32","name":"","type":"bytes32"}],"name":"sponsorApprovals","outputs":[{"internalType":"bool","name":"","type":"bool"}],"stateMutability":"view","type":"function"},{"inputs":[{"internalType":"address","name":"","type":"address"}],"name":"sponsorBalances","outputs":[{"internalType":"uint256","name":"","type":"uint256"}],"stateMutability":"view","type":"function"},{"inputs":[{"internalType":"address","name":"","type":"address"}],"name":"tokenBalances","outputs":[{"internalType":"uint256","name":"","type":"uint256"}],"stateMutability":"view","type":"function"},{"inputs":[{"internalType":"address","name":"newOwner","type":"address"}],"name":"transferOwnership","outputs":[],"stateMutability":"nonpayable","type":"function"},{"inputs":[{"internalType":"bytes32","name":"","type":"bytes32"}],"name":"unlockBlock","outputs":[{"internalType":"uint256","name":"","type":"uint256"}],"stateMutability":"view","type":"function"},{"inputs":[{"internalType":"uint256","name":"blockNum","type":"uint256"}],"name":"unlockSponsorEntrypointStakeAfter","outputs":[],"stateMutability":"payable","type":"function"},{"inputs":[],"name":"unlockStake","outputs":[],"stateMutability":"nonpayable","type":"function"},{"inputs":[],"name":"unlockTokenDeposit","outputs":[],"stateMutability":"payable","type":"function"},{"inputs":[{"components":[{"internalType":"address","name":"sender","type":"address"},{"internalType":"uint256","name":"nonce","type":"uint256"},{"internalType":"bytes","name":"initCode","type":"bytes"},{"internalType":"bytes","name":"callData","type":"bytes"},{"internalType":"uint256","name":"callGasLimit","type":"uint256"},{"internalType":"uint256","name":"verificationGasLimit","type":"uint256"},{"internalType":"uint256","name":"preVerificationGas","type":"uint256"},{"internalType":"uint256","name":"maxFeePerGas","type":"uint256"},{"internalType":"uint256","name":"maxPriorityFeePerGas","type":"uint256"},{"internalType":"bytes","name":"paymasterAndData","type":"bytes"},{"internalType":"bytes","name":"signature","type":"bytes"}],"internalType":"struct UserOperation","name":"userOp","type":"tuple"},{"internalType":"bytes32","name":"userOpHash","type":"bytes32"},{"internalType":"uint256","name":"maxCost","type":"uint256"}],"name":"validatePaymasterUserOp","outputs":[{"internalType":"bytes","name":"context","type":"bytes"},{"internalType":"uint256","name":"sigTimeRange","type":"uint256"}],"stateMutability":"nonpayable","type":"function"},{"inputs":[{"internalType":"address","name":"target","type":"address"},{"internalType":"uint256","name":"amount","type":"uint256"}],"name":"withdrawEthDepositTo","outputs":[],"stateMutability":"payable","type":"function"},{"inputs":[{"internalType":"address payable","name":"withdrawAddress","type":"address"}],"name":"withdrawStake","outputs":[],"stateMutability":"nonpayable","type":"function"},{"inputs":[{"internalType":"address payable","name":"withdrawAddress","type":"address"},{"internalType":"uint256","name":"amount","type":"uint256"}],"name":"withdrawTo","outputs":[],"stateMutability":"nonpayable","type":"function"},{"inputs":[{"internalType":"address","name":"target","type":"address"},{"internalType":"uint256","name":"amount","type":"uint256"}],"name":"withdrawTokenDepositTo","outputs":[],"stateMutability":"payable","type":"function"},{"stateMutability":"payable","type":"receive"}],"bytecode":"0x60a06040523480156200001157600080fd5b5060405162002f8938038062002f8983398101604081905262000034916200023f565b83620000403362000130565b6001600160a01b03166080526200005662000180565b600180546001600160a01b038086166001600160a01b0319928316179092556002805492851692909116821790556040805163313ce56760e01b8152905163313ce567916004808201926020929091908290030181865afa158015620000c0573d6000803e3d6000fd5b505050506040513d601f19601f82011682018060405250810190620000e69190620002a7565b6002805460ff92909216600160a01b0260ff60a01b19909216919091179055600380546001600160a01b039092166001600160a01b031990921691909117905550620002d3915050565b600080546001600160a01b038381166001600160a01b0319831681178455604051919092169283917f8be0079c531659141344cd1fd0a4f28419497f9722a3daafe3b4186f6b6457e09190a35050565b6200018b336200018d565b565b6200019b816000436200019e565b50565b81620001c0576001600160a01b03831660009081526005602052604090208190555b604080516001600160a01b038516602082015280820191909152600760608201526639b837b739b7b960c91b6080820152819060059060009060a00160405160208183030381529060405280519060200120815260200190815260200160002081905550505050565b6001600160a01b03811681146200019b57600080fd5b600080600080608085870312156200025657600080fd5b8451620002638162000229565b6020860151909450620002768162000229565b6040860151909350620002898162000229565b60608601519092506200029c8162000229565b939692955090935050565b600060208284031215620002ba57600080fd5b815160ff81168114620002cc57600080fd5b9392505050565b608051612c5b6200032e6000396000818161021a01528181610578015281816106fa015281816107c401528181610bb601528181610c7d01528181610d0d01528181610dc90152818161129701526114960152612c5b6000f3fe6080604052600436106101e75760003560e01c80638da5cb5b11610102578063cd8f80c211610095578063e6e61d1b11610064578063e6e61d1b1461061a578063e8db215d1461062d578063f2fde38b14610670578063f465c77e1461069057600080fd5b8063cd8f80c2146105e4578063d0e30db0146105ec578063d3eccaff146105f4578063e4467d9c1461060757600080fd5b8063b0d691fe116100d1578063b0d691fe14610566578063bb9fe6bf1461059a578063c23a5cea146105af578063c399ec88146105cf57600080fd5b80638da5cb5b146104e65780639d31b69d146105115780639ed0fb681461053e578063a9a234091461054657600080fd5b8063523fba7f1161017a578063728c5a3b11610149578063728c5a3b1461048a578063786be65d1461049d578063796d4371146104bd578063876e132b146104d357600080fd5b8063523fba7f146103f557806355135b9f146104225780636344598914610435578063715018a61461047557600080fd5b806335c293a9116101b657806335c293a91461038157806340e15afe14610394578063425bc1e9146103cf5780634f4400c6146103e257600080fd5b80630396cb60146102bb57806315dab52e146102d0578063205c28781461031557806321df0da71461033557600080fd5b366102b6576040517fb760faf90000000000000000000000000000000000000000000000000000000081523060048201527f000000000000000000000000000000000000000000000000000000000000000073ffffffffffffffffffffffffffffffffffffffff169063b760faf99034906024016000604051808303818588803b15801561027457600080fd5b505af1158015610288573d6000803e3d6000fd5b505033600090815260076020526040812080543495509093509091506102af908490612667565b9091555050005b600080fd5b6102ce6102c936600461267f565b6106be565b005b3480156102dc57600080fd5b506103006102eb3660046126a5565b60046020526000908152604090205460ff1681565b60405190151581526020015b60405180910390f35b34801561032157600080fd5b506102ce6103303660046126e0565b610770565b34801561034157600080fd5b5060025473ffffffffffffffffffffffffffffffffffffffff165b60405173ffffffffffffffffffffffffffffffffffffffff909116815260200161030c565b6102ce61038f36600461271a565b610808565b3480156103a057600080fd5b506103c16103af3660046126a5565b60056020526000908152604090205481565b60405190815260200161030c565b6102ce6103dd366004612753565b610817565b6102ce6103f03660046126e0565b610824565b34801561040157600080fd5b506103c1610410366004612770565b60066020526000908152604090205481565b6102ce6104303660046126e0565b61082f565b34801561044157600080fd5b50610455610450366004612770565b610847565b60408051948552602085019390935291830152606082015260800161030c565b34801561048157600080fd5b506102ce61089c565b6102ce61049836600461278d565b6108b0565b3480156104a957600080fd5b506103c16104b836600461271a565b610ac6565b3480156104c957600080fd5b506103c16188b881565b6102ce6104e13660046126e0565b610b84565b3480156104f257600080fd5b5060005473ffffffffffffffffffffffffffffffffffffffff1661035c565b34801561051d57600080fd5b506103c161052c366004612770565b60076020526000908152604090205481565b6102ce610b8f565b34801561055257600080fd5b506102ce610561366004612802565b610b98565b34801561057257600080fd5b5061035c7f000000000000000000000000000000000000000000000000000000000000000081565b3480156105a657600080fd5b506102ce610bac565b3480156105bb57600080fd5b506102ce6105ca366004612770565b610c30565b3480156105db57600080fd5b506103c1610cdc565b6102ce610d92565b6102ce610d9b565b6102ce6106023660046126e0565b610e23565b6102ce61061536600461271a565b610e2e565b6102ce6106283660046126a5565b610e39565b34801561063957600080fd5b506103c1610648366004612770565b73ffffffffffffffffffffffffffffffffffffffff1660009081526007602052604090205490565b34801561067c57600080fd5b506102ce61068b366004612770565b610e43565b34801561069c57600080fd5b506106b06106ab366004612891565b610ef7565b60405161030c92919061295b565b6106c6610f1a565b6040517f0396cb6000000000000000000000000000000000000000000000000000000000815263ffffffff821660048201527f000000000000000000000000000000000000000000000000000000000000000073ffffffffffffffffffffffffffffffffffffffff1690630396cb609034906024016000604051808303818588803b15801561075457600080fd5b505af1158015610768573d6000803e3d6000fd5b505050505050565b610778610f1a565b6040517f205c287800000000000000000000000000000000000000000000000000000000815273ffffffffffffffffffffffffffffffffffffffff8381166004830152602482018390527f0000000000000000000000000000000000000000000000000000000000000000169063205c287890604401600060405180830381600087803b15801561075457600080fd5b610813338383610f9b565b5050565b6108213382610fec565b50565b6108133383836110ad565b8034101561083c57600080fd5b610813338284611269565b73ffffffffffffffffffffffffffffffffffffffff81166000908152600660209081526040808320546007909252822054909180610886856001610ac6565b9150610893856000610ac6565b90509193509193565b6108a4610f1a565b6108ae6000611374565b565b6000805b82811015610ac0577f55135b9f000000000000000000000000000000000000000000000000000000008484838181106108ef576108ef61297d565b905060200281019061090191906129ac565b61091091600491600091612a18565b61091991612a42565b7fffffffff000000000000000000000000000000000000000000000000000000001614156109ab576000808585848181106109565761095661297d565b905060200281019061096891906129ac565b610976916004908290612a18565b81019061098391906126e0565b9150915080840193503484111561099957600080fd5b6109a4338284611269565b5050610ab8565b6000308585848181106109c0576109c061297d565b90506020028101906109d291906129ac565b6040516109e0929190612a8a565b600060405180830381855af49150503d8060008114610a1b576040519150601f19603f3d011682016040523d82523d6000602084013e610a20565b606091505b5050905080610ab6576040517f08c379a000000000000000000000000000000000000000000000000000000000815260206004820152603360248201527f546f6b656e5061796d61737465723a20696e7465726e616c206261746368656460448201527f207472616e73616374696f6e206661696c65640000000000000000000000000060648201526084015b60405180910390fd5b505b6001016108b4565b50505050565b600081610af9575073ffffffffffffffffffffffffffffffffffffffff8216600090815260056020526040902054610b7e565b6040805173ffffffffffffffffffffffffffffffffffffffff8516602082015280820191909152600760608201527f73706f6e736f7200000000000000000000000000000000000000000000000000608082015260059060009060a0016040516020818303038152906040528051906020012081526020019081526020016000205490505b92915050565b6108133383836113e9565b6108ae33611472565b610ba061147e565b610ac0848484846114c0565b610bb4610f1a565b7f000000000000000000000000000000000000000000000000000000000000000073ffffffffffffffffffffffffffffffffffffffff1663bb9fe6bf6040518163ffffffff1660e01b8152600401600060405180830381600087803b158015610c1c57600080fd5b505af1158015610ac0573d6000803e3d6000fd5b610c38610f1a565b6040517fc23a5cea00000000000000000000000000000000000000000000000000000000815273ffffffffffffffffffffffffffffffffffffffff82811660048301527f0000000000000000000000000000000000000000000000000000000000000000169063c23a5cea90602401600060405180830381600087803b158015610cc157600080fd5b505af1158015610cd5573d6000803e3d6000fd5b5050505050565b6040517f70a082310000000000000000000000000000000000000000000000000000000081523060048201526000907f000000000000000000000000000000000000000000000000000000000000000073ffffffffffffffffffffffffffffffffffffffff16906370a0823190602401602060405180830381865afa158015610d69573d6000803e3d6000fd5b505050506040513d601f19601f82011682018060405250810190610d8d9190612a9a565b905090565b6108ae336115af565b6040517fb760faf90000000000000000000000000000000000000000000000000000000081523060048201527f000000000000000000000000000000000000000000000000000000000000000073ffffffffffffffffffffffffffffffffffffffff169063b760faf99034906024016000604051808303818588803b158015610cc157600080fd5b6108133383836115bb565b610813338383611786565b6108213382611795565b610e4b610f1a565b73ffffffffffffffffffffffffffffffffffffffff8116610eee576040517f08c379a000000000000000000000000000000000000000000000000000000000815260206004820152602660248201527f4f776e61626c653a206e6577206f776e657220697320746865207a65726f206160448201527f64647265737300000000000000000000000000000000000000000000000000006064820152608401610aad565b61082181611374565b60606000610f0361147e565b610f0e8585856117aa565b91509150935093915050565b60005473ffffffffffffffffffffffffffffffffffffffff1633146108ae576040517f08c379a000000000000000000000000000000000000000000000000000000000815260206004820181905260248201527f4f776e61626c653a2063616c6c6572206973206e6f7420746865206f776e65726044820152606401610aad565b8060046000610faa8686611ca2565b8152602081019190915260400160002080547fffffffffffffffffffffffffffffffffffffffffffffffffffffffffffffff0016911515919091179055505050565b806004600061106c856040805173ffffffffffffffffffffffffffffffffffffffff8316602082015280820191909152600960608201527f77686974656c6973740000000000000000000000000000000000000000000000608082015260009060a001604051602081830303815290604052805190602001209050919050565b8152602081019190915260400160002080547fffffffffffffffffffffffffffffffffffffffffffffffffffffffffffffff00169115159190911790555050565b60006110ba846000610ac6565b905080158015906110ca57508043115b611156576040517f08c379a000000000000000000000000000000000000000000000000000000000815260206004820152602760248201527f546f6b656e5061796d61737465723a206d75737420756e6c6f636b546f6b656e60448201527f4465706f736974000000000000000000000000000000000000000000000000006064820152608401610aad565b73ffffffffffffffffffffffffffffffffffffffff841660009081526006602052604090205482111561120b576040517f08c379a000000000000000000000000000000000000000000000000000000000815260206004820152602a60248201527f546f6b656e5061796d61737465723a20646f6573206e6f74206861766520656e60448201527f6f7567682066756e6473000000000000000000000000000000000000000000006064820152608401610aad565b73ffffffffffffffffffffffffffffffffffffffff841660009081526006602052604081208054849290611240908490612ab3565b9091555050600254610ac09073ffffffffffffffffffffffffffffffffffffffff168484611d24565b6040517fb760faf90000000000000000000000000000000000000000000000000000000081523060048201527f000000000000000000000000000000000000000000000000000000000000000073ffffffffffffffffffffffffffffffffffffffff169063b760faf99084906024016000604051808303818588803b1580156112f157600080fd5b505af1158015611305573d6000803e3d6000fd5b50505073ffffffffffffffffffffffffffffffffffffffff831660009081526007602052604081208054869450909250611340908490612667565b909155505073ffffffffffffffffffffffffffffffffffffffff838116908216141561136f5761136f83611df8565b505050565b6000805473ffffffffffffffffffffffffffffffffffffffff8381167fffffffffffffffffffffffff0000000000000000000000000000000000000000831681178455604051919092169283917f8be0079c531659141344cd1fd0a4f28419497f9722a3daafe3b4186f6b6457e09190a35050565b60025461140e9073ffffffffffffffffffffffffffffffffffffffff16843084611e05565b73ffffffffffffffffffffffffffffffffffffffff821660009081526006602052604081208054839290611443908490612667565b909155505073ffffffffffffffffffffffffffffffffffffffff838116908316141561136f5761136f836115af565b61082181600043611e63565b3373ffffffffffffffffffffffffffffffffffffffff7f000000000000000000000000000000000000000000000000000000000000000016146108ae57600080fd5b6000808080806114d287890189612aca565b9450945094509450945060008183856188b86114ee9190612b1b565b6114f8908a612667565b6115029190612b1b565b61150c9190612b58565b90506115188682611f1d565b73ffffffffffffffffffffffffffffffffffffffff85166000908152600660205260408120805483929061154d908490612667565b9091555061155f9050846188b8612b1b565b6115699088612667565b73ffffffffffffffffffffffffffffffffffffffff86166000908152600760205260408120805490919061159e908490612ab3565b909155505050505050505050505050565b61082181600080611e63565b6115c6836001610ac6565b4311611654576040517f08c379a000000000000000000000000000000000000000000000000000000000815260206004820152602760248201527f546f6b656e5061796d61737465723a206d75737420756e6c6f636b546f6b656e60448201527f4465706f736974000000000000000000000000000000000000000000000000006064820152608401610aad565b73ffffffffffffffffffffffffffffffffffffffff8316600090815260076020526040902054811115611709576040517f08c379a000000000000000000000000000000000000000000000000000000000815260206004820152602760248201527f546f6b656e5061796d61737465723a206d75737420756e6c6f636b546f6b656e60448201527f4465706f736974000000000000000000000000000000000000000000000000006064820152608401610aad565b73ffffffffffffffffffffffffffffffffffffffff83166000908152600760205260408120805483929061173e908490612ab3565b909155505060405173ffffffffffffffffffffffffffffffffffffffff83169082156108fc029083906000818181858888f19350505050158015610ac0573d6000803e3d6000fd5b8060046000610faa868661201e565b6108138260016117a58443612667565b611e63565b606060006117bc6101208601866129ac565b905060281461184d576040517f08c379a000000000000000000000000000000000000000000000000000000000815260206004820152603560248201527f546f6b656e5061796d61737465723a207061796d6173746572416e644461746160448201527f206d75737420737065636966792073706f6e736f7200000000000000000000006064820152608401610aad565b6188b88560a00135116118e2576040517f08c379a000000000000000000000000000000000000000000000000000000000815260206004820152602660248201527f546f6b656e5061796d61737465723a2067617320746f6f206c6f7720666f722060448201527f706f73744f7000000000000000000000000000000000000000000000000000006064820152608401610aad565b3660006118f36101208801886129ac565b909250905060006119078260148186612a18565b61191091612b93565b60601c90506000611922826001610ac6565b905080158061193057504381115b611996576040517f08c379a000000000000000000000000000000000000000000000000000000000815260206004820152601c60248201527f546f6b656e5061796d61737465723a205374616b65204c6f636b6564000000006044820152606401610aad565b883560006119a48282610ac6565b90508015806119b257504381115b611a3e576040517f08c379a000000000000000000000000000000000000000000000000000000000815260206004820152602260248201527f546f6b656e5061796d61737465723a206465706f736974206e6f74206c6f636b60448201527f65640000000000000000000000000000000000000000000000000000000000006064820152608401610aad565b73ffffffffffffffffffffffffffffffffffffffff8416600090815260076020526040902054891115611af3576040517f08c379a000000000000000000000000000000000000000000000000000000000815260206004820152602c60248201527f546f6b656e5061796d61737465723a20646f6573206e6f74206861766520656e60448201527f6f75676820746f2066756e6400000000000000000000000000000000000000006064820152608401610aad565b611afd8483612053565b611b89576040517f08c379a000000000000000000000000000000000000000000000000000000000815260206004820152603360248201527f546f6b656e5061796d61737465723a20686173206e6f74206f7220646f65732060448201527f6e6f7420617070726f7665207370656e646572000000000000000000000000006064820152608401610aad565b6000611b9660008b61212c565b9050611ba283826121f9565b80611bd2575073ffffffffffffffffffffffffffffffffffffffff83166000908152600660205260409020548111155b611c38576040517f08c379a000000000000000000000000000000000000000000000000000000000815260206004820181905260248201527f546f6b656e5061796d61737465723a20757365722063616e206e6f74207061796044820152606401610aad565b6000611c438d61234c565b6040805173ffffffffffffffffffffffffffffffffffffffff9687166020820152979095168786015260608701525060808501525060a0808401989098528051808403909801885260c090920190915250939660009650945050505050565b6040805173ffffffffffffffffffffffffffffffffffffffff8085166020830152831691810191909152606080820152600960808201527f626c61636b6c697374000000000000000000000000000000000000000000000060a082015260009060c0015b60405160208183030381529060405280519060200120905092915050565b60405173ffffffffffffffffffffffffffffffffffffffff831660248201526044810182905261136f9084907fa9059cbb00000000000000000000000000000000000000000000000000000000906064015b604080517fffffffffffffffffffffffffffffffffffffffffffffffffffffffffffffffe08184030181529190526020810180517bffffffffffffffffffffffffffffffffffffffffffffffffffffffff167fffffffff000000000000000000000000000000000000000000000000000000009093169290921790915261237c565b6108218160016000611e63565b60405173ffffffffffffffffffffffffffffffffffffffff80851660248301528316604482015260648101829052610ac09085907f23b872dd0000000000000000000000000000000000000000000000000000000090608401611d76565b81611e915773ffffffffffffffffffffffffffffffffffffffff831660009081526005602052604090208190555b6040805173ffffffffffffffffffffffffffffffffffffffff8516602082015280820191909152600760608201527f73706f6e736f72000000000000000000000000000000000000000000000000006080820152819060059060009060a00160405160208183030381529060405280519060200120815260200190815260200160002081905550505050565b611f2782826121f9565b15611f51576002546108139073ffffffffffffffffffffffffffffffffffffffff16833084611e05565b73ffffffffffffffffffffffffffffffffffffffff8216600090815260066020526040902054811115611fe0576040517f08c379a000000000000000000000000000000000000000000000000000000000815260206004820152601460248201527f446f6573206e6f74206861766520746f6b656e730000000000000000000000006044820152606401610aad565b73ffffffffffffffffffffffffffffffffffffffff821660009081526006602052604081208054839290612015908490612ab3565b90915550505050565b6040805173ffffffffffffffffffffffffffffffffffffffff8085166020830152831691810191909152600090606001611d06565b600080600460006120d5866040805173ffffffffffffffffffffffffffffffffffffffff8316602082015280820191909152600960608201527f77686974656c6973740000000000000000000000000000000000000000000000608082015260009060a001604051602081830303815290604052805190602001209050919050565b815260208101919091526040016000205460ff16905080612102576120fa8484612488565b915050610b7e565b60046000612110868661201e565b815260208101919091526040016000205460ff16949350505050565b6001546003546002546040517f6a2f491800000000000000000000000000000000000000000000000000000000815273ffffffffffffffffffffffffffffffffffffffff9283166004820152602481018590527401000000000000000000000000000000000000000090910460ff1660448201526000929190911690636a2f491890606401602060405180830381865afa1580156121ce573d6000803e3d6000fd5b505050506040513d601f19601f820116820180604052508101906121f29190612a9a565b9392505050565b6002546040517fdd62ed3e00000000000000000000000000000000000000000000000000000000815273ffffffffffffffffffffffffffffffffffffffff8481166004830152306024830152600092839291169063dd62ed3e90604401602060405180830381865afa158015612273573d6000803e3d6000fd5b505050506040513d601f19601f820116820180604052508101906122979190612a9a565b6002546040517f70a0823100000000000000000000000000000000000000000000000000000000815273ffffffffffffffffffffffffffffffffffffffff8781166004830152929350600092909116906370a0823190602401602060405180830381865afa15801561230d573d6000803e3d6000fd5b505050506040513d601f19601f820116820180604052508101906123319190612a9a565b90508381101580156123435750838210155b95945050505050565b600060e082013561010083013580821415612368575092915050565b612374824883016124b4565b949350505050565b60006123de826040518060400160405280602081526020017f5361666545524332303a206c6f772d6c6576656c2063616c6c206661696c65648152508573ffffffffffffffffffffffffffffffffffffffff166124ca9092919063ffffffff16565b80519091501561136f57808060200190518101906123fc9190612bd9565b61136f576040517f08c379a000000000000000000000000000000000000000000000000000000000815260206004820152602a60248201527f5361666545524332303a204552433230206f7065726174696f6e20646964206e60448201527f6f742073756363656564000000000000000000000000000000000000000000006064820152608401610aad565b6000600460006124988585611ca2565b815260208101919091526040016000205460ff16159392505050565b60008183106124c357816121f2565b5090919050565b60606123748484600085856000808673ffffffffffffffffffffffffffffffffffffffff1685876040516124fe9190612bf6565b60006040518083038185875af1925050503d806000811461253b576040519150601f19603f3d011682016040523d82523d6000602084013e612540565b606091505b50915091506125518783838761255c565b979650505050505050565b606083156125ef5782516125e85773ffffffffffffffffffffffffffffffffffffffff85163b6125e8576040517f08c379a000000000000000000000000000000000000000000000000000000000815260206004820152601d60248201527f416464726573733a2063616c6c20746f206e6f6e2d636f6e74726163740000006044820152606401610aad565b5081612374565b61237483838151156126045781518083602001fd5b806040517f08c379a0000000000000000000000000000000000000000000000000000000008152600401610aad9190612c12565b7f4e487b7100000000000000000000000000000000000000000000000000000000600052601160045260246000fd5b6000821982111561267a5761267a612638565b500190565b60006020828403121561269157600080fd5b813563ffffffff811681146121f257600080fd5b6000602082840312156126b757600080fd5b5035919050565b73ffffffffffffffffffffffffffffffffffffffff8116811461082157600080fd5b600080604083850312156126f357600080fd5b82356126fe816126be565b946020939093013593505050565b801515811461082157600080fd5b6000806040838503121561272d57600080fd5b8235612738816126be565b915060208301356127488161270c565b809150509250929050565b60006020828403121561276557600080fd5b81356121f28161270c565b60006020828403121561278257600080fd5b81356121f2816126be565b600080602083850312156127a057600080fd5b823567ffffffffffffffff808211156127b857600080fd5b818501915085601f8301126127cc57600080fd5b8135818111156127db57600080fd5b8660208260051b85010111156127f057600080fd5b60209290920196919550909350505050565b6000806000806060858703121561281857600080fd5b84356003811061282757600080fd5b9350602085013567ffffffffffffffff8082111561284457600080fd5b818701915087601f83011261285857600080fd5b81358181111561286757600080fd5b88602082850101111561287957600080fd5b95986020929092019750949560400135945092505050565b6000806000606084860312156128a657600080fd5b833567ffffffffffffffff8111156128bd57600080fd5b840161016081870312156128d057600080fd5b95602085013595506040909401359392505050565b60005b838110156129005781810151838201526020016128e8565b83811115610ac05750506000910152565b600081518084526129298160208601602086016128e5565b601f017fffffffffffffffffffffffffffffffffffffffffffffffffffffffffffffffe0169290920160200192915050565b60408152600061296e6040830185612911565b90508260208301529392505050565b7f4e487b7100000000000000000000000000000000000000000000000000000000600052603260045260246000fd5b60008083357fffffffffffffffffffffffffffffffffffffffffffffffffffffffffffffffe18436030181126129e157600080fd5b83018035915067ffffffffffffffff8211156129fc57600080fd5b602001915036819003821315612a1157600080fd5b9250929050565b60008085851115612a2857600080fd5b83861115612a3557600080fd5b5050820193919092039150565b7fffffffff000000000000000000000000000000000000000000000000000000008135818116916004851015612a825780818660040360031b1b83161692505b505092915050565b8183823760009101908152919050565b600060208284031215612aac57600080fd5b5051919050565b600082821015612ac557612ac5612638565b500390565b600080600080600060a08688031215612ae257600080fd5b8535612aed816126be565b94506020860135612afd816126be565b94979496505050506040830135926060810135926080909101359150565b6000817fffffffffffffffffffffffffffffffffffffffffffffffffffffffffffffffff0483118215151615612b5357612b53612638565b500290565b600082612b8e577f4e487b7100000000000000000000000000000000000000000000000000000000600052601260045260246000fd5b500490565b7fffffffffffffffffffffffffffffffffffffffff0000000000000000000000008135818116916014851015612a825760149490940360031b84901b1690921692915050565b600060208284031215612beb57600080fd5b81516121f28161270c565b60008251612c088184602087016128e5565b9190910192915050565b6020815260006121f2602083018461291156fea2646970667358221220bb712bfd3dd1d81a50f219d718bb52c9296796006ec5121fba34f07716cb988d64736f6c634300080c0033","linkReferences":{},"deployedLinkReferences":{},"fileHash":"d437b94b706ac7fea55629dd900d475f548a459f1cfe5c2aed2746f6580f35ec"}