{"_format":"hh-sol-artifact-1","contractName":"TokenPaymaster","sourceName":"contracts/paymaster/TokenPaymaster.sol","abi":[{"inputs":[{"internalType":"contract IEntryPoint","name":"_entryPoint","type":"address"},{"internalType":"contract ITokenPriceOracle","name":"_tokenPriceOracle","type":"address"},{"internalType":"contract IERC20","name":"_token","type":"address"},{"internalType":"contract AggregatorV3Interface","name":"_aggregator","type":"address"}],"stateMutability":"nonpayable","type":"constructor"},{"anonymous":false,"inputs":[{"indexed":true,"internalType":"address","name":"previousOwner","type":"address"},{"indexed":true,"internalType":"address","name":"newOwner","type":"address"}],"name":"OwnershipTransferred","type":"event"},{"inputs":[],"name":"COST_OF_POST","outputs":[{"internalType":"uint256","name":"","type":"uint256"}],"stateMutability":"view","type":"function"},{"inputs":[{"internalType":"address","name":"sponsor","type":"address"}],"name":"addEthDepositForSponsor","outputs":[],"stateMutability":"payable","type":"function"},{"inputs":[{"internalType":"uint32","name":"unstakeDelaySec","type":"uint32"}],"name":"addStake","outputs":[],"stateMutability":"payable","type":"function"},{"inputs":[{"internalType":"address","name":"account","type":"address"},{"internalType":"uint256","name":"amount","type":"uint256"}],"name":"addTokenDepositTo","outputs":[],"stateMutability":"nonpayable","type":"function"},{"inputs":[],"name":"deposit","outputs":[],"stateMutability":"payable","type":"function"},{"inputs":[{"internalType":"address","name":"account","type":"address"}],"name":"depositInfo","outputs":[{"internalType":"uint256","name":"tokenAmount","type":"uint256"},{"internalType":"uint256","name":"sponsorAmount","type":"uint256"},{"internalType":"uint256","name":"_unlockBlockSponsor","type":"uint256"},{"internalType":"uint256","name":"_unlockBlockAccount","type":"uint256"}],"stateMutability":"view","type":"function"},{"inputs":[],"name":"entryPoint","outputs":[{"internalType":"contract IEntryPoint","name":"","type":"address"}],"stateMutability":"view","type":"function"},{"inputs":[],"name":"getDeposit","outputs":[{"internalType":"uint256","name":"","type":"uint256"}],"stateMutability":"view","type":"function"},{"inputs":[{"internalType":"address","name":"sponsor","type":"address"}],"name":"getEthDepositInfoForSponsor","outputs":[{"internalType":"uint256","name":"","type":"uint256"}],"stateMutability":"view","type":"function"},{"inputs":[{"internalType":"address","name":"account","type":"address"},{"internalType":"bool","name":"sponsor","type":"bool"}],"name":"getUnlockBlockWithSponsor","outputs":[{"internalType":"uint256","name":"","type":"uint256"}],"stateMutability":"view","type":"function"},{"inputs":[],"name":"lockSponsorEntrypointStake","outputs":[],"stateMutability":"nonpayable","type":"function"},{"inputs":[],"name":"lockTokenDeposit","outputs":[],"stateMutability":"nonpayable","type":"function"},{"inputs":[],"name":"owner","outputs":[{"internalType":"address","name":"","type":"address"}],"stateMutability":"view","type":"function"},{"inputs":[{"internalType":"enum IPaymaster.PostOpMode","name":"mode","type":"uint8"},{"internalType":"bytes","name":"context","type":"bytes"},{"internalType":"uint256","name":"actualGasCost","type":"uint256"}],"name":"postOp","outputs":[],"stateMutability":"nonpayable","type":"function"},{"inputs":[],"name":"renounceOwnership","outputs":[],"stateMutability":"nonpayable","type":"function"},{"inputs":[{"internalType":"address","name":"spender","type":"address"},{"internalType":"bool","name":"mode","type":"bool"}],"name":"setSpenderToBlackListMode","outputs":[],"stateMutability":"nonpayable","type":"function"},{"inputs":[{"internalType":"address","name":"spender","type":"address"},{"internalType":"bool","name":"isWhiteListed","type":"bool"}],"name":"setSponsorApproval","outputs":[],"stateMutability":"nonpayable","type":"function"},{"inputs":[{"internalType":"bool","name":"mode","type":"bool"}],"name":"setWhitelistMode","outputs":[],"stateMutability":"nonpayable","type":"function"},{"inputs":[{"internalType":"bytes32","name":"","type":"bytes32"}],"name":"sponsorApprovals","outputs":[{"internalType":"bool","name":"","type":"bool"}],"stateMutability":"view","type":"function"},{"inputs":[{"internalType":"address","name":"","type":"address"}],"name":"sponsorBalances","outputs":[{"internalType":"uint256","name":"","type":"uint256"}],"stateMutability":"view","type":"function"},{"inputs":[{"internalType":"address","name":"","type":"address"}],"name":"tokenBalances","outputs":[{"internalType":"uint256","name":"","type":"uint256"}],"stateMutability":"view","type":"function"},{"inputs":[{"internalType":"address","name":"newOwner","type":"address"}],"name":"transferOwnership","outputs":[],"stateMutability":"nonpayable","type":"function"},{"inputs":[{"internalType":"bytes32","name":"","type":"bytes32"}],"name":"unlockBlock","outputs":[{"internalType":"uint256","name":"","type":"uint256"}],"stateMutability":"view","type":"function"},{"inputs":[{"internalType":"uint256","name":"blockNum","type":"uint256"}],"name":"unlockSponsorEntrypointStakeAfter","outputs":[],"stateMutability":"nonpayable","type":"function"},{"inputs":[],"name":"unlockStake","outputs":[],"stateMutability":"nonpayable","type":"function"},{"inputs":[],"name":"unlockTokenDeposit","outputs":[],"stateMutability":"nonpayable","type":"function"},{"inputs":[{"components":[{"internalType":"address","name":"sender","type":"address"},{"internalType":"uint256","name":"nonce","type":"uint256"},{"internalType":"bytes","name":"initCode","type":"bytes"},{"internalType":"bytes","name":"callData","type":"bytes"},{"internalType":"uint256","name":"callGasLimit","type":"uint256"},{"internalType":"uint256","name":"verificationGasLimit","type":"uint256"},{"internalType":"uint256","name":"preVerificationGas","type":"uint256"},{"internalType":"uint256","name":"maxFeePerGas","type":"uint256"},{"internalType":"uint256","name":"maxPriorityFeePerGas","type":"uint256"},{"internalType":"bytes","name":"paymasterAndData","type":"bytes"},{"internalType":"bytes","name":"signature","type":"bytes"}],"internalType":"struct UserOperation","name":"userOp","type":"tuple"},{"internalType":"bytes32","name":"userOpHash","type":"bytes32"},{"internalType":"uint256","name":"maxCost","type":"uint256"}],"name":"validatePaymasterUserOp","outputs":[{"internalType":"bytes","name":"context","type":"bytes"},{"internalType":"uint256","name":"sigTimeRange","type":"uint256"}],"stateMutability":"nonpayable","type":"function"},{"inputs":[{"internalType":"address","name":"target","type":"address"},{"internalType":"uint256","name":"amount","type":"uint256"}],"name":"withdrawEthDepositTo","outputs":[],"stateMutability":"nonpayable","type":"function"},{"inputs":[{"internalType":"address payable","name":"withdrawAddress","type":"address"}],"name":"withdrawStake","outputs":[],"stateMutability":"nonpayable","type":"function"},{"inputs":[{"internalType":"address payable","name":"withdrawAddress","type":"address"},{"internalType":"uint256","name":"amount","type":"uint256"}],"name":"withdrawTo","outputs":[],"stateMutability":"nonpayable","type":"function"},{"inputs":[{"internalType":"address","name":"target","type":"address"},{"internalType":"uint256","name":"amount","type":"uint256"}],"name":"withdrawTokenDepositTo","outputs":[],"stateMutability":"nonpayable","type":"function"}],"bytecode":"0x60a06040523480156200001157600080fd5b5060405162002ba038038062002ba0833981016040819052620000349162000234565b83620000403362000130565b6001600160a01b03166080526200005662000180565b600180546001600160a01b038086166001600160a01b0319928316179092556002805492851692909116821790556040805163313ce56760e01b8152905163313ce567916004808201926020929091908290030181865afa158015620000c0573d6000803e3d6000fd5b505050506040513d601f19601f82011682018060405250810190620000e691906200029c565b6002805460ff92909216600160a01b0260ff60a01b19909216919091179055600380546001600160a01b039092166001600160a01b031990921691909117905550620002c8915050565b600080546001600160a01b038381166001600160a01b0319831681178455604051919092169283917f8be0079c531659141344cd1fd0a4f28419497f9722a3daafe3b4186f6b6457e09190a35050565b6200018e3360004362000190565b565b81620001b2576001600160a01b03831660009081526005602052604090208190555b604080516001600160a01b038516602082015280820191909152600760608201526639b837b739b7b960c91b6080820152819060059060009060a00160405160208183030381529060405280519060200120815260200190815260200160002081905550505050565b6001600160a01b03811681146200023157600080fd5b50565b600080600080608085870312156200024b57600080fd5b845162000258816200021b565b60208601519094506200026b816200021b565b60408601519093506200027e816200021b565b606086015190925062000291816200021b565b939692955090935050565b600060208284031215620002af57600080fd5b815160ff81168114620002c157600080fd5b9392505050565b6080516128846200031c600039600081816104b2015281816106680152818161071b0152818161084601528181610d1201528181610dd901528181610e6901528181610f28015261159801526128846000f3fe6080604052600436106101d85760003560e01c80638da5cb5b11610102578063cd8f80c211610095578063e6e61d1b11610064578063e6e61d1b1461057b578063e8db215d1461059b578063f2fde38b146105de578063f465c77e146105fe57600080fd5b8063cd8f80c21461051e578063d0e30db014610533578063d3eccaff1461053b578063e4467d9c1461055b57600080fd5b8063b0d691fe116100d1578063b0d691fe146104a0578063bb9fe6bf146104d4578063c23a5cea146104e9578063c399ec881461050957600080fd5b80638da5cb5b146103f25780639d31b69d1461043e5780639ed0fb681461046b578063a9a234091461048057600080fd5b8063425bc1e91161017a578063715018a611610149578063715018a614610387578063786be65d1461039c578063796d4371146103bc578063876e132b146103d257600080fd5b8063425bc1e9146102da5780634f4400c6146102fa578063523fba7f1461031a578063634459891461034757600080fd5b806318f95857116101b657806318f958571461024c578063205c28781461025f57806335c293a91461027f57806340e15afe1461029f57600080fd5b80630396cb60146101dd578063107d5fdf146101f257806315dab52e14610207575b600080fd5b6101f06101eb36600461235b565b61062c565b005b3480156101fe57600080fd5b506101f06106de565b34801561021357600080fd5b50610237610222366004612381565b60046020526000908152604090205460ff1681565b60405190151581526020015b60405180910390f35b6101f061025a3660046123bc565b6106ed565b34801561026b57600080fd5b506101f061027a3660046123d9565b6107f2565b34801561028b57600080fd5b506101f061029a366004612413565b61088a565b3480156102ab57600080fd5b506102cc6102ba366004612381565b60056020526000908152604090205481565b604051908152602001610243565b3480156102e657600080fd5b506101f06102f536600461244c565b6108da565b34801561030657600080fd5b506101f06103153660046123d9565b61099a565b34801561032657600080fd5b506102cc6103353660046123bc565b60066020526000908152604090205481565b34801561035357600080fd5b506103676103623660046123bc565b610b34565b604080519485526020850193909352918301526060820152608001610243565b34801561039357600080fd5b506101f0610b89565b3480156103a857600080fd5b506102cc6103b7366004612413565b610b9b565b3480156103c857600080fd5b506102cc6188b881565b3480156103de57600080fd5b506101f06103ed3660046123d9565b610c59565b3480156103fe57600080fd5b5060005473ffffffffffffffffffffffffffffffffffffffff165b60405173ffffffffffffffffffffffffffffffffffffffff9091168152602001610243565b34801561044a57600080fd5b506102cc6104593660046123bc565b60076020526000908152604090205481565b34801561047757600080fd5b506101f0610ce2565b34801561048c57600080fd5b506101f061049b366004612469565b610cee565b3480156104ac57600080fd5b506104197f000000000000000000000000000000000000000000000000000000000000000081565b3480156104e057600080fd5b506101f0610d08565b3480156104f557600080fd5b506101f06105043660046123bc565b610d8c565b34801561051557600080fd5b506102cc610e38565b34801561052a57600080fd5b506101f0610eee565b6101f0610efa565b34801561054757600080fd5b506101f06105563660046123d9565b610f82565b34801561056757600080fd5b506101f0610576366004612413565b611121565b34801561058757600080fd5b506101f0610596366004612381565b611130565b3480156105a757600080fd5b506102cc6105b63660046123bc565b73ffffffffffffffffffffffffffffffffffffffff1660009081526007602052604090205490565b3480156105ea57600080fd5b506101f06105f93660046123bc565b611145565b34801561060a57600080fd5b5061061e6106193660046124f8565b6111f9565b6040516102439291906125c2565b61063461121c565b6040517f0396cb6000000000000000000000000000000000000000000000000000000000815263ffffffff821660048201527f000000000000000000000000000000000000000000000000000000000000000073ffffffffffffffffffffffffffffffffffffffff1690630396cb609034906024016000604051808303818588803b1580156106c257600080fd5b505af11580156106d6573d6000803e3d6000fd5b505050505050565b6106eb336001600061129d565b565b6040517fb760faf90000000000000000000000000000000000000000000000000000000081523060048201527f000000000000000000000000000000000000000000000000000000000000000073ffffffffffffffffffffffffffffffffffffffff169063b760faf99034906024016000604051808303818588803b15801561077557600080fd5b505af1158015610789573d6000803e3d6000fd5b50505073ffffffffffffffffffffffffffffffffffffffff8316600090815260076020526040812080543494509092506107c4908490612613565b90915550503373ffffffffffffffffffffffffffffffffffffffff821614156107ef576107ef6106de565b50565b6107fa61121c565b6040517f205c287800000000000000000000000000000000000000000000000000000000815273ffffffffffffffffffffffffffffffffffffffff8381166004830152602482018390527f0000000000000000000000000000000000000000000000000000000000000000169063205c287890604401600060405180830381600087803b1580156106c257600080fd5b80600460006108993386611357565b8152602081019190915260400160002080547fffffffffffffffffffffffffffffffffffffffffffffffffffffffffffffff00169115159190911790555050565b806004600061095a336040805173ffffffffffffffffffffffffffffffffffffffff8316602082015280820191909152600960608201527f77686974656c6973740000000000000000000000000000000000000000000000608082015260009060a001604051602081830303815290604052805190602001209050919050565b8152602081019190915260400160002080547fffffffffffffffffffffffffffffffffffffffffffffffffffffffffffffff001691151591909117905550565b60006109a7336000610b9b565b905080158015906109b757508043115b610a48576040517f08c379a000000000000000000000000000000000000000000000000000000000815260206004820152602760248201527f546f6b656e5061796d61737465723a206d75737420756e6c6f636b546f6b656e60448201527f4465706f7369740000000000000000000000000000000000000000000000000060648201526084015b60405180910390fd5b33600090815260066020526040902054821115610ae7576040517f08c379a000000000000000000000000000000000000000000000000000000000815260206004820152602a60248201527f546f6b656e5061796d61737465723a20646f6573206e6f74206861766520656e60448201527f6f7567682066756e6473000000000000000000000000000000000000000000006064820152608401610a3f565b3360009081526006602052604081208054849290610b0690849061262b565b9091555050600254610b2f9073ffffffffffffffffffffffffffffffffffffffff1684846113d9565b505050565b73ffffffffffffffffffffffffffffffffffffffff81166000908152600660209081526040808320546007909252822054909180610b73856001610b9b565b9150610b80856000610b9b565b90509193509193565b610b9161121c565b6106eb60006114ad565b600081610bce575073ffffffffffffffffffffffffffffffffffffffff8216600090815260056020526040902054610c53565b6040805173ffffffffffffffffffffffffffffffffffffffff8516602082015280820191909152600760608201527f73706f6e736f7200000000000000000000000000000000000000000000000000608082015260059060009060a0016040516020818303038152906040528051906020012081526020019081526020016000205490505b92915050565b600254610c7e9073ffffffffffffffffffffffffffffffffffffffff16333084611522565b73ffffffffffffffffffffffffffffffffffffffff821660009081526006602052604081208054839290610cb3908490612613565b90915550503373ffffffffffffffffffffffffffffffffffffffff83161415610cde57610cde610eee565b5050565b6106eb3360004361129d565b610cf6611580565b610d02848484846115c2565b50505050565b610d1061121c565b7f000000000000000000000000000000000000000000000000000000000000000073ffffffffffffffffffffffffffffffffffffffff1663bb9fe6bf6040518163ffffffff1660e01b8152600401600060405180830381600087803b158015610d7857600080fd5b505af1158015610d02573d6000803e3d6000fd5b610d9461121c565b6040517fc23a5cea00000000000000000000000000000000000000000000000000000000815273ffffffffffffffffffffffffffffffffffffffff82811660048301527f0000000000000000000000000000000000000000000000000000000000000000169063c23a5cea90602401600060405180830381600087803b158015610e1d57600080fd5b505af1158015610e31573d6000803e3d6000fd5b5050505050565b6040517f70a082310000000000000000000000000000000000000000000000000000000081523060048201526000907f000000000000000000000000000000000000000000000000000000000000000073ffffffffffffffffffffffffffffffffffffffff16906370a0823190602401602060405180830381865afa158015610ec5573d6000803e3d6000fd5b505050506040513d601f19601f82011682018060405250810190610ee99190612642565b905090565b6106eb3360008061129d565b6040517fb760faf90000000000000000000000000000000000000000000000000000000081523060048201527f000000000000000000000000000000000000000000000000000000000000000073ffffffffffffffffffffffffffffffffffffffff169063b760faf99034906024016000604051808303818588803b158015610e1d57600080fd5b610f8d336001610b9b565b431161101b576040517f08c379a000000000000000000000000000000000000000000000000000000000815260206004820152602760248201527f546f6b656e5061796d61737465723a206d75737420756e6c6f636b546f6b656e60448201527f4465706f736974000000000000000000000000000000000000000000000000006064820152608401610a3f565b336000908152600760205260409020548111156110ba576040517f08c379a000000000000000000000000000000000000000000000000000000000815260206004820152602760248201527f546f6b656e5061796d61737465723a206d75737420756e6c6f636b546f6b656e60448201527f4465706f736974000000000000000000000000000000000000000000000000006064820152608401610a3f565b33600090815260076020526040812080548392906110d990849061262b565b909155505060405173ffffffffffffffffffffffffffffffffffffffff83169082156108fc029083906000818181858888f19350505050158015610b2f573d6000803e3d6000fd5b806004600061089933866116b1565b6107ef3360016111408443612613565b61129d565b61114d61121c565b73ffffffffffffffffffffffffffffffffffffffff81166111f0576040517f08c379a000000000000000000000000000000000000000000000000000000000815260206004820152602660248201527f4f776e61626c653a206e6577206f776e657220697320746865207a65726f206160448201527f64647265737300000000000000000000000000000000000000000000000000006064820152608401610a3f565b6107ef816114ad565b60606000611205611580565b6112108585856116e6565b91509150935093915050565b60005473ffffffffffffffffffffffffffffffffffffffff1633146106eb576040517f08c379a000000000000000000000000000000000000000000000000000000000815260206004820181905260248201527f4f776e61626c653a2063616c6c6572206973206e6f7420746865206f776e65726044820152606401610a3f565b816112cb5773ffffffffffffffffffffffffffffffffffffffff831660009081526005602052604090208190555b6040805173ffffffffffffffffffffffffffffffffffffffff8516602082015280820191909152600760608201527f73706f6e736f72000000000000000000000000000000000000000000000000006080820152819060059060009060a00160405160208183030381529060405280519060200120815260200190815260200160002081905550505050565b6040805173ffffffffffffffffffffffffffffffffffffffff8085166020830152831691810191909152606080820152600960808201527f626c61636b6c697374000000000000000000000000000000000000000000000060a082015260009060c0015b60405160208183030381529060405280519060200120905092915050565b60405173ffffffffffffffffffffffffffffffffffffffff8316602482015260448101829052610b2f9084907fa9059cbb00000000000000000000000000000000000000000000000000000000906064015b604080517fffffffffffffffffffffffffffffffffffffffffffffffffffffffffffffffe08184030181529190526020810180517bffffffffffffffffffffffffffffffffffffffffffffffffffffffff167fffffffff0000000000000000000000000000000000000000000000000000000090931692909217909152611bde565b6000805473ffffffffffffffffffffffffffffffffffffffff8381167fffffffffffffffffffffffff0000000000000000000000000000000000000000831681178455604051919092169283917f8be0079c531659141344cd1fd0a4f28419497f9722a3daafe3b4186f6b6457e09190a35050565b60405173ffffffffffffffffffffffffffffffffffffffff80851660248301528316604482015260648101829052610d029085907f23b872dd000000000000000000000000000000000000000000000000000000009060840161142b565b3373ffffffffffffffffffffffffffffffffffffffff7f000000000000000000000000000000000000000000000000000000000000000016146106eb57600080fd5b6000808080806115d48789018961265b565b9450945094509450945060008183856188b86115f091906126ac565b6115fa908a612613565b61160491906126ac565b61160e91906126e9565b905061161a8682611cea565b73ffffffffffffffffffffffffffffffffffffffff85166000908152600660205260408120805483929061164f908490612613565b909155506116619050846188b86126ac565b61166b9088612613565b73ffffffffffffffffffffffffffffffffffffffff8616600090815260076020526040812080549091906116a090849061262b565b909155505050505050505050505050565b6040805173ffffffffffffffffffffffffffffffffffffffff80851660208301528316918101919091526000906060016113bb565b606060006116f8610120860186612724565b9050602814611789576040517f08c379a000000000000000000000000000000000000000000000000000000000815260206004820152603560248201527f546f6b656e5061796d61737465723a207061796d6173746572416e644461746160448201527f206d75737420737065636966792073706f6e736f7200000000000000000000006064820152608401610a3f565b6188b88560a001351161181e576040517f08c379a000000000000000000000000000000000000000000000000000000000815260206004820152602660248201527f546f6b656e5061796d61737465723a2067617320746f6f206c6f7720666f722060448201527f706f73744f7000000000000000000000000000000000000000000000000000006064820152608401610a3f565b36600061182f610120880188612724565b909250905060006118438260148186612790565b61184c916127ba565b60601c9050600061185e826001610b9b565b905080158061186c57504381115b6118d2576040517f08c379a000000000000000000000000000000000000000000000000000000000815260206004820152601c60248201527f546f6b656e5061796d61737465723a205374616b65204c6f636b6564000000006044820152606401610a3f565b883560006118e08282610b9b565b90508015806118ee57504381115b61197a576040517f08c379a000000000000000000000000000000000000000000000000000000000815260206004820152602260248201527f546f6b656e5061796d61737465723a206465706f736974206e6f74206c6f636b60448201527f65640000000000000000000000000000000000000000000000000000000000006064820152608401610a3f565b73ffffffffffffffffffffffffffffffffffffffff8416600090815260076020526040902054891115611a2f576040517f08c379a000000000000000000000000000000000000000000000000000000000815260206004820152602c60248201527f546f6b656e5061796d61737465723a20646f6573206e6f74206861766520656e60448201527f6f75676820746f2066756e6400000000000000000000000000000000000000006064820152608401610a3f565b611a398483611deb565b611ac5576040517f08c379a000000000000000000000000000000000000000000000000000000000815260206004820152603360248201527f546f6b656e5061796d61737465723a20686173206e6f74206f7220646f65732060448201527f6e6f7420617070726f7665207370656e646572000000000000000000000000006064820152608401610a3f565b6000611ad260008b611ec5565b9050611ade8382611f92565b80611b0e575073ffffffffffffffffffffffffffffffffffffffff83166000908152600660205260409020548111155b611b74576040517f08c379a000000000000000000000000000000000000000000000000000000000815260206004820181905260248201527f546f6b656e5061796d61737465723a20757365722063616e206e6f74207061796044820152606401610a3f565b6000611b7f8d6120e5565b6040805173ffffffffffffffffffffffffffffffffffffffff9687166020820152979095168786015260608701525060808501525060a0808401989098528051808403909801885260c090920190915250939660009650945050505050565b6000611c40826040518060400160405280602081526020017f5361666545524332303a206c6f772d6c6576656c2063616c6c206661696c65648152508573ffffffffffffffffffffffffffffffffffffffff166121159092919063ffffffff16565b805190915015610b2f5780806020019051810190611c5e9190612802565b610b2f576040517f08c379a000000000000000000000000000000000000000000000000000000000815260206004820152602a60248201527f5361666545524332303a204552433230206f7065726174696f6e20646964206e60448201527f6f742073756363656564000000000000000000000000000000000000000000006064820152608401610a3f565b611cf48282611f92565b15611d1e57600254610cde9073ffffffffffffffffffffffffffffffffffffffff16833084611522565b73ffffffffffffffffffffffffffffffffffffffff8216600090815260066020526040902054811115611dad576040517f08c379a000000000000000000000000000000000000000000000000000000000815260206004820152601460248201527f446f6573206e6f74206861766520746f6b656e730000000000000000000000006044820152606401610a3f565b73ffffffffffffffffffffffffffffffffffffffff821660009081526006602052604081208054839290611de290849061262b565b90915550505050565b60008060046000611e6d866040805173ffffffffffffffffffffffffffffffffffffffff8316602082015280820191909152600960608201527f77686974656c6973740000000000000000000000000000000000000000000000608082015260009060a001604051602081830303815290604052805190602001209050919050565b815260208101919091526040016000205460ff1690508015611e9b57611e938484612124565b915050610c53565b60046000611ea986866116b1565b815260208101919091526040016000205460ff16949350505050565b6001546003546002546040517f6a2f491800000000000000000000000000000000000000000000000000000000815273ffffffffffffffffffffffffffffffffffffffff9283166004820152602481018590527401000000000000000000000000000000000000000090910460ff1660448201526000929190911690636a2f491890606401602060405180830381865afa158015611f67573d6000803e3d6000fd5b505050506040513d601f19601f82011682018060405250810190611f8b9190612642565b9392505050565b6002546040517fdd62ed3e00000000000000000000000000000000000000000000000000000000815273ffffffffffffffffffffffffffffffffffffffff8481166004830152306024830152600092839291169063dd62ed3e90604401602060405180830381865afa15801561200c573d6000803e3d6000fd5b505050506040513d601f19601f820116820180604052508101906120309190612642565b6002546040517f70a0823100000000000000000000000000000000000000000000000000000000815273ffffffffffffffffffffffffffffffffffffffff8781166004830152929350600092909116906370a0823190602401602060405180830381865afa1580156120a6573d6000803e3d6000fd5b505050506040513d601f19601f820116820180604052508101906120ca9190612642565b90508381101580156120dc5750838210155b95945050505050565b600060e082013561010083013580821415612101575092915050565b61210d82488301612150565b949350505050565b606061210d8484600085612166565b6000600460006121348585611357565b815260208101919091526040016000205460ff16159392505050565b600081831061215f5781611f8b565b5090919050565b6060824710156121f8576040517f08c379a000000000000000000000000000000000000000000000000000000000815260206004820152602660248201527f416464726573733a20696e73756666696369656e742062616c616e636520666f60448201527f722063616c6c00000000000000000000000000000000000000000000000000006064820152608401610a3f565b6000808673ffffffffffffffffffffffffffffffffffffffff168587604051612221919061281f565b60006040518083038185875af1925050503d806000811461225e576040519150601f19603f3d011682016040523d82523d6000602084013e612263565b606091505b50915091506122748783838761227f565b979650505050505050565b6060831561231257825161230b5773ffffffffffffffffffffffffffffffffffffffff85163b61230b576040517f08c379a000000000000000000000000000000000000000000000000000000000815260206004820152601d60248201527f416464726573733a2063616c6c20746f206e6f6e2d636f6e74726163740000006044820152606401610a3f565b508161210d565b61210d83838151156123275781518083602001fd5b806040517f08c379a0000000000000000000000000000000000000000000000000000000008152600401610a3f919061283b565b60006020828403121561236d57600080fd5b813563ffffffff81168114611f8b57600080fd5b60006020828403121561239357600080fd5b5035919050565b73ffffffffffffffffffffffffffffffffffffffff811681146107ef57600080fd5b6000602082840312156123ce57600080fd5b8135611f8b8161239a565b600080604083850312156123ec57600080fd5b82356123f78161239a565b946020939093013593505050565b80151581146107ef57600080fd5b6000806040838503121561242657600080fd5b82356124318161239a565b9150602083013561244181612405565b809150509250929050565b60006020828403121561245e57600080fd5b8135611f8b81612405565b6000806000806060858703121561247f57600080fd5b84356003811061248e57600080fd5b9350602085013567ffffffffffffffff808211156124ab57600080fd5b818701915087601f8301126124bf57600080fd5b8135818111156124ce57600080fd5b8860208285010111156124e057600080fd5b95986020929092019750949560400135945092505050565b60008060006060848603121561250d57600080fd5b833567ffffffffffffffff81111561252457600080fd5b8401610160818703121561253757600080fd5b95602085013595506040909401359392505050565b60005b8381101561256757818101518382015260200161254f565b83811115610d025750506000910152565b6000815180845261259081602086016020860161254c565b601f017fffffffffffffffffffffffffffffffffffffffffffffffffffffffffffffffe0169290920160200192915050565b6040815260006125d56040830185612578565b90508260208301529392505050565b7f4e487b7100000000000000000000000000000000000000000000000000000000600052601160045260246000fd5b60008219821115612626576126266125e4565b500190565b60008282101561263d5761263d6125e4565b500390565b60006020828403121561265457600080fd5b5051919050565b600080600080600060a0868803121561267357600080fd5b853561267e8161239a565b9450602086013561268e8161239a565b94979496505050506040830135926060810135926080909101359150565b6000817fffffffffffffffffffffffffffffffffffffffffffffffffffffffffffffffff04831182151516156126e4576126e46125e4565b500290565b60008261271f577f4e487b7100000000000000000000000000000000000000000000000000000000600052601260045260246000fd5b500490565b60008083357fffffffffffffffffffffffffffffffffffffffffffffffffffffffffffffffe184360301811261275957600080fd5b83018035915067ffffffffffffffff82111561277457600080fd5b60200191503681900382131561278957600080fd5b9250929050565b600080858511156127a057600080fd5b838611156127ad57600080fd5b5050820193919092039150565b7fffffffffffffffffffffffffffffffffffffffff00000000000000000000000081358181169160148510156127fa5780818660140360031b1b83161692505b505092915050565b60006020828403121561281457600080fd5b8151611f8b81612405565b6000825161283181846020870161254c565b9190910192915050565b602081526000611f8b602083018461257856fea26469706673582212206932736f8f986b1dd1a448dcee192eaf3825abffe717566332b305708aa7bc9364736f6c634300080c0033","linkReferences":{},"deployedLinkReferences":{},"fileHash":"b3f3054f77e09b44805b545b133b0e48a87b9984c5b627b2e7ad184d7762d0e9"}