{"_format":"hh-sol-artifact-1","contractName":"TokenPriceOracle","sourceName":"contracts/paymaster/TokenPriceOracle.sol","abi":[{"inputs":[{"internalType":"contract AggregatorV3Interface","name":"aggregator","type":"address"},{"internalType":"uint256","name":"ethOutput","type":"uint256"},{"internalType":"uint8","name":"decimals","type":"uint8"}],"name":"getTokenValueOfEth","outputs":[{"internalType":"uint256","name":"","type":"uint256"}],"stateMutability":"view","type":"function"}],"bytecode":"0x608060405234801561001057600080fd5b50610503806100206000396000f3fe608060405234801561001057600080fd5b506004361061002b5760003560e01c80636a2f491814610030575b600080fd5b61004361003e3660046101e6565b610055565b60405190815260200160405180910390f35b600080610062858461008a565b9050670de0b6b3a76400006100778286610270565b61008191906102ad565b95945050505050565b6000808373ffffffffffffffffffffffffffffffffffffffff1663feaf968c6040518163ffffffff1660e01b815260040160a060405180830381865afa1580156100d8573d6000803e3d6000fd5b505050506040513d601f19601f820116820180604052508101906100fc9190610307565b50505091505060008473ffffffffffffffffffffffffffffffffffffffff1663313ce5676040518163ffffffff1660e01b8152600401602060405180830381865afa15801561014f573d6000803e3d6000fd5b505050506040513d601f19601f820116820180604052508101906101739190610357565b90508060ff168460ff16116101aa5761018c848261037b565b61019790600a6104be565b6101a190836102ad565b925050506101ce565b6101b4818561037b565b6101bf90600a6104be565b6101c99083610270565b925050505b92915050565b60ff811681146101e357600080fd5b50565b6000806000606084860312156101fb57600080fd5b833573ffffffffffffffffffffffffffffffffffffffff8116811461021f57600080fd5b9250602084013591506040840135610236816101d4565b809150509250925092565b7f4e487b7100000000000000000000000000000000000000000000000000000000600052601160045260246000fd5b6000817fffffffffffffffffffffffffffffffffffffffffffffffffffffffffffffffff04831182151516156102a8576102a8610241565b500290565b6000826102e3577f4e487b7100000000000000000000000000000000000000000000000000000000600052601260045260246000fd5b500490565b805169ffffffffffffffffffff8116811461030257600080fd5b919050565b600080600080600060a0868803121561031f57600080fd5b610328866102e8565b945060208601519350604086015192506060860151915061034b608087016102e8565b90509295509295909350565b60006020828403121561036957600080fd5b8151610374816101d4565b9392505050565b600060ff821660ff84168082101561039557610395610241565b90039392505050565b600181815b808511156103f757817fffffffffffffffffffffffffffffffffffffffffffffffffffffffffffffffff048211156103dd576103dd610241565b808516156103ea57918102915b93841c93908002906103a3565b509250929050565b60008261040e575060016101ce565b8161041b575060006101ce565b8160018114610431576002811461043b57610457565b60019150506101ce565b60ff84111561044c5761044c610241565b50506001821b6101ce565b5060208310610133831016604e8410600b841016171561047a575081810a6101ce565b610484838361039e565b807fffffffffffffffffffffffffffffffffffffffffffffffffffffffffffffffff048211156104b6576104b6610241565b029392505050565b600061037460ff8416836103ff56fea264697066735822122098cc4755264f2e5c5411ba0cf4688e48e5e8561289ba2a5e893a0dbf9d23ef6f64736f6c634300080c0033","linkReferences":{},"deployedLinkReferences":{},"fileHash":"8b2c5f97bf894a6e543e96b977e3e1684ae3ab1fec6a3063adc6abc82a047387"}