{"_format":"hh-sol-artifact-1","contractName":"TokenPaymaster","sourceName":"contracts/paymaster/TokenPaymaster.sol","abi":[{"inputs":[{"internalType":"contract IEntryPoint","name":"_entryPoint","type":"address"},{"internalType":"contract ITokenPriceOracle","name":"_tokenPriceOracle","type":"address"},{"internalType":"contract IERC20","name":"_token","type":"address"},{"internalType":"contract AggregatorV3Interface","name":"_aggregator","type":"address"}],"stateMutability":"nonpayable","type":"constructor"},{"anonymous":false,"inputs":[{"indexed":true,"internalType":"address","name":"previousOwner","type":"address"},{"indexed":true,"internalType":"address","name":"newOwner","type":"address"}],"name":"OwnershipTransferred","type":"event"},{"inputs":[],"name":"COST_OF_POST","outputs":[{"internalType":"uint256","name":"","type":"uint256"}],"stateMutability":"view","type":"function"},{"inputs":[{"internalType":"address","name":"sponsor","type":"address"}],"name":"addEthDepositForSponsor","outputs":[],"stateMutability":"payable","type":"function"},{"inputs":[{"internalType":"uint32","name":"unstakeDelaySec","type":"uint32"}],"name":"addStake","outputs":[],"stateMutability":"payable","type":"function"},{"inputs":[{"internalType":"address","name":"account","type":"address"},{"internalType":"uint256","name":"amount","type":"uint256"}],"name":"addTokenDepositTo","outputs":[],"stateMutability":"nonpayable","type":"function"},{"inputs":[],"name":"deposit","outputs":[],"stateMutability":"payable","type":"function"},{"inputs":[{"internalType":"address","name":"account","type":"address"}],"name":"depositInfo","outputs":[{"internalType":"uint256","name":"tokenAmount","type":"uint256"},{"internalType":"uint256","name":"sponsorAmount","type":"uint256"},{"internalType":"uint256","name":"_unlockBlockSponsor","type":"uint256"},{"internalType":"uint256","name":"_unlockBlockAccount","type":"uint256"}],"stateMutability":"view","type":"function"},{"inputs":[],"name":"entryPoint","outputs":[{"internalType":"contract IEntryPoint","name":"","type":"address"}],"stateMutability":"view","type":"function"},{"inputs":[],"name":"getDeposit","outputs":[{"internalType":"uint256","name":"","type":"uint256"}],"stateMutability":"view","type":"function"},{"inputs":[{"internalType":"address","name":"sponsor","type":"address"}],"name":"getEthDepositInfoForSponsor","outputs":[{"internalType":"uint256","name":"","type":"uint256"}],"stateMutability":"view","type":"function"},{"inputs":[],"name":"getToken","outputs":[{"internalType":"address","name":"","type":"address"}],"stateMutability":"view","type":"function"},{"inputs":[{"internalType":"address","name":"account","type":"address"},{"internalType":"bool","name":"sponsorMode","type":"bool"}],"name":"getUnlockBlockWithSponsor","outputs":[{"internalType":"uint256","name":"","type":"uint256"}],"stateMutability":"view","type":"function"},{"inputs":[],"name":"lockSponsorEntrypointStake","outputs":[],"stateMutability":"nonpayable","type":"function"},{"inputs":[],"name":"lockTokenDeposit","outputs":[],"stateMutability":"nonpayable","type":"function"},{"inputs":[],"name":"owner","outputs":[{"internalType":"address","name":"","type":"address"}],"stateMutability":"view","type":"function"},{"inputs":[{"internalType":"enum IPaymaster.PostOpMode","name":"mode","type":"uint8"},{"internalType":"bytes","name":"context","type":"bytes"},{"internalType":"uint256","name":"actualGasCost","type":"uint256"}],"name":"postOp","outputs":[],"stateMutability":"nonpayable","type":"function"},{"inputs":[],"name":"renounceOwnership","outputs":[],"stateMutability":"nonpayable","type":"function"},{"inputs":[{"internalType":"address","name":"spender","type":"address"},{"internalType":"bool","name":"mode","type":"bool"}],"name":"setSpenderToBlackListMode","outputs":[],"stateMutability":"nonpayable","type":"function"},{"inputs":[{"internalType":"address","name":"spender","type":"address"},{"internalType":"bool","name":"isWhiteListed","type":"bool"}],"name":"setSponsorApproval","outputs":[],"stateMutability":"nonpayable","type":"function"},{"inputs":[{"internalType":"bool","name":"mode","type":"bool"}],"name":"setWhitelistMode","outputs":[],"stateMutability":"nonpayable","type":"function"},{"inputs":[{"internalType":"bytes32","name":"","type":"bytes32"}],"name":"sponsorApprovals","outputs":[{"internalType":"bool","name":"","type":"bool"}],"stateMutability":"view","type":"function"},{"inputs":[{"internalType":"address","name":"","type":"address"}],"name":"sponsorBalances","outputs":[{"internalType":"uint256","name":"","type":"uint256"}],"stateMutability":"view","type":"function"},{"inputs":[{"internalType":"address","name":"","type":"address"}],"name":"tokenBalances","outputs":[{"internalType":"uint256","name":"","type":"uint256"}],"stateMutability":"view","type":"function"},{"inputs":[{"internalType":"address","name":"newOwner","type":"address"}],"name":"transferOwnership","outputs":[],"stateMutability":"nonpayable","type":"function"},{"inputs":[{"internalType":"bytes32","name":"","type":"bytes32"}],"name":"unlockBlock","outputs":[{"internalType":"uint256","name":"","type":"uint256"}],"stateMutability":"view","type":"function"},{"inputs":[{"internalType":"uint256","name":"blockNum","type":"uint256"}],"name":"unlockSponsorEntrypointStakeAfter","outputs":[],"stateMutability":"nonpayable","type":"function"},{"inputs":[],"name":"unlockStake","outputs":[],"stateMutability":"nonpayable","type":"function"},{"inputs":[],"name":"unlockTokenDeposit","outputs":[],"stateMutability":"nonpayable","type":"function"},{"inputs":[{"components":[{"internalType":"address","name":"sender","type":"address"},{"internalType":"uint256","name":"nonce","type":"uint256"},{"internalType":"bytes","name":"initCode","type":"bytes"},{"internalType":"bytes","name":"callData","type":"bytes"},{"internalType":"uint256","name":"callGasLimit","type":"uint256"},{"internalType":"uint256","name":"verificationGasLimit","type":"uint256"},{"internalType":"uint256","name":"preVerificationGas","type":"uint256"},{"internalType":"uint256","name":"maxFeePerGas","type":"uint256"},{"internalType":"uint256","name":"maxPriorityFeePerGas","type":"uint256"},{"internalType":"bytes","name":"paymasterAndData","type":"bytes"},{"internalType":"bytes","name":"signature","type":"bytes"}],"internalType":"struct UserOperation","name":"userOp","type":"tuple"},{"internalType":"bytes32","name":"userOpHash","type":"bytes32"},{"internalType":"uint256","name":"maxCost","type":"uint256"}],"name":"validatePaymasterUserOp","outputs":[{"internalType":"bytes","name":"context","type":"bytes"},{"internalType":"uint256","name":"sigTimeRange","type":"uint256"}],"stateMutability":"nonpayable","type":"function"},{"inputs":[{"internalType":"address","name":"target","type":"address"},{"internalType":"uint256","name":"amount","type":"uint256"}],"name":"withdrawEthDepositTo","outputs":[],"stateMutability":"nonpayable","type":"function"},{"inputs":[{"internalType":"address payable","name":"withdrawAddress","type":"address"}],"name":"withdrawStake","outputs":[],"stateMutability":"nonpayable","type":"function"},{"inputs":[{"internalType":"address payable","name":"withdrawAddress","type":"address"},{"internalType":"uint256","name":"amount","type":"uint256"}],"name":"withdrawTo","outputs":[],"stateMutability":"nonpayable","type":"function"},{"inputs":[{"internalType":"address","name":"target","type":"address"},{"internalType":"uint256","name":"amount","type":"uint256"}],"name":"withdrawTokenDepositTo","outputs":[],"stateMutability":"nonpayable","type":"function"}],"bytecode":"0x60a06040523480156200001157600080fd5b5060405162002bd638038062002bd6833981016040819052620000349162000234565b83620000403362000130565b6001600160a01b03166080526200005662000180565b600180546001600160a01b038086166001600160a01b0319928316179092556002805492851692909116821790556040805163313ce56760e01b8152905163313ce567916004808201926020929091908290030181865afa158015620000c0573d6000803e3d6000fd5b505050506040513d601f19601f82011682018060405250810190620000e691906200029c565b6002805460ff92909216600160a01b0260ff60a01b19909216919091179055600380546001600160a01b039092166001600160a01b031990921691909117905550620002c8915050565b600080546001600160a01b038381166001600160a01b0319831681178455604051919092169283917f8be0079c531659141344cd1fd0a4f28419497f9722a3daafe3b4186f6b6457e09190a35050565b6200018e3360004362000190565b565b81620001b2576001600160a01b03831660009081526005602052604090208190555b604080516001600160a01b038516602082015280820191909152600760608201526639b837b739b7b960c91b6080820152819060059060009060a00160405160208183030381529060405280519060200120815260200190815260200160002081905550505050565b6001600160a01b03811681146200023157600080fd5b50565b600080600080608085870312156200024b57600080fd5b845162000258816200021b565b60208601519094506200026b816200021b565b60408601519093506200027e816200021b565b606086015190925062000291816200021b565b939692955090935050565b600060208284031215620002af57600080fd5b815160ff81168114620002c157600080fd5b9392505050565b6080516128ba6200031c600039600081816104e80152818161069e015281816107510152818161087c01528181610d4801528181610e0f01528181610e9f01528181610f5e01526115ce01526128ba6000f3fe6080604052600436106101e35760003560e01c80638da5cb5b11610102578063cd8f80c211610095578063e6e61d1b11610064578063e6e61d1b146105b1578063e8db215d146105d1578063f2fde38b14610614578063f465c77e1461063457600080fd5b8063cd8f80c214610554578063d0e30db014610569578063d3eccaff14610571578063e4467d9c1461059157600080fd5b8063b0d691fe116100d1578063b0d691fe146104d6578063bb9fe6bf1461050a578063c23a5cea1461051f578063c399ec881461053f57600080fd5b80638da5cb5b146104495780639d31b69d146104745780639ed0fb68146104a1578063a9a23409146104b657600080fd5b8063425bc1e91161017a578063715018a611610149578063715018a6146103de578063786be65d146103f3578063796d437114610413578063876e132b1461042957600080fd5b8063425bc1e9146103315780634f4400c614610351578063523fba7f14610371578063634459891461039e57600080fd5b8063205c2878116101b6578063205c28781461026a57806321df0da71461028a57806335c293a9146102d657806340e15afe146102f657600080fd5b80630396cb60146101e8578063107d5fdf146101fd57806315dab52e1461021257806318f9585714610257575b600080fd5b6101fb6101f6366004612391565b610662565b005b34801561020957600080fd5b506101fb610714565b34801561021e57600080fd5b5061024261022d3660046123b7565b60046020526000908152604090205460ff1681565b60405190151581526020015b60405180910390f35b6101fb6102653660046123f2565b610723565b34801561027657600080fd5b506101fb61028536600461240f565b610828565b34801561029657600080fd5b5060025473ffffffffffffffffffffffffffffffffffffffff165b60405173ffffffffffffffffffffffffffffffffffffffff909116815260200161024e565b3480156102e257600080fd5b506101fb6102f1366004612449565b6108c0565b34801561030257600080fd5b506103236103113660046123b7565b60056020526000908152604090205481565b60405190815260200161024e565b34801561033d57600080fd5b506101fb61034c366004612482565b610910565b34801561035d57600080fd5b506101fb61036c36600461240f565b6109d0565b34801561037d57600080fd5b5061032361038c3660046123f2565b60066020526000908152604090205481565b3480156103aa57600080fd5b506103be6103b93660046123f2565b610b6a565b60408051948552602085019390935291830152606082015260800161024e565b3480156103ea57600080fd5b506101fb610bbf565b3480156103ff57600080fd5b5061032361040e366004612449565b610bd1565b34801561041f57600080fd5b506103236188b881565b34801561043557600080fd5b506101fb61044436600461240f565b610c8f565b34801561045557600080fd5b5060005473ffffffffffffffffffffffffffffffffffffffff166102b1565b34801561048057600080fd5b5061032361048f3660046123f2565b60076020526000908152604090205481565b3480156104ad57600080fd5b506101fb610d18565b3480156104c257600080fd5b506101fb6104d136600461249f565b610d24565b3480156104e257600080fd5b506102b17f000000000000000000000000000000000000000000000000000000000000000081565b34801561051657600080fd5b506101fb610d3e565b34801561052b57600080fd5b506101fb61053a3660046123f2565b610dc2565b34801561054b57600080fd5b50610323610e6e565b34801561056057600080fd5b506101fb610f24565b6101fb610f30565b34801561057d57600080fd5b506101fb61058c36600461240f565b610fb8565b34801561059d57600080fd5b506101fb6105ac366004612449565b611157565b3480156105bd57600080fd5b506101fb6105cc3660046123b7565b611166565b3480156105dd57600080fd5b506103236105ec3660046123f2565b73ffffffffffffffffffffffffffffffffffffffff1660009081526007602052604090205490565b34801561062057600080fd5b506101fb61062f3660046123f2565b61117b565b34801561064057600080fd5b5061065461064f36600461252e565b61122f565b60405161024e9291906125f8565b61066a611252565b6040517f0396cb6000000000000000000000000000000000000000000000000000000000815263ffffffff821660048201527f000000000000000000000000000000000000000000000000000000000000000073ffffffffffffffffffffffffffffffffffffffff1690630396cb609034906024016000604051808303818588803b1580156106f857600080fd5b505af115801561070c573d6000803e3d6000fd5b505050505050565b61072133600160006112d3565b565b6040517fb760faf90000000000000000000000000000000000000000000000000000000081523060048201527f000000000000000000000000000000000000000000000000000000000000000073ffffffffffffffffffffffffffffffffffffffff169063b760faf99034906024016000604051808303818588803b1580156107ab57600080fd5b505af11580156107bf573d6000803e3d6000fd5b50505073ffffffffffffffffffffffffffffffffffffffff8316600090815260076020526040812080543494509092506107fa908490612649565b90915550503373ffffffffffffffffffffffffffffffffffffffff8216141561082557610825610714565b50565b610830611252565b6040517f205c287800000000000000000000000000000000000000000000000000000000815273ffffffffffffffffffffffffffffffffffffffff8381166004830152602482018390527f0000000000000000000000000000000000000000000000000000000000000000169063205c287890604401600060405180830381600087803b1580156106f857600080fd5b80600460006108cf338661138d565b8152602081019190915260400160002080547fffffffffffffffffffffffffffffffffffffffffffffffffffffffffffffff00169115159190911790555050565b8060046000610990336040805173ffffffffffffffffffffffffffffffffffffffff8316602082015280820191909152600960608201527f77686974656c6973740000000000000000000000000000000000000000000000608082015260009060a001604051602081830303815290604052805190602001209050919050565b8152602081019190915260400160002080547fffffffffffffffffffffffffffffffffffffffffffffffffffffffffffffff001691151591909117905550565b60006109dd336000610bd1565b905080158015906109ed57508043115b610a7e576040517f08c379a000000000000000000000000000000000000000000000000000000000815260206004820152602760248201527f546f6b656e5061796d61737465723a206d75737420756e6c6f636b546f6b656e60448201527f4465706f7369740000000000000000000000000000000000000000000000000060648201526084015b60405180910390fd5b33600090815260066020526040902054821115610b1d576040517f08c379a000000000000000000000000000000000000000000000000000000000815260206004820152602a60248201527f546f6b656e5061796d61737465723a20646f6573206e6f74206861766520656e60448201527f6f7567682066756e6473000000000000000000000000000000000000000000006064820152608401610a75565b3360009081526006602052604081208054849290610b3c908490612661565b9091555050600254610b659073ffffffffffffffffffffffffffffffffffffffff16848461140f565b505050565b73ffffffffffffffffffffffffffffffffffffffff81166000908152600660209081526040808320546007909252822054909180610ba9856001610bd1565b9150610bb6856000610bd1565b90509193509193565b610bc7611252565b61072160006114e3565b600081610c04575073ffffffffffffffffffffffffffffffffffffffff8216600090815260056020526040902054610c89565b6040805173ffffffffffffffffffffffffffffffffffffffff8516602082015280820191909152600760608201527f73706f6e736f7200000000000000000000000000000000000000000000000000608082015260059060009060a0016040516020818303038152906040528051906020012081526020019081526020016000205490505b92915050565b600254610cb49073ffffffffffffffffffffffffffffffffffffffff16333084611558565b73ffffffffffffffffffffffffffffffffffffffff821660009081526006602052604081208054839290610ce9908490612649565b90915550503373ffffffffffffffffffffffffffffffffffffffff83161415610d1457610d14610f24565b5050565b610721336000436112d3565b610d2c6115b6565b610d38848484846115f8565b50505050565b610d46611252565b7f000000000000000000000000000000000000000000000000000000000000000073ffffffffffffffffffffffffffffffffffffffff1663bb9fe6bf6040518163ffffffff1660e01b8152600401600060405180830381600087803b158015610dae57600080fd5b505af1158015610d38573d6000803e3d6000fd5b610dca611252565b6040517fc23a5cea00000000000000000000000000000000000000000000000000000000815273ffffffffffffffffffffffffffffffffffffffff82811660048301527f0000000000000000000000000000000000000000000000000000000000000000169063c23a5cea90602401600060405180830381600087803b158015610e5357600080fd5b505af1158015610e67573d6000803e3d6000fd5b5050505050565b6040517f70a082310000000000000000000000000000000000000000000000000000000081523060048201526000907f000000000000000000000000000000000000000000000000000000000000000073ffffffffffffffffffffffffffffffffffffffff16906370a0823190602401602060405180830381865afa158015610efb573d6000803e3d6000fd5b505050506040513d601f19601f82011682018060405250810190610f1f9190612678565b905090565b610721336000806112d3565b6040517fb760faf90000000000000000000000000000000000000000000000000000000081523060048201527f000000000000000000000000000000000000000000000000000000000000000073ffffffffffffffffffffffffffffffffffffffff169063b760faf99034906024016000604051808303818588803b158015610e5357600080fd5b610fc3336001610bd1565b4311611051576040517f08c379a000000000000000000000000000000000000000000000000000000000815260206004820152602760248201527f546f6b656e5061796d61737465723a206d75737420756e6c6f636b546f6b656e60448201527f4465706f736974000000000000000000000000000000000000000000000000006064820152608401610a75565b336000908152600760205260409020548111156110f0576040517f08c379a000000000000000000000000000000000000000000000000000000000815260206004820152602760248201527f546f6b656e5061796d61737465723a206d75737420756e6c6f636b546f6b656e60448201527f4465706f736974000000000000000000000000000000000000000000000000006064820152608401610a75565b336000908152600760205260408120805483929061110f908490612661565b909155505060405173ffffffffffffffffffffffffffffffffffffffff83169082156108fc029083906000818181858888f19350505050158015610b65573d6000803e3d6000fd5b80600460006108cf33866116e7565b6108253360016111768443612649565b6112d3565b611183611252565b73ffffffffffffffffffffffffffffffffffffffff8116611226576040517f08c379a000000000000000000000000000000000000000000000000000000000815260206004820152602660248201527f4f776e61626c653a206e6577206f776e657220697320746865207a65726f206160448201527f64647265737300000000000000000000000000000000000000000000000000006064820152608401610a75565b610825816114e3565b6060600061123b6115b6565b61124685858561171c565b91509150935093915050565b60005473ffffffffffffffffffffffffffffffffffffffff163314610721576040517f08c379a000000000000000000000000000000000000000000000000000000000815260206004820181905260248201527f4f776e61626c653a2063616c6c6572206973206e6f7420746865206f776e65726044820152606401610a75565b816113015773ffffffffffffffffffffffffffffffffffffffff831660009081526005602052604090208190555b6040805173ffffffffffffffffffffffffffffffffffffffff8516602082015280820191909152600760608201527f73706f6e736f72000000000000000000000000000000000000000000000000006080820152819060059060009060a00160405160208183030381529060405280519060200120815260200190815260200160002081905550505050565b6040805173ffffffffffffffffffffffffffffffffffffffff8085166020830152831691810191909152606080820152600960808201527f626c61636b6c697374000000000000000000000000000000000000000000000060a082015260009060c0015b60405160208183030381529060405280519060200120905092915050565b60405173ffffffffffffffffffffffffffffffffffffffff8316602482015260448101829052610b659084907fa9059cbb00000000000000000000000000000000000000000000000000000000906064015b604080517fffffffffffffffffffffffffffffffffffffffffffffffffffffffffffffffe08184030181529190526020810180517bffffffffffffffffffffffffffffffffffffffffffffffffffffffff167fffffffff0000000000000000000000000000000000000000000000000000000090931692909217909152611c14565b6000805473ffffffffffffffffffffffffffffffffffffffff8381167fffffffffffffffffffffffff0000000000000000000000000000000000000000831681178455604051919092169283917f8be0079c531659141344cd1fd0a4f28419497f9722a3daafe3b4186f6b6457e09190a35050565b60405173ffffffffffffffffffffffffffffffffffffffff80851660248301528316604482015260648101829052610d389085907f23b872dd0000000000000000000000000000000000000000000000000000000090608401611461565b3373ffffffffffffffffffffffffffffffffffffffff7f0000000000000000000000000000000000000000000000000000000000000000161461072157600080fd5b60008080808061160a87890189612691565b9450945094509450945060008183856188b861162691906126e2565b611630908a612649565b61163a91906126e2565b611644919061271f565b90506116508682611d20565b73ffffffffffffffffffffffffffffffffffffffff851660009081526006602052604081208054839290611685908490612649565b909155506116979050846188b86126e2565b6116a19088612649565b73ffffffffffffffffffffffffffffffffffffffff8616600090815260076020526040812080549091906116d6908490612661565b909155505050505050505050505050565b6040805173ffffffffffffffffffffffffffffffffffffffff80851660208301528316918101919091526000906060016113f1565b6060600061172e61012086018661275a565b90506028146117bf576040517f08c379a000000000000000000000000000000000000000000000000000000000815260206004820152603560248201527f546f6b656e5061796d61737465723a207061796d6173746572416e644461746160448201527f206d75737420737065636966792073706f6e736f7200000000000000000000006064820152608401610a75565b6188b88560a0013511611854576040517f08c379a000000000000000000000000000000000000000000000000000000000815260206004820152602660248201527f546f6b656e5061796d61737465723a2067617320746f6f206c6f7720666f722060448201527f706f73744f7000000000000000000000000000000000000000000000000000006064820152608401610a75565b36600061186561012088018861275a565b9092509050600061187982601481866127c6565b611882916127f0565b60601c90506000611894826001610bd1565b90508015806118a257504381115b611908576040517f08c379a000000000000000000000000000000000000000000000000000000000815260206004820152601c60248201527f546f6b656e5061796d61737465723a205374616b65204c6f636b6564000000006044820152606401610a75565b883560006119168282610bd1565b905080158061192457504381115b6119b0576040517f08c379a000000000000000000000000000000000000000000000000000000000815260206004820152602260248201527f546f6b656e5061796d61737465723a206465706f736974206e6f74206c6f636b60448201527f65640000000000000000000000000000000000000000000000000000000000006064820152608401610a75565b73ffffffffffffffffffffffffffffffffffffffff8416600090815260076020526040902054891115611a65576040517f08c379a000000000000000000000000000000000000000000000000000000000815260206004820152602c60248201527f546f6b656e5061796d61737465723a20646f6573206e6f74206861766520656e60448201527f6f75676820746f2066756e6400000000000000000000000000000000000000006064820152608401610a75565b611a6f8483611e21565b611afb576040517f08c379a000000000000000000000000000000000000000000000000000000000815260206004820152603360248201527f546f6b656e5061796d61737465723a20686173206e6f74206f7220646f65732060448201527f6e6f7420617070726f7665207370656e646572000000000000000000000000006064820152608401610a75565b6000611b0860008b611efb565b9050611b148382611fc8565b80611b44575073ffffffffffffffffffffffffffffffffffffffff83166000908152600660205260409020548111155b611baa576040517f08c379a000000000000000000000000000000000000000000000000000000000815260206004820181905260248201527f546f6b656e5061796d61737465723a20757365722063616e206e6f74207061796044820152606401610a75565b6000611bb58d61211b565b6040805173ffffffffffffffffffffffffffffffffffffffff9687166020820152979095168786015260608701525060808501525060a0808401989098528051808403909801885260c090920190915250939660009650945050505050565b6000611c76826040518060400160405280602081526020017f5361666545524332303a206c6f772d6c6576656c2063616c6c206661696c65648152508573ffffffffffffffffffffffffffffffffffffffff1661214b9092919063ffffffff16565b805190915015610b655780806020019051810190611c949190612838565b610b65576040517f08c379a000000000000000000000000000000000000000000000000000000000815260206004820152602a60248201527f5361666545524332303a204552433230206f7065726174696f6e20646964206e60448201527f6f742073756363656564000000000000000000000000000000000000000000006064820152608401610a75565b611d2a8282611fc8565b15611d5457600254610d149073ffffffffffffffffffffffffffffffffffffffff16833084611558565b73ffffffffffffffffffffffffffffffffffffffff8216600090815260066020526040902054811115611de3576040517f08c379a000000000000000000000000000000000000000000000000000000000815260206004820152601460248201527f446f6573206e6f74206861766520746f6b656e730000000000000000000000006044820152606401610a75565b73ffffffffffffffffffffffffffffffffffffffff821660009081526006602052604081208054839290611e18908490612661565b90915550505050565b60008060046000611ea3866040805173ffffffffffffffffffffffffffffffffffffffff8316602082015280820191909152600960608201527f77686974656c6973740000000000000000000000000000000000000000000000608082015260009060a001604051602081830303815290604052805190602001209050919050565b815260208101919091526040016000205460ff1690508015611ed157611ec9848461215a565b915050610c89565b60046000611edf86866116e7565b815260208101919091526040016000205460ff16949350505050565b6001546003546002546040517f6a2f491800000000000000000000000000000000000000000000000000000000815273ffffffffffffffffffffffffffffffffffffffff9283166004820152602481018590527401000000000000000000000000000000000000000090910460ff1660448201526000929190911690636a2f491890606401602060405180830381865afa158015611f9d573d6000803e3d6000fd5b505050506040513d601f19601f82011682018060405250810190611fc19190612678565b9392505050565b6002546040517fdd62ed3e00000000000000000000000000000000000000000000000000000000815273ffffffffffffffffffffffffffffffffffffffff8481166004830152306024830152600092839291169063dd62ed3e90604401602060405180830381865afa158015612042573d6000803e3d6000fd5b505050506040513d601f19601f820116820180604052508101906120669190612678565b6002546040517f70a0823100000000000000000000000000000000000000000000000000000000815273ffffffffffffffffffffffffffffffffffffffff8781166004830152929350600092909116906370a0823190602401602060405180830381865afa1580156120dc573d6000803e3d6000fd5b505050506040513d601f19601f820116820180604052508101906121009190612678565b90508381101580156121125750838210155b95945050505050565b600060e082013561010083013580821415612137575092915050565b61214382488301612186565b949350505050565b6060612143848460008561219c565b60006004600061216a858561138d565b815260208101919091526040016000205460ff16159392505050565b60008183106121955781611fc1565b5090919050565b60608247101561222e576040517f08c379a000000000000000000000000000000000000000000000000000000000815260206004820152602660248201527f416464726573733a20696e73756666696369656e742062616c616e636520666f60448201527f722063616c6c00000000000000000000000000000000000000000000000000006064820152608401610a75565b6000808673ffffffffffffffffffffffffffffffffffffffff1685876040516122579190612855565b60006040518083038185875af1925050503d8060008114612294576040519150601f19603f3d011682016040523d82523d6000602084013e612299565b606091505b50915091506122aa878383876122b5565b979650505050505050565b606083156123485782516123415773ffffffffffffffffffffffffffffffffffffffff85163b612341576040517f08c379a000000000000000000000000000000000000000000000000000000000815260206004820152601d60248201527f416464726573733a2063616c6c20746f206e6f6e2d636f6e74726163740000006044820152606401610a75565b5081612143565b612143838381511561235d5781518083602001fd5b806040517f08c379a0000000000000000000000000000000000000000000000000000000008152600401610a759190612871565b6000602082840312156123a357600080fd5b813563ffffffff81168114611fc157600080fd5b6000602082840312156123c957600080fd5b5035919050565b73ffffffffffffffffffffffffffffffffffffffff8116811461082557600080fd5b60006020828403121561240457600080fd5b8135611fc1816123d0565b6000806040838503121561242257600080fd5b823561242d816123d0565b946020939093013593505050565b801515811461082557600080fd5b6000806040838503121561245c57600080fd5b8235612467816123d0565b915060208301356124778161243b565b809150509250929050565b60006020828403121561249457600080fd5b8135611fc18161243b565b600080600080606085870312156124b557600080fd5b8435600381106124c457600080fd5b9350602085013567ffffffffffffffff808211156124e157600080fd5b818701915087601f8301126124f557600080fd5b81358181111561250457600080fd5b88602082850101111561251657600080fd5b95986020929092019750949560400135945092505050565b60008060006060848603121561254357600080fd5b833567ffffffffffffffff81111561255a57600080fd5b8401610160818703121561256d57600080fd5b95602085013595506040909401359392505050565b60005b8381101561259d578181015183820152602001612585565b83811115610d385750506000910152565b600081518084526125c6816020860160208601612582565b601f017fffffffffffffffffffffffffffffffffffffffffffffffffffffffffffffffe0169290920160200192915050565b60408152600061260b60408301856125ae565b90508260208301529392505050565b7f4e487b7100000000000000000000000000000000000000000000000000000000600052601160045260246000fd5b6000821982111561265c5761265c61261a565b500190565b6000828210156126735761267361261a565b500390565b60006020828403121561268a57600080fd5b5051919050565b600080600080600060a086880312156126a957600080fd5b85356126b4816123d0565b945060208601356126c4816123d0565b94979496505050506040830135926060810135926080909101359150565b6000817fffffffffffffffffffffffffffffffffffffffffffffffffffffffffffffffff048311821515161561271a5761271a61261a565b500290565b600082612755577f4e487b7100000000000000000000000000000000000000000000000000000000600052601260045260246000fd5b500490565b60008083357fffffffffffffffffffffffffffffffffffffffffffffffffffffffffffffffe184360301811261278f57600080fd5b83018035915067ffffffffffffffff8211156127aa57600080fd5b6020019150368190038213156127bf57600080fd5b9250929050565b600080858511156127d657600080fd5b838611156127e357600080fd5b5050820193919092039150565b7fffffffffffffffffffffffffffffffffffffffff00000000000000000000000081358181169160148510156128305780818660140360031b1b83161692505b505092915050565b60006020828403121561284a57600080fd5b8151611fc18161243b565b60008251612867818460208701612582565b9190910192915050565b602081526000611fc160208301846125ae56fea2646970667358221220afee0d75aaa20c3b0885f1bb261de3899be467df7e1ce7116caeafb11cb6857564736f6c634300080c0033","linkReferences":{},"deployedLinkReferences":{},"fileHash":"f5409308b4b0f58ef5c6555aa101ca92a2aef8c6b1a49b9f5bdeadfe01bbc5c4"}