{"_format":"hh-sol-artifact-1","contractName":"TokenPaymaster","sourceName":"contracts/paymaster/TokenPaymaster.sol","abi":[{"inputs":[{"internalType":"contract IEntryPoint","name":"_entryPoint","type":"address"},{"internalType":"contract ITokenPriceOracle","name":"_tokenPriceOracle","type":"address"},{"internalType":"contract IERC20","name":"_token","type":"address"},{"internalType":"contract AggregatorV3Interface","name":"_aggregator","type":"address"}],"stateMutability":"nonpayable","type":"constructor"},{"anonymous":false,"inputs":[{"indexed":true,"internalType":"address","name":"previousOwner","type":"address"},{"indexed":true,"internalType":"address","name":"newOwner","type":"address"}],"name":"OwnershipTransferred","type":"event"},{"inputs":[],"name":"COST_OF_POST","outputs":[{"internalType":"uint256","name":"","type":"uint256"}],"stateMutability":"view","type":"function"},{"inputs":[{"internalType":"address","name":"account","type":"address"},{"internalType":"uint256","name":"amount","type":"uint256"}],"name":"addDepositFor","outputs":[],"stateMutability":"nonpayable","type":"function"},{"inputs":[{"internalType":"address","name":"sponsor","type":"address"}],"name":"addEthDepositForSponsor","outputs":[],"stateMutability":"payable","type":"function"},{"inputs":[{"internalType":"uint32","name":"unstakeDelaySec","type":"uint32"}],"name":"addStake","outputs":[],"stateMutability":"payable","type":"function"},{"inputs":[],"name":"deposit","outputs":[],"stateMutability":"payable","type":"function"},{"inputs":[{"internalType":"address","name":"account","type":"address"}],"name":"depositInfo","outputs":[{"internalType":"uint256","name":"tokenAmount","type":"uint256"},{"internalType":"uint256","name":"sponsorAmount","type":"uint256"},{"internalType":"uint256","name":"_unlockBlockSponsor","type":"uint256"},{"internalType":"uint256","name":"_unlockBlockAccount","type":"uint256"}],"stateMutability":"view","type":"function"},{"inputs":[],"name":"entryPoint","outputs":[{"internalType":"contract IEntryPoint","name":"","type":"address"}],"stateMutability":"view","type":"function"},{"inputs":[],"name":"getDeposit","outputs":[{"internalType":"uint256","name":"","type":"uint256"}],"stateMutability":"view","type":"function"},{"inputs":[{"internalType":"address","name":"sponsor","type":"address"}],"name":"getEthDepositInfoForSponsor","outputs":[{"internalType":"uint256","name":"","type":"uint256"}],"stateMutability":"view","type":"function"},{"inputs":[{"internalType":"address","name":"account","type":"address"},{"internalType":"bool","name":"sponsor","type":"bool"}],"name":"getUnlockBlockWithSponsor","outputs":[{"internalType":"uint256","name":"","type":"uint256"}],"stateMutability":"view","type":"function"},{"inputs":[],"name":"lockSponsorEntrypointStake","outputs":[],"stateMutability":"nonpayable","type":"function"},{"inputs":[],"name":"lockTokenDeposit","outputs":[],"stateMutability":"nonpayable","type":"function"},{"inputs":[],"name":"owner","outputs":[{"internalType":"address","name":"","type":"address"}],"stateMutability":"view","type":"function"},{"inputs":[{"internalType":"enum IPaymaster.PostOpMode","name":"mode","type":"uint8"},{"internalType":"bytes","name":"context","type":"bytes"},{"internalType":"uint256","name":"actualGasCost","type":"uint256"}],"name":"postOp","outputs":[],"stateMutability":"nonpayable","type":"function"},{"inputs":[],"name":"renounceOwnership","outputs":[],"stateMutability":"nonpayable","type":"function"},{"inputs":[{"internalType":"address","name":"spender","type":"address"},{"internalType":"bool","name":"mode","type":"bool"}],"name":"setSpenderToBlackListMode","outputs":[],"stateMutability":"nonpayable","type":"function"},{"inputs":[{"internalType":"address","name":"sponsor","type":"address"},{"internalType":"address","name":"account","type":"address"},{"internalType":"bool","name":"setting","type":"bool"}],"name":"setSponsorApproval","outputs":[],"stateMutability":"nonpayable","type":"function"},{"inputs":[{"internalType":"bool","name":"mode","type":"bool"}],"name":"setWhitelistMode","outputs":[],"stateMutability":"nonpayable","type":"function"},{"inputs":[{"internalType":"bytes32","name":"","type":"bytes32"}],"name":"sponsorApprovals","outputs":[{"internalType":"bool","name":"","type":"bool"}],"stateMutability":"view","type":"function"},{"inputs":[{"internalType":"address","name":"","type":"address"}],"name":"sponsorBalances","outputs":[{"internalType":"uint256","name":"","type":"uint256"}],"stateMutability":"view","type":"function"},{"inputs":[{"internalType":"address","name":"","type":"address"}],"name":"tokenBalances","outputs":[{"internalType":"uint256","name":"","type":"uint256"}],"stateMutability":"view","type":"function"},{"inputs":[{"internalType":"address","name":"newOwner","type":"address"}],"name":"transferOwnership","outputs":[],"stateMutability":"nonpayable","type":"function"},{"inputs":[{"internalType":"bytes32","name":"","type":"bytes32"}],"name":"unlockBlock","outputs":[{"internalType":"uint256","name":"","type":"uint256"}],"stateMutability":"view","type":"function"},{"inputs":[{"internalType":"uint256","name":"blockNum","type":"uint256"}],"name":"unlockSponsorEntrypointStakeAfter","outputs":[],"stateMutability":"nonpayable","type":"function"},{"inputs":[],"name":"unlockStake","outputs":[],"stateMutability":"nonpayable","type":"function"},{"inputs":[],"name":"unlockTokenDeposit","outputs":[],"stateMutability":"nonpayable","type":"function"},{"inputs":[{"components":[{"internalType":"address","name":"sender","type":"address"},{"internalType":"uint256","name":"nonce","type":"uint256"},{"internalType":"bytes","name":"initCode","type":"bytes"},{"internalType":"bytes","name":"callData","type":"bytes"},{"internalType":"uint256","name":"callGasLimit","type":"uint256"},{"internalType":"uint256","name":"verificationGasLimit","type":"uint256"},{"internalType":"uint256","name":"preVerificationGas","type":"uint256"},{"internalType":"uint256","name":"maxFeePerGas","type":"uint256"},{"internalType":"uint256","name":"maxPriorityFeePerGas","type":"uint256"},{"internalType":"bytes","name":"paymasterAndData","type":"bytes"},{"internalType":"bytes","name":"signature","type":"bytes"}],"internalType":"struct UserOperation","name":"userOp","type":"tuple"},{"internalType":"bytes32","name":"userOpHash","type":"bytes32"},{"internalType":"uint256","name":"maxCost","type":"uint256"}],"name":"validatePaymasterUserOp","outputs":[{"internalType":"bytes","name":"context","type":"bytes"},{"internalType":"uint256","name":"sigTimeRange","type":"uint256"}],"stateMutability":"nonpayable","type":"function"},{"inputs":[{"internalType":"address","name":"target","type":"address"},{"internalType":"uint256","name":"amount","type":"uint256"}],"name":"withdrawEthDepositTo","outputs":[],"stateMutability":"nonpayable","type":"function"},{"inputs":[{"internalType":"address payable","name":"withdrawAddress","type":"address"}],"name":"withdrawStake","outputs":[],"stateMutability":"nonpayable","type":"function"},{"inputs":[{"internalType":"address payable","name":"withdrawAddress","type":"address"},{"internalType":"uint256","name":"amount","type":"uint256"}],"name":"withdrawTo","outputs":[],"stateMutability":"nonpayable","type":"function"},{"inputs":[{"internalType":"address","name":"target","type":"address"},{"internalType":"uint256","name":"amount","type":"uint256"}],"name":"withdrawTokensTo","outputs":[],"stateMutability":"nonpayable","type":"function"}],"bytecode":"0x60a06040523480156200001157600080fd5b5060405162002c7f38038062002c7f833981016040819052620000349162000234565b83620000403362000130565b6001600160a01b03166080526200005662000180565b600180546001600160a01b038086166001600160a01b0319928316179092556002805492851692909116821790556040805163313ce56760e01b8152905163313ce567916004808201926020929091908290030181865afa158015620000c0573d6000803e3d6000fd5b505050506040513d601f19601f82011682018060405250810190620000e691906200029c565b6002805460ff92909216600160a01b0260ff60a01b19909216919091179055600380546001600160a01b039092166001600160a01b031990921691909117905550620002c8915050565b600080546001600160a01b038381166001600160a01b0319831681178455604051919092169283917f8be0079c531659141344cd1fd0a4f28419497f9722a3daafe3b4186f6b6457e09190a35050565b6200018e3360004362000190565b565b81620001b2576001600160a01b03831660009081526005602052604090208190555b604080516001600160a01b038516602082015280820191909152600760608201526639b837b739b7b960c91b6080820152819060059060009060a00160405160208183030381529060405280519060200120815260200190815260200160002081905550505050565b6001600160a01b03811681146200023157600080fd5b50565b600080600080608085870312156200024b57600080fd5b845162000258816200021b565b60208601519094506200026b816200021b565b60408601519093506200027e816200021b565b606086015190925062000291816200021b565b939692955090935050565b600060208284031215620002af57600080fd5b815160ff81168114620002c157600080fd5b9392505050565b6080516129636200031c600039600081816106de015281816108940152818161094701528181610a7201528181610c9401528181610d5b01528181610deb01528181610eaa015261152e01526129636000f3fe6080604052600436106101d85760003560e01c80638da5cb5b11610102578063cd8f80c211610095578063e8db215d11610064578063e8db215d146107a7578063f2fde38b146107ea578063f465c77e1461080a578063f5bf3fcf1461083857600080fd5b8063cd8f80c21461074a578063d0e30db01461075f578063d3eccaff14610767578063e6e61d1b1461078757600080fd5b8063b0d691fe116100d1578063b0d691fe146106cc578063bb9fe6bf14610700578063c23a5cea14610715578063c399ec881461073557600080fd5b80638da5cb5b1461061e5780639d31b69d1461066a5780639ed0fb6814610697578063a9a23409146106ac57600080fd5b806340e15afe1161017a57806363445989116101495780636344598914610593578063715018a6146105d3578063786be65d146105e8578063796d43711461060857600080fd5b806340e15afe14610434578063425bc1e91461046f5780634f16bbf314610546578063523fba7f1461056657600080fd5b806318f95857116101b657806318f958571461024c5780631c766d701461025f578063205c28781461031f57806335c293a91461033f57600080fd5b80630396cb60146101dd578063107d5fdf146101f257806315dab52e14610207575b600080fd5b6101f06101eb3660046123c0565b610858565b005b3480156101fe57600080fd5b506101f061090a565b34801561021357600080fd5b506102376102223660046123e6565b60046020526000908152604090205460ff1681565b60405190151581526020015b60405180910390f35b6101f061025a366004612421565b610919565b34801561026b57600080fd5b506101f061027a36600461244c565b6040805173ffffffffffffffffffffffffffffffffffffffff8086166020830152841691810191909152600090606001604080518083037fffffffffffffffffffffffffffffffffffffffffffffffffffffffffffffffe0018152918152815160209283012060009081526004909252902080547fffffffffffffffffffffffffffffffffffffffffffffffffffffffffffffff001692151592909217909155505050565b34801561032b57600080fd5b506101f061033a366004612497565b610a1e565b34801561034b57600080fd5b506101f061035a3660046124c3565b6040805133602082015273ffffffffffffffffffffffffffffffffffffffff841691810191909152606080820152600960808201527f626c61636b6c697374000000000000000000000000000000000000000000000060a0820152819060049060009060c001604080518083037fffffffffffffffffffffffffffffffffffffffffffffffffffffffffffffffe001815291815281516020928301208352908201929092520160002080547fffffffffffffffffffffffffffffffffffffffffffffffffffffffffffffff00169115159190911790555050565b34801561044057600080fd5b5061046161044f3660046123e6565b60056020526000908152604090205481565b604051908152602001610243565b34801561047b57600080fd5b506101f061048a3660046124fc565b6040805133602082015280820191909152600960608201527f77686974656c69737400000000000000000000000000000000000000000000006080820152819060049060009060a001604080518083037fffffffffffffffffffffffffffffffffffffffffffffffffffffffffffffffe001815291815281516020928301208352908201929092520160002080547fffffffffffffffffffffffffffffffffffffffffffffffffffffffffffffff001691151591909117905550565b34801561055257600080fd5b506101f0610561366004612497565b610ab6565b34801561057257600080fd5b50610461610581366004612421565b60066020526000908152604090205481565b34801561059f57600080fd5b506105b36105ae366004612421565b610b3f565b604080519485526020850193909352918301526060820152608001610243565b3480156105df57600080fd5b506101f0610b94565b3480156105f457600080fd5b506104616106033660046124c3565b610ba6565b34801561061457600080fd5b506104616188b881565b34801561062a57600080fd5b5060005473ffffffffffffffffffffffffffffffffffffffff165b60405173ffffffffffffffffffffffffffffffffffffffff9091168152602001610243565b34801561067657600080fd5b50610461610685366004612421565b60076020526000908152604090205481565b3480156106a357600080fd5b506101f0610c64565b3480156106b857600080fd5b506101f06106c7366004612519565b610c70565b3480156106d857600080fd5b506106457f000000000000000000000000000000000000000000000000000000000000000081565b34801561070c57600080fd5b506101f0610c8a565b34801561072157600080fd5b506101f0610730366004612421565b610d0e565b34801561074157600080fd5b50610461610dba565b34801561075657600080fd5b506101f0610e70565b6101f0610e7c565b34801561077357600080fd5b506101f0610782366004612497565b610f04565b34801561079357600080fd5b506101f06107a23660046123e6565b6110ad565b3480156107b357600080fd5b506104616107c2366004612421565b73ffffffffffffffffffffffffffffffffffffffff1660009081526007602052604090205490565b3480156107f657600080fd5b506101f0610805366004612421565b6110c2565b34801561081657600080fd5b5061082a6108253660046125a8565b611176565b604051610243929190612672565b34801561084457600080fd5b506101f0610853366004612497565b611199565b61086061128a565b6040517f0396cb6000000000000000000000000000000000000000000000000000000000815263ffffffff821660048201527f000000000000000000000000000000000000000000000000000000000000000073ffffffffffffffffffffffffffffffffffffffff1690630396cb609034906024016000604051808303818588803b1580156108ee57600080fd5b505af1158015610902573d6000803e3d6000fd5b505050505050565b610917336001600061130b565b565b6040517fb760faf90000000000000000000000000000000000000000000000000000000081523060048201527f000000000000000000000000000000000000000000000000000000000000000073ffffffffffffffffffffffffffffffffffffffff169063b760faf99034906024016000604051808303818588803b1580156109a157600080fd5b505af11580156109b5573d6000803e3d6000fd5b50505073ffffffffffffffffffffffffffffffffffffffff8316600090815260076020526040812080543494509092506109f09084906126c3565b90915550503373ffffffffffffffffffffffffffffffffffffffff82161415610a1b57610a1b61090a565b50565b610a2661128a565b6040517f205c287800000000000000000000000000000000000000000000000000000000815273ffffffffffffffffffffffffffffffffffffffff8381166004830152602482018390527f0000000000000000000000000000000000000000000000000000000000000000169063205c287890604401600060405180830381600087803b1580156108ee57600080fd5b600254610adb9073ffffffffffffffffffffffffffffffffffffffff163330846113c5565b73ffffffffffffffffffffffffffffffffffffffff821660009081526006602052604081208054839290610b109084906126c3565b90915550503373ffffffffffffffffffffffffffffffffffffffff83161415610b3b57610b3b610e70565b5050565b73ffffffffffffffffffffffffffffffffffffffff81166000908152600660209081526040808320546007909252822054909180610b7e856001610ba6565b9150610b8b856000610ba6565b90509193509193565b610b9c61128a565b61091760006114a1565b600081610bd9575073ffffffffffffffffffffffffffffffffffffffff8216600090815260056020526040902054610c5e565b6040805173ffffffffffffffffffffffffffffffffffffffff8516602082015280820191909152600760608201527f73706f6e736f7200000000000000000000000000000000000000000000000000608082015260059060009060a0016040516020818303038152906040528051906020012081526020019081526020016000205490505b92915050565b6109173360004361130b565b610c78611516565b610c8484848484611558565b50505050565b610c9261128a565b7f000000000000000000000000000000000000000000000000000000000000000073ffffffffffffffffffffffffffffffffffffffff1663bb9fe6bf6040518163ffffffff1660e01b8152600401600060405180830381600087803b158015610cfa57600080fd5b505af1158015610c84573d6000803e3d6000fd5b610d1661128a565b6040517fc23a5cea00000000000000000000000000000000000000000000000000000000815273ffffffffffffffffffffffffffffffffffffffff82811660048301527f0000000000000000000000000000000000000000000000000000000000000000169063c23a5cea90602401600060405180830381600087803b158015610d9f57600080fd5b505af1158015610db3573d6000803e3d6000fd5b5050505050565b6040517f70a082310000000000000000000000000000000000000000000000000000000081523060048201526000907f000000000000000000000000000000000000000000000000000000000000000073ffffffffffffffffffffffffffffffffffffffff16906370a0823190602401602060405180830381865afa158015610e47573d6000803e3d6000fd5b505050506040513d601f19601f82011682018060405250810190610e6b91906126db565b905090565b6109173360008061130b565b6040517fb760faf90000000000000000000000000000000000000000000000000000000081523060048201527f000000000000000000000000000000000000000000000000000000000000000073ffffffffffffffffffffffffffffffffffffffff169063b760faf99034906024016000604051808303818588803b158015610d9f57600080fd5b610f0f336001610ba6565b4311610fa2576040517f08c379a000000000000000000000000000000000000000000000000000000000815260206004820152602760248201527f546f6b656e5061796d61737465723a206d75737420756e6c6f636b546f6b656e60448201527f4465706f7369740000000000000000000000000000000000000000000000000060648201526084015b60405180910390fd5b33600090815260076020526040902054811115611041576040517f08c379a000000000000000000000000000000000000000000000000000000000815260206004820152602760248201527f546f6b656e5061796d61737465723a206d75737420756e6c6f636b546f6b656e60448201527f4465706f736974000000000000000000000000000000000000000000000000006064820152608401610f99565b33600090815260076020526040812080548392906110609084906126f4565b909155505060405173ffffffffffffffffffffffffffffffffffffffff83169082156108fc029083906000818181858888f193505050501580156110a8573d6000803e3d6000fd5b505050565b610a1b3360016110bd84436126c3565b61130b565b6110ca61128a565b73ffffffffffffffffffffffffffffffffffffffff811661116d576040517f08c379a000000000000000000000000000000000000000000000000000000000815260206004820152602660248201527f4f776e61626c653a206e6577206f776e657220697320746865207a65726f206160448201527f64647265737300000000000000000000000000000000000000000000000000006064820152608401610f99565b610a1b816114a1565b60606000611182611516565b61118d858585611749565b91509150935093915050565b60006111a6336000610ba6565b905080158015906111b657508043115b611242576040517f08c379a000000000000000000000000000000000000000000000000000000000815260206004820152602760248201527f546f6b656e5061796d61737465723a206d75737420756e6c6f636b546f6b656e60448201527f4465706f736974000000000000000000000000000000000000000000000000006064820152608401610f99565b33600090815260066020526040812080548492906112619084906126f4565b90915550506002546110a89073ffffffffffffffffffffffffffffffffffffffff168484611c3f565b60005473ffffffffffffffffffffffffffffffffffffffff163314610917576040517f08c379a000000000000000000000000000000000000000000000000000000000815260206004820181905260248201527f4f776e61626c653a2063616c6c6572206973206e6f7420746865206f776e65726044820152606401610f99565b816113395773ffffffffffffffffffffffffffffffffffffffff831660009081526005602052604090208190555b6040805173ffffffffffffffffffffffffffffffffffffffff8516602082015280820191909152600760608201527f73706f6e736f72000000000000000000000000000000000000000000000000006080820152819060059060009060a00160405160208183030381529060405280519060200120815260200190815260200160002081905550505050565b60405173ffffffffffffffffffffffffffffffffffffffff80851660248301528316604482015260648101829052610c849085907f23b872dd00000000000000000000000000000000000000000000000000000000906084015b604080517fffffffffffffffffffffffffffffffffffffffffffffffffffffffffffffffe08184030181529190526020810180517bffffffffffffffffffffffffffffffffffffffffffffffffffffffff167fffffffff0000000000000000000000000000000000000000000000000000000090931692909217909152611c95565b6000805473ffffffffffffffffffffffffffffffffffffffff8381167fffffffffffffffffffffffff0000000000000000000000000000000000000000831681178455604051919092169283917f8be0079c531659141344cd1fd0a4f28419497f9722a3daafe3b4186f6b6457e09190a35050565b3373ffffffffffffffffffffffffffffffffffffffff7f0000000000000000000000000000000000000000000000000000000000000000161461091757600080fd5b60008080808061156a8789018961270b565b9450945094509450945060008183856188b8611586919061275c565b611590908a6126c3565b61159a919061275c565b6115a49190612799565b905060028a60028111156115ba576115ba6127d4565b1461168e5773ffffffffffffffffffffffffffffffffffffffff861660009081526006602052604090205481111561164e576040517f08c379a000000000000000000000000000000000000000000000000000000000815260206004820152601460248201527f446f6573206e6f74206861766520746f6b656e730000000000000000000000006044820152606401610f99565b73ffffffffffffffffffffffffffffffffffffffff8616600090815260066020526040812080548392906116839084906126f4565b909155506116c99050565b73ffffffffffffffffffffffffffffffffffffffff8616600090815260066020526040812080548392906116c39084906126f4565b90915550505b73ffffffffffffffffffffffffffffffffffffffff8516600090815260066020526040812080548392906116fe9084906126c3565b909155505073ffffffffffffffffffffffffffffffffffffffff8516600090815260076020526040812080548992906117389084906126f4565b909155505050505050505050505050565b6060600061175b610120860186612803565b90506028146117ec576040517f08c379a000000000000000000000000000000000000000000000000000000000815260206004820152603560248201527f546f6b656e5061796d61737465723a207061796d6173746572416e644461746160448201527f206d75737420737065636966792073706f6e736f7200000000000000000000006064820152608401610f99565b6188b88560a0013511611881576040517f08c379a000000000000000000000000000000000000000000000000000000000815260206004820152602660248201527f546f6b656e5061796d61737465723a2067617320746f6f206c6f7720666f722060448201527f706f73744f7000000000000000000000000000000000000000000000000000006064820152608401610f99565b366000611892610120880188612803565b909250905060006118a6826014818661286f565b6118af91612899565b60601c905060006118c1826001610ba6565b90508015806118cf57504381115b611935576040517f08c379a000000000000000000000000000000000000000000000000000000000815260206004820152601c60248201527f546f6b656e5061796d61737465723a205374616b65204c6f636b6564000000006044820152606401610f99565b883560006119438282610ba6565b905080158061195157504381115b6119dd576040517f08c379a000000000000000000000000000000000000000000000000000000000815260206004820152602260248201527f546f6b656e5061796d61737465723a206465706f736974206e6f74206c6f636b60448201527f65640000000000000000000000000000000000000000000000000000000000006064820152608401610f99565b73ffffffffffffffffffffffffffffffffffffffff8416600090815260076020526040902054891115611a92576040517f08c379a000000000000000000000000000000000000000000000000000000000815260206004820152602c60248201527f546f6b656e5061796d61737465723a20646f6573206e6f74206861766520656e60448201527f6f75676820746f2066756e6400000000000000000000000000000000000000006064820152608401610f99565b611a9c8483611da1565b611b28576040517f08c379a000000000000000000000000000000000000000000000000000000000815260206004820152603360248201527f546f6b656e5061796d61737465723a20686173206e6f74206f7220646f65732060448201527f6e6f7420617070726f7665207370656e646572000000000000000000000000006064820152608401610f99565b6000611b338a611f49565b9050611b3f8382611f56565b80611b6f575073ffffffffffffffffffffffffffffffffffffffff83166000908152600660205260409020548111155b611bd5576040517f08c379a000000000000000000000000000000000000000000000000000000000815260206004820181905260248201527f546f6b656e5061796d61737465723a20757365722063616e206e6f74207061796044820152606401610f99565b6000611be08d6120a9565b6040805173ffffffffffffffffffffffffffffffffffffffff9687166020820152979095168786015260608701525060808501525060a0808401989098528051808403909801885260c090920190915250939660009650945050505050565b60405173ffffffffffffffffffffffffffffffffffffffff83166024820152604481018290526110a89084907fa9059cbb000000000000000000000000000000000000000000000000000000009060640161141f565b6000611cf7826040518060400160405280602081526020017f5361666545524332303a206c6f772d6c6576656c2063616c6c206661696c65648152508573ffffffffffffffffffffffffffffffffffffffff166120d99092919063ffffffff16565b8051909150156110a85780806020019051810190611d1591906128e1565b6110a8576040517f08c379a000000000000000000000000000000000000000000000000000000000815260206004820152602a60248201527f5361666545524332303a204552433230206f7065726174696f6e20646964206e60448201527f6f742073756363656564000000000000000000000000000000000000000000006064820152608401610f99565b6040805173ffffffffffffffffffffffffffffffffffffffff8416602080830191909152818301839052600960608301527f77686974656c69737400000000000000000000000000000000000000000000006080808401919091528351808403909101815260a09092018352815191810191909120600090815260049091529081205460ff168015611ec15750506040805173ffffffffffffffffffffffffffffffffffffffff84811660208084019190915290841682840152606080830152600960808301527f626c61636b6c697374000000000000000000000000000000000000000000000060a0808401919091528351808403909101815260c0909201835281519181019190912060009081526004909152205460ff1615610c5e565b600460008585604051602001611efa92919073ffffffffffffffffffffffffffffffffffffffff92831681529116602082015260400190565b604080518083037fffffffffffffffffffffffffffffffffffffffffffffffffffffffffffffffe00181529181528151602092830120835290820192909252016000205460ff16949350505050565b6000610c5e6000836120e8565b6002546040517fdd62ed3e00000000000000000000000000000000000000000000000000000000815273ffffffffffffffffffffffffffffffffffffffff8481166004830152306024830152600092839291169063dd62ed3e90604401602060405180830381865afa158015611fd0573d6000803e3d6000fd5b505050506040513d601f19601f82011682018060405250810190611ff491906126db565b6002546040517f70a0823100000000000000000000000000000000000000000000000000000000815273ffffffffffffffffffffffffffffffffffffffff8781166004830152929350600092909116906370a0823190602401602060405180830381865afa15801561206a573d6000803e3d6000fd5b505050506040513d601f19601f8201168201806040525081019061208e91906126db565b90508381101580156120a05750838210155b95945050505050565b600060e0820135610100830135808214156120c5575092915050565b6120d1824883016121b5565b949350505050565b60606120d184846000856121cb565b6001546003546002546040517f6a2f491800000000000000000000000000000000000000000000000000000000815273ffffffffffffffffffffffffffffffffffffffff9283166004820152602481018590527401000000000000000000000000000000000000000090910460ff1660448201526000929190911690636a2f491890606401602060405180830381865afa15801561218a573d6000803e3d6000fd5b505050506040513d601f19601f820116820180604052508101906121ae91906126db565b9392505050565b60008183106121c457816121ae565b5090919050565b60608247101561225d576040517f08c379a000000000000000000000000000000000000000000000000000000000815260206004820152602660248201527f416464726573733a20696e73756666696369656e742062616c616e636520666f60448201527f722063616c6c00000000000000000000000000000000000000000000000000006064820152608401610f99565b6000808673ffffffffffffffffffffffffffffffffffffffff16858760405161228691906128fe565b60006040518083038185875af1925050503d80600081146122c3576040519150601f19603f3d011682016040523d82523d6000602084013e6122c8565b606091505b50915091506122d9878383876122e4565b979650505050505050565b606083156123775782516123705773ffffffffffffffffffffffffffffffffffffffff85163b612370576040517f08c379a000000000000000000000000000000000000000000000000000000000815260206004820152601d60248201527f416464726573733a2063616c6c20746f206e6f6e2d636f6e74726163740000006044820152606401610f99565b50816120d1565b6120d1838381511561238c5781518083602001fd5b806040517f08c379a0000000000000000000000000000000000000000000000000000000008152600401610f99919061291a565b6000602082840312156123d257600080fd5b813563ffffffff811681146121ae57600080fd5b6000602082840312156123f857600080fd5b5035919050565b73ffffffffffffffffffffffffffffffffffffffff81168114610a1b57600080fd5b60006020828403121561243357600080fd5b81356121ae816123ff565b8015158114610a1b57600080fd5b60008060006060848603121561246157600080fd5b833561246c816123ff565b9250602084013561247c816123ff565b9150604084013561248c8161243e565b809150509250925092565b600080604083850312156124aa57600080fd5b82356124b5816123ff565b946020939093013593505050565b600080604083850312156124d657600080fd5b82356124e1816123ff565b915060208301356124f18161243e565b809150509250929050565b60006020828403121561250e57600080fd5b81356121ae8161243e565b6000806000806060858703121561252f57600080fd5b84356003811061253e57600080fd5b9350602085013567ffffffffffffffff8082111561255b57600080fd5b818701915087601f83011261256f57600080fd5b81358181111561257e57600080fd5b88602082850101111561259057600080fd5b95986020929092019750949560400135945092505050565b6000806000606084860312156125bd57600080fd5b833567ffffffffffffffff8111156125d457600080fd5b840161016081870312156125e757600080fd5b95602085013595506040909401359392505050565b60005b838110156126175781810151838201526020016125ff565b83811115610c845750506000910152565b600081518084526126408160208601602086016125fc565b601f017fffffffffffffffffffffffffffffffffffffffffffffffffffffffffffffffe0169290920160200192915050565b6040815260006126856040830185612628565b90508260208301529392505050565b7f4e487b7100000000000000000000000000000000000000000000000000000000600052601160045260246000fd5b600082198211156126d6576126d6612694565b500190565b6000602082840312156126ed57600080fd5b5051919050565b60008282101561270657612706612694565b500390565b600080600080600060a0868803121561272357600080fd5b853561272e816123ff565b9450602086013561273e816123ff565b94979496505050506040830135926060810135926080909101359150565b6000817fffffffffffffffffffffffffffffffffffffffffffffffffffffffffffffffff048311821515161561279457612794612694565b500290565b6000826127cf577f4e487b7100000000000000000000000000000000000000000000000000000000600052601260045260246000fd5b500490565b7f4e487b7100000000000000000000000000000000000000000000000000000000600052602160045260246000fd5b60008083357fffffffffffffffffffffffffffffffffffffffffffffffffffffffffffffffe184360301811261283857600080fd5b83018035915067ffffffffffffffff82111561285357600080fd5b60200191503681900382131561286857600080fd5b9250929050565b6000808585111561287f57600080fd5b8386111561288c57600080fd5b5050820193919092039150565b7fffffffffffffffffffffffffffffffffffffffff00000000000000000000000081358181169160148510156128d95780818660140360031b1b83161692505b505092915050565b6000602082840312156128f357600080fd5b81516121ae8161243e565b600082516129108184602087016125fc565b9190910192915050565b6020815260006121ae602083018461262856fea2646970667358221220564dcdf68a558557452f13964c3fac48b86f61dc2e6e3b9b4bc9972994ca607164736f6c634300080c0033","linkReferences":{},"deployedLinkReferences":{},"fileHash":"c4dfa0de31b2bf948498bc0ac1f040e111b5af888445cbb43fdd951da232b68e"}