{
    "_format": "hh-sol-artifact-1",
    "contractName": "TokenTransfer",
    "sourceName": "contracts/modules/actions/TokenTransfer.sol",
    "abi": [
        {
            "anonymous": false,
            "inputs": [
                {
                    "indexed": true,
                    "internalType": "address",
                    "name": "tokenAddr",
                    "type": "address"
                },
                {
                    "indexed": true,
                    "internalType": "address",
                    "name": "userAddr",
                    "type": "address"
                },
                {
                    "indexed": false,
                    "internalType": "uint256",
                    "name": "amount",
                    "type": "uint256"
                }
            ],
            "name": "TokenTransferExecuted",
            "type": "event"
        },
        {
            "inputs": [],
            "name": "EMPTY_BYTES32",
            "outputs": [
                {
                    "internalType": "bytes32",
                    "name": "",
                    "type": "bytes32"
                }
            ],
            "stateMutability": "view",
            "type": "function"
        },
        {
            "inputs": [],
            "name": "EMPTY_STATE",
            "outputs": [
                {
                    "internalType": "bytes",
                    "name": "",
                    "type": "bytes"
                }
            ],
            "stateMutability": "view",
            "type": "function"
        },
        {
            "inputs": [
                {
                    "internalType": "bytes",
                    "name": "data",
                    "type": "bytes"
                }
            ],
            "name": "execute",
            "outputs": [
                {
                    "internalType": "bytes",
                    "name": "",
                    "type": "bytes"
                }
            ],
            "stateMutability": "payable",
            "type": "function"
        },
        {
            "inputs": [],
            "name": "getState",
            "outputs": [
                {
                    "internalType": "bytes",
                    "name": "state",
                    "type": "bytes"
                }
            ],
            "stateMutability": "view",
            "type": "function"
        },
        {
            "inputs": [
                {
                    "internalType": "bytes",
                    "name": "",
                    "type": "bytes"
                }
            ],
            "name": "init",
            "outputs": [
                {
                    "internalType": "bytes",
                    "name": "",
                    "type": "bytes"
                }
            ],
            "stateMutability": "payable",
            "type": "function"
        },
        {
            "inputs": [],
            "name": "payFee",
            "outputs": [],
            "stateMutability": "payable",
            "type": "function"
        },
        {
            "inputs": [
                {
                    "internalType": "bytes",
                    "name": "data",
                    "type": "bytes"
                },
                {
                    "components": [
                        {
                            "internalType": "bytes32",
                            "name": "action",
                            "type": "bytes32"
                        },
                        {
                            "internalType": "bytes",
                            "name": "target",
                            "type": "bytes"
                        },
                        {
                            "internalType": "enum Keyword",
                            "name": "keyword",
                            "type": "uint8"
                        },
                        {
                            "internalType": "bytes32",
                            "name": "extent",
                            "type": "bytes32"
                        }
                    ],
                    "internalType": "struct Rule[]",
                    "name": "rules",
                    "type": "tuple[]"
                }
            ],
            "name": "validate",
            "outputs": [],
            "stateMutability": "view",
            "type": "function"
        },
        {
            "stateMutability": "payable",
            "type": "receive"
        }
    ],
    "bytecode": "0x608060405234801561001057600080fd5b50611291806100206000396000f3fe6080604052600436106100745760003560e01c80633d14319d1161004e5780633d14319d146100c05780634ddf47d4146100e357806352bd4f41146100f95780638db71efb1461011957600080fd5b806309c5eabe146100805780631865c57d146100a957806329610252146100be57600080fd5b3661007b57005b600080fd5b61009361008e366004610dd3565b610162565b6040516100a09190610e8f565b60405180910390f35b3480156100b557600080fd5b506100936102d2565b005b3480156100cc57600080fd5b506100d5600081565b6040519081526020016100a0565b6100936100f1366004610dd3565b606092915050565b34801561010557600080fd5b506100be610114366004610ea9565b610374565b34801561012557600080fd5b506100936040518060400160405280600b81526020017f454d5054595f535441544500000000000000000000000000000000000000000081525081565b606060008060006101738686610408565b60405173ffffffffffffffffffffffffffffffffffffffff83166024820152604481018290529295509093509150600090606401604080517fffffffffffffffffffffffffffffffffffffffffffffffffffffffffffffffe08184030181529190526020810180517bffffffffffffffffffffffffffffffffffffffffffffffffffffffff167fa9059cbb00000000000000000000000000000000000000000000000000000000179052905061022b84600083610426565b508273ffffffffffffffffffffffffffffffffffffffff168473ffffffffffffffffffffffffffffffffffffffff167f498e7e81ccd1edd4bb7661f5e760cf4f9b183f15c015c72f64d718e5e31592fc8460405161028b91815260200190565b60405180910390a3505060408051808201909152600b81527f454d5054595f5354415445000000000000000000000000000000000000000000602082015295945050505050565b6040517fd06403d6000000000000000000000000000000000000000000000000000000008152306004820152606090339063d06403d690602401600060405180830381865afa158015610329573d6000803e3d6000fd5b505050506040513d6000823e601f3d9081017fffffffffffffffffffffffffffffffffffffffffffffffffffffffffffffffe016820160405261036f9190810190610f72565b905090565b60008060006103838787610408565b925092509250600082846040516020016103c092919073ffffffffffffffffffffffffffffffffffffffff92831681529116602082015260400190565b604080517fffffffffffffffffffffffffffffffffffffffffffffffffffffffffffffffe081840301815291905290506103fe8686600084866104d6565b5050505050505050565b6000808061041884860186611066565b919790965090945092505050565b6040517f20d2a20f00000000000000000000000000000000000000000000000000000000815260609033906320d2a20f90610469908790879087906004016110a2565b6000604051808303816000875af1158015610488573d6000803e3d6000fd5b505050506040513d6000823e601f3d9081017fffffffffffffffffffffffffffffffffffffffffffffffffffffffffffffffe01682016040526104ce9190810190610f72565b949350505050565b60005b61ffff8116851115610cf8577f2a0000000000000000000000000000000000000000000000000000000000000086868361ffff1681811061051c5761051c6110e0565b905060200281019061052e919061110f565b35148061056257508386868361ffff1681811061054d5761054d6110e0565b905060200281019061055f919061110f565b35145b15610ce657600086868361ffff1681811061057f5761057f6110e0565b9050602002810190610591919061110f565b61059f90602081019061114d565b6040516105ad9291906111b2565b60408051918290038220828201909152600182527f2a0000000000000000000000000000000000000000000000000000000000000060209092019190915290507f04994f67dc55b09e814ab7ffc8df3686b4afb2bb53e60eae97ef043fe03fb82981148061062057508351602085012081145b15610ce457600061065988888561ffff16818110610640576106406110e0565b9050602002810190610652919061110f565b6060013590565b9050600688888561ffff16818110610673576106736110e0565b9050602002810190610685919061110f565b6106969060608101906040016111f1565b60068111156106a7576106a76111c2565b14156106b557505050610d83565b600088888561ffff168181106106cd576106cd6110e0565b90506020028101906106df919061110f565b6106f09060608101906040016111f1565b6006811115610701576107016111c2565b14156107a05780841161079b576040517f08c379a000000000000000000000000000000000000000000000000000000000815260206004820152603760248201527f556e617574686f72697a656420616374696f6e3a20657874656e742073686f7560448201527f6c642062652067726561746572207468616e2072756c6500000000000000000060648201526084015b60405180910390fd5b610cdc565b600188888561ffff168181106107b8576107b86110e0565b90506020028101906107ca919061110f565b6107db9060608101906040016111f1565b60068111156107ec576107ec6111c2565b14156108815780841061079b576040517f08c379a000000000000000000000000000000000000000000000000000000000815260206004820152603760248201527f556e617574686f72697a656420616374696f6e3a20657874656e742073686f7560448201527f6c6420626520736d616c6c6572207468616e2072756c650000000000000000006064820152608401610792565b600288888561ffff16818110610899576108996110e0565b90506020028101906108ab919061110f565b6108bc9060608101906040016111f1565b60068111156108cd576108cd6111c2565b14156109885780841461079b576040517f08c379a000000000000000000000000000000000000000000000000000000000815260206004820152604160248201527f556e617574686f72697a656420616374696f6e3a20657874656e742073686f7560448201527f6c6420626520657175616c20746f2074686520657874656e74206f662072756c60648201527f6500000000000000000000000000000000000000000000000000000000000000608482015260a401610792565b600388888561ffff168181106109a0576109a06110e0565b90506020028101906109b2919061110f565b6109c39060608101906040016111f1565b60068111156109d4576109d46111c2565b1415610a90578084101561079b576040517f08c379a000000000000000000000000000000000000000000000000000000000815260206004820152604260248201527f556e617574686f72697a656420616374696f6e3a20657874656e742073686f7560448201527f6c642062652067726561746572206f7220657175616c20746f2074686520727560648201527f6c65000000000000000000000000000000000000000000000000000000000000608482015260a401610792565b600488888561ffff16818110610aa857610aa86110e0565b9050602002810190610aba919061110f565b610acb9060608101906040016111f1565b6006811115610adc57610adc6111c2565b1415610b72578084111561079b576040517f08c379a000000000000000000000000000000000000000000000000000000000815260206004820152603f60248201527f556e617574686f72697a656420616374696f6e3a20657874656e742073686f7560448201527f6c64206265206c657373206f7220657175616c20746f207468652072756c65006064820152608401610792565b600588888561ffff16818110610b8a57610b8a6110e0565b9050602002810190610b9c919061110f565b610bad9060608101906040016111f1565b6006811115610bbe57610bbe6111c2565b1415610c54578084141561079b576040517f08c379a000000000000000000000000000000000000000000000000000000000815260206004820152603b60248201527f556e617574686f72697a656420616374696f6e3a20657874656e742073686f7560448201527f6c64206265206e6f7420657175616c20746f207468652072756c6500000000006064820152608401610792565b6040517f08c379a000000000000000000000000000000000000000000000000000000000815260206004820152602960248201527f556e617574686f72697a656420616374696f6e3a20696e76616c69642072756c60448201527f65206b6579776f726400000000000000000000000000000000000000000000006064820152608401610792565b505050610d83565b505b80610cf081611212565b9150506104d9565b50604080517f08c379a00000000000000000000000000000000000000000000000000000000081526020600482015260248101919091527f556e617574686f72697a656420616374696f6e3a206e6f2072756c65206d617460448201527f636865732e206661696c2074686520757365724f702062792064656661756c746064820152608401610792565b5050505050565b60008083601f840112610d9c57600080fd5b50813567ffffffffffffffff811115610db457600080fd5b602083019150836020828501011115610dcc57600080fd5b9250929050565b60008060208385031215610de657600080fd5b823567ffffffffffffffff811115610dfd57600080fd5b610e0985828601610d8a565b90969095509350505050565b60005b83811015610e30578181015183820152602001610e18565b83811115610e3f576000848401525b50505050565b60008151808452610e5d816020860160208601610e15565b601f017fffffffffffffffffffffffffffffffffffffffffffffffffffffffffffffffe0169290920160200192915050565b602081526000610ea26020830184610e45565b9392505050565b60008060008060408587031215610ebf57600080fd5b843567ffffffffffffffff80821115610ed757600080fd5b610ee388838901610d8a565b90965094506020870135915080821115610efc57600080fd5b818701915087601f830112610f1057600080fd5b813581811115610f1f57600080fd5b8860208260051b8501011115610f3457600080fd5b95989497505060200194505050565b7f4e487b7100000000000000000000000000000000000000000000000000000000600052604160045260246000fd5b600060208284031215610f8457600080fd5b815167ffffffffffffffff80821115610f9c57600080fd5b818401915084601f830112610fb057600080fd5b815181811115610fc257610fc2610f43565b604051601f82017fffffffffffffffffffffffffffffffffffffffffffffffffffffffffffffffe0908116603f0116810190838211818310171561100857611008610f43565b8160405282815287602084870101111561102157600080fd5b611032836020830160208801610e15565b979650505050505050565b803573ffffffffffffffffffffffffffffffffffffffff8116811461106157600080fd5b919050565b60008060006060848603121561107b57600080fd5b6110848461103d565b92506110926020850161103d565b9150604084013590509250925092565b73ffffffffffffffffffffffffffffffffffffffff841681528260208201526060604082015260006110d76060830184610e45565b95945050505050565b7f4e487b7100000000000000000000000000000000000000000000000000000000600052603260045260246000fd5b600082357fffffffffffffffffffffffffffffffffffffffffffffffffffffffffffffff8183360301811261114357600080fd5b9190910192915050565b60008083357fffffffffffffffffffffffffffffffffffffffffffffffffffffffffffffffe184360301811261118257600080fd5b83018035915067ffffffffffffffff82111561119d57600080fd5b602001915036819003821315610dcc57600080fd5b8183823760009101908152919050565b7f4e487b7100000000000000000000000000000000000000000000000000000000600052602160045260246000fd5b60006020828403121561120357600080fd5b813560078110610ea257600080fd5b600061ffff80831681811415611251577f4e487b7100000000000000000000000000000000000000000000000000000000600052601160045260246000fd5b600101939250505056fea264697066735822122097980fe8a445a83f6004a268749fc52af8ea0acfe27dc717e113499f4f76a2fd64736f6c634300080c0033",
    "linkReferences": {},
    "deployedLinkReferences": {}
}