{"_format":"hh-sol-artifact-1","contractName":"TokenPaymaster","sourceName":"contracts/paymaster/TokenPaymaster.sol","abi":[{"inputs":[{"internalType":"contract IEntryPoint","name":"_entryPoint","type":"address"},{"internalType":"contract ITokenPriceOracle","name":"_tokenPriceOracle","type":"address"},{"internalType":"contract IERC20","name":"_token","type":"address"},{"internalType":"contract AggregatorV3Interface","name":"_aggregator","type":"address"}],"stateMutability":"nonpayable","type":"constructor"},{"anonymous":false,"inputs":[{"indexed":true,"internalType":"address","name":"previousOwner","type":"address"},{"indexed":true,"internalType":"address","name":"newOwner","type":"address"}],"name":"OwnershipTransferred","type":"event"},{"inputs":[],"name":"COST_OF_POST","outputs":[{"internalType":"uint256","name":"","type":"uint256"}],"stateMutability":"view","type":"function"},{"inputs":[{"internalType":"address","name":"sponsor","type":"address"}],"name":"addEthDepositForSponsor","outputs":[],"stateMutability":"payable","type":"function"},{"inputs":[{"internalType":"uint32","name":"unstakeDelaySec","type":"uint32"}],"name":"addStake","outputs":[],"stateMutability":"payable","type":"function"},{"inputs":[{"internalType":"address","name":"account","type":"address"},{"internalType":"uint256","name":"amount","type":"uint256"}],"name":"addTokenDepositTo","outputs":[],"stateMutability":"nonpayable","type":"function"},{"inputs":[{"internalType":"bytes[]","name":"data","type":"bytes[]"}],"name":"batchActions","outputs":[],"stateMutability":"payable","type":"function"},{"inputs":[],"name":"deposit","outputs":[],"stateMutability":"payable","type":"function"},{"inputs":[{"internalType":"address","name":"account","type":"address"}],"name":"depositInfo","outputs":[{"internalType":"uint256","name":"tokenAmount","type":"uint256"},{"internalType":"uint256","name":"sponsorAmount","type":"uint256"},{"internalType":"uint256","name":"_unlockBlockSponsor","type":"uint256"},{"internalType":"uint256","name":"_unlockBlockAccount","type":"uint256"}],"stateMutability":"view","type":"function"},{"inputs":[],"name":"entryPoint","outputs":[{"internalType":"contract IEntryPoint","name":"","type":"address"}],"stateMutability":"view","type":"function"},{"inputs":[],"name":"getDeposit","outputs":[{"internalType":"uint256","name":"","type":"uint256"}],"stateMutability":"view","type":"function"},{"inputs":[{"internalType":"address","name":"sponsor","type":"address"}],"name":"getEthDepositInfoForSponsor","outputs":[{"internalType":"uint256","name":"","type":"uint256"}],"stateMutability":"view","type":"function"},{"inputs":[],"name":"getToken","outputs":[{"internalType":"address","name":"","type":"address"}],"stateMutability":"view","type":"function"},{"inputs":[{"internalType":"address","name":"account","type":"address"},{"internalType":"bool","name":"sponsorMode","type":"bool"}],"name":"getUnlockBlockWithSponsor","outputs":[{"internalType":"uint256","name":"","type":"uint256"}],"stateMutability":"view","type":"function"},{"inputs":[],"name":"lockSponsorEntrypointStake","outputs":[],"stateMutability":"nonpayable","type":"function"},{"inputs":[],"name":"lockTokenDeposit","outputs":[],"stateMutability":"nonpayable","type":"function"},{"inputs":[],"name":"owner","outputs":[{"internalType":"address","name":"","type":"address"}],"stateMutability":"view","type":"function"},{"inputs":[{"internalType":"enum IPaymaster.PostOpMode","name":"mode","type":"uint8"},{"internalType":"bytes","name":"context","type":"bytes"},{"internalType":"uint256","name":"actualGasCost","type":"uint256"}],"name":"postOp","outputs":[],"stateMutability":"nonpayable","type":"function"},{"inputs":[],"name":"renounceOwnership","outputs":[],"stateMutability":"nonpayable","type":"function"},{"inputs":[{"internalType":"address","name":"spender","type":"address"},{"internalType":"bool","name":"mode","type":"bool"}],"name":"setSpenderToBlackListMode","outputs":[],"stateMutability":"nonpayable","type":"function"},{"inputs":[{"internalType":"address","name":"spender","type":"address"},{"internalType":"bool","name":"isWhiteListed","type":"bool"}],"name":"setSponsorApproval","outputs":[],"stateMutability":"nonpayable","type":"function"},{"inputs":[{"internalType":"bool","name":"mode","type":"bool"}],"name":"setWhitelistMode","outputs":[],"stateMutability":"nonpayable","type":"function"},{"inputs":[{"internalType":"bytes32","name":"","type":"bytes32"}],"name":"sponsorApprovals","outputs":[{"internalType":"bool","name":"","type":"bool"}],"stateMutability":"view","type":"function"},{"inputs":[{"internalType":"address","name":"","type":"address"}],"name":"sponsorBalances","outputs":[{"internalType":"uint256","name":"","type":"uint256"}],"stateMutability":"view","type":"function"},{"inputs":[{"internalType":"address","name":"","type":"address"}],"name":"tokenBalances","outputs":[{"internalType":"uint256","name":"","type":"uint256"}],"stateMutability":"view","type":"function"},{"inputs":[{"internalType":"address","name":"newOwner","type":"address"}],"name":"transferOwnership","outputs":[],"stateMutability":"nonpayable","type":"function"},{"inputs":[{"internalType":"bytes32","name":"","type":"bytes32"}],"name":"unlockBlock","outputs":[{"internalType":"uint256","name":"","type":"uint256"}],"stateMutability":"view","type":"function"},{"inputs":[{"internalType":"uint256","name":"blockNum","type":"uint256"}],"name":"unlockSponsorEntrypointStakeAfter","outputs":[],"stateMutability":"nonpayable","type":"function"},{"inputs":[],"name":"unlockStake","outputs":[],"stateMutability":"nonpayable","type":"function"},{"inputs":[],"name":"unlockTokenDeposit","outputs":[],"stateMutability":"nonpayable","type":"function"},{"inputs":[{"components":[{"internalType":"address","name":"sender","type":"address"},{"internalType":"uint256","name":"nonce","type":"uint256"},{"internalType":"bytes","name":"initCode","type":"bytes"},{"internalType":"bytes","name":"callData","type":"bytes"},{"internalType":"uint256","name":"callGasLimit","type":"uint256"},{"internalType":"uint256","name":"verificationGasLimit","type":"uint256"},{"internalType":"uint256","name":"preVerificationGas","type":"uint256"},{"internalType":"uint256","name":"maxFeePerGas","type":"uint256"},{"internalType":"uint256","name":"maxPriorityFeePerGas","type":"uint256"},{"internalType":"bytes","name":"paymasterAndData","type":"bytes"},{"internalType":"bytes","name":"signature","type":"bytes"}],"internalType":"struct UserOperation","name":"userOp","type":"tuple"},{"internalType":"bytes32","name":"userOpHash","type":"bytes32"},{"internalType":"uint256","name":"maxCost","type":"uint256"}],"name":"validatePaymasterUserOp","outputs":[{"internalType":"bytes","name":"context","type":"bytes"},{"internalType":"uint256","name":"sigTimeRange","type":"uint256"}],"stateMutability":"nonpayable","type":"function"},{"inputs":[{"internalType":"address","name":"target","type":"address"},{"internalType":"uint256","name":"amount","type":"uint256"}],"name":"withdrawEthDepositTo","outputs":[],"stateMutability":"nonpayable","type":"function"},{"inputs":[{"internalType":"address payable","name":"withdrawAddress","type":"address"}],"name":"withdrawStake","outputs":[],"stateMutability":"nonpayable","type":"function"},{"inputs":[{"internalType":"address payable","name":"withdrawAddress","type":"address"},{"internalType":"uint256","name":"amount","type":"uint256"}],"name":"withdrawTo","outputs":[],"stateMutability":"nonpayable","type":"function"},{"inputs":[{"internalType":"address","name":"target","type":"address"},{"internalType":"uint256","name":"amount","type":"uint256"}],"name":"withdrawTokenDepositTo","outputs":[],"stateMutability":"nonpayable","type":"function"}],"bytecode":"0x60a06040523480156200001157600080fd5b5060405162002dd238038062002dd2833981016040819052620000349162000234565b83620000403362000130565b6001600160a01b03166080526200005662000180565b600180546001600160a01b038086166001600160a01b0319928316179092556002805492851692909116821790556040805163313ce56760e01b8152905163313ce567916004808201926020929091908290030181865afa158015620000c0573d6000803e3d6000fd5b505050506040513d601f19601f82011682018060405250810190620000e691906200029c565b6002805460ff92909216600160a01b0260ff60a01b19909216919091179055600380546001600160a01b039092166001600160a01b031990921691909117905550620002c8915050565b600080546001600160a01b038381166001600160a01b0319831681178455604051919092169283917f8be0079c531659141344cd1fd0a4f28419497f9722a3daafe3b4186f6b6457e09190a35050565b6200018e3360004362000190565b565b81620001b2576001600160a01b03831660009081526005602052604090208190555b604080516001600160a01b038516602082015280820191909152600760608201526639b837b739b7b960c91b6080820152819060059060009060a00160405160208183030381529060405280519060200120815260200190815260200160002081905550505050565b6001600160a01b03811681146200023157600080fd5b50565b600080600080608085870312156200024b57600080fd5b845162000258816200021b565b60208601519094506200026b816200021b565b60408601519093506200027e816200021b565b606086015190925062000291816200021b565b939692955090935050565b600060208284031215620002af57600080fd5b815160ff81168114620002c157600080fd5b9392505050565b608051612ab66200031c60003960008181610516015281816106cc0152818161077f015281816108aa01528181610e9001528181610f5701528181610fe7015281816110a601526117160152612ab66000f3fe6080604052600436106101fe5760003560e01c8063876e132b1161011d578063c399ec88116100b0578063e4467d9c1161007f578063e8db215d11610064578063e8db215d146105ff578063f2fde38b14610642578063f465c77e1461066257600080fd5b8063e4467d9c146105bf578063e6e61d1b146105df57600080fd5b8063c399ec881461056d578063cd8f80c214610582578063d0e30db014610597578063d3eccaff1461059f57600080fd5b8063a9a23409116100ec578063a9a23409146104e4578063b0d691fe14610504578063bb9fe6bf14610538578063c23a5cea1461054d57600080fd5b8063876e132b146104575780638da5cb5b146104775780639d31b69d146104a25780639ed0fb68146104cf57600080fd5b8063425bc1e911610195578063715018a611610164578063715018a6146103f9578063728c5a3b1461040e578063786be65d14610421578063796d43711461044157600080fd5b8063425bc1e91461034c5780634f4400c61461036c578063523fba7f1461038c57806363445989146103b957600080fd5b8063205c2878116101d1578063205c28781461028557806321df0da7146102a557806335c293a9146102f157806340e15afe1461031157600080fd5b80630396cb6014610203578063107d5fdf1461021857806315dab52e1461022d57806318f9585714610272575b600080fd5b6102166102113660046124d9565b610690565b005b34801561022457600080fd5b50610216610742565b34801561023957600080fd5b5061025d6102483660046124ff565b60046020526000908152604090205460ff1681565b60405190151581526020015b60405180910390f35b61021661028036600461253a565b610751565b34801561029157600080fd5b506102166102a0366004612557565b610856565b3480156102b157600080fd5b5060025473ffffffffffffffffffffffffffffffffffffffff165b60405173ffffffffffffffffffffffffffffffffffffffff9091168152602001610269565b3480156102fd57600080fd5b5061021661030c366004612591565b6108ee565b34801561031d57600080fd5b5061033e61032c3660046124ff565b60056020526000908152604090205481565b604051908152602001610269565b34801561035857600080fd5b506102166103673660046125ca565b61093e565b34801561037857600080fd5b50610216610387366004612557565b6109fe565b34801561039857600080fd5b5061033e6103a736600461253a565b60066020526000908152604090205481565b3480156103c557600080fd5b506103d96103d436600461253a565b610b98565b604080519485526020850193909352918301526060820152608001610269565b34801561040557600080fd5b50610216610bed565b61021661041c3660046125e7565b610bff565b34801561042d57600080fd5b5061033e61043c366004612591565b610d19565b34801561044d57600080fd5b5061033e6188b881565b34801561046357600080fd5b50610216610472366004612557565b610dd7565b34801561048357600080fd5b5060005473ffffffffffffffffffffffffffffffffffffffff166102cc565b3480156104ae57600080fd5b5061033e6104bd36600461253a565b60076020526000908152604090205481565b3480156104db57600080fd5b50610216610e60565b3480156104f057600080fd5b506102166104ff36600461265c565b610e6c565b34801561051057600080fd5b506102cc7f000000000000000000000000000000000000000000000000000000000000000081565b34801561054457600080fd5b50610216610e86565b34801561055957600080fd5b5061021661056836600461253a565b610f0a565b34801561057957600080fd5b5061033e610fb6565b34801561058e57600080fd5b5061021661106c565b610216611078565b3480156105ab57600080fd5b506102166105ba366004612557565b611100565b3480156105cb57600080fd5b506102166105da366004612591565b61129f565b3480156105eb57600080fd5b506102166105fa3660046124ff565b6112ae565b34801561060b57600080fd5b5061033e61061a36600461253a565b73ffffffffffffffffffffffffffffffffffffffff1660009081526007602052604090205490565b34801561064e57600080fd5b5061021661065d36600461253a565b6112c3565b34801561066e57600080fd5b5061068261067d3660046126eb565b611377565b6040516102699291906127b5565b61069861139a565b6040517f0396cb6000000000000000000000000000000000000000000000000000000000815263ffffffff821660048201527f000000000000000000000000000000000000000000000000000000000000000073ffffffffffffffffffffffffffffffffffffffff1690630396cb609034906024016000604051808303818588803b15801561072657600080fd5b505af115801561073a573d6000803e3d6000fd5b505050505050565b61074f336001600061141b565b565b6040517fb760faf90000000000000000000000000000000000000000000000000000000081523060048201527f000000000000000000000000000000000000000000000000000000000000000073ffffffffffffffffffffffffffffffffffffffff169063b760faf99034906024016000604051808303818588803b1580156107d957600080fd5b505af11580156107ed573d6000803e3d6000fd5b50505073ffffffffffffffffffffffffffffffffffffffff831660009081526007602052604081208054349450909250610828908490612806565b90915550503373ffffffffffffffffffffffffffffffffffffffff8216141561085357610853610742565b50565b61085e61139a565b6040517f205c287800000000000000000000000000000000000000000000000000000000815273ffffffffffffffffffffffffffffffffffffffff8381166004830152602482018390527f0000000000000000000000000000000000000000000000000000000000000000169063205c287890604401600060405180830381600087803b15801561072657600080fd5b80600460006108fd33866114d5565b8152602081019190915260400160002080547fffffffffffffffffffffffffffffffffffffffffffffffffffffffffffffff00169115159190911790555050565b80600460006109be336040805173ffffffffffffffffffffffffffffffffffffffff8316602082015280820191909152600960608201527f77686974656c6973740000000000000000000000000000000000000000000000608082015260009060a001604051602081830303815290604052805190602001209050919050565b8152602081019190915260400160002080547fffffffffffffffffffffffffffffffffffffffffffffffffffffffffffffff001691151591909117905550565b6000610a0b336000610d19565b90508015801590610a1b57508043115b610aac576040517f08c379a000000000000000000000000000000000000000000000000000000000815260206004820152602760248201527f546f6b656e5061796d61737465723a206d75737420756e6c6f636b546f6b656e60448201527f4465706f7369740000000000000000000000000000000000000000000000000060648201526084015b60405180910390fd5b33600090815260066020526040902054821115610b4b576040517f08c379a000000000000000000000000000000000000000000000000000000000815260206004820152602a60248201527f546f6b656e5061796d61737465723a20646f6573206e6f74206861766520656e60448201527f6f7567682066756e6473000000000000000000000000000000000000000000006064820152608401610aa3565b3360009081526006602052604081208054849290610b6a90849061281e565b9091555050600254610b939073ffffffffffffffffffffffffffffffffffffffff168484611557565b505050565b73ffffffffffffffffffffffffffffffffffffffff81166000908152600660209081526040808320546007909252822054909180610bd7856001610d19565b9150610be4856000610d19565b90509193509193565b610bf561139a565b61074f600061162b565b60005b81811015610b9357600030848484818110610c1f57610c1f612835565b9050602002810190610c319190612864565b604051610c3f9291906128d0565b600060405180830381855af49150503d8060008114610c7a576040519150601f19603f3d011682016040523d82523d6000602084013e610c7f565b606091505b5050905080610d10576040517f08c379a000000000000000000000000000000000000000000000000000000000815260206004820152603360248201527f546f6b656e5061796d61737465723a20696e7465726e616c206261746368656460448201527f207472616e73616374696f6e206661696c6564000000000000000000000000006064820152608401610aa3565b50600101610c02565b600081610d4c575073ffffffffffffffffffffffffffffffffffffffff8216600090815260056020526040902054610dd1565b6040805173ffffffffffffffffffffffffffffffffffffffff8516602082015280820191909152600760608201527f73706f6e736f7200000000000000000000000000000000000000000000000000608082015260059060009060a0016040516020818303038152906040528051906020012081526020019081526020016000205490505b92915050565b600254610dfc9073ffffffffffffffffffffffffffffffffffffffff163330846116a0565b73ffffffffffffffffffffffffffffffffffffffff821660009081526006602052604081208054839290610e31908490612806565b90915550503373ffffffffffffffffffffffffffffffffffffffff83161415610e5c57610e5c61106c565b5050565b61074f3360004361141b565b610e746116fe565b610e8084848484611740565b50505050565b610e8e61139a565b7f000000000000000000000000000000000000000000000000000000000000000073ffffffffffffffffffffffffffffffffffffffff1663bb9fe6bf6040518163ffffffff1660e01b8152600401600060405180830381600087803b158015610ef657600080fd5b505af1158015610e80573d6000803e3d6000fd5b610f1261139a565b6040517fc23a5cea00000000000000000000000000000000000000000000000000000000815273ffffffffffffffffffffffffffffffffffffffff82811660048301527f0000000000000000000000000000000000000000000000000000000000000000169063c23a5cea90602401600060405180830381600087803b158015610f9b57600080fd5b505af1158015610faf573d6000803e3d6000fd5b5050505050565b6040517f70a082310000000000000000000000000000000000000000000000000000000081523060048201526000907f000000000000000000000000000000000000000000000000000000000000000073ffffffffffffffffffffffffffffffffffffffff16906370a0823190602401602060405180830381865afa158015611043573d6000803e3d6000fd5b505050506040513d601f19601f8201168201806040525081019061106791906128e0565b905090565b61074f3360008061141b565b6040517fb760faf90000000000000000000000000000000000000000000000000000000081523060048201527f000000000000000000000000000000000000000000000000000000000000000073ffffffffffffffffffffffffffffffffffffffff169063b760faf99034906024016000604051808303818588803b158015610f9b57600080fd5b61110b336001610d19565b4311611199576040517f08c379a000000000000000000000000000000000000000000000000000000000815260206004820152602760248201527f546f6b656e5061796d61737465723a206d75737420756e6c6f636b546f6b656e60448201527f4465706f736974000000000000000000000000000000000000000000000000006064820152608401610aa3565b33600090815260076020526040902054811115611238576040517f08c379a000000000000000000000000000000000000000000000000000000000815260206004820152602760248201527f546f6b656e5061796d61737465723a206d75737420756e6c6f636b546f6b656e60448201527f4465706f736974000000000000000000000000000000000000000000000000006064820152608401610aa3565b336000908152600760205260408120805483929061125790849061281e565b909155505060405173ffffffffffffffffffffffffffffffffffffffff83169082156108fc029083906000818181858888f19350505050158015610b93573d6000803e3d6000fd5b80600460006108fd338661182f565b6108533360016112be8443612806565b61141b565b6112cb61139a565b73ffffffffffffffffffffffffffffffffffffffff811661136e576040517f08c379a000000000000000000000000000000000000000000000000000000000815260206004820152602660248201527f4f776e61626c653a206e6577206f776e657220697320746865207a65726f206160448201527f64647265737300000000000000000000000000000000000000000000000000006064820152608401610aa3565b6108538161162b565b606060006113836116fe565b61138e858585611864565b91509150935093915050565b60005473ffffffffffffffffffffffffffffffffffffffff16331461074f576040517f08c379a000000000000000000000000000000000000000000000000000000000815260206004820181905260248201527f4f776e61626c653a2063616c6c6572206973206e6f7420746865206f776e65726044820152606401610aa3565b816114495773ffffffffffffffffffffffffffffffffffffffff831660009081526005602052604090208190555b6040805173ffffffffffffffffffffffffffffffffffffffff8516602082015280820191909152600760608201527f73706f6e736f72000000000000000000000000000000000000000000000000006080820152819060059060009060a00160405160208183030381529060405280519060200120815260200190815260200160002081905550505050565b6040805173ffffffffffffffffffffffffffffffffffffffff8085166020830152831691810191909152606080820152600960808201527f626c61636b6c697374000000000000000000000000000000000000000000000060a082015260009060c0015b60405160208183030381529060405280519060200120905092915050565b60405173ffffffffffffffffffffffffffffffffffffffff8316602482015260448101829052610b939084907fa9059cbb00000000000000000000000000000000000000000000000000000000906064015b604080517fffffffffffffffffffffffffffffffffffffffffffffffffffffffffffffffe08184030181529190526020810180517bffffffffffffffffffffffffffffffffffffffffffffffffffffffff167fffffffff0000000000000000000000000000000000000000000000000000000090931692909217909152611d5c565b6000805473ffffffffffffffffffffffffffffffffffffffff8381167fffffffffffffffffffffffff0000000000000000000000000000000000000000831681178455604051919092169283917f8be0079c531659141344cd1fd0a4f28419497f9722a3daafe3b4186f6b6457e09190a35050565b60405173ffffffffffffffffffffffffffffffffffffffff80851660248301528316604482015260648101829052610e809085907f23b872dd00000000000000000000000000000000000000000000000000000000906084016115a9565b3373ffffffffffffffffffffffffffffffffffffffff7f0000000000000000000000000000000000000000000000000000000000000000161461074f57600080fd5b600080808080611752878901896128f9565b9450945094509450945060008183856188b861176e919061294a565b611778908a612806565b611782919061294a565b61178c9190612987565b90506117988682611e68565b73ffffffffffffffffffffffffffffffffffffffff8516600090815260066020526040812080548392906117cd908490612806565b909155506117df9050846188b861294a565b6117e99088612806565b73ffffffffffffffffffffffffffffffffffffffff86166000908152600760205260408120805490919061181e90849061281e565b909155505050505050505050505050565b6040805173ffffffffffffffffffffffffffffffffffffffff8085166020830152831691810191909152600090606001611539565b60606000611876610120860186612864565b9050602814611907576040517f08c379a000000000000000000000000000000000000000000000000000000000815260206004820152603560248201527f546f6b656e5061796d61737465723a207061796d6173746572416e644461746160448201527f206d75737420737065636966792073706f6e736f7200000000000000000000006064820152608401610aa3565b6188b88560a001351161199c576040517f08c379a000000000000000000000000000000000000000000000000000000000815260206004820152602660248201527f546f6b656e5061796d61737465723a2067617320746f6f206c6f7720666f722060448201527f706f73744f7000000000000000000000000000000000000000000000000000006064820152608401610aa3565b3660006119ad610120880188612864565b909250905060006119c182601481866129c2565b6119ca916129ec565b60601c905060006119dc826001610d19565b90508015806119ea57504381115b611a50576040517f08c379a000000000000000000000000000000000000000000000000000000000815260206004820152601c60248201527f546f6b656e5061796d61737465723a205374616b65204c6f636b6564000000006044820152606401610aa3565b88356000611a5e8282610d19565b9050801580611a6c57504381115b611af8576040517f08c379a000000000000000000000000000000000000000000000000000000000815260206004820152602260248201527f546f6b656e5061796d61737465723a206465706f736974206e6f74206c6f636b60448201527f65640000000000000000000000000000000000000000000000000000000000006064820152608401610aa3565b73ffffffffffffffffffffffffffffffffffffffff8416600090815260076020526040902054891115611bad576040517f08c379a000000000000000000000000000000000000000000000000000000000815260206004820152602c60248201527f546f6b656e5061796d61737465723a20646f6573206e6f74206861766520656e60448201527f6f75676820746f2066756e6400000000000000000000000000000000000000006064820152608401610aa3565b611bb78483611f69565b611c43576040517f08c379a000000000000000000000000000000000000000000000000000000000815260206004820152603360248201527f546f6b656e5061796d61737465723a20686173206e6f74206f7220646f65732060448201527f6e6f7420617070726f7665207370656e646572000000000000000000000000006064820152608401610aa3565b6000611c5060008b612043565b9050611c5c8382612110565b80611c8c575073ffffffffffffffffffffffffffffffffffffffff83166000908152600660205260409020548111155b611cf2576040517f08c379a000000000000000000000000000000000000000000000000000000000815260206004820181905260248201527f546f6b656e5061796d61737465723a20757365722063616e206e6f74207061796044820152606401610aa3565b6000611cfd8d612263565b6040805173ffffffffffffffffffffffffffffffffffffffff9687166020820152979095168786015260608701525060808501525060a0808401989098528051808403909801885260c090920190915250939660009650945050505050565b6000611dbe826040518060400160405280602081526020017f5361666545524332303a206c6f772d6c6576656c2063616c6c206661696c65648152508573ffffffffffffffffffffffffffffffffffffffff166122939092919063ffffffff16565b805190915015610b935780806020019051810190611ddc9190612a34565b610b93576040517f08c379a000000000000000000000000000000000000000000000000000000000815260206004820152602a60248201527f5361666545524332303a204552433230206f7065726174696f6e20646964206e60448201527f6f742073756363656564000000000000000000000000000000000000000000006064820152608401610aa3565b611e728282612110565b15611e9c57600254610e5c9073ffffffffffffffffffffffffffffffffffffffff168330846116a0565b73ffffffffffffffffffffffffffffffffffffffff8216600090815260066020526040902054811115611f2b576040517f08c379a000000000000000000000000000000000000000000000000000000000815260206004820152601460248201527f446f6573206e6f74206861766520746f6b656e730000000000000000000000006044820152606401610aa3565b73ffffffffffffffffffffffffffffffffffffffff821660009081526006602052604081208054839290611f6090849061281e565b90915550505050565b60008060046000611feb866040805173ffffffffffffffffffffffffffffffffffffffff8316602082015280820191909152600960608201527f77686974656c6973740000000000000000000000000000000000000000000000608082015260009060a001604051602081830303815290604052805190602001209050919050565b815260208101919091526040016000205460ff16905080156120195761201184846122a2565b915050610dd1565b60046000612027868661182f565b815260208101919091526040016000205460ff16949350505050565b6001546003546002546040517f6a2f491800000000000000000000000000000000000000000000000000000000815273ffffffffffffffffffffffffffffffffffffffff9283166004820152602481018590527401000000000000000000000000000000000000000090910460ff1660448201526000929190911690636a2f491890606401602060405180830381865afa1580156120e5573d6000803e3d6000fd5b505050506040513d601f19601f8201168201806040525081019061210991906128e0565b9392505050565b6002546040517fdd62ed3e00000000000000000000000000000000000000000000000000000000815273ffffffffffffffffffffffffffffffffffffffff8481166004830152306024830152600092839291169063dd62ed3e90604401602060405180830381865afa15801561218a573d6000803e3d6000fd5b505050506040513d601f19601f820116820180604052508101906121ae91906128e0565b6002546040517f70a0823100000000000000000000000000000000000000000000000000000000815273ffffffffffffffffffffffffffffffffffffffff8781166004830152929350600092909116906370a0823190602401602060405180830381865afa158015612224573d6000803e3d6000fd5b505050506040513d601f19601f8201168201806040525081019061224891906128e0565b905083811015801561225a5750838210155b95945050505050565b600060e08201356101008301358082141561227f575092915050565b61228b824883016122ce565b949350505050565b606061228b84846000856122e4565b6000600460006122b285856114d5565b815260208101919091526040016000205460ff16159392505050565b60008183106122dd5781612109565b5090919050565b606082471015612376576040517f08c379a000000000000000000000000000000000000000000000000000000000815260206004820152602660248201527f416464726573733a20696e73756666696369656e742062616c616e636520666f60448201527f722063616c6c00000000000000000000000000000000000000000000000000006064820152608401610aa3565b6000808673ffffffffffffffffffffffffffffffffffffffff16858760405161239f9190612a51565b60006040518083038185875af1925050503d80600081146123dc576040519150601f19603f3d011682016040523d82523d6000602084013e6123e1565b606091505b50915091506123f2878383876123fd565b979650505050505050565b606083156124905782516124895773ffffffffffffffffffffffffffffffffffffffff85163b612489576040517f08c379a000000000000000000000000000000000000000000000000000000000815260206004820152601d60248201527f416464726573733a2063616c6c20746f206e6f6e2d636f6e74726163740000006044820152606401610aa3565b508161228b565b61228b83838151156124a55781518083602001fd5b806040517f08c379a0000000000000000000000000000000000000000000000000000000008152600401610aa39190612a6d565b6000602082840312156124eb57600080fd5b813563ffffffff8116811461210957600080fd5b60006020828403121561251157600080fd5b5035919050565b73ffffffffffffffffffffffffffffffffffffffff8116811461085357600080fd5b60006020828403121561254c57600080fd5b813561210981612518565b6000806040838503121561256a57600080fd5b823561257581612518565b946020939093013593505050565b801515811461085357600080fd5b600080604083850312156125a457600080fd5b82356125af81612518565b915060208301356125bf81612583565b809150509250929050565b6000602082840312156125dc57600080fd5b813561210981612583565b600080602083850312156125fa57600080fd5b823567ffffffffffffffff8082111561261257600080fd5b818501915085601f83011261262657600080fd5b81358181111561263557600080fd5b8660208260051b850101111561264a57600080fd5b60209290920196919550909350505050565b6000806000806060858703121561267257600080fd5b84356003811061268157600080fd5b9350602085013567ffffffffffffffff8082111561269e57600080fd5b818701915087601f8301126126b257600080fd5b8135818111156126c157600080fd5b8860208285010111156126d357600080fd5b95986020929092019750949560400135945092505050565b60008060006060848603121561270057600080fd5b833567ffffffffffffffff81111561271757600080fd5b8401610160818703121561272a57600080fd5b95602085013595506040909401359392505050565b60005b8381101561275a578181015183820152602001612742565b83811115610e805750506000910152565b6000815180845261278381602086016020860161273f565b601f017fffffffffffffffffffffffffffffffffffffffffffffffffffffffffffffffe0169290920160200192915050565b6040815260006127c8604083018561276b565b90508260208301529392505050565b7f4e487b7100000000000000000000000000000000000000000000000000000000600052601160045260246000fd5b60008219821115612819576128196127d7565b500190565b600082821015612830576128306127d7565b500390565b7f4e487b7100000000000000000000000000000000000000000000000000000000600052603260045260246000fd5b60008083357fffffffffffffffffffffffffffffffffffffffffffffffffffffffffffffffe184360301811261289957600080fd5b83018035915067ffffffffffffffff8211156128b457600080fd5b6020019150368190038213156128c957600080fd5b9250929050565b8183823760009101908152919050565b6000602082840312156128f257600080fd5b5051919050565b600080600080600060a0868803121561291157600080fd5b853561291c81612518565b9450602086013561292c81612518565b94979496505050506040830135926060810135926080909101359150565b6000817fffffffffffffffffffffffffffffffffffffffffffffffffffffffffffffffff0483118215151615612982576129826127d7565b500290565b6000826129bd577f4e487b7100000000000000000000000000000000000000000000000000000000600052601260045260246000fd5b500490565b600080858511156129d257600080fd5b838611156129df57600080fd5b5050820193919092039150565b7fffffffffffffffffffffffffffffffffffffffff0000000000000000000000008135818116916014851015612a2c5780818660140360031b1b83161692505b505092915050565b600060208284031215612a4657600080fd5b815161210981612583565b60008251612a6381846020870161273f565b9190910192915050565b602081526000612109602083018461276b56fea2646970667358221220b735cdb7952821320b9812f27bbc11bd2bdc2389ed6689005b1a2575ff735c4464736f6c634300080c0033","linkReferences":{},"deployedLinkReferences":{},"fileHash":"36c2340bd32c4e8716c38d8bee461a5fc64a446c320b947d14a1de9548d9efdb"}