{"_format":"hh-sol-artifact-1","contractName":"TokenPaymaster","sourceName":"contracts/paymaster/TokenPaymaster.sol","abi":[{"inputs":[{"internalType":"contract IEntryPoint","name":"_entryPoint","type":"address"},{"internalType":"contract ITokenPriceOracle","name":"_tokenPriceOracle","type":"address"},{"internalType":"contract IERC20","name":"_token","type":"address"},{"internalType":"contract AggregatorV3Interface","name":"_aggregator","type":"address"}],"stateMutability":"nonpayable","type":"constructor"},{"anonymous":false,"inputs":[{"indexed":true,"internalType":"address","name":"previousOwner","type":"address"},{"indexed":true,"internalType":"address","name":"newOwner","type":"address"}],"name":"OwnershipTransferred","type":"event"},{"inputs":[],"name":"COST_OF_POST","outputs":[{"internalType":"uint256","name":"","type":"uint256"}],"stateMutability":"view","type":"function"},{"inputs":[{"internalType":"uint256","name":"ethBought","type":"uint256"}],"name":"_getTokenValueOfEth","outputs":[{"internalType":"uint256","name":"","type":"uint256"}],"stateMutability":"view","type":"function"},{"inputs":[{"internalType":"address","name":"account","type":"address"},{"internalType":"uint256","name":"amount","type":"uint256"}],"name":"addDepositFor","outputs":[],"stateMutability":"nonpayable","type":"function"},{"inputs":[{"internalType":"address","name":"sponsor","type":"address"}],"name":"addEthDepositForSponsor","outputs":[],"stateMutability":"payable","type":"function"},{"inputs":[{"internalType":"uint32","name":"unstakeDelaySec","type":"uint32"}],"name":"addStake","outputs":[],"stateMutability":"payable","type":"function"},{"inputs":[],"name":"deposit","outputs":[],"stateMutability":"payable","type":"function"},{"inputs":[{"internalType":"address","name":"account","type":"address"}],"name":"depositInfo","outputs":[{"internalType":"uint256","name":"tokenAmount","type":"uint256"},{"internalType":"uint256","name":"sponsorAmount","type":"uint256"},{"internalType":"uint256","name":"_unlockBlockSponsor","type":"uint256"},{"internalType":"uint256","name":"_unlockBlockAccount","type":"uint256"}],"stateMutability":"view","type":"function"},{"inputs":[],"name":"entryPoint","outputs":[{"internalType":"contract IEntryPoint","name":"","type":"address"}],"stateMutability":"view","type":"function"},{"inputs":[],"name":"getDeposit","outputs":[{"internalType":"uint256","name":"","type":"uint256"}],"stateMutability":"view","type":"function"},{"inputs":[{"internalType":"address","name":"sponsor","type":"address"}],"name":"getEthDepositInfoForSponsor","outputs":[{"internalType":"uint256","name":"","type":"uint256"}],"stateMutability":"view","type":"function"},{"inputs":[{"internalType":"address","name":"account","type":"address"},{"internalType":"bool","name":"sponsor","type":"bool"}],"name":"getUnlockBlockWithSponsor","outputs":[{"internalType":"uint256","name":"","type":"uint256"}],"stateMutability":"view","type":"function"},{"inputs":[],"name":"lockSponsorEntrypointStake","outputs":[],"stateMutability":"nonpayable","type":"function"},{"inputs":[],"name":"lockTokenDeposit","outputs":[],"stateMutability":"nonpayable","type":"function"},{"inputs":[],"name":"owner","outputs":[{"internalType":"address","name":"","type":"address"}],"stateMutability":"view","type":"function"},{"inputs":[{"internalType":"enum IPaymaster.PostOpMode","name":"mode","type":"uint8"},{"internalType":"bytes","name":"context","type":"bytes"},{"internalType":"uint256","name":"actualGasCost","type":"uint256"}],"name":"postOp","outputs":[],"stateMutability":"nonpayable","type":"function"},{"inputs":[],"name":"renounceOwnership","outputs":[],"stateMutability":"nonpayable","type":"function"},{"inputs":[{"internalType":"address","name":"spender","type":"address"},{"internalType":"bool","name":"mode","type":"bool"}],"name":"setSpenderToBlackListMode","outputs":[],"stateMutability":"nonpayable","type":"function"},{"inputs":[{"internalType":"address","name":"sponsor","type":"address"},{"internalType":"address","name":"account","type":"address"},{"internalType":"bool","name":"setting","type":"bool"}],"name":"setSponsorApproval","outputs":[],"stateMutability":"nonpayable","type":"function"},{"inputs":[{"internalType":"bool","name":"mode","type":"bool"}],"name":"setWhitelistMode","outputs":[],"stateMutability":"nonpayable","type":"function"},{"inputs":[{"internalType":"bytes32","name":"","type":"bytes32"}],"name":"sponsorApprovals","outputs":[{"internalType":"bool","name":"","type":"bool"}],"stateMutability":"view","type":"function"},{"inputs":[{"internalType":"address","name":"","type":"address"}],"name":"sponsorBalances","outputs":[{"internalType":"uint256","name":"","type":"uint256"}],"stateMutability":"view","type":"function"},{"inputs":[{"internalType":"address","name":"","type":"address"}],"name":"tokenBalances","outputs":[{"internalType":"uint256","name":"","type":"uint256"}],"stateMutability":"view","type":"function"},{"inputs":[{"internalType":"address","name":"newOwner","type":"address"}],"name":"transferOwnership","outputs":[],"stateMutability":"nonpayable","type":"function"},{"inputs":[{"internalType":"bytes32","name":"","type":"bytes32"}],"name":"unlockBlock","outputs":[{"internalType":"uint256","name":"","type":"uint256"}],"stateMutability":"view","type":"function"},{"inputs":[{"internalType":"uint256","name":"blockNum","type":"uint256"}],"name":"unlockSponsorEntrypointStakeAfter","outputs":[],"stateMutability":"nonpayable","type":"function"},{"inputs":[],"name":"unlockStake","outputs":[],"stateMutability":"nonpayable","type":"function"},{"inputs":[],"name":"unlockTokenDeposit","outputs":[],"stateMutability":"nonpayable","type":"function"},{"inputs":[{"components":[{"internalType":"address","name":"sender","type":"address"},{"internalType":"uint256","name":"nonce","type":"uint256"},{"internalType":"bytes","name":"initCode","type":"bytes"},{"internalType":"bytes","name":"callData","type":"bytes"},{"internalType":"uint256","name":"callGasLimit","type":"uint256"},{"internalType":"uint256","name":"verificationGasLimit","type":"uint256"},{"internalType":"uint256","name":"preVerificationGas","type":"uint256"},{"internalType":"uint256","name":"maxFeePerGas","type":"uint256"},{"internalType":"uint256","name":"maxPriorityFeePerGas","type":"uint256"},{"internalType":"bytes","name":"paymasterAndData","type":"bytes"},{"internalType":"bytes","name":"signature","type":"bytes"}],"internalType":"struct UserOperation","name":"userOp","type":"tuple"},{"internalType":"bytes32","name":"userOpHash","type":"bytes32"},{"internalType":"uint256","name":"maxCost","type":"uint256"}],"name":"validatePaymasterUserOp","outputs":[{"internalType":"bytes","name":"context","type":"bytes"},{"internalType":"uint256","name":"sigTimeRange","type":"uint256"}],"stateMutability":"nonpayable","type":"function"},{"inputs":[{"internalType":"address","name":"target","type":"address"},{"internalType":"uint256","name":"amount","type":"uint256"}],"name":"withdrawEthDepositTo","outputs":[],"stateMutability":"nonpayable","type":"function"},{"inputs":[{"internalType":"address payable","name":"withdrawAddress","type":"address"}],"name":"withdrawStake","outputs":[],"stateMutability":"nonpayable","type":"function"},{"inputs":[{"internalType":"address payable","name":"withdrawAddress","type":"address"},{"internalType":"uint256","name":"amount","type":"uint256"}],"name":"withdrawTo","outputs":[],"stateMutability":"nonpayable","type":"function"},{"inputs":[{"internalType":"address","name":"target","type":"address"},{"internalType":"uint256","name":"amount","type":"uint256"}],"name":"withdrawTokensTo","outputs":[],"stateMutability":"nonpayable","type":"function"}],"bytecode":"0x60a06040523480156200001157600080fd5b5060405162002c7f38038062002c7f833981016040819052620000349162000234565b83620000403362000130565b6001600160a01b03166080526200005662000180565b600180546001600160a01b038086166001600160a01b0319928316179092556002805492851692909116821790556040805163313ce56760e01b8152905163313ce567916004808201926020929091908290030181865afa158015620000c0573d6000803e3d6000fd5b505050506040513d601f19601f82011682018060405250810190620000e691906200029c565b6002805460ff92909216600160a01b0260ff60a01b19909216919091179055600380546001600160a01b039092166001600160a01b031990921691909117905550620002c8915050565b600080546001600160a01b038381166001600160a01b0319831681178455604051919092169283917f8be0079c531659141344cd1fd0a4f28419497f9722a3daafe3b4186f6b6457e09190a35050565b6200018e3360004362000190565b565b81620001b2576001600160a01b03831660009081526005602052604090208190555b604080516001600160a01b038516602082015280820191909152600760608201526639b837b739b7b960c91b6080820152819060059060009060a00160405160208183030381529060405280519060200120815260200190815260200160002081905550505050565b6001600160a01b03811681146200023157600080fd5b50565b600080600080608085870312156200024b57600080fd5b845162000258816200021b565b60208601519094506200026b816200021b565b60408601519093506200027e816200021b565b606086015190925062000291816200021b565b939692955090935050565b600060208284031215620002af57600080fd5b815160ff81168114620002c157600080fd5b9392505050565b6080516129636200031c60003960008181610709015281816108bf0152818161097201528181610a9d01528181610cd101528181610d9801528181610e2801528181610ee7015261163801526129636000f3fe6080604052600436106101e35760003560e01c80638da5cb5b11610102578063cd8f80c211610095578063e8db215d11610064578063e8db215d146107d2578063f2fde38b14610815578063f465c77e14610835578063f5bf3fcf1461086357600080fd5b8063cd8f80c214610775578063d0e30db01461078a578063d3eccaff14610792578063e6e61d1b146107b257600080fd5b8063b0d691fe116100d1578063b0d691fe146106f7578063bb9fe6bf1461072b578063c23a5cea14610740578063c399ec881461076057600080fd5b80638da5cb5b146106495780639d31b69d146106955780639ed0fb68146106c2578063a9a23409146106d757600080fd5b8063425bc1e91161017a57806370a23e331161014957806370a23e33146105de578063715018a6146105fe578063786be65d14610613578063796d43711461063357600080fd5b8063425bc1e91461047a5780634f16bbf314610551578063523fba7f14610571578063634459891461059e57600080fd5b80631c766d70116101b65780631c766d701461026a578063205c28781461032a57806335c293a91461034a57806340e15afe1461043f57600080fd5b80630396cb60146101e8578063107d5fdf146101fd57806315dab52e1461021257806318f9585714610257575b600080fd5b6101fb6101f63660046123ef565b610883565b005b34801561020957600080fd5b506101fb610935565b34801561021e57600080fd5b5061024261022d366004612415565b60046020526000908152604090205460ff1681565b60405190151581526020015b60405180910390f35b6101fb610265366004612450565b610944565b34801561027657600080fd5b506101fb61028536600461247b565b6040805173ffffffffffffffffffffffffffffffffffffffff8086166020830152841691810191909152600090606001604080518083037fffffffffffffffffffffffffffffffffffffffffffffffffffffffffffffffe0018152918152815160209283012060009081526004909252902080547fffffffffffffffffffffffffffffffffffffffffffffffffffffffffffffff001692151592909217909155505050565b34801561033657600080fd5b506101fb6103453660046124c6565b610a49565b34801561035657600080fd5b506101fb6103653660046124f2565b6040805133602082015273ffffffffffffffffffffffffffffffffffffffff841691810191909152606080820152600960808201527f626c61636b6c697374000000000000000000000000000000000000000000000060a0820152819060049060009060c001604080518083037fffffffffffffffffffffffffffffffffffffffffffffffffffffffffffffffe001815291815281516020928301208352908201929092520160002080547fffffffffffffffffffffffffffffffffffffffffffffffffffffffffffffff00169115159190911790555050565b34801561044b57600080fd5b5061046c61045a366004612415565b60056020526000908152604090205481565b60405190815260200161024e565b34801561048657600080fd5b506101fb61049536600461252b565b6040805133602082015280820191909152600960608201527f77686974656c69737400000000000000000000000000000000000000000000006080820152819060049060009060a001604080518083037fffffffffffffffffffffffffffffffffffffffffffffffffffffffffffffffe001815291815281516020928301208352908201929092520160002080547fffffffffffffffffffffffffffffffffffffffffffffffffffffffffffffff001691151591909117905550565b34801561055d57600080fd5b506101fb61056c3660046124c6565b610ae1565b34801561057d57600080fd5b5061046c61058c366004612450565b60066020526000908152604090205481565b3480156105aa57600080fd5b506105be6105b9366004612450565b610b6a565b60408051948552602085019390935291830152606082015260800161024e565b3480156105ea57600080fd5b5061046c6105f9366004612415565b610bbf565b34801561060a57600080fd5b506101fb610bd2565b34801561061f57600080fd5b5061046c61062e3660046124f2565b610be4565b34801561063f57600080fd5b5061046c6188b881565b34801561065557600080fd5b5060005473ffffffffffffffffffffffffffffffffffffffff165b60405173ffffffffffffffffffffffffffffffffffffffff909116815260200161024e565b3480156106a157600080fd5b5061046c6106b0366004612450565b60076020526000908152604090205481565b3480156106ce57600080fd5b506101fb610ca1565b3480156106e357600080fd5b506101fb6106f2366004612548565b610cad565b34801561070357600080fd5b506106707f000000000000000000000000000000000000000000000000000000000000000081565b34801561073757600080fd5b506101fb610cc7565b34801561074c57600080fd5b506101fb61075b366004612450565b610d4b565b34801561076c57600080fd5b5061046c610df7565b34801561078157600080fd5b506101fb610ead565b6101fb610eb9565b34801561079e57600080fd5b506101fb6107ad3660046124c6565b610f41565b3480156107be57600080fd5b506101fb6107cd366004612415565b6110ea565b3480156107de57600080fd5b5061046c6107ed366004612450565b73ffffffffffffffffffffffffffffffffffffffff1660009081526007602052604090205490565b34801561082157600080fd5b506101fb610830366004612450565b6110ff565b34801561084157600080fd5b506108556108503660046125d7565b6111b3565b60405161024e9291906126a1565b34801561086f57600080fd5b506101fb61087e3660046124c6565b6111d6565b61088b6112c7565b6040517f0396cb6000000000000000000000000000000000000000000000000000000000815263ffffffff821660048201527f000000000000000000000000000000000000000000000000000000000000000073ffffffffffffffffffffffffffffffffffffffff1690630396cb609034906024016000604051808303818588803b15801561091957600080fd5b505af115801561092d573d6000803e3d6000fd5b505050505050565b6109423360016000611348565b565b6040517fb760faf90000000000000000000000000000000000000000000000000000000081523060048201527f000000000000000000000000000000000000000000000000000000000000000073ffffffffffffffffffffffffffffffffffffffff169063b760faf99034906024016000604051808303818588803b1580156109cc57600080fd5b505af11580156109e0573d6000803e3d6000fd5b50505073ffffffffffffffffffffffffffffffffffffffff831660009081526007602052604081208054349450909250610a1b9084906126f2565b90915550503373ffffffffffffffffffffffffffffffffffffffff82161415610a4657610a46610935565b50565b610a516112c7565b6040517f205c287800000000000000000000000000000000000000000000000000000000815273ffffffffffffffffffffffffffffffffffffffff8381166004830152602482018390527f0000000000000000000000000000000000000000000000000000000000000000169063205c287890604401600060405180830381600087803b15801561091957600080fd5b600254610b069073ffffffffffffffffffffffffffffffffffffffff16333084611402565b73ffffffffffffffffffffffffffffffffffffffff821660009081526006602052604081208054839290610b3b9084906126f2565b90915550503373ffffffffffffffffffffffffffffffffffffffff83161415610b6657610b66610ead565b5050565b73ffffffffffffffffffffffffffffffffffffffff81166000908152600660209081526040808320546007909252822054909180610ba9856001610be4565b9150610bb6856000610be4565b90509193509193565b6000610bcc6000836114de565b92915050565b610bda6112c7565b61094260006115ab565b600081610c17575073ffffffffffffffffffffffffffffffffffffffff8216600090815260056020526040902054610bcc565b6040805173ffffffffffffffffffffffffffffffffffffffff8516602082015280820191909152600760608201527f73706f6e736f7200000000000000000000000000000000000000000000000000608082015260059060009060a00160405160208183030381529060405280519060200120815260200190815260200160002054905092915050565b61094233600043611348565b610cb5611620565b610cc184848484611662565b50505050565b610ccf6112c7565b7f000000000000000000000000000000000000000000000000000000000000000073ffffffffffffffffffffffffffffffffffffffff1663bb9fe6bf6040518163ffffffff1660e01b8152600401600060405180830381600087803b158015610d3757600080fd5b505af1158015610cc1573d6000803e3d6000fd5b610d536112c7565b6040517fc23a5cea00000000000000000000000000000000000000000000000000000000815273ffffffffffffffffffffffffffffffffffffffff82811660048301527f0000000000000000000000000000000000000000000000000000000000000000169063c23a5cea90602401600060405180830381600087803b158015610ddc57600080fd5b505af1158015610df0573d6000803e3d6000fd5b5050505050565b6040517f70a082310000000000000000000000000000000000000000000000000000000081523060048201526000907f000000000000000000000000000000000000000000000000000000000000000073ffffffffffffffffffffffffffffffffffffffff16906370a0823190602401602060405180830381865afa158015610e84573d6000803e3d6000fd5b505050506040513d601f19601f82011682018060405250810190610ea8919061270a565b905090565b61094233600080611348565b6040517fb760faf90000000000000000000000000000000000000000000000000000000081523060048201527f000000000000000000000000000000000000000000000000000000000000000073ffffffffffffffffffffffffffffffffffffffff169063b760faf99034906024016000604051808303818588803b158015610ddc57600080fd5b610f4c336001610be4565b4311610fdf576040517f08c379a000000000000000000000000000000000000000000000000000000000815260206004820152602760248201527f546f6b656e5061796d61737465723a206d75737420756e6c6f636b546f6b656e60448201527f4465706f7369740000000000000000000000000000000000000000000000000060648201526084015b60405180910390fd5b3360009081526007602052604090205481111561107e576040517f08c379a000000000000000000000000000000000000000000000000000000000815260206004820152602760248201527f546f6b656e5061796d61737465723a206d75737420756e6c6f636b546f6b656e60448201527f4465706f736974000000000000000000000000000000000000000000000000006064820152608401610fd6565b336000908152600760205260408120805483929061109d908490612723565b909155505060405173ffffffffffffffffffffffffffffffffffffffff83169082156108fc029083906000818181858888f193505050501580156110e5573d6000803e3d6000fd5b505050565b610a463360016110fa84436126f2565b611348565b6111076112c7565b73ffffffffffffffffffffffffffffffffffffffff81166111aa576040517f08c379a000000000000000000000000000000000000000000000000000000000815260206004820152602660248201527f4f776e61626c653a206e6577206f776e657220697320746865207a65726f206160448201527f64647265737300000000000000000000000000000000000000000000000000006064820152608401610fd6565b610a46816115ab565b606060006111bf611620565b6111ca858585611751565b91509150935093915050565b60006111e3336000610be4565b905080158015906111f357508043115b61127f576040517f08c379a000000000000000000000000000000000000000000000000000000000815260206004820152602760248201527f546f6b656e5061796d61737465723a206d75737420756e6c6f636b546f6b656e60448201527f4465706f736974000000000000000000000000000000000000000000000000006064820152608401610fd6565b336000908152600660205260408120805484929061129e908490612723565b90915550506002546110e59073ffffffffffffffffffffffffffffffffffffffff168484611c47565b60005473ffffffffffffffffffffffffffffffffffffffff163314610942576040517f08c379a000000000000000000000000000000000000000000000000000000000815260206004820181905260248201527f4f776e61626c653a2063616c6c6572206973206e6f7420746865206f776e65726044820152606401610fd6565b816113765773ffffffffffffffffffffffffffffffffffffffff831660009081526005602052604090208190555b6040805173ffffffffffffffffffffffffffffffffffffffff8516602082015280820191909152600760608201527f73706f6e736f72000000000000000000000000000000000000000000000000006080820152819060059060009060a00160405160208183030381529060405280519060200120815260200190815260200160002081905550505050565b60405173ffffffffffffffffffffffffffffffffffffffff80851660248301528316604482015260648101829052610cc19085907f23b872dd00000000000000000000000000000000000000000000000000000000906084015b604080517fffffffffffffffffffffffffffffffffffffffffffffffffffffffffffffffe08184030181529190526020810180517bffffffffffffffffffffffffffffffffffffffffffffffffffffffff167fffffffff0000000000000000000000000000000000000000000000000000000090931692909217909152611c9d565b6001546003546002546040517f6a2f491800000000000000000000000000000000000000000000000000000000815273ffffffffffffffffffffffffffffffffffffffff9283166004820152602481018590527401000000000000000000000000000000000000000090910460ff1660448201526000929190911690636a2f491890606401602060405180830381865afa158015611580573d6000803e3d6000fd5b505050506040513d601f19601f820116820180604052508101906115a4919061270a565b9392505050565b6000805473ffffffffffffffffffffffffffffffffffffffff8381167fffffffffffffffffffffffff0000000000000000000000000000000000000000831681178455604051919092169283917f8be0079c531659141344cd1fd0a4f28419497f9722a3daafe3b4186f6b6457e09190a35050565b3373ffffffffffffffffffffffffffffffffffffffff7f0000000000000000000000000000000000000000000000000000000000000000161461094257600080fd5b6000808080806116748789018961273a565b9450945094509450945060008183856188b8611690919061278b565b61169a908a6126f2565b6116a4919061278b565b6116ae91906127c8565b90506116ba8682611da9565b73ffffffffffffffffffffffffffffffffffffffff8516600090815260066020526040812080548392906116ef9084906126f2565b909155506117019050846188b861278b565b61170b90886126f2565b73ffffffffffffffffffffffffffffffffffffffff861660009081526007602052604081208054909190611740908490612723565b909155505050505050505050505050565b60606000611763610120860186612803565b90506028146117f4576040517f08c379a000000000000000000000000000000000000000000000000000000000815260206004820152603560248201527f546f6b656e5061796d61737465723a207061796d6173746572416e644461746160448201527f206d75737420737065636966792073706f6e736f7200000000000000000000006064820152608401610fd6565b6188b88560a0013511611889576040517f08c379a000000000000000000000000000000000000000000000000000000000815260206004820152602660248201527f546f6b656e5061796d61737465723a2067617320746f6f206c6f7720666f722060448201527f706f73744f7000000000000000000000000000000000000000000000000000006064820152608401610fd6565b36600061189a610120880188612803565b909250905060006118ae826014818661286f565b6118b791612899565b60601c905060006118c9826001610be4565b90508015806118d757504381115b61193d576040517f08c379a000000000000000000000000000000000000000000000000000000000815260206004820152601c60248201527f546f6b656e5061796d61737465723a205374616b65204c6f636b6564000000006044820152606401610fd6565b8835600061194b8282610be4565b905080158061195957504381115b6119e5576040517f08c379a000000000000000000000000000000000000000000000000000000000815260206004820152602260248201527f546f6b656e5061796d61737465723a206465706f736974206e6f74206c6f636b60448201527f65640000000000000000000000000000000000000000000000000000000000006064820152608401610fd6565b73ffffffffffffffffffffffffffffffffffffffff8416600090815260076020526040902054891115611a9a576040517f08c379a000000000000000000000000000000000000000000000000000000000815260206004820152602c60248201527f546f6b656e5061796d61737465723a20646f6573206e6f74206861766520656e60448201527f6f75676820746f2066756e6400000000000000000000000000000000000000006064820152608401610fd6565b611aa48483611eaa565b611b30576040517f08c379a000000000000000000000000000000000000000000000000000000000815260206004820152603360248201527f546f6b656e5061796d61737465723a20686173206e6f74206f7220646f65732060448201527f6e6f7420617070726f7665207370656e646572000000000000000000000000006064820152608401610fd6565b6000611b3b8a610bbf565b9050611b478382612052565b80611b77575073ffffffffffffffffffffffffffffffffffffffff83166000908152600660205260409020548111155b611bdd576040517f08c379a000000000000000000000000000000000000000000000000000000000815260206004820181905260248201527f546f6b656e5061796d61737465723a20757365722063616e206e6f74207061796044820152606401610fd6565b6000611be88d6121a5565b6040805173ffffffffffffffffffffffffffffffffffffffff9687166020820152979095168786015260608701525060808501525060a0808401989098528051808403909801885260c090920190915250939660009650945050505050565b60405173ffffffffffffffffffffffffffffffffffffffff83166024820152604481018290526110e59084907fa9059cbb000000000000000000000000000000000000000000000000000000009060640161145c565b6000611cff826040518060400160405280602081526020017f5361666545524332303a206c6f772d6c6576656c2063616c6c206661696c65648152508573ffffffffffffffffffffffffffffffffffffffff166121d59092919063ffffffff16565b8051909150156110e55780806020019051810190611d1d91906128e1565b6110e5576040517f08c379a000000000000000000000000000000000000000000000000000000000815260206004820152602a60248201527f5361666545524332303a204552433230206f7065726174696f6e20646964206e60448201527f6f742073756363656564000000000000000000000000000000000000000000006064820152608401610fd6565b611db38282612052565b15611ddd57600254610b669073ffffffffffffffffffffffffffffffffffffffff16833084611402565b73ffffffffffffffffffffffffffffffffffffffff8216600090815260066020526040902054811115611e6c576040517f08c379a000000000000000000000000000000000000000000000000000000000815260206004820152601460248201527f446f6573206e6f74206861766520746f6b656e730000000000000000000000006044820152606401610fd6565b73ffffffffffffffffffffffffffffffffffffffff821660009081526006602052604081208054839290611ea1908490612723565b90915550505050565b6040805173ffffffffffffffffffffffffffffffffffffffff8416602080830191909152818301839052600960608301527f77686974656c69737400000000000000000000000000000000000000000000006080808401919091528351808403909101815260a09092018352815191810191909120600090815260049091529081205460ff168015611fca5750506040805173ffffffffffffffffffffffffffffffffffffffff84811660208084019190915290841682840152606080830152600960808301527f626c61636b6c697374000000000000000000000000000000000000000000000060a0808401919091528351808403909101815260c0909201835281519181019190912060009081526004909152205460ff1615610bcc565b60046000858560405160200161200392919073ffffffffffffffffffffffffffffffffffffffff92831681529116602082015260400190565b604080518083037fffffffffffffffffffffffffffffffffffffffffffffffffffffffffffffffe00181529181528151602092830120835290820192909252016000205460ff16949350505050565b6002546040517fdd62ed3e00000000000000000000000000000000000000000000000000000000815273ffffffffffffffffffffffffffffffffffffffff8481166004830152306024830152600092839291169063dd62ed3e90604401602060405180830381865afa1580156120cc573d6000803e3d6000fd5b505050506040513d601f19601f820116820180604052508101906120f0919061270a565b6002546040517f70a0823100000000000000000000000000000000000000000000000000000000815273ffffffffffffffffffffffffffffffffffffffff8781166004830152929350600092909116906370a0823190602401602060405180830381865afa158015612166573d6000803e3d6000fd5b505050506040513d601f19601f8201168201806040525081019061218a919061270a565b905083811015801561219c5750838210155b95945050505050565b600060e0820135610100830135808214156121c1575092915050565b6121cd824883016121e4565b949350505050565b60606121cd84846000856121fa565b60008183106121f357816115a4565b5090919050565b60608247101561228c576040517f08c379a000000000000000000000000000000000000000000000000000000000815260206004820152602660248201527f416464726573733a20696e73756666696369656e742062616c616e636520666f60448201527f722063616c6c00000000000000000000000000000000000000000000000000006064820152608401610fd6565b6000808673ffffffffffffffffffffffffffffffffffffffff1685876040516122b591906128fe565b60006040518083038185875af1925050503d80600081146122f2576040519150601f19603f3d011682016040523d82523d6000602084013e6122f7565b606091505b509150915061230887838387612313565b979650505050505050565b606083156123a657825161239f5773ffffffffffffffffffffffffffffffffffffffff85163b61239f576040517f08c379a000000000000000000000000000000000000000000000000000000000815260206004820152601d60248201527f416464726573733a2063616c6c20746f206e6f6e2d636f6e74726163740000006044820152606401610fd6565b50816121cd565b6121cd83838151156123bb5781518083602001fd5b806040517f08c379a0000000000000000000000000000000000000000000000000000000008152600401610fd6919061291a565b60006020828403121561240157600080fd5b813563ffffffff811681146115a457600080fd5b60006020828403121561242757600080fd5b5035919050565b73ffffffffffffffffffffffffffffffffffffffff81168114610a4657600080fd5b60006020828403121561246257600080fd5b81356115a48161242e565b8015158114610a4657600080fd5b60008060006060848603121561249057600080fd5b833561249b8161242e565b925060208401356124ab8161242e565b915060408401356124bb8161246d565b809150509250925092565b600080604083850312156124d957600080fd5b82356124e48161242e565b946020939093013593505050565b6000806040838503121561250557600080fd5b82356125108161242e565b915060208301356125208161246d565b809150509250929050565b60006020828403121561253d57600080fd5b81356115a48161246d565b6000806000806060858703121561255e57600080fd5b84356003811061256d57600080fd5b9350602085013567ffffffffffffffff8082111561258a57600080fd5b818701915087601f83011261259e57600080fd5b8135818111156125ad57600080fd5b8860208285010111156125bf57600080fd5b95986020929092019750949560400135945092505050565b6000806000606084860312156125ec57600080fd5b833567ffffffffffffffff81111561260357600080fd5b8401610160818703121561261657600080fd5b95602085013595506040909401359392505050565b60005b8381101561264657818101518382015260200161262e565b83811115610cc15750506000910152565b6000815180845261266f81602086016020860161262b565b601f017fffffffffffffffffffffffffffffffffffffffffffffffffffffffffffffffe0169290920160200192915050565b6040815260006126b46040830185612657565b90508260208301529392505050565b7f4e487b7100000000000000000000000000000000000000000000000000000000600052601160045260246000fd5b60008219821115612705576127056126c3565b500190565b60006020828403121561271c57600080fd5b5051919050565b600082821015612735576127356126c3565b500390565b600080600080600060a0868803121561275257600080fd5b853561275d8161242e565b9450602086013561276d8161242e565b94979496505050506040830135926060810135926080909101359150565b6000817fffffffffffffffffffffffffffffffffffffffffffffffffffffffffffffffff04831182151516156127c3576127c36126c3565b500290565b6000826127fe577f4e487b7100000000000000000000000000000000000000000000000000000000600052601260045260246000fd5b500490565b60008083357fffffffffffffffffffffffffffffffffffffffffffffffffffffffffffffffe184360301811261283857600080fd5b83018035915067ffffffffffffffff82111561285357600080fd5b60200191503681900382131561286857600080fd5b9250929050565b6000808585111561287f57600080fd5b8386111561288c57600080fd5b5050820193919092039150565b7fffffffffffffffffffffffffffffffffffffffff00000000000000000000000081358181169160148510156128d95780818660140360031b1b83161692505b505092915050565b6000602082840312156128f357600080fd5b81516115a48161246d565b6000825161291081846020870161262b565b9190910192915050565b6020815260006115a4602083018461265756fea2646970667358221220bc02e278e48ddcfd20e46ea88a086f5a92eeea95e7014826dc569c8930433a3264736f6c634300080c0033","linkReferences":{},"deployedLinkReferences":{},"fileHash":"246eb118373cc1caff28bd65e98fea7677e2b18ce9f5309ab8d75bd77e97d2fe"}