{"_format":"hh-sol-artifact-1","contractName":"TokenPaymaster","sourceName":"contracts/paymaster/TokenPaymaster.sol","abi":[{"inputs":[{"internalType":"contract IEntryPoint","name":"_entryPoint","type":"address"},{"internalType":"contract ITokenPriceOracle","name":"_tokenPriceOracle","type":"address"},{"internalType":"contract IERC20","name":"_token","type":"address"},{"internalType":"contract AggregatorV3Interface","name":"_aggregator","type":"address"}],"stateMutability":"nonpayable","type":"constructor"},{"anonymous":false,"inputs":[{"indexed":true,"internalType":"address","name":"previousOwner","type":"address"},{"indexed":true,"internalType":"address","name":"newOwner","type":"address"}],"name":"OwnershipTransferred","type":"event"},{"inputs":[],"name":"COST_OF_POST","outputs":[{"internalType":"uint256","name":"","type":"uint256"}],"stateMutability":"view","type":"function"},{"inputs":[{"internalType":"address","name":"sponsor","type":"address"},{"internalType":"uint256","name":"amount","type":"uint256"}],"name":"addEthDepositForSponsor","outputs":[],"stateMutability":"payable","type":"function"},{"inputs":[{"internalType":"uint32","name":"unstakeDelaySec","type":"uint32"}],"name":"addStake","outputs":[],"stateMutability":"payable","type":"function"},{"inputs":[{"internalType":"address","name":"account","type":"address"},{"internalType":"uint256","name":"amount","type":"uint256"}],"name":"addTokenDepositTo","outputs":[],"stateMutability":"payable","type":"function"},{"inputs":[{"internalType":"bytes[]","name":"data","type":"bytes[]"}],"name":"batchActions","outputs":[],"stateMutability":"nonpayable","type":"function"},{"inputs":[],"name":"deposit","outputs":[],"stateMutability":"payable","type":"function"},{"inputs":[{"internalType":"address","name":"account","type":"address"}],"name":"depositInfo","outputs":[{"internalType":"uint256","name":"tokenAmount","type":"uint256"},{"internalType":"uint256","name":"sponsorAmount","type":"uint256"},{"internalType":"uint256","name":"_unlockBlockSponsor","type":"uint256"},{"internalType":"uint256","name":"_unlockBlockAccount","type":"uint256"}],"stateMutability":"view","type":"function"},{"inputs":[],"name":"entryPoint","outputs":[{"internalType":"contract IEntryPoint","name":"","type":"address"}],"stateMutability":"view","type":"function"},{"inputs":[],"name":"getDeposit","outputs":[{"internalType":"uint256","name":"","type":"uint256"}],"stateMutability":"view","type":"function"},{"inputs":[{"internalType":"address","name":"sponsor","type":"address"}],"name":"getEthDepositInfoForSponsor","outputs":[{"internalType":"uint256","name":"","type":"uint256"}],"stateMutability":"view","type":"function"},{"inputs":[],"name":"getToken","outputs":[{"internalType":"address","name":"","type":"address"}],"stateMutability":"view","type":"function"},{"inputs":[{"internalType":"address","name":"account","type":"address"},{"internalType":"bool","name":"sponsorMode","type":"bool"}],"name":"getUnlockBlockWithSponsor","outputs":[{"internalType":"uint256","name":"","type":"uint256"}],"stateMutability":"view","type":"function"},{"inputs":[],"name":"lockTokenDeposit","outputs":[],"stateMutability":"payable","type":"function"},{"inputs":[],"name":"owner","outputs":[{"internalType":"address","name":"","type":"address"}],"stateMutability":"view","type":"function"},{"inputs":[{"internalType":"enum IPaymaster.PostOpMode","name":"mode","type":"uint8"},{"internalType":"bytes","name":"context","type":"bytes"},{"internalType":"uint256","name":"actualGasCost","type":"uint256"}],"name":"postOp","outputs":[],"stateMutability":"nonpayable","type":"function"},{"inputs":[],"name":"renounceOwnership","outputs":[],"stateMutability":"nonpayable","type":"function"},{"inputs":[{"internalType":"address","name":"spender","type":"address"},{"internalType":"bool","name":"mode","type":"bool"}],"name":"setSpenderToBlackListMode","outputs":[],"stateMutability":"payable","type":"function"},{"inputs":[{"internalType":"address","name":"spender","type":"address"},{"internalType":"bool","name":"isWhiteListed","type":"bool"}],"name":"setSponsorApproval","outputs":[],"stateMutability":"payable","type":"function"},{"inputs":[{"internalType":"bool","name":"mode","type":"bool"}],"name":"setWhitelistMode","outputs":[],"stateMutability":"payable","type":"function"},{"inputs":[{"internalType":"bytes32","name":"","type":"bytes32"}],"name":"sponsorApprovals","outputs":[{"internalType":"bool","name":"","type":"bool"}],"stateMutability":"view","type":"function"},{"inputs":[{"internalType":"address","name":"","type":"address"}],"name":"sponsorBalances","outputs":[{"internalType":"uint256","name":"","type":"uint256"}],"stateMutability":"view","type":"function"},{"inputs":[{"internalType":"address","name":"","type":"address"}],"name":"tokenBalances","outputs":[{"internalType":"uint256","name":"","type":"uint256"}],"stateMutability":"view","type":"function"},{"inputs":[{"internalType":"address","name":"newOwner","type":"address"}],"name":"transferOwnership","outputs":[],"stateMutability":"nonpayable","type":"function"},{"inputs":[{"internalType":"bytes32","name":"","type":"bytes32"}],"name":"unlockBlock","outputs":[{"internalType":"uint256","name":"","type":"uint256"}],"stateMutability":"view","type":"function"},{"inputs":[{"internalType":"uint256","name":"blockNum","type":"uint256"}],"name":"unlockSponsorEntrypointStakeAfter","outputs":[],"stateMutability":"payable","type":"function"},{"inputs":[],"name":"unlockStake","outputs":[],"stateMutability":"nonpayable","type":"function"},{"inputs":[],"name":"unlockTokenDeposit","outputs":[],"stateMutability":"payable","type":"function"},{"inputs":[{"components":[{"internalType":"address","name":"sender","type":"address"},{"internalType":"uint256","name":"nonce","type":"uint256"},{"internalType":"bytes","name":"initCode","type":"bytes"},{"internalType":"bytes","name":"callData","type":"bytes"},{"internalType":"uint256","name":"callGasLimit","type":"uint256"},{"internalType":"uint256","name":"verificationGasLimit","type":"uint256"},{"internalType":"uint256","name":"preVerificationGas","type":"uint256"},{"internalType":"uint256","name":"maxFeePerGas","type":"uint256"},{"internalType":"uint256","name":"maxPriorityFeePerGas","type":"uint256"},{"internalType":"bytes","name":"paymasterAndData","type":"bytes"},{"internalType":"bytes","name":"signature","type":"bytes"}],"internalType":"struct UserOperation","name":"userOp","type":"tuple"},{"internalType":"bytes32","name":"userOpHash","type":"bytes32"},{"internalType":"uint256","name":"maxCost","type":"uint256"}],"name":"validatePaymasterUserOp","outputs":[{"internalType":"bytes","name":"context","type":"bytes"},{"internalType":"uint256","name":"sigTimeRange","type":"uint256"}],"stateMutability":"nonpayable","type":"function"},{"inputs":[{"internalType":"address","name":"target","type":"address"},{"internalType":"uint256","name":"amount","type":"uint256"}],"name":"withdrawEthDepositTo","outputs":[],"stateMutability":"payable","type":"function"},{"inputs":[{"internalType":"address payable","name":"withdrawAddress","type":"address"}],"name":"withdrawStake","outputs":[],"stateMutability":"nonpayable","type":"function"},{"inputs":[{"internalType":"address payable","name":"withdrawAddress","type":"address"},{"internalType":"uint256","name":"amount","type":"uint256"}],"name":"withdrawTo","outputs":[],"stateMutability":"nonpayable","type":"function"},{"inputs":[{"internalType":"address","name":"target","type":"address"},{"internalType":"uint256","name":"amount","type":"uint256"}],"name":"withdrawTokenDepositTo","outputs":[],"stateMutability":"payable","type":"function"},{"stateMutability":"payable","type":"receive"}],"bytecode":"0x60a06040523480156200001157600080fd5b5060405162002e5338038062002e5383398101604081905262000034916200023f565b83620000403362000130565b6001600160a01b03166080526200005662000180565b600180546001600160a01b038086166001600160a01b0319928316179092556002805492851692909116821790556040805163313ce56760e01b8152905163313ce567916004808201926020929091908290030181865afa158015620000c0573d6000803e3d6000fd5b505050506040513d601f19601f82011682018060405250810190620000e69190620002a7565b6002805460ff92909216600160a01b0260ff60a01b19909216919091179055600380546001600160a01b039092166001600160a01b031990921691909117905550620002d3915050565b600080546001600160a01b038381166001600160a01b0319831681178455604051919092169283917f8be0079c531659141344cd1fd0a4f28419497f9722a3daafe3b4186f6b6457e09190a35050565b6200018b336200018d565b565b6200019b816000436200019e565b50565b81620001c0576001600160a01b03831660009081526005602052604090208190555b604080516001600160a01b038516602082015280820191909152600760608201526639b837b739b7b960c91b6080820152819060059060009060a00160405160208183030381529060405280519060200120815260200190815260200160002081905550505050565b6001600160a01b03811681146200019b57600080fd5b600080600080608085870312156200025657600080fd5b8451620002638162000229565b6020860151909450620002768162000229565b6040860151909350620002898162000229565b60608601519092506200029c8162000229565b939692955090935050565b600060208284031215620002ba57600080fd5b815160ff81168114620002cc57600080fd5b9392505050565b608051612b256200032e6000396000818161021a0152818161058501528181610707015281816107d101528181610ac601528181610b8d01528181610c1d01528181610cd9015281816111a701526113a60152612b256000f3fe6080604052600436106101e75760003560e01c80638da5cb5b11610102578063cd8f80c211610095578063e6e61d1b11610064578063e6e61d1b14610627578063e8db215d1461063a578063f2fde38b1461067d578063f465c77e1461069d57600080fd5b8063cd8f80c2146105f1578063d0e30db0146105f9578063d3eccaff14610601578063e4467d9c1461061457600080fd5b8063b0d691fe116100d1578063b0d691fe14610573578063bb9fe6bf146105a7578063c23a5cea146105bc578063c399ec88146105dc57600080fd5b80638da5cb5b146104f35780639d31b69d1461051e5780639ed0fb681461054b578063a9a234091461055357600080fd5b8063523fba7f1161017a578063728c5a3b11610149578063728c5a3b1461048a578063786be65d146104aa578063796d4371146104ca578063876e132b146104e057600080fd5b8063523fba7f146103f557806355135b9f146104225780636344598914610435578063715018a61461047557600080fd5b806335c293a9116101b657806335c293a91461038157806340e15afe14610394578063425bc1e9146103cf5780634f4400c6146103e257600080fd5b80630396cb60146102bb57806315dab52e146102d0578063205c28781461031557806321df0da71461033557600080fd5b366102b6576040517fb760faf90000000000000000000000000000000000000000000000000000000081523060048201527f000000000000000000000000000000000000000000000000000000000000000073ffffffffffffffffffffffffffffffffffffffff169063b760faf99034906024016000604051808303818588803b15801561027457600080fd5b505af1158015610288573d6000803e3d6000fd5b505033600090815260076020526040812080543495509093509091506102af908490612577565b9091555050005b600080fd5b6102ce6102c936600461258f565b6106cb565b005b3480156102dc57600080fd5b506103006102eb3660046125b5565b60046020526000908152604090205460ff1681565b60405190151581526020015b60405180910390f35b34801561032157600080fd5b506102ce6103303660046125f0565b61077d565b34801561034157600080fd5b5060025473ffffffffffffffffffffffffffffffffffffffff165b60405173ffffffffffffffffffffffffffffffffffffffff909116815260200161030c565b6102ce61038f36600461262a565b610815565b3480156103a057600080fd5b506103c16103af3660046125b5565b60056020526000908152604090205481565b60405190815260200161030c565b6102ce6103dd366004612663565b610824565b6102ce6103f03660046125f0565b610831565b34801561040157600080fd5b506103c1610410366004612680565b60066020526000908152604090205481565b6102ce6104303660046125f0565b61083c565b34801561044157600080fd5b50610455610450366004612680565b610847565b60408051948552602085019390935291830152606082015260800161030c565b34801561048157600080fd5b506102ce61089c565b34801561049657600080fd5b506102ce6104a536600461269d565b6108b0565b3480156104b657600080fd5b506103c16104c536600461262a565b6109d6565b3480156104d657600080fd5b506103c16188b881565b6102ce6104ee3660046125f0565b610a94565b3480156104ff57600080fd5b5060005473ffffffffffffffffffffffffffffffffffffffff1661035c565b34801561052a57600080fd5b506103c1610539366004612680565b60076020526000908152604090205481565b6102ce610a9f565b34801561055f57600080fd5b506102ce61056e366004612712565b610aa8565b34801561057f57600080fd5b5061035c7f000000000000000000000000000000000000000000000000000000000000000081565b3480156105b357600080fd5b506102ce610abc565b3480156105c857600080fd5b506102ce6105d7366004612680565b610b40565b3480156105e857600080fd5b506103c1610bec565b6102ce610ca2565b6102ce610cab565b6102ce61060f3660046125f0565b610d33565b6102ce61062236600461262a565b610d3e565b6102ce6106353660046125b5565b610d49565b34801561064657600080fd5b506103c1610655366004612680565b73ffffffffffffffffffffffffffffffffffffffff1660009081526007602052604090205490565b34801561068957600080fd5b506102ce610698366004612680565b610d53565b3480156106a957600080fd5b506106bd6106b83660046127a1565b610e07565b60405161030c92919061286b565b6106d3610e2a565b6040517f0396cb6000000000000000000000000000000000000000000000000000000000815263ffffffff821660048201527f000000000000000000000000000000000000000000000000000000000000000073ffffffffffffffffffffffffffffffffffffffff1690630396cb609034906024016000604051808303818588803b15801561076157600080fd5b505af1158015610775573d6000803e3d6000fd5b505050505050565b610785610e2a565b6040517f205c287800000000000000000000000000000000000000000000000000000000815273ffffffffffffffffffffffffffffffffffffffff8381166004830152602482018390527f0000000000000000000000000000000000000000000000000000000000000000169063205c287890604401600060405180830381600087803b15801561076157600080fd5b610820338383610eab565b5050565b61082e3382610efc565b50565b610820338383610fbd565b610820333484611179565b73ffffffffffffffffffffffffffffffffffffffff811660009081526006602090815260408083205460079092528220549091806108868560016109d6565b91506108938560006109d6565b90509193509193565b6108a4610e2a565b6108ae6000611284565b565b6000805b828110156109d0576000308585848181106108d1576108d161288d565b90506020028101906108e391906128bc565b6040516108f1929190612928565b600060405180830381855af49150503d806000811461092c576040519150601f19603f3d011682016040523d82523d6000602084013e610931565b606091505b50509050806109c7576040517f08c379a000000000000000000000000000000000000000000000000000000000815260206004820152603360248201527f546f6b656e5061796d61737465723a20696e7465726e616c206261746368656460448201527f207472616e73616374696f6e206661696c65640000000000000000000000000060648201526084015b60405180910390fd5b506001016108b4565b50505050565b600081610a09575073ffffffffffffffffffffffffffffffffffffffff8216600090815260056020526040902054610a8e565b6040805173ffffffffffffffffffffffffffffffffffffffff8516602082015280820191909152600760608201527f73706f6e736f7200000000000000000000000000000000000000000000000000608082015260059060009060a0016040516020818303038152906040528051906020012081526020019081526020016000205490505b92915050565b6108203383836112f9565b6108ae33611382565b610ab061138e565b6109d0848484846113d0565b610ac4610e2a565b7f000000000000000000000000000000000000000000000000000000000000000073ffffffffffffffffffffffffffffffffffffffff1663bb9fe6bf6040518163ffffffff1660e01b8152600401600060405180830381600087803b158015610b2c57600080fd5b505af11580156109d0573d6000803e3d6000fd5b610b48610e2a565b6040517fc23a5cea00000000000000000000000000000000000000000000000000000000815273ffffffffffffffffffffffffffffffffffffffff82811660048301527f0000000000000000000000000000000000000000000000000000000000000000169063c23a5cea90602401600060405180830381600087803b158015610bd157600080fd5b505af1158015610be5573d6000803e3d6000fd5b5050505050565b6040517f70a082310000000000000000000000000000000000000000000000000000000081523060048201526000907f000000000000000000000000000000000000000000000000000000000000000073ffffffffffffffffffffffffffffffffffffffff16906370a0823190602401602060405180830381865afa158015610c79573d6000803e3d6000fd5b505050506040513d601f19601f82011682018060405250810190610c9d9190612938565b905090565b6108ae336114bf565b6040517fb760faf90000000000000000000000000000000000000000000000000000000081523060048201527f000000000000000000000000000000000000000000000000000000000000000073ffffffffffffffffffffffffffffffffffffffff169063b760faf99034906024016000604051808303818588803b158015610bd157600080fd5b6108203383836114cb565b610820338383611696565b61082e33826116a5565b610d5b610e2a565b73ffffffffffffffffffffffffffffffffffffffff8116610dfe576040517f08c379a000000000000000000000000000000000000000000000000000000000815260206004820152602660248201527f4f776e61626c653a206e6577206f776e657220697320746865207a65726f206160448201527f646472657373000000000000000000000000000000000000000000000000000060648201526084016109be565b61082e81611284565b60606000610e1361138e565b610e1e8585856116ba565b91509150935093915050565b60005473ffffffffffffffffffffffffffffffffffffffff1633146108ae576040517f08c379a000000000000000000000000000000000000000000000000000000000815260206004820181905260248201527f4f776e61626c653a2063616c6c6572206973206e6f7420746865206f776e657260448201526064016109be565b8060046000610eba8686611bb2565b8152602081019190915260400160002080547fffffffffffffffffffffffffffffffffffffffffffffffffffffffffffffff0016911515919091179055505050565b8060046000610f7c856040805173ffffffffffffffffffffffffffffffffffffffff8316602082015280820191909152600960608201527f77686974656c6973740000000000000000000000000000000000000000000000608082015260009060a001604051602081830303815290604052805190602001209050919050565b8152602081019190915260400160002080547fffffffffffffffffffffffffffffffffffffffffffffffffffffffffffffff00169115159190911790555050565b6000610fca8460006109d6565b90508015801590610fda57508043115b611066576040517f08c379a000000000000000000000000000000000000000000000000000000000815260206004820152602760248201527f546f6b656e5061796d61737465723a206d75737420756e6c6f636b546f6b656e60448201527f4465706f7369740000000000000000000000000000000000000000000000000060648201526084016109be565b73ffffffffffffffffffffffffffffffffffffffff841660009081526006602052604090205482111561111b576040517f08c379a000000000000000000000000000000000000000000000000000000000815260206004820152602a60248201527f546f6b656e5061796d61737465723a20646f6573206e6f74206861766520656e60448201527f6f7567682066756e64730000000000000000000000000000000000000000000060648201526084016109be565b73ffffffffffffffffffffffffffffffffffffffff841660009081526006602052604081208054849290611150908490612951565b90915550506002546109d09073ffffffffffffffffffffffffffffffffffffffff168484611c34565b6040517fb760faf90000000000000000000000000000000000000000000000000000000081523060048201527f000000000000000000000000000000000000000000000000000000000000000073ffffffffffffffffffffffffffffffffffffffff169063b760faf99084906024016000604051808303818588803b15801561120157600080fd5b505af1158015611215573d6000803e3d6000fd5b50505073ffffffffffffffffffffffffffffffffffffffff831660009081526007602052604081208054869450909250611250908490612577565b909155505073ffffffffffffffffffffffffffffffffffffffff838116908216141561127f5761127f83611d08565b505050565b6000805473ffffffffffffffffffffffffffffffffffffffff8381167fffffffffffffffffffffffff0000000000000000000000000000000000000000831681178455604051919092169283917f8be0079c531659141344cd1fd0a4f28419497f9722a3daafe3b4186f6b6457e09190a35050565b60025461131e9073ffffffffffffffffffffffffffffffffffffffff16843084611d15565b73ffffffffffffffffffffffffffffffffffffffff821660009081526006602052604081208054839290611353908490612577565b909155505073ffffffffffffffffffffffffffffffffffffffff838116908316141561127f5761127f836114bf565b61082e81600043611d73565b3373ffffffffffffffffffffffffffffffffffffffff7f000000000000000000000000000000000000000000000000000000000000000016146108ae57600080fd5b6000808080806113e287890189612968565b9450945094509450945060008183856188b86113fe91906129b9565b611408908a612577565b61141291906129b9565b61141c91906129f6565b90506114288682611e2d565b73ffffffffffffffffffffffffffffffffffffffff85166000908152600660205260408120805483929061145d908490612577565b9091555061146f9050846188b86129b9565b6114799088612577565b73ffffffffffffffffffffffffffffffffffffffff8616600090815260076020526040812080549091906114ae908490612951565b909155505050505050505050505050565b61082e81600080611d73565b6114d68360016109d6565b4311611564576040517f08c379a000000000000000000000000000000000000000000000000000000000815260206004820152602760248201527f546f6b656e5061796d61737465723a206d75737420756e6c6f636b546f6b656e60448201527f4465706f7369740000000000000000000000000000000000000000000000000060648201526084016109be565b73ffffffffffffffffffffffffffffffffffffffff8316600090815260076020526040902054811115611619576040517f08c379a000000000000000000000000000000000000000000000000000000000815260206004820152602760248201527f546f6b656e5061796d61737465723a206d75737420756e6c6f636b546f6b656e60448201527f4465706f7369740000000000000000000000000000000000000000000000000060648201526084016109be565b73ffffffffffffffffffffffffffffffffffffffff83166000908152600760205260408120805483929061164e908490612951565b909155505060405173ffffffffffffffffffffffffffffffffffffffff83169082156108fc029083906000818181858888f193505050501580156109d0573d6000803e3d6000fd5b8060046000610eba8686611f2e565b6108208260016116b58443612577565b611d73565b606060006116cc6101208601866128bc565b905060281461175d576040517f08c379a000000000000000000000000000000000000000000000000000000000815260206004820152603560248201527f546f6b656e5061796d61737465723a207061796d6173746572416e644461746160448201527f206d75737420737065636966792073706f6e736f72000000000000000000000060648201526084016109be565b6188b88560a00135116117f2576040517f08c379a000000000000000000000000000000000000000000000000000000000815260206004820152602660248201527f546f6b656e5061796d61737465723a2067617320746f6f206c6f7720666f722060448201527f706f73744f70000000000000000000000000000000000000000000000000000060648201526084016109be565b3660006118036101208801886128bc565b909250905060006118178260148186612a31565b61182091612a5b565b60601c905060006118328260016109d6565b905080158061184057504381115b6118a6576040517f08c379a000000000000000000000000000000000000000000000000000000000815260206004820152601c60248201527f546f6b656e5061796d61737465723a205374616b65204c6f636b65640000000060448201526064016109be565b883560006118b482826109d6565b90508015806118c257504381115b61194e576040517f08c379a000000000000000000000000000000000000000000000000000000000815260206004820152602260248201527f546f6b656e5061796d61737465723a206465706f736974206e6f74206c6f636b60448201527f656400000000000000000000000000000000000000000000000000000000000060648201526084016109be565b73ffffffffffffffffffffffffffffffffffffffff8416600090815260076020526040902054891115611a03576040517f08c379a000000000000000000000000000000000000000000000000000000000815260206004820152602c60248201527f546f6b656e5061796d61737465723a20646f6573206e6f74206861766520656e60448201527f6f75676820746f2066756e64000000000000000000000000000000000000000060648201526084016109be565b611a0d8483611f63565b611a99576040517f08c379a000000000000000000000000000000000000000000000000000000000815260206004820152603360248201527f546f6b656e5061796d61737465723a20686173206e6f74206f7220646f65732060448201527f6e6f7420617070726f7665207370656e6465720000000000000000000000000060648201526084016109be565b6000611aa660008b61203c565b9050611ab28382612109565b80611ae2575073ffffffffffffffffffffffffffffffffffffffff83166000908152600660205260409020548111155b611b48576040517f08c379a000000000000000000000000000000000000000000000000000000000815260206004820181905260248201527f546f6b656e5061796d61737465723a20757365722063616e206e6f742070617960448201526064016109be565b6000611b538d61225c565b6040805173ffffffffffffffffffffffffffffffffffffffff9687166020820152979095168786015260608701525060808501525060a0808401989098528051808403909801885260c090920190915250939660009650945050505050565b6040805173ffffffffffffffffffffffffffffffffffffffff8085166020830152831691810191909152606080820152600960808201527f626c61636b6c697374000000000000000000000000000000000000000000000060a082015260009060c0015b60405160208183030381529060405280519060200120905092915050565b60405173ffffffffffffffffffffffffffffffffffffffff831660248201526044810182905261127f9084907fa9059cbb00000000000000000000000000000000000000000000000000000000906064015b604080517fffffffffffffffffffffffffffffffffffffffffffffffffffffffffffffffe08184030181529190526020810180517bffffffffffffffffffffffffffffffffffffffffffffffffffffffff167fffffffff000000000000000000000000000000000000000000000000000000009093169290921790915261228c565b61082e8160016000611d73565b60405173ffffffffffffffffffffffffffffffffffffffff808516602483015283166044820152606481018290526109d09085907f23b872dd0000000000000000000000000000000000000000000000000000000090608401611c86565b81611da15773ffffffffffffffffffffffffffffffffffffffff831660009081526005602052604090208190555b6040805173ffffffffffffffffffffffffffffffffffffffff8516602082015280820191909152600760608201527f73706f6e736f72000000000000000000000000000000000000000000000000006080820152819060059060009060a00160405160208183030381529060405280519060200120815260200190815260200160002081905550505050565b611e378282612109565b15611e61576002546108209073ffffffffffffffffffffffffffffffffffffffff16833084611d15565b73ffffffffffffffffffffffffffffffffffffffff8216600090815260066020526040902054811115611ef0576040517f08c379a000000000000000000000000000000000000000000000000000000000815260206004820152601460248201527f446f6573206e6f74206861766520746f6b656e7300000000000000000000000060448201526064016109be565b73ffffffffffffffffffffffffffffffffffffffff821660009081526006602052604081208054839290611f25908490612951565b90915550505050565b6040805173ffffffffffffffffffffffffffffffffffffffff8085166020830152831691810191909152600090606001611c16565b60008060046000611fe5866040805173ffffffffffffffffffffffffffffffffffffffff8316602082015280820191909152600960608201527f77686974656c6973740000000000000000000000000000000000000000000000608082015260009060a001604051602081830303815290604052805190602001209050919050565b815260208101919091526040016000205460ff169050806120125761200a8484612398565b915050610a8e565b600460006120208686611f2e565b815260208101919091526040016000205460ff16949350505050565b6001546003546002546040517f6a2f491800000000000000000000000000000000000000000000000000000000815273ffffffffffffffffffffffffffffffffffffffff9283166004820152602481018590527401000000000000000000000000000000000000000090910460ff1660448201526000929190911690636a2f491890606401602060405180830381865afa1580156120de573d6000803e3d6000fd5b505050506040513d601f19601f820116820180604052508101906121029190612938565b9392505050565b6002546040517fdd62ed3e00000000000000000000000000000000000000000000000000000000815273ffffffffffffffffffffffffffffffffffffffff8481166004830152306024830152600092839291169063dd62ed3e90604401602060405180830381865afa158015612183573d6000803e3d6000fd5b505050506040513d601f19601f820116820180604052508101906121a79190612938565b6002546040517f70a0823100000000000000000000000000000000000000000000000000000000815273ffffffffffffffffffffffffffffffffffffffff8781166004830152929350600092909116906370a0823190602401602060405180830381865afa15801561221d573d6000803e3d6000fd5b505050506040513d601f19601f820116820180604052508101906122419190612938565b90508381101580156122535750838210155b95945050505050565b600060e082013561010083013580821415612278575092915050565b612284824883016123c4565b949350505050565b60006122ee826040518060400160405280602081526020017f5361666545524332303a206c6f772d6c6576656c2063616c6c206661696c65648152508573ffffffffffffffffffffffffffffffffffffffff166123da9092919063ffffffff16565b80519091501561127f578080602001905181019061230c9190612aa3565b61127f576040517f08c379a000000000000000000000000000000000000000000000000000000000815260206004820152602a60248201527f5361666545524332303a204552433230206f7065726174696f6e20646964206e60448201527f6f7420737563636565640000000000000000000000000000000000000000000060648201526084016109be565b6000600460006123a88585611bb2565b815260208101919091526040016000205460ff16159392505050565b60008183106123d35781612102565b5090919050565b60606122848484600085856000808673ffffffffffffffffffffffffffffffffffffffff16858760405161240e9190612ac0565b60006040518083038185875af1925050503d806000811461244b576040519150601f19603f3d011682016040523d82523d6000602084013e612450565b606091505b50915091506124618783838761246c565b979650505050505050565b606083156124ff5782516124f85773ffffffffffffffffffffffffffffffffffffffff85163b6124f8576040517f08c379a000000000000000000000000000000000000000000000000000000000815260206004820152601d60248201527f416464726573733a2063616c6c20746f206e6f6e2d636f6e747261637400000060448201526064016109be565b5081612284565b61228483838151156125145781518083602001fd5b806040517f08c379a00000000000000000000000000000000000000000000000000000000081526004016109be9190612adc565b7f4e487b7100000000000000000000000000000000000000000000000000000000600052601160045260246000fd5b6000821982111561258a5761258a612548565b500190565b6000602082840312156125a157600080fd5b813563ffffffff8116811461210257600080fd5b6000602082840312156125c757600080fd5b5035919050565b73ffffffffffffffffffffffffffffffffffffffff8116811461082e57600080fd5b6000806040838503121561260357600080fd5b823561260e816125ce565b946020939093013593505050565b801515811461082e57600080fd5b6000806040838503121561263d57600080fd5b8235612648816125ce565b915060208301356126588161261c565b809150509250929050565b60006020828403121561267557600080fd5b81356121028161261c565b60006020828403121561269257600080fd5b8135612102816125ce565b600080602083850312156126b057600080fd5b823567ffffffffffffffff808211156126c857600080fd5b818501915085601f8301126126dc57600080fd5b8135818111156126eb57600080fd5b8660208260051b850101111561270057600080fd5b60209290920196919550909350505050565b6000806000806060858703121561272857600080fd5b84356003811061273757600080fd5b9350602085013567ffffffffffffffff8082111561275457600080fd5b818701915087601f83011261276857600080fd5b81358181111561277757600080fd5b88602082850101111561278957600080fd5b95986020929092019750949560400135945092505050565b6000806000606084860312156127b657600080fd5b833567ffffffffffffffff8111156127cd57600080fd5b840161016081870312156127e057600080fd5b95602085013595506040909401359392505050565b60005b838110156128105781810151838201526020016127f8565b838111156109d05750506000910152565b600081518084526128398160208601602086016127f5565b601f017fffffffffffffffffffffffffffffffffffffffffffffffffffffffffffffffe0169290920160200192915050565b60408152600061287e6040830185612821565b90508260208301529392505050565b7f4e487b7100000000000000000000000000000000000000000000000000000000600052603260045260246000fd5b60008083357fffffffffffffffffffffffffffffffffffffffffffffffffffffffffffffffe18436030181126128f157600080fd5b83018035915067ffffffffffffffff82111561290c57600080fd5b60200191503681900382131561292157600080fd5b9250929050565b8183823760009101908152919050565b60006020828403121561294a57600080fd5b5051919050565b60008282101561296357612963612548565b500390565b600080600080600060a0868803121561298057600080fd5b853561298b816125ce565b9450602086013561299b816125ce565b94979496505050506040830135926060810135926080909101359150565b6000817fffffffffffffffffffffffffffffffffffffffffffffffffffffffffffffffff04831182151516156129f1576129f1612548565b500290565b600082612a2c577f4e487b7100000000000000000000000000000000000000000000000000000000600052601260045260246000fd5b500490565b60008085851115612a4157600080fd5b83861115612a4e57600080fd5b5050820193919092039150565b7fffffffffffffffffffffffffffffffffffffffff0000000000000000000000008135818116916014851015612a9b5780818660140360031b1b83161692505b505092915050565b600060208284031215612ab557600080fd5b81516121028161261c565b60008251612ad28184602087016127f5565b9190910192915050565b602081526000612102602083018461282156fea2646970667358221220c73f044b20eaa197d1fb53ff76e57b07e54c4cbd6aa64dcdb6bea540d7fc130e64736f6c634300080c0033","linkReferences":{},"deployedLinkReferences":{},"fileHash":"e5d45eb765cf95a50dcc2ec836b4a09dcef47ce160f5dd8eaea46caae80b0dbb"}