{"_format":"hh-sol-artifact-1","contractName":"UserAuthentication","sourceName":"contracts/validations/UserAuthentication.sol","abi":[{"inputs":[{"components":[{"internalType":"address","name":"sender","type":"address"},{"internalType":"uint256","name":"nonce","type":"uint256"},{"internalType":"bytes","name":"initCode","type":"bytes"},{"internalType":"bytes","name":"callData","type":"bytes"},{"internalType":"uint256","name":"callGasLimit","type":"uint256"},{"internalType":"uint256","name":"verificationGasLimit","type":"uint256"},{"internalType":"uint256","name":"preVerificationGas","type":"uint256"},{"internalType":"uint256","name":"maxFeePerGas","type":"uint256"},{"internalType":"uint256","name":"maxPriorityFeePerGas","type":"uint256"},{"internalType":"bytes","name":"paymasterAndData","type":"bytes"},{"internalType":"bytes","name":"signature","type":"bytes"}],"internalType":"struct UserOperation","name":"userOp","type":"tuple"},{"internalType":"bytes32","name":"userOpHash","type":"bytes32"}],"name":"getUserId","outputs":[{"internalType":"bytes32","name":"","type":"bytes32"}],"stateMutability":"view","type":"function"},{"inputs":[{"components":[{"internalType":"address","name":"sender","type":"address"},{"internalType":"uint256","name":"nonce","type":"uint256"},{"internalType":"bytes","name":"initCode","type":"bytes"},{"internalType":"bytes","name":"callData","type":"bytes"},{"internalType":"uint256","name":"callGasLimit","type":"uint256"},{"internalType":"uint256","name":"verificationGasLimit","type":"uint256"},{"internalType":"uint256","name":"preVerificationGas","type":"uint256"},{"internalType":"uint256","name":"maxFeePerGas","type":"uint256"},{"internalType":"uint256","name":"maxPriorityFeePerGas","type":"uint256"},{"internalType":"bytes","name":"paymasterAndData","type":"bytes"},{"internalType":"bytes","name":"signature","type":"bytes"}],"internalType":"struct UserOperation","name":"op","type":"tuple"},{"internalType":"bytes32","name":"userOpHash","type":"bytes32"}],"name":"recoverUserIdFromSignature","outputs":[{"internalType":"bytes32","name":"","type":"bytes32"}],"stateMutability":"pure","type":"function"},{"inputs":[{"internalType":"enum AuthType","name":"authType","type":"uint8"},{"internalType":"bytes","name":"authMetadata","type":"bytes"},{"components":[{"internalType":"address","name":"sender","type":"address"},{"internalType":"uint256","name":"nonce","type":"uint256"},{"internalType":"bytes","name":"initCode","type":"bytes"},{"internalType":"bytes","name":"callData","type":"bytes"},{"internalType":"uint256","name":"callGasLimit","type":"uint256"},{"internalType":"uint256","name":"verificationGasLimit","type":"uint256"},{"internalType":"uint256","name":"preVerificationGas","type":"uint256"},{"internalType":"uint256","name":"maxFeePerGas","type":"uint256"},{"internalType":"uint256","name":"maxPriorityFeePerGas","type":"uint256"},{"internalType":"bytes","name":"paymasterAndData","type":"bytes"},{"internalType":"bytes","name":"signature","type":"bytes"}],"internalType":"struct UserOperation","name":"userOp","type":"tuple"},{"internalType":"bytes32","name":"userOpHash","type":"bytes32"}],"name":"validate","outputs":[{"internalType":"uint256","name":"sigTimeRange","type":"uint256"}],"stateMutability":"view","type":"function"}],"bytecode":"0x608060405234801561001057600080fd5b50610c07806100206000396000f3fe608060405234801561001057600080fd5b50600436106100415760003560e01c80633026a8df1461004657806381adfce61461006b578063deca38871461007e575b600080fd5b61005961005436600461077f565b610091565b60405190815260200160405180910390f35b61005961007936600461077f565b6100cb565b61005961008c3660046107c4565b61029a565b6000806100ab836100a661014087018761087a565b61033e565b73ffffffffffffffffffffffffffffffffffffffff169150505b92915050565b60408051602081019091527f3026a8df000000000000000000000000000000000000000000000000000000008152600090815b6001811015610232576000803084846001811061011d5761011d6108df565b602002015188886040516024016101359291906109ed565b604080517fffffffffffffffffffffffffffffffffffffffffffffffffffffffffffffffe08184030181529181526020820180517bffffffffffffffffffffffffffffffffffffffffffffffffffffffff167fffffffff000000000000000000000000000000000000000000000000000000009094169390931790925290516101be9190610b31565b600060405180830381855afa9150503d80600081146101f9576040519150601f19603f3d011682016040523d82523d6000602084013e6101fe565b606091505b50915091508115610228578080602001905181019061021d9190610b6c565b9450505050506100c5565b50506001016100fe565b506040517f08c379a000000000000000000000000000000000000000000000000000000000815260206004820152601f60248201527f496e636f72726563742041757468656e7469636174696f6e204d6574686f640060448201526064015b60405180910390fd5b6000808680156102ac576102ac610b85565b14156102d35760006102be86866103dc565b90506102cb8484836103f1565b915050610335565b6040517f08c379a000000000000000000000000000000000000000000000000000000000815260206004820181905260248201527f696e76616c696420757365722061757468656e7469636174696f6e20747970656044820152606401610291565b95945050505050565b600080610398856040517f19457468657265756d205369676e6564204d6573736167653a0a3332000000006020820152603c8101829052600090605c01604051602081830303815290604052805190602001209050919050565b905061033584848080601f01602080910402602001604051908101604052809392919081815260200183838082843760009201919091525085939250506104539050565b60006103ea82840184610bb4565b9392505050565b6000610405836100a661014087018761087a565b73ffffffffffffffffffffffffffffffffffffffff168273ffffffffffffffffffffffffffffffffffffffff16148061043c575032155b15610449575060006103ea565b5060019392505050565b60008060006104628585610477565b9150915061046f816104bd565b509392505050565b6000808251604114156104ae5760208301516040840151606085015160001a6104a287828585610677565b945094505050506104b6565b506000905060025b9250929050565b60008160048111156104d1576104d1610b85565b14156104da5750565b60018160048111156104ee576104ee610b85565b1415610556576040517f08c379a000000000000000000000000000000000000000000000000000000000815260206004820152601860248201527f45434453413a20696e76616c6964207369676e617475726500000000000000006044820152606401610291565b600281600481111561056a5761056a610b85565b14156105d2576040517f08c379a000000000000000000000000000000000000000000000000000000000815260206004820152601f60248201527f45434453413a20696e76616c6964207369676e6174757265206c656e677468006044820152606401610291565b60038160048111156105e6576105e6610b85565b1415610674576040517f08c379a000000000000000000000000000000000000000000000000000000000815260206004820152602260248201527f45434453413a20696e76616c6964207369676e6174757265202773272076616c60448201527f75650000000000000000000000000000000000000000000000000000000000006064820152608401610291565b50565b6000807f7fffffffffffffffffffffffffffffff5d576e7357a4501ddfe92f46681b20a08311156106ae575060009050600361075d565b6040805160008082526020820180845289905260ff881692820192909252606081018690526080810185905260019060a0016020604051602081039080840390855afa158015610702573d6000803e3d6000fd5b50506040517fffffffffffffffffffffffffffffffffffffffffffffffffffffffffffffffe0015191505073ffffffffffffffffffffffffffffffffffffffff81166107565760006001925092505061075d565b9150600090505b94509492505050565b6000610160828403121561077957600080fd5b50919050565b6000806040838503121561079257600080fd5b823567ffffffffffffffff8111156107a957600080fd5b6107b585828601610766565b95602094909401359450505050565b6000806000806000608086880312156107dc57600080fd5b8535600181106107eb57600080fd5b9450602086013567ffffffffffffffff8082111561080857600080fd5b818801915088601f83011261081c57600080fd5b81358181111561082b57600080fd5b89602082850101111561083d57600080fd5b60208301965080955050604088013591508082111561085b57600080fd5b5061086888828901610766565b95989497509295606001359392505050565b60008083357fffffffffffffffffffffffffffffffffffffffffffffffffffffffffffffffe18436030181126108af57600080fd5b83018035915067ffffffffffffffff8211156108ca57600080fd5b6020019150368190038213156104b657600080fd5b7f4e487b7100000000000000000000000000000000000000000000000000000000600052603260045260246000fd5b73ffffffffffffffffffffffffffffffffffffffff8116811461067457600080fd5b803561093b8161090e565b919050565b60008083357fffffffffffffffffffffffffffffffffffffffffffffffffffffffffffffffe184360301811261097557600080fd5b830160208101925035905067ffffffffffffffff81111561099557600080fd5b8036038313156104b657600080fd5b8183528181602085013750600060208284010152600060207fffffffffffffffffffffffffffffffffffffffffffffffffffffffffffffffe0601f840116840101905092915050565b60408152610a1b60408201610a0185610930565b73ffffffffffffffffffffffffffffffffffffffff169052565b602083013560608201526000610a346040850185610940565b610160806080860152610a4c6101a0860183856109a4565b9250610a5b6060880188610940565b92507fffffffffffffffffffffffffffffffffffffffffffffffffffffffffffffffc0808786030160a0880152610a938585846109a4565b9450608089013560c088015260a089013560e0880152610100935060c089013584880152610120915060e089013582880152610140848a013581890152610adc838b018b610940565b95509250818887030184890152610af48686856109a4565b9550610b02818b018b610940565b955093505080878603016101808801525050610b1f8383836109a4565b93505050508260208301529392505050565b6000825160005b81811015610b525760208186018101518583015201610b38565b81811115610b61576000828501525b509190910192915050565b600060208284031215610b7e57600080fd5b5051919050565b7f4e487b7100000000000000000000000000000000000000000000000000000000600052602160045260246000fd5b600060208284031215610bc657600080fd5b81356103ea8161090e56fea2646970667358221220dfdb580df888d4e1f17e9087aa433de3a64b2f412e22519c7f4487f1630cab7964736f6c634300080c0033","linkReferences":{},"deployedLinkReferences":{},"fileHash":"8c5552d3a74f824b0405b0ecff33005110c9d82cb53b517951e0707033ef2a3d"}