{"_format":"hh-sol-artifact-1","contractName":"UserAuthentication","sourceName":"contracts/validations/UserAuthentication.sol","abi":[{"inputs":[{"components":[{"internalType":"address","name":"sender","type":"address"},{"internalType":"uint256","name":"nonce","type":"uint256"},{"internalType":"bytes","name":"initCode","type":"bytes"},{"internalType":"bytes","name":"callData","type":"bytes"},{"internalType":"uint256","name":"callGasLimit","type":"uint256"},{"internalType":"uint256","name":"verificationGasLimit","type":"uint256"},{"internalType":"uint256","name":"preVerificationGas","type":"uint256"},{"internalType":"uint256","name":"maxFeePerGas","type":"uint256"},{"internalType":"uint256","name":"maxPriorityFeePerGas","type":"uint256"},{"internalType":"bytes","name":"paymasterAndData","type":"bytes"},{"internalType":"bytes","name":"signature","type":"bytes"}],"internalType":"struct UserOperation","name":"userOp","type":"tuple"},{"internalType":"bytes32","name":"userOpHash","type":"bytes32"},{"internalType":"address","name":"aggregator","type":"address"}],"name":"getUserId","outputs":[{"internalType":"bytes32","name":"","type":"bytes32"}],"stateMutability":"view","type":"function"},{"inputs":[{"components":[{"internalType":"address","name":"sender","type":"address"},{"internalType":"uint256","name":"nonce","type":"uint256"},{"internalType":"bytes","name":"initCode","type":"bytes"},{"internalType":"bytes","name":"callData","type":"bytes"},{"internalType":"uint256","name":"callGasLimit","type":"uint256"},{"internalType":"uint256","name":"verificationGasLimit","type":"uint256"},{"internalType":"uint256","name":"preVerificationGas","type":"uint256"},{"internalType":"uint256","name":"maxFeePerGas","type":"uint256"},{"internalType":"uint256","name":"maxPriorityFeePerGas","type":"uint256"},{"internalType":"bytes","name":"paymasterAndData","type":"bytes"},{"internalType":"bytes","name":"signature","type":"bytes"}],"internalType":"struct UserOperation","name":"op","type":"tuple"},{"internalType":"bytes32","name":"userOpHash","type":"bytes32"},{"internalType":"address","name":"","type":"address"}],"name":"recoverUserIdFromSignature","outputs":[{"internalType":"bytes32","name":"","type":"bytes32"}],"stateMutability":"pure","type":"function"},{"inputs":[{"internalType":"enum AuthType","name":"authType","type":"uint8"},{"internalType":"bytes","name":"authMetadata","type":"bytes"},{"components":[{"internalType":"address","name":"sender","type":"address"},{"internalType":"uint256","name":"nonce","type":"uint256"},{"internalType":"bytes","name":"initCode","type":"bytes"},{"internalType":"bytes","name":"callData","type":"bytes"},{"internalType":"uint256","name":"callGasLimit","type":"uint256"},{"internalType":"uint256","name":"verificationGasLimit","type":"uint256"},{"internalType":"uint256","name":"preVerificationGas","type":"uint256"},{"internalType":"uint256","name":"maxFeePerGas","type":"uint256"},{"internalType":"uint256","name":"maxPriorityFeePerGas","type":"uint256"},{"internalType":"bytes","name":"paymasterAndData","type":"bytes"},{"internalType":"bytes","name":"signature","type":"bytes"}],"internalType":"struct UserOperation","name":"userOp","type":"tuple"},{"internalType":"bytes32","name":"userOpHash","type":"bytes32"},{"internalType":"address","name":"aggregator","type":"address"}],"name":"validate","outputs":[{"internalType":"uint256","name":"sigTimeRange","type":"uint256"}],"stateMutability":"view","type":"function"}],"bytecode":"0x608060405234801561001057600080fd5b50610c4e806100206000396000f3fe608060405234801561001057600080fd5b50600436106100415760003560e01c8063a856452f14610046578063a8a2de931461006b578063d7acc99a1461007e575b600080fd5b6100596100543660046107b5565b610091565b60405190815260200160405180910390f35b6100596100793660046107b5565b6100d0565b61005961008c366004610810565b6102a1565b6000806100ab846100a66101408801886108d7565b610347565b905073ffffffffffffffffffffffffffffffffffffffff81165b9150505b9392505050565b60408051602081019091527fa856452f000000000000000000000000000000000000000000000000000000008152600090815b600181101561023957600080308484600181106101225761012261093c565b602002015189898960405160240161013c93929190610a18565b604080517fffffffffffffffffffffffffffffffffffffffffffffffffffffffffffffffe08184030181529181526020820180517bffffffffffffffffffffffffffffffffffffffffffffffffffffffff167fffffffff000000000000000000000000000000000000000000000000000000009094169390931790925290516101c59190610b78565b600060405180830381855afa9150503d8060008114610200576040519150601f19603f3d011682016040523d82523d6000602084013e610205565b606091505b5091509150811561022f57808060200190518101906102249190610bb3565b9450505050506100c9565b5050600101610103565b506040517f08c379a000000000000000000000000000000000000000000000000000000000815260206004820152601f60248201527f496e636f72726563742041757468656e7469636174696f6e204d6574686f640060448201526064015b60405180910390fd5b6000808780156102b3576102b3610bcc565b14156102db5760006102c587876103e5565b90506102d3858585846103f3565b91505061033d565b6040517f08c379a000000000000000000000000000000000000000000000000000000000815260206004820181905260248201527f696e76616c696420757365722061757468656e7469636174696f6e20747970656044820152606401610298565b9695505050505050565b6000806103a1856040517f19457468657265756d205369676e6564204d6573736167653a0a3332000000006020820152603c8101829052600090605c01604051602081830303815290604052805190602001209050919050565b90506100c584848080601f01602080910402602001604051908101604052809392919081815260200183838082843760009201919091525085939250506104579050565b60006100c982840184610bfb565b6000610407846100a66101408801886108d7565b73ffffffffffffffffffffffffffffffffffffffff168273ffffffffffffffffffffffffffffffffffffffff16148061043e575032155b1561044b5750600061044f565b5060015b949350505050565b6000806000610466858561047b565b91509150610473816104c1565b509392505050565b6000808251604114156104b25760208301516040840151606085015160001a6104a68782858561067b565b945094505050506104ba565b506000905060025b9250929050565b60008160048111156104d5576104d5610bcc565b14156104de5750565b60018160048111156104f2576104f2610bcc565b141561055a576040517f08c379a000000000000000000000000000000000000000000000000000000000815260206004820152601860248201527f45434453413a20696e76616c6964207369676e617475726500000000000000006044820152606401610298565b600281600481111561056e5761056e610bcc565b14156105d6576040517f08c379a000000000000000000000000000000000000000000000000000000000815260206004820152601f60248201527f45434453413a20696e76616c6964207369676e6174757265206c656e677468006044820152606401610298565b60038160048111156105ea576105ea610bcc565b1415610678576040517f08c379a000000000000000000000000000000000000000000000000000000000815260206004820152602260248201527f45434453413a20696e76616c6964207369676e6174757265202773272076616c60448201527f75650000000000000000000000000000000000000000000000000000000000006064820152608401610298565b50565b6000807f7fffffffffffffffffffffffffffffff5d576e7357a4501ddfe92f46681b20a08311156106b25750600090506003610761565b6040805160008082526020820180845289905260ff881692820192909252606081018690526080810185905260019060a0016020604051602081039080840390855afa158015610706573d6000803e3d6000fd5b50506040517fffffffffffffffffffffffffffffffffffffffffffffffffffffffffffffffe0015191505073ffffffffffffffffffffffffffffffffffffffff811661075a57600060019250925050610761565b9150600090505b94509492505050565b6000610160828403121561077d57600080fd5b50919050565b73ffffffffffffffffffffffffffffffffffffffff8116811461067857600080fd5b80356107b081610783565b919050565b6000806000606084860312156107ca57600080fd5b833567ffffffffffffffff8111156107e157600080fd5b6107ed8682870161076a565b93505060208401359150604084013561080581610783565b809150509250925092565b60008060008060008060a0878903121561082957600080fd5b86356001811061083857600080fd5b9550602087013567ffffffffffffffff8082111561085557600080fd5b818901915089601f83011261086957600080fd5b81358181111561087857600080fd5b8a602082850101111561088a57600080fd5b6020830197508096505060408901359150808211156108a857600080fd5b506108b589828a0161076a565b935050606087013591506108cb608088016107a5565b90509295509295509295565b60008083357fffffffffffffffffffffffffffffffffffffffffffffffffffffffffffffffe184360301811261090c57600080fd5b83018035915067ffffffffffffffff82111561092757600080fd5b6020019150368190038213156104ba57600080fd5b7f4e487b7100000000000000000000000000000000000000000000000000000000600052603260045260246000fd5b60008083357fffffffffffffffffffffffffffffffffffffffffffffffffffffffffffffffe18436030181126109a057600080fd5b830160208101925035905067ffffffffffffffff8111156109c057600080fd5b8036038313156104ba57600080fd5b8183528181602085013750600060208284010152600060207fffffffffffffffffffffffffffffffffffffffffffffffffffffffffffffffe0601f840116840101905092915050565b60608152610a4660608201610a2c866107a5565b73ffffffffffffffffffffffffffffffffffffffff169052565b602084013560808201526000610a5f604086018661096b565b6101608060a0860152610a776101c0860183856109cf565b9250610a86606089018961096b565b92507fffffffffffffffffffffffffffffffffffffffffffffffffffffffffffffffa0808786030160c0880152610abe8585846109cf565b945060808a013560e0880152610100935060a08a013584880152610120915060c08a01358288015261014060e08b013581890152848b013584890152610b06838c018c61096b565b955093508188870301610180890152610b208686866109cf565b9550610b2e818c018c61096b565b955093505080878603016101a08801525050610b4b8383836109cf565b935050505083602083015261044f604083018473ffffffffffffffffffffffffffffffffffffffff169052565b6000825160005b81811015610b995760208186018101518583015201610b7f565b81811115610ba8576000828501525b509190910192915050565b600060208284031215610bc557600080fd5b5051919050565b7f4e487b7100000000000000000000000000000000000000000000000000000000600052602160045260246000fd5b600060208284031215610c0d57600080fd5b81356100c98161078356fea2646970667358221220f8ef87528701bf7de2492b5cb468873de673a6f499736e634cb9561a117ed0ac64736f6c634300080c0033","linkReferences":{},"deployedLinkReferences":{},"fileHash":"d1773a358c44ed863198f22a30c4354c515106a710e37842c9f5f4d9e5476739"}