{"_format":"hh-sol-artifact-1","contractName":"AaveWithdraw","sourceName":"contracts/modules/actions/AaveWithdraw.sol","abi":[{"anonymous":false,"inputs":[{"indexed":true,"internalType":"address","name":"userAddr","type":"address"},{"indexed":true,"internalType":"address","name":"assetAddr","type":"address"},{"indexed":false,"internalType":"uint256","name":"position","type":"uint256"}],"name":"AaveWithdrawExecuted","type":"event"},{"inputs":[],"name":"EMPTY_BYTES32","outputs":[{"internalType":"bytes32","name":"","type":"bytes32"}],"stateMutability":"view","type":"function"},{"inputs":[],"name":"EMPTY_STATE","outputs":[{"internalType":"bytes","name":"","type":"bytes"}],"stateMutability":"view","type":"function"},{"inputs":[{"internalType":"bytes","name":"data","type":"bytes"}],"name":"execute","outputs":[],"stateMutability":"nonpayable","type":"function"},{"inputs":[{"internalType":"bytes32","name":"key","type":"bytes32"}],"name":"getState","outputs":[{"internalType":"bytes","name":"state","type":"bytes"}],"stateMutability":"view","type":"function"},{"inputs":[{"internalType":"bytes","name":"","type":"bytes"}],"name":"init","outputs":[],"stateMutability":"nonpayable","type":"function"},{"inputs":[],"name":"moduleId","outputs":[{"internalType":"bytes32","name":"","type":"bytes32"}],"stateMutability":"view","type":"function"},{"inputs":[],"name":"payFee","outputs":[],"stateMutability":"nonpayable","type":"function"}],"bytecode":"0x608060405234801561001057600080fd5b50610a53806100206000396000f3fe608060405234801561001057600080fd5b506004361061007d5760003560e01c80633d14319d1161005b5780633d14319d146100c05780634ddf47d4146100d65780638db71efb146100e8578063a1308f271461012457600080fd5b806309648a9d1461008257806309c5eabe146100ab57806329610252146100be575b600080fd5b610095610090366004610731565b61016c565b6040516100a291906107c4565b60405180910390f35b6100be6100b93660046107d7565b61022c565b005b6100c8600081565b6040519081526020016100a2565b6100be6100e43660046107d7565b5050565b6100956040518060400160405280600b81526020017f454d5054595f535441544500000000000000000000000000000000000000000081525081565b6100c86040517f41617665576974686472617756310000000000000000000000000000000000006020820152602e016040516020818303038152906040528051906020012081565b606060006101878330600091825260601b6020526034902090565b6040517f09648a9d0000000000000000000000000000000000000000000000000000000081526004810182905290915033906309648a9d90602401600060405180830381865afa1580156101df573d6000803e3d6000fd5b505050506040513d6000823e601f3d9081017fffffffffffffffffffffffffffffffffffffffffffffffffffffffffffffffe01682016040526102259190810190610878565b9392505050565b600080600061023b8585610663565b92509250925060008273ffffffffffffffffffffffffffffffffffffffff16637535d2466040518163ffffffff1660e01b8152600401602060405180830381865afa15801561028e573d6000803e3d6000fd5b505050506040513d601f19601f820116820180604052508101906102b29190610968565b6040517fdd62ed3e00000000000000000000000000000000000000000000000000000000815273ffffffffffffffffffffffffffffffffffffffff868116600483015233602483015291925060009185169063dd62ed3e90604401602060405180830381865afa15801561032a573d6000803e3d6000fd5b505050506040513d601f19601f8201168201806040525081019061034e9190610985565b6040517f70a0823100000000000000000000000000000000000000000000000000000000815273ffffffffffffffffffffffffffffffffffffffff87811660048301529192506000918616906370a0823190602401602060405180830381865afa1580156103c0573d6000803e3d6000fd5b505050506040513d601f19601f820116820180604052508101906103e49190610985565b905060008573ffffffffffffffffffffffffffffffffffffffff1663b16a19de6040518163ffffffff1660e01b8152600401602060405180830381865afa158015610433573d6000803e3d6000fd5b505050506040513d601f19601f820116820180604052508101906104579190610968565b90506000828410610468578261046a565b835b9050858110610479578561047b565b805b60405173ffffffffffffffffffffffffffffffffffffffff8a16602482015233604482015260648101829052909150600090608401604080517fffffffffffffffffffffffffffffffffffffffffffffffffffffffffffffffe08184030181529190526020810180517bffffffffffffffffffffffffffffffffffffffffffffffffffffffff167f23b872dd00000000000000000000000000000000000000000000000000000000179052905061053488600083610681565b5060405173ffffffffffffffffffffffffffffffffffffffff8085166024830152604482018490528a166064820152600090608401604080517fffffffffffffffffffffffffffffffffffffffffffffffffffffffffffffffe08184030181529190526020810180517bffffffffffffffffffffffffffffffffffffffffffffffffffffffff167f69328dec0000000000000000000000000000000000000000000000000000000017905290506105ed87600083610681565b508373ffffffffffffffffffffffffffffffffffffffff168a73ffffffffffffffffffffffffffffffffffffffff167f0bc5caef5a4698763d4432bfa1476f93d9e2db5e391abf21afb23761745d84f78560405161064d91815260200190565b60405180910390a3505050505050505050505050565b600080806106738486018661099e565b919790965090945092505050565b6040517f20d2a20f00000000000000000000000000000000000000000000000000000000815260609033906320d2a20f906106c4908790879087906004016109df565b6000604051808303816000875af11580156106e3573d6000803e3d6000fd5b505050506040513d6000823e601f3d9081017fffffffffffffffffffffffffffffffffffffffffffffffffffffffffffffffe01682016040526107299190810190610878565b949350505050565b60006020828403121561074357600080fd5b5035919050565b60005b8381101561076557818101518382015260200161074d565b83811115610774576000848401525b50505050565b6000815180845261079281602086016020860161074a565b601f017fffffffffffffffffffffffffffffffffffffffffffffffffffffffffffffffe0169290920160200192915050565b602081526000610225602083018461077a565b600080602083850312156107ea57600080fd5b823567ffffffffffffffff8082111561080257600080fd5b818501915085601f83011261081657600080fd5b81358181111561082557600080fd5b86602082850101111561083757600080fd5b60209290920196919550909350505050565b7f4e487b7100000000000000000000000000000000000000000000000000000000600052604160045260246000fd5b60006020828403121561088a57600080fd5b815167ffffffffffffffff808211156108a257600080fd5b818401915084601f8301126108b657600080fd5b8151818111156108c8576108c8610849565b604051601f82017fffffffffffffffffffffffffffffffffffffffffffffffffffffffffffffffe0908116603f0116810190838211818310171561090e5761090e610849565b8160405282815287602084870101111561092757600080fd5b61093883602083016020880161074a565b979650505050505050565b73ffffffffffffffffffffffffffffffffffffffff8116811461096557600080fd5b50565b60006020828403121561097a57600080fd5b815161022581610943565b60006020828403121561099757600080fd5b5051919050565b6000806000606084860312156109b357600080fd5b83356109be81610943565b925060208401356109ce81610943565b929592945050506040919091013590565b73ffffffffffffffffffffffffffffffffffffffff84168152826020820152606060408201526000610a14606083018461077a565b9594505050505056fea26469706673582212205c0ec367fbf8208e5a78ccaf139305a88740a91d6b9a2f8c17b61ad40562f73564736f6c634300080c0033","linkReferences":{},"deployedLinkReferences":{}}