{"_format":"hh-sol-artifact-1","contractName":"ApproveAndExec","sourceName":"contracts/modules/actions/ApproveAndExec.sol","abi":[{"inputs":[],"name":"EMPTY_BYTES32","outputs":[{"internalType":"bytes32","name":"","type":"bytes32"}],"stateMutability":"view","type":"function"},{"inputs":[],"name":"EMPTY_STATE","outputs":[{"internalType":"bytes","name":"","type":"bytes"}],"stateMutability":"view","type":"function"},{"inputs":[{"internalType":"address","name":"dest","type":"address"},{"internalType":"uint256","name":"value","type":"uint256"},{"internalType":"bytes","name":"executeData","type":"bytes"},{"internalType":"address","name":"token","type":"address"},{"internalType":"bytes","name":"approveData","type":"bytes"}],"name":"approveAndExecute","outputs":[{"internalType":"bytes","name":"","type":"bytes"}],"stateMutability":"nonpayable","type":"function"},{"inputs":[{"internalType":"bytes","name":"","type":"bytes"}],"name":"execute","outputs":[],"stateMutability":"nonpayable","type":"function"},{"inputs":[{"internalType":"bytes32","name":"key","type":"bytes32"}],"name":"getState","outputs":[{"internalType":"bytes","name":"state","type":"bytes"}],"stateMutability":"view","type":"function"},{"inputs":[{"internalType":"bytes","name":"","type":"bytes"}],"name":"init","outputs":[],"stateMutability":"nonpayable","type":"function"},{"inputs":[],"name":"moduleId","outputs":[{"internalType":"bytes32","name":"","type":"bytes32"}],"stateMutability":"view","type":"function"},{"inputs":[],"name":"payFee","outputs":[],"stateMutability":"nonpayable","type":"function"}],"bytecode":"0x608060405234801561001057600080fd5b506108b2806100206000396000f3fe608060405234801561001057600080fd5b50600436106100885760003560e01c80634ddf47d41161005b5780634ddf47d4146100e15780638db71efb146100f3578063a1308f271461012f578063c777bbf51461017757600080fd5b806309648a9d1461008d57806309c5eabe146100b657806329610252146100c95780633d14319d146100cb575b600080fd5b6100a061009b3660046104da565b61018a565b6040516100ad919061056d565b60405180910390f35b6100c96100c43660046105c9565b61024a565b005b6100d3600081565b6040519081526020016100ad565b6100c96100ef3660046105c9565b5050565b6100a06040518060400160405280600b81526020017f454d5054595f535441544500000000000000000000000000000000000000000081525081565b6100d36040517f417070726f7665416e644578656356310000000000000000000000000000000060208201526030016040516020818303038152906040528051906020012081565b6100a0610185366004610634565b6102d7565b606060006101a58330600091825260601b6020526034902090565b6040517f09648a9d0000000000000000000000000000000000000000000000000000000081526004810182905290915033906309648a9d90602401600060405180830381865afa1580156101fd573d6000803e3d6000fd5b505050506040513d6000823e601f3d9081017fffffffffffffffffffffffffffffffffffffffffffffffffffffffffffffffe01682016040526102439190810190610701565b9392505050565b6040517f08c379a000000000000000000000000000000000000000000000000000000000815260206004820152602660248201527f65786563757465206d6574686f64206e6565647320746f20626520696d706c6560448201527f6d656e746564000000000000000000000000000000000000000000000000000060648201526084015b60405180910390fd5b60607f095ea7b3000000000000000000000000000000000000000000000000000000006103086004600085876107cc565b610311916107f6565b7fffffffff00000000000000000000000000000000000000000000000000000000161461039a576040517f08c379a000000000000000000000000000000000000000000000000000000000815260206004820152601460248201527f696e76616c696420617070726f7665206461746100000000000000000000000060448201526064016102ce565b6103dc84600085858080601f01602080910402602001604051908101604052809392919081815260200183838082843760009201919091525061042a92505050565b5061041e888888888080601f01602080910402602001604051908101604052809392919081815260200183838082843760009201919091525061042a92505050565b98975050505050505050565b6040517f20d2a20f00000000000000000000000000000000000000000000000000000000815260609033906320d2a20f9061046d9087908790879060040161083e565b6000604051808303816000875af115801561048c573d6000803e3d6000fd5b505050506040513d6000823e601f3d9081017fffffffffffffffffffffffffffffffffffffffffffffffffffffffffffffffe01682016040526104d29190810190610701565b949350505050565b6000602082840312156104ec57600080fd5b5035919050565b60005b8381101561050e5781810151838201526020016104f6565b8381111561051d576000848401525b50505050565b6000815180845261053b8160208601602086016104f3565b601f017fffffffffffffffffffffffffffffffffffffffffffffffffffffffffffffffe0169290920160200192915050565b6020815260006102436020830184610523565b60008083601f84011261059257600080fd5b50813567ffffffffffffffff8111156105aa57600080fd5b6020830191508360208285010111156105c257600080fd5b9250929050565b600080602083850312156105dc57600080fd5b823567ffffffffffffffff8111156105f357600080fd5b6105ff85828601610580565b90969095509350505050565b803573ffffffffffffffffffffffffffffffffffffffff8116811461062f57600080fd5b919050565b600080600080600080600060a0888a03121561064f57600080fd5b6106588861060b565b965060208801359550604088013567ffffffffffffffff8082111561067c57600080fd5b6106888b838c01610580565b909750955085915061069c60608b0161060b565b945060808a01359150808211156106b257600080fd5b506106bf8a828b01610580565b989b979a50959850939692959293505050565b7f4e487b7100000000000000000000000000000000000000000000000000000000600052604160045260246000fd5b60006020828403121561071357600080fd5b815167ffffffffffffffff8082111561072b57600080fd5b818401915084601f83011261073f57600080fd5b815181811115610751576107516106d2565b604051601f82017fffffffffffffffffffffffffffffffffffffffffffffffffffffffffffffffe0908116603f01168101908382118183101715610797576107976106d2565b816040528281528760208487010111156107b057600080fd5b6107c18360208301602088016104f3565b979650505050505050565b600080858511156107dc57600080fd5b838611156107e957600080fd5b5050820193919092039150565b7fffffffff0000000000000000000000000000000000000000000000000000000081358181169160048510156108365780818660040360031b1b83161692505b505092915050565b73ffffffffffffffffffffffffffffffffffffffff841681528260208201526060604082015260006108736060830184610523565b9594505050505056fea26469706673582212207ff5d08a80f134f9f421bde4049379863711d907cd7b1c041a2896cfcee9502564736f6c634300080c0033","linkReferences":{},"deployedLinkReferences":{}}