{"_format":"hh-sol-artifact-1","contractName":"ApproveAndSwap","sourceName":"contracts/modules/actions/ApproveAndSwap.sol","abi":[{"inputs":[{"internalType":"address","name":"_wethAddr","type":"address"}],"stateMutability":"nonpayable","type":"constructor"},{"inputs":[],"name":"EMPTY_BYTES32","outputs":[{"internalType":"bytes32","name":"","type":"bytes32"}],"stateMutability":"view","type":"function"},{"inputs":[],"name":"EMPTY_STATE","outputs":[{"internalType":"bytes","name":"","type":"bytes"}],"stateMutability":"view","type":"function"},{"inputs":[{"internalType":"bytes","name":"","type":"bytes"}],"name":"execute","outputs":[],"stateMutability":"nonpayable","type":"function"},{"inputs":[{"internalType":"address","name":"tokenAddr","type":"address"},{"internalType":"address","name":"routerAddr","type":"address"},{"internalType":"uint256","name":"amount","type":"uint256"},{"internalType":"bytes","name":"routerCallData","type":"bytes"}],"name":"executeSwapERC20","outputs":[{"internalType":"bytes","name":"","type":"bytes"}],"stateMutability":"nonpayable","type":"function"},{"inputs":[{"internalType":"address","name":"routerAddr","type":"address"},{"internalType":"uint256","name":"amount","type":"uint256"},{"internalType":"bytes","name":"routerCallData","type":"bytes"}],"name":"executeSwapETH","outputs":[{"internalType":"bytes","name":"","type":"bytes"}],"stateMutability":"nonpayable","type":"function"},{"inputs":[{"internalType":"bytes32","name":"key","type":"bytes32"}],"name":"getState","outputs":[{"internalType":"bytes","name":"state","type":"bytes"}],"stateMutability":"view","type":"function"},{"inputs":[],"name":"getWeth","outputs":[{"internalType":"contract IWETH9","name":"","type":"address"}],"stateMutability":"view","type":"function"},{"inputs":[{"internalType":"bytes","name":"","type":"bytes"}],"name":"init","outputs":[],"stateMutability":"nonpayable","type":"function"},{"inputs":[],"name":"moduleId","outputs":[{"internalType":"bytes32","name":"","type":"bytes32"}],"stateMutability":"view","type":"function"},{"inputs":[],"name":"payFee","outputs":[],"stateMutability":"nonpayable","type":"function"}],"bytecode":"0x608060405234801561001057600080fd5b50604051610aea380380610aea83398101604081905261002f91610054565b600080546001600160a01b0319166001600160a01b0392909216919091179055610084565b60006020828403121561006657600080fd5b81516001600160a01b038116811461007d57600080fd5b9392505050565b610a57806100936000396000f3fe608060405234801561001057600080fd5b50600436106100be5760003560e01c80634242f027116100765780636701b87d1161005b5780636701b87d146101515780638db71efb14610164578063a1308f27146101a057600080fd5b80634242f0271461013e5780634ddf47d4146100ec57600080fd5b8063107c279f116100a7578063107c279f1461010057806329610252146100fe5780633d14319d1461012857600080fd5b806309648a9d146100c357806309c5eabe146100ec575b600080fd5b6100d66100d1366004610620565b6101e8565b6040516100e391906106b3565b60405180910390f35b6100fe6100fa3660046106c6565b5050565b005b60005460405173ffffffffffffffffffffffffffffffffffffffff90911681526020016100e3565b610130600081565b6040519081526020016100e3565b6100d661014c36600461087b565b6102a8565b6100d661015f3660046108d2565b61043c565b6100d66040518060400160405280600b81526020017f454d5054595f535441544500000000000000000000000000000000000000000081525081565b6101306040517f417070726f7665416e645377617056310000000000000000000000000000000060208201526030016040516020818303038152906040528051906020012081565b606060006102038330600091825260601b6020526034902090565b6040517f09648a9d0000000000000000000000000000000000000000000000000000000081526004810182905290915033906309648a9d90602401600060405180830381865afa15801561025b573d6000803e3d6000fd5b505050506040513d6000823e601f3d9081017fffffffffffffffffffffffffffffffffffffffffffffffffffffffffffffffe01682016040526102a1919081019061093a565b9392505050565b6000546040805160048152602481019091526020810180517bffffffffffffffffffffffffffffffffffffffffffffffffffffffff167fd0e30db00000000000000000000000000000000000000000000000000000000017905260609173ffffffffffffffffffffffffffffffffffffffff1690610327828683610452565b506000546040517f70a08231000000000000000000000000000000000000000000000000000000008152336004820152869173ffffffffffffffffffffffffffffffffffffffff16906370a0823190602401602060405180830381865afa158015610396573d6000803e3d6000fd5b505050506040513d601f19601f820116820180604052508101906103ba91906109b1565b1015610427576040517f08c379a000000000000000000000000000000000000000000000000000000000815260206004820152601a60248201527f42616c616e6365206973206e6f74206869676820656e6f75676800000000000060448201526064015b60405180910390fd5b610433828787876104fa565b50509392505050565b606061044a858585856104fa565b949350505050565b6040517f20d2a20f00000000000000000000000000000000000000000000000000000000815260609033906320d2a20f90610495908790879087906004016109ca565b6000604051808303816000875af11580156104b4573d6000803e3d6000fd5b505050506040513d6000823e601f3d9081017fffffffffffffffffffffffffffffffffffffffffffffffffffffffffffffffe016820160405261044a919081019061093a565b6040805173ffffffffffffffffffffffffffffffffffffffff8516602482015260448082018590528251808303909101815260649091019091526020810180517bffffffffffffffffffffffffffffffffffffffffffffffffffffffff167f095ea7b3000000000000000000000000000000000000000000000000000000001790526000610589868284610452565b90506000818060200190518101906105a191906109ff565b90508061060a576040517f08c379a000000000000000000000000000000000000000000000000000000000815260206004820152600e60248201527f417070726f7665206661696c6564000000000000000000000000000000000000604482015260640161041e565b61061686600086610452565b5050505050505050565b60006020828403121561063257600080fd5b5035919050565b60005b8381101561065457818101518382015260200161063c565b83811115610663576000848401525b50505050565b60008151808452610681816020860160208601610639565b601f017fffffffffffffffffffffffffffffffffffffffffffffffffffffffffffffffe0169290920160200192915050565b6020815260006102a16020830184610669565b600080602083850312156106d957600080fd5b823567ffffffffffffffff808211156106f157600080fd5b818501915085601f83011261070557600080fd5b81358181111561071457600080fd5b86602082850101111561072657600080fd5b60209290920196919550909350505050565b803573ffffffffffffffffffffffffffffffffffffffff8116811461075c57600080fd5b919050565b7f4e487b7100000000000000000000000000000000000000000000000000000000600052604160045260246000fd5b604051601f82017fffffffffffffffffffffffffffffffffffffffffffffffffffffffffffffffe016810167ffffffffffffffff811182821017156107d7576107d7610761565b604052919050565b600067ffffffffffffffff8211156107f9576107f9610761565b50601f017fffffffffffffffffffffffffffffffffffffffffffffffffffffffffffffffe01660200190565b600082601f83011261083657600080fd5b8135610849610844826107df565b610790565b81815284602083860101111561085e57600080fd5b816020850160208301376000918101602001919091529392505050565b60008060006060848603121561089057600080fd5b61089984610738565b925060208401359150604084013567ffffffffffffffff8111156108bc57600080fd5b6108c886828701610825565b9150509250925092565b600080600080608085870312156108e857600080fd5b6108f185610738565b93506108ff60208601610738565b925060408501359150606085013567ffffffffffffffff81111561092257600080fd5b61092e87828801610825565b91505092959194509250565b60006020828403121561094c57600080fd5b815167ffffffffffffffff81111561096357600080fd5b8201601f8101841361097457600080fd5b8051610982610844826107df565b81815285602083850101111561099757600080fd5b6109a8826020830160208601610639565b95945050505050565b6000602082840312156109c357600080fd5b5051919050565b73ffffffffffffffffffffffffffffffffffffffff841681528260208201526060604082015260006109a86060830184610669565b600060208284031215610a1157600080fd5b815180151581146102a157600080fdfea26469706673582212207729e46192eed161fa73c8a8d8216732401d397f43069bf91a2a20b9d8ede58064736f6c634300080c0033","linkReferences":{},"deployedLinkReferences":{}}