{
    "_format": "hh-sol-artifact-1",
    "contractName": "EntryPoint",
    "sourceName": "contracts/eip-4337/EntryPoint.sol",
    "abi": [
        {
            "inputs": [
                {
                    "internalType": "uint256",
                    "name": "preOpGas",
                    "type": "uint256"
                },
                {
                    "internalType": "uint256",
                    "name": "paid",
                    "type": "uint256"
                },
                {
                    "internalType": "uint48",
                    "name": "validAfter",
                    "type": "uint48"
                },
                {
                    "internalType": "uint48",
                    "name": "validUntil",
                    "type": "uint48"
                },
                {
                    "internalType": "bool",
                    "name": "targetSuccess",
                    "type": "bool"
                },
                {
                    "internalType": "bytes",
                    "name": "targetResult",
                    "type": "bytes"
                }
            ],
            "name": "ExecutionResult",
            "type": "error"
        },
        {
            "inputs": [
                {
                    "internalType": "uint256",
                    "name": "opIndex",
                    "type": "uint256"
                },
                {
                    "internalType": "string",
                    "name": "reason",
                    "type": "string"
                }
            ],
            "name": "FailedOp",
            "type": "error"
        },
        {
            "inputs": [
                {
                    "internalType": "address",
                    "name": "sender",
                    "type": "address"
                }
            ],
            "name": "SenderAddressResult",
            "type": "error"
        },
        {
            "inputs": [
                {
                    "internalType": "address",
                    "name": "aggregator",
                    "type": "address"
                }
            ],
            "name": "SignatureValidationFailed",
            "type": "error"
        },
        {
            "inputs": [
                {
                    "components": [
                        {
                            "internalType": "uint256",
                            "name": "preOpGas",
                            "type": "uint256"
                        },
                        {
                            "internalType": "uint256",
                            "name": "prefund",
                            "type": "uint256"
                        },
                        {
                            "internalType": "bool",
                            "name": "sigFailed",
                            "type": "bool"
                        },
                        {
                            "internalType": "uint48",
                            "name": "validAfter",
                            "type": "uint48"
                        },
                        {
                            "internalType": "uint48",
                            "name": "validUntil",
                            "type": "uint48"
                        },
                        {
                            "internalType": "bytes",
                            "name": "paymasterContext",
                            "type": "bytes"
                        }
                    ],
                    "internalType": "struct IEntryPoint.ReturnInfo",
                    "name": "returnInfo",
                    "type": "tuple"
                },
                {
                    "components": [
                        {
                            "internalType": "uint256",
                            "name": "stake",
                            "type": "uint256"
                        },
                        {
                            "internalType": "uint256",
                            "name": "unstakeDelaySec",
                            "type": "uint256"
                        }
                    ],
                    "internalType": "struct IStakeManager.StakeInfo",
                    "name": "senderInfo",
                    "type": "tuple"
                },
                {
                    "components": [
                        {
                            "internalType": "uint256",
                            "name": "stake",
                            "type": "uint256"
                        },
                        {
                            "internalType": "uint256",
                            "name": "unstakeDelaySec",
                            "type": "uint256"
                        }
                    ],
                    "internalType": "struct IStakeManager.StakeInfo",
                    "name": "factoryInfo",
                    "type": "tuple"
                },
                {
                    "components": [
                        {
                            "internalType": "uint256",
                            "name": "stake",
                            "type": "uint256"
                        },
                        {
                            "internalType": "uint256",
                            "name": "unstakeDelaySec",
                            "type": "uint256"
                        }
                    ],
                    "internalType": "struct IStakeManager.StakeInfo",
                    "name": "paymasterInfo",
                    "type": "tuple"
                }
            ],
            "name": "ValidationResult",
            "type": "error"
        },
        {
            "inputs": [
                {
                    "components": [
                        {
                            "internalType": "uint256",
                            "name": "preOpGas",
                            "type": "uint256"
                        },
                        {
                            "internalType": "uint256",
                            "name": "prefund",
                            "type": "uint256"
                        },
                        {
                            "internalType": "bool",
                            "name": "sigFailed",
                            "type": "bool"
                        },
                        {
                            "internalType": "uint48",
                            "name": "validAfter",
                            "type": "uint48"
                        },
                        {
                            "internalType": "uint48",
                            "name": "validUntil",
                            "type": "uint48"
                        },
                        {
                            "internalType": "bytes",
                            "name": "paymasterContext",
                            "type": "bytes"
                        }
                    ],
                    "internalType": "struct IEntryPoint.ReturnInfo",
                    "name": "returnInfo",
                    "type": "tuple"
                },
                {
                    "components": [
                        {
                            "internalType": "uint256",
                            "name": "stake",
                            "type": "uint256"
                        },
                        {
                            "internalType": "uint256",
                            "name": "unstakeDelaySec",
                            "type": "uint256"
                        }
                    ],
                    "internalType": "struct IStakeManager.StakeInfo",
                    "name": "senderInfo",
                    "type": "tuple"
                },
                {
                    "components": [
                        {
                            "internalType": "uint256",
                            "name": "stake",
                            "type": "uint256"
                        },
                        {
                            "internalType": "uint256",
                            "name": "unstakeDelaySec",
                            "type": "uint256"
                        }
                    ],
                    "internalType": "struct IStakeManager.StakeInfo",
                    "name": "factoryInfo",
                    "type": "tuple"
                },
                {
                    "components": [
                        {
                            "internalType": "uint256",
                            "name": "stake",
                            "type": "uint256"
                        },
                        {
                            "internalType": "uint256",
                            "name": "unstakeDelaySec",
                            "type": "uint256"
                        }
                    ],
                    "internalType": "struct IStakeManager.StakeInfo",
                    "name": "paymasterInfo",
                    "type": "tuple"
                },
                {
                    "components": [
                        {
                            "internalType": "address",
                            "name": "aggregator",
                            "type": "address"
                        },
                        {
                            "components": [
                                {
                                    "internalType": "uint256",
                                    "name": "stake",
                                    "type": "uint256"
                                },
                                {
                                    "internalType": "uint256",
                                    "name": "unstakeDelaySec",
                                    "type": "uint256"
                                }
                            ],
                            "internalType": "struct IStakeManager.StakeInfo",
                            "name": "stakeInfo",
                            "type": "tuple"
                        }
                    ],
                    "internalType": "struct IEntryPoint.AggregatorStakeInfo",
                    "name": "aggregatorInfo",
                    "type": "tuple"
                }
            ],
            "name": "ValidationResultWithAggregation",
            "type": "error"
        },
        {
            "anonymous": false,
            "inputs": [
                {
                    "indexed": true,
                    "internalType": "bytes32",
                    "name": "userOpHash",
                    "type": "bytes32"
                },
                {
                    "indexed": true,
                    "internalType": "address",
                    "name": "sender",
                    "type": "address"
                },
                {
                    "indexed": false,
                    "internalType": "address",
                    "name": "factory",
                    "type": "address"
                },
                {
                    "indexed": false,
                    "internalType": "address",
                    "name": "paymaster",
                    "type": "address"
                }
            ],
            "name": "AccountDeployed",
            "type": "event"
        },
        {
            "anonymous": false,
            "inputs": [],
            "name": "BeforeExecution",
            "type": "event"
        },
        {
            "anonymous": false,
            "inputs": [
                {
                    "indexed": true,
                    "internalType": "address",
                    "name": "account",
                    "type": "address"
                },
                {
                    "indexed": false,
                    "internalType": "uint256",
                    "name": "totalDeposit",
                    "type": "uint256"
                }
            ],
            "name": "Deposited",
            "type": "event"
        },
        {
            "anonymous": false,
            "inputs": [
                {
                    "indexed": true,
                    "internalType": "address",
                    "name": "aggregator",
                    "type": "address"
                }
            ],
            "name": "SignatureAggregatorChanged",
            "type": "event"
        },
        {
            "anonymous": false,
            "inputs": [
                {
                    "indexed": true,
                    "internalType": "address",
                    "name": "account",
                    "type": "address"
                },
                {
                    "indexed": false,
                    "internalType": "uint256",
                    "name": "totalStaked",
                    "type": "uint256"
                },
                {
                    "indexed": false,
                    "internalType": "uint256",
                    "name": "unstakeDelaySec",
                    "type": "uint256"
                }
            ],
            "name": "StakeLocked",
            "type": "event"
        },
        {
            "anonymous": false,
            "inputs": [
                {
                    "indexed": true,
                    "internalType": "address",
                    "name": "account",
                    "type": "address"
                },
                {
                    "indexed": false,
                    "internalType": "uint256",
                    "name": "withdrawTime",
                    "type": "uint256"
                }
            ],
            "name": "StakeUnlocked",
            "type": "event"
        },
        {
            "anonymous": false,
            "inputs": [
                {
                    "indexed": true,
                    "internalType": "address",
                    "name": "account",
                    "type": "address"
                },
                {
                    "indexed": false,
                    "internalType": "address",
                    "name": "withdrawAddress",
                    "type": "address"
                },
                {
                    "indexed": false,
                    "internalType": "uint256",
                    "name": "amount",
                    "type": "uint256"
                }
            ],
            "name": "StakeWithdrawn",
            "type": "event"
        },
        {
            "anonymous": false,
            "inputs": [
                {
                    "indexed": true,
                    "internalType": "bytes32",
                    "name": "userOpHash",
                    "type": "bytes32"
                },
                {
                    "indexed": true,
                    "internalType": "address",
                    "name": "sender",
                    "type": "address"
                },
                {
                    "indexed": true,
                    "internalType": "address",
                    "name": "paymaster",
                    "type": "address"
                },
                {
                    "indexed": false,
                    "internalType": "uint256",
                    "name": "nonce",
                    "type": "uint256"
                },
                {
                    "indexed": false,
                    "internalType": "bool",
                    "name": "success",
                    "type": "bool"
                },
                {
                    "indexed": false,
                    "internalType": "uint256",
                    "name": "actualGasCost",
                    "type": "uint256"
                },
                {
                    "indexed": false,
                    "internalType": "uint256",
                    "name": "actualGasUsed",
                    "type": "uint256"
                }
            ],
            "name": "UserOperationEvent",
            "type": "event"
        },
        {
            "anonymous": false,
            "inputs": [
                {
                    "indexed": true,
                    "internalType": "bytes32",
                    "name": "userOpHash",
                    "type": "bytes32"
                },
                {
                    "indexed": true,
                    "internalType": "address",
                    "name": "sender",
                    "type": "address"
                },
                {
                    "indexed": false,
                    "internalType": "uint256",
                    "name": "nonce",
                    "type": "uint256"
                },
                {
                    "indexed": false,
                    "internalType": "bytes",
                    "name": "revertReason",
                    "type": "bytes"
                }
            ],
            "name": "UserOperationRevertReason",
            "type": "event"
        },
        {
            "anonymous": false,
            "inputs": [
                {
                    "indexed": true,
                    "internalType": "address",
                    "name": "account",
                    "type": "address"
                },
                {
                    "indexed": false,
                    "internalType": "address",
                    "name": "withdrawAddress",
                    "type": "address"
                },
                {
                    "indexed": false,
                    "internalType": "uint256",
                    "name": "amount",
                    "type": "uint256"
                }
            ],
            "name": "Withdrawn",
            "type": "event"
        },
        {
            "inputs": [],
            "name": "SIG_VALIDATION_FAILED",
            "outputs": [
                {
                    "internalType": "uint256",
                    "name": "",
                    "type": "uint256"
                }
            ],
            "stateMutability": "view",
            "type": "function"
        },
        {
            "inputs": [
                {
                    "internalType": "bytes",
                    "name": "initCode",
                    "type": "bytes"
                },
                {
                    "internalType": "address",
                    "name": "sender",
                    "type": "address"
                },
                {
                    "internalType": "bytes",
                    "name": "paymasterAndData",
                    "type": "bytes"
                }
            ],
            "name": "_validateSenderAndPaymaster",
            "outputs": [],
            "stateMutability": "view",
            "type": "function"
        },
        {
            "inputs": [
                {
                    "internalType": "uint32",
                    "name": "unstakeDelaySec",
                    "type": "uint32"
                }
            ],
            "name": "addStake",
            "outputs": [],
            "stateMutability": "payable",
            "type": "function"
        },
        {
            "inputs": [
                {
                    "internalType": "address",
                    "name": "account",
                    "type": "address"
                }
            ],
            "name": "balanceOf",
            "outputs": [
                {
                    "internalType": "uint256",
                    "name": "",
                    "type": "uint256"
                }
            ],
            "stateMutability": "view",
            "type": "function"
        },
        {
            "inputs": [
                {
                    "internalType": "address",
                    "name": "account",
                    "type": "address"
                }
            ],
            "name": "depositTo",
            "outputs": [],
            "stateMutability": "payable",
            "type": "function"
        },
        {
            "inputs": [
                {
                    "internalType": "address",
                    "name": "",
                    "type": "address"
                }
            ],
            "name": "deposits",
            "outputs": [
                {
                    "internalType": "uint112",
                    "name": "deposit",
                    "type": "uint112"
                },
                {
                    "internalType": "bool",
                    "name": "staked",
                    "type": "bool"
                },
                {
                    "internalType": "uint112",
                    "name": "stake",
                    "type": "uint112"
                },
                {
                    "internalType": "uint32",
                    "name": "unstakeDelaySec",
                    "type": "uint32"
                },
                {
                    "internalType": "uint48",
                    "name": "withdrawTime",
                    "type": "uint48"
                }
            ],
            "stateMutability": "view",
            "type": "function"
        },
        {
            "inputs": [
                {
                    "internalType": "address",
                    "name": "account",
                    "type": "address"
                }
            ],
            "name": "getDepositInfo",
            "outputs": [
                {
                    "components": [
                        {
                            "internalType": "uint112",
                            "name": "deposit",
                            "type": "uint112"
                        },
                        {
                            "internalType": "bool",
                            "name": "staked",
                            "type": "bool"
                        },
                        {
                            "internalType": "uint112",
                            "name": "stake",
                            "type": "uint112"
                        },
                        {
                            "internalType": "uint32",
                            "name": "unstakeDelaySec",
                            "type": "uint32"
                        },
                        {
                            "internalType": "uint48",
                            "name": "withdrawTime",
                            "type": "uint48"
                        }
                    ],
                    "internalType": "struct IStakeManager.DepositInfo",
                    "name": "info",
                    "type": "tuple"
                }
            ],
            "stateMutability": "view",
            "type": "function"
        },
        {
            "inputs": [
                {
                    "internalType": "address",
                    "name": "sender",
                    "type": "address"
                },
                {
                    "internalType": "uint192",
                    "name": "key",
                    "type": "uint192"
                }
            ],
            "name": "getNonce",
            "outputs": [
                {
                    "internalType": "uint256",
                    "name": "nonce",
                    "type": "uint256"
                }
            ],
            "stateMutability": "view",
            "type": "function"
        },
        {
            "inputs": [
                {
                    "internalType": "bytes",
                    "name": "initCode",
                    "type": "bytes"
                }
            ],
            "name": "getSenderAddress",
            "outputs": [],
            "stateMutability": "nonpayable",
            "type": "function"
        },
        {
            "inputs": [
                {
                    "components": [
                        {
                            "internalType": "address",
                            "name": "sender",
                            "type": "address"
                        },
                        {
                            "internalType": "uint256",
                            "name": "nonce",
                            "type": "uint256"
                        },
                        {
                            "internalType": "bytes",
                            "name": "initCode",
                            "type": "bytes"
                        },
                        {
                            "internalType": "bytes",
                            "name": "callData",
                            "type": "bytes"
                        },
                        {
                            "internalType": "uint256",
                            "name": "callGasLimit",
                            "type": "uint256"
                        },
                        {
                            "internalType": "uint256",
                            "name": "verificationGasLimit",
                            "type": "uint256"
                        },
                        {
                            "internalType": "uint256",
                            "name": "preVerificationGas",
                            "type": "uint256"
                        },
                        {
                            "internalType": "uint256",
                            "name": "maxFeePerGas",
                            "type": "uint256"
                        },
                        {
                            "internalType": "uint256",
                            "name": "maxPriorityFeePerGas",
                            "type": "uint256"
                        },
                        {
                            "internalType": "bytes",
                            "name": "paymasterAndData",
                            "type": "bytes"
                        },
                        {
                            "internalType": "bytes",
                            "name": "signature",
                            "type": "bytes"
                        }
                    ],
                    "internalType": "struct UserOperation",
                    "name": "userOp",
                    "type": "tuple"
                }
            ],
            "name": "getUserOpHash",
            "outputs": [
                {
                    "internalType": "bytes32",
                    "name": "",
                    "type": "bytes32"
                }
            ],
            "stateMutability": "view",
            "type": "function"
        },
        {
            "inputs": [
                {
                    "components": [
                        {
                            "components": [
                                {
                                    "internalType": "address",
                                    "name": "sender",
                                    "type": "address"
                                },
                                {
                                    "internalType": "uint256",
                                    "name": "nonce",
                                    "type": "uint256"
                                },
                                {
                                    "internalType": "bytes",
                                    "name": "initCode",
                                    "type": "bytes"
                                },
                                {
                                    "internalType": "bytes",
                                    "name": "callData",
                                    "type": "bytes"
                                },
                                {
                                    "internalType": "uint256",
                                    "name": "callGasLimit",
                                    "type": "uint256"
                                },
                                {
                                    "internalType": "uint256",
                                    "name": "verificationGasLimit",
                                    "type": "uint256"
                                },
                                {
                                    "internalType": "uint256",
                                    "name": "preVerificationGas",
                                    "type": "uint256"
                                },
                                {
                                    "internalType": "uint256",
                                    "name": "maxFeePerGas",
                                    "type": "uint256"
                                },
                                {
                                    "internalType": "uint256",
                                    "name": "maxPriorityFeePerGas",
                                    "type": "uint256"
                                },
                                {
                                    "internalType": "bytes",
                                    "name": "paymasterAndData",
                                    "type": "bytes"
                                },
                                {
                                    "internalType": "bytes",
                                    "name": "signature",
                                    "type": "bytes"
                                }
                            ],
                            "internalType": "struct UserOperation[]",
                            "name": "userOps",
                            "type": "tuple[]"
                        },
                        {
                            "internalType": "contract IAggregator",
                            "name": "aggregator",
                            "type": "address"
                        },
                        {
                            "internalType": "bytes",
                            "name": "signature",
                            "type": "bytes"
                        }
                    ],
                    "internalType": "struct IEntryPoint.UserOpsPerAggregator[]",
                    "name": "opsPerAggregator",
                    "type": "tuple[]"
                },
                {
                    "internalType": "address payable",
                    "name": "beneficiary",
                    "type": "address"
                }
            ],
            "name": "handleAggregatedOps",
            "outputs": [],
            "stateMutability": "nonpayable",
            "type": "function"
        },
        {
            "inputs": [
                {
                    "components": [
                        {
                            "internalType": "address",
                            "name": "sender",
                            "type": "address"
                        },
                        {
                            "internalType": "uint256",
                            "name": "nonce",
                            "type": "uint256"
                        },
                        {
                            "internalType": "bytes",
                            "name": "initCode",
                            "type": "bytes"
                        },
                        {
                            "internalType": "bytes",
                            "name": "callData",
                            "type": "bytes"
                        },
                        {
                            "internalType": "uint256",
                            "name": "callGasLimit",
                            "type": "uint256"
                        },
                        {
                            "internalType": "uint256",
                            "name": "verificationGasLimit",
                            "type": "uint256"
                        },
                        {
                            "internalType": "uint256",
                            "name": "preVerificationGas",
                            "type": "uint256"
                        },
                        {
                            "internalType": "uint256",
                            "name": "maxFeePerGas",
                            "type": "uint256"
                        },
                        {
                            "internalType": "uint256",
                            "name": "maxPriorityFeePerGas",
                            "type": "uint256"
                        },
                        {
                            "internalType": "bytes",
                            "name": "paymasterAndData",
                            "type": "bytes"
                        },
                        {
                            "internalType": "bytes",
                            "name": "signature",
                            "type": "bytes"
                        }
                    ],
                    "internalType": "struct UserOperation[]",
                    "name": "ops",
                    "type": "tuple[]"
                },
                {
                    "internalType": "address payable",
                    "name": "beneficiary",
                    "type": "address"
                }
            ],
            "name": "handleOps",
            "outputs": [],
            "stateMutability": "nonpayable",
            "type": "function"
        },
        {
            "inputs": [
                {
                    "internalType": "uint192",
                    "name": "key",
                    "type": "uint192"
                }
            ],
            "name": "incrementNonce",
            "outputs": [],
            "stateMutability": "nonpayable",
            "type": "function"
        },
        {
            "inputs": [
                {
                    "internalType": "bytes",
                    "name": "callData",
                    "type": "bytes"
                },
                {
                    "components": [
                        {
                            "components": [
                                {
                                    "internalType": "address",
                                    "name": "sender",
                                    "type": "address"
                                },
                                {
                                    "internalType": "uint256",
                                    "name": "nonce",
                                    "type": "uint256"
                                },
                                {
                                    "internalType": "uint256",
                                    "name": "callGasLimit",
                                    "type": "uint256"
                                },
                                {
                                    "internalType": "uint256",
                                    "name": "verificationGasLimit",
                                    "type": "uint256"
                                },
                                {
                                    "internalType": "uint256",
                                    "name": "preVerificationGas",
                                    "type": "uint256"
                                },
                                {
                                    "internalType": "address",
                                    "name": "paymaster",
                                    "type": "address"
                                },
                                {
                                    "internalType": "uint256",
                                    "name": "maxFeePerGas",
                                    "type": "uint256"
                                },
                                {
                                    "internalType": "uint256",
                                    "name": "maxPriorityFeePerGas",
                                    "type": "uint256"
                                }
                            ],
                            "internalType": "struct EntryPoint.MemoryUserOp",
                            "name": "mUserOp",
                            "type": "tuple"
                        },
                        {
                            "internalType": "bytes32",
                            "name": "userOpHash",
                            "type": "bytes32"
                        },
                        {
                            "internalType": "uint256",
                            "name": "prefund",
                            "type": "uint256"
                        },
                        {
                            "internalType": "uint256",
                            "name": "contextOffset",
                            "type": "uint256"
                        },
                        {
                            "internalType": "uint256",
                            "name": "preOpGas",
                            "type": "uint256"
                        }
                    ],
                    "internalType": "struct EntryPoint.UserOpInfo",
                    "name": "opInfo",
                    "type": "tuple"
                },
                {
                    "internalType": "bytes",
                    "name": "context",
                    "type": "bytes"
                }
            ],
            "name": "innerHandleOp",
            "outputs": [
                {
                    "internalType": "uint256",
                    "name": "actualGasCost",
                    "type": "uint256"
                }
            ],
            "stateMutability": "nonpayable",
            "type": "function"
        },
        {
            "inputs": [
                {
                    "internalType": "address",
                    "name": "",
                    "type": "address"
                },
                {
                    "internalType": "uint192",
                    "name": "",
                    "type": "uint192"
                }
            ],
            "name": "nonceSequenceNumber",
            "outputs": [
                {
                    "internalType": "uint256",
                    "name": "",
                    "type": "uint256"
                }
            ],
            "stateMutability": "view",
            "type": "function"
        },
        {
            "inputs": [
                {
                    "components": [
                        {
                            "internalType": "address",
                            "name": "sender",
                            "type": "address"
                        },
                        {
                            "internalType": "uint256",
                            "name": "nonce",
                            "type": "uint256"
                        },
                        {
                            "internalType": "bytes",
                            "name": "initCode",
                            "type": "bytes"
                        },
                        {
                            "internalType": "bytes",
                            "name": "callData",
                            "type": "bytes"
                        },
                        {
                            "internalType": "uint256",
                            "name": "callGasLimit",
                            "type": "uint256"
                        },
                        {
                            "internalType": "uint256",
                            "name": "verificationGasLimit",
                            "type": "uint256"
                        },
                        {
                            "internalType": "uint256",
                            "name": "preVerificationGas",
                            "type": "uint256"
                        },
                        {
                            "internalType": "uint256",
                            "name": "maxFeePerGas",
                            "type": "uint256"
                        },
                        {
                            "internalType": "uint256",
                            "name": "maxPriorityFeePerGas",
                            "type": "uint256"
                        },
                        {
                            "internalType": "bytes",
                            "name": "paymasterAndData",
                            "type": "bytes"
                        },
                        {
                            "internalType": "bytes",
                            "name": "signature",
                            "type": "bytes"
                        }
                    ],
                    "internalType": "struct UserOperation",
                    "name": "op",
                    "type": "tuple"
                },
                {
                    "internalType": "address",
                    "name": "target",
                    "type": "address"
                },
                {
                    "internalType": "bytes",
                    "name": "targetCallData",
                    "type": "bytes"
                }
            ],
            "name": "simulateHandleOp",
            "outputs": [],
            "stateMutability": "nonpayable",
            "type": "function"
        },
        {
            "inputs": [
                {
                    "components": [
                        {
                            "internalType": "address",
                            "name": "sender",
                            "type": "address"
                        },
                        {
                            "internalType": "uint256",
                            "name": "nonce",
                            "type": "uint256"
                        },
                        {
                            "internalType": "bytes",
                            "name": "initCode",
                            "type": "bytes"
                        },
                        {
                            "internalType": "bytes",
                            "name": "callData",
                            "type": "bytes"
                        },
                        {
                            "internalType": "uint256",
                            "name": "callGasLimit",
                            "type": "uint256"
                        },
                        {
                            "internalType": "uint256",
                            "name": "verificationGasLimit",
                            "type": "uint256"
                        },
                        {
                            "internalType": "uint256",
                            "name": "preVerificationGas",
                            "type": "uint256"
                        },
                        {
                            "internalType": "uint256",
                            "name": "maxFeePerGas",
                            "type": "uint256"
                        },
                        {
                            "internalType": "uint256",
                            "name": "maxPriorityFeePerGas",
                            "type": "uint256"
                        },
                        {
                            "internalType": "bytes",
                            "name": "paymasterAndData",
                            "type": "bytes"
                        },
                        {
                            "internalType": "bytes",
                            "name": "signature",
                            "type": "bytes"
                        }
                    ],
                    "internalType": "struct UserOperation",
                    "name": "userOp",
                    "type": "tuple"
                }
            ],
            "name": "simulateValidation",
            "outputs": [],
            "stateMutability": "nonpayable",
            "type": "function"
        },
        {
            "inputs": [],
            "name": "unlockStake",
            "outputs": [],
            "stateMutability": "nonpayable",
            "type": "function"
        },
        {
            "inputs": [
                {
                    "internalType": "address payable",
                    "name": "withdrawAddress",
                    "type": "address"
                }
            ],
            "name": "withdrawStake",
            "outputs": [],
            "stateMutability": "nonpayable",
            "type": "function"
        },
        {
            "inputs": [
                {
                    "internalType": "address payable",
                    "name": "withdrawAddress",
                    "type": "address"
                },
                {
                    "internalType": "uint256",
                    "name": "withdrawAmount",
                    "type": "uint256"
                }
            ],
            "name": "withdrawTo",
            "outputs": [],
            "stateMutability": "nonpayable",
            "type": "function"
        },
        {
            "stateMutability": "payable",
            "type": "receive"
        }
    ],
    "bytecode": "0x60a0604052604051620000129062000055565b604051809103906000f0801580156200002f573d6000803e3d6000fd5b506001600160a01b03166080523480156200004957600080fd5b50600160025562000063565b6102338062004edb83390190565b608051614e556200008660003960008181611647015261395c0152614e556000f3fe6080604052600436106101635760003560e01c80638f41ec5a116100c0578063bb9fe6bf11610074578063d6383f9411610059578063d6383f9414610568578063ee21942314610588578063fc7e286d146105a857600080fd5b8063bb9fe6bf14610533578063c23a5cea1461054857600080fd5b80639b249f69116100a55780639b249f69146104e0578063a619353114610500578063b760faf91461052057600080fd5b80638f41ec5a146104ab578063957122ab146104c057600080fd5b8063205c2878116101175780634b1d7cf5116100fc5780634b1d7cf5146102e95780635287ce121461030957806370a082311461045857600080fd5b8063205c28781461023657806335567e1a1461025657600080fd5b80631b2e01b8116101485780631b2e01b8146101ab5780631d732756146101f65780631fad948c1461021657600080fd5b80630396cb60146101785780630bd28e3b1461018b57600080fd5b366101735761017133610682565b005b600080fd5b610171610186366004613ccc565b6106fd565b34801561019757600080fd5b506101716101a6366004613d1f565b610a80565b3480156101b757600080fd5b506101e36101c6366004613d67565b600160209081526000928352604080842090915290825290205481565b6040519081526020015b60405180910390f35b34801561020257600080fd5b506101e3610211366004613fbb565b610ac8565b34801561022257600080fd5b506101716102313660046140c6565b610c7b565b34801561024257600080fd5b5061017161025136600461411d565b610df8565b34801561026257600080fd5b506101e3610271366004613d67565b73ffffffffffffffffffffffffffffffffffffffff91909116600090815260016020908152604080832077ffffffffffffffffffffffffffffffffffffffffffffffff85168452909152908190205491901b7fffffffffffffffffffffffffffffffffffffffffffffffff0000000000000000161790565b3480156102f557600080fd5b506101716103043660046140c6565b610ffa565b34801561031557600080fd5b506103f9610324366004614149565b6040805160a0810182526000808252602082018190529181018290526060810182905260808101919091525073ffffffffffffffffffffffffffffffffffffffff1660009081526020818152604091829020825160a08101845281546dffffffffffffffffffffffffffff80821683526e010000000000000000000000000000820460ff161515948301949094526f0100000000000000000000000000000090049092169282019290925260019091015463ffffffff81166060830152640100000000900465ffffffffffff16608082015290565b6040805182516dffffffffffffffffffffffffffff908116825260208085015115159083015283830151169181019190915260608083015163ffffffff169082015260809182015165ffffffffffff169181019190915260a0016101ed565b34801561046457600080fd5b506101e3610473366004614149565b73ffffffffffffffffffffffffffffffffffffffff166000908152602081905260409020546dffffffffffffffffffffffffffff1690565b3480156104b757600080fd5b506101e3600181565b3480156104cc57600080fd5b506101716104db366004614166565b6114b2565b3480156104ec57600080fd5b506101716104fb3660046141eb565b611607565b34801561050c57600080fd5b506101e361051b366004614246565b61170e565b61017161052e366004614149565b610682565b34801561053f57600080fd5b50610171611750565b34801561055457600080fd5b50610171610563366004614149565b611901565b34801561057457600080fd5b5061017161058336600461427b565b611c01565b34801561059457600080fd5b506101716105a3366004614246565b611d2f565b3480156105b457600080fd5b506106356105c3366004614149565b600060208190529081526040902080546001909101546dffffffffffffffffffffffffffff808316926e010000000000000000000000000000810460ff16926f010000000000000000000000000000009091049091169063ffffffff811690640100000000900465ffffffffffff1685565b604080516dffffffffffffffffffffffffffff96871681529415156020860152929094169183019190915263ffffffff16606082015265ffffffffffff909116608082015260a0016101ed565b61068c8134612097565b73ffffffffffffffffffffffffffffffffffffffff811660008181526020818152604091829020805492516dffffffffffffffffffffffffffff909316835292917f2da466a7b24304f47e87fa2e1e5a81b9831ce54fec19055ce277ca2f39ba42c491015b60405180910390a25050565b33600090815260208190526040902063ffffffff821661077e576040517f08c379a000000000000000000000000000000000000000000000000000000000815260206004820152601a60248201527f6d757374207370656369667920756e7374616b652064656c617900000000000060448201526064015b60405180910390fd5b600181015463ffffffff90811690831610156107f6576040517f08c379a000000000000000000000000000000000000000000000000000000000815260206004820152601c60248201527f63616e6e6f7420646563726561736520756e7374616b652074696d65000000006044820152606401610775565b80546000906108299034906f0100000000000000000000000000000090046dffffffffffffffffffffffffffff1661430c565b905060008111610895576040517f08c379a000000000000000000000000000000000000000000000000000000000815260206004820152601260248201527f6e6f207374616b652073706563696669656400000000000000000000000000006044820152606401610775565b6dffffffffffffffffffffffffffff81111561090d576040517f08c379a000000000000000000000000000000000000000000000000000000000815260206004820152600e60248201527f7374616b65206f766572666c6f770000000000000000000000000000000000006044820152606401610775565b6040805160a08101825283546dffffffffffffffffffffffffffff90811682526001602080840182815286841685870190815263ffffffff808b16606088019081526000608089018181523380835296829052908a9020985189549551945189166f01000000000000000000000000000000027fffffff0000000000000000000000000000ffffffffffffffffffffffffffffff9515156e010000000000000000000000000000027fffffffffffffffffffffffffffffffffff0000000000000000000000000000009097169190991617949094179290921695909517865551949092018054925165ffffffffffff16640100000000027fffffffffffffffffffffffffffffffffffffffffffff00000000000000000000909316949093169390931717905590517fa5ae833d0bb1dcd632d98a8b70973e8516812898e19bf27b70071ebc8dc52c0190610a73908490879091825263ffffffff16602082015260400190565b60405180910390a2505050565b33600090815260016020908152604080832077ffffffffffffffffffffffffffffffffffffffffffffffff851684529091528120805491610ac083614324565b919050555050565b6000805a9050333014610b37576040517f08c379a000000000000000000000000000000000000000000000000000000000815260206004820152601760248201527f4141393220696e7465726e616c2063616c6c206f6e6c790000000000000000006044820152606401610775565b8451604081015160608201518101611388015a1015610b7a577fdeaddead0000000000000000000000000000000000000000000000000000000060005260206000fd5b875160009015610c1b576000610b97846000015160008c86612194565b905080610c19576000610bab6108006121ac565b805190915015610c1357846000015173ffffffffffffffffffffffffffffffffffffffff168a602001517f1c4fada7374c0a9ee8841fc38afe82932dc0f8e69012e927f061a8bae611a201876020015184604051610c0a9291906143d3565b60405180910390a35b60019250505b505b600088608001515a8603019050610c6d6000838b8b8b8080601f0160208091040260200160405190810160405280939291908181526020018383808284376000920191909152508892506121d8915050565b9a9950505050505050505050565b610c836125b7565b8160008167ffffffffffffffff811115610c9f57610c9f613d9c565b604051908082528060200260200182016040528015610cd857816020015b610cc5613c28565b815260200190600190039081610cbd5790505b50905060005b82811015610d51576000828281518110610cfa57610cfa6143ec565b60200260200101519050600080610d35848a8a87818110610d1d57610d1d6143ec565b9050602002810190610d2f919061441b565b85612629565b91509150610d46848383600061286d565b505050600101610cde565b506040516000907fbb47ee3e183a558b1a2ff0874b079f3fc5478b7454eacf2bfc5af2ff5878f972908290a160005b83811015610ddb57610dcf81888884818110610d9e57610d9e6143ec565b9050602002810190610db0919061441b565b858481518110610dc257610dc26143ec565b6020026020010151612ac2565b90910190600101610d80565b50610de68482612c48565b505050610df36001600255565b505050565b33600090815260208190526040902080546dffffffffffffffffffffffffffff16821115610e82576040517f08c379a000000000000000000000000000000000000000000000000000000000815260206004820152601960248201527f576974686472617720616d6f756e7420746f6f206c61726765000000000000006044820152606401610775565b8054610e9f9083906dffffffffffffffffffffffffffff16614459565b81547fffffffffffffffffffffffffffffffffffff0000000000000000000000000000166dffffffffffffffffffffffffffff919091161781556040805173ffffffffffffffffffffffffffffffffffffffff851681526020810184905233917fd1c19fbcd4551a5edfb66d43d2e337c04837afda3482b42bdf569a8fccdae5fb910160405180910390a260008373ffffffffffffffffffffffffffffffffffffffff168360405160006040518083038185875af1925050503d8060008114610f84576040519150601f19603f3d011682016040523d82523d6000602084013e610f89565b606091505b5050905080610ff4576040517f08c379a000000000000000000000000000000000000000000000000000000000815260206004820152601260248201527f6661696c656420746f20776974686472617700000000000000000000000000006044820152606401610775565b50505050565b6110026125b7565b816000805b828110156111dd5736868683818110611022576110226143ec565b90506020028101906110349190614470565b905036600061104383806144a4565b9092509050600061105a6040850160208601614149565b905073ffffffffffffffffffffffffffffffffffffffff8116600114156110dd576040517f08c379a000000000000000000000000000000000000000000000000000000000815260206004820152601760248201527f4141393620696e76616c69642061676772656761746f720000000000000000006044820152606401610775565b73ffffffffffffffffffffffffffffffffffffffff8116156111ba5773ffffffffffffffffffffffffffffffffffffffff811663e3563a4f8484611124604089018961450c565b6040518563ffffffff1660e01b81526004016111439493929190614722565b60006040518083038186803b15801561115b57600080fd5b505afa92505050801561116c575060015b6111ba576040517f86a9f75000000000000000000000000000000000000000000000000000000000815273ffffffffffffffffffffffffffffffffffffffff82166004820152602401610775565b6111c4828761430c565b95505050505080806111d590614324565b915050611007565b5060008167ffffffffffffffff8111156111f9576111f9613d9c565b60405190808252806020026020018201604052801561123257816020015b61121f613c28565b8152602001906001900390816112175790505b506040519091507fbb47ee3e183a558b1a2ff0874b079f3fc5478b7454eacf2bfc5af2ff5878f97290600090a16000805b84811015611347573688888381811061127e5761127e6143ec565b90506020028101906112909190614470565b905036600061129f83806144a4565b909250905060006112b66040850160208601614149565b90508160005b8181101561132e5760008989815181106112d8576112d86143ec565b602002602001015190506000806112fb8b898987818110610d1d57610d1d6143ec565b9150915061130b8483838961286d565b8a61131581614324565b9b5050505050808061132690614324565b9150506112bc565b505050505050808061133f90614324565b915050611263565b50600080915060005b8581101561146d573689898381811061136b5761136b6143ec565b905060200281019061137d9190614470565b905061138f6040820160208301614149565b73ffffffffffffffffffffffffffffffffffffffff167f575ff3acadd5ab348fe1855e217e0f3678f8d767d7494c9f9fefbee2e17cca4d60405160405180910390a23660006113de83806144a4565b90925090508060005b818110156114555761142988858584818110611405576114056143ec565b9050602002810190611417919061441b565b8b8b81518110610dc257610dc26143ec565b611433908861430c565b96508761143f81614324565b985050808061144d90614324565b9150506113e7565b5050505050808061146590614324565b915050611350565b506040516000907f575ff3acadd5ab348fe1855e217e0f3678f8d767d7494c9f9fefbee2e17cca4d908290a26114a38682612c48565b5050505050610df36001600255565b831580156114d5575073ffffffffffffffffffffffffffffffffffffffff83163b155b1561153c576040517f08c379a000000000000000000000000000000000000000000000000000000000815260206004820152601960248201527f41413230206163636f756e74206e6f74206465706c6f796564000000000000006044820152606401610775565b601481106115cb57600061155360148284866147d9565b61155c91614803565b60601c9050803b6115c9576040517f08c379a000000000000000000000000000000000000000000000000000000000815260206004820152601b60248201527f41413330207061796d6173746572206e6f74206465706c6f79656400000000006044820152606401610775565b505b6040517f08c379a00000000000000000000000000000000000000000000000000000000081526020600482015260006024820152604401610775565b6040517f570e1a3600000000000000000000000000000000000000000000000000000000815260009073ffffffffffffffffffffffffffffffffffffffff7f0000000000000000000000000000000000000000000000000000000000000000169063570e1a369061167e908690869060040161484b565b6020604051808303816000875af115801561169d573d6000803e3d6000fd5b505050506040513d601f19601f820116820180604052508101906116c1919061485f565b6040517f6ca7b80600000000000000000000000000000000000000000000000000000000815273ffffffffffffffffffffffffffffffffffffffff82166004820152909150602401610775565b600061171982612d8f565b6040805160208101929092523090820152466060820152608001604051602081830303815290604052805190602001209050919050565b336000908152602081905260409020600181015463ffffffff166117d0576040517f08c379a000000000000000000000000000000000000000000000000000000000815260206004820152600a60248201527f6e6f74207374616b6564000000000000000000000000000000000000000000006044820152606401610775565b80546e010000000000000000000000000000900460ff1661184d576040517f08c379a000000000000000000000000000000000000000000000000000000000815260206004820152601160248201527f616c726561647920756e7374616b696e670000000000000000000000000000006044820152606401610775565b60018101546000906118659063ffffffff164261487c565b6001830180547fffffffffffffffffffffffffffffffffffffffffffff000000000000ffffffff1664010000000065ffffffffffff84169081029190911790915583547fffffffffffffffffffffffffffffffffff00ffffffffffffffffffffffffffff16845560405190815290915033907ffa9b3c14cc825c412c9ed81b3ba365a5b459439403f18829e572ed53a4180f0a906020016106f1565b33600090815260208190526040902080546f0100000000000000000000000000000090046dffffffffffffffffffffffffffff168061199c576040517f08c379a000000000000000000000000000000000000000000000000000000000815260206004820152601460248201527f4e6f207374616b6520746f2077697468647261770000000000000000000000006044820152606401610775565b6001820154640100000000900465ffffffffffff16611a17576040517f08c379a000000000000000000000000000000000000000000000000000000000815260206004820152601d60248201527f6d7573742063616c6c20756e6c6f636b5374616b6528292066697273740000006044820152606401610775565b60018201544264010000000090910465ffffffffffff161115611a96576040517f08c379a000000000000000000000000000000000000000000000000000000000815260206004820152601b60248201527f5374616b65207769746864726177616c206973206e6f742064756500000000006044820152606401610775565b6001820180547fffffffffffffffffffffffffffffffffffffffffffff0000000000000000000016905581547fffffff0000000000000000000000000000ffffffffffffffffffffffffffffff1682556040805173ffffffffffffffffffffffffffffffffffffffff851681526020810183905233917fb7c918e0e249f999e965cafeb6c664271b3f4317d296461500e71da39f0cbda3910160405180910390a260008373ffffffffffffffffffffffffffffffffffffffff168260405160006040518083038185875af1925050503d8060008114611b91576040519150601f19603f3d011682016040523d82523d6000602084013e611b96565b606091505b5050905080610ff4576040517f08c379a000000000000000000000000000000000000000000000000000000000815260206004820152601860248201527f6661696c656420746f207769746864726177207374616b6500000000000000006044820152606401610775565b611c09613c28565b611c1285612da8565b600080611c2160008885612629565b915091506000611c318383612e9c565b9050611c3c43600052565b6000611c4a60008a87612ac2565b9050611c5543600052565b6000606073ffffffffffffffffffffffffffffffffffffffff8a1615611ce5578973ffffffffffffffffffffffffffffffffffffffff168989604051611c9c9291906148a6565b6000604051808303816000865af19150503d8060008114611cd9576040519150601f19603f3d011682016040523d82523d6000602084013e611cde565b606091505b5090925090505b8660800151838560200151866040015185856040517f8b7ac980000000000000000000000000000000000000000000000000000000008152600401610775969594939291906148b6565b611d37613c28565b611d4082612da8565b600080611d4f60008585612629565b845160a001516040805180820182526000808252602080830182815273ffffffffffffffffffffffffffffffffffffffff958616835282825284832080546dffffffffffffffffffffffffffff6f01000000000000000000000000000000918290048116875260019283015463ffffffff9081169094528d51518851808a018a5287815280870188815291909a16875286865288872080549390930490911689529101549091169052835180850190945281845283015293955091935090366000611e1d60408a018a61450c565b909250905060006014821015611e34576000611e4f565b611e426014600084866147d9565b611e4b91614803565b60601c5b6040805180820182526000808252602080830182815273ffffffffffffffffffffffffffffffffffffffff861683529082905292902080546f0100000000000000000000000000000090046dffffffffffffffffffffffffffff1682526001015463ffffffff1690915290915093505050506000611ecd8686612e9c565b90506000816000015190506000600173ffffffffffffffffffffffffffffffffffffffff168273ffffffffffffffffffffffffffffffffffffffff1614905060006040518060c001604052808b6080015181526020018b6040015181526020018315158152602001856020015165ffffffffffff168152602001856040015165ffffffffffff168152602001611f648c6060015190565b9052905073ffffffffffffffffffffffffffffffffffffffff831615801590611fa4575073ffffffffffffffffffffffffffffffffffffffff8316600114155b1561205d5760408051808201825273ffffffffffffffffffffffffffffffffffffffff851680825282518084018452600080825260208083018281529382528181529085902080546f0100000000000000000000000000000090046dffffffffffffffffffffffffffff1683526001015463ffffffff169092529082015290517ffaecb4e4000000000000000000000000000000000000000000000000000000008152610775908390899089908c908690600401614958565b808686896040517fe0cff05f00000000000000000000000000000000000000000000000000000000815260040161077594939291906149e5565b73ffffffffffffffffffffffffffffffffffffffff8216600090815260208190526040812080549091906120dc9084906dffffffffffffffffffffffffffff1661430c565b90506dffffffffffffffffffffffffffff811115612156576040517f08c379a000000000000000000000000000000000000000000000000000000000815260206004820152601060248201527f6465706f736974206f766572666c6f77000000000000000000000000000000006044820152606401610775565b81547fffffffffffffffffffffffffffffffffffff0000000000000000000000000000166dffffffffffffffffffffffffffff919091161790555050565b6000806000845160208601878987f195945050505050565b60603d828111156121ba5750815b604051602082018101604052818152816000602083013e9392505050565b6000805a8551909150600090816121ee82612f82565b60a083015190915073ffffffffffffffffffffffffffffffffffffffff811661221a5782519350612469565b80935060008851111561246957868202955060028a600281111561224057612240614a3c565b146122d85760608301516040517fa9a2340900000000000000000000000000000000000000000000000000000000815273ffffffffffffffffffffffffffffffffffffffff83169163a9a23409916122a0908e908d908c90600401614a6b565b600060405180830381600088803b1580156122ba57600080fd5b5087f11580156122ce573d6000803e3d6000fd5b5050505050612469565b60608301516040517fa9a2340900000000000000000000000000000000000000000000000000000000815273ffffffffffffffffffffffffffffffffffffffff83169163a9a2340991612333908e908d908c90600401614a6b565b600060405180830381600088803b15801561234d57600080fd5b5087f19350505050801561235f575060015b6124695761236b614acb565b806308c379a014156123fc5750612380614ae7565b8061238b57506123fe565b8b8160405160200161239d9190614b8f565b604080517fffffffffffffffffffffffffffffffffffffffffffffffffffffffffffffffe0818403018152908290527f220266b600000000000000000000000000000000000000000000000000000000825261077592916004016143d3565b505b8a6040517f220266b60000000000000000000000000000000000000000000000000000000081526004016107759181526040602082018190526012908201527f4141353020706f73744f70207265766572740000000000000000000000000000606082015260800190565b5a850387019650818702955085896040015110156124eb578a6040517f220266b600000000000000000000000000000000000000000000000000000000815260040161077591815260406020808301829052908201527f414135312070726566756e642062656c6f772061637475616c476173436f7374606082015260800190565b60408901518690036124fd8582612097565b6000808c600281111561251257612512614a3c565b1490508460a0015173ffffffffffffffffffffffffffffffffffffffff16856000015173ffffffffffffffffffffffffffffffffffffffff168c602001517f49628fd1471006c1482da88028e9ce4dbb080b815c9b0344d39e5a8e6ec1419f8860200151858d8f60405161259f949392919093845291151560208401526040830152606082015260800190565b60405180910390a45050505050505095945050505050565b600280541415612623576040517f08c379a000000000000000000000000000000000000000000000000000000000815260206004820152601f60248201527f5265656e7472616e637947756172643a207265656e7472616e742063616c6c006044820152606401610775565b60028055565b60008060005a845190915061263e8682612fb3565b6126478661170e565b6020860152604081015160608201516080830151171760e087013517610100870135176effffffffffffffffffffffffffffff8111156126e3576040517f08c379a000000000000000000000000000000000000000000000000000000000815260206004820152601860248201527f41413934206761732076616c756573206f766572666c6f7700000000000000006044820152606401610775565b6000806126ef846130d3565b90506126fd8a8a8a8461312d565b855160208701519199509193506127149190613444565b61278357896040517f220266b6000000000000000000000000000000000000000000000000000000008152600401610775918152604060208201819052601a908201527f4141323520696e76616c6964206163636f756e74206e6f6e6365000000000000606082015260800190565b61278c43600052565b60a084015160609073ffffffffffffffffffffffffffffffffffffffff16156127c1576127bc8b8b8b858761349f565b975090505b60005a87039050808b60a00135101561283f578b6040517f220266b6000000000000000000000000000000000000000000000000000000008152600401610775918152604060208201819052601e908201527f41413430206f76657220766572696669636174696f6e4761734c696d69740000606082015260800190565b60408a018390528160608b015260c08b01355a8803018a608001818152505050505050505050935093915050565b60008061287985613763565b915091508173ffffffffffffffffffffffffffffffffffffffff168373ffffffffffffffffffffffffffffffffffffffff161461291b57856040517f220266b60000000000000000000000000000000000000000000000000000000081526004016107759181526040602082018190526014908201527f41413234207369676e6174757265206572726f72000000000000000000000000606082015260800190565b801561298c57856040517f220266b60000000000000000000000000000000000000000000000000000000081526004016107759181526040602082018190526017908201527f414132322065787069726564206f72206e6f7420647565000000000000000000606082015260800190565b600061299785613763565b9250905073ffffffffffffffffffffffffffffffffffffffff811615612a2257866040517f220266b60000000000000000000000000000000000000000000000000000000081526004016107759181526040602082018190526014908201527f41413334207369676e6174757265206572726f72000000000000000000000000606082015260800190565b8115612ab957866040517f220266b60000000000000000000000000000000000000000000000000000000081526004016107759181526040602082018190526021908201527f41413332207061796d61737465722065787069726564206f72206e6f7420647560608201527f6500000000000000000000000000000000000000000000000000000000000000608082015260a00190565b50505050505050565b6000805a90506000612ad5846060015190565b905030631d732756612aea606088018861450c565b87856040518563ffffffff1660e01b8152600401612b0b9493929190614bd4565b6020604051808303816000875af1925050508015612b64575060408051601f3d9081017fffffffffffffffffffffffffffffffffffffffffffffffffffffffffffffffe0168201909252612b6191810190614c95565b60015b612c3c57600060206000803e506000517fdeaddead00000000000000000000000000000000000000000000000000000000811415612c0757866040517f220266b6000000000000000000000000000000000000000000000000000000008152600401610775918152604060208201819052600f908201527f41413935206f7574206f66206761730000000000000000000000000000000000606082015260800190565b600085608001515a612c199086614459565b612c23919061430c565b9050612c338860028886856121d8565b94505050612c3f565b92505b50509392505050565b73ffffffffffffffffffffffffffffffffffffffff8216612cc5576040517f08c379a000000000000000000000000000000000000000000000000000000000815260206004820152601860248201527f4141393020696e76616c69642062656e656669636961727900000000000000006044820152606401610775565b60008273ffffffffffffffffffffffffffffffffffffffff168260405160006040518083038185875af1925050503d8060008114612d1f576040519150601f19603f3d011682016040523d82523d6000602084013e612d24565b606091505b5050905080610df3576040517f08c379a000000000000000000000000000000000000000000000000000000000815260206004820152601f60248201527f41413931206661696c65642073656e6420746f2062656e6566696369617279006044820152606401610775565b6000612d9a826137b3565b805190602001209050919050565b3063957122ab612dbb604084018461450c565b612dc86020860186614149565b612dd661012087018761450c565b6040518663ffffffff1660e01b8152600401612df6959493929190614cae565b60006040518083038186803b158015612e0e57600080fd5b505afa925050508015612e1f575060015b612e9957612e2b614acb565b806308c379a01415612e8d5750612e40614ae7565b80612e4b5750612e8f565b805115612e89576000816040517f220266b60000000000000000000000000000000000000000000000000000000081526004016107759291906143d3565b5050565b505b3d6000803e3d6000fd5b50565b6040805160608101825260008082526020820181905291810182905290612ec2846137f2565b90506000612ecf846137f2565b825190915073ffffffffffffffffffffffffffffffffffffffff8116612ef3575080515b602080840151604080860151928501519085015191929165ffffffffffff8083169085161015612f21578193505b8065ffffffffffff168365ffffffffffff161115612f3d578092505b50506040805160608101825273ffffffffffffffffffffffffffffffffffffffff909416845265ffffffffffff92831660208501529116908201529250505092915050565b60c081015160e08201516000919080821415612f9f575092915050565b612fab8248830161386d565b949350505050565b612fc06020830183614149565b73ffffffffffffffffffffffffffffffffffffffff16815260208083013590820152608080830135604083015260a0830135606083015260c0808401359183019190915260e080840135918301919091526101008301359082015236600061302c61012085018561450c565b909250905080156130c65760148110156130a2576040517f08c379a000000000000000000000000000000000000000000000000000000000815260206004820152601d60248201527f4141393320696e76616c6964207061796d6173746572416e64446174610000006044820152606401610775565b6130b06014600083856147d9565b6130b991614803565b60601c60a0840152610ff4565b600060a084015250505050565b60a0810151600090819073ffffffffffffffffffffffffffffffffffffffff166130fe576001613101565b60035b60ff16905060008360800151828560600151028560400151010190508360c00151810292505050919050565b60008060005a8551805191925090613152898861314d60408c018c61450c565b613885565b60a082015161316043600052565b600073ffffffffffffffffffffffffffffffffffffffff82166131c95773ffffffffffffffffffffffffffffffffffffffff83166000908152602081905260409020546dffffffffffffffffffffffffffff168881116131c2578089036131c5565b60005b9150505b606084015160208a01516040517f3a871cdd00000000000000000000000000000000000000000000000000000000815273ffffffffffffffffffffffffffffffffffffffff861692633a871cdd929091613229918f918790600401614cf1565b60206040518083038160008887f193505050508015613283575060408051601f3d9081017fffffffffffffffffffffffffffffffffffffffffffffffffffffffffffffffe016820190925261328091810190614c95565b60015b61332e5761328f614acb565b806308c379a014156132c157506132a4614ae7565b806132af57506132c3565b8b8160405160200161239d9190614d16565b505b8a6040517f220266b60000000000000000000000000000000000000000000000000000000081526004016107759181526040602082018190526016908201527f4141323320726576657274656420286f72204f4f472900000000000000000000606082015260800190565b955073ffffffffffffffffffffffffffffffffffffffff82166134315773ffffffffffffffffffffffffffffffffffffffff8316600090815260208190526040902080546dffffffffffffffffffffffffffff16808a11156133f5578c6040517f220266b60000000000000000000000000000000000000000000000000000000081526004016107759181526040602082018190526017908201527f41413231206469646e2774207061792070726566756e64000000000000000000606082015260800190565b81547fffffffffffffffffffffffffffffffffffff000000000000000000000000000016908a90036dffffffffffffffffffffffffffff161790555b5a85039650505050505094509492505050565b73ffffffffffffffffffffffffffffffffffffffff8216600090815260016020908152604080832084821c808552925282208054849167ffffffffffffffff831691908561349183614324565b909155501495945050505050565b82516060818101519091600091848111613515576040517f08c379a000000000000000000000000000000000000000000000000000000000815260206004820152601f60248201527f4141343120746f6f206c6974746c6520766572696669636174696f6e476173006044820152606401610775565b60a082015173ffffffffffffffffffffffffffffffffffffffff8116600090815260208190526040902080548784039291906dffffffffffffffffffffffffffff16898110156135ca578c6040517f220266b6000000000000000000000000000000000000000000000000000000008152600401610775918152604060208201819052601e908201527f41413331207061796d6173746572206465706f73697420746f6f206c6f770000606082015260800190565b8981038260000160006101000a8154816dffffffffffffffffffffffffffff02191690836dffffffffffffffffffffffffffff1602179055508273ffffffffffffffffffffffffffffffffffffffff1663f465c77e858e8e602001518e6040518563ffffffff1660e01b815260040161364593929190614cf1565b60006040518083038160008887f1935050505080156136a457506040513d6000823e601f3d9081017fffffffffffffffffffffffffffffffffffffffffffffffffffffffffffffffe01682016040526136a19190810190614d5b565b60015b61374f576136b0614acb565b806308c379a014156136e257506136c5614ae7565b806136d057506136e4565b8d8160405160200161239d9190614de7565b505b8c6040517f220266b60000000000000000000000000000000000000000000000000000000081526004016107759181526040602082018190526016908201527f4141333320726576657274656420286f72204f4f472900000000000000000000606082015260800190565b909e909d509b505050505050505050505050565b6000808261377657506000928392509050565b6000613781846137f2565b9050806040015165ffffffffffff164211806137a85750806020015165ffffffffffff1642105b905194909350915050565b60603660006137c661014085018561450c565b915091508360208184030360405194506020810185016040528085528082602087013750505050919050565b60408051606081018252600080825260208201819052918101919091528160a081901c65ffffffffffff811661382b575065ffffffffffff5b6040805160608101825273ffffffffffffffffffffffffffffffffffffffff909316835260d09490941c602083015265ffffffffffff16928101929092525090565b600081831061387c578161387e565b825b9392505050565b8015610ff45782515173ffffffffffffffffffffffffffffffffffffffff81163b1561391657846040517f220266b6000000000000000000000000000000000000000000000000000000008152600401610775918152604060208201819052601f908201527f414131302073656e64657220616c726561647920636f6e737472756374656400606082015260800190565b8351606001516040517f570e1a3600000000000000000000000000000000000000000000000000000000815260009173ffffffffffffffffffffffffffffffffffffffff7f0000000000000000000000000000000000000000000000000000000000000000169163570e1a369190613994908890889060040161484b565b60206040518083038160008887f11580156139b3573d6000803e3d6000fd5b50505050506040513d601f19601f820116820180604052508101906139d8919061485f565b905073ffffffffffffffffffffffffffffffffffffffff8116613a6057856040517f220266b6000000000000000000000000000000000000000000000000000000008152600401610775918152604060208201819052601b908201527f4141313320696e6974436f6465206661696c6564206f72204f4f470000000000606082015260800190565b8173ffffffffffffffffffffffffffffffffffffffff168173ffffffffffffffffffffffffffffffffffffffff1614613afd57856040517f220266b600000000000000000000000000000000000000000000000000000000815260040161077591815260406020808301829052908201527f4141313420696e6974436f6465206d7573742072657475726e2073656e646572606082015260800190565b73ffffffffffffffffffffffffffffffffffffffff81163b613b8357856040517f220266b600000000000000000000000000000000000000000000000000000000815260040161077591815260406020808301829052908201527f4141313520696e6974436f6465206d757374206372656174652073656e646572606082015260800190565b6000613b9260148286886147d9565b613b9b91614803565b60601c90508273ffffffffffffffffffffffffffffffffffffffff1686602001517fd51a9c61267aa6196961883ecf5ff2da6619c37dac0fa92122513fb32c032d2d83896000015160a00151604051613c1792919073ffffffffffffffffffffffffffffffffffffffff92831681529116602082015260400190565b60405180910390a350505050505050565b6040518060a00160405280613ca7604051806101000160405280600073ffffffffffffffffffffffffffffffffffffffff16815260200160008152602001600081526020016000815260200160008152602001600073ffffffffffffffffffffffffffffffffffffffff16815260200160008152602001600081525090565b8152602001600080191681526020016000815260200160008152602001600081525090565b600060208284031215613cde57600080fd5b813563ffffffff8116811461387e57600080fd5b803577ffffffffffffffffffffffffffffffffffffffffffffffff81168114613d1a57600080fd5b919050565b600060208284031215613d3157600080fd5b61387e82613cf2565b73ffffffffffffffffffffffffffffffffffffffff81168114612e9957600080fd5b8035613d1a81613d3a565b60008060408385031215613d7a57600080fd5b8235613d8581613d3a565b9150613d9360208401613cf2565b90509250929050565b7f4e487b7100000000000000000000000000000000000000000000000000000000600052604160045260246000fd5b60a0810181811067ffffffffffffffff82111715613deb57613deb613d9c565b60405250565b610100810181811067ffffffffffffffff82111715613deb57613deb613d9c565b7fffffffffffffffffffffffffffffffffffffffffffffffffffffffffffffffe0601f830116810181811067ffffffffffffffff82111715613e5657613e56613d9c565b6040525050565b600067ffffffffffffffff821115613e7757613e77613d9c565b50601f017fffffffffffffffffffffffffffffffffffffffffffffffffffffffffffffffe01660200190565b6000818303610180811215613eb757600080fd5b604051613ec381613dcb565b80925061010080831215613ed657600080fd5b6040519250613ee483613df1565b613eed85613d5c565b835260208501356020840152604085013560408401526060850135606084015260808501356080840152613f2360a08601613d5c565b60a084015260c085013560c084015260e085013560e084015282825280850135602083015250610120840135604082015261014084013560608201526101608401356080820152505092915050565b60008083601f840112613f8457600080fd5b50813567ffffffffffffffff811115613f9c57600080fd5b602083019150836020828501011115613fb457600080fd5b9250929050565b6000806000806101c08587031215613fd257600080fd5b843567ffffffffffffffff80821115613fea57600080fd5b818701915087601f830112613ffe57600080fd5b813561400981613e5d565b6040516140168282613e12565b8281528a602084870101111561402b57600080fd5b826020860160208301376000602084830101528098505050506140518860208901613ea3565b94506101a087013591508082111561406857600080fd5b5061407587828801613f72565b95989497509550505050565b60008083601f84011261409357600080fd5b50813567ffffffffffffffff8111156140ab57600080fd5b6020830191508360208260051b8501011115613fb457600080fd5b6000806000604084860312156140db57600080fd5b833567ffffffffffffffff8111156140f257600080fd5b6140fe86828701614081565b909450925050602084013561411281613d3a565b809150509250925092565b6000806040838503121561413057600080fd5b823561413b81613d3a565b946020939093013593505050565b60006020828403121561415b57600080fd5b813561387e81613d3a565b60008060008060006060868803121561417e57600080fd5b853567ffffffffffffffff8082111561419657600080fd5b6141a289838a01613f72565b9097509550602088013591506141b782613d3a565b909350604087013590808211156141cd57600080fd5b506141da88828901613f72565b969995985093965092949392505050565b600080602083850312156141fe57600080fd5b823567ffffffffffffffff81111561421557600080fd5b61422185828601613f72565b90969095509350505050565b6000610160828403121561424057600080fd5b50919050565b60006020828403121561425857600080fd5b813567ffffffffffffffff81111561426f57600080fd5b612fab8482850161422d565b6000806000806060858703121561429157600080fd5b843567ffffffffffffffff808211156142a957600080fd5b6142b58883890161422d565b9550602087013591506142c782613d3a565b9093506040860135908082111561406857600080fd5b7f4e487b7100000000000000000000000000000000000000000000000000000000600052601160045260246000fd5b6000821982111561431f5761431f6142dd565b500190565b60007fffffffffffffffffffffffffffffffffffffffffffffffffffffffffffffffff821415614356576143566142dd565b5060010190565b60005b83811015614378578181015183820152602001614360565b83811115610ff45750506000910152565b600081518084526143a181602086016020860161435d565b601f017fffffffffffffffffffffffffffffffffffffffffffffffffffffffffffffffe0169290920160200192915050565b828152604060208201526000612fab6040830184614389565b7f4e487b7100000000000000000000000000000000000000000000000000000000600052603260045260246000fd5b600082357ffffffffffffffffffffffffffffffffffffffffffffffffffffffffffffffea183360301811261444f57600080fd5b9190910192915050565b60008282101561446b5761446b6142dd565b500390565b600082357fffffffffffffffffffffffffffffffffffffffffffffffffffffffffffffffa183360301811261444f57600080fd5b60008083357fffffffffffffffffffffffffffffffffffffffffffffffffffffffffffffffe18436030181126144d957600080fd5b83018035915067ffffffffffffffff8211156144f457600080fd5b6020019150600581901b3603821315613fb457600080fd5b60008083357fffffffffffffffffffffffffffffffffffffffffffffffffffffffffffffffe184360301811261454157600080fd5b83018035915067ffffffffffffffff82111561455c57600080fd5b602001915036819003821315613fb457600080fd5b60008083357fffffffffffffffffffffffffffffffffffffffffffffffffffffffffffffffe18436030181126145a657600080fd5b830160208101925035905067ffffffffffffffff8111156145c657600080fd5b803603831315613fb457600080fd5b8183528181602085013750600060208284010152600060207fffffffffffffffffffffffffffffffffffffffffffffffffffffffffffffffe0601f840116840101905092915050565b600061016061464a8461463085613d5c565b73ffffffffffffffffffffffffffffffffffffffff169052565b602083013560208501526146616040840184614571565b82604087015261467483870182846145d5565b925050506146856060840184614571565b85830360608701526146988382846145d5565b925050506080830135608085015260a083013560a085015260c083013560c085015260e083013560e08501526101008084013581860152506101206146df81850185614571565b868403838801526146f18482846145d5565b935050505061014061470581850185614571565b868403838801526147178482846145d5565b979650505050505050565b6040808252810184905260006060600586901b830181019083018783805b898110156147c2577fffffffffffffffffffffffffffffffffffffffffffffffffffffffffffffffa087860301845282357ffffffffffffffffffffffffffffffffffffffffffffffffffffffffffffffea18c36030181126147a0578283fd5b6147ac868d830161461e565b9550506020938401939290920191600101614740565b5050505082810360208401526147178185876145d5565b600080858511156147e957600080fd5b838611156147f657600080fd5b5050820193919092039150565b7fffffffffffffffffffffffffffffffffffffffff00000000000000000000000081358181169160148510156148435780818660140360031b1b83161692505b505092915050565b602081526000612fab6020830184866145d5565b60006020828403121561487157600080fd5b815161387e81613d3a565b600065ffffffffffff80831681851680830382111561489d5761489d6142dd565b01949350505050565b8183823760009101908152919050565b868152856020820152600065ffffffffffff8087166040840152808616606084015250831515608083015260c060a08301526148f560c0830184614389565b98975050505050505050565b80518252602081015160208301526040810151151560408301526000606082015165ffffffffffff8082166060860152806080850151166080860152505060a082015160c060a0850152612fab60c0850182614389565b600061014080835261496c81840189614901565b915050614986602083018780518252602090810151910152565b845160608301526020948501516080830152835160a08301529284015160c0820152815173ffffffffffffffffffffffffffffffffffffffff1660e0820152908301518051610100830152909201516101209092019190915292915050565b60e0815260006149f860e0830187614901565b9050614a11602083018680518252602090810151910152565b8351606083015260208401516080830152825160a0830152602083015160c083015295945050505050565b7f4e487b7100000000000000000000000000000000000000000000000000000000600052602160045260246000fd5b600060038510614aa4577f4e487b7100000000000000000000000000000000000000000000000000000000600052602160045260246000fd5b84825260606020830152614abb6060830185614389565b9050826040830152949350505050565b600060033d1115614ae45760046000803e5060005160e01c5b90565b600060443d1015614af55790565b6040517ffffffffffffffffffffffffffffffffffffffffffffffffffffffffffffffffc803d016004833e81513d67ffffffffffffffff8160248401118184111715614b4357505050505090565b8285019150815181811115614b5b5750505050505090565b843d8701016020828501011115614b755750505050505090565b614b8460208286010187613e12565b509095945050505050565b7f4141353020706f73744f702072657665727465643a2000000000000000000000815260008251614bc781601685016020870161435d565b9190910160160192915050565b60006101c0808352614be981840187896145d5565b9050845173ffffffffffffffffffffffffffffffffffffffff808251166020860152602082015160408601526040820151606086015260608201516080860152608082015160a08601528060a08301511660c08601525060c081015160e085015260e08101516101008501525060208501516101208401526040850151610140840152606085015161016084015260808501516101808401528281036101a08401526147178185614389565b600060208284031215614ca757600080fd5b5051919050565b606081526000614cc26060830187896145d5565b73ffffffffffffffffffffffffffffffffffffffff8616602084015282810360408401526148f58185876145d5565b606081526000614d04606083018661461e565b60208301949094525060400152919050565b7f414132332072657665727465643a200000000000000000000000000000000000815260008251614d4e81600f85016020870161435d565b91909101600f0192915050565b60008060408385031215614d6e57600080fd5b825167ffffffffffffffff811115614d8557600080fd5b8301601f81018513614d9657600080fd5b8051614da181613e5d565b604051614dae8282613e12565b828152876020848601011115614dc357600080fd5b614dd483602083016020870161435d565b6020969096015195979596505050505050565b7f414133332072657665727465643a200000000000000000000000000000000000815260008251614d4e81600f85016020870161435d56fea2646970667358221220c9e5d17e90ae5c3d170a839836f984c271143fe801d93a421d9fd0d7b917106064736f6c634300080c0033608060405234801561001057600080fd5b50610213806100206000396000f3fe608060405234801561001057600080fd5b506004361061002b5760003560e01c8063570e1a3614610030575b600080fd5b61004361003e3660046100f9565b61006c565b60405173ffffffffffffffffffffffffffffffffffffffff909116815260200160405180910390f35b60008061007c601482858761016b565b61008591610195565b60601c90506000610099846014818861016b565b8080601f016020809104026020016040519081016040528093929190818152602001838380828437600092018290525084519495509360209350849250905082850182875af190506000519350806100f057600093505b50505092915050565b6000806020838503121561010c57600080fd5b823567ffffffffffffffff8082111561012457600080fd5b818501915085601f83011261013857600080fd5b81358181111561014757600080fd5b86602082850101111561015957600080fd5b60209290920196919550909350505050565b6000808585111561017b57600080fd5b8386111561018857600080fd5b5050820193919092039150565b7fffffffffffffffffffffffffffffffffffffffff00000000000000000000000081358181169160148510156101d55780818660140360031b1b83161692505b50509291505056fea2646970667358221220457380aa1cc501864e4f349895576566b678cf19f3df31db6c24dfcfde81715d64736f6c634300080c0033",
    "linkReferences": {},
    "deployedLinkReferences": {}
}