{"_format":"hh-sol-artifact-1","contractName":"FunWalletFactory","sourceName":"contracts/deployer/FunWalletFactory.sol","abi":[{"inputs":[{"internalType":"contract ICreate3Deployer","name":"_deployer","type":"address"},{"internalType":"address","name":"_funWalletImpAddress","type":"address"},{"internalType":"address","name":"_feeOracle","type":"address"},{"internalType":"contract IWalletInit","name":"_walletInit","type":"address"}],"stateMutability":"nonpayable","type":"constructor"},{"inputs":[{"internalType":"bytes","name":"initializerCallData","type":"bytes"},{"internalType":"address","name":"implementation","type":"address"},{"internalType":"bytes","name":"data","type":"bytes"}],"name":"createAccount","outputs":[{"internalType":"contract IFunWallet","name":"funWallet","type":"address"}],"stateMutability":"nonpayable","type":"function"},{"inputs":[],"name":"deployer","outputs":[{"internalType":"contract ICreate3Deployer","name":"","type":"address"}],"stateMutability":"view","type":"function"},{"inputs":[],"name":"deployerSalt","outputs":[{"internalType":"bytes32","name":"","type":"bytes32"}],"stateMutability":"view","type":"function"},{"inputs":[],"name":"feeOracle","outputs":[{"internalType":"address","name":"","type":"address"}],"stateMutability":"view","type":"function"},{"inputs":[],"name":"funWalletImpAddress","outputs":[{"internalType":"address","name":"","type":"address"}],"stateMutability":"view","type":"function"},{"inputs":[{"internalType":"bytes","name":"data","type":"bytes"}],"name":"getAddress","outputs":[{"internalType":"address","name":"","type":"address"}],"stateMutability":"view","type":"function"},{"inputs":[],"name":"getFeeOracle","outputs":[{"internalType":"address","name":"","type":"address"}],"stateMutability":"view","type":"function"},{"inputs":[{"internalType":"address","name":"_feeOracle","type":"address"}],"name":"setFeeOracle","outputs":[],"stateMutability":"nonpayable","type":"function"},{"inputs":[{"internalType":"bytes32","name":"salt","type":"bytes32"},{"internalType":"address","name":"sender","type":"address"}],"name":"verifyDeployedFrom","outputs":[{"internalType":"bool","name":"","type":"bool"}],"stateMutability":"view","type":"function"},{"inputs":[],"name":"walletInit","outputs":[{"internalType":"contract IWalletInit","name":"","type":"address"}],"stateMutability":"view","type":"function"}],"bytecode":"0x60e06040523480156200001157600080fd5b5060405162001644380380620016448339810160408190526200003491620001ee565b6001600160a01b0383811660a052600080548483166001600160a01b031990911617815582821660c052604080517f48ddd37a860aacadcd0d9b82996a80d1efd1f82edfd9626b5ae331216b76304e60248083019190915282518083039091018152604490910182526020810180516001600160e01b0316632ecd14d360e21b17905290519192839290881691620000cc9162000256565b600060405180830381855afa9150503d806000811462000109576040519150601f19603f3d011682016040523d82523d6000602084013e6200010e565b606091505b50915091508115806200012057508051155b156200015b5760405162461bcd60e51b81526020600482015260056024820152641195ce0c0d60da1b60448201526064015b60405180910390fd5b306001600160a01b0316818060200190518101906200017b919062000294565b6001600160a01b031614620001bb5760405162461bcd60e51b81526020600482015260056024820152641195ce0c0d60da1b604482015260640162000152565b5050506001600160a01b0390921660805250620002bb9050565b6001600160a01b0381168114620001eb57600080fd5b50565b600080600080608085870312156200020557600080fd5b84516200021281620001d5565b60208601519094506200022581620001d5565b60408601519093506200023881620001d5565b60608601519092506200024b81620001d5565b939692955090935050565b6000825160005b818110156200027957602081860181015185830152016200025d565b8181111562000289576000828501525b509190910192915050565b600060208284031215620002a757600080fd5b8151620002b481620001d5565b9392505050565b60805160a05160c0516113296200031b6000396000818160d80152818161042401526105b7015260008181610173015281816105090152818161069b015261074101526000818161023801528181610275015261034901526113296000f3fe60806040523480156200001157600080fd5b5060043610620000cd5760003560e01c8063a8a98962116200007f578063cd53f4b11162000062578063cd53f4b114620001e4578063cff5093414620001fb578063d5f39488146200023257600080fd5b8063a8a9896214620001b4578063c47cf5de14620001cd57600080fd5b80638671a13311620000b45780638671a13314620001455780638bb08620146200016d578063a2373867146200019557600080fd5b8063472b578f14620000d2578063500b19e71462000124575b600080fd5b620000fa7f000000000000000000000000000000000000000000000000000000000000000081565b60405173ffffffffffffffffffffffffffffffffffffffff90911681526020015b60405180910390f35b600054620000fa9073ffffffffffffffffffffffffffffffffffffffff1681565b6200015c6200015636600462000865565b6200025a565b60405190151581526020016200011b565b620000fa7f000000000000000000000000000000000000000000000000000000000000000081565b60005473ffffffffffffffffffffffffffffffffffffffff16620000fa565b620001cb620001c536600462000898565b62000331565b005b620000fa620001de36600462000904565b6200041c565b620000fa620001f53660046200094a565b620005b2565b620002237f48ddd37a860aacadcd0d9b82996a80d1efd1f82edfd9626b5ae331216b76304e81565b6040519081526020016200011b565b620000fa7f000000000000000000000000000000000000000000000000000000000000000081565b60008173ffffffffffffffffffffffffffffffffffffffff167f000000000000000000000000000000000000000000000000000000000000000073ffffffffffffffffffffffffffffffffffffffff1663bb34534c856040518263ffffffff1660e01b8152600401620002cf91815260200190565b602060405180830381865afa158015620002ed573d6000803e3d6000fd5b505050506040513d601f19601f82011682018060405250810190620003139190620009d8565b73ffffffffffffffffffffffffffffffffffffffff16149392505050565b3373ffffffffffffffffffffffffffffffffffffffff7f00000000000000000000000000000000000000000000000000000000000000001614620003d5576040517f08c379a000000000000000000000000000000000000000000000000000000000815260206004820152600560248201527f4657383032000000000000000000000000000000000000000000000000000000604482015260640160405180910390fd5b600080547fffffffffffffffffffffffff00000000000000000000000000000000000000001673ffffffffffffffffffffffffffffffffffffffff92909216919091179055565b6000620005ab7f000000000000000000000000000000000000000000000000000000000000000073ffffffffffffffffffffffffffffffffffffffff1663120c52c285856040518363ffffffff1660e01b81526004016200047f92919062000a41565b602060405180830381865afa1580156200049d573d6000803e3d6000fd5b505050506040513d601f19601f82011682018060405250810190620004c3919062000a5f565b604051620004d46020820162000831565b7fffffffffffffffffffffffffffffffffffffffffffffffffffffffffffffffe082820381018352601f9091011660408181527f000000000000000000000000000000000000000000000000000000000000000073ffffffffffffffffffffffffffffffffffffffff1660208301528082015260006060820152608001604080517fffffffffffffffffffffffffffffffffffffffffffffffffffffffffffffffe0818403018152908290526200058f929160200162000ab7565b60405160208183030381529060405280519060200120620007fe565b9392505050565b6000807f000000000000000000000000000000000000000000000000000000000000000073ffffffffffffffffffffffffffffffffffffffff1663b522c3c6888887876040518563ffffffff1660e01b815260040162000616949392919062000ad0565b602060405180830381865afa15801562000634573d6000803e3d6000fd5b505050506040513d601f19601f820116820180604052508101906200065a919062000a5f565b905060006200066a85856200041c565b905073ffffffffffffffffffffffffffffffffffffffff81163b80156200069657509150620007f59050565b6000837f0000000000000000000000000000000000000000000000000000000000000000604051620006c89062000831565b73ffffffffffffffffffffffffffffffffffffffff90911681526040602082018190526000908201526060018190604051809103906000f590508015801562000715573d6000803e3d6000fd5b50945084905073ffffffffffffffffffffffffffffffffffffffff8816156200073f578762000761565b7f00000000000000000000000000000000000000000000000000000000000000005b6040517f4192d25100000000000000000000000000000000000000000000000000000000815290985073ffffffffffffffffffffffffffffffffffffffff861690634192d25190620007bc908b908e908e9060040162000b06565b600060405180830381600087803b158015620007d757600080fd5b505af1158015620007ec573d6000803e3d6000fd5b50505050505050505b95945050505050565b6000620005ab8383306000604051836040820152846020820152828152600b8101905060ff815360559020949350505050565b6107bb8062000b3983390190565b73ffffffffffffffffffffffffffffffffffffffff811681146200086257600080fd5b50565b600080604083850312156200087957600080fd5b8235915060208301356200088d816200083f565b809150509250929050565b600060208284031215620008ab57600080fd5b8135620005ab816200083f565b60008083601f840112620008cb57600080fd5b50813567ffffffffffffffff811115620008e457600080fd5b602083019150836020828501011115620008fd57600080fd5b9250929050565b600080602083850312156200091857600080fd5b823567ffffffffffffffff8111156200093057600080fd5b6200093e85828601620008b8565b90969095509350505050565b6000806000806000606086880312156200096357600080fd5b853567ffffffffffffffff808211156200097c57600080fd5b6200098a89838a01620008b8565b909750955060208801359150620009a1826200083f565b90935060408701359080821115620009b857600080fd5b50620009c788828901620008b8565b969995985093965092949392505050565b600060208284031215620009eb57600080fd5b8151620005ab816200083f565b8183528181602085013750600060208284010152600060207fffffffffffffffffffffffffffffffffffffffffffffffffffffffffffffffe0601f840116840101905092915050565b60208152600062000a57602083018486620009f8565b949350505050565b60006020828403121562000a7257600080fd5b5051919050565b6000815160005b8181101562000a9c576020818501810151868301520162000a80565b8181111562000aac576000828601525b509290920192915050565b600062000a5762000ac9838662000a79565b8462000a79565b60408152600062000ae6604083018688620009f8565b828103602084015262000afb818587620009f8565b979650505050505050565b73ffffffffffffffffffffffffffffffffffffffff84168152604060208201526000620007f5604083018486620009f856fe60806040526040516107bb3803806107bb8339810160408190526100229161031e565b61002e82826000610035565b505061043b565b61003e8361006b565b60008251118061004b5750805b156100665761006483836100ab60201b6100291760201c565b505b505050565b610074816100d7565b6040516001600160a01b038216907fbc7cd75a20ee27fd9adebab32041f755214dbc6bffa90cc0225b39da2e5c2d3b90600090a250565b60606100d08383604051806060016040528060278152602001610794602791396101a9565b9392505050565b6100ea8161022260201b6100551760201c565b6101515760405162461bcd60e51b815260206004820152602d60248201527f455243313936373a206e657720696d706c656d656e746174696f6e206973206e60448201526c1bdd08184818dbdb9d1c9858dd609a1b60648201526084015b60405180910390fd5b806101887f360894a13ba1a3210667c828492db98dca3e2076cc3735a920a3ca505d382bbc60001b61023160201b6100711760201c565b80546001600160a01b0319166001600160a01b039290921691909117905550565b6060600080856001600160a01b0316856040516101c691906103ec565b600060405180830381855af49150503d8060008114610201576040519150601f19603f3d011682016040523d82523d6000602084013e610206565b606091505b50909250905061021886838387610234565b9695505050505050565b6001600160a01b03163b151590565b90565b606083156102a0578251610299576001600160a01b0385163b6102995760405162461bcd60e51b815260206004820152601d60248201527f416464726573733a2063616c6c20746f206e6f6e2d636f6e74726163740000006044820152606401610148565b50816102aa565b6102aa83836102b2565b949350505050565b8151156102c25781518083602001fd5b8060405162461bcd60e51b81526004016101489190610408565b634e487b7160e01b600052604160045260246000fd5b60005b8381101561030d5781810151838201526020016102f5565b838111156100645750506000910152565b6000806040838503121561033157600080fd5b82516001600160a01b038116811461034857600080fd5b60208401519092506001600160401b038082111561036557600080fd5b818501915085601f83011261037957600080fd5b81518181111561038b5761038b6102dc565b604051601f8201601f19908116603f011681019083821181831017156103b3576103b36102dc565b816040528281528860208487010111156103cc57600080fd5b6103dd8360208301602088016102f2565b80955050505050509250929050565b600082516103fe8184602087016102f2565b9190910192915050565b60208152600082518060208401526104278160408501602087016102f2565b601f01601f19169190910160400192915050565b61034a8061044a6000396000f3fe60806040523661001357610011610017565b005b6100115b610027610022610074565b6100b9565b565b606061004e83836040518060600160405280602781526020016102ee602791396100dd565b9392505050565b73ffffffffffffffffffffffffffffffffffffffff163b151590565b90565b60006100b47f360894a13ba1a3210667c828492db98dca3e2076cc3735a920a3ca505d382bbc5473ffffffffffffffffffffffffffffffffffffffff1690565b905090565b3660008037600080366000845af43d6000803e8080156100d8573d6000f35b3d6000fd5b60606000808573ffffffffffffffffffffffffffffffffffffffff16856040516101079190610280565b600060405180830381855af49150503d8060008114610142576040519150601f19603f3d011682016040523d82523d6000602084013e610147565b606091505b509150915061015886838387610162565b9695505050505050565b606083156101fa5782516101f35773ffffffffffffffffffffffffffffffffffffffff85163b6101f3576040517f08c379a000000000000000000000000000000000000000000000000000000000815260206004820152601d60248201527f416464726573733a2063616c6c20746f206e6f6e2d636f6e747261637400000060448201526064015b60405180910390fd5b5081610204565b610204838361020c565b949350505050565b81511561021c5781518083602001fd5b806040517f08c379a00000000000000000000000000000000000000000000000000000000081526004016101ea919061029c565b60005b8381101561026b578181015183820152602001610253565b8381111561027a576000848401525b50505050565b60008251610292818460208701610250565b9190910192915050565b60208152600082518060208401526102bb816040850160208701610250565b601f017fffffffffffffffffffffffffffffffffffffffffffffffffffffffffffffffe016919091016040019291505056fe416464726573733a206c6f772d6c6576656c2064656c65676174652063616c6c206661696c6564a264697066735822122049566e4d747a981964358845d0050b3cab02e1d62b560786b49bcf8afce295a864736f6c634300080c0033416464726573733a206c6f772d6c6576656c2064656c65676174652063616c6c206661696c6564a2646970667358221220153bc4b27de8aea2b3acf64c28f09911529c035f5909707781f05a83b329957e64736f6c634300080c0033","linkReferences":{},"deployedLinkReferences":{}}