{"_format":"hh-sol-artifact-1","contractName":"FunWallet","sourceName":"contracts/wallet/FunWallet.sol","abi":[{"anonymous":false,"inputs":[{"indexed":false,"internalType":"address","name":"previousAdmin","type":"address"},{"indexed":false,"internalType":"address","name":"newAdmin","type":"address"}],"name":"AdminChanged","type":"event"},{"anonymous":false,"inputs":[{"indexed":true,"internalType":"address","name":"beacon","type":"address"}],"name":"BeaconUpgraded","type":"event"},{"anonymous":false,"inputs":[{"indexed":true,"internalType":"address","name":"newEntryPoint","type":"address"}],"name":"EntryPointChanged","type":"event"},{"anonymous":false,"inputs":[{"indexed":false,"internalType":"uint8","name":"version","type":"uint8"}],"name":"Initialized","type":"event"},{"anonymous":false,"inputs":[{"indexed":true,"internalType":"address","name":"implementation","type":"address"}],"name":"Upgraded","type":"event"},{"inputs":[],"name":"VERSION","outputs":[{"internalType":"uint256","name":"","type":"uint256"}],"stateMutability":"view","type":"function"},{"inputs":[{"internalType":"address","name":"token","type":"address"},{"internalType":"address","name":"dest","type":"address"},{"internalType":"uint256","name":"amount","type":"uint256"}],"name":"_transferErc20","outputs":[],"stateMutability":"nonpayable","type":"function"},{"inputs":[{"internalType":"address","name":"validation","type":"address"},{"internalType":"bytes","name":"initdata","type":"bytes"}],"name":"addValidation","outputs":[],"stateMutability":"nonpayable","type":"function"},{"inputs":[],"name":"deployed","outputs":[{"internalType":"bool","name":"","type":"bool"}],"stateMutability":"view","type":"function"},{"inputs":[{"internalType":"uint256","name":"amount","type":"uint256"}],"name":"depositToEntryPoint","outputs":[],"stateMutability":"nonpayable","type":"function"},{"inputs":[],"name":"entryPoint","outputs":[{"internalType":"contract IEntryPoint","name":"","type":"address"}],"stateMutability":"view","type":"function"},{"inputs":[{"internalType":"address","name":"dest","type":"address"},{"internalType":"uint256","name":"value","type":"uint256"},{"internalType":"bytes","name":"data","type":"bytes"}],"name":"execFromEntryPoint","outputs":[],"stateMutability":"nonpayable","type":"function"},{"inputs":[{"internalType":"address","name":"dest","type":"address"},{"internalType":"uint256","name":"value","type":"uint256"},{"internalType":"bytes","name":"data","type":"bytes"},{"components":[{"internalType":"address","name":"token","type":"address"},{"internalType":"address","name":"recipient","type":"address"},{"internalType":"uint256","name":"amount","type":"uint256"}],"internalType":"struct UserOperationFee","name":"feedata","type":"tuple"}],"name":"execFromEntryPointWithFee","outputs":[],"stateMutability":"nonpayable","type":"function"},{"inputs":[{"internalType":"address","name":"dest","type":"address"},{"internalType":"uint256","name":"value","type":"uint256"},{"internalType":"bytes","name":"data","type":"bytes"}],"name":"execFromModule","outputs":[{"internalType":"bytes","name":"","type":"bytes"}],"stateMutability":"payable","type":"function"},{"inputs":[],"name":"factory","outputs":[{"internalType":"contract IFunWalletFactory","name":"","type":"address"}],"stateMutability":"view","type":"function"},{"inputs":[{"internalType":"address","name":"validation","type":"address"}],"name":"getNextValidation","outputs":[{"internalType":"address","name":"","type":"address"}],"stateMutability":"view","type":"function"},{"inputs":[{"internalType":"uint32","name":"key","type":"uint32"}],"name":"getNonce","outputs":[{"internalType":"uint256","name":"out","type":"uint256"}],"stateMutability":"view","type":"function"},{"inputs":[{"internalType":"address","name":"token","type":"address"},{"internalType":"address","name":"to","type":"address"},{"internalType":"uint256","name":"amount","type":"uint256"},{"internalType":"uint256","name":"nonce","type":"uint256"}],"name":"getPermitHash","outputs":[{"internalType":"bytes32","name":"_hash","type":"bytes32"}],"stateMutability":"pure","type":"function"},{"inputs":[{"internalType":"bytes32","name":"key","type":"bytes32"}],"name":"getState","outputs":[{"internalType":"bytes","name":"","type":"bytes"}],"stateMutability":"view","type":"function"},{"inputs":[{"internalType":"bytes32","name":"key","type":"bytes32"}],"name":"getState32","outputs":[{"internalType":"bytes32","name":"out","type":"bytes32"}],"stateMutability":"view","type":"function"},{"inputs":[{"internalType":"bytes32","name":"key","type":"bytes32"},{"internalType":"address","name":"addr","type":"address"}],"name":"getState32WithAddr","outputs":[{"internalType":"bytes32","name":"out","type":"bytes32"}],"stateMutability":"view","type":"function"},{"inputs":[],"name":"getValidationCount","outputs":[{"internalType":"uint256","name":"","type":"uint256"}],"stateMutability":"view","type":"function"},{"inputs":[],"name":"getValidations","outputs":[{"internalType":"address[]","name":"","type":"address[]"}],"stateMutability":"view","type":"function"},{"inputs":[{"internalType":"bytes","name":"validationData","type":"bytes"}],"name":"initValidations","outputs":[],"stateMutability":"nonpayable","type":"function"},{"inputs":[{"internalType":"contract IEntryPoint","name":"_newEntryPoint","type":"address"},{"internalType":"bytes","name":"validationInitData","type":"bytes"}],"name":"initialize","outputs":[],"stateMutability":"nonpayable","type":"function"},{"inputs":[{"internalType":"bytes32","name":"_hash","type":"bytes32"},{"internalType":"bytes","name":"_signature","type":"bytes"}],"name":"isValidSignature","outputs":[{"internalType":"bytes4","name":"","type":"bytes4"}],"stateMutability":"view","type":"function"},{"inputs":[{"internalType":"address","name":"validation","type":"address"}],"name":"isValidation","outputs":[{"internalType":"bool","name":"","type":"bool"}],"stateMutability":"view","type":"function"},{"inputs":[{"internalType":"address","name":"","type":"address"},{"internalType":"address","name":"","type":"address"},{"internalType":"uint256[]","name":"","type":"uint256[]"},{"internalType":"uint256[]","name":"","type":"uint256[]"},{"internalType":"bytes","name":"","type":"bytes"}],"name":"onERC1155BatchReceived","outputs":[{"internalType":"bytes4","name":"","type":"bytes4"}],"stateMutability":"pure","type":"function"},{"inputs":[{"internalType":"address","name":"","type":"address"},{"internalType":"address","name":"","type":"address"},{"internalType":"uint256","name":"","type":"uint256"},{"internalType":"uint256","name":"","type":"uint256"},{"internalType":"bytes","name":"","type":"bytes"}],"name":"onERC1155Received","outputs":[{"internalType":"bytes4","name":"","type":"bytes4"}],"stateMutability":"pure","type":"function"},{"inputs":[{"internalType":"address","name":"","type":"address"},{"internalType":"address","name":"","type":"address"},{"internalType":"uint256","name":"","type":"uint256"},{"internalType":"bytes","name":"","type":"bytes"}],"name":"onERC721Received","outputs":[{"internalType":"bytes4","name":"","type":"bytes4"}],"stateMutability":"pure","type":"function"},{"inputs":[{"internalType":"uint32","name":"","type":"uint32"}],"name":"permitNonces","outputs":[{"internalType":"uint224","name":"","type":"uint224"}],"stateMutability":"view","type":"function"},{"inputs":[{"internalType":"address","name":"token","type":"address"},{"internalType":"address","name":"to","type":"address"},{"internalType":"uint256","name":"amount","type":"uint256"},{"internalType":"uint256","name":"nonce","type":"uint256"},{"internalType":"bytes","name":"sig","type":"bytes"}],"name":"permitTransfer","outputs":[{"internalType":"bool","name":"","type":"bool"}],"stateMutability":"nonpayable","type":"function"},{"inputs":[],"name":"proxiableUUID","outputs":[{"internalType":"bytes32","name":"","type":"bytes32"}],"stateMutability":"view","type":"function"},{"inputs":[{"internalType":"address","name":"prevValidation","type":"address"},{"internalType":"address","name":"validation","type":"address"}],"name":"removeValidation","outputs":[],"stateMutability":"nonpayable","type":"function"},{"inputs":[{"internalType":"address","name":"newImplementation","type":"address"},{"internalType":"bytes","name":"initializerCallData","type":"bytes"}],"name":"setImplementationOnDeployment","outputs":[],"stateMutability":"nonpayable","type":"function"},{"inputs":[{"internalType":"bytes32","name":"key","type":"bytes32"},{"internalType":"bytes","name":"val","type":"bytes"}],"name":"setState","outputs":[],"stateMutability":"nonpayable","type":"function"},{"inputs":[{"internalType":"bytes32","name":"key","type":"bytes32"},{"internalType":"bytes32","name":"val","type":"bytes32"}],"name":"setState32","outputs":[],"stateMutability":"nonpayable","type":"function"},{"inputs":[{"internalType":"bytes4","name":"interfaceId","type":"bytes4"}],"name":"supportsInterface","outputs":[{"internalType":"bool","name":"","type":"bool"}],"stateMutability":"view","type":"function"},{"inputs":[{"internalType":"address","name":"","type":"address"},{"internalType":"address","name":"","type":"address"},{"internalType":"address","name":"","type":"address"},{"internalType":"uint256","name":"","type":"uint256"},{"internalType":"bytes","name":"","type":"bytes"},{"internalType":"bytes","name":"","type":"bytes"}],"name":"tokensReceived","outputs":[],"stateMutability":"pure","type":"function"},{"inputs":[{"internalType":"contract IEntryPoint","name":"_newEntryPoint","type":"address"}],"name":"updateEntryPoint","outputs":[],"stateMutability":"nonpayable","type":"function"},{"inputs":[{"internalType":"address","name":"prevValidation","type":"address"},{"internalType":"address","name":"oldValidation","type":"address"},{"internalType":"address","name":"newValidation","type":"address"},{"internalType":"bytes","name":"newValidationInitData","type":"bytes"}],"name":"updateValidation","outputs":[],"stateMutability":"nonpayable","type":"function"},{"inputs":[{"internalType":"address","name":"newImplementation","type":"address"}],"name":"upgradeTo","outputs":[],"stateMutability":"nonpayable","type":"function"},{"inputs":[{"internalType":"address","name":"newImplementation","type":"address"},{"internalType":"bytes","name":"data","type":"bytes"}],"name":"upgradeToAndCall","outputs":[],"stateMutability":"payable","type":"function"},{"inputs":[{"internalType":"address","name":"token","type":"address"},{"internalType":"address","name":"to","type":"address"},{"internalType":"uint256","name":"amount","type":"uint256"},{"internalType":"uint256","name":"nonce","type":"uint256"},{"internalType":"bytes","name":"sig","type":"bytes"}],"name":"validatePermit","outputs":[],"stateMutability":"view","type":"function"},{"inputs":[{"components":[{"internalType":"address","name":"sender","type":"address"},{"internalType":"uint256","name":"nonce","type":"uint256"},{"internalType":"bytes","name":"initCode","type":"bytes"},{"internalType":"bytes","name":"callData","type":"bytes"},{"internalType":"uint256","name":"callGasLimit","type":"uint256"},{"internalType":"uint256","name":"verificationGasLimit","type":"uint256"},{"internalType":"uint256","name":"preVerificationGas","type":"uint256"},{"internalType":"uint256","name":"maxFeePerGas","type":"uint256"},{"internalType":"uint256","name":"maxPriorityFeePerGas","type":"uint256"},{"internalType":"bytes","name":"paymasterAndData","type":"bytes"},{"internalType":"bytes","name":"signature","type":"bytes"}],"internalType":"struct UserOperation","name":"userOp","type":"tuple"},{"internalType":"bytes32","name":"userOpHash","type":"bytes32"},{"internalType":"uint256","name":"missingAccountFunds","type":"uint256"}],"name":"validateUserOp","outputs":[{"internalType":"uint256","name":"sigTimeRange","type":"uint256"}],"stateMutability":"nonpayable","type":"function"},{"inputs":[{"internalType":"address payable","name":"withdrawAddress","type":"address"},{"internalType":"uint256","name":"amount","type":"uint256"}],"name":"withdrawFromEntryPoint","outputs":[],"stateMutability":"nonpayable","type":"function"},{"stateMutability":"payable","type":"receive"}],"bytecode":"0x60a0604052306080526005805460ff1916905534801561001e57600080fd5b50608051614f2a610056600039600081816113cf0152818161147f01528181611e4501528181611ef5015261203e0152614f2a6000f3fe6080604052600436106102c95760003560e01c806353d94cf411610179578063c1647ff5116100d6578063d1f578941161008a578063f905c15a11610064578063f905c15a146109ab578063fe1477a9146109c5578063ffa1ad74146109e457600080fd5b8063d1f5789414610925578063e007fd8d14610945578063f23a6e611461096557600080fd5b8063c70cb939116100bb578063c70cb939146108c5578063c7b43b80146108e5578063c7d763081461090557600080fd5b8063c1647ff51461087e578063c45a01551461089357600080fd5b80638add42791161012d578063a55e593d11610112578063a55e593d146107e5578063b0d691fe14610805578063bc197c811461083657600080fd5b80638add427914610797578063a408d9a6146107b757600080fd5b806372a9c5471161015e57806372a9c5471461070c57806380c5c7d01461075757806381296f6f1461077757600080fd5b806353d94cf4146106265780637227b5841461069157600080fd5b80633659cfe6116102275780634466aa30116101db5780634dbbc1f9116101c05780634dbbc1f9146105de5780634f1ef286146105fe57806352d1902d1461061157600080fd5b80634466aa301461059e5780634d9008f5146105be57600080fd5b80633ce0b0141161020c5780633ce0b014146104d75780634086d5b61461054f5780634192d2511461057e57600080fd5b80633659cfe6146104895780633a871cdd146104a957600080fd5b8063150b7a021161027e5780631b71bb6e116102635780631b71bb6e1461043657806320d2a20f146104565780633102dd121461046957600080fd5b8063150b7a02146103a05780631626ba7e1461041657600080fd5b806309648a9d116102af57806309648a9d1461033157806312fd67ba1461035e5780631397ea851461038057600080fd5b806223de29146102d557806301ffc9a7146102fc57600080fd5b366102d057005b600080fd5b3480156102e157600080fd5b506102fa6102f0366004613db7565b5050505050505050565b005b34801561030857600080fd5b5061031c610317366004613e96565b6109f9565b60405190151581526020015b60405180910390f35b34801561033d57600080fd5b5061035161034c366004613eb3565b610ade565b6040516103289190613f42565b34801561036a57600080fd5b50610373610b80565b6040516103289190613f55565b34801561038c57600080fd5b5061031c61039b366004613faf565b610d09565b3480156103ac57600080fd5b506103e56103bb36600461402b565b7f150b7a020000000000000000000000000000000000000000000000000000000095945050505050565b6040517fffffffff000000000000000000000000000000000000000000000000000000009091168152602001610328565b34801561042257600080fd5b506103e561043136600461409e565b6110a8565b34801561044257600080fd5b506102fa6104513660046140ea565b611213565b610351610464366004614107565b61130d565b34801561047557600080fd5b5061031c6104843660046140ea565b611363565b34801561049557600080fd5b506102fa6104a43660046140ea565b6113b7565b3480156104b557600080fd5b506104c96104c4366004614163565b6115bd565b604051908152602001610328565b3480156104e357600080fd5b506105226104f23660046141b7565b6002602052600090815260409020547bffffffffffffffffffffffffffffffffffffffffffffffffffffffff1681565b6040517bffffffffffffffffffffffffffffffffffffffffffffffffffffffff9091168152602001610328565b34801561055b57600080fd5b506102fa61056a3660046141dd565b60008281523360601b602052603490205550565b34801561058a57600080fd5b506102fa6105993660046141ff565b61165a565b3480156105aa57600080fd5b506102fa6105b936600461423b565b61186a565b3480156105ca57600080fd5b506102fa6105d936600461427d565b611c72565b3480156105ea57600080fd5b506102fa6105f93660046141ff565b611cfc565b6102fa61060c3660046143ca565b611e2d565b34801561061d57600080fd5b506104c9612024565b34801561063257600080fd5b5061066c6106413660046140ea565b73ffffffffffffffffffffffffffffffffffffffff9081166000908152600360205260409020541690565b60405173ffffffffffffffffffffffffffffffffffffffff9091168152602001610328565b34801561069d57600080fd5b506104c96106ac3660046141b7565b63ffffffff81166000908152600260205260409020547bffffffffffffffffffffffffffffffffffffffffffffffffffffffff1660e09190911b7fffffffff00000000000000000000000000000000000000000000000000000000161790565b34801561071857600080fd5b506104c961072736600461441a565b604080516060805196811b600090815295811b601452602894909452604892909252606890932092529190915290565b34801561076357600080fd5b506102fa610772366004614107565b612111565b34801561078357600080fd5b506102fa61079236600461409e565b612161565b3480156107a357600080fd5b506102fa6107b2366004614460565b612193565b3480156107c357600080fd5b506104c96107d2366004614499565b600091825260601b602052603490205490565b3480156107f157600080fd5b506102fa610800366004613eb3565b612229565b34801561081157600080fd5b5060005462010000900473ffffffffffffffffffffffffffffffffffffffff1661066c565b34801561084257600080fd5b506103e5610851366004614503565b7fbc197c810000000000000000000000000000000000000000000000000000000098975050505050505050565b34801561088a57600080fd5b506004546104c9565b34801561089f57600080fd5b5060055461066c90610100900473ffffffffffffffffffffffffffffffffffffffff1681565b3480156108d157600080fd5b506102fa6108e03660046145a1565b61231f565b3480156108f157600080fd5b506102fa610900366004613faf565b612448565b34801561091157600080fd5b506102fa610920366004614600565b612637565b34801561093157600080fd5b506102fa6109403660046141ff565b612649565b34801561095157600080fd5b506102fa61096036600461462c565b61294c565b34801561097157600080fd5b506103e5610980366004613faf565b7ff23a6e61000000000000000000000000000000000000000000000000000000009695505050505050565b3480156109b757600080fd5b5060055461031c9060ff1681565b3480156109d157600080fd5b506104c96109e0366004613eb3565b5490565b3480156109f057600080fd5b506104c9600681565b60007fffffffff0000000000000000000000000000000000000000000000000000000082167f150b7a02000000000000000000000000000000000000000000000000000000001480610a8c57507fffffffff0000000000000000000000000000000000000000000000000000000082167f4e2312e000000000000000000000000000000000000000000000000000000000145b80610ad857507fffffffff0000000000000000000000000000000000000000000000000000000082167f01ffc9a700000000000000000000000000000000000000000000000000000000145b92915050565b6000818152600160205260409020805460609190610afb90614714565b80601f0160208091040260200160405190810160405280929190818152602001828054610b2790614714565b8015610b745780601f10610b4957610100808354040283529160200191610b74565b820191906000526020600020905b815481529060010190602001808311610b5757829003601f168201915b50505050509050919050565b6060600060045411610bf3576040517f08c379a000000000000000000000000000000000000000000000000000000000815260206004820152600560248201527f465730323600000000000000000000000000000000000000000000000000000060448201526064015b60405180910390fd5b600060045467ffffffffffffffff811115610c1057610c106142be565b604051908082528060200260200182016040528015610c39578160200160208202803683370190505b506001600090815260036020527fa15bc60c955c405d20d9149c709e2460f1c2d9a497496a7f46004d1772c3054c549192509073ffffffffffffffffffffffffffffffffffffffff165b73ffffffffffffffffffffffffffffffffffffffff8116600114610d015780838381518110610cb457610cb4614768565b73ffffffffffffffffffffffffffffffffffffffff928316602091820292909201810191909152918116600090815260039092526040909120541681610cf9816147c6565b925050610c83565b509092915050565b604080516060805189821b600090815289831b60145260288990526048889052606881209484905291527f1626ba7e00000000000000000000000000000000000000000000000000000000825291903090631626ba7e90610d7290849088908890600401614848565b602060405180830381865afa158015610d8f573d6000803e3d6000fd5b505050506040513d601f19601f82011682018060405250810190610db39190614862565b7fffffffff00000000000000000000000000000000000000000000000000000000167f1626ba7e0000000000000000000000000000000000000000000000000000000014610e5d576040517f08c379a000000000000000000000000000000000000000000000000000000000815260206004820152600560248201527f46573330310000000000000000000000000000000000000000000000000000006044820152606401610bea565b60e086901c6000908152600260205260409020547bffffffffffffffffffffffffffffffffffffffffffffffffffffffff168514610ef7576040517f08c379a000000000000000000000000000000000000000000000000000000000815260206004820152600560248201527f46573730300000000000000000000000000000000000000000000000000000006044820152606401610bea565b60e086901c600090815260026020526040812080547bffffffffffffffffffffffffffffffffffffffffffffffffffffffff1691610f348361487f565b82547bffffffffffffffffffffffffffffffffffffffffffffffffffffffff9182166101009390930a9283029190920219909116179055506040517f4d9008f500000000000000000000000000000000000000000000000000000000815273ffffffffffffffffffffffffffffffffffffffff898116600483015288166024820152604481018790523090634d9008f590606401600060405180830381600087803b158015610fe257600080fd5b505af1925050508015610ff3575060015b61109a57610fff6148bb565b806308c379a0141561108e57506110146148d6565b8061101f5750611090565b80604051602001611030919061497e565b604080517fffffffffffffffffffffffffffffffffffffffffffffffffffffffffffffffe0818403018152908290527f08c379a0000000000000000000000000000000000000000000000000000000008252610bea91600401613f42565b505b3d6000803e3d6000fd5b506001979650505050505050565b6000806110b3610b80565b905060005b81518160ff1610156111e65781517f1626ba7e0000000000000000000000000000000000000000000000000000000090839060ff84169081106110fd576110fd614768565b602002602001015173ffffffffffffffffffffffffffffffffffffffff16631626ba7e8888886040518463ffffffff1660e01b815260040161114193929190614848565b602060405180830381865afa15801561115e573d6000803e3d6000fd5b505050506040513d601f19601f820116820180604052508101906111829190614862565b7fffffffff0000000000000000000000000000000000000000000000000000000016146111d457507fffffffff00000000000000000000000000000000000000000000000000000000915061120c9050565b806111de816149c3565b9150506110b8565b507f1626ba7e000000000000000000000000000000000000000000000000000000009150505b9392505050565b61121b612961565b73ffffffffffffffffffffffffffffffffffffffff8116611298576040517f08c379a000000000000000000000000000000000000000000000000000000000815260206004820152600560248201527f46573130300000000000000000000000000000000000000000000000000000006044820152606401610bea565b600080547fffffffffffffffffffff0000000000000000000000000000000000000000ffff166201000073ffffffffffffffffffffffffffffffffffffffff841690810291909117825560405190917f94fe20369eda1036391e68ebc6af4965f710ae7bc0cb1c315895c028149582d291a250565b60606113176129ea565b611358858585858080601f016020809104026020016040519081016040528093929190818152602001838380828437600092019190915250612b8492505050565b90505b949350505050565b73ffffffffffffffffffffffffffffffffffffffff81811660009081526003602052604081205490911615801590610ad8575073ffffffffffffffffffffffffffffffffffffffff82166001141592915050565b3073ffffffffffffffffffffffffffffffffffffffff7f000000000000000000000000000000000000000000000000000000000000000016141561147d576040517f08c379a000000000000000000000000000000000000000000000000000000000815260206004820152602c60248201527f46756e6374696f6e206d7573742062652063616c6c6564207468726f7567682060448201527f64656c656761746563616c6c00000000000000000000000000000000000000006064820152608401610bea565b7f000000000000000000000000000000000000000000000000000000000000000073ffffffffffffffffffffffffffffffffffffffff166114f27f360894a13ba1a3210667c828492db98dca3e2076cc3735a920a3ca505d382bbc5473ffffffffffffffffffffffffffffffffffffffff1690565b73ffffffffffffffffffffffffffffffffffffffff1614611595576040517f08c379a000000000000000000000000000000000000000000000000000000000815260206004820152602c60248201527f46756e6374696f6e206d7573742062652063616c6c6564207468726f7567682060448201527f6163746976652070726f787900000000000000000000000000000000000000006064820152608401610bea565b61159e81612c0d565b604080516000808252602082019092526115ba91839190612c15565b50565b6000805462010000900473ffffffffffffffffffffffffffffffffffffffff163314611645576040517f08c379a000000000000000000000000000000000000000000000000000000000815260206004820152600560248201527f46573032300000000000000000000000000000000000000000000000000000006044820152606401610bea565b61164f8484612e14565b905061120c82612f63565b60055460ff16156116c7576040517f08c379a000000000000000000000000000000000000000000000000000000000815260206004820152600560248201527f46573030300000000000000000000000000000000000000000000000000000006044820152606401610bea565b33301415611731576040517f08c379a000000000000000000000000000000000000000000000000000000000815260206004820152600560248201527f46573030310000000000000000000000000000000000000000000000000000006044820152606401610bea565b7fd1f57894000000000000000000000000000000000000000000000000000000006117606004600084866149e3565b61176991614a0d565b7fffffffff0000000000000000000000000000000000000000000000000000000016146117f2576040517f08c379a000000000000000000000000000000000000000000000000000000000815260206004820152600560248201527f46573030320000000000000000000000000000000000000000000000000000006044820152606401610bea565b6005805433610100027fffffffffffffffffffffff000000000000000000000000000000000000000000909116176001179055604080516020601f840181900481028201810190925282815261186591859190859085908190840183828082843760009201829052509250612fce915050565b505050565b600160005260036020527fa15bc60c955c405d20d9149c709e2460f1c2d9a497496a7f46004d1772c3054c5473ffffffffffffffffffffffffffffffffffffffff1615611913576040517f08c379a000000000000000000000000000000000000000000000000000000000815260206004820152600560248201527f46573030300000000000000000000000000000000000000000000000000000006044820152606401610bea565b60008061192283850185614b0d565b9150915080518251148015611938575060008251115b61199e576040517f08c379a000000000000000000000000000000000000000000000000000000000815260206004820152600560248201527f46573032340000000000000000000000000000000000000000000000000000006044820152606401610bea565b600160005b82518160ff161015611c1b57838160ff16815181106119c4576119c4614768565b602002602001015173ffffffffffffffffffffffffffffffffffffffff168273ffffffffffffffffffffffffffffffffffffffff161415611a61576040517f08c379a000000000000000000000000000000000000000000000000000000000815260206004820152600560248201527f46573032330000000000000000000000000000000000000000000000000000006044820152606401610bea565b611a86848260ff1681518110611a7957611a79614768565b6020026020010151612ff3565b838160ff1681518110611a9b57611a9b614768565b6020026020010151600360008473ffffffffffffffffffffffffffffffffffffffff1673ffffffffffffffffffffffffffffffffffffffff16815260200190815260200160002060006101000a81548173ffffffffffffffffffffffffffffffffffffffff021916908373ffffffffffffffffffffffffffffffffffffffff160217905550838160ff1681518110611b3557611b35614768565b602002602001015191506000838260ff1681518110611b5657611b56614768565b6020026020010151511115611c0957838160ff1681518110611b7a57611b7a614768565b602002602001015173ffffffffffffffffffffffffffffffffffffffff16634ddf47d4848360ff1681518110611bb257611bb2614768565b60200260200101516040518263ffffffff1660e01b8152600401611bd69190613f42565b600060405180830381600087803b158015611bf057600080fd5b505af1158015611c04573d6000803e3d6000fd5b505050505b80611c13816149c3565b9150506119a3565b5073ffffffffffffffffffffffffffffffffffffffff16600090815260036020526040902080547fffffffffffffffffffffffff000000000000000000000000000000000000000016600117905550516004555050565b333014611cdb576040517f08c379a000000000000000000000000000000000000000000000000000000000815260206004820152600560248201527f46573030310000000000000000000000000000000000000000000000000000006044820152606401610bea565b61186573ffffffffffffffffffffffffffffffffffffffff8416838361306e565b611d0583612ff3565b60036020527fa15bc60c955c405d20d9149c709e2460f1c2d9a497496a7f46004d1772c3054c805473ffffffffffffffffffffffffffffffffffffffff8581166000818152604081208054939094167fffffffffffffffffffffffff000000000000000000000000000000000000000093841617909355600183528354909116179091556004805491611d97836147c6565b90915550508015611865576040517f4ddf47d400000000000000000000000000000000000000000000000000000000815273ffffffffffffffffffffffffffffffffffffffff841690634ddf47d490611df69085908590600401614bd0565b600060405180830381600087803b158015611e1057600080fd5b505af1158015611e24573d6000803e3d6000fd5b50505050505050565b3073ffffffffffffffffffffffffffffffffffffffff7f0000000000000000000000000000000000000000000000000000000000000000161415611ef3576040517f08c379a000000000000000000000000000000000000000000000000000000000815260206004820152602c60248201527f46756e6374696f6e206d7573742062652063616c6c6564207468726f7567682060448201527f64656c656761746563616c6c00000000000000000000000000000000000000006064820152608401610bea565b7f000000000000000000000000000000000000000000000000000000000000000073ffffffffffffffffffffffffffffffffffffffff16611f687f360894a13ba1a3210667c828492db98dca3e2076cc3735a920a3ca505d382bbc5473ffffffffffffffffffffffffffffffffffffffff1690565b73ffffffffffffffffffffffffffffffffffffffff161461200b576040517f08c379a000000000000000000000000000000000000000000000000000000000815260206004820152602c60248201527f46756e6374696f6e206d7573742062652063616c6c6564207468726f7567682060448201527f6163746976652070726f787900000000000000000000000000000000000000006064820152608401610bea565b61201482612c0d565b61202082826001612c15565b5050565b60003073ffffffffffffffffffffffffffffffffffffffff7f000000000000000000000000000000000000000000000000000000000000000016146120eb576040517f08c379a000000000000000000000000000000000000000000000000000000000815260206004820152603860248201527f555550535570677261646561626c653a206d757374206e6f742062652063616c60448201527f6c6564207468726f7567682064656c656761746563616c6c00000000000000006064820152608401610bea565b507f360894a13ba1a3210667c828492db98dca3e2076cc3735a920a3ca505d382bbc5b90565b612119612961565b61215a848484848080601f016020809104026020016040519081016040528093929190818152602001838380828437600092019190915250612b8492505050565b5050505050565b60008381523360601b60205260349020600081815260016020526040902090935061218d908383613c85565b50505050565b61219e8160016130fb565b6121a882826131c6565b73ffffffffffffffffffffffffffffffffffffffff818116600081815260036020526040808220805487861684529183208054929095167fffffffffffffffffffffffff0000000000000000000000000000000000000000928316179094559181528254909116909155600480549161222083614be4565b91905055505050565b612231612961565b8047101561229b576040517f08c379a000000000000000000000000000000000000000000000000000000000815260206004820152600560248201527f46573031300000000000000000000000000000000000000000000000000000006044820152606401610bea565b6000546040517fb760faf90000000000000000000000000000000000000000000000000000000081523060048201526201000090910473ffffffffffffffffffffffffffffffffffffffff169063b760faf990602401600060405180830381600087803b15801561230b57600080fd5b505af115801561215a573d6000803e3d6000fd5b61232883612ff3565b6123338460016130fb565b61233d85856131c6565b73ffffffffffffffffffffffffffffffffffffffff848116600081815260036020526040808220805488861680855283852080549288167fffffffffffffffffffffffff0000000000000000000000000000000000000000938416179055958b168452918320805483169095179094559190528154169055801561215a576040517f4ddf47d400000000000000000000000000000000000000000000000000000000815273ffffffffffffffffffffffffffffffffffffffff841690634ddf47d49061240f9085908590600401614bd0565b600060405180830381600087803b15801561242957600080fd5b505af115801561243d573d6000803e3d6000fd5b505050505050505050565b604080516060805189821b600090815289831b60145260288990526048889052606890209383905290527f1626ba7e0000000000000000000000000000000000000000000000000000000081523090631626ba7e906124af90849087908790600401614848565b602060405180830381865afa1580156124cc573d6000803e3d6000fd5b505050506040513d601f19601f820116820180604052508101906124f09190614862565b7fffffffff00000000000000000000000000000000000000000000000000000000167f1626ba7e000000000000000000000000000000000000000000000000000000001461259a576040517f08c379a000000000000000000000000000000000000000000000000000000000815260206004820152600560248201527f46573330310000000000000000000000000000000000000000000000000000006044820152606401610bea565b60e085901c6000908152600260205260409020547bffffffffffffffffffffffffffffffffffffffffffffffffffffffff858116911614611e24576040517f08c379a000000000000000000000000000000000000000000000000000000000815260206004820152600560248201527f46573730300000000000000000000000000000000000000000000000000000006044820152606401610bea565b61263f612961565b6120208282613259565b600054610100900460ff16158080156126695750600054600160ff909116105b806126835750303b158015612683575060005460ff166001145b61270f576040517f08c379a000000000000000000000000000000000000000000000000000000000815260206004820152602e60248201527f496e697469616c697a61626c653a20636f6e747261637420697320616c72656160448201527f647920696e697469616c697a65640000000000000000000000000000000000006064820152608401610bea565b600080547fffffffffffffffffffffffffffffffffffffffffffffffffffffffffffffff00166001179055801561276d57600080547fffffffffffffffffffffffffffffffffffffffffffffffffffffffffffff00ff166101001790555b73ffffffffffffffffffffffffffffffffffffffff84166127ea576040517f08c379a000000000000000000000000000000000000000000000000000000000815260206004820152600560248201527f46573130310000000000000000000000000000000000000000000000000000006044820152606401610bea565b33301415612854576040517f08c379a000000000000000000000000000000000000000000000000000000000815260206004820152600560248201527f46573030320000000000000000000000000000000000000000000000000000006044820152606401610bea565b600080547fffffffffffffffffffff0000000000000000000000000000000000000000ffff166201000073ffffffffffffffffffffffffffffffffffffffff8716021790556128a3838361186a565b60405173ffffffffffffffffffffffffffffffffffffffff8516907f94fe20369eda1036391e68ebc6af4965f710ae7bc0cb1c315895c028149582d290600090a2801561218d57600080547fffffffffffffffffffffffffffffffffffffffffffffffffffffffffffff00ff169055604051600181527f7f26b83ff96e1f2b6a682f133852f6798a09c465da95921460cefb38474024989060200160405180910390a150505050565b61295885858585612111565b61215a8161334b565b60005462010000900473ffffffffffffffffffffffffffffffffffffffff1633146129e8576040517f08c379a000000000000000000000000000000000000000000000000000000000815260206004820152600560248201527f46573032310000000000000000000000000000000000000000000000000000006044820152606401610bea565b565b336000908152601490205480156129fe5750565b60003373ffffffffffffffffffffffffffffffffffffffff1663a1308f276040518163ffffffff1660e01b8152600401602060405180830381865afa158015612a4b573d6000803e3d6000fd5b505050506040513d601f19601f82011682018060405250810190612a6f9190614c19565b6005546040517f8671a13300000000000000000000000000000000000000000000000000000000815260048101839052336024820152919250610100900473ffffffffffffffffffffffffffffffffffffffff1690638671a13390604401602060405180830381865afa158015612aea573d6000803e3d6000fd5b505050506040513d601f19601f82011682018060405250810190612b0e9190614c32565b612b74576040517f08c379a000000000000000000000000000000000000000000000000000000000815260206004820152600560248201527f46573730320000000000000000000000000000000000000000000000000000006044820152606401610bea565b3360005260016014600020555050565b60606000808573ffffffffffffffffffffffffffffffffffffffff168585604051612baf9190614c54565b60006040518083038185875af1925050503d8060008114612bec576040519150601f19603f3d011682016040523d82523d6000602084013e612bf1565b606091505b50909250905081612c0457805160208201fd5b95945050505050565b6115ba612961565b7f4910fdfa16fed3260ed0e7147f7cc6da11a60208b5b9406d12a635614ffd91435460ff1615612c4857611865836135fb565b8273ffffffffffffffffffffffffffffffffffffffff166352d1902d6040518163ffffffff1660e01b8152600401602060405180830381865afa925050508015612ccd575060408051601f3d9081017fffffffffffffffffffffffffffffffffffffffffffffffffffffffffffffffe0168201909252612cca91810190614c19565b60015b612d59576040517f08c379a000000000000000000000000000000000000000000000000000000000815260206004820152602e60248201527f45524331393637557067726164653a206e657720696d706c656d656e7461746960448201527f6f6e206973206e6f7420555550530000000000000000000000000000000000006064820152608401610bea565b7f360894a13ba1a3210667c828492db98dca3e2076cc3735a920a3ca505d382bbc8114612e08576040517f08c379a000000000000000000000000000000000000000000000000000000000815260206004820152602960248201527f45524331393637557067726164653a20756e737570706f727465642070726f7860448201527f6961626c655555494400000000000000000000000000000000000000000000006064820152608401610bea565b50611865838383612fce565b600080612e25610140850185614c70565b905011612e8e576040517f08c379a000000000000000000000000000000000000000000000000000000000815260206004820152600560248201527f46573032370000000000000000000000000000000000000000000000000000006044820152606401610bea565b6000612e98610b80565b90506000915060005b81518160ff161015612f5b57818160ff1681518110612ec257612ec2614768565b602002602001015173ffffffffffffffffffffffffffffffffffffffff1663525e46f286866040518363ffffffff1660e01b8152600401612f04929190614d39565b602060405180830381865afa158015612f21573d6000803e3d6000fd5b505050506040513d601f19601f82011682018060405250810190612f459190614c19565b9092179180612f53816149c3565b915050612ea1565b505092915050565b80156115ba5760405160009033907fffffffffffffffffffffffffffffffffffffffffffffffffffffffffffffffff90849084818181858888f193505050503d806000811461215a576040519150601f19603f3d011682016040523d82523d6000602084013e61215a565b612fd783613705565b600082511180612fe45750805b156118655761218d8383613752565b612ffe8160006130fb565b61300781611363565b156115ba576040517f08c379a000000000000000000000000000000000000000000000000000000000815260206004820152600560248201527f46573032330000000000000000000000000000000000000000000000000000006044820152606401610bea565b6040805173ffffffffffffffffffffffffffffffffffffffff8416602482015260448082018490528251808303909101815260649091019091526020810180517bffffffffffffffffffffffffffffffffffffffffffffffffffffffff167fa9059cbb00000000000000000000000000000000000000000000000000000000179052611865908490613777565b73ffffffffffffffffffffffffffffffffffffffff821615801590613137575073ffffffffffffffffffffffffffffffffffffffff8216600114155b801561316057508080613160575073ffffffffffffffffffffffffffffffffffffffff82163014155b612020576040517f08c379a000000000000000000000000000000000000000000000000000000000815260206004820152600560248201527f46573032320000000000000000000000000000000000000000000000000000006044820152606401610bea565b73ffffffffffffffffffffffffffffffffffffffff828116600090815260036020526040902054811690821614612020576040517f08c379a000000000000000000000000000000000000000000000000000000000815260206004820152600560248201527f46573032350000000000000000000000000000000000000000000000000000006044820152606401610bea565b6000546040517f205c287800000000000000000000000000000000000000000000000000000000815273ffffffffffffffffffffffffffffffffffffffff848116600483015260248201849052620100009092049091169063205c287890604401600060405180830381600087803b1580156132d457600080fd5b505af19250505080156132e5575060015b612020576040517f08c379a000000000000000000000000000000000000000000000000000000000815260206004820152600560248201527f46573031310000000000000000000000000000000000000000000000000000006044820152606401610bea565b6000613355613883565b90506000808273ffffffffffffffffffffffffffffffffffffffff1663fcee45f485604001516040518263ffffffff1660e01b815260040161339991815260200190565b6040805180830381865afa1580156133b5573d6000803e3d6000fd5b505050506040513d601f19601f820116820180604052508101906133d99190614e8c565b8551919350915073ffffffffffffffffffffffffffffffffffffffff166134175761340884602001518261391b565b613412838361391b565b61218d565b835160208501516040517f4d9008f500000000000000000000000000000000000000000000000000000000815273ffffffffffffffffffffffffffffffffffffffff928316600482015291166024820152604481018290523090634d9008f590606401600060405180830381600087803b15801561349457600080fd5b505af19250505080156134a5575060015b61350b576040517f08c379a000000000000000000000000000000000000000000000000000000000815260206004820152600560248201527f46573031330000000000000000000000000000000000000000000000000000006044820152606401610bea565b83516040517f4d9008f500000000000000000000000000000000000000000000000000000000815273ffffffffffffffffffffffffffffffffffffffff91821660048201529084166024820152604481018390523090634d9008f590606401600060405180830381600087803b15801561358457600080fd5b505af1925050508015613595575060015b61218d576040517f08c379a000000000000000000000000000000000000000000000000000000000815260206004820152600560248201527f46573031340000000000000000000000000000000000000000000000000000006044820152606401610bea565b73ffffffffffffffffffffffffffffffffffffffff81163b61369f576040517f08c379a000000000000000000000000000000000000000000000000000000000815260206004820152602d60248201527f455243313936373a206e657720696d706c656d656e746174696f6e206973206e60448201527f6f74206120636f6e7472616374000000000000000000000000000000000000006064820152608401610bea565b7f360894a13ba1a3210667c828492db98dca3e2076cc3735a920a3ca505d382bbc80547fffffffffffffffffffffffff00000000000000000000000000000000000000001673ffffffffffffffffffffffffffffffffffffffff92909216919091179055565b61370e816135fb565b60405173ffffffffffffffffffffffffffffffffffffffff8216907fbc7cd75a20ee27fd9adebab32041f755214dbc6bffa90cc0225b39da2e5c2d3b90600090a250565b606061120c8383604051806060016040528060278152602001614ece602791396139f7565b60006137d9826040518060400160405280602081526020017f5361666545524332303a206c6f772d6c6576656c2063616c6c206661696c65648152508573ffffffffffffffffffffffffffffffffffffffff16613a7c9092919063ffffffff16565b80519091501561186557808060200190518101906137f79190614c32565b611865576040517f08c379a000000000000000000000000000000000000000000000000000000000815260206004820152602a60248201527f5361666545524332303a204552433230206f7065726174696f6e20646964206e60448201527f6f742073756363656564000000000000000000000000000000000000000000006064820152608401610bea565b6000600560019054906101000a900473ffffffffffffffffffffffffffffffffffffffff1673ffffffffffffffffffffffffffffffffffffffff1663833b1fce6040518163ffffffff1660e01b8152600401602060405180830381865afa1580156138f2573d6000803e3d6000fd5b505050506040513d601f19601f820116820180604052508101906139169190614eb0565b905090565b8047101561392d576120208282613259565b60008273ffffffffffffffffffffffffffffffffffffffff168260405160006040518083038185875af1925050503d8060008114613987576040519150601f19603f3d011682016040523d82523d6000602084013e61398c565b606091505b5050905080611865576040517f08c379a000000000000000000000000000000000000000000000000000000000815260206004820152600560248201527f46573031320000000000000000000000000000000000000000000000000000006044820152606401610bea565b60606000808573ffffffffffffffffffffffffffffffffffffffff1685604051613a219190614c54565b600060405180830381855af49150503d8060008114613a5c576040519150601f19603f3d011682016040523d82523d6000602084013e613a61565b606091505b5091509150613a7286838387613a8b565b9695505050505050565b606061135b8484600085613b28565b60608315613b1e578251613b175773ffffffffffffffffffffffffffffffffffffffff85163b613b17576040517f08c379a000000000000000000000000000000000000000000000000000000000815260206004820152601d60248201527f416464726573733a2063616c6c20746f206e6f6e2d636f6e74726163740000006044820152606401610bea565b508161135b565b61135b8383613c41565b606082471015613bba576040517f08c379a000000000000000000000000000000000000000000000000000000000815260206004820152602660248201527f416464726573733a20696e73756666696369656e742062616c616e636520666f60448201527f722063616c6c00000000000000000000000000000000000000000000000000006064820152608401610bea565b6000808673ffffffffffffffffffffffffffffffffffffffff168587604051613be39190614c54565b60006040518083038185875af1925050503d8060008114613c20576040519150601f19603f3d011682016040523d82523d6000602084013e613c25565b606091505b5091509150613c3687838387613a8b565b979650505050505050565b815115613c515781518083602001fd5b806040517f08c379a0000000000000000000000000000000000000000000000000000000008152600401610bea9190613f42565b828054613c9190614714565b90600052602060002090601f016020900481019282613cb35760008555613d17565b82601f10613cea578280017fffffffffffffffffffffffffffffffffffffffffffffffffffffffffffffff00823516178555613d17565b82800160010185558215613d17579182015b82811115613d17578235825591602001919060010190613cfc565b50613d23929150613d27565b5090565b5b80821115613d235760008155600101613d28565b73ffffffffffffffffffffffffffffffffffffffff811681146115ba57600080fd5b8035613d6981613d3c565b919050565b60008083601f840112613d8057600080fd5b50813567ffffffffffffffff811115613d9857600080fd5b602083019150836020828501011115613db057600080fd5b9250929050565b60008060008060008060008060c0898b031215613dd357600080fd5b8835613dde81613d3c565b97506020890135613dee81613d3c565b96506040890135613dfe81613d3c565b955060608901359450608089013567ffffffffffffffff80821115613e2257600080fd5b613e2e8c838d01613d6e565b909650945060a08b0135915080821115613e4757600080fd5b50613e548b828c01613d6e565b999c989b5096995094979396929594505050565b7fffffffff00000000000000000000000000000000000000000000000000000000811681146115ba57600080fd5b600060208284031215613ea857600080fd5b813561120c81613e68565b600060208284031215613ec557600080fd5b5035919050565b60005b83811015613ee7578181015183820152602001613ecf565b8381111561218d5750506000910152565b60008151808452613f10816020860160208601613ecc565b601f017fffffffffffffffffffffffffffffffffffffffffffffffffffffffffffffffe0169290920160200192915050565b60208152600061120c6020830184613ef8565b6020808252825182820181905260009190848201906040850190845b81811015613fa357835173ffffffffffffffffffffffffffffffffffffffff1683529284019291840191600101613f71565b50909695505050505050565b60008060008060008060a08789031215613fc857600080fd5b8635613fd381613d3c565b95506020870135613fe381613d3c565b94506040870135935060608701359250608087013567ffffffffffffffff81111561400d57600080fd5b61401989828a01613d6e565b979a9699509497509295939492505050565b60008060008060006080868803121561404357600080fd5b853561404e81613d3c565b9450602086013561405e81613d3c565b935060408601359250606086013567ffffffffffffffff81111561408157600080fd5b61408d88828901613d6e565b969995985093965092949392505050565b6000806000604084860312156140b357600080fd5b83359250602084013567ffffffffffffffff8111156140d157600080fd5b6140dd86828701613d6e565b9497909650939450505050565b6000602082840312156140fc57600080fd5b813561120c81613d3c565b6000806000806060858703121561411d57600080fd5b843561412881613d3c565b935060208501359250604085013567ffffffffffffffff81111561414b57600080fd5b61415787828801613d6e565b95989497509550505050565b60008060006060848603121561417857600080fd5b833567ffffffffffffffff81111561418f57600080fd5b840161016081870312156141a257600080fd5b95602085013595506040909401359392505050565b6000602082840312156141c957600080fd5b813563ffffffff8116811461120c57600080fd5b600080604083850312156141f057600080fd5b50508035926020909101359150565b60008060006040848603121561421457600080fd5b833561421f81613d3c565b9250602084013567ffffffffffffffff8111156140d157600080fd5b6000806020838503121561424e57600080fd5b823567ffffffffffffffff81111561426557600080fd5b61427185828601613d6e565b90969095509350505050565b60008060006060848603121561429257600080fd5b833561429d81613d3c565b925060208401356142ad81613d3c565b929592945050506040919091013590565b7f4e487b7100000000000000000000000000000000000000000000000000000000600052604160045260246000fd5b7fffffffffffffffffffffffffffffffffffffffffffffffffffffffffffffffe0601f830116810181811067ffffffffffffffff82111715614331576143316142be565b6040525050565b600082601f83011261434957600080fd5b813567ffffffffffffffff811115614363576143636142be565b60405161439860207fffffffffffffffffffffffffffffffffffffffffffffffffffffffffffffffe0601f85011601826142ed565b8181528460208386010111156143ad57600080fd5b816020850160208301376000918101602001919091529392505050565b600080604083850312156143dd57600080fd5b82356143e881613d3c565b9150602083013567ffffffffffffffff81111561440457600080fd5b61441085828601614338565b9150509250929050565b6000806000806080858703121561443057600080fd5b843561443b81613d3c565b9350602085013561444b81613d3c565b93969395505050506040820135916060013590565b6000806040838503121561447357600080fd5b823561447e81613d3c565b9150602083013561448e81613d3c565b809150509250929050565b600080604083850312156144ac57600080fd5b82359150602083013561448e81613d3c565b60008083601f8401126144d057600080fd5b50813567ffffffffffffffff8111156144e857600080fd5b6020830191508360208260051b8501011115613db057600080fd5b60008060008060008060008060a0898b03121561451f57600080fd5b883561452a81613d3c565b9750602089013561453a81613d3c565b9650604089013567ffffffffffffffff8082111561455757600080fd5b6145638c838d016144be565b909850965060608b013591508082111561457c57600080fd5b6145888c838d016144be565b909650945060808b0135915080821115613e4757600080fd5b6000806000806000608086880312156145b957600080fd5b85356145c481613d3c565b945060208601356145d481613d3c565b935060408601356145e481613d3c565b9250606086013567ffffffffffffffff81111561408157600080fd5b6000806040838503121561461357600080fd5b823561461e81613d3c565b946020939093013593505050565b600080600080600085870360c081121561464557600080fd5b863561465081613d3c565b955060208701359450604087013567ffffffffffffffff8082111561467457600080fd5b6146808a838b01613d6e565b909650945084915060607fffffffffffffffffffffffffffffffffffffffffffffffffffffffffffffffa0840112156146b857600080fd5b604051925060608301915082821081831117156146d7576146d76142be565b5060405260608701356146e981613d3c565b815260808701356146f981613d3c565b602082015260a0969096013560408701525092959194509290565b600181811c9082168061472857607f821691505b60208210811415614762577f4e487b7100000000000000000000000000000000000000000000000000000000600052602260045260246000fd5b50919050565b7f4e487b7100000000000000000000000000000000000000000000000000000000600052603260045260246000fd5b7f4e487b7100000000000000000000000000000000000000000000000000000000600052601160045260246000fd5b60007fffffffffffffffffffffffffffffffffffffffffffffffffffffffffffffffff8214156147f8576147f8614797565b5060010190565b8183528181602085013750600060208284010152600060207fffffffffffffffffffffffffffffffffffffffffffffffffffffffffffffffe0601f840116840101905092915050565b8381526040602082015260006113586040830184866147ff565b60006020828403121561487457600080fd5b815161120c81613e68565b60007bffffffffffffffffffffffffffffffffffffffffffffffffffffffff808316818114156148b1576148b1614797565b6001019392505050565b600060033d111561210e5760046000803e5060005160e01c90565b600060443d10156148e45790565b6040517ffffffffffffffffffffffffffffffffffffffffffffffffffffffffffffffffc803d016004833e81513d67ffffffffffffffff816024840111818411171561493257505050505090565b828501915081518181111561494a5750505050505090565b843d87010160208285010111156149645750505050505090565b614973602082860101876142ed565b509095945050505050565b7f46573730313a20000000000000000000000000000000000000000000000000008152600082516149b6816007850160208701613ecc565b9190910160070192915050565b600060ff821660ff8114156149da576149da614797565b60010192915050565b600080858511156149f357600080fd5b83861115614a0057600080fd5b5050820193919092039150565b7fffffffff000000000000000000000000000000000000000000000000000000008135818116916004851015612f5b5760049490940360031b84901b1690921692915050565b600067ffffffffffffffff821115614a6d57614a6d6142be565b5060051b60200190565b600082601f830112614a8857600080fd5b81356020614a9582614a53565b604051614aa282826142ed565b83815260059390931b8501820192828101915086841115614ac257600080fd5b8286015b84811015614b0257803567ffffffffffffffff811115614ae65760008081fd5b614af48986838b0101614338565b845250918301918301614ac6565b509695505050505050565b60008060408385031215614b2057600080fd5b823567ffffffffffffffff80821115614b3857600080fd5b818501915085601f830112614b4c57600080fd5b81356020614b5982614a53565b604051614b6682826142ed565b83815260059390931b8501820192828101915089841115614b8657600080fd5b948201945b83861015614bad578535614b9e81613d3c565b82529482019490820190614b8b565b96505086013592505080821115614bc357600080fd5b5061441085828601614a77565b60208152600061135b6020830184866147ff565b600081614bf357614bf3614797565b507fffffffffffffffffffffffffffffffffffffffffffffffffffffffffffffffff0190565b600060208284031215614c2b57600080fd5b5051919050565b600060208284031215614c4457600080fd5b8151801515811461120c57600080fd5b60008251614c66818460208701613ecc565b9190910192915050565b60008083357fffffffffffffffffffffffffffffffffffffffffffffffffffffffffffffffe1843603018112614ca557600080fd5b83018035915067ffffffffffffffff821115614cc057600080fd5b602001915036819003821315613db057600080fd5b60008083357fffffffffffffffffffffffffffffffffffffffffffffffffffffffffffffffe1843603018112614d0a57600080fd5b830160208101925035905067ffffffffffffffff811115614d2a57600080fd5b803603831315613db057600080fd5b60608152614d6760608201614d4d85613d5e565b73ffffffffffffffffffffffffffffffffffffffff169052565b602083013560808201526000614d806040850185614cd5565b6101608060a0860152614d986101c0860183856147ff565b9250614da76060880188614cd5565b92507fffffffffffffffffffffffffffffffffffffffffffffffffffffffffffffffa0808786030160c0880152614ddf8585846147ff565b9450608089013560e0880152610100935060a089013584880152610120915060c08901358288015261014060e08a013581890152848a013584890152614e27838b018b614cd5565b955093508188870301610180890152614e418686866147ff565b9550614e4f818b018b614cd5565b955093505080878603016101a08801525050614e6c8383836147ff565b925050508360208401528281036040840152612c04816000815260200190565b60008060408385031215614e9f57600080fd5b505080516020909101519092909150565b600060208284031215614ec257600080fd5b815161120c81613d3c56fe416464726573733a206c6f772d6c6576656c2064656c65676174652063616c6c206661696c6564a264697066735822122049e348a5faa3585ddbb230c8b6b732774c4acb9c7700152800109a295405e77464736f6c634300080c0033","linkReferences":{},"deployedLinkReferences":{}}