{
    "_format": "hh-sol-artifact-1",
    "contractName": "TokenPaymaster",
    "sourceName": "contracts/paymaster/TokenPaymaster.sol",
    "abi": [
        {
            "inputs": [
                {
                    "internalType": "contract IEntryPoint",
                    "name": "_entryPoint",
                    "type": "address"
                }
            ],
            "stateMutability": "nonpayable",
            "type": "constructor"
        },
        {
            "anonymous": false,
            "inputs": [
                {
                    "indexed": true,
                    "internalType": "address",
                    "name": "caller",
                    "type": "address"
                },
                {
                    "indexed": true,
                    "internalType": "address",
                    "name": "sponsor",
                    "type": "address"
                },
                {
                    "indexed": false,
                    "internalType": "uint256",
                    "name": "amount",
                    "type": "uint256"
                }
            ],
            "name": "AddEthDepositTo",
            "type": "event"
        },
        {
            "anonymous": false,
            "inputs": [
                {
                    "indexed": true,
                    "internalType": "address",
                    "name": "token",
                    "type": "address"
                },
                {
                    "indexed": true,
                    "internalType": "address",
                    "name": "recipient",
                    "type": "address"
                },
                {
                    "indexed": true,
                    "internalType": "address",
                    "name": "spender",
                    "type": "address"
                },
                {
                    "indexed": false,
                    "internalType": "uint256",
                    "name": "amount",
                    "type": "uint256"
                }
            ],
            "name": "AddTokenDepositTo",
            "type": "event"
        },
        {
            "anonymous": false,
            "inputs": [
                {
                    "indexed": true,
                    "internalType": "address[]",
                    "name": "tokens",
                    "type": "address[]"
                },
                {
                    "indexed": true,
                    "internalType": "address",
                    "name": "sponsor",
                    "type": "address"
                }
            ],
            "name": "AddTokens",
            "type": "event"
        },
        {
            "anonymous": false,
            "inputs": [
                {
                    "indexed": false,
                    "internalType": "bytes[]",
                    "name": "data",
                    "type": "bytes[]"
                }
            ],
            "name": "BatchActions",
            "type": "event"
        },
        {
            "anonymous": false,
            "inputs": [
                {
                    "indexed": true,
                    "internalType": "address",
                    "name": "token",
                    "type": "address"
                },
                {
                    "indexed": true,
                    "internalType": "address",
                    "name": "spender",
                    "type": "address"
                }
            ],
            "name": "LockTokenDeposit",
            "type": "event"
        },
        {
            "anonymous": false,
            "inputs": [
                {
                    "indexed": true,
                    "internalType": "address",
                    "name": "previousOwner",
                    "type": "address"
                },
                {
                    "indexed": true,
                    "internalType": "address",
                    "name": "newOwner",
                    "type": "address"
                }
            ],
            "name": "OwnershipTransferred",
            "type": "event"
        },
        {
            "anonymous": false,
            "inputs": [
                {
                    "indexed": false,
                    "internalType": "contract IEntryPoint",
                    "name": "entryPoint",
                    "type": "address"
                }
            ],
            "name": "PaymasterCreated",
            "type": "event"
        },
        {
            "anonymous": false,
            "inputs": [
                {
                    "indexed": true,
                    "internalType": "bytes32",
                    "name": "opHash",
                    "type": "bytes32"
                },
                {
                    "indexed": true,
                    "internalType": "address",
                    "name": "spender",
                    "type": "address"
                },
                {
                    "indexed": true,
                    "internalType": "address",
                    "name": "sponsor",
                    "type": "address"
                },
                {
                    "indexed": false,
                    "internalType": "uint256",
                    "name": "spenderCost",
                    "type": "uint256"
                },
                {
                    "indexed": false,
                    "internalType": "uint256",
                    "name": "sponsorCost",
                    "type": "uint256"
                }
            ],
            "name": "PostOpGasPaid",
            "type": "event"
        },
        {
            "anonymous": false,
            "inputs": [
                {
                    "indexed": true,
                    "internalType": "address[]",
                    "name": "tokens",
                    "type": "address[]"
                },
                {
                    "indexed": true,
                    "internalType": "address",
                    "name": "sponsor",
                    "type": "address"
                }
            ],
            "name": "RemoveTokens",
            "type": "event"
        },
        {
            "anonymous": false,
            "inputs": [
                {
                    "indexed": true,
                    "internalType": "address",
                    "name": "sponsor",
                    "type": "address"
                },
                {
                    "indexed": false,
                    "internalType": "bool",
                    "name": "mode",
                    "type": "bool"
                }
            ],
            "name": "SetListMode",
            "type": "event"
        },
        {
            "anonymous": false,
            "inputs": [
                {
                    "indexed": true,
                    "internalType": "address",
                    "name": "spender",
                    "type": "address"
                },
                {
                    "indexed": true,
                    "internalType": "address",
                    "name": "sponsor",
                    "type": "address"
                },
                {
                    "indexed": false,
                    "internalType": "bool",
                    "name": "mode",
                    "type": "bool"
                }
            ],
            "name": "SetSpenderBlacklistMode",
            "type": "event"
        },
        {
            "anonymous": false,
            "inputs": [
                {
                    "indexed": true,
                    "internalType": "address",
                    "name": "spender",
                    "type": "address"
                },
                {
                    "indexed": true,
                    "internalType": "address",
                    "name": "sponsor",
                    "type": "address"
                },
                {
                    "indexed": false,
                    "internalType": "bool",
                    "name": "mode",
                    "type": "bool"
                }
            ],
            "name": "SetSpenderWhitelistMode",
            "type": "event"
        },
        {
            "anonymous": false,
            "inputs": [
                {
                    "indexed": true,
                    "internalType": "address",
                    "name": "token",
                    "type": "address"
                },
                {
                    "indexed": true,
                    "internalType": "address",
                    "name": "sponsor",
                    "type": "address"
                },
                {
                    "indexed": false,
                    "internalType": "bool",
                    "name": "mode",
                    "type": "bool"
                }
            ],
            "name": "SetTokenBlacklistMode",
            "type": "event"
        },
        {
            "anonymous": false,
            "inputs": [
                {
                    "components": [
                        {
                            "internalType": "contract ITokenPriceOracle",
                            "name": "oracle",
                            "type": "address"
                        },
                        {
                            "internalType": "contract IERC20",
                            "name": "token",
                            "type": "address"
                        },
                        {
                            "internalType": "uint8",
                            "name": "decimals",
                            "type": "uint8"
                        },
                        {
                            "internalType": "address",
                            "name": "aggregator",
                            "type": "address"
                        }
                    ],
                    "indexed": true,
                    "internalType": "struct TokenData",
                    "name": "data",
                    "type": "tuple"
                }
            ],
            "name": "SetTokenData",
            "type": "event"
        },
        {
            "anonymous": false,
            "inputs": [
                {
                    "indexed": true,
                    "internalType": "address",
                    "name": "sponsor",
                    "type": "address"
                },
                {
                    "indexed": false,
                    "internalType": "bool",
                    "name": "mode",
                    "type": "bool"
                }
            ],
            "name": "SetTokenListMode",
            "type": "event"
        },
        {
            "anonymous": false,
            "inputs": [
                {
                    "indexed": true,
                    "internalType": "address",
                    "name": "token",
                    "type": "address"
                },
                {
                    "indexed": true,
                    "internalType": "address",
                    "name": "sponsor",
                    "type": "address"
                },
                {
                    "indexed": false,
                    "internalType": "bool",
                    "name": "mode",
                    "type": "bool"
                }
            ],
            "name": "SetTokenWhitelistMode",
            "type": "event"
        },
        {
            "anonymous": false,
            "inputs": [
                {
                    "indexed": true,
                    "internalType": "address",
                    "name": "token",
                    "type": "address"
                },
                {
                    "indexed": true,
                    "internalType": "address",
                    "name": "spender",
                    "type": "address"
                },
                {
                    "indexed": true,
                    "internalType": "uint256",
                    "name": "unlockBlockNum",
                    "type": "uint256"
                }
            ],
            "name": "UnlockTokenDepositAfter",
            "type": "event"
        },
        {
            "anonymous": false,
            "inputs": [
                {
                    "indexed": true,
                    "internalType": "address",
                    "name": "caller",
                    "type": "address"
                },
                {
                    "indexed": true,
                    "internalType": "address",
                    "name": "target",
                    "type": "address"
                },
                {
                    "indexed": false,
                    "internalType": "uint256",
                    "name": "amount",
                    "type": "uint256"
                }
            ],
            "name": "WithdrawEthDepositTo",
            "type": "event"
        },
        {
            "anonymous": false,
            "inputs": [
                {
                    "indexed": true,
                    "internalType": "address",
                    "name": "token",
                    "type": "address"
                },
                {
                    "indexed": true,
                    "internalType": "address",
                    "name": "recipient",
                    "type": "address"
                },
                {
                    "indexed": true,
                    "internalType": "address",
                    "name": "target",
                    "type": "address"
                },
                {
                    "indexed": false,
                    "internalType": "uint256",
                    "name": "amount",
                    "type": "uint256"
                }
            ],
            "name": "WithdrawTokenDepositTo",
            "type": "event"
        },
        {
            "inputs": [],
            "name": "COST_OF_POST",
            "outputs": [
                {
                    "internalType": "uint256",
                    "name": "",
                    "type": "uint256"
                }
            ],
            "stateMutability": "view",
            "type": "function"
        },
        {
            "inputs": [],
            "name": "ETH",
            "outputs": [
                {
                    "internalType": "address",
                    "name": "",
                    "type": "address"
                }
            ],
            "stateMutability": "view",
            "type": "function"
        },
        {
            "inputs": [],
            "name": "VERSION",
            "outputs": [
                {
                    "internalType": "uint256",
                    "name": "",
                    "type": "uint256"
                }
            ],
            "stateMutability": "view",
            "type": "function"
        },
        {
            "inputs": [
                {
                    "internalType": "address",
                    "name": "_token",
                    "type": "address"
                },
                {
                    "internalType": "address",
                    "name": "spender",
                    "type": "address"
                },
                {
                    "internalType": "uint256",
                    "name": "tokenAmount",
                    "type": "uint256"
                }
            ],
            "name": "_getCanPayThroughApproval",
            "outputs": [
                {
                    "internalType": "bool",
                    "name": "",
                    "type": "bool"
                }
            ],
            "stateMutability": "view",
            "type": "function"
        },
        {
            "inputs": [
                {
                    "internalType": "address",
                    "name": "sponsor",
                    "type": "address"
                },
                {
                    "internalType": "uint256",
                    "name": "amount",
                    "type": "uint256"
                }
            ],
            "name": "addEthDepositTo",
            "outputs": [],
            "stateMutability": "payable",
            "type": "function"
        },
        {
            "inputs": [
                {
                    "internalType": "address",
                    "name": "token",
                    "type": "address"
                },
                {
                    "internalType": "address",
                    "name": "spender",
                    "type": "address"
                },
                {
                    "internalType": "uint256",
                    "name": "amount",
                    "type": "uint256"
                }
            ],
            "name": "addTokenDepositTo",
            "outputs": [],
            "stateMutability": "payable",
            "type": "function"
        },
        {
            "inputs": [
                {
                    "internalType": "address[]",
                    "name": "_tokens",
                    "type": "address[]"
                }
            ],
            "name": "addTokens",
            "outputs": [],
            "stateMutability": "nonpayable",
            "type": "function"
        },
        {
            "inputs": [
                {
                    "internalType": "bytes[]",
                    "name": "data",
                    "type": "bytes[]"
                }
            ],
            "name": "batchActions",
            "outputs": [],
            "stateMutability": "payable",
            "type": "function"
        },
        {
            "inputs": [],
            "name": "entryPoint",
            "outputs": [
                {
                    "internalType": "contract IEntryPoint",
                    "name": "",
                    "type": "address"
                }
            ],
            "stateMutability": "view",
            "type": "function"
        },
        {
            "inputs": [
                {
                    "internalType": "address",
                    "name": "token",
                    "type": "address"
                },
                {
                    "internalType": "address",
                    "name": "spender",
                    "type": "address"
                }
            ],
            "name": "getAllTokenData",
            "outputs": [
                {
                    "internalType": "uint256",
                    "name": "unlockBlock",
                    "type": "uint256"
                },
                {
                    "internalType": "uint256",
                    "name": "tokenAmount",
                    "type": "uint256"
                }
            ],
            "stateMutability": "view",
            "type": "function"
        },
        {
            "inputs": [],
            "name": "getAllTokens",
            "outputs": [
                {
                    "internalType": "address[]",
                    "name": "",
                    "type": "address[]"
                }
            ],
            "stateMutability": "view",
            "type": "function"
        },
        {
            "inputs": [
                {
                    "internalType": "address",
                    "name": "sponsor",
                    "type": "address"
                }
            ],
            "name": "getListMode",
            "outputs": [
                {
                    "internalType": "bool",
                    "name": "",
                    "type": "bool"
                }
            ],
            "stateMutability": "view",
            "type": "function"
        },
        {
            "inputs": [
                {
                    "internalType": "address",
                    "name": "spender",
                    "type": "address"
                },
                {
                    "internalType": "address",
                    "name": "sponsor",
                    "type": "address"
                }
            ],
            "name": "getSpenderBlacklisted",
            "outputs": [
                {
                    "internalType": "bool",
                    "name": "",
                    "type": "bool"
                }
            ],
            "stateMutability": "view",
            "type": "function"
        },
        {
            "inputs": [
                {
                    "internalType": "address",
                    "name": "spender",
                    "type": "address"
                },
                {
                    "internalType": "address",
                    "name": "sponsor",
                    "type": "address"
                }
            ],
            "name": "getSpenderWhitelisted",
            "outputs": [
                {
                    "internalType": "bool",
                    "name": "",
                    "type": "bool"
                }
            ],
            "stateMutability": "view",
            "type": "function"
        },
        {
            "inputs": [
                {
                    "internalType": "address",
                    "name": "token",
                    "type": "address"
                },
                {
                    "internalType": "address",
                    "name": "sponsor",
                    "type": "address"
                }
            ],
            "name": "getSponsorTokenUsage",
            "outputs": [
                {
                    "internalType": "bool",
                    "name": "",
                    "type": "bool"
                }
            ],
            "stateMutability": "view",
            "type": "function"
        },
        {
            "inputs": [
                {
                    "internalType": "address",
                    "name": "token",
                    "type": "address"
                }
            ],
            "name": "getToken",
            "outputs": [
                {
                    "components": [
                        {
                            "internalType": "contract ITokenPriceOracle",
                            "name": "oracle",
                            "type": "address"
                        },
                        {
                            "internalType": "contract IERC20",
                            "name": "token",
                            "type": "address"
                        },
                        {
                            "internalType": "uint8",
                            "name": "decimals",
                            "type": "uint8"
                        },
                        {
                            "internalType": "address",
                            "name": "aggregator",
                            "type": "address"
                        }
                    ],
                    "internalType": "struct TokenData",
                    "name": "",
                    "type": "tuple"
                }
            ],
            "stateMutability": "view",
            "type": "function"
        },
        {
            "inputs": [
                {
                    "internalType": "address",
                    "name": "token",
                    "type": "address"
                },
                {
                    "internalType": "address",
                    "name": "spender",
                    "type": "address"
                }
            ],
            "name": "getTokenBalance",
            "outputs": [
                {
                    "internalType": "uint256",
                    "name": "tokenAmount",
                    "type": "uint256"
                }
            ],
            "stateMutability": "view",
            "type": "function"
        },
        {
            "inputs": [
                {
                    "internalType": "address",
                    "name": "token",
                    "type": "address"
                },
                {
                    "internalType": "address",
                    "name": "sponsor",
                    "type": "address"
                }
            ],
            "name": "getTokenBlacklisted",
            "outputs": [
                {
                    "internalType": "bool",
                    "name": "",
                    "type": "bool"
                }
            ],
            "stateMutability": "view",
            "type": "function"
        },
        {
            "inputs": [
                {
                    "internalType": "address",
                    "name": "sponsor",
                    "type": "address"
                }
            ],
            "name": "getTokenListMode",
            "outputs": [
                {
                    "internalType": "bool",
                    "name": "",
                    "type": "bool"
                }
            ],
            "stateMutability": "view",
            "type": "function"
        },
        {
            "inputs": [
                {
                    "internalType": "address",
                    "name": "token",
                    "type": "address"
                },
                {
                    "internalType": "address",
                    "name": "sponsor",
                    "type": "address"
                }
            ],
            "name": "getTokenWhitelisted",
            "outputs": [
                {
                    "internalType": "bool",
                    "name": "",
                    "type": "bool"
                }
            ],
            "stateMutability": "view",
            "type": "function"
        },
        {
            "inputs": [
                {
                    "internalType": "address",
                    "name": "token",
                    "type": "address"
                },
                {
                    "internalType": "address",
                    "name": "spender",
                    "type": "address"
                }
            ],
            "name": "getUnlockBlock",
            "outputs": [
                {
                    "internalType": "uint256",
                    "name": "unlockBlock",
                    "type": "uint256"
                }
            ],
            "stateMutability": "view",
            "type": "function"
        },
        {
            "inputs": [
                {
                    "internalType": "address",
                    "name": "token",
                    "type": "address"
                }
            ],
            "name": "lockTokenDeposit",
            "outputs": [],
            "stateMutability": "payable",
            "type": "function"
        },
        {
            "inputs": [],
            "name": "owner",
            "outputs": [
                {
                    "internalType": "address",
                    "name": "",
                    "type": "address"
                }
            ],
            "stateMutability": "view",
            "type": "function"
        },
        {
            "inputs": [
                {
                    "internalType": "enum IPaymaster.PostOpMode",
                    "name": "mode",
                    "type": "uint8"
                },
                {
                    "internalType": "bytes",
                    "name": "context",
                    "type": "bytes"
                },
                {
                    "internalType": "uint256",
                    "name": "actualGasCost",
                    "type": "uint256"
                }
            ],
            "name": "postOp",
            "outputs": [],
            "stateMutability": "nonpayable",
            "type": "function"
        },
        {
            "inputs": [
                {
                    "internalType": "address[]",
                    "name": "_tokens",
                    "type": "address[]"
                }
            ],
            "name": "removeTokens",
            "outputs": [],
            "stateMutability": "nonpayable",
            "type": "function"
        },
        {
            "inputs": [],
            "name": "renounceOwnership",
            "outputs": [],
            "stateMutability": "nonpayable",
            "type": "function"
        },
        {
            "inputs": [
                {
                    "internalType": "bool",
                    "name": "mode",
                    "type": "bool"
                }
            ],
            "name": "setListMode",
            "outputs": [],
            "stateMutability": "payable",
            "type": "function"
        },
        {
            "inputs": [
                {
                    "internalType": "address",
                    "name": "spender",
                    "type": "address"
                },
                {
                    "internalType": "bool",
                    "name": "mode",
                    "type": "bool"
                }
            ],
            "name": "setSpenderBlacklistMode",
            "outputs": [],
            "stateMutability": "payable",
            "type": "function"
        },
        {
            "inputs": [
                {
                    "internalType": "address",
                    "name": "spender",
                    "type": "address"
                },
                {
                    "internalType": "bool",
                    "name": "mode",
                    "type": "bool"
                }
            ],
            "name": "setSpenderWhitelistMode",
            "outputs": [],
            "stateMutability": "payable",
            "type": "function"
        },
        {
            "inputs": [
                {
                    "internalType": "address",
                    "name": "token",
                    "type": "address"
                },
                {
                    "internalType": "bool",
                    "name": "mode",
                    "type": "bool"
                }
            ],
            "name": "setTokenBlacklistMode",
            "outputs": [],
            "stateMutability": "payable",
            "type": "function"
        },
        {
            "inputs": [
                {
                    "components": [
                        {
                            "internalType": "contract ITokenPriceOracle",
                            "name": "oracle",
                            "type": "address"
                        },
                        {
                            "internalType": "contract IERC20",
                            "name": "token",
                            "type": "address"
                        },
                        {
                            "internalType": "uint8",
                            "name": "decimals",
                            "type": "uint8"
                        },
                        {
                            "internalType": "address",
                            "name": "aggregator",
                            "type": "address"
                        }
                    ],
                    "internalType": "struct TokenData",
                    "name": "data",
                    "type": "tuple"
                }
            ],
            "name": "setTokenData",
            "outputs": [],
            "stateMutability": "nonpayable",
            "type": "function"
        },
        {
            "inputs": [
                {
                    "internalType": "bool",
                    "name": "mode",
                    "type": "bool"
                }
            ],
            "name": "setTokenListMode",
            "outputs": [],
            "stateMutability": "payable",
            "type": "function"
        },
        {
            "inputs": [
                {
                    "internalType": "address",
                    "name": "token",
                    "type": "address"
                },
                {
                    "internalType": "bool",
                    "name": "mode",
                    "type": "bool"
                }
            ],
            "name": "setTokenWhitelistMode",
            "outputs": [],
            "stateMutability": "payable",
            "type": "function"
        },
        {
            "inputs": [
                {
                    "internalType": "address",
                    "name": "",
                    "type": "address"
                }
            ],
            "name": "tokens",
            "outputs": [
                {
                    "internalType": "contract ITokenPriceOracle",
                    "name": "oracle",
                    "type": "address"
                },
                {
                    "internalType": "contract IERC20",
                    "name": "token",
                    "type": "address"
                },
                {
                    "internalType": "uint8",
                    "name": "decimals",
                    "type": "uint8"
                },
                {
                    "internalType": "address",
                    "name": "aggregator",
                    "type": "address"
                }
            ],
            "stateMutability": "view",
            "type": "function"
        },
        {
            "inputs": [
                {
                    "internalType": "address",
                    "name": "newOwner",
                    "type": "address"
                }
            ],
            "name": "transferOwnership",
            "outputs": [],
            "stateMutability": "nonpayable",
            "type": "function"
        },
        {
            "inputs": [
                {
                    "internalType": "address",
                    "name": "token",
                    "type": "address"
                },
                {
                    "internalType": "uint256",
                    "name": "num",
                    "type": "uint256"
                }
            ],
            "name": "unlockTokenDepositAfter",
            "outputs": [],
            "stateMutability": "payable",
            "type": "function"
        },
        {
            "inputs": [
                {
                    "components": [
                        {
                            "internalType": "address",
                            "name": "sender",
                            "type": "address"
                        },
                        {
                            "internalType": "uint256",
                            "name": "nonce",
                            "type": "uint256"
                        },
                        {
                            "internalType": "bytes",
                            "name": "initCode",
                            "type": "bytes"
                        },
                        {
                            "internalType": "bytes",
                            "name": "callData",
                            "type": "bytes"
                        },
                        {
                            "internalType": "uint256",
                            "name": "callGasLimit",
                            "type": "uint256"
                        },
                        {
                            "internalType": "uint256",
                            "name": "verificationGasLimit",
                            "type": "uint256"
                        },
                        {
                            "internalType": "uint256",
                            "name": "preVerificationGas",
                            "type": "uint256"
                        },
                        {
                            "internalType": "uint256",
                            "name": "maxFeePerGas",
                            "type": "uint256"
                        },
                        {
                            "internalType": "uint256",
                            "name": "maxPriorityFeePerGas",
                            "type": "uint256"
                        },
                        {
                            "internalType": "bytes",
                            "name": "paymasterAndData",
                            "type": "bytes"
                        },
                        {
                            "internalType": "bytes",
                            "name": "signature",
                            "type": "bytes"
                        }
                    ],
                    "internalType": "struct UserOperation",
                    "name": "userOp",
                    "type": "tuple"
                },
                {
                    "internalType": "bytes32",
                    "name": "userOpHash",
                    "type": "bytes32"
                },
                {
                    "internalType": "uint256",
                    "name": "maxCost",
                    "type": "uint256"
                }
            ],
            "name": "validatePaymasterUserOp",
            "outputs": [
                {
                    "internalType": "bytes",
                    "name": "context",
                    "type": "bytes"
                },
                {
                    "internalType": "uint256",
                    "name": "sigTimeRange",
                    "type": "uint256"
                }
            ],
            "stateMutability": "nonpayable",
            "type": "function"
        },
        {
            "inputs": [
                {
                    "internalType": "address",
                    "name": "target",
                    "type": "address"
                },
                {
                    "internalType": "uint256",
                    "name": "amount",
                    "type": "uint256"
                }
            ],
            "name": "withdrawEthDepositTo",
            "outputs": [],
            "stateMutability": "payable",
            "type": "function"
        },
        {
            "inputs": [
                {
                    "internalType": "address",
                    "name": "token",
                    "type": "address"
                },
                {
                    "internalType": "address",
                    "name": "target",
                    "type": "address"
                },
                {
                    "internalType": "uint256",
                    "name": "amount",
                    "type": "uint256"
                }
            ],
            "name": "withdrawTokenDepositTo",
            "outputs": [],
            "stateMutability": "payable",
            "type": "function"
        }
    ],
    "bytecode": "0x60a06040523480156200001157600080fd5b5060405162004114380380620041148339810160408190526200003491620000da565b8062000040336200008a565b6001600160a01b03811660808190526040519081527f58593678eebbfa59e0faffe7f6369641ed5107606603f7dd27140fe9cf58c8d99060200160405180910390a150506200010c565b600080546001600160a01b038381166001600160a01b0319831681178455604051919092169283917f8be0079c531659141344cd1fd0a4f28419497f9722a3daafe3b4186f6b6457e09190a35050565b600060208284031215620000ed57600080fd5b81516001600160a01b03811681146200010557600080fd5b9392505050565b608051613fd76200013d6000396000818161064a0152818161175e015281816119e20152611d950152613fd76000f3fe6080604052600436106102a05760003560e01c80638fe2d8331161016e578063d3a7263d116100cb578063e14199141161007f578063f2fde38b11610064578063f2fde38b14610824578063f465c77e14610844578063ffa1ad741461087257600080fd5b8063e14199141461075a578063e48603391461076d57600080fd5b8063d4112961116100b0578063d4112961146106f2578063d56683a214610727578063db09992b1461074757600080fd5b8063d3a7263d146106bf578063d3eccaff146106df57600080fd5b8063b26bfa7611610122578063bbc0a1c111610107578063bbc0a1c11461068c578063c05073a714610348578063c489744b1461069f57600080fd5b8063b26bfa761461066c578063ba27ff311461066c57600080fd5b8063a9a2340911610153578063a9a23409146105f8578063b027363914610618578063b0d691fe1461063857600080fd5b80638fe2d833146105d2578063a82e4668146105e557600080fd5b80636c3824ef1161021c5780637af1a0aa116101d05780638322fff2116101b55780638322fff21461054d5780638da5cb5b146105875780638f6dbe86146105b257600080fd5b80637af1a0aa146105275780637c3d169b1461053a57600080fd5b8063728c5a3b11610201578063728c5a3b146104dc57806375fb91d9146104ef578063796d43711461050257600080fd5b80636c3824ef146104a7578063715018a6146104c757600080fd5b80634ae05c7d116102735780635977043811610258578063597704381461036857806360a71f4614610474578063642f41531461049457600080fd5b80634ae05c7d1461032857806355d3ec671461034857600080fd5b8063199160e1146102a55780632a5c792a146102ba5780632d1c850c146102e557806333c1de2b146102f8575b600080fd5b6102b86102b33660046131a1565b610887565b005b3480156102c657600080fd5b506102cf6108e6565b6040516102dc91906131da565b60405180910390f35b6102b86102f3366004613234565b610955565b34801561030457600080fd5b50610318610313366004613251565b6109a7565b60405190151581526020016102dc565b34801561033457600080fd5b506102b86103433660046132de565b610b0a565b34801561035457600080fd5b50610318610363366004613320565b610b5d565b34801561037457600080fd5b50610423610383366004613234565b6040805160808101825260008082526020820181905291810182905260608101919091525073ffffffffffffffffffffffffffffffffffffffff90811660009081526003602090815260409182902082516080810184528154851681526001820154808616938201939093527401000000000000000000000000000000000000000090920460ff1692820192909252600290910154909116606082015290565b6040516102dc9190815173ffffffffffffffffffffffffffffffffffffffff908116825260208084015182169083015260408084015160ff1690830152606092830151169181019190915260800190565b34801561048057600080fd5b5061031861048f366004613234565b610b8a565b6102b86104a236600461334e565b610bb3565b3480156104b357600080fd5b506102b86104c23660046132de565b610bf8565b3480156104d357600080fd5b506102b8610c4b565b6102b86104ea3660046132de565b610c5f565b6102b86104fd36600461334e565b610ee4565b34801561050e57600080fd5b506105196201117081565b6040519081526020016102dc565b6102b86105353660046131a1565b610f22565b6102b8610548366004613251565b610f79565b34801561055957600080fd5b50610562600081565b60405173ffffffffffffffffffffffffffffffffffffffff90911681526020016102dc565b34801561059357600080fd5b5060005473ffffffffffffffffffffffffffffffffffffffff16610562565b3480156105be57600080fd5b506103186105cd366004613234565b611008565b6102b86105e036600461336b565b611017565b6102b86105f336600461336b565b611079565b34801561060457600080fd5b506102b8610613366004613397565b6110de565b34801561062457600080fd5b50610318610633366004613320565b6110f8565b34801561064457600080fd5b506105627f000000000000000000000000000000000000000000000000000000000000000081565b34801561067857600080fd5b50610318610687366004613320565b611108565b6102b861069a3660046131a1565b611118565b3480156106ab57600080fd5b506105196106ba366004613320565b61116f565b3480156106cb57600080fd5b506102b86106da366004613426565b611196565b6102b86106ed36600461336b565b611298565b3480156106fe57600080fd5b5061071261070d366004613320565b6112ed565b604080519283526020830191909152016102dc565b34801561073357600080fd5b50610519610742366004613320565b61130f565b6102b86107553660046131a1565b61131f565b6102b8610768366004613251565b611376565b34801561077957600080fd5b506107e1610788366004613234565b60036020526000908152604090208054600182015460029092015473ffffffffffffffffffffffffffffffffffffffff91821692828116927401000000000000000000000000000000000000000090910460ff16911684565b6040805173ffffffffffffffffffffffffffffffffffffffff9586168152938516602085015260ff909216918301919091529190911660608201526080016102dc565b34801561083057600080fd5b506102b861083f366004613234565b6113f8565b34801561085057600080fd5b5061086461085f36600461343e565b6114af565b6040516102dc929190613508565b34801561087e57600080fd5b50610519600681565b6108928233836114d2565b6040518115158152339073ffffffffffffffffffffffffffffffffffffffff8416907f6d66491fec9d2e6ed347a66151f2836424352b4f1efdf917e0a34ef0bc08697d906020015b60405180910390a35050565b6060600480548060200260200160405190810160405280929190818152602001828054801561094b57602002820191906000526020600020905b815473ffffffffffffffffffffffffffffffffffffffff168152600190910190602001808311610920575b5050505050905090565b61096181336000611523565b604051339073ffffffffffffffffffffffffffffffffffffffff8316907f0ee37b26948caf75d4edd02336e15dbcd9b455f35afe5119fa1513bdc7e1b24c90600090a350565b73ffffffffffffffffffffffffffffffffffffffff8381166000908152600360205260408082206001015490517fdd62ed3e0000000000000000000000000000000000000000000000000000000081528584166004820152306024820152919216908290829063dd62ed3e90604401602060405180830381865afa158015610a33573d6000803e3d6000fd5b505050506040513d601f19601f82011682018060405250810190610a57919061352a565b6040517f70a0823100000000000000000000000000000000000000000000000000000000815273ffffffffffffffffffffffffffffffffffffffff87811660048301529192506000918416906370a0823190602401602060405180830381865afa158015610ac9573d6000803e3d6000fd5b505050506040513d601f19601f82011682018060405250810190610aed919061352a565b9050848110158015610aff5750848210155b979650505050505050565b610b178282336001611548565b6040513390610b299084908490613543565b604051908190038120907f70283c290f112774c15d28ad06bc9a77aa5f20facfe897933c9b3d184c83c3a690600090a35050565b600060016000610b6d858561159d565b815260208101919091526040016000205460ff1690505b92915050565b600060016000610b99846115ca565b815260208101919091526040016000205460ff1692915050565b610bbd33826115eb565b604051811515815233907fe5f5fa7efa83c0688a244ca730f98dd6e0b4f025ccaa6c7c8049c1519b5f5f31906020015b60405180910390a250565b610c058282336000611548565b6040513390610c179084908490613543565b604051908190038120907fc613f5a5b1f8b685a3cfdd99388f0f5ebc4580a7ad1afedaa71cbd2b291435db90600090a35050565b610c5361163a565b610c5d60006116bb565b565b6000805b82811015610e3c577f8fe2d83300000000000000000000000000000000000000000000000000000000848483818110610c9e57610c9e613592565b9050602002810190610cb091906135c1565b610cbf91600491600091613626565b610cc891613650565b7fffffffff00000000000000000000000000000000000000000000000000000000161415610d4d57600080858584818110610d0557610d05613592565b9050602002810190610d1791906135c1565b610d25916004908290613626565b810190610d32919061336b565b915091508084019350610d46338383611730565b5050610e34565b600030858584818110610d6257610d62613592565b9050602002810190610d7491906135c1565b604051610d82929190613698565b600060405180830381855af49150503d8060008114610dbd576040519150601f19603f3d011682016040523d82523d6000602084013e610dc2565b606091505b5050905080610e32576040517f08c379a000000000000000000000000000000000000000000000000000000000815260206004820152600560248201527f465735303000000000000000000000000000000000000000000000000000000060448201526064015b60405180910390fd5b505b600101610c63565b50348114610ea6576040517f08c379a000000000000000000000000000000000000000000000000000000000815260206004820152600560248201527f46573530310000000000000000000000000000000000000000000000000000006044820152606401610e29565b7f81fcfcce721cc0767c2d0cd5442bd0d0d284ca35bf2fedc1dfde90a2c306b0e58383604051610ed79291906136f1565b60405180910390a1505050565b610eee3382611836565b604051811515815233907fb7abfba2528e740bd243dd36a89429cd33b12086140f7eadb64355ffeb297e4990602001610bed565b610f2d823383611844565b6040518115158152339073ffffffffffffffffffffffffffffffffffffffff8416907f73b530b6ddb298b1ad2f12b2ae17f39d19eac56f4ea25e3deb3be489711899f1906020016108da565b610f8583338484611853565b8173ffffffffffffffffffffffffffffffffffffffff163373ffffffffffffffffffffffffffffffffffffffff168473ffffffffffffffffffffffffffffffffffffffff167f6b03e3d9b0d6275be9474bbf01d74534525157bc1c71587fe96eca23864dfb4c84604051610ffb91815260200190565b60405180910390a4505050565b600060016000610b99846119bd565b8034101561102457600080fd5b61102f338383611730565b60405181815273ffffffffffffffffffffffffffffffffffffffff83169033907f5f810e4670232ef2b81dc8b2ff31673756bd57f7aef9b1968f458c62a3ac8059906020016108da565b61108d823361108884436137f6565b611523565b61109781436137f6565b604051339073ffffffffffffffffffffffffffffffffffffffff8516907f2575217a66a382a1b1e539c65f95ee8ccc933da64224e99951c851cabcf6a36f90600090a45050565b6110e66119ca565b6110f284848484611a69565b50505050565b600060016000610b6d8585611bf6565b600060016000610b6d8585611c10565b6111238233836114d2565b6040518115158152339073ffffffffffffffffffffffffffffffffffffffff8416907f2272082f36346bd8841fdbbe39d5f7cfded842aad507b07ebc1055cbc08fa5ca906020016108da565b60006002600061117f8585611c1e565b815260200190815260200160002054905092915050565b61119e61163a565b60006111b06040830160208401613234565b73ffffffffffffffffffffffffffffffffffffffff8116600090815260036020526040902090915082906111e4828261381d565b5050600480546001810182556000919091527f8a35acfbc15ff81a39ae7d344fd709f28e8600b4aa8c65c6b64bfe7fe36bd19b0180547fffffffffffffffffffffffff00000000000000000000000000000000000000001673ffffffffffffffffffffffffffffffffffffffff831617905560405161126490839061395f565b604051908190038120907f9efc7df36232a55c71238057c150a7d3596fbe8f8778f6afdf2fc2aec9d8328990600090a25050565b6112a3338383611c2c565b60405181815273ffffffffffffffffffffffffffffffffffffffff83169033907f6cd08dd2d2f473a0d120ce6e8d8f7d84893bfe31285919213b5e5e1a830afdb9906020016108da565b6000806112fa848461130f565b9150611306848461116f565b90509250929050565b60006002600061117f8585611df7565b61132a823383611844565b6040518115158152339073ffffffffffffffffffffffffffffffffffffffff8416907fe57ca4b798d10d6c59a776a05520d537d96cbeb394df5aac34a27b2aab04b81b906020016108da565b61138283338484611e05565b8173ffffffffffffffffffffffffffffffffffffffff163373ffffffffffffffffffffffffffffffffffffffff168473ffffffffffffffffffffffffffffffffffffffff167f6922149c9a806df30acf51b7e859162f8e99ae4c013d404c75f2b05a9914925084604051610ffb91815260200190565b61140061163a565b73ffffffffffffffffffffffffffffffffffffffff81166114a3576040517f08c379a000000000000000000000000000000000000000000000000000000000815260206004820152602660248201527f4f776e61626c653a206e6577206f776e657220697320746865207a65726f206160448201527f64647265737300000000000000000000000000000000000000000000000000006064820152608401610e29565b6114ac816116bb565b50565b606060006114bb6119ca565b6114c6858585611f31565b91509150935093915050565b80600160006114e18686611c10565b8152602081019190915260400160002080547fffffffffffffffffffffffffffffffffffffffffffffffffffffffffffffff0016911515919091179055505050565b80600260006115328686611df7565b8152602081019190915260400160002055505050565b60005b838110156115965761158485858381811061156857611568613592565b905060200201602081019061157d9190613234565b848461276b565b8061158e816139d4565b91505061154b565b5050505050565b60006115c3838360055b60f81b6000908152606092831b600152911b6015526029902090565b9392505050565b6000610b848260025b60f81b600090815260609190911b6001526015902090565b80600160006115f9856119bd565b8152602081019190915260400160002080547fffffffffffffffffffffffffffffffffffffffffffffffffffffffffffffff00169115159190911790555050565b60005473ffffffffffffffffffffffffffffffffffffffff163314610c5d576040517f08c379a000000000000000000000000000000000000000000000000000000000815260206004820181905260248201527f4f776e61626c653a2063616c6c6572206973206e6f7420746865206f776e65726044820152606401610e29565b6000805473ffffffffffffffffffffffffffffffffffffffff8381167fffffffffffffffffffffffff0000000000000000000000000000000000000000831681178455604051919092169283917f8be0079c531659141344cd1fd0a4f28419497f9722a3daafe3b4186f6b6457e09190a35050565b6040517fb760faf90000000000000000000000000000000000000000000000000000000081523060048201527f000000000000000000000000000000000000000000000000000000000000000073ffffffffffffffffffffffffffffffffffffffff169063b760faf99083906024016000604051808303818588803b1580156117b857600080fd5b505af11580156117cc573d6000803e3d6000fd5b505050505080600260006117e1600086611c1e565b815260200190815260200160002060008282546117fe91906137f6565b909155505073ffffffffffffffffffffffffffffffffffffffff8381169083161415611831576118316000846000611523565b505050565b80600160006115f9856115ca565b80600160006114e1868661159d565b600061185f858561130f565b9050600061186d8686611c1e565b9050811580159061187d57508143115b6118e3576040517f08c379a000000000000000000000000000000000000000000000000000000000815260206004820152600560248201527f46573530330000000000000000000000000000000000000000000000000000006044820152606401610e29565b60008181526002602052604090205483111561195b576040517f08c379a000000000000000000000000000000000000000000000000000000000815260206004820152600c60248201527f46573530343a20746f6b656e00000000000000000000000000000000000000006044820152606401610e29565b60008181526002602052604081208054859290611979908490613a3c565b909155505073ffffffffffffffffffffffffffffffffffffffff808716600090815260036020526040902060010154166119b48186866127b8565b50505050505050565b6000610b848260036115d3565b3373ffffffffffffffffffffffffffffffffffffffff7f00000000000000000000000000000000000000000000000000000000000000001614610c5d576040517f08c379a000000000000000000000000000000000000000000000000000000000815260206004820152600560248201527f46573032300000000000000000000000000000000000000000000000000000006044820152606401610e29565b600080611a7884860186613b96565b9150915060008260a001518360800151846060015162011170611a9b9190613c53565b611aa590876137f6565b611aaf9190613c53565b611ab99190613c90565b9050611acf83604001518460000151838561288c565b8060026000611ae686604001518760200151611c1e565b81526020019081526020016000206000828254611b0391906137f6565b90915550506060830151611b1a9062011170613c53565b611b2490856137f6565b60026000611b3760008760200151611c1e565b81526020019081526020016000206000828254611b549190613a3c565b92505081905550826020015173ffffffffffffffffffffffffffffffffffffffff16836000015173ffffffffffffffffffffffffffffffffffffffff168460c001517fc43d58d3eb5b4a3eb73eeb50e3f98e6e5d0a082a31e5282dce8b428a81548f4384876060015162011170611bcb9190613c53565b611bd5908a6137f6565b6040805192835260208301919091520160405180910390a450505050505050565b606082811b60009081529082901b601452602881206115c3565b60006115c3838360046115a7565b60006115c383836001612bbd565b6000611c39600085611c1e565b9050611c4660008561130f565b4311611cae576040517f08c379a000000000000000000000000000000000000000000000000000000000815260206004820152600560248201527f46573530330000000000000000000000000000000000000000000000000000006044820152606401610e29565b600081815260026020526040902054821115611d26576040517f08c379a000000000000000000000000000000000000000000000000000000000815260206004820152600a60248201527f46573530343a20657468000000000000000000000000000000000000000000006044820152606401610e29565b60008181526002602052604081208054849290611d44908490613a3c565b90915550506040517f205c287800000000000000000000000000000000000000000000000000000000815273ffffffffffffffffffffffffffffffffffffffff8481166004830152602482018490527f0000000000000000000000000000000000000000000000000000000000000000169063205c287890604401600060405180830381600087803b158015611dd957600080fd5b505af1158015611ded573d6000803e3d6000fd5b5050505050505050565b60006115c383836000612bbd565b73ffffffffffffffffffffffffffffffffffffffff841660009081526003602052604090206001015474010000000000000000000000000000000000000000900460ff16611eaf576040517f08c379a000000000000000000000000000000000000000000000000000000000815260206004820152600560248201527f46573530320000000000000000000000000000000000000000000000000000006044820152606401610e29565b73ffffffffffffffffffffffffffffffffffffffff808516600090815260036020526040812060010154909116908290600290611eec8887611c1e565b81526020019081526020016000206000828254611f0991906137f6565b90915550611596905073ffffffffffffffffffffffffffffffffffffffff8216853085612bde565b60606000603c611f456101208701876135c1565b90501015611faf576040517f08c379a000000000000000000000000000000000000000000000000000000000815260206004820152600560248201527f46573530360000000000000000000000000000000000000000000000000000006044820152606401610e29565b620111708560a001351161201f576040517f08c379a000000000000000000000000000000000000000000000000000000000815260206004820152600560248201527f46573530370000000000000000000000000000000000000000000000000000006044820152606401610e29565b600080603c6120326101208901896135c1565b905011612093576120476101208801886135c1565b61205691602891601491613626565b61205f91613ccb565b60601c91506120726101208801886135c1565b612080916028908290613626565b61208991613ccb565b60601c90506120dc565b60006120a36101208901896135c1565b6120b1916014908290613626565b8101906120be9190613d11565b509050808060200190518101906120d59190613d6b565b9093509150505b6000600260006120ed600086611df7565b8152602001908152602001600020549050806000148061210c57504381115b612172576040517f08c379a000000000000000000000000000000000000000000000000000000000815260206004820152600560248201527f46573530380000000000000000000000000000000000000000000000000000006044820152606401610e29565b50863560006002816121848585611df7565b81526020019081526020016000205490506000600260006121a6600088611c1e565b815260200190815260200160002054905081600014806121c557504382115b61222b576040517f08c379a000000000000000000000000000000000000000000000000000000000815260206004820152600560248201527f46573530390000000000000000000000000000000000000000000000000000006044820152606401610e29565b87811015612295576040517f08c379a000000000000000000000000000000000000000000000000000000000815260206004820152600560248201527f46573530340000000000000000000000000000000000000000000000000000006044820152606401610e29565b5050604080516020810190915260008082526122b18489612c3c565b90506122bd8386612e09565b612323576040517f08c379a000000000000000000000000000000000000000000000000000000000815260206004820152600560248201527f46573531300000000000000000000000000000000000000000000000000000006044820152606401610e29565b61232d8486612e8e565b612393576040517f08c379a000000000000000000000000000000000000000000000000000000000815260206004820152600560248201527f46573531310000000000000000000000000000000000000000000000000000006044820152606401610e29565b603c6123a36101208c018c6135c1565b905011156126155760006123bb6101208c018c6135c1565b6123c9916014908290613626565b8101906123d69190613d11565b9150506000806000806000858060200190518101906123f59190613d9a565b945094509450945094508973ffffffffffffffffffffffffffffffffffffffff168573ffffffffffffffffffffffffffffffffffffffff1614612494576040517f08c379a000000000000000000000000000000000000000000000000000000000815260206004820152600560248201527f46573531320000000000000000000000000000000000000000000000000000006044820152606401610e29565b73ffffffffffffffffffffffffffffffffffffffff84163014612513576040517f08c379a000000000000000000000000000000000000000000000000000000000815260206004820152600560248201527f46573531320000000000000000000000000000000000000000000000000000006044820152606401610e29565b8683101561257d576040517f08c379a000000000000000000000000000000000000000000000000000000000815260206004820152601860248201527f46573531323a206e6f7420656e6f756768207065726d697400000000000000006044820152606401610e29565b6040517fc7b43b8000000000000000000000000000000000000000000000000000000000815273ffffffffffffffffffffffffffffffffffffffff8a169063c7b43b80906125d7908d908890889088908890600401613e4f565b60006040518083038186803b1580156125ef57600080fd5b505afa158015612603573d6000803e3d6000fd5b50505050859750505050505050612697565b6126208484836109a7565b806126315750612631848483612e9e565b612697576040517f08c379a000000000000000000000000000000000000000000000000000000000815260206004820152601560248201527f46573530343a207370656e64657220746f6b656e7300000000000000000000006044820152606401610e29565b60006126a28b612ec9565b90506040518060e001604052808573ffffffffffffffffffffffffffffffffffffffff1681526020018773ffffffffffffffffffffffffffffffffffffffff1681526020018673ffffffffffffffffffffffffffffffffffffffff1681526020018281526020018381526020018a81526020018b8152508360405160200161272b929190613e94565b604080517fffffffffffffffffffffffffffffffffffffffffffffffffffffffffffffffe08184030181529190529b60009b509950505050505050505050565b60006127778484611bf6565b600090815260016020526040902080547fffffffffffffffffffffffffffffffffffffffffffffffffffffffffffffff001692151592909217909155505050565b60405173ffffffffffffffffffffffffffffffffffffffff83166024820152604481018290526118319084907fa9059cbb00000000000000000000000000000000000000000000000000000000906064015b604080517fffffffffffffffffffffffffffffffffffffffffffffffffffffffffffffffe08184030181529190526020810180517bffffffffffffffffffffffffffffffffffffffffffffffffffffffff167fffffffff0000000000000000000000000000000000000000000000000000000090931692909217909152612ef1565b805115612abf576000806000806000858060200190518101906128af9190613d9a565b945094509450945094506000808973ffffffffffffffffffffffffffffffffffffffff16631397ea8560e01b88888888886040516024016128f4959493929190613e4f565b604080517fffffffffffffffffffffffffffffffffffffffffffffffffffffffffffffffe08184030181529181526020820180517bffffffffffffffffffffffffffffffffffffffffffffffffffffffff167fffffffff0000000000000000000000000000000000000000000000000000000090941693909317909252905161297d9190613f10565b6000604051808303816000865af19150503d80600081146129ba576040519150601f19603f3d011682016040523d82523d6000602084013e6129bf565b606091505b50915091508180156129e05750808060200190518101906129e09190613f2c565b15612a1c5784600260006129f48a8e611c1e565b81526020019081526020016000206000828254612a1191906137f6565b90915550612ab79050565b80517ffffffffffffffffffffffffffffffffffffffffffffffffffffffffffffffffc016004909101908152604051612a59908290602001613f49565b604080517fffffffffffffffffffffffffffffffffffffffffffffffffffffffffffffffe0818403018152908290527f08c379a0000000000000000000000000000000000000000000000000000000008252610e2991600401613f8e565b505050505050505b612aca8484846109a7565b15612b0c5773ffffffffffffffffffffffffffffffffffffffff80851660009081526003602052604090206001015416612b0681853086612bde565b506110f2565b6000612b188585611c1e565b600081815260026020526040902054909150831115612b93576040517f08c379a000000000000000000000000000000000000000000000000000000000815260206004820152600560248201527f46573530350000000000000000000000000000000000000000000000000000006044820152606401610e29565b60008181526002602052604081208054859290612bb1908490613a3c565b90915550505050505050565b6000612bd684848460058111156115a7576115a7613a0d565b949350505050565b60405173ffffffffffffffffffffffffffffffffffffffff808516602483015283166044820152606481018290526110f29085907f23b872dd000000000000000000000000000000000000000000000000000000009060840161280a565b73ffffffffffffffffffffffffffffffffffffffff8281166000908152600360209081526040808320815160808101835281548616815260018201548087168286015260ff7401000000000000000000000000000000000000000090910416818401819052600290920154861660608201819052835160248101919091526044810188905260648082019390935283518082039093018352608401835292810180517bffffffffffffffffffffffffffffffffffffffffffffffffffffffff167f6a2f4918000000000000000000000000000000000000000000000000000000001790528251915193949293909285928392911690612d3c908590613f10565b600060405180830381855afa9150503d8060008114612d77576040519150601f19603f3d011682016040523d82523d6000602084013e612d7c565b606091505b5091509150818015612d8f575060008151115b612df5576040517f08c379a000000000000000000000000000000000000000000000000000000000815260206004820152600560248201527f46573630300000000000000000000000000000000000000000000000000000006044820152606401610e29565b80806020019051810190610aff919061352a565b60008060016000612e19856115ca565b815260208101919091526040016000205460ff1690508015612e6457600060016000612e458787611c10565b815260208101919091526040016000205460ff16159250610b84915050565b60016000612e72868661159d565b815260208101919091526040016000205460ff16949350505050565b60008060016000612e19856119bd565b60008160026000612eaf8787611c1e565b815260200190815260200160002054101590509392505050565b600060e082013561010083013580821415612ee5575092915050565b612bd682488301612ffd565b6000612f53826040518060400160405280602081526020017f5361666545524332303a206c6f772d6c6576656c2063616c6c206661696c65648152508573ffffffffffffffffffffffffffffffffffffffff166130139092919063ffffffff16565b8051909150156118315780806020019051810190612f719190613f2c565b611831576040517f08c379a000000000000000000000000000000000000000000000000000000000815260206004820152602a60248201527f5361666545524332303a204552433230206f7065726174696f6e20646964206e60448201527f6f742073756363656564000000000000000000000000000000000000000000006064820152608401610e29565b600081831061300c57816115c3565b5090919050565b6060612bd68484600085856000808673ffffffffffffffffffffffffffffffffffffffff1685876040516130479190613f10565b60006040518083038185875af1925050503d8060008114613084576040519150601f19603f3d011682016040523d82523d6000602084013e613089565b606091505b5091509150610aff87838387606083156131285782516131215773ffffffffffffffffffffffffffffffffffffffff85163b613121576040517f08c379a000000000000000000000000000000000000000000000000000000000815260206004820152601d60248201527f416464726573733a2063616c6c20746f206e6f6e2d636f6e74726163740000006044820152606401610e29565b5081612bd6565b612bd6838381511561313d5781518083602001fd5b806040517f08c379a0000000000000000000000000000000000000000000000000000000008152600401610e299190613f8e565b73ffffffffffffffffffffffffffffffffffffffff811681146114ac57600080fd5b80151581146114ac57600080fd5b600080604083850312156131b457600080fd5b82356131bf81613171565b915060208301356131cf81613193565b809150509250929050565b6020808252825182820181905260009190848201906040850190845b8181101561322857835173ffffffffffffffffffffffffffffffffffffffff16835292840192918401916001016131f6565b50909695505050505050565b60006020828403121561324657600080fd5b81356115c381613171565b60008060006060848603121561326657600080fd5b833561327181613171565b9250602084013561328181613171565b929592945050506040919091013590565b60008083601f8401126132a457600080fd5b50813567ffffffffffffffff8111156132bc57600080fd5b6020830191508360208260051b85010111156132d757600080fd5b9250929050565b600080602083850312156132f157600080fd5b823567ffffffffffffffff81111561330857600080fd5b61331485828601613292565b90969095509350505050565b6000806040838503121561333357600080fd5b823561333e81613171565b915060208301356131cf81613171565b60006020828403121561336057600080fd5b81356115c381613193565b6000806040838503121561337e57600080fd5b823561338981613171565b946020939093013593505050565b600080600080606085870312156133ad57600080fd5b8435600381106133bc57600080fd5b9350602085013567ffffffffffffffff808211156133d957600080fd5b818701915087601f8301126133ed57600080fd5b8135818111156133fc57600080fd5b88602082850101111561340e57600080fd5b95986020929092019750949560400135945092505050565b60006080828403121561343857600080fd5b50919050565b60008060006060848603121561345357600080fd5b833567ffffffffffffffff81111561346a57600080fd5b8401610160818703121561347d57600080fd5b95602085013595506040909401359392505050565b60005b838110156134ad578181015183820152602001613495565b838111156110f25750506000910152565b600081518084526134d6816020860160208601613492565b601f017fffffffffffffffffffffffffffffffffffffffffffffffffffffffffffffffe0169290920160200192915050565b60408152600061351b60408301856134be565b90508260208301529392505050565b60006020828403121561353c57600080fd5b5051919050565b60008184825b8581101561358757813561355c81613171565b73ffffffffffffffffffffffffffffffffffffffff1683526020928301929190910190600101613549565b509095945050505050565b7f4e487b7100000000000000000000000000000000000000000000000000000000600052603260045260246000fd5b60008083357fffffffffffffffffffffffffffffffffffffffffffffffffffffffffffffffe18436030181126135f657600080fd5b83018035915067ffffffffffffffff82111561361157600080fd5b6020019150368190038213156132d757600080fd5b6000808585111561363657600080fd5b8386111561364357600080fd5b5050820193919092039150565b7fffffffff0000000000000000000000000000000000000000000000000000000081358181169160048510156136905780818660040360031b1b83161692505b505092915050565b8183823760009101908152919050565b8183528181602085013750600060208284010152600060207fffffffffffffffffffffffffffffffffffffffffffffffffffffffffffffffe0601f840116840101905092915050565b60208082528181018390526000906040600585901b8401810190840186845b878110156137ba577fffffffffffffffffffffffffffffffffffffffffffffffffffffffffffffffc087850301835281357fffffffffffffffffffffffffffffffffffffffffffffffffffffffffffffffe18a360301811261377157600080fd5b8901803567ffffffffffffffff81111561378a57600080fd5b8036038b131561379957600080fd5b6137a686828985016136a8565b955050509184019190840190600101613710565b5091979650505050505050565b7f4e487b7100000000000000000000000000000000000000000000000000000000600052601160045260246000fd5b60008219821115613809576138096137c7565b500190565b60ff811681146114ac57600080fd5b813561382881613171565b81547fffffffffffffffffffffffff00000000000000000000000000000000000000001673ffffffffffffffffffffffffffffffffffffffff82161782555060018101602083013561387981613171565b81547fffffffffffffffffffffffff00000000000000000000000000000000000000001673ffffffffffffffffffffffffffffffffffffffff82161782555060408301356138c68161380e565b81547fffffffffffffffffffffff00ffffffffffffffffffffffffffffffffffffffff1660a09190911b74ff000000000000000000000000000000000000000016179055606082013561391881613171565b6002820180547fffffffffffffffffffffffff00000000000000000000000000000000000000001673ffffffffffffffffffffffffffffffffffffffff8316179055505050565b6000823561396c81613171565b73ffffffffffffffffffffffffffffffffffffffff908116835260208401359061399582613171565b90811660208401526040840135906139ac8261380e565b60ff82166040850152606085013591506139c582613171565b16606083015250608001919050565b60007fffffffffffffffffffffffffffffffffffffffffffffffffffffffffffffffff821415613a0657613a066137c7565b5060010190565b7f4e487b7100000000000000000000000000000000000000000000000000000000600052602160045260246000fd5b600082821015613a4e57613a4e6137c7565b500390565b7f4e487b7100000000000000000000000000000000000000000000000000000000600052604160045260246000fd5b60405160e0810167ffffffffffffffff81118282101715613aa557613aa5613a53565b60405290565b604051601f82017fffffffffffffffffffffffffffffffffffffffffffffffffffffffffffffffe016810167ffffffffffffffff81118282101715613af257613af2613a53565b604052919050565b600067ffffffffffffffff821115613b1457613b14613a53565b50601f017fffffffffffffffffffffffffffffffffffffffffffffffffffffffffffffffe01660200190565b600082601f830112613b5157600080fd5b8135613b64613b5f82613afa565b613aab565b818152846020838601011115613b7957600080fd5b816020850160208301376000918101602001919091529392505050565b600080828403610100811215613bab57600080fd5b60e0811215613bb957600080fd5b50613bc2613a82565b8335613bcd81613171565b81526020840135613bdd81613171565b60208201526040840135613bf081613171565b80604083015250606084013560608201526080840135608082015260a084013560a082015260c084013560c08201528092505060e083013567ffffffffffffffff811115613c3d57600080fd5b613c4985828601613b40565b9150509250929050565b6000817fffffffffffffffffffffffffffffffffffffffffffffffffffffffffffffffff0483118215151615613c8b57613c8b6137c7565b500290565b600082613cc6577f4e487b7100000000000000000000000000000000000000000000000000000000600052601260045260246000fd5b500490565b7fffffffffffffffffffffffffffffffffffffffff00000000000000000000000081358181169160148510156136905760149490940360031b84901b1690921692915050565b60008060408385031215613d2457600080fd5b823567ffffffffffffffff80821115613d3c57600080fd5b613d4886838701613b40565b93506020850135915080821115613d5e57600080fd5b50613c4985828601613b40565b60008060408385031215613d7e57600080fd5b8251613d8981613171565b60208401519092506131cf81613171565b600080600080600060a08688031215613db257600080fd5b8551613dbd81613171565b6020870151909550613dce81613171565b809450506040860151925060608601519150608086015167ffffffffffffffff811115613dfa57600080fd5b8601601f81018813613e0b57600080fd5b8051613e19613b5f82613afa565b818152896020838501011115613e2e57600080fd5b613e3f826020830160208601613492565b8093505050509295509295909350565b600073ffffffffffffffffffffffffffffffffffffffff808816835280871660208401525084604083015283606083015260a06080830152610aff60a08301846134be565b600061010073ffffffffffffffffffffffffffffffffffffffff80865116845280602087015116602085015280604087015116604085015250606085015160608401526080850151608084015260a085015160a084015260c085015160c08401528060e0840152613f07818401856134be565b95945050505050565b60008251613f22818460208701613492565b9190910192915050565b600060208284031215613f3e57600080fd5b81516115c381613193565b7f46573531333a2000000000000000000000000000000000000000000000000000815260008251613f81816007850160208701613492565b9190910160070192915050565b6020815260006115c360208301846134be56fea264697066735822122045ab59cb70f7e6d934ab4d96092390981fd91cd73d54453a5412fda84503cfb164736f6c634300080c0033",
    "linkReferences": {},
    "deployedLinkReferences": {}
}