{"_format":"hh-sol-artifact-1","contractName":"UserAuthentication","sourceName":"contracts/validations/UserAuthentication.sol","abi":[{"inputs":[],"name":"ADMIN_ROLE","outputs":[{"internalType":"bytes32","name":"","type":"bytes32"}],"stateMutability":"view","type":"function"},{"inputs":[],"name":"INIT_HASH","outputs":[{"internalType":"bytes32","name":"","type":"bytes32"}],"stateMutability":"view","type":"function"},{"inputs":[],"name":"VERSION","outputs":[{"internalType":"uint256","name":"","type":"uint256"}],"stateMutability":"view","type":"function"},{"inputs":[{"components":[{"internalType":"address","name":"sender","type":"address"},{"internalType":"uint256","name":"nonce","type":"uint256"},{"internalType":"bytes","name":"initCode","type":"bytes"},{"internalType":"bytes","name":"callData","type":"bytes"},{"internalType":"uint256","name":"callGasLimit","type":"uint256"},{"internalType":"uint256","name":"verificationGasLimit","type":"uint256"},{"internalType":"uint256","name":"preVerificationGas","type":"uint256"},{"internalType":"uint256","name":"maxFeePerGas","type":"uint256"},{"internalType":"uint256","name":"maxPriorityFeePerGas","type":"uint256"},{"internalType":"bytes","name":"paymasterAndData","type":"bytes"},{"internalType":"bytes","name":"signature","type":"bytes"}],"internalType":"struct UserOperation","name":"userOp","type":"tuple"},{"internalType":"bytes32","name":"userOpHash","type":"bytes32"},{"internalType":"bytes","name":"","type":"bytes"}],"name":"authenticateUserOp","outputs":[{"internalType":"uint256","name":"sigTimeRange","type":"uint256"}],"stateMutability":"view","type":"function"},{"inputs":[{"internalType":"bytes32","name":"groupId","type":"bytes32"},{"components":[{"internalType":"bytes32[]","name":"userIds","type":"bytes32[]"},{"internalType":"uint256","name":"threshold","type":"uint256"}],"internalType":"struct MultiSigGroup","name":"group","type":"tuple"}],"name":"createMultiSigGroup","outputs":[],"stateMutability":"nonpayable","type":"function"},{"inputs":[{"internalType":"bytes32","name":"groupId","type":"bytes32"}],"name":"deleteMultiSigGroup","outputs":[],"stateMutability":"nonpayable","type":"function"},{"inputs":[{"internalType":"bytes32","name":"key","type":"bytes32"}],"name":"getState","outputs":[{"internalType":"bytes","name":"state","type":"bytes"}],"stateMutability":"view","type":"function"},{"inputs":[{"internalType":"bytes32","name":"key","type":"bytes32"}],"name":"getState32","outputs":[{"internalType":"bytes32","name":"state","type":"bytes32"}],"stateMutability":"view","type":"function"},{"inputs":[{"internalType":"bytes","name":"multiSigInitData","type":"bytes"}],"name":"init","outputs":[],"stateMutability":"nonpayable","type":"function"},{"inputs":[{"internalType":"bytes32","name":"_hash","type":"bytes32"},{"internalType":"bytes","name":"_signature","type":"bytes"}],"name":"isValidSignature","outputs":[{"internalType":"bytes4","name":"","type":"bytes4"}],"stateMutability":"view","type":"function"},{"inputs":[{"internalType":"bytes[]","name":"calls","type":"bytes[]"}],"name":"multiCall","outputs":[],"stateMutability":"nonpayable","type":"function"},{"inputs":[{"internalType":"bytes","name":"signature","type":"bytes"},{"internalType":"bytes32","name":"userOpHash","type":"bytes32"},{"internalType":"bytes32","name":"userId","type":"bytes32"}],"name":"subValidateSignatureECDSA","outputs":[{"internalType":"uint256","name":"sigTimeRange","type":"uint256"}],"stateMutability":"pure","type":"function"},{"inputs":[{"internalType":"bytes32","name":"groupId","type":"bytes32"},{"components":[{"internalType":"bytes32[]","name":"userIds","type":"bytes32[]"},{"internalType":"uint256","name":"threshold","type":"uint256"}],"internalType":"struct MultiSigGroup","name":"group","type":"tuple"}],"name":"updateMultiSigGroup","outputs":[],"stateMutability":"nonpayable","type":"function"}],"bytecode":"0x608060405234801561001057600080fd5b5061234d806100206000396000f3fe608060405234801561001057600080fd5b50600436106100df5760003560e01c80634ddf47d41161008c578063d52a8a4811610066578063d52a8a481461020a578063f528a60a1461021d578063fe1477a914610230578063ffa1ad741461024357600080fd5b80634ddf47d4146101bd578063525e46f2146101d057806375b238fc146101e357600080fd5b80632517781d116100bd5780632517781d14610182578063348a0cdc14610197578063371b8139146101aa57600080fd5b8063057a0e2b146100e457806309648a9d1461011e5780631626ba7e1461013e575b600080fd5b61010b7f696e69742e736c6f74000000000000000000000000000000000000000000000081565b6040519081526020015b60405180910390f35b61013161012c36600461169f565b61024b565b6040516101159190611732565b61015161014c366004611787565b61030b565b6040517fffffffff000000000000000000000000000000000000000000000000000000009091168152602001610115565b6101956101903660046117d3565b61038a565b005b6101956101a5366004611821565b610437565b6101956101b83660046117d3565b6104e4565b6101956101cb366004611896565b61081c565b61010b6101de366004611a1b565b610950565b61010b7f61646d696e00000000000000000000000000000000000000000000000000000081565b61010b610218366004611a91565b610989565b61019561022b36600461169f565b610a00565b61010b61023e36600461169f565b610b21565b61010b600281565b606060006102668330600091825260601b6020526034902090565b6040517f09648a9d0000000000000000000000000000000000000000000000000000000081526004810182905290915033906309648a9d90602401600060405180830381865afa1580156102be573d6000803e3d6000fd5b505050506040513d6000823e601f3d9081017fffffffffffffffffffffffffffffffffffffffffffffffffffffffffffffffe01682016040526103049190810190611b24565b9392505050565b60008060008061031b8686610baf565b5092509250925061032e8383838a610bd1565b61035e57507f1626ba7e000000000000000000000000000000000000000000000000000000009250610304915050565b507fffffffff000000000000000000000000000000000000000000000000000000009695505050505050565b60016103b57f696e69742e736c6f740000000000000000000000000000000000000000000000610b21565b14610421576040517f08c379a000000000000000000000000000000000000000000000000000000000815260206004820152600560248201527f465730333000000000000000000000000000000000000000000000000000000060448201526064015b60405180910390fd5b6104338261042e83611c35565b610c6e565b5050565b60005b818110156104df5760003084848481811061045757610457611c47565b90506020028101906104699190611c76565b604051610477929190611cdb565b600060405180830381855af49150503d80600081146104b2576040519150601f19603f3d011682016040523d82523d6000602084013e6104b7565b606091505b50509050806104cc576040513d6000823e3d81fd5b50806104d781611d1a565b91505061043a565b505050565b600161050f7f696e69742e736c6f740000000000000000000000000000000000000000000000610b21565b14610576576040517f08c379a000000000000000000000000000000000000000000000000000000000815260206004820152600560248201527f46573033300000000000000000000000000000000000000000000000000000006044820152606401610418565b60006105828280611d53565b9050116105eb576040517f08c379a000000000000000000000000000000000000000000000000000000000815260206004820152600560248201527f46573330320000000000000000000000000000000000000000000000000000006044820152606401610418565b6000816020013511610659576040517f08c379a000000000000000000000000000000000000000000000000000000000815260206004820152600560248201527f46573330330000000000000000000000000000000000000000000000000000006044820152606401610418565b6106638180611d53565b9050816020013511156106d2576040517f08c379a000000000000000000000000000000000000000000000000000000000815260206004820152600560248201527f46573330330000000000000000000000000000000000000000000000000000006044820152606401610418565b6106e36106de82611c35565b610e4b565b60006106ee8361024b565b905080516000141561075c576040517f08c379a000000000000000000000000000000000000000000000000000000000815260206004820152600560248201527f46573330340000000000000000000000000000000000000000000000000000006044820152606401610418565b8160405160200161076d9190611dbb565b60405160208183030381529060405280519060200120818051906020012014156107f3576040517f08c379a000000000000000000000000000000000000000000000000000000000815260206004820152600560248201527f46573330370000000000000000000000000000000000000000000000000000006044820152606401610418565b6104df83836040516020016108089190611dbb565b604051602081830303815290604052610f3d565b60006108477f696e69742e736c6f740000000000000000000000000000000000000000000000610b21565b146108ae576040517f08c379a000000000000000000000000000000000000000000000000000000000815260206004820152600560248201527f46573033300000000000000000000000000000000000000000000000000000006044820152606401610418565b8015610925576000806108c383850185611e85565b9150915060005b82518110156109215761090f8382815181106108e8576108e8611c47565b602002602001015183838151811061090257610902611c47565b6020026020010151610c6e565b8061091981611d1a565b9150506108ca565b5050505b6104337f696e69742e736c6f7400000000000000000000000000000000000000000000006001610fb1565b600080808061096b610966610140890189611c76565b610baf565b5092509250925061097e83838389610bd1565b979650505050505050565b6000806109e3846040517f19457468657265756d205369676e6564204d6573736167653a0a3332000000006020820152603c8101829052600090605c01604051602081830303815290604052805190602001209050919050565b905060006109f18287610ff5565b90931460011895945050505050565b6001610a2b7f696e69742e736c6f740000000000000000000000000000000000000000000000610b21565b14610a92576040517f08c379a000000000000000000000000000000000000000000000000000000000815260206004820152600560248201527f46573033300000000000000000000000000000000000000000000000000000006044820152606401610418565b6000610a9d8261024b565b5111610b05576040517f08c379a000000000000000000000000000000000000000000000000000000000815260206004820152600560248201527f46573330340000000000000000000000000000000000000000000000000000006044820152606401610418565b610b1e8160405180602001604052806000815250610f3d565b50565b60008181523060601b6020526034812081906040517ffe1477a900000000000000000000000000000000000000000000000000000000815260048101829052909150339063fe1477a990602401602060405180830381865afa158015610b8b573d6000803e3d6000fd5b505050506040513d601f19601f820116820180604052508101906103049190611f5a565b600080606080610bc185870187611f82565b9299919850965090945092505050565b600060ff8516610bed57610be6838386611019565b9050610c66565b60ff851660011415610c0457610be683838661112d565b6040517f08c379a000000000000000000000000000000000000000000000000000000000815260206004820152600560248201527f46573330300000000000000000000000000000000000000000000000000000006044820152606401610418565b949350505050565b805151610cd7576040517f08c379a000000000000000000000000000000000000000000000000000000000815260206004820152600560248201527f46573330320000000000000000000000000000000000000000000000000000006044820152606401610418565b6000816020015111610d45576040517f08c379a000000000000000000000000000000000000000000000000000000000815260206004820152600560248201527f46573330330000000000000000000000000000000000000000000000000000006044820152606401610418565b80515160208201511115610db5576040517f08c379a000000000000000000000000000000000000000000000000000000000815260206004820152600560248201527f46573330330000000000000000000000000000000000000000000000000000006044820152606401610418565b610dbe81610e4b565b6000610dc98361024b565b90508051600014610e36576040517f08c379a000000000000000000000000000000000000000000000000000000000815260206004820152600560248201527f46573330340000000000000000000000000000000000000000000000000000006044820152606401610418565b6104df83836040516020016108089190612031565b7fffffffffffffffffffffffffffffffffffffffffffffffffffffffffffffffff60005b82515160ff821610156104df578251805160ff8316908110610e9357610e93611c47565b602002602001015160001c8211610f06576040517f08c379a000000000000000000000000000000000000000000000000000000000815260206004820152600560248201527f46573330380000000000000000000000000000000000000000000000000000006044820152606401610418565b8251805160ff8316908110610f1d57610f1d611c47565b602002602001015160001c91508080610f359061208d565b915050610e6f565b6040517f81296f6f00000000000000000000000000000000000000000000000000000000815233906381296f6f90610f7b90859085906004016120ad565b600060405180830381600087803b158015610f9557600080fd5b505af1158015610fa9573d6000803e3d6000fd5b505050505050565b6040517f4086d5b600000000000000000000000000000000000000000000000000000000815260048101839052602481018290523390634086d5b690604401610f7b565b600080600061100485856113b3565b91509150611011816113f9565b509392505050565b60008063d52a8a4860e01b858585604051602401611039939291906120c6565b604051602081830303815290604052907bffffffffffffffffffffffffffffffffffffffffffffffffffffffff19166020820180517bffffffffffffffffffffffffffffffffffffffffffffffffffffffff838183161783525050505090506000803073ffffffffffffffffffffffffffffffffffffffff16836040516110c091906120eb565b600060405180830381855afa9150503d80600081146110fb576040519150601f19603f3d011682016040523d82523d6000602084013e611100565b606091505b509150915081156111175760208101519350611123565b60019350505050610304565b5050509392505050565b6000806111398361024b565b905060008151116111a6576040517f08c379a000000000000000000000000000000000000000000000000000000000815260206004820152600560248201527f46573330340000000000000000000000000000000000000000000000000000006044820152606401610418565b6000818060200190518101906111bc9190612107565b9050600080878060200190518101906111d59190612252565b915091508051825114611244576040517f08c379a000000000000000000000000000000000000000000000000000000000815260206004820152600b60248201527f46573330353a20736967730000000000000000000000000000000000000000006044820152606401610418565b8260200151825110156112b3576040517f08c379a000000000000000000000000000000000000000000000000000000000815260206004820152601060248201527f46573330353a207468726573686f6c64000000000000000000000000000000006044820152606401610418565b600060ff815b845181101561138b5761131f8482815181106112d7576112d7611c47565b60200260200101518b88600001518885815181106112f7576112f7611c47565b602002602001015160ff168151811061131257611312611c47565b6020026020010151611019565b15801561134a575084818151811061133957611339611c47565b602002602001015160ff168260ff16115b15611379578261135981611d1a565b93505084818151811061136e5761136e611c47565b602002602001015191505b8061138381611d1a565b9150506112b9565b50846020015182101561139f5760016113a2565b60005b60ff169a9950505050505050505050565b6000808251604114156113ea5760208301516040840151606085015160001a6113de878285856115b0565b945094505050506113f2565b506000905060025b9250929050565b600081600481111561140d5761140d612002565b14156114165750565b600181600481111561142a5761142a612002565b1415611492576040517f08c379a000000000000000000000000000000000000000000000000000000000815260206004820152601860248201527f45434453413a20696e76616c6964207369676e617475726500000000000000006044820152606401610418565b60028160048111156114a6576114a6612002565b141561150e576040517f08c379a000000000000000000000000000000000000000000000000000000000815260206004820152601f60248201527f45434453413a20696e76616c6964207369676e6174757265206c656e677468006044820152606401610418565b600381600481111561152257611522612002565b1415610b1e576040517f08c379a000000000000000000000000000000000000000000000000000000000815260206004820152602260248201527f45434453413a20696e76616c6964207369676e6174757265202773272076616c60448201527f75650000000000000000000000000000000000000000000000000000000000006064820152608401610418565b6000807f7fffffffffffffffffffffffffffffff5d576e7357a4501ddfe92f46681b20a08311156115e75750600090506003611696565b6040805160008082526020820180845289905260ff881692820192909252606081018690526080810185905260019060a0016020604051602081039080840390855afa15801561163b573d6000803e3d6000fd5b50506040517fffffffffffffffffffffffffffffffffffffffffffffffffffffffffffffffe0015191505073ffffffffffffffffffffffffffffffffffffffff811661168f57600060019250925050611696565b9150600090505b94509492505050565b6000602082840312156116b157600080fd5b5035919050565b60005b838110156116d35781810151838201526020016116bb565b838111156116e2576000848401525b50505050565b600081518084526117008160208601602086016116b8565b601f017fffffffffffffffffffffffffffffffffffffffffffffffffffffffffffffffe0169290920160200192915050565b60208152600061030460208301846116e8565b60008083601f84011261175757600080fd5b50813567ffffffffffffffff81111561176f57600080fd5b6020830191508360208285010111156113f257600080fd5b60008060006040848603121561179c57600080fd5b83359250602084013567ffffffffffffffff8111156117ba57600080fd5b6117c686828701611745565b9497909650939450505050565b600080604083850312156117e657600080fd5b82359150602083013567ffffffffffffffff81111561180457600080fd5b83016040818603121561181657600080fd5b809150509250929050565b6000806020838503121561183457600080fd5b823567ffffffffffffffff8082111561184c57600080fd5b818501915085601f83011261186057600080fd5b81358181111561186f57600080fd5b8660208260051b850101111561188457600080fd5b60209290920196919550909350505050565b600080602083850312156118a957600080fd5b823567ffffffffffffffff8111156118c057600080fd5b6118cc85828601611745565b90969095509350505050565b7f4e487b7100000000000000000000000000000000000000000000000000000000600052604160045260246000fd5b6040805190810167ffffffffffffffff8111828210171561192a5761192a6118d8565b60405290565b604051601f82017fffffffffffffffffffffffffffffffffffffffffffffffffffffffffffffffe016810167ffffffffffffffff81118282101715611977576119776118d8565b604052919050565b600067ffffffffffffffff821115611999576119996118d8565b50601f017fffffffffffffffffffffffffffffffffffffffffffffffffffffffffffffffe01660200190565b600082601f8301126119d657600080fd5b81356119e96119e48261197f565b611930565b8181528460208386010111156119fe57600080fd5b816020850160208301376000918101602001919091529392505050565b600080600060608486031215611a3057600080fd5b833567ffffffffffffffff80821115611a4857600080fd5b908501906101608288031215611a5d57600080fd5b9093506020850135925060408501359080821115611a7a57600080fd5b50611a87868287016119c5565b9150509250925092565b600080600060608486031215611aa657600080fd5b833567ffffffffffffffff811115611abd57600080fd5b611ac9868287016119c5565b9660208601359650604090950135949350505050565b600082601f830112611af057600080fd5b8151611afe6119e48261197f565b818152846020838601011115611b1357600080fd5b610c668260208301602087016116b8565b600060208284031215611b3657600080fd5b815167ffffffffffffffff811115611b4d57600080fd5b610c6684828501611adf565b600067ffffffffffffffff821115611b7357611b736118d8565b5060051b60200190565b600082601f830112611b8e57600080fd5b81356020611b9e6119e483611b59565b82815260059290921b84018101918181019086841115611bbd57600080fd5b8286015b84811015611bd85780358352918301918301611bc1565b509695505050505050565b600060408284031215611bf557600080fd5b611bfd611907565b9050813567ffffffffffffffff811115611c1657600080fd5b611c2284828501611b7d565b8252506020820135602082015292915050565b6000611c413683611be3565b92915050565b7f4e487b7100000000000000000000000000000000000000000000000000000000600052603260045260246000fd5b60008083357fffffffffffffffffffffffffffffffffffffffffffffffffffffffffffffffe1843603018112611cab57600080fd5b83018035915067ffffffffffffffff821115611cc657600080fd5b6020019150368190038213156113f257600080fd5b8183823760009101908152919050565b7f4e487b7100000000000000000000000000000000000000000000000000000000600052601160045260246000fd5b60007fffffffffffffffffffffffffffffffffffffffffffffffffffffffffffffffff821415611d4c57611d4c611ceb565b5060010190565b60008083357fffffffffffffffffffffffffffffffffffffffffffffffffffffffffffffffe1843603018112611d8857600080fd5b83018035915067ffffffffffffffff821115611da357600080fd5b6020019150600581901b36038213156113f257600080fd5b60208152600082357fffffffffffffffffffffffffffffffffffffffffffffffffffffffffffffffe1843603018112611df357600080fd5b8301803567ffffffffffffffff811115611e0c57600080fd5b8060051b803603861315611e1f57600080fd5b604060208601528160608601527f07ffffffffffffffffffffffffffffffffffffffffffffffffffffffffffffff821115611e5957600080fd5b806020840160808701376080818601019250505060008152602084013560408401528091505092915050565b60008060408385031215611e9857600080fd5b823567ffffffffffffffff80821115611eb057600080fd5b611ebc86838701611b7d565b9350602091508185013581811115611ed357600080fd5b8501601f81018713611ee457600080fd5b8035611ef26119e482611b59565b81815260059190911b82018401908481019089831115611f1157600080fd5b8584015b83811015611f4957803586811115611f2d5760008081fd5b611f3b8c8983890101611be3565b845250918601918601611f15565b508096505050505050509250929050565b600060208284031215611f6c57600080fd5b5051919050565b60ff81168114610b1e57600080fd5b60008060008060808587031215611f9857600080fd5b8435611fa381611f73565b935060208501359250604085013567ffffffffffffffff80821115611fc757600080fd5b611fd3888389016119c5565b93506060870135915080821115611fe957600080fd5b50611ff6878288016119c5565b91505092959194509250565b7f4e487b7100000000000000000000000000000000000000000000000000000000600052602160045260246000fd5b6020808252825160408383015280516060840181905260009291820190839060808601905b808310156120765783518252928401926001929092019190840190612056565b508387015160408701528094505050505092915050565b600060ff821660ff8114156120a4576120a4611ceb565b60010192915050565b828152604060208201526000610c6660408301846116e8565b6060815260006120d960608301866116e8565b60208301949094525060400152919050565b600082516120fd8184602087016116b8565b9190910192915050565b6000602080838503121561211a57600080fd5b825167ffffffffffffffff8082111561213257600080fd5b908401906040828703121561214657600080fd5b61214e611907565b82518281111561215d57600080fd5b83019150601f8201871361217057600080fd5b815161217e6119e482611b59565b81815260059190911b8301850190858101908983111561219d57600080fd5b938601935b828510156121bb578451825293860193908601906121a2565b835250509183015192820192909252949350505050565b600082601f8301126121e357600080fd5b815160206121f36119e483611b59565b82815260059290921b8401810191818101908684111561221257600080fd5b8286015b84811015611bd857805167ffffffffffffffff8111156122365760008081fd5b6122448986838b0101611adf565b845250918301918301612216565b6000806040838503121561226557600080fd5b825167ffffffffffffffff8082111561227d57600080fd5b818501915085601f83011261229157600080fd5b815160206122a16119e483611b59565b82815260059290921b840181019181810190898411156122c057600080fd5b948201945b838610156122e75785516122d881611f73565b825294820194908201906122c5565b9188015191965090935050508082111561230057600080fd5b5061230d858286016121d2565b915050925092905056fea2646970667358221220042add31874b56f2e986bf579adb7bd87b55a2bdbdb5d1a9fa8e3bf370bcb84c64736f6c634300080c0033","linkReferences":{},"deployedLinkReferences":{}}