{"_format":"hh-sol-artifact-1","contractName":"ApproveAndExec","sourceName":"contracts/modules/actions/ApproveAndExec.sol","abi":[{"inputs":[],"name":"EMPTY_BYTES32","outputs":[{"internalType":"bytes32","name":"","type":"bytes32"}],"stateMutability":"view","type":"function"},{"inputs":[],"name":"EMPTY_STATE","outputs":[{"internalType":"bytes","name":"","type":"bytes"}],"stateMutability":"view","type":"function"},{"inputs":[{"internalType":"address","name":"dest","type":"address"},{"internalType":"uint256","name":"value","type":"uint256"},{"internalType":"bytes","name":"executeData","type":"bytes"},{"internalType":"address","name":"token","type":"address"},{"internalType":"bytes","name":"approveData","type":"bytes"}],"name":"execute","outputs":[{"internalType":"bytes","name":"","type":"bytes"}],"stateMutability":"payable","type":"function"},{"inputs":[{"internalType":"bytes","name":"","type":"bytes"}],"name":"execute","outputs":[{"internalType":"bytes","name":"","type":"bytes"}],"stateMutability":"payable","type":"function"},{"inputs":[],"name":"getState","outputs":[{"internalType":"bytes","name":"state","type":"bytes"}],"stateMutability":"view","type":"function"},{"inputs":[{"internalType":"bytes","name":"","type":"bytes"}],"name":"init","outputs":[{"internalType":"bytes","name":"","type":"bytes"}],"stateMutability":"payable","type":"function"},{"inputs":[],"name":"payFee","outputs":[],"stateMutability":"payable","type":"function"},{"inputs":[{"internalType":"bytes","name":"data","type":"bytes"},{"components":[{"internalType":"bytes32","name":"action","type":"bytes32"},{"internalType":"bytes","name":"target","type":"bytes"},{"internalType":"enum Keyword","name":"keyword","type":"uint8"},{"internalType":"bytes32","name":"extent","type":"bytes32"}],"internalType":"struct Rule[]","name":"rules","type":"tuple[]"}],"name":"validate","outputs":[],"stateMutability":"view","type":"function"},{"stateMutability":"payable","type":"receive"}],"bytecode":"0x608060405234801561001057600080fd5b506109bf806100206000396000f3fe60806040526004361061007f5760003560e01c80633d14319d1161004e5780633d14319d146100de5780634ddf47d41461010157806352bd4f41146101145780638db71efb1461013557600080fd5b806304e745be1461008b57806309c5eabe146100b45780631865c57d146100c757806329610252146100dc57600080fd5b3661008657005b600080fd5b61009e6100993660046105d5565b61017e565b6040516100ab91906106e9565b60405180910390f35b61009e6100c2366004610703565b6102d6565b3480156100d357600080fd5b5061009e61039c565b005b3480156100ea57600080fd5b506100f3600081565b6040519081526020016100ab565b61009e61010f366004610703565b61043e565b34801561012057600080fd5b506100dc61012f366004610745565b50505050565b34801561014157600080fd5b5061009e6040518060400160405280600b81526020017f454d5054595f535441544500000000000000000000000000000000000000000081525081565b60607f095ea7b3000000000000000000000000000000000000000000000000000000006101af6004600085876107df565b6101b891610809565b7fffffffff000000000000000000000000000000000000000000000000000000001614610246576040517f08c379a000000000000000000000000000000000000000000000000000000000815260206004820152601460248201527f696e76616c696420617070726f7665206461746100000000000000000000000060448201526064015b60405180910390fd5b61028884600085858080601f0160208091040260200160405190810160405280939291908181526020018383808284376000920191909152506104b392505050565b506102ca888888888080601f0160208091040260200160405190810160405280939291908181526020018383808284376000920191909152506104b392505050565b50979650505050505050565b6040517f08c379a000000000000000000000000000000000000000000000000000000000815260206004820152602660248201527f65786563757465206d6574686f64206e6565647320746f20626520696d706c6560448201527f6d656e7465640000000000000000000000000000000000000000000000000000606482015260609060840161023d565b5060408051808201909152600b81527f454d5054595f5354415445000000000000000000000000000000000000000000602082015292915050565b6040517fd06403d6000000000000000000000000000000000000000000000000000000008152306004820152606090339063d06403d690602401600060405180830381865afa1580156103f3573d6000803e3d6000fd5b505050506040513d6000823e601f3d9081017fffffffffffffffffffffffffffffffffffffffffffffffffffffffffffffffe01682016040526104399190810190610880565b905090565b6060600061044a61039c565b511115610361576040517f08c379a000000000000000000000000000000000000000000000000000000000815260206004820152601d60248201527f6d6f64756c6520697320616c726561647920696e697469616c697a6564000000604482015260640161023d565b6040517f20d2a20f00000000000000000000000000000000000000000000000000000000815260609033906320d2a20f906104f69087908790879060040161094b565b6000604051808303816000875af1158015610515573d6000803e3d6000fd5b505050506040513d6000823e601f3d9081017fffffffffffffffffffffffffffffffffffffffffffffffffffffffffffffffe016820160405261055b9190810190610880565b949350505050565b803573ffffffffffffffffffffffffffffffffffffffff8116811461058757600080fd5b919050565b60008083601f84011261059e57600080fd5b50813567ffffffffffffffff8111156105b657600080fd5b6020830191508360208285010111156105ce57600080fd5b9250929050565b600080600080600080600060a0888a0312156105f057600080fd5b6105f988610563565b965060208801359550604088013567ffffffffffffffff8082111561061d57600080fd5b6106298b838c0161058c565b909750955085915061063d60608b01610563565b945060808a013591508082111561065357600080fd5b506106608a828b0161058c565b989b979a50959850939692959293505050565b60005b8381101561068e578181015183820152602001610676565b8381111561012f5750506000910152565b600081518084526106b7816020860160208601610673565b601f017fffffffffffffffffffffffffffffffffffffffffffffffffffffffffffffffe0169290920160200192915050565b6020815260006106fc602083018461069f565b9392505050565b6000806020838503121561071657600080fd5b823567ffffffffffffffff81111561072d57600080fd5b6107398582860161058c565b90969095509350505050565b6000806000806040858703121561075b57600080fd5b843567ffffffffffffffff8082111561077357600080fd5b61077f8883890161058c565b9096509450602087013591508082111561079857600080fd5b818701915087601f8301126107ac57600080fd5b8135818111156107bb57600080fd5b8860208260051b85010111156107d057600080fd5b95989497505060200194505050565b600080858511156107ef57600080fd5b838611156107fc57600080fd5b5050820193919092039150565b7fffffffff0000000000000000000000000000000000000000000000000000000081358181169160048510156108495780818660040360031b1b83161692505b505092915050565b7f4e487b7100000000000000000000000000000000000000000000000000000000600052604160045260246000fd5b60006020828403121561089257600080fd5b815167ffffffffffffffff808211156108aa57600080fd5b818401915084601f8301126108be57600080fd5b8151818111156108d0576108d0610851565b604051601f82017fffffffffffffffffffffffffffffffffffffffffffffffffffffffffffffffe0908116603f0116810190838211818310171561091657610916610851565b8160405282815287602084870101111561092f57600080fd5b610940836020830160208801610673565b979650505050505050565b73ffffffffffffffffffffffffffffffffffffffff84168152826020820152606060408201526000610980606083018461069f565b9594505050505056fea2646970667358221220cb324e610e029f787c631ee63bc267cd08071310e22cee5f071a5fb5dea795ce64736f6c634300080c0033","linkReferences":{},"deployedLinkReferences":{}}