{"_format":"hh-sol-artifact-1","contractName":"ApproveAndExec","sourceName":"contracts/modules/actions/ApproveAndExec.sol","abi":[{"inputs":[],"name":"EMPTY_BYTES32","outputs":[{"internalType":"bytes32","name":"","type":"bytes32"}],"stateMutability":"view","type":"function"},{"inputs":[],"name":"EMPTY_STATE","outputs":[{"internalType":"bytes","name":"","type":"bytes"}],"stateMutability":"view","type":"function"},{"inputs":[{"internalType":"address","name":"dest","type":"address"},{"internalType":"uint256","name":"value","type":"uint256"},{"internalType":"bytes","name":"executeData","type":"bytes"},{"internalType":"address","name":"token","type":"address"},{"internalType":"bytes","name":"approveData","type":"bytes"}],"name":"approveAndExecute","outputs":[{"internalType":"bytes","name":"","type":"bytes"}],"stateMutability":"payable","type":"function"},{"inputs":[{"internalType":"bytes","name":"","type":"bytes"}],"name":"execute","outputs":[{"internalType":"bytes","name":"","type":"bytes"}],"stateMutability":"payable","type":"function"},{"inputs":[],"name":"getState","outputs":[{"internalType":"bytes","name":"state","type":"bytes"}],"stateMutability":"view","type":"function"},{"inputs":[{"internalType":"bytes","name":"","type":"bytes"}],"name":"init","outputs":[{"internalType":"bytes","name":"","type":"bytes"}],"stateMutability":"payable","type":"function"},{"inputs":[],"name":"payFee","outputs":[],"stateMutability":"payable","type":"function"},{"inputs":[{"internalType":"bytes","name":"data","type":"bytes"},{"components":[{"internalType":"bytes32","name":"action","type":"bytes32"},{"internalType":"bytes","name":"target","type":"bytes"},{"internalType":"enum Keyword","name":"keyword","type":"uint8"},{"internalType":"bytes32","name":"extent","type":"bytes32"}],"internalType":"struct Rule[]","name":"rules","type":"tuple[]"}],"name":"validate","outputs":[],"stateMutability":"view","type":"function"},{"stateMutability":"payable","type":"receive"}],"bytecode":"0x608060405234801561001057600080fd5b506109bf806100206000396000f3fe60806040526004361061007f5760003560e01c80634ddf47d41161004e5780634ddf47d4146100ee57806352bd4f41146101015780638db71efb14610122578063c777bbf51461016b57600080fd5b806309c5eabe1461008b5780631865c57d146100b457806329610252146100c95780633d14319d146100cb57600080fd5b3661008657005b600080fd5b61009e6100993660046105ac565b61017e565b6040516100ab9190610664565b60405180910390f35b3480156100c057600080fd5b5061009e610249565b005b3480156100d757600080fd5b506100e0600081565b6040519081526020016100ab565b61009e6100fc3660046105ac565b6102eb565b34801561010d57600080fd5b506100c961011c36600461067e565b50505050565b34801561012e57600080fd5b5061009e6040518060400160405280600b81526020017f454d5054595f535441544500000000000000000000000000000000000000000081525081565b61009e610179366004610741565b610360565b6040517f08c379a000000000000000000000000000000000000000000000000000000000815260206004820152602660248201527f65786563757465206d6574686f64206e6565647320746f20626520696d706c6560448201527f6d656e746564000000000000000000000000000000000000000000000000000060648201526060906084015b60405180910390fd5b5060408051808201909152600b81527f454d5054595f5354415445000000000000000000000000000000000000000000602082015292915050565b6040517fd06403d6000000000000000000000000000000000000000000000000000000008152306004820152606090339063d06403d690602401600060405180830381865afa1580156102a0573d6000803e3d6000fd5b505050506040513d6000823e601f3d9081017fffffffffffffffffffffffffffffffffffffffffffffffffffffffffffffffe01682016040526102e6919081019061080e565b905090565b606060006102f7610249565b51111561020e576040517f08c379a000000000000000000000000000000000000000000000000000000000815260206004820152601d60248201527f6d6f64756c6520697320616c726561647920696e697469616c697a65640000006044820152606401610205565b60607f095ea7b3000000000000000000000000000000000000000000000000000000006103916004600085876108d9565b61039a91610903565b7fffffffff000000000000000000000000000000000000000000000000000000001614610423576040517f08c379a000000000000000000000000000000000000000000000000000000000815260206004820152601460248201527f696e76616c696420617070726f766520646174610000000000000000000000006044820152606401610205565b61046584600085858080601f0160208091040260200160405190810160405280939291908181526020018383808284376000920191909152506104b392505050565b506104a7888888888080601f0160208091040260200160405190810160405280939291908181526020018383808284376000920191909152506104b392505050565b98975050505050505050565b6040517f20d2a20f00000000000000000000000000000000000000000000000000000000815260609033906320d2a20f906104f69087908790879060040161094b565b6000604051808303816000875af1158015610515573d6000803e3d6000fd5b505050506040513d6000823e601f3d9081017fffffffffffffffffffffffffffffffffffffffffffffffffffffffffffffffe016820160405261055b919081019061080e565b949350505050565b60008083601f84011261057557600080fd5b50813567ffffffffffffffff81111561058d57600080fd5b6020830191508360208285010111156105a557600080fd5b9250929050565b600080602083850312156105bf57600080fd5b823567ffffffffffffffff8111156105d657600080fd5b6105e285828601610563565b90969095509350505050565b60005b838110156106095781810151838201526020016105f1565b8381111561011c5750506000910152565b600081518084526106328160208601602086016105ee565b601f017fffffffffffffffffffffffffffffffffffffffffffffffffffffffffffffffe0169290920160200192915050565b602081526000610677602083018461061a565b9392505050565b6000806000806040858703121561069457600080fd5b843567ffffffffffffffff808211156106ac57600080fd5b6106b888838901610563565b909650945060208701359150808211156106d157600080fd5b818701915087601f8301126106e557600080fd5b8135818111156106f457600080fd5b8860208260051b850101111561070957600080fd5b95989497505060200194505050565b803573ffffffffffffffffffffffffffffffffffffffff8116811461073c57600080fd5b919050565b600080600080600080600060a0888a03121561075c57600080fd5b61076588610718565b965060208801359550604088013567ffffffffffffffff8082111561078957600080fd5b6107958b838c01610563565b90975095508591506107a960608b01610718565b945060808a01359150808211156107bf57600080fd5b506107cc8a828b01610563565b989b979a50959850939692959293505050565b7f4e487b7100000000000000000000000000000000000000000000000000000000600052604160045260246000fd5b60006020828403121561082057600080fd5b815167ffffffffffffffff8082111561083857600080fd5b818401915084601f83011261084c57600080fd5b81518181111561085e5761085e6107df565b604051601f82017fffffffffffffffffffffffffffffffffffffffffffffffffffffffffffffffe0908116603f011681019083821181831017156108a4576108a46107df565b816040528281528760208487010111156108bd57600080fd5b6108ce8360208301602088016105ee565b979650505050505050565b600080858511156108e957600080fd5b838611156108f657600080fd5b5050820193919092039150565b7fffffffff0000000000000000000000000000000000000000000000000000000081358181169160048510156109435780818660040360031b1b83161692505b505092915050565b73ffffffffffffffffffffffffffffffffffffffff84168152826020820152606060408201526000610980606083018461061a565b9594505050505056fea2646970667358221220d25a503860b732fee184a7fa4bddd02aa69ee1757323542097587ca073ed174964736f6c634300080c0033","linkReferences":{},"deployedLinkReferences":{}}