{"_format":"hh-sol-artifact-1","contractName":"FeelessPaymaster","sourceName":"contracts/paymaster/FeelessPaymaster.sol","abi":[{"inputs":[{"internalType":"contract IEntryPoint","name":"_entryPoint","type":"address"}],"stateMutability":"nonpayable","type":"constructor"},{"anonymous":false,"inputs":[{"indexed":true,"internalType":"address","name":"previousOwner","type":"address"},{"indexed":true,"internalType":"address","name":"newOwner","type":"address"}],"name":"OwnershipTransferred","type":"event"},{"inputs":[],"name":"COST_OF_POST","outputs":[{"internalType":"uint256","name":"","type":"uint256"}],"stateMutability":"view","type":"function"},{"inputs":[{"internalType":"address","name":"sponsor","type":"address"},{"internalType":"uint256","name":"amount","type":"uint256"}],"name":"addDepositTo","outputs":[],"stateMutability":"payable","type":"function"},{"inputs":[{"internalType":"uint32","name":"unstakeDelaySec","type":"uint32"}],"name":"addStake","outputs":[],"stateMutability":"payable","type":"function"},{"inputs":[],"name":"deposit","outputs":[],"stateMutability":"payable","type":"function"},{"inputs":[],"name":"entryPoint","outputs":[{"internalType":"contract IEntryPoint","name":"","type":"address"}],"stateMutability":"view","type":"function"},{"inputs":[{"internalType":"address","name":"sponsor","type":"address"}],"name":"getBalance","outputs":[{"internalType":"uint256","name":"","type":"uint256"}],"stateMutability":"view","type":"function"},{"inputs":[{"internalType":"address","name":"sponsor","type":"address"},{"internalType":"address","name":"spender","type":"address"}],"name":"getBlacklistMode","outputs":[{"internalType":"bool","name":"","type":"bool"}],"stateMutability":"view","type":"function"},{"inputs":[],"name":"getDeposit","outputs":[{"internalType":"uint256","name":"","type":"uint256"}],"stateMutability":"view","type":"function"},{"inputs":[{"internalType":"address","name":"spender","type":"address"}],"name":"getListMode","outputs":[{"internalType":"bool","name":"","type":"bool"}],"stateMutability":"view","type":"function"},{"inputs":[{"internalType":"address","name":"spender","type":"address"}],"name":"getUnlockBlock","outputs":[{"internalType":"uint256","name":"","type":"uint256"}],"stateMutability":"view","type":"function"},{"inputs":[{"internalType":"address","name":"sponsor","type":"address"},{"internalType":"address","name":"spender","type":"address"}],"name":"getWhitelistMode","outputs":[{"internalType":"bool","name":"","type":"bool"}],"stateMutability":"view","type":"function"},{"inputs":[],"name":"lockDeposit","outputs":[],"stateMutability":"payable","type":"function"},{"inputs":[],"name":"owner","outputs":[{"internalType":"address","name":"","type":"address"}],"stateMutability":"view","type":"function"},{"inputs":[{"internalType":"enum IPaymaster.PostOpMode","name":"mode","type":"uint8"},{"internalType":"bytes","name":"context","type":"bytes"},{"internalType":"uint256","name":"actualGasCost","type":"uint256"}],"name":"postOp","outputs":[],"stateMutability":"nonpayable","type":"function"},{"inputs":[],"name":"renounceOwnership","outputs":[],"stateMutability":"nonpayable","type":"function"},{"inputs":[{"internalType":"bool","name":"mode","type":"bool"}],"name":"setListMode","outputs":[],"stateMutability":"payable","type":"function"},{"inputs":[{"internalType":"address","name":"spender","type":"address"},{"internalType":"bool","name":"mode","type":"bool"}],"name":"setSpenderBlacklistMode","outputs":[],"stateMutability":"payable","type":"function"},{"inputs":[{"internalType":"address","name":"spender","type":"address"},{"internalType":"bool","name":"mode","type":"bool"}],"name":"setSpenderWhitelistMode","outputs":[],"stateMutability":"payable","type":"function"},{"inputs":[{"internalType":"address","name":"newOwner","type":"address"}],"name":"transferOwnership","outputs":[],"stateMutability":"nonpayable","type":"function"},{"inputs":[{"internalType":"uint256","name":"num","type":"uint256"}],"name":"unlockDepositAfter","outputs":[],"stateMutability":"payable","type":"function"},{"inputs":[],"name":"unlockStake","outputs":[],"stateMutability":"nonpayable","type":"function"},{"inputs":[{"components":[{"internalType":"address","name":"sender","type":"address"},{"internalType":"uint256","name":"nonce","type":"uint256"},{"internalType":"bytes","name":"initCode","type":"bytes"},{"internalType":"bytes","name":"callData","type":"bytes"},{"internalType":"uint256","name":"callGasLimit","type":"uint256"},{"internalType":"uint256","name":"verificationGasLimit","type":"uint256"},{"internalType":"uint256","name":"preVerificationGas","type":"uint256"},{"internalType":"uint256","name":"maxFeePerGas","type":"uint256"},{"internalType":"uint256","name":"maxPriorityFeePerGas","type":"uint256"},{"internalType":"bytes","name":"paymasterAndData","type":"bytes"},{"internalType":"bytes","name":"signature","type":"bytes"}],"internalType":"struct UserOperation","name":"userOp","type":"tuple"},{"internalType":"bytes32","name":"userOpHash","type":"bytes32"},{"internalType":"uint256","name":"maxCost","type":"uint256"}],"name":"validatePaymasterUserOp","outputs":[{"internalType":"bytes","name":"context","type":"bytes"},{"internalType":"uint256","name":"sigTimeRange","type":"uint256"}],"stateMutability":"nonpayable","type":"function"},{"inputs":[{"internalType":"address","name":"target","type":"address"},{"internalType":"uint256","name":"amount","type":"uint256"}],"name":"withdrawDepositTo","outputs":[],"stateMutability":"payable","type":"function"},{"inputs":[{"internalType":"address payable","name":"withdrawAddress","type":"address"}],"name":"withdrawStake","outputs":[],"stateMutability":"nonpayable","type":"function"},{"inputs":[{"internalType":"address payable","name":"withdrawAddress","type":"address"},{"internalType":"uint256","name":"amount","type":"uint256"}],"name":"withdrawTo","outputs":[],"stateMutability":"nonpayable","type":"function"}],"bytecode":"0x60a06040523480156200001157600080fd5b5060405162001ed138038062001ed18339810160408190526200003491620000a3565b80620000403362000053565b6001600160a01b031660805250620000d5565b600080546001600160a01b038381166001600160a01b0319831681178455604051919092169283917f8be0079c531659141344cd1fd0a4f28419497f9722a3daafe3b4186f6b6457e09190a35050565b600060208284031215620000b657600080fd5b81516001600160a01b0381168114620000ce57600080fd5b9392505050565b608051611da16200013060003960008181610358015281816105070152818161060b015281816107780152818161099401528181610a2401528181610ad701528181610fe001528181611211015261139d0152611da16000f3fe6080604052600436106101965760003560e01c8063b0d691fe116100e1578063d0e30db01161008a578063ea92283711610064578063ea92283714610427578063f2fde38b1461043a578063f465c77e1461045a578063f8b2cb4f1461048857600080fd5b8063d0e30db0146103f7578063d1b844e6146103ff578063db09992b1461041457600080fd5b8063bbc0a1c1116100bb578063bbc0a1c1146103af578063c23a5cea146103c2578063c399ec88146103e257600080fd5b8063b0d691fe14610346578063b2eb82151461037a578063bb9fe6bf1461039a57600080fd5b8063677947c811610143578063796d43711161011d578063796d4371146102c45780638da5cb5b146102da578063a9a234091461032657600080fd5b8063677947c81461027c578063715018a61461029c57806375fb91d9146102b157600080fd5b8063205c287811610174578063205c2878146102195780634d44560d1461023957806360a71f461461024c57600080fd5b80630396cb601461019b5780630bb4df0c146101b05780630bef4e2114610206575b600080fd5b6101ae6101a9366004611933565b6104cb565b005b3480156101bc57600080fd5b506101f36101cb36600461197b565b73ffffffffffffffffffffffffffffffffffffffff1660009081526002602052604090205490565b6040519081526020015b60405180910390f35b6101ae610214366004611998565b61057d565b34801561022557600080fd5b506101ae6102343660046119b1565b6105b7565b6101ae6102473660046119b1565b61064f565b34801561025857600080fd5b5061026c61026736600461197b565b61065e565b60405190151581526020016101fd565b34801561028857600080fd5b5061026c6102973660046119dd565b6106f9565b3480156102a857600080fd5b506101ae610726565b6101ae6102bf366004611a2b565b61073a565b3480156102d057600080fd5b506101f36188b881565b3480156102e657600080fd5b5060005473ffffffffffffffffffffffffffffffffffffffff165b60405173ffffffffffffffffffffffffffffffffffffffff90911681526020016101fd565b34801561033257600080fd5b506101ae610341366004611a46565b610744565b34801561035257600080fd5b506103017f000000000000000000000000000000000000000000000000000000000000000081565b34801561038657600080fd5b5061026c6103953660046119dd565b61075e565b3480156103a657600080fd5b506101ae61076e565b6101ae6103bd366004611ad5565b6107f2565b3480156103ce57600080fd5b506101ae6103dd36600461197b565b610947565b3480156103ee57600080fd5b506101f36109f3565b6101ae610aa9565b6101ae33600090815260026020526040812055565b6101ae610422366004611ad5565b610b31565b6101ae6104353660046119b1565b610c82565b34801561044657600080fd5b506101ae61045536600461197b565b610c99565b34801561046657600080fd5b5061047a610475366004611b0a565b610d4d565b6040516101fd929190611b5e565b34801561049457600080fd5b506101f36104a336600461197b565b73ffffffffffffffffffffffffffffffffffffffff1660009081526003602052604090205490565b6104d3610d70565b6040517f0396cb6000000000000000000000000000000000000000000000000000000000815263ffffffff821660048201527f000000000000000000000000000000000000000000000000000000000000000073ffffffffffffffffffffffffffffffffffffffff1690630396cb609034906024016000604051808303818588803b15801561056157600080fd5b505af1158015610575573d6000803e3d6000fd5b505050505050565b6105b43361058b8343611c08565b73ffffffffffffffffffffffffffffffffffffffff909116600090815260026020526040902055565b50565b6105bf610d70565b6040517f205c287800000000000000000000000000000000000000000000000000000000815273ffffffffffffffffffffffffffffffffffffffff8381166004830152602482018390527f0000000000000000000000000000000000000000000000000000000000000000169063205c287890604401600060405180830381600087803b15801561056157600080fd5b61065a338383610df1565b5050565b6000600160006106df846040805173ffffffffffffffffffffffffffffffffffffffff8316602082015280820191909152600860608201527f6c6973744d6f6465000000000000000000000000000000000000000000000000608082015260009060a001604051602081830303815290604052805190602001209050919050565b815260208101919091526040016000205460ff1692915050565b6000600160006107098585611041565b815260208101919091526040016000205460ff1690505b92915050565b61072e610d70565b61073860006110c3565b565b6105b43382611138565b61074c6111f9565b6107588484848461123b565b50505050565b60006001600061070985856112a7565b610776610d70565b7f000000000000000000000000000000000000000000000000000000000000000073ffffffffffffffffffffffffffffffffffffffff1663bb9fe6bf6040518163ffffffff1660e01b8152600401600060405180830381600087803b1580156107de57600080fd5b505af1158015610758573d6000803e3d6000fd5b60016000610871336040805173ffffffffffffffffffffffffffffffffffffffff8316602082015280820191909152600860608201527f6c6973744d6f6465000000000000000000000000000000000000000000000000608082015260009060a001604051602081830303815290604052805190602001209050919050565b815260208101919091526040016000205460ff1661093c576040517f08c379a000000000000000000000000000000000000000000000000000000000815260206004820152604660248201527f546f6b656e5061796d61737465723a206d6f64652069732073657420746f207760448201527f686974656c6973742063616e206e6f7420616464207573657220746f20626c6160648201527f636b6c6973740000000000000000000000000000000000000000000000000000608482015260a4015b60405180910390fd5b61065a33838361130f565b61094f610d70565b6040517fc23a5cea00000000000000000000000000000000000000000000000000000000815273ffffffffffffffffffffffffffffffffffffffff82811660048301527f0000000000000000000000000000000000000000000000000000000000000000169063c23a5cea90602401600060405180830381600087803b1580156109d857600080fd5b505af11580156109ec573d6000803e3d6000fd5b5050505050565b6040517f70a082310000000000000000000000000000000000000000000000000000000081523060048201526000907f000000000000000000000000000000000000000000000000000000000000000073ffffffffffffffffffffffffffffffffffffffff16906370a0823190602401602060405180830381865afa158015610a80573d6000803e3d6000fd5b505050506040513d601f19601f82011682018060405250810190610aa49190611c20565b905090565b6040517fb760faf90000000000000000000000000000000000000000000000000000000081523060048201527f000000000000000000000000000000000000000000000000000000000000000073ffffffffffffffffffffffffffffffffffffffff169063b760faf99034906024016000604051808303818588803b1580156109d857600080fd5b60016000610bb0846040805173ffffffffffffffffffffffffffffffffffffffff8316602082015280820191909152600860608201527f6c6973744d6f6465000000000000000000000000000000000000000000000000608082015260009060a001604051602081830303815290604052805190602001209050919050565b815260208101919091526040016000205460ff1615610c77576040517f08c379a000000000000000000000000000000000000000000000000000000000815260206004820152604660248201527f546f6b656e5061796d61737465723a206d6f64652069732073657420746f206260448201527f6c61636b6c6973742063616e206e6f7420616464207573657220746f2077686960648201527f74656c6973740000000000000000000000000000000000000000000000000000608482015260a401610933565b61065a338383611360565b80341015610c8f57600080fd5b61065a828261136f565b610ca1610d70565b73ffffffffffffffffffffffffffffffffffffffff8116610d44576040517f08c379a000000000000000000000000000000000000000000000000000000000815260206004820152602660248201527f4f776e61626c653a206e6577206f776e657220697320746865207a65726f206160448201527f64647265737300000000000000000000000000000000000000000000000000006064820152608401610933565b6105b4816110c3565b60606000610d596111f9565b610d6485858561144f565b91509150935093915050565b60005473ffffffffffffffffffffffffffffffffffffffff163314610738576040517f08c379a000000000000000000000000000000000000000000000000000000000815260206004820181905260248201527f4f776e61626c653a2063616c6c6572206973206e6f7420746865206f776e65726044820152606401610933565b73ffffffffffffffffffffffffffffffffffffffff83166000908152600260205260409020544311610ea5576040517f08c379a000000000000000000000000000000000000000000000000000000000815260206004820152602760248201527f546f6b656e5061796d61737465723a206d75737420756e6c6f636b546f6b656e60448201527f4465706f736974000000000000000000000000000000000000000000000000006064820152608401610933565b73ffffffffffffffffffffffffffffffffffffffff8316600090815260036020526040902054811115610f5a576040517f08c379a000000000000000000000000000000000000000000000000000000000815260206004820152602c60248201527f546f6b656e5061796d61737465723a20646f6573206e6f74206861766520656e60448201527f6f7567682062616c616e636500000000000000000000000000000000000000006064820152608401610933565b73ffffffffffffffffffffffffffffffffffffffff831660009081526003602052604081208054839290610f8f908490611c39565b90915550506040517f205c287800000000000000000000000000000000000000000000000000000000815273ffffffffffffffffffffffffffffffffffffffff8381166004830152602482018390527f0000000000000000000000000000000000000000000000000000000000000000169063205c287890604401600060405180830381600087803b15801561102457600080fd5b505af1158015611038573d6000803e3d6000fd5b50505050505050565b6040805173ffffffffffffffffffffffffffffffffffffffff8085166020830152831691810191909152606080820152600960808201527f77686974656c697374000000000000000000000000000000000000000000000060a082015260009060c0015b60405160208183030381529060405280519060200120905092915050565b6000805473ffffffffffffffffffffffffffffffffffffffff8381167fffffffffffffffffffffffff0000000000000000000000000000000000000000831681178455604051919092169283917f8be0079c531659141344cd1fd0a4f28419497f9722a3daafe3b4186f6b6457e09190a35050565b80600160006111b8856040805173ffffffffffffffffffffffffffffffffffffffff8316602082015280820191909152600860608201527f6c6973744d6f6465000000000000000000000000000000000000000000000000608082015260009060a001604051602081830303815290604052805190602001209050919050565b8152602081019190915260400160002080547fffffffffffffffffffffffffffffffffffffffffffffffffffffffffffffff00169115159190911790555050565b3373ffffffffffffffffffffffffffffffffffffffff7f0000000000000000000000000000000000000000000000000000000000000000161461073857600080fd5b60008061124a848601866119b1565b909250905061125b816188b8611c50565b6112659084611c08565b73ffffffffffffffffffffffffffffffffffffffff83166000908152600360205260408120805490919061129a908490611c39565b9091555050505050505050565b6040805173ffffffffffffffffffffffffffffffffffffffff8085166020830152831691810191909152606080820152600960808201527f626c61636b6c697374000000000000000000000000000000000000000000000060a082015260009060c0016110a5565b806001600061131e86866112a7565b8152602081019190915260400160002080547fffffffffffffffffffffffffffffffffffffffffffffffffffffffffffffff0016911515919091179055505050565b806001600061131e8686611041565b6040517fb760faf90000000000000000000000000000000000000000000000000000000081523060048201527f000000000000000000000000000000000000000000000000000000000000000073ffffffffffffffffffffffffffffffffffffffff169063b760faf99083906024016000604051808303818588803b1580156113f757600080fd5b505af115801561140b573d6000803e3d6000fd5b50505073ffffffffffffffffffffffffffffffffffffffff841660009081526003602052604081208054859450909250611446908490611c08565b90915550505050565b60606000611461610120860186611c8d565b90506028146114f2576040517f08c379a000000000000000000000000000000000000000000000000000000000815260206004820152603560248201527f546f6b656e5061796d61737465723a207061796d6173746572416e644461746160448201527f206d75737420737065636966792073706f6e736f7200000000000000000000006064820152608401610933565b6188b88560a0013511611587576040517f08c379a000000000000000000000000000000000000000000000000000000000815260206004820152602660248201527f546f6b656e5061796d61737465723a2067617320746f6f206c6f7720666f722060448201527f706f73744f7000000000000000000000000000000000000000000000000000006064820152608401610933565b6000611597610120870187611c8d565b6115a5916014908290611cf9565b6115ae91611d23565b60601c6000818152600260205260409020549091508015806115cf57504381115b611635576040517f08c379a000000000000000000000000000000000000000000000000000000000815260206004820152601c60248201527f546f6b656e5061796d61737465723a205374616b65204c6f636b6564000000006044820152606401610933565b863561164181846117f7565b6116cd576040517f08c379a000000000000000000000000000000000000000000000000000000000815260206004820152603360248201527f546f6b656e5061796d61737465723a20686173206e6f74206f7220646f65732060448201527f6e6f7420617070726f7665207370656e646572000000000000000000000000006064820152608401610933565b73ffffffffffffffffffffffffffffffffffffffff8316600090815260036020526040902054861115611782576040517f08c379a000000000000000000000000000000000000000000000000000000000815260206004820152602c60248201527f546f6b656e5061796d61737465723a20646f6573206e6f74206861766520656e60448201527f6f75676820746f2066756e6400000000000000000000000000000000000000006064820152608401610933565b600061178d896118eb565b6040805173ffffffffffffffffffffffffffffffffffffffff87166020820152908101829052909150606001604080517fffffffffffffffffffffffffffffffffffffffffffffffffffffffffffffffe08184030181529190529960009950975050505050505050565b60008060016000611879856040805173ffffffffffffffffffffffffffffffffffffffff8316602082015280820191909152600860608201527f6c6973744d6f6465000000000000000000000000000000000000000000000000608082015260009060a001604051602081830303815290604052805190602001209050919050565b815260208101919091526040016000205460ff16905080156118c157600160006118a386866112a7565b815260208101919091526040016000205460ff161591506107209050565b600160006118cf8587611041565b815260208101919091526040016000205460ff16949350505050565b600060e082013561010083013580821415611907575092915050565b6119138248830161191b565b949350505050565b600081831061192a578161192c565b825b9392505050565b60006020828403121561194557600080fd5b813563ffffffff8116811461192c57600080fd5b73ffffffffffffffffffffffffffffffffffffffff811681146105b457600080fd5b60006020828403121561198d57600080fd5b813561192c81611959565b6000602082840312156119aa57600080fd5b5035919050565b600080604083850312156119c457600080fd5b82356119cf81611959565b946020939093013593505050565b600080604083850312156119f057600080fd5b82356119fb81611959565b91506020830135611a0b81611959565b809150509250929050565b80358015158114611a2657600080fd5b919050565b600060208284031215611a3d57600080fd5b61192c82611a16565b60008060008060608587031215611a5c57600080fd5b843560038110611a6b57600080fd5b9350602085013567ffffffffffffffff80821115611a8857600080fd5b818701915087601f830112611a9c57600080fd5b813581811115611aab57600080fd5b886020828501011115611abd57600080fd5b95986020929092019750949560400135945092505050565b60008060408385031215611ae857600080fd5b8235611af381611959565b9150611b0160208401611a16565b90509250929050565b600080600060608486031215611b1f57600080fd5b833567ffffffffffffffff811115611b3657600080fd5b84016101608187031215611b4957600080fd5b95602085013595506040909401359392505050565b604081526000835180604084015260005b81811015611b8c5760208187018101516060868401015201611b6f565b81811115611b9e576000606083860101525b50602083019390935250601f919091017fffffffffffffffffffffffffffffffffffffffffffffffffffffffffffffffe01601606001919050565b7f4e487b7100000000000000000000000000000000000000000000000000000000600052601160045260246000fd5b60008219821115611c1b57611c1b611bd9565b500190565b600060208284031215611c3257600080fd5b5051919050565b600082821015611c4b57611c4b611bd9565b500390565b6000817fffffffffffffffffffffffffffffffffffffffffffffffffffffffffffffffff0483118215151615611c8857611c88611bd9565b500290565b60008083357fffffffffffffffffffffffffffffffffffffffffffffffffffffffffffffffe1843603018112611cc257600080fd5b83018035915067ffffffffffffffff821115611cdd57600080fd5b602001915036819003821315611cf257600080fd5b9250929050565b60008085851115611d0957600080fd5b83861115611d1657600080fd5b5050820193919092039150565b7fffffffffffffffffffffffffffffffffffffffff0000000000000000000000008135818116916014851015611d635780818660140360031b1b83161692505b50509291505056fea26469706673582212208f3c641f176469757890f7d5751d8f8daac45ca32546144488f563858840637564736f6c634300080c0033","linkReferences":{},"deployedLinkReferences":{}}