{"_format":"hh-sol-artifact-1","contractName":"FeelessPaymaster","sourceName":"contracts/paymaster/FeelessPaymaster.sol","abi":[{"inputs":[{"internalType":"contract IEntryPoint","name":"_entryPoint","type":"address"}],"stateMutability":"nonpayable","type":"constructor"},{"anonymous":false,"inputs":[{"indexed":true,"internalType":"address","name":"previousOwner","type":"address"},{"indexed":true,"internalType":"address","name":"newOwner","type":"address"}],"name":"OwnershipTransferred","type":"event"},{"inputs":[],"name":"COST_OF_POST","outputs":[{"internalType":"uint256","name":"","type":"uint256"}],"stateMutability":"view","type":"function"},{"inputs":[{"internalType":"address","name":"sponsor","type":"address"},{"internalType":"uint256","name":"amount","type":"uint256"}],"name":"addDepositTo","outputs":[],"stateMutability":"payable","type":"function"},{"inputs":[{"internalType":"uint32","name":"unstakeDelaySec","type":"uint32"}],"name":"addStake","outputs":[],"stateMutability":"payable","type":"function"},{"inputs":[],"name":"deposit","outputs":[],"stateMutability":"payable","type":"function"},{"inputs":[],"name":"entryPoint","outputs":[{"internalType":"contract IEntryPoint","name":"","type":"address"}],"stateMutability":"view","type":"function"},{"inputs":[{"internalType":"address","name":"sponsor","type":"address"}],"name":"getBalance","outputs":[{"internalType":"uint256","name":"","type":"uint256"}],"stateMutability":"view","type":"function"},{"inputs":[{"internalType":"address","name":"sponsor","type":"address"},{"internalType":"address","name":"spender","type":"address"}],"name":"getBlacklistMode","outputs":[{"internalType":"bool","name":"","type":"bool"}],"stateMutability":"view","type":"function"},{"inputs":[],"name":"getDeposit","outputs":[{"internalType":"uint256","name":"","type":"uint256"}],"stateMutability":"view","type":"function"},{"inputs":[{"internalType":"address","name":"spender","type":"address"}],"name":"getListMode","outputs":[{"internalType":"bool","name":"","type":"bool"}],"stateMutability":"view","type":"function"},{"inputs":[{"internalType":"address","name":"spender","type":"address"}],"name":"getUnlockBlock","outputs":[{"internalType":"uint256","name":"","type":"uint256"}],"stateMutability":"view","type":"function"},{"inputs":[{"internalType":"address","name":"sponsor","type":"address"},{"internalType":"address","name":"spender","type":"address"}],"name":"getWhitelistMode","outputs":[{"internalType":"bool","name":"","type":"bool"}],"stateMutability":"view","type":"function"},{"inputs":[],"name":"lockDeposit","outputs":[],"stateMutability":"payable","type":"function"},{"inputs":[],"name":"owner","outputs":[{"internalType":"address","name":"","type":"address"}],"stateMutability":"view","type":"function"},{"inputs":[{"internalType":"enum IPaymaster.PostOpMode","name":"mode","type":"uint8"},{"internalType":"bytes","name":"context","type":"bytes"},{"internalType":"uint256","name":"actualGasCost","type":"uint256"}],"name":"postOp","outputs":[],"stateMutability":"nonpayable","type":"function"},{"inputs":[],"name":"renounceOwnership","outputs":[],"stateMutability":"nonpayable","type":"function"},{"inputs":[{"internalType":"bool","name":"mode","type":"bool"}],"name":"setListMode","outputs":[],"stateMutability":"payable","type":"function"},{"inputs":[{"internalType":"address","name":"spender","type":"address"},{"internalType":"bool","name":"mode","type":"bool"}],"name":"setSpenderBlacklistMode","outputs":[],"stateMutability":"payable","type":"function"},{"inputs":[{"internalType":"address","name":"spender","type":"address"},{"internalType":"bool","name":"mode","type":"bool"}],"name":"setSpenderWhitelistMode","outputs":[],"stateMutability":"payable","type":"function"},{"inputs":[{"internalType":"address","name":"newOwner","type":"address"}],"name":"transferOwnership","outputs":[],"stateMutability":"nonpayable","type":"function"},{"inputs":[{"internalType":"uint256","name":"num","type":"uint256"}],"name":"unlockDepositAfter","outputs":[],"stateMutability":"payable","type":"function"},{"inputs":[],"name":"unlockStake","outputs":[],"stateMutability":"nonpayable","type":"function"},{"inputs":[{"components":[{"internalType":"address","name":"sender","type":"address"},{"internalType":"uint256","name":"nonce","type":"uint256"},{"internalType":"bytes","name":"initCode","type":"bytes"},{"internalType":"bytes","name":"callData","type":"bytes"},{"internalType":"uint256","name":"callGasLimit","type":"uint256"},{"internalType":"uint256","name":"verificationGasLimit","type":"uint256"},{"internalType":"uint256","name":"preVerificationGas","type":"uint256"},{"internalType":"uint256","name":"maxFeePerGas","type":"uint256"},{"internalType":"uint256","name":"maxPriorityFeePerGas","type":"uint256"},{"internalType":"bytes","name":"paymasterAndData","type":"bytes"},{"internalType":"bytes","name":"signature","type":"bytes"}],"internalType":"struct UserOperation","name":"userOp","type":"tuple"},{"internalType":"bytes32","name":"userOpHash","type":"bytes32"},{"internalType":"uint256","name":"maxCost","type":"uint256"}],"name":"validatePaymasterUserOp","outputs":[{"internalType":"bytes","name":"context","type":"bytes"},{"internalType":"uint256","name":"sigTimeRange","type":"uint256"}],"stateMutability":"nonpayable","type":"function"},{"inputs":[{"internalType":"address","name":"target","type":"address"},{"internalType":"uint256","name":"amount","type":"uint256"}],"name":"withdrawDepositTo","outputs":[],"stateMutability":"payable","type":"function"},{"inputs":[{"internalType":"address payable","name":"withdrawAddress","type":"address"}],"name":"withdrawStake","outputs":[],"stateMutability":"nonpayable","type":"function"},{"inputs":[{"internalType":"address payable","name":"withdrawAddress","type":"address"},{"internalType":"uint256","name":"amount","type":"uint256"}],"name":"withdrawTo","outputs":[],"stateMutability":"nonpayable","type":"function"}],"bytecode":"0x60a06040523480156200001157600080fd5b5060405162001e4338038062001e438339810160408190526200003491620000a3565b80620000403362000053565b6001600160a01b031660805250620000d5565b600080546001600160a01b038381166001600160a01b0319831681178455604051919092169283917f8be0079c531659141344cd1fd0a4f28419497f9722a3daafe3b4186f6b6457e09190a35050565b600060208284031215620000b657600080fd5b81516001600160a01b0381168114620000ce57600080fd5b9392505050565b608051611d1a6200012960003960008181610358015281816104e7015281816105eb0152818161074801528181610964015281816109f401528181610aa70152818161118a01526112ae0152611d1a6000f3fe6080604052600436106101965760003560e01c8063b0d691fe116100e1578063d0e30db01161008a578063ea92283711610064578063ea92283714610407578063f2fde38b1461041a578063f465c77e1461043a578063f8b2cb4f1461046857600080fd5b8063d0e30db0146103d7578063d1b844e6146103df578063db09992b146103f457600080fd5b8063bbc0a1c1116100bb578063bbc0a1c11461038f578063c23a5cea146103a2578063c399ec88146103c257600080fd5b8063b0d691fe14610346578063b2eb82151461027c578063bb9fe6bf1461037a57600080fd5b8063677947c811610143578063796d43711161011d578063796d4371146102c45780638da5cb5b146102da578063a9a234091461032657600080fd5b8063677947c81461027c578063715018a61461029c57806375fb91d9146102b157600080fd5b8063205c287811610174578063205c2878146102195780634d44560d1461023957806360a71f461461024c57600080fd5b80630396cb601461019b5780630bb4df0c146101b05780630bef4e2114610206575b600080fd5b6101ae6101a93660046118ac565b6104ab565b005b3480156101bc57600080fd5b506101f36101cb3660046118f4565b73ffffffffffffffffffffffffffffffffffffffff1660009081526002602052604090205490565b6040519081526020015b60405180910390f35b6101ae610214366004611911565b61055d565b34801561022557600080fd5b506101ae61023436600461192a565b610597565b6101ae61024736600461192a565b61062f565b34801561025857600080fd5b5061026c6102673660046118f4565b61063e565b60405190151581526020016101fd565b34801561028857600080fd5b5061026c610297366004611956565b6106d9565b3480156102a857600080fd5b506101ae610706565b6101ae6102bf3660046119a4565b61071a565b3480156102d057600080fd5b506101f36188b881565b3480156102e657600080fd5b5060005473ffffffffffffffffffffffffffffffffffffffff165b60405173ffffffffffffffffffffffffffffffffffffffff90911681526020016101fd565b34801561033257600080fd5b506101ae6103413660046119bf565b610724565b34801561035257600080fd5b506103017f000000000000000000000000000000000000000000000000000000000000000081565b34801561038657600080fd5b506101ae61073e565b6101ae61039d366004611a4e565b6107c2565b3480156103ae57600080fd5b506101ae6103bd3660046118f4565b610917565b3480156103ce57600080fd5b506101f36109c3565b6101ae610a79565b6101ae33600090815260026020526040812055565b6101ae610402366004611a4e565b610b01565b6101ae61041536600461192a565b610c52565b34801561042657600080fd5b506101ae6104353660046118f4565b610c69565b34801561044657600080fd5b5061045a610455366004611a83565b610d1d565b6040516101fd929190611ad7565b34801561047457600080fd5b506101f36104833660046118f4565b73ffffffffffffffffffffffffffffffffffffffff1660009081526003602052604090205490565b6104b3610d40565b6040517f0396cb6000000000000000000000000000000000000000000000000000000000815263ffffffff821660048201527f000000000000000000000000000000000000000000000000000000000000000073ffffffffffffffffffffffffffffffffffffffff1690630396cb609034906024016000604051808303818588803b15801561054157600080fd5b505af1158015610555573d6000803e3d6000fd5b505050505050565b6105943361056b8343611b81565b73ffffffffffffffffffffffffffffffffffffffff909116600090815260026020526040902055565b50565b61059f610d40565b6040517f205c287800000000000000000000000000000000000000000000000000000000815273ffffffffffffffffffffffffffffffffffffffff8381166004830152602482018390527f0000000000000000000000000000000000000000000000000000000000000000169063205c287890604401600060405180830381600087803b15801561054157600080fd5b61063a338383610dc1565b5050565b6000600160006106bf846040805173ffffffffffffffffffffffffffffffffffffffff8316602082015280820191909152600860608201527f6c6973744d6f6465000000000000000000000000000000000000000000000000608082015260009060a001604051602081830303815290604052805190602001209050919050565b815260208101919091526040016000205460ff1692915050565b6000600160006106e98585610fba565b815260208101919091526040016000205460ff1690505b92915050565b61070e610d40565b610718600061103c565b565b61059433826110b1565b61072c611172565b610738848484846111b4565b50505050565b610746610d40565b7f000000000000000000000000000000000000000000000000000000000000000073ffffffffffffffffffffffffffffffffffffffff1663bb9fe6bf6040518163ffffffff1660e01b8152600401600060405180830381600087803b1580156107ae57600080fd5b505af1158015610738573d6000803e3d6000fd5b60016000610841336040805173ffffffffffffffffffffffffffffffffffffffff8316602082015280820191909152600860608201527f6c6973744d6f6465000000000000000000000000000000000000000000000000608082015260009060a001604051602081830303815290604052805190602001209050919050565b815260208101919091526040016000205460ff1661090c576040517f08c379a000000000000000000000000000000000000000000000000000000000815260206004820152604660248201527f546f6b656e5061796d61737465723a206d6f64652069732073657420746f207760448201527f686974656c6973742063616e206e6f7420616464207573657220746f20626c6160648201527f636b6c6973740000000000000000000000000000000000000000000000000000608482015260a4015b60405180910390fd5b61063a338383611220565b61091f610d40565b6040517fc23a5cea00000000000000000000000000000000000000000000000000000000815273ffffffffffffffffffffffffffffffffffffffff82811660048301527f0000000000000000000000000000000000000000000000000000000000000000169063c23a5cea90602401600060405180830381600087803b1580156109a857600080fd5b505af11580156109bc573d6000803e3d6000fd5b5050505050565b6040517f70a082310000000000000000000000000000000000000000000000000000000081523060048201526000907f000000000000000000000000000000000000000000000000000000000000000073ffffffffffffffffffffffffffffffffffffffff16906370a0823190602401602060405180830381865afa158015610a50573d6000803e3d6000fd5b505050506040513d601f19601f82011682018060405250810190610a749190611b99565b905090565b6040517fb760faf90000000000000000000000000000000000000000000000000000000081523060048201527f000000000000000000000000000000000000000000000000000000000000000073ffffffffffffffffffffffffffffffffffffffff169063b760faf99034906024016000604051808303818588803b1580156109a857600080fd5b60016000610b80846040805173ffffffffffffffffffffffffffffffffffffffff8316602082015280820191909152600860608201527f6c6973744d6f6465000000000000000000000000000000000000000000000000608082015260009060a001604051602081830303815290604052805190602001209050919050565b815260208101919091526040016000205460ff1615610c47576040517f08c379a000000000000000000000000000000000000000000000000000000000815260206004820152604660248201527f546f6b656e5061796d61737465723a206d6f64652069732073657420746f206260448201527f6c61636b6c6973742063616e206e6f7420616464207573657220746f2077686960648201527f74656c6973740000000000000000000000000000000000000000000000000000608482015260a401610903565b61063a338383611271565b80341015610c5f57600080fd5b61063a8282611280565b610c71610d40565b73ffffffffffffffffffffffffffffffffffffffff8116610d14576040517f08c379a000000000000000000000000000000000000000000000000000000000815260206004820152602660248201527f4f776e61626c653a206e6577206f776e657220697320746865207a65726f206160448201527f64647265737300000000000000000000000000000000000000000000000000006064820152608401610903565b6105948161103c565b60606000610d29611172565b610d34858585611360565b91509150935093915050565b60005473ffffffffffffffffffffffffffffffffffffffff163314610718576040517f08c379a000000000000000000000000000000000000000000000000000000000815260206004820181905260248201527f4f776e61626c653a2063616c6c6572206973206e6f7420746865206f776e65726044820152606401610903565b73ffffffffffffffffffffffffffffffffffffffff83166000908152600260205260409020544311610e75576040517f08c379a000000000000000000000000000000000000000000000000000000000815260206004820152602760248201527f546f6b656e5061796d61737465723a206d75737420756e6c6f636b546f6b656e60448201527f4465706f736974000000000000000000000000000000000000000000000000006064820152608401610903565b73ffffffffffffffffffffffffffffffffffffffff8316600090815260036020526040902054811115610f2a576040517f08c379a000000000000000000000000000000000000000000000000000000000815260206004820152602c60248201527f546f6b656e5061796d61737465723a20646f6573206e6f74206861766520656e60448201527f6f7567682062616c616e636500000000000000000000000000000000000000006064820152608401610903565b73ffffffffffffffffffffffffffffffffffffffff831660009081526003602052604081208054839290610f5f908490611bb2565b909155505060405173ffffffffffffffffffffffffffffffffffffffff8316908290600081818185875af1925050503d8060008114610555576040519150601f19603f3d011682016040523d82523d6000602084013e610555565b6040805173ffffffffffffffffffffffffffffffffffffffff8085166020830152831691810191909152606080820152600960808201527f626c61636b6c697374000000000000000000000000000000000000000000000060a082015260009060c0015b60405160208183030381529060405280519060200120905092915050565b6000805473ffffffffffffffffffffffffffffffffffffffff8381167fffffffffffffffffffffffff0000000000000000000000000000000000000000831681178455604051919092169283917f8be0079c531659141344cd1fd0a4f28419497f9722a3daafe3b4186f6b6457e09190a35050565b8060016000611131856040805173ffffffffffffffffffffffffffffffffffffffff8316602082015280820191909152600860608201527f6c6973744d6f6465000000000000000000000000000000000000000000000000608082015260009060a001604051602081830303815290604052805190602001209050919050565b8152602081019190915260400160002080547fffffffffffffffffffffffffffffffffffffffffffffffffffffffffffffff00169115159190911790555050565b3373ffffffffffffffffffffffffffffffffffffffff7f0000000000000000000000000000000000000000000000000000000000000000161461071857600080fd5b6000806111c38486018661192a565b90925090506111d4816188b8611bc9565b6111de9084611b81565b73ffffffffffffffffffffffffffffffffffffffff831660009081526003602052604081208054909190611213908490611bb2565b9091555050505050505050565b806001600061122f8686610fba565b8152602081019190915260400160002080547fffffffffffffffffffffffffffffffffffffffffffffffffffffffffffffff0016911515919091179055505050565b806001600061122f8686611708565b6040517fb760faf90000000000000000000000000000000000000000000000000000000081523060048201527f000000000000000000000000000000000000000000000000000000000000000073ffffffffffffffffffffffffffffffffffffffff169063b760faf99083906024016000604051808303818588803b15801561130857600080fd5b505af115801561131c573d6000803e3d6000fd5b50505073ffffffffffffffffffffffffffffffffffffffff841660009081526003602052604081208054859450909250611357908490611b81565b90915550505050565b60606000611372610120860186611c06565b9050602814611403576040517f08c379a000000000000000000000000000000000000000000000000000000000815260206004820152603560248201527f546f6b656e5061796d61737465723a207061796d6173746572416e644461746160448201527f206d75737420737065636966792073706f6e736f7200000000000000000000006064820152608401610903565b6188b88560a0013511611498576040517f08c379a000000000000000000000000000000000000000000000000000000000815260206004820152602660248201527f546f6b656e5061796d61737465723a2067617320746f6f206c6f7720666f722060448201527f706f73744f7000000000000000000000000000000000000000000000000000006064820152608401610903565b60006114a8610120870187611c06565b6114b6916014908290611c72565b6114bf91611c9c565b60601c6000818152600260205260409020549091508015806114e057504381115b611546576040517f08c379a000000000000000000000000000000000000000000000000000000000815260206004820152601c60248201527f546f6b656e5061796d61737465723a205374616b65204c6f636b6564000000006044820152606401610903565b86356115528184611770565b6115de576040517f08c379a000000000000000000000000000000000000000000000000000000000815260206004820152603360248201527f546f6b656e5061796d61737465723a20686173206e6f74206f7220646f65732060448201527f6e6f7420617070726f7665207370656e646572000000000000000000000000006064820152608401610903565b73ffffffffffffffffffffffffffffffffffffffff8316600090815260036020526040902054861115611693576040517f08c379a000000000000000000000000000000000000000000000000000000000815260206004820152602c60248201527f546f6b656e5061796d61737465723a20646f6573206e6f74206861766520656e60448201527f6f75676820746f2066756e6400000000000000000000000000000000000000006064820152608401610903565b600061169e89611864565b6040805173ffffffffffffffffffffffffffffffffffffffff87166020820152908101829052909150606001604080517fffffffffffffffffffffffffffffffffffffffffffffffffffffffffffffffe08184030181529190529960009950975050505050505050565b6040805173ffffffffffffffffffffffffffffffffffffffff8085166020830152831691810191909152606080820152600960808201527f77686974656c697374000000000000000000000000000000000000000000000060a082015260009060c00161101e565b600080600160006117f2856040805173ffffffffffffffffffffffffffffffffffffffff8316602082015280820191909152600860608201527f6c6973744d6f6465000000000000000000000000000000000000000000000000608082015260009060a001604051602081830303815290604052805190602001209050919050565b815260208101919091526040016000205460ff169050801561183a576001600061181c8686610fba565b815260208101919091526040016000205460ff161591506107009050565b600160006118488587611708565b815260208101919091526040016000205460ff16949350505050565b600060e082013561010083013580821415611880575092915050565b61188c82488301611894565b949350505050565b60008183106118a357816118a5565b825b9392505050565b6000602082840312156118be57600080fd5b813563ffffffff811681146118a557600080fd5b73ffffffffffffffffffffffffffffffffffffffff8116811461059457600080fd5b60006020828403121561190657600080fd5b81356118a5816118d2565b60006020828403121561192357600080fd5b5035919050565b6000806040838503121561193d57600080fd5b8235611948816118d2565b946020939093013593505050565b6000806040838503121561196957600080fd5b8235611974816118d2565b91506020830135611984816118d2565b809150509250929050565b8035801515811461199f57600080fd5b919050565b6000602082840312156119b657600080fd5b6118a58261198f565b600080600080606085870312156119d557600080fd5b8435600381106119e457600080fd5b9350602085013567ffffffffffffffff80821115611a0157600080fd5b818701915087601f830112611a1557600080fd5b813581811115611a2457600080fd5b886020828501011115611a3657600080fd5b95986020929092019750949560400135945092505050565b60008060408385031215611a6157600080fd5b8235611a6c816118d2565b9150611a7a6020840161198f565b90509250929050565b600080600060608486031215611a9857600080fd5b833567ffffffffffffffff811115611aaf57600080fd5b84016101608187031215611ac257600080fd5b95602085013595506040909401359392505050565b604081526000835180604084015260005b81811015611b055760208187018101516060868401015201611ae8565b81811115611b17576000606083860101525b50602083019390935250601f919091017fffffffffffffffffffffffffffffffffffffffffffffffffffffffffffffffe01601606001919050565b7f4e487b7100000000000000000000000000000000000000000000000000000000600052601160045260246000fd5b60008219821115611b9457611b94611b52565b500190565b600060208284031215611bab57600080fd5b5051919050565b600082821015611bc457611bc4611b52565b500390565b6000817fffffffffffffffffffffffffffffffffffffffffffffffffffffffffffffffff0483118215151615611c0157611c01611b52565b500290565b60008083357fffffffffffffffffffffffffffffffffffffffffffffffffffffffffffffffe1843603018112611c3b57600080fd5b83018035915067ffffffffffffffff821115611c5657600080fd5b602001915036819003821315611c6b57600080fd5b9250929050565b60008085851115611c8257600080fd5b83861115611c8f57600080fd5b5050820193919092039150565b7fffffffffffffffffffffffffffffffffffffffff0000000000000000000000008135818116916014851015611cdc5780818660140360031b1b83161692505b50509291505056fea2646970667358221220638b658f11e558de58b944f35b9a2c8e8403fd154f1a64d77a93623498f045e864736f6c634300080c0033","linkReferences":{},"deployedLinkReferences":{}}