{"_format":"hh-sol-artifact-1","contractName":"FeePercentOracle","sourceName":"contracts/oracles/FeePercentOracle.sol","abi":[{"anonymous":false,"inputs":[{"indexed":true,"internalType":"address","name":"previousOwner","type":"address"},{"indexed":true,"internalType":"address","name":"newOwner","type":"address"}],"name":"OwnershipTransferred","type":"event"},{"inputs":[],"name":"decimals","outputs":[{"internalType":"uint8","name":"","type":"uint8"}],"stateMutability":"view","type":"function"},{"inputs":[],"name":"feepercent","outputs":[{"internalType":"uint120","name":"","type":"uint120"}],"stateMutability":"view","type":"function"},{"inputs":[{"internalType":"uint256","name":"amount","type":"uint256"}],"name":"getFee","outputs":[{"internalType":"uint256","name":"funCut","type":"uint256"},{"internalType":"uint256","name":"recipCut","type":"uint256"}],"stateMutability":"view","type":"function"},{"inputs":[],"name":"owner","outputs":[{"internalType":"address","name":"","type":"address"}],"stateMutability":"view","type":"function"},{"inputs":[],"name":"renounceOwnership","outputs":[],"stateMutability":"nonpayable","type":"function"},{"inputs":[{"internalType":"uint120","name":"_feepercent","type":"uint120"},{"internalType":"uint8","name":"_decimals","type":"uint8"}],"name":"setValues","outputs":[],"stateMutability":"nonpayable","type":"function"},{"inputs":[{"internalType":"address","name":"newOwner","type":"address"}],"name":"transferOwnership","outputs":[],"stateMutability":"nonpayable","type":"function"},{"inputs":[{"internalType":"address","name":"token","type":"address"},{"internalType":"uint256","name":"amount","type":"uint256"}],"name":"withdrawErc","outputs":[],"stateMutability":"nonpayable","type":"function"},{"inputs":[{"internalType":"uint256","name":"amount","type":"uint256"}],"name":"withdrawEth","outputs":[],"stateMutability":"nonpayable","type":"function"},{"stateMutability":"payable","type":"receive"}],"bytecode":"0x608060405234801561001057600080fd5b5061001a3361001f565b61006f565b600080546001600160a01b038381166001600160a01b0319831681178455604051919092169283917f8be0079c531659141344cd1fd0a4f28419497f9722a3daafe3b4186f6b6457e09190a35050565b610c918061007e6000396000f3fe60806040526004361061009a5760003560e01c8063de65256e11610069578063ef26dc911161004e578063ef26dc91146101be578063f2fde38b146101de578063fcee45f4146101fe57600080fd5b8063de65256e14610156578063e7a1cca61461019e57600080fd5b8063313ce567146100a6578063715018a6146100ea5780638da5cb5b14610101578063c311d0491461013657600080fd5b366100a157005b600080fd5b3480156100b257600080fd5b506001546100d3906f01000000000000000000000000000000900460ff1681565b60405160ff90911681526020015b60405180910390f35b3480156100f657600080fd5b506100ff610233565b005b34801561010d57600080fd5b5060005460405173ffffffffffffffffffffffffffffffffffffffff90911681526020016100e1565b34801561014257600080fd5b506100ff6101513660046108cc565b610247565b34801561016257600080fd5b5060015461017e906effffffffffffffffffffffffffffff1681565b6040516effffffffffffffffffffffffffffff90911681526020016100e1565b3480156101aa57600080fd5b506100ff6101b93660046108e5565b610280565b3480156101ca57600080fd5b506100ff6101d9366004610961565b6102e3565b3480156101ea57600080fd5b506100ff6101f936600461098b565b61030c565b34801561020a57600080fd5b5061021e6102193660046108cc565b6103c8565b604080519283526020830191909152016100e1565b61023b61042c565b61024560006104ad565b565b61024f61042c565b604051339082156108fc029083906000818181858888f1935050505015801561027c573d6000803e3d6000fd5b5050565b61028861042c565b6001805460ff9092166f01000000000000000000000000000000027fffffffffffffffffffffffffffffffff000000000000000000000000000000009092166effffffffffffffffffffffffffffff90931692909217179055565b6102eb61042c565b61027c73ffffffffffffffffffffffffffffffffffffffff83163383610522565b61031461042c565b73ffffffffffffffffffffffffffffffffffffffff81166103bc576040517f08c379a000000000000000000000000000000000000000000000000000000000815260206004820152602660248201527f4f776e61626c653a206e6577206f776e657220697320746865207a65726f206160448201527f646472657373000000000000000000000000000000000000000000000000000060648201526084015b60405180910390fd5b6103c5816104ad565b50565b60015460009081906103f1906f01000000000000000000000000000000900460ff16600a610afe565b60015461040f906effffffffffffffffffffffffffffff1685610b0d565b6104199190610b4a565b91506104258284610b85565b9050915091565b60005473ffffffffffffffffffffffffffffffffffffffff163314610245576040517f08c379a000000000000000000000000000000000000000000000000000000000815260206004820181905260248201527f4f776e61626c653a2063616c6c6572206973206e6f7420746865206f776e657260448201526064016103b3565b6000805473ffffffffffffffffffffffffffffffffffffffff8381167fffffffffffffffffffffffff0000000000000000000000000000000000000000831681178455604051919092169283917f8be0079c531659141344cd1fd0a4f28419497f9722a3daafe3b4186f6b6457e09190a35050565b6040805173ffffffffffffffffffffffffffffffffffffffff8416602482015260448082018490528251808303909101815260649091019091526020810180517bffffffffffffffffffffffffffffffffffffffffffffffffffffffff167fa9059cbb000000000000000000000000000000000000000000000000000000001790526105af9084906105b4565b505050565b6000610616826040518060400160405280602081526020017f5361666545524332303a206c6f772d6c6576656c2063616c6c206661696c65648152508573ffffffffffffffffffffffffffffffffffffffff166106c09092919063ffffffff16565b8051909150156105af57808060200190518101906106349190610b9c565b6105af576040517f08c379a000000000000000000000000000000000000000000000000000000000815260206004820152602a60248201527f5361666545524332303a204552433230206f7065726174696f6e20646964206e60448201527f6f7420737563636565640000000000000000000000000000000000000000000060648201526084016103b3565b60606106cf84846000856106d7565b949350505050565b606082471015610769576040517f08c379a000000000000000000000000000000000000000000000000000000000815260206004820152602660248201527f416464726573733a20696e73756666696369656e742062616c616e636520666f60448201527f722063616c6c000000000000000000000000000000000000000000000000000060648201526084016103b3565b6000808673ffffffffffffffffffffffffffffffffffffffff1685876040516107929190610bee565b60006040518083038185875af1925050503d80600081146107cf576040519150601f19603f3d011682016040523d82523d6000602084013e6107d4565b606091505b50915091506107e5878383876107f0565b979650505050505050565b6060831561088357825161087c5773ffffffffffffffffffffffffffffffffffffffff85163b61087c576040517f08c379a000000000000000000000000000000000000000000000000000000000815260206004820152601d60248201527f416464726573733a2063616c6c20746f206e6f6e2d636f6e747261637400000060448201526064016103b3565b50816106cf565b6106cf83838151156108985781518083602001fd5b806040517f08c379a00000000000000000000000000000000000000000000000000000000081526004016103b39190610c0a565b6000602082840312156108de57600080fd5b5035919050565b600080604083850312156108f857600080fd5b82356effffffffffffffffffffffffffffff8116811461091757600080fd5b9150602083013560ff8116811461092d57600080fd5b809150509250929050565b803573ffffffffffffffffffffffffffffffffffffffff8116811461095c57600080fd5b919050565b6000806040838503121561097457600080fd5b61097d83610938565b946020939093013593505050565b60006020828403121561099d57600080fd5b6109a682610938565b9392505050565b7f4e487b7100000000000000000000000000000000000000000000000000000000600052601160045260246000fd5b600181815b80851115610a3557817fffffffffffffffffffffffffffffffffffffffffffffffffffffffffffffffff04821115610a1b57610a1b6109ad565b80851615610a2857918102915b93841c93908002906109e1565b509250929050565b600082610a4c57506001610af8565b81610a5957506000610af8565b8160018114610a6f5760028114610a7957610a95565b6001915050610af8565b60ff841115610a8a57610a8a6109ad565b50506001821b610af8565b5060208310610133831016604e8410600b8410161715610ab8575081810a610af8565b610ac283836109dc565b807fffffffffffffffffffffffffffffffffffffffffffffffffffffffffffffffff04821115610af457610af46109ad565b0290505b92915050565b60006109a660ff841683610a3d565b6000817fffffffffffffffffffffffffffffffffffffffffffffffffffffffffffffffff0483118215151615610b4557610b456109ad565b500290565b600082610b80577f4e487b7100000000000000000000000000000000000000000000000000000000600052601260045260246000fd5b500490565b600082821015610b9757610b976109ad565b500390565b600060208284031215610bae57600080fd5b815180151581146109a657600080fd5b60005b83811015610bd9578181015183820152602001610bc1565b83811115610be8576000848401525b50505050565b60008251610c00818460208701610bbe565b9190910192915050565b6020815260008251806020840152610c29816040850160208701610bbe565b601f017fffffffffffffffffffffffffffffffffffffffffffffffffffffffffffffffe016919091016040019291505056fea2646970667358221220a1edac131b2d2819cec59ae9a5d5f3ff1e931cd9963ca6812247378dd7e18c1d64736f6c634300080c0033","linkReferences":{},"deployedLinkReferences":{}}