{"_format":"hh-sol-artifact-1","contractName":"FeePercentOracle","sourceName":"contracts/oracles/FeePercentOracle.sol","abi":[{"anonymous":false,"inputs":[{"indexed":true,"internalType":"address","name":"previousOwner","type":"address"},{"indexed":true,"internalType":"address","name":"newOwner","type":"address"}],"name":"OwnershipTransferred","type":"event"},{"inputs":[],"name":"decimals","outputs":[{"internalType":"uint8","name":"","type":"uint8"}],"stateMutability":"view","type":"function"},{"inputs":[],"name":"feepercent","outputs":[{"internalType":"uint120","name":"","type":"uint120"}],"stateMutability":"view","type":"function"},{"inputs":[{"internalType":"uint256","name":"amount","type":"uint256"}],"name":"getFeePercent","outputs":[{"internalType":"uint256","name":"","type":"uint256"}],"stateMutability":"view","type":"function"},{"inputs":[],"name":"owner","outputs":[{"internalType":"address","name":"","type":"address"}],"stateMutability":"view","type":"function"},{"inputs":[],"name":"renounceOwnership","outputs":[],"stateMutability":"nonpayable","type":"function"},{"inputs":[{"internalType":"uint120","name":"_feepercent","type":"uint120"},{"internalType":"uint8","name":"_decimals","type":"uint8"}],"name":"setValues","outputs":[],"stateMutability":"nonpayable","type":"function"},{"inputs":[{"internalType":"address","name":"newOwner","type":"address"}],"name":"transferOwnership","outputs":[],"stateMutability":"nonpayable","type":"function"},{"inputs":[{"internalType":"address","name":"token","type":"address"},{"internalType":"uint256","name":"amount","type":"uint256"}],"name":"withdrawErc","outputs":[],"stateMutability":"nonpayable","type":"function"},{"inputs":[{"internalType":"uint256","name":"amount","type":"uint256"}],"name":"withdrawEth","outputs":[],"stateMutability":"nonpayable","type":"function"},{"stateMutability":"payable","type":"receive"}],"bytecode":"0x608060405234801561001057600080fd5b5061001a3361001f565b61006f565b600080546001600160a01b038381166001600160a01b0319831681178455604051919092169283917f8be0079c531659141344cd1fd0a4f28419497f9722a3daafe3b4186f6b6457e09190a35050565b610c628061007e6000396000f3fe60806040526004361061009a5760003560e01c8063c311d04911610069578063e7a1cca61161004e578063e7a1cca6146101cc578063ef26dc91146101ec578063f2fde38b1461020c57600080fd5b8063c311d04914610164578063de65256e1461018457600080fd5b806311ad747b146100a6578063313ce567146100d9578063715018a6146101185780638da5cb5b1461012f57600080fd5b366100a157005b600080fd5b3480156100b257600080fd5b506100c66100c13660046108b6565b61022c565b6040519081526020015b60405180910390f35b3480156100e557600080fd5b50600154610106906f01000000000000000000000000000000900460ff1681565b60405160ff90911681526020016100d0565b34801561012457600080fd5b5061012d610281565b005b34801561013b57600080fd5b5060005460405173ffffffffffffffffffffffffffffffffffffffff90911681526020016100d0565b34801561017057600080fd5b5061012d61017f3660046108b6565b610295565b34801561019057600080fd5b506001546101ac906effffffffffffffffffffffffffffff1681565b6040516effffffffffffffffffffffffffffff90911681526020016100d0565b3480156101d857600080fd5b5061012d6101e73660046108cf565b6102ce565b3480156101f857600080fd5b5061012d61020736600461094b565b610331565b34801561021857600080fd5b5061012d610227366004610975565b61035a565b600154600090610253906f01000000000000000000000000000000900460ff16600a610ae6565b600154610271906effffffffffffffffffffffffffffff1684610af5565b61027b9190610b32565b92915050565b610289610416565b6102936000610497565b565b61029d610416565b604051339082156108fc029083906000818181858888f193505050501580156102ca573d6000803e3d6000fd5b5050565b6102d6610416565b6001805460ff9092166f01000000000000000000000000000000027fffffffffffffffffffffffffffffffff000000000000000000000000000000009092166effffffffffffffffffffffffffffff90931692909217179055565b610339610416565b6102ca73ffffffffffffffffffffffffffffffffffffffff8316338361050c565b610362610416565b73ffffffffffffffffffffffffffffffffffffffff811661040a576040517f08c379a000000000000000000000000000000000000000000000000000000000815260206004820152602660248201527f4f776e61626c653a206e6577206f776e657220697320746865207a65726f206160448201527f646472657373000000000000000000000000000000000000000000000000000060648201526084015b60405180910390fd5b61041381610497565b50565b60005473ffffffffffffffffffffffffffffffffffffffff163314610293576040517f08c379a000000000000000000000000000000000000000000000000000000000815260206004820181905260248201527f4f776e61626c653a2063616c6c6572206973206e6f7420746865206f776e65726044820152606401610401565b6000805473ffffffffffffffffffffffffffffffffffffffff8381167fffffffffffffffffffffffff0000000000000000000000000000000000000000831681178455604051919092169283917f8be0079c531659141344cd1fd0a4f28419497f9722a3daafe3b4186f6b6457e09190a35050565b6040805173ffffffffffffffffffffffffffffffffffffffff8416602482015260448082018490528251808303909101815260649091019091526020810180517bffffffffffffffffffffffffffffffffffffffffffffffffffffffff167fa9059cbb0000000000000000000000000000000000000000000000000000000017905261059990849061059e565b505050565b6000610600826040518060400160405280602081526020017f5361666545524332303a206c6f772d6c6576656c2063616c6c206661696c65648152508573ffffffffffffffffffffffffffffffffffffffff166106aa9092919063ffffffff16565b805190915015610599578080602001905181019061061e9190610b6d565b610599576040517f08c379a000000000000000000000000000000000000000000000000000000000815260206004820152602a60248201527f5361666545524332303a204552433230206f7065726174696f6e20646964206e60448201527f6f742073756363656564000000000000000000000000000000000000000000006064820152608401610401565b60606106b984846000856106c1565b949350505050565b606082471015610753576040517f08c379a000000000000000000000000000000000000000000000000000000000815260206004820152602660248201527f416464726573733a20696e73756666696369656e742062616c616e636520666f60448201527f722063616c6c00000000000000000000000000000000000000000000000000006064820152608401610401565b6000808673ffffffffffffffffffffffffffffffffffffffff16858760405161077c9190610bbf565b60006040518083038185875af1925050503d80600081146107b9576040519150601f19603f3d011682016040523d82523d6000602084013e6107be565b606091505b50915091506107cf878383876107da565b979650505050505050565b6060831561086d5782516108665773ffffffffffffffffffffffffffffffffffffffff85163b610866576040517f08c379a000000000000000000000000000000000000000000000000000000000815260206004820152601d60248201527f416464726573733a2063616c6c20746f206e6f6e2d636f6e74726163740000006044820152606401610401565b50816106b9565b6106b983838151156108825781518083602001fd5b806040517f08c379a00000000000000000000000000000000000000000000000000000000081526004016104019190610bdb565b6000602082840312156108c857600080fd5b5035919050565b600080604083850312156108e257600080fd5b82356effffffffffffffffffffffffffffff8116811461090157600080fd5b9150602083013560ff8116811461091757600080fd5b809150509250929050565b803573ffffffffffffffffffffffffffffffffffffffff8116811461094657600080fd5b919050565b6000806040838503121561095e57600080fd5b61096783610922565b946020939093013593505050565b60006020828403121561098757600080fd5b61099082610922565b9392505050565b7f4e487b7100000000000000000000000000000000000000000000000000000000600052601160045260246000fd5b600181815b80851115610a1f57817fffffffffffffffffffffffffffffffffffffffffffffffffffffffffffffffff04821115610a0557610a05610997565b80851615610a1257918102915b93841c93908002906109cb565b509250929050565b600082610a365750600161027b565b81610a435750600061027b565b8160018114610a595760028114610a6357610a7f565b600191505061027b565b60ff841115610a7457610a74610997565b50506001821b61027b565b5060208310610133831016604e8410600b8410161715610aa2575081810a61027b565b610aac83836109c6565b807fffffffffffffffffffffffffffffffffffffffffffffffffffffffffffffffff04821115610ade57610ade610997565b029392505050565b600061099060ff841683610a27565b6000817fffffffffffffffffffffffffffffffffffffffffffffffffffffffffffffffff0483118215151615610b2d57610b2d610997565b500290565b600082610b68577f4e487b7100000000000000000000000000000000000000000000000000000000600052601260045260246000fd5b500490565b600060208284031215610b7f57600080fd5b8151801515811461099057600080fd5b60005b83811015610baa578181015183820152602001610b92565b83811115610bb9576000848401525b50505050565b60008251610bd1818460208701610b8f565b9190910192915050565b6020815260008251806020840152610bfa816040850160208701610b8f565b601f017fffffffffffffffffffffffffffffffffffffffffffffffffffffffffffffffe016919091016040019291505056fea264697066735822122094f939575e5cdcc5d5c8d9e9380cb641209916231e933c11f1f19b064d7b8ad264736f6c634300080c0033","linkReferences":{},"deployedLinkReferences":{}}