{"_format":"hh-sol-artifact-1","contractName":"FunWalletFactory","sourceName":"contracts/deployer/FunWalletFactory.sol","abi":[{"inputs":[],"stateMutability":"nonpayable","type":"constructor"},{"inputs":[{"internalType":"bytes","name":"initializerCallData","type":"bytes"},{"internalType":"address","name":"implementation","type":"address"},{"internalType":"bytes32","name":"salt","type":"bytes32"}],"name":"createAccount","outputs":[{"internalType":"contract FunWallet","name":"funWallet","type":"address"}],"stateMutability":"nonpayable","type":"function"},{"inputs":[],"name":"funWalletImpAddress","outputs":[{"internalType":"address","name":"","type":"address"}],"stateMutability":"view","type":"function"},{"inputs":[{"internalType":"bytes32","name":"salt","type":"bytes32"}],"name":"getAddress","outputs":[{"internalType":"address","name":"","type":"address"}],"stateMutability":"view","type":"function"}],"bytecode":"0x60a060405234801561001057600080fd5b5060405161001d9061004b565b604051809103906000f080158015610039573d6000803e3d6000fd5b506001600160a01b0316608052610058565b615c6680610d7583390190565b608051610cee61008760003960008181609a01528181610107015281816101e501526102860152610cee6000f3fe608060405234801561001057600080fd5b50600436106100415760003560e01c806321f8a72114610046578063780c11f0146100825780638bb0862014610095575b600080fd5b610059610054366004610388565b6100bc565b60405173ffffffffffffffffffffffffffffffffffffffff909116815260200160405180910390f35b6100596100903660046103a1565b6101ac565b6100597f000000000000000000000000000000000000000000000000000000000000000081565b60006101a682604051806020016100d29061037b565b7fffffffffffffffffffffffffffffffffffffffffffffffffffffffffffffffe082820381018352601f9091011660408181527f000000000000000000000000000000000000000000000000000000000000000073ffffffffffffffffffffffffffffffffffffffff1660208301528082015260006060820152608001604080517fffffffffffffffffffffffffffffffffffffffffffffffffffffffffffffffe08184030181529082905261018b929160200161047e565b6040516020818303038152906040528051906020012061033d565b92915050565b6000806101b8836100bc565b905073ffffffffffffffffffffffffffffffffffffffff81163b80156101e057509050610335565b6000847f00000000000000000000000000000000000000000000000000000000000000006040516102109061037b565b73ffffffffffffffffffffffffffffffffffffffff90911681526040602082018190526000908201526060018190604051809103906000f590508015801561025c573d6000803e3d6000fd5b50935083905073ffffffffffffffffffffffffffffffffffffffff86161561028457856102a6565b7f00000000000000000000000000000000000000000000000000000000000000005b6040517f4192d25100000000000000000000000000000000000000000000000000000000815290965073ffffffffffffffffffffffffffffffffffffffff851690634192d251906102ff9089908c908c90600401610493565b600060405180830381600087803b15801561031957600080fd5b505af115801561032d573d6000803e3d6000fd5b505050505050505b949350505050565b600061034a838330610351565b9392505050565b6000604051836040820152846020820152828152600b8101905060ff815360559020949350505050565b6107bb806104fe83390190565b60006020828403121561039a57600080fd5b5035919050565b600080600080606085870312156103b757600080fd5b843567ffffffffffffffff808211156103cf57600080fd5b818701915087601f8301126103e357600080fd5b8135818111156103f257600080fd5b88602082850101111561040457600080fd5b6020928301965094505085013573ffffffffffffffffffffffffffffffffffffffff8116811461043357600080fd5b9396929550929360400135925050565b6000815160005b81811015610464576020818501810151868301520161044a565b81811115610473576000828601525b509290920192915050565b600061033561048d8386610443565b84610443565b73ffffffffffffffffffffffffffffffffffffffff8416815260406020820152816040820152818360608301376000818301606090810191909152601f9092017fffffffffffffffffffffffffffffffffffffffffffffffffffffffffffffffe01601019291505056fe60806040526040516107bb3803806107bb8339810160408190526100229161031e565b61002e82826000610035565b505061043b565b61003e8361006b565b60008251118061004b5750805b156100665761006483836100ab60201b6100291760201c565b505b505050565b610074816100d7565b6040516001600160a01b038216907fbc7cd75a20ee27fd9adebab32041f755214dbc6bffa90cc0225b39da2e5c2d3b90600090a250565b60606100d08383604051806060016040528060278152602001610794602791396101a9565b9392505050565b6100ea8161022260201b6100551760201c565b6101515760405162461bcd60e51b815260206004820152602d60248201527f455243313936373a206e657720696d706c656d656e746174696f6e206973206e60448201526c1bdd08184818dbdb9d1c9858dd609a1b60648201526084015b60405180910390fd5b806101887f360894a13ba1a3210667c828492db98dca3e2076cc3735a920a3ca505d382bbc60001b61023160201b6100711760201c565b80546001600160a01b0319166001600160a01b039290921691909117905550565b6060600080856001600160a01b0316856040516101c691906103ec565b600060405180830381855af49150503d8060008114610201576040519150601f19603f3d011682016040523d82523d6000602084013e610206565b606091505b50909250905061021886838387610234565b9695505050505050565b6001600160a01b03163b151590565b90565b606083156102a0578251610299576001600160a01b0385163b6102995760405162461bcd60e51b815260206004820152601d60248201527f416464726573733a2063616c6c20746f206e6f6e2d636f6e74726163740000006044820152606401610148565b50816102aa565b6102aa83836102b2565b949350505050565b8151156102c25781518083602001fd5b8060405162461bcd60e51b81526004016101489190610408565b634e487b7160e01b600052604160045260246000fd5b60005b8381101561030d5781810151838201526020016102f5565b838111156100645750506000910152565b6000806040838503121561033157600080fd5b82516001600160a01b038116811461034857600080fd5b60208401519092506001600160401b038082111561036557600080fd5b818501915085601f83011261037957600080fd5b81518181111561038b5761038b6102dc565b604051601f8201601f19908116603f011681019083821181831017156103b3576103b36102dc565b816040528281528860208487010111156103cc57600080fd5b6103dd8360208301602088016102f2565b80955050505050509250929050565b600082516103fe8184602087016102f2565b9190910192915050565b60208152600082518060208401526104278160408501602087016102f2565b601f01601f19169190910160400192915050565b61034a8061044a6000396000f3fe60806040523661001357610011610017565b005b6100115b610027610022610074565b6100b9565b565b606061004e83836040518060600160405280602781526020016102ee602791396100dd565b9392505050565b73ffffffffffffffffffffffffffffffffffffffff163b151590565b90565b60006100b47f360894a13ba1a3210667c828492db98dca3e2076cc3735a920a3ca505d382bbc5473ffffffffffffffffffffffffffffffffffffffff1690565b905090565b3660008037600080366000845af43d6000803e8080156100d8573d6000f35b3d6000fd5b60606000808573ffffffffffffffffffffffffffffffffffffffff16856040516101079190610280565b600060405180830381855af49150503d8060008114610142576040519150601f19603f3d011682016040523d82523d6000602084013e610147565b606091505b509150915061015886838387610162565b9695505050505050565b606083156101fa5782516101f35773ffffffffffffffffffffffffffffffffffffffff85163b6101f3576040517f08c379a000000000000000000000000000000000000000000000000000000000815260206004820152601d60248201527f416464726573733a2063616c6c20746f206e6f6e2d636f6e747261637400000060448201526064015b60405180910390fd5b5081610204565b610204838361020c565b949350505050565b81511561021c5781518083602001fd5b806040517f08c379a00000000000000000000000000000000000000000000000000000000081526004016101ea919061029c565b60005b8381101561026b578181015183820152602001610253565b8381111561027a576000848401525b50505050565b60008251610292818460208701610250565b9190910192915050565b60208152600082518060208401526102bb816040850160208701610250565b601f017fffffffffffffffffffffffffffffffffffffffffffffffffffffffffffffffe016919091016040019291505056fe416464726573733a206c6f772d6c6576656c2064656c65676174652063616c6c206661696c6564a2646970667358221220bab5e8f94970417631c9d8c26cab40c1e83055f31e41fbdb22e76e726c1312f264736f6c634300080c0033416464726573733a206c6f772d6c6576656c2064656c65676174652063616c6c206661696c6564a264697066735822122040f22b30ef6132c4e110e59880be948abafbd3b69d3c001526d138330445ef3964736f6c634300080c003360a0604052306080526000805462ff00001916905534801561002057600080fd5b50608051615c0d6200005960003960008181610fc30152818161105901528181611c8301528181611d190152611e480152615c0d6000f3fe6080604052600436106102385760003560e01c80636517579c11610138578063b0d691fe116100b0578063cc793fa61161007f578063dc7c984811610064578063dc7c984814610696578063e374e90f146106b6578063ffa1ad74146106f657600080fd5b8063cc793fa614610656578063d06403d61461067657600080fd5b8063b0d691fe146105d6578063c0c53b8b14610601578063c399ec8814610621578063c7d763081461063657600080fd5b80637b8ea0281161010757806399d3fef3116100ec57806399d3fef3146105815780639cfdf5b6146105a1578063a55e593d146105b657600080fd5b80637b8ea028146105345780638da5cb5b1461055457600080fd5b80636517579c146104935780636cedf41b146104c05780636fe5722b146104e057806375b238fc1461050057600080fd5b80633a871cdd116101cb5780634f1ef2861161019a57806355cd05cc1161017f57806355cd05cc146104265780635cbf1e6e146104465780635e5d43201461047357600080fd5b80634f1ef286146103fe57806352d1902d1461041157600080fd5b80633a871cdd146103525780633cb66ec4146103725780634192d251146103be5780634789b97e146103de57600080fd5b80632ed6fb5d116102075780632ed6fb5d146102cf578063357f7bb0146102ef5780633659cfe6146103125780633a6e5a0a1461033257600080fd5b8063033183e91461024457806315577ae2146102665780631b71bb6e1461028657806320d2a20f146102a657600080fd5b3661023f57005b600080fd5b34801561025057600080fd5b5061026461025f36600461473d565b61070b565b005b34801561027257600080fd5b50610264610281366004614799565b610af4565b34801561029257600080fd5b506102646102a13660046147e7565b610c1e565b6102b96102b4366004614846565b610d20565b6040516102c6919061490c565b60405180910390f35b3480156102db57600080fd5b506102646102ea36600461491f565b610d76565b3480156102fb57600080fd5b50610304600481565b6040519081526020016102c6565b34801561031e57600080fd5b5061026461032d3660046147e7565b610fab565b34801561033e57600080fd5b5061026461034d36600461497f565b61117d565b34801561035e57600080fd5b5061030461036d366004614a19565b61134d565b34801561037e57600080fd5b5060065473ffffffffffffffffffffffffffffffffffffffff165b60405173ffffffffffffffffffffffffffffffffffffffff90911681526020016102c6565b3480156103ca57600080fd5b506102646103d9366004614a6d565b611a9d565b3480156103ea57600080fd5b506102646103f9366004614ac2565b611b8e565b61026461040c366004614c51565b611c6b565b34801561041d57600080fd5b50610304611e2e565b34801561043257600080fd5b50610264610441366004614846565b611f00565b34801561045257600080fd5b50610466610461366004614ca1565b611f86565b6040516102c69190614d09565b34801561047f57600080fd5b5061026461048e366004614dbc565b6121c5565b34801561049f57600080fd5b506104b36104ae366004614dbc565b612268565b6040516102c69190614de5565b3480156104cc57600080fd5b506102646104db366004614e9c565b6123b6565b3480156104ec57600080fd5b506102646104fb366004614f2f565b6123cc565b34801561050c57600080fd5b506103047f61646d696e00000000000000000000000000000000000000000000000000000081565b34801561054057600080fd5b5061026461054f3660046147e7565b6123e1565b34801561056057600080fd5b506007546103999073ffffffffffffffffffffffffffffffffffffffff1681565b34801561058d57600080fd5b5061026461059c36600461491f565b6124e3565b3480156105ad57600080fd5b5061030460c881565b3480156105c257600080fd5b506102646105d1366004614dbc565b612ae4565b3480156105e257600080fd5b5060055473ffffffffffffffffffffffffffffffffffffffff16610399565b34801561060d57600080fd5b5061026461061c366004614fa1565b612be1565b34801561062d57600080fd5b506103046130a9565b34801561064257600080fd5b50610264610651366004614fe1565b613141565b34801561066257600080fd5b5061026461067136600461500d565b61325a565b34801561068257600080fd5b506102b96106913660046147e7565b613461565b3480156106a257600080fd5b506102646106b1366004614799565b61351a565b3480156106c257600080fd5b506106e66106d1366004614dbc565b60009081526002602052604090205460ff1690565b60405190151581526020016102c6565b34801561070257600080fd5b50610304600681565b610713613629565b836107655760405162461bcd60e51b815260206004820152600d60248201527f726f6c6520697320656d7074790000000000000000000000000000000000000060448201526064015b60405180910390fd5b73ffffffffffffffffffffffffffffffffffffffff83166107c85760405162461bcd60e51b815260206004820152601760248201527f6d6f64756c65206164647265737320697320656d707479000000000000000000604482015260640161075c565b806108155760405162461bcd60e51b815260206004820152600f60248201527f72756c65732061726520656d7074790000000000000000000000000000000000604482015260640161075c565b60005b61ffff81168211156109b2576000838361ffff841681811061083c5761083c61503b565b905060200281019061084e919061506a565b35141561089d5760405162461bcd60e51b815260206004820152601560248201527f72756c652068617320656d70747920616374696f6e0000000000000000000000604482015260640161075c565b600083838361ffff168181106108b5576108b561503b565b90506020028101906108c7919061506a565b6108d59060208101906150a8565b9050116109245760405162461bcd60e51b815260206004820152601560248201527f72756c652068617320656d707479207461726765740000000000000000000000604482015260640161075c565b6000838361ffff841681811061093c5761093c61503b565b905060200281019061094e919061506a565b6060013514156109a05760405162461bcd60e51b815260206004820152601560248201527f72756c652068617320656d70747920657874656e740000000000000000000000604482015260640161075c565b806109aa8161513c565b915050610818565b5060008473ffffffffffffffffffffffffffffffffffffffff851660408051602081019390935282015260600160405160208183030381529060405290506000600482604051610a02919061515e565b908152604051908190036020019020541115610a605760405162461bcd60e51b815260206004820152601360248201527f726f6c6520616c72656164792065786973747300000000000000000000000000604482015260640161075c565b60005b61ffff8116831115610aec57600482604051610a7f919061515e565b908152602001604051809103902084848361ffff16818110610aa357610aa361503b565b9050602002810190610ab5919061506a565b815460018101835560009283526020909220909160040201610ad7828261526b565b50508080610ae49061513c565b915050610a63565b505050505050565b610afc613629565b81610b495760405162461bcd60e51b815260206004820152600e60248201527f696e76616c696420757365724964000000000000000000000000000000000000604482015260640161075c565b610b52826136da565b8035610ba05760405162461bcd60e51b815260206004820152601360248201527f757365722068617320656d70747920726f6c6500000000000000000000000000604482015260640161075c565b6000610baf60408301836150a8565b905011610bfe5760405162461bcd60e51b815260206004820152601c60248201527f757365722068617320656d7074792061757468206d6574616461746100000000604482015260640161075c565b60008281526003602052604090208190610c1882826153be565b50505050565b610c26613629565b73ffffffffffffffffffffffffffffffffffffffff8116610caf5760405162461bcd60e51b815260206004820152603260248201527f66756e2077616c6c65743a206e657720656e74727920706f696e74206164647260448201527f6573732063616e6e6f74206265207a65726f0000000000000000000000000000606482015260840161075c565b600580547fffffffffffffffffffffffff00000000000000000000000000000000000000001673ffffffffffffffffffffffffffffffffffffffff831690811790915560405181907f450909c1478d09248269d4ad4fa8cba61ca3f50faed58c7aedefa51c7f62b83a90600090a350565b6060610d2a613745565b610d6b858585858080601f0160208091040260200160405190810160405280939291908181526020018383808284376000920191909152506137d492505050565b90505b949350505050565b610d7e613629565b82610dcb5760405162461bcd60e51b815260206004820152600d60248201527f726f6c6520697320656d70747900000000000000000000000000000000000000604482015260640161075c565b73ffffffffffffffffffffffffffffffffffffffff8216610e2e5760405162461bcd60e51b815260206004820152601760248201527f6d6f64756c65206164647265737320697320656d707479000000000000000000604482015260640161075c565b8035610e7c5760405162461bcd60e51b815260206004820152601560248201527f72756c652068617320656d70747920616374696f6e0000000000000000000000604482015260640161075c565b6000610e8b60208301836150a8565b905011610eda5760405162461bcd60e51b815260206004820152601560248201527f72756c652068617320656d707479207461726765740000000000000000000000604482015260640161075c565b6060810135610f2b5760405162461bcd60e51b815260206004820152601560248201527f72756c652068617320656d70747920657874656e740000000000000000000000604482015260640161075c565b604080516020810185905273ffffffffffffffffffffffffffffffffffffffff8416818301528151808203830181526060909101909152610f6b8161389c565b600481604051610f7b919061515e565b9081526040516020918190038201902080546001810182556000918252919020839160040201610aec828261526b565b3073ffffffffffffffffffffffffffffffffffffffff7f00000000000000000000000000000000000000000000000000000000000000001614156110575760405162461bcd60e51b815260206004820152602c60248201527f46756e6374696f6e206d7573742062652063616c6c6564207468726f7567682060448201527f64656c656761746563616c6c0000000000000000000000000000000000000000606482015260840161075c565b7f000000000000000000000000000000000000000000000000000000000000000073ffffffffffffffffffffffffffffffffffffffff166110cc7f360894a13ba1a3210667c828492db98dca3e2076cc3735a920a3ca505d382bbc5473ffffffffffffffffffffffffffffffffffffffff1690565b73ffffffffffffffffffffffffffffffffffffffff16146111555760405162461bcd60e51b815260206004820152602c60248201527f46756e6374696f6e206d7573742062652063616c6c6564207468726f7567682060448201527f6163746976652070726f78790000000000000000000000000000000000000000606482015260840161075c565b61115e8161390b565b6040805160008082526020820190925261117a91839190613913565b50565b611185613629565b848314801561119357508281145b6111df5760405162461bcd60e51b815260206004820152601760248201527f6461746120697320646966666572656e742073697a6573000000000000000000604482015260640161075c565b60005b85811015611344576112168383838181106111ff576111ff61503b565b905060200281019061121191906150a8565b613ade565b1561133c5760006112be8888848181106112325761123261503b565b905060200201602081019061124791906147e7565b8787858181106112595761125961503b565b905060200201358686868181106112725761127261503b565b905060200281019061128491906150a8565b8080601f0160208091040260200160405190810160405280939291908181526020018383808284376000920191909152506137d492505050565b905080600160008a8a868181106112d7576112d761503b565b90506020020160208101906112ec91906147e7565b73ffffffffffffffffffffffffffffffffffffffff1673ffffffffffffffffffffffffffffffffffffffff1681526020019081526020016000209080519060200190611339929190614571565b50505b6001016111e2565b50505050505050565b6000611357613b44565b6006546040517f81adfce600000000000000000000000000000000000000000000000000000000815260009173ffffffffffffffffffffffffffffffffffffffff16906381adfce6906113b090889088906004016156df565b602060405180830381865afa1580156113cd573d6000803e3d6000fd5b505050506040513d601f19601f820116820180604052508101906113f19190615701565b90506113fc816136da565b6000818152600360209081526040808320815160608101909252805482526001810154919290919083019060ff16801561143857611438614cc6565b801561144657611446614cc6565b815260200160028201805461145a90615170565b80601f016020809104026020016040519081016040528092919081815260200182805461148690615170565b80156114d35780601f106114a8576101008083540402835291602001916114d3565b820191906000526020600020905b8154815290600101906020018083116114b657829003601f168201915b505050919092525050600654602083015160408085015190517fdeca388700000000000000000000000000000000000000000000000000000000815294955073ffffffffffffffffffffffffffffffffffffffff9092169363deca3887935061154392908b908b9060040161571a565b602060405180830381865afa158015611560573d6000803e3d6000fd5b505050506040513d601f19601f820116820180604052508101906115849190615701565b925061159360408701876150a8565b151590506115a4576115a486613bab565b600081600001516040518060400160405280600181526020017f2a000000000000000000000000000000000000000000000000000000000000008152506040516020016115f292919061575e565b60405160208183030381529060405290507f61646d696e00000000000000000000000000000000000000000000000000000082600001511415801561165757506000600482604051611644919061515e565b9081526040519081900360200190205411155b15611a8a577f4789b97e0000000000000000000000000000000000000000000000000000000061168a60608901896150a8565b61169991600491600091615777565b6116a2916157a1565b7fffffffff00000000000000000000000000000000000000000000000000000000161415611917576000806116e26116dd60608b018b6150a8565b613c4f565b86519294509250600091905073ffffffffffffffffffffffffffffffffffffffff84166040805160208101939093528201526060016040516020818303038152906040529050600060048260405161173a919061515e565b90815260405190819003602001902054116117975760405162461bcd60e51b815260206004820152601660248201527f75736572206973206e6f7420617574686f72697a656400000000000000000000604482015260640161075c565b8273ffffffffffffffffffffffffffffffffffffffff166352bd4f41836000815181106117c6576117c661503b565b60200260200101516004846040516117de919061515e565b9081526040519081900360200181207fffffffff0000000000000000000000000000000000000000000000000000000060e085901b16825261182392916004016157e9565b60006040518083038186803b15801561183b57600080fd5b505afa15801561184f573d6000803e3d6000fd5b505050508273ffffffffffffffffffffffffffffffffffffffff166352bd4f41836001815181106118825761188261503b565b602002602001015160048460405161189a919061515e565b9081526040519081900360200181207fffffffff0000000000000000000000000000000000000000000000000000000060e085901b1682526118df92916004016157e9565b60006040518083038186803b1580156118f757600080fd5b505afa15801561190b573d6000803e3d6000fd5b50505050505050611a8a565b60008061192f61192a60608b018b6150a8565b613c7c565b86519294509250600091905073ffffffffffffffffffffffffffffffffffffffff841660408051602081019390935282015260600160405160208183030381529060405290506000600482604051611987919061515e565b90815260405190819003602001902054116119e45760405162461bcd60e51b815260206004820152601660248201527f75736572206973206e6f7420617574686f72697a656400000000000000000000604482015260640161075c565b8273ffffffffffffffffffffffffffffffffffffffff166352bd4f4183600484604051611a11919061515e565b9081526040519081900360200181207fffffffff0000000000000000000000000000000000000000000000000000000060e085901b168252611a5692916004016157e9565b60006040518083038186803b158015611a6e57600080fd5b505afa158015611a82573d6000803e3d6000fd5b505050505050505b611a9385613cee565b5050509392505050565b60005462010000900460ff1615611b1c5760405162461bcd60e51b815260206004820152602260248201527f436f6e74726163742068617320616c7265616479206265656e206465706c6f7960448201527f6564000000000000000000000000000000000000000000000000000000000000606482015260840161075c565b611b5c8383838080601f01602080910402602001604051908101604052809392919081815260200183838082843760009201829052509250613d59915050565b5050600080547fffffffffffffffffffffffffffffffffffffffffffffffffffffffffff00ffff166201000017905550565b611ba4828260008181106111ff576111ff61503b565b611bf05760405162461bcd60e51b815260206004820181905260248201527f66697273742063616c6c206973206e6f7420616e20696e697420616374696f6e604482015260640161075c565b611c338585856000818110611c0757611c0761503b565b9050602002013584846000818110611c2157611c2161503b565b905060200281019061044191906150a8565b611c648585856001818110611c4a57611c4a61503b565b9050602002013584846001818110611c2157611c2161503b565b5050505050565b3073ffffffffffffffffffffffffffffffffffffffff7f0000000000000000000000000000000000000000000000000000000000000000161415611d175760405162461bcd60e51b815260206004820152602c60248201527f46756e6374696f6e206d7573742062652063616c6c6564207468726f7567682060448201527f64656c656761746563616c6c0000000000000000000000000000000000000000606482015260840161075c565b7f000000000000000000000000000000000000000000000000000000000000000073ffffffffffffffffffffffffffffffffffffffff16611d8c7f360894a13ba1a3210667c828492db98dca3e2076cc3735a920a3ca505d382bbc5473ffffffffffffffffffffffffffffffffffffffff1690565b73ffffffffffffffffffffffffffffffffffffffff1614611e155760405162461bcd60e51b815260206004820152602c60248201527f46756e6374696f6e206d7573742062652063616c6c6564207468726f7567682060448201527f6163746976652070726f78790000000000000000000000000000000000000000606482015260840161075c565b611e1e8261390b565b611e2a82826001613913565b5050565b60003073ffffffffffffffffffffffffffffffffffffffff7f00000000000000000000000000000000000000000000000000000000000000001614611edb5760405162461bcd60e51b815260206004820152603860248201527f555550535570677261646561626c653a206d757374206e6f742062652063616c60448201527f6c6564207468726f7567682064656c656761746563616c6c0000000000000000606482015260840161075c565b507f360894a13ba1a3210667c828492db98dca3e2076cc3735a920a3ca505d382bbc90565b611f08613629565b6000611f4b858585858080601f0160208091040260200160405190810160405280939291908181526020018383808284376000920191909152506137d492505050565b73ffffffffffffffffffffffffffffffffffffffff861660009081526001602090815260409091208251929350610aec929091840190614571565b606082611fd55760405162461bcd60e51b815260206004820152600d60248201527f726f6c6520697320656d70747900000000000000000000000000000000000000604482015260640161075c565b73ffffffffffffffffffffffffffffffffffffffff82166120385760405162461bcd60e51b815260206004820152601760248201527f6d6f64756c65206164647265737320697320656d707479000000000000000000604482015260640161075c565b604080516020810185905273ffffffffffffffffffffffffffffffffffffffff8416818301528151808203830181526060909101918290529060049061207f90839061515e565b9081526020016040518091039020805480602002602001604051908101604052809291908181526020016000905b828210156121b85783829060005260206000209060040201604051806080016040529081600082015481526020016001820180546120ea90615170565b80601f016020809104026020016040519081016040528092919081815260200182805461211690615170565b80156121635780601f1061213857610100808354040283529160200191612163565b820191906000526020600020905b81548152906001019060200180831161214657829003601f168201915b5050509183525050600282015460209091019060ff16600681111561218a5761218a614cc6565b600681111561219b5761219b614cc6565b8152602001600382015481525050815260200190600101906120ad565b5050505091505092915050565b6121cd613629565b8061221a5760405162461bcd60e51b815260206004820152600e60248201527f696e76616c696420757365724964000000000000000000000000000000000000604482015260640161075c565b60008181526003602052604081208181556001810180547fffffffffffffffffffffffffffffffffffffffffffffffffffffffffffffff001690559061226360028301826145f5565b505050565b60408051606080820183526000808352602083015291810191909152816122d15760405162461bcd60e51b815260206004820152600e60248201527f696e76616c696420757365724964000000000000000000000000000000000000604482015260640161075c565b600082815260036020908152604091829020825160608101909352805483526001810154909183019060ff16801561230b5761230b614cc6565b801561231957612319614cc6565b815260200160028201805461232d90615170565b80601f016020809104026020016040519081016040528092919081815260200182805461235990615170565b80156123a65780601f1061237b576101008083540402835291602001916123a6565b820191906000526020600020905b81548152906001019060200180831161238957829003601f168201915b5050505050815250509050919050565b6123c38686868686611b8e565b610aec81613d7e565b6123d885858585611f00565b611c6481613d7e565b6123e9613629565b73ffffffffffffffffffffffffffffffffffffffff81166124725760405162461bcd60e51b815260206004820152603260248201527f66756e2077616c6c65743a206e657720656e74727920706f696e74206164647260448201527f6573732063616e6e6f74206265207a65726f0000000000000000000000000000606482015260840161075c565b600680547fffffffffffffffffffffffff00000000000000000000000000000000000000001673ffffffffffffffffffffffffffffffffffffffff831690811790915560405181907f34a5e38fc8fe74f12b269fe92e724092f7f531dc4985c88fb113460cfcb5f67d90600090a350565b6124eb613629565b826125385760405162461bcd60e51b815260206004820152600d60248201527f726f6c6520697320656d70747900000000000000000000000000000000000000604482015260640161075c565b73ffffffffffffffffffffffffffffffffffffffff821661259b5760405162461bcd60e51b815260206004820152601760248201527f6d6f64756c65206164647265737320697320656d707479000000000000000000604482015260640161075c565b80356125e95760405162461bcd60e51b815260206004820152601560248201527f72756c652068617320656d70747920616374696f6e0000000000000000000000604482015260640161075c565b60006125f860208301836150a8565b9050116126475760405162461bcd60e51b815260206004820152601560248201527f72756c652068617320656d707479207461726765740000000000000000000000604482015260640161075c565b60608101356126985760405162461bcd60e51b815260206004820152601560248201527f72756c652068617320656d70747920657874656e740000000000000000000000604482015260640161075c565b604080516020810185905273ffffffffffffffffffffffffffffffffffffffff84168183015281518082038301815260609091019091526126d88161389c565b60006004826040516126ea919061515e565b9081526020016040518091039020805480602002602001604051908101604052809291908181526020016000905b8282101561282357838290600052602060002090600402016040518060800160405290816000820154815260200160018201805461275590615170565b80601f016020809104026020016040519081016040528092919081815260200182805461278190615170565b80156127ce5780601f106127a3576101008083540402835291602001916127ce565b820191906000526020600020905b8154815290600101906020018083116127b157829003601f168201915b5050509183525050600282015460209091019060ff1660068111156127f5576127f5614cc6565b600681111561280657612806614cc6565b815260200160038201548152505081526020019060010190612718565b505050509050600083806020019061283b91906150a8565b61284b6060870160408801615937565b8660600135604051602001612863949392919061596b565b60405160208183030381529060405280519060200120905060005b60048460405161288e919061515e565b9081526040519081900360200190205461ffff82161015611344576000838261ffff16815181106128c1576128c161503b565b602002602001015160200151848361ffff16815181106128e3576128e361503b565b602002602001015160400151858461ffff16815181106129055761290561503b565b60200260200101516060015160405160200161292393929190615996565b60405160208183030381529060405280519060200120905080831415612ad157836001855161295291906159c7565b815181106129625761296261503b565b602002602001015160048660405161297a919061515e565b90815260200160405180910390208361ffff168154811061299d5761299d61503b565b90600052602060002090600402016000820151816000015560208201518160010190805190602001906129d1929190614571565b5060408201516002820180547fffffffffffffffffffffffffffffffffffffffffffffffffffffffffffffff00166001836006811115612a1357612a13614cc6565b021790555060608201518160030155905050600485604051612a35919061515e565b9081526020016040518091039020805480612a5257612a526159de565b60008281526020812060047fffffffffffffffffffffffffffffffffffffffffffffffffffffffffffffffff9093019283020181815590612a9660018301826145f5565b506002810180547fffffffffffffffffffffffffffffffffffffffffffffffffffffffffffffff001690556000600390910155905550611344565b5080612adc8161513c565b91505061287e565b612aec614082565b80471015612b625760405162461bcd60e51b815260206004820152602a60248201527f66756e2077616c6c65743a206e6f7420656e6f75676820657468657220696e2060448201527f7468652077616c6c657400000000000000000000000000000000000000000000606482015260840161075c565b6005546040517fb760faf900000000000000000000000000000000000000000000000000000000815230600482015273ffffffffffffffffffffffffffffffffffffffff9091169063b760faf990602401600060405180830381600087803b158015612bcd57600080fd5b505af1158015611c64573d6000803e3d6000fd5b600054610100900460ff1615808015612c015750600054600160ff909116105b80612c1b5750303b158015612c1b575060005460ff166001145b612c8d5760405162461bcd60e51b815260206004820152602e60248201527f496e697469616c697a61626c653a20636f6e747261637420697320616c72656160448201527f647920696e697469616c697a6564000000000000000000000000000000000000606482015260840161075c565b600080547fffffffffffffffffffffffffffffffffffffffffffffffffffffffffffffff001660011790558015612ceb57600080547fffffffffffffffffffffffffffffffffffffffffffffffffffffffffffff00ff166101001790555b73ffffffffffffffffffffffffffffffffffffffff8416612d4e5760405162461bcd60e51b815260206004820152601260248201527f496e76616c696420456e747279706f696e740000000000000000000000000000604482015260640161075c565b6005805473ffffffffffffffffffffffffffffffffffffffff8681167fffffffffffffffffffffffff00000000000000000000000000000000000000009283161790925560068054868416908316179055600780549285169290911682179055604080516060810182527f61646d696e000000000000000000000000000000000000000000000000000000815260006020808301828152845180830187905285518082038401815290860186528486015294825260039052919091208151815591516001838101805493949390917fffffffffffffffffffffffffffffffffffffffffffffffffffffffffffffff0090911690838015612e5057612e50614cc6565b021790555060408201518051612e70916002840191602090910190614571565b5090505060007f61646d696e0000000000000000000000000000000000000000000000000000006040518060400160405280600181526020017f2a00000000000000000000000000000000000000000000000000000000000000815250604051602001612ede92919061575e565b6040516020818303038152906040529050600481604051612eff919061515e565b908152602001604051809103902060405180608001604052807f2a0000000000000000000000000000000000000000000000000000000000000081526020016040518060400160405280600181526020017f2a000000000000000000000000000000000000000000000000000000000000008152508152602001600680811115612f8b57612f8b614cc6565b81527f2a00000000000000000000000000000000000000000000000000000000000000602091820152825460018181018555600094855293829020835160049092020190815582820151805193949193612fed93928501929190910190614571565b5060408201516002820180547fffffffffffffffffffffffffffffffffffffffffffffffffffffffffffffff0016600183600681111561302f5761302f614cc6565b0217905550606082015181600301555050508015610c1857600080547fffffffffffffffffffffffffffffffffffffffffffffffffffffffffffff00ff169055604051600181527f7f26b83ff96e1f2b6a682f133852f6798a09c465da95921460cefb38474024989060200160405180910390a150505050565b6005546040517f70a0823100000000000000000000000000000000000000000000000000000000815230600482015260009173ffffffffffffffffffffffffffffffffffffffff16906370a0823190602401602060405180830381865afa158015613118573d6000803e3d6000fd5b505050506040513d601f19601f8201168201806040525081019061313c9190615701565b905090565b613149614082565b73ffffffffffffffffffffffffffffffffffffffff82166131d25760405162461bcd60e51b815260206004820152602b60248201527f66756e2077616c6c65743a20776974686472617720616464726573732063616e60448201527f6e6f74206265207a65726f000000000000000000000000000000000000000000606482015260840161075c565b6005546040517f205c287800000000000000000000000000000000000000000000000000000000815273ffffffffffffffffffffffffffffffffffffffff8481166004830152602482018490529091169063205c287890604401600060405180830381600087803b15801561324657600080fd5b505af1158015610aec573d6000803e3d6000fd5b613262613629565b73ffffffffffffffffffffffffffffffffffffffff81166132eb5760405162461bcd60e51b815260206004820152602d60248201527f66756e2077616c6c65743a206e6577206d6f64756c652061646472657373206360448201527f616e6e6f74206265207a65726f00000000000000000000000000000000000000606482015260840161075c565b8173ffffffffffffffffffffffffffffffffffffffff168173ffffffffffffffffffffffffffffffffffffffff16141561338d5760405162461bcd60e51b815260206004820152603e60248201527f66756e2077616c6c65743a206e6577206d6f64756c652061646472657373206360448201527f616e6e6f7420626520657175616c20746f2070726576696f7573206f6e650000606482015260840161075c565b73ffffffffffffffffffffffffffffffffffffffff8083166000908152600160205260408082209284168252902081549091906133c990615170565b6133d492919061462f565b5073ffffffffffffffffffffffffffffffffffffffff82166000908152600160205260408120613403916145f5565b8073ffffffffffffffffffffffffffffffffffffffff168273ffffffffffffffffffffffffffffffffffffffff167fdcbf4cc8a7afc3fe6e403a57745b98188844fdfee49c8752ae30fc46b3a39ebb60405160405180910390a35050565b73ffffffffffffffffffffffffffffffffffffffff8116600090815260016020526040902080546060919061349590615170565b80601f01602080910402602001604051908101604052809291908181526020018280546134c190615170565b801561350e5780601f106134e35761010080835404028352916020019161350e565b820191906000526020600020905b8154815290600101906020018083116134f157829003601f168201915b50505050509050919050565b613522613629565b8161356f5760405162461bcd60e51b815260206004820152600e60248201527f696e76616c696420757365724964000000000000000000000000000000000000604482015260640161075c565b6000828152600360205260408120600201805461358b90615170565b905011156135db5760405162461bcd60e51b815260206004820152601360248201527f7573657220616c72656164792065786973747300000000000000000000000000604482015260640161075c565b8035610ba05760405162461bcd60e51b815260206004820152601460248201527f757365722068617320656d70747920726f6c6573000000000000000000000000604482015260640161075c565b60055473ffffffffffffffffffffffffffffffffffffffff16331480613666575060075473ffffffffffffffffffffffffffffffffffffffff1633145b6136d85760405162461bcd60e51b815260206004820152602860248201527f66756e2077616c6c65743a206e6f742066726f6d20456e747279506f696e742060448201527f6f72206f776e6572000000000000000000000000000000000000000000000000606482015260840161075c565b565b600081815260036020526040812060020180546136f690615170565b90501161117a5760405162461bcd60e51b815260206004820152601f60248201527f66756e2077616c6c65743a207573657220646f6573206e6f7420657869737400604482015260640161075c565b336000908152600160205260408120805461375f90615170565b9050116136d85760405162461bcd60e51b815260206004820152602360248201527f66756e2077616c6c65743a206e6f742066726f6d2061206b6e6f776e204d6f6460448201527f756c650000000000000000000000000000000000000000000000000000000000606482015260840161075c565b60606000808573ffffffffffffffffffffffffffffffffffffffff1685856040516137ff919061515e565b60006040518083038185875af1925050503d806000811461383c576040519150601f19603f3d011682016040523d82523d6000602084013e613841565b606091505b5091509150816138935760405162461bcd60e51b815260206004820181905260248201527f66756e2077616c6c65743a2065787465726e616c2063616c6c206661696c6564604482015260640161075c565b95945050505050565b60006004826040516138ae919061515e565b908152604051908190036020019020541161117a5760405162461bcd60e51b815260206004820152601f60248201527f66756e2077616c6c65743a20726f6c6520646f6573206e6f7420657869737400604482015260640161075c565b61117a613629565b7f4910fdfa16fed3260ed0e7147f7cc6da11a60208b5b9406d12a635614ffd91435460ff161561394657612263836140f3565b8273ffffffffffffffffffffffffffffffffffffffff166352d1902d6040518163ffffffff1660e01b8152600401602060405180830381865afa9250505080156139cb575060408051601f3d9081017fffffffffffffffffffffffffffffffffffffffffffffffffffffffffffffffe01682019092526139c891810190615701565b60015b613a3d5760405162461bcd60e51b815260206004820152602e60248201527f45524331393637557067726164653a206e657720696d706c656d656e7461746960448201527f6f6e206973206e6f742055555053000000000000000000000000000000000000606482015260840161075c565b7f360894a13ba1a3210667c828492db98dca3e2076cc3735a920a3ca505d382bbc8114613ad25760405162461bcd60e51b815260206004820152602960248201527f45524331393637557067726164653a20756e737570706f727465642070726f7860448201527f6961626c65555549440000000000000000000000000000000000000000000000606482015260840161075c565b50612263838383613d59565b600080613aee6004828587615777565b613af7916157a1565b7fffffffff00000000000000000000000000000000000000000000000000000000167f4ddf47d4000000000000000000000000000000000000000000000000000000001491505092915050565b60055473ffffffffffffffffffffffffffffffffffffffff1633146136d85760405162461bcd60e51b815260206004820152601f60248201527f66756e2077616c6c65743a206e6f742066726f6d20456e747279506f696e7400604482015260640161075c565b60208082013560009081526002909152604090205460ff1615613c105760405162461bcd60e51b815260206004820152601960248201527f66756e2077616c6c65743a20696e76616c6964206e6f6e636500000000000000604482015260640161075c565b602090810135600090815260029091526040902080547fffffffffffffffffffffffffffffffffffffffffffffffffffffffffffffff00166001179055565b6000606080613c618460048188615777565b810190613c6e9190615ac1565b919790965090945092505050565b6000806060613c8e8460048188615777565b810190613c9b9190614fe1565b9093509150613cad8460c88188615777565b8080601f0160208091040260200160405190810160405280939291908181526020018383808284376000920191909152509598949750919550929350505050565b801561117a5760405160009033907fffffffffffffffffffffffffffffffffffffffffffffffffffffffffffffffff90849084818181858888f193505050503d8060008114611c64576040519150601f19603f3d011682016040523d82523d6000602084013e611c64565b613d62836141e3565b600082511180613d6f5750805b1561226357610c188383614230565b6000816040015173ffffffffffffffffffffffffffffffffffffffff166311ad747b83606001516040518263ffffffff1660e01b8152600401613dc391815260200190565b602060405180830381865afa158015613de0573d6000803e3d6000fd5b505050506040513d601f19601f82011682018060405250810190613e049190615701565b90506000818360600151613e1891906159c7565b835190915073ffffffffffffffffffffffffffffffffffffffff16613e5357613e4583602001518261425c565b61226383604001518361425c565b825160208401516040517fa9059cbb00000000000000000000000000000000000000000000000000000000815273ffffffffffffffffffffffffffffffffffffffff918216600482015260248101849052600092919091169063a9059cbb906044016020604051808303816000875af1158015613ed4573d6000803e3d6000fd5b505050506040513d601f19601f82011682018060405250810190613ef89190615b8e565b905080613f6d5760405162461bcd60e51b815260206004820152602160248201527f66756e2077616c6c65743a204552433230207472616e73666572206661696c6560448201527f6400000000000000000000000000000000000000000000000000000000000000606482015260840161075c565b835160408086015190517fa9059cbb00000000000000000000000000000000000000000000000000000000815273ffffffffffffffffffffffffffffffffffffffff91821660048201526024810186905291169063a9059cbb906044016020604051808303816000875af1158015613fe9573d6000803e3d6000fd5b505050506040513d601f19601f8201168201806040525081019061400d9190615b8e565b905080610c185760405162461bcd60e51b815260206004820152602160248201527f66756e2077616c6c65743a204552433230207472616e73666572206661696c6560448201527f6400000000000000000000000000000000000000000000000000000000000000606482015260840161075c565b60075473ffffffffffffffffffffffffffffffffffffffff163314806140a757503330145b6136d85760405162461bcd60e51b815260206004820152601a60248201527f66756e2077616c6c65743a206e6f742066726f6d204f776e6572000000000000604482015260640161075c565b73ffffffffffffffffffffffffffffffffffffffff81163b61417d5760405162461bcd60e51b815260206004820152602d60248201527f455243313936373a206e657720696d706c656d656e746174696f6e206973206e60448201527f6f74206120636f6e747261637400000000000000000000000000000000000000606482015260840161075c565b7f360894a13ba1a3210667c828492db98dca3e2076cc3735a920a3ca505d382bbc80547fffffffffffffffffffffffff00000000000000000000000000000000000000001673ffffffffffffffffffffffffffffffffffffffff92909216919091179055565b6141ec816140f3565b60405173ffffffffffffffffffffffffffffffffffffffff8216907fbc7cd75a20ee27fd9adebab32041f755214dbc6bffa90cc0225b39da2e5c2d3b90600090a250565b60606142558383604051806060016040528060278152602001615bb160279139614278565b9392505050565b8047101561426e57611e2a82826142fd565b611e2a82826143f4565b60606000808573ffffffffffffffffffffffffffffffffffffffff16856040516142a2919061515e565b600060405180830381855af49150503d80600081146142dd576040519150601f19603f3d011682016040523d82523d6000602084013e6142e2565b606091505b50915091506142f3868383876144c9565b9695505050505050565b6005546040517f205c287800000000000000000000000000000000000000000000000000000000815273ffffffffffffffffffffffffffffffffffffffff8481166004830152602482018490529091169063205c287890604401600060405180830381600087803b15801561437157600080fd5b505af1925050508015614382575060015b611e2a5760405162461bcd60e51b815260206004820152602b60248201527f66756e2077616c6c65743a20656e747279706f696e74207472616e736665722060448201527f657468206661696c656420000000000000000000000000000000000000000000606482015260840161075c565b60008273ffffffffffffffffffffffffffffffffffffffff168260405160006040518083038185875af1925050503d806000811461444e576040519150601f19603f3d011682016040523d82523d6000602084013e614453565b606091505b50509050806122635760405162461bcd60e51b8152602060048201526024808201527f66756e2077616c6c65743a2074686973207472616e736665722065746820666160448201527f696c656400000000000000000000000000000000000000000000000000000000606482015260840161075c565b6060831561454257825161453b5773ffffffffffffffffffffffffffffffffffffffff85163b61453b5760405162461bcd60e51b815260206004820152601d60248201527f416464726573733a2063616c6c20746f206e6f6e2d636f6e7472616374000000604482015260640161075c565b5081610d6e565b610d6e83838151156145575781518083602001fd5b8060405162461bcd60e51b815260040161075c919061490c565b82805461457d90615170565b90600052602060002090601f01602090048101928261459f57600085556145e5565b82601f106145b857805160ff19168380011785556145e5565b828001600101855582156145e5579182015b828111156145e55782518255916020019190600101906145ca565b506145f19291506146aa565b5090565b50805461460190615170565b6000825580601f10614611575050565b601f01602090049060005260206000209081019061117a91906146aa565b82805461463b90615170565b90600052602060002090601f01602090048101928261465d57600085556145e5565b82601f1061466e57805485556145e5565b828001600101855582156145e557600052602060002091601f016020900482015b828111156145e557825482559160010191906001019061468f565b5b808211156145f157600081556001016146ab565b73ffffffffffffffffffffffffffffffffffffffff8116811461117a57600080fd5b80356146ec816146bf565b919050565b60008083601f84011261470357600080fd5b50813567ffffffffffffffff81111561471b57600080fd5b6020830191508360208260051b850101111561473657600080fd5b9250929050565b6000806000806060858703121561475357600080fd5b843593506020850135614765816146bf565b9250604085013567ffffffffffffffff81111561478157600080fd5b61478d878288016146f1565b95989497509550505050565b600080604083850312156147ac57600080fd5b82359150602083013567ffffffffffffffff8111156147ca57600080fd5b8301606081860312156147dc57600080fd5b809150509250929050565b6000602082840312156147f957600080fd5b8135614255816146bf565b60008083601f84011261481657600080fd5b50813567ffffffffffffffff81111561482e57600080fd5b60208301915083602082850101111561473657600080fd5b6000806000806060858703121561485c57600080fd5b8435614867816146bf565b935060208501359250604085013567ffffffffffffffff81111561488a57600080fd5b61478d87828801614804565b60005b838110156148b1578181015183820152602001614899565b83811115610c185750506000910152565b600081518084526148da816020860160208601614896565b601f017fffffffffffffffffffffffffffffffffffffffffffffffffffffffffffffffe0169290920160200192915050565b60208152600061425560208301846148c2565b60008060006060848603121561493457600080fd5b833592506020840135614946816146bf565b9150604084013567ffffffffffffffff81111561496257600080fd5b84016080818703121561497457600080fd5b809150509250925092565b6000806000806000806060878903121561499857600080fd5b863567ffffffffffffffff808211156149b057600080fd5b6149bc8a838b016146f1565b909850965060208901359150808211156149d557600080fd5b6149e18a838b016146f1565b909650945060408901359150808211156149fa57600080fd5b50614a0789828a016146f1565b979a9699509497509295939492505050565b600080600060608486031215614a2e57600080fd5b833567ffffffffffffffff811115614a4557600080fd5b84016101608187031215614a5857600080fd5b95602085013595506040909401359392505050565b600080600060408486031215614a8257600080fd5b8335614a8d816146bf565b9250602084013567ffffffffffffffff811115614aa957600080fd5b614ab586828701614804565b9497909650939450505050565b600080600080600060608688031215614ada57600080fd5b8535614ae5816146bf565b9450602086013567ffffffffffffffff80821115614b0257600080fd5b614b0e89838a016146f1565b90965094506040880135915080821115614b2757600080fd5b50614b34888289016146f1565b969995985093965092949392505050565b7f4e487b7100000000000000000000000000000000000000000000000000000000600052604160045260246000fd5b604051601f82017fffffffffffffffffffffffffffffffffffffffffffffffffffffffffffffffe016810167ffffffffffffffff81118282101715614bbb57614bbb614b45565b604052919050565b600082601f830112614bd457600080fd5b813567ffffffffffffffff811115614bee57614bee614b45565b614c1f60207fffffffffffffffffffffffffffffffffffffffffffffffffffffffffffffffe0601f84011601614b74565b818152846020838601011115614c3457600080fd5b816020850160208301376000918101602001919091529392505050565b60008060408385031215614c6457600080fd5b8235614c6f816146bf565b9150602083013567ffffffffffffffff811115614c8b57600080fd5b614c9785828601614bc3565b9150509250929050565b60008060408385031215614cb457600080fd5b8235915060208301356147dc816146bf565b7f4e487b7100000000000000000000000000000000000000000000000000000000600052602160045260246000fd5b60078110614d0557614d05614cc6565b9052565b60006020808301818452808551808352604092508286019150828160051b87010184880160005b83811015614dae577fffffffffffffffffffffffffffffffffffffffffffffffffffffffffffffffc0898403018552815160808151855288820151818a870152614d7c828701826148c2565b91505087820151614d8f89870182614cf5565b5060609182015194909101939093529386019390860190600101614d30565b509098975050505050505050565b600060208284031215614dce57600080fd5b5035919050565b60018110614d0557614d05614cc6565b602081528151602082015260006020830151614e046040840182614dd5565b506040830151606080840152610d6e60808401826148c2565b600060808284031215614e2f57600080fd5b6040516080810181811067ffffffffffffffff82111715614e5257614e52614b45565b6040529050808235614e63816146bf565b81526020830135614e73816146bf565b60208201526040830135614e86816146bf565b6040820152606092830135920191909152919050565b60008060008060008060e08789031215614eb557600080fd5b8635614ec0816146bf565b9550602087013567ffffffffffffffff80821115614edd57600080fd5b614ee98a838b016146f1565b90975095506040890135915080821115614f0257600080fd5b50614f0f89828a016146f1565b9094509250614f2390508860608901614e1d565b90509295509295509295565b600080600080600060e08688031215614f4757600080fd5b8535614f52816146bf565b945060208601359350604086013567ffffffffffffffff811115614f7557600080fd5b614f8188828901614804565b9094509250614f9590508760608801614e1d565b90509295509295909350565b600080600060608486031215614fb657600080fd5b8335614fc1816146bf565b92506020840135614fd1816146bf565b91506040840135614974816146bf565b60008060408385031215614ff457600080fd5b8235614fff816146bf565b946020939093013593505050565b6000806040838503121561502057600080fd5b823561502b816146bf565b915060208301356147dc816146bf565b7f4e487b7100000000000000000000000000000000000000000000000000000000600052603260045260246000fd5b600082357fffffffffffffffffffffffffffffffffffffffffffffffffffffffffffffff8183360301811261509e57600080fd5b9190910192915050565b60008083357fffffffffffffffffffffffffffffffffffffffffffffffffffffffffffffffe18436030181126150dd57600080fd5b83018035915067ffffffffffffffff8211156150f857600080fd5b60200191503681900382131561473657600080fd5b7f4e487b7100000000000000000000000000000000000000000000000000000000600052601160045260246000fd5b600061ffff808316818114156151545761515461510d565b6001019392505050565b6000825161509e818460208701614896565b600181811c9082168061518457607f821691505b602082108114156151be577f4e487b7100000000000000000000000000000000000000000000000000000000600052602260045260246000fd5b50919050565b601f82111561226357600081815260208120601f850160051c810160208610156151eb5750805b601f850160051c820191505b81811015610aec578281556001016151f7565b6007811061117a57600080fd5b600081356152248161520a565b92915050565b6007821061523a5761523a614cc6565b7fffffffffffffffffffffffffffffffffffffffffffffffffffffffffffffff0081541660ff831681178255505050565b8135815560018082016020615282818601866150a8565b67ffffffffffffffff81111561529a5761529a614b45565b6152ae816152a88654615170565b866151c4565b6000601f82116001811461530057600083156152ca5750838201355b7fffffffffffffffffffffffffffffffffffffffffffffffffffffffffffffffff600385901b1c1916600184901b178655615391565b6000868152602090207fffffffffffffffffffffffffffffffffffffffffffffffffffffffffffffffe0841690835b8281101561534c578685013582559387019390890190870161532f565b5084821015615387577fffffffffffffffffffffffffffffffffffffffffffffffffffffffffffffffff60f88660031b161c19848701351681555b50508683881b0186555b505050505050506153b06153a760408401615217565b6002830161522a565b606082013560038201555050565b8135815560018082016020808501358381106153d957600080fd5b7fffffffffffffffffffffffffffffffffffffffffffffffffffffffffffffff0083541660ff821681178455505060028401915061541a60408601866150a8565b67ffffffffffffffff81111561543257615432614b45565b615440816152a88654615170565b6000601f821160018114615492576000831561545c5750838201355b7fffffffffffffffffffffffffffffffffffffffffffffffffffffffffffffffff600385901b1c1916600184901b178655615523565b6000868152602090207fffffffffffffffffffffffffffffffffffffffffffffffffffffffffffffffe0841690835b828110156154de57868501358255938701939089019087016154c1565b5084821015615519577fffffffffffffffffffffffffffffffffffffffffffffffffffffffffffffffff60f88660031b161c19848701351681555b50508683881b0186555b505050505050505050565b60008083357fffffffffffffffffffffffffffffffffffffffffffffffffffffffffffffffe184360301811261556357600080fd5b830160208101925035905067ffffffffffffffff81111561558357600080fd5b80360383131561473657600080fd5b8183528181602085013750600060208284010152600060207fffffffffffffffffffffffffffffffffffffffffffffffffffffffffffffffe0601f840116840101905092915050565b6000610160615607846155ed856146e1565b73ffffffffffffffffffffffffffffffffffffffff169052565b6020830135602085015261561e604084018461552e565b8260408701526156318387018284615592565b92505050615642606084018461552e565b8583036060870152615655838284615592565b925050506080830135608085015260a083013560a085015260c083013560c085015260e083013560e085015261010080840135818601525061012061569c8185018561552e565b868403838801526156ae848284615592565b93505050506101406156c28185018561552e565b868403838801526156d4848284615592565b979650505050505050565b6040815260006156f260408301856155db565b90508260208301529392505050565b60006020828403121561571357600080fd5b5051919050565b6157248186614dd5565b60806020820152600061573a60808301866148c2565b828103604084015261574c81866155db565b91505082606083015295945050505050565b828152604060208201526000610d6e60408301846148c2565b6000808585111561578757600080fd5b8386111561579457600080fd5b5050820193919092039150565b7fffffffff0000000000000000000000000000000000000000000000000000000081358181169160048510156157e15780818660040360031b1b83161692505b505092915050565b600060408083526157fc818401866148c2565b6020848203818601528186548084528284019150828160051b8501016000898152848120815b84811015615926577fffffffffffffffffffffffffffffffffffffffffffffffffffffffffffffffe08885030186526080825485526001808401828a88015285815461586d81615170565b94890185905260a094818516801561588c57600181146158be576158e9565b7fffffffffffffffffffffffffffffffffffffffffffffffffffffffffffffff008316878c015260c08b0193506158e9565b848a528d8a208a5b838110156158e15781548d82018a0152908701908f016158c6565b8c0188019450505b505050600286015460ff1693506159028d890185614cf5565b60038601546060989098019790975250505094860194600490910190600101615822565b50919b9a5050505050505050505050565b60006020828403121561594957600080fd5b81356142558161520a565b6007811061596457615964614cc6565b60f81b9052565b838582376000848201600081526159828186615954565b600181019390935250506021019392505050565b600084516159a8818460208901614896565b82016159b48186615954565b6001810193909352505060210192915050565b6000828210156159d9576159d961510d565b500390565b7f4e487b7100000000000000000000000000000000000000000000000000000000600052603160045260246000fd5b600067ffffffffffffffff821115615a2757615a27614b45565b5060051b60200190565b600082601f830112615a4257600080fd5b81356020615a57615a5283615a0d565b614b74565b82815260059290921b84018101918181019086841115615a7657600080fd5b8286015b84811015615ab657803567ffffffffffffffff811115615a9a5760008081fd5b615aa88986838b0101614bc3565b845250918301918301615a7a565b509695505050505050565b600080600060608486031215615ad657600080fd5b8335615ae1816146bf565b925060208481013567ffffffffffffffff80821115615aff57600080fd5b818701915087601f830112615b1357600080fd5b8135615b21615a5282615a0d565b81815260059190911b8301840190848101908a831115615b4057600080fd5b938501935b82851015615b5e57843582529385019390850190615b45565b965050506040870135925080831115615b7657600080fd5b5050615b8486828701615a31565b9150509250925092565b600060208284031215615ba057600080fd5b8151801515811461425557600080fdfe416464726573733a206c6f772d6c6576656c2064656c65676174652063616c6c206661696c6564a26469706673582212201660b11670670fb21d171aea46e40477ecb7e7fe6807be31d6e4a3da55341a2364736f6c634300080c0033","linkReferences":{},"deployedLinkReferences":{}}