{"_format":"hh-sol-artifact-1","contractName":"FunWalletFactory","sourceName":"contracts/deployer/FunWalletFactory.sol","abi":[{"inputs":[],"stateMutability":"nonpayable","type":"constructor"},{"inputs":[{"internalType":"bytes","name":"initializerCallData","type":"bytes"},{"internalType":"address","name":"implementation","type":"address"},{"internalType":"bytes32","name":"salt","type":"bytes32"}],"name":"createAccount","outputs":[{"internalType":"contract FunWallet","name":"funWallet","type":"address"}],"stateMutability":"nonpayable","type":"function"},{"inputs":[],"name":"funWalletImpAddress","outputs":[{"internalType":"address","name":"","type":"address"}],"stateMutability":"view","type":"function"},{"inputs":[{"internalType":"bytes32","name":"salt","type":"bytes32"}],"name":"getAddress","outputs":[{"internalType":"address","name":"","type":"address"}],"stateMutability":"view","type":"function"}],"bytecode":"0x60a060405234801561001057600080fd5b5060405161001d9061004b565b604051809103906000f080158015610039573d6000803e3d6000fd5b506001600160a01b0316608052610058565b61550280610d7583390190565b608051610cee61008760003960008181609a01528181610107015281816101e501526102860152610cee6000f3fe608060405234801561001057600080fd5b50600436106100415760003560e01c806321f8a72114610046578063780c11f0146100825780638bb0862014610095575b600080fd5b610059610054366004610388565b6100bc565b60405173ffffffffffffffffffffffffffffffffffffffff909116815260200160405180910390f35b6100596100903660046103a1565b6101ac565b6100597f000000000000000000000000000000000000000000000000000000000000000081565b60006101a682604051806020016100d29061037b565b7fffffffffffffffffffffffffffffffffffffffffffffffffffffffffffffffe082820381018352601f9091011660408181527f000000000000000000000000000000000000000000000000000000000000000073ffffffffffffffffffffffffffffffffffffffff1660208301528082015260006060820152608001604080517fffffffffffffffffffffffffffffffffffffffffffffffffffffffffffffffe08184030181529082905261018b929160200161047e565b6040516020818303038152906040528051906020012061033d565b92915050565b6000806101b8836100bc565b905073ffffffffffffffffffffffffffffffffffffffff81163b80156101e057509050610335565b6000847f00000000000000000000000000000000000000000000000000000000000000006040516102109061037b565b73ffffffffffffffffffffffffffffffffffffffff90911681526040602082018190526000908201526060018190604051809103906000f590508015801561025c573d6000803e3d6000fd5b50935083905073ffffffffffffffffffffffffffffffffffffffff86161561028457856102a6565b7f00000000000000000000000000000000000000000000000000000000000000005b6040517f4192d25100000000000000000000000000000000000000000000000000000000815290965073ffffffffffffffffffffffffffffffffffffffff851690634192d251906102ff9089908c908c90600401610493565b600060405180830381600087803b15801561031957600080fd5b505af115801561032d573d6000803e3d6000fd5b505050505050505b949350505050565b600061034a838330610351565b9392505050565b6000604051836040820152846020820152828152600b8101905060ff815360559020949350505050565b6107bb806104fe83390190565b60006020828403121561039a57600080fd5b5035919050565b600080600080606085870312156103b757600080fd5b843567ffffffffffffffff808211156103cf57600080fd5b818701915087601f8301126103e357600080fd5b8135818111156103f257600080fd5b88602082850101111561040457600080fd5b6020928301965094505085013573ffffffffffffffffffffffffffffffffffffffff8116811461043357600080fd5b9396929550929360400135925050565b6000815160005b81811015610464576020818501810151868301520161044a565b81811115610473576000828601525b509290920192915050565b600061033561048d8386610443565b84610443565b73ffffffffffffffffffffffffffffffffffffffff8416815260406020820152816040820152818360608301376000818301606090810191909152601f9092017fffffffffffffffffffffffffffffffffffffffffffffffffffffffffffffffe01601019291505056fe60806040526040516107bb3803806107bb8339810160408190526100229161031e565b61002e82826000610035565b505061043b565b61003e8361006b565b60008251118061004b5750805b156100665761006483836100ab60201b6100291760201c565b505b505050565b610074816100d7565b6040516001600160a01b038216907fbc7cd75a20ee27fd9adebab32041f755214dbc6bffa90cc0225b39da2e5c2d3b90600090a250565b60606100d08383604051806060016040528060278152602001610794602791396101a9565b9392505050565b6100ea8161022260201b6100551760201c565b6101515760405162461bcd60e51b815260206004820152602d60248201527f455243313936373a206e657720696d706c656d656e746174696f6e206973206e60448201526c1bdd08184818dbdb9d1c9858dd609a1b60648201526084015b60405180910390fd5b806101887f360894a13ba1a3210667c828492db98dca3e2076cc3735a920a3ca505d382bbc60001b61023160201b6100711760201c565b80546001600160a01b0319166001600160a01b039290921691909117905550565b6060600080856001600160a01b0316856040516101c691906103ec565b600060405180830381855af49150503d8060008114610201576040519150601f19603f3d011682016040523d82523d6000602084013e610206565b606091505b50909250905061021886838387610234565b9695505050505050565b6001600160a01b03163b151590565b90565b606083156102a0578251610299576001600160a01b0385163b6102995760405162461bcd60e51b815260206004820152601d60248201527f416464726573733a2063616c6c20746f206e6f6e2d636f6e74726163740000006044820152606401610148565b50816102aa565b6102aa83836102b2565b949350505050565b8151156102c25781518083602001fd5b8060405162461bcd60e51b81526004016101489190610408565b634e487b7160e01b600052604160045260246000fd5b60005b8381101561030d5781810151838201526020016102f5565b838111156100645750506000910152565b6000806040838503121561033157600080fd5b82516001600160a01b038116811461034857600080fd5b60208401519092506001600160401b038082111561036557600080fd5b818501915085601f83011261037957600080fd5b81518181111561038b5761038b6102dc565b604051601f8201601f19908116603f011681019083821181831017156103b3576103b36102dc565b816040528281528860208487010111156103cc57600080fd5b6103dd8360208301602088016102f2565b80955050505050509250929050565b600082516103fe8184602087016102f2565b9190910192915050565b60208152600082518060208401526104278160408501602087016102f2565b601f01601f19169190910160400192915050565b61034a8061044a6000396000f3fe60806040523661001357610011610017565b005b6100115b610027610022610074565b6100b9565b565b606061004e83836040518060600160405280602781526020016102ee602791396100dd565b9392505050565b73ffffffffffffffffffffffffffffffffffffffff163b151590565b90565b60006100b47f360894a13ba1a3210667c828492db98dca3e2076cc3735a920a3ca505d382bbc5473ffffffffffffffffffffffffffffffffffffffff1690565b905090565b3660008037600080366000845af43d6000803e8080156100d8573d6000f35b3d6000fd5b60606000808573ffffffffffffffffffffffffffffffffffffffff16856040516101079190610280565b600060405180830381855af49150503d8060008114610142576040519150601f19603f3d011682016040523d82523d6000602084013e610147565b606091505b509150915061015886838387610162565b9695505050505050565b606083156101fa5782516101f35773ffffffffffffffffffffffffffffffffffffffff85163b6101f3576040517f08c379a000000000000000000000000000000000000000000000000000000000815260206004820152601d60248201527f416464726573733a2063616c6c20746f206e6f6e2d636f6e747261637400000060448201526064015b60405180910390fd5b5081610204565b610204838361020c565b949350505050565b81511561021c5781518083602001fd5b806040517f08c379a00000000000000000000000000000000000000000000000000000000081526004016101ea919061029c565b60005b8381101561026b578181015183820152602001610253565b8381111561027a576000848401525b50505050565b60008251610292818460208701610250565b9190910192915050565b60208152600082518060208401526102bb816040850160208701610250565b601f017fffffffffffffffffffffffffffffffffffffffffffffffffffffffffffffffe016919091016040019291505056fe416464726573733a206c6f772d6c6576656c2064656c65676174652063616c6c206661696c6564a264697066735822122048b4772a345164af1273505ce1226eb0faeacddb6d9cb8aee934363126dcc9de64736f6c634300080c0033416464726573733a206c6f772d6c6576656c2064656c65676174652063616c6c206661696c6564a2646970667358221220a3de6976d03fc1474b34d533e1105464624130aece7e5c4787f825b9464840b264736f6c634300080c003360a0604052306080526000805462ff00001916905534801561002057600080fd5b506080516154aa61005860003960008181610f1d01528181610fb301528181611bdd01528181611c730152611da201526154aa6000f3fe6080604052600436106101e75760003560e01c80635e5d432011610102578063b0d691fe11610095578063cc793fa611610064578063cc793fa6146105c5578063d06403d6146105e5578063dc7c984814610605578063e374e90f1461062557600080fd5b8063b0d691fe14610545578063c0c53b8b14610570578063c399ec8814610590578063c7d76308146105a557600080fd5b80638da5cb5b116100d15780638da5cb5b146104c357806399d3fef3146104f05780639cfdf5b614610510578063a55e593d1461052557600080fd5b80635e5d4320146104225780636517579c1461044257806375b238fc1461046f5780637b8ea028146104a357600080fd5b80633a871cdd1161017a5780634f1ef286116101495780634f1ef286146103ad57806352d1902d146103c057806355cd05cc146103d55780635cbf1e6e146103f557600080fd5b80633a871cdd146103015780633cb66ec4146103215780634192d2511461036d5780634789b97e1461038d57600080fd5b80632ed6fb5d116101b65780632ed6fb5d1461027e578063357f7bb01461029e5780633659cfe6146102c15780633a6e5a0a146102e157600080fd5b8063033183e9146101f357806315577ae2146102155780631b71bb6e1461023557806320d2a20f1461025557600080fd5b366101ee57005b600080fd5b3480156101ff57600080fd5b5061021361020e366004614180565b610665565b005b34801561022157600080fd5b506102136102303660046141dc565b610a4e565b34801561024157600080fd5b5061021361025036600461422a565b610b78565b610268610263366004614289565b610c7a565b604051610275919061434f565b60405180910390f35b34801561028a57600080fd5b50610213610299366004614362565b610cd0565b3480156102aa57600080fd5b506102b3600481565b604051908152602001610275565b3480156102cd57600080fd5b506102136102dc36600461422a565b610f05565b3480156102ed57600080fd5b506102136102fc3660046143c2565b6110d7565b34801561030d57600080fd5b506102b361031c36600461445c565b6112a7565b34801561032d57600080fd5b5060065473ffffffffffffffffffffffffffffffffffffffff165b60405173ffffffffffffffffffffffffffffffffffffffff9091168152602001610275565b34801561037957600080fd5b506102136103883660046144b0565b6119f7565b34801561039957600080fd5b506102136103a8366004614505565b611ae8565b6102136103bb366004614694565b611bc5565b3480156103cc57600080fd5b506102b3611d88565b3480156103e157600080fd5b506102136103f0366004614289565b611e5a565b34801561040157600080fd5b506104156104103660046146e4565b611ee0565b604051610275919061474c565b34801561042e57600080fd5b5061021361043d3660046147ff565b61211f565b34801561044e57600080fd5b5061046261045d3660046147ff565b6121c2565b6040516102759190614828565b34801561047b57600080fd5b506102b37f61646d696e00000000000000000000000000000000000000000000000000000081565b3480156104af57600080fd5b506102136104be36600461422a565b612310565b3480156104cf57600080fd5b506007546103489073ffffffffffffffffffffffffffffffffffffffff1681565b3480156104fc57600080fd5b5061021361050b366004614362565b612412565b34801561051c57600080fd5b506102b360c881565b34801561053157600080fd5b506102136105403660046147ff565b612a13565b34801561055157600080fd5b5060055473ffffffffffffffffffffffffffffffffffffffff16610348565b34801561057c57600080fd5b5061021361058b366004614860565b612b10565b34801561059c57600080fd5b506102b3612fd8565b3480156105b157600080fd5b506102136105c03660046148a0565b613070565b3480156105d157600080fd5b506102136105e03660046148cc565b613189565b3480156105f157600080fd5b5061026861060036600461422a565b613390565b34801561061157600080fd5b506102136106203660046141dc565b613449565b34801561063157600080fd5b506106556106403660046147ff565b60009081526002602052604090205460ff1690565b6040519015158152602001610275565b61066d613558565b836106bf5760405162461bcd60e51b815260206004820152600d60248201527f726f6c6520697320656d7074790000000000000000000000000000000000000060448201526064015b60405180910390fd5b73ffffffffffffffffffffffffffffffffffffffff83166107225760405162461bcd60e51b815260206004820152601760248201527f6d6f64756c65206164647265737320697320656d70747900000000000000000060448201526064016106b6565b8061076f5760405162461bcd60e51b815260206004820152600f60248201527f72756c65732061726520656d707479000000000000000000000000000000000060448201526064016106b6565b60005b61ffff811682111561090c576000838361ffff8416818110610796576107966148fa565b90506020028101906107a89190614929565b3514156107f75760405162461bcd60e51b815260206004820152601560248201527f72756c652068617320656d70747920616374696f6e000000000000000000000060448201526064016106b6565b600083838361ffff1681811061080f5761080f6148fa565b90506020028101906108219190614929565b61082f906020810190614967565b90501161087e5760405162461bcd60e51b815260206004820152601560248201527f72756c652068617320656d70747920746172676574000000000000000000000060448201526064016106b6565b6000838361ffff8416818110610896576108966148fa565b90506020028101906108a89190614929565b6060013514156108fa5760405162461bcd60e51b815260206004820152601560248201527f72756c652068617320656d70747920657874656e74000000000000000000000060448201526064016106b6565b80610904816149fb565b915050610772565b5060008473ffffffffffffffffffffffffffffffffffffffff85166040805160208101939093528201526060016040516020818303038152906040529050600060048260405161095c9190614a1d565b9081526040519081900360200190205411156109ba5760405162461bcd60e51b815260206004820152601360248201527f726f6c6520616c7265616479206578697374730000000000000000000000000060448201526064016106b6565b60005b61ffff8116831115610a46576004826040516109d99190614a1d565b908152602001604051809103902084848361ffff168181106109fd576109fd6148fa565b9050602002810190610a0f9190614929565b815460018101835560009283526020909220909160040201610a318282614b2a565b50508080610a3e906149fb565b9150506109bd565b505050505050565b610a56613558565b81610aa35760405162461bcd60e51b815260206004820152600e60248201527f696e76616c69642075736572496400000000000000000000000000000000000060448201526064016106b6565b610aac82613609565b8035610afa5760405162461bcd60e51b815260206004820152601360248201527f757365722068617320656d70747920726f6c650000000000000000000000000060448201526064016106b6565b6000610b096040830183614967565b905011610b585760405162461bcd60e51b815260206004820152601c60248201527f757365722068617320656d7074792061757468206d657461646174610000000060448201526064016106b6565b60008281526003602052604090208190610b728282614c7d565b50505050565b610b80613558565b73ffffffffffffffffffffffffffffffffffffffff8116610c095760405162461bcd60e51b815260206004820152603260248201527f66756e2077616c6c65743a206e657720656e74727920706f696e74206164647260448201527f6573732063616e6e6f74206265207a65726f000000000000000000000000000060648201526084016106b6565b600580547fffffffffffffffffffffffff00000000000000000000000000000000000000001673ffffffffffffffffffffffffffffffffffffffff831690811790915560405181907f450909c1478d09248269d4ad4fa8cba61ca3f50faed58c7aedefa51c7f62b83a90600090a350565b6060610c84613674565b610cc5858585858080601f01602080910402602001604051908101604052809392919081815260200183838082843760009201919091525061370392505050565b90505b949350505050565b610cd8613558565b82610d255760405162461bcd60e51b815260206004820152600d60248201527f726f6c6520697320656d7074790000000000000000000000000000000000000060448201526064016106b6565b73ffffffffffffffffffffffffffffffffffffffff8216610d885760405162461bcd60e51b815260206004820152601760248201527f6d6f64756c65206164647265737320697320656d70747900000000000000000060448201526064016106b6565b8035610dd65760405162461bcd60e51b815260206004820152601560248201527f72756c652068617320656d70747920616374696f6e000000000000000000000060448201526064016106b6565b6000610de56020830183614967565b905011610e345760405162461bcd60e51b815260206004820152601560248201527f72756c652068617320656d70747920746172676574000000000000000000000060448201526064016106b6565b6060810135610e855760405162461bcd60e51b815260206004820152601560248201527f72756c652068617320656d70747920657874656e74000000000000000000000060448201526064016106b6565b604080516020810185905273ffffffffffffffffffffffffffffffffffffffff8416818301528151808203830181526060909101909152610ec5816137cb565b600481604051610ed59190614a1d565b9081526040516020918190038201902080546001810182556000918252919020839160040201610a468282614b2a565b3073ffffffffffffffffffffffffffffffffffffffff7f0000000000000000000000000000000000000000000000000000000000000000161415610fb15760405162461bcd60e51b815260206004820152602c60248201527f46756e6374696f6e206d7573742062652063616c6c6564207468726f7567682060448201527f64656c656761746563616c6c000000000000000000000000000000000000000060648201526084016106b6565b7f000000000000000000000000000000000000000000000000000000000000000073ffffffffffffffffffffffffffffffffffffffff166110267f360894a13ba1a3210667c828492db98dca3e2076cc3735a920a3ca505d382bbc5473ffffffffffffffffffffffffffffffffffffffff1690565b73ffffffffffffffffffffffffffffffffffffffff16146110af5760405162461bcd60e51b815260206004820152602c60248201527f46756e6374696f6e206d7573742062652063616c6c6564207468726f7567682060448201527f6163746976652070726f7879000000000000000000000000000000000000000060648201526084016106b6565b6110b88161383a565b604080516000808252602082019092526110d491839190613842565b50565b6110df613558565b84831480156110ed57508281145b6111395760405162461bcd60e51b815260206004820152601760248201527f6461746120697320646966666572656e742073697a657300000000000000000060448201526064016106b6565b60005b8581101561129e57611170838383818110611159576111596148fa565b905060200281019061116b9190614967565b613a0d565b1561129657600061121888888481811061118c5761118c6148fa565b90506020020160208101906111a1919061422a565b8787858181106111b3576111b36148fa565b905060200201358686868181106111cc576111cc6148fa565b90506020028101906111de9190614967565b8080601f01602080910402602001604051908101604052809392919081815260200183838082843760009201919091525061370392505050565b905080600160008a8a86818110611231576112316148fa565b9050602002016020810190611246919061422a565b73ffffffffffffffffffffffffffffffffffffffff1673ffffffffffffffffffffffffffffffffffffffff1681526020019081526020016000209080519060200190611293929190613fb4565b50505b60010161113c565b50505050505050565b60006112b1613a73565b6006546040517f81adfce600000000000000000000000000000000000000000000000000000000815260009173ffffffffffffffffffffffffffffffffffffffff16906381adfce69061130a9088908890600401614f9e565b602060405180830381865afa158015611327573d6000803e3d6000fd5b505050506040513d601f19601f8201168201806040525081019061134b9190614fc0565b905061135681613609565b6000818152600360209081526040808320815160608101909252805482526001810154919290919083019060ff16801561139257611392614709565b80156113a0576113a0614709565b81526020016002820180546113b490614a2f565b80601f01602080910402602001604051908101604052809291908181526020018280546113e090614a2f565b801561142d5780601f106114025761010080835404028352916020019161142d565b820191906000526020600020905b81548152906001019060200180831161141057829003601f168201915b505050919092525050600654602083015160408085015190517fdeca388700000000000000000000000000000000000000000000000000000000815294955073ffffffffffffffffffffffffffffffffffffffff9092169363deca3887935061149d92908b908b90600401614fd9565b602060405180830381865afa1580156114ba573d6000803e3d6000fd5b505050506040513d601f19601f820116820180604052508101906114de9190614fc0565b92506114ed6040870187614967565b151590506114fe576114fe86613ada565b600081600001516040518060400160405280600181526020017f2a0000000000000000000000000000000000000000000000000000000000000081525060405160200161154c92919061501d565b60405160208183030381529060405290507f61646d696e0000000000000000000000000000000000000000000000000000008260000151141580156115b15750600060048260405161159e9190614a1d565b9081526040519081900360200190205411155b156119e4577f4789b97e000000000000000000000000000000000000000000000000000000006115e46060890189614967565b6115f391600491600091615036565b6115fc91615060565b7fffffffff000000000000000000000000000000000000000000000000000000001614156118715760008061163c61163760608b018b614967565b613b7e565b86519294509250600091905073ffffffffffffffffffffffffffffffffffffffff8416604080516020810193909352820152606001604051602081830303815290604052905060006004826040516116949190614a1d565b90815260405190819003602001902054116116f15760405162461bcd60e51b815260206004820152601660248201527f75736572206973206e6f7420617574686f72697a65640000000000000000000060448201526064016106b6565b8273ffffffffffffffffffffffffffffffffffffffff166352bd4f4183600081518110611720576117206148fa565b60200260200101516004846040516117389190614a1d565b9081526040519081900360200181207fffffffff0000000000000000000000000000000000000000000000000000000060e085901b16825261177d92916004016150a8565b60006040518083038186803b15801561179557600080fd5b505afa1580156117a9573d6000803e3d6000fd5b505050508273ffffffffffffffffffffffffffffffffffffffff166352bd4f41836001815181106117dc576117dc6148fa565b60200260200101516004846040516117f49190614a1d565b9081526040519081900360200181207fffffffff0000000000000000000000000000000000000000000000000000000060e085901b16825261183992916004016150a8565b60006040518083038186803b15801561185157600080fd5b505afa158015611865573d6000803e3d6000fd5b505050505050506119e4565b60008061188961188460608b018b614967565b613bab565b86519294509250600091905073ffffffffffffffffffffffffffffffffffffffff8416604080516020810193909352820152606001604051602081830303815290604052905060006004826040516118e19190614a1d565b908152604051908190036020019020541161193e5760405162461bcd60e51b815260206004820152601660248201527f75736572206973206e6f7420617574686f72697a65640000000000000000000060448201526064016106b6565b8273ffffffffffffffffffffffffffffffffffffffff166352bd4f418360048460405161196b9190614a1d565b9081526040519081900360200181207fffffffff0000000000000000000000000000000000000000000000000000000060e085901b1682526119b092916004016150a8565b60006040518083038186803b1580156119c857600080fd5b505afa1580156119dc573d6000803e3d6000fd5b505050505050505b6119ed85613c1d565b5050509392505050565b60005462010000900460ff1615611a765760405162461bcd60e51b815260206004820152602260248201527f436f6e74726163742068617320616c7265616479206265656e206465706c6f7960448201527f656400000000000000000000000000000000000000000000000000000000000060648201526084016106b6565b611ab68383838080601f01602080910402602001604051908101604052809392919081815260200183838082843760009201829052509250613c88915050565b5050600080547fffffffffffffffffffffffffffffffffffffffffffffffffffffffffff00ffff166201000017905550565b611afe82826000818110611159576111596148fa565b611b4a5760405162461bcd60e51b815260206004820181905260248201527f66697273742063616c6c206973206e6f7420616e20696e697420616374696f6e60448201526064016106b6565b611b8d8585856000818110611b6157611b616148fa565b9050602002013584846000818110611b7b57611b7b6148fa565b90506020028101906103f09190614967565b611bbe8585856001818110611ba457611ba46148fa565b9050602002013584846001818110611b7b57611b7b6148fa565b5050505050565b3073ffffffffffffffffffffffffffffffffffffffff7f0000000000000000000000000000000000000000000000000000000000000000161415611c715760405162461bcd60e51b815260206004820152602c60248201527f46756e6374696f6e206d7573742062652063616c6c6564207468726f7567682060448201527f64656c656761746563616c6c000000000000000000000000000000000000000060648201526084016106b6565b7f000000000000000000000000000000000000000000000000000000000000000073ffffffffffffffffffffffffffffffffffffffff16611ce67f360894a13ba1a3210667c828492db98dca3e2076cc3735a920a3ca505d382bbc5473ffffffffffffffffffffffffffffffffffffffff1690565b73ffffffffffffffffffffffffffffffffffffffff1614611d6f5760405162461bcd60e51b815260206004820152602c60248201527f46756e6374696f6e206d7573742062652063616c6c6564207468726f7567682060448201527f6163746976652070726f7879000000000000000000000000000000000000000060648201526084016106b6565b611d788261383a565b611d8482826001613842565b5050565b60003073ffffffffffffffffffffffffffffffffffffffff7f00000000000000000000000000000000000000000000000000000000000000001614611e355760405162461bcd60e51b815260206004820152603860248201527f555550535570677261646561626c653a206d757374206e6f742062652063616c60448201527f6c6564207468726f7567682064656c656761746563616c6c000000000000000060648201526084016106b6565b507f360894a13ba1a3210667c828492db98dca3e2076cc3735a920a3ca505d382bbc90565b611e62613558565b6000611ea5858585858080601f01602080910402602001604051908101604052809392919081815260200183838082843760009201919091525061370392505050565b73ffffffffffffffffffffffffffffffffffffffff861660009081526001602090815260409091208251929350610a46929091840190613fb4565b606082611f2f5760405162461bcd60e51b815260206004820152600d60248201527f726f6c6520697320656d7074790000000000000000000000000000000000000060448201526064016106b6565b73ffffffffffffffffffffffffffffffffffffffff8216611f925760405162461bcd60e51b815260206004820152601760248201527f6d6f64756c65206164647265737320697320656d70747900000000000000000060448201526064016106b6565b604080516020810185905273ffffffffffffffffffffffffffffffffffffffff84168183015281518082038301815260609091019182905290600490611fd9908390614a1d565b9081526020016040518091039020805480602002602001604051908101604052809291908181526020016000905b8282101561211257838290600052602060002090600402016040518060800160405290816000820154815260200160018201805461204490614a2f565b80601f016020809104026020016040519081016040528092919081815260200182805461207090614a2f565b80156120bd5780601f10612092576101008083540402835291602001916120bd565b820191906000526020600020905b8154815290600101906020018083116120a057829003601f168201915b5050509183525050600282015460209091019060ff1660068111156120e4576120e4614709565b60068111156120f5576120f5614709565b815260200160038201548152505081526020019060010190612007565b5050505091505092915050565b612127613558565b806121745760405162461bcd60e51b815260206004820152600e60248201527f696e76616c69642075736572496400000000000000000000000000000000000060448201526064016106b6565b60008181526003602052604081208181556001810180547fffffffffffffffffffffffffffffffffffffffffffffffffffffffffffffff00169055906121bd6002830182614038565b505050565b604080516060808201835260008083526020830152918101919091528161222b5760405162461bcd60e51b815260206004820152600e60248201527f696e76616c69642075736572496400000000000000000000000000000000000060448201526064016106b6565b600082815260036020908152604091829020825160608101909352805483526001810154909183019060ff16801561226557612265614709565b801561227357612273614709565b815260200160028201805461228790614a2f565b80601f01602080910402602001604051908101604052809291908181526020018280546122b390614a2f565b80156123005780601f106122d557610100808354040283529160200191612300565b820191906000526020600020905b8154815290600101906020018083116122e357829003601f168201915b5050505050815250509050919050565b612318613558565b73ffffffffffffffffffffffffffffffffffffffff81166123a15760405162461bcd60e51b815260206004820152603260248201527f66756e2077616c6c65743a206e657720656e74727920706f696e74206164647260448201527f6573732063616e6e6f74206265207a65726f000000000000000000000000000060648201526084016106b6565b600680547fffffffffffffffffffffffff00000000000000000000000000000000000000001673ffffffffffffffffffffffffffffffffffffffff831690811790915560405181907f34a5e38fc8fe74f12b269fe92e724092f7f531dc4985c88fb113460cfcb5f67d90600090a350565b61241a613558565b826124675760405162461bcd60e51b815260206004820152600d60248201527f726f6c6520697320656d7074790000000000000000000000000000000000000060448201526064016106b6565b73ffffffffffffffffffffffffffffffffffffffff82166124ca5760405162461bcd60e51b815260206004820152601760248201527f6d6f64756c65206164647265737320697320656d70747900000000000000000060448201526064016106b6565b80356125185760405162461bcd60e51b815260206004820152601560248201527f72756c652068617320656d70747920616374696f6e000000000000000000000060448201526064016106b6565b60006125276020830183614967565b9050116125765760405162461bcd60e51b815260206004820152601560248201527f72756c652068617320656d70747920746172676574000000000000000000000060448201526064016106b6565b60608101356125c75760405162461bcd60e51b815260206004820152601560248201527f72756c652068617320656d70747920657874656e74000000000000000000000060448201526064016106b6565b604080516020810185905273ffffffffffffffffffffffffffffffffffffffff8416818301528151808203830181526060909101909152612607816137cb565b60006004826040516126199190614a1d565b9081526020016040518091039020805480602002602001604051908101604052809291908181526020016000905b8282101561275257838290600052602060002090600402016040518060800160405290816000820154815260200160018201805461268490614a2f565b80601f01602080910402602001604051908101604052809291908181526020018280546126b090614a2f565b80156126fd5780601f106126d2576101008083540402835291602001916126fd565b820191906000526020600020905b8154815290600101906020018083116126e057829003601f168201915b5050509183525050600282015460209091019060ff16600681111561272457612724614709565b600681111561273557612735614709565b815260200160038201548152505081526020019060010190612647565b505050509050600083806020019061276a9190614967565b61277a60608701604088016151f6565b8660600135604051602001612792949392919061522a565b60405160208183030381529060405280519060200120905060005b6004846040516127bd9190614a1d565b9081526040519081900360200190205461ffff8216101561129e576000838261ffff16815181106127f0576127f06148fa565b602002602001015160200151848361ffff1681518110612812576128126148fa565b602002602001015160400151858461ffff1681518110612834576128346148fa565b60200260200101516060015160405160200161285293929190615255565b60405160208183030381529060405280519060200120905080831415612a005783600185516128819190615286565b81518110612891576128916148fa565b60200260200101516004866040516128a99190614a1d565b90815260200160405180910390208361ffff16815481106128cc576128cc6148fa565b9060005260206000209060040201600082015181600001556020820151816001019080519060200190612900929190613fb4565b5060408201516002820180547fffffffffffffffffffffffffffffffffffffffffffffffffffffffffffffff0016600183600681111561294257612942614709565b0217905550606082015181600301559050506004856040516129649190614a1d565b90815260200160405180910390208054806129815761298161529d565b60008281526020812060047fffffffffffffffffffffffffffffffffffffffffffffffffffffffffffffffff90930192830201818155906129c56001830182614038565b506002810180547fffffffffffffffffffffffffffffffffffffffffffffffffffffffffffffff00169055600060039091015590555061129e565b5080612a0b816149fb565b9150506127ad565b612a1b613cad565b80471015612a915760405162461bcd60e51b815260206004820152602a60248201527f66756e2077616c6c65743a206e6f7420656e6f75676820657468657220696e2060448201527f7468652077616c6c65740000000000000000000000000000000000000000000060648201526084016106b6565b6005546040517fb760faf900000000000000000000000000000000000000000000000000000000815230600482015273ffffffffffffffffffffffffffffffffffffffff9091169063b760faf990602401600060405180830381600087803b158015612afc57600080fd5b505af1158015611bbe573d6000803e3d6000fd5b600054610100900460ff1615808015612b305750600054600160ff909116105b80612b4a5750303b158015612b4a575060005460ff166001145b612bbc5760405162461bcd60e51b815260206004820152602e60248201527f496e697469616c697a61626c653a20636f6e747261637420697320616c72656160448201527f647920696e697469616c697a656400000000000000000000000000000000000060648201526084016106b6565b600080547fffffffffffffffffffffffffffffffffffffffffffffffffffffffffffffff001660011790558015612c1a57600080547fffffffffffffffffffffffffffffffffffffffffffffffffffffffffffff00ff166101001790555b73ffffffffffffffffffffffffffffffffffffffff8416612c7d5760405162461bcd60e51b815260206004820152601260248201527f496e76616c696420456e747279706f696e74000000000000000000000000000060448201526064016106b6565b6005805473ffffffffffffffffffffffffffffffffffffffff8681167fffffffffffffffffffffffff00000000000000000000000000000000000000009283161790925560068054868416908316179055600780549285169290911682179055604080516060810182527f61646d696e000000000000000000000000000000000000000000000000000000815260006020808301828152845180830187905285518082038401815290860186528486015294825260039052919091208151815591516001838101805493949390917fffffffffffffffffffffffffffffffffffffffffffffffffffffffffffffff0090911690838015612d7f57612d7f614709565b021790555060408201518051612d9f916002840191602090910190613fb4565b5090505060007f61646d696e0000000000000000000000000000000000000000000000000000006040518060400160405280600181526020017f2a00000000000000000000000000000000000000000000000000000000000000815250604051602001612e0d92919061501d565b6040516020818303038152906040529050600481604051612e2e9190614a1d565b908152602001604051809103902060405180608001604052807f2a0000000000000000000000000000000000000000000000000000000000000081526020016040518060400160405280600181526020017f2a000000000000000000000000000000000000000000000000000000000000008152508152602001600680811115612eba57612eba614709565b81527f2a00000000000000000000000000000000000000000000000000000000000000602091820152825460018181018555600094855293829020835160049092020190815582820151805193949193612f1c93928501929190910190613fb4565b5060408201516002820180547fffffffffffffffffffffffffffffffffffffffffffffffffffffffffffffff00166001836006811115612f5e57612f5e614709565b0217905550606082015181600301555050508015610b7257600080547fffffffffffffffffffffffffffffffffffffffffffffffffffffffffffff00ff169055604051600181527f7f26b83ff96e1f2b6a682f133852f6798a09c465da95921460cefb38474024989060200160405180910390a150505050565b6005546040517f70a0823100000000000000000000000000000000000000000000000000000000815230600482015260009173ffffffffffffffffffffffffffffffffffffffff16906370a0823190602401602060405180830381865afa158015613047573d6000803e3d6000fd5b505050506040513d601f19601f8201168201806040525081019061306b9190614fc0565b905090565b613078613cad565b73ffffffffffffffffffffffffffffffffffffffff82166131015760405162461bcd60e51b815260206004820152602b60248201527f66756e2077616c6c65743a20776974686472617720616464726573732063616e60448201527f6e6f74206265207a65726f00000000000000000000000000000000000000000060648201526084016106b6565b6005546040517f205c287800000000000000000000000000000000000000000000000000000000815273ffffffffffffffffffffffffffffffffffffffff8481166004830152602482018490529091169063205c287890604401600060405180830381600087803b15801561317557600080fd5b505af1158015610a46573d6000803e3d6000fd5b613191613558565b73ffffffffffffffffffffffffffffffffffffffff811661321a5760405162461bcd60e51b815260206004820152602d60248201527f66756e2077616c6c65743a206e6577206d6f64756c652061646472657373206360448201527f616e6e6f74206265207a65726f0000000000000000000000000000000000000060648201526084016106b6565b8173ffffffffffffffffffffffffffffffffffffffff168173ffffffffffffffffffffffffffffffffffffffff1614156132bc5760405162461bcd60e51b815260206004820152603e60248201527f66756e2077616c6c65743a206e6577206d6f64756c652061646472657373206360448201527f616e6e6f7420626520657175616c20746f2070726576696f7573206f6e65000060648201526084016106b6565b73ffffffffffffffffffffffffffffffffffffffff8083166000908152600160205260408082209284168252902081549091906132f890614a2f565b613303929190614072565b5073ffffffffffffffffffffffffffffffffffffffff8216600090815260016020526040812061333291614038565b8073ffffffffffffffffffffffffffffffffffffffff168273ffffffffffffffffffffffffffffffffffffffff167fdcbf4cc8a7afc3fe6e403a57745b98188844fdfee49c8752ae30fc46b3a39ebb60405160405180910390a35050565b73ffffffffffffffffffffffffffffffffffffffff811660009081526001602052604090208054606091906133c490614a2f565b80601f01602080910402602001604051908101604052809291908181526020018280546133f090614a2f565b801561343d5780601f106134125761010080835404028352916020019161343d565b820191906000526020600020905b81548152906001019060200180831161342057829003601f168201915b50505050509050919050565b613451613558565b8161349e5760405162461bcd60e51b815260206004820152600e60248201527f696e76616c69642075736572496400000000000000000000000000000000000060448201526064016106b6565b600082815260036020526040812060020180546134ba90614a2f565b9050111561350a5760405162461bcd60e51b815260206004820152601360248201527f7573657220616c7265616479206578697374730000000000000000000000000060448201526064016106b6565b8035610afa5760405162461bcd60e51b815260206004820152601460248201527f757365722068617320656d70747920726f6c657300000000000000000000000060448201526064016106b6565b60055473ffffffffffffffffffffffffffffffffffffffff16331480613595575060075473ffffffffffffffffffffffffffffffffffffffff1633145b6136075760405162461bcd60e51b815260206004820152602860248201527f66756e2077616c6c65743a206e6f742066726f6d20456e747279506f696e742060448201527f6f72206f776e657200000000000000000000000000000000000000000000000060648201526084016106b6565b565b6000818152600360205260408120600201805461362590614a2f565b9050116110d45760405162461bcd60e51b815260206004820152601f60248201527f66756e2077616c6c65743a207573657220646f6573206e6f742065786973740060448201526064016106b6565b336000908152600160205260408120805461368e90614a2f565b9050116136075760405162461bcd60e51b815260206004820152602360248201527f66756e2077616c6c65743a206e6f742066726f6d2061206b6e6f776e204d6f6460448201527f756c65000000000000000000000000000000000000000000000000000000000060648201526084016106b6565b60606000808573ffffffffffffffffffffffffffffffffffffffff16858560405161372e9190614a1d565b60006040518083038185875af1925050503d806000811461376b576040519150601f19603f3d011682016040523d82523d6000602084013e613770565b606091505b5091509150816137c25760405162461bcd60e51b815260206004820181905260248201527f66756e2077616c6c65743a2065787465726e616c2063616c6c206661696c656460448201526064016106b6565b95945050505050565b60006004826040516137dd9190614a1d565b90815260405190819003602001902054116110d45760405162461bcd60e51b815260206004820152601f60248201527f66756e2077616c6c65743a20726f6c6520646f6573206e6f742065786973740060448201526064016106b6565b6110d4613558565b7f4910fdfa16fed3260ed0e7147f7cc6da11a60208b5b9406d12a635614ffd91435460ff1615613875576121bd83613d1e565b8273ffffffffffffffffffffffffffffffffffffffff166352d1902d6040518163ffffffff1660e01b8152600401602060405180830381865afa9250505080156138fa575060408051601f3d9081017fffffffffffffffffffffffffffffffffffffffffffffffffffffffffffffffe01682019092526138f791810190614fc0565b60015b61396c5760405162461bcd60e51b815260206004820152602e60248201527f45524331393637557067726164653a206e657720696d706c656d656e7461746960448201527f6f6e206973206e6f74205555505300000000000000000000000000000000000060648201526084016106b6565b7f360894a13ba1a3210667c828492db98dca3e2076cc3735a920a3ca505d382bbc8114613a015760405162461bcd60e51b815260206004820152602960248201527f45524331393637557067726164653a20756e737570706f727465642070726f7860448201527f6961626c6555554944000000000000000000000000000000000000000000000060648201526084016106b6565b506121bd838383613c88565b600080613a1d6004828587615036565b613a2691615060565b7fffffffff00000000000000000000000000000000000000000000000000000000167f4ddf47d4000000000000000000000000000000000000000000000000000000001491505092915050565b60055473ffffffffffffffffffffffffffffffffffffffff1633146136075760405162461bcd60e51b815260206004820152601f60248201527f66756e2077616c6c65743a206e6f742066726f6d20456e747279506f696e740060448201526064016106b6565b60208082013560009081526002909152604090205460ff1615613b3f5760405162461bcd60e51b815260206004820152601960248201527f66756e2077616c6c65743a20696e76616c6964206e6f6e63650000000000000060448201526064016106b6565b602090810135600090815260029091526040902080547fffffffffffffffffffffffffffffffffffffffffffffffffffffffffffffff00166001179055565b6000606080613b908460048188615036565b810190613b9d9190615380565b919790965090945092505050565b6000806060613bbd8460048188615036565b810190613bca91906148a0565b9093509150613bdc8460c88188615036565b8080601f0160208091040260200160405190810160405280939291908181526020018383808284376000920191909152509598949750919550929350505050565b80156110d45760405160009033907fffffffffffffffffffffffffffffffffffffffffffffffffffffffffffffffff90849084818181858888f193505050503d8060008114611bbe576040519150601f19603f3d011682016040523d82523d6000602084013e611bbe565b613c9183613e0e565b600082511180613c9e5750805b156121bd57610b728383613e5b565b60075473ffffffffffffffffffffffffffffffffffffffff16331480613cd257503330145b6136075760405162461bcd60e51b815260206004820152601a60248201527f66756e2077616c6c65743a206e6f742066726f6d204f776e657200000000000060448201526064016106b6565b73ffffffffffffffffffffffffffffffffffffffff81163b613da85760405162461bcd60e51b815260206004820152602d60248201527f455243313936373a206e657720696d706c656d656e746174696f6e206973206e60448201527f6f74206120636f6e74726163740000000000000000000000000000000000000060648201526084016106b6565b7f360894a13ba1a3210667c828492db98dca3e2076cc3735a920a3ca505d382bbc80547fffffffffffffffffffffffff00000000000000000000000000000000000000001673ffffffffffffffffffffffffffffffffffffffff92909216919091179055565b613e1781613d1e565b60405173ffffffffffffffffffffffffffffffffffffffff8216907fbc7cd75a20ee27fd9adebab32041f755214dbc6bffa90cc0225b39da2e5c2d3b90600090a250565b6060613e80838360405180606001604052806027815260200161544e60279139613e87565b9392505050565b60606000808573ffffffffffffffffffffffffffffffffffffffff1685604051613eb19190614a1d565b600060405180830381855af49150503d8060008114613eec576040519150601f19603f3d011682016040523d82523d6000602084013e613ef1565b606091505b5091509150613f0286838387613f0c565b9695505050505050565b60608315613f85578251613f7e5773ffffffffffffffffffffffffffffffffffffffff85163b613f7e5760405162461bcd60e51b815260206004820152601d60248201527f416464726573733a2063616c6c20746f206e6f6e2d636f6e747261637400000060448201526064016106b6565b5081610cc8565b610cc88383815115613f9a5781518083602001fd5b8060405162461bcd60e51b81526004016106b6919061434f565b828054613fc090614a2f565b90600052602060002090601f016020900481019282613fe25760008555614028565b82601f10613ffb57805160ff1916838001178555614028565b82800160010185558215614028579182015b8281111561402857825182559160200191906001019061400d565b506140349291506140ed565b5090565b50805461404490614a2f565b6000825580601f10614054575050565b601f0160209004906000526020600020908101906110d491906140ed565b82805461407e90614a2f565b90600052602060002090601f0160209004810192826140a05760008555614028565b82601f106140b15780548555614028565b8280016001018555821561402857600052602060002091601f016020900482015b828111156140285782548255916001019190600101906140d2565b5b8082111561403457600081556001016140ee565b73ffffffffffffffffffffffffffffffffffffffff811681146110d457600080fd5b803561412f81614102565b919050565b60008083601f84011261414657600080fd5b50813567ffffffffffffffff81111561415e57600080fd5b6020830191508360208260051b850101111561417957600080fd5b9250929050565b6000806000806060858703121561419657600080fd5b8435935060208501356141a881614102565b9250604085013567ffffffffffffffff8111156141c457600080fd5b6141d087828801614134565b95989497509550505050565b600080604083850312156141ef57600080fd5b82359150602083013567ffffffffffffffff81111561420d57600080fd5b83016060818603121561421f57600080fd5b809150509250929050565b60006020828403121561423c57600080fd5b8135613e8081614102565b60008083601f84011261425957600080fd5b50813567ffffffffffffffff81111561427157600080fd5b60208301915083602082850101111561417957600080fd5b6000806000806060858703121561429f57600080fd5b84356142aa81614102565b935060208501359250604085013567ffffffffffffffff8111156142cd57600080fd5b6141d087828801614247565b60005b838110156142f45781810151838201526020016142dc565b83811115610b725750506000910152565b6000815180845261431d8160208601602086016142d9565b601f017fffffffffffffffffffffffffffffffffffffffffffffffffffffffffffffffe0169290920160200192915050565b602081526000613e806020830184614305565b60008060006060848603121561437757600080fd5b83359250602084013561438981614102565b9150604084013567ffffffffffffffff8111156143a557600080fd5b8401608081870312156143b757600080fd5b809150509250925092565b600080600080600080606087890312156143db57600080fd5b863567ffffffffffffffff808211156143f357600080fd5b6143ff8a838b01614134565b9098509650602089013591508082111561441857600080fd5b6144248a838b01614134565b9096509450604089013591508082111561443d57600080fd5b5061444a89828a01614134565b979a9699509497509295939492505050565b60008060006060848603121561447157600080fd5b833567ffffffffffffffff81111561448857600080fd5b8401610160818703121561449b57600080fd5b95602085013595506040909401359392505050565b6000806000604084860312156144c557600080fd5b83356144d081614102565b9250602084013567ffffffffffffffff8111156144ec57600080fd5b6144f886828701614247565b9497909650939450505050565b60008060008060006060868803121561451d57600080fd5b853561452881614102565b9450602086013567ffffffffffffffff8082111561454557600080fd5b61455189838a01614134565b9096509450604088013591508082111561456a57600080fd5b5061457788828901614134565b969995985093965092949392505050565b7f4e487b7100000000000000000000000000000000000000000000000000000000600052604160045260246000fd5b604051601f82017fffffffffffffffffffffffffffffffffffffffffffffffffffffffffffffffe016810167ffffffffffffffff811182821017156145fe576145fe614588565b604052919050565b600082601f83011261461757600080fd5b813567ffffffffffffffff81111561463157614631614588565b61466260207fffffffffffffffffffffffffffffffffffffffffffffffffffffffffffffffe0601f840116016145b7565b81815284602083860101111561467757600080fd5b816020850160208301376000918101602001919091529392505050565b600080604083850312156146a757600080fd5b82356146b281614102565b9150602083013567ffffffffffffffff8111156146ce57600080fd5b6146da85828601614606565b9150509250929050565b600080604083850312156146f757600080fd5b82359150602083013561421f81614102565b7f4e487b7100000000000000000000000000000000000000000000000000000000600052602160045260246000fd5b6007811061474857614748614709565b9052565b60006020808301818452808551808352604092508286019150828160051b87010184880160005b838110156147f1577fffffffffffffffffffffffffffffffffffffffffffffffffffffffffffffffc0898403018552815160808151855288820151818a8701526147bf82870182614305565b915050878201516147d289870182614738565b5060609182015194909101939093529386019390860190600101614773565b509098975050505050505050565b60006020828403121561481157600080fd5b5035919050565b6001811061474857614748614709565b6020815281516020820152600060208301516148476040840182614818565b506040830151606080840152610cc86080840182614305565b60008060006060848603121561487557600080fd5b833561488081614102565b9250602084013561489081614102565b915060408401356143b781614102565b600080604083850312156148b357600080fd5b82356148be81614102565b946020939093013593505050565b600080604083850312156148df57600080fd5b82356148ea81614102565b9150602083013561421f81614102565b7f4e487b7100000000000000000000000000000000000000000000000000000000600052603260045260246000fd5b600082357fffffffffffffffffffffffffffffffffffffffffffffffffffffffffffffff8183360301811261495d57600080fd5b9190910192915050565b60008083357fffffffffffffffffffffffffffffffffffffffffffffffffffffffffffffffe184360301811261499c57600080fd5b83018035915067ffffffffffffffff8211156149b757600080fd5b60200191503681900382131561417957600080fd5b7f4e487b7100000000000000000000000000000000000000000000000000000000600052601160045260246000fd5b600061ffff80831681811415614a1357614a136149cc565b6001019392505050565b6000825161495d8184602087016142d9565b600181811c90821680614a4357607f821691505b60208210811415614a7d577f4e487b7100000000000000000000000000000000000000000000000000000000600052602260045260246000fd5b50919050565b601f8211156121bd57600081815260208120601f850160051c81016020861015614aaa5750805b601f850160051c820191505b81811015610a4657828155600101614ab6565b600781106110d457600080fd5b60008135614ae381614ac9565b92915050565b60078210614af957614af9614709565b7fffffffffffffffffffffffffffffffffffffffffffffffffffffffffffffff0081541660ff831681178255505050565b8135815560018082016020614b4181860186614967565b67ffffffffffffffff811115614b5957614b59614588565b614b6d81614b678654614a2f565b86614a83565b6000601f821160018114614bbf5760008315614b895750838201355b7fffffffffffffffffffffffffffffffffffffffffffffffffffffffffffffffff600385901b1c1916600184901b178655614c50565b6000868152602090207fffffffffffffffffffffffffffffffffffffffffffffffffffffffffffffffe0841690835b82811015614c0b5786850135825593870193908901908701614bee565b5084821015614c46577fffffffffffffffffffffffffffffffffffffffffffffffffffffffffffffffff60f88660031b161c19848701351681555b50508683881b0186555b50505050505050614c6f614c6660408401614ad6565b60028301614ae9565b606082013560038201555050565b813581556001808201602080850135838110614c9857600080fd5b7fffffffffffffffffffffffffffffffffffffffffffffffffffffffffffffff0083541660ff8216811784555050600284019150614cd96040860186614967565b67ffffffffffffffff811115614cf157614cf1614588565b614cff81614b678654614a2f565b6000601f821160018114614d515760008315614d1b5750838201355b7fffffffffffffffffffffffffffffffffffffffffffffffffffffffffffffffff600385901b1c1916600184901b178655614de2565b6000868152602090207fffffffffffffffffffffffffffffffffffffffffffffffffffffffffffffffe0841690835b82811015614d9d5786850135825593870193908901908701614d80565b5084821015614dd8577fffffffffffffffffffffffffffffffffffffffffffffffffffffffffffffffff60f88660031b161c19848701351681555b50508683881b0186555b505050505050505050565b60008083357fffffffffffffffffffffffffffffffffffffffffffffffffffffffffffffffe1843603018112614e2257600080fd5b830160208101925035905067ffffffffffffffff811115614e4257600080fd5b80360383131561417957600080fd5b8183528181602085013750600060208284010152600060207fffffffffffffffffffffffffffffffffffffffffffffffffffffffffffffffe0601f840116840101905092915050565b6000610160614ec684614eac85614124565b73ffffffffffffffffffffffffffffffffffffffff169052565b60208301356020850152614edd6040840184614ded565b826040870152614ef08387018284614e51565b92505050614f016060840184614ded565b8583036060870152614f14838284614e51565b925050506080830135608085015260a083013560a085015260c083013560c085015260e083013560e0850152610100808401358186015250610120614f5b81850185614ded565b86840383880152614f6d848284614e51565b9350505050610140614f8181850185614ded565b86840383880152614f93848284614e51565b979650505050505050565b604081526000614fb16040830185614e9a565b90508260208301529392505050565b600060208284031215614fd257600080fd5b5051919050565b614fe38186614818565b608060208201526000614ff96080830186614305565b828103604084015261500b8186614e9a565b91505082606083015295945050505050565b828152604060208201526000610cc86040830184614305565b6000808585111561504657600080fd5b8386111561505357600080fd5b5050820193919092039150565b7fffffffff0000000000000000000000000000000000000000000000000000000081358181169160048510156150a05780818660040360031b1b83161692505b505092915050565b600060408083526150bb81840186614305565b6020848203818601528186548084528284019150828160051b8501016000898152848120815b848110156151e5577fffffffffffffffffffffffffffffffffffffffffffffffffffffffffffffffe08885030186526080825485526001808401828a88015285815461512c81614a2f565b94890185905260a094818516801561514b576001811461517d576151a8565b7fffffffffffffffffffffffffffffffffffffffffffffffffffffffffffffff008316878c015260c08b0193506151a8565b848a528d8a208a5b838110156151a05781548d82018a0152908701908f01615185565b8c0188019450505b505050600286015460ff1693506151c18d890185614738565b600386015460609890980197909752505050948601946004909101906001016150e1565b50919b9a5050505050505050505050565b60006020828403121561520857600080fd5b8135613e8081614ac9565b6007811061522357615223614709565b60f81b9052565b838582376000848201600081526152418186615213565b600181019390935250506021019392505050565b600084516152678184602089016142d9565b82016152738186615213565b6001810193909352505060210192915050565b600082821015615298576152986149cc565b500390565b7f4e487b7100000000000000000000000000000000000000000000000000000000600052603160045260246000fd5b600067ffffffffffffffff8211156152e6576152e6614588565b5060051b60200190565b600082601f83011261530157600080fd5b81356020615316615311836152cc565b6145b7565b82815260059290921b8401810191818101908684111561533557600080fd5b8286015b8481101561537557803567ffffffffffffffff8111156153595760008081fd5b6153678986838b0101614606565b845250918301918301615339565b509695505050505050565b60008060006060848603121561539557600080fd5b83356153a081614102565b925060208481013567ffffffffffffffff808211156153be57600080fd5b818701915087601f8301126153d257600080fd5b81356153e0615311826152cc565b81815260059190911b8301840190848101908a8311156153ff57600080fd5b938501935b8285101561541d57843582529385019390850190615404565b96505050604087013592508083111561543557600080fd5b5050615443868287016152f0565b915050925092509256fe416464726573733a206c6f772d6c6576656c2064656c65676174652063616c6c206661696c6564a26469706673582212202bbe012975dfdaa298fd1de5df82bd131914311258a0afc72ae5ed760543708d64736f6c634300080c0033","linkReferences":{},"deployedLinkReferences":{}}