{
  "_format": "hh-sol-artifact-1",
  "contractName": "FunWalletFactory",
  "sourceName": "contracts/deployer/FunWalletFactory.sol",
  "abi": [
    {
      "inputs": [],
      "stateMutability": "nonpayable",
      "type": "constructor"
    },
    {
      "inputs": [
        {
          "internalType": "bytes",
          "name": "initializerCallData",
          "type": "bytes"
        },
        {
          "internalType": "address",
          "name": "implementation",
          "type": "address"
        },
        {
          "internalType": "bytes32",
          "name": "salt",
          "type": "bytes32"
        }
      ],
      "name": "createAccount",
      "outputs": [
        {
          "internalType": "contract FunWallet",
          "name": "funWallet",
          "type": "address"
        }
      ],
      "stateMutability": "nonpayable",
      "type": "function"
    },
    {
      "inputs": [],
      "name": "funWalletImpAddress",
      "outputs": [
        {
          "internalType": "address",
          "name": "",
          "type": "address"
        }
      ],
      "stateMutability": "view",
      "type": "function"
    },
    {
      "inputs": [
        {
          "internalType": "bytes32",
          "name": "salt",
          "type": "bytes32"
        }
      ],
      "name": "getAddress",
      "outputs": [
        {
          "internalType": "address",
          "name": "",
          "type": "address"
        }
      ],
      "stateMutability": "view",
      "type": "function"
    }
  ],
  "bytecode": "0x60a060405234801561001057600080fd5b5060405161001d9061004b565b604051809103906000f080158015610039573d6000803e3d6000fd5b506001600160a01b0316608052610058565b61571180610d7583390190565b608051610cee61008760003960008181609a01528181610107015281816101e501526102860152610cee6000f3fe608060405234801561001057600080fd5b50600436106100415760003560e01c806321f8a72114610046578063780c11f0146100825780638bb0862014610095575b600080fd5b610059610054366004610388565b6100bc565b60405173ffffffffffffffffffffffffffffffffffffffff909116815260200160405180910390f35b6100596100903660046103a1565b6101ac565b6100597f000000000000000000000000000000000000000000000000000000000000000081565b60006101a682604051806020016100d29061037b565b7fffffffffffffffffffffffffffffffffffffffffffffffffffffffffffffffe082820381018352601f9091011660408181527f000000000000000000000000000000000000000000000000000000000000000073ffffffffffffffffffffffffffffffffffffffff1660208301528082015260006060820152608001604080517fffffffffffffffffffffffffffffffffffffffffffffffffffffffffffffffe08184030181529082905261018b929160200161047e565b6040516020818303038152906040528051906020012061033d565b92915050565b6000806101b8836100bc565b905073ffffffffffffffffffffffffffffffffffffffff81163b80156101e057509050610335565b6000847f00000000000000000000000000000000000000000000000000000000000000006040516102109061037b565b73ffffffffffffffffffffffffffffffffffffffff90911681526040602082018190526000908201526060018190604051809103906000f590508015801561025c573d6000803e3d6000fd5b50935083905073ffffffffffffffffffffffffffffffffffffffff86161561028457856102a6565b7f00000000000000000000000000000000000000000000000000000000000000005b6040517f4192d25100000000000000000000000000000000000000000000000000000000815290965073ffffffffffffffffffffffffffffffffffffffff851690634192d251906102ff9089908c908c90600401610493565b600060405180830381600087803b15801561031957600080fd5b505af115801561032d573d6000803e3d6000fd5b505050505050505b949350505050565b600061034a838330610351565b9392505050565b6000604051836040820152846020820152828152600b8101905060ff815360559020949350505050565b6107bb806104fe83390190565b60006020828403121561039a57600080fd5b5035919050565b600080600080606085870312156103b757600080fd5b843567ffffffffffffffff808211156103cf57600080fd5b818701915087601f8301126103e357600080fd5b8135818111156103f257600080fd5b88602082850101111561040457600080fd5b6020928301965094505085013573ffffffffffffffffffffffffffffffffffffffff8116811461043357600080fd5b9396929550929360400135925050565b6000815160005b81811015610464576020818501810151868301520161044a565b81811115610473576000828601525b509290920192915050565b600061033561048d8386610443565b84610443565b73ffffffffffffffffffffffffffffffffffffffff8416815260406020820152816040820152818360608301376000818301606090810191909152601f9092017fffffffffffffffffffffffffffffffffffffffffffffffffffffffffffffffe01601019291505056fe60806040526040516107bb3803806107bb8339810160408190526100229161031e565b61002e82826000610035565b505061043b565b61003e8361006b565b60008251118061004b5750805b156100665761006483836100ab60201b6100291760201c565b505b505050565b610074816100d7565b6040516001600160a01b038216907fbc7cd75a20ee27fd9adebab32041f755214dbc6bffa90cc0225b39da2e5c2d3b90600090a250565b60606100d08383604051806060016040528060278152602001610794602791396101a9565b9392505050565b6100ea8161022260201b6100551760201c565b6101515760405162461bcd60e51b815260206004820152602d60248201527f455243313936373a206e657720696d706c656d656e746174696f6e206973206e60448201526c1bdd08184818dbdb9d1c9858dd609a1b60648201526084015b60405180910390fd5b806101887f360894a13ba1a3210667c828492db98dca3e2076cc3735a920a3ca505d382bbc60001b61023160201b6100711760201c565b80546001600160a01b0319166001600160a01b039290921691909117905550565b6060600080856001600160a01b0316856040516101c691906103ec565b600060405180830381855af49150503d8060008114610201576040519150601f19603f3d011682016040523d82523d6000602084013e610206565b606091505b50909250905061021886838387610234565b9695505050505050565b6001600160a01b03163b151590565b90565b606083156102a0578251610299576001600160a01b0385163b6102995760405162461bcd60e51b815260206004820152601d60248201527f416464726573733a2063616c6c20746f206e6f6e2d636f6e74726163740000006044820152606401610148565b50816102aa565b6102aa83836102b2565b949350505050565b8151156102c25781518083602001fd5b8060405162461bcd60e51b81526004016101489190610408565b634e487b7160e01b600052604160045260246000fd5b60005b8381101561030d5781810151838201526020016102f5565b838111156100645750506000910152565b6000806040838503121561033157600080fd5b82516001600160a01b038116811461034857600080fd5b60208401519092506001600160401b038082111561036557600080fd5b818501915085601f83011261037957600080fd5b81518181111561038b5761038b6102dc565b604051601f8201601f19908116603f011681019083821181831017156103b3576103b36102dc565b816040528281528860208487010111156103cc57600080fd5b6103dd8360208301602088016102f2565b80955050505050509250929050565b600082516103fe8184602087016102f2565b9190910192915050565b60208152600082518060208401526104278160408501602087016102f2565b601f01601f19169190910160400192915050565b61034a8061044a6000396000f3fe60806040523661001357610011610017565b005b6100115b610027610022610074565b6100b9565b565b606061004e83836040518060600160405280602781526020016102ee602791396100dd565b9392505050565b73ffffffffffffffffffffffffffffffffffffffff163b151590565b90565b60006100b47f360894a13ba1a3210667c828492db98dca3e2076cc3735a920a3ca505d382bbc5473ffffffffffffffffffffffffffffffffffffffff1690565b905090565b3660008037600080366000845af43d6000803e8080156100d8573d6000f35b3d6000fd5b60606000808573ffffffffffffffffffffffffffffffffffffffff16856040516101079190610280565b600060405180830381855af49150503d8060008114610142576040519150601f19603f3d011682016040523d82523d6000602084013e610147565b606091505b509150915061015886838387610162565b9695505050505050565b606083156101fa5782516101f35773ffffffffffffffffffffffffffffffffffffffff85163b6101f3576040517f08c379a000000000000000000000000000000000000000000000000000000000815260206004820152601d60248201527f416464726573733a2063616c6c20746f206e6f6e2d636f6e747261637400000060448201526064015b60405180910390fd5b5081610204565b610204838361020c565b949350505050565b81511561021c5781518083602001fd5b806040517f08c379a00000000000000000000000000000000000000000000000000000000081526004016101ea919061029c565b60005b8381101561026b578181015183820152602001610253565b8381111561027a576000848401525b50505050565b60008251610292818460208701610250565b9190910192915050565b60208152600082518060208401526102bb816040850160208701610250565b601f017fffffffffffffffffffffffffffffffffffffffffffffffffffffffffffffffe016919091016040019291505056fe416464726573733a206c6f772d6c6576656c2064656c65676174652063616c6c206661696c6564a2646970667358221220bab5e8f94970417631c9d8c26cab40c1e83055f31e41fbdb22e76e726c1312f264736f6c634300080c0033416464726573733a206c6f772d6c6576656c2064656c65676174652063616c6c206661696c6564a264697066735822122081e6e45b65f7f96d4fca75cdd008546fd8005055b39fb9d41f498bad8f93842364736f6c634300080c003360a0604052306080526000805462ff00001916905534801561002057600080fd5b506080516156b86200005960003960008181610f4001528181610fd601528181611c0001528181611c960152611dc501526156b86000f3fe6080604052600436106102025760003560e01c80635e5d43201161011d578063a55e593d116100b0578063cc793fa61161007f578063dc7c984811610064578063dc7c984814610613578063e374e90f14610633578063ffa1ad741461067357600080fd5b8063cc793fa6146105d3578063d06403d6146105f357600080fd5b8063a55e593d14610553578063b0d691fe14610573578063c399ec881461059e578063c7d76308146105b357600080fd5b80637b8ea028116100ec5780637b8ea028146104de57806399d3fef3146104fe5780639cfdf5b61461051e578063a123c33e1461053357600080fd5b80635e5d43201461043d5780636517579c1461045d57806375b238fc1461048a57806377a24f36146104be57600080fd5b80633a871cdd116101955780634f1ef286116101645780634f1ef286146103c857806352d1902d146103db57806355cd05cc146103f05780635cbf1e6e1461041057600080fd5b80633a871cdd1461031c5780633cb66ec41461033c5780634192d251146103885780634789b97e146103a857600080fd5b80632ed6fb5d116101d15780632ed6fb5d14610299578063357f7bb0146102b95780633659cfe6146102dc5780633a6e5a0a146102fc57600080fd5b8063033183e91461020e57806315577ae2146102305780631b71bb6e1461025057806320d2a20f1461027057600080fd5b3661020957005b600080fd5b34801561021a57600080fd5b5061022e61022936600461439d565b610688565b005b34801561023c57600080fd5b5061022e61024b3660046143f9565b610a71565b34801561025c57600080fd5b5061022e61026b366004614447565b610b9b565b61028361027e3660046144a6565b610c9d565b604051610290919061456c565b60405180910390f35b3480156102a557600080fd5b5061022e6102b436600461457f565b610cf3565b3480156102c557600080fd5b506102ce600481565b604051908152602001610290565b3480156102e857600080fd5b5061022e6102f7366004614447565b610f28565b34801561030857600080fd5b5061022e6103173660046145df565b6110fa565b34801561032857600080fd5b506102ce610337366004614679565b6112ca565b34801561034857600080fd5b5060065473ffffffffffffffffffffffffffffffffffffffff165b60405173ffffffffffffffffffffffffffffffffffffffff9091168152602001610290565b34801561039457600080fd5b5061022e6103a33660046146cd565b611a1a565b3480156103b457600080fd5b5061022e6103c3366004614722565b611b0b565b61022e6103d63660046148b1565b611be8565b3480156103e757600080fd5b506102ce611dab565b3480156103fc57600080fd5b5061022e61040b3660046144a6565b611e7d565b34801561041c57600080fd5b5061043061042b366004614901565b611f03565b6040516102909190614969565b34801561044957600080fd5b5061022e610458366004614a1c565b612142565b34801561046957600080fd5b5061047d610478366004614a1c565b6121e5565b6040516102909190614a45565b34801561049657600080fd5b506102ce7f61646d696e00000000000000000000000000000000000000000000000000000081565b3480156104ca57600080fd5b5061022e6104d9366004614a7d565b612333565b3480156104ea57600080fd5b5061022e6104f9366004614447565b6128b6565b34801561050a57600080fd5b5061022e61051936600461457f565b6129b8565b34801561052a57600080fd5b506102ce60c881565b34801561053f57600080fd5b5061036361054e366004614a1c565b612fb9565b34801561055f57600080fd5b5061022e61056e366004614a1c565b612ff0565b34801561057f57600080fd5b5060055473ffffffffffffffffffffffffffffffffffffffff16610363565b3480156105aa57600080fd5b506102ce6130ed565b3480156105bf57600080fd5b5061022e6105ce366004614aae565b613185565b3480156105df57600080fd5b5061022e6105ee366004614ada565b61329e565b3480156105ff57600080fd5b5061028361060e366004614447565b6134a5565b34801561061f57600080fd5b5061022e61062e3660046143f9565b61355e565b34801561063f57600080fd5b5061066361064e366004614a1c565b60009081526002602052604090205460ff1690565b6040519015158152602001610290565b34801561067f57600080fd5b506102ce600681565b61069061366d565b836106e25760405162461bcd60e51b815260206004820152600d60248201527f726f6c6520697320656d7074790000000000000000000000000000000000000060448201526064015b60405180910390fd5b73ffffffffffffffffffffffffffffffffffffffff83166107455760405162461bcd60e51b815260206004820152601760248201527f6d6f64756c65206164647265737320697320656d70747900000000000000000060448201526064016106d9565b806107925760405162461bcd60e51b815260206004820152600f60248201527f72756c65732061726520656d707479000000000000000000000000000000000060448201526064016106d9565b60005b61ffff811682111561092f576000838361ffff84168181106107b9576107b9614b08565b90506020028101906107cb9190614b37565b35141561081a5760405162461bcd60e51b815260206004820152601560248201527f72756c652068617320656d70747920616374696f6e000000000000000000000060448201526064016106d9565b600083838361ffff1681811061083257610832614b08565b90506020028101906108449190614b37565b610852906020810190614b75565b9050116108a15760405162461bcd60e51b815260206004820152601560248201527f72756c652068617320656d70747920746172676574000000000000000000000060448201526064016106d9565b6000838361ffff84168181106108b9576108b9614b08565b90506020028101906108cb9190614b37565b60600135141561091d5760405162461bcd60e51b815260206004820152601560248201527f72756c652068617320656d70747920657874656e74000000000000000000000060448201526064016106d9565b8061092781614c09565b915050610795565b5060008473ffffffffffffffffffffffffffffffffffffffff85166040805160208101939093528201526060016040516020818303038152906040529050600060048260405161097f9190614c2b565b9081526040519081900360200190205411156109dd5760405162461bcd60e51b815260206004820152601360248201527f726f6c6520616c7265616479206578697374730000000000000000000000000060448201526064016106d9565b60005b61ffff8116831115610a69576004826040516109fc9190614c2b565b908152602001604051809103902084848361ffff16818110610a2057610a20614b08565b9050602002810190610a329190614b37565b815460018101835560009283526020909220909160040201610a548282614d38565b50508080610a6190614c09565b9150506109e0565b505050505050565b610a7961366d565b81610ac65760405162461bcd60e51b815260206004820152600e60248201527f696e76616c69642075736572496400000000000000000000000000000000000060448201526064016106d9565b610acf82613764565b8035610b1d5760405162461bcd60e51b815260206004820152601360248201527f757365722068617320656d70747920726f6c650000000000000000000000000060448201526064016106d9565b6000610b2c6040830183614b75565b905011610b7b5760405162461bcd60e51b815260206004820152601c60248201527f757365722068617320656d7074792061757468206d657461646174610000000060448201526064016106d9565b60008281526003602052604090208190610b958282614e8b565b50505050565b610ba361366d565b73ffffffffffffffffffffffffffffffffffffffff8116610c2c5760405162461bcd60e51b815260206004820152603260248201527f66756e2077616c6c65743a206e657720656e74727920706f696e74206164647260448201527f6573732063616e6e6f74206265207a65726f000000000000000000000000000060648201526084016106d9565b600580547fffffffffffffffffffffffff00000000000000000000000000000000000000001673ffffffffffffffffffffffffffffffffffffffff831690811790915560405181907f450909c1478d09248269d4ad4fa8cba61ca3f50faed58c7aedefa51c7f62b83a90600090a350565b6060610ca76137cf565b610ce8858585858080601f01602080910402602001604051908101604052809392919081815260200183838082843760009201919091525061386092505050565b90505b949350505050565b610cfb61366d565b82610d485760405162461bcd60e51b815260206004820152600d60248201527f726f6c6520697320656d7074790000000000000000000000000000000000000060448201526064016106d9565b73ffffffffffffffffffffffffffffffffffffffff8216610dab5760405162461bcd60e51b815260206004820152601760248201527f6d6f64756c65206164647265737320697320656d70747900000000000000000060448201526064016106d9565b8035610df95760405162461bcd60e51b815260206004820152601560248201527f72756c652068617320656d70747920616374696f6e000000000000000000000060448201526064016106d9565b6000610e086020830183614b75565b905011610e575760405162461bcd60e51b815260206004820152601560248201527f72756c652068617320656d70747920746172676574000000000000000000000060448201526064016106d9565b6060810135610ea85760405162461bcd60e51b815260206004820152601560248201527f72756c652068617320656d70747920657874656e74000000000000000000000060448201526064016106d9565b604080516020810185905273ffffffffffffffffffffffffffffffffffffffff8416818301528151808203830181526060909101909152610ee881613928565b600481604051610ef89190614c2b565b9081526040516020918190038201902080546001810182556000918252919020839160040201610a698282614d38565b3073ffffffffffffffffffffffffffffffffffffffff7f0000000000000000000000000000000000000000000000000000000000000000161415610fd45760405162461bcd60e51b815260206004820152602c60248201527f46756e6374696f6e206d7573742062652063616c6c6564207468726f7567682060448201527f64656c656761746563616c6c000000000000000000000000000000000000000060648201526084016106d9565b7f000000000000000000000000000000000000000000000000000000000000000073ffffffffffffffffffffffffffffffffffffffff166110497f360894a13ba1a3210667c828492db98dca3e2076cc3735a920a3ca505d382bbc5473ffffffffffffffffffffffffffffffffffffffff1690565b73ffffffffffffffffffffffffffffffffffffffff16146110d25760405162461bcd60e51b815260206004820152602c60248201527f46756e6374696f6e206d7573742062652063616c6c6564207468726f7567682060448201527f6163746976652070726f7879000000000000000000000000000000000000000060648201526084016106d9565b6110db81613997565b604080516000808252602082019092526110f79183919061399f565b50565b61110261366d565b848314801561111057508281145b61115c5760405162461bcd60e51b815260206004820152601760248201527f6461746120697320646966666572656e742073697a657300000000000000000060448201526064016106d9565b60005b858110156112c15761119383838381811061117c5761117c614b08565b905060200281019061118e9190614b75565b613b6a565b156112b957600061123b8888848181106111af576111af614b08565b90506020020160208101906111c49190614447565b8787858181106111d6576111d6614b08565b905060200201358686868181106111ef576111ef614b08565b90506020028101906112019190614b75565b8080601f01602080910402602001604051908101604052809392919081815260200183838082843760009201919091525061386092505050565b905080600160008a8a8681811061125457611254614b08565b90506020020160208101906112699190614447565b73ffffffffffffffffffffffffffffffffffffffff1673ffffffffffffffffffffffffffffffffffffffff16815260200190815260200160002090805190602001906112b6929190614159565b50505b60010161115f565b50505050505050565b60006112d4613bd0565b6006546040517f81adfce600000000000000000000000000000000000000000000000000000000815260009173ffffffffffffffffffffffffffffffffffffffff16906381adfce69061132d90889088906004016151ac565b602060405180830381865afa15801561134a573d6000803e3d6000fd5b505050506040513d601f19601f8201168201806040525081019061136e91906151ce565b905061137981613764565b6000818152600360209081526040808320815160608101909252805482526001810154919290919083019060ff1680156113b5576113b5614926565b80156113c3576113c3614926565b81526020016002820180546113d790614c3d565b80601f016020809104026020016040519081016040528092919081815260200182805461140390614c3d565b80156114505780601f1061142557610100808354040283529160200191611450565b820191906000526020600020905b81548152906001019060200180831161143357829003601f168201915b505050919092525050600654602083015160408085015190517fdeca388700000000000000000000000000000000000000000000000000000000815294955073ffffffffffffffffffffffffffffffffffffffff9092169363deca388793506114c092908b908b906004016151e7565b602060405180830381865afa1580156114dd573d6000803e3d6000fd5b505050506040513d601f19601f8201168201806040525081019061150191906151ce565b92506115106040870187614b75565b151590506115215761152186613c37565b600081600001516040518060400160405280600181526020017f2a0000000000000000000000000000000000000000000000000000000000000081525060405160200161156f92919061522b565b60405160208183030381529060405290507f61646d696e0000000000000000000000000000000000000000000000000000008260000151141580156115d4575060006004826040516115c19190614c2b565b9081526040519081900360200190205411155b15611a07577f4789b97e000000000000000000000000000000000000000000000000000000006116076060890189614b75565b61161691600491600091615244565b61161f9161526e565b7fffffffff000000000000000000000000000000000000000000000000000000001614156118945760008061165f61165a60608b018b614b75565b613cdb565b86519294509250600091905073ffffffffffffffffffffffffffffffffffffffff8416604080516020810193909352820152606001604051602081830303815290604052905060006004826040516116b79190614c2b565b90815260405190819003602001902054116117145760405162461bcd60e51b815260206004820152601660248201527f75736572206973206e6f7420617574686f72697a65640000000000000000000060448201526064016106d9565b8273ffffffffffffffffffffffffffffffffffffffff166352bd4f418360008151811061174357611743614b08565b602002602001015160048460405161175b9190614c2b565b9081526040519081900360200181207fffffffff0000000000000000000000000000000000000000000000000000000060e085901b1682526117a092916004016152b6565b60006040518083038186803b1580156117b857600080fd5b505afa1580156117cc573d6000803e3d6000fd5b505050508273ffffffffffffffffffffffffffffffffffffffff166352bd4f41836001815181106117ff576117ff614b08565b60200260200101516004846040516118179190614c2b565b9081526040519081900360200181207fffffffff0000000000000000000000000000000000000000000000000000000060e085901b16825261185c92916004016152b6565b60006040518083038186803b15801561187457600080fd5b505afa158015611888573d6000803e3d6000fd5b50505050505050611a07565b6000806118ac6118a760608b018b614b75565b613d08565b86519294509250600091905073ffffffffffffffffffffffffffffffffffffffff8416604080516020810193909352820152606001604051602081830303815290604052905060006004826040516119049190614c2b565b90815260405190819003602001902054116119615760405162461bcd60e51b815260206004820152601660248201527f75736572206973206e6f7420617574686f72697a65640000000000000000000060448201526064016106d9565b8273ffffffffffffffffffffffffffffffffffffffff166352bd4f418360048460405161198e9190614c2b565b9081526040519081900360200181207fffffffff0000000000000000000000000000000000000000000000000000000060e085901b1682526119d392916004016152b6565b60006040518083038186803b1580156119eb57600080fd5b505afa1580156119ff573d6000803e3d6000fd5b505050505050505b611a1085613d7a565b5050509392505050565b60005462010000900460ff1615611a995760405162461bcd60e51b815260206004820152602260248201527f436f6e74726163742068617320616c7265616479206265656e206465706c6f7960448201527f656400000000000000000000000000000000000000000000000000000000000060648201526084016106d9565b611ad98383838080601f01602080910402602001604051908101604052809392919081815260200183838082843760009201829052509250613de5915050565b5050600080547fffffffffffffffffffffffffffffffffffffffffffffffffffffffffff00ffff166201000017905550565b611b218282600081811061117c5761117c614b08565b611b6d5760405162461bcd60e51b815260206004820181905260248201527f66697273742063616c6c206973206e6f7420616e20696e697420616374696f6e60448201526064016106d9565b611bb08585856000818110611b8457611b84614b08565b9050602002013584846000818110611b9e57611b9e614b08565b905060200281019061040b9190614b75565b611be18585856001818110611bc757611bc7614b08565b9050602002013584846001818110611b9e57611b9e614b08565b5050505050565b3073ffffffffffffffffffffffffffffffffffffffff7f0000000000000000000000000000000000000000000000000000000000000000161415611c945760405162461bcd60e51b815260206004820152602c60248201527f46756e6374696f6e206d7573742062652063616c6c6564207468726f7567682060448201527f64656c656761746563616c6c000000000000000000000000000000000000000060648201526084016106d9565b7f000000000000000000000000000000000000000000000000000000000000000073ffffffffffffffffffffffffffffffffffffffff16611d097f360894a13ba1a3210667c828492db98dca3e2076cc3735a920a3ca505d382bbc5473ffffffffffffffffffffffffffffffffffffffff1690565b73ffffffffffffffffffffffffffffffffffffffff1614611d925760405162461bcd60e51b815260206004820152602c60248201527f46756e6374696f6e206d7573742062652063616c6c6564207468726f7567682060448201527f6163746976652070726f7879000000000000000000000000000000000000000060648201526084016106d9565b611d9b82613997565b611da78282600161399f565b5050565b60003073ffffffffffffffffffffffffffffffffffffffff7f00000000000000000000000000000000000000000000000000000000000000001614611e585760405162461bcd60e51b815260206004820152603860248201527f555550535570677261646561626c653a206d757374206e6f742062652063616c60448201527f6c6564207468726f7567682064656c656761746563616c6c000000000000000060648201526084016106d9565b507f360894a13ba1a3210667c828492db98dca3e2076cc3735a920a3ca505d382bbc90565b611e8561366d565b6000611ec8858585858080601f01602080910402602001604051908101604052809392919081815260200183838082843760009201919091525061386092505050565b73ffffffffffffffffffffffffffffffffffffffff861660009081526001602090815260409091208251929350610a69929091840190614159565b606082611f525760405162461bcd60e51b815260206004820152600d60248201527f726f6c6520697320656d7074790000000000000000000000000000000000000060448201526064016106d9565b73ffffffffffffffffffffffffffffffffffffffff8216611fb55760405162461bcd60e51b815260206004820152601760248201527f6d6f64756c65206164647265737320697320656d70747900000000000000000060448201526064016106d9565b604080516020810185905273ffffffffffffffffffffffffffffffffffffffff84168183015281518082038301815260609091019182905290600490611ffc908390614c2b565b9081526020016040518091039020805480602002602001604051908101604052809291908181526020016000905b8282101561213557838290600052602060002090600402016040518060800160405290816000820154815260200160018201805461206790614c3d565b80601f016020809104026020016040519081016040528092919081815260200182805461209390614c3d565b80156120e05780601f106120b5576101008083540402835291602001916120e0565b820191906000526020600020905b8154815290600101906020018083116120c357829003601f168201915b5050509183525050600282015460209091019060ff16600681111561210757612107614926565b600681111561211857612118614926565b81526020016003820154815250508152602001906001019061202a565b5050505091505092915050565b61214a61366d565b806121975760405162461bcd60e51b815260206004820152600e60248201527f696e76616c69642075736572496400000000000000000000000000000000000060448201526064016106d9565b60008181526003602052604081208181556001810180547fffffffffffffffffffffffffffffffffffffffffffffffffffffffffffffff00169055906121e060028301826141dd565b505050565b604080516060808201835260008083526020830152918101919091528161224e5760405162461bcd60e51b815260206004820152600e60248201527f696e76616c69642075736572496400000000000000000000000000000000000060448201526064016106d9565b600082815260036020908152604091829020825160608101909352805483526001810154909183019060ff16801561228857612288614926565b801561229657612296614926565b81526020016002820180546122aa90614c3d565b80601f01602080910402602001604051908101604052809291908181526020018280546122d690614c3d565b80156123235780601f106122f857610100808354040283529160200191612323565b820191906000526020600020905b81548152906001019060200180831161230657829003601f168201915b5050505050815250509050919050565b600054610100900460ff16158080156123535750600054600160ff909116105b8061236d5750303b15801561236d575060005460ff166001145b6123df5760405162461bcd60e51b815260206004820152602e60248201527f496e697469616c697a61626c653a20636f6e747261637420697320616c72656160448201527f647920696e697469616c697a656400000000000000000000000000000000000060648201526084016106d9565b600080547fffffffffffffffffffffffffffffffffffffffffffffffffffffffffffffff00166001179055801561243d57600080547fffffffffffffffffffffffffffffffffffffffffffffffffffffffffffff00ff166101001790555b73ffffffffffffffffffffffffffffffffffffffff85166124a05760405162461bcd60e51b815260206004820152601260248201527f496e76616c696420456e747279706f696e74000000000000000000000000000060448201526064016106d9565b6005805473ffffffffffffffffffffffffffffffffffffffff8088167fffffffffffffffffffffffff000000000000000000000000000000000000000092831617909255600680549287169290911691909117905561250160078484614217565b5060005b61ffff811683111561267f57604080516060810182527f61646d696e000000000000000000000000000000000000000000000000000000815260006020820152908101858561ffff851681811061255e5761255e614b08565b90506020020160208101906125739190614447565b6040805173ffffffffffffffffffffffffffffffffffffffff909216602083015201604051602081830303815290604052815250600360006125f287878661ffff168181106125c4576125c4614b08565b90506020020160208101906125d99190614447565b73ffffffffffffffffffffffffffffffffffffffff1690565b815260208082019290925260400160002082518155908201516001808301805490917fffffffffffffffffffffffffffffffffffffffffffffffffffffffffffffff009091169083801561264857612648614926565b021790555060408201518051612668916002840191602090910190614159565b50905050808061267790614c09565b915050612505565b5060007f61646d696e0000000000000000000000000000000000000000000000000000006040518060400160405280600181526020017f2a000000000000000000000000000000000000000000000000000000000000008152506040516020016126ea92919061522b565b604051602081830303815290604052905060048160405161270b9190614c2b565b908152602001604051809103902060405180608001604052807f2a0000000000000000000000000000000000000000000000000000000000000081526020016040518060400160405280600181526020017f2a00000000000000000000000000000000000000000000000000000000000000815250815260200160068081111561279757612797614926565b81527f2a000000000000000000000000000000000000000000000000000000000000006020918201528254600181810185556000948552938290208351600490920201908155828201518051939491936127f993928501929190910190614159565b5060408201516002820180547fffffffffffffffffffffffffffffffffffffffffffffffffffffffffffffff0016600183600681111561283b5761283b614926565b0217905550606082015181600301555050508015611be157600080547fffffffffffffffffffffffffffffffffffffffffffffffffffffffffffff00ff169055604051600181527f7f26b83ff96e1f2b6a682f133852f6798a09c465da95921460cefb38474024989060200160405180910390a15050505050565b6128be61366d565b73ffffffffffffffffffffffffffffffffffffffff81166129475760405162461bcd60e51b815260206004820152603260248201527f66756e2077616c6c65743a206e657720656e74727920706f696e74206164647260448201527f6573732063616e6e6f74206265207a65726f000000000000000000000000000060648201526084016106d9565b600680547fffffffffffffffffffffffff00000000000000000000000000000000000000001673ffffffffffffffffffffffffffffffffffffffff831690811790915560405181907f34a5e38fc8fe74f12b269fe92e724092f7f531dc4985c88fb113460cfcb5f67d90600090a350565b6129c061366d565b82612a0d5760405162461bcd60e51b815260206004820152600d60248201527f726f6c6520697320656d7074790000000000000000000000000000000000000060448201526064016106d9565b73ffffffffffffffffffffffffffffffffffffffff8216612a705760405162461bcd60e51b815260206004820152601760248201527f6d6f64756c65206164647265737320697320656d70747900000000000000000060448201526064016106d9565b8035612abe5760405162461bcd60e51b815260206004820152601560248201527f72756c652068617320656d70747920616374696f6e000000000000000000000060448201526064016106d9565b6000612acd6020830183614b75565b905011612b1c5760405162461bcd60e51b815260206004820152601560248201527f72756c652068617320656d70747920746172676574000000000000000000000060448201526064016106d9565b6060810135612b6d5760405162461bcd60e51b815260206004820152601560248201527f72756c652068617320656d70747920657874656e74000000000000000000000060448201526064016106d9565b604080516020810185905273ffffffffffffffffffffffffffffffffffffffff8416818301528151808203830181526060909101909152612bad81613928565b6000600482604051612bbf9190614c2b565b9081526020016040518091039020805480602002602001604051908101604052809291908181526020016000905b82821015612cf8578382906000526020600020906004020160405180608001604052908160008201548152602001600182018054612c2a90614c3d565b80601f0160208091040260200160405190810160405280929190818152602001828054612c5690614c3d565b8015612ca35780601f10612c7857610100808354040283529160200191612ca3565b820191906000526020600020905b815481529060010190602001808311612c8657829003601f168201915b5050509183525050600282015460209091019060ff166006811115612cca57612cca614926565b6006811115612cdb57612cdb614926565b815260200160038201548152505081526020019060010190612bed565b5050505090506000838060200190612d109190614b75565b612d206060870160408801615404565b8660600135604051602001612d389493929190615438565b60405160208183030381529060405280519060200120905060005b600484604051612d639190614c2b565b9081526040519081900360200190205461ffff821610156112c1576000838261ffff1681518110612d9657612d96614b08565b602002602001015160200151848361ffff1681518110612db857612db8614b08565b602002602001015160400151858461ffff1681518110612dda57612dda614b08565b602002602001015160600151604051602001612df893929190615463565b60405160208183030381529060405280519060200120905080831415612fa6578360018551612e279190615494565b81518110612e3757612e37614b08565b6020026020010151600486604051612e4f9190614c2b565b90815260200160405180910390208361ffff1681548110612e7257612e72614b08565b9060005260206000209060040201600082015181600001556020820151816001019080519060200190612ea6929190614159565b5060408201516002820180547fffffffffffffffffffffffffffffffffffffffffffffffffffffffffffffff00166001836006811115612ee857612ee8614926565b021790555060608201518160030155905050600485604051612f0a9190614c2b565b9081526020016040518091039020805480612f2757612f276154ab565b60008281526020812060047fffffffffffffffffffffffffffffffffffffffffffffffffffffffffffffffff9093019283020181815590612f6b60018301826141dd565b506002810180547fffffffffffffffffffffffffffffffffffffffffffffffffffffffffffffff0016905560006003909101559055506112c1565b5080612fb181614c09565b915050612d53565b60078181548110612fc957600080fd5b60009182526020909120015473ffffffffffffffffffffffffffffffffffffffff16905081565b612ff8613e0a565b8047101561306e5760405162461bcd60e51b815260206004820152602a60248201527f66756e2077616c6c65743a206e6f7420656e6f75676820657468657220696e2060448201527f7468652077616c6c65740000000000000000000000000000000000000000000060648201526084016106d9565b6005546040517fb760faf900000000000000000000000000000000000000000000000000000000815230600482015273ffffffffffffffffffffffffffffffffffffffff9091169063b760faf990602401600060405180830381600087803b1580156130d957600080fd5b505af1158015611be1573d6000803e3d6000fd5b6005546040517f70a0823100000000000000000000000000000000000000000000000000000000815230600482015260009173ffffffffffffffffffffffffffffffffffffffff16906370a0823190602401602060405180830381865afa15801561315c573d6000803e3d6000fd5b505050506040513d601f19601f8201168201806040525081019061318091906151ce565b905090565b61318d613e0a565b73ffffffffffffffffffffffffffffffffffffffff82166132165760405162461bcd60e51b815260206004820152602b60248201527f66756e2077616c6c65743a20776974686472617720616464726573732063616e60448201527f6e6f74206265207a65726f00000000000000000000000000000000000000000060648201526084016106d9565b6005546040517f205c287800000000000000000000000000000000000000000000000000000000815273ffffffffffffffffffffffffffffffffffffffff8481166004830152602482018490529091169063205c287890604401600060405180830381600087803b15801561328a57600080fd5b505af1158015610a69573d6000803e3d6000fd5b6132a661366d565b73ffffffffffffffffffffffffffffffffffffffff811661332f5760405162461bcd60e51b815260206004820152602d60248201527f66756e2077616c6c65743a206e6577206d6f64756c652061646472657373206360448201527f616e6e6f74206265207a65726f0000000000000000000000000000000000000060648201526084016106d9565b8173ffffffffffffffffffffffffffffffffffffffff168173ffffffffffffffffffffffffffffffffffffffff1614156133d15760405162461bcd60e51b815260206004820152603e60248201527f66756e2077616c6c65743a206e6577206d6f64756c652061646472657373206360448201527f616e6e6f7420626520657175616c20746f2070726576696f7573206f6e65000060648201526084016106d9565b73ffffffffffffffffffffffffffffffffffffffff80831660009081526001602052604080822092841682529020815490919061340d90614c3d565b61341892919061428f565b5073ffffffffffffffffffffffffffffffffffffffff82166000908152600160205260408120613447916141dd565b8073ffffffffffffffffffffffffffffffffffffffff168273ffffffffffffffffffffffffffffffffffffffff167fdcbf4cc8a7afc3fe6e403a57745b98188844fdfee49c8752ae30fc46b3a39ebb60405160405180910390a35050565b73ffffffffffffffffffffffffffffffffffffffff811660009081526001602052604090208054606091906134d990614c3d565b80601f016020809104026020016040519081016040528092919081815260200182805461350590614c3d565b80156135525780601f1061352757610100808354040283529160200191613552565b820191906000526020600020905b81548152906001019060200180831161353557829003601f168201915b50505050509050919050565b61356661366d565b816135b35760405162461bcd60e51b815260206004820152600e60248201527f696e76616c69642075736572496400000000000000000000000000000000000060448201526064016106d9565b600082815260036020526040812060020180546135cf90614c3d565b9050111561361f5760405162461bcd60e51b815260206004820152601360248201527f7573657220616c7265616479206578697374730000000000000000000000000060448201526064016106d9565b8035610b1d5760405162461bcd60e51b815260206004820152601460248201527f757365722068617320656d70747920726f6c657300000000000000000000000060448201526064016106d9565b60055473ffffffffffffffffffffffffffffffffffffffff1633141561368f57565b60005b60075461ffff821610156136f55760078161ffff16815481106136b7576136b7614b08565b60009182526020909120015473ffffffffffffffffffffffffffffffffffffffff163314156136e35750565b806136ed81614c09565b915050613692565b5060405162461bcd60e51b815260206004820152602860248201527f66756e2077616c6c65743a206e6f742066726f6d20456e747279506f696e742060448201527f6f72206f776e657200000000000000000000000000000000000000000000000060648201526084016106d9565b6000818152600360205260408120600201805461378090614c3d565b9050116110f75760405162461bcd60e51b815260206004820152601f60248201527f66756e2077616c6c65743a207573657220646f6573206e6f742065786973740060448201526064016106d9565b33600090815260016020526040812080546137e990614c3d565b90501161385e5760405162461bcd60e51b815260206004820152602360248201527f66756e2077616c6c65743a206e6f742066726f6d2061206b6e6f776e204d6f6460448201527f756c65000000000000000000000000000000000000000000000000000000000060648201526084016106d9565b565b60606000808573ffffffffffffffffffffffffffffffffffffffff16858560405161388b9190614c2b565b60006040518083038185875af1925050503d80600081146138c8576040519150601f19603f3d011682016040523d82523d6000602084013e6138cd565b606091505b50915091508161391f5760405162461bcd60e51b815260206004820181905260248201527f66756e2077616c6c65743a2065787465726e616c2063616c6c206661696c656460448201526064016106d9565b95945050505050565b600060048260405161393a9190614c2b565b90815260405190819003602001902054116110f75760405162461bcd60e51b815260206004820152601f60248201527f66756e2077616c6c65743a20726f6c6520646f6573206e6f742065786973740060448201526064016106d9565b6110f761366d565b7f4910fdfa16fed3260ed0e7147f7cc6da11a60208b5b9406d12a635614ffd91435460ff16156139d2576121e083613ec3565b8273ffffffffffffffffffffffffffffffffffffffff166352d1902d6040518163ffffffff1660e01b8152600401602060405180830381865afa925050508015613a57575060408051601f3d9081017fffffffffffffffffffffffffffffffffffffffffffffffffffffffffffffffe0168201909252613a54918101906151ce565b60015b613ac95760405162461bcd60e51b815260206004820152602e60248201527f45524331393637557067726164653a206e657720696d706c656d656e7461746960448201527f6f6e206973206e6f74205555505300000000000000000000000000000000000060648201526084016106d9565b7f360894a13ba1a3210667c828492db98dca3e2076cc3735a920a3ca505d382bbc8114613b5e5760405162461bcd60e51b815260206004820152602960248201527f45524331393637557067726164653a20756e737570706f727465642070726f7860448201527f6961626c6555554944000000000000000000000000000000000000000000000060648201526084016106d9565b506121e0838383613de5565b600080613b7a6004828587615244565b613b839161526e565b7fffffffff00000000000000000000000000000000000000000000000000000000167f4ddf47d4000000000000000000000000000000000000000000000000000000001491505092915050565b60055473ffffffffffffffffffffffffffffffffffffffff16331461385e5760405162461bcd60e51b815260206004820152601f60248201527f66756e2077616c6c65743a206e6f742066726f6d20456e747279506f696e740060448201526064016106d9565b60208082013560009081526002909152604090205460ff1615613c9c5760405162461bcd60e51b815260206004820152601960248201527f66756e2077616c6c65743a20696e76616c6964206e6f6e63650000000000000060448201526064016106d9565b602090810135600090815260029091526040902080547fffffffffffffffffffffffffffffffffffffffffffffffffffffffffffffff00166001179055565b6000606080613ced8460048188615244565b810190613cfa919061558e565b919790965090945092505050565b6000806060613d1a8460048188615244565b810190613d279190614aae565b9093509150613d398460c88188615244565b8080601f0160208091040260200160405190810160405280939291908181526020018383808284376000920191909152509598949750919550929350505050565b80156110f75760405160009033907fffffffffffffffffffffffffffffffffffffffffffffffffffffffffffffffff90849084818181858888f193505050503d8060008114611be1576040519150601f19603f3d011682016040523d82523d6000602084013e611be1565b613dee83613fb3565b600082511180613dfb5750805b156121e057610b958383614000565b33301415613e1457565b60005b60075461ffff82161015613e7a5760078161ffff1681548110613e3c57613e3c614b08565b60009182526020909120015473ffffffffffffffffffffffffffffffffffffffff16331415613e685750565b80613e7281614c09565b915050613e17565b5060405162461bcd60e51b815260206004820152601a60248201527f66756e2077616c6c65743a206e6f742066726f6d204f776e657200000000000060448201526064016106d9565b73ffffffffffffffffffffffffffffffffffffffff81163b613f4d5760405162461bcd60e51b815260206004820152602d60248201527f455243313936373a206e657720696d706c656d656e746174696f6e206973206e60448201527f6f74206120636f6e74726163740000000000000000000000000000000000000060648201526084016106d9565b7f360894a13ba1a3210667c828492db98dca3e2076cc3735a920a3ca505d382bbc80547fffffffffffffffffffffffff00000000000000000000000000000000000000001673ffffffffffffffffffffffffffffffffffffffff92909216919091179055565b613fbc81613ec3565b60405173ffffffffffffffffffffffffffffffffffffffff8216907fbc7cd75a20ee27fd9adebab32041f755214dbc6bffa90cc0225b39da2e5c2d3b90600090a250565b6060614025838360405180606001604052806027815260200161565c6027913961402c565b9392505050565b60606000808573ffffffffffffffffffffffffffffffffffffffff16856040516140569190614c2b565b600060405180830381855af49150503d8060008114614091576040519150601f19603f3d011682016040523d82523d6000602084013e614096565b606091505b50915091506140a7868383876140b1565b9695505050505050565b6060831561412a5782516141235773ffffffffffffffffffffffffffffffffffffffff85163b6141235760405162461bcd60e51b815260206004820152601d60248201527f416464726573733a2063616c6c20746f206e6f6e2d636f6e747261637400000060448201526064016106d9565b5081610ceb565b610ceb838381511561413f5781518083602001fd5b8060405162461bcd60e51b81526004016106d9919061456c565b82805461416590614c3d565b90600052602060002090601f01602090048101928261418757600085556141cd565b82601f106141a057805160ff19168380011785556141cd565b828001600101855582156141cd579182015b828111156141cd5782518255916020019190600101906141b2565b506141d992915061430a565b5090565b5080546141e990614c3d565b6000825580601f106141f9575050565b601f0160209004906000526020600020908101906110f7919061430a565b8280548282559060005260206000209081019282156141cd579160200282015b828111156141cd5781547fffffffffffffffffffffffff00000000000000000000000000000000000000001673ffffffffffffffffffffffffffffffffffffffff843516178255602090920191600190910190614237565b82805461429b90614c3d565b90600052602060002090601f0160209004810192826142bd57600085556141cd565b82601f106142ce57805485556141cd565b828001600101855582156141cd57600052602060002091601f016020900482015b828111156141cd5782548255916001019190600101906142ef565b5b808211156141d9576000815560010161430b565b73ffffffffffffffffffffffffffffffffffffffff811681146110f757600080fd5b803561434c8161431f565b919050565b60008083601f84011261436357600080fd5b50813567ffffffffffffffff81111561437b57600080fd5b6020830191508360208260051b850101111561439657600080fd5b9250929050565b600080600080606085870312156143b357600080fd5b8435935060208501356143c58161431f565b9250604085013567ffffffffffffffff8111156143e157600080fd5b6143ed87828801614351565b95989497509550505050565b6000806040838503121561440c57600080fd5b82359150602083013567ffffffffffffffff81111561442a57600080fd5b83016060818603121561443c57600080fd5b809150509250929050565b60006020828403121561445957600080fd5b81356140258161431f565b60008083601f84011261447657600080fd5b50813567ffffffffffffffff81111561448e57600080fd5b60208301915083602082850101111561439657600080fd5b600080600080606085870312156144bc57600080fd5b84356144c78161431f565b935060208501359250604085013567ffffffffffffffff8111156144ea57600080fd5b6143ed87828801614464565b60005b838110156145115781810151838201526020016144f9565b83811115610b955750506000910152565b6000815180845261453a8160208601602086016144f6565b601f017fffffffffffffffffffffffffffffffffffffffffffffffffffffffffffffffe0169290920160200192915050565b6020815260006140256020830184614522565b60008060006060848603121561459457600080fd5b8335925060208401356145a68161431f565b9150604084013567ffffffffffffffff8111156145c257600080fd5b8401608081870312156145d457600080fd5b809150509250925092565b600080600080600080606087890312156145f857600080fd5b863567ffffffffffffffff8082111561461057600080fd5b61461c8a838b01614351565b9098509650602089013591508082111561463557600080fd5b6146418a838b01614351565b9096509450604089013591508082111561465a57600080fd5b5061466789828a01614351565b979a9699509497509295939492505050565b60008060006060848603121561468e57600080fd5b833567ffffffffffffffff8111156146a557600080fd5b840161016081870312156146b857600080fd5b95602085013595506040909401359392505050565b6000806000604084860312156146e257600080fd5b83356146ed8161431f565b9250602084013567ffffffffffffffff81111561470957600080fd5b61471586828701614464565b9497909650939450505050565b60008060008060006060868803121561473a57600080fd5b85356147458161431f565b9450602086013567ffffffffffffffff8082111561476257600080fd5b61476e89838a01614351565b9096509450604088013591508082111561478757600080fd5b5061479488828901614351565b969995985093965092949392505050565b7f4e487b7100000000000000000000000000000000000000000000000000000000600052604160045260246000fd5b604051601f82017fffffffffffffffffffffffffffffffffffffffffffffffffffffffffffffffe016810167ffffffffffffffff8111828210171561481b5761481b6147a5565b604052919050565b600082601f83011261483457600080fd5b813567ffffffffffffffff81111561484e5761484e6147a5565b61487f60207fffffffffffffffffffffffffffffffffffffffffffffffffffffffffffffffe0601f840116016147d4565b81815284602083860101111561489457600080fd5b816020850160208301376000918101602001919091529392505050565b600080604083850312156148c457600080fd5b82356148cf8161431f565b9150602083013567ffffffffffffffff8111156148eb57600080fd5b6148f785828601614823565b9150509250929050565b6000806040838503121561491457600080fd5b82359150602083013561443c8161431f565b7f4e487b7100000000000000000000000000000000000000000000000000000000600052602160045260246000fd5b6007811061496557614965614926565b9052565b60006020808301818452808551808352604092508286019150828160051b87010184880160005b83811015614a0e577fffffffffffffffffffffffffffffffffffffffffffffffffffffffffffffffc0898403018552815160808151855288820151818a8701526149dc82870182614522565b915050878201516149ef89870182614955565b5060609182015194909101939093529386019390860190600101614990565b509098975050505050505050565b600060208284031215614a2e57600080fd5b5035919050565b6001811061496557614965614926565b602081528151602082015260006020830151614a646040840182614a35565b506040830151606080840152610ceb6080840182614522565b60008060008060608587031215614a9357600080fd5b8435614a9e8161431f565b935060208501356143c58161431f565b60008060408385031215614ac157600080fd5b8235614acc8161431f565b946020939093013593505050565b60008060408385031215614aed57600080fd5b8235614af88161431f565b9150602083013561443c8161431f565b7f4e487b7100000000000000000000000000000000000000000000000000000000600052603260045260246000fd5b600082357fffffffffffffffffffffffffffffffffffffffffffffffffffffffffffffff81833603018112614b6b57600080fd5b9190910192915050565b60008083357fffffffffffffffffffffffffffffffffffffffffffffffffffffffffffffffe1843603018112614baa57600080fd5b83018035915067ffffffffffffffff821115614bc557600080fd5b60200191503681900382131561439657600080fd5b7f4e487b7100000000000000000000000000000000000000000000000000000000600052601160045260246000fd5b600061ffff80831681811415614c2157614c21614bda565b6001019392505050565b60008251614b6b8184602087016144f6565b600181811c90821680614c5157607f821691505b60208210811415614c8b577f4e487b7100000000000000000000000000000000000000000000000000000000600052602260045260246000fd5b50919050565b601f8211156121e057600081815260208120601f850160051c81016020861015614cb85750805b601f850160051c820191505b81811015610a6957828155600101614cc4565b600781106110f757600080fd5b60008135614cf181614cd7565b92915050565b60078210614d0757614d07614926565b7fffffffffffffffffffffffffffffffffffffffffffffffffffffffffffffff0081541660ff831681178255505050565b8135815560018082016020614d4f81860186614b75565b67ffffffffffffffff811115614d6757614d676147a5565b614d7b81614d758654614c3d565b86614c91565b6000601f821160018114614dcd5760008315614d975750838201355b7fffffffffffffffffffffffffffffffffffffffffffffffffffffffffffffffff600385901b1c1916600184901b178655614e5e565b6000868152602090207fffffffffffffffffffffffffffffffffffffffffffffffffffffffffffffffe0841690835b82811015614e195786850135825593870193908901908701614dfc565b5084821015614e54577fffffffffffffffffffffffffffffffffffffffffffffffffffffffffffffffff60f88660031b161c19848701351681555b50508683881b0186555b50505050505050614e7d614e7460408401614ce4565b60028301614cf7565b606082013560038201555050565b813581556001808201602080850135838110614ea657600080fd5b7fffffffffffffffffffffffffffffffffffffffffffffffffffffffffffffff0083541660ff8216811784555050600284019150614ee76040860186614b75565b67ffffffffffffffff811115614eff57614eff6147a5565b614f0d81614d758654614c3d565b6000601f821160018114614f5f5760008315614f295750838201355b7fffffffffffffffffffffffffffffffffffffffffffffffffffffffffffffffff600385901b1c1916600184901b178655614ff0565b6000868152602090207fffffffffffffffffffffffffffffffffffffffffffffffffffffffffffffffe0841690835b82811015614fab5786850135825593870193908901908701614f8e565b5084821015614fe6577fffffffffffffffffffffffffffffffffffffffffffffffffffffffffffffffff60f88660031b161c19848701351681555b50508683881b0186555b505050505050505050565b60008083357fffffffffffffffffffffffffffffffffffffffffffffffffffffffffffffffe184360301811261503057600080fd5b830160208101925035905067ffffffffffffffff81111561505057600080fd5b80360383131561439657600080fd5b8183528181602085013750600060208284010152600060207fffffffffffffffffffffffffffffffffffffffffffffffffffffffffffffffe0601f840116840101905092915050565b60006101606150d4846150ba85614341565b73ffffffffffffffffffffffffffffffffffffffff169052565b602083013560208501526150eb6040840184614ffb565b8260408701526150fe838701828461505f565b9250505061510f6060840184614ffb565b858303606087015261512283828461505f565b925050506080830135608085015260a083013560a085015260c083013560c085015260e083013560e085015261010080840135818601525061012061516981850185614ffb565b8684038388015261517b84828461505f565b935050505061014061518f81850185614ffb565b868403838801526151a184828461505f565b979650505050505050565b6040815260006151bf60408301856150a8565b90508260208301529392505050565b6000602082840312156151e057600080fd5b5051919050565b6151f18186614a35565b6080602082015260006152076080830186614522565b828103604084015261521981866150a8565b91505082606083015295945050505050565b828152604060208201526000610ceb6040830184614522565b6000808585111561525457600080fd5b8386111561526157600080fd5b5050820193919092039150565b7fffffffff0000000000000000000000000000000000000000000000000000000081358181169160048510156152ae5780818660040360031b1b83161692505b505092915050565b600060408083526152c981840186614522565b6020848203818601528186548084528284019150828160051b8501016000898152848120815b848110156153f3577fffffffffffffffffffffffffffffffffffffffffffffffffffffffffffffffe08885030186526080825485526001808401828a88015285815461533a81614c3d565b94890185905260a0948185168015615359576001811461538b576153b6565b7fffffffffffffffffffffffffffffffffffffffffffffffffffffffffffffff008316878c015260c08b0193506153b6565b848a528d8a208a5b838110156153ae5781548d82018a0152908701908f01615393565b8c0188019450505b505050600286015460ff1693506153cf8d890185614955565b600386015460609890980197909752505050948601946004909101906001016152ef565b50919b9a5050505050505050505050565b60006020828403121561541657600080fd5b813561402581614cd7565b6007811061543157615431614926565b60f81b9052565b8385823760008482016000815261544f8186615421565b600181019390935250506021019392505050565b600084516154758184602089016144f6565b82016154818186615421565b6001810193909352505060210192915050565b6000828210156154a6576154a6614bda565b500390565b7f4e487b7100000000000000000000000000000000000000000000000000000000600052603160045260246000fd5b600067ffffffffffffffff8211156154f4576154f46147a5565b5060051b60200190565b600082601f83011261550f57600080fd5b8135602061552461551f836154da565b6147d4565b82815260059290921b8401810191818101908684111561554357600080fd5b8286015b8481101561558357803567ffffffffffffffff8111156155675760008081fd5b6155758986838b0101614823565b845250918301918301615547565b509695505050505050565b6000806000606084860312156155a357600080fd5b83356155ae8161431f565b925060208481013567ffffffffffffffff808211156155cc57600080fd5b818701915087601f8301126155e057600080fd5b81356155ee61551f826154da565b81815260059190911b8301840190848101908a83111561560d57600080fd5b938501935b8285101561562b57843582529385019390850190615612565b96505050604087013592508083111561564357600080fd5b5050615651868287016154fe565b915050925092509256fe416464726573733a206c6f772d6c6576656c2064656c65676174652063616c6c206661696c6564a2646970667358221220338e856bbf71f63f6e063df54eb98fc4f44a5b8918a7404ae1fa56900ca1f67a64736f6c634300080c0033",
  "linkReferences": {},
  "deployedLinkReferences": {}
}