{"_format":"hh-sol-artifact-1","contractName":"FunWallet","sourceName":"contracts/FunWallet.sol","abi":[{"anonymous":false,"inputs":[{"indexed":false,"internalType":"address","name":"previousAdmin","type":"address"},{"indexed":false,"internalType":"address","name":"newAdmin","type":"address"}],"name":"AdminChanged","type":"event"},{"anonymous":false,"inputs":[{"indexed":true,"internalType":"address","name":"beacon","type":"address"}],"name":"BeaconUpgraded","type":"event"},{"anonymous":false,"inputs":[{"indexed":true,"internalType":"address","name":"oldEntryPoint","type":"address"},{"indexed":true,"internalType":"address","name":"newEntryPoint","type":"address"}],"name":"EntryPointChanged","type":"event"},{"anonymous":false,"inputs":[{"indexed":false,"internalType":"uint8","name":"version","type":"uint8"}],"name":"Initialized","type":"event"},{"anonymous":false,"inputs":[{"indexed":true,"internalType":"address","name":"oldModuleAddr","type":"address"},{"indexed":true,"internalType":"address","name":"newModuleAddr","type":"address"}],"name":"ModuleAddrChanged","type":"event"},{"anonymous":false,"inputs":[{"indexed":true,"internalType":"address","name":"implementation","type":"address"}],"name":"Upgraded","type":"event"},{"anonymous":false,"inputs":[{"indexed":true,"internalType":"address","name":"oldUserAuthenticationAddr","type":"address"},{"indexed":true,"internalType":"address","name":"newUserAuthenticationAddr","type":"address"}],"name":"UserAuthenticationAddrChanged","type":"event"},{"inputs":[],"name":"ADMIN_ROLE","outputs":[{"internalType":"bytes32","name":"","type":"bytes32"}],"stateMutability":"view","type":"function"},{"inputs":[],"name":"CALL_DATA_OFFSET","outputs":[{"internalType":"uint256","name":"","type":"uint256"}],"stateMutability":"view","type":"function"},{"inputs":[],"name":"METHOD_SIGNATURE_OFFSET","outputs":[{"internalType":"uint256","name":"","type":"uint256"}],"stateMutability":"view","type":"function"},{"inputs":[{"internalType":"bytes32","name":"role","type":"bytes32"},{"internalType":"address","name":"moduleAddr","type":"address"},{"components":[{"internalType":"bytes32","name":"action","type":"bytes32"},{"internalType":"bytes","name":"target","type":"bytes"},{"internalType":"enum Keyword","name":"keyword","type":"uint8"},{"internalType":"bytes32","name":"extent","type":"bytes32"}],"internalType":"struct Rule","name":"rule","type":"tuple"}],"name":"attachRuleToRole","outputs":[],"stateMutability":"nonpayable","type":"function"},{"inputs":[{"internalType":"bytes32","name":"role","type":"bytes32"},{"internalType":"address","name":"moduleAddr","type":"address"},{"components":[{"internalType":"bytes32","name":"action","type":"bytes32"},{"internalType":"bytes","name":"target","type":"bytes"},{"internalType":"enum Keyword","name":"keyword","type":"uint8"},{"internalType":"bytes32","name":"extent","type":"bytes32"}],"internalType":"struct Rule[]","name":"rules","type":"tuple[]"}],"name":"createRole","outputs":[],"stateMutability":"nonpayable","type":"function"},{"inputs":[{"internalType":"bytes32","name":"userId","type":"bytes32"},{"components":[{"internalType":"bytes32","name":"role","type":"bytes32"},{"internalType":"enum AuthType","name":"authType","type":"uint8"},{"internalType":"bytes","name":"authMetadata","type":"bytes"}],"internalType":"struct IFunWallet.UserMetadata","name":"userMetadata","type":"tuple"}],"name":"createUser","outputs":[],"stateMutability":"nonpayable","type":"function"},{"inputs":[{"internalType":"bytes32","name":"userId","type":"bytes32"}],"name":"deleteUser","outputs":[],"stateMutability":"nonpayable","type":"function"},{"inputs":[{"internalType":"uint256","name":"amount","type":"uint256"}],"name":"depositToEntryPoint","outputs":[],"stateMutability":"nonpayable","type":"function"},{"inputs":[],"name":"entryPoint","outputs":[{"internalType":"contract IEntryPoint","name":"","type":"address"}],"stateMutability":"view","type":"function"},{"inputs":[{"internalType":"address[]","name":"dests","type":"address[]"},{"internalType":"uint256[]","name":"values","type":"uint256[]"},{"internalType":"bytes[]","name":"data","type":"bytes[]"}],"name":"execBatchInit","outputs":[],"stateMutability":"nonpayable","type":"function"},{"inputs":[{"internalType":"address","name":"dest","type":"address"},{"internalType":"uint256","name":"value","type":"uint256"},{"internalType":"bytes","name":"data","type":"bytes"}],"name":"execFromEntryPointOrOwner","outputs":[],"stateMutability":"nonpayable","type":"function"},{"inputs":[{"internalType":"address","name":"dest","type":"address"},{"internalType":"uint256","name":"value","type":"uint256"},{"internalType":"bytes","name":"data","type":"bytes"}],"name":"execFromModule","outputs":[{"internalType":"bytes","name":"","type":"bytes"}],"stateMutability":"payable","type":"function"},{"inputs":[],"name":"getDeposit","outputs":[{"internalType":"uint256","name":"","type":"uint256"}],"stateMutability":"view","type":"function"},{"inputs":[{"internalType":"address","name":"moduleAddr","type":"address"}],"name":"getModuleStateVal","outputs":[{"internalType":"bytes","name":"","type":"bytes"}],"stateMutability":"view","type":"function"},{"inputs":[{"internalType":"bytes32","name":"role","type":"bytes32"},{"internalType":"address","name":"moduleAddr","type":"address"}],"name":"getRulesOfRole","outputs":[{"components":[{"internalType":"bytes32","name":"action","type":"bytes32"},{"internalType":"bytes","name":"target","type":"bytes"},{"internalType":"enum Keyword","name":"keyword","type":"uint8"},{"internalType":"bytes32","name":"extent","type":"bytes32"}],"internalType":"struct Rule[]","name":"","type":"tuple[]"}],"stateMutability":"view","type":"function"},{"inputs":[{"internalType":"bytes32","name":"userId","type":"bytes32"}],"name":"getUser","outputs":[{"components":[{"internalType":"bytes32","name":"role","type":"bytes32"},{"internalType":"enum AuthType","name":"authType","type":"uint8"},{"internalType":"bytes","name":"authMetadata","type":"bytes"}],"internalType":"struct IFunWallet.UserMetadata","name":"","type":"tuple"}],"stateMutability":"view","type":"function"},{"inputs":[{"internalType":"address","name":"dest","type":"address"},{"internalType":"uint256[]","name":"value","type":"uint256[]"},{"internalType":"bytes[]","name":"data","type":"bytes[]"}],"name":"initAndExec","outputs":[],"stateMutability":"nonpayable","type":"function"},{"inputs":[{"internalType":"address","name":"_entryPointAddr","type":"address"},{"internalType":"address","name":"_userAuthAddr","type":"address"},{"internalType":"address","name":"_owner","type":"address"}],"name":"initialize","outputs":[],"stateMutability":"nonpayable","type":"function"},{"inputs":[],"name":"owner","outputs":[{"internalType":"address","name":"","type":"address"}],"stateMutability":"view","type":"function"},{"inputs":[],"name":"proxiableUUID","outputs":[{"internalType":"bytes32","name":"","type":"bytes32"}],"stateMutability":"view","type":"function"},{"inputs":[{"internalType":"bytes32","name":"role","type":"bytes32"},{"internalType":"address","name":"moduleAddr","type":"address"},{"components":[{"internalType":"bytes32","name":"action","type":"bytes32"},{"internalType":"bytes","name":"target","type":"bytes"},{"internalType":"enum Keyword","name":"keyword","type":"uint8"},{"internalType":"bytes32","name":"extent","type":"bytes32"}],"internalType":"struct Rule","name":"rule","type":"tuple"}],"name":"removeRuleFromRole","outputs":[],"stateMutability":"nonpayable","type":"function"},{"inputs":[{"internalType":"address","name":"newImplementation","type":"address"},{"internalType":"bytes","name":"initializerCallData","type":"bytes"}],"name":"setImplementationOnDeployment","outputs":[],"stateMutability":"nonpayable","type":"function"},{"inputs":[{"internalType":"address","name":"_newEntryPoint","type":"address"}],"name":"updateEntryPoint","outputs":[],"stateMutability":"nonpayable","type":"function"},{"inputs":[{"internalType":"address","name":"oldModuleAddr","type":"address"},{"internalType":"address","name":"newModuleAddr","type":"address"}],"name":"updateModuleAddr","outputs":[],"stateMutability":"nonpayable","type":"function"},{"inputs":[{"internalType":"bytes32","name":"userId","type":"bytes32"},{"components":[{"internalType":"bytes32","name":"role","type":"bytes32"},{"internalType":"enum AuthType","name":"authType","type":"uint8"},{"internalType":"bytes","name":"authMetadata","type":"bytes"}],"internalType":"struct IFunWallet.UserMetadata","name":"userMetadata","type":"tuple"}],"name":"updateUser","outputs":[],"stateMutability":"nonpayable","type":"function"},{"inputs":[{"internalType":"address","name":"_newUserAuthentication","type":"address"}],"name":"updateUserAuthentication","outputs":[],"stateMutability":"nonpayable","type":"function"},{"inputs":[{"internalType":"address","name":"newImplementation","type":"address"}],"name":"upgradeTo","outputs":[],"stateMutability":"nonpayable","type":"function"},{"inputs":[{"internalType":"address","name":"newImplementation","type":"address"},{"internalType":"bytes","name":"data","type":"bytes"}],"name":"upgradeToAndCall","outputs":[],"stateMutability":"payable","type":"function"},{"inputs":[],"name":"userAuthentication","outputs":[{"internalType":"contract UserAuthentication","name":"","type":"address"}],"stateMutability":"view","type":"function"},{"inputs":[{"components":[{"internalType":"address","name":"sender","type":"address"},{"internalType":"uint256","name":"nonce","type":"uint256"},{"internalType":"bytes","name":"initCode","type":"bytes"},{"internalType":"bytes","name":"callData","type":"bytes"},{"internalType":"uint256","name":"callGasLimit","type":"uint256"},{"internalType":"uint256","name":"verificationGasLimit","type":"uint256"},{"internalType":"uint256","name":"preVerificationGas","type":"uint256"},{"internalType":"uint256","name":"maxFeePerGas","type":"uint256"},{"internalType":"uint256","name":"maxPriorityFeePerGas","type":"uint256"},{"internalType":"bytes","name":"paymasterAndData","type":"bytes"},{"internalType":"bytes","name":"signature","type":"bytes"}],"internalType":"struct UserOperation","name":"userOp","type":"tuple"},{"internalType":"bytes32","name":"userOpHash","type":"bytes32"},{"internalType":"uint256","name":"missingAccountFunds","type":"uint256"}],"name":"validateUserOp","outputs":[{"internalType":"uint256","name":"sigTimeRange","type":"uint256"}],"stateMutability":"nonpayable","type":"function"},{"inputs":[{"internalType":"address payable","name":"withdrawAddress","type":"address"},{"internalType":"uint256","name":"amount","type":"uint256"}],"name":"withdrawFromEntryPoint","outputs":[],"stateMutability":"nonpayable","type":"function"},{"stateMutability":"payable","type":"receive"}],"bytecode":"0x60a0604052306080526000805462ff00001916905534801561002057600080fd5b5060805161596f62000059600039600081816110720152818161112201528181611dca01528181611e7a0152611fc3015261596f6000f3fe6080604052600436106101dc5760003560e01c80635cbf1e6e11610102578063a55e593d11610095578063c7d7630811610064578063c7d763081461059a578063cc793fa6146105ba578063d06403d6146105da578063dc7c9848146105fa57600080fd5b8063a55e593d1461051a578063b0d691fe1461053a578063c0c53b8b14610565578063c399ec881461058557600080fd5b80637b8ea028116100d15780637b8ea028146104985780638da5cb5b146104b857806399d3fef3146104e55780639cfdf5b61461050557600080fd5b80635cbf1e6e146103ea5780635e5d4320146104175780636517579c1461043757806375b238fc1461046457600080fd5b80633a6e5a0a1161017a5780634789b97e116101495780634789b97e146103825780634f1ef286146103a257806352d1902d146103b557806355cd05cc146103ca57600080fd5b80633a6e5a0a146102d65780633a871cdd146102f65780633cb66ec4146103165780634192d2511461036257600080fd5b806320d2a20f116101b657806320d2a20f1461024a5780632ed6fb5d14610273578063357f7bb0146102935780633659cfe6146102b657600080fd5b8063033183e9146101e857806315577ae21461020a5780631b71bb6e1461022a57600080fd5b366101e357005b600080fd5b3480156101f457600080fd5b50610208610203366004614645565b61061a565b005b34801561021657600080fd5b506102086102253660046146a1565b610ab9565b34801561023657600080fd5b506102086102453660046146ef565b610c31565b61025d61025836600461474e565b610d4d565b60405161026a9190614814565b60405180910390f35b34801561027f57600080fd5b5061020861028e366004614827565b610da3565b34801561029f57600080fd5b506102a8600481565b60405190815260200161026a565b3480156102c257600080fd5b506102086102d13660046146ef565b61105a565b3480156102e257600080fd5b506102086102f1366004614887565b611260565b34801561030257600080fd5b506102a8610311366004614921565b61144a565b34801561032257600080fd5b5060055473ffffffffffffffffffffffffffffffffffffffff165b60405173ffffffffffffffffffffffffffffffffffffffff909116815260200161026a565b34801561036e57600080fd5b5061020861037d366004614975565b611bb0565b34801561038e57600080fd5b5061020861039d3660046149ca565b611cbb565b6102086103b0366004614b59565b611db2565b3480156103c157600080fd5b506102a8611fa9565b3480156103d657600080fd5b506102086103e536600461474e565b612095565b3480156103f657600080fd5b5061040a610405366004614ba9565b61211b565b60405161026a9190614c11565b34801561042357600080fd5b50610208610432366004614cc4565b61238e565b34801561044357600080fd5b50610457610452366004614cc4565b61244d565b60405161026a9190614ced565b34801561047057600080fd5b506102a87f61646d696e00000000000000000000000000000000000000000000000000000081565b3480156104a457600080fd5b506102086104b33660046146ef565b6125b5565b3480156104c457600080fd5b5060065461033d9073ffffffffffffffffffffffffffffffffffffffff1681565b3480156104f157600080fd5b50610208610500366004614827565b6126d1565b34801561051157600080fd5b506102a860c881565b34801561052657600080fd5b50610208610535366004614cc4565b612d52565b34801561054657600080fd5b5060045473ffffffffffffffffffffffffffffffffffffffff1661033d565b34801561057157600080fd5b50610208610580366004614d25565b612e6a565b34801561059157600080fd5b506102a8613366565b3480156105a657600080fd5b506102086105b5366004614d65565b613403565b3480156105c657600080fd5b506102086105d5366004614d91565b613538565b3480156105e657600080fd5b5061025d6105f53660046146ef565b613773565b34801561060657600080fd5b506102086106153660046146a1565b61382c565b610622613989565b8361068e576040517f08c379a000000000000000000000000000000000000000000000000000000000815260206004820152600d60248201527f726f6c6520697320656d7074790000000000000000000000000000000000000060448201526064015b60405180910390fd5b73ffffffffffffffffffffffffffffffffffffffff831661070b576040517f08c379a000000000000000000000000000000000000000000000000000000000815260206004820152601760248201527f6d6f64756c65206164647265737320697320656d7074790000000000000000006044820152606401610685565b80610772576040517f08c379a000000000000000000000000000000000000000000000000000000000815260206004820152600f60248201527f72756c65732061726520656d70747900000000000000000000000000000000006044820152606401610685565b60005b61ffff811682111561095d576000838361ffff841681811061079957610799614dbf565b90506020028101906107ab9190614dee565b351415610814576040517f08c379a000000000000000000000000000000000000000000000000000000000815260206004820152601560248201527f72756c652068617320656d70747920616374696f6e00000000000000000000006044820152606401610685565b600083838361ffff1681811061082c5761082c614dbf565b905060200281019061083e9190614dee565b61084c906020810190614e2c565b9050116108b5576040517f08c379a000000000000000000000000000000000000000000000000000000000815260206004820152601560248201527f72756c652068617320656d7074792074617267657400000000000000000000006044820152606401610685565b6000838361ffff84168181106108cd576108cd614dbf565b90506020028101906108df9190614dee565b60600135141561094b576040517f08c379a000000000000000000000000000000000000000000000000000000000815260206004820152601560248201527f72756c652068617320656d70747920657874656e7400000000000000000000006044820152606401610685565b8061095581614ec0565b915050610775565b5060008473ffffffffffffffffffffffffffffffffffffffff8516604080516020810193909352820152606001604051602081830303815290604052905060006003826040516109ad9190614ee2565b908152604051908190036020019020541115610a25576040517f08c379a000000000000000000000000000000000000000000000000000000000815260206004820152601360248201527f726f6c6520616c726561647920657869737473000000000000000000000000006044820152606401610685565b60005b61ffff8116831115610ab157600382604051610a449190614ee2565b908152602001604051809103902084848361ffff16818110610a6857610a68614dbf565b9050602002810190610a7a9190614dee565b815460018101835560009283526020909220909160040201610a9c8282614fef565b50508080610aa990614ec0565b915050610a28565b505050505050565b610ac1613989565b81610b28576040517f08c379a000000000000000000000000000000000000000000000000000000000815260206004820152600e60248201527f696e76616c6964207573657249640000000000000000000000000000000000006044820152606401610685565b610b3182613a54565b8035610b99576040517f08c379a000000000000000000000000000000000000000000000000000000000815260206004820152601360248201527f757365722068617320656d70747920726f6c65000000000000000000000000006044820152606401610685565b6000610ba86040830183614e2c565b905011610c11576040517f08c379a000000000000000000000000000000000000000000000000000000000815260206004820152601c60248201527f757365722068617320656d7074792061757468206d65746164617461000000006044820152606401610685565b60008281526002602052604090208190610c2b8282615142565b50505050565b610c39613989565b73ffffffffffffffffffffffffffffffffffffffff8116610cdc576040517f08c379a000000000000000000000000000000000000000000000000000000000815260206004820152603260248201527f66756e2077616c6c65743a206e657720656e74727920706f696e74206164647260448201527f6573732063616e6e6f74206265207a65726f00000000000000000000000000006064820152608401610685565b600480547fffffffffffffffffffffffff00000000000000000000000000000000000000001673ffffffffffffffffffffffffffffffffffffffff831690811790915560405181907f450909c1478d09248269d4ad4fa8cba61ca3f50faed58c7aedefa51c7f62b83a90600090a350565b6060610d57613ad9565b610d98858585858080601f016020809104026020016040519081016040528093929190818152602001838380828437600092019190915250613b8292505050565b90505b949350505050565b610dab613989565b82610e12576040517f08c379a000000000000000000000000000000000000000000000000000000000815260206004820152600d60248201527f726f6c6520697320656d707479000000000000000000000000000000000000006044820152606401610685565b73ffffffffffffffffffffffffffffffffffffffff8216610e8f576040517f08c379a000000000000000000000000000000000000000000000000000000000815260206004820152601760248201527f6d6f64756c65206164647265737320697320656d7074790000000000000000006044820152606401610685565b8035610ef7576040517f08c379a000000000000000000000000000000000000000000000000000000000815260206004820152601560248201527f72756c652068617320656d70747920616374696f6e00000000000000000000006044820152606401610685565b6000610f066020830183614e2c565b905011610f6f576040517f08c379a000000000000000000000000000000000000000000000000000000000815260206004820152601560248201527f72756c652068617320656d7074792074617267657400000000000000000000006044820152606401610685565b6060810135610fda576040517f08c379a000000000000000000000000000000000000000000000000000000000815260206004820152601560248201527f72756c652068617320656d70747920657874656e7400000000000000000000006044820152606401610685565b604080516020810185905273ffffffffffffffffffffffffffffffffffffffff841681830152815180820383018152606090910190915261101a81613c64565b60038160405161102a9190614ee2565b9081526040516020918190038201902080546001810182556000918252919020839160040201610ab18282614fef565b3073ffffffffffffffffffffffffffffffffffffffff7f0000000000000000000000000000000000000000000000000000000000000000161415611120576040517f08c379a000000000000000000000000000000000000000000000000000000000815260206004820152602c60248201527f46756e6374696f6e206d7573742062652063616c6c6564207468726f7567682060448201527f64656c656761746563616c6c00000000000000000000000000000000000000006064820152608401610685565b7f000000000000000000000000000000000000000000000000000000000000000073ffffffffffffffffffffffffffffffffffffffff166111957f360894a13ba1a3210667c828492db98dca3e2076cc3735a920a3ca505d382bbc5473ffffffffffffffffffffffffffffffffffffffff1690565b73ffffffffffffffffffffffffffffffffffffffff1614611238576040517f08c379a000000000000000000000000000000000000000000000000000000000815260206004820152602c60248201527f46756e6374696f6e206d7573742062652063616c6c6564207468726f7567682060448201527f6163746976652070726f787900000000000000000000000000000000000000006064820152608401610685565b61124181613ced565b6040805160008082526020820190925261125d91839190613cf5565b50565b611268613989565b848314801561127657508281145b6112dc576040517f08c379a000000000000000000000000000000000000000000000000000000000815260206004820152601760248201527f6461746120697320646966666572656e742073697a65730000000000000000006044820152606401610685565b60005b85811015611441576113138383838181106112fc576112fc614dbf565b905060200281019061130e9190614e2c565b613ef4565b156114395760006113bb88888481811061132f5761132f614dbf565b905060200201602081019061134491906146ef565b87878581811061135657611356614dbf565b9050602002013586868681811061136f5761136f614dbf565b90506020028101906113819190614e2c565b8080601f016020809104026020016040519081016040528093929190818152602001838380828437600092019190915250613b8292505050565b905080600160008a8a868181106113d4576113d4614dbf565b90506020020160208101906113e991906146ef565b73ffffffffffffffffffffffffffffffffffffffff1673ffffffffffffffffffffffffffffffffffffffff1681526020019081526020016000209080519060200190611436929190614479565b50505b6001016112df565b50505050505050565b6000611454613f5a565b6005546040517f81adfce600000000000000000000000000000000000000000000000000000000815260009173ffffffffffffffffffffffffffffffffffffffff16906381adfce6906114ad9088908890600401615463565b602060405180830381865afa1580156114ca573d6000803e3d6000fd5b505050506040513d601f19601f820116820180604052508101906114ee9190615485565b90506114f981613a54565b6000818152600260209081526040808320815160608101909252805482526001810154919290919083019060ff16801561153557611535614bce565b801561154357611543614bce565b815260200160028201805461155790614ef4565b80601f016020809104026020016040519081016040528092919081815260200182805461158390614ef4565b80156115d05780601f106115a5576101008083540402835291602001916115d0565b820191906000526020600020905b8154815290600101906020018083116115b357829003601f168201915b505050919092525050600554602083015160408085015190517fdeca388700000000000000000000000000000000000000000000000000000000815294955073ffffffffffffffffffffffffffffffffffffffff9092169363deca3887935061164092908b908b9060040161549e565b602060405180830381865afa15801561165d573d6000803e3d6000fd5b505050506040513d601f19601f820116820180604052508101906116819190615485565b9250600081600001516040518060400160405280600181526020017f2a000000000000000000000000000000000000000000000000000000000000008152506040516020016116d19291906154e2565b60405160208183030381529060405290507f61646d696e000000000000000000000000000000000000000000000000000000826000015114158015611736575060006003826040516117239190614ee2565b9081526040519081900360200190205411155b15611b9d577f4789b97e000000000000000000000000000000000000000000000000000000006117696060890189614e2c565b611778916004916000916154fb565b61178191615525565b7fffffffff00000000000000000000000000000000000000000000000000000000161415611a10576000806117c16117bc60608b018b614e2c565b613fdb565b86519294509250600091905073ffffffffffffffffffffffffffffffffffffffff8416604080516020810193909352820152606001604051602081830303815290604052905060006003826040516118199190614ee2565b9081526040519081900360200190205411611890576040517f08c379a000000000000000000000000000000000000000000000000000000000815260206004820152601660248201527f75736572206973206e6f7420617574686f72697a6564000000000000000000006044820152606401610685565b8273ffffffffffffffffffffffffffffffffffffffff166352bd4f41836000815181106118bf576118bf614dbf565b60200260200101516003846040516118d79190614ee2565b9081526040519081900360200181207fffffffff0000000000000000000000000000000000000000000000000000000060e085901b16825261191c929160040161556d565b60006040518083038186803b15801561193457600080fd5b505afa158015611948573d6000803e3d6000fd5b505050508273ffffffffffffffffffffffffffffffffffffffff166352bd4f418360018151811061197b5761197b614dbf565b60200260200101516003846040516119939190614ee2565b9081526040519081900360200181207fffffffff0000000000000000000000000000000000000000000000000000000060e085901b1682526119d8929160040161556d565b60006040518083038186803b1580156119f057600080fd5b505afa158015611a04573d6000803e3d6000fd5b50505050505050611b9d565b600080611a28611a2360608b018b614e2c565b614008565b86519294509250600091905073ffffffffffffffffffffffffffffffffffffffff841660408051602081019390935282015260600160405160208183030381529060405290506000600382604051611a809190614ee2565b9081526040519081900360200190205411611af7576040517f08c379a000000000000000000000000000000000000000000000000000000000815260206004820152601660248201527f75736572206973206e6f7420617574686f72697a6564000000000000000000006044820152606401610685565b8273ffffffffffffffffffffffffffffffffffffffff166352bd4f4183600384604051611b249190614ee2565b9081526040519081900360200181207fffffffff0000000000000000000000000000000000000000000000000000000060e085901b168252611b69929160040161556d565b60006040518083038186803b158015611b8157600080fd5b505afa158015611b95573d6000803e3d6000fd5b505050505050505b611ba68561407a565b5050509392505050565b60005462010000900460ff1615611c49576040517f08c379a000000000000000000000000000000000000000000000000000000000815260206004820152602260248201527f436f6e74726163742068617320616c7265616479206265656e206465706c6f7960448201527f65640000000000000000000000000000000000000000000000000000000000006064820152608401610685565b611c898383838080601f016020809104026020016040519081016040528093929190818152602001838380828437600092018290525092506140e5915050565b5050600080547fffffffffffffffffffffffffffffffffffffffffffffffffffffffffff00ffff166201000017905550565b611cd1828260008181106112fc576112fc614dbf565b611d37576040517f08c379a000000000000000000000000000000000000000000000000000000000815260206004820181905260248201527f66697273742063616c6c206973206e6f7420616e20696e697420616374696f6e6044820152606401610685565b611d7a8585856000818110611d4e57611d4e614dbf565b9050602002013584846000818110611d6857611d68614dbf565b90506020028101906103e59190614e2c565b611dab8585856001818110611d9157611d91614dbf565b9050602002013584846001818110611d6857611d68614dbf565b5050505050565b3073ffffffffffffffffffffffffffffffffffffffff7f0000000000000000000000000000000000000000000000000000000000000000161415611e78576040517f08c379a000000000000000000000000000000000000000000000000000000000815260206004820152602c60248201527f46756e6374696f6e206d7573742062652063616c6c6564207468726f7567682060448201527f64656c656761746563616c6c00000000000000000000000000000000000000006064820152608401610685565b7f000000000000000000000000000000000000000000000000000000000000000073ffffffffffffffffffffffffffffffffffffffff16611eed7f360894a13ba1a3210667c828492db98dca3e2076cc3735a920a3ca505d382bbc5473ffffffffffffffffffffffffffffffffffffffff1690565b73ffffffffffffffffffffffffffffffffffffffff1614611f90576040517f08c379a000000000000000000000000000000000000000000000000000000000815260206004820152602c60248201527f46756e6374696f6e206d7573742062652063616c6c6564207468726f7567682060448201527f6163746976652070726f787900000000000000000000000000000000000000006064820152608401610685565b611f9982613ced565b611fa582826001613cf5565b5050565b60003073ffffffffffffffffffffffffffffffffffffffff7f00000000000000000000000000000000000000000000000000000000000000001614612070576040517f08c379a000000000000000000000000000000000000000000000000000000000815260206004820152603860248201527f555550535570677261646561626c653a206d757374206e6f742062652063616c60448201527f6c6564207468726f7567682064656c656761746563616c6c00000000000000006064820152608401610685565b507f360894a13ba1a3210667c828492db98dca3e2076cc3735a920a3ca505d382bbc90565b61209d613989565b60006120e0858585858080601f016020809104026020016040519081016040528093929190818152602001838380828437600092019190915250613b8292505050565b73ffffffffffffffffffffffffffffffffffffffff861660009081526001602090815260409091208251929350610ab1929091840190614479565b606082612184576040517f08c379a000000000000000000000000000000000000000000000000000000000815260206004820152600d60248201527f726f6c6520697320656d707479000000000000000000000000000000000000006044820152606401610685565b73ffffffffffffffffffffffffffffffffffffffff8216612201576040517f08c379a000000000000000000000000000000000000000000000000000000000815260206004820152601760248201527f6d6f64756c65206164647265737320697320656d7074790000000000000000006044820152606401610685565b604080516020810185905273ffffffffffffffffffffffffffffffffffffffff84168183015281518082038301815260609091019182905290600390612248908390614ee2565b9081526020016040518091039020805480602002602001604051908101604052809291908181526020016000905b828210156123815783829060005260206000209060040201604051806080016040529081600082015481526020016001820180546122b390614ef4565b80601f01602080910402602001604051908101604052809291908181526020018280546122df90614ef4565b801561232c5780601f106123015761010080835404028352916020019161232c565b820191906000526020600020905b81548152906001019060200180831161230f57829003601f168201915b5050509183525050600282015460209091019060ff16600681111561235357612353614bce565b600681111561236457612364614bce565b815260200160038201548152505081526020019060010190612276565b5050505091505092915050565b612396613989565b806123fd576040517f08c379a000000000000000000000000000000000000000000000000000000000815260206004820152600e60248201527f696e76616c6964207573657249640000000000000000000000000000000000006044820152606401610685565b600081815260026020819052604082208281556001810180547fffffffffffffffffffffffffffffffffffffffffffffffffffffffffffffff001690559190612448908301826144fd565b505050565b60408051606080820183526000808352602083015291810191909152816124d0576040517f08c379a000000000000000000000000000000000000000000000000000000000815260206004820152600e60248201527f696e76616c6964207573657249640000000000000000000000000000000000006044820152606401610685565b600082815260026020908152604091829020825160608101909352805483526001810154909183019060ff16801561250a5761250a614bce565b801561251857612518614bce565b815260200160028201805461252c90614ef4565b80601f016020809104026020016040519081016040528092919081815260200182805461255890614ef4565b80156125a55780601f1061257a576101008083540402835291602001916125a5565b820191906000526020600020905b81548152906001019060200180831161258857829003601f168201915b5050505050815250509050919050565b6125bd613989565b73ffffffffffffffffffffffffffffffffffffffff8116612660576040517f08c379a000000000000000000000000000000000000000000000000000000000815260206004820152603260248201527f66756e2077616c6c65743a206e657720656e74727920706f696e74206164647260448201527f6573732063616e6e6f74206265207a65726f00000000000000000000000000006064820152608401610685565b600580547fffffffffffffffffffffffff00000000000000000000000000000000000000001673ffffffffffffffffffffffffffffffffffffffff831690811790915560405181907f34a5e38fc8fe74f12b269fe92e724092f7f531dc4985c88fb113460cfcb5f67d90600090a350565b6126d9613989565b82612740576040517f08c379a000000000000000000000000000000000000000000000000000000000815260206004820152600d60248201527f726f6c6520697320656d707479000000000000000000000000000000000000006044820152606401610685565b73ffffffffffffffffffffffffffffffffffffffff82166127bd576040517f08c379a000000000000000000000000000000000000000000000000000000000815260206004820152601760248201527f6d6f64756c65206164647265737320697320656d7074790000000000000000006044820152606401610685565b8035612825576040517f08c379a000000000000000000000000000000000000000000000000000000000815260206004820152601560248201527f72756c652068617320656d70747920616374696f6e00000000000000000000006044820152606401610685565b60006128346020830183614e2c565b90501161289d576040517f08c379a000000000000000000000000000000000000000000000000000000000815260206004820152601560248201527f72756c652068617320656d7074792074617267657400000000000000000000006044820152606401610685565b6060810135612908576040517f08c379a000000000000000000000000000000000000000000000000000000000815260206004820152601560248201527f72756c652068617320656d70747920657874656e7400000000000000000000006044820152606401610685565b604080516020810185905273ffffffffffffffffffffffffffffffffffffffff841681830152815180820383018152606090910190915261294881613c64565b600060038260405161295a9190614ee2565b9081526020016040518091039020805480602002602001604051908101604052809291908181526020016000905b82821015612a935783829060005260206000209060040201604051806080016040529081600082015481526020016001820180546129c590614ef4565b80601f01602080910402602001604051908101604052809291908181526020018280546129f190614ef4565b8015612a3e5780601f10612a1357610100808354040283529160200191612a3e565b820191906000526020600020905b815481529060010190602001808311612a2157829003601f168201915b5050509183525050600282015460209091019060ff166006811115612a6557612a65614bce565b6006811115612a7657612a76614bce565b815260200160038201548152505081526020019060010190612988565b5050505090506000838060200190612aab9190614e2c565b612abb60608701604088016156bb565b8660600135604051602001612ad394939291906156ef565b60405160208183030381529060405280519060200120905060005b600384604051612afe9190614ee2565b9081526040519081900360200190205461ffff82161015611441576000838261ffff1681518110612b3157612b31614dbf565b602002602001015160200151848361ffff1681518110612b5357612b53614dbf565b602002602001015160400151858461ffff1681518110612b7557612b75614dbf565b602002602001015160600151604051602001612b939392919061571a565b60405160208183030381529060405280519060200120905080831415612d3f578360018551612bc2919061574b565b81518110612bd257612bd2614dbf565b6020026020010151600386604051612bea9190614ee2565b90815260200160405180910390208361ffff1681548110612c0d57612c0d614dbf565b9060005260206000209060040201600082015181600001556020820151816001019080519060200190612c41929190614479565b5060408201516002820180547fffffffffffffffffffffffffffffffffffffffffffffffffffffffffffffff00166001836006811115612c8357612c83614bce565b021790555060609190910151600391820155604051612ca3908790614ee2565b9081526020016040518091039020805480612cc057612cc0615762565b60008281526020812060047fffffffffffffffffffffffffffffffffffffffffffffffffffffffffffffffff9093019283020181815590612d0460018301826144fd565b506002810180547fffffffffffffffffffffffffffffffffffffffffffffffffffffffffffffff001690556000600390910155905550611441565b5080612d4a81614ec0565b915050612aee565b612d5a61410a565b80471015612dea576040517f08c379a000000000000000000000000000000000000000000000000000000000815260206004820152602a60248201527f66756e2077616c6c65743a206e6f7420656e6f75676820657468657220696e2060448201527f7468652077616c6c6574000000000000000000000000000000000000000000006064820152608401610685565b600480546040517fb760faf9000000000000000000000000000000000000000000000000000000008152309281019290925273ffffffffffffffffffffffffffffffffffffffff169063b760faf990602401600060405180830381600087803b158015612e5657600080fd5b505af1158015611dab573d6000803e3d6000fd5b600054610100900460ff1615808015612e8a5750600054600160ff909116105b80612ea45750303b158015612ea4575060005460ff166001145b612f30576040517f08c379a000000000000000000000000000000000000000000000000000000000815260206004820152602e60248201527f496e697469616c697a61626c653a20636f6e747261637420697320616c72656160448201527f647920696e697469616c697a65640000000000000000000000000000000000006064820152608401610685565b600080547fffffffffffffffffffffffffffffffffffffffffffffffffffffffffffffff001660011790558015612f8e57600080547fffffffffffffffffffffffffffffffffffffffffffffffffffffffffffff00ff166101001790555b73ffffffffffffffffffffffffffffffffffffffff841661300b576040517f08c379a000000000000000000000000000000000000000000000000000000000815260206004820152601260248201527f496e76616c696420456e747279706f696e7400000000000000000000000000006044820152606401610685565b6004805473ffffffffffffffffffffffffffffffffffffffff8681167fffffffffffffffffffffffff00000000000000000000000000000000000000009283161790925560058054868416908316179055600680549285169290911682179055604080516060810182527f61646d696e000000000000000000000000000000000000000000000000000000815260006020808301828152845180830187905285518082038401815290860186528486015294825260029052919091208151815591516001838101805493949390917fffffffffffffffffffffffffffffffffffffffffffffffffffffffffffffff009091169083801561310d5761310d614bce565b02179055506040820151805161312d916002840191602090910190614479565b5090505060007f61646d696e0000000000000000000000000000000000000000000000000000006040518060400160405280600181526020017f2a0000000000000000000000000000000000000000000000000000000000000081525060405160200161319b9291906154e2565b60405160208183030381529060405290506003816040516131bc9190614ee2565b908152602001604051809103902060405180608001604052807f2a0000000000000000000000000000000000000000000000000000000000000081526020016040518060400160405280600181526020017f2a00000000000000000000000000000000000000000000000000000000000000815250815260200160068081111561324857613248614bce565b81527f2a000000000000000000000000000000000000000000000000000000000000006020918201528254600181810185556000948552938290208351600490920201908155828201518051939491936132aa93928501929190910190614479565b5060408201516002820180547fffffffffffffffffffffffffffffffffffffffffffffffffffffffffffffff001660018360068111156132ec576132ec614bce565b0217905550606082015181600301555050508015610c2b57600080547fffffffffffffffffffffffffffffffffffffffffffffffffffffffffffff00ff169055604051600181527f7f26b83ff96e1f2b6a682f133852f6798a09c465da95921460cefb38474024989060200160405180910390a150505050565b600480546040517f70a08231000000000000000000000000000000000000000000000000000000008152309281019290925260009173ffffffffffffffffffffffffffffffffffffffff909116906370a0823190602401602060405180830381865afa1580156133da573d6000803e3d6000fd5b505050506040513d601f19601f820116820180604052508101906133fe9190615485565b905090565b61340b61410a565b73ffffffffffffffffffffffffffffffffffffffff82166134ae576040517f08c379a000000000000000000000000000000000000000000000000000000000815260206004820152602b60248201527f66756e2077616c6c65743a20776974686472617720616464726573732063616e60448201527f6e6f74206265207a65726f0000000000000000000000000000000000000000006064820152608401610685565b600480546040517f205c287800000000000000000000000000000000000000000000000000000000815273ffffffffffffffffffffffffffffffffffffffff858116938201939093526024810184905291169063205c287890604401600060405180830381600087803b15801561352457600080fd5b505af1158015610ab1573d6000803e3d6000fd5b613540613989565b73ffffffffffffffffffffffffffffffffffffffff81166135e3576040517f08c379a000000000000000000000000000000000000000000000000000000000815260206004820152602d60248201527f66756e2077616c6c65743a206e6577206d6f64756c652061646472657373206360448201527f616e6e6f74206265207a65726f000000000000000000000000000000000000006064820152608401610685565b8173ffffffffffffffffffffffffffffffffffffffff168173ffffffffffffffffffffffffffffffffffffffff16141561369f576040517f08c379a000000000000000000000000000000000000000000000000000000000815260206004820152603e60248201527f66756e2077616c6c65743a206e6577206d6f64756c652061646472657373206360448201527f616e6e6f7420626520657175616c20746f2070726576696f7573206f6e6500006064820152608401610685565b73ffffffffffffffffffffffffffffffffffffffff8083166000908152600160205260408082209284168252902081549091906136db90614ef4565b6136e6929190614537565b5073ffffffffffffffffffffffffffffffffffffffff82166000908152600160205260408120613715916144fd565b8073ffffffffffffffffffffffffffffffffffffffff168273ffffffffffffffffffffffffffffffffffffffff167fdcbf4cc8a7afc3fe6e403a57745b98188844fdfee49c8752ae30fc46b3a39ebb60405160405180910390a35050565b73ffffffffffffffffffffffffffffffffffffffff811660009081526001602052604090208054606091906137a790614ef4565b80601f01602080910402602001604051908101604052809291908181526020018280546137d390614ef4565b80156138205780601f106137f557610100808354040283529160200191613820565b820191906000526020600020905b81548152906001019060200180831161380357829003601f168201915b50505050509050919050565b613834613989565b8161389b576040517f08c379a000000000000000000000000000000000000000000000000000000000815260206004820152600e60248201527f696e76616c6964207573657249640000000000000000000000000000000000006044820152606401610685565b600082815260026020819052604082200180546138b790614ef4565b90501115613921576040517f08c379a000000000000000000000000000000000000000000000000000000000815260206004820152601360248201527f7573657220616c726561647920657869737473000000000000000000000000006044820152606401610685565b8035610b99576040517f08c379a000000000000000000000000000000000000000000000000000000000815260206004820152601460248201527f757365722068617320656d70747920726f6c65730000000000000000000000006044820152606401610685565b60045473ffffffffffffffffffffffffffffffffffffffff163314806139c6575060065473ffffffffffffffffffffffffffffffffffffffff1633145b613a52576040517f08c379a000000000000000000000000000000000000000000000000000000000815260206004820152602860248201527f66756e2077616c6c65743a206e6f742066726f6d20456e747279506f696e742060448201527f6f72206f776e65720000000000000000000000000000000000000000000000006064820152608401610685565b565b60008181526002602081905260408220018054613a7090614ef4565b90501161125d576040517f08c379a000000000000000000000000000000000000000000000000000000000815260206004820152601f60248201527f66756e2077616c6c65743a207573657220646f6573206e6f74206578697374006044820152606401610685565b3360009081526001602052604081208054613af390614ef4565b905011613a52576040517f08c379a000000000000000000000000000000000000000000000000000000000815260206004820152602360248201527f66756e2077616c6c65743a206e6f742066726f6d2061206b6e6f776e204d6f6460448201527f756c6500000000000000000000000000000000000000000000000000000000006064820152608401610685565b60606000808573ffffffffffffffffffffffffffffffffffffffff168585604051613bad9190614ee2565b60006040518083038185875af1925050503d8060008114613bea576040519150601f19603f3d011682016040523d82523d6000602084013e613bef565b606091505b509150915081613c5b576040517f08c379a000000000000000000000000000000000000000000000000000000000815260206004820181905260248201527f66756e2077616c6c65743a2065787465726e616c2063616c6c206661696c65646044820152606401610685565b95945050505050565b6000600382604051613c769190614ee2565b908152604051908190036020019020541161125d576040517f08c379a000000000000000000000000000000000000000000000000000000000815260206004820152601f60248201527f66756e2077616c6c65743a20726f6c6520646f6573206e6f74206578697374006044820152606401610685565b61125d613989565b7f4910fdfa16fed3260ed0e7147f7cc6da11a60208b5b9406d12a635614ffd91435460ff1615613d285761244883614195565b8273ffffffffffffffffffffffffffffffffffffffff166352d1902d6040518163ffffffff1660e01b8152600401602060405180830381865afa925050508015613dad575060408051601f3d9081017fffffffffffffffffffffffffffffffffffffffffffffffffffffffffffffffe0168201909252613daa91810190615485565b60015b613e39576040517f08c379a000000000000000000000000000000000000000000000000000000000815260206004820152602e60248201527f45524331393637557067726164653a206e657720696d706c656d656e7461746960448201527f6f6e206973206e6f7420555550530000000000000000000000000000000000006064820152608401610685565b7f360894a13ba1a3210667c828492db98dca3e2076cc3735a920a3ca505d382bbc8114613ee8576040517f08c379a000000000000000000000000000000000000000000000000000000000815260206004820152602960248201527f45524331393637557067726164653a20756e737570706f727465642070726f7860448201527f6961626c655555494400000000000000000000000000000000000000000000006064820152608401610685565b506124488383836140e5565b600080613f0460048285876154fb565b613f0d91615525565b7fffffffff00000000000000000000000000000000000000000000000000000000167f4ddf47d4000000000000000000000000000000000000000000000000000000001491505092915050565b60045473ffffffffffffffffffffffffffffffffffffffff163314613a52576040517f08c379a000000000000000000000000000000000000000000000000000000000815260206004820152601f60248201527f66756e2077616c6c65743a206e6f742066726f6d20456e747279506f696e74006044820152606401610685565b6000606080613fed84600481886154fb565b810190613ffa9190615845565b919790965090945092505050565b600080606061401a84600481886154fb565b8101906140279190614d65565b90935091506140398460c881886154fb565b8080601f0160208091040260200160405190810160405280939291908181526020018383808284376000920191909152509598949750919550929350505050565b801561125d5760405160009033907fffffffffffffffffffffffffffffffffffffffffffffffffffffffffffffffff90849084818181858888f193505050503d8060008114611dab576040519150601f19603f3d011682016040523d82523d6000602084013e611dab565b6140ee8361429f565b6000825111806140fb5750805b1561244857610c2b83836142ec565b60065473ffffffffffffffffffffffffffffffffffffffff1633148061412f57503330145b613a52576040517f08c379a000000000000000000000000000000000000000000000000000000000815260206004820152601a60248201527f66756e2077616c6c65743a206e6f742066726f6d204f776e65720000000000006044820152606401610685565b73ffffffffffffffffffffffffffffffffffffffff81163b614239576040517f08c379a000000000000000000000000000000000000000000000000000000000815260206004820152602d60248201527f455243313936373a206e657720696d706c656d656e746174696f6e206973206e60448201527f6f74206120636f6e7472616374000000000000000000000000000000000000006064820152608401610685565b7f360894a13ba1a3210667c828492db98dca3e2076cc3735a920a3ca505d382bbc80547fffffffffffffffffffffffff00000000000000000000000000000000000000001673ffffffffffffffffffffffffffffffffffffffff92909216919091179055565b6142a881614195565b60405173ffffffffffffffffffffffffffffffffffffffff8216907fbc7cd75a20ee27fd9adebab32041f755214dbc6bffa90cc0225b39da2e5c2d3b90600090a250565b6060614311838360405180606001604052806027815260200161591360279139614318565b9392505050565b60606000808573ffffffffffffffffffffffffffffffffffffffff16856040516143429190614ee2565b600060405180830381855af49150503d806000811461437d576040519150601f19603f3d011682016040523d82523d6000602084013e614382565b606091505b50915091506143938683838761439d565b9695505050505050565b606083156144305782516144295773ffffffffffffffffffffffffffffffffffffffff85163b614429576040517f08c379a000000000000000000000000000000000000000000000000000000000815260206004820152601d60248201527f416464726573733a2063616c6c20746f206e6f6e2d636f6e74726163740000006044820152606401610685565b5081610d9b565b610d9b83838151156144455781518083602001fd5b806040517f08c379a00000000000000000000000000000000000000000000000000000000081526004016106859190614814565b82805461448590614ef4565b90600052602060002090601f0160209004810192826144a757600085556144ed565b82601f106144c057805160ff19168380011785556144ed565b828001600101855582156144ed579182015b828111156144ed5782518255916020019190600101906144d2565b506144f99291506145b2565b5090565b50805461450990614ef4565b6000825580601f10614519575050565b601f01602090049060005260206000209081019061125d91906145b2565b82805461454390614ef4565b90600052602060002090601f01602090048101928261456557600085556144ed565b82601f1061457657805485556144ed565b828001600101855582156144ed57600052602060002091601f016020900482015b828111156144ed578254825591600101919060010190614597565b5b808211156144f957600081556001016145b3565b73ffffffffffffffffffffffffffffffffffffffff8116811461125d57600080fd5b80356145f4816145c7565b919050565b60008083601f84011261460b57600080fd5b50813567ffffffffffffffff81111561462357600080fd5b6020830191508360208260051b850101111561463e57600080fd5b9250929050565b6000806000806060858703121561465b57600080fd5b84359350602085013561466d816145c7565b9250604085013567ffffffffffffffff81111561468957600080fd5b614695878288016145f9565b95989497509550505050565b600080604083850312156146b457600080fd5b82359150602083013567ffffffffffffffff8111156146d257600080fd5b8301606081860312156146e457600080fd5b809150509250929050565b60006020828403121561470157600080fd5b8135614311816145c7565b60008083601f84011261471e57600080fd5b50813567ffffffffffffffff81111561473657600080fd5b60208301915083602082850101111561463e57600080fd5b6000806000806060858703121561476457600080fd5b843561476f816145c7565b935060208501359250604085013567ffffffffffffffff81111561479257600080fd5b6146958782880161470c565b60005b838110156147b95781810151838201526020016147a1565b83811115610c2b5750506000910152565b600081518084526147e281602086016020860161479e565b601f017fffffffffffffffffffffffffffffffffffffffffffffffffffffffffffffffe0169290920160200192915050565b60208152600061431160208301846147ca565b60008060006060848603121561483c57600080fd5b83359250602084013561484e816145c7565b9150604084013567ffffffffffffffff81111561486a57600080fd5b84016080818703121561487c57600080fd5b809150509250925092565b600080600080600080606087890312156148a057600080fd5b863567ffffffffffffffff808211156148b857600080fd5b6148c48a838b016145f9565b909850965060208901359150808211156148dd57600080fd5b6148e98a838b016145f9565b9096509450604089013591508082111561490257600080fd5b5061490f89828a016145f9565b979a9699509497509295939492505050565b60008060006060848603121561493657600080fd5b833567ffffffffffffffff81111561494d57600080fd5b8401610160818703121561496057600080fd5b95602085013595506040909401359392505050565b60008060006040848603121561498a57600080fd5b8335614995816145c7565b9250602084013567ffffffffffffffff8111156149b157600080fd5b6149bd8682870161470c565b9497909650939450505050565b6000806000806000606086880312156149e257600080fd5b85356149ed816145c7565b9450602086013567ffffffffffffffff80821115614a0a57600080fd5b614a1689838a016145f9565b90965094506040880135915080821115614a2f57600080fd5b50614a3c888289016145f9565b969995985093965092949392505050565b7f4e487b7100000000000000000000000000000000000000000000000000000000600052604160045260246000fd5b604051601f82017fffffffffffffffffffffffffffffffffffffffffffffffffffffffffffffffe016810167ffffffffffffffff81118282101715614ac357614ac3614a4d565b604052919050565b600082601f830112614adc57600080fd5b813567ffffffffffffffff811115614af657614af6614a4d565b614b2760207fffffffffffffffffffffffffffffffffffffffffffffffffffffffffffffffe0601f84011601614a7c565b818152846020838601011115614b3c57600080fd5b816020850160208301376000918101602001919091529392505050565b60008060408385031215614b6c57600080fd5b8235614b77816145c7565b9150602083013567ffffffffffffffff811115614b9357600080fd5b614b9f85828601614acb565b9150509250929050565b60008060408385031215614bbc57600080fd5b8235915060208301356146e4816145c7565b7f4e487b7100000000000000000000000000000000000000000000000000000000600052602160045260246000fd5b60078110614c0d57614c0d614bce565b9052565b60006020808301818452808551808352604092508286019150828160051b87010184880160005b83811015614cb6577fffffffffffffffffffffffffffffffffffffffffffffffffffffffffffffffc0898403018552815160808151855288820151818a870152614c84828701826147ca565b91505087820151614c9789870182614bfd565b5060609182015194909101939093529386019390860190600101614c38565b509098975050505050505050565b600060208284031215614cd657600080fd5b5035919050565b60018110614c0d57614c0d614bce565b602081528151602082015260006020830151614d0c6040840182614cdd565b506040830151606080840152610d9b60808401826147ca565b600080600060608486031215614d3a57600080fd5b8335614d45816145c7565b92506020840135614d55816145c7565b9150604084013561487c816145c7565b60008060408385031215614d7857600080fd5b8235614d83816145c7565b946020939093013593505050565b60008060408385031215614da457600080fd5b8235614daf816145c7565b915060208301356146e4816145c7565b7f4e487b7100000000000000000000000000000000000000000000000000000000600052603260045260246000fd5b600082357fffffffffffffffffffffffffffffffffffffffffffffffffffffffffffffff81833603018112614e2257600080fd5b9190910192915050565b60008083357fffffffffffffffffffffffffffffffffffffffffffffffffffffffffffffffe1843603018112614e6157600080fd5b83018035915067ffffffffffffffff821115614e7c57600080fd5b60200191503681900382131561463e57600080fd5b7f4e487b7100000000000000000000000000000000000000000000000000000000600052601160045260246000fd5b600061ffff80831681811415614ed857614ed8614e91565b6001019392505050565b60008251614e2281846020870161479e565b600181811c90821680614f0857607f821691505b60208210811415614f42577f4e487b7100000000000000000000000000000000000000000000000000000000600052602260045260246000fd5b50919050565b601f82111561244857600081815260208120601f850160051c81016020861015614f6f5750805b601f850160051c820191505b81811015610ab157828155600101614f7b565b6007811061125d57600080fd5b60008135614fa881614f8e565b92915050565b60078210614fbe57614fbe614bce565b7fffffffffffffffffffffffffffffffffffffffffffffffffffffffffffffff0081541660ff831681178255505050565b813581556001808201602061500681860186614e2c565b67ffffffffffffffff81111561501e5761501e614a4d565b6150328161502c8654614ef4565b86614f48565b6000601f821160018114615084576000831561504e5750838201355b7fffffffffffffffffffffffffffffffffffffffffffffffffffffffffffffffff600385901b1c1916600184901b178655615115565b6000868152602090207fffffffffffffffffffffffffffffffffffffffffffffffffffffffffffffffe0841690835b828110156150d057868501358255938701939089019087016150b3565b508482101561510b577fffffffffffffffffffffffffffffffffffffffffffffffffffffffffffffffff60f88660031b161c19848701351681555b50508683881b0186555b5050505050505061513461512b60408401614f9b565b60028301614fae565b606082013560038201555050565b81358155600180820160208085013583811061515d57600080fd5b7fffffffffffffffffffffffffffffffffffffffffffffffffffffffffffffff0083541660ff821681178455505060028401915061519e6040860186614e2c565b67ffffffffffffffff8111156151b6576151b6614a4d565b6151c48161502c8654614ef4565b6000601f82116001811461521657600083156151e05750838201355b7fffffffffffffffffffffffffffffffffffffffffffffffffffffffffffffffff600385901b1c1916600184901b1786556152a7565b6000868152602090207fffffffffffffffffffffffffffffffffffffffffffffffffffffffffffffffe0841690835b828110156152625786850135825593870193908901908701615245565b508482101561529d577fffffffffffffffffffffffffffffffffffffffffffffffffffffffffffffffff60f88660031b161c19848701351681555b50508683881b0186555b505050505050505050565b60008083357fffffffffffffffffffffffffffffffffffffffffffffffffffffffffffffffe18436030181126152e757600080fd5b830160208101925035905067ffffffffffffffff81111561530757600080fd5b80360383131561463e57600080fd5b8183528181602085013750600060208284010152600060207fffffffffffffffffffffffffffffffffffffffffffffffffffffffffffffffe0601f840116840101905092915050565b600061016061538b84615371856145e9565b73ffffffffffffffffffffffffffffffffffffffff169052565b602083013560208501526153a260408401846152b2565b8260408701526153b58387018284615316565b925050506153c660608401846152b2565b85830360608701526153d9838284615316565b925050506080830135608085015260a083013560a085015260c083013560c085015260e083013560e0850152610100808401358186015250610120615420818501856152b2565b86840383880152615432848284615316565b9350505050610140615446818501856152b2565b86840383880152615458848284615316565b979650505050505050565b604081526000615476604083018561535f565b90508260208301529392505050565b60006020828403121561549757600080fd5b5051919050565b6154a88186614cdd565b6080602082015260006154be60808301866147ca565b82810360408401526154d0818661535f565b91505082606083015295945050505050565b828152604060208201526000610d9b60408301846147ca565b6000808585111561550b57600080fd5b8386111561551857600080fd5b5050820193919092039150565b7fffffffff0000000000000000000000000000000000000000000000000000000081358181169160048510156155655780818660040360031b1b83161692505b505092915050565b60006040808352615580818401866147ca565b6020848203818601528186548084528284019150828160051b8501016000898152848120815b848110156156aa577fffffffffffffffffffffffffffffffffffffffffffffffffffffffffffffffe08885030186526080825485526001808401828a8801528581546155f181614ef4565b94890185905260a094818516801561561057600181146156425761566d565b7fffffffffffffffffffffffffffffffffffffffffffffffffffffffffffffff008316878c015260c08b01935061566d565b848a528d8a208a5b838110156156655781548d82018a0152908701908f0161564a565b8c0188019450505b505050600286015460ff1693506156868d890185614bfd565b600386015460609890980197909752505050948601946004909101906001016155a6565b50919b9a5050505050505050505050565b6000602082840312156156cd57600080fd5b813561431181614f8e565b600781106156e8576156e8614bce565b60f81b9052565b8385823760008482016000815261570681866156d8565b600181019390935250506021019392505050565b6000845161572c81846020890161479e565b820161573881866156d8565b6001810193909352505060210192915050565b60008282101561575d5761575d614e91565b500390565b7f4e487b7100000000000000000000000000000000000000000000000000000000600052603160045260246000fd5b600067ffffffffffffffff8211156157ab576157ab614a4d565b5060051b60200190565b600082601f8301126157c657600080fd5b813560206157db6157d683615791565b614a7c565b82815260059290921b840181019181810190868411156157fa57600080fd5b8286015b8481101561583a57803567ffffffffffffffff81111561581e5760008081fd5b61582c8986838b0101614acb565b8452509183019183016157fe565b509695505050505050565b60008060006060848603121561585a57600080fd5b8335615865816145c7565b925060208481013567ffffffffffffffff8082111561588357600080fd5b818701915087601f83011261589757600080fd5b81356158a56157d682615791565b81815260059190911b8301840190848101908a8311156158c457600080fd5b938501935b828510156158e2578435825293850193908501906158c9565b9650505060408701359250808311156158fa57600080fd5b5050615908868287016157b5565b915050925092509256fe416464726573733a206c6f772d6c6576656c2064656c65676174652063616c6c206661696c6564a2646970667358221220fbe6818328a7452a101bc93ec77c32921adb9477dd344e55e517e9726664775464736f6c634300080c0033","linkReferences":{},"deployedLinkReferences":{}}