{"_format":"hh-sol-artifact-1","contractName":"FunWallet","sourceName":"contracts/FunWallet.sol","abi":[{"anonymous":false,"inputs":[{"indexed":false,"internalType":"address","name":"previousAdmin","type":"address"},{"indexed":false,"internalType":"address","name":"newAdmin","type":"address"}],"name":"AdminChanged","type":"event"},{"anonymous":false,"inputs":[{"indexed":true,"internalType":"address","name":"beacon","type":"address"}],"name":"BeaconUpgraded","type":"event"},{"anonymous":false,"inputs":[{"indexed":true,"internalType":"address","name":"oldEntryPoint","type":"address"},{"indexed":true,"internalType":"address","name":"newEntryPoint","type":"address"}],"name":"EntryPointChanged","type":"event"},{"anonymous":false,"inputs":[{"indexed":false,"internalType":"uint8","name":"version","type":"uint8"}],"name":"Initialized","type":"event"},{"anonymous":false,"inputs":[{"indexed":true,"internalType":"address","name":"oldModuleAddr","type":"address"},{"indexed":true,"internalType":"address","name":"newModuleAddr","type":"address"}],"name":"ModuleAddrChanged","type":"event"},{"anonymous":false,"inputs":[{"indexed":true,"internalType":"address","name":"implementation","type":"address"}],"name":"Upgraded","type":"event"},{"anonymous":false,"inputs":[{"indexed":true,"internalType":"address","name":"oldUserAuthenticationAddr","type":"address"},{"indexed":true,"internalType":"address","name":"newUserAuthenticationAddr","type":"address"}],"name":"UserAuthenticationAddrChanged","type":"event"},{"inputs":[],"name":"ADMIN_ROLE","outputs":[{"internalType":"bytes32","name":"","type":"bytes32"}],"stateMutability":"view","type":"function"},{"inputs":[],"name":"CALL_DATA_OFFSET","outputs":[{"internalType":"uint256","name":"","type":"uint256"}],"stateMutability":"view","type":"function"},{"inputs":[],"name":"METHOD_SIGNATURE_OFFSET","outputs":[{"internalType":"uint256","name":"","type":"uint256"}],"stateMutability":"view","type":"function"},{"inputs":[],"name":"VERSION","outputs":[{"internalType":"uint256","name":"","type":"uint256"}],"stateMutability":"view","type":"function"},{"inputs":[{"internalType":"bytes32","name":"role","type":"bytes32"},{"internalType":"address","name":"moduleAddr","type":"address"},{"components":[{"internalType":"bytes32","name":"action","type":"bytes32"},{"internalType":"bytes","name":"target","type":"bytes"},{"internalType":"enum Keyword","name":"keyword","type":"uint8"},{"internalType":"bytes32","name":"extent","type":"bytes32"}],"internalType":"struct Rule","name":"rule","type":"tuple"}],"name":"attachRuleToRole","outputs":[],"stateMutability":"nonpayable","type":"function"},{"inputs":[{"internalType":"bytes32","name":"role","type":"bytes32"},{"internalType":"address","name":"moduleAddr","type":"address"},{"components":[{"internalType":"bytes32","name":"action","type":"bytes32"},{"internalType":"bytes","name":"target","type":"bytes"},{"internalType":"enum Keyword","name":"keyword","type":"uint8"},{"internalType":"bytes32","name":"extent","type":"bytes32"}],"internalType":"struct Rule[]","name":"rules","type":"tuple[]"}],"name":"createRole","outputs":[],"stateMutability":"nonpayable","type":"function"},{"inputs":[{"internalType":"bytes32","name":"userId","type":"bytes32"},{"components":[{"internalType":"bytes32","name":"role","type":"bytes32"},{"internalType":"enum AuthType","name":"authType","type":"uint8"},{"internalType":"bytes","name":"authMetadata","type":"bytes"}],"internalType":"struct IFunWallet.UserMetadata","name":"userMetadata","type":"tuple"}],"name":"createUser","outputs":[],"stateMutability":"nonpayable","type":"function"},{"inputs":[{"internalType":"bytes32","name":"userId","type":"bytes32"}],"name":"deleteUser","outputs":[],"stateMutability":"nonpayable","type":"function"},{"inputs":[{"internalType":"uint256","name":"amount","type":"uint256"}],"name":"depositToEntryPoint","outputs":[],"stateMutability":"nonpayable","type":"function"},{"inputs":[],"name":"entryPoint","outputs":[{"internalType":"contract IEntryPoint","name":"","type":"address"}],"stateMutability":"view","type":"function"},{"inputs":[{"internalType":"address[]","name":"dests","type":"address[]"},{"internalType":"uint256[]","name":"values","type":"uint256[]"},{"internalType":"bytes[]","name":"data","type":"bytes[]"}],"name":"execBatchInit","outputs":[],"stateMutability":"nonpayable","type":"function"},{"inputs":[{"internalType":"address","name":"dest","type":"address"},{"internalType":"uint256","name":"value","type":"uint256"},{"internalType":"bytes","name":"data","type":"bytes"}],"name":"execFromEntryPointOrOwner","outputs":[],"stateMutability":"nonpayable","type":"function"},{"inputs":[{"internalType":"address","name":"dest","type":"address"},{"internalType":"uint256","name":"value","type":"uint256"},{"internalType":"bytes","name":"data","type":"bytes"},{"components":[{"internalType":"address","name":"token","type":"address"},{"internalType":"address","name":"recipient","type":"address"},{"internalType":"address","name":"funOracle","type":"address"},{"internalType":"uint256","name":"amount","type":"uint256"}],"internalType":"struct IFunWallet.UserOperationFee","name":"feedata","type":"tuple"}],"name":"execFromEntryPointOrOwnerWithFee","outputs":[],"stateMutability":"nonpayable","type":"function"},{"inputs":[{"internalType":"address","name":"dest","type":"address"},{"internalType":"uint256","name":"value","type":"uint256"},{"internalType":"bytes","name":"data","type":"bytes"}],"name":"execFromModule","outputs":[{"internalType":"bytes","name":"","type":"bytes"}],"stateMutability":"payable","type":"function"},{"inputs":[],"name":"getDeposit","outputs":[{"internalType":"uint256","name":"","type":"uint256"}],"stateMutability":"view","type":"function"},{"inputs":[{"internalType":"address","name":"moduleAddr","type":"address"}],"name":"getModuleStateVal","outputs":[{"internalType":"bytes","name":"","type":"bytes"}],"stateMutability":"view","type":"function"},{"inputs":[{"internalType":"bytes32","name":"role","type":"bytes32"},{"internalType":"address","name":"moduleAddr","type":"address"}],"name":"getRulesOfRole","outputs":[{"components":[{"internalType":"bytes32","name":"action","type":"bytes32"},{"internalType":"bytes","name":"target","type":"bytes"},{"internalType":"enum Keyword","name":"keyword","type":"uint8"},{"internalType":"bytes32","name":"extent","type":"bytes32"}],"internalType":"struct Rule[]","name":"","type":"tuple[]"}],"stateMutability":"view","type":"function"},{"inputs":[{"internalType":"bytes32","name":"userId","type":"bytes32"}],"name":"getUser","outputs":[{"components":[{"internalType":"bytes32","name":"role","type":"bytes32"},{"internalType":"enum AuthType","name":"authType","type":"uint8"},{"internalType":"bytes","name":"authMetadata","type":"bytes"}],"internalType":"struct IFunWallet.UserMetadata","name":"","type":"tuple"}],"stateMutability":"view","type":"function"},{"inputs":[{"internalType":"address","name":"dest","type":"address"},{"internalType":"uint256[]","name":"value","type":"uint256[]"},{"internalType":"bytes[]","name":"data","type":"bytes[]"}],"name":"initAndExec","outputs":[],"stateMutability":"nonpayable","type":"function"},{"inputs":[{"internalType":"address","name":"dest","type":"address"},{"internalType":"uint256[]","name":"value","type":"uint256[]"},{"internalType":"bytes[]","name":"data","type":"bytes[]"},{"components":[{"internalType":"address","name":"token","type":"address"},{"internalType":"address","name":"recipient","type":"address"},{"internalType":"address","name":"funOracle","type":"address"},{"internalType":"uint256","name":"amount","type":"uint256"}],"internalType":"struct IFunWallet.UserOperationFee","name":"feedata","type":"tuple"}],"name":"initAndExecWithFee","outputs":[],"stateMutability":"nonpayable","type":"function"},{"inputs":[{"internalType":"address","name":"_entryPointAddr","type":"address"},{"internalType":"address","name":"_userAuthAddr","type":"address"},{"internalType":"address[]","name":"_owner","type":"address[]"}],"name":"initialize","outputs":[],"stateMutability":"nonpayable","type":"function"},{"inputs":[{"internalType":"uint256","name":"","type":"uint256"}],"name":"owner","outputs":[{"internalType":"address","name":"","type":"address"}],"stateMutability":"view","type":"function"},{"inputs":[],"name":"proxiableUUID","outputs":[{"internalType":"bytes32","name":"","type":"bytes32"}],"stateMutability":"view","type":"function"},{"inputs":[{"internalType":"bytes32","name":"role","type":"bytes32"},{"internalType":"address","name":"moduleAddr","type":"address"},{"components":[{"internalType":"bytes32","name":"action","type":"bytes32"},{"internalType":"bytes","name":"target","type":"bytes"},{"internalType":"enum Keyword","name":"keyword","type":"uint8"},{"internalType":"bytes32","name":"extent","type":"bytes32"}],"internalType":"struct Rule","name":"rule","type":"tuple"}],"name":"removeRuleFromRole","outputs":[],"stateMutability":"nonpayable","type":"function"},{"inputs":[{"internalType":"address","name":"newImplementation","type":"address"},{"internalType":"bytes","name":"initializerCallData","type":"bytes"}],"name":"setImplementationOnDeployment","outputs":[],"stateMutability":"nonpayable","type":"function"},{"inputs":[{"internalType":"address","name":"_newEntryPoint","type":"address"}],"name":"updateEntryPoint","outputs":[],"stateMutability":"nonpayable","type":"function"},{"inputs":[{"internalType":"address","name":"oldModuleAddr","type":"address"},{"internalType":"address","name":"newModuleAddr","type":"address"}],"name":"updateModuleAddr","outputs":[],"stateMutability":"nonpayable","type":"function"},{"inputs":[{"internalType":"bytes32","name":"userId","type":"bytes32"},{"components":[{"internalType":"bytes32","name":"role","type":"bytes32"},{"internalType":"enum AuthType","name":"authType","type":"uint8"},{"internalType":"bytes","name":"authMetadata","type":"bytes"}],"internalType":"struct IFunWallet.UserMetadata","name":"userMetadata","type":"tuple"}],"name":"updateUser","outputs":[],"stateMutability":"nonpayable","type":"function"},{"inputs":[{"internalType":"address","name":"_newUserAuthentication","type":"address"}],"name":"updateUserAuthentication","outputs":[],"stateMutability":"nonpayable","type":"function"},{"inputs":[{"internalType":"address","name":"newImplementation","type":"address"}],"name":"upgradeTo","outputs":[],"stateMutability":"nonpayable","type":"function"},{"inputs":[{"internalType":"address","name":"newImplementation","type":"address"},{"internalType":"bytes","name":"data","type":"bytes"}],"name":"upgradeToAndCall","outputs":[],"stateMutability":"payable","type":"function"},{"inputs":[],"name":"userAuthentication","outputs":[{"internalType":"contract UserAuthentication","name":"","type":"address"}],"stateMutability":"view","type":"function"},{"inputs":[{"components":[{"internalType":"address","name":"sender","type":"address"},{"internalType":"uint256","name":"nonce","type":"uint256"},{"internalType":"bytes","name":"initCode","type":"bytes"},{"internalType":"bytes","name":"callData","type":"bytes"},{"internalType":"uint256","name":"callGasLimit","type":"uint256"},{"internalType":"uint256","name":"verificationGasLimit","type":"uint256"},{"internalType":"uint256","name":"preVerificationGas","type":"uint256"},{"internalType":"uint256","name":"maxFeePerGas","type":"uint256"},{"internalType":"uint256","name":"maxPriorityFeePerGas","type":"uint256"},{"internalType":"bytes","name":"paymasterAndData","type":"bytes"},{"internalType":"bytes","name":"signature","type":"bytes"}],"internalType":"struct UserOperation","name":"userOp","type":"tuple"},{"internalType":"bytes32","name":"userOpHash","type":"bytes32"},{"internalType":"uint256","name":"missingAccountFunds","type":"uint256"}],"name":"validateUserOp","outputs":[{"internalType":"uint256","name":"sigTimeRange","type":"uint256"}],"stateMutability":"nonpayable","type":"function"},{"inputs":[{"internalType":"address payable","name":"withdrawAddress","type":"address"},{"internalType":"uint256","name":"amount","type":"uint256"}],"name":"withdrawFromEntryPoint","outputs":[],"stateMutability":"nonpayable","type":"function"},{"stateMutability":"payable","type":"receive"}],"bytecode":"0x60a0604052306080526000805462ff00001916905534801561002057600080fd5b50608051615cea6200005960003960008181610f5b01528181610ff101528181611bfd01528181611c930152611dc20152615cea6000f3fe60806040526004361061021d5760003560e01c80636517579c1161011d578063a123c33e116100b0578063c7d763081161007f578063d06403d611610064578063d06403d61461064e578063dc7c98481461066e578063ffa1ad741461068e57600080fd5b8063c7d763081461060e578063cc793fa61461062e57600080fd5b8063a123c33e1461058e578063a55e593d146105ae578063b0d691fe146105ce578063c399ec88146105f957600080fd5b806377a24f36116100ec57806377a24f36146105195780637b8ea0281461053957806399d3fef3146105595780639cfdf5b61461057957600080fd5b80636517579c146104785780636cedf41b146104a55780636fe5722b146104c557806375b238fc146104e557600080fd5b80633a871cdd116101b05780634f1ef2861161017f57806355cd05cc1161016457806355cd05cc1461040b5780635cbf1e6e1461042b5780635e5d43201461045857600080fd5b80634f1ef286146103e357806352d1902d146103f657600080fd5b80633a871cdd146103375780633cb66ec4146103575780634192d251146103a35780634789b97e146103c357600080fd5b80632ed6fb5d116101ec5780632ed6fb5d146102b4578063357f7bb0146102d45780633659cfe6146102f75780633a6e5a0a1461031757600080fd5b8063033183e91461022957806315577ae21461024b5780631b71bb6e1461026b57806320d2a20f1461028b57600080fd5b3661022457005b600080fd5b34801561023557600080fd5b50610249610244366004614805565b6106a3565b005b34801561025757600080fd5b50610249610266366004614861565b610a8c565b34801561027757600080fd5b506102496102863660046148af565b610bb6565b61029e61029936600461490e565b610cb8565b6040516102ab91906149d4565b60405180910390f35b3480156102c057600080fd5b506102496102cf3660046149e7565b610d0e565b3480156102e057600080fd5b506102e9600481565b6040519081526020016102ab565b34801561030357600080fd5b506102496103123660046148af565b610f43565b34801561032357600080fd5b50610249610332366004614a47565b611115565b34801561034357600080fd5b506102e9610352366004614ae1565b6112e5565b34801561036357600080fd5b5060055473ffffffffffffffffffffffffffffffffffffffff165b60405173ffffffffffffffffffffffffffffffffffffffff90911681526020016102ab565b3480156103af57600080fd5b506102496103be366004614b35565b611a17565b3480156103cf57600080fd5b506102496103de366004614b8a565b611b08565b6102496103f1366004614d19565b611be5565b34801561040257600080fd5b506102e9611da8565b34801561041757600080fd5b5061024961042636600461490e565b611e7a565b34801561043757600080fd5b5061044b610446366004614d69565b611f00565b6040516102ab9190614dd1565b34801561046457600080fd5b50610249610473366004614e84565b61213f565b34801561048457600080fd5b50610498610493366004614e84565b6121e4565b6040516102ab9190614ead565b3480156104b157600080fd5b506102496104c0366004614f64565b612332565b3480156104d157600080fd5b506102496104e0366004614ff7565b612348565b3480156104f157600080fd5b506102e97f61646d696e00000000000000000000000000000000000000000000000000000081565b34801561052557600080fd5b50610249610534366004615069565b61235d565b34801561054557600080fd5b506102496105543660046148af565b6128e0565b34801561056557600080fd5b506102496105743660046149e7565b6129e2565b34801561058557600080fd5b506102e960c881565b34801561059a57600080fd5b5061037e6105a9366004614e84565b612fe1565b3480156105ba57600080fd5b506102496105c9366004614e84565b613018565b3480156105da57600080fd5b5060045473ffffffffffffffffffffffffffffffffffffffff1661037e565b34801561060557600080fd5b506102e9613116565b34801561061a57600080fd5b5061024961062936600461509a565b6131b3565b34801561063a57600080fd5b506102496106493660046150c6565b6132ce565b34801561065a57600080fd5b5061029e6106693660046148af565b6134d5565b34801561067a57600080fd5b50610249610689366004614861565b61358e565b34801561069a57600080fd5b506102e9600681565b6106ab61369d565b836106fd5760405162461bcd60e51b815260206004820152600d60248201527f726f6c6520697320656d7074790000000000000000000000000000000000000060448201526064015b60405180910390fd5b73ffffffffffffffffffffffffffffffffffffffff83166107605760405162461bcd60e51b815260206004820152601760248201527f6d6f64756c65206164647265737320697320656d70747900000000000000000060448201526064016106f4565b806107ad5760405162461bcd60e51b815260206004820152600f60248201527f72756c65732061726520656d707479000000000000000000000000000000000060448201526064016106f4565b60005b61ffff811682111561094a576000838361ffff84168181106107d4576107d46150f4565b90506020028101906107e69190615123565b3514156108355760405162461bcd60e51b815260206004820152601560248201527f72756c652068617320656d70747920616374696f6e000000000000000000000060448201526064016106f4565b600083838361ffff1681811061084d5761084d6150f4565b905060200281019061085f9190615123565b61086d906020810190615161565b9050116108bc5760405162461bcd60e51b815260206004820152601560248201527f72756c652068617320656d70747920746172676574000000000000000000000060448201526064016106f4565b6000838361ffff84168181106108d4576108d46150f4565b90506020028101906108e69190615123565b6060013514156109385760405162461bcd60e51b815260206004820152601560248201527f72756c652068617320656d70747920657874656e74000000000000000000000060448201526064016106f4565b80610942816151f5565b9150506107b0565b5060008473ffffffffffffffffffffffffffffffffffffffff85166040805160208101939093528201526060016040516020818303038152906040529050600060038260405161099a9190615217565b9081526040519081900360200190205411156109f85760405162461bcd60e51b815260206004820152601360248201527f726f6c6520616c7265616479206578697374730000000000000000000000000060448201526064016106f4565b60005b61ffff8116831115610a8457600382604051610a179190615217565b908152602001604051809103902084848361ffff16818110610a3b57610a3b6150f4565b9050602002810190610a4d9190615123565b815460018101835560009283526020909220909160040201610a6f8282615324565b50508080610a7c906151f5565b9150506109fb565b505050505050565b610a9461369d565b81610ae15760405162461bcd60e51b815260206004820152600e60248201527f696e76616c69642075736572496400000000000000000000000000000000000060448201526064016106f4565b610aea82613794565b8035610b385760405162461bcd60e51b815260206004820152601360248201527f757365722068617320656d70747920726f6c650000000000000000000000000060448201526064016106f4565b6000610b476040830183615161565b905011610b965760405162461bcd60e51b815260206004820152601c60248201527f757365722068617320656d7074792061757468206d657461646174610000000060448201526064016106f4565b60008281526002602052604090208190610bb08282615477565b50505050565b610bbe61369d565b73ffffffffffffffffffffffffffffffffffffffff8116610c475760405162461bcd60e51b815260206004820152603260248201527f66756e2077616c6c65743a206e657720656e74727920706f696e74206164647260448201527f6573732063616e6e6f74206265207a65726f000000000000000000000000000060648201526084016106f4565b600480547fffffffffffffffffffffffff00000000000000000000000000000000000000001673ffffffffffffffffffffffffffffffffffffffff831690811790915560405181907f450909c1478d09248269d4ad4fa8cba61ca3f50faed58c7aedefa51c7f62b83a90600090a350565b6060610cc26137ff565b610d03858585858080601f01602080910402602001604051908101604052809392919081815260200183838082843760009201919091525061389092505050565b90505b949350505050565b610d1661369d565b82610d635760405162461bcd60e51b815260206004820152600d60248201527f726f6c6520697320656d7074790000000000000000000000000000000000000060448201526064016106f4565b73ffffffffffffffffffffffffffffffffffffffff8216610dc65760405162461bcd60e51b815260206004820152601760248201527f6d6f64756c65206164647265737320697320656d70747900000000000000000060448201526064016106f4565b8035610e145760405162461bcd60e51b815260206004820152601560248201527f72756c652068617320656d70747920616374696f6e000000000000000000000060448201526064016106f4565b6000610e236020830183615161565b905011610e725760405162461bcd60e51b815260206004820152601560248201527f72756c652068617320656d70747920746172676574000000000000000000000060448201526064016106f4565b6060810135610ec35760405162461bcd60e51b815260206004820152601560248201527f72756c652068617320656d70747920657874656e74000000000000000000000060448201526064016106f4565b604080516020810185905273ffffffffffffffffffffffffffffffffffffffff8416818301528151808203830181526060909101909152610f0381613958565b600381604051610f139190615217565b9081526040516020918190038201902080546001810182556000918252919020839160040201610a848282615324565b3073ffffffffffffffffffffffffffffffffffffffff7f0000000000000000000000000000000000000000000000000000000000000000161415610fef5760405162461bcd60e51b815260206004820152602c60248201527f46756e6374696f6e206d7573742062652063616c6c6564207468726f7567682060448201527f64656c656761746563616c6c000000000000000000000000000000000000000060648201526084016106f4565b7f000000000000000000000000000000000000000000000000000000000000000073ffffffffffffffffffffffffffffffffffffffff166110647f360894a13ba1a3210667c828492db98dca3e2076cc3735a920a3ca505d382bbc5473ffffffffffffffffffffffffffffffffffffffff1690565b73ffffffffffffffffffffffffffffffffffffffff16146110ed5760405162461bcd60e51b815260206004820152602c60248201527f46756e6374696f6e206d7573742062652063616c6c6564207468726f7567682060448201527f6163746976652070726f7879000000000000000000000000000000000000000060648201526084016106f4565b6110f6816139c7565b60408051600080825260208201909252611112918391906139cf565b50565b61111d61369d565b848314801561112b57508281145b6111775760405162461bcd60e51b815260206004820152601760248201527f6461746120697320646966666572656e742073697a657300000000000000000060448201526064016106f4565b60005b858110156112dc576111ae838383818110611197576111976150f4565b90506020028101906111a99190615161565b613b9a565b156112d45760006112568888848181106111ca576111ca6150f4565b90506020020160208101906111df91906148af565b8787858181106111f1576111f16150f4565b9050602002013586868681811061120a5761120a6150f4565b905060200281019061121c9190615161565b8080601f01602080910402602001604051908101604052809392919081815260200183838082843760009201919091525061389092505050565b905080600160008a8a8681811061126f5761126f6150f4565b905060200201602081019061128491906148af565b73ffffffffffffffffffffffffffffffffffffffff1673ffffffffffffffffffffffffffffffffffffffff16815260200190815260200160002090805190602001906112d19291906145c1565b50505b60010161117a565b50505050505050565b60006112ef613c00565b6005546040517f81adfce600000000000000000000000000000000000000000000000000000000815260009173ffffffffffffffffffffffffffffffffffffffff16906381adfce6906113489088908890600401615798565b602060405180830381865afa158015611365573d6000803e3d6000fd5b505050506040513d601f19601f8201168201806040525081019061138991906157ba565b905061139481613794565b6000818152600260209081526040808320815160608101909252805482526001810154919290919083019060ff1680156113d0576113d0614d8e565b80156113de576113de614d8e565b81526020016002820180546113f290615229565b80601f016020809104026020016040519081016040528092919081815260200182805461141e90615229565b801561146b5780601f106114405761010080835404028352916020019161146b565b820191906000526020600020905b81548152906001019060200180831161144e57829003601f168201915b505050919092525050600554602083015160408085015190517fdeca388700000000000000000000000000000000000000000000000000000000815294955073ffffffffffffffffffffffffffffffffffffffff9092169363deca388793506114db92908b908b906004016157d3565b602060405180830381865afa1580156114f8573d6000803e3d6000fd5b505050506040513d601f19601f8201168201806040525081019061151c91906157ba565b9250600081600001516040518060400160405280600181526020017f2a0000000000000000000000000000000000000000000000000000000000000081525060405160200161156c929190615817565b60405160208183030381529060405290507f61646d696e0000000000000000000000000000000000000000000000000000008260000151141580156115d1575060006003826040516115be9190615217565b9081526040519081900360200190205411155b15611a04577f4789b97e000000000000000000000000000000000000000000000000000000006116046060890189615161565b61161391600491600091615830565b61161c9161585a565b7fffffffff000000000000000000000000000000000000000000000000000000001614156118915760008061165c61165760608b018b615161565b613c67565b86519294509250600091905073ffffffffffffffffffffffffffffffffffffffff8416604080516020810193909352820152606001604051602081830303815290604052905060006003826040516116b49190615217565b90815260405190819003602001902054116117115760405162461bcd60e51b815260206004820152601660248201527f75736572206973206e6f7420617574686f72697a65640000000000000000000060448201526064016106f4565b8273ffffffffffffffffffffffffffffffffffffffff166352bd4f4183600081518110611740576117406150f4565b60200260200101516003846040516117589190615217565b9081526040519081900360200181207fffffffff0000000000000000000000000000000000000000000000000000000060e085901b16825261179d92916004016158a2565b60006040518083038186803b1580156117b557600080fd5b505afa1580156117c9573d6000803e3d6000fd5b505050508273ffffffffffffffffffffffffffffffffffffffff166352bd4f41836001815181106117fc576117fc6150f4565b60200260200101516003846040516118149190615217565b9081526040519081900360200181207fffffffff0000000000000000000000000000000000000000000000000000000060e085901b16825261185992916004016158a2565b60006040518083038186803b15801561187157600080fd5b505afa158015611885573d6000803e3d6000fd5b50505050505050611a04565b6000806118a96118a460608b018b615161565b613c94565b86519294509250600091905073ffffffffffffffffffffffffffffffffffffffff8416604080516020810193909352820152606001604051602081830303815290604052905060006003826040516119019190615217565b908152604051908190036020019020541161195e5760405162461bcd60e51b815260206004820152601660248201527f75736572206973206e6f7420617574686f72697a65640000000000000000000060448201526064016106f4565b8273ffffffffffffffffffffffffffffffffffffffff166352bd4f418360038460405161198b9190615217565b9081526040519081900360200181207fffffffff0000000000000000000000000000000000000000000000000000000060e085901b1682526119d092916004016158a2565b60006040518083038186803b1580156119e857600080fd5b505afa1580156119fc573d6000803e3d6000fd5b505050505050505b611a0d85613d06565b5050509392505050565b60005462010000900460ff1615611a965760405162461bcd60e51b815260206004820152602260248201527f436f6e74726163742068617320616c7265616479206265656e206465706c6f7960448201527f656400000000000000000000000000000000000000000000000000000000000060648201526084016106f4565b611ad68383838080601f01602080910402602001604051908101604052809392919081815260200183838082843760009201829052509250613d71915050565b5050600080547fffffffffffffffffffffffffffffffffffffffffffffffffffffffffff00ffff166201000017905550565b611b1e82826000818110611197576111976150f4565b611b6a5760405162461bcd60e51b815260206004820181905260248201527f66697273742063616c6c206973206e6f7420616e20696e697420616374696f6e60448201526064016106f4565b611bad8585856000818110611b8157611b816150f4565b9050602002013584846000818110611b9b57611b9b6150f4565b90506020028101906104269190615161565b611bde8585856001818110611bc457611bc46150f4565b9050602002013584846001818110611b9b57611b9b6150f4565b5050505050565b3073ffffffffffffffffffffffffffffffffffffffff7f0000000000000000000000000000000000000000000000000000000000000000161415611c915760405162461bcd60e51b815260206004820152602c60248201527f46756e6374696f6e206d7573742062652063616c6c6564207468726f7567682060448201527f64656c656761746563616c6c000000000000000000000000000000000000000060648201526084016106f4565b7f000000000000000000000000000000000000000000000000000000000000000073ffffffffffffffffffffffffffffffffffffffff16611d067f360894a13ba1a3210667c828492db98dca3e2076cc3735a920a3ca505d382bbc5473ffffffffffffffffffffffffffffffffffffffff1690565b73ffffffffffffffffffffffffffffffffffffffff1614611d8f5760405162461bcd60e51b815260206004820152602c60248201527f46756e6374696f6e206d7573742062652063616c6c6564207468726f7567682060448201527f6163746976652070726f7879000000000000000000000000000000000000000060648201526084016106f4565b611d98826139c7565b611da4828260016139cf565b5050565b60003073ffffffffffffffffffffffffffffffffffffffff7f00000000000000000000000000000000000000000000000000000000000000001614611e555760405162461bcd60e51b815260206004820152603860248201527f555550535570677261646561626c653a206d757374206e6f742062652063616c60448201527f6c6564207468726f7567682064656c656761746563616c6c000000000000000060648201526084016106f4565b507f360894a13ba1a3210667c828492db98dca3e2076cc3735a920a3ca505d382bbc90565b611e8261369d565b6000611ec5858585858080601f01602080910402602001604051908101604052809392919081815260200183838082843760009201919091525061389092505050565b73ffffffffffffffffffffffffffffffffffffffff861660009081526001602090815260409091208251929350610a849290918401906145c1565b606082611f4f5760405162461bcd60e51b815260206004820152600d60248201527f726f6c6520697320656d7074790000000000000000000000000000000000000060448201526064016106f4565b73ffffffffffffffffffffffffffffffffffffffff8216611fb25760405162461bcd60e51b815260206004820152601760248201527f6d6f64756c65206164647265737320697320656d70747900000000000000000060448201526064016106f4565b604080516020810185905273ffffffffffffffffffffffffffffffffffffffff84168183015281518082038301815260609091019182905290600390611ff9908390615217565b9081526020016040518091039020805480602002602001604051908101604052809291908181526020016000905b8282101561213257838290600052602060002090600402016040518060800160405290816000820154815260200160018201805461206490615229565b80601f016020809104026020016040519081016040528092919081815260200182805461209090615229565b80156120dd5780601f106120b2576101008083540402835291602001916120dd565b820191906000526020600020905b8154815290600101906020018083116120c057829003601f168201915b5050509183525050600282015460209091019060ff16600681111561210457612104614d8e565b600681111561211557612115614d8e565b815260200160038201548152505081526020019060010190612027565b5050505091505092915050565b61214761369d565b806121945760405162461bcd60e51b815260206004820152600e60248201527f696e76616c69642075736572496400000000000000000000000000000000000060448201526064016106f4565b600081815260026020819052604082208281556001810180547fffffffffffffffffffffffffffffffffffffffffffffffffffffffffffffff0016905591906121df90830182614645565b505050565b604080516060808201835260008083526020830152918101919091528161224d5760405162461bcd60e51b815260206004820152600e60248201527f696e76616c69642075736572496400000000000000000000000000000000000060448201526064016106f4565b600082815260026020908152604091829020825160608101909352805483526001810154909183019060ff16801561228757612287614d8e565b801561229557612295614d8e565b81526020016002820180546122a990615229565b80601f01602080910402602001604051908101604052809291908181526020018280546122d590615229565b80156123225780601f106122f757610100808354040283529160200191612322565b820191906000526020600020905b81548152906001019060200180831161230557829003601f168201915b5050505050815250509050919050565b61233f8686868686611b08565b610a8481613d96565b61235485858585611e7a565b611bde81613d96565b600054610100900460ff161580801561237d5750600054600160ff909116105b806123975750303b158015612397575060005460ff166001145b6124095760405162461bcd60e51b815260206004820152602e60248201527f496e697469616c697a61626c653a20636f6e747261637420697320616c72656160448201527f647920696e697469616c697a656400000000000000000000000000000000000060648201526084016106f4565b600080547fffffffffffffffffffffffffffffffffffffffffffffffffffffffffffffff00166001179055801561246757600080547fffffffffffffffffffffffffffffffffffffffffffffffffffffffffffff00ff166101001790555b73ffffffffffffffffffffffffffffffffffffffff85166124ca5760405162461bcd60e51b815260206004820152601260248201527f496e76616c696420456e747279706f696e74000000000000000000000000000060448201526064016106f4565b6004805473ffffffffffffffffffffffffffffffffffffffff8088167fffffffffffffffffffffffff000000000000000000000000000000000000000092831617909255600580549287169290911691909117905561252b6006848461467f565b5060005b61ffff81168311156126a957604080516060810182527f61646d696e000000000000000000000000000000000000000000000000000000815260006020820152908101858561ffff8516818110612588576125886150f4565b905060200201602081019061259d91906148af565b6040805173ffffffffffffffffffffffffffffffffffffffff9092166020830152016040516020818303038152906040528152506002600061261c87878661ffff168181106125ee576125ee6150f4565b905060200201602081019061260391906148af565b73ffffffffffffffffffffffffffffffffffffffff1690565b815260208082019290925260400160002082518155908201516001808301805490917fffffffffffffffffffffffffffffffffffffffffffffffffffffffffffffff009091169083801561267257612672614d8e565b0217905550604082015180516126929160028401916020909101906145c1565b5090505080806126a1906151f5565b91505061252f565b5060007f61646d696e0000000000000000000000000000000000000000000000000000006040518060400160405280600181526020017f2a00000000000000000000000000000000000000000000000000000000000000815250604051602001612714929190615817565b60405160208183030381529060405290506003816040516127359190615217565b908152602001604051809103902060405180608001604052807f2a0000000000000000000000000000000000000000000000000000000000000081526020016040518060400160405280600181526020017f2a0000000000000000000000000000000000000000000000000000000000000081525081526020016006808111156127c1576127c1614d8e565b81527f2a00000000000000000000000000000000000000000000000000000000000000602091820152825460018181018555600094855293829020835160049092020190815582820151805193949193612823939285019291909101906145c1565b5060408201516002820180547fffffffffffffffffffffffffffffffffffffffffffffffffffffffffffffff0016600183600681111561286557612865614d8e565b0217905550606082015181600301555050508015611bde57600080547fffffffffffffffffffffffffffffffffffffffffffffffffffffffffffff00ff169055604051600181527f7f26b83ff96e1f2b6a682f133852f6798a09c465da95921460cefb38474024989060200160405180910390a15050505050565b6128e861369d565b73ffffffffffffffffffffffffffffffffffffffff81166129715760405162461bcd60e51b815260206004820152603260248201527f66756e2077616c6c65743a206e657720656e74727920706f696e74206164647260448201527f6573732063616e6e6f74206265207a65726f000000000000000000000000000060648201526084016106f4565b600580547fffffffffffffffffffffffff00000000000000000000000000000000000000001673ffffffffffffffffffffffffffffffffffffffff831690811790915560405181907f34a5e38fc8fe74f12b269fe92e724092f7f531dc4985c88fb113460cfcb5f67d90600090a350565b6129ea61369d565b82612a375760405162461bcd60e51b815260206004820152600d60248201527f726f6c6520697320656d7074790000000000000000000000000000000000000060448201526064016106f4565b73ffffffffffffffffffffffffffffffffffffffff8216612a9a5760405162461bcd60e51b815260206004820152601760248201527f6d6f64756c65206164647265737320697320656d70747900000000000000000060448201526064016106f4565b8035612ae85760405162461bcd60e51b815260206004820152601560248201527f72756c652068617320656d70747920616374696f6e000000000000000000000060448201526064016106f4565b6000612af76020830183615161565b905011612b465760405162461bcd60e51b815260206004820152601560248201527f72756c652068617320656d70747920746172676574000000000000000000000060448201526064016106f4565b6060810135612b975760405162461bcd60e51b815260206004820152601560248201527f72756c652068617320656d70747920657874656e74000000000000000000000060448201526064016106f4565b604080516020810185905273ffffffffffffffffffffffffffffffffffffffff8416818301528151808203830181526060909101909152612bd781613958565b6000600382604051612be99190615217565b9081526020016040518091039020805480602002602001604051908101604052809291908181526020016000905b82821015612d22578382906000526020600020906004020160405180608001604052908160008201548152602001600182018054612c5490615229565b80601f0160208091040260200160405190810160405280929190818152602001828054612c8090615229565b8015612ccd5780601f10612ca257610100808354040283529160200191612ccd565b820191906000526020600020905b815481529060010190602001808311612cb057829003601f168201915b5050509183525050600282015460209091019060ff166006811115612cf457612cf4614d8e565b6006811115612d0557612d05614d8e565b815260200160038201548152505081526020019060010190612c17565b5050505090506000838060200190612d3a9190615161565b612d4a60608701604088016159f0565b8660600135604051602001612d629493929190615a24565b60405160208183030381529060405280519060200120905060005b600384604051612d8d9190615217565b9081526040519081900360200190205461ffff821610156112dc576000838261ffff1681518110612dc057612dc06150f4565b602002602001015160200151848361ffff1681518110612de257612de26150f4565b602002602001015160400151858461ffff1681518110612e0457612e046150f4565b602002602001015160600151604051602001612e2293929190615a4f565b60405160208183030381529060405280519060200120905080831415612fce578360018551612e519190615a80565b81518110612e6157612e616150f4565b6020026020010151600386604051612e799190615217565b90815260200160405180910390208361ffff1681548110612e9c57612e9c6150f4565b9060005260206000209060040201600082015181600001556020820151816001019080519060200190612ed09291906145c1565b5060408201516002820180547fffffffffffffffffffffffffffffffffffffffffffffffffffffffffffffff00166001836006811115612f1257612f12614d8e565b021790555060609190910151600391820155604051612f32908790615217565b9081526020016040518091039020805480612f4f57612f4f615a97565b60008281526020812060047fffffffffffffffffffffffffffffffffffffffffffffffffffffffffffffffff9093019283020181815590612f936001830182614645565b506002810180547fffffffffffffffffffffffffffffffffffffffffffffffffffffffffffffff0016905560006003909101559055506112dc565b5080612fd9816151f5565b915050612d7d565b60068181548110612ff157600080fd5b60009182526020909120015473ffffffffffffffffffffffffffffffffffffffff16905081565b613020614088565b804710156130965760405162461bcd60e51b815260206004820152602a60248201527f66756e2077616c6c65743a206e6f7420656e6f75676820657468657220696e2060448201527f7468652077616c6c65740000000000000000000000000000000000000000000060648201526084016106f4565b600480546040517fb760faf9000000000000000000000000000000000000000000000000000000008152309281019290925273ffffffffffffffffffffffffffffffffffffffff169063b760faf990602401600060405180830381600087803b15801561310257600080fd5b505af1158015611bde573d6000803e3d6000fd5b600480546040517f70a08231000000000000000000000000000000000000000000000000000000008152309281019290925260009173ffffffffffffffffffffffffffffffffffffffff909116906370a0823190602401602060405180830381865afa15801561318a573d6000803e3d6000fd5b505050506040513d601f19601f820116820180604052508101906131ae91906157ba565b905090565b6131bb614088565b73ffffffffffffffffffffffffffffffffffffffff82166132445760405162461bcd60e51b815260206004820152602b60248201527f66756e2077616c6c65743a20776974686472617720616464726573732063616e60448201527f6e6f74206265207a65726f00000000000000000000000000000000000000000060648201526084016106f4565b600480546040517f205c287800000000000000000000000000000000000000000000000000000000815273ffffffffffffffffffffffffffffffffffffffff858116938201939093526024810184905291169063205c287890604401600060405180830381600087803b1580156132ba57600080fd5b505af1158015610a84573d6000803e3d6000fd5b6132d661369d565b73ffffffffffffffffffffffffffffffffffffffff811661335f5760405162461bcd60e51b815260206004820152602d60248201527f66756e2077616c6c65743a206e6577206d6f64756c652061646472657373206360448201527f616e6e6f74206265207a65726f0000000000000000000000000000000000000060648201526084016106f4565b8173ffffffffffffffffffffffffffffffffffffffff168173ffffffffffffffffffffffffffffffffffffffff1614156134015760405162461bcd60e51b815260206004820152603e60248201527f66756e2077616c6c65743a206e6577206d6f64756c652061646472657373206360448201527f616e6e6f7420626520657175616c20746f2070726576696f7573206f6e65000060648201526084016106f4565b73ffffffffffffffffffffffffffffffffffffffff80831660009081526001602052604080822092841682529020815490919061343d90615229565b6134489291906146f7565b5073ffffffffffffffffffffffffffffffffffffffff8216600090815260016020526040812061347791614645565b8073ffffffffffffffffffffffffffffffffffffffff168273ffffffffffffffffffffffffffffffffffffffff167fdcbf4cc8a7afc3fe6e403a57745b98188844fdfee49c8752ae30fc46b3a39ebb60405160405180910390a35050565b73ffffffffffffffffffffffffffffffffffffffff8116600090815260016020526040902080546060919061350990615229565b80601f016020809104026020016040519081016040528092919081815260200182805461353590615229565b80156135825780601f1061355757610100808354040283529160200191613582565b820191906000526020600020905b81548152906001019060200180831161356557829003601f168201915b50505050509050919050565b61359661369d565b816135e35760405162461bcd60e51b815260206004820152600e60248201527f696e76616c69642075736572496400000000000000000000000000000000000060448201526064016106f4565b600082815260026020819052604082200180546135ff90615229565b9050111561364f5760405162461bcd60e51b815260206004820152601360248201527f7573657220616c7265616479206578697374730000000000000000000000000060448201526064016106f4565b8035610b385760405162461bcd60e51b815260206004820152601460248201527f757365722068617320656d70747920726f6c657300000000000000000000000060448201526064016106f4565b60045473ffffffffffffffffffffffffffffffffffffffff163314156136bf57565b60005b60065461ffff821610156137255760068161ffff16815481106136e7576136e76150f4565b60009182526020909120015473ffffffffffffffffffffffffffffffffffffffff163314156137135750565b8061371d816151f5565b9150506136c2565b5060405162461bcd60e51b815260206004820152602860248201527f66756e2077616c6c65743a206e6f742066726f6d20456e747279506f696e742060448201527f6f72206f776e657200000000000000000000000000000000000000000000000060648201526084016106f4565b600081815260026020819052604082200180546137b090615229565b9050116111125760405162461bcd60e51b815260206004820152601f60248201527f66756e2077616c6c65743a207573657220646f6573206e6f742065786973740060448201526064016106f4565b336000908152600160205260408120805461381990615229565b90501161388e5760405162461bcd60e51b815260206004820152602360248201527f66756e2077616c6c65743a206e6f742066726f6d2061206b6e6f776e204d6f6460448201527f756c65000000000000000000000000000000000000000000000000000000000060648201526084016106f4565b565b60606000808573ffffffffffffffffffffffffffffffffffffffff1685856040516138bb9190615217565b60006040518083038185875af1925050503d80600081146138f8576040519150601f19603f3d011682016040523d82523d6000602084013e6138fd565b606091505b50915091508161394f5760405162461bcd60e51b815260206004820181905260248201527f66756e2077616c6c65743a2065787465726e616c2063616c6c206661696c656460448201526064016106f4565b95945050505050565b600060038260405161396a9190615217565b90815260405190819003602001902054116111125760405162461bcd60e51b815260206004820152601f60248201527f66756e2077616c6c65743a20726f6c6520646f6573206e6f742065786973740060448201526064016106f4565b61111261369d565b7f4910fdfa16fed3260ed0e7147f7cc6da11a60208b5b9406d12a635614ffd91435460ff1615613a02576121df83614141565b8273ffffffffffffffffffffffffffffffffffffffff166352d1902d6040518163ffffffff1660e01b8152600401602060405180830381865afa925050508015613a87575060408051601f3d9081017fffffffffffffffffffffffffffffffffffffffffffffffffffffffffffffffe0168201909252613a84918101906157ba565b60015b613af95760405162461bcd60e51b815260206004820152602e60248201527f45524331393637557067726164653a206e657720696d706c656d656e7461746960448201527f6f6e206973206e6f74205555505300000000000000000000000000000000000060648201526084016106f4565b7f360894a13ba1a3210667c828492db98dca3e2076cc3735a920a3ca505d382bbc8114613b8e5760405162461bcd60e51b815260206004820152602960248201527f45524331393637557067726164653a20756e737570706f727465642070726f7860448201527f6961626c6555554944000000000000000000000000000000000000000000000060648201526084016106f4565b506121df838383613d71565b600080613baa6004828587615830565b613bb39161585a565b7fffffffff00000000000000000000000000000000000000000000000000000000167f4ddf47d4000000000000000000000000000000000000000000000000000000001491505092915050565b60045473ffffffffffffffffffffffffffffffffffffffff16331461388e5760405162461bcd60e51b815260206004820152601f60248201527f66756e2077616c6c65743a206e6f742066726f6d20456e747279506f696e740060448201526064016106f4565b6000606080613c798460048188615830565b810190613c869190615b7a565b919790965090945092505050565b6000806060613ca68460048188615830565b810190613cb3919061509a565b9093509150613cc58460c88188615830565b8080601f0160208091040260200160405190810160405280939291908181526020018383808284376000920191909152509598949750919550929350505050565b80156111125760405160009033907fffffffffffffffffffffffffffffffffffffffffffffffffffffffffffffffff90849084818181858888f193505050503d8060008114611bde576040519150601f19603f3d011682016040523d82523d6000602084013e611bde565b613d7a83614231565b600082511180613d875750805b156121df57610bb0838361427e565b600080826040015173ffffffffffffffffffffffffffffffffffffffff1663fcee45f484606001516040518263ffffffff1660e01b8152600401613ddc91815260200190565b6040805180830381865afa158015613df8573d6000803e3d6000fd5b505050506040513d601f19601f82011682018060405250810190613e1c9190615c47565b8451919350915073ffffffffffffffffffffffffffffffffffffffff16613e5957613e4b8360200151826142aa565b6121df8360400151836142aa565b825160208401516040517fa9059cbb00000000000000000000000000000000000000000000000000000000815273ffffffffffffffffffffffffffffffffffffffff918216600482015260248101849052600092919091169063a9059cbb906044016020604051808303816000875af1158015613eda573d6000803e3d6000fd5b505050506040513d601f19601f82011682018060405250810190613efe9190615c6b565b905080613f735760405162461bcd60e51b815260206004820152602160248201527f66756e2077616c6c65743a204552433230207472616e73666572206661696c6560448201527f640000000000000000000000000000000000000000000000000000000000000060648201526084016106f4565b835160408086015190517fa9059cbb00000000000000000000000000000000000000000000000000000000815273ffffffffffffffffffffffffffffffffffffffff91821660048201526024810186905291169063a9059cbb906044016020604051808303816000875af1158015613fef573d6000803e3d6000fd5b505050506040513d601f19601f820116820180604052508101906140139190615c6b565b905080610bb05760405162461bcd60e51b815260206004820152602160248201527f66756e2077616c6c65743a204552433230207472616e73666572206661696c6560448201527f640000000000000000000000000000000000000000000000000000000000000060648201526084016106f4565b3330141561409257565b60005b60065461ffff821610156140f85760068161ffff16815481106140ba576140ba6150f4565b60009182526020909120015473ffffffffffffffffffffffffffffffffffffffff163314156140e65750565b806140f0816151f5565b915050614095565b5060405162461bcd60e51b815260206004820152601a60248201527f66756e2077616c6c65743a206e6f742066726f6d204f776e657200000000000060448201526064016106f4565b73ffffffffffffffffffffffffffffffffffffffff81163b6141cb5760405162461bcd60e51b815260206004820152602d60248201527f455243313936373a206e657720696d706c656d656e746174696f6e206973206e60448201527f6f74206120636f6e74726163740000000000000000000000000000000000000060648201526084016106f4565b7f360894a13ba1a3210667c828492db98dca3e2076cc3735a920a3ca505d382bbc80547fffffffffffffffffffffffff00000000000000000000000000000000000000001673ffffffffffffffffffffffffffffffffffffffff92909216919091179055565b61423a81614141565b60405173ffffffffffffffffffffffffffffffffffffffff8216907fbc7cd75a20ee27fd9adebab32041f755214dbc6bffa90cc0225b39da2e5c2d3b90600090a250565b60606142a38383604051806060016040528060278152602001615c8e602791396142c6565b9392505050565b804710156142bc57611da4828261434b565b611da48282614444565b60606000808573ffffffffffffffffffffffffffffffffffffffff16856040516142f09190615217565b600060405180830381855af49150503d806000811461432b576040519150601f19603f3d011682016040523d82523d6000602084013e614330565b606091505b509150915061434186838387614519565b9695505050505050565b600480546040517f205c287800000000000000000000000000000000000000000000000000000000815273ffffffffffffffffffffffffffffffffffffffff858116938201939093526024810184905291169063205c287890604401600060405180830381600087803b1580156143c157600080fd5b505af19250505080156143d2575060015b611da45760405162461bcd60e51b815260206004820152602b60248201527f66756e2077616c6c65743a20656e747279706f696e74207472616e736665722060448201527f657468206661696c65642000000000000000000000000000000000000000000060648201526084016106f4565b60008273ffffffffffffffffffffffffffffffffffffffff168260405160006040518083038185875af1925050503d806000811461449e576040519150601f19603f3d011682016040523d82523d6000602084013e6144a3565b606091505b50509050806121df5760405162461bcd60e51b8152602060048201526024808201527f66756e2077616c6c65743a2074686973207472616e736665722065746820666160448201527f696c65640000000000000000000000000000000000000000000000000000000060648201526084016106f4565b6060831561459257825161458b5773ffffffffffffffffffffffffffffffffffffffff85163b61458b5760405162461bcd60e51b815260206004820152601d60248201527f416464726573733a2063616c6c20746f206e6f6e2d636f6e747261637400000060448201526064016106f4565b5081610d06565b610d0683838151156145a75781518083602001fd5b8060405162461bcd60e51b81526004016106f491906149d4565b8280546145cd90615229565b90600052602060002090601f0160209004810192826145ef5760008555614635565b82601f1061460857805160ff1916838001178555614635565b82800160010185558215614635579182015b8281111561463557825182559160200191906001019061461a565b50614641929150614772565b5090565b50805461465190615229565b6000825580601f10614661575050565b601f0160209004906000526020600020908101906111129190614772565b828054828255906000526020600020908101928215614635579160200282015b828111156146355781547fffffffffffffffffffffffff00000000000000000000000000000000000000001673ffffffffffffffffffffffffffffffffffffffff84351617825560209092019160019091019061469f565b82805461470390615229565b90600052602060002090601f0160209004810192826147255760008555614635565b82601f106147365780548555614635565b8280016001018555821561463557600052602060002091601f016020900482015b82811115614635578254825591600101919060010190614757565b5b808211156146415760008155600101614773565b73ffffffffffffffffffffffffffffffffffffffff8116811461111257600080fd5b80356147b481614787565b919050565b60008083601f8401126147cb57600080fd5b50813567ffffffffffffffff8111156147e357600080fd5b6020830191508360208260051b85010111156147fe57600080fd5b9250929050565b6000806000806060858703121561481b57600080fd5b84359350602085013561482d81614787565b9250604085013567ffffffffffffffff81111561484957600080fd5b614855878288016147b9565b95989497509550505050565b6000806040838503121561487457600080fd5b82359150602083013567ffffffffffffffff81111561489257600080fd5b8301606081860312156148a457600080fd5b809150509250929050565b6000602082840312156148c157600080fd5b81356142a381614787565b60008083601f8401126148de57600080fd5b50813567ffffffffffffffff8111156148f657600080fd5b6020830191508360208285010111156147fe57600080fd5b6000806000806060858703121561492457600080fd5b843561492f81614787565b935060208501359250604085013567ffffffffffffffff81111561495257600080fd5b614855878288016148cc565b60005b83811015614979578181015183820152602001614961565b83811115610bb05750506000910152565b600081518084526149a281602086016020860161495e565b601f017fffffffffffffffffffffffffffffffffffffffffffffffffffffffffffffffe0169290920160200192915050565b6020815260006142a3602083018461498a565b6000806000606084860312156149fc57600080fd5b833592506020840135614a0e81614787565b9150604084013567ffffffffffffffff811115614a2a57600080fd5b840160808187031215614a3c57600080fd5b809150509250925092565b60008060008060008060608789031215614a6057600080fd5b863567ffffffffffffffff80821115614a7857600080fd5b614a848a838b016147b9565b90985096506020890135915080821115614a9d57600080fd5b614aa98a838b016147b9565b90965094506040890135915080821115614ac257600080fd5b50614acf89828a016147b9565b979a9699509497509295939492505050565b600080600060608486031215614af657600080fd5b833567ffffffffffffffff811115614b0d57600080fd5b84016101608187031215614b2057600080fd5b95602085013595506040909401359392505050565b600080600060408486031215614b4a57600080fd5b8335614b5581614787565b9250602084013567ffffffffffffffff811115614b7157600080fd5b614b7d868287016148cc565b9497909650939450505050565b600080600080600060608688031215614ba257600080fd5b8535614bad81614787565b9450602086013567ffffffffffffffff80821115614bca57600080fd5b614bd689838a016147b9565b90965094506040880135915080821115614bef57600080fd5b50614bfc888289016147b9565b969995985093965092949392505050565b7f4e487b7100000000000000000000000000000000000000000000000000000000600052604160045260246000fd5b604051601f82017fffffffffffffffffffffffffffffffffffffffffffffffffffffffffffffffe016810167ffffffffffffffff81118282101715614c8357614c83614c0d565b604052919050565b600082601f830112614c9c57600080fd5b813567ffffffffffffffff811115614cb657614cb6614c0d565b614ce760207fffffffffffffffffffffffffffffffffffffffffffffffffffffffffffffffe0601f84011601614c3c565b818152846020838601011115614cfc57600080fd5b816020850160208301376000918101602001919091529392505050565b60008060408385031215614d2c57600080fd5b8235614d3781614787565b9150602083013567ffffffffffffffff811115614d5357600080fd5b614d5f85828601614c8b565b9150509250929050565b60008060408385031215614d7c57600080fd5b8235915060208301356148a481614787565b7f4e487b7100000000000000000000000000000000000000000000000000000000600052602160045260246000fd5b60078110614dcd57614dcd614d8e565b9052565b60006020808301818452808551808352604092508286019150828160051b87010184880160005b83811015614e76577fffffffffffffffffffffffffffffffffffffffffffffffffffffffffffffffc0898403018552815160808151855288820151818a870152614e448287018261498a565b91505087820151614e5789870182614dbd565b5060609182015194909101939093529386019390860190600101614df8565b509098975050505050505050565b600060208284031215614e9657600080fd5b5035919050565b60018110614dcd57614dcd614d8e565b602081528151602082015260006020830151614ecc6040840182614e9d565b506040830151606080840152610d06608084018261498a565b600060808284031215614ef757600080fd5b6040516080810181811067ffffffffffffffff82111715614f1a57614f1a614c0d565b6040529050808235614f2b81614787565b81526020830135614f3b81614787565b60208201526040830135614f4e81614787565b6040820152606092830135920191909152919050565b60008060008060008060e08789031215614f7d57600080fd5b8635614f8881614787565b9550602087013567ffffffffffffffff80821115614fa557600080fd5b614fb18a838b016147b9565b90975095506040890135915080821115614fca57600080fd5b50614fd789828a016147b9565b9094509250614feb90508860608901614ee5565b90509295509295509295565b600080600080600060e0868803121561500f57600080fd5b853561501a81614787565b945060208601359350604086013567ffffffffffffffff81111561503d57600080fd5b615049888289016148cc565b909450925061505d90508760608801614ee5565b90509295509295909350565b6000806000806060858703121561507f57600080fd5b843561508a81614787565b9350602085013561482d81614787565b600080604083850312156150ad57600080fd5b82356150b881614787565b946020939093013593505050565b600080604083850312156150d957600080fd5b82356150e481614787565b915060208301356148a481614787565b7f4e487b7100000000000000000000000000000000000000000000000000000000600052603260045260246000fd5b600082357fffffffffffffffffffffffffffffffffffffffffffffffffffffffffffffff8183360301811261515757600080fd5b9190910192915050565b60008083357fffffffffffffffffffffffffffffffffffffffffffffffffffffffffffffffe184360301811261519657600080fd5b83018035915067ffffffffffffffff8211156151b157600080fd5b6020019150368190038213156147fe57600080fd5b7f4e487b7100000000000000000000000000000000000000000000000000000000600052601160045260246000fd5b600061ffff8083168181141561520d5761520d6151c6565b6001019392505050565b6000825161515781846020870161495e565b600181811c9082168061523d57607f821691505b60208210811415615277577f4e487b7100000000000000000000000000000000000000000000000000000000600052602260045260246000fd5b50919050565b601f8211156121df57600081815260208120601f850160051c810160208610156152a45750805b601f850160051c820191505b81811015610a84578281556001016152b0565b6007811061111257600080fd5b600081356152dd816152c3565b92915050565b600782106152f3576152f3614d8e565b7fffffffffffffffffffffffffffffffffffffffffffffffffffffffffffffff0081541660ff831681178255505050565b813581556001808201602061533b81860186615161565b67ffffffffffffffff81111561535357615353614c0d565b615367816153618654615229565b8661527d565b6000601f8211600181146153b957600083156153835750838201355b7fffffffffffffffffffffffffffffffffffffffffffffffffffffffffffffffff600385901b1c1916600184901b17865561544a565b6000868152602090207fffffffffffffffffffffffffffffffffffffffffffffffffffffffffffffffe0841690835b8281101561540557868501358255938701939089019087016153e8565b5084821015615440577fffffffffffffffffffffffffffffffffffffffffffffffffffffffffffffffff60f88660031b161c19848701351681555b50508683881b0186555b50505050505050615469615460604084016152d0565b600283016152e3565b606082013560038201555050565b81358155600180820160208085013583811061549257600080fd5b7fffffffffffffffffffffffffffffffffffffffffffffffffffffffffffffff0083541660ff82168117845550506002840191506154d36040860186615161565b67ffffffffffffffff8111156154eb576154eb614c0d565b6154f9816153618654615229565b6000601f82116001811461554b57600083156155155750838201355b7fffffffffffffffffffffffffffffffffffffffffffffffffffffffffffffffff600385901b1c1916600184901b1786556155dc565b6000868152602090207fffffffffffffffffffffffffffffffffffffffffffffffffffffffffffffffe0841690835b82811015615597578685013582559387019390890190870161557a565b50848210156155d2577fffffffffffffffffffffffffffffffffffffffffffffffffffffffffffffffff60f88660031b161c19848701351681555b50508683881b0186555b505050505050505050565b60008083357fffffffffffffffffffffffffffffffffffffffffffffffffffffffffffffffe184360301811261561c57600080fd5b830160208101925035905067ffffffffffffffff81111561563c57600080fd5b8036038313156147fe57600080fd5b8183528181602085013750600060208284010152600060207fffffffffffffffffffffffffffffffffffffffffffffffffffffffffffffffe0601f840116840101905092915050565b60006101606156c0846156a6856147a9565b73ffffffffffffffffffffffffffffffffffffffff169052565b602083013560208501526156d760408401846155e7565b8260408701526156ea838701828461564b565b925050506156fb60608401846155e7565b858303606087015261570e83828461564b565b925050506080830135608085015260a083013560a085015260c083013560c085015260e083013560e0850152610100808401358186015250610120615755818501856155e7565b8684038388015261576784828461564b565b935050505061014061577b818501856155e7565b8684038388015261578d84828461564b565b979650505050505050565b6040815260006157ab6040830185615694565b90508260208301529392505050565b6000602082840312156157cc57600080fd5b5051919050565b6157dd8186614e9d565b6080602082015260006157f3608083018661498a565b82810360408401526158058186615694565b91505082606083015295945050505050565b828152604060208201526000610d06604083018461498a565b6000808585111561584057600080fd5b8386111561584d57600080fd5b5050820193919092039150565b7fffffffff00000000000000000000000000000000000000000000000000000000813581811691600485101561589a5780818660040360031b1b83161692505b505092915050565b600060408083526158b58184018661498a565b6020848203818601528186548084528284019150828160051b8501016000898152848120815b848110156159df577fffffffffffffffffffffffffffffffffffffffffffffffffffffffffffffffe08885030186526080825485526001808401828a88015285815461592681615229565b94890185905260a09481851680156159455760018114615977576159a2565b7fffffffffffffffffffffffffffffffffffffffffffffffffffffffffffffff008316878c015260c08b0193506159a2565b848a528d8a208a5b8381101561599a5781548d82018a0152908701908f0161597f565b8c0188019450505b505050600286015460ff1693506159bb8d890185614dbd565b600386015460609890980197909752505050948601946004909101906001016158db565b50919b9a5050505050505050505050565b600060208284031215615a0257600080fd5b81356142a3816152c3565b60078110615a1d57615a1d614d8e565b60f81b9052565b83858237600084820160008152615a3b8186615a0d565b600181019390935250506021019392505050565b60008451615a6181846020890161495e565b8201615a6d8186615a0d565b6001810193909352505060210192915050565b600082821015615a9257615a926151c6565b500390565b7f4e487b7100000000000000000000000000000000000000000000000000000000600052603160045260246000fd5b600067ffffffffffffffff821115615ae057615ae0614c0d565b5060051b60200190565b600082601f830112615afb57600080fd5b81356020615b10615b0b83615ac6565b614c3c565b82815260059290921b84018101918181019086841115615b2f57600080fd5b8286015b84811015615b6f57803567ffffffffffffffff811115615b535760008081fd5b615b618986838b0101614c8b565b845250918301918301615b33565b509695505050505050565b600080600060608486031215615b8f57600080fd5b8335615b9a81614787565b925060208481013567ffffffffffffffff80821115615bb857600080fd5b818701915087601f830112615bcc57600080fd5b8135615bda615b0b82615ac6565b81815260059190911b8301840190848101908a831115615bf957600080fd5b938501935b82851015615c1757843582529385019390850190615bfe565b965050506040870135925080831115615c2f57600080fd5b5050615c3d86828701615aea565b9150509250925092565b60008060408385031215615c5a57600080fd5b505080516020909101519092909150565b600060208284031215615c7d57600080fd5b815180151581146142a357600080fdfe416464726573733a206c6f772d6c6576656c2064656c65676174652063616c6c206661696c6564a26469706673582212207a210e9980e90d01cef6b299336955e9e4510550691bbd372564980d36ff431564736f6c634300080c0033","linkReferences":{},"deployedLinkReferences":{}}