{"_format":"hh-sol-artifact-1","contractName":"FunWalletFactory","sourceName":"contracts/deployer/FunWalletFactory.sol","abi":[{"inputs":[],"stateMutability":"nonpayable","type":"constructor"},{"inputs":[{"internalType":"bytes","name":"initializerCallData","type":"bytes"},{"internalType":"address","name":"implementation","type":"address"},{"internalType":"bytes32","name":"salt","type":"bytes32"}],"name":"createAccount","outputs":[{"internalType":"contract FunWallet","name":"funWallet","type":"address"}],"stateMutability":"nonpayable","type":"function"},{"inputs":[],"name":"funWalletImpAddress","outputs":[{"internalType":"address","name":"","type":"address"}],"stateMutability":"view","type":"function"},{"inputs":[{"internalType":"bytes32","name":"salt","type":"bytes32"}],"name":"getAddress","outputs":[{"internalType":"address","name":"","type":"address"}],"stateMutability":"view","type":"function"}],"bytecode":"0x60a060405234801561001057600080fd5b5060405161001d9061004b565b604051809103906000f080158015610039573d6000803e3d6000fd5b506001600160a01b0316608052610058565b615fe780610d7583390190565b608051610cee61008760003960008181609a01528181610107015281816101e501526102860152610cee6000f3fe608060405234801561001057600080fd5b50600436106100415760003560e01c806321f8a72114610046578063780c11f0146100825780638bb0862014610095575b600080fd5b610059610054366004610388565b6100bc565b60405173ffffffffffffffffffffffffffffffffffffffff909116815260200160405180910390f35b6100596100903660046103a1565b6101ac565b6100597f000000000000000000000000000000000000000000000000000000000000000081565b60006101a682604051806020016100d29061037b565b7fffffffffffffffffffffffffffffffffffffffffffffffffffffffffffffffe082820381018352601f9091011660408181527f000000000000000000000000000000000000000000000000000000000000000073ffffffffffffffffffffffffffffffffffffffff1660208301528082015260006060820152608001604080517fffffffffffffffffffffffffffffffffffffffffffffffffffffffffffffffe08184030181529082905261018b929160200161047e565b6040516020818303038152906040528051906020012061033d565b92915050565b6000806101b8836100bc565b905073ffffffffffffffffffffffffffffffffffffffff81163b80156101e057509050610335565b6000847f00000000000000000000000000000000000000000000000000000000000000006040516102109061037b565b73ffffffffffffffffffffffffffffffffffffffff90911681526040602082018190526000908201526060018190604051809103906000f590508015801561025c573d6000803e3d6000fd5b50935083905073ffffffffffffffffffffffffffffffffffffffff86161561028457856102a6565b7f00000000000000000000000000000000000000000000000000000000000000005b6040517f4192d25100000000000000000000000000000000000000000000000000000000815290965073ffffffffffffffffffffffffffffffffffffffff851690634192d251906102ff9089908c908c90600401610493565b600060405180830381600087803b15801561031957600080fd5b505af115801561032d573d6000803e3d6000fd5b505050505050505b949350505050565b600061034a838330610351565b9392505050565b6000604051836040820152846020820152828152600b8101905060ff815360559020949350505050565b6107bb806104fe83390190565b60006020828403121561039a57600080fd5b5035919050565b600080600080606085870312156103b757600080fd5b843567ffffffffffffffff808211156103cf57600080fd5b818701915087601f8301126103e357600080fd5b8135818111156103f257600080fd5b88602082850101111561040457600080fd5b6020928301965094505085013573ffffffffffffffffffffffffffffffffffffffff8116811461043357600080fd5b9396929550929360400135925050565b6000815160005b81811015610464576020818501810151868301520161044a565b81811115610473576000828601525b509290920192915050565b600061033561048d8386610443565b84610443565b73ffffffffffffffffffffffffffffffffffffffff8416815260406020820152816040820152818360608301376000818301606090810191909152601f9092017fffffffffffffffffffffffffffffffffffffffffffffffffffffffffffffffe01601019291505056fe60806040526040516107bb3803806107bb8339810160408190526100229161031e565b61002e82826000610035565b505061043b565b61003e8361006b565b60008251118061004b5750805b156100665761006483836100ab60201b6100291760201c565b505b505050565b610074816100d7565b6040516001600160a01b038216907fbc7cd75a20ee27fd9adebab32041f755214dbc6bffa90cc0225b39da2e5c2d3b90600090a250565b60606100d08383604051806060016040528060278152602001610794602791396101a9565b9392505050565b6100ea8161022260201b6100551760201c565b6101515760405162461bcd60e51b815260206004820152602d60248201527f455243313936373a206e657720696d706c656d656e746174696f6e206973206e60448201526c1bdd08184818dbdb9d1c9858dd609a1b60648201526084015b60405180910390fd5b806101887f360894a13ba1a3210667c828492db98dca3e2076cc3735a920a3ca505d382bbc60001b61023160201b6100711760201c565b80546001600160a01b0319166001600160a01b039290921691909117905550565b6060600080856001600160a01b0316856040516101c691906103ec565b600060405180830381855af49150503d8060008114610201576040519150601f19603f3d011682016040523d82523d6000602084013e610206565b606091505b50909250905061021886838387610234565b9695505050505050565b6001600160a01b03163b151590565b90565b606083156102a0578251610299576001600160a01b0385163b6102995760405162461bcd60e51b815260206004820152601d60248201527f416464726573733a2063616c6c20746f206e6f6e2d636f6e74726163740000006044820152606401610148565b50816102aa565b6102aa83836102b2565b949350505050565b8151156102c25781518083602001fd5b8060405162461bcd60e51b81526004016101489190610408565b634e487b7160e01b600052604160045260246000fd5b60005b8381101561030d5781810151838201526020016102f5565b838111156100645750506000910152565b6000806040838503121561033157600080fd5b82516001600160a01b038116811461034857600080fd5b60208401519092506001600160401b038082111561036557600080fd5b818501915085601f83011261037957600080fd5b81518181111561038b5761038b6102dc565b604051601f8201601f19908116603f011681019083821181831017156103b3576103b36102dc565b816040528281528860208487010111156103cc57600080fd5b6103dd8360208301602088016102f2565b80955050505050509250929050565b600082516103fe8184602087016102f2565b9190910192915050565b60208152600082518060208401526104278160408501602087016102f2565b601f01601f19169190910160400192915050565b61034a8061044a6000396000f3fe60806040523661001357610011610017565b005b6100115b610027610022610074565b6100b9565b565b606061004e83836040518060600160405280602781526020016102ee602791396100dd565b9392505050565b73ffffffffffffffffffffffffffffffffffffffff163b151590565b90565b60006100b47f360894a13ba1a3210667c828492db98dca3e2076cc3735a920a3ca505d382bbc5473ffffffffffffffffffffffffffffffffffffffff1690565b905090565b3660008037600080366000845af43d6000803e8080156100d8573d6000f35b3d6000fd5b60606000808573ffffffffffffffffffffffffffffffffffffffff16856040516101079190610280565b600060405180830381855af49150503d8060008114610142576040519150601f19603f3d011682016040523d82523d6000602084013e610147565b606091505b509150915061015886838387610162565b9695505050505050565b606083156101fa5782516101f35773ffffffffffffffffffffffffffffffffffffffff85163b6101f3576040517f08c379a000000000000000000000000000000000000000000000000000000000815260206004820152601d60248201527f416464726573733a2063616c6c20746f206e6f6e2d636f6e747261637400000060448201526064015b60405180910390fd5b5081610204565b610204838361020c565b949350505050565b81511561021c5781518083602001fd5b806040517f08c379a00000000000000000000000000000000000000000000000000000000081526004016101ea919061029c565b60005b8381101561026b578181015183820152602001610253565b8381111561027a576000848401525b50505050565b60008251610292818460208701610250565b9190910192915050565b60208152600082518060208401526102bb816040850160208701610250565b601f017fffffffffffffffffffffffffffffffffffffffffffffffffffffffffffffffe016919091016040019291505056fe416464726573733a206c6f772d6c6576656c2064656c65676174652063616c6c206661696c6564a264697066735822122049566e4d747a981964358845d0050b3cab02e1d62b560786b49bcf8afce295a864736f6c634300080c0033416464726573733a206c6f772d6c6576656c2064656c65676174652063616c6c206661696c6564a26469706673582212204cae038a07651a14e5c47bfcc040ee0c0941ce996a58d158da9ef9ef1f28bb0c64736f6c634300080c003360a0604052306080526000805462ff00001916905534801561002057600080fd5b50608051615f8e62000059600039600081816111e00152818161127601528181611cc901528181611d5f0152611e8e0152615f8e6000f3fe6080604052600436106102885760003560e01c80636517579c11610153578063a55e593d116100cb578063cc793fa61161007f578063dc7c984811610064578063dc7c9848146107c8578063f23a6e61146107e8578063ffa1ad741461082e57600080fd5b8063cc793fa614610788578063d06403d6146107a857600080fd5b8063bc197c81116100b0578063bc197c811461070b578063c399ec8814610753578063c7d763081461076857600080fd5b8063a55e593d146106c0578063b0d691fe146106e057600080fd5b806377a24f361161012257806399d3fef31161010757806399d3fef31461066b5780639cfdf5b61461068b578063a123c33e146106a057600080fd5b806377a24f361461062b5780637b8ea0281461064b57600080fd5b80636517579c1461058a5780636cedf41b146105b75780636fe5722b146105d757806375b238fc146105f757600080fd5b80633659cfe6116102015780634f1ef286116101b557806355cd05cc1161019a57806355cd05cc1461051d5780635cbf1e6e1461053d5780635e5d43201461056a57600080fd5b80634f1ef286146104f557806352d1902d1461050857600080fd5b80633cb66ec4116101e65780633cb66ec4146104695780634192d251146104b55780634789b97e146104d557600080fd5b80633659cfe6146104295780633a871cdd1461044957600080fd5b806315577ae21161025857806320d2a20f1161023d57806320d2a20f146103c65780632ed6fb5d146103e6578063357f7bb01461040657600080fd5b806315577ae2146103865780631b71bb6e146103a657600080fd5b806223de291461029457806301ffc9a7146102bb578063033183e9146102f0578063150b7a021461031057600080fd5b3661028f57005b600080fd5b3480156102a057600080fd5b506102b96102af3660046148d7565b5050505050505050565b005b3480156102c757600080fd5b506102db6102d6366004614988565b610843565b60405190151581526020015b60405180910390f35b3480156102fc57600080fd5b506102b961030b366004614a0f565b610928565b34801561031c57600080fd5b5061035561032b366004614a6b565b7f150b7a020000000000000000000000000000000000000000000000000000000095945050505050565b6040517fffffffff0000000000000000000000000000000000000000000000000000000090911681526020016102e7565b34801561039257600080fd5b506102b96103a1366004614ade565b610d11565b3480156103b257600080fd5b506102b96103c1366004614b2c565b610e3b565b6103d96103d4366004614b49565b610f3d565b6040516102e79190614c0f565b3480156103f257600080fd5b506102b9610401366004614c22565b610f93565b34801561041257600080fd5b5061041b600481565b6040519081526020016102e7565b34801561043557600080fd5b506102b9610444366004614b2c565b6111c8565b34801561045557600080fd5b5061041b610464366004614c82565b61139a565b34801561047557600080fd5b5060055473ffffffffffffffffffffffffffffffffffffffff165b60405173ffffffffffffffffffffffffffffffffffffffff90911681526020016102e7565b3480156104c157600080fd5b506102b96104d0366004614cd6565b611acc565b3480156104e157600080fd5b506102b96104f0366004614d2b565b611bbd565b6102b9610503366004614ea9565b611cb1565b34801561051457600080fd5b5061041b611e74565b34801561052957600080fd5b506102b9610538366004614b49565b611f46565b34801561054957600080fd5b5061055d610558366004614ef9565b611fcc565b6040516102e79190614f61565b34801561057657600080fd5b506102b9610585366004615014565b61220b565b34801561059657600080fd5b506105aa6105a5366004615014565b6122b0565b6040516102e7919061503d565b3480156105c357600080fd5b506102b96105d23660046150f4565b6123fe565b3480156105e357600080fd5b506102b96105f2366004615187565b612414565b34801561060357600080fd5b5061041b7f61646d696e00000000000000000000000000000000000000000000000000000081565b34801561063757600080fd5b506102b96106463660046151f9565b612429565b34801561065757600080fd5b506102b9610666366004614b2c565b6129ac565b34801561067757600080fd5b506102b9610686366004614c22565b612aae565b34801561069757600080fd5b5061041b60c881565b3480156106ac57600080fd5b506104906106bb366004615014565b6130b6565b3480156106cc57600080fd5b506102b96106db366004615014565b6130ed565b3480156106ec57600080fd5b5060045473ffffffffffffffffffffffffffffffffffffffff16610490565b34801561071757600080fd5b5061035561072636600461522a565b7fbc197c810000000000000000000000000000000000000000000000000000000098975050505050505050565b34801561075f57600080fd5b5061041b6131eb565b34801561077457600080fd5b506102b96107833660046152c8565b613288565b34801561079457600080fd5b506102b96107a33660046152f4565b6133a3565b3480156107b457600080fd5b506103d96107c3366004614b2c565b6135aa565b3480156107d457600080fd5b506102b96107e3366004614ade565b613663565b3480156107f457600080fd5b50610355610803366004615322565b7ff23a6e61000000000000000000000000000000000000000000000000000000009695505050505050565b34801561083a57600080fd5b5061041b600681565b60007fffffffff0000000000000000000000000000000000000000000000000000000082167f150b7a020000000000000000000000000000000000000000000000000000000014806108d657507fffffffff0000000000000000000000000000000000000000000000000000000082167f4e2312e000000000000000000000000000000000000000000000000000000000145b8061092257507fffffffff0000000000000000000000000000000000000000000000000000000082167f01ffc9a700000000000000000000000000000000000000000000000000000000145b92915050565b610930613772565b836109825760405162461bcd60e51b815260206004820152600d60248201527f726f6c6520697320656d7074790000000000000000000000000000000000000060448201526064015b60405180910390fd5b73ffffffffffffffffffffffffffffffffffffffff83166109e55760405162461bcd60e51b815260206004820152601760248201527f6d6f64756c65206164647265737320697320656d7074790000000000000000006044820152606401610979565b80610a325760405162461bcd60e51b815260206004820152600f60248201527f72756c65732061726520656d70747900000000000000000000000000000000006044820152606401610979565b60005b61ffff8116821115610bcf576000838361ffff8416818110610a5957610a5961539e565b9050602002810190610a6b91906153cd565b351415610aba5760405162461bcd60e51b815260206004820152601560248201527f72756c652068617320656d70747920616374696f6e00000000000000000000006044820152606401610979565b600083838361ffff16818110610ad257610ad261539e565b9050602002810190610ae491906153cd565b610af290602081019061540b565b905011610b415760405162461bcd60e51b815260206004820152601560248201527f72756c652068617320656d7074792074617267657400000000000000000000006044820152606401610979565b6000838361ffff8416818110610b5957610b5961539e565b9050602002810190610b6b91906153cd565b606001351415610bbd5760405162461bcd60e51b815260206004820152601560248201527f72756c652068617320656d70747920657874656e7400000000000000000000006044820152606401610979565b80610bc78161549f565b915050610a35565b5060008473ffffffffffffffffffffffffffffffffffffffff851660408051602081019390935282015260600160405160208183030381529060405290506000600382604051610c1f91906154c1565b908152604051908190036020019020541115610c7d5760405162461bcd60e51b815260206004820152601360248201527f726f6c6520616c726561647920657869737473000000000000000000000000006044820152606401610979565b60005b61ffff8116831115610d0957600382604051610c9c91906154c1565b908152602001604051809103902084848361ffff16818110610cc057610cc061539e565b9050602002810190610cd291906153cd565b815460018101835560009283526020909220909160040201610cf482826155c8565b50508080610d019061549f565b915050610c80565b505050505050565b610d19613772565b81610d665760405162461bcd60e51b815260206004820152600e60248201527f696e76616c6964207573657249640000000000000000000000000000000000006044820152606401610979565b610d6f82613869565b8035610dbd5760405162461bcd60e51b815260206004820152601360248201527f757365722068617320656d70747920726f6c65000000000000000000000000006044820152606401610979565b6000610dcc604083018361540b565b905011610e1b5760405162461bcd60e51b815260206004820152601c60248201527f757365722068617320656d7074792061757468206d65746164617461000000006044820152606401610979565b60008281526002602052604090208190610e35828261571b565b50505050565b610e43613772565b73ffffffffffffffffffffffffffffffffffffffff8116610ecc5760405162461bcd60e51b815260206004820152603260248201527f66756e2077616c6c65743a206e657720656e74727920706f696e74206164647260448201527f6573732063616e6e6f74206265207a65726f00000000000000000000000000006064820152608401610979565b600480547fffffffffffffffffffffffff00000000000000000000000000000000000000001673ffffffffffffffffffffffffffffffffffffffff831690811790915560405181907f450909c1478d09248269d4ad4fa8cba61ca3f50faed58c7aedefa51c7f62b83a90600090a350565b6060610f476138d4565b610f88858585858080601f01602080910402602001604051908101604052809392919081815260200183838082843760009201919091525061396592505050565b90505b949350505050565b610f9b613772565b82610fe85760405162461bcd60e51b815260206004820152600d60248201527f726f6c6520697320656d707479000000000000000000000000000000000000006044820152606401610979565b73ffffffffffffffffffffffffffffffffffffffff821661104b5760405162461bcd60e51b815260206004820152601760248201527f6d6f64756c65206164647265737320697320656d7074790000000000000000006044820152606401610979565b80356110995760405162461bcd60e51b815260206004820152601560248201527f72756c652068617320656d70747920616374696f6e00000000000000000000006044820152606401610979565b60006110a8602083018361540b565b9050116110f75760405162461bcd60e51b815260206004820152601560248201527f72756c652068617320656d7074792074617267657400000000000000000000006044820152606401610979565b60608101356111485760405162461bcd60e51b815260206004820152601560248201527f72756c652068617320656d70747920657874656e7400000000000000000000006044820152606401610979565b604080516020810185905273ffffffffffffffffffffffffffffffffffffffff841681830152815180820383018152606090910190915261118881613a2d565b60038160405161119891906154c1565b9081526040516020918190038201902080546001810182556000918252919020839160040201610d0982826155c8565b3073ffffffffffffffffffffffffffffffffffffffff7f00000000000000000000000000000000000000000000000000000000000000001614156112745760405162461bcd60e51b815260206004820152602c60248201527f46756e6374696f6e206d7573742062652063616c6c6564207468726f7567682060448201527f64656c656761746563616c6c00000000000000000000000000000000000000006064820152608401610979565b7f000000000000000000000000000000000000000000000000000000000000000073ffffffffffffffffffffffffffffffffffffffff166112e97f360894a13ba1a3210667c828492db98dca3e2076cc3735a920a3ca505d382bbc5473ffffffffffffffffffffffffffffffffffffffff1690565b73ffffffffffffffffffffffffffffffffffffffff16146113725760405162461bcd60e51b815260206004820152602c60248201527f46756e6374696f6e206d7573742062652063616c6c6564207468726f7567682060448201527f6163746976652070726f787900000000000000000000000000000000000000006064820152608401610979565b61137b81613a9c565b6040805160008082526020820190925261139791839190613aa4565b50565b60006113a4613c6f565b6005546040517f81adfce600000000000000000000000000000000000000000000000000000000815260009173ffffffffffffffffffffffffffffffffffffffff16906381adfce6906113fd9088908890600401615a3c565b602060405180830381865afa15801561141a573d6000803e3d6000fd5b505050506040513d601f19601f8201168201806040525081019061143e9190615a5e565b905061144981613869565b6000818152600260209081526040808320815160608101909252805482526001810154919290919083019060ff16801561148557611485614f1e565b801561149357611493614f1e565b81526020016002820180546114a7906154d3565b80601f01602080910402602001604051908101604052809291908181526020018280546114d3906154d3565b80156115205780601f106114f557610100808354040283529160200191611520565b820191906000526020600020905b81548152906001019060200180831161150357829003601f168201915b505050919092525050600554602083015160408085015190517fdeca388700000000000000000000000000000000000000000000000000000000815294955073ffffffffffffffffffffffffffffffffffffffff9092169363deca3887935061159092908b908b90600401615a77565b602060405180830381865afa1580156115ad573d6000803e3d6000fd5b505050506040513d601f19601f820116820180604052508101906115d19190615a5e565b9250600081600001516040518060400160405280600181526020017f2a00000000000000000000000000000000000000000000000000000000000000815250604051602001611621929190615abb565b60405160208183030381529060405290507f61646d696e0000000000000000000000000000000000000000000000000000008260000151141580156116865750600060038260405161167391906154c1565b9081526040519081900360200190205411155b15611ab9577f4789b97e000000000000000000000000000000000000000000000000000000006116b9606089018961540b565b6116c891600491600091615ad4565b6116d191615afe565b7fffffffff000000000000000000000000000000000000000000000000000000001614156119465760008061171161170c60608b018b61540b565b613cd6565b86519294509250600091905073ffffffffffffffffffffffffffffffffffffffff84166040805160208101939093528201526060016040516020818303038152906040529050600060038260405161176991906154c1565b90815260405190819003602001902054116117c65760405162461bcd60e51b815260206004820152601660248201527f75736572206973206e6f7420617574686f72697a6564000000000000000000006044820152606401610979565b8273ffffffffffffffffffffffffffffffffffffffff166352bd4f41836000815181106117f5576117f561539e565b602002602001015160038460405161180d91906154c1565b9081526040519081900360200181207fffffffff0000000000000000000000000000000000000000000000000000000060e085901b1682526118529291600401615b46565b60006040518083038186803b15801561186a57600080fd5b505afa15801561187e573d6000803e3d6000fd5b505050508273ffffffffffffffffffffffffffffffffffffffff166352bd4f41836001815181106118b1576118b161539e565b60200260200101516003846040516118c991906154c1565b9081526040519081900360200181207fffffffff0000000000000000000000000000000000000000000000000000000060e085901b16825261190e9291600401615b46565b60006040518083038186803b15801561192657600080fd5b505afa15801561193a573d6000803e3d6000fd5b50505050505050611ab9565b60008061195e61195960608b018b61540b565b613d03565b86519294509250600091905073ffffffffffffffffffffffffffffffffffffffff8416604080516020810193909352820152606001604051602081830303815290604052905060006003826040516119b691906154c1565b9081526040519081900360200190205411611a135760405162461bcd60e51b815260206004820152601660248201527f75736572206973206e6f7420617574686f72697a6564000000000000000000006044820152606401610979565b8273ffffffffffffffffffffffffffffffffffffffff166352bd4f4183600384604051611a4091906154c1565b9081526040519081900360200181207fffffffff0000000000000000000000000000000000000000000000000000000060e085901b168252611a859291600401615b46565b60006040518083038186803b158015611a9d57600080fd5b505afa158015611ab1573d6000803e3d6000fd5b505050505050505b611ac285613d75565b5050509392505050565b60005462010000900460ff1615611b4b5760405162461bcd60e51b815260206004820152602260248201527f436f6e74726163742068617320616c7265616479206265656e206465706c6f7960448201527f65640000000000000000000000000000000000000000000000000000000000006064820152608401610979565b611b8b8383838080601f01602080910402602001604051908101604052809392919081815260200183838082843760009201829052509250613de0915050565b5050600080547fffffffffffffffffffffffffffffffffffffffffffffffffffffffffff00ffff166201000017905550565b611bea82826000818110611bd357611bd361539e565b9050602002810190611be5919061540b565b613e05565b611c365760405162461bcd60e51b815260206004820181905260248201527f66697273742063616c6c206973206e6f7420616e20696e697420616374696f6e6044820152606401610979565b611c798585856000818110611c4d57611c4d61539e565b9050602002013584846000818110611c6757611c6761539e565b9050602002810190610538919061540b565b611caa8585856001818110611c9057611c9061539e565b9050602002013584846001818110611c6757611c6761539e565b5050505050565b3073ffffffffffffffffffffffffffffffffffffffff7f0000000000000000000000000000000000000000000000000000000000000000161415611d5d5760405162461bcd60e51b815260206004820152602c60248201527f46756e6374696f6e206d7573742062652063616c6c6564207468726f7567682060448201527f64656c656761746563616c6c00000000000000000000000000000000000000006064820152608401610979565b7f000000000000000000000000000000000000000000000000000000000000000073ffffffffffffffffffffffffffffffffffffffff16611dd27f360894a13ba1a3210667c828492db98dca3e2076cc3735a920a3ca505d382bbc5473ffffffffffffffffffffffffffffffffffffffff1690565b73ffffffffffffffffffffffffffffffffffffffff1614611e5b5760405162461bcd60e51b815260206004820152602c60248201527f46756e6374696f6e206d7573742062652063616c6c6564207468726f7567682060448201527f6163746976652070726f787900000000000000000000000000000000000000006064820152608401610979565b611e6482613a9c565b611e7082826001613aa4565b5050565b60003073ffffffffffffffffffffffffffffffffffffffff7f00000000000000000000000000000000000000000000000000000000000000001614611f215760405162461bcd60e51b815260206004820152603860248201527f555550535570677261646561626c653a206d757374206e6f742062652063616c60448201527f6c6564207468726f7567682064656c656761746563616c6c00000000000000006064820152608401610979565b507f360894a13ba1a3210667c828492db98dca3e2076cc3735a920a3ca505d382bbc90565b611f4e613772565b6000611f91858585858080601f01602080910402602001604051908101604052809392919081815260200183838082843760009201919091525061396592505050565b73ffffffffffffffffffffffffffffffffffffffff861660009081526001602090815260409091208251929350610d09929091840190614696565b60608261201b5760405162461bcd60e51b815260206004820152600d60248201527f726f6c6520697320656d707479000000000000000000000000000000000000006044820152606401610979565b73ffffffffffffffffffffffffffffffffffffffff821661207e5760405162461bcd60e51b815260206004820152601760248201527f6d6f64756c65206164647265737320697320656d7074790000000000000000006044820152606401610979565b604080516020810185905273ffffffffffffffffffffffffffffffffffffffff841681830152815180820383018152606090910191829052906003906120c59083906154c1565b9081526020016040518091039020805480602002602001604051908101604052809291908181526020016000905b828210156121fe578382906000526020600020906004020160405180608001604052908160008201548152602001600182018054612130906154d3565b80601f016020809104026020016040519081016040528092919081815260200182805461215c906154d3565b80156121a95780601f1061217e576101008083540402835291602001916121a9565b820191906000526020600020905b81548152906001019060200180831161218c57829003601f168201915b5050509183525050600282015460209091019060ff1660068111156121d0576121d0614f1e565b60068111156121e1576121e1614f1e565b8152602001600382015481525050815260200190600101906120f3565b5050505091505092915050565b612213613772565b806122605760405162461bcd60e51b815260206004820152600e60248201527f696e76616c6964207573657249640000000000000000000000000000000000006044820152606401610979565b600081815260026020819052604082208281556001810180547fffffffffffffffffffffffffffffffffffffffffffffffffffffffffffffff0016905591906122ab9083018261471a565b505050565b60408051606080820183526000808352602083015291810191909152816123195760405162461bcd60e51b815260206004820152600e60248201527f696e76616c6964207573657249640000000000000000000000000000000000006044820152606401610979565b600082815260026020908152604091829020825160608101909352805483526001810154909183019060ff16801561235357612353614f1e565b801561236157612361614f1e565b8152602001600282018054612375906154d3565b80601f01602080910402602001604051908101604052809291908181526020018280546123a1906154d3565b80156123ee5780601f106123c3576101008083540402835291602001916123ee565b820191906000526020600020905b8154815290600101906020018083116123d157829003601f168201915b5050505050815250509050919050565b61240b8686868686611bbd565b610d0981613e6b565b61242085858585611f46565b611caa81613e6b565b600054610100900460ff16158080156124495750600054600160ff909116105b806124635750303b158015612463575060005460ff166001145b6124d55760405162461bcd60e51b815260206004820152602e60248201527f496e697469616c697a61626c653a20636f6e747261637420697320616c72656160448201527f647920696e697469616c697a65640000000000000000000000000000000000006064820152608401610979565b600080547fffffffffffffffffffffffffffffffffffffffffffffffffffffffffffffff00166001179055801561253357600080547fffffffffffffffffffffffffffffffffffffffffffffffffffffffffffff00ff166101001790555b73ffffffffffffffffffffffffffffffffffffffff85166125965760405162461bcd60e51b815260206004820152601260248201527f496e76616c696420456e747279706f696e7400000000000000000000000000006044820152606401610979565b6004805473ffffffffffffffffffffffffffffffffffffffff8088167fffffffffffffffffffffffff00000000000000000000000000000000000000009283161790925560058054928716929091169190911790556125f760068484614754565b5060005b61ffff811683111561277557604080516060810182527f61646d696e000000000000000000000000000000000000000000000000000000815260006020820152908101858561ffff85168181106126545761265461539e565b90506020020160208101906126699190614b2c565b6040805173ffffffffffffffffffffffffffffffffffffffff909216602083015201604051602081830303815290604052815250600260006126e887878661ffff168181106126ba576126ba61539e565b90506020020160208101906126cf9190614b2c565b73ffffffffffffffffffffffffffffffffffffffff1690565b815260208082019290925260400160002082518155908201516001808301805490917fffffffffffffffffffffffffffffffffffffffffffffffffffffffffffffff009091169083801561273e5761273e614f1e565b02179055506040820151805161275e916002840191602090910190614696565b50905050808061276d9061549f565b9150506125fb565b5060007f61646d696e0000000000000000000000000000000000000000000000000000006040518060400160405280600181526020017f2a000000000000000000000000000000000000000000000000000000000000008152506040516020016127e0929190615abb565b604051602081830303815290604052905060038160405161280191906154c1565b908152602001604051809103902060405180608001604052807f2a0000000000000000000000000000000000000000000000000000000000000081526020016040518060400160405280600181526020017f2a00000000000000000000000000000000000000000000000000000000000000815250815260200160068081111561288d5761288d614f1e565b81527f2a000000000000000000000000000000000000000000000000000000000000006020918201528254600181810185556000948552938290208351600490920201908155828201518051939491936128ef93928501929190910190614696565b5060408201516002820180547fffffffffffffffffffffffffffffffffffffffffffffffffffffffffffffff0016600183600681111561293157612931614f1e565b0217905550606082015181600301555050508015611caa57600080547fffffffffffffffffffffffffffffffffffffffffffffffffffffffffffff00ff169055604051600181527f7f26b83ff96e1f2b6a682f133852f6798a09c465da95921460cefb38474024989060200160405180910390a15050505050565b6129b4613772565b73ffffffffffffffffffffffffffffffffffffffff8116612a3d5760405162461bcd60e51b815260206004820152603260248201527f66756e2077616c6c65743a206e657720656e74727920706f696e74206164647260448201527f6573732063616e6e6f74206265207a65726f00000000000000000000000000006064820152608401610979565b600580547fffffffffffffffffffffffff00000000000000000000000000000000000000001673ffffffffffffffffffffffffffffffffffffffff831690811790915560405181907f34a5e38fc8fe74f12b269fe92e724092f7f531dc4985c88fb113460cfcb5f67d90600090a350565b612ab6613772565b82612b035760405162461bcd60e51b815260206004820152600d60248201527f726f6c6520697320656d707479000000000000000000000000000000000000006044820152606401610979565b73ffffffffffffffffffffffffffffffffffffffff8216612b665760405162461bcd60e51b815260206004820152601760248201527f6d6f64756c65206164647265737320697320656d7074790000000000000000006044820152606401610979565b8035612bb45760405162461bcd60e51b815260206004820152601560248201527f72756c652068617320656d70747920616374696f6e00000000000000000000006044820152606401610979565b6000612bc3602083018361540b565b905011612c125760405162461bcd60e51b815260206004820152601560248201527f72756c652068617320656d7074792074617267657400000000000000000000006044820152606401610979565b6060810135612c635760405162461bcd60e51b815260206004820152601560248201527f72756c652068617320656d70747920657874656e7400000000000000000000006044820152606401610979565b604080516020810185905273ffffffffffffffffffffffffffffffffffffffff8416818301528151808203830181526060909101909152612ca381613a2d565b6000600382604051612cb591906154c1565b9081526020016040518091039020805480602002602001604051908101604052809291908181526020016000905b82821015612dee578382906000526020600020906004020160405180608001604052908160008201548152602001600182018054612d20906154d3565b80601f0160208091040260200160405190810160405280929190818152602001828054612d4c906154d3565b8015612d995780601f10612d6e57610100808354040283529160200191612d99565b820191906000526020600020905b815481529060010190602001808311612d7c57829003601f168201915b5050509183525050600282015460209091019060ff166006811115612dc057612dc0614f1e565b6006811115612dd157612dd1614f1e565b815260200160038201548152505081526020019060010190612ce3565b5050505090506000838060200190612e06919061540b565b612e166060870160408801615c94565b8660600135604051602001612e2e9493929190615cc8565b60405160208183030381529060405280519060200120905060005b600384604051612e5991906154c1565b9081526040519081900360200190205461ffff821610156130ad576000838261ffff1681518110612e8c57612e8c61539e565b602002602001015160200151848361ffff1681518110612eae57612eae61539e565b602002602001015160400151858461ffff1681518110612ed057612ed061539e565b602002602001015160600151604051602001612eee93929190615cf3565b6040516020818303038152906040528051906020012090508083141561309a578360018551612f1d9190615d24565b81518110612f2d57612f2d61539e565b6020026020010151600386604051612f4591906154c1565b90815260200160405180910390208361ffff1681548110612f6857612f6861539e565b9060005260206000209060040201600082015181600001556020820151816001019080519060200190612f9c929190614696565b5060408201516002820180547fffffffffffffffffffffffffffffffffffffffffffffffffffffffffffffff00166001836006811115612fde57612fde614f1e565b021790555060609190910151600391820155604051612ffe9087906154c1565b908152602001604051809103902080548061301b5761301b615d3b565b60008281526020812060047fffffffffffffffffffffffffffffffffffffffffffffffffffffffffffffffff909301928302018181559061305f600183018261471a565b506002810180547fffffffffffffffffffffffffffffffffffffffffffffffffffffffffffffff0016905560006003909101559055506130ad565b50806130a58161549f565b915050612e49565b50505050505050565b600681815481106130c657600080fd5b60009182526020909120015473ffffffffffffffffffffffffffffffffffffffff16905081565b6130f561415d565b8047101561316b5760405162461bcd60e51b815260206004820152602a60248201527f66756e2077616c6c65743a206e6f7420656e6f75676820657468657220696e2060448201527f7468652077616c6c6574000000000000000000000000000000000000000000006064820152608401610979565b600480546040517fb760faf9000000000000000000000000000000000000000000000000000000008152309281019290925273ffffffffffffffffffffffffffffffffffffffff169063b760faf990602401600060405180830381600087803b1580156131d757600080fd5b505af1158015611caa573d6000803e3d6000fd5b600480546040517f70a08231000000000000000000000000000000000000000000000000000000008152309281019290925260009173ffffffffffffffffffffffffffffffffffffffff909116906370a0823190602401602060405180830381865afa15801561325f573d6000803e3d6000fd5b505050506040513d601f19601f820116820180604052508101906132839190615a5e565b905090565b61329061415d565b73ffffffffffffffffffffffffffffffffffffffff82166133195760405162461bcd60e51b815260206004820152602b60248201527f66756e2077616c6c65743a20776974686472617720616464726573732063616e60448201527f6e6f74206265207a65726f0000000000000000000000000000000000000000006064820152608401610979565b600480546040517f205c287800000000000000000000000000000000000000000000000000000000815273ffffffffffffffffffffffffffffffffffffffff858116938201939093526024810184905291169063205c287890604401600060405180830381600087803b15801561338f57600080fd5b505af1158015610d09573d6000803e3d6000fd5b6133ab613772565b73ffffffffffffffffffffffffffffffffffffffff81166134345760405162461bcd60e51b815260206004820152602d60248201527f66756e2077616c6c65743a206e6577206d6f64756c652061646472657373206360448201527f616e6e6f74206265207a65726f000000000000000000000000000000000000006064820152608401610979565b8173ffffffffffffffffffffffffffffffffffffffff168173ffffffffffffffffffffffffffffffffffffffff1614156134d65760405162461bcd60e51b815260206004820152603e60248201527f66756e2077616c6c65743a206e6577206d6f64756c652061646472657373206360448201527f616e6e6f7420626520657175616c20746f2070726576696f7573206f6e6500006064820152608401610979565b73ffffffffffffffffffffffffffffffffffffffff808316600090815260016020526040808220928416825290208154909190613512906154d3565b61351d9291906147cc565b5073ffffffffffffffffffffffffffffffffffffffff8216600090815260016020526040812061354c9161471a565b8073ffffffffffffffffffffffffffffffffffffffff168273ffffffffffffffffffffffffffffffffffffffff167fdcbf4cc8a7afc3fe6e403a57745b98188844fdfee49c8752ae30fc46b3a39ebb60405160405180910390a35050565b73ffffffffffffffffffffffffffffffffffffffff811660009081526001602052604090208054606091906135de906154d3565b80601f016020809104026020016040519081016040528092919081815260200182805461360a906154d3565b80156136575780601f1061362c57610100808354040283529160200191613657565b820191906000526020600020905b81548152906001019060200180831161363a57829003601f168201915b50505050509050919050565b61366b613772565b816136b85760405162461bcd60e51b815260206004820152600e60248201527f696e76616c6964207573657249640000000000000000000000000000000000006044820152606401610979565b600082815260026020819052604082200180546136d4906154d3565b905011156137245760405162461bcd60e51b815260206004820152601360248201527f7573657220616c726561647920657869737473000000000000000000000000006044820152606401610979565b8035610dbd5760405162461bcd60e51b815260206004820152601460248201527f757365722068617320656d70747920726f6c65730000000000000000000000006044820152606401610979565b60045473ffffffffffffffffffffffffffffffffffffffff1633141561379457565b60005b60065461ffff821610156137fa5760068161ffff16815481106137bc576137bc61539e565b60009182526020909120015473ffffffffffffffffffffffffffffffffffffffff163314156137e85750565b806137f28161549f565b915050613797565b5060405162461bcd60e51b815260206004820152602860248201527f66756e2077616c6c65743a206e6f742066726f6d20456e747279506f696e742060448201527f6f72206f776e65720000000000000000000000000000000000000000000000006064820152608401610979565b60008181526002602081905260408220018054613885906154d3565b9050116113975760405162461bcd60e51b815260206004820152601f60248201527f66756e2077616c6c65743a207573657220646f6573206e6f74206578697374006044820152606401610979565b33600090815260016020526040812080546138ee906154d3565b9050116139635760405162461bcd60e51b815260206004820152602360248201527f66756e2077616c6c65743a206e6f742066726f6d2061206b6e6f776e204d6f6460448201527f756c6500000000000000000000000000000000000000000000000000000000006064820152608401610979565b565b60606000808573ffffffffffffffffffffffffffffffffffffffff16858560405161399091906154c1565b60006040518083038185875af1925050503d80600081146139cd576040519150601f19603f3d011682016040523d82523d6000602084013e6139d2565b606091505b509150915081613a245760405162461bcd60e51b815260206004820181905260248201527f66756e2077616c6c65743a2065787465726e616c2063616c6c206661696c65646044820152606401610979565b95945050505050565b6000600382604051613a3f91906154c1565b90815260405190819003602001902054116113975760405162461bcd60e51b815260206004820152601f60248201527f66756e2077616c6c65743a20726f6c6520646f6573206e6f74206578697374006044820152606401610979565b611397613772565b7f4910fdfa16fed3260ed0e7147f7cc6da11a60208b5b9406d12a635614ffd91435460ff1615613ad7576122ab83614216565b8273ffffffffffffffffffffffffffffffffffffffff166352d1902d6040518163ffffffff1660e01b8152600401602060405180830381865afa925050508015613b5c575060408051601f3d9081017fffffffffffffffffffffffffffffffffffffffffffffffffffffffffffffffe0168201909252613b5991810190615a5e565b60015b613bce5760405162461bcd60e51b815260206004820152602e60248201527f45524331393637557067726164653a206e657720696d706c656d656e7461746960448201527f6f6e206973206e6f7420555550530000000000000000000000000000000000006064820152608401610979565b7f360894a13ba1a3210667c828492db98dca3e2076cc3735a920a3ca505d382bbc8114613c635760405162461bcd60e51b815260206004820152602960248201527f45524331393637557067726164653a20756e737570706f727465642070726f7860448201527f6961626c655555494400000000000000000000000000000000000000000000006064820152608401610979565b506122ab838383613de0565b60045473ffffffffffffffffffffffffffffffffffffffff1633146139635760405162461bcd60e51b815260206004820152601f60248201527f66756e2077616c6c65743a206e6f742066726f6d20456e747279506f696e74006044820152606401610979565b6000606080613ce88460048188615ad4565b810190613cf59190615e1e565b919790965090945092505050565b6000806060613d158460048188615ad4565b810190613d2291906152c8565b9093509150613d348460c88188615ad4565b8080601f0160208091040260200160405190810160405280939291908181526020018383808284376000920191909152509598949750919550929350505050565b80156113975760405160009033907fffffffffffffffffffffffffffffffffffffffffffffffffffffffffffffffff90849084818181858888f193505050503d8060008114611caa576040519150601f19603f3d011682016040523d82523d6000602084013e611caa565b613de983614306565b600082511180613df65750805b156122ab57610e358383614353565b600080613e156004828587615ad4565b613e1e91615afe565b7fffffffff00000000000000000000000000000000000000000000000000000000167f4ddf47d4000000000000000000000000000000000000000000000000000000001491505092915050565b600080826040015173ffffffffffffffffffffffffffffffffffffffff1663fcee45f484606001516040518263ffffffff1660e01b8152600401613eb191815260200190565b6040805180830381865afa158015613ecd573d6000803e3d6000fd5b505050506040513d601f19601f82011682018060405250810190613ef19190615eeb565b8451919350915073ffffffffffffffffffffffffffffffffffffffff16613f2e57613f2083602001518261437f565b6122ab83604001518361437f565b825160208401516040517fa9059cbb00000000000000000000000000000000000000000000000000000000815273ffffffffffffffffffffffffffffffffffffffff918216600482015260248101849052600092919091169063a9059cbb906044016020604051808303816000875af1158015613faf573d6000803e3d6000fd5b505050506040513d601f19601f82011682018060405250810190613fd39190615f0f565b9050806140485760405162461bcd60e51b815260206004820152602160248201527f66756e2077616c6c65743a204552433230207472616e73666572206661696c6560448201527f64000000000000000000000000000000000000000000000000000000000000006064820152608401610979565b835160408086015190517fa9059cbb00000000000000000000000000000000000000000000000000000000815273ffffffffffffffffffffffffffffffffffffffff91821660048201526024810186905291169063a9059cbb906044016020604051808303816000875af11580156140c4573d6000803e3d6000fd5b505050506040513d601f19601f820116820180604052508101906140e89190615f0f565b905080610e355760405162461bcd60e51b815260206004820152602160248201527f66756e2077616c6c65743a204552433230207472616e73666572206661696c6560448201527f64000000000000000000000000000000000000000000000000000000000000006064820152608401610979565b3330141561416757565b60005b60065461ffff821610156141cd5760068161ffff168154811061418f5761418f61539e565b60009182526020909120015473ffffffffffffffffffffffffffffffffffffffff163314156141bb5750565b806141c58161549f565b91505061416a565b5060405162461bcd60e51b815260206004820152601a60248201527f66756e2077616c6c65743a206e6f742066726f6d204f776e65720000000000006044820152606401610979565b73ffffffffffffffffffffffffffffffffffffffff81163b6142a05760405162461bcd60e51b815260206004820152602d60248201527f455243313936373a206e657720696d706c656d656e746174696f6e206973206e60448201527f6f74206120636f6e7472616374000000000000000000000000000000000000006064820152608401610979565b7f360894a13ba1a3210667c828492db98dca3e2076cc3735a920a3ca505d382bbc80547fffffffffffffffffffffffff00000000000000000000000000000000000000001673ffffffffffffffffffffffffffffffffffffffff92909216919091179055565b61430f81614216565b60405173ffffffffffffffffffffffffffffffffffffffff8216907fbc7cd75a20ee27fd9adebab32041f755214dbc6bffa90cc0225b39da2e5c2d3b90600090a250565b60606143788383604051806060016040528060278152602001615f326027913961439b565b9392505050565b8047101561439157611e708282614420565b611e708282614519565b60606000808573ffffffffffffffffffffffffffffffffffffffff16856040516143c591906154c1565b600060405180830381855af49150503d8060008114614400576040519150601f19603f3d011682016040523d82523d6000602084013e614405565b606091505b5091509150614416868383876145ee565b9695505050505050565b600480546040517f205c287800000000000000000000000000000000000000000000000000000000815273ffffffffffffffffffffffffffffffffffffffff858116938201939093526024810184905291169063205c287890604401600060405180830381600087803b15801561449657600080fd5b505af19250505080156144a7575060015b611e705760405162461bcd60e51b815260206004820152602b60248201527f66756e2077616c6c65743a20656e747279706f696e74207472616e736665722060448201527f657468206661696c6564200000000000000000000000000000000000000000006064820152608401610979565b60008273ffffffffffffffffffffffffffffffffffffffff168260405160006040518083038185875af1925050503d8060008114614573576040519150601f19603f3d011682016040523d82523d6000602084013e614578565b606091505b50509050806122ab5760405162461bcd60e51b8152602060048201526024808201527f66756e2077616c6c65743a2074686973207472616e736665722065746820666160448201527f696c6564000000000000000000000000000000000000000000000000000000006064820152608401610979565b606083156146675782516146605773ffffffffffffffffffffffffffffffffffffffff85163b6146605760405162461bcd60e51b815260206004820152601d60248201527f416464726573733a2063616c6c20746f206e6f6e2d636f6e74726163740000006044820152606401610979565b5081610f8b565b610f8b838381511561467c5781518083602001fd5b8060405162461bcd60e51b81526004016109799190614c0f565b8280546146a2906154d3565b90600052602060002090601f0160209004810192826146c4576000855561470a565b82601f106146dd57805160ff191683800117855561470a565b8280016001018555821561470a579182015b8281111561470a5782518255916020019190600101906146ef565b50614716929150614847565b5090565b508054614726906154d3565b6000825580601f10614736575050565b601f0160209004906000526020600020908101906113979190614847565b82805482825590600052602060002090810192821561470a579160200282015b8281111561470a5781547fffffffffffffffffffffffff00000000000000000000000000000000000000001673ffffffffffffffffffffffffffffffffffffffff843516178255602090920191600190910190614774565b8280546147d8906154d3565b90600052602060002090601f0160209004810192826147fa576000855561470a565b82601f1061480b578054855561470a565b8280016001018555821561470a57600052602060002091601f016020900482015b8281111561470a57825482559160010191906001019061482c565b5b808211156147165760008155600101614848565b73ffffffffffffffffffffffffffffffffffffffff8116811461139757600080fd5b80356148898161485c565b919050565b60008083601f8401126148a057600080fd5b50813567ffffffffffffffff8111156148b857600080fd5b6020830191508360208285010111156148d057600080fd5b9250929050565b60008060008060008060008060c0898b0312156148f357600080fd5b88356148fe8161485c565b9750602089013561490e8161485c565b9650604089013561491e8161485c565b955060608901359450608089013567ffffffffffffffff8082111561494257600080fd5b61494e8c838d0161488e565b909650945060a08b013591508082111561496757600080fd5b506149748b828c0161488e565b999c989b5096995094979396929594505050565b60006020828403121561499a57600080fd5b81357fffffffff000000000000000000000000000000000000000000000000000000008116811461437857600080fd5b60008083601f8401126149dc57600080fd5b50813567ffffffffffffffff8111156149f457600080fd5b6020830191508360208260051b85010111156148d057600080fd5b60008060008060608587031215614a2557600080fd5b843593506020850135614a378161485c565b9250604085013567ffffffffffffffff811115614a5357600080fd5b614a5f878288016149ca565b95989497509550505050565b600080600080600060808688031215614a8357600080fd5b8535614a8e8161485c565b94506020860135614a9e8161485c565b935060408601359250606086013567ffffffffffffffff811115614ac157600080fd5b614acd8882890161488e565b969995985093965092949392505050565b60008060408385031215614af157600080fd5b82359150602083013567ffffffffffffffff811115614b0f57600080fd5b830160608186031215614b2157600080fd5b809150509250929050565b600060208284031215614b3e57600080fd5b81356143788161485c565b60008060008060608587031215614b5f57600080fd5b8435614b6a8161485c565b935060208501359250604085013567ffffffffffffffff811115614b8d57600080fd5b614a5f8782880161488e565b60005b83811015614bb4578181015183820152602001614b9c565b83811115610e355750506000910152565b60008151808452614bdd816020860160208601614b99565b601f017fffffffffffffffffffffffffffffffffffffffffffffffffffffffffffffffe0169290920160200192915050565b6020815260006143786020830184614bc5565b600080600060608486031215614c3757600080fd5b833592506020840135614c498161485c565b9150604084013567ffffffffffffffff811115614c6557600080fd5b840160808187031215614c7757600080fd5b809150509250925092565b600080600060608486031215614c9757600080fd5b833567ffffffffffffffff811115614cae57600080fd5b84016101608187031215614cc157600080fd5b95602085013595506040909401359392505050565b600080600060408486031215614ceb57600080fd5b8335614cf68161485c565b9250602084013567ffffffffffffffff811115614d1257600080fd5b614d1e8682870161488e565b9497909650939450505050565b600080600080600060608688031215614d4357600080fd5b8535614d4e8161485c565b9450602086013567ffffffffffffffff80821115614d6b57600080fd5b614d7789838a016149ca565b90965094506040880135915080821115614d9057600080fd5b50614acd888289016149ca565b7f4e487b7100000000000000000000000000000000000000000000000000000000600052604160045260246000fd5b604051601f82017fffffffffffffffffffffffffffffffffffffffffffffffffffffffffffffffe016810167ffffffffffffffff81118282101715614e1357614e13614d9d565b604052919050565b600082601f830112614e2c57600080fd5b813567ffffffffffffffff811115614e4657614e46614d9d565b614e7760207fffffffffffffffffffffffffffffffffffffffffffffffffffffffffffffffe0601f84011601614dcc565b818152846020838601011115614e8c57600080fd5b816020850160208301376000918101602001919091529392505050565b60008060408385031215614ebc57600080fd5b8235614ec78161485c565b9150602083013567ffffffffffffffff811115614ee357600080fd5b614eef85828601614e1b565b9150509250929050565b60008060408385031215614f0c57600080fd5b823591506020830135614b218161485c565b7f4e487b7100000000000000000000000000000000000000000000000000000000600052602160045260246000fd5b60078110614f5d57614f5d614f1e565b9052565b60006020808301818452808551808352604092508286019150828160051b87010184880160005b83811015615006577fffffffffffffffffffffffffffffffffffffffffffffffffffffffffffffffc0898403018552815160808151855288820151818a870152614fd482870182614bc5565b91505087820151614fe789870182614f4d565b5060609182015194909101939093529386019390860190600101614f88565b509098975050505050505050565b60006020828403121561502657600080fd5b5035919050565b60018110614f5d57614f5d614f1e565b60208152815160208201526000602083015161505c604084018261502d565b506040830151606080840152610f8b6080840182614bc5565b60006080828403121561508757600080fd5b6040516080810181811067ffffffffffffffff821117156150aa576150aa614d9d565b60405290508082356150bb8161485c565b815260208301356150cb8161485c565b602082015260408301356150de8161485c565b6040820152606092830135920191909152919050565b60008060008060008060e0878903121561510d57600080fd5b86356151188161485c565b9550602087013567ffffffffffffffff8082111561513557600080fd5b6151418a838b016149ca565b9097509550604089013591508082111561515a57600080fd5b5061516789828a016149ca565b909450925061517b90508860608901615075565b90509295509295509295565b600080600080600060e0868803121561519f57600080fd5b85356151aa8161485c565b945060208601359350604086013567ffffffffffffffff8111156151cd57600080fd5b6151d98882890161488e565b90945092506151ed90508760608801615075565b90509295509295909350565b6000806000806060858703121561520f57600080fd5b843561521a8161485c565b93506020850135614a378161485c565b60008060008060008060008060a0898b03121561524657600080fd5b88356152518161485c565b975060208901356152618161485c565b9650604089013567ffffffffffffffff8082111561527e57600080fd5b61528a8c838d016149ca565b909850965060608b01359150808211156152a357600080fd5b6152af8c838d016149ca565b909650945060808b013591508082111561496757600080fd5b600080604083850312156152db57600080fd5b82356152e68161485c565b946020939093013593505050565b6000806040838503121561530757600080fd5b82356153128161485c565b91506020830135614b218161485c565b60008060008060008060a0878903121561533b57600080fd5b86356153468161485c565b955060208701356153568161485c565b94506040870135935060608701359250608087013567ffffffffffffffff81111561538057600080fd5b61538c89828a0161488e565b979a9699509497509295939492505050565b7f4e487b7100000000000000000000000000000000000000000000000000000000600052603260045260246000fd5b600082357fffffffffffffffffffffffffffffffffffffffffffffffffffffffffffffff8183360301811261540157600080fd5b9190910192915050565b60008083357fffffffffffffffffffffffffffffffffffffffffffffffffffffffffffffffe184360301811261544057600080fd5b83018035915067ffffffffffffffff82111561545b57600080fd5b6020019150368190038213156148d057600080fd5b7f4e487b7100000000000000000000000000000000000000000000000000000000600052601160045260246000fd5b600061ffff808316818114156154b7576154b7615470565b6001019392505050565b60008251615401818460208701614b99565b600181811c908216806154e757607f821691505b60208210811415615521577f4e487b7100000000000000000000000000000000000000000000000000000000600052602260045260246000fd5b50919050565b601f8211156122ab57600081815260208120601f850160051c8101602086101561554e5750805b601f850160051c820191505b81811015610d095782815560010161555a565b6007811061139757600080fd5b600081356109228161556d565b6007821061559757615597614f1e565b7fffffffffffffffffffffffffffffffffffffffffffffffffffffffffffffff0081541660ff831681178255505050565b81358155600180820160206155df8186018661540b565b67ffffffffffffffff8111156155f7576155f7614d9d565b61560b8161560586546154d3565b86615527565b6000601f82116001811461565d57600083156156275750838201355b7fffffffffffffffffffffffffffffffffffffffffffffffffffffffffffffffff600385901b1c1916600184901b1786556156ee565b6000868152602090207fffffffffffffffffffffffffffffffffffffffffffffffffffffffffffffffe0841690835b828110156156a9578685013582559387019390890190870161568c565b50848210156156e4577fffffffffffffffffffffffffffffffffffffffffffffffffffffffffffffffff60f88660031b161c19848701351681555b50508683881b0186555b5050505050505061570d6157046040840161557a565b60028301615587565b606082013560038201555050565b81358155600180820160208085013583811061573657600080fd5b7fffffffffffffffffffffffffffffffffffffffffffffffffffffffffffffff0083541660ff8216811784555050600284019150615777604086018661540b565b67ffffffffffffffff81111561578f5761578f614d9d565b61579d8161560586546154d3565b6000601f8211600181146157ef57600083156157b95750838201355b7fffffffffffffffffffffffffffffffffffffffffffffffffffffffffffffffff600385901b1c1916600184901b178655615880565b6000868152602090207fffffffffffffffffffffffffffffffffffffffffffffffffffffffffffffffe0841690835b8281101561583b578685013582559387019390890190870161581e565b5084821015615876577fffffffffffffffffffffffffffffffffffffffffffffffffffffffffffffffff60f88660031b161c19848701351681555b50508683881b0186555b505050505050505050565b60008083357fffffffffffffffffffffffffffffffffffffffffffffffffffffffffffffffe18436030181126158c057600080fd5b830160208101925035905067ffffffffffffffff8111156158e057600080fd5b8036038313156148d057600080fd5b8183528181602085013750600060208284010152600060207fffffffffffffffffffffffffffffffffffffffffffffffffffffffffffffffe0601f840116840101905092915050565b60006101606159648461594a8561487e565b73ffffffffffffffffffffffffffffffffffffffff169052565b6020830135602085015261597b604084018461588b565b82604087015261598e83870182846158ef565b9250505061599f606084018461588b565b85830360608701526159b28382846158ef565b925050506080830135608085015260a083013560a085015260c083013560c085015260e083013560e08501526101008084013581860152506101206159f98185018561588b565b86840383880152615a0b8482846158ef565b9350505050610140615a1f8185018561588b565b86840383880152615a318482846158ef565b979650505050505050565b604081526000615a4f6040830185615938565b90508260208301529392505050565b600060208284031215615a7057600080fd5b5051919050565b615a81818661502d565b608060208201526000615a976080830186614bc5565b8281036040840152615aa98186615938565b91505082606083015295945050505050565b828152604060208201526000610f8b6040830184614bc5565b60008085851115615ae457600080fd5b83861115615af157600080fd5b5050820193919092039150565b7fffffffff000000000000000000000000000000000000000000000000000000008135818116916004851015615b3e5780818660040360031b1b83161692505b505092915050565b60006040808352615b5981840186614bc5565b6020848203818601528186548084528284019150828160051b8501016000898152848120815b84811015615c83577fffffffffffffffffffffffffffffffffffffffffffffffffffffffffffffffe08885030186526080825485526001808401828a880152858154615bca816154d3565b94890185905260a0948185168015615be95760018114615c1b57615c46565b7fffffffffffffffffffffffffffffffffffffffffffffffffffffffffffffff008316878c015260c08b019350615c46565b848a528d8a208a5b83811015615c3e5781548d82018a0152908701908f01615c23565b8c0188019450505b505050600286015460ff169350615c5f8d890185614f4d565b60038601546060989098019790975250505094860194600490910190600101615b7f565b50919b9a5050505050505050505050565b600060208284031215615ca657600080fd5b81356143788161556d565b60078110615cc157615cc1614f1e565b60f81b9052565b83858237600084820160008152615cdf8186615cb1565b600181019390935250506021019392505050565b60008451615d05818460208901614b99565b8201615d118186615cb1565b6001810193909352505060210192915050565b600082821015615d3657615d36615470565b500390565b7f4e487b7100000000000000000000000000000000000000000000000000000000600052603160045260246000fd5b600067ffffffffffffffff821115615d8457615d84614d9d565b5060051b60200190565b600082601f830112615d9f57600080fd5b81356020615db4615daf83615d6a565b614dcc565b82815260059290921b84018101918181019086841115615dd357600080fd5b8286015b84811015615e1357803567ffffffffffffffff811115615df75760008081fd5b615e058986838b0101614e1b565b845250918301918301615dd7565b509695505050505050565b600080600060608486031215615e3357600080fd5b8335615e3e8161485c565b925060208481013567ffffffffffffffff80821115615e5c57600080fd5b818701915087601f830112615e7057600080fd5b8135615e7e615daf82615d6a565b81815260059190911b8301840190848101908a831115615e9d57600080fd5b938501935b82851015615ebb57843582529385019390850190615ea2565b965050506040870135925080831115615ed357600080fd5b5050615ee186828701615d8e565b9150509250925092565b60008060408385031215615efe57600080fd5b505080516020909101519092909150565b600060208284031215615f2157600080fd5b8151801515811461437857600080fdfe416464726573733a206c6f772d6c6576656c2064656c65676174652063616c6c206661696c6564a2646970667358221220543a1f5de466f01e7e20296086e636986a89ecc8fcb5675ab201c24a43cc6f4064736f6c634300080c0033","linkReferences":{},"deployedLinkReferences":{}}