{"_format":"hh-sol-artifact-1","contractName":"FunWalletFactory","sourceName":"contracts/deployer/FunWalletFactory.sol","abi":[{"inputs":[],"stateMutability":"nonpayable","type":"constructor"},{"inputs":[{"internalType":"bytes","name":"initializerCallData","type":"bytes"},{"internalType":"address","name":"implementation","type":"address"},{"internalType":"bytes32","name":"salt","type":"bytes32"}],"name":"createAccount","outputs":[{"internalType":"contract FunWallet","name":"funWallet","type":"address"}],"stateMutability":"nonpayable","type":"function"},{"inputs":[],"name":"funWalletImpAddress","outputs":[{"internalType":"address","name":"","type":"address"}],"stateMutability":"view","type":"function"},{"inputs":[{"internalType":"bytes32","name":"salt","type":"bytes32"}],"name":"getAddress","outputs":[{"internalType":"address","name":"","type":"address"}],"stateMutability":"view","type":"function"}],"bytecode":"0x60a060405234801561001057600080fd5b5060405161001d9061004b565b604051809103906000f080158015610039573d6000803e3d6000fd5b506001600160a01b0316608052610058565b61553280610d7583390190565b608051610cee61008760003960008181609a01528181610107015281816101e501526102860152610cee6000f3fe608060405234801561001057600080fd5b50600436106100415760003560e01c806321f8a72114610046578063780c11f0146100825780638bb0862014610095575b600080fd5b610059610054366004610388565b6100bc565b60405173ffffffffffffffffffffffffffffffffffffffff909116815260200160405180910390f35b6100596100903660046103a1565b6101ac565b6100597f000000000000000000000000000000000000000000000000000000000000000081565b60006101a682604051806020016100d29061037b565b7fffffffffffffffffffffffffffffffffffffffffffffffffffffffffffffffe082820381018352601f9091011660408181527f000000000000000000000000000000000000000000000000000000000000000073ffffffffffffffffffffffffffffffffffffffff1660208301528082015260006060820152608001604080517fffffffffffffffffffffffffffffffffffffffffffffffffffffffffffffffe08184030181529082905261018b929160200161047e565b6040516020818303038152906040528051906020012061033d565b92915050565b6000806101b8836100bc565b905073ffffffffffffffffffffffffffffffffffffffff81163b80156101e057509050610335565b6000847f00000000000000000000000000000000000000000000000000000000000000006040516102109061037b565b73ffffffffffffffffffffffffffffffffffffffff90911681526040602082018190526000908201526060018190604051809103906000f590508015801561025c573d6000803e3d6000fd5b50935083905073ffffffffffffffffffffffffffffffffffffffff86161561028457856102a6565b7f00000000000000000000000000000000000000000000000000000000000000005b6040517f4192d25100000000000000000000000000000000000000000000000000000000815290965073ffffffffffffffffffffffffffffffffffffffff851690634192d251906102ff9089908c908c90600401610493565b600060405180830381600087803b15801561031957600080fd5b505af115801561032d573d6000803e3d6000fd5b505050505050505b949350505050565b600061034a838330610351565b9392505050565b6000604051836040820152846020820152828152600b8101905060ff815360559020949350505050565b6107bb806104fe83390190565b60006020828403121561039a57600080fd5b5035919050565b600080600080606085870312156103b757600080fd5b843567ffffffffffffffff808211156103cf57600080fd5b818701915087601f8301126103e357600080fd5b8135818111156103f257600080fd5b88602082850101111561040457600080fd5b6020928301965094505085013573ffffffffffffffffffffffffffffffffffffffff8116811461043357600080fd5b9396929550929360400135925050565b6000815160005b81811015610464576020818501810151868301520161044a565b81811115610473576000828601525b509290920192915050565b600061033561048d8386610443565b84610443565b73ffffffffffffffffffffffffffffffffffffffff8416815260406020820152816040820152818360608301376000818301606090810191909152601f9092017fffffffffffffffffffffffffffffffffffffffffffffffffffffffffffffffe01601019291505056fe60806040526040516107bb3803806107bb8339810160408190526100229161031e565b61002e82826000610035565b505061043b565b61003e8361006b565b60008251118061004b5750805b156100665761006483836100ab60201b6100291760201c565b505b505050565b610074816100d7565b6040516001600160a01b038216907fbc7cd75a20ee27fd9adebab32041f755214dbc6bffa90cc0225b39da2e5c2d3b90600090a250565b60606100d08383604051806060016040528060278152602001610794602791396101a9565b9392505050565b6100ea8161022260201b6100551760201c565b6101515760405162461bcd60e51b815260206004820152602d60248201527f455243313936373a206e657720696d706c656d656e746174696f6e206973206e60448201526c1bdd08184818dbdb9d1c9858dd609a1b60648201526084015b60405180910390fd5b806101887f360894a13ba1a3210667c828492db98dca3e2076cc3735a920a3ca505d382bbc60001b61023160201b6100711760201c565b80546001600160a01b0319166001600160a01b039290921691909117905550565b6060600080856001600160a01b0316856040516101c691906103ec565b600060405180830381855af49150503d8060008114610201576040519150601f19603f3d011682016040523d82523d6000602084013e610206565b606091505b50909250905061021886838387610234565b9695505050505050565b6001600160a01b03163b151590565b90565b606083156102a0578251610299576001600160a01b0385163b6102995760405162461bcd60e51b815260206004820152601d60248201527f416464726573733a2063616c6c20746f206e6f6e2d636f6e74726163740000006044820152606401610148565b50816102aa565b6102aa83836102b2565b949350505050565b8151156102c25781518083602001fd5b8060405162461bcd60e51b81526004016101489190610408565b634e487b7160e01b600052604160045260246000fd5b60005b8381101561030d5781810151838201526020016102f5565b838111156100645750506000910152565b6000806040838503121561033157600080fd5b82516001600160a01b038116811461034857600080fd5b60208401519092506001600160401b038082111561036557600080fd5b818501915085601f83011261037957600080fd5b81518181111561038b5761038b6102dc565b604051601f8201601f19908116603f011681019083821181831017156103b3576103b36102dc565b816040528281528860208487010111156103cc57600080fd5b6103dd8360208301602088016102f2565b80955050505050509250929050565b600082516103fe8184602087016102f2565b9190910192915050565b60208152600082518060208401526104278160408501602087016102f2565b601f01601f19169190910160400192915050565b61034a8061044a6000396000f3fe60806040523661001357610011610017565b005b6100115b610027610022610074565b6100b9565b565b606061004e83836040518060600160405280602781526020016102ee602791396100dd565b9392505050565b73ffffffffffffffffffffffffffffffffffffffff163b151590565b90565b60006100b47f360894a13ba1a3210667c828492db98dca3e2076cc3735a920a3ca505d382bbc5473ffffffffffffffffffffffffffffffffffffffff1690565b905090565b3660008037600080366000845af43d6000803e8080156100d8573d6000f35b3d6000fd5b60606000808573ffffffffffffffffffffffffffffffffffffffff16856040516101079190610280565b600060405180830381855af49150503d8060008114610142576040519150601f19603f3d011682016040523d82523d6000602084013e610147565b606091505b509150915061015886838387610162565b9695505050505050565b606083156101fa5782516101f35773ffffffffffffffffffffffffffffffffffffffff85163b6101f3576040517f08c379a000000000000000000000000000000000000000000000000000000000815260206004820152601d60248201527f416464726573733a2063616c6c20746f206e6f6e2d636f6e747261637400000060448201526064015b60405180910390fd5b5081610204565b610204838361020c565b949350505050565b81511561021c5781518083602001fd5b806040517f08c379a00000000000000000000000000000000000000000000000000000000081526004016101ea919061029c565b60005b8381101561026b578181015183820152602001610253565b8381111561027a576000848401525b50505050565b60008251610292818460208701610250565b9190910192915050565b60208152600082518060208401526102bb816040850160208701610250565b601f017fffffffffffffffffffffffffffffffffffffffffffffffffffffffffffffffe016919091016040019291505056fe416464726573733a206c6f772d6c6576656c2064656c65676174652063616c6c206661696c6564a2646970667358221220bab5e8f94970417631c9d8c26cab40c1e83055f31e41fbdb22e76e726c1312f264736f6c634300080c0033416464726573733a206c6f772d6c6576656c2064656c65676174652063616c6c206661696c6564a2646970667358221220ccea2cedcc00c70ee5638aecddc41ea4f6c442db4c0b3371ac354cd9fe0e98ea64736f6c634300080c003360a0604052306080526000805462ff00001916905534801561002057600080fd5b506080516154da61005860003960008181610f4d01528181610fe301528181611c0d01528181611ca30152611dd201526154da6000f3fe6080604052600436106102025760003560e01c80635e5d43201161011d578063b0d691fe116100b0578063cc793fa61161007f578063dc7c984811610064578063dc7c984814610620578063e374e90f14610640578063ffa1ad741461068057600080fd5b8063cc793fa6146105e0578063d06403d61461060057600080fd5b8063b0d691fe14610560578063c0c53b8b1461058b578063c399ec88146105ab578063c7d76308146105c057600080fd5b80638da5cb5b116100ec5780638da5cb5b146104de57806399d3fef31461050b5780639cfdf5b61461052b578063a55e593d1461054057600080fd5b80635e5d43201461043d5780636517579c1461045d57806375b238fc1461048a5780637b8ea028146104be57600080fd5b80633a871cdd116101955780634f1ef286116101645780634f1ef286146103c857806352d1902d146103db57806355cd05cc146103f05780635cbf1e6e1461041057600080fd5b80633a871cdd1461031c5780633cb66ec41461033c5780634192d251146103885780634789b97e146103a857600080fd5b80632ed6fb5d116101d15780632ed6fb5d14610299578063357f7bb0146102b95780633659cfe6146102dc5780633a6e5a0a146102fc57600080fd5b8063033183e91461020e57806315577ae2146102305780631b71bb6e1461025057806320d2a20f1461027057600080fd5b3661020957005b600080fd5b34801561021a57600080fd5b5061022e6102293660046141b0565b610695565b005b34801561023c57600080fd5b5061022e61024b36600461420c565b610a7e565b34801561025c57600080fd5b5061022e61026b36600461425a565b610ba8565b61028361027e3660046142b9565b610caa565b604051610290919061437f565b60405180910390f35b3480156102a557600080fd5b5061022e6102b4366004614392565b610d00565b3480156102c557600080fd5b506102ce600481565b604051908152602001610290565b3480156102e857600080fd5b5061022e6102f736600461425a565b610f35565b34801561030857600080fd5b5061022e6103173660046143f2565b611107565b34801561032857600080fd5b506102ce61033736600461448c565b6112d7565b34801561034857600080fd5b5060065473ffffffffffffffffffffffffffffffffffffffff165b60405173ffffffffffffffffffffffffffffffffffffffff9091168152602001610290565b34801561039457600080fd5b5061022e6103a33660046144e0565b611a27565b3480156103b457600080fd5b5061022e6103c3366004614535565b611b18565b61022e6103d63660046146c4565b611bf5565b3480156103e757600080fd5b506102ce611db8565b3480156103fc57600080fd5b5061022e61040b3660046142b9565b611e8a565b34801561041c57600080fd5b5061043061042b366004614714565b611f10565b604051610290919061477c565b34801561044957600080fd5b5061022e61045836600461482f565b61214f565b34801561046957600080fd5b5061047d61047836600461482f565b6121f2565b6040516102909190614858565b34801561049657600080fd5b506102ce7f61646d696e00000000000000000000000000000000000000000000000000000081565b3480156104ca57600080fd5b5061022e6104d936600461425a565b612340565b3480156104ea57600080fd5b506007546103639073ffffffffffffffffffffffffffffffffffffffff1681565b34801561051757600080fd5b5061022e610526366004614392565b612442565b34801561053757600080fd5b506102ce60c881565b34801561054c57600080fd5b5061022e61055b36600461482f565b612a43565b34801561056c57600080fd5b5060055473ffffffffffffffffffffffffffffffffffffffff16610363565b34801561059757600080fd5b5061022e6105a6366004614890565b612b40565b3480156105b757600080fd5b506102ce613008565b3480156105cc57600080fd5b5061022e6105db3660046148d0565b6130a0565b3480156105ec57600080fd5b5061022e6105fb3660046148fc565b6131b9565b34801561060c57600080fd5b5061028361061b36600461425a565b6133c0565b34801561062c57600080fd5b5061022e61063b36600461420c565b613479565b34801561064c57600080fd5b5061067061065b36600461482f565b60009081526002602052604090205460ff1690565b6040519015158152602001610290565b34801561068c57600080fd5b506102ce600681565b61069d613588565b836106ef5760405162461bcd60e51b815260206004820152600d60248201527f726f6c6520697320656d7074790000000000000000000000000000000000000060448201526064015b60405180910390fd5b73ffffffffffffffffffffffffffffffffffffffff83166107525760405162461bcd60e51b815260206004820152601760248201527f6d6f64756c65206164647265737320697320656d70747900000000000000000060448201526064016106e6565b8061079f5760405162461bcd60e51b815260206004820152600f60248201527f72756c65732061726520656d707479000000000000000000000000000000000060448201526064016106e6565b60005b61ffff811682111561093c576000838361ffff84168181106107c6576107c661492a565b90506020028101906107d89190614959565b3514156108275760405162461bcd60e51b815260206004820152601560248201527f72756c652068617320656d70747920616374696f6e000000000000000000000060448201526064016106e6565b600083838361ffff1681811061083f5761083f61492a565b90506020028101906108519190614959565b61085f906020810190614997565b9050116108ae5760405162461bcd60e51b815260206004820152601560248201527f72756c652068617320656d70747920746172676574000000000000000000000060448201526064016106e6565b6000838361ffff84168181106108c6576108c661492a565b90506020028101906108d89190614959565b60600135141561092a5760405162461bcd60e51b815260206004820152601560248201527f72756c652068617320656d70747920657874656e74000000000000000000000060448201526064016106e6565b8061093481614a2b565b9150506107a2565b5060008473ffffffffffffffffffffffffffffffffffffffff85166040805160208101939093528201526060016040516020818303038152906040529050600060048260405161098c9190614a4d565b9081526040519081900360200190205411156109ea5760405162461bcd60e51b815260206004820152601360248201527f726f6c6520616c7265616479206578697374730000000000000000000000000060448201526064016106e6565b60005b61ffff8116831115610a7657600482604051610a099190614a4d565b908152602001604051809103902084848361ffff16818110610a2d57610a2d61492a565b9050602002810190610a3f9190614959565b815460018101835560009283526020909220909160040201610a618282614b5a565b50508080610a6e90614a2b565b9150506109ed565b505050505050565b610a86613588565b81610ad35760405162461bcd60e51b815260206004820152600e60248201527f696e76616c69642075736572496400000000000000000000000000000000000060448201526064016106e6565b610adc82613639565b8035610b2a5760405162461bcd60e51b815260206004820152601360248201527f757365722068617320656d70747920726f6c650000000000000000000000000060448201526064016106e6565b6000610b396040830183614997565b905011610b885760405162461bcd60e51b815260206004820152601c60248201527f757365722068617320656d7074792061757468206d657461646174610000000060448201526064016106e6565b60008281526003602052604090208190610ba28282614cad565b50505050565b610bb0613588565b73ffffffffffffffffffffffffffffffffffffffff8116610c395760405162461bcd60e51b815260206004820152603260248201527f66756e2077616c6c65743a206e657720656e74727920706f696e74206164647260448201527f6573732063616e6e6f74206265207a65726f000000000000000000000000000060648201526084016106e6565b600580547fffffffffffffffffffffffff00000000000000000000000000000000000000001673ffffffffffffffffffffffffffffffffffffffff831690811790915560405181907f450909c1478d09248269d4ad4fa8cba61ca3f50faed58c7aedefa51c7f62b83a90600090a350565b6060610cb46136a4565b610cf5858585858080601f01602080910402602001604051908101604052809392919081815260200183838082843760009201919091525061373392505050565b90505b949350505050565b610d08613588565b82610d555760405162461bcd60e51b815260206004820152600d60248201527f726f6c6520697320656d7074790000000000000000000000000000000000000060448201526064016106e6565b73ffffffffffffffffffffffffffffffffffffffff8216610db85760405162461bcd60e51b815260206004820152601760248201527f6d6f64756c65206164647265737320697320656d70747900000000000000000060448201526064016106e6565b8035610e065760405162461bcd60e51b815260206004820152601560248201527f72756c652068617320656d70747920616374696f6e000000000000000000000060448201526064016106e6565b6000610e156020830183614997565b905011610e645760405162461bcd60e51b815260206004820152601560248201527f72756c652068617320656d70747920746172676574000000000000000000000060448201526064016106e6565b6060810135610eb55760405162461bcd60e51b815260206004820152601560248201527f72756c652068617320656d70747920657874656e74000000000000000000000060448201526064016106e6565b604080516020810185905273ffffffffffffffffffffffffffffffffffffffff8416818301528151808203830181526060909101909152610ef5816137fb565b600481604051610f059190614a4d565b9081526040516020918190038201902080546001810182556000918252919020839160040201610a768282614b5a565b3073ffffffffffffffffffffffffffffffffffffffff7f0000000000000000000000000000000000000000000000000000000000000000161415610fe15760405162461bcd60e51b815260206004820152602c60248201527f46756e6374696f6e206d7573742062652063616c6c6564207468726f7567682060448201527f64656c656761746563616c6c000000000000000000000000000000000000000060648201526084016106e6565b7f000000000000000000000000000000000000000000000000000000000000000073ffffffffffffffffffffffffffffffffffffffff166110567f360894a13ba1a3210667c828492db98dca3e2076cc3735a920a3ca505d382bbc5473ffffffffffffffffffffffffffffffffffffffff1690565b73ffffffffffffffffffffffffffffffffffffffff16146110df5760405162461bcd60e51b815260206004820152602c60248201527f46756e6374696f6e206d7573742062652063616c6c6564207468726f7567682060448201527f6163746976652070726f7879000000000000000000000000000000000000000060648201526084016106e6565b6110e88161386a565b6040805160008082526020820190925261110491839190613872565b50565b61110f613588565b848314801561111d57508281145b6111695760405162461bcd60e51b815260206004820152601760248201527f6461746120697320646966666572656e742073697a657300000000000000000060448201526064016106e6565b60005b858110156112ce576111a08383838181106111895761118961492a565b905060200281019061119b9190614997565b613a3d565b156112c65760006112488888848181106111bc576111bc61492a565b90506020020160208101906111d1919061425a565b8787858181106111e3576111e361492a565b905060200201358686868181106111fc576111fc61492a565b905060200281019061120e9190614997565b8080601f01602080910402602001604051908101604052809392919081815260200183838082843760009201919091525061373392505050565b905080600160008a8a868181106112615761126161492a565b9050602002016020810190611276919061425a565b73ffffffffffffffffffffffffffffffffffffffff1673ffffffffffffffffffffffffffffffffffffffff16815260200190815260200160002090805190602001906112c3929190613fe4565b50505b60010161116c565b50505050505050565b60006112e1613aa3565b6006546040517f81adfce600000000000000000000000000000000000000000000000000000000815260009173ffffffffffffffffffffffffffffffffffffffff16906381adfce69061133a9088908890600401614fce565b602060405180830381865afa158015611357573d6000803e3d6000fd5b505050506040513d601f19601f8201168201806040525081019061137b9190614ff0565b905061138681613639565b6000818152600360209081526040808320815160608101909252805482526001810154919290919083019060ff1680156113c2576113c2614739565b80156113d0576113d0614739565b81526020016002820180546113e490614a5f565b80601f016020809104026020016040519081016040528092919081815260200182805461141090614a5f565b801561145d5780601f106114325761010080835404028352916020019161145d565b820191906000526020600020905b81548152906001019060200180831161144057829003601f168201915b505050919092525050600654602083015160408085015190517fdeca388700000000000000000000000000000000000000000000000000000000815294955073ffffffffffffffffffffffffffffffffffffffff9092169363deca388793506114cd92908b908b90600401615009565b602060405180830381865afa1580156114ea573d6000803e3d6000fd5b505050506040513d601f19601f8201168201806040525081019061150e9190614ff0565b925061151d6040870187614997565b1515905061152e5761152e86613b0a565b600081600001516040518060400160405280600181526020017f2a0000000000000000000000000000000000000000000000000000000000000081525060405160200161157c92919061504d565b60405160208183030381529060405290507f61646d696e0000000000000000000000000000000000000000000000000000008260000151141580156115e1575060006004826040516115ce9190614a4d565b9081526040519081900360200190205411155b15611a14577f4789b97e000000000000000000000000000000000000000000000000000000006116146060890189614997565b61162391600491600091615066565b61162c91615090565b7fffffffff000000000000000000000000000000000000000000000000000000001614156118a15760008061166c61166760608b018b614997565b613bae565b86519294509250600091905073ffffffffffffffffffffffffffffffffffffffff8416604080516020810193909352820152606001604051602081830303815290604052905060006004826040516116c49190614a4d565b90815260405190819003602001902054116117215760405162461bcd60e51b815260206004820152601660248201527f75736572206973206e6f7420617574686f72697a65640000000000000000000060448201526064016106e6565b8273ffffffffffffffffffffffffffffffffffffffff166352bd4f41836000815181106117505761175061492a565b60200260200101516004846040516117689190614a4d565b9081526040519081900360200181207fffffffff0000000000000000000000000000000000000000000000000000000060e085901b1682526117ad92916004016150d8565b60006040518083038186803b1580156117c557600080fd5b505afa1580156117d9573d6000803e3d6000fd5b505050508273ffffffffffffffffffffffffffffffffffffffff166352bd4f418360018151811061180c5761180c61492a565b60200260200101516004846040516118249190614a4d565b9081526040519081900360200181207fffffffff0000000000000000000000000000000000000000000000000000000060e085901b16825261186992916004016150d8565b60006040518083038186803b15801561188157600080fd5b505afa158015611895573d6000803e3d6000fd5b50505050505050611a14565b6000806118b96118b460608b018b614997565b613bdb565b86519294509250600091905073ffffffffffffffffffffffffffffffffffffffff8416604080516020810193909352820152606001604051602081830303815290604052905060006004826040516119119190614a4d565b908152604051908190036020019020541161196e5760405162461bcd60e51b815260206004820152601660248201527f75736572206973206e6f7420617574686f72697a65640000000000000000000060448201526064016106e6565b8273ffffffffffffffffffffffffffffffffffffffff166352bd4f418360048460405161199b9190614a4d565b9081526040519081900360200181207fffffffff0000000000000000000000000000000000000000000000000000000060e085901b1682526119e092916004016150d8565b60006040518083038186803b1580156119f857600080fd5b505afa158015611a0c573d6000803e3d6000fd5b505050505050505b611a1d85613c4d565b5050509392505050565b60005462010000900460ff1615611aa65760405162461bcd60e51b815260206004820152602260248201527f436f6e74726163742068617320616c7265616479206265656e206465706c6f7960448201527f656400000000000000000000000000000000000000000000000000000000000060648201526084016106e6565b611ae68383838080601f01602080910402602001604051908101604052809392919081815260200183838082843760009201829052509250613cb8915050565b5050600080547fffffffffffffffffffffffffffffffffffffffffffffffffffffffffff00ffff166201000017905550565b611b2e828260008181106111895761118961492a565b611b7a5760405162461bcd60e51b815260206004820181905260248201527f66697273742063616c6c206973206e6f7420616e20696e697420616374696f6e60448201526064016106e6565b611bbd8585856000818110611b9157611b9161492a565b9050602002013584846000818110611bab57611bab61492a565b905060200281019061040b9190614997565b611bee8585856001818110611bd457611bd461492a565b9050602002013584846001818110611bab57611bab61492a565b5050505050565b3073ffffffffffffffffffffffffffffffffffffffff7f0000000000000000000000000000000000000000000000000000000000000000161415611ca15760405162461bcd60e51b815260206004820152602c60248201527f46756e6374696f6e206d7573742062652063616c6c6564207468726f7567682060448201527f64656c656761746563616c6c000000000000000000000000000000000000000060648201526084016106e6565b7f000000000000000000000000000000000000000000000000000000000000000073ffffffffffffffffffffffffffffffffffffffff16611d167f360894a13ba1a3210667c828492db98dca3e2076cc3735a920a3ca505d382bbc5473ffffffffffffffffffffffffffffffffffffffff1690565b73ffffffffffffffffffffffffffffffffffffffff1614611d9f5760405162461bcd60e51b815260206004820152602c60248201527f46756e6374696f6e206d7573742062652063616c6c6564207468726f7567682060448201527f6163746976652070726f7879000000000000000000000000000000000000000060648201526084016106e6565b611da88261386a565b611db482826001613872565b5050565b60003073ffffffffffffffffffffffffffffffffffffffff7f00000000000000000000000000000000000000000000000000000000000000001614611e655760405162461bcd60e51b815260206004820152603860248201527f555550535570677261646561626c653a206d757374206e6f742062652063616c60448201527f6c6564207468726f7567682064656c656761746563616c6c000000000000000060648201526084016106e6565b507f360894a13ba1a3210667c828492db98dca3e2076cc3735a920a3ca505d382bbc90565b611e92613588565b6000611ed5858585858080601f01602080910402602001604051908101604052809392919081815260200183838082843760009201919091525061373392505050565b73ffffffffffffffffffffffffffffffffffffffff861660009081526001602090815260409091208251929350610a76929091840190613fe4565b606082611f5f5760405162461bcd60e51b815260206004820152600d60248201527f726f6c6520697320656d7074790000000000000000000000000000000000000060448201526064016106e6565b73ffffffffffffffffffffffffffffffffffffffff8216611fc25760405162461bcd60e51b815260206004820152601760248201527f6d6f64756c65206164647265737320697320656d70747900000000000000000060448201526064016106e6565b604080516020810185905273ffffffffffffffffffffffffffffffffffffffff84168183015281518082038301815260609091019182905290600490612009908390614a4d565b9081526020016040518091039020805480602002602001604051908101604052809291908181526020016000905b8282101561214257838290600052602060002090600402016040518060800160405290816000820154815260200160018201805461207490614a5f565b80601f01602080910402602001604051908101604052809291908181526020018280546120a090614a5f565b80156120ed5780601f106120c2576101008083540402835291602001916120ed565b820191906000526020600020905b8154815290600101906020018083116120d057829003601f168201915b5050509183525050600282015460209091019060ff16600681111561211457612114614739565b600681111561212557612125614739565b815260200160038201548152505081526020019060010190612037565b5050505091505092915050565b612157613588565b806121a45760405162461bcd60e51b815260206004820152600e60248201527f696e76616c69642075736572496400000000000000000000000000000000000060448201526064016106e6565b60008181526003602052604081208181556001810180547fffffffffffffffffffffffffffffffffffffffffffffffffffffffffffffff00169055906121ed6002830182614068565b505050565b604080516060808201835260008083526020830152918101919091528161225b5760405162461bcd60e51b815260206004820152600e60248201527f696e76616c69642075736572496400000000000000000000000000000000000060448201526064016106e6565b600082815260036020908152604091829020825160608101909352805483526001810154909183019060ff16801561229557612295614739565b80156122a3576122a3614739565b81526020016002820180546122b790614a5f565b80601f01602080910402602001604051908101604052809291908181526020018280546122e390614a5f565b80156123305780601f1061230557610100808354040283529160200191612330565b820191906000526020600020905b81548152906001019060200180831161231357829003601f168201915b5050505050815250509050919050565b612348613588565b73ffffffffffffffffffffffffffffffffffffffff81166123d15760405162461bcd60e51b815260206004820152603260248201527f66756e2077616c6c65743a206e657720656e74727920706f696e74206164647260448201527f6573732063616e6e6f74206265207a65726f000000000000000000000000000060648201526084016106e6565b600680547fffffffffffffffffffffffff00000000000000000000000000000000000000001673ffffffffffffffffffffffffffffffffffffffff831690811790915560405181907f34a5e38fc8fe74f12b269fe92e724092f7f531dc4985c88fb113460cfcb5f67d90600090a350565b61244a613588565b826124975760405162461bcd60e51b815260206004820152600d60248201527f726f6c6520697320656d7074790000000000000000000000000000000000000060448201526064016106e6565b73ffffffffffffffffffffffffffffffffffffffff82166124fa5760405162461bcd60e51b815260206004820152601760248201527f6d6f64756c65206164647265737320697320656d70747900000000000000000060448201526064016106e6565b80356125485760405162461bcd60e51b815260206004820152601560248201527f72756c652068617320656d70747920616374696f6e000000000000000000000060448201526064016106e6565b60006125576020830183614997565b9050116125a65760405162461bcd60e51b815260206004820152601560248201527f72756c652068617320656d70747920746172676574000000000000000000000060448201526064016106e6565b60608101356125f75760405162461bcd60e51b815260206004820152601560248201527f72756c652068617320656d70747920657874656e74000000000000000000000060448201526064016106e6565b604080516020810185905273ffffffffffffffffffffffffffffffffffffffff8416818301528151808203830181526060909101909152612637816137fb565b60006004826040516126499190614a4d565b9081526020016040518091039020805480602002602001604051908101604052809291908181526020016000905b828210156127825783829060005260206000209060040201604051806080016040529081600082015481526020016001820180546126b490614a5f565b80601f01602080910402602001604051908101604052809291908181526020018280546126e090614a5f565b801561272d5780601f106127025761010080835404028352916020019161272d565b820191906000526020600020905b81548152906001019060200180831161271057829003601f168201915b5050509183525050600282015460209091019060ff16600681111561275457612754614739565b600681111561276557612765614739565b815260200160038201548152505081526020019060010190612677565b505050509050600083806020019061279a9190614997565b6127aa6060870160408801615226565b86606001356040516020016127c2949392919061525a565b60405160208183030381529060405280519060200120905060005b6004846040516127ed9190614a4d565b9081526040519081900360200190205461ffff821610156112ce576000838261ffff16815181106128205761282061492a565b602002602001015160200151848361ffff16815181106128425761284261492a565b602002602001015160400151858461ffff16815181106128645761286461492a565b60200260200101516060015160405160200161288293929190615285565b60405160208183030381529060405280519060200120905080831415612a305783600185516128b191906152b6565b815181106128c1576128c161492a565b60200260200101516004866040516128d99190614a4d565b90815260200160405180910390208361ffff16815481106128fc576128fc61492a565b9060005260206000209060040201600082015181600001556020820151816001019080519060200190612930929190613fe4565b5060408201516002820180547fffffffffffffffffffffffffffffffffffffffffffffffffffffffffffffff0016600183600681111561297257612972614739565b0217905550606082015181600301559050506004856040516129949190614a4d565b90815260200160405180910390208054806129b1576129b16152cd565b60008281526020812060047fffffffffffffffffffffffffffffffffffffffffffffffffffffffffffffffff90930192830201818155906129f56001830182614068565b506002810180547fffffffffffffffffffffffffffffffffffffffffffffffffffffffffffffff0016905560006003909101559055506112ce565b5080612a3b81614a2b565b9150506127dd565b612a4b613cdd565b80471015612ac15760405162461bcd60e51b815260206004820152602a60248201527f66756e2077616c6c65743a206e6f7420656e6f75676820657468657220696e2060448201527f7468652077616c6c65740000000000000000000000000000000000000000000060648201526084016106e6565b6005546040517fb760faf900000000000000000000000000000000000000000000000000000000815230600482015273ffffffffffffffffffffffffffffffffffffffff9091169063b760faf990602401600060405180830381600087803b158015612b2c57600080fd5b505af1158015611bee573d6000803e3d6000fd5b600054610100900460ff1615808015612b605750600054600160ff909116105b80612b7a5750303b158015612b7a575060005460ff166001145b612bec5760405162461bcd60e51b815260206004820152602e60248201527f496e697469616c697a61626c653a20636f6e747261637420697320616c72656160448201527f647920696e697469616c697a656400000000000000000000000000000000000060648201526084016106e6565b600080547fffffffffffffffffffffffffffffffffffffffffffffffffffffffffffffff001660011790558015612c4a57600080547fffffffffffffffffffffffffffffffffffffffffffffffffffffffffffff00ff166101001790555b73ffffffffffffffffffffffffffffffffffffffff8416612cad5760405162461bcd60e51b815260206004820152601260248201527f496e76616c696420456e747279706f696e74000000000000000000000000000060448201526064016106e6565b6005805473ffffffffffffffffffffffffffffffffffffffff8681167fffffffffffffffffffffffff00000000000000000000000000000000000000009283161790925560068054868416908316179055600780549285169290911682179055604080516060810182527f61646d696e000000000000000000000000000000000000000000000000000000815260006020808301828152845180830187905285518082038401815290860186528486015294825260039052919091208151815591516001838101805493949390917fffffffffffffffffffffffffffffffffffffffffffffffffffffffffffffff0090911690838015612daf57612daf614739565b021790555060408201518051612dcf916002840191602090910190613fe4565b5090505060007f61646d696e0000000000000000000000000000000000000000000000000000006040518060400160405280600181526020017f2a00000000000000000000000000000000000000000000000000000000000000815250604051602001612e3d92919061504d565b6040516020818303038152906040529050600481604051612e5e9190614a4d565b908152602001604051809103902060405180608001604052807f2a0000000000000000000000000000000000000000000000000000000000000081526020016040518060400160405280600181526020017f2a000000000000000000000000000000000000000000000000000000000000008152508152602001600680811115612eea57612eea614739565b81527f2a00000000000000000000000000000000000000000000000000000000000000602091820152825460018181018555600094855293829020835160049092020190815582820151805193949193612f4c93928501929190910190613fe4565b5060408201516002820180547fffffffffffffffffffffffffffffffffffffffffffffffffffffffffffffff00166001836006811115612f8e57612f8e614739565b0217905550606082015181600301555050508015610ba257600080547fffffffffffffffffffffffffffffffffffffffffffffffffffffffffffff00ff169055604051600181527f7f26b83ff96e1f2b6a682f133852f6798a09c465da95921460cefb38474024989060200160405180910390a150505050565b6005546040517f70a0823100000000000000000000000000000000000000000000000000000000815230600482015260009173ffffffffffffffffffffffffffffffffffffffff16906370a0823190602401602060405180830381865afa158015613077573d6000803e3d6000fd5b505050506040513d601f19601f8201168201806040525081019061309b9190614ff0565b905090565b6130a8613cdd565b73ffffffffffffffffffffffffffffffffffffffff82166131315760405162461bcd60e51b815260206004820152602b60248201527f66756e2077616c6c65743a20776974686472617720616464726573732063616e60448201527f6e6f74206265207a65726f00000000000000000000000000000000000000000060648201526084016106e6565b6005546040517f205c287800000000000000000000000000000000000000000000000000000000815273ffffffffffffffffffffffffffffffffffffffff8481166004830152602482018490529091169063205c287890604401600060405180830381600087803b1580156131a557600080fd5b505af1158015610a76573d6000803e3d6000fd5b6131c1613588565b73ffffffffffffffffffffffffffffffffffffffff811661324a5760405162461bcd60e51b815260206004820152602d60248201527f66756e2077616c6c65743a206e6577206d6f64756c652061646472657373206360448201527f616e6e6f74206265207a65726f0000000000000000000000000000000000000060648201526084016106e6565b8173ffffffffffffffffffffffffffffffffffffffff168173ffffffffffffffffffffffffffffffffffffffff1614156132ec5760405162461bcd60e51b815260206004820152603e60248201527f66756e2077616c6c65743a206e6577206d6f64756c652061646472657373206360448201527f616e6e6f7420626520657175616c20746f2070726576696f7573206f6e65000060648201526084016106e6565b73ffffffffffffffffffffffffffffffffffffffff80831660009081526001602052604080822092841682529020815490919061332890614a5f565b6133339291906140a2565b5073ffffffffffffffffffffffffffffffffffffffff8216600090815260016020526040812061336291614068565b8073ffffffffffffffffffffffffffffffffffffffff168273ffffffffffffffffffffffffffffffffffffffff167fdcbf4cc8a7afc3fe6e403a57745b98188844fdfee49c8752ae30fc46b3a39ebb60405160405180910390a35050565b73ffffffffffffffffffffffffffffffffffffffff811660009081526001602052604090208054606091906133f490614a5f565b80601f016020809104026020016040519081016040528092919081815260200182805461342090614a5f565b801561346d5780601f106134425761010080835404028352916020019161346d565b820191906000526020600020905b81548152906001019060200180831161345057829003601f168201915b50505050509050919050565b613481613588565b816134ce5760405162461bcd60e51b815260206004820152600e60248201527f696e76616c69642075736572496400000000000000000000000000000000000060448201526064016106e6565b600082815260036020526040812060020180546134ea90614a5f565b9050111561353a5760405162461bcd60e51b815260206004820152601360248201527f7573657220616c7265616479206578697374730000000000000000000000000060448201526064016106e6565b8035610b2a5760405162461bcd60e51b815260206004820152601460248201527f757365722068617320656d70747920726f6c657300000000000000000000000060448201526064016106e6565b60055473ffffffffffffffffffffffffffffffffffffffff163314806135c5575060075473ffffffffffffffffffffffffffffffffffffffff1633145b6136375760405162461bcd60e51b815260206004820152602860248201527f66756e2077616c6c65743a206e6f742066726f6d20456e747279506f696e742060448201527f6f72206f776e657200000000000000000000000000000000000000000000000060648201526084016106e6565b565b6000818152600360205260408120600201805461365590614a5f565b9050116111045760405162461bcd60e51b815260206004820152601f60248201527f66756e2077616c6c65743a207573657220646f6573206e6f742065786973740060448201526064016106e6565b33600090815260016020526040812080546136be90614a5f565b9050116136375760405162461bcd60e51b815260206004820152602360248201527f66756e2077616c6c65743a206e6f742066726f6d2061206b6e6f776e204d6f6460448201527f756c65000000000000000000000000000000000000000000000000000000000060648201526084016106e6565b60606000808573ffffffffffffffffffffffffffffffffffffffff16858560405161375e9190614a4d565b60006040518083038185875af1925050503d806000811461379b576040519150601f19603f3d011682016040523d82523d6000602084013e6137a0565b606091505b5091509150816137f25760405162461bcd60e51b815260206004820181905260248201527f66756e2077616c6c65743a2065787465726e616c2063616c6c206661696c656460448201526064016106e6565b95945050505050565b600060048260405161380d9190614a4d565b90815260405190819003602001902054116111045760405162461bcd60e51b815260206004820152601f60248201527f66756e2077616c6c65743a20726f6c6520646f6573206e6f742065786973740060448201526064016106e6565b611104613588565b7f4910fdfa16fed3260ed0e7147f7cc6da11a60208b5b9406d12a635614ffd91435460ff16156138a5576121ed83613d4e565b8273ffffffffffffffffffffffffffffffffffffffff166352d1902d6040518163ffffffff1660e01b8152600401602060405180830381865afa92505050801561392a575060408051601f3d9081017fffffffffffffffffffffffffffffffffffffffffffffffffffffffffffffffe016820190925261392791810190614ff0565b60015b61399c5760405162461bcd60e51b815260206004820152602e60248201527f45524331393637557067726164653a206e657720696d706c656d656e7461746960448201527f6f6e206973206e6f74205555505300000000000000000000000000000000000060648201526084016106e6565b7f360894a13ba1a3210667c828492db98dca3e2076cc3735a920a3ca505d382bbc8114613a315760405162461bcd60e51b815260206004820152602960248201527f45524331393637557067726164653a20756e737570706f727465642070726f7860448201527f6961626c6555554944000000000000000000000000000000000000000000000060648201526084016106e6565b506121ed838383613cb8565b600080613a4d6004828587615066565b613a5691615090565b7fffffffff00000000000000000000000000000000000000000000000000000000167f4ddf47d4000000000000000000000000000000000000000000000000000000001491505092915050565b60055473ffffffffffffffffffffffffffffffffffffffff1633146136375760405162461bcd60e51b815260206004820152601f60248201527f66756e2077616c6c65743a206e6f742066726f6d20456e747279506f696e740060448201526064016106e6565b60208082013560009081526002909152604090205460ff1615613b6f5760405162461bcd60e51b815260206004820152601960248201527f66756e2077616c6c65743a20696e76616c6964206e6f6e63650000000000000060448201526064016106e6565b602090810135600090815260029091526040902080547fffffffffffffffffffffffffffffffffffffffffffffffffffffffffffffff00166001179055565b6000606080613bc08460048188615066565b810190613bcd91906153b0565b919790965090945092505050565b6000806060613bed8460048188615066565b810190613bfa91906148d0565b9093509150613c0c8460c88188615066565b8080601f0160208091040260200160405190810160405280939291908181526020018383808284376000920191909152509598949750919550929350505050565b80156111045760405160009033907fffffffffffffffffffffffffffffffffffffffffffffffffffffffffffffffff90849084818181858888f193505050503d8060008114611bee576040519150601f19603f3d011682016040523d82523d6000602084013e611bee565b613cc183613e3e565b600082511180613cce5750805b156121ed57610ba28383613e8b565b60075473ffffffffffffffffffffffffffffffffffffffff16331480613d0257503330145b6136375760405162461bcd60e51b815260206004820152601a60248201527f66756e2077616c6c65743a206e6f742066726f6d204f776e657200000000000060448201526064016106e6565b73ffffffffffffffffffffffffffffffffffffffff81163b613dd85760405162461bcd60e51b815260206004820152602d60248201527f455243313936373a206e657720696d706c656d656e746174696f6e206973206e60448201527f6f74206120636f6e74726163740000000000000000000000000000000000000060648201526084016106e6565b7f360894a13ba1a3210667c828492db98dca3e2076cc3735a920a3ca505d382bbc80547fffffffffffffffffffffffff00000000000000000000000000000000000000001673ffffffffffffffffffffffffffffffffffffffff92909216919091179055565b613e4781613d4e565b60405173ffffffffffffffffffffffffffffffffffffffff8216907fbc7cd75a20ee27fd9adebab32041f755214dbc6bffa90cc0225b39da2e5c2d3b90600090a250565b6060613eb0838360405180606001604052806027815260200161547e60279139613eb7565b9392505050565b60606000808573ffffffffffffffffffffffffffffffffffffffff1685604051613ee19190614a4d565b600060405180830381855af49150503d8060008114613f1c576040519150601f19603f3d011682016040523d82523d6000602084013e613f21565b606091505b5091509150613f3286838387613f3c565b9695505050505050565b60608315613fb5578251613fae5773ffffffffffffffffffffffffffffffffffffffff85163b613fae5760405162461bcd60e51b815260206004820152601d60248201527f416464726573733a2063616c6c20746f206e6f6e2d636f6e747261637400000060448201526064016106e6565b5081610cf8565b610cf88383815115613fca5781518083602001fd5b8060405162461bcd60e51b81526004016106e6919061437f565b828054613ff090614a5f565b90600052602060002090601f0160209004810192826140125760008555614058565b82601f1061402b57805160ff1916838001178555614058565b82800160010185558215614058579182015b8281111561405857825182559160200191906001019061403d565b5061406492915061411d565b5090565b50805461407490614a5f565b6000825580601f10614084575050565b601f016020900490600052602060002090810190611104919061411d565b8280546140ae90614a5f565b90600052602060002090601f0160209004810192826140d05760008555614058565b82601f106140e15780548555614058565b8280016001018555821561405857600052602060002091601f016020900482015b82811115614058578254825591600101919060010190614102565b5b80821115614064576000815560010161411e565b73ffffffffffffffffffffffffffffffffffffffff8116811461110457600080fd5b803561415f81614132565b919050565b60008083601f84011261417657600080fd5b50813567ffffffffffffffff81111561418e57600080fd5b6020830191508360208260051b85010111156141a957600080fd5b9250929050565b600080600080606085870312156141c657600080fd5b8435935060208501356141d881614132565b9250604085013567ffffffffffffffff8111156141f457600080fd5b61420087828801614164565b95989497509550505050565b6000806040838503121561421f57600080fd5b82359150602083013567ffffffffffffffff81111561423d57600080fd5b83016060818603121561424f57600080fd5b809150509250929050565b60006020828403121561426c57600080fd5b8135613eb081614132565b60008083601f84011261428957600080fd5b50813567ffffffffffffffff8111156142a157600080fd5b6020830191508360208285010111156141a957600080fd5b600080600080606085870312156142cf57600080fd5b84356142da81614132565b935060208501359250604085013567ffffffffffffffff8111156142fd57600080fd5b61420087828801614277565b60005b8381101561432457818101518382015260200161430c565b83811115610ba25750506000910152565b6000815180845261434d816020860160208601614309565b601f017fffffffffffffffffffffffffffffffffffffffffffffffffffffffffffffffe0169290920160200192915050565b602081526000613eb06020830184614335565b6000806000606084860312156143a757600080fd5b8335925060208401356143b981614132565b9150604084013567ffffffffffffffff8111156143d557600080fd5b8401608081870312156143e757600080fd5b809150509250925092565b6000806000806000806060878903121561440b57600080fd5b863567ffffffffffffffff8082111561442357600080fd5b61442f8a838b01614164565b9098509650602089013591508082111561444857600080fd5b6144548a838b01614164565b9096509450604089013591508082111561446d57600080fd5b5061447a89828a01614164565b979a9699509497509295939492505050565b6000806000606084860312156144a157600080fd5b833567ffffffffffffffff8111156144b857600080fd5b840161016081870312156144cb57600080fd5b95602085013595506040909401359392505050565b6000806000604084860312156144f557600080fd5b833561450081614132565b9250602084013567ffffffffffffffff81111561451c57600080fd5b61452886828701614277565b9497909650939450505050565b60008060008060006060868803121561454d57600080fd5b853561455881614132565b9450602086013567ffffffffffffffff8082111561457557600080fd5b61458189838a01614164565b9096509450604088013591508082111561459a57600080fd5b506145a788828901614164565b969995985093965092949392505050565b7f4e487b7100000000000000000000000000000000000000000000000000000000600052604160045260246000fd5b604051601f82017fffffffffffffffffffffffffffffffffffffffffffffffffffffffffffffffe016810167ffffffffffffffff8111828210171561462e5761462e6145b8565b604052919050565b600082601f83011261464757600080fd5b813567ffffffffffffffff811115614661576146616145b8565b61469260207fffffffffffffffffffffffffffffffffffffffffffffffffffffffffffffffe0601f840116016145e7565b8181528460208386010111156146a757600080fd5b816020850160208301376000918101602001919091529392505050565b600080604083850312156146d757600080fd5b82356146e281614132565b9150602083013567ffffffffffffffff8111156146fe57600080fd5b61470a85828601614636565b9150509250929050565b6000806040838503121561472757600080fd5b82359150602083013561424f81614132565b7f4e487b7100000000000000000000000000000000000000000000000000000000600052602160045260246000fd5b6007811061477857614778614739565b9052565b60006020808301818452808551808352604092508286019150828160051b87010184880160005b83811015614821577fffffffffffffffffffffffffffffffffffffffffffffffffffffffffffffffc0898403018552815160808151855288820151818a8701526147ef82870182614335565b9150508782015161480289870182614768565b50606091820151949091019390935293860193908601906001016147a3565b509098975050505050505050565b60006020828403121561484157600080fd5b5035919050565b6001811061477857614778614739565b6020815281516020820152600060208301516148776040840182614848565b506040830151606080840152610cf86080840182614335565b6000806000606084860312156148a557600080fd5b83356148b081614132565b925060208401356148c081614132565b915060408401356143e781614132565b600080604083850312156148e357600080fd5b82356148ee81614132565b946020939093013593505050565b6000806040838503121561490f57600080fd5b823561491a81614132565b9150602083013561424f81614132565b7f4e487b7100000000000000000000000000000000000000000000000000000000600052603260045260246000fd5b600082357fffffffffffffffffffffffffffffffffffffffffffffffffffffffffffffff8183360301811261498d57600080fd5b9190910192915050565b60008083357fffffffffffffffffffffffffffffffffffffffffffffffffffffffffffffffe18436030181126149cc57600080fd5b83018035915067ffffffffffffffff8211156149e757600080fd5b6020019150368190038213156141a957600080fd5b7f4e487b7100000000000000000000000000000000000000000000000000000000600052601160045260246000fd5b600061ffff80831681811415614a4357614a436149fc565b6001019392505050565b6000825161498d818460208701614309565b600181811c90821680614a7357607f821691505b60208210811415614aad577f4e487b7100000000000000000000000000000000000000000000000000000000600052602260045260246000fd5b50919050565b601f8211156121ed57600081815260208120601f850160051c81016020861015614ada5750805b601f850160051c820191505b81811015610a7657828155600101614ae6565b6007811061110457600080fd5b60008135614b1381614af9565b92915050565b60078210614b2957614b29614739565b7fffffffffffffffffffffffffffffffffffffffffffffffffffffffffffffff0081541660ff831681178255505050565b8135815560018082016020614b7181860186614997565b67ffffffffffffffff811115614b8957614b896145b8565b614b9d81614b978654614a5f565b86614ab3565b6000601f821160018114614bef5760008315614bb95750838201355b7fffffffffffffffffffffffffffffffffffffffffffffffffffffffffffffffff600385901b1c1916600184901b178655614c80565b6000868152602090207fffffffffffffffffffffffffffffffffffffffffffffffffffffffffffffffe0841690835b82811015614c3b5786850135825593870193908901908701614c1e565b5084821015614c76577fffffffffffffffffffffffffffffffffffffffffffffffffffffffffffffffff60f88660031b161c19848701351681555b50508683881b0186555b50505050505050614c9f614c9660408401614b06565b60028301614b19565b606082013560038201555050565b813581556001808201602080850135838110614cc857600080fd5b7fffffffffffffffffffffffffffffffffffffffffffffffffffffffffffffff0083541660ff8216811784555050600284019150614d096040860186614997565b67ffffffffffffffff811115614d2157614d216145b8565b614d2f81614b978654614a5f565b6000601f821160018114614d815760008315614d4b5750838201355b7fffffffffffffffffffffffffffffffffffffffffffffffffffffffffffffffff600385901b1c1916600184901b178655614e12565b6000868152602090207fffffffffffffffffffffffffffffffffffffffffffffffffffffffffffffffe0841690835b82811015614dcd5786850135825593870193908901908701614db0565b5084821015614e08577fffffffffffffffffffffffffffffffffffffffffffffffffffffffffffffffff60f88660031b161c19848701351681555b50508683881b0186555b505050505050505050565b60008083357fffffffffffffffffffffffffffffffffffffffffffffffffffffffffffffffe1843603018112614e5257600080fd5b830160208101925035905067ffffffffffffffff811115614e7257600080fd5b8036038313156141a957600080fd5b8183528181602085013750600060208284010152600060207fffffffffffffffffffffffffffffffffffffffffffffffffffffffffffffffe0601f840116840101905092915050565b6000610160614ef684614edc85614154565b73ffffffffffffffffffffffffffffffffffffffff169052565b60208301356020850152614f0d6040840184614e1d565b826040870152614f208387018284614e81565b92505050614f316060840184614e1d565b8583036060870152614f44838284614e81565b925050506080830135608085015260a083013560a085015260c083013560c085015260e083013560e0850152610100808401358186015250610120614f8b81850185614e1d565b86840383880152614f9d848284614e81565b9350505050610140614fb181850185614e1d565b86840383880152614fc3848284614e81565b979650505050505050565b604081526000614fe16040830185614eca565b90508260208301529392505050565b60006020828403121561500257600080fd5b5051919050565b6150138186614848565b6080602082015260006150296080830186614335565b828103604084015261503b8186614eca565b91505082606083015295945050505050565b828152604060208201526000610cf86040830184614335565b6000808585111561507657600080fd5b8386111561508357600080fd5b5050820193919092039150565b7fffffffff0000000000000000000000000000000000000000000000000000000081358181169160048510156150d05780818660040360031b1b83161692505b505092915050565b600060408083526150eb81840186614335565b6020848203818601528186548084528284019150828160051b8501016000898152848120815b84811015615215577fffffffffffffffffffffffffffffffffffffffffffffffffffffffffffffffe08885030186526080825485526001808401828a88015285815461515c81614a5f565b94890185905260a094818516801561517b57600181146151ad576151d8565b7fffffffffffffffffffffffffffffffffffffffffffffffffffffffffffffff008316878c015260c08b0193506151d8565b848a528d8a208a5b838110156151d05781548d82018a0152908701908f016151b5565b8c0188019450505b505050600286015460ff1693506151f18d890185614768565b60038601546060989098019790975250505094860194600490910190600101615111565b50919b9a5050505050505050505050565b60006020828403121561523857600080fd5b8135613eb081614af9565b6007811061525357615253614739565b60f81b9052565b838582376000848201600081526152718186615243565b600181019390935250506021019392505050565b60008451615297818460208901614309565b82016152a38186615243565b6001810193909352505060210192915050565b6000828210156152c8576152c86149fc565b500390565b7f4e487b7100000000000000000000000000000000000000000000000000000000600052603160045260246000fd5b600067ffffffffffffffff821115615316576153166145b8565b5060051b60200190565b600082601f83011261533157600080fd5b81356020615346615341836152fc565b6145e7565b82815260059290921b8401810191818101908684111561536557600080fd5b8286015b848110156153a557803567ffffffffffffffff8111156153895760008081fd5b6153978986838b0101614636565b845250918301918301615369565b509695505050505050565b6000806000606084860312156153c557600080fd5b83356153d081614132565b925060208481013567ffffffffffffffff808211156153ee57600080fd5b818701915087601f83011261540257600080fd5b8135615410615341826152fc565b81815260059190911b8301840190848101908a83111561542f57600080fd5b938501935b8285101561544d57843582529385019390850190615434565b96505050604087013592508083111561546557600080fd5b505061547386828701615320565b915050925092509256fe416464726573733a206c6f772d6c6576656c2064656c65676174652063616c6c206661696c6564a2646970667358221220556b19c660e40e3d07d7b2469bc0469cee1f4fbe06c68752a9db2dc78a2d895864736f6c634300080c0033","linkReferences":{},"deployedLinkReferences":{}}