{"_format":"hh-sol-artifact-1","contractName":"FunWallet","sourceName":"contracts/FunWallet.sol","abi":[{"anonymous":false,"inputs":[{"indexed":false,"internalType":"address","name":"previousAdmin","type":"address"},{"indexed":false,"internalType":"address","name":"newAdmin","type":"address"}],"name":"AdminChanged","type":"event"},{"anonymous":false,"inputs":[{"indexed":true,"internalType":"address","name":"beacon","type":"address"}],"name":"BeaconUpgraded","type":"event"},{"anonymous":false,"inputs":[{"indexed":true,"internalType":"address","name":"oldEntryPoint","type":"address"},{"indexed":true,"internalType":"address","name":"newEntryPoint","type":"address"}],"name":"EntryPointChanged","type":"event"},{"anonymous":false,"inputs":[{"indexed":false,"internalType":"uint8","name":"version","type":"uint8"}],"name":"Initialized","type":"event"},{"anonymous":false,"inputs":[{"indexed":true,"internalType":"address","name":"oldModuleAddr","type":"address"},{"indexed":true,"internalType":"address","name":"newModuleAddr","type":"address"}],"name":"ModuleAddrChanged","type":"event"},{"anonymous":false,"inputs":[{"indexed":true,"internalType":"address","name":"implementation","type":"address"}],"name":"Upgraded","type":"event"},{"anonymous":false,"inputs":[{"indexed":true,"internalType":"address","name":"oldUserAuthenticationAddr","type":"address"},{"indexed":true,"internalType":"address","name":"newUserAuthenticationAddr","type":"address"}],"name":"UserAuthenticationAddrChanged","type":"event"},{"inputs":[],"name":"ADMIN_ROLE","outputs":[{"internalType":"bytes32","name":"","type":"bytes32"}],"stateMutability":"view","type":"function"},{"inputs":[],"name":"CALL_DATA_OFFSET","outputs":[{"internalType":"uint256","name":"","type":"uint256"}],"stateMutability":"view","type":"function"},{"inputs":[],"name":"METHOD_SIGNATURE_OFFSET","outputs":[{"internalType":"uint256","name":"","type":"uint256"}],"stateMutability":"view","type":"function"},{"inputs":[{"components":[{"internalType":"address","name":"token","type":"address"},{"internalType":"address","name":"receipent","type":"address"},{"internalType":"uint256","name":"amount","type":"uint256"}],"internalType":"struct IFunWallet.UserOperationFee","name":"feedata","type":"tuple"}],"name":"_handleFee","outputs":[],"stateMutability":"nonpayable","type":"function"},{"inputs":[{"internalType":"bytes32","name":"role","type":"bytes32"},{"internalType":"address","name":"moduleAddr","type":"address"},{"components":[{"internalType":"bytes32","name":"action","type":"bytes32"},{"internalType":"bytes","name":"target","type":"bytes"},{"internalType":"enum Keyword","name":"keyword","type":"uint8"},{"internalType":"bytes32","name":"extent","type":"bytes32"}],"internalType":"struct Rule","name":"rule","type":"tuple"}],"name":"attachRuleToRole","outputs":[],"stateMutability":"nonpayable","type":"function"},{"inputs":[{"internalType":"uint256","name":"nonce","type":"uint256"}],"name":"checkNonce","outputs":[{"internalType":"bool","name":"","type":"bool"}],"stateMutability":"view","type":"function"},{"inputs":[{"internalType":"bytes32","name":"role","type":"bytes32"},{"internalType":"address","name":"moduleAddr","type":"address"},{"components":[{"internalType":"bytes32","name":"action","type":"bytes32"},{"internalType":"bytes","name":"target","type":"bytes"},{"internalType":"enum Keyword","name":"keyword","type":"uint8"},{"internalType":"bytes32","name":"extent","type":"bytes32"}],"internalType":"struct Rule[]","name":"rules","type":"tuple[]"}],"name":"createRole","outputs":[],"stateMutability":"nonpayable","type":"function"},{"inputs":[{"internalType":"bytes32","name":"userId","type":"bytes32"},{"components":[{"internalType":"bytes32","name":"role","type":"bytes32"},{"internalType":"enum AuthType","name":"authType","type":"uint8"},{"internalType":"bytes","name":"authMetadata","type":"bytes"}],"internalType":"struct IFunWallet.UserMetadata","name":"userMetadata","type":"tuple"}],"name":"createUser","outputs":[],"stateMutability":"nonpayable","type":"function"},{"inputs":[{"internalType":"bytes32","name":"userId","type":"bytes32"}],"name":"deleteUser","outputs":[],"stateMutability":"nonpayable","type":"function"},{"inputs":[{"internalType":"uint256","name":"amount","type":"uint256"}],"name":"depositToEntryPoint","outputs":[],"stateMutability":"nonpayable","type":"function"},{"inputs":[],"name":"entryPoint","outputs":[{"internalType":"contract IEntryPoint","name":"","type":"address"}],"stateMutability":"view","type":"function"},{"inputs":[{"internalType":"address[]","name":"dests","type":"address[]"},{"internalType":"uint256[]","name":"values","type":"uint256[]"},{"internalType":"bytes[]","name":"data","type":"bytes[]"}],"name":"execBatchInit","outputs":[],"stateMutability":"nonpayable","type":"function"},{"inputs":[{"internalType":"address","name":"dest","type":"address"},{"internalType":"uint256","name":"value","type":"uint256"},{"internalType":"bytes","name":"data","type":"bytes"}],"name":"execFromEntryPointOrOwner","outputs":[],"stateMutability":"nonpayable","type":"function"},{"inputs":[{"internalType":"address","name":"dest","type":"address"},{"internalType":"uint256","name":"value","type":"uint256"},{"internalType":"bytes","name":"data","type":"bytes"},{"components":[{"internalType":"address","name":"token","type":"address"},{"internalType":"address","name":"receipent","type":"address"},{"internalType":"uint256","name":"amount","type":"uint256"}],"internalType":"struct IFunWallet.UserOperationFee","name":"feedata","type":"tuple"}],"name":"execFromEntryPointOrOwnerWithFee","outputs":[],"stateMutability":"nonpayable","type":"function"},{"inputs":[{"internalType":"address","name":"dest","type":"address"},{"internalType":"uint256","name":"value","type":"uint256"},{"internalType":"bytes","name":"data","type":"bytes"}],"name":"execFromModule","outputs":[{"internalType":"bytes","name":"","type":"bytes"}],"stateMutability":"payable","type":"function"},{"inputs":[],"name":"getDeposit","outputs":[{"internalType":"uint256","name":"","type":"uint256"}],"stateMutability":"view","type":"function"},{"inputs":[{"internalType":"address","name":"moduleAddr","type":"address"}],"name":"getModuleStateVal","outputs":[{"internalType":"bytes","name":"","type":"bytes"}],"stateMutability":"view","type":"function"},{"inputs":[{"internalType":"bytes32","name":"role","type":"bytes32"},{"internalType":"address","name":"moduleAddr","type":"address"}],"name":"getRulesOfRole","outputs":[{"components":[{"internalType":"bytes32","name":"action","type":"bytes32"},{"internalType":"bytes","name":"target","type":"bytes"},{"internalType":"enum Keyword","name":"keyword","type":"uint8"},{"internalType":"bytes32","name":"extent","type":"bytes32"}],"internalType":"struct Rule[]","name":"","type":"tuple[]"}],"stateMutability":"view","type":"function"},{"inputs":[{"internalType":"bytes32","name":"userId","type":"bytes32"}],"name":"getUser","outputs":[{"components":[{"internalType":"bytes32","name":"role","type":"bytes32"},{"internalType":"enum AuthType","name":"authType","type":"uint8"},{"internalType":"bytes","name":"authMetadata","type":"bytes"}],"internalType":"struct IFunWallet.UserMetadata","name":"","type":"tuple"}],"stateMutability":"view","type":"function"},{"inputs":[{"internalType":"address","name":"dest","type":"address"},{"internalType":"uint256[]","name":"value","type":"uint256[]"},{"internalType":"bytes[]","name":"data","type":"bytes[]"}],"name":"initAndExec","outputs":[],"stateMutability":"nonpayable","type":"function"},{"inputs":[{"internalType":"address","name":"_entryPointAddr","type":"address"},{"internalType":"address","name":"_userAuthAddr","type":"address"},{"internalType":"address","name":"_owner","type":"address"}],"name":"initialize","outputs":[],"stateMutability":"nonpayable","type":"function"},{"inputs":[],"name":"owner","outputs":[{"internalType":"address","name":"","type":"address"}],"stateMutability":"view","type":"function"},{"inputs":[],"name":"proxiableUUID","outputs":[{"internalType":"bytes32","name":"","type":"bytes32"}],"stateMutability":"view","type":"function"},{"inputs":[{"internalType":"bytes32","name":"role","type":"bytes32"},{"internalType":"address","name":"moduleAddr","type":"address"},{"components":[{"internalType":"bytes32","name":"action","type":"bytes32"},{"internalType":"bytes","name":"target","type":"bytes"},{"internalType":"enum Keyword","name":"keyword","type":"uint8"},{"internalType":"bytes32","name":"extent","type":"bytes32"}],"internalType":"struct Rule","name":"rule","type":"tuple"}],"name":"removeRuleFromRole","outputs":[],"stateMutability":"nonpayable","type":"function"},{"inputs":[{"internalType":"address","name":"newImplementation","type":"address"},{"internalType":"bytes","name":"initializerCallData","type":"bytes"}],"name":"setImplementationOnDeployment","outputs":[],"stateMutability":"nonpayable","type":"function"},{"inputs":[{"internalType":"address","name":"_newEntryPoint","type":"address"}],"name":"updateEntryPoint","outputs":[],"stateMutability":"nonpayable","type":"function"},{"inputs":[{"internalType":"address","name":"oldModuleAddr","type":"address"},{"internalType":"address","name":"newModuleAddr","type":"address"}],"name":"updateModuleAddr","outputs":[],"stateMutability":"nonpayable","type":"function"},{"inputs":[{"internalType":"bytes32","name":"userId","type":"bytes32"},{"components":[{"internalType":"bytes32","name":"role","type":"bytes32"},{"internalType":"enum AuthType","name":"authType","type":"uint8"},{"internalType":"bytes","name":"authMetadata","type":"bytes"}],"internalType":"struct IFunWallet.UserMetadata","name":"userMetadata","type":"tuple"}],"name":"updateUser","outputs":[],"stateMutability":"nonpayable","type":"function"},{"inputs":[{"internalType":"address","name":"_newUserAuthentication","type":"address"}],"name":"updateUserAuthentication","outputs":[],"stateMutability":"nonpayable","type":"function"},{"inputs":[{"internalType":"address","name":"newImplementation","type":"address"}],"name":"upgradeTo","outputs":[],"stateMutability":"nonpayable","type":"function"},{"inputs":[{"internalType":"address","name":"newImplementation","type":"address"},{"internalType":"bytes","name":"data","type":"bytes"}],"name":"upgradeToAndCall","outputs":[],"stateMutability":"payable","type":"function"},{"inputs":[],"name":"userAuthentication","outputs":[{"internalType":"contract UserAuthentication","name":"","type":"address"}],"stateMutability":"view","type":"function"},{"inputs":[{"components":[{"internalType":"address","name":"sender","type":"address"},{"internalType":"uint256","name":"nonce","type":"uint256"},{"internalType":"bytes","name":"initCode","type":"bytes"},{"internalType":"bytes","name":"callData","type":"bytes"},{"internalType":"uint256","name":"callGasLimit","type":"uint256"},{"internalType":"uint256","name":"verificationGasLimit","type":"uint256"},{"internalType":"uint256","name":"preVerificationGas","type":"uint256"},{"internalType":"uint256","name":"maxFeePerGas","type":"uint256"},{"internalType":"uint256","name":"maxPriorityFeePerGas","type":"uint256"},{"internalType":"bytes","name":"paymasterAndData","type":"bytes"},{"internalType":"bytes","name":"signature","type":"bytes"}],"internalType":"struct UserOperation","name":"userOp","type":"tuple"},{"internalType":"bytes32","name":"userOpHash","type":"bytes32"},{"internalType":"uint256","name":"missingAccountFunds","type":"uint256"}],"name":"validateUserOp","outputs":[{"internalType":"uint256","name":"sigTimeRange","type":"uint256"}],"stateMutability":"nonpayable","type":"function"},{"inputs":[{"internalType":"address payable","name":"withdrawAddress","type":"address"},{"internalType":"uint256","name":"amount","type":"uint256"}],"name":"withdrawFromEntryPoint","outputs":[],"stateMutability":"nonpayable","type":"function"},{"stateMutability":"payable","type":"receive"}],"bytecode":"0x60a0604052306080526000805462ff00001916905534801561002057600080fd5b50608051615c146200005960003960008181610f930152818161102901528181611c5301528181611ce90152611e180152615c146000f3fe60806040526004361061021d5760003560e01c80636517579c1161011d578063b0d691fe116100b0578063cc793fa61161007f578063d105ad5c11610064578063d105ad5c1461065b578063dc7c98481461067b578063e374e90f1461069b57600080fd5b8063cc793fa61461061b578063d06403d61461063b57600080fd5b8063b0d691fe1461059b578063c0c53b8b146105c6578063c399ec88146105e6578063c7d76308146105fb57600080fd5b80639192b921116100ec5780639192b9211461052657806399d3fef3146105465780639cfdf5b614610566578063a55e593d1461057b57600080fd5b80636517579c1461047857806375b238fc146104a55780637b8ea028146104d95780638da5cb5b146104f957600080fd5b80633a871cdd116101b05780634f1ef2861161017f57806355cd05cc1161016457806355cd05cc1461040b5780635cbf1e6e1461042b5780635e5d43201461045857600080fd5b80634f1ef286146103e357806352d1902d146103f657600080fd5b80633a871cdd146103375780633cb66ec4146103575780634192d251146103a35780634789b97e146103c357600080fd5b80632ed6fb5d116101ec5780632ed6fb5d146102b4578063357f7bb0146102d45780633659cfe6146102f75780633a6e5a0a1461031757600080fd5b8063033183e91461022957806315577ae21461024b5780631b71bb6e1461026b57806320d2a20f1461028b57600080fd5b3661022457005b600080fd5b34801561023557600080fd5b5061024961024436600461468f565b6106db565b005b34801561025757600080fd5b506102496102663660046146eb565b610ac4565b34801561027757600080fd5b50610249610286366004614739565b610bee565b61029e610299366004614798565b610cf0565b6040516102ab919061485e565b60405180910390f35b3480156102c057600080fd5b506102496102cf366004614871565b610d46565b3480156102e057600080fd5b506102e9600481565b6040519081526020016102ab565b34801561030357600080fd5b50610249610312366004614739565b610f7b565b34801561032357600080fd5b506102496103323660046148d1565b61114d565b34801561034357600080fd5b506102e961035236600461496b565b61131d565b34801561036357600080fd5b5060065473ffffffffffffffffffffffffffffffffffffffff165b60405173ffffffffffffffffffffffffffffffffffffffff90911681526020016102ab565b3480156103af57600080fd5b506102496103be3660046149bf565b611a6d565b3480156103cf57600080fd5b506102496103de366004614a14565b611b5e565b6102496103f1366004614ba3565b611c3b565b34801561040257600080fd5b506102e9611dfe565b34801561041757600080fd5b50610249610426366004614798565b611ed1565b34801561043757600080fd5b5061044b610446366004614bf3565b611f57565b6040516102ab9190614c5b565b34801561046457600080fd5b50610249610473366004614d0e565b612196565b34801561048457600080fd5b50610498610493366004614d0e565b612239565b6040516102ab9190614d37565b3480156104b157600080fd5b506102e97f61646d696e00000000000000000000000000000000000000000000000000000081565b3480156104e557600080fd5b506102496104f4366004614739565b612387565b34801561050557600080fd5b5060075461037e9073ffffffffffffffffffffffffffffffffffffffff1681565b34801561053257600080fd5b50610249610541366004614ddb565b612489565b34801561055257600080fd5b50610249610561366004614871565b6125f0565b34801561057257600080fd5b506102e960c881565b34801561058757600080fd5b50610249610596366004614d0e565b612bf1565b3480156105a757600080fd5b5060055473ffffffffffffffffffffffffffffffffffffffff1661037e565b3480156105d257600080fd5b506102496105e1366004614e4d565b612cee565b3480156105f257600080fd5b506102e96131b6565b34801561060757600080fd5b50610249610616366004614e8d565b61324e565b34801561062757600080fd5b50610249610636366004614eb9565b613367565b34801561064757600080fd5b5061029e610656366004614739565b61356e565b34801561066757600080fd5b50610249610676366004614ee7565b613627565b34801561068757600080fd5b506102496106963660046146eb565b613770565b3480156106a757600080fd5b506106cb6106b6366004614d0e565b60009081526002602052604090205460ff1690565b60405190151581526020016102ab565b6106e361387f565b836107355760405162461bcd60e51b815260206004820152600d60248201527f726f6c6520697320656d7074790000000000000000000000000000000000000060448201526064015b60405180910390fd5b73ffffffffffffffffffffffffffffffffffffffff83166107985760405162461bcd60e51b815260206004820152601760248201527f6d6f64756c65206164647265737320697320656d707479000000000000000000604482015260640161072c565b806107e55760405162461bcd60e51b815260206004820152600f60248201527f72756c65732061726520656d7074790000000000000000000000000000000000604482015260640161072c565b60005b61ffff8116821115610982576000838361ffff841681811061080c5761080c614f03565b905060200281019061081e9190614f32565b35141561086d5760405162461bcd60e51b815260206004820152601560248201527f72756c652068617320656d70747920616374696f6e0000000000000000000000604482015260640161072c565b600083838361ffff1681811061088557610885614f03565b90506020028101906108979190614f32565b6108a5906020810190614f70565b9050116108f45760405162461bcd60e51b815260206004820152601560248201527f72756c652068617320656d707479207461726765740000000000000000000000604482015260640161072c565b6000838361ffff841681811061090c5761090c614f03565b905060200281019061091e9190614f32565b6060013514156109705760405162461bcd60e51b815260206004820152601560248201527f72756c652068617320656d70747920657874656e740000000000000000000000604482015260640161072c565b8061097a81615004565b9150506107e8565b5060008473ffffffffffffffffffffffffffffffffffffffff8516604080516020810193909352820152606001604051602081830303815290604052905060006004826040516109d29190615026565b908152604051908190036020019020541115610a305760405162461bcd60e51b815260206004820152601360248201527f726f6c6520616c72656164792065786973747300000000000000000000000000604482015260640161072c565b60005b61ffff8116831115610abc57600482604051610a4f9190615026565b908152602001604051809103902084848361ffff16818110610a7357610a73614f03565b9050602002810190610a859190614f32565b815460018101835560009283526020909220909160040201610aa78282615133565b50508080610ab490615004565b915050610a33565b505050505050565b610acc61387f565b81610b195760405162461bcd60e51b815260206004820152600e60248201527f696e76616c696420757365724964000000000000000000000000000000000000604482015260640161072c565b610b2282613930565b8035610b705760405162461bcd60e51b815260206004820152601360248201527f757365722068617320656d70747920726f6c6500000000000000000000000000604482015260640161072c565b6000610b7f6040830183614f70565b905011610bce5760405162461bcd60e51b815260206004820152601c60248201527f757365722068617320656d7074792061757468206d6574616461746100000000604482015260640161072c565b60008281526003602052604090208190610be88282615286565b50505050565b610bf661387f565b73ffffffffffffffffffffffffffffffffffffffff8116610c7f5760405162461bcd60e51b815260206004820152603260248201527f66756e2077616c6c65743a206e657720656e74727920706f696e74206164647260448201527f6573732063616e6e6f74206265207a65726f0000000000000000000000000000606482015260840161072c565b600580547fffffffffffffffffffffffff00000000000000000000000000000000000000001673ffffffffffffffffffffffffffffffffffffffff831690811790915560405181907f450909c1478d09248269d4ad4fa8cba61ca3f50faed58c7aedefa51c7f62b83a90600090a350565b6060610cfa61399b565b610d3b858585858080601f016020809104026020016040519081016040528093929190818152602001838380828437600092019190915250613a2a92505050565b90505b949350505050565b610d4e61387f565b82610d9b5760405162461bcd60e51b815260206004820152600d60248201527f726f6c6520697320656d70747900000000000000000000000000000000000000604482015260640161072c565b73ffffffffffffffffffffffffffffffffffffffff8216610dfe5760405162461bcd60e51b815260206004820152601760248201527f6d6f64756c65206164647265737320697320656d707479000000000000000000604482015260640161072c565b8035610e4c5760405162461bcd60e51b815260206004820152601560248201527f72756c652068617320656d70747920616374696f6e0000000000000000000000604482015260640161072c565b6000610e5b6020830183614f70565b905011610eaa5760405162461bcd60e51b815260206004820152601560248201527f72756c652068617320656d707479207461726765740000000000000000000000604482015260640161072c565b6060810135610efb5760405162461bcd60e51b815260206004820152601560248201527f72756c652068617320656d70747920657874656e740000000000000000000000604482015260640161072c565b604080516020810185905273ffffffffffffffffffffffffffffffffffffffff8416818301528151808203830181526060909101909152610f3b81613af2565b600481604051610f4b9190615026565b9081526040516020918190038201902080546001810182556000918252919020839160040201610abc8282615133565b3073ffffffffffffffffffffffffffffffffffffffff7f00000000000000000000000000000000000000000000000000000000000000001614156110275760405162461bcd60e51b815260206004820152602c60248201527f46756e6374696f6e206d7573742062652063616c6c6564207468726f7567682060448201527f64656c656761746563616c6c0000000000000000000000000000000000000000606482015260840161072c565b7f000000000000000000000000000000000000000000000000000000000000000073ffffffffffffffffffffffffffffffffffffffff1661109c7f360894a13ba1a3210667c828492db98dca3e2076cc3735a920a3ca505d382bbc5473ffffffffffffffffffffffffffffffffffffffff1690565b73ffffffffffffffffffffffffffffffffffffffff16146111255760405162461bcd60e51b815260206004820152602c60248201527f46756e6374696f6e206d7573742062652063616c6c6564207468726f7567682060448201527f6163746976652070726f78790000000000000000000000000000000000000000606482015260840161072c565b61112e81613b61565b6040805160008082526020820190925261114a91839190613b69565b50565b61115561387f565b848314801561116357508281145b6111af5760405162461bcd60e51b815260206004820152601760248201527f6461746120697320646966666572656e742073697a6573000000000000000000604482015260640161072c565b60005b85811015611314576111e68383838181106111cf576111cf614f03565b90506020028101906111e19190614f70565b613d34565b1561130c57600061128e88888481811061120257611202614f03565b90506020020160208101906112179190614739565b87878581811061122957611229614f03565b9050602002013586868681811061124257611242614f03565b90506020028101906112549190614f70565b8080601f016020809104026020016040519081016040528093929190818152602001838380828437600092019190915250613a2a92505050565b905080600160008a8a868181106112a7576112a7614f03565b90506020020160208101906112bc9190614739565b73ffffffffffffffffffffffffffffffffffffffff1673ffffffffffffffffffffffffffffffffffffffff16815260200190815260200160002090805190602001906113099291906144c3565b50505b6001016111b2565b50505050505050565b6000611327613d9a565b6006546040517f81adfce600000000000000000000000000000000000000000000000000000000815260009173ffffffffffffffffffffffffffffffffffffffff16906381adfce69061138090889088906004016155a7565b602060405180830381865afa15801561139d573d6000803e3d6000fd5b505050506040513d601f19601f820116820180604052508101906113c191906155c9565b90506113cc81613930565b6000818152600360209081526040808320815160608101909252805482526001810154919290919083019060ff16801561140857611408614c18565b801561141657611416614c18565b815260200160028201805461142a90615038565b80601f016020809104026020016040519081016040528092919081815260200182805461145690615038565b80156114a35780601f10611478576101008083540402835291602001916114a3565b820191906000526020600020905b81548152906001019060200180831161148657829003601f168201915b505050919092525050600654602083015160408085015190517fdeca388700000000000000000000000000000000000000000000000000000000815294955073ffffffffffffffffffffffffffffffffffffffff9092169363deca3887935061151392908b908b906004016155e2565b602060405180830381865afa158015611530573d6000803e3d6000fd5b505050506040513d601f19601f8201168201806040525081019061155491906155c9565b92506115636040870187614f70565b151590506115745761157486613e01565b600081600001516040518060400160405280600181526020017f2a000000000000000000000000000000000000000000000000000000000000008152506040516020016115c2929190615626565b60405160208183030381529060405290507f61646d696e000000000000000000000000000000000000000000000000000000826000015114158015611627575060006004826040516116149190615026565b9081526040519081900360200190205411155b15611a5a577f4789b97e0000000000000000000000000000000000000000000000000000000061165a6060890189614f70565b6116699160049160009161563f565b61167291615669565b7fffffffff000000000000000000000000000000000000000000000000000000001614156118e7576000806116b26116ad60608b018b614f70565b613ea5565b86519294509250600091905073ffffffffffffffffffffffffffffffffffffffff84166040805160208101939093528201526060016040516020818303038152906040529050600060048260405161170a9190615026565b90815260405190819003602001902054116117675760405162461bcd60e51b815260206004820152601660248201527f75736572206973206e6f7420617574686f72697a656400000000000000000000604482015260640161072c565b8273ffffffffffffffffffffffffffffffffffffffff166352bd4f418360008151811061179657611796614f03565b60200260200101516004846040516117ae9190615026565b9081526040519081900360200181207fffffffff0000000000000000000000000000000000000000000000000000000060e085901b1682526117f392916004016156b1565b60006040518083038186803b15801561180b57600080fd5b505afa15801561181f573d6000803e3d6000fd5b505050508273ffffffffffffffffffffffffffffffffffffffff166352bd4f418360018151811061185257611852614f03565b602002602001015160048460405161186a9190615026565b9081526040519081900360200181207fffffffff0000000000000000000000000000000000000000000000000000000060e085901b1682526118af92916004016156b1565b60006040518083038186803b1580156118c757600080fd5b505afa1580156118db573d6000803e3d6000fd5b50505050505050611a5a565b6000806118ff6118fa60608b018b614f70565b613ed2565b86519294509250600091905073ffffffffffffffffffffffffffffffffffffffff8416604080516020810193909352820152606001604051602081830303815290604052905060006004826040516119579190615026565b90815260405190819003602001902054116119b45760405162461bcd60e51b815260206004820152601660248201527f75736572206973206e6f7420617574686f72697a656400000000000000000000604482015260640161072c565b8273ffffffffffffffffffffffffffffffffffffffff166352bd4f41836004846040516119e19190615026565b9081526040519081900360200181207fffffffff0000000000000000000000000000000000000000000000000000000060e085901b168252611a2692916004016156b1565b60006040518083038186803b158015611a3e57600080fd5b505afa158015611a52573d6000803e3d6000fd5b505050505050505b611a6385613f44565b5050509392505050565b60005462010000900460ff1615611aec5760405162461bcd60e51b815260206004820152602260248201527f436f6e74726163742068617320616c7265616479206265656e206465706c6f7960448201527f6564000000000000000000000000000000000000000000000000000000000000606482015260840161072c565b611b2c8383838080601f01602080910402602001604051908101604052809392919081815260200183838082843760009201829052509250613faf915050565b5050600080547fffffffffffffffffffffffffffffffffffffffffffffffffffffffffff00ffff166201000017905550565b611b74828260008181106111cf576111cf614f03565b611bc05760405162461bcd60e51b815260206004820181905260248201527f66697273742063616c6c206973206e6f7420616e20696e697420616374696f6e604482015260640161072c565b611c038585856000818110611bd757611bd7614f03565b9050602002013584846000818110611bf157611bf1614f03565b90506020028101906104269190614f70565b611c348585856001818110611c1a57611c1a614f03565b9050602002013584846001818110611bf157611bf1614f03565b5050505050565b3073ffffffffffffffffffffffffffffffffffffffff7f0000000000000000000000000000000000000000000000000000000000000000161415611ce75760405162461bcd60e51b815260206004820152602c60248201527f46756e6374696f6e206d7573742062652063616c6c6564207468726f7567682060448201527f64656c656761746563616c6c0000000000000000000000000000000000000000606482015260840161072c565b7f000000000000000000000000000000000000000000000000000000000000000073ffffffffffffffffffffffffffffffffffffffff16611d5c7f360894a13ba1a3210667c828492db98dca3e2076cc3735a920a3ca505d382bbc5473ffffffffffffffffffffffffffffffffffffffff1690565b73ffffffffffffffffffffffffffffffffffffffff1614611de55760405162461bcd60e51b815260206004820152602c60248201527f46756e6374696f6e206d7573742062652063616c6c6564207468726f7567682060448201527f6163746976652070726f78790000000000000000000000000000000000000000606482015260840161072c565b611dee82613b61565b611dfa82826001613b69565b5050565b60003073ffffffffffffffffffffffffffffffffffffffff7f00000000000000000000000000000000000000000000000000000000000000001614611eab5760405162461bcd60e51b815260206004820152603860248201527f555550535570677261646561626c653a206d757374206e6f742062652063616c60448201527f6c6564207468726f7567682064656c656761746563616c6c0000000000000000606482015260840161072c565b507f360894a13ba1a3210667c828492db98dca3e2076cc3735a920a3ca505d382bbc5b90565b611ed961387f565b6000611f1c858585858080601f016020809104026020016040519081016040528093929190818152602001838380828437600092019190915250613a2a92505050565b73ffffffffffffffffffffffffffffffffffffffff861660009081526001602090815260409091208251929350610abc9290918401906144c3565b606082611fa65760405162461bcd60e51b815260206004820152600d60248201527f726f6c6520697320656d70747900000000000000000000000000000000000000604482015260640161072c565b73ffffffffffffffffffffffffffffffffffffffff82166120095760405162461bcd60e51b815260206004820152601760248201527f6d6f64756c65206164647265737320697320656d707479000000000000000000604482015260640161072c565b604080516020810185905273ffffffffffffffffffffffffffffffffffffffff84168183015281518082038301815260609091019182905290600490612050908390615026565b9081526020016040518091039020805480602002602001604051908101604052809291908181526020016000905b828210156121895783829060005260206000209060040201604051806080016040529081600082015481526020016001820180546120bb90615038565b80601f01602080910402602001604051908101604052809291908181526020018280546120e790615038565b80156121345780601f1061210957610100808354040283529160200191612134565b820191906000526020600020905b81548152906001019060200180831161211757829003601f168201915b5050509183525050600282015460209091019060ff16600681111561215b5761215b614c18565b600681111561216c5761216c614c18565b81526020016003820154815250508152602001906001019061207e565b5050505091505092915050565b61219e61387f565b806121eb5760405162461bcd60e51b815260206004820152600e60248201527f696e76616c696420757365724964000000000000000000000000000000000000604482015260640161072c565b60008181526003602052604081208181556001810180547fffffffffffffffffffffffffffffffffffffffffffffffffffffffffffffff00169055906122346002830182614547565b505050565b60408051606080820183526000808352602083015291810191909152816122a25760405162461bcd60e51b815260206004820152600e60248201527f696e76616c696420757365724964000000000000000000000000000000000000604482015260640161072c565b600082815260036020908152604091829020825160608101909352805483526001810154909183019060ff1680156122dc576122dc614c18565b80156122ea576122ea614c18565b81526020016002820180546122fe90615038565b80601f016020809104026020016040519081016040528092919081815260200182805461232a90615038565b80156123775780601f1061234c57610100808354040283529160200191612377565b820191906000526020600020905b81548152906001019060200180831161235a57829003601f168201915b5050505050815250509050919050565b61238f61387f565b73ffffffffffffffffffffffffffffffffffffffff81166124185760405162461bcd60e51b815260206004820152603260248201527f66756e2077616c6c65743a206e657720656e74727920706f696e74206164647260448201527f6573732063616e6e6f74206265207a65726f0000000000000000000000000000606482015260840161072c565b600680547fffffffffffffffffffffffff00000000000000000000000000000000000000001673ffffffffffffffffffffffffffffffffffffffff831690811790915560405181907f34a5e38fc8fe74f12b269fe92e724092f7f531dc4985c88fb113460cfcb5f67d90600090a350565b61249585858585611ed1565b604080517fd105ad5c000000000000000000000000000000000000000000000000000000008152825173ffffffffffffffffffffffffffffffffffffffff90811660048301526020840151166024820152908201516044820152309063d105ad5c90606401600060405180830381600087803b15801561251457600080fd5b505af1925050508015612525575060015b611c34576125316157ff565b806308c379a014156125a6575061254661581a565b8061255157506125a8565b8060405160200161256291906158c2565b604080517fffffffffffffffffffffffffffffffffffffffffffffffffffffffffffffffe08184030181529082905262461bcd60e51b825261072c9160040161485e565b505b60405162461bcd60e51b815260206004820152601d60248201527f66756e2077616c6c65743a2068616e646c6520666565206661696c6564000000604482015260640161072c565b6125f861387f565b826126455760405162461bcd60e51b815260206004820152600d60248201527f726f6c6520697320656d70747900000000000000000000000000000000000000604482015260640161072c565b73ffffffffffffffffffffffffffffffffffffffff82166126a85760405162461bcd60e51b815260206004820152601760248201527f6d6f64756c65206164647265737320697320656d707479000000000000000000604482015260640161072c565b80356126f65760405162461bcd60e51b815260206004820152601560248201527f72756c652068617320656d70747920616374696f6e0000000000000000000000604482015260640161072c565b60006127056020830183614f70565b9050116127545760405162461bcd60e51b815260206004820152601560248201527f72756c652068617320656d707479207461726765740000000000000000000000604482015260640161072c565b60608101356127a55760405162461bcd60e51b815260206004820152601560248201527f72756c652068617320656d70747920657874656e740000000000000000000000604482015260640161072c565b604080516020810185905273ffffffffffffffffffffffffffffffffffffffff84168183015281518082038301815260609091019091526127e581613af2565b60006004826040516127f79190615026565b9081526020016040518091039020805480602002602001604051908101604052809291908181526020016000905b8282101561293057838290600052602060002090600402016040518060800160405290816000820154815260200160018201805461286290615038565b80601f016020809104026020016040519081016040528092919081815260200182805461288e90615038565b80156128db5780601f106128b0576101008083540402835291602001916128db565b820191906000526020600020905b8154815290600101906020018083116128be57829003601f168201915b5050509183525050600282015460209091019060ff16600681111561290257612902614c18565b600681111561291357612913614c18565b815260200160038201548152505081526020019060010190612825565b50505050905060008380602001906129489190614f70565b612958606087016040880161592d565b86606001356040516020016129709493929190615961565b60405160208183030381529060405280519060200120905060005b60048460405161299b9190615026565b9081526040519081900360200190205461ffff82161015611314576000838261ffff16815181106129ce576129ce614f03565b602002602001015160200151848361ffff16815181106129f0576129f0614f03565b602002602001015160400151858461ffff1681518110612a1257612a12614f03565b602002602001015160600151604051602001612a309392919061598c565b60405160208183030381529060405280519060200120905080831415612bde578360018551612a5f91906159bd565b81518110612a6f57612a6f614f03565b6020026020010151600486604051612a879190615026565b90815260200160405180910390208361ffff1681548110612aaa57612aaa614f03565b9060005260206000209060040201600082015181600001556020820151816001019080519060200190612ade9291906144c3565b5060408201516002820180547fffffffffffffffffffffffffffffffffffffffffffffffffffffffffffffff00166001836006811115612b2057612b20614c18565b021790555060608201518160030155905050600485604051612b429190615026565b9081526020016040518091039020805480612b5f57612b5f6159d4565b60008281526020812060047fffffffffffffffffffffffffffffffffffffffffffffffffffffffffffffffff9093019283020181815590612ba36001830182614547565b506002810180547fffffffffffffffffffffffffffffffffffffffffffffffffffffffffffffff001690556000600390910155905550611314565b5080612be981615004565b91505061298b565b612bf9613fd4565b80471015612c6f5760405162461bcd60e51b815260206004820152602a60248201527f66756e2077616c6c65743a206e6f7420656e6f75676820657468657220696e2060448201527f7468652077616c6c657400000000000000000000000000000000000000000000606482015260840161072c565b6005546040517fb760faf900000000000000000000000000000000000000000000000000000000815230600482015273ffffffffffffffffffffffffffffffffffffffff9091169063b760faf990602401600060405180830381600087803b158015612cda57600080fd5b505af1158015611c34573d6000803e3d6000fd5b600054610100900460ff1615808015612d0e5750600054600160ff909116105b80612d285750303b158015612d28575060005460ff166001145b612d9a5760405162461bcd60e51b815260206004820152602e60248201527f496e697469616c697a61626c653a20636f6e747261637420697320616c72656160448201527f647920696e697469616c697a6564000000000000000000000000000000000000606482015260840161072c565b600080547fffffffffffffffffffffffffffffffffffffffffffffffffffffffffffffff001660011790558015612df857600080547fffffffffffffffffffffffffffffffffffffffffffffffffffffffffffff00ff166101001790555b73ffffffffffffffffffffffffffffffffffffffff8416612e5b5760405162461bcd60e51b815260206004820152601260248201527f496e76616c696420456e747279706f696e740000000000000000000000000000604482015260640161072c565b6005805473ffffffffffffffffffffffffffffffffffffffff8681167fffffffffffffffffffffffff00000000000000000000000000000000000000009283161790925560068054868416908316179055600780549285169290911682179055604080516060810182527f61646d696e000000000000000000000000000000000000000000000000000000815260006020808301828152845180830187905285518082038401815290860186528486015294825260039052919091208151815591516001838101805493949390917fffffffffffffffffffffffffffffffffffffffffffffffffffffffffffffff0090911690838015612f5d57612f5d614c18565b021790555060408201518051612f7d9160028401916020909101906144c3565b5090505060007f61646d696e0000000000000000000000000000000000000000000000000000006040518060400160405280600181526020017f2a00000000000000000000000000000000000000000000000000000000000000815250604051602001612feb929190615626565b604051602081830303815290604052905060048160405161300c9190615026565b908152602001604051809103902060405180608001604052807f2a0000000000000000000000000000000000000000000000000000000000000081526020016040518060400160405280600181526020017f2a00000000000000000000000000000000000000000000000000000000000000815250815260200160068081111561309857613098614c18565b81527f2a000000000000000000000000000000000000000000000000000000000000006020918201528254600181810185556000948552938290208351600490920201908155828201518051939491936130fa939285019291909101906144c3565b5060408201516002820180547fffffffffffffffffffffffffffffffffffffffffffffffffffffffffffffff0016600183600681111561313c5761313c614c18565b0217905550606082015181600301555050508015610be857600080547fffffffffffffffffffffffffffffffffffffffffffffffffffffffffffff00ff169055604051600181527f7f26b83ff96e1f2b6a682f133852f6798a09c465da95921460cefb38474024989060200160405180910390a150505050565b6005546040517f70a0823100000000000000000000000000000000000000000000000000000000815230600482015260009173ffffffffffffffffffffffffffffffffffffffff16906370a0823190602401602060405180830381865afa158015613225573d6000803e3d6000fd5b505050506040513d601f19601f8201168201806040525081019061324991906155c9565b905090565b613256613fd4565b73ffffffffffffffffffffffffffffffffffffffff82166132df5760405162461bcd60e51b815260206004820152602b60248201527f66756e2077616c6c65743a20776974686472617720616464726573732063616e60448201527f6e6f74206265207a65726f000000000000000000000000000000000000000000606482015260840161072c565b6005546040517f205c287800000000000000000000000000000000000000000000000000000000815273ffffffffffffffffffffffffffffffffffffffff8481166004830152602482018490529091169063205c287890604401600060405180830381600087803b15801561335357600080fd5b505af1158015610abc573d6000803e3d6000fd5b61336f61387f565b73ffffffffffffffffffffffffffffffffffffffff81166133f85760405162461bcd60e51b815260206004820152602d60248201527f66756e2077616c6c65743a206e6577206d6f64756c652061646472657373206360448201527f616e6e6f74206265207a65726f00000000000000000000000000000000000000606482015260840161072c565b8173ffffffffffffffffffffffffffffffffffffffff168173ffffffffffffffffffffffffffffffffffffffff16141561349a5760405162461bcd60e51b815260206004820152603e60248201527f66756e2077616c6c65743a206e6577206d6f64756c652061646472657373206360448201527f616e6e6f7420626520657175616c20746f2070726576696f7573206f6e650000606482015260840161072c565b73ffffffffffffffffffffffffffffffffffffffff8083166000908152600160205260408082209284168252902081549091906134d690615038565b6134e1929190614581565b5073ffffffffffffffffffffffffffffffffffffffff8216600090815260016020526040812061351091614547565b8073ffffffffffffffffffffffffffffffffffffffff168273ffffffffffffffffffffffffffffffffffffffff167fdcbf4cc8a7afc3fe6e403a57745b98188844fdfee49c8752ae30fc46b3a39ebb60405160405180910390a35050565b73ffffffffffffffffffffffffffffffffffffffff811660009081526001602052604090208054606091906135a290615038565b80601f01602080910402602001604051908101604052809291908181526020018280546135ce90615038565b801561361b5780601f106135f05761010080835404028352916020019161361b565b820191906000526020600020905b8154815290600101906020018083116135fe57829003601f168201915b50505050509050919050565b33301461369c5760405162461bcd60e51b815260206004820152602a60248201527f66756e2077616c6c65743a206f6e6c792066756e2077616c6c65742063616e2060448201527f68616e646c652066656500000000000000000000000000000000000000000000606482015260840161072c565b805173ffffffffffffffffffffffffffffffffffffffff166136ca5761114a81602001518260400151614045565b8051602082015160408084015190517fa9059cbb00000000000000000000000000000000000000000000000000000000815273ffffffffffffffffffffffffffffffffffffffff9283166004820152602481019190915291169063a9059cbb906044016020604051808303816000875af115801561374c573d6000803e3d6000fd5b505050506040513d601f19601f82011682018060405250810190611dfa9190615a03565b61377861387f565b816137c55760405162461bcd60e51b815260206004820152600e60248201527f696e76616c696420757365724964000000000000000000000000000000000000604482015260640161072c565b600082815260036020526040812060020180546137e190615038565b905011156138315760405162461bcd60e51b815260206004820152601360248201527f7573657220616c72656164792065786973747300000000000000000000000000604482015260640161072c565b8035610b705760405162461bcd60e51b815260206004820152601460248201527f757365722068617320656d70747920726f6c6573000000000000000000000000604482015260640161072c565b60055473ffffffffffffffffffffffffffffffffffffffff163314806138bc575060075473ffffffffffffffffffffffffffffffffffffffff1633145b61392e5760405162461bcd60e51b815260206004820152602860248201527f66756e2077616c6c65743a206e6f742066726f6d20456e747279506f696e742060448201527f6f72206f776e6572000000000000000000000000000000000000000000000000606482015260840161072c565b565b6000818152600360205260408120600201805461394c90615038565b90501161114a5760405162461bcd60e51b815260206004820152601f60248201527f66756e2077616c6c65743a207573657220646f6573206e6f7420657869737400604482015260640161072c565b33600090815260016020526040812080546139b590615038565b90501161392e5760405162461bcd60e51b815260206004820152602360248201527f66756e2077616c6c65743a206e6f742066726f6d2061206b6e6f776e204d6f6460448201527f756c650000000000000000000000000000000000000000000000000000000000606482015260840161072c565b60606000808573ffffffffffffffffffffffffffffffffffffffff168585604051613a559190615026565b60006040518083038185875af1925050503d8060008114613a92576040519150601f19603f3d011682016040523d82523d6000602084013e613a97565b606091505b509150915081613ae95760405162461bcd60e51b815260206004820181905260248201527f66756e2077616c6c65743a2065787465726e616c2063616c6c206661696c6564604482015260640161072c565b95945050505050565b6000600482604051613b049190615026565b908152604051908190036020019020541161114a5760405162461bcd60e51b815260206004820152601f60248201527f66756e2077616c6c65743a20726f6c6520646f6573206e6f7420657869737400604482015260640161072c565b61114a61387f565b7f4910fdfa16fed3260ed0e7147f7cc6da11a60208b5b9406d12a635614ffd91435460ff1615613b9c5761223483614061565b8273ffffffffffffffffffffffffffffffffffffffff166352d1902d6040518163ffffffff1660e01b8152600401602060405180830381865afa925050508015613c21575060408051601f3d9081017fffffffffffffffffffffffffffffffffffffffffffffffffffffffffffffffe0168201909252613c1e918101906155c9565b60015b613c935760405162461bcd60e51b815260206004820152602e60248201527f45524331393637557067726164653a206e657720696d706c656d656e7461746960448201527f6f6e206973206e6f742055555053000000000000000000000000000000000000606482015260840161072c565b7f360894a13ba1a3210667c828492db98dca3e2076cc3735a920a3ca505d382bbc8114613d285760405162461bcd60e51b815260206004820152602960248201527f45524331393637557067726164653a20756e737570706f727465642070726f7860448201527f6961626c65555549440000000000000000000000000000000000000000000000606482015260840161072c565b50612234838383613faf565b600080613d44600482858761563f565b613d4d91615669565b7fffffffff00000000000000000000000000000000000000000000000000000000167f4ddf47d4000000000000000000000000000000000000000000000000000000001491505092915050565b60055473ffffffffffffffffffffffffffffffffffffffff16331461392e5760405162461bcd60e51b815260206004820152601f60248201527f66756e2077616c6c65743a206e6f742066726f6d20456e747279506f696e7400604482015260640161072c565b60208082013560009081526002909152604090205460ff1615613e665760405162461bcd60e51b815260206004820152601960248201527f66756e2077616c6c65743a20696e76616c6964206e6f6e636500000000000000604482015260640161072c565b602090810135600090815260029091526040902080547fffffffffffffffffffffffffffffffffffffffffffffffffffffffffffffff00166001179055565b6000606080613eb7846004818861563f565b810190613ec49190615adf565b919790965090945092505050565b6000806060613ee4846004818861563f565b810190613ef19190614e8d565b9093509150613f038460c8818861563f565b8080601f0160208091040260200160405190810160405280939291908181526020018383808284376000920191909152509598949750919550929350505050565b801561114a5760405160009033907fffffffffffffffffffffffffffffffffffffffffffffffffffffffffffffffff90849084818181858888f193505050503d8060008114611c34576040519150601f19603f3d011682016040523d82523d6000602084013e611c34565b613fb883614151565b600082511180613fc55750805b1561223457610be8838361419e565b60075473ffffffffffffffffffffffffffffffffffffffff16331480613ff957503330145b61392e5760405162461bcd60e51b815260206004820152601a60248201527f66756e2077616c6c65743a206e6f742066726f6d204f776e6572000000000000604482015260640161072c565b8047101561405757611dfa82826141ca565b611dfa82826142c1565b73ffffffffffffffffffffffffffffffffffffffff81163b6140eb5760405162461bcd60e51b815260206004820152602d60248201527f455243313936373a206e657720696d706c656d656e746174696f6e206973206e60448201527f6f74206120636f6e747261637400000000000000000000000000000000000000606482015260840161072c565b7f360894a13ba1a3210667c828492db98dca3e2076cc3735a920a3ca505d382bbc80547fffffffffffffffffffffffff00000000000000000000000000000000000000001673ffffffffffffffffffffffffffffffffffffffff92909216919091179055565b61415a81614061565b60405173ffffffffffffffffffffffffffffffffffffffff8216907fbc7cd75a20ee27fd9adebab32041f755214dbc6bffa90cc0225b39da2e5c2d3b90600090a250565b60606141c38383604051806060016040528060278152602001615bb860279139614396565b9392505050565b6005546040517f205c287800000000000000000000000000000000000000000000000000000000815273ffffffffffffffffffffffffffffffffffffffff8481166004830152602482018490529091169063205c287890604401600060405180830381600087803b15801561423e57600080fd5b505af192505050801561424f575060015b611dfa5760405162461bcd60e51b815260206004820152602a60248201527f66756e2077616c6c65743a20656e747279706f696e74207472616e736665722060448201527f657468206661696c656400000000000000000000000000000000000000000000606482015260840161072c565b60008273ffffffffffffffffffffffffffffffffffffffff168260405160006040518083038185875af1925050503d806000811461431b576040519150601f19603f3d011682016040523d82523d6000602084013e614320565b606091505b50509050806122345760405162461bcd60e51b8152602060048201526024808201527f66756e2077616c6c65743a2074686973207472616e736665722065746820666160448201527f696c656400000000000000000000000000000000000000000000000000000000606482015260840161072c565b60606000808573ffffffffffffffffffffffffffffffffffffffff16856040516143c09190615026565b600060405180830381855af49150503d80600081146143fb576040519150601f19603f3d011682016040523d82523d6000602084013e614400565b606091505b50915091506144118683838761441b565b9695505050505050565b6060831561449457825161448d5773ffffffffffffffffffffffffffffffffffffffff85163b61448d5760405162461bcd60e51b815260206004820152601d60248201527f416464726573733a2063616c6c20746f206e6f6e2d636f6e7472616374000000604482015260640161072c565b5081610d3e565b610d3e83838151156144a95781518083602001fd5b8060405162461bcd60e51b815260040161072c919061485e565b8280546144cf90615038565b90600052602060002090601f0160209004810192826144f15760008555614537565b82601f1061450a57805160ff1916838001178555614537565b82800160010185558215614537579182015b8281111561453757825182559160200191906001019061451c565b506145439291506145fc565b5090565b50805461455390615038565b6000825580601f10614563575050565b601f01602090049060005260206000209081019061114a91906145fc565b82805461458d90615038565b90600052602060002090601f0160209004810192826145af5760008555614537565b82601f106145c05780548555614537565b8280016001018555821561453757600052602060002091601f016020900482015b828111156145375782548255916001019190600101906145e1565b5b8082111561454357600081556001016145fd565b73ffffffffffffffffffffffffffffffffffffffff8116811461114a57600080fd5b803561463e81614611565b919050565b60008083601f84011261465557600080fd5b50813567ffffffffffffffff81111561466d57600080fd5b6020830191508360208260051b850101111561468857600080fd5b9250929050565b600080600080606085870312156146a557600080fd5b8435935060208501356146b781614611565b9250604085013567ffffffffffffffff8111156146d357600080fd5b6146df87828801614643565b95989497509550505050565b600080604083850312156146fe57600080fd5b82359150602083013567ffffffffffffffff81111561471c57600080fd5b83016060818603121561472e57600080fd5b809150509250929050565b60006020828403121561474b57600080fd5b81356141c381614611565b60008083601f84011261476857600080fd5b50813567ffffffffffffffff81111561478057600080fd5b60208301915083602082850101111561468857600080fd5b600080600080606085870312156147ae57600080fd5b84356147b981614611565b935060208501359250604085013567ffffffffffffffff8111156147dc57600080fd5b6146df87828801614756565b60005b838110156148035781810151838201526020016147eb565b83811115610be85750506000910152565b6000815180845261482c8160208601602086016147e8565b601f017fffffffffffffffffffffffffffffffffffffffffffffffffffffffffffffffe0169290920160200192915050565b6020815260006141c36020830184614814565b60008060006060848603121561488657600080fd5b83359250602084013561489881614611565b9150604084013567ffffffffffffffff8111156148b457600080fd5b8401608081870312156148c657600080fd5b809150509250925092565b600080600080600080606087890312156148ea57600080fd5b863567ffffffffffffffff8082111561490257600080fd5b61490e8a838b01614643565b9098509650602089013591508082111561492757600080fd5b6149338a838b01614643565b9096509450604089013591508082111561494c57600080fd5b5061495989828a01614643565b979a9699509497509295939492505050565b60008060006060848603121561498057600080fd5b833567ffffffffffffffff81111561499757600080fd5b840161016081870312156149aa57600080fd5b95602085013595506040909401359392505050565b6000806000604084860312156149d457600080fd5b83356149df81614611565b9250602084013567ffffffffffffffff8111156149fb57600080fd5b614a0786828701614756565b9497909650939450505050565b600080600080600060608688031215614a2c57600080fd5b8535614a3781614611565b9450602086013567ffffffffffffffff80821115614a5457600080fd5b614a6089838a01614643565b90965094506040880135915080821115614a7957600080fd5b50614a8688828901614643565b969995985093965092949392505050565b7f4e487b7100000000000000000000000000000000000000000000000000000000600052604160045260246000fd5b7fffffffffffffffffffffffffffffffffffffffffffffffffffffffffffffffe0601f830116810181811067ffffffffffffffff82111715614b0a57614b0a614a97565b6040525050565b600082601f830112614b2257600080fd5b813567ffffffffffffffff811115614b3c57614b3c614a97565b604051614b7160207fffffffffffffffffffffffffffffffffffffffffffffffffffffffffffffffe0601f8501160182614ac6565b818152846020838601011115614b8657600080fd5b816020850160208301376000918101602001919091529392505050565b60008060408385031215614bb657600080fd5b8235614bc181614611565b9150602083013567ffffffffffffffff811115614bdd57600080fd5b614be985828601614b11565b9150509250929050565b60008060408385031215614c0657600080fd5b82359150602083013561472e81614611565b7f4e487b7100000000000000000000000000000000000000000000000000000000600052602160045260246000fd5b60078110614c5757614c57614c18565b9052565b60006020808301818452808551808352604092508286019150828160051b87010184880160005b83811015614d00577fffffffffffffffffffffffffffffffffffffffffffffffffffffffffffffffc0898403018552815160808151855288820151818a870152614cce82870182614814565b91505087820151614ce189870182614c47565b5060609182015194909101939093529386019390860190600101614c82565b509098975050505050505050565b600060208284031215614d2057600080fd5b5035919050565b60018110614c5757614c57614c18565b602081528151602082015260006020830151614d566040840182614d27565b506040830151606080840152610d3e6080840182614814565b600060608284031215614d8157600080fd5b6040516060810181811067ffffffffffffffff82111715614da457614da4614a97565b6040529050808235614db581614611565b81526020830135614dc581614611565b6020820152604092830135920191909152919050565b600080600080600060c08688031215614df357600080fd5b8535614dfe81614611565b945060208601359350604086013567ffffffffffffffff811115614e2157600080fd5b614e2d88828901614756565b9094509250614e4190508760608801614d6f565b90509295509295909350565b600080600060608486031215614e6257600080fd5b8335614e6d81614611565b92506020840135614e7d81614611565b915060408401356148c681614611565b60008060408385031215614ea057600080fd5b8235614eab81614611565b946020939093013593505050565b60008060408385031215614ecc57600080fd5b8235614ed781614611565b9150602083013561472e81614611565b600060608284031215614ef957600080fd5b6141c38383614d6f565b7f4e487b7100000000000000000000000000000000000000000000000000000000600052603260045260246000fd5b600082357fffffffffffffffffffffffffffffffffffffffffffffffffffffffffffffff81833603018112614f6657600080fd5b9190910192915050565b60008083357fffffffffffffffffffffffffffffffffffffffffffffffffffffffffffffffe1843603018112614fa557600080fd5b83018035915067ffffffffffffffff821115614fc057600080fd5b60200191503681900382131561468857600080fd5b7f4e487b7100000000000000000000000000000000000000000000000000000000600052601160045260246000fd5b600061ffff8083168181141561501c5761501c614fd5565b6001019392505050565b60008251614f668184602087016147e8565b600181811c9082168061504c57607f821691505b60208210811415615086577f4e487b7100000000000000000000000000000000000000000000000000000000600052602260045260246000fd5b50919050565b601f82111561223457600081815260208120601f850160051c810160208610156150b35750805b601f850160051c820191505b81811015610abc578281556001016150bf565b6007811061114a57600080fd5b600081356150ec816150d2565b92915050565b6007821061510257615102614c18565b7fffffffffffffffffffffffffffffffffffffffffffffffffffffffffffffff0081541660ff831681178255505050565b813581556001808201602061514a81860186614f70565b67ffffffffffffffff81111561516257615162614a97565b615176816151708654615038565b8661508c565b6000601f8211600181146151c857600083156151925750838201355b7fffffffffffffffffffffffffffffffffffffffffffffffffffffffffffffffff600385901b1c1916600184901b178655615259565b6000868152602090207fffffffffffffffffffffffffffffffffffffffffffffffffffffffffffffffe0841690835b8281101561521457868501358255938701939089019087016151f7565b508482101561524f577fffffffffffffffffffffffffffffffffffffffffffffffffffffffffffffffff60f88660031b161c19848701351681555b50508683881b0186555b5050505050505061527861526f604084016150df565b600283016150f2565b606082013560038201555050565b8135815560018082016020808501358381106152a157600080fd5b7fffffffffffffffffffffffffffffffffffffffffffffffffffffffffffffff0083541660ff82168117845550506002840191506152e26040860186614f70565b67ffffffffffffffff8111156152fa576152fa614a97565b615308816151708654615038565b6000601f82116001811461535a57600083156153245750838201355b7fffffffffffffffffffffffffffffffffffffffffffffffffffffffffffffffff600385901b1c1916600184901b1786556153eb565b6000868152602090207fffffffffffffffffffffffffffffffffffffffffffffffffffffffffffffffe0841690835b828110156153a65786850135825593870193908901908701615389565b50848210156153e1577fffffffffffffffffffffffffffffffffffffffffffffffffffffffffffffffff60f88660031b161c19848701351681555b50508683881b0186555b505050505050505050565b60008083357fffffffffffffffffffffffffffffffffffffffffffffffffffffffffffffffe184360301811261542b57600080fd5b830160208101925035905067ffffffffffffffff81111561544b57600080fd5b80360383131561468857600080fd5b8183528181602085013750600060208284010152600060207fffffffffffffffffffffffffffffffffffffffffffffffffffffffffffffffe0601f840116840101905092915050565b60006101606154cf846154b585614633565b73ffffffffffffffffffffffffffffffffffffffff169052565b602083013560208501526154e660408401846153f6565b8260408701526154f9838701828461545a565b9250505061550a60608401846153f6565b858303606087015261551d83828461545a565b925050506080830135608085015260a083013560a085015260c083013560c085015260e083013560e0850152610100808401358186015250610120615564818501856153f6565b8684038388015261557684828461545a565b935050505061014061558a818501856153f6565b8684038388015261559c84828461545a565b979650505050505050565b6040815260006155ba60408301856154a3565b90508260208301529392505050565b6000602082840312156155db57600080fd5b5051919050565b6155ec8186614d27565b6080602082015260006156026080830186614814565b828103604084015261561481866154a3565b91505082606083015295945050505050565b828152604060208201526000610d3e6040830184614814565b6000808585111561564f57600080fd5b8386111561565c57600080fd5b5050820193919092039150565b7fffffffff0000000000000000000000000000000000000000000000000000000081358181169160048510156156a95780818660040360031b1b83161692505b505092915050565b600060408083526156c481840186614814565b6020848203818601528186548084528284019150828160051b8501016000898152848120815b848110156157ee577fffffffffffffffffffffffffffffffffffffffffffffffffffffffffffffffe08885030186526080825485526001808401828a88015285815461573581615038565b94890185905260a09481851680156157545760018114615786576157b1565b7fffffffffffffffffffffffffffffffffffffffffffffffffffffffffffffff008316878c015260c08b0193506157b1565b848a528d8a208a5b838110156157a95781548d82018a0152908701908f0161578e565b8c0188019450505b505050600286015460ff1693506157ca8d890185614c47565b600386015460609890980197909752505050948601946004909101906001016156ea565b50919b9a5050505050505050505050565b600060033d1115611ece5760046000803e5060005160e01c90565b600060443d10156158285790565b6040517ffffffffffffffffffffffffffffffffffffffffffffffffffffffffffffffffc803d016004833e81513d67ffffffffffffffff816024840111818411171561587657505050505090565b828501915081518181111561588e5750505050505090565b843d87010160208285010111156158a85750505050505090565b6158b760208286010187614ac6565b509095945050505050565b7f66756e2077616c6c65743a2068616e646c6520666565206661696c65642c207281527f6561736f6e3a20000000000000000000000000000000000000000000000000006020820152600082516159208160278501602087016147e8565b9190910160270192915050565b60006020828403121561593f57600080fd5b81356141c3816150d2565b6007811061595a5761595a614c18565b60f81b9052565b83858237600084820160008152615978818661594a565b600181019390935250506021019392505050565b6000845161599e8184602089016147e8565b82016159aa818661594a565b6001810193909352505060210192915050565b6000828210156159cf576159cf614fd5565b500390565b7f4e487b7100000000000000000000000000000000000000000000000000000000600052603160045260246000fd5b600060208284031215615a1557600080fd5b815180151581146141c357600080fd5b600067ffffffffffffffff821115615a3f57615a3f614a97565b5060051b60200190565b600082601f830112615a5a57600080fd5b81356020615a6782615a25565b604051615a748282614ac6565b83815260059390931b8501820192828101915086841115615a9457600080fd5b8286015b84811015615ad457803567ffffffffffffffff811115615ab85760008081fd5b615ac68986838b0101614b11565b845250918301918301615a98565b509695505050505050565b600080600060608486031215615af457600080fd5b8335615aff81614611565b925060208481013567ffffffffffffffff80821115615b1d57600080fd5b818701915087601f830112615b3157600080fd5b8135615b3c81615a25565b604051615b498282614ac6565b82815260059290921b840185019185810191508a831115615b6957600080fd5b938501935b82851015615b8757843582529385019390850190615b6e565b965050506040870135925080831115615b9f57600080fd5b5050615bad86828701615a49565b915050925092509256fe416464726573733a206c6f772d6c6576656c2064656c65676174652063616c6c206661696c6564a26469706673582212204d3168672fdca7392405633141703b78acbe93923a03ce293fbfaf583f61571b64736f6c634300080c0033","linkReferences":{},"deployedLinkReferences":{}}