{"_format":"hh-sol-artifact-1","contractName":"FunWallet","sourceName":"contracts/FunWallet.sol","abi":[{"anonymous":false,"inputs":[{"indexed":false,"internalType":"address","name":"previousAdmin","type":"address"},{"indexed":false,"internalType":"address","name":"newAdmin","type":"address"}],"name":"AdminChanged","type":"event"},{"anonymous":false,"inputs":[{"indexed":true,"internalType":"address","name":"beacon","type":"address"}],"name":"BeaconUpgraded","type":"event"},{"anonymous":false,"inputs":[{"indexed":true,"internalType":"address","name":"oldEntryPoint","type":"address"},{"indexed":true,"internalType":"address","name":"newEntryPoint","type":"address"}],"name":"EntryPointChanged","type":"event"},{"anonymous":false,"inputs":[{"indexed":false,"internalType":"uint8","name":"version","type":"uint8"}],"name":"Initialized","type":"event"},{"anonymous":false,"inputs":[{"indexed":true,"internalType":"address","name":"oldModuleAddr","type":"address"},{"indexed":true,"internalType":"address","name":"newModuleAddr","type":"address"}],"name":"ModuleAddrChanged","type":"event"},{"anonymous":false,"inputs":[{"indexed":true,"internalType":"address","name":"implementation","type":"address"}],"name":"Upgraded","type":"event"},{"anonymous":false,"inputs":[{"indexed":true,"internalType":"address","name":"oldUserAuthenticationAddr","type":"address"},{"indexed":true,"internalType":"address","name":"newUserAuthenticationAddr","type":"address"}],"name":"UserAuthenticationAddrChanged","type":"event"},{"inputs":[],"name":"ADMIN_ROLE","outputs":[{"internalType":"bytes32","name":"","type":"bytes32"}],"stateMutability":"view","type":"function"},{"inputs":[],"name":"CALL_DATA_OFFSET","outputs":[{"internalType":"uint256","name":"","type":"uint256"}],"stateMutability":"view","type":"function"},{"inputs":[],"name":"METHOD_SIGNATURE_OFFSET","outputs":[{"internalType":"uint256","name":"","type":"uint256"}],"stateMutability":"view","type":"function"},{"inputs":[{"internalType":"bytes32","name":"role","type":"bytes32"},{"internalType":"address","name":"moduleAddr","type":"address"},{"components":[{"internalType":"bytes32","name":"action","type":"bytes32"},{"internalType":"bytes","name":"target","type":"bytes"},{"internalType":"enum Keyword","name":"keyword","type":"uint8"},{"internalType":"bytes32","name":"extent","type":"bytes32"}],"internalType":"struct Rule","name":"rule","type":"tuple"}],"name":"attachRuleToRole","outputs":[],"stateMutability":"nonpayable","type":"function"},{"inputs":[{"internalType":"uint256","name":"nonce","type":"uint256"}],"name":"checkNonce","outputs":[{"internalType":"bool","name":"","type":"bool"}],"stateMutability":"view","type":"function"},{"inputs":[{"internalType":"bytes32","name":"role","type":"bytes32"},{"internalType":"address","name":"moduleAddr","type":"address"},{"components":[{"internalType":"bytes32","name":"action","type":"bytes32"},{"internalType":"bytes","name":"target","type":"bytes"},{"internalType":"enum Keyword","name":"keyword","type":"uint8"},{"internalType":"bytes32","name":"extent","type":"bytes32"}],"internalType":"struct Rule[]","name":"rules","type":"tuple[]"}],"name":"createRole","outputs":[],"stateMutability":"nonpayable","type":"function"},{"inputs":[{"internalType":"bytes32","name":"userId","type":"bytes32"},{"components":[{"internalType":"bytes32","name":"role","type":"bytes32"},{"internalType":"enum AuthType","name":"authType","type":"uint8"},{"internalType":"bytes","name":"authMetadata","type":"bytes"}],"internalType":"struct IFunWallet.UserMetadata","name":"userMetadata","type":"tuple"}],"name":"createUser","outputs":[],"stateMutability":"nonpayable","type":"function"},{"inputs":[{"internalType":"bytes32","name":"userId","type":"bytes32"}],"name":"deleteUser","outputs":[],"stateMutability":"nonpayable","type":"function"},{"inputs":[{"internalType":"uint256","name":"amount","type":"uint256"}],"name":"depositToEntryPoint","outputs":[],"stateMutability":"nonpayable","type":"function"},{"inputs":[],"name":"entryPoint","outputs":[{"internalType":"contract IEntryPoint","name":"","type":"address"}],"stateMutability":"view","type":"function"},{"inputs":[{"internalType":"address[]","name":"dests","type":"address[]"},{"internalType":"uint256[]","name":"values","type":"uint256[]"},{"internalType":"bytes[]","name":"data","type":"bytes[]"}],"name":"execBatchInit","outputs":[],"stateMutability":"nonpayable","type":"function"},{"inputs":[{"internalType":"address","name":"dest","type":"address"},{"internalType":"uint256","name":"value","type":"uint256"},{"internalType":"bytes","name":"data","type":"bytes"}],"name":"execFromEntryPointOrOwner","outputs":[],"stateMutability":"nonpayable","type":"function"},{"inputs":[{"internalType":"address","name":"dest","type":"address"},{"internalType":"uint256","name":"value","type":"uint256"},{"internalType":"bytes","name":"data","type":"bytes"},{"components":[{"internalType":"address","name":"token","type":"address"},{"internalType":"address","name":"receipent","type":"address"},{"internalType":"uint256","name":"amount","type":"uint256"}],"internalType":"struct IFunWallet.UserOperationFee","name":"feedata","type":"tuple"}],"name":"execFromEntryPointOrOwnerWithFee","outputs":[],"stateMutability":"nonpayable","type":"function"},{"inputs":[{"internalType":"address","name":"dest","type":"address"},{"internalType":"uint256","name":"value","type":"uint256"},{"internalType":"bytes","name":"data","type":"bytes"}],"name":"execFromModule","outputs":[{"internalType":"bytes","name":"","type":"bytes"}],"stateMutability":"payable","type":"function"},{"inputs":[],"name":"getDeposit","outputs":[{"internalType":"uint256","name":"","type":"uint256"}],"stateMutability":"view","type":"function"},{"inputs":[{"internalType":"address","name":"moduleAddr","type":"address"}],"name":"getModuleStateVal","outputs":[{"internalType":"bytes","name":"","type":"bytes"}],"stateMutability":"view","type":"function"},{"inputs":[{"internalType":"bytes32","name":"role","type":"bytes32"},{"internalType":"address","name":"moduleAddr","type":"address"}],"name":"getRulesOfRole","outputs":[{"components":[{"internalType":"bytes32","name":"action","type":"bytes32"},{"internalType":"bytes","name":"target","type":"bytes"},{"internalType":"enum Keyword","name":"keyword","type":"uint8"},{"internalType":"bytes32","name":"extent","type":"bytes32"}],"internalType":"struct Rule[]","name":"","type":"tuple[]"}],"stateMutability":"view","type":"function"},{"inputs":[{"internalType":"bytes32","name":"userId","type":"bytes32"}],"name":"getUser","outputs":[{"components":[{"internalType":"bytes32","name":"role","type":"bytes32"},{"internalType":"enum AuthType","name":"authType","type":"uint8"},{"internalType":"bytes","name":"authMetadata","type":"bytes"}],"internalType":"struct IFunWallet.UserMetadata","name":"","type":"tuple"}],"stateMutability":"view","type":"function"},{"inputs":[{"internalType":"address","name":"dest","type":"address"},{"internalType":"uint256[]","name":"value","type":"uint256[]"},{"internalType":"bytes[]","name":"data","type":"bytes[]"}],"name":"initAndExec","outputs":[],"stateMutability":"nonpayable","type":"function"},{"inputs":[{"internalType":"address","name":"dest","type":"address"},{"internalType":"uint256[]","name":"value","type":"uint256[]"},{"internalType":"bytes[]","name":"data","type":"bytes[]"},{"components":[{"internalType":"address","name":"token","type":"address"},{"internalType":"address","name":"receipent","type":"address"},{"internalType":"uint256","name":"amount","type":"uint256"}],"internalType":"struct IFunWallet.UserOperationFee","name":"feedata","type":"tuple"}],"name":"initAndExecWithFee","outputs":[],"stateMutability":"nonpayable","type":"function"},{"inputs":[{"internalType":"address","name":"_entryPointAddr","type":"address"},{"internalType":"address","name":"_userAuthAddr","type":"address"},{"internalType":"address","name":"_owner","type":"address"}],"name":"initialize","outputs":[],"stateMutability":"nonpayable","type":"function"},{"inputs":[],"name":"owner","outputs":[{"internalType":"address","name":"","type":"address"}],"stateMutability":"view","type":"function"},{"inputs":[],"name":"proxiableUUID","outputs":[{"internalType":"bytes32","name":"","type":"bytes32"}],"stateMutability":"view","type":"function"},{"inputs":[{"internalType":"bytes32","name":"role","type":"bytes32"},{"internalType":"address","name":"moduleAddr","type":"address"},{"components":[{"internalType":"bytes32","name":"action","type":"bytes32"},{"internalType":"bytes","name":"target","type":"bytes"},{"internalType":"enum Keyword","name":"keyword","type":"uint8"},{"internalType":"bytes32","name":"extent","type":"bytes32"}],"internalType":"struct Rule","name":"rule","type":"tuple"}],"name":"removeRuleFromRole","outputs":[],"stateMutability":"nonpayable","type":"function"},{"inputs":[{"internalType":"address","name":"newImplementation","type":"address"},{"internalType":"bytes","name":"initializerCallData","type":"bytes"}],"name":"setImplementationOnDeployment","outputs":[],"stateMutability":"nonpayable","type":"function"},{"inputs":[{"internalType":"address","name":"_newEntryPoint","type":"address"}],"name":"updateEntryPoint","outputs":[],"stateMutability":"nonpayable","type":"function"},{"inputs":[{"internalType":"address","name":"oldModuleAddr","type":"address"},{"internalType":"address","name":"newModuleAddr","type":"address"}],"name":"updateModuleAddr","outputs":[],"stateMutability":"nonpayable","type":"function"},{"inputs":[{"internalType":"bytes32","name":"userId","type":"bytes32"},{"components":[{"internalType":"bytes32","name":"role","type":"bytes32"},{"internalType":"enum AuthType","name":"authType","type":"uint8"},{"internalType":"bytes","name":"authMetadata","type":"bytes"}],"internalType":"struct IFunWallet.UserMetadata","name":"userMetadata","type":"tuple"}],"name":"updateUser","outputs":[],"stateMutability":"nonpayable","type":"function"},{"inputs":[{"internalType":"address","name":"_newUserAuthentication","type":"address"}],"name":"updateUserAuthentication","outputs":[],"stateMutability":"nonpayable","type":"function"},{"inputs":[{"internalType":"address","name":"newImplementation","type":"address"}],"name":"upgradeTo","outputs":[],"stateMutability":"nonpayable","type":"function"},{"inputs":[{"internalType":"address","name":"newImplementation","type":"address"},{"internalType":"bytes","name":"data","type":"bytes"}],"name":"upgradeToAndCall","outputs":[],"stateMutability":"payable","type":"function"},{"inputs":[],"name":"userAuthentication","outputs":[{"internalType":"contract UserAuthentication","name":"","type":"address"}],"stateMutability":"view","type":"function"},{"inputs":[{"components":[{"internalType":"address","name":"sender","type":"address"},{"internalType":"uint256","name":"nonce","type":"uint256"},{"internalType":"bytes","name":"initCode","type":"bytes"},{"internalType":"bytes","name":"callData","type":"bytes"},{"internalType":"uint256","name":"callGasLimit","type":"uint256"},{"internalType":"uint256","name":"verificationGasLimit","type":"uint256"},{"internalType":"uint256","name":"preVerificationGas","type":"uint256"},{"internalType":"uint256","name":"maxFeePerGas","type":"uint256"},{"internalType":"uint256","name":"maxPriorityFeePerGas","type":"uint256"},{"internalType":"bytes","name":"paymasterAndData","type":"bytes"},{"internalType":"bytes","name":"signature","type":"bytes"}],"internalType":"struct UserOperation","name":"userOp","type":"tuple"},{"internalType":"bytes32","name":"userOpHash","type":"bytes32"},{"internalType":"uint256","name":"missingAccountFunds","type":"uint256"}],"name":"validateUserOp","outputs":[{"internalType":"uint256","name":"sigTimeRange","type":"uint256"}],"stateMutability":"nonpayable","type":"function"},{"inputs":[{"internalType":"address payable","name":"withdrawAddress","type":"address"},{"internalType":"uint256","name":"amount","type":"uint256"}],"name":"withdrawFromEntryPoint","outputs":[],"stateMutability":"nonpayable","type":"function"},{"stateMutability":"payable","type":"receive"}],"bytecode":"0x60a0604052306080526000805462ff00001916905534801561002057600080fd5b50608051615ba06200005960003960008181610f930152818161102901528181611c5301528181611ce90152611e180152615ba06000f3fe60806040526004361061021d5760003560e01c80636517579c1161011d578063b0d691fe116100b0578063cc793fa61161007f578063daafc37e11610064578063daafc37e1461065b578063dc7c98481461067b578063e374e90f1461069b57600080fd5b8063cc793fa61461061b578063d06403d61461063b57600080fd5b8063b0d691fe1461059b578063c0c53b8b146105c6578063c399ec88146105e6578063c7d76308146105fb57600080fd5b80639192b921116100ec5780639192b9211461052657806399d3fef3146105465780639cfdf5b614610566578063a55e593d1461057b57600080fd5b80636517579c1461047857806375b238fc146104a55780637b8ea028146104d95780638da5cb5b146104f957600080fd5b80633a871cdd116101b05780634f1ef2861161017f57806355cd05cc1161016457806355cd05cc1461040b5780635cbf1e6e1461042b5780635e5d43201461045857600080fd5b80634f1ef286146103e357806352d1902d146103f657600080fd5b80633a871cdd146103375780633cb66ec4146103575780634192d251146103a35780634789b97e146103c357600080fd5b80632ed6fb5d116101ec5780632ed6fb5d146102b4578063357f7bb0146102d45780633659cfe6146102f75780633a6e5a0a1461031757600080fd5b8063033183e91461022957806315577ae21461024b5780631b71bb6e1461026b57806320d2a20f1461028b57600080fd5b3661022457005b600080fd5b34801561023557600080fd5b506102496102443660046146ee565b6106db565b005b34801561025757600080fd5b5061024961026636600461474a565b610ac4565b34801561027757600080fd5b50610249610286366004614798565b610bee565b61029e6102993660046147f7565b610cf0565b6040516102ab91906148bd565b60405180910390f35b3480156102c057600080fd5b506102496102cf3660046148d0565b610d46565b3480156102e057600080fd5b506102e9600481565b6040519081526020016102ab565b34801561030357600080fd5b50610249610312366004614798565b610f7b565b34801561032357600080fd5b50610249610332366004614930565b61114d565b34801561034357600080fd5b506102e96103523660046149ca565b61131d565b34801561036357600080fd5b5060065473ffffffffffffffffffffffffffffffffffffffff165b60405173ffffffffffffffffffffffffffffffffffffffff90911681526020016102ab565b3480156103af57600080fd5b506102496103be366004614a1e565b611a6d565b3480156103cf57600080fd5b506102496103de366004614a73565b611b5e565b6102496103f1366004614c02565b611c3b565b34801561040257600080fd5b506102e9611dfe565b34801561041757600080fd5b506102496104263660046147f7565b611ed0565b34801561043757600080fd5b5061044b610446366004614c52565b611f56565b6040516102ab9190614cba565b34801561046457600080fd5b50610249610473366004614d6d565b612195565b34801561048457600080fd5b50610498610493366004614d6d565b612238565b6040516102ab9190614d96565b3480156104b157600080fd5b506102e97f61646d696e00000000000000000000000000000000000000000000000000000081565b3480156104e557600080fd5b506102496104f4366004614798565b612386565b34801561050557600080fd5b5060075461037e9073ffffffffffffffffffffffffffffffffffffffff1681565b34801561053257600080fd5b50610249610541366004614e3a565b612488565b34801561055257600080fd5b506102496105613660046148d0565b61249d565b34801561057257600080fd5b506102e960c881565b34801561058757600080fd5b50610249610596366004614d6d565b612a9e565b3480156105a757600080fd5b5060055473ffffffffffffffffffffffffffffffffffffffff1661037e565b3480156105d257600080fd5b506102496105e1366004614eac565b612b9b565b3480156105f257600080fd5b506102e9613063565b34801561060757600080fd5b50610249610616366004614eec565b6130fb565b34801561062757600080fd5b50610249610636366004614f18565b613214565b34801561064757600080fd5b5061029e610656366004614798565b61341b565b34801561066757600080fd5b50610249610676366004614f46565b6134d4565b34801561068757600080fd5b5061024961069636600461474a565b6134e1565b3480156106a757600080fd5b506106cb6106b6366004614d6d565b60009081526002602052604090205460ff1690565b60405190151581526020016102ab565b6106e36135f0565b836107355760405162461bcd60e51b815260206004820152600d60248201527f726f6c6520697320656d7074790000000000000000000000000000000000000060448201526064015b60405180910390fd5b73ffffffffffffffffffffffffffffffffffffffff83166107985760405162461bcd60e51b815260206004820152601760248201527f6d6f64756c65206164647265737320697320656d707479000000000000000000604482015260640161072c565b806107e55760405162461bcd60e51b815260206004820152600f60248201527f72756c65732061726520656d7074790000000000000000000000000000000000604482015260640161072c565b60005b61ffff8116821115610982576000838361ffff841681811061080c5761080c614fd9565b905060200281019061081e9190615008565b35141561086d5760405162461bcd60e51b815260206004820152601560248201527f72756c652068617320656d70747920616374696f6e0000000000000000000000604482015260640161072c565b600083838361ffff1681811061088557610885614fd9565b90506020028101906108979190615008565b6108a5906020810190615046565b9050116108f45760405162461bcd60e51b815260206004820152601560248201527f72756c652068617320656d707479207461726765740000000000000000000000604482015260640161072c565b6000838361ffff841681811061090c5761090c614fd9565b905060200281019061091e9190615008565b6060013514156109705760405162461bcd60e51b815260206004820152601560248201527f72756c652068617320656d70747920657874656e740000000000000000000000604482015260640161072c565b8061097a816150da565b9150506107e8565b5060008473ffffffffffffffffffffffffffffffffffffffff8516604080516020810193909352820152606001604051602081830303815290604052905060006004826040516109d291906150fc565b908152604051908190036020019020541115610a305760405162461bcd60e51b815260206004820152601360248201527f726f6c6520616c72656164792065786973747300000000000000000000000000604482015260640161072c565b60005b61ffff8116831115610abc57600482604051610a4f91906150fc565b908152602001604051809103902084848361ffff16818110610a7357610a73614fd9565b9050602002810190610a859190615008565b815460018101835560009283526020909220909160040201610aa78282615209565b50508080610ab4906150da565b915050610a33565b505050505050565b610acc6135f0565b81610b195760405162461bcd60e51b815260206004820152600e60248201527f696e76616c696420757365724964000000000000000000000000000000000000604482015260640161072c565b610b22826136a1565b8035610b705760405162461bcd60e51b815260206004820152601360248201527f757365722068617320656d70747920726f6c6500000000000000000000000000604482015260640161072c565b6000610b7f6040830183615046565b905011610bce5760405162461bcd60e51b815260206004820152601c60248201527f757365722068617320656d7074792061757468206d6574616461746100000000604482015260640161072c565b60008281526003602052604090208190610be8828261535c565b50505050565b610bf66135f0565b73ffffffffffffffffffffffffffffffffffffffff8116610c7f5760405162461bcd60e51b815260206004820152603260248201527f66756e2077616c6c65743a206e657720656e74727920706f696e74206164647260448201527f6573732063616e6e6f74206265207a65726f0000000000000000000000000000606482015260840161072c565b600580547fffffffffffffffffffffffff00000000000000000000000000000000000000001673ffffffffffffffffffffffffffffffffffffffff831690811790915560405181907f450909c1478d09248269d4ad4fa8cba61ca3f50faed58c7aedefa51c7f62b83a90600090a350565b6060610cfa61370c565b610d3b858585858080601f01602080910402602001604051908101604052809392919081815260200183838082843760009201919091525061379b92505050565b90505b949350505050565b610d4e6135f0565b82610d9b5760405162461bcd60e51b815260206004820152600d60248201527f726f6c6520697320656d70747900000000000000000000000000000000000000604482015260640161072c565b73ffffffffffffffffffffffffffffffffffffffff8216610dfe5760405162461bcd60e51b815260206004820152601760248201527f6d6f64756c65206164647265737320697320656d707479000000000000000000604482015260640161072c565b8035610e4c5760405162461bcd60e51b815260206004820152601560248201527f72756c652068617320656d70747920616374696f6e0000000000000000000000604482015260640161072c565b6000610e5b6020830183615046565b905011610eaa5760405162461bcd60e51b815260206004820152601560248201527f72756c652068617320656d707479207461726765740000000000000000000000604482015260640161072c565b6060810135610efb5760405162461bcd60e51b815260206004820152601560248201527f72756c652068617320656d70747920657874656e740000000000000000000000604482015260640161072c565b604080516020810185905273ffffffffffffffffffffffffffffffffffffffff8416818301528151808203830181526060909101909152610f3b81613863565b600481604051610f4b91906150fc565b9081526040516020918190038201902080546001810182556000918252919020839160040201610abc8282615209565b3073ffffffffffffffffffffffffffffffffffffffff7f00000000000000000000000000000000000000000000000000000000000000001614156110275760405162461bcd60e51b815260206004820152602c60248201527f46756e6374696f6e206d7573742062652063616c6c6564207468726f7567682060448201527f64656c656761746563616c6c0000000000000000000000000000000000000000606482015260840161072c565b7f000000000000000000000000000000000000000000000000000000000000000073ffffffffffffffffffffffffffffffffffffffff1661109c7f360894a13ba1a3210667c828492db98dca3e2076cc3735a920a3ca505d382bbc5473ffffffffffffffffffffffffffffffffffffffff1690565b73ffffffffffffffffffffffffffffffffffffffff16146111255760405162461bcd60e51b815260206004820152602c60248201527f46756e6374696f6e206d7573742062652063616c6c6564207468726f7567682060448201527f6163746976652070726f78790000000000000000000000000000000000000000606482015260840161072c565b61112e816138d2565b6040805160008082526020820190925261114a918391906138da565b50565b6111556135f0565b848314801561116357508281145b6111af5760405162461bcd60e51b815260206004820152601760248201527f6461746120697320646966666572656e742073697a6573000000000000000000604482015260640161072c565b60005b85811015611314576111e68383838181106111cf576111cf614fd9565b90506020028101906111e19190615046565b613aa5565b1561130c57600061128e88888481811061120257611202614fd9565b90506020020160208101906112179190614798565b87878581811061122957611229614fd9565b9050602002013586868681811061124257611242614fd9565b90506020028101906112549190615046565b8080601f01602080910402602001604051908101604052809392919081815260200183838082843760009201919091525061379b92505050565b905080600160008a8a868181106112a7576112a7614fd9565b90506020020160208101906112bc9190614798565b73ffffffffffffffffffffffffffffffffffffffff1673ffffffffffffffffffffffffffffffffffffffff1681526020019081526020016000209080519060200190611309929190614522565b50505b6001016111b2565b50505050505050565b6000611327613b0b565b6006546040517f81adfce600000000000000000000000000000000000000000000000000000000815260009173ffffffffffffffffffffffffffffffffffffffff16906381adfce6906113809088908890600401615672565b602060405180830381865afa15801561139d573d6000803e3d6000fd5b505050506040513d601f19601f820116820180604052508101906113c19190615694565b90506113cc816136a1565b6000818152600360209081526040808320815160608101909252805482526001810154919290919083019060ff16801561140857611408614c77565b801561141657611416614c77565b815260200160028201805461142a9061510e565b80601f01602080910402602001604051908101604052809291908181526020018280546114569061510e565b80156114a35780601f10611478576101008083540402835291602001916114a3565b820191906000526020600020905b81548152906001019060200180831161148657829003601f168201915b505050919092525050600654602083015160408085015190517fdeca388700000000000000000000000000000000000000000000000000000000815294955073ffffffffffffffffffffffffffffffffffffffff9092169363deca3887935061151392908b908b906004016156ad565b602060405180830381865afa158015611530573d6000803e3d6000fd5b505050506040513d601f19601f820116820180604052508101906115549190615694565b92506115636040870187615046565b151590506115745761157486613b72565b600081600001516040518060400160405280600181526020017f2a000000000000000000000000000000000000000000000000000000000000008152506040516020016115c29291906156f1565b60405160208183030381529060405290507f61646d696e0000000000000000000000000000000000000000000000000000008260000151141580156116275750600060048260405161161491906150fc565b9081526040519081900360200190205411155b15611a5a577f4789b97e0000000000000000000000000000000000000000000000000000000061165a6060890189615046565b6116699160049160009161570a565b61167291615734565b7fffffffff000000000000000000000000000000000000000000000000000000001614156118e7576000806116b26116ad60608b018b615046565b613c16565b86519294509250600091905073ffffffffffffffffffffffffffffffffffffffff84166040805160208101939093528201526060016040516020818303038152906040529050600060048260405161170a91906150fc565b90815260405190819003602001902054116117675760405162461bcd60e51b815260206004820152601660248201527f75736572206973206e6f7420617574686f72697a656400000000000000000000604482015260640161072c565b8273ffffffffffffffffffffffffffffffffffffffff166352bd4f418360008151811061179657611796614fd9565b60200260200101516004846040516117ae91906150fc565b9081526040519081900360200181207fffffffff0000000000000000000000000000000000000000000000000000000060e085901b1682526117f3929160040161577c565b60006040518083038186803b15801561180b57600080fd5b505afa15801561181f573d6000803e3d6000fd5b505050508273ffffffffffffffffffffffffffffffffffffffff166352bd4f418360018151811061185257611852614fd9565b602002602001015160048460405161186a91906150fc565b9081526040519081900360200181207fffffffff0000000000000000000000000000000000000000000000000000000060e085901b1682526118af929160040161577c565b60006040518083038186803b1580156118c757600080fd5b505afa1580156118db573d6000803e3d6000fd5b50505050505050611a5a565b6000806118ff6118fa60608b018b615046565b613c43565b86519294509250600091905073ffffffffffffffffffffffffffffffffffffffff84166040805160208101939093528201526060016040516020818303038152906040529050600060048260405161195791906150fc565b90815260405190819003602001902054116119b45760405162461bcd60e51b815260206004820152601660248201527f75736572206973206e6f7420617574686f72697a656400000000000000000000604482015260640161072c565b8273ffffffffffffffffffffffffffffffffffffffff166352bd4f41836004846040516119e191906150fc565b9081526040519081900360200181207fffffffff0000000000000000000000000000000000000000000000000000000060e085901b168252611a26929160040161577c565b60006040518083038186803b158015611a3e57600080fd5b505afa158015611a52573d6000803e3d6000fd5b505050505050505b611a6385613cb5565b5050509392505050565b60005462010000900460ff1615611aec5760405162461bcd60e51b815260206004820152602260248201527f436f6e74726163742068617320616c7265616479206265656e206465706c6f7960448201527f6564000000000000000000000000000000000000000000000000000000000000606482015260840161072c565b611b2c8383838080601f01602080910402602001604051908101604052809392919081815260200183838082843760009201829052509250613d20915050565b5050600080547fffffffffffffffffffffffffffffffffffffffffffffffffffffffffff00ffff166201000017905550565b611b74828260008181106111cf576111cf614fd9565b611bc05760405162461bcd60e51b815260206004820181905260248201527f66697273742063616c6c206973206e6f7420616e20696e697420616374696f6e604482015260640161072c565b611c038585856000818110611bd757611bd7614fd9565b9050602002013584846000818110611bf157611bf1614fd9565b90506020028101906104269190615046565b611c348585856001818110611c1a57611c1a614fd9565b9050602002013584846001818110611bf157611bf1614fd9565b5050505050565b3073ffffffffffffffffffffffffffffffffffffffff7f0000000000000000000000000000000000000000000000000000000000000000161415611ce75760405162461bcd60e51b815260206004820152602c60248201527f46756e6374696f6e206d7573742062652063616c6c6564207468726f7567682060448201527f64656c656761746563616c6c0000000000000000000000000000000000000000606482015260840161072c565b7f000000000000000000000000000000000000000000000000000000000000000073ffffffffffffffffffffffffffffffffffffffff16611d5c7f360894a13ba1a3210667c828492db98dca3e2076cc3735a920a3ca505d382bbc5473ffffffffffffffffffffffffffffffffffffffff1690565b73ffffffffffffffffffffffffffffffffffffffff1614611de55760405162461bcd60e51b815260206004820152602c60248201527f46756e6374696f6e206d7573742062652063616c6c6564207468726f7567682060448201527f6163746976652070726f78790000000000000000000000000000000000000000606482015260840161072c565b611dee826138d2565b611dfa828260016138da565b5050565b60003073ffffffffffffffffffffffffffffffffffffffff7f00000000000000000000000000000000000000000000000000000000000000001614611eab5760405162461bcd60e51b815260206004820152603860248201527f555550535570677261646561626c653a206d757374206e6f742062652063616c60448201527f6c6564207468726f7567682064656c656761746563616c6c0000000000000000606482015260840161072c565b507f360894a13ba1a3210667c828492db98dca3e2076cc3735a920a3ca505d382bbc90565b611ed86135f0565b6000611f1b858585858080601f01602080910402602001604051908101604052809392919081815260200183838082843760009201919091525061379b92505050565b73ffffffffffffffffffffffffffffffffffffffff861660009081526001602090815260409091208251929350610abc929091840190614522565b606082611fa55760405162461bcd60e51b815260206004820152600d60248201527f726f6c6520697320656d70747900000000000000000000000000000000000000604482015260640161072c565b73ffffffffffffffffffffffffffffffffffffffff82166120085760405162461bcd60e51b815260206004820152601760248201527f6d6f64756c65206164647265737320697320656d707479000000000000000000604482015260640161072c565b604080516020810185905273ffffffffffffffffffffffffffffffffffffffff8416818301528151808203830181526060909101918290529060049061204f9083906150fc565b9081526020016040518091039020805480602002602001604051908101604052809291908181526020016000905b828210156121885783829060005260206000209060040201604051806080016040529081600082015481526020016001820180546120ba9061510e565b80601f01602080910402602001604051908101604052809291908181526020018280546120e69061510e565b80156121335780601f1061210857610100808354040283529160200191612133565b820191906000526020600020905b81548152906001019060200180831161211657829003601f168201915b5050509183525050600282015460209091019060ff16600681111561215a5761215a614c77565b600681111561216b5761216b614c77565b81526020016003820154815250508152602001906001019061207d565b5050505091505092915050565b61219d6135f0565b806121ea5760405162461bcd60e51b815260206004820152600e60248201527f696e76616c696420757365724964000000000000000000000000000000000000604482015260640161072c565b60008181526003602052604081208181556001810180547fffffffffffffffffffffffffffffffffffffffffffffffffffffffffffffff001690559061223360028301826145a6565b505050565b60408051606080820183526000808352602083015291810191909152816122a15760405162461bcd60e51b815260206004820152600e60248201527f696e76616c696420757365724964000000000000000000000000000000000000604482015260640161072c565b600082815260036020908152604091829020825160608101909352805483526001810154909183019060ff1680156122db576122db614c77565b80156122e9576122e9614c77565b81526020016002820180546122fd9061510e565b80601f01602080910402602001604051908101604052809291908181526020018280546123299061510e565b80156123765780601f1061234b57610100808354040283529160200191612376565b820191906000526020600020905b81548152906001019060200180831161235957829003601f168201915b5050505050815250509050919050565b61238e6135f0565b73ffffffffffffffffffffffffffffffffffffffff81166124175760405162461bcd60e51b815260206004820152603260248201527f66756e2077616c6c65743a206e657720656e74727920706f696e74206164647260448201527f6573732063616e6e6f74206265207a65726f0000000000000000000000000000606482015260840161072c565b600680547fffffffffffffffffffffffff00000000000000000000000000000000000000001673ffffffffffffffffffffffffffffffffffffffff831690811790915560405181907f34a5e38fc8fe74f12b269fe92e724092f7f531dc4985c88fb113460cfcb5f67d90600090a350565b61249485858585611ed0565b611c3481613d45565b6124a56135f0565b826124f25760405162461bcd60e51b815260206004820152600d60248201527f726f6c6520697320656d70747900000000000000000000000000000000000000604482015260640161072c565b73ffffffffffffffffffffffffffffffffffffffff82166125555760405162461bcd60e51b815260206004820152601760248201527f6d6f64756c65206164647265737320697320656d707479000000000000000000604482015260640161072c565b80356125a35760405162461bcd60e51b815260206004820152601560248201527f72756c652068617320656d70747920616374696f6e0000000000000000000000604482015260640161072c565b60006125b26020830183615046565b9050116126015760405162461bcd60e51b815260206004820152601560248201527f72756c652068617320656d707479207461726765740000000000000000000000604482015260640161072c565b60608101356126525760405162461bcd60e51b815260206004820152601560248201527f72756c652068617320656d70747920657874656e740000000000000000000000604482015260640161072c565b604080516020810185905273ffffffffffffffffffffffffffffffffffffffff841681830152815180820383018152606090910190915261269281613863565b60006004826040516126a491906150fc565b9081526020016040518091039020805480602002602001604051908101604052809291908181526020016000905b828210156127dd57838290600052602060002090600402016040518060800160405290816000820154815260200160018201805461270f9061510e565b80601f016020809104026020016040519081016040528092919081815260200182805461273b9061510e565b80156127885780601f1061275d57610100808354040283529160200191612788565b820191906000526020600020905b81548152906001019060200180831161276b57829003601f168201915b5050509183525050600282015460209091019060ff1660068111156127af576127af614c77565b60068111156127c0576127c0614c77565b8152602001600382015481525050815260200190600101906126d2565b50505050905060008380602001906127f59190615046565b61280560608701604088016158ca565b866060013560405160200161281d94939291906158fe565b60405160208183030381529060405280519060200120905060005b60048460405161284891906150fc565b9081526040519081900360200190205461ffff82161015611314576000838261ffff168151811061287b5761287b614fd9565b602002602001015160200151848361ffff168151811061289d5761289d614fd9565b602002602001015160400151858461ffff16815181106128bf576128bf614fd9565b6020026020010151606001516040516020016128dd93929190615929565b60405160208183030381529060405280519060200120905080831415612a8b57836001855161290c919061595a565b8151811061291c5761291c614fd9565b602002602001015160048660405161293491906150fc565b90815260200160405180910390208361ffff168154811061295757612957614fd9565b906000526020600020906004020160008201518160000155602082015181600101908051906020019061298b929190614522565b5060408201516002820180547fffffffffffffffffffffffffffffffffffffffffffffffffffffffffffffff001660018360068111156129cd576129cd614c77565b0217905550606082015181600301559050506004856040516129ef91906150fc565b9081526020016040518091039020805480612a0c57612a0c615971565b60008281526020812060047fffffffffffffffffffffffffffffffffffffffffffffffffffffffffffffffff9093019283020181815590612a5060018301826145a6565b506002810180547fffffffffffffffffffffffffffffffffffffffffffffffffffffffffffffff001690556000600390910155905550611314565b5080612a96816150da565b915050612838565b612aa6613da1565b80471015612b1c5760405162461bcd60e51b815260206004820152602a60248201527f66756e2077616c6c65743a206e6f7420656e6f75676820657468657220696e2060448201527f7468652077616c6c657400000000000000000000000000000000000000000000606482015260840161072c565b6005546040517fb760faf900000000000000000000000000000000000000000000000000000000815230600482015273ffffffffffffffffffffffffffffffffffffffff9091169063b760faf990602401600060405180830381600087803b158015612b8757600080fd5b505af1158015611c34573d6000803e3d6000fd5b600054610100900460ff1615808015612bbb5750600054600160ff909116105b80612bd55750303b158015612bd5575060005460ff166001145b612c475760405162461bcd60e51b815260206004820152602e60248201527f496e697469616c697a61626c653a20636f6e747261637420697320616c72656160448201527f647920696e697469616c697a6564000000000000000000000000000000000000606482015260840161072c565b600080547fffffffffffffffffffffffffffffffffffffffffffffffffffffffffffffff001660011790558015612ca557600080547fffffffffffffffffffffffffffffffffffffffffffffffffffffffffffff00ff166101001790555b73ffffffffffffffffffffffffffffffffffffffff8416612d085760405162461bcd60e51b815260206004820152601260248201527f496e76616c696420456e747279706f696e740000000000000000000000000000604482015260640161072c565b6005805473ffffffffffffffffffffffffffffffffffffffff8681167fffffffffffffffffffffffff00000000000000000000000000000000000000009283161790925560068054868416908316179055600780549285169290911682179055604080516060810182527f61646d696e000000000000000000000000000000000000000000000000000000815260006020808301828152845180830187905285518082038401815290860186528486015294825260039052919091208151815591516001838101805493949390917fffffffffffffffffffffffffffffffffffffffffffffffffffffffffffffff0090911690838015612e0a57612e0a614c77565b021790555060408201518051612e2a916002840191602090910190614522565b5090505060007f61646d696e0000000000000000000000000000000000000000000000000000006040518060400160405280600181526020017f2a00000000000000000000000000000000000000000000000000000000000000815250604051602001612e989291906156f1565b6040516020818303038152906040529050600481604051612eb991906150fc565b908152602001604051809103902060405180608001604052807f2a0000000000000000000000000000000000000000000000000000000000000081526020016040518060400160405280600181526020017f2a000000000000000000000000000000000000000000000000000000000000008152508152602001600680811115612f4557612f45614c77565b81527f2a00000000000000000000000000000000000000000000000000000000000000602091820152825460018181018555600094855293829020835160049092020190815582820151805193949193612fa793928501929190910190614522565b5060408201516002820180547fffffffffffffffffffffffffffffffffffffffffffffffffffffffffffffff00166001836006811115612fe957612fe9614c77565b0217905550606082015181600301555050508015610be857600080547fffffffffffffffffffffffffffffffffffffffffffffffffffffffffffff00ff169055604051600181527f7f26b83ff96e1f2b6a682f133852f6798a09c465da95921460cefb38474024989060200160405180910390a150505050565b6005546040517f70a0823100000000000000000000000000000000000000000000000000000000815230600482015260009173ffffffffffffffffffffffffffffffffffffffff16906370a0823190602401602060405180830381865afa1580156130d2573d6000803e3d6000fd5b505050506040513d601f19601f820116820180604052508101906130f69190615694565b905090565b613103613da1565b73ffffffffffffffffffffffffffffffffffffffff821661318c5760405162461bcd60e51b815260206004820152602b60248201527f66756e2077616c6c65743a20776974686472617720616464726573732063616e60448201527f6e6f74206265207a65726f000000000000000000000000000000000000000000606482015260840161072c565b6005546040517f205c287800000000000000000000000000000000000000000000000000000000815273ffffffffffffffffffffffffffffffffffffffff8481166004830152602482018490529091169063205c287890604401600060405180830381600087803b15801561320057600080fd5b505af1158015610abc573d6000803e3d6000fd5b61321c6135f0565b73ffffffffffffffffffffffffffffffffffffffff81166132a55760405162461bcd60e51b815260206004820152602d60248201527f66756e2077616c6c65743a206e6577206d6f64756c652061646472657373206360448201527f616e6e6f74206265207a65726f00000000000000000000000000000000000000606482015260840161072c565b8173ffffffffffffffffffffffffffffffffffffffff168173ffffffffffffffffffffffffffffffffffffffff1614156133475760405162461bcd60e51b815260206004820152603e60248201527f66756e2077616c6c65743a206e6577206d6f64756c652061646472657373206360448201527f616e6e6f7420626520657175616c20746f2070726576696f7573206f6e650000606482015260840161072c565b73ffffffffffffffffffffffffffffffffffffffff8083166000908152600160205260408082209284168252902081549091906133839061510e565b61338e9291906145e0565b5073ffffffffffffffffffffffffffffffffffffffff821660009081526001602052604081206133bd916145a6565b8073ffffffffffffffffffffffffffffffffffffffff168273ffffffffffffffffffffffffffffffffffffffff167fdcbf4cc8a7afc3fe6e403a57745b98188844fdfee49c8752ae30fc46b3a39ebb60405160405180910390a35050565b73ffffffffffffffffffffffffffffffffffffffff8116600090815260016020526040902080546060919061344f9061510e565b80601f016020809104026020016040519081016040528092919081815260200182805461347b9061510e565b80156134c85780601f1061349d576101008083540402835291602001916134c8565b820191906000526020600020905b8154815290600101906020018083116134ab57829003601f168201915b50505050509050919050565b610abc8686868686611b5e565b6134e96135f0565b816135365760405162461bcd60e51b815260206004820152600e60248201527f696e76616c696420757365724964000000000000000000000000000000000000604482015260640161072c565b600082815260036020526040812060020180546135529061510e565b905011156135a25760405162461bcd60e51b815260206004820152601360248201527f7573657220616c72656164792065786973747300000000000000000000000000604482015260640161072c565b8035610b705760405162461bcd60e51b815260206004820152601460248201527f757365722068617320656d70747920726f6c6573000000000000000000000000604482015260640161072c565b60055473ffffffffffffffffffffffffffffffffffffffff1633148061362d575060075473ffffffffffffffffffffffffffffffffffffffff1633145b61369f5760405162461bcd60e51b815260206004820152602860248201527f66756e2077616c6c65743a206e6f742066726f6d20456e747279506f696e742060448201527f6f72206f776e6572000000000000000000000000000000000000000000000000606482015260840161072c565b565b600081815260036020526040812060020180546136bd9061510e565b90501161114a5760405162461bcd60e51b815260206004820152601f60248201527f66756e2077616c6c65743a207573657220646f6573206e6f7420657869737400604482015260640161072c565b33600090815260016020526040812080546137269061510e565b90501161369f5760405162461bcd60e51b815260206004820152602360248201527f66756e2077616c6c65743a206e6f742066726f6d2061206b6e6f776e204d6f6460448201527f756c650000000000000000000000000000000000000000000000000000000000606482015260840161072c565b60606000808573ffffffffffffffffffffffffffffffffffffffff1685856040516137c691906150fc565b60006040518083038185875af1925050503d8060008114613803576040519150601f19603f3d011682016040523d82523d6000602084013e613808565b606091505b50915091508161385a5760405162461bcd60e51b815260206004820181905260248201527f66756e2077616c6c65743a2065787465726e616c2063616c6c206661696c6564604482015260640161072c565b95945050505050565b600060048260405161387591906150fc565b908152604051908190036020019020541161114a5760405162461bcd60e51b815260206004820152601f60248201527f66756e2077616c6c65743a20726f6c6520646f6573206e6f7420657869737400604482015260640161072c565b61114a6135f0565b7f4910fdfa16fed3260ed0e7147f7cc6da11a60208b5b9406d12a635614ffd91435460ff161561390d5761223383613e12565b8273ffffffffffffffffffffffffffffffffffffffff166352d1902d6040518163ffffffff1660e01b8152600401602060405180830381865afa925050508015613992575060408051601f3d9081017fffffffffffffffffffffffffffffffffffffffffffffffffffffffffffffffe016820190925261398f91810190615694565b60015b613a045760405162461bcd60e51b815260206004820152602e60248201527f45524331393637557067726164653a206e657720696d706c656d656e7461746960448201527f6f6e206973206e6f742055555053000000000000000000000000000000000000606482015260840161072c565b7f360894a13ba1a3210667c828492db98dca3e2076cc3735a920a3ca505d382bbc8114613a995760405162461bcd60e51b815260206004820152602960248201527f45524331393637557067726164653a20756e737570706f727465642070726f7860448201527f6961626c65555549440000000000000000000000000000000000000000000000606482015260840161072c565b50612233838383613d20565b600080613ab5600482858761570a565b613abe91615734565b7fffffffff00000000000000000000000000000000000000000000000000000000167f4ddf47d4000000000000000000000000000000000000000000000000000000001491505092915050565b60055473ffffffffffffffffffffffffffffffffffffffff16331461369f5760405162461bcd60e51b815260206004820152601f60248201527f66756e2077616c6c65743a206e6f742066726f6d20456e747279506f696e7400604482015260640161072c565b60208082013560009081526002909152604090205460ff1615613bd75760405162461bcd60e51b815260206004820152601960248201527f66756e2077616c6c65743a20696e76616c6964206e6f6e636500000000000000604482015260640161072c565b602090810135600090815260029091526040902080547fffffffffffffffffffffffffffffffffffffffffffffffffffffffffffffff00166001179055565b6000606080613c28846004818861570a565b810190613c359190615a54565b919790965090945092505050565b6000806060613c55846004818861570a565b810190613c629190614eec565b9093509150613c748460c8818861570a565b8080601f0160208091040260200160405190810160405280939291908181526020018383808284376000920191909152509598949750919550929350505050565b801561114a5760405160009033907fffffffffffffffffffffffffffffffffffffffffffffffffffffffffffffffff90849084818181858888f193505050503d8060008114611c34576040519150601f19603f3d011682016040523d82523d6000602084013e611c34565b613d2983613f02565b600082511180613d365750805b1561223357610be88383613f4f565b805173ffffffffffffffffffffffffffffffffffffffff16613d735761114a81602001518260400151613f7b565b60208101516040820151825161114a9273ffffffffffffffffffffffffffffffffffffffff90911691613f97565b60075473ffffffffffffffffffffffffffffffffffffffff16331480613dc657503330145b61369f5760405162461bcd60e51b815260206004820152601a60248201527f66756e2077616c6c65743a206e6f742066726f6d204f776e6572000000000000604482015260640161072c565b73ffffffffffffffffffffffffffffffffffffffff81163b613e9c5760405162461bcd60e51b815260206004820152602d60248201527f455243313936373a206e657720696d706c656d656e746174696f6e206973206e60448201527f6f74206120636f6e747261637400000000000000000000000000000000000000606482015260840161072c565b7f360894a13ba1a3210667c828492db98dca3e2076cc3735a920a3ca505d382bbc80547fffffffffffffffffffffffff00000000000000000000000000000000000000001673ffffffffffffffffffffffffffffffffffffffff92909216919091179055565b613f0b81613e12565b60405173ffffffffffffffffffffffffffffffffffffffff8216907fbc7cd75a20ee27fd9adebab32041f755214dbc6bffa90cc0225b39da2e5c2d3b90600090a250565b6060613f748383604051806060016040528060278152602001615b4460279139614024565b9392505050565b80471015613f8d57611dfa82826140a9565b611dfa82826141a0565b6040805173ffffffffffffffffffffffffffffffffffffffff8416602482015260448082018490528251808303909101815260649091019091526020810180517bffffffffffffffffffffffffffffffffffffffffffffffffffffffff167fa9059cbb00000000000000000000000000000000000000000000000000000000179052612233908490614275565b60606000808573ffffffffffffffffffffffffffffffffffffffff168560405161404e91906150fc565b600060405180830381855af49150503d8060008114614089576040519150601f19603f3d011682016040523d82523d6000602084013e61408e565b606091505b509150915061409f86838387614367565b9695505050505050565b6005546040517f205c287800000000000000000000000000000000000000000000000000000000815273ffffffffffffffffffffffffffffffffffffffff8481166004830152602482018490529091169063205c287890604401600060405180830381600087803b15801561411d57600080fd5b505af192505050801561412e575060015b611dfa5760405162461bcd60e51b815260206004820152602a60248201527f66756e2077616c6c65743a20656e747279706f696e74207472616e736665722060448201527f657468206661696c656400000000000000000000000000000000000000000000606482015260840161072c565b60008273ffffffffffffffffffffffffffffffffffffffff168260405160006040518083038185875af1925050503d80600081146141fa576040519150601f19603f3d011682016040523d82523d6000602084013e6141ff565b606091505b50509050806122335760405162461bcd60e51b8152602060048201526024808201527f66756e2077616c6c65743a2074686973207472616e736665722065746820666160448201527f696c656400000000000000000000000000000000000000000000000000000000606482015260840161072c565b60006142d7826040518060400160405280602081526020017f5361666545524332303a206c6f772d6c6576656c2063616c6c206661696c65648152508573ffffffffffffffffffffffffffffffffffffffff166143ea9092919063ffffffff16565b80519091501561223357808060200190518101906142f59190615b21565b6122335760405162461bcd60e51b815260206004820152602a60248201527f5361666545524332303a204552433230206f7065726174696f6e20646964206e60448201527f6f74207375636365656400000000000000000000000000000000000000000000606482015260840161072c565b606083156143e05782516143d95773ffffffffffffffffffffffffffffffffffffffff85163b6143d95760405162461bcd60e51b815260206004820152601d60248201527f416464726573733a2063616c6c20746f206e6f6e2d636f6e7472616374000000604482015260640161072c565b5081610d3e565b610d3e83836143f9565b6060610d3e8484600085614423565b8151156144095781518083602001fd5b8060405162461bcd60e51b815260040161072c91906148bd565b60608247101561449b5760405162461bcd60e51b815260206004820152602660248201527f416464726573733a20696e73756666696369656e742062616c616e636520666f60448201527f722063616c6c0000000000000000000000000000000000000000000000000000606482015260840161072c565b6000808673ffffffffffffffffffffffffffffffffffffffff1685876040516144c491906150fc565b60006040518083038185875af1925050503d8060008114614501576040519150601f19603f3d011682016040523d82523d6000602084013e614506565b606091505b509150915061451787838387614367565b979650505050505050565b82805461452e9061510e565b90600052602060002090601f0160209004810192826145505760008555614596565b82601f1061456957805160ff1916838001178555614596565b82800160010185558215614596579182015b8281111561459657825182559160200191906001019061457b565b506145a292915061465b565b5090565b5080546145b29061510e565b6000825580601f106145c2575050565b601f01602090049060005260206000209081019061114a919061465b565b8280546145ec9061510e565b90600052602060002090601f01602090048101928261460e5760008555614596565b82601f1061461f5780548555614596565b8280016001018555821561459657600052602060002091601f016020900482015b82811115614596578254825591600101919060010190614640565b5b808211156145a2576000815560010161465c565b73ffffffffffffffffffffffffffffffffffffffff8116811461114a57600080fd5b803561469d81614670565b919050565b60008083601f8401126146b457600080fd5b50813567ffffffffffffffff8111156146cc57600080fd5b6020830191508360208260051b85010111156146e757600080fd5b9250929050565b6000806000806060858703121561470457600080fd5b84359350602085013561471681614670565b9250604085013567ffffffffffffffff81111561473257600080fd5b61473e878288016146a2565b95989497509550505050565b6000806040838503121561475d57600080fd5b82359150602083013567ffffffffffffffff81111561477b57600080fd5b83016060818603121561478d57600080fd5b809150509250929050565b6000602082840312156147aa57600080fd5b8135613f7481614670565b60008083601f8401126147c757600080fd5b50813567ffffffffffffffff8111156147df57600080fd5b6020830191508360208285010111156146e757600080fd5b6000806000806060858703121561480d57600080fd5b843561481881614670565b935060208501359250604085013567ffffffffffffffff81111561483b57600080fd5b61473e878288016147b5565b60005b8381101561486257818101518382015260200161484a565b83811115610be85750506000910152565b6000815180845261488b816020860160208601614847565b601f017fffffffffffffffffffffffffffffffffffffffffffffffffffffffffffffffe0169290920160200192915050565b602081526000613f746020830184614873565b6000806000606084860312156148e557600080fd5b8335925060208401356148f781614670565b9150604084013567ffffffffffffffff81111561491357600080fd5b84016080818703121561492557600080fd5b809150509250925092565b6000806000806000806060878903121561494957600080fd5b863567ffffffffffffffff8082111561496157600080fd5b61496d8a838b016146a2565b9098509650602089013591508082111561498657600080fd5b6149928a838b016146a2565b909650945060408901359150808211156149ab57600080fd5b506149b889828a016146a2565b979a9699509497509295939492505050565b6000806000606084860312156149df57600080fd5b833567ffffffffffffffff8111156149f657600080fd5b84016101608187031215614a0957600080fd5b95602085013595506040909401359392505050565b600080600060408486031215614a3357600080fd5b8335614a3e81614670565b9250602084013567ffffffffffffffff811115614a5a57600080fd5b614a66868287016147b5565b9497909650939450505050565b600080600080600060608688031215614a8b57600080fd5b8535614a9681614670565b9450602086013567ffffffffffffffff80821115614ab357600080fd5b614abf89838a016146a2565b90965094506040880135915080821115614ad857600080fd5b50614ae5888289016146a2565b969995985093965092949392505050565b7f4e487b7100000000000000000000000000000000000000000000000000000000600052604160045260246000fd5b604051601f82017fffffffffffffffffffffffffffffffffffffffffffffffffffffffffffffffe016810167ffffffffffffffff81118282101715614b6c57614b6c614af6565b604052919050565b600082601f830112614b8557600080fd5b813567ffffffffffffffff811115614b9f57614b9f614af6565b614bd060207fffffffffffffffffffffffffffffffffffffffffffffffffffffffffffffffe0601f84011601614b25565b818152846020838601011115614be557600080fd5b816020850160208301376000918101602001919091529392505050565b60008060408385031215614c1557600080fd5b8235614c2081614670565b9150602083013567ffffffffffffffff811115614c3c57600080fd5b614c4885828601614b74565b9150509250929050565b60008060408385031215614c6557600080fd5b82359150602083013561478d81614670565b7f4e487b7100000000000000000000000000000000000000000000000000000000600052602160045260246000fd5b60078110614cb657614cb6614c77565b9052565b60006020808301818452808551808352604092508286019150828160051b87010184880160005b83811015614d5f577fffffffffffffffffffffffffffffffffffffffffffffffffffffffffffffffc0898403018552815160808151855288820151818a870152614d2d82870182614873565b91505087820151614d4089870182614ca6565b5060609182015194909101939093529386019390860190600101614ce1565b509098975050505050505050565b600060208284031215614d7f57600080fd5b5035919050565b60018110614cb657614cb6614c77565b602081528151602082015260006020830151614db56040840182614d86565b506040830151606080840152610d3e6080840182614873565b600060608284031215614de057600080fd5b6040516060810181811067ffffffffffffffff82111715614e0357614e03614af6565b6040529050808235614e1481614670565b81526020830135614e2481614670565b6020820152604092830135920191909152919050565b600080600080600060c08688031215614e5257600080fd5b8535614e5d81614670565b945060208601359350604086013567ffffffffffffffff811115614e8057600080fd5b614e8c888289016147b5565b9094509250614ea090508760608801614dce565b90509295509295909350565b600080600060608486031215614ec157600080fd5b8335614ecc81614670565b92506020840135614edc81614670565b9150604084013561492581614670565b60008060408385031215614eff57600080fd5b8235614f0a81614670565b946020939093013593505050565b60008060408385031215614f2b57600080fd5b8235614f3681614670565b9150602083013561478d81614670565b60008060008060008060c08789031215614f5f57600080fd5b8635614f6a81614670565b9550602087013567ffffffffffffffff80821115614f8757600080fd5b614f938a838b016146a2565b90975095506040890135915080821115614fac57600080fd5b50614fb989828a016146a2565b9094509250614fcd90508860608901614dce565b90509295509295509295565b7f4e487b7100000000000000000000000000000000000000000000000000000000600052603260045260246000fd5b600082357fffffffffffffffffffffffffffffffffffffffffffffffffffffffffffffff8183360301811261503c57600080fd5b9190910192915050565b60008083357fffffffffffffffffffffffffffffffffffffffffffffffffffffffffffffffe184360301811261507b57600080fd5b83018035915067ffffffffffffffff82111561509657600080fd5b6020019150368190038213156146e757600080fd5b7f4e487b7100000000000000000000000000000000000000000000000000000000600052601160045260246000fd5b600061ffff808316818114156150f2576150f26150ab565b6001019392505050565b6000825161503c818460208701614847565b600181811c9082168061512257607f821691505b6020821081141561515c577f4e487b7100000000000000000000000000000000000000000000000000000000600052602260045260246000fd5b50919050565b601f82111561223357600081815260208120601f850160051c810160208610156151895750805b601f850160051c820191505b81811015610abc57828155600101615195565b6007811061114a57600080fd5b600081356151c2816151a8565b92915050565b600782106151d8576151d8614c77565b7fffffffffffffffffffffffffffffffffffffffffffffffffffffffffffffff0081541660ff831681178255505050565b813581556001808201602061522081860186615046565b67ffffffffffffffff81111561523857615238614af6565b61524c81615246865461510e565b86615162565b6000601f82116001811461529e57600083156152685750838201355b7fffffffffffffffffffffffffffffffffffffffffffffffffffffffffffffffff600385901b1c1916600184901b17865561532f565b6000868152602090207fffffffffffffffffffffffffffffffffffffffffffffffffffffffffffffffe0841690835b828110156152ea57868501358255938701939089019087016152cd565b5084821015615325577fffffffffffffffffffffffffffffffffffffffffffffffffffffffffffffffff60f88660031b161c19848701351681555b50508683881b0186555b5050505050505061534e615345604084016151b5565b600283016151c8565b606082013560038201555050565b81358155600180820160208085013583811061537757600080fd5b7fffffffffffffffffffffffffffffffffffffffffffffffffffffffffffffff0083541660ff82168117845550506002840191506153b86040860186615046565b67ffffffffffffffff8111156153d0576153d0614af6565b6153de81615246865461510e565b6000601f82116001811461543057600083156153fa5750838201355b7fffffffffffffffffffffffffffffffffffffffffffffffffffffffffffffffff600385901b1c1916600184901b1786556154c1565b6000868152602090207fffffffffffffffffffffffffffffffffffffffffffffffffffffffffffffffe0841690835b8281101561547c578685013582559387019390890190870161545f565b50848210156154b7577fffffffffffffffffffffffffffffffffffffffffffffffffffffffffffffffff60f88660031b161c19848701351681555b50508683881b0186555b505050505050505050565b60008083357fffffffffffffffffffffffffffffffffffffffffffffffffffffffffffffffe184360301811261550157600080fd5b830160208101925035905067ffffffffffffffff81111561552157600080fd5b8036038313156146e757600080fd5b8183528181602085013750600060208284010152600060207fffffffffffffffffffffffffffffffffffffffffffffffffffffffffffffffe0601f840116840101905092915050565b60006101606155a58461558b85614692565b73ffffffffffffffffffffffffffffffffffffffff169052565b602083013560208501526155bc60408401846154cc565b8260408701526155cf8387018284615530565b925050506155e060608401846154cc565b85830360608701526155f3838284615530565b925050506080830135608085015260a083013560a085015260c083013560c085015260e083013560e085015261010080840135818601525061012061563a818501856154cc565b8684038388015261564c848284615530565b9350505050610140615660818501856154cc565b86840383880152614517848284615530565b6040815260006156856040830185615579565b90508260208301529392505050565b6000602082840312156156a657600080fd5b5051919050565b6156b78186614d86565b6080602082015260006156cd6080830186614873565b82810360408401526156df8186615579565b91505082606083015295945050505050565b828152604060208201526000610d3e6040830184614873565b6000808585111561571a57600080fd5b8386111561572757600080fd5b5050820193919092039150565b7fffffffff0000000000000000000000000000000000000000000000000000000081358181169160048510156157745780818660040360031b1b83161692505b505092915050565b6000604080835261578f81840186614873565b6020848203818601528186548084528284019150828160051b8501016000898152848120815b848110156158b9577fffffffffffffffffffffffffffffffffffffffffffffffffffffffffffffffe08885030186526080825485526001808401828a8801528581546158008161510e565b94890185905260a094818516801561581f57600181146158515761587c565b7fffffffffffffffffffffffffffffffffffffffffffffffffffffffffffffff008316878c015260c08b01935061587c565b848a528d8a208a5b838110156158745781548d82018a0152908701908f01615859565b8c0188019450505b505050600286015460ff1693506158958d890185614ca6565b600386015460609890980197909752505050948601946004909101906001016157b5565b50919b9a5050505050505050505050565b6000602082840312156158dc57600080fd5b8135613f74816151a8565b600781106158f7576158f7614c77565b60f81b9052565b8385823760008482016000815261591581866158e7565b600181019390935250506021019392505050565b6000845161593b818460208901614847565b820161594781866158e7565b6001810193909352505060210192915050565b60008282101561596c5761596c6150ab565b500390565b7f4e487b7100000000000000000000000000000000000000000000000000000000600052603160045260246000fd5b600067ffffffffffffffff8211156159ba576159ba614af6565b5060051b60200190565b600082601f8301126159d557600080fd5b813560206159ea6159e5836159a0565b614b25565b82815260059290921b84018101918181019086841115615a0957600080fd5b8286015b84811015615a4957803567ffffffffffffffff811115615a2d5760008081fd5b615a3b8986838b0101614b74565b845250918301918301615a0d565b509695505050505050565b600080600060608486031215615a6957600080fd5b8335615a7481614670565b925060208481013567ffffffffffffffff80821115615a9257600080fd5b818701915087601f830112615aa657600080fd5b8135615ab46159e5826159a0565b81815260059190911b8301840190848101908a831115615ad357600080fd5b938501935b82851015615af157843582529385019390850190615ad8565b965050506040870135925080831115615b0957600080fd5b5050615b17868287016159c4565b9150509250925092565b600060208284031215615b3357600080fd5b81518015158114613f7457600080fdfe416464726573733a206c6f772d6c6576656c2064656c65676174652063616c6c206661696c6564a2646970667358221220e07298d42ea68c668bde86ecdfbb40b0314fac927ad7c1e0c35cb13bfefcdad264736f6c634300080c0033","linkReferences":{},"deployedLinkReferences":{}}