{"_format":"hh-sol-artifact-1","contractName":"GaslessPaymaster","sourceName":"contracts/paymaster/GaslessPaymaster.sol","abi":[{"inputs":[{"internalType":"contract IEntryPoint","name":"_entryPoint","type":"address"}],"stateMutability":"nonpayable","type":"constructor"},{"anonymous":false,"inputs":[{"indexed":true,"internalType":"address","name":"previousOwner","type":"address"},{"indexed":true,"internalType":"address","name":"newOwner","type":"address"}],"name":"OwnershipTransferred","type":"event"},{"inputs":[],"name":"COST_OF_POST","outputs":[{"internalType":"uint256","name":"","type":"uint256"}],"stateMutability":"view","type":"function"},{"inputs":[],"name":"VERSION","outputs":[{"internalType":"uint256","name":"","type":"uint256"}],"stateMutability":"view","type":"function"},{"inputs":[{"internalType":"address","name":"sponsor","type":"address"},{"internalType":"uint256","name":"amount","type":"uint256"}],"name":"addDepositTo","outputs":[],"stateMutability":"payable","type":"function"},{"inputs":[{"internalType":"uint32","name":"unstakeDelaySec","type":"uint32"}],"name":"addStake","outputs":[],"stateMutability":"payable","type":"function"},{"inputs":[],"name":"deposit","outputs":[],"stateMutability":"payable","type":"function"},{"inputs":[],"name":"entryPoint","outputs":[{"internalType":"contract IEntryPoint","name":"","type":"address"}],"stateMutability":"view","type":"function"},{"inputs":[{"internalType":"address","name":"sponsor","type":"address"}],"name":"getBalance","outputs":[{"internalType":"uint256","name":"","type":"uint256"}],"stateMutability":"view","type":"function"},{"inputs":[],"name":"getDeposit","outputs":[{"internalType":"uint256","name":"","type":"uint256"}],"stateMutability":"view","type":"function"},{"inputs":[{"internalType":"address","name":"spender","type":"address"}],"name":"getListMode","outputs":[{"internalType":"bool","name":"","type":"bool"}],"stateMutability":"view","type":"function"},{"inputs":[{"internalType":"address","name":"sponsor","type":"address"},{"internalType":"address","name":"spender","type":"address"}],"name":"getSpenderBlacklistMode","outputs":[{"internalType":"bool","name":"","type":"bool"}],"stateMutability":"view","type":"function"},{"inputs":[{"internalType":"address","name":"sponsor","type":"address"},{"internalType":"address","name":"spender","type":"address"}],"name":"getSpenderWhitelistMode","outputs":[{"internalType":"bool","name":"","type":"bool"}],"stateMutability":"view","type":"function"},{"inputs":[{"internalType":"address","name":"spender","type":"address"}],"name":"getUnlockBlock","outputs":[{"internalType":"uint256","name":"","type":"uint256"}],"stateMutability":"view","type":"function"},{"inputs":[],"name":"lockDeposit","outputs":[],"stateMutability":"payable","type":"function"},{"inputs":[],"name":"owner","outputs":[{"internalType":"address","name":"","type":"address"}],"stateMutability":"view","type":"function"},{"inputs":[{"internalType":"enum IPaymaster.PostOpMode","name":"mode","type":"uint8"},{"internalType":"bytes","name":"context","type":"bytes"},{"internalType":"uint256","name":"actualGasCost","type":"uint256"}],"name":"postOp","outputs":[],"stateMutability":"nonpayable","type":"function"},{"inputs":[],"name":"renounceOwnership","outputs":[],"stateMutability":"nonpayable","type":"function"},{"inputs":[{"internalType":"bool","name":"mode","type":"bool"}],"name":"setListMode","outputs":[],"stateMutability":"payable","type":"function"},{"inputs":[{"internalType":"address","name":"spender","type":"address"},{"internalType":"bool","name":"mode","type":"bool"}],"name":"setSpenderBlacklistMode","outputs":[],"stateMutability":"payable","type":"function"},{"inputs":[{"internalType":"address","name":"spender","type":"address"},{"internalType":"bool","name":"mode","type":"bool"}],"name":"setSpenderWhitelistMode","outputs":[],"stateMutability":"payable","type":"function"},{"inputs":[{"internalType":"address","name":"newOwner","type":"address"}],"name":"transferOwnership","outputs":[],"stateMutability":"nonpayable","type":"function"},{"inputs":[{"internalType":"uint256","name":"num","type":"uint256"}],"name":"unlockDepositAfter","outputs":[],"stateMutability":"payable","type":"function"},{"inputs":[],"name":"unlockStake","outputs":[],"stateMutability":"nonpayable","type":"function"},{"inputs":[{"components":[{"internalType":"address","name":"sender","type":"address"},{"internalType":"uint256","name":"nonce","type":"uint256"},{"internalType":"bytes","name":"initCode","type":"bytes"},{"internalType":"bytes","name":"callData","type":"bytes"},{"internalType":"uint256","name":"callGasLimit","type":"uint256"},{"internalType":"uint256","name":"verificationGasLimit","type":"uint256"},{"internalType":"uint256","name":"preVerificationGas","type":"uint256"},{"internalType":"uint256","name":"maxFeePerGas","type":"uint256"},{"internalType":"uint256","name":"maxPriorityFeePerGas","type":"uint256"},{"internalType":"bytes","name":"paymasterAndData","type":"bytes"},{"internalType":"bytes","name":"signature","type":"bytes"}],"internalType":"struct UserOperation","name":"userOp","type":"tuple"},{"internalType":"bytes32","name":"userOpHash","type":"bytes32"},{"internalType":"uint256","name":"maxCost","type":"uint256"}],"name":"validatePaymasterUserOp","outputs":[{"internalType":"bytes","name":"context","type":"bytes"},{"internalType":"uint256","name":"sigTimeRange","type":"uint256"}],"stateMutability":"nonpayable","type":"function"},{"inputs":[{"internalType":"address","name":"target","type":"address"},{"internalType":"uint256","name":"amount","type":"uint256"}],"name":"withdrawDepositTo","outputs":[],"stateMutability":"payable","type":"function"},{"inputs":[{"internalType":"address payable","name":"withdrawAddress","type":"address"}],"name":"withdrawStake","outputs":[],"stateMutability":"nonpayable","type":"function"},{"inputs":[{"internalType":"address payable","name":"withdrawAddress","type":"address"},{"internalType":"uint256","name":"amount","type":"uint256"}],"name":"withdrawTo","outputs":[],"stateMutability":"nonpayable","type":"function"}],"bytecode":"0x60a06040523480156200001157600080fd5b5060405162001ef138038062001ef18339810160408190526200003491620000a3565b80620000403362000053565b6001600160a01b031660805250620000d5565b600080546001600160a01b038381166001600160a01b0319831681178455604051919092169283917f8be0079c531659141344cd1fd0a4f28419497f9722a3daafe3b4186f6b6457e09190a35050565b600060208284031215620000b657600080fd5b81516001600160a01b0381168114620000ce57600080fd5b9392505050565b608051611dc16200013060003960008181610363015281816105270152818161062b01528181610788015281816109a401528181610a3401528181610af7015281816110820152818161123101526113bd0152611dc16000f3fe6080604052600436106101a15760003560e01c8063bb9fe6bf116100e1578063d1b844e61161008a578063f2fde38b11610064578063f2fde38b14610445578063f465c77e14610465578063f8b2cb4f14610493578063ffa1ad74146104d657600080fd5b8063d1b844e61461040a578063db09992b1461041f578063ea9228371461043257600080fd5b8063c399ec88116100bb578063c399ec88146103cd578063ce0edff3146103e2578063d0e30db01461040257600080fd5b8063bb9fe6bf14610385578063bbc0a1c11461039a578063c23a5cea146103ad57600080fd5b806360a71f461161014e578063796d437111610128578063796d4371146102cf5780638da5cb5b146102e5578063a9a2340914610331578063b0d691fe1461035157600080fd5b806360a71f4614610287578063715018a6146102a757806375fb91d9146102bc57600080fd5b8063205c28781161017f578063205c28781461022457806325cbd1cb146102445780634d44560d1461027457600080fd5b80630396cb60146101a65780630bb4df0c146101bb5780630bef4e2114610211575b600080fd5b6101b96101b4366004611953565b6104eb565b005b3480156101c757600080fd5b506101fe6101d636600461199b565b73ffffffffffffffffffffffffffffffffffffffff1660009081526002602052604090205490565b6040519081526020015b60405180910390f35b6101b961021f3660046119b8565b61059d565b34801561023057600080fd5b506101b961023f3660046119d1565b6105d7565b34801561025057600080fd5b5061026461025f3660046119fd565b61066f565b6040519015158152602001610208565b6101b96102823660046119d1565b61069c565b34801561029357600080fd5b506102646102a236600461199b565b6106ab565b3480156102b357600080fd5b506101b9610746565b6101b96102ca366004611a4b565b61075a565b3480156102db57600080fd5b506101fe6188b881565b3480156102f157600080fd5b5060005473ffffffffffffffffffffffffffffffffffffffff165b60405173ffffffffffffffffffffffffffffffffffffffff9091168152602001610208565b34801561033d57600080fd5b506101b961034c366004611a66565b610764565b34801561035d57600080fd5b5061030c7f000000000000000000000000000000000000000000000000000000000000000081565b34801561039157600080fd5b506101b961077e565b6101b96103a8366004611af5565b610802565b3480156103b957600080fd5b506101b96103c836600461199b565b610957565b3480156103d957600080fd5b506101fe610a03565b3480156103ee57600080fd5b506102646103fd3660046119fd565b610ab9565b6101b9610ac9565b6101b933600090815260026020526040812055565b6101b961042d366004611af5565b610b51565b6101b96104403660046119d1565b610ca2565b34801561045157600080fd5b506101b961046036600461199b565b610cb9565b34801561047157600080fd5b50610485610480366004611b2a565b610d6d565b604051610208929190611b7e565b34801561049f57600080fd5b506101fe6104ae36600461199b565b73ffffffffffffffffffffffffffffffffffffffff1660009081526003602052604090205490565b3480156104e257600080fd5b506101fe600681565b6104f3610d90565b6040517f0396cb6000000000000000000000000000000000000000000000000000000000815263ffffffff821660048201527f000000000000000000000000000000000000000000000000000000000000000073ffffffffffffffffffffffffffffffffffffffff1690630396cb609034906024016000604051808303818588803b15801561058157600080fd5b505af1158015610595573d6000803e3d6000fd5b505050505050565b6105d4336105ab8343611c28565b73ffffffffffffffffffffffffffffffffffffffff909116600090815260026020526040902055565b50565b6105df610d90565b6040517f205c287800000000000000000000000000000000000000000000000000000000815273ffffffffffffffffffffffffffffffffffffffff8381166004830152602482018390527f0000000000000000000000000000000000000000000000000000000000000000169063205c287890604401600060405180830381600087803b15801561058157600080fd5b60006001600061067f8585610e11565b815260208101919091526040016000205460ff1690505b92915050565b6106a7338383610e93565b5050565b60006001600061072c846040805173ffffffffffffffffffffffffffffffffffffffff8316602082015280820191909152600860608201527f6c6973744d6f6465000000000000000000000000000000000000000000000000608082015260009060a001604051602081830303815290604052805190602001209050919050565b815260208101919091526040016000205460ff1692915050565b61074e610d90565b61075860006110e3565b565b6105d43382611158565b61076c611219565b6107788484848461125b565b50505050565b610786610d90565b7f000000000000000000000000000000000000000000000000000000000000000073ffffffffffffffffffffffffffffffffffffffff1663bb9fe6bf6040518163ffffffff1660e01b8152600401600060405180830381600087803b1580156107ee57600080fd5b505af1158015610778573d6000803e3d6000fd5b60016000610881336040805173ffffffffffffffffffffffffffffffffffffffff8316602082015280820191909152600860608201527f6c6973744d6f6465000000000000000000000000000000000000000000000000608082015260009060a001604051602081830303815290604052805190602001209050919050565b815260208101919091526040016000205460ff1661094c576040517f08c379a000000000000000000000000000000000000000000000000000000000815260206004820152604660248201527f546f6b656e5061796d61737465723a206d6f64652069732073657420746f207760448201527f686974656c6973742063616e206e6f7420616464207573657220746f20626c6160648201527f636b6c6973740000000000000000000000000000000000000000000000000000608482015260a4015b60405180910390fd5b6106a73383836112c7565b61095f610d90565b6040517fc23a5cea00000000000000000000000000000000000000000000000000000000815273ffffffffffffffffffffffffffffffffffffffff82811660048301527f0000000000000000000000000000000000000000000000000000000000000000169063c23a5cea90602401600060405180830381600087803b1580156109e857600080fd5b505af11580156109fc573d6000803e3d6000fd5b5050505050565b6040517f70a082310000000000000000000000000000000000000000000000000000000081523060048201526000907f000000000000000000000000000000000000000000000000000000000000000073ffffffffffffffffffffffffffffffffffffffff16906370a0823190602401602060405180830381865afa158015610a90573d6000803e3d6000fd5b505050506040513d601f19601f82011682018060405250810190610ab49190611c40565b905090565b60006001600061067f8585611318565b6040517fb760faf90000000000000000000000000000000000000000000000000000000081523060048201527f000000000000000000000000000000000000000000000000000000000000000073ffffffffffffffffffffffffffffffffffffffff169063b760faf99034906024016000604051808303818588803b1580156109e857600080fd5b60016000610bd0846040805173ffffffffffffffffffffffffffffffffffffffff8316602082015280820191909152600860608201527f6c6973744d6f6465000000000000000000000000000000000000000000000000608082015260009060a001604051602081830303815290604052805190602001209050919050565b815260208101919091526040016000205460ff1615610c97576040517f08c379a000000000000000000000000000000000000000000000000000000000815260206004820152604660248201527f546f6b656e5061796d61737465723a206d6f64652069732073657420746f206260448201527f6c61636b6c6973742063616e206e6f7420616464207573657220746f2077686960648201527f74656c6973740000000000000000000000000000000000000000000000000000608482015260a401610943565b6106a7338383611380565b80341015610caf57600080fd5b6106a7828261138f565b610cc1610d90565b73ffffffffffffffffffffffffffffffffffffffff8116610d64576040517f08c379a000000000000000000000000000000000000000000000000000000000815260206004820152602660248201527f4f776e61626c653a206e6577206f776e657220697320746865207a65726f206160448201527f64647265737300000000000000000000000000000000000000000000000000006064820152608401610943565b6105d4816110e3565b60606000610d79611219565b610d8485858561146f565b91509150935093915050565b60005473ffffffffffffffffffffffffffffffffffffffff163314610758576040517f08c379a000000000000000000000000000000000000000000000000000000000815260206004820181905260248201527f4f776e61626c653a2063616c6c6572206973206e6f7420746865206f776e65726044820152606401610943565b6040805173ffffffffffffffffffffffffffffffffffffffff8085166020830152831691810191909152606080820152600960808201527f626c61636b6c697374000000000000000000000000000000000000000000000060a082015260009060c0015b60405160208183030381529060405280519060200120905092915050565b73ffffffffffffffffffffffffffffffffffffffff83166000908152600260205260409020544311610f47576040517f08c379a000000000000000000000000000000000000000000000000000000000815260206004820152602760248201527f546f6b656e5061796d61737465723a206d75737420756e6c6f636b546f6b656e60448201527f4465706f736974000000000000000000000000000000000000000000000000006064820152608401610943565b73ffffffffffffffffffffffffffffffffffffffff8316600090815260036020526040902054811115610ffc576040517f08c379a000000000000000000000000000000000000000000000000000000000815260206004820152602c60248201527f546f6b656e5061796d61737465723a20646f6573206e6f74206861766520656e60448201527f6f7567682062616c616e636500000000000000000000000000000000000000006064820152608401610943565b73ffffffffffffffffffffffffffffffffffffffff831660009081526003602052604081208054839290611031908490611c59565b90915550506040517f205c287800000000000000000000000000000000000000000000000000000000815273ffffffffffffffffffffffffffffffffffffffff8381166004830152602482018390527f0000000000000000000000000000000000000000000000000000000000000000169063205c287890604401600060405180830381600087803b1580156110c657600080fd5b505af11580156110da573d6000803e3d6000fd5b50505050505050565b6000805473ffffffffffffffffffffffffffffffffffffffff8381167fffffffffffffffffffffffff0000000000000000000000000000000000000000831681178455604051919092169283917f8be0079c531659141344cd1fd0a4f28419497f9722a3daafe3b4186f6b6457e09190a35050565b80600160006111d8856040805173ffffffffffffffffffffffffffffffffffffffff8316602082015280820191909152600860608201527f6c6973744d6f6465000000000000000000000000000000000000000000000000608082015260009060a001604051602081830303815290604052805190602001209050919050565b8152602081019190915260400160002080547fffffffffffffffffffffffffffffffffffffffffffffffffffffffffffffff00169115159190911790555050565b3373ffffffffffffffffffffffffffffffffffffffff7f0000000000000000000000000000000000000000000000000000000000000000161461075857600080fd5b60008061126a848601866119d1565b909250905061127b816188b8611c70565b6112859084611c28565b73ffffffffffffffffffffffffffffffffffffffff8316600090815260036020526040812080549091906112ba908490611c59565b9091555050505050505050565b80600160006112d68686610e11565b8152602081019190915260400160002080547fffffffffffffffffffffffffffffffffffffffffffffffffffffffffffffff0016911515919091179055505050565b6040805173ffffffffffffffffffffffffffffffffffffffff8085166020830152831691810191909152606080820152600960808201527f77686974656c697374000000000000000000000000000000000000000000000060a082015260009060c001610e75565b80600160006112d68686611318565b6040517fb760faf90000000000000000000000000000000000000000000000000000000081523060048201527f000000000000000000000000000000000000000000000000000000000000000073ffffffffffffffffffffffffffffffffffffffff169063b760faf99083906024016000604051808303818588803b15801561141757600080fd5b505af115801561142b573d6000803e3d6000fd5b50505073ffffffffffffffffffffffffffffffffffffffff841660009081526003602052604081208054859450909250611466908490611c28565b90915550505050565b60606000611481610120860186611cad565b9050602814611512576040517f08c379a000000000000000000000000000000000000000000000000000000000815260206004820152603560248201527f546f6b656e5061796d61737465723a207061796d6173746572416e644461746160448201527f206d75737420737065636966792073706f6e736f7200000000000000000000006064820152608401610943565b6188b88560a00135116115a7576040517f08c379a000000000000000000000000000000000000000000000000000000000815260206004820152602660248201527f546f6b656e5061796d61737465723a2067617320746f6f206c6f7720666f722060448201527f706f73744f7000000000000000000000000000000000000000000000000000006064820152608401610943565b60006115b7610120870187611cad565b6115c5916014908290611d19565b6115ce91611d43565b60601c6000818152600260205260409020549091508015806115ef57504381115b611655576040517f08c379a000000000000000000000000000000000000000000000000000000000815260206004820152601c60248201527f546f6b656e5061796d61737465723a205374616b65204c6f636b6564000000006044820152606401610943565b86356116618184611817565b6116ed576040517f08c379a000000000000000000000000000000000000000000000000000000000815260206004820152603360248201527f546f6b656e5061796d61737465723a20686173206e6f74206f7220646f65732060448201527f6e6f7420617070726f7665207370656e646572000000000000000000000000006064820152608401610943565b73ffffffffffffffffffffffffffffffffffffffff83166000908152600360205260409020548611156117a2576040517f08c379a000000000000000000000000000000000000000000000000000000000815260206004820152602c60248201527f546f6b656e5061796d61737465723a20646f6573206e6f74206861766520656e60448201527f6f75676820746f2066756e6400000000000000000000000000000000000000006064820152608401610943565b60006117ad8961190b565b6040805173ffffffffffffffffffffffffffffffffffffffff87166020820152908101829052909150606001604080517fffffffffffffffffffffffffffffffffffffffffffffffffffffffffffffffe08184030181529190529960009950975050505050505050565b60008060016000611899856040805173ffffffffffffffffffffffffffffffffffffffff8316602082015280820191909152600860608201527f6c6973744d6f6465000000000000000000000000000000000000000000000000608082015260009060a001604051602081830303815290604052805190602001209050919050565b815260208101919091526040016000205460ff16905080156118e157600160006118c38686610e11565b815260208101919091526040016000205460ff161591506106969050565b600160006118ef8587611318565b815260208101919091526040016000205460ff16949350505050565b600060e082013561010083013580821415611927575092915050565b6119338248830161193b565b949350505050565b600081831061194a578161194c565b825b9392505050565b60006020828403121561196557600080fd5b813563ffffffff8116811461194c57600080fd5b73ffffffffffffffffffffffffffffffffffffffff811681146105d457600080fd5b6000602082840312156119ad57600080fd5b813561194c81611979565b6000602082840312156119ca57600080fd5b5035919050565b600080604083850312156119e457600080fd5b82356119ef81611979565b946020939093013593505050565b60008060408385031215611a1057600080fd5b8235611a1b81611979565b91506020830135611a2b81611979565b809150509250929050565b80358015158114611a4657600080fd5b919050565b600060208284031215611a5d57600080fd5b61194c82611a36565b60008060008060608587031215611a7c57600080fd5b843560038110611a8b57600080fd5b9350602085013567ffffffffffffffff80821115611aa857600080fd5b818701915087601f830112611abc57600080fd5b813581811115611acb57600080fd5b886020828501011115611add57600080fd5b95986020929092019750949560400135945092505050565b60008060408385031215611b0857600080fd5b8235611b1381611979565b9150611b2160208401611a36565b90509250929050565b600080600060608486031215611b3f57600080fd5b833567ffffffffffffffff811115611b5657600080fd5b84016101608187031215611b6957600080fd5b95602085013595506040909401359392505050565b604081526000835180604084015260005b81811015611bac5760208187018101516060868401015201611b8f565b81811115611bbe576000606083860101525b50602083019390935250601f919091017fffffffffffffffffffffffffffffffffffffffffffffffffffffffffffffffe01601606001919050565b7f4e487b7100000000000000000000000000000000000000000000000000000000600052601160045260246000fd5b60008219821115611c3b57611c3b611bf9565b500190565b600060208284031215611c5257600080fd5b5051919050565b600082821015611c6b57611c6b611bf9565b500390565b6000817fffffffffffffffffffffffffffffffffffffffffffffffffffffffffffffffff0483118215151615611ca857611ca8611bf9565b500290565b60008083357fffffffffffffffffffffffffffffffffffffffffffffffffffffffffffffffe1843603018112611ce257600080fd5b83018035915067ffffffffffffffff821115611cfd57600080fd5b602001915036819003821315611d1257600080fd5b9250929050565b60008085851115611d2957600080fd5b83861115611d3657600080fd5b5050820193919092039150565b7fffffffffffffffffffffffffffffffffffffffff0000000000000000000000008135818116916014851015611d835780818660140360031b1b83161692505b50509291505056fea264697066735822122030015f53cd9d79eadc9344792ab6f985a7ef24a9c643736b1918073a1358b72264736f6c634300080c0033","linkReferences":{},"deployedLinkReferences":{}}