{
  "_format": "hh-sol-artifact-1",
  "contractName": "GaslessPaymaster",
  "sourceName": "contracts/paymaster/GaslessPaymaster.sol",
  "abi": [
    {
      "inputs": [
        {
          "internalType": "contract IEntryPoint",
          "name": "_entryPoint",
          "type": "address"
        }
      ],
      "stateMutability": "nonpayable",
      "type": "constructor"
    },
    {
      "anonymous": false,
      "inputs": [
        {
          "indexed": true,
          "internalType": "address",
          "name": "sponsor",
          "type": "address"
        },
        {
          "indexed": false,
          "internalType": "uint256",
          "name": "amount",
          "type": "uint256"
        }
      ],
      "name": "AddDepositTo",
      "type": "event"
    },
    {
      "anonymous": false,
      "inputs": [
        {
          "indexed": false,
          "internalType": "bytes[]",
          "name": "data",
          "type": "bytes[]"
        }
      ],
      "name": "BatchActions",
      "type": "event"
    },
    {
      "anonymous": false,
      "inputs": [
        {
          "indexed": true,
          "internalType": "address",
          "name": "locker",
          "type": "address"
        }
      ],
      "name": "LockDeposit",
      "type": "event"
    },
    {
      "anonymous": false,
      "inputs": [
        {
          "indexed": true,
          "internalType": "address",
          "name": "previousOwner",
          "type": "address"
        },
        {
          "indexed": true,
          "internalType": "address",
          "name": "newOwner",
          "type": "address"
        }
      ],
      "name": "OwnershipTransferred",
      "type": "event"
    },
    {
      "anonymous": false,
      "inputs": [
        {
          "indexed": false,
          "internalType": "contract IEntryPoint",
          "name": "entryPoint",
          "type": "address"
        }
      ],
      "name": "PaymasterCreated",
      "type": "event"
    },
    {
      "anonymous": false,
      "inputs": [
        {
          "indexed": true,
          "internalType": "bytes32",
          "name": "opHash",
          "type": "bytes32"
        },
        {
          "indexed": true,
          "internalType": "address",
          "name": "spender",
          "type": "address"
        },
        {
          "indexed": true,
          "internalType": "address",
          "name": "sponsor",
          "type": "address"
        },
        {
          "indexed": false,
          "internalType": "uint256",
          "name": "sponsorCost",
          "type": "uint256"
        }
      ],
      "name": "PostOpGasPaid",
      "type": "event"
    },
    {
      "anonymous": false,
      "inputs": [
        {
          "indexed": true,
          "internalType": "address",
          "name": "sponsor",
          "type": "address"
        },
        {
          "indexed": false,
          "internalType": "bool",
          "name": "mode",
          "type": "bool"
        }
      ],
      "name": "SetListMode",
      "type": "event"
    },
    {
      "anonymous": false,
      "inputs": [
        {
          "indexed": true,
          "internalType": "address",
          "name": "sponsor",
          "type": "address"
        },
        {
          "indexed": true,
          "internalType": "address",
          "name": "spender",
          "type": "address"
        },
        {
          "indexed": false,
          "internalType": "bool",
          "name": "mode",
          "type": "bool"
        }
      ],
      "name": "SetSpenderBlacklistMode",
      "type": "event"
    },
    {
      "anonymous": false,
      "inputs": [
        {
          "indexed": true,
          "internalType": "address",
          "name": "sponsor",
          "type": "address"
        },
        {
          "indexed": true,
          "internalType": "address",
          "name": "spender",
          "type": "address"
        },
        {
          "indexed": false,
          "internalType": "bool",
          "name": "mode",
          "type": "bool"
        }
      ],
      "name": "SetSpenderWhitelistMode",
      "type": "event"
    },
    {
      "anonymous": false,
      "inputs": [
        {
          "indexed": true,
          "internalType": "address",
          "name": "locker",
          "type": "address"
        },
        {
          "indexed": false,
          "internalType": "uint256",
          "name": "unlockBlockNum",
          "type": "uint256"
        }
      ],
      "name": "UnlockDepositAfter",
      "type": "event"
    },
    {
      "anonymous": false,
      "inputs": [
        {
          "indexed": true,
          "internalType": "address",
          "name": "sponsor",
          "type": "address"
        },
        {
          "indexed": true,
          "internalType": "address",
          "name": "target",
          "type": "address"
        },
        {
          "indexed": false,
          "internalType": "uint256",
          "name": "amount",
          "type": "uint256"
        }
      ],
      "name": "WithdrawDepositTo",
      "type": "event"
    },
    {
      "inputs": [],
      "name": "COST_OF_POST",
      "outputs": [
        {
          "internalType": "uint256",
          "name": "",
          "type": "uint256"
        }
      ],
      "stateMutability": "view",
      "type": "function"
    },
    {
      "inputs": [],
      "name": "VERSION",
      "outputs": [
        {
          "internalType": "uint256",
          "name": "",
          "type": "uint256"
        }
      ],
      "stateMutability": "view",
      "type": "function"
    },
    {
      "inputs": [
        {
          "internalType": "address",
          "name": "sponsor",
          "type": "address"
        },
        {
          "internalType": "uint256",
          "name": "amount",
          "type": "uint256"
        }
      ],
      "name": "addDepositTo",
      "outputs": [],
      "stateMutability": "payable",
      "type": "function"
    },
    {
      "inputs": [
        {
          "internalType": "bytes[]",
          "name": "data",
          "type": "bytes[]"
        }
      ],
      "name": "batchActions",
      "outputs": [],
      "stateMutability": "payable",
      "type": "function"
    },
    {
      "inputs": [],
      "name": "entryPoint",
      "outputs": [
        {
          "internalType": "contract IEntryPoint",
          "name": "",
          "type": "address"
        }
      ],
      "stateMutability": "view",
      "type": "function"
    },
    {
      "inputs": [
        {
          "internalType": "address",
          "name": "sponsor",
          "type": "address"
        }
      ],
      "name": "getBalance",
      "outputs": [
        {
          "internalType": "uint256",
          "name": "",
          "type": "uint256"
        }
      ],
      "stateMutability": "view",
      "type": "function"
    },
    {
      "inputs": [
        {
          "internalType": "address",
          "name": "spender",
          "type": "address"
        }
      ],
      "name": "getListMode",
      "outputs": [
        {
          "internalType": "bool",
          "name": "",
          "type": "bool"
        }
      ],
      "stateMutability": "view",
      "type": "function"
    },
    {
      "inputs": [
        {
          "internalType": "address",
          "name": "spender",
          "type": "address"
        },
        {
          "internalType": "address",
          "name": "sponsor",
          "type": "address"
        }
      ],
      "name": "getSpenderBlacklistMode",
      "outputs": [
        {
          "internalType": "bool",
          "name": "",
          "type": "bool"
        }
      ],
      "stateMutability": "view",
      "type": "function"
    },
    {
      "inputs": [
        {
          "internalType": "address",
          "name": "spender",
          "type": "address"
        },
        {
          "internalType": "address",
          "name": "sponsor",
          "type": "address"
        }
      ],
      "name": "getSpenderWhitelistMode",
      "outputs": [
        {
          "internalType": "bool",
          "name": "",
          "type": "bool"
        }
      ],
      "stateMutability": "view",
      "type": "function"
    },
    {
      "inputs": [
        {
          "internalType": "address",
          "name": "spender",
          "type": "address"
        }
      ],
      "name": "getUnlockBlock",
      "outputs": [
        {
          "internalType": "uint256",
          "name": "",
          "type": "uint256"
        }
      ],
      "stateMutability": "view",
      "type": "function"
    },
    {
      "inputs": [],
      "name": "lockDeposit",
      "outputs": [],
      "stateMutability": "payable",
      "type": "function"
    },
    {
      "inputs": [],
      "name": "owner",
      "outputs": [
        {
          "internalType": "address",
          "name": "",
          "type": "address"
        }
      ],
      "stateMutability": "view",
      "type": "function"
    },
    {
      "inputs": [
        {
          "internalType": "enum IPaymaster.PostOpMode",
          "name": "mode",
          "type": "uint8"
        },
        {
          "internalType": "bytes",
          "name": "context",
          "type": "bytes"
        },
        {
          "internalType": "uint256",
          "name": "actualGasCost",
          "type": "uint256"
        }
      ],
      "name": "postOp",
      "outputs": [],
      "stateMutability": "nonpayable",
      "type": "function"
    },
    {
      "inputs": [],
      "name": "renounceOwnership",
      "outputs": [],
      "stateMutability": "nonpayable",
      "type": "function"
    },
    {
      "inputs": [
        {
          "internalType": "bool",
          "name": "mode",
          "type": "bool"
        }
      ],
      "name": "setListMode",
      "outputs": [],
      "stateMutability": "payable",
      "type": "function"
    },
    {
      "inputs": [
        {
          "internalType": "address",
          "name": "spender",
          "type": "address"
        },
        {
          "internalType": "bool",
          "name": "mode",
          "type": "bool"
        }
      ],
      "name": "setSpenderBlacklistMode",
      "outputs": [],
      "stateMutability": "payable",
      "type": "function"
    },
    {
      "inputs": [
        {
          "internalType": "address",
          "name": "spender",
          "type": "address"
        },
        {
          "internalType": "bool",
          "name": "mode",
          "type": "bool"
        }
      ],
      "name": "setSpenderWhitelistMode",
      "outputs": [],
      "stateMutability": "payable",
      "type": "function"
    },
    {
      "inputs": [
        {
          "internalType": "address",
          "name": "newOwner",
          "type": "address"
        }
      ],
      "name": "transferOwnership",
      "outputs": [],
      "stateMutability": "nonpayable",
      "type": "function"
    },
    {
      "inputs": [
        {
          "internalType": "uint256",
          "name": "num",
          "type": "uint256"
        }
      ],
      "name": "unlockDepositAfter",
      "outputs": [],
      "stateMutability": "payable",
      "type": "function"
    },
    {
      "inputs": [
        {
          "components": [
            {
              "internalType": "address",
              "name": "sender",
              "type": "address"
            },
            {
              "internalType": "uint256",
              "name": "nonce",
              "type": "uint256"
            },
            {
              "internalType": "bytes",
              "name": "initCode",
              "type": "bytes"
            },
            {
              "internalType": "bytes",
              "name": "callData",
              "type": "bytes"
            },
            {
              "internalType": "uint256",
              "name": "callGasLimit",
              "type": "uint256"
            },
            {
              "internalType": "uint256",
              "name": "verificationGasLimit",
              "type": "uint256"
            },
            {
              "internalType": "uint256",
              "name": "preVerificationGas",
              "type": "uint256"
            },
            {
              "internalType": "uint256",
              "name": "maxFeePerGas",
              "type": "uint256"
            },
            {
              "internalType": "uint256",
              "name": "maxPriorityFeePerGas",
              "type": "uint256"
            },
            {
              "internalType": "bytes",
              "name": "paymasterAndData",
              "type": "bytes"
            },
            {
              "internalType": "bytes",
              "name": "signature",
              "type": "bytes"
            }
          ],
          "internalType": "struct UserOperation",
          "name": "userOp",
          "type": "tuple"
        },
        {
          "internalType": "bytes32",
          "name": "userOpHash",
          "type": "bytes32"
        },
        {
          "internalType": "uint256",
          "name": "maxCost",
          "type": "uint256"
        }
      ],
      "name": "validatePaymasterUserOp",
      "outputs": [
        {
          "internalType": "bytes",
          "name": "context",
          "type": "bytes"
        },
        {
          "internalType": "uint256",
          "name": "sigTimeRange",
          "type": "uint256"
        }
      ],
      "stateMutability": "nonpayable",
      "type": "function"
    },
    {
      "inputs": [
        {
          "internalType": "address",
          "name": "target",
          "type": "address"
        },
        {
          "internalType": "uint256",
          "name": "amount",
          "type": "uint256"
        }
      ],
      "name": "withdrawDepositTo",
      "outputs": [],
      "stateMutability": "payable",
      "type": "function"
    }
  ],
  "bytecode": "0x60a060405234801561001057600080fd5b5060405162001dd138038062001dd1833981016040819052610031916100d4565b8061003b33610084565b6001600160a01b03811660808190526040519081527f58593678eebbfa59e0faffe7f6369641ed5107606603f7dd27140fe9cf58c8d99060200160405180910390a15050610104565b600080546001600160a01b038381166001600160a01b0319831681178455604051919092169283917f8be0079c531659141344cd1fd0a4f28419497f9722a3daafe3b4186f6b6457e09190a35050565b6000602082840312156100e657600080fd5b81516001600160a01b03811681146100fd57600080fd5b9392505050565b608051611c9c620001356000396000818161030c01528181610dc901528181610f64015261107d0152611c9c6000f3fe60806040526004361061016a5760003560e01c8063a9a23409116100cb578063db09992b1161007f578063f465c77e11610059578063f465c77e146103af578063f8b2cb4f146103dd578063ffa1ad741461042057600080fd5b8063db09992b14610369578063ea9228371461037c578063f2fde38b1461038f57600080fd5b8063bbc0a1c1116100b0578063bbc0a1c11461032e578063ce0edff314610341578063d1b844e61461036157600080fd5b8063a9a23409146102da578063b0d691fe146102fa57600080fd5b8063715018a61161012257806375fb91d91161010757806375fb91d914610265578063796d4371146102785780638da5cb5b1461028e57600080fd5b8063715018a61461023d578063728c5a3b1461025257600080fd5b806325cbd1cb1161015357806325cbd1cb146101da5780634d44560d1461020a57806360a71f461461021d57600080fd5b80630bb4df0c1461016f5780630bef4e21146101c5575b600080fd5b34801561017b57600080fd5b506101b261018a366004611630565b73ffffffffffffffffffffffffffffffffffffffff1660009081526002602052604090205490565b6040519081526020015b60405180910390f35b6101d86101d336600461164d565b610435565b005b3480156101e657600080fd5b506101fa6101f5366004611666565b6104ad565b60405190151581526020016101bc565b6101d861021836600461169f565b6104da565b34801561022957600080fd5b506101fa610238366004611630565b610537565b34801561024957600080fd5b506101d8610560565b6101d86102603660046116cb565b610574565b6101d8610273366004611755565b6107f8565b34801561028457600080fd5b506101b26188b881565b34801561029a57600080fd5b5060005473ffffffffffffffffffffffffffffffffffffffff165b60405173ffffffffffffffffffffffffffffffffffffffff90911681526020016101bc565b3480156102e657600080fd5b506101d86102f5366004611770565b610836565b34801561030657600080fd5b506102b57f000000000000000000000000000000000000000000000000000000000000000081565b6101d861033c3660046117ff565b610850565b34801561034d57600080fd5b506101fa61035c366004611666565b61092e565b6101d861093e565b6101d86103773660046117ff565b610978565b6101d861038a36600461169f565b610a57565b34801561039b57600080fd5b506101d86103aa366004611630565b610b1f565b3480156103bb57600080fd5b506103cf6103ca366004611834565b610bd6565b6040516101bc929190611888565b3480156103e957600080fd5b506101b26103f8366004611630565b73ffffffffffffffffffffffffffffffffffffffff1660009081526003602052604090205490565b34801561042c57600080fd5b506101b2600681565b61046c336104438343611932565b73ffffffffffffffffffffffffffffffffffffffff909116600090815260026020526040902055565b337f7a35268d43dabe7c71096638b1467739bc07982b2bae1f5f1e8390612046dfac6104988343611932565b6040519081526020015b60405180910390a250565b6000600160006104bd8486610bf9565b815260208101919091526040016000205460ff1690505b92915050565b6104e5338383610c26565b60405181815273ffffffffffffffffffffffffffffffffffffffff83169033907fc6be6b5dbdb2bc3a3c6f3176fc5f33eb01bd40654c2341ee7bf8ee7a7287b266906020015b60405180910390a35050565b60006001600061054684610e2a565b815260208101919091526040016000205460ff1692915050565b610568610e40565b6105726000610ec1565b565b6000805b82811015610750577fea922837000000000000000000000000000000000000000000000000000000008484838181106105b3576105b361194a565b90506020028101906105c59190611979565b6105d4916004916000916119e5565b6105dd91611a0f565b7fffffffff000000000000000000000000000000000000000000000000000000001614156106615760008085858481811061061a5761061a61194a565b905060200281019061062c9190611979565b61063a9160049082906119e5565b810190610647919061169f565b91509150808401935061065a8282610f36565b5050610748565b6000308585848181106106765761067661194a565b90506020028101906106889190611979565b604051610696929190611a57565b600060405180830381855af49150503d80600081146106d1576040519150601f19603f3d011682016040523d82523d6000602084013e6106d6565b606091505b5050905080610746576040517f08c379a000000000000000000000000000000000000000000000000000000000815260206004820152600560248201527f465735303000000000000000000000000000000000000000000000000000000060448201526064015b60405180910390fd5b505b600101610578565b503481146107ba576040517f08c379a000000000000000000000000000000000000000000000000000000000815260206004820152600560248201527f4657353031000000000000000000000000000000000000000000000000000000604482015260640161073d565b7f81fcfcce721cc0767c2d0cd5442bd0d0d284ca35bf2fedc1dfde90a2c306b0e583836040516107eb929190611ab0565b60405180910390a1505050565b6108023382611016565b604051811515815233907fb7abfba2528e740bd243dd36a89429cd33b12086140f7eadb64355ffeb297e49906020016104a2565b61083e611065565b61084a84848484611104565b50505050565b6001600061085d33610e2a565b815260208101919091526040016000205460ff166108d7576040517f08c379a000000000000000000000000000000000000000000000000000000000815260206004820152601060248201527f46573531323a20626c61636b6c69737400000000000000000000000000000000604482015260640161073d565b6108e23383836111dd565b604051811515815273ffffffffffffffffffffffffffffffffffffffff83169033907f2272082f36346bd8841fdbbe39d5f7cfded842aad507b07ebc1055cbc08fa5ca9060200161052b565b6000600160006104bd848661122e565b33600081815260026020526040808220829055517f702aed5dd3daee1fc613924264980ca3007bc083f653043885d181315526fce49190a2565b6001600061098584610e2a565b815260208101919091526040016000205460ff1615610a00576040517f08c379a000000000000000000000000000000000000000000000000000000000815260206004820152601060248201527f46573531323a2077686974656c69737400000000000000000000000000000000604482015260640161073d565b610a0b33838361123c565b604051811515815273ffffffffffffffffffffffffffffffffffffffff83169033907fe57ca4b798d10d6c59a776a05520d537d96cbeb394df5aac34a27b2aab04b81b9060200161052b565b80341015610ac1576040517f08c379a000000000000000000000000000000000000000000000000000000000815260206004820152600560248201527f4657353031000000000000000000000000000000000000000000000000000000604482015260640161073d565b610acb8282610f36565b8173ffffffffffffffffffffffffffffffffffffffff167f9da804b88155d014603697e12201205ac7a9c7fe2445a518fd8327b11e4bd18b82604051610b1391815260200190565b60405180910390a25050565b610b27610e40565b73ffffffffffffffffffffffffffffffffffffffff8116610bca576040517f08c379a000000000000000000000000000000000000000000000000000000000815260206004820152602660248201527f4f776e61626c653a206e6577206f776e657220697320746865207a65726f206160448201527f6464726573730000000000000000000000000000000000000000000000000000606482015260840161073d565b610bd381610ec1565b50565b60606000610be2611065565b610bed85858561124b565b91509150935093915050565b6000610c1f838360015b60f81b6000908152606092831b600152911b6015526029902090565b9392505050565b73ffffffffffffffffffffffffffffffffffffffff83166000908152600260205260409020544311610cb4576040517f08c379a000000000000000000000000000000000000000000000000000000000815260206004820152600560248201527f4657353033000000000000000000000000000000000000000000000000000000604482015260640161073d565b73ffffffffffffffffffffffffffffffffffffffff8316600090815260036020526040902054811115610d43576040517f08c379a000000000000000000000000000000000000000000000000000000000815260206004820152600560248201527f4657353034000000000000000000000000000000000000000000000000000000604482015260640161073d565b73ffffffffffffffffffffffffffffffffffffffff831660009081526003602052604081208054839290610d78908490611b86565b90915550506040517f205c287800000000000000000000000000000000000000000000000000000000815273ffffffffffffffffffffffffffffffffffffffff8381166004830152602482018390527f0000000000000000000000000000000000000000000000000000000000000000169063205c287890604401600060405180830381600087803b158015610e0d57600080fd5b505af1158015610e21573d6000803e3d6000fd5b50505050505050565b6000808052606082901b600152601581206104d4565b60005473ffffffffffffffffffffffffffffffffffffffff163314610572576040517f08c379a000000000000000000000000000000000000000000000000000000000815260206004820181905260248201527f4f776e61626c653a2063616c6c6572206973206e6f7420746865206f776e6572604482015260640161073d565b6000805473ffffffffffffffffffffffffffffffffffffffff8381167fffffffffffffffffffffffff0000000000000000000000000000000000000000831681178455604051919092169283917f8be0079c531659141344cd1fd0a4f28419497f9722a3daafe3b4186f6b6457e09190a35050565b6040517fb760faf90000000000000000000000000000000000000000000000000000000081523060048201527f000000000000000000000000000000000000000000000000000000000000000073ffffffffffffffffffffffffffffffffffffffff169063b760faf99083906024016000604051808303818588803b158015610fbe57600080fd5b505af1158015610fd2573d6000803e3d6000fd5b50505073ffffffffffffffffffffffffffffffffffffffff84166000908152600360205260408120805485945090925061100d908490611932565b90915550505050565b806001600061102485610e2a565b8152602081019190915260400160002080547fffffffffffffffffffffffffffffffffffffffffffffffffffffffffffffff00169115159190911790555050565b3373ffffffffffffffffffffffffffffffffffffffff7f00000000000000000000000000000000000000000000000000000000000000001614610572576040517f08c379a000000000000000000000000000000000000000000000000000000000815260206004820152600560248201527f4657303230000000000000000000000000000000000000000000000000000000604482015260640161073d565b600080808061111586880188611b9d565b9350935093509350816188b861112b9190611be3565b6111359086611932565b73ffffffffffffffffffffffffffffffffffffffff85166000908152600360205260408120805490919061116a908490611b86565b909155505073ffffffffffffffffffffffffffffffffffffffff808516908416827fbabb9f637ebecd6baa2ee785060f07088a92747ca64828f49acea1f64f793b986111b8866188b8611be3565b6111c2908a611932565b60405190815260200160405180910390a45050505050505050565b80600160006111ec8686610bf9565b8152602081019190915260400160002080547fffffffffffffffffffffffffffffffffffffffffffffffffffffffffffffff0016911515919091179055505050565b6000610c1f83836002610c03565b80600160006111ec868661122e565b6060600061125d610120860186611979565b90506028146112c8576040517f08c379a000000000000000000000000000000000000000000000000000000000815260206004820152600560248201527f4657353036000000000000000000000000000000000000000000000000000000604482015260640161073d565b6188b88560a0013511611337576040517f08c379a000000000000000000000000000000000000000000000000000000000815260206004820152600560248201527f4657353037000000000000000000000000000000000000000000000000000000604482015260640161073d565b6000611347610120870187611979565b6113559160149082906119e5565b61135e91611c20565b60601c60008181526002602052604090205490915080158061137f57504381115b6113e5576040517f08c379a000000000000000000000000000000000000000000000000000000000815260206004820152600560248201527f4657353038000000000000000000000000000000000000000000000000000000604482015260640161073d565b86356113f18184611546565b611457576040517f08c379a000000000000000000000000000000000000000000000000000000000815260206004820152600560248201527f4657353130000000000000000000000000000000000000000000000000000000604482015260640161073d565b73ffffffffffffffffffffffffffffffffffffffff83166000908152600360205260409020548611156114e6576040517f08c379a000000000000000000000000000000000000000000000000000000000815260206004820152600560248201527f4657353034000000000000000000000000000000000000000000000000000000604482015260640161073d565b60006114f1896115c8565b6040805173ffffffffffffffffffffffffffffffffffffffff968716602082015293909516838601526060830152506080808201979097528251808203909701875260a0019091525092946000945092505050565b6000806001600061155685610e2a565b815260208101919091526040016000205460ff169050801561159e57600160006115808587610bf9565b815260208101919091526040016000205460ff161591506104d49050565b600160006115ac858761122e565b815260208101919091526040016000205460ff16949350505050565b600060e0820135610100830135808214156115e4575092915050565b6115f0824883016115f8565b949350505050565b60008183106116075781610c1f565b5090919050565b73ffffffffffffffffffffffffffffffffffffffff81168114610bd357600080fd5b60006020828403121561164257600080fd5b8135610c1f8161160e565b60006020828403121561165f57600080fd5b5035919050565b6000806040838503121561167957600080fd5b82356116848161160e565b915060208301356116948161160e565b809150509250929050565b600080604083850312156116b257600080fd5b82356116bd8161160e565b946020939093013593505050565b600080602083850312156116de57600080fd5b823567ffffffffffffffff808211156116f657600080fd5b818501915085601f83011261170a57600080fd5b81358181111561171957600080fd5b8660208260051b850101111561172e57600080fd5b60209290920196919550909350505050565b8035801515811461175057600080fd5b919050565b60006020828403121561176757600080fd5b610c1f82611740565b6000806000806060858703121561178657600080fd5b84356003811061179557600080fd5b9350602085013567ffffffffffffffff808211156117b257600080fd5b818701915087601f8301126117c657600080fd5b8135818111156117d557600080fd5b8860208285010111156117e757600080fd5b95986020929092019750949560400135945092505050565b6000806040838503121561181257600080fd5b823561181d8161160e565b915061182b60208401611740565b90509250929050565b60008060006060848603121561184957600080fd5b833567ffffffffffffffff81111561186057600080fd5b8401610160818703121561187357600080fd5b95602085013595506040909401359392505050565b604081526000835180604084015260005b818110156118b65760208187018101516060868401015201611899565b818111156118c8576000606083860101525b50602083019390935250601f919091017fffffffffffffffffffffffffffffffffffffffffffffffffffffffffffffffe01601606001919050565b7f4e487b7100000000000000000000000000000000000000000000000000000000600052601160045260246000fd5b6000821982111561194557611945611903565b500190565b7f4e487b7100000000000000000000000000000000000000000000000000000000600052603260045260246000fd5b60008083357fffffffffffffffffffffffffffffffffffffffffffffffffffffffffffffffe18436030181126119ae57600080fd5b83018035915067ffffffffffffffff8211156119c957600080fd5b6020019150368190038213156119de57600080fd5b9250929050565b600080858511156119f557600080fd5b83861115611a0257600080fd5b5050820193919092039150565b7fffffffff000000000000000000000000000000000000000000000000000000008135818116916004851015611a4f5780818660040360031b1b83161692505b505092915050565b8183823760009101908152919050565b8183528181602085013750600060208284010152600060207fffffffffffffffffffffffffffffffffffffffffffffffffffffffffffffffe0601f840116840101905092915050565b60208082528181018390526000906040600585901b8401810190840186845b87811015611b79577fffffffffffffffffffffffffffffffffffffffffffffffffffffffffffffffc087850301835281357fffffffffffffffffffffffffffffffffffffffffffffffffffffffffffffffe18a3603018112611b3057600080fd5b8901803567ffffffffffffffff811115611b4957600080fd5b8036038b1315611b5857600080fd5b611b658682898501611a67565b955050509184019190840190600101611acf565b5091979650505050505050565b600082821015611b9857611b98611903565b500390565b60008060008060808587031215611bb357600080fd5b8435611bbe8161160e565b93506020850135611bce8161160e565b93969395505050506040820135916060013590565b6000817fffffffffffffffffffffffffffffffffffffffffffffffffffffffffffffffff0483118215151615611c1b57611c1b611903565b500290565b7fffffffffffffffffffffffffffffffffffffffff0000000000000000000000008135818116916014851015611a4f5760149490940360031b84901b169092169291505056fea264697066735822122073e441968665d484ecf1b5a4b7d088aea1a32955e3ba9a05678a386124b4990a64736f6c634300080c0033",
  "linkReferences": {},
  "deployedLinkReferences": {}
}