{"_format":"hh-sol-artifact-1","contractName":"TokenPaymaster","sourceName":"contracts/paymaster/TokenPaymaster.sol","abi":[{"inputs":[{"internalType":"contract IEntryPoint","name":"_entryPoint","type":"address"}],"stateMutability":"nonpayable","type":"constructor"},{"anonymous":false,"inputs":[{"indexed":true,"internalType":"address","name":"previousOwner","type":"address"},{"indexed":true,"internalType":"address","name":"newOwner","type":"address"}],"name":"OwnershipTransferred","type":"event"},{"inputs":[],"name":"COST_OF_POST","outputs":[{"internalType":"uint256","name":"","type":"uint256"}],"stateMutability":"view","type":"function"},{"inputs":[],"name":"ETH","outputs":[{"internalType":"address","name":"","type":"address"}],"stateMutability":"view","type":"function"},{"inputs":[{"internalType":"address","name":"sponsor","type":"address"},{"internalType":"uint256","name":"amount","type":"uint256"}],"name":"addEthDepositTo","outputs":[],"stateMutability":"payable","type":"function"},{"inputs":[{"internalType":"uint32","name":"unstakeDelaySec","type":"uint32"}],"name":"addStake","outputs":[],"stateMutability":"payable","type":"function"},{"inputs":[{"internalType":"address","name":"token","type":"address"},{"internalType":"address","name":"spender","type":"address"},{"internalType":"uint256","name":"amount","type":"uint256"}],"name":"addTokenDepositTo","outputs":[],"stateMutability":"payable","type":"function"},{"inputs":[{"internalType":"bytes[]","name":"data","type":"bytes[]"}],"name":"batchActions","outputs":[],"stateMutability":"payable","type":"function"},{"inputs":[],"name":"deposit","outputs":[],"stateMutability":"payable","type":"function"},{"inputs":[],"name":"entryPoint","outputs":[{"internalType":"contract IEntryPoint","name":"","type":"address"}],"stateMutability":"view","type":"function"},{"inputs":[{"internalType":"address","name":"token","type":"address"},{"internalType":"address","name":"spender","type":"address"}],"name":"getAllTokenData","outputs":[{"internalType":"uint256","name":"unlockBlock","type":"uint256"},{"internalType":"uint256","name":"tokenAmount","type":"uint256"}],"stateMutability":"view","type":"function"},{"inputs":[],"name":"getAllTokens","outputs":[{"internalType":"address[]","name":"","type":"address[]"}],"stateMutability":"view","type":"function"},{"inputs":[],"name":"getDeposit","outputs":[{"internalType":"uint256","name":"","type":"uint256"}],"stateMutability":"view","type":"function"},{"inputs":[{"internalType":"address","name":"sponsor","type":"address"}],"name":"getListMode","outputs":[{"internalType":"bool","name":"","type":"bool"}],"stateMutability":"view","type":"function"},{"inputs":[{"internalType":"address","name":"sponsor","type":"address"},{"internalType":"address","name":"spender","type":"address"}],"name":"getSpenderTotalBlacklisted","outputs":[{"internalType":"bool","name":"","type":"bool"}],"stateMutability":"view","type":"function"},{"inputs":[{"internalType":"address","name":"sponsor","type":"address"},{"internalType":"address","name":"spender","type":"address"}],"name":"getSpenderTotalWhitelisted","outputs":[{"internalType":"bool","name":"","type":"bool"}],"stateMutability":"view","type":"function"},{"inputs":[{"internalType":"address","name":"token","type":"address"}],"name":"getToken","outputs":[{"components":[{"internalType":"contract ITokenPriceOracle","name":"oracle","type":"address"},{"internalType":"contract IERC20","name":"token","type":"address"},{"internalType":"uint8","name":"decimals","type":"uint8"},{"internalType":"contract AggregatorV3Interface","name":"aggregator","type":"address"}],"internalType":"struct TokenData","name":"","type":"tuple"}],"stateMutability":"view","type":"function"},{"inputs":[{"internalType":"address","name":"token","type":"address"},{"internalType":"address","name":"spender","type":"address"}],"name":"getTokenBalance","outputs":[{"internalType":"uint256","name":"tokenAmount","type":"uint256"}],"stateMutability":"view","type":"function"},{"inputs":[{"internalType":"address","name":"token","type":"address"},{"internalType":"address","name":"sponsor","type":"address"}],"name":"getTokenListMode","outputs":[{"internalType":"bool","name":"","type":"bool"}],"stateMutability":"view","type":"function"},{"inputs":[{"internalType":"address","name":"token","type":"address"},{"internalType":"address","name":"sponsor","type":"address"},{"internalType":"address","name":"spender","type":"address"}],"name":"getTokenSpenderBlacklisted","outputs":[{"internalType":"bool","name":"","type":"bool"}],"stateMutability":"view","type":"function"},{"inputs":[{"internalType":"address","name":"token","type":"address"},{"internalType":"address","name":"sponsor","type":"address"},{"internalType":"address","name":"spender","type":"address"}],"name":"getTokenSpenderWhitelisted","outputs":[{"internalType":"bool","name":"","type":"bool"}],"stateMutability":"view","type":"function"},{"inputs":[{"internalType":"address","name":"token","type":"address"},{"internalType":"address","name":"spender","type":"address"}],"name":"getUnlockBlock","outputs":[{"internalType":"uint256","name":"unlockBlock","type":"uint256"}],"stateMutability":"view","type":"function"},{"inputs":[{"internalType":"address","name":"token","type":"address"}],"name":"lockTokenDeposit","outputs":[],"stateMutability":"payable","type":"function"},{"inputs":[],"name":"owner","outputs":[{"internalType":"address","name":"","type":"address"}],"stateMutability":"view","type":"function"},{"inputs":[{"internalType":"enum IPaymaster.PostOpMode","name":"mode","type":"uint8"},{"internalType":"bytes","name":"context","type":"bytes"},{"internalType":"uint256","name":"actualGasCost","type":"uint256"}],"name":"postOp","outputs":[],"stateMutability":"nonpayable","type":"function"},{"inputs":[],"name":"renounceOwnership","outputs":[],"stateMutability":"nonpayable","type":"function"},{"inputs":[{"internalType":"bool","name":"mode","type":"bool"}],"name":"setGlobalBlacklistMode","outputs":[],"stateMutability":"payable","type":"function"},{"inputs":[{"internalType":"address","name":"token","type":"address"},{"internalType":"address","name":"spender","type":"address"},{"internalType":"bool","name":"mode","type":"bool"}],"name":"setSpenderTokenBlacklistMode","outputs":[],"stateMutability":"payable","type":"function"},{"inputs":[{"internalType":"address","name":"token","type":"address"},{"internalType":"address","name":"spender","type":"address"},{"internalType":"bool","name":"mode","type":"bool"}],"name":"setSpenderTokenWhitelistMode","outputs":[],"stateMutability":"payable","type":"function"},{"inputs":[{"internalType":"address","name":"spender","type":"address"},{"internalType":"bool","name":"mode","type":"bool"}],"name":"setSpenderTotalBlackListMode","outputs":[],"stateMutability":"payable","type":"function"},{"inputs":[{"internalType":"address","name":"spender","type":"address"},{"internalType":"bool","name":"mode","type":"bool"}],"name":"setSpenderTotalWhitelistMode","outputs":[],"stateMutability":"payable","type":"function"},{"inputs":[{"internalType":"address","name":"token","type":"address"},{"internalType":"bool","name":"mode","type":"bool"}],"name":"setTokenBlacklistMode","outputs":[],"stateMutability":"payable","type":"function"},{"inputs":[{"components":[{"internalType":"contract ITokenPriceOracle","name":"oracle","type":"address"},{"internalType":"contract IERC20","name":"token","type":"address"},{"internalType":"uint8","name":"decimals","type":"uint8"},{"internalType":"contract AggregatorV3Interface","name":"aggregator","type":"address"}],"internalType":"struct TokenData","name":"data","type":"tuple"}],"name":"setTokenData","outputs":[],"stateMutability":"nonpayable","type":"function"},{"inputs":[{"internalType":"address","name":"newOwner","type":"address"}],"name":"transferOwnership","outputs":[],"stateMutability":"nonpayable","type":"function"},{"inputs":[],"name":"unlockStake","outputs":[],"stateMutability":"nonpayable","type":"function"},{"inputs":[{"internalType":"address","name":"token","type":"address"},{"internalType":"uint256","name":"num","type":"uint256"}],"name":"unlockTokenDepositAfter","outputs":[],"stateMutability":"payable","type":"function"},{"inputs":[{"components":[{"internalType":"address","name":"sender","type":"address"},{"internalType":"uint256","name":"nonce","type":"uint256"},{"internalType":"bytes","name":"initCode","type":"bytes"},{"internalType":"bytes","name":"callData","type":"bytes"},{"internalType":"uint256","name":"callGasLimit","type":"uint256"},{"internalType":"uint256","name":"verificationGasLimit","type":"uint256"},{"internalType":"uint256","name":"preVerificationGas","type":"uint256"},{"internalType":"uint256","name":"maxFeePerGas","type":"uint256"},{"internalType":"uint256","name":"maxPriorityFeePerGas","type":"uint256"},{"internalType":"bytes","name":"paymasterAndData","type":"bytes"},{"internalType":"bytes","name":"signature","type":"bytes"}],"internalType":"struct UserOperation","name":"userOp","type":"tuple"},{"internalType":"bytes32","name":"userOpHash","type":"bytes32"},{"internalType":"uint256","name":"maxCost","type":"uint256"}],"name":"validatePaymasterUserOp","outputs":[{"internalType":"bytes","name":"context","type":"bytes"},{"internalType":"uint256","name":"sigTimeRange","type":"uint256"}],"stateMutability":"nonpayable","type":"function"},{"inputs":[{"internalType":"address","name":"target","type":"address"},{"internalType":"uint256","name":"amount","type":"uint256"}],"name":"withdrawEthDepositTo","outputs":[],"stateMutability":"payable","type":"function"},{"inputs":[{"internalType":"address payable","name":"withdrawAddress","type":"address"}],"name":"withdrawStake","outputs":[],"stateMutability":"nonpayable","type":"function"},{"inputs":[{"internalType":"address payable","name":"withdrawAddress","type":"address"},{"internalType":"uint256","name":"amount","type":"uint256"}],"name":"withdrawTo","outputs":[],"stateMutability":"nonpayable","type":"function"},{"inputs":[{"internalType":"address","name":"token","type":"address"},{"internalType":"address","name":"target","type":"address"},{"internalType":"uint256","name":"amount","type":"uint256"}],"name":"withdrawTokenDepositTo","outputs":[],"stateMutability":"payable","type":"function"}],"bytecode":"0x60a06040523480156200001157600080fd5b5060405162003aa338038062003aa38339810160408190526200003491620000a3565b80620000403362000053565b6001600160a01b031660805250620000d5565b600080546001600160a01b038381166001600160a01b0319831681178455604051919092169283917f8be0079c531659141344cd1fd0a4f28419497f9722a3daafe3b4186f6b6457e09190a35050565b600060208284031215620000b657600080fd5b81516001600160a01b0381168114620000ce57600080fd5b9392505050565b60805161397362000130600039600081816106300152818161083c015281816109f9015281816110f1015281816111b801528181611248015281816113220152818161184901528181611b0f0152611dea01526139736000f3fe6080604052600436106102a05760003560e01c80638da5cb5b1161016e578063d3a7263d116100cb578063edb95d101161007f578063f2fde38b11610064578063f2fde38b14610792578063f465c77e146107b2578063f812232c146107e057600080fd5b8063edb95d101461075f578063f0e9ba7c1461077257600080fd5b8063d4112961116100b0578063d4112961146106f7578063d56683a21461072c578063e14199141461074c57600080fd5b8063d3a7263d146106c4578063d3eccaff146106e457600080fd5b8063bb9fe6bf11610122578063c399ec8811610107578063c399ec8814610687578063c489744b1461069c578063d0e30db0146106bc57600080fd5b8063bb9fe6bf14610652578063c23a5cea1461066757600080fd5b8063a82e466811610153578063a82e4668146105eb578063a9a23409146105fe578063b0d691fe1461061e57600080fd5b80638da5cb5b146105ad5780638fe2d833146105d857600080fd5b8063597704381161021c578063795fbbc2116101d05780637c3d169b116101b55780637c3d169b1461054d57806380ffac2e146105605780638322fff21461057357600080fd5b8063795fbbc214610508578063796d43711461052857600080fd5b806360a71f461161020157806360a71f46146104c0578063715018a6146104e0578063728c5a3b146104f557600080fd5b806359770438146103a15780635a2f0bb8146104ad57600080fd5b806320f6a738116102735780632d1c850c116102585780632d1c850c1461033e57806334b00465146103515780633b78e3c41461038157600080fd5b806320f6a738146103005780632a5c792a1461031357600080fd5b80630396cb60146102a557806303d01664146102ba578063199160e1146102cd578063205c2878146102e0575b600080fd5b6102b86102b3366004612de4565b610800565b005b6102b86102c8366004612e3a565b6108b2565b6102b86102db366004612e3a565b61099a565b3480156102ec57600080fd5b506102b86102fb366004612e73565b6109a5565b6102b861030e366004612e3a565b610a3d565b34801561031f57600080fd5b50610328610b1b565b6040516103359190612e9f565b60405180910390f35b6102b861034c366004612ef9565b610b8a565b34801561035d57600080fd5b5061037161036c366004612f16565b610b99565b6040519015158152602001610335565b34801561038d57600080fd5b5061037161039c366004612f16565b610bc8565b3480156103ad57600080fd5b5061045c6103bc366004612ef9565b6040805160808101825260008082526020820181905291810182905260608101919091525073ffffffffffffffffffffffffffffffffffffffff90811660009081526003602090815260409182902082516080810184528154851681526001820154808616938201939093527401000000000000000000000000000000000000000090920460ff1692820192909252600290910154909116606082015290565b6040516103359190815173ffffffffffffffffffffffffffffffffffffffff908116825260208084015182169083015260408084015160ff1690830152606092830151169181019190915260800190565b6102b86104bb366004612f61565b610bd9565b3480156104cc57600080fd5b506103716104db366004612ef9565b610cbe565b3480156104ec57600080fd5b506102b8610ce7565b6102b8610503366004612fa1565b610cfb565b34801561051457600080fd5b50610371610523366004613016565b610f89565b34801561053457600080fd5b5061053f6201117081565b604051908152602001610335565b6102b861055b366004613044565b610fb4565b6102b861056e366004612f61565b610fc0565b34801561057f57600080fd5b50610588600081565b60405173ffffffffffffffffffffffffffffffffffffffff9091168152602001610335565b3480156105b957600080fd5b5060005473ffffffffffffffffffffffffffffffffffffffff16610588565b6102b86105e6366004612e73565b6110a1565b6102b86105f9366004612e73565b6110b9565b34801561060a57600080fd5b506102b8610619366004613085565b6110cd565b34801561062a57600080fd5b506105887f000000000000000000000000000000000000000000000000000000000000000081565b34801561065e57600080fd5b506102b86110e7565b34801561067357600080fd5b506102b8610682366004612ef9565b61116b565b34801561069357600080fd5b5061053f611217565b3480156106a857600080fd5b5061053f6106b7366004613016565b6112cd565b6102b86112f4565b3480156106d057600080fd5b506102b86106df366004613114565b61137c565b6102b86106f2366004612e73565b611444565b34801561070357600080fd5b50610717610712366004613016565b61144f565b60408051928352602083019190915201610335565b34801561073857600080fd5b5061053f610747366004613016565b611471565b6102b861075a366004613044565b611481565b6102b861076d36600461312c565b61148d565b34801561077e57600080fd5b5061037161078d366004613016565b611497565b34801561079e57600080fd5b506102b86107ad366004612ef9565b6114a7565b3480156107be57600080fd5b506107d26107cd366004613149565b61155b565b604051610335929190613213565b3480156107ec57600080fd5b506103716107fb366004613016565b61157e565b61080861158e565b6040517f0396cb6000000000000000000000000000000000000000000000000000000000815263ffffffff821660048201527f000000000000000000000000000000000000000000000000000000000000000073ffffffffffffffffffffffffffffffffffffffff1690630396cb609034906024016000604051808303818588803b15801561089657600080fd5b505af11580156108aa573d6000803e3d6000fd5b505050505050565b600160006108bf8461160f565b815260208101919091526040016000205460ff161561098b576040517f08c379a000000000000000000000000000000000000000000000000000000000815260206004820152604660248201527f546f6b656e5061796d61737465723a206d6f64652069732073657420746f206260448201527f6c61636b6c6973742063616e206e6f7420616464207573657220746f2077686960648201527f74656c6973740000000000000000000000000000000000000000000000000000608482015260a4015b60405180910390fd5b61099633838361163f565b5050565b610996823383611690565b6109ad61158e565b6040517f205c287800000000000000000000000000000000000000000000000000000000815273ffffffffffffffffffffffffffffffffffffffff8381166004830152602482018390527f0000000000000000000000000000000000000000000000000000000000000000169063205c287890604401600060405180830381600087803b15801561089657600080fd5b60016000610a4a3361160f565b815260208101919091526040016000205460ff16610b10576040517f08c379a000000000000000000000000000000000000000000000000000000000815260206004820152604660248201527f546f6b656e5061796d61737465723a206d6f64652069732073657420746f207760448201527f686974656c6973742063616e206e6f7420616464207573657220746f20626c6160648201527f636b6c6973740000000000000000000000000000000000000000000000000000608482015260a401610982565b61099633838361169f565b60606004805480602002602001604051908101604052809291908181526020018280548015610b8057602002820191906000526020600020905b815473ffffffffffffffffffffffffffffffffffffffff168152600190910190602001808311610b55575b5050505050905090565b610b96813360006116ae565b50565b600060016000610baa8686866116d3565b815260208101919091526040016000205460ff1690505b9392505050565b600060016000610baa868686611709565b60016000610be78585611720565b815260208101919091526040016000205460ff16610cad576040517f08c379a000000000000000000000000000000000000000000000000000000000815260206004820152604c60248201527f546f6b656e5061796d61737465723a20746f6b656e206d6f646520697320736560448201527f7420746f2077686974656c6973742063616e206e6f742061646420757365722060648201527f746f20626c61636b6c6973740000000000000000000000000000000000000000608482015260a401610982565b610cb983833384611753565b505050565b600060016000610ccd8461160f565b815260208101919091526040016000205460ff1692915050565b610cef61158e565b610cf960006117a6565b565b6000805b82811015610ef9577f8fe2d83300000000000000000000000000000000000000000000000000000000848483818110610d3a57610d3a613235565b9050602002810190610d4c9190613264565b610d5b916004916000916132d0565b610d64916132fa565b7fffffffff00000000000000000000000000000000000000000000000000000000161415610de957600080858584818110610da157610da1613235565b9050602002810190610db39190613264565b610dc19160049082906132d0565b810190610dce9190612e73565b915091508084019350610de233838361181b565b5050610ef1565b600030858584818110610dfe57610dfe613235565b9050602002810190610e109190613264565b604051610e1e929190613342565b600060405180830381855af49150503d8060008114610e59576040519150601f19603f3d011682016040523d82523d6000602084013e610e5e565b606091505b5050905080610eef576040517f08c379a000000000000000000000000000000000000000000000000000000000815260206004820152603360248201527f546f6b656e5061796d61737465723a20696e7465726e616c206261746368656460448201527f207472616e73616374696f6e206661696c6564000000000000000000000000006064820152608401610982565b505b600101610cff565b50348114610cb9576040517f08c379a000000000000000000000000000000000000000000000000000000000815260206004820152603860248201527f546f6b656e5061796d61737465723a20426174636865642076616c756520697360448201527f206e6f7420657175616c20746f2073656e742076616c756500000000000000006064820152608401610982565b600060016000610f99848661191c565b815260208101919091526040016000205460ff169392505050565b610cb983338484611931565b60016000610fce8585611720565b815260208101919091526040016000205460ff1615611095576040517f08c379a000000000000000000000000000000000000000000000000000000000815260206004820152604c60248201527f546f6b656e5061796d61737465723a20746f6b656e206d6f646520697320736560448201527f7420746f20626c61636b6c6973742063616e206e6f742061646420757365722060648201527f746f2077686974656c6973740000000000000000000000000000000000000000608482015260a401610982565b610cb983833384611ae7565b803410156110ae57600080fd5b61099633838361181b565b61099682336110c88443613381565b6116ae565b6110d5611af7565b6110e184848484611b39565b50505050565b6110ef61158e565b7f000000000000000000000000000000000000000000000000000000000000000073ffffffffffffffffffffffffffffffffffffffff1663bb9fe6bf6040518163ffffffff1660e01b8152600401600060405180830381600087803b15801561115757600080fd5b505af11580156110e1573d6000803e3d6000fd5b61117361158e565b6040517fc23a5cea00000000000000000000000000000000000000000000000000000000815273ffffffffffffffffffffffffffffffffffffffff82811660048301527f0000000000000000000000000000000000000000000000000000000000000000169063c23a5cea90602401600060405180830381600087803b1580156111fc57600080fd5b505af1158015611210573d6000803e3d6000fd5b5050505050565b6040517f70a082310000000000000000000000000000000000000000000000000000000081523060048201526000907f000000000000000000000000000000000000000000000000000000000000000073ffffffffffffffffffffffffffffffffffffffff16906370a0823190602401602060405180830381865afa1580156112a4573d6000803e3d6000fd5b505050506040513d601f19601f820116820180604052508101906112c89190613399565b905090565b6000600260006112dd8585611c1d565b815260200190815260200160002054905092915050565b6040517fb760faf90000000000000000000000000000000000000000000000000000000081523060048201527f000000000000000000000000000000000000000000000000000000000000000073ffffffffffffffffffffffffffffffffffffffff169063b760faf99034906024016000604051808303818588803b1580156111fc57600080fd5b61138461158e565b60006113966040830160208401612ef9565b73ffffffffffffffffffffffffffffffffffffffff8116600090815260036020526040902090915082906113ca82826133b2565b5050600480546001810182556000919091527f8a35acfbc15ff81a39ae7d344fd709f28e8600b4aa8c65c6b64bfe7fe36bd19b0180547fffffffffffffffffffffffff00000000000000000000000000000000000000001673ffffffffffffffffffffffffffffffffffffffff9290921691909117905550565b610996338383611c35565b60008061145c8484611471565b915061146884846112cd565b90509250929050565b6000600260006112dd8585611e4c565b610cb983338484611e5a565b610b963382611fab565b600060016000610f998486611ffa565b6114af61158e565b73ffffffffffffffffffffffffffffffffffffffff8116611552576040517f08c379a000000000000000000000000000000000000000000000000000000000815260206004820152602660248201527f4f776e61626c653a206e6577206f776e657220697320746865207a65726f206160448201527f64647265737300000000000000000000000000000000000000000000000000006064820152608401610982565b610b96816117a6565b60606000611567611af7565b61157285858561200f565b91509150935093915050565b600060016000610f998585611720565b60005473ffffffffffffffffffffffffffffffffffffffff163314610cf9576040517f08c379a000000000000000000000000000000000000000000000000000000000815260206004820181905260248201527f4f776e61626c653a2063616c6c6572206973206e6f7420746865206f776e65726044820152606401610982565b60008160405160200161162291906134fa565b604051602081830303815290604052805190602001209050919050565b806001600061164e8587611ffa565b8152602081019190915260400160002080547fffffffffffffffffffffffffffffffffffffffffffffffffffffffffffffff0016911515919091179055505050565b806001600061164e8686611720565b806001600061164e858761191c565b80600260006116bd8686611e4c565b8152602081019190915260400160002055505050565b60008383836040516020016116ea93929190613553565b6040516020818303038152906040528051906020012090509392505050565b60008383836040516020016116ea939291906135c1565b6000828260405160200161173592919061362a565b60405160208183030381529060405280519060200120905092915050565b80600160006117638787876116d3565b8152602081019190915260400160002080547fffffffffffffffffffffffffffffffffffffffffffffffffffffffffffffff001691151591909117905550505050565b6000805473ffffffffffffffffffffffffffffffffffffffff8381167fffffffffffffffffffffffff0000000000000000000000000000000000000000831681178455604051919092169283917f8be0079c531659141344cd1fd0a4f28419497f9722a3daafe3b4186f6b6457e09190a35050565b6040517fb760faf90000000000000000000000000000000000000000000000000000000081523060048201527f000000000000000000000000000000000000000000000000000000000000000073ffffffffffffffffffffffffffffffffffffffff169063b760faf99083906024016000604051808303818588803b1580156118a357600080fd5b505af11580156118b7573d6000803e3d6000fd5b505050505080600260006118cc600086611c1d565b815260200190815260200160002060008282546118e99190613381565b909155505073ffffffffffffffffffffffffffffffffffffffff8381169083161415610cb957610cb960008460006116ae565b6000828260405160200161173592919061368b565b600061193d8585611471565b9050600061194b8686611c1d565b9050811580159061195b57508143115b6119e7576040517f08c379a000000000000000000000000000000000000000000000000000000000815260206004820152602760248201527f546f6b656e5061796d61737465723a206d75737420756e6c6f636b546f6b656e60448201527f4465706f736974000000000000000000000000000000000000000000000000006064820152608401610982565b600081815260026020526040902054831115611a85576040517f08c379a000000000000000000000000000000000000000000000000000000000815260206004820152602a60248201527f546f6b656e5061796d61737465723a20646f6573206e6f74206861766520656e60448201527f6f7567682066756e6473000000000000000000000000000000000000000000006064820152608401610982565b60008181526002602052604081208054859290611aa39084906136ec565b909155505073ffffffffffffffffffffffffffffffffffffffff80871660009081526003602052604090206001015416611ade81868661253f565b50505050505050565b8060016000611763878787611709565b3373ffffffffffffffffffffffffffffffffffffffff7f00000000000000000000000000000000000000000000000000000000000000001614610cf957600080fd5b60008080808080611b4c888a018a613703565b955095509550955095509550600081838562011170611b6b9190613768565b611b75908b613381565b611b7f9190613768565b611b8991906137a5565b9050611b96858883612613565b8060026000611ba5888a611c1d565b81526020019081526020016000206000828254611bc29190613381565b90915550611bd590508462011170613768565b611bdf9089613381565b60026000611bee60008a611c1d565b81526020019081526020016000206000828254611c0b91906136ec565b90915550505050505050505050505050565b600082826001604051602001611735939291906137e0565b6000611c42600085611c1d565b9050611c4f600085611471565b4311611cdd576040517f08c379a000000000000000000000000000000000000000000000000000000000815260206004820152602760248201527f546f6b656e5061796d61737465723a206d75737420756e6c6f636b546f6b656e60448201527f4465706f736974000000000000000000000000000000000000000000000000006064820152608401610982565b600081815260026020526040902054821115611d7b576040517f08c379a000000000000000000000000000000000000000000000000000000000815260206004820152602760248201527f546f6b656e5061796d61737465723a206d75737420756e6c6f636b546f6b656e60448201527f4465706f736974000000000000000000000000000000000000000000000000006064820152608401610982565b60008181526002602052604081208054849290611d999084906136ec565b90915550506040517f205c287800000000000000000000000000000000000000000000000000000000815273ffffffffffffffffffffffffffffffffffffffff8481166004830152602482018490527f0000000000000000000000000000000000000000000000000000000000000000169063205c287890604401600060405180830381600087803b158015611e2e57600080fd5b505af1158015611e42573d6000803e3d6000fd5b5050505050505050565b6000610bc18383600061270a565b73ffffffffffffffffffffffffffffffffffffffff841660009081526003602052604090206001015474010000000000000000000000000000000000000000900460ff16611f29576040517f08c379a0000000000000000000000000000000000000000000000000000000008152602060048201526024808201527f546f6b656e5061796d61737465723a20546f6b656e20646f6573206e6f74206560448201527f78697374000000000000000000000000000000000000000000000000000000006064820152608401610982565b73ffffffffffffffffffffffffffffffffffffffff808516600090815260036020526040812060010154909116908290600290611f668887611c1d565b81526020019081526020016000206000828254611f839190613381565b90915550611210905073ffffffffffffffffffffffffffffffffffffffff8216853085612721565b8060016000611fb98561160f565b8152602081019190915260400160002080547fffffffffffffffffffffffffffffffffffffffffffffffffffffffffffffff00169115159190911790555050565b6000828260405160200161173592919061384a565b60606000612021610120860186613264565b9050603c146120b2576040517f08c379a000000000000000000000000000000000000000000000000000000000815260206004820152603560248201527f546f6b656e5061796d61737465723a207061796d6173746572416e644461746160448201527f206d75737420737065636966792073706f6e736f7200000000000000000000006064820152608401610982565b620111708560a0013511612148576040517f08c379a000000000000000000000000000000000000000000000000000000000815260206004820152602660248201527f546f6b656e5061796d61737465723a2067617320746f6f206c6f7720666f722060448201527f706f73744f7000000000000000000000000000000000000000000000000000006064820152608401610982565b6000612158610120870187613264565b612167916028916014916132d0565b612170916138ab565b60601c90506000612185610120880188613264565b6121939160289082906132d0565b61219c916138ab565b60601c90506000600260006121b2600086611e4c565b815260200190815260200160002054905080600014806121d157504381115b612237576040517f08c379a000000000000000000000000000000000000000000000000000000000815260206004820152601c60248201527f546f6b656e5061796d61737465723a205374616b65204c6f636b6564000000006044820152606401610982565b873560006002816122488685611e4c565b815260200190815260200160002054905060006002600061226a600089611c1d565b8152602001908152602001600020549050816000148061228957504382115b612315576040517f08c379a000000000000000000000000000000000000000000000000000000000815260206004820152602260248201527f546f6b656e5061796d61737465723a206465706f736974206e6f74206c6f636b60448201527f65640000000000000000000000000000000000000000000000000000000000006064820152608401610982565b888110156123a5576040517f08c379a000000000000000000000000000000000000000000000000000000000815260206004820152602c60248201527f546f6b656e5061796d61737465723a20646f6573206e6f74206861766520656e60448201527f6f75676820746f2066756e6400000000000000000000000000000000000000006064820152608401610982565b6123b085848861277f565b61243c576040517f08c379a000000000000000000000000000000000000000000000000000000000815260206004820152603360248201527f546f6b656e5061796d61737465723a20686173206e6f74206f7220646f65732060448201527f6e6f7420617070726f7665207370656e646572000000000000000000000000006064820152608401610982565b6000612448868b6128a7565b90506124558685836129ae565b806124665750612466868583612b11565b6124cc576040517f08c379a000000000000000000000000000000000000000000000000000000000815260206004820181905260248201527f546f6b656e5061796d61737465723a20757365722063616e206e6f74207061796044820152606401610982565b60006124d78d612b3c565b6040805173ffffffffffffffffffffffffffffffffffffffff97881660208201529987168a820152979095166060890152506080870193909352505060a08401525060c0808301959095528051808303909501855260e0909101905250909360009350915050565b60405173ffffffffffffffffffffffffffffffffffffffff8316602482015260448101829052610cb99084907fa9059cbb00000000000000000000000000000000000000000000000000000000906064015b604080517fffffffffffffffffffffffffffffffffffffffffffffffffffffffffffffffe08184030181529190526020810180517bffffffffffffffffffffffffffffffffffffffffffffffffffffffff167fffffffff0000000000000000000000000000000000000000000000000000000090931692909217909152612b64565b61261e8383836129ae565b1561265a5773ffffffffffffffffffffffffffffffffffffffff808416600090815260036020526040902060010154166110e181843085612721565b60006126668484611c1d565b6000818152600260205260409020549091508211156126e1576040517f08c379a000000000000000000000000000000000000000000000000000000000815260206004820152601460248201527f446f6573206e6f74206861766520746f6b656e730000000000000000000000006044820152606401610982565b600081815260026020526040812080548492906126ff9084906136ec565b909155505050505050565b60008383836040516020016116ea939291906137e0565b60405173ffffffffffffffffffffffffffffffffffffffff808516602483015283166044820152606481018290526110e19085907f23b872dd0000000000000000000000000000000000000000000000000000000090608401612591565b600080600160006127918787876116d3565b8152602081019190915260400160009081205460ff1691506001816127b58661160f565b815260208101919091526040016000205460ff169050801561280b576000600160006127e1888861191c565b815260208101919091526040016000205460ff16905080806128005750825b159350505050610bc1565b60006001600061281b8988611720565b815260208101919091526040016000205460ff1690508015612841575050159050610bc1565b6000600160006128518989611ffa565b815260208101919091526040016000205460ff1690508015612878579350610bc192505050565b600160006128878a898b611709565b815260208101919091526040016000205460ff1698975050505050505050565b73ffffffffffffffffffffffffffffffffffffffff82811660009081526003602090815260408083208151608081018352815486168082526001830154808816958301959095527401000000000000000000000000000000000000000090940460ff168184018190526002909201549095166060860181905291517f6a2f49180000000000000000000000000000000000000000000000000000000081526004810192909252602482018690526044820152919291636a2f491890606401602060405180830381865afa158015612982573d6000803e3d6000fd5b505050506040513d601f19601f820116820180604052508101906129a69190613399565b949350505050565b73ffffffffffffffffffffffffffffffffffffffff8381166000908152600360205260408082206001015490517fdd62ed3e0000000000000000000000000000000000000000000000000000000081528584166004820152306024820152919216908290829063dd62ed3e90604401602060405180830381865afa158015612a3a573d6000803e3d6000fd5b505050506040513d601f19601f82011682018060405250810190612a5e9190613399565b6040517f70a0823100000000000000000000000000000000000000000000000000000000815273ffffffffffffffffffffffffffffffffffffffff87811660048301529192506000918416906370a0823190602401602060405180830381865afa158015612ad0573d6000803e3d6000fd5b505050506040513d601f19601f82011682018060405250810190612af49190613399565b9050848110158015612b065750848210155b979650505050505050565b60008160026000612b228787611c1d565b815260200190815260200160002054101590509392505050565b600060e082013561010083013580821415612b58575092915050565b6129a682488301612c70565b6000612bc6826040518060400160405280602081526020017f5361666545524332303a206c6f772d6c6576656c2063616c6c206661696c65648152508573ffffffffffffffffffffffffffffffffffffffff16612c869092919063ffffffff16565b805190915015610cb95780806020019051810190612be491906138f1565b610cb9576040517f08c379a000000000000000000000000000000000000000000000000000000000815260206004820152602a60248201527f5361666545524332303a204552433230206f7065726174696f6e20646964206e60448201527f6f742073756363656564000000000000000000000000000000000000000000006064820152608401610982565b6000818310612c7f5781610bc1565b5090919050565b60606129a68484600085856000808673ffffffffffffffffffffffffffffffffffffffff168587604051612cba919061390e565b60006040518083038185875af1925050503d8060008114612cf7576040519150601f19603f3d011682016040523d82523d6000602084013e612cfc565b606091505b5091509150612b068783838760608315612d9b578251612d945773ffffffffffffffffffffffffffffffffffffffff85163b612d94576040517f08c379a000000000000000000000000000000000000000000000000000000000815260206004820152601d60248201527f416464726573733a2063616c6c20746f206e6f6e2d636f6e74726163740000006044820152606401610982565b50816129a6565b6129a68383815115612db05781518083602001fd5b806040517f08c379a0000000000000000000000000000000000000000000000000000000008152600401610982919061392a565b600060208284031215612df657600080fd5b813563ffffffff81168114610bc157600080fd5b73ffffffffffffffffffffffffffffffffffffffff81168114610b9657600080fd5b8015158114610b9657600080fd5b60008060408385031215612e4d57600080fd5b8235612e5881612e0a565b91506020830135612e6881612e2c565b809150509250929050565b60008060408385031215612e8657600080fd5b8235612e9181612e0a565b946020939093013593505050565b6020808252825182820181905260009190848201906040850190845b81811015612eed57835173ffffffffffffffffffffffffffffffffffffffff1683529284019291840191600101612ebb565b50909695505050505050565b600060208284031215612f0b57600080fd5b8135610bc181612e0a565b600080600060608486031215612f2b57600080fd5b8335612f3681612e0a565b92506020840135612f4681612e0a565b91506040840135612f5681612e0a565b809150509250925092565b600080600060608486031215612f7657600080fd5b8335612f8181612e0a565b92506020840135612f9181612e0a565b91506040840135612f5681612e2c565b60008060208385031215612fb457600080fd5b823567ffffffffffffffff80821115612fcc57600080fd5b818501915085601f830112612fe057600080fd5b813581811115612fef57600080fd5b8660208260051b850101111561300457600080fd5b60209290920196919550909350505050565b6000806040838503121561302957600080fd5b823561303481612e0a565b91506020830135612e6881612e0a565b60008060006060848603121561305957600080fd5b833561306481612e0a565b9250602084013561307481612e0a565b929592945050506040919091013590565b6000806000806060858703121561309b57600080fd5b8435600381106130aa57600080fd5b9350602085013567ffffffffffffffff808211156130c757600080fd5b818701915087601f8301126130db57600080fd5b8135818111156130ea57600080fd5b8860208285010111156130fc57600080fd5b95986020929092019750949560400135945092505050565b60006080828403121561312657600080fd5b50919050565b60006020828403121561313e57600080fd5b8135610bc181612e2c565b60008060006060848603121561315e57600080fd5b833567ffffffffffffffff81111561317557600080fd5b8401610160818703121561318857600080fd5b95602085013595506040909401359392505050565b60005b838110156131b85781810151838201526020016131a0565b838111156110e15750506000910152565b600081518084526131e181602086016020860161319d565b601f017fffffffffffffffffffffffffffffffffffffffffffffffffffffffffffffffe0169290920160200192915050565b60408152600061322660408301856131c9565b90508260208301529392505050565b7f4e487b7100000000000000000000000000000000000000000000000000000000600052603260045260246000fd5b60008083357fffffffffffffffffffffffffffffffffffffffffffffffffffffffffffffffe184360301811261329957600080fd5b83018035915067ffffffffffffffff8211156132b457600080fd5b6020019150368190038213156132c957600080fd5b9250929050565b600080858511156132e057600080fd5b838611156132ed57600080fd5b5050820193919092039150565b7fffffffff00000000000000000000000000000000000000000000000000000000813581811691600485101561333a5780818660040360031b1b83161692505b505092915050565b8183823760009101908152919050565b7f4e487b7100000000000000000000000000000000000000000000000000000000600052601160045260246000fd5b6000821982111561339457613394613352565b500190565b6000602082840312156133ab57600080fd5b5051919050565b81356133bd81612e0a565b81547fffffffffffffffffffffffff00000000000000000000000000000000000000001673ffffffffffffffffffffffffffffffffffffffff82161782555060018101602083013561340e81612e0a565b81547fffffffffffffffffffffffff00000000000000000000000000000000000000001673ffffffffffffffffffffffffffffffffffffffff821617825550604083013560ff8116811461346157600080fd5b81547fffffffffffffffffffffff00ffffffffffffffffffffffffffffffffffffffff1660a09190911b74ff00000000000000000000000000000000000000001617905560608201356134b381612e0a565b6002820180547fffffffffffffffffffffffff00000000000000000000000000000000000000001673ffffffffffffffffffffffffffffffffffffffff8316179055505050565b73ffffffffffffffffffffffffffffffffffffffff82168152604060208201526000610bc160408301600881527f6c6973744d6f6465000000000000000000000000000000000000000000000000602082015260400190565b73ffffffffffffffffffffffffffffffffffffffff84811682528381166020830152821660408201526080606082018190526009908201527f626c61636b6c697374000000000000000000000000000000000000000000000060a0820152600060c082015b95945050505050565b73ffffffffffffffffffffffffffffffffffffffff84811682528381166020830152821660408201526080606082018190526009908201527f77686974656c697374000000000000000000000000000000000000000000000060a0820152600060c082016135b8565b73ffffffffffffffffffffffffffffffffffffffff8381168252821660208201526060604082018190526008908201527f6c6973744d6f64650000000000000000000000000000000000000000000000006080820152600060a082016129a6565b73ffffffffffffffffffffffffffffffffffffffff8381168252821660208201526060604082018190526009908201527f626c61636b6c69737400000000000000000000000000000000000000000000006080820152600060a082016129a6565b6000828210156136fe576136fe613352565b500390565b60008060008060008060c0878903121561371c57600080fd5b863561372781612e0a565b9550602087013561373781612e0a565b9450604087013561374781612e0a565b959894975094956060810135955060808101359460a0909101359350915050565b6000817fffffffffffffffffffffffffffffffffffffffffffffffffffffffffffffffff04831182151516156137a0576137a0613352565b500290565b6000826137db577f4e487b7100000000000000000000000000000000000000000000000000000000600052601260045260246000fd5b500490565b73ffffffffffffffffffffffffffffffffffffffff848116825283166020820152606081016002831061383c577f4e487b7100000000000000000000000000000000000000000000000000000000600052602160045260246000fd5b826040830152949350505050565b73ffffffffffffffffffffffffffffffffffffffff8381168252821660208201526060604082018190526009908201527f77686974656c69737400000000000000000000000000000000000000000000006080820152600060a082016129a6565b7fffffffffffffffffffffffffffffffffffffffff000000000000000000000000813581811691601485101561333a5760149490940360031b84901b1690921692915050565b60006020828403121561390357600080fd5b8151610bc181612e2c565b6000825161392081846020870161319d565b9190910192915050565b602081526000610bc160208301846131c956fea26469706673582212202721c213bbde36ff7b174b09640f63ea7f108c42b6dcab8d8f3bfe5a699c157464736f6c634300080c0033","linkReferences":{},"deployedLinkReferences":{}}