{"_format":"hh-sol-artifact-1","contractName":"TokenPaymaster","sourceName":"contracts/paymaster/TokenPaymaster.sol","abi":[{"inputs":[{"internalType":"contract IEntryPoint","name":"_entryPoint","type":"address"}],"stateMutability":"nonpayable","type":"constructor"},{"anonymous":false,"inputs":[{"indexed":true,"internalType":"address","name":"previousOwner","type":"address"},{"indexed":true,"internalType":"address","name":"newOwner","type":"address"}],"name":"OwnershipTransferred","type":"event"},{"inputs":[],"name":"COST_OF_POST","outputs":[{"internalType":"uint256","name":"","type":"uint256"}],"stateMutability":"view","type":"function"},{"inputs":[],"name":"ETH","outputs":[{"internalType":"address","name":"","type":"address"}],"stateMutability":"view","type":"function"},{"inputs":[],"name":"VERSION","outputs":[{"internalType":"uint256","name":"","type":"uint256"}],"stateMutability":"view","type":"function"},{"inputs":[{"internalType":"address","name":"sponsor","type":"address"},{"internalType":"uint256","name":"amount","type":"uint256"}],"name":"addEthDepositTo","outputs":[],"stateMutability":"payable","type":"function"},{"inputs":[{"internalType":"uint32","name":"unstakeDelaySec","type":"uint32"}],"name":"addStake","outputs":[],"stateMutability":"payable","type":"function"},{"inputs":[{"internalType":"address","name":"token","type":"address"},{"internalType":"address","name":"spender","type":"address"},{"internalType":"uint256","name":"amount","type":"uint256"}],"name":"addTokenDepositTo","outputs":[],"stateMutability":"payable","type":"function"},{"inputs":[{"internalType":"bytes[]","name":"data","type":"bytes[]"}],"name":"batchActions","outputs":[],"stateMutability":"payable","type":"function"},{"inputs":[],"name":"deposit","outputs":[],"stateMutability":"payable","type":"function"},{"inputs":[],"name":"entryPoint","outputs":[{"internalType":"contract IEntryPoint","name":"","type":"address"}],"stateMutability":"view","type":"function"},{"inputs":[{"internalType":"address","name":"token","type":"address"},{"internalType":"address","name":"spender","type":"address"}],"name":"getAllTokenData","outputs":[{"internalType":"uint256","name":"unlockBlock","type":"uint256"},{"internalType":"uint256","name":"tokenAmount","type":"uint256"}],"stateMutability":"view","type":"function"},{"inputs":[],"name":"getAllTokens","outputs":[{"internalType":"address[]","name":"","type":"address[]"}],"stateMutability":"view","type":"function"},{"inputs":[],"name":"getDeposit","outputs":[{"internalType":"uint256","name":"","type":"uint256"}],"stateMutability":"view","type":"function"},{"inputs":[{"internalType":"address","name":"sponsor","type":"address"}],"name":"getListMode","outputs":[{"internalType":"bool","name":"","type":"bool"}],"stateMutability":"view","type":"function"},{"inputs":[{"internalType":"address","name":"spender","type":"address"},{"internalType":"address","name":"sponsor","type":"address"}],"name":"getSpenderBlacklisted","outputs":[{"internalType":"bool","name":"","type":"bool"}],"stateMutability":"view","type":"function"},{"inputs":[{"internalType":"address","name":"spender","type":"address"},{"internalType":"address","name":"sponsor","type":"address"}],"name":"getSpenderWhitelisted","outputs":[{"internalType":"bool","name":"","type":"bool"}],"stateMutability":"view","type":"function"},{"inputs":[{"internalType":"address","name":"token","type":"address"},{"internalType":"address","name":"sponsor","type":"address"}],"name":"getSponsorTokenUsage","outputs":[{"internalType":"bool","name":"","type":"bool"}],"stateMutability":"view","type":"function"},{"inputs":[{"internalType":"address","name":"token","type":"address"}],"name":"getToken","outputs":[{"components":[{"internalType":"contract ITokenPriceOracle","name":"oracle","type":"address"},{"internalType":"contract IERC20","name":"token","type":"address"},{"internalType":"uint8","name":"decimals","type":"uint8"},{"internalType":"address","name":"aggregator","type":"address"}],"internalType":"struct TokenData","name":"","type":"tuple"}],"stateMutability":"view","type":"function"},{"inputs":[{"internalType":"address","name":"token","type":"address"},{"internalType":"address","name":"spender","type":"address"}],"name":"getTokenBalance","outputs":[{"internalType":"uint256","name":"tokenAmount","type":"uint256"}],"stateMutability":"view","type":"function"},{"inputs":[{"internalType":"address","name":"token","type":"address"},{"internalType":"address","name":"spender","type":"address"}],"name":"getUnlockBlock","outputs":[{"internalType":"uint256","name":"unlockBlock","type":"uint256"}],"stateMutability":"view","type":"function"},{"inputs":[{"internalType":"address","name":"token","type":"address"}],"name":"lockTokenDeposit","outputs":[],"stateMutability":"payable","type":"function"},{"inputs":[],"name":"owner","outputs":[{"internalType":"address","name":"","type":"address"}],"stateMutability":"view","type":"function"},{"inputs":[{"internalType":"enum IPaymaster.PostOpMode","name":"mode","type":"uint8"},{"internalType":"bytes","name":"context","type":"bytes"},{"internalType":"uint256","name":"actualGasCost","type":"uint256"}],"name":"postOp","outputs":[],"stateMutability":"nonpayable","type":"function"},{"inputs":[{"internalType":"address[]","name":"_tokens","type":"address[]"}],"name":"removeTokens","outputs":[],"stateMutability":"nonpayable","type":"function"},{"inputs":[],"name":"renounceOwnership","outputs":[],"stateMutability":"nonpayable","type":"function"},{"inputs":[{"internalType":"bool","name":"mode","type":"bool"}],"name":"setListMode","outputs":[],"stateMutability":"payable","type":"function"},{"inputs":[{"internalType":"address","name":"spender","type":"address"},{"internalType":"bool","name":"mode","type":"bool"}],"name":"setSpenderBlacklistMode","outputs":[],"stateMutability":"payable","type":"function"},{"inputs":[{"internalType":"address","name":"spender","type":"address"},{"internalType":"bool","name":"mode","type":"bool"}],"name":"setSpenderWhitelistMode","outputs":[],"stateMutability":"payable","type":"function"},{"inputs":[{"components":[{"internalType":"contract ITokenPriceOracle","name":"oracle","type":"address"},{"internalType":"contract IERC20","name":"token","type":"address"},{"internalType":"uint8","name":"decimals","type":"uint8"},{"internalType":"address","name":"aggregator","type":"address"}],"internalType":"struct TokenData","name":"data","type":"tuple"}],"name":"setTokenData","outputs":[],"stateMutability":"nonpayable","type":"function"},{"inputs":[{"internalType":"address","name":"newOwner","type":"address"}],"name":"transferOwnership","outputs":[],"stateMutability":"nonpayable","type":"function"},{"inputs":[],"name":"unlockStake","outputs":[],"stateMutability":"nonpayable","type":"function"},{"inputs":[{"internalType":"address","name":"token","type":"address"},{"internalType":"uint256","name":"num","type":"uint256"}],"name":"unlockTokenDepositAfter","outputs":[],"stateMutability":"payable","type":"function"},{"inputs":[{"internalType":"address[]","name":"_tokens","type":"address[]"}],"name":"useTokens","outputs":[],"stateMutability":"nonpayable","type":"function"},{"inputs":[{"components":[{"internalType":"address","name":"sender","type":"address"},{"internalType":"uint256","name":"nonce","type":"uint256"},{"internalType":"bytes","name":"initCode","type":"bytes"},{"internalType":"bytes","name":"callData","type":"bytes"},{"internalType":"uint256","name":"callGasLimit","type":"uint256"},{"internalType":"uint256","name":"verificationGasLimit","type":"uint256"},{"internalType":"uint256","name":"preVerificationGas","type":"uint256"},{"internalType":"uint256","name":"maxFeePerGas","type":"uint256"},{"internalType":"uint256","name":"maxPriorityFeePerGas","type":"uint256"},{"internalType":"bytes","name":"paymasterAndData","type":"bytes"},{"internalType":"bytes","name":"signature","type":"bytes"}],"internalType":"struct UserOperation","name":"userOp","type":"tuple"},{"internalType":"bytes32","name":"userOpHash","type":"bytes32"},{"internalType":"uint256","name":"maxCost","type":"uint256"}],"name":"validatePaymasterUserOp","outputs":[{"internalType":"bytes","name":"context","type":"bytes"},{"internalType":"uint256","name":"sigTimeRange","type":"uint256"}],"stateMutability":"nonpayable","type":"function"},{"inputs":[{"internalType":"address","name":"target","type":"address"},{"internalType":"uint256","name":"amount","type":"uint256"}],"name":"withdrawEthDepositTo","outputs":[],"stateMutability":"payable","type":"function"},{"inputs":[{"internalType":"address payable","name":"withdrawAddress","type":"address"}],"name":"withdrawStake","outputs":[],"stateMutability":"nonpayable","type":"function"},{"inputs":[{"internalType":"address payable","name":"withdrawAddress","type":"address"},{"internalType":"uint256","name":"amount","type":"uint256"}],"name":"withdrawTo","outputs":[],"stateMutability":"nonpayable","type":"function"},{"inputs":[{"internalType":"address","name":"token","type":"address"},{"internalType":"address","name":"target","type":"address"},{"internalType":"uint256","name":"amount","type":"uint256"}],"name":"withdrawTokenDepositTo","outputs":[],"stateMutability":"payable","type":"function"}],"bytecode":"0x60a06040523480156200001157600080fd5b50604051620038c7380380620038c78339810160408190526200003491620000a3565b80620000403362000053565b6001600160a01b031660805250620000d5565b600080546001600160a01b038381166001600160a01b0319831681178455604051919092169283917f8be0079c531659141344cd1fd0a4f28419497f9722a3daafe3b4186f6b6457e09190a35050565b600060208284031215620000b657600080fd5b81516001600160a01b0381168114620000ce57600080fd5b9392505050565b60805161379762000130600039600081816105ce015281816107e2015281816108bd01528181610d8601528181610f9d0152818161102d01528181611107015281816116b301528181611a150152611ddb01526137976000f3fe60806040526004361061026a5760003560e01c8063a9a2340911610153578063d0e30db0116100cb578063db09992b1161007f578063f2fde38b11610064578063f2fde38b14610743578063f465c77e14610763578063ffa1ad741461079157600080fd5b8063db09992b1461071d578063e14199141461073057600080fd5b8063d3eccaff116100b0578063d3eccaff146106b5578063d4112961146106c8578063d56683a2146106fd57600080fd5b8063d0e30db01461068d578063d3a7263d1461069557600080fd5b8063bb9fe6bf11610122578063c23a5cea11610107578063c23a5cea14610638578063c399ec8814610658578063c489744b1461066d57600080fd5b8063bb9fe6bf14610610578063bbc0a1c11461062557600080fd5b8063a9a234091461057c578063b02736391461059c578063b0d691fe146105bc578063ba27ff31146105f057600080fd5b8063715018a6116101e65780637c3d169b116101b55780638da5cb5b1161019a5780638da5cb5b1461052b5780638fe2d83314610556578063a82e46681461056957600080fd5b80637c3d169b146104de5780638322fff2146104f157600080fd5b8063715018a61461047e578063728c5a3b1461049357806375fb91d9146104a6578063796d4371146104b957600080fd5b80632d1c850c1161023d5780635977043811610222578063597704381461033257806360a71f461461043e5780636c3824ef1461045e57600080fd5b80632d1c850c146102ef57806355d3ec671461030257600080fd5b80630396cb601461026f5780631015e33d14610284578063205c2878146102a45780632a5c792a146102c4575b600080fd5b61028261027d366004612e9b565b6107a6565b005b34801561029057600080fd5b5061028261029f366004612f0d565b610858565b3480156102b057600080fd5b506102826102bf366004612f71565b610869565b3480156102d057600080fd5b506102d9610901565b6040516102e69190612f9d565b60405180910390f35b6102826102fd366004612ff7565b610970565b34801561030e57600080fd5b5061032261031d366004613014565b61097f565b60405190151581526020016102e6565b34801561033e57600080fd5b506103ed61034d366004612ff7565b6040805160808101825260008082526020820181905291810182905260608101919091525073ffffffffffffffffffffffffffffffffffffffff90811660009081526003602090815260409182902082516080810184528154851681526001820154808616938201939093527401000000000000000000000000000000000000000090920460ff1692820192909252600290910154909116606082015290565b6040516102e69190815173ffffffffffffffffffffffffffffffffffffffff908116825260208084015182169083015260408084015160ff1690830152606092830151169181019190915260800190565b34801561044a57600080fd5b50610322610459366004612ff7565b6109ac565b34801561046a57600080fd5b50610282610479366004612f0d565b610a47565b34801561048a57600080fd5b50610282610a54565b6102826104a1366004612f0d565b610a68565b6102826104b436600461305b565b610d00565b3480156104c557600080fd5b506104d06201117081565b6040519081526020016102e6565b6102826104ec366004613078565b610d0a565b3480156104fd57600080fd5b50610506600081565b60405173ffffffffffffffffffffffffffffffffffffffff90911681526020016102e6565b34801561053757600080fd5b5060005473ffffffffffffffffffffffffffffffffffffffff16610506565b610282610564366004612f71565b610d16565b610282610577366004612f71565b610d2e565b34801561058857600080fd5b506102826105973660046130b9565b610d42565b3480156105a857600080fd5b506103226105b7366004613014565b610d5c565b3480156105c857600080fd5b506105067f000000000000000000000000000000000000000000000000000000000000000081565b3480156105fc57600080fd5b5061032261060b366004613014565b610d6c565b34801561061c57600080fd5b50610282610d7c565b610282610633366004613148565b610e00565b34801561064457600080fd5b50610282610653366004612ff7565b610f50565b34801561066457600080fd5b506104d0610ffc565b34801561067957600080fd5b506104d0610688366004613014565b6110b2565b6102826110d9565b3480156106a157600080fd5b506102826106b0366004613176565b611161565b6102826106c3366004612f71565b611229565b3480156106d457600080fd5b506106e86106e3366004613014565b611234565b604080519283526020830191909152016102e6565b34801561070957600080fd5b506104d0610718366004613014565b611256565b61028261072b366004613148565b611266565b61028261073e366004613078565b6113b7565b34801561074f57600080fd5b5061028261075e366004612ff7565b6113c3565b34801561076f57600080fd5b5061078361077e36600461318e565b611477565b6040516102e6929190613258565b34801561079d57600080fd5b506104d0600681565b6107ae61149a565b6040517f0396cb6000000000000000000000000000000000000000000000000000000000815263ffffffff821660048201527f000000000000000000000000000000000000000000000000000000000000000073ffffffffffffffffffffffffffffffffffffffff1690630396cb609034906024016000604051808303818588803b15801561083c57600080fd5b505af1158015610850573d6000803e3d6000fd5b505050505050565b610865828233600161151b565b5050565b61087161149a565b6040517f205c287800000000000000000000000000000000000000000000000000000000815273ffffffffffffffffffffffffffffffffffffffff8381166004830152602482018390527f0000000000000000000000000000000000000000000000000000000000000000169063205c287890604401600060405180830381600087803b15801561083c57600080fd5b6060600480548060200260200160405190810160405280929190818152602001828054801561096657602002820191906000526020600020905b815473ffffffffffffffffffffffffffffffffffffffff16815260019091019060200180831161093b575b5050505050905090565b61097c81336000611569565b50565b60006001600061098f858561158e565b815260208101919091526040016000205460ff1690505b92915050565b600060016000610a2d846040805173ffffffffffffffffffffffffffffffffffffffff8316602082015280820191909152600860608201527f6c6973744d6f6465000000000000000000000000000000000000000000000000608082015260009060a001604051602081830303815290604052805190602001209050919050565b815260208101919091526040016000205460ff1692915050565b610865828233600061151b565b610a5c61149a565b610a666000611610565b565b6000805b82811015610c6b577f8fe2d83300000000000000000000000000000000000000000000000000000000848483818110610aa757610aa761327a565b9050602002810190610ab991906132a9565b610ac89160049160009161330e565b610ad191613338565b7fffffffff00000000000000000000000000000000000000000000000000000000161415610b5657600080858584818110610b0e57610b0e61327a565b9050602002810190610b2091906132a9565b610b2e91600490829061330e565b810190610b3b9190612f71565b915091508084019350610b4f338383611685565b5050610c63565b600030858584818110610b6b57610b6b61327a565b9050602002810190610b7d91906132a9565b604051610b8b929190613380565b600060405180830381855af49150503d8060008114610bc6576040519150601f19603f3d011682016040523d82523d6000602084013e610bcb565b606091505b5050905080610c61576040517f08c379a000000000000000000000000000000000000000000000000000000000815260206004820152603360248201527f546f6b656e5061796d61737465723a20696e7465726e616c206261746368656460448201527f207472616e73616374696f6e206661696c65640000000000000000000000000060648201526084015b60405180910390fd5b505b600101610a6c565b50348114610cfb576040517f08c379a000000000000000000000000000000000000000000000000000000000815260206004820152603860248201527f546f6b656e5061796d61737465723a20426174636865642076616c756520697360448201527f206e6f7420657175616c20746f2073656e742076616c756500000000000000006064820152608401610c58565b505050565b61097c3382611786565b610cfb83338484611847565b80341015610d2357600080fd5b610865338383611685565b6108658233610d3d84436133bf565b611569565b610d4a6119fd565b610d5684848484611a3f565b50505050565b60006001600061098f8585611b23565b60006001600061098f8585611b58565b610d8461149a565b7f000000000000000000000000000000000000000000000000000000000000000073ffffffffffffffffffffffffffffffffffffffff1663bb9fe6bf6040518163ffffffff1660e01b8152600401600060405180830381600087803b158015610dec57600080fd5b505af1158015610d56573d6000803e3d6000fd5b60016000610e7f336040805173ffffffffffffffffffffffffffffffffffffffff8316602082015280820191909152600860608201527f6c6973744d6f6465000000000000000000000000000000000000000000000000608082015260009060a001604051602081830303815290604052805190602001209050919050565b815260208101919091526040016000205460ff16610f45576040517f08c379a000000000000000000000000000000000000000000000000000000000815260206004820152604960248201527f546f6b656e5061796d61737465723a206d6f64652069732073657420746f207760448201527f686974656c6973742063616e206e6f7420616464207370656e64657220746f2060648201527f626c61636b6c6973740000000000000000000000000000000000000000000000608482015260a401610c58565b610865338383611bc0565b610f5861149a565b6040517fc23a5cea00000000000000000000000000000000000000000000000000000000815273ffffffffffffffffffffffffffffffffffffffff82811660048301527f0000000000000000000000000000000000000000000000000000000000000000169063c23a5cea90602401600060405180830381600087803b158015610fe157600080fd5b505af1158015610ff5573d6000803e3d6000fd5b5050505050565b6040517f70a082310000000000000000000000000000000000000000000000000000000081523060048201526000907f000000000000000000000000000000000000000000000000000000000000000073ffffffffffffffffffffffffffffffffffffffff16906370a0823190602401602060405180830381865afa158015611089573d6000803e3d6000fd5b505050506040513d601f19601f820116820180604052508101906110ad91906133d7565b905090565b6000600260006110c28585611c11565b815260200190815260200160002054905092915050565b6040517fb760faf90000000000000000000000000000000000000000000000000000000081523060048201527f000000000000000000000000000000000000000000000000000000000000000073ffffffffffffffffffffffffffffffffffffffff169063b760faf99034906024016000604051808303818588803b158015610fe157600080fd5b61116961149a565b600061117b6040830160208401612ff7565b73ffffffffffffffffffffffffffffffffffffffff8116600090815260036020526040902090915082906111af82826133f0565b5050600480546001810182556000919091527f8a35acfbc15ff81a39ae7d344fd709f28e8600b4aa8c65c6b64bfe7fe36bd19b0180547fffffffffffffffffffffffff00000000000000000000000000000000000000001673ffffffffffffffffffffffffffffffffffffffff9290921691909117905550565b610865338383611c26565b6000806112418484611256565b915061124d84846110b2565b90509250929050565b6000600260006110c28585611e3d565b600160006112e5846040805173ffffffffffffffffffffffffffffffffffffffff8316602082015280820191909152600860608201527f6c6973744d6f6465000000000000000000000000000000000000000000000000608082015260009060a001604051602081830303815290604052805190602001209050919050565b815260208101919091526040016000205460ff16156113ac576040517f08c379a000000000000000000000000000000000000000000000000000000000815260206004820152604960248201527f546f6b656e5061796d61737465723a206d6f64652069732073657420746f206260448201527f6c61636b6c6973742063616e206e6f7420616464207370656e64657220746f2060648201527f77686974656c6973740000000000000000000000000000000000000000000000608482015260a401610c58565b610865338383611e4b565b610cfb83338484611e5a565b6113cb61149a565b73ffffffffffffffffffffffffffffffffffffffff811661146e576040517f08c379a000000000000000000000000000000000000000000000000000000000815260206004820152602660248201527f4f776e61626c653a206e6577206f776e657220697320746865207a65726f206160448201527f64647265737300000000000000000000000000000000000000000000000000006064820152608401610c58565b61097c81611610565b606060006114836119fd565b61148e858585611fab565b91509150935093915050565b60005473ffffffffffffffffffffffffffffffffffffffff163314610a66576040517f08c379a000000000000000000000000000000000000000000000000000000000815260206004820181905260248201527f4f776e61626c653a2063616c6c6572206973206e6f7420746865206f776e65726044820152606401610c58565b60005b83811015610ff55761155785858381811061153b5761153b61327a565b90506020020160208101906115509190612ff7565b8484612596565b8061156181613538565b91505061151e565b80600260006115788686611e3d565b8152602081019190915260400160002055505050565b6040805173ffffffffffffffffffffffffffffffffffffffff8085166020830152831691810191909152606080820152600960808201527f77686974656c697374000000000000000000000000000000000000000000000060a082015260009060c0015b60405160208183030381529060405280519060200120905092915050565b6000805473ffffffffffffffffffffffffffffffffffffffff8381167fffffffffffffffffffffffff0000000000000000000000000000000000000000831681178455604051919092169283917f8be0079c531659141344cd1fd0a4f28419497f9722a3daafe3b4186f6b6457e09190a35050565b6040517fb760faf90000000000000000000000000000000000000000000000000000000081523060048201527f000000000000000000000000000000000000000000000000000000000000000073ffffffffffffffffffffffffffffffffffffffff169063b760faf99083906024016000604051808303818588803b15801561170d57600080fd5b505af1158015611721573d6000803e3d6000fd5b50505050508060026000611736600086611c11565b8152602001908152602001600020600082825461175391906133bf565b909155505073ffffffffffffffffffffffffffffffffffffffff8381169083161415610cfb57610cfb6000846000611569565b8060016000611806856040805173ffffffffffffffffffffffffffffffffffffffff8316602082015280820191909152600860608201527f6c6973744d6f6465000000000000000000000000000000000000000000000000608082015260009060a001604051602081830303815290604052805190602001209050919050565b8152602081019190915260400160002080547fffffffffffffffffffffffffffffffffffffffffffffffffffffffffffffff00169115159190911790555050565b60006118538585611256565b905060006118618686611c11565b9050811580159061187157508143115b6118fd576040517f08c379a000000000000000000000000000000000000000000000000000000000815260206004820152602760248201527f546f6b656e5061796d61737465723a206d75737420756e6c6f636b546f6b656e60448201527f4465706f736974000000000000000000000000000000000000000000000000006064820152608401610c58565b60008181526002602052604090205483111561199b576040517f08c379a000000000000000000000000000000000000000000000000000000000815260206004820152602a60248201527f546f6b656e5061796d61737465723a20646f6573206e6f74206861766520656e60448201527f6f7567682066756e6473000000000000000000000000000000000000000000006064820152608401610c58565b600081815260026020526040812080548592906119b9908490613571565b909155505073ffffffffffffffffffffffffffffffffffffffff808716600090815260036020526040902060010154166119f48186866125e3565b50505050505050565b3373ffffffffffffffffffffffffffffffffffffffff7f00000000000000000000000000000000000000000000000000000000000000001614610a6657600080fd5b60008080808080611a52888a018a613588565b955095509550955095509550600081838562011170611a7191906135ed565b611a7b908b6133bf565b611a8591906135ed565b611a8f919061362a565b9050611a9c8588836126b7565b8060026000611aab888a611c11565b81526020019081526020016000206000828254611ac891906133bf565b90915550611adb905084620111706135ed565b611ae590896133bf565b60026000611af460008a611c11565b81526020019081526020016000206000828254611b119190613571565b90915550505050505050505050505050565b6040805173ffffffffffffffffffffffffffffffffffffffff80851660208301528316918101919091526000906060016115f2565b6040805173ffffffffffffffffffffffffffffffffffffffff8085166020830152831691810191909152606080820152600960808201527f626c61636b6c697374000000000000000000000000000000000000000000000060a082015260009060c0016115f2565b8060016000611bcf8686611b58565b8152602081019190915260400160002080547fffffffffffffffffffffffffffffffffffffffffffffffffffffffffffffff0016911515919091179055505050565b6000611c1f838360016127d3565b9392505050565b6000611c33600085611c11565b9050611c40600085611256565b4311611cce576040517f08c379a000000000000000000000000000000000000000000000000000000000815260206004820152602760248201527f546f6b656e5061796d61737465723a206d75737420756e6c6f636b546f6b656e60448201527f4465706f736974000000000000000000000000000000000000000000000000006064820152608401610c58565b600081815260026020526040902054821115611d6c576040517f08c379a000000000000000000000000000000000000000000000000000000000815260206004820152602a60248201527f546f6b656e5061796d61737465723a20646f6573206e6f74206861766520656e60448201527f6f7567682066756e6473000000000000000000000000000000000000000000006064820152608401610c58565b60008181526002602052604081208054849290611d8a908490613571565b90915550506040517f205c287800000000000000000000000000000000000000000000000000000000815273ffffffffffffffffffffffffffffffffffffffff8481166004830152602482018490527f0000000000000000000000000000000000000000000000000000000000000000169063205c287890604401600060405180830381600087803b158015611e1f57600080fd5b505af1158015611e33573d6000803e3d6000fd5b5050505050505050565b6000611c1f838360006127d3565b8060016000611bcf868661158e565b73ffffffffffffffffffffffffffffffffffffffff841660009081526003602052604090206001015474010000000000000000000000000000000000000000900460ff16611f29576040517f08c379a0000000000000000000000000000000000000000000000000000000008152602060048201526024808201527f546f6b656e5061796d61737465723a20546f6b656e20646f6573206e6f74206560448201527f78697374000000000000000000000000000000000000000000000000000000006064820152608401610c58565b73ffffffffffffffffffffffffffffffffffffffff808516600090815260036020526040812060010154909116908290600290611f668887611c11565b81526020019081526020016000206000828254611f8391906133bf565b90915550610ff5905073ffffffffffffffffffffffffffffffffffffffff8216853085612809565b60606000611fbd6101208601866132a9565b9050603c1461204e576040517f08c379a000000000000000000000000000000000000000000000000000000000815260206004820152603560248201527f546f6b656e5061796d61737465723a207061796d6173746572416e644461746160448201527f206d75737420737065636966792073706f6e736f7200000000000000000000006064820152608401610c58565b620111708560a00135116120e4576040517f08c379a000000000000000000000000000000000000000000000000000000000815260206004820152602660248201527f546f6b656e5061796d61737465723a2067617320746f6f206c6f7720666f722060448201527f706f73744f7000000000000000000000000000000000000000000000000000006064820152608401610c58565b60006120f46101208701876132a9565b6121039160289160149161330e565b61210c91613665565b60601c905060006121216101208801886132a9565b61212f91602890829061330e565b61213891613665565b60601c905060006002600061214e600086611e3d565b8152602001908152602001600020549050806000148061216d57504381115b6121d3576040517f08c379a000000000000000000000000000000000000000000000000000000000815260206004820152601c60248201527f546f6b656e5061796d61737465723a205374616b65204c6f636b6564000000006044820152606401610c58565b873560006002816121e48685611e3d565b8152602001908152602001600020549050600060026000612206600089611c11565b8152602001908152602001600020549050816000148061222557504382115b6122b1576040517f08c379a000000000000000000000000000000000000000000000000000000000815260206004820152602260248201527f546f6b656e5061796d61737465723a206465706f736974206e6f74206c6f636b60448201527f65640000000000000000000000000000000000000000000000000000000000006064820152608401610c58565b88811015612341576040517f08c379a000000000000000000000000000000000000000000000000000000000815260206004820152602c60248201527f546f6b656e5061796d61737465723a20646f6573206e6f74206861766520656e60448201527f6f75676820746f2066756e6400000000000000000000000000000000000000006064820152608401610c58565b61234b8387612867565b6123d7576040517f08c379a000000000000000000000000000000000000000000000000000000000815260206004820152603360248201527f546f6b656e5061796d61737465723a20686173206e6f74206f7220646f65732060448201527f6e6f7420617070726f7665207370656e646572000000000000000000000000006064820152608401610c58565b6123e18587610d5c565b61246d576040517f08c379a000000000000000000000000000000000000000000000000000000000815260206004820152602e60248201527f546f6b656e5061796d61737465723a2073706f6e736f7220646f6573206e6f7460448201527f20737570706f727420746f6b656e0000000000000000000000000000000000006064820152608401610c58565b6000612479868b61295e565b9050612486868583612a65565b806124975750612497868583612bc8565b612523576040517f08c379a000000000000000000000000000000000000000000000000000000000815260206004820152602360248201527f546f6b656e5061796d61737465723a207370656e6465722063616e206e6f742060448201527f70617900000000000000000000000000000000000000000000000000000000006064820152608401610c58565b600061252e8d612bf3565b6040805173ffffffffffffffffffffffffffffffffffffffff97881660208201529987168a820152979095166060890152506080870193909352505060a08401525060c0808301959095528051808303909501855260e0909101905250909360009350915050565b60006125a28484611b23565b600090815260016020526040902080547fffffffffffffffffffffffffffffffffffffffffffffffffffffffffffffff001692151592909217909155505050565b60405173ffffffffffffffffffffffffffffffffffffffff8316602482015260448101829052610cfb9084907fa9059cbb00000000000000000000000000000000000000000000000000000000906064015b604080517fffffffffffffffffffffffffffffffffffffffffffffffffffffffffffffffe08184030181529190526020810180517bffffffffffffffffffffffffffffffffffffffffffffffffffffffff167fffffffff0000000000000000000000000000000000000000000000000000000090931692909217909152612c1b565b6126c2838383612a65565b156126fe5773ffffffffffffffffffffffffffffffffffffffff80841660009081526003602052604090206001015416610d5681843085612809565b600061270a8484611c11565b6000818152600260205260409020549091508211156127aa576040517f08c379a0000000000000000000000000000000000000000000000000000000008152602060048201526024808201527f546f6b656e5061796d61737465723a20446f6573206e6f74206861766520746f60448201527f6b656e73000000000000000000000000000000000000000000000000000000006064820152608401610c58565b600081815260026020526040812080548492906127c8908490613571565b909155505050505050565b60008383836040516020016127ea939291906136ab565b6040516020818303038152906040528051906020012090509392505050565b60405173ffffffffffffffffffffffffffffffffffffffff80851660248301528316604482015260648101829052610d569085907f23b872dd0000000000000000000000000000000000000000000000000000000090608401612635565b600080600160006128e9856040805173ffffffffffffffffffffffffffffffffffffffff8316602082015280820191909152600860608201527f6c6973744d6f6465000000000000000000000000000000000000000000000000608082015260009060a001604051602081830303815290604052805190602001209050919050565b815260208101919091526040016000205460ff1690508015612934576000600160006129158787611b58565b815260208101919091526040016000205460ff161592506109a6915050565b60016000612942868661158e565b815260208101919091526040016000205460ff16949350505050565b73ffffffffffffffffffffffffffffffffffffffff82811660009081526003602090815260408083208151608081018352815486168082526001830154808816958301959095527401000000000000000000000000000000000000000090940460ff168184018190526002909201549095166060860181905291517f6a2f49180000000000000000000000000000000000000000000000000000000081526004810192909252602482018690526044820152919291636a2f491890606401602060405180830381865afa158015612a39573d6000803e3d6000fd5b505050506040513d601f19601f82011682018060405250810190612a5d91906133d7565b949350505050565b73ffffffffffffffffffffffffffffffffffffffff8381166000908152600360205260408082206001015490517fdd62ed3e0000000000000000000000000000000000000000000000000000000081528584166004820152306024820152919216908290829063dd62ed3e90604401602060405180830381865afa158015612af1573d6000803e3d6000fd5b505050506040513d601f19601f82011682018060405250810190612b1591906133d7565b6040517f70a0823100000000000000000000000000000000000000000000000000000000815273ffffffffffffffffffffffffffffffffffffffff87811660048301529192506000918416906370a0823190602401602060405180830381865afa158015612b87573d6000803e3d6000fd5b505050506040513d601f19601f82011682018060405250810190612bab91906133d7565b9050848110158015612bbd5750848210155b979650505050505050565b60008160026000612bd98787611c11565b815260200190815260200160002054101590509392505050565b600060e082013561010083013580821415612c0f575092915050565b612a5d82488301612d27565b6000612c7d826040518060400160405280602081526020017f5361666545524332303a206c6f772d6c6576656c2063616c6c206661696c65648152508573ffffffffffffffffffffffffffffffffffffffff16612d3d9092919063ffffffff16565b805190915015610cfb5780806020019051810190612c9b9190613715565b610cfb576040517f08c379a000000000000000000000000000000000000000000000000000000000815260206004820152602a60248201527f5361666545524332303a204552433230206f7065726174696f6e20646964206e60448201527f6f742073756363656564000000000000000000000000000000000000000000006064820152608401610c58565b6000818310612d365781611c1f565b5090919050565b6060612a5d8484600085856000808673ffffffffffffffffffffffffffffffffffffffff168587604051612d719190613732565b60006040518083038185875af1925050503d8060008114612dae576040519150601f19603f3d011682016040523d82523d6000602084013e612db3565b606091505b5091509150612bbd8783838760608315612e52578251612e4b5773ffffffffffffffffffffffffffffffffffffffff85163b612e4b576040517f08c379a000000000000000000000000000000000000000000000000000000000815260206004820152601d60248201527f416464726573733a2063616c6c20746f206e6f6e2d636f6e74726163740000006044820152606401610c58565b5081612a5d565b612a5d8383815115612e675781518083602001fd5b806040517f08c379a0000000000000000000000000000000000000000000000000000000008152600401610c58919061374e565b600060208284031215612ead57600080fd5b813563ffffffff81168114611c1f57600080fd5b60008083601f840112612ed357600080fd5b50813567ffffffffffffffff811115612eeb57600080fd5b6020830191508360208260051b8501011115612f0657600080fd5b9250929050565b60008060208385031215612f2057600080fd5b823567ffffffffffffffff811115612f3757600080fd5b612f4385828601612ec1565b90969095509350505050565b73ffffffffffffffffffffffffffffffffffffffff8116811461097c57600080fd5b60008060408385031215612f8457600080fd5b8235612f8f81612f4f565b946020939093013593505050565b6020808252825182820181905260009190848201906040850190845b81811015612feb57835173ffffffffffffffffffffffffffffffffffffffff1683529284019291840191600101612fb9565b50909695505050505050565b60006020828403121561300957600080fd5b8135611c1f81612f4f565b6000806040838503121561302757600080fd5b823561303281612f4f565b9150602083013561304281612f4f565b809150509250929050565b801515811461097c57600080fd5b60006020828403121561306d57600080fd5b8135611c1f8161304d565b60008060006060848603121561308d57600080fd5b833561309881612f4f565b925060208401356130a881612f4f565b929592945050506040919091013590565b600080600080606085870312156130cf57600080fd5b8435600381106130de57600080fd5b9350602085013567ffffffffffffffff808211156130fb57600080fd5b818701915087601f83011261310f57600080fd5b81358181111561311e57600080fd5b88602082850101111561313057600080fd5b95986020929092019750949560400135945092505050565b6000806040838503121561315b57600080fd5b823561316681612f4f565b915060208301356130428161304d565b60006080828403121561318857600080fd5b50919050565b6000806000606084860312156131a357600080fd5b833567ffffffffffffffff8111156131ba57600080fd5b840161016081870312156131cd57600080fd5b95602085013595506040909401359392505050565b60005b838110156131fd5781810151838201526020016131e5565b83811115610d565750506000910152565b600081518084526132268160208601602086016131e2565b601f017fffffffffffffffffffffffffffffffffffffffffffffffffffffffffffffffe0169290920160200192915050565b60408152600061326b604083018561320e565b90508260208301529392505050565b7f4e487b7100000000000000000000000000000000000000000000000000000000600052603260045260246000fd5b60008083357fffffffffffffffffffffffffffffffffffffffffffffffffffffffffffffffe18436030181126132de57600080fd5b83018035915067ffffffffffffffff8211156132f957600080fd5b602001915036819003821315612f0657600080fd5b6000808585111561331e57600080fd5b8386111561332b57600080fd5b5050820193919092039150565b7fffffffff0000000000000000000000000000000000000000000000000000000081358181169160048510156133785780818660040360031b1b83161692505b505092915050565b8183823760009101908152919050565b7f4e487b7100000000000000000000000000000000000000000000000000000000600052601160045260246000fd5b600082198211156133d2576133d2613390565b500190565b6000602082840312156133e957600080fd5b5051919050565b81356133fb81612f4f565b81547fffffffffffffffffffffffff00000000000000000000000000000000000000001673ffffffffffffffffffffffffffffffffffffffff82161782555060018101602083013561344c81612f4f565b81547fffffffffffffffffffffffff00000000000000000000000000000000000000001673ffffffffffffffffffffffffffffffffffffffff821617825550604083013560ff8116811461349f57600080fd5b81547fffffffffffffffffffffff00ffffffffffffffffffffffffffffffffffffffff1660a09190911b74ff00000000000000000000000000000000000000001617905560608201356134f181612f4f565b6002820180547fffffffffffffffffffffffff00000000000000000000000000000000000000001673ffffffffffffffffffffffffffffffffffffffff8316179055505050565b60007fffffffffffffffffffffffffffffffffffffffffffffffffffffffffffffffff82141561356a5761356a613390565b5060010190565b60008282101561358357613583613390565b500390565b60008060008060008060c087890312156135a157600080fd5b86356135ac81612f4f565b955060208701356135bc81612f4f565b945060408701356135cc81612f4f565b959894975094956060810135955060808101359460a0909101359350915050565b6000817fffffffffffffffffffffffffffffffffffffffffffffffffffffffffffffffff048311821515161561362557613625613390565b500290565b600082613660577f4e487b7100000000000000000000000000000000000000000000000000000000600052601260045260246000fd5b500490565b7fffffffffffffffffffffffffffffffffffffffff00000000000000000000000081358181169160148510156133785760149490940360031b84901b1690921692915050565b73ffffffffffffffffffffffffffffffffffffffff8481168252831660208201526060810160028310613707577f4e487b7100000000000000000000000000000000000000000000000000000000600052602160045260246000fd5b826040830152949350505050565b60006020828403121561372757600080fd5b8151611c1f8161304d565b600082516137448184602087016131e2565b9190910192915050565b602081526000611c1f602083018461320e56fea2646970667358221220294039588b82087c77867e781198f267033feb8a96381d4780a763dbb588664064736f6c634300080c0033","linkReferences":{},"deployedLinkReferences":{}}