{"_format":"hh-sol-artifact-1","contractName":"TokenPaymaster","sourceName":"contracts/paymaster/TokenPaymaster.sol","abi":[{"inputs":[{"internalType":"contract IEntryPoint","name":"_entryPoint","type":"address"}],"stateMutability":"nonpayable","type":"constructor"},{"anonymous":false,"inputs":[{"indexed":true,"internalType":"address","name":"previousOwner","type":"address"},{"indexed":true,"internalType":"address","name":"newOwner","type":"address"}],"name":"OwnershipTransferred","type":"event"},{"inputs":[],"name":"COST_OF_POST","outputs":[{"internalType":"uint256","name":"","type":"uint256"}],"stateMutability":"view","type":"function"},{"inputs":[],"name":"ETH","outputs":[{"internalType":"address","name":"","type":"address"}],"stateMutability":"view","type":"function"},{"inputs":[{"internalType":"address","name":"sponsor","type":"address"},{"internalType":"uint256","name":"amount","type":"uint256"}],"name":"addEthDepositTo","outputs":[],"stateMutability":"payable","type":"function"},{"inputs":[{"internalType":"uint32","name":"unstakeDelaySec","type":"uint32"}],"name":"addStake","outputs":[],"stateMutability":"payable","type":"function"},{"inputs":[{"internalType":"address","name":"token","type":"address"},{"internalType":"address","name":"spender","type":"address"},{"internalType":"uint256","name":"amount","type":"uint256"}],"name":"addTokenDepositTo","outputs":[],"stateMutability":"payable","type":"function"},{"inputs":[{"internalType":"bytes[]","name":"data","type":"bytes[]"}],"name":"batchActions","outputs":[],"stateMutability":"payable","type":"function"},{"inputs":[],"name":"deposit","outputs":[],"stateMutability":"payable","type":"function"},{"inputs":[],"name":"entryPoint","outputs":[{"internalType":"contract IEntryPoint","name":"","type":"address"}],"stateMutability":"view","type":"function"},{"inputs":[{"internalType":"address","name":"token","type":"address"},{"internalType":"address","name":"spender","type":"address"}],"name":"getAllTokenData","outputs":[{"internalType":"uint256","name":"unlockBlock","type":"uint256"},{"internalType":"uint256","name":"tokenAmount","type":"uint256"}],"stateMutability":"view","type":"function"},{"inputs":[],"name":"getAllTokens","outputs":[{"internalType":"address[]","name":"","type":"address[]"}],"stateMutability":"view","type":"function"},{"inputs":[],"name":"getDeposit","outputs":[{"internalType":"uint256","name":"","type":"uint256"}],"stateMutability":"view","type":"function"},{"inputs":[{"internalType":"address","name":"token","type":"address"}],"name":"getToken","outputs":[{"components":[{"internalType":"contract ITokenPriceOracle","name":"oracle","type":"address"},{"internalType":"contract IERC20","name":"token","type":"address"},{"internalType":"uint8","name":"decimals","type":"uint8"},{"internalType":"contract AggregatorV3Interface","name":"aggregator","type":"address"}],"internalType":"struct TokenData","name":"","type":"tuple"}],"stateMutability":"view","type":"function"},{"inputs":[{"internalType":"address","name":"token","type":"address"},{"internalType":"address","name":"spender","type":"address"}],"name":"getTokenBalance","outputs":[{"internalType":"uint256","name":"tokenAmount","type":"uint256"}],"stateMutability":"view","type":"function"},{"inputs":[{"internalType":"address","name":"token","type":"address"},{"internalType":"address","name":"spender","type":"address"}],"name":"getUnlockBlock","outputs":[{"internalType":"uint256","name":"unlockBlock","type":"uint256"}],"stateMutability":"view","type":"function"},{"inputs":[{"internalType":"address","name":"token","type":"address"}],"name":"lockTokenDeposit","outputs":[],"stateMutability":"payable","type":"function"},{"inputs":[],"name":"owner","outputs":[{"internalType":"address","name":"","type":"address"}],"stateMutability":"view","type":"function"},{"inputs":[{"internalType":"enum IPaymaster.PostOpMode","name":"mode","type":"uint8"},{"internalType":"bytes","name":"context","type":"bytes"},{"internalType":"uint256","name":"actualGasCost","type":"uint256"}],"name":"postOp","outputs":[],"stateMutability":"nonpayable","type":"function"},{"inputs":[],"name":"renounceOwnership","outputs":[],"stateMutability":"nonpayable","type":"function"},{"inputs":[{"internalType":"bool","name":"mode","type":"bool"}],"name":"setGlobalBlacklistMode","outputs":[],"stateMutability":"payable","type":"function"},{"inputs":[{"internalType":"address","name":"token","type":"address"},{"internalType":"address","name":"spender","type":"address"},{"internalType":"bool","name":"mode","type":"bool"}],"name":"setSpenderTokenBlacklistMode","outputs":[],"stateMutability":"payable","type":"function"},{"inputs":[{"internalType":"address","name":"token","type":"address"},{"internalType":"address","name":"spender","type":"address"},{"internalType":"bool","name":"mode","type":"bool"}],"name":"setSpenderTokenWhitelistMode","outputs":[],"stateMutability":"payable","type":"function"},{"inputs":[{"internalType":"address","name":"spender","type":"address"},{"internalType":"bool","name":"mode","type":"bool"}],"name":"setSpenderTotalBlackListMode","outputs":[],"stateMutability":"payable","type":"function"},{"inputs":[{"internalType":"address","name":"spender","type":"address"},{"internalType":"bool","name":"mode","type":"bool"}],"name":"setSpenderTotalWhitelistMode","outputs":[],"stateMutability":"payable","type":"function"},{"inputs":[{"internalType":"address","name":"token","type":"address"},{"internalType":"bool","name":"mode","type":"bool"}],"name":"setTokenBlacklistMode","outputs":[],"stateMutability":"payable","type":"function"},{"inputs":[{"components":[{"internalType":"contract ITokenPriceOracle","name":"oracle","type":"address"},{"internalType":"contract IERC20","name":"token","type":"address"},{"internalType":"uint8","name":"decimals","type":"uint8"},{"internalType":"contract AggregatorV3Interface","name":"aggregator","type":"address"}],"internalType":"struct TokenData","name":"data","type":"tuple"}],"name":"setTokenData","outputs":[],"stateMutability":"nonpayable","type":"function"},{"inputs":[{"internalType":"address","name":"newOwner","type":"address"}],"name":"transferOwnership","outputs":[],"stateMutability":"nonpayable","type":"function"},{"inputs":[],"name":"unlockStake","outputs":[],"stateMutability":"nonpayable","type":"function"},{"inputs":[{"internalType":"address","name":"token","type":"address"},{"internalType":"uint256","name":"num","type":"uint256"}],"name":"unlockTokenDepositAfter","outputs":[],"stateMutability":"payable","type":"function"},{"inputs":[{"components":[{"internalType":"address","name":"sender","type":"address"},{"internalType":"uint256","name":"nonce","type":"uint256"},{"internalType":"bytes","name":"initCode","type":"bytes"},{"internalType":"bytes","name":"callData","type":"bytes"},{"internalType":"uint256","name":"callGasLimit","type":"uint256"},{"internalType":"uint256","name":"verificationGasLimit","type":"uint256"},{"internalType":"uint256","name":"preVerificationGas","type":"uint256"},{"internalType":"uint256","name":"maxFeePerGas","type":"uint256"},{"internalType":"uint256","name":"maxPriorityFeePerGas","type":"uint256"},{"internalType":"bytes","name":"paymasterAndData","type":"bytes"},{"internalType":"bytes","name":"signature","type":"bytes"}],"internalType":"struct UserOperation","name":"userOp","type":"tuple"},{"internalType":"bytes32","name":"userOpHash","type":"bytes32"},{"internalType":"uint256","name":"maxCost","type":"uint256"}],"name":"validatePaymasterUserOp","outputs":[{"internalType":"bytes","name":"context","type":"bytes"},{"internalType":"uint256","name":"sigTimeRange","type":"uint256"}],"stateMutability":"nonpayable","type":"function"},{"inputs":[{"internalType":"address","name":"target","type":"address"},{"internalType":"uint256","name":"amount","type":"uint256"}],"name":"withdrawEthDepositTo","outputs":[],"stateMutability":"payable","type":"function"},{"inputs":[{"internalType":"address payable","name":"withdrawAddress","type":"address"}],"name":"withdrawStake","outputs":[],"stateMutability":"nonpayable","type":"function"},{"inputs":[{"internalType":"address payable","name":"withdrawAddress","type":"address"},{"internalType":"uint256","name":"amount","type":"uint256"}],"name":"withdrawTo","outputs":[],"stateMutability":"nonpayable","type":"function"},{"inputs":[{"internalType":"address","name":"token","type":"address"},{"internalType":"address","name":"target","type":"address"},{"internalType":"uint256","name":"amount","type":"uint256"}],"name":"withdrawTokenDepositTo","outputs":[],"stateMutability":"payable","type":"function"}],"bytecode":"0x60a06040523480156200001157600080fd5b50604051620037e5380380620037e58339810160408190526200003491620000a3565b80620000403362000053565b6001600160a01b031660805250620000d5565b600080546001600160a01b038381166001600160a01b0319831681178455604051919092169283917f8be0079c531659141344cd1fd0a4f28419497f9722a3daafe3b4186f6b6457e09190a35050565b600060208284031215620000b657600080fd5b81516001600160a01b0381168114620000ce57600080fd5b9392505050565b6080516136bc62000129600039600081816104fe015281816106ca0152818161088701528181610eeb01528181610fb2015281816110420152818161111c015281816115d6015261188701526136bc6000f3fe6080604052600436106101fe5760003560e01c80638fe2d8331161011d578063d0e30db0116100b0578063d56683a21161007f578063edb95d1011610064578063edb95d101461062d578063f2fde38b14610640578063f465c77e1461066057600080fd5b8063d56683a2146105fa578063e14199141461061a57600080fd5b8063d0e30db01461058a578063d3a7263d14610592578063d3eccaff146105b2578063d4112961146105c557600080fd5b8063bb9fe6bf116100ec578063bb9fe6bf14610520578063c23a5cea14610535578063c399ec8814610555578063c489744b1461056a57600080fd5b80638fe2d833146104a6578063a82e4668146104b9578063a9a23409146104cc578063b0d691fe146104ec57600080fd5b80635a2f0bb8116101955780637c3d169b116101645780637c3d169b1461041b57806380ffac2e1461042e5780638322fff2146104415780638da5cb5b1461047b57600080fd5b80635a2f0bb8146103bb578063715018a6146103ce578063728c5a3b146103e3578063796d4371146103f657600080fd5b806320f6a738116101d157806320f6a7381461025e5780632a5c792a146102715780632d1c850c1461029c57806359770438146102af57600080fd5b80630396cb601461020357806303d0166414610218578063199160e11461022b578063205c28781461023e575b600080fd5b610216610211366004612b6d565b61068e565b005b610216610226366004612bc3565b610740565b610216610239366004612bc3565b610828565b34801561024a57600080fd5b50610216610259366004612bfc565b610833565b61021661026c366004612bc3565b6108cb565b34801561027d57600080fd5b506102866109a9565b6040516102939190612c28565b60405180910390f35b6102166102aa366004612c82565b610a18565b3480156102bb57600080fd5b5061036a6102ca366004612c82565b6040805160808101825260008082526020820181905291810182905260608101919091525073ffffffffffffffffffffffffffffffffffffffff90811660009081526003602090815260409182902082516080810184528154851681526001820154808616938201939093527401000000000000000000000000000000000000000090920460ff1692820192909252600290910154909116606082015290565b6040516102939190815173ffffffffffffffffffffffffffffffffffffffff908116825260208084015182169083015260408084015160ff1690830152606092830151169181019190915260800190565b6102166103c9366004612c9f565b610a27565b3480156103da57600080fd5b50610216610b0c565b6102166103f1366004612cea565b610b20565b34801561040257600080fd5b5061040d6201117081565b604051908152602001610293565b610216610429366004612d5f565b610dae565b61021661043c366004612c9f565b610dba565b34801561044d57600080fd5b50610456600081565b60405173ffffffffffffffffffffffffffffffffffffffff9091168152602001610293565b34801561048757600080fd5b5060005473ffffffffffffffffffffffffffffffffffffffff16610456565b6102166104b4366004612bfc565b610e9b565b6102166104c7366004612bfc565b610eb3565b3480156104d857600080fd5b506102166104e7366004612da0565b610ec7565b3480156104f857600080fd5b506104567f000000000000000000000000000000000000000000000000000000000000000081565b34801561052c57600080fd5b50610216610ee1565b34801561054157600080fd5b50610216610550366004612c82565b610f65565b34801561056157600080fd5b5061040d611011565b34801561057657600080fd5b5061040d610585366004612e2f565b6110c7565b6102166110ee565b34801561059e57600080fd5b506102166105ad366004612e5d565b611176565b6102166105c0366004612bfc565b61123e565b3480156105d157600080fd5b506105e56105e0366004612e2f565b611249565b60408051928352602083019190915201610293565b34801561060657600080fd5b5061040d610615366004612e2f565b61126b565b610216610628366004612d5f565b61127b565b61021661063b366004612e75565b611287565b34801561064c57600080fd5b5061021661065b366004612c82565b611291565b34801561066c57600080fd5b5061068061067b366004612e92565b611345565b604051610293929190612f5c565b610696611368565b6040517f0396cb6000000000000000000000000000000000000000000000000000000000815263ffffffff821660048201527f000000000000000000000000000000000000000000000000000000000000000073ffffffffffffffffffffffffffffffffffffffff1690630396cb609034906024016000604051808303818588803b15801561072457600080fd5b505af1158015610738573d6000803e3d6000fd5b505050505050565b6001600061074d846113e9565b815260208101919091526040016000205460ff1615610819576040517f08c379a000000000000000000000000000000000000000000000000000000000815260206004820152604660248201527f546f6b656e5061796d61737465723a206d6f64652069732073657420746f206260448201527f6c61636b6c6973742063616e206e6f7420616464207573657220746f2077686960648201527f74656c6973740000000000000000000000000000000000000000000000000000608482015260a4015b60405180910390fd5b610824338383611419565b5050565b61082482338361146a565b61083b611368565b6040517f205c287800000000000000000000000000000000000000000000000000000000815273ffffffffffffffffffffffffffffffffffffffff8381166004830152602482018390527f0000000000000000000000000000000000000000000000000000000000000000169063205c287890604401600060405180830381600087803b15801561072457600080fd5b600160006108d8336113e9565b815260208101919091526040016000205460ff1661099e576040517f08c379a000000000000000000000000000000000000000000000000000000000815260206004820152604660248201527f546f6b656e5061796d61737465723a206d6f64652069732073657420746f207760448201527f686974656c6973742063616e206e6f7420616464207573657220746f20626c6160648201527f636b6c6973740000000000000000000000000000000000000000000000000000608482015260a401610810565b610824338383611479565b60606004805480602002602001604051908101604052809291908181526020018280548015610a0e57602002820191906000526020600020905b815473ffffffffffffffffffffffffffffffffffffffff1681526001909101906020018083116109e3575b5050505050905090565b610a2481336000611488565b50565b60016000610a3585856114ad565b815260208101919091526040016000205460ff16610afb576040517f08c379a000000000000000000000000000000000000000000000000000000000815260206004820152604c60248201527f546f6b656e5061796d61737465723a20746f6b656e206d6f646520697320736560448201527f7420746f2077686974656c6973742063616e206e6f742061646420757365722060648201527f746f20626c61636b6c6973740000000000000000000000000000000000000000608482015260a401610810565b610b07838333846114e0565b505050565b610b14611368565b610b1e6000611533565b565b6000805b82811015610d1e577f8fe2d83300000000000000000000000000000000000000000000000000000000848483818110610b5f57610b5f612f7e565b9050602002810190610b719190612fad565b610b8091600491600091613019565b610b8991613043565b7fffffffff00000000000000000000000000000000000000000000000000000000161415610c0e57600080858584818110610bc657610bc6612f7e565b9050602002810190610bd89190612fad565b610be6916004908290613019565b810190610bf39190612bfc565b915091508084019350610c073383836115a8565b5050610d16565b600030858584818110610c2357610c23612f7e565b9050602002810190610c359190612fad565b604051610c4392919061308b565b600060405180830381855af49150503d8060008114610c7e576040519150601f19603f3d011682016040523d82523d6000602084013e610c83565b606091505b5050905080610d14576040517f08c379a000000000000000000000000000000000000000000000000000000000815260206004820152603360248201527f546f6b656e5061796d61737465723a20696e7465726e616c206261746368656460448201527f207472616e73616374696f6e206661696c6564000000000000000000000000006064820152608401610810565b505b600101610b24565b50348114610b07576040517f08c379a000000000000000000000000000000000000000000000000000000000815260206004820152603860248201527f546f6b656e5061796d61737465723a20426174636865642076616c756520697360448201527f206e6f7420657175616c20746f2073656e742076616c756500000000000000006064820152608401610810565b610b07833384846116a9565b60016000610dc885856114ad565b815260208101919091526040016000205460ff1615610e8f576040517f08c379a000000000000000000000000000000000000000000000000000000000815260206004820152604c60248201527f546f6b656e5061796d61737465723a20746f6b656e206d6f646520697320736560448201527f7420746f20626c61636b6c6973742063616e206e6f742061646420757365722060648201527f746f2077686974656c6973740000000000000000000000000000000000000000608482015260a401610810565b610b078383338461185f565b80341015610ea857600080fd5b6108243383836115a8565b6108248233610ec284436130ca565b611488565b610ecf61186f565b610edb848484846118b1565b50505050565b610ee9611368565b7f000000000000000000000000000000000000000000000000000000000000000073ffffffffffffffffffffffffffffffffffffffff1663bb9fe6bf6040518163ffffffff1660e01b8152600401600060405180830381600087803b158015610f5157600080fd5b505af1158015610edb573d6000803e3d6000fd5b610f6d611368565b6040517fc23a5cea00000000000000000000000000000000000000000000000000000000815273ffffffffffffffffffffffffffffffffffffffff82811660048301527f0000000000000000000000000000000000000000000000000000000000000000169063c23a5cea90602401600060405180830381600087803b158015610ff657600080fd5b505af115801561100a573d6000803e3d6000fd5b5050505050565b6040517f70a082310000000000000000000000000000000000000000000000000000000081523060048201526000907f000000000000000000000000000000000000000000000000000000000000000073ffffffffffffffffffffffffffffffffffffffff16906370a0823190602401602060405180830381865afa15801561109e573d6000803e3d6000fd5b505050506040513d601f19601f820116820180604052508101906110c291906130e2565b905090565b6000600260006110d78585611995565b815260200190815260200160002054905092915050565b6040517fb760faf90000000000000000000000000000000000000000000000000000000081523060048201527f000000000000000000000000000000000000000000000000000000000000000073ffffffffffffffffffffffffffffffffffffffff169063b760faf99034906024016000604051808303818588803b158015610ff657600080fd5b61117e611368565b60006111906040830160208401612c82565b73ffffffffffffffffffffffffffffffffffffffff8116600090815260036020526040902090915082906111c482826130fb565b5050600480546001810182556000919091527f8a35acfbc15ff81a39ae7d344fd709f28e8600b4aa8c65c6b64bfe7fe36bd19b0180547fffffffffffffffffffffffff00000000000000000000000000000000000000001673ffffffffffffffffffffffffffffffffffffffff9290921691909117905550565b6108243383836119ad565b600080611256848461126b565b915061126284846110c7565b90509250929050565b6000600260006110d78585611b6c565b610b0783338484611b81565b610a243382611cd2565b611299611368565b73ffffffffffffffffffffffffffffffffffffffff811661133c576040517f08c379a000000000000000000000000000000000000000000000000000000000815260206004820152602660248201527f4f776e61626c653a206e6577206f776e657220697320746865207a65726f206160448201527f64647265737300000000000000000000000000000000000000000000000000006064820152608401610810565b610a2481611533565b6060600061135161186f565b61135c858585611d21565b91509150935093915050565b60005473ffffffffffffffffffffffffffffffffffffffff163314610b1e576040517f08c379a000000000000000000000000000000000000000000000000000000000815260206004820181905260248201527f4f776e61626c653a2063616c6c6572206973206e6f7420746865206f776e65726044820152606401610810565b6000816040516020016113fc9190613243565b604051602081830303815290604052805190602001209050919050565b80600160006114288587612251565b8152602081019190915260400160002080547fffffffffffffffffffffffffffffffffffffffffffffffffffffffffffffff0016911515919091179055505050565b806001600061142886866114ad565b80600160006114288587612266565b80600260006114978686611b6c565b8152602081019190915260400160002055505050565b600082826040516020016114c292919061329c565b60405160208183030381529060405280519060200120905092915050565b80600160006114f087878761227b565b8152602081019190915260400160002080547fffffffffffffffffffffffffffffffffffffffffffffffffffffffffffffff001691151591909117905550505050565b6000805473ffffffffffffffffffffffffffffffffffffffff8381167fffffffffffffffffffffffff0000000000000000000000000000000000000000831681178455604051919092169283917f8be0079c531659141344cd1fd0a4f28419497f9722a3daafe3b4186f6b6457e09190a35050565b6040517fb760faf90000000000000000000000000000000000000000000000000000000081523060048201527f000000000000000000000000000000000000000000000000000000000000000073ffffffffffffffffffffffffffffffffffffffff169063b760faf99083906024016000604051808303818588803b15801561163057600080fd5b505af1158015611644573d6000803e3d6000fd5b50505050508060026000611659600086611995565b8152602001908152602001600020600082825461167691906130ca565b909155505073ffffffffffffffffffffffffffffffffffffffff8381169083161415610b0757610b076000846000611488565b60006116b5858561126b565b905060006116c38686611995565b905081158015906116d357508143115b61175f576040517f08c379a000000000000000000000000000000000000000000000000000000000815260206004820152602760248201527f546f6b656e5061796d61737465723a206d75737420756e6c6f636b546f6b656e60448201527f4465706f736974000000000000000000000000000000000000000000000000006064820152608401610810565b6000818152600260205260409020548311156117fd576040517f08c379a000000000000000000000000000000000000000000000000000000000815260206004820152602a60248201527f546f6b656e5061796d61737465723a20646f6573206e6f74206861766520656e60448201527f6f7567682066756e6473000000000000000000000000000000000000000000006064820152608401610810565b6000818152600260205260408120805485929061181b9084906132fd565b909155505073ffffffffffffffffffffffffffffffffffffffff808716600090815260036020526040902060010154166118568186866122b1565b50505050505050565b80600160006114f0878787612385565b3373ffffffffffffffffffffffffffffffffffffffff7f00000000000000000000000000000000000000000000000000000000000000001614610b1e57600080fd5b600080808080806118c4888a018a613314565b9550955095509550955095506000818385620111706118e39190613379565b6118ed908b6130ca565b6118f79190613379565b61190191906133b6565b905061190e85888361239c565b806002600061191d888a611995565b8152602001908152602001600020600082825461193a91906130ca565b9091555061194d90508462011170613379565b61195790896130ca565b6002600061196660008a611995565b8152602001908152602001600020600082825461198391906132fd565b90915550505050505050505050505050565b6000828260016040516020016114c2939291906133f1565b60006119ba600085611995565b90506119c760008561126b565b4311611a55576040517f08c379a000000000000000000000000000000000000000000000000000000000815260206004820152602760248201527f546f6b656e5061796d61737465723a206d75737420756e6c6f636b546f6b656e60448201527f4465706f736974000000000000000000000000000000000000000000000000006064820152608401610810565b600081815260026020526040902054821115611af3576040517f08c379a000000000000000000000000000000000000000000000000000000000815260206004820152602760248201527f546f6b656e5061796d61737465723a206d75737420756e6c6f636b546f6b656e60448201527f4465706f736974000000000000000000000000000000000000000000000000006064820152608401610810565b60008181526002602052604081208054849290611b119084906132fd565b909155505060405173ffffffffffffffffffffffffffffffffffffffff8416908390600081818185875af1925050503d8060008114611856576040519150601f19603f3d011682016040523d82523d6000602084013e611856565b6000611b7a83836000612493565b9392505050565b73ffffffffffffffffffffffffffffffffffffffff841660009081526003602052604090206001015474010000000000000000000000000000000000000000900460ff16611c50576040517f08c379a0000000000000000000000000000000000000000000000000000000008152602060048201526024808201527f546f6b656e5061796d61737465723a20546f6b656e20646f6573206e6f74206560448201527f78697374000000000000000000000000000000000000000000000000000000006064820152608401610810565b73ffffffffffffffffffffffffffffffffffffffff808516600090815260036020526040812060010154909116908290600290611c8d8887611995565b81526020019081526020016000206000828254611caa91906130ca565b9091555061100a905073ffffffffffffffffffffffffffffffffffffffff82168530856124aa565b8060016000611ce0856113e9565b8152602081019190915260400160002080547fffffffffffffffffffffffffffffffffffffffffffffffffffffffffffffff00169115159190911790555050565b60606000611d33610120860186612fad565b9050603c14611dc4576040517f08c379a000000000000000000000000000000000000000000000000000000000815260206004820152603560248201527f546f6b656e5061796d61737465723a207061796d6173746572416e644461746160448201527f206d75737420737065636966792073706f6e736f7200000000000000000000006064820152608401610810565b620111708560a0013511611e5a576040517f08c379a000000000000000000000000000000000000000000000000000000000815260206004820152602660248201527f546f6b656e5061796d61737465723a2067617320746f6f206c6f7720666f722060448201527f706f73744f7000000000000000000000000000000000000000000000000000006064820152608401610810565b6000611e6a610120870187612fad565b611e7991602891601491613019565b611e829161345b565b60601c90506000611e97610120880188612fad565b611ea5916028908290613019565b611eae9161345b565b60601c9050600060026000611ec4600086611b6c565b81526020019081526020016000205490508060001480611ee357504381115b611f49576040517f08c379a000000000000000000000000000000000000000000000000000000000815260206004820152601c60248201527f546f6b656e5061796d61737465723a205374616b65204c6f636b6564000000006044820152606401610810565b87356000600281611f5a8685611b6c565b8152602001908152602001600020549050600060026000611f7c600089611995565b81526020019081526020016000205490508160001480611f9b57504382115b612027576040517f08c379a000000000000000000000000000000000000000000000000000000000815260206004820152602260248201527f546f6b656e5061796d61737465723a206465706f736974206e6f74206c6f636b60448201527f65640000000000000000000000000000000000000000000000000000000000006064820152608401610810565b888110156120b7576040517f08c379a000000000000000000000000000000000000000000000000000000000815260206004820152602c60248201527f546f6b656e5061796d61737465723a20646f6573206e6f74206861766520656e60448201527f6f75676820746f2066756e6400000000000000000000000000000000000000006064820152608401610810565b6120c2858488612508565b61214e576040517f08c379a000000000000000000000000000000000000000000000000000000000815260206004820152603360248201527f546f6b656e5061796d61737465723a20686173206e6f74206f7220646f65732060448201527f6e6f7420617070726f7665207370656e646572000000000000000000000000006064820152608401610810565b600061215a868b612630565b9050612167868583612737565b80612178575061217886858361289a565b6121de576040517f08c379a000000000000000000000000000000000000000000000000000000000815260206004820181905260248201527f546f6b656e5061796d61737465723a20757365722063616e206e6f74207061796044820152606401610810565b60006121e98d6128c5565b6040805173ffffffffffffffffffffffffffffffffffffffff97881660208201529987168a820152979095166060890152506080870193909352505060a08401525060c0808301959095528051808303909501855260e0909101905250909360009350915050565b600082826040516020016114c29291906134a1565b600082826040516020016114c2929190613502565b600083838360405160200161229293929190613563565b6040516020818303038152906040528051906020012090509392505050565b60405173ffffffffffffffffffffffffffffffffffffffff8316602482015260448101829052610b079084907fa9059cbb00000000000000000000000000000000000000000000000000000000906064015b604080517fffffffffffffffffffffffffffffffffffffffffffffffffffffffffffffffe08184030181529190526020810180517bffffffffffffffffffffffffffffffffffffffffffffffffffffffff167fffffffff00000000000000000000000000000000000000000000000000000000909316929092179091526128ed565b6000838383604051602001612292939291906135d1565b6123a7838383612737565b156123e35773ffffffffffffffffffffffffffffffffffffffff80841660009081526003602052604090206001015416610edb818430856124aa565b60006123ef8484611995565b60008181526002602052604090205490915082111561246a576040517f08c379a000000000000000000000000000000000000000000000000000000000815260206004820152601460248201527f446f6573206e6f74206861766520746f6b656e730000000000000000000000006044820152606401610810565b600081815260026020526040812080548492906124889084906132fd565b909155505050505050565b6000838383604051602001612292939291906133f1565b60405173ffffffffffffffffffffffffffffffffffffffff80851660248301528316604482015260648101829052610edb9085907f23b872dd0000000000000000000000000000000000000000000000000000000090608401612303565b6000806001600061251a87878761227b565b8152602081019190915260400160009081205460ff16915060018161253e866113e9565b815260208101919091526040016000205460ff16905080156125945760006001600061256a8888612266565b815260208101919091526040016000205460ff16905080806125895750825b159350505050611b7a565b6000600160006125a489886114ad565b815260208101919091526040016000205460ff16905080156125ca575050159050611b7a565b6000600160006125da8989612251565b815260208101919091526040016000205460ff1690508015612601579350611b7a92505050565b600160006126108a898b612385565b815260208101919091526040016000205460ff1698975050505050505050565b73ffffffffffffffffffffffffffffffffffffffff82811660009081526003602090815260408083208151608081018352815486168082526001830154808816958301959095527401000000000000000000000000000000000000000090940460ff168184018190526002909201549095166060860181905291517f6a2f49180000000000000000000000000000000000000000000000000000000081526004810192909252602482018690526044820152919291636a2f491890606401602060405180830381865afa15801561270b573d6000803e3d6000fd5b505050506040513d601f19601f8201168201806040525081019061272f91906130e2565b949350505050565b73ffffffffffffffffffffffffffffffffffffffff8381166000908152600360205260408082206001015490517fdd62ed3e0000000000000000000000000000000000000000000000000000000081528584166004820152306024820152919216908290829063dd62ed3e90604401602060405180830381865afa1580156127c3573d6000803e3d6000fd5b505050506040513d601f19601f820116820180604052508101906127e791906130e2565b6040517f70a0823100000000000000000000000000000000000000000000000000000000815273ffffffffffffffffffffffffffffffffffffffff87811660048301529192506000918416906370a0823190602401602060405180830381865afa158015612859573d6000803e3d6000fd5b505050506040513d601f19601f8201168201806040525081019061287d91906130e2565b905084811015801561288f5750848210155b979650505050505050565b600081600260006128ab8787611995565b815260200190815260200160002054101590509392505050565b600060e0820135610100830135808214156128e1575092915050565b61272f824883016129f9565b600061294f826040518060400160405280602081526020017f5361666545524332303a206c6f772d6c6576656c2063616c6c206661696c65648152508573ffffffffffffffffffffffffffffffffffffffff16612a0f9092919063ffffffff16565b805190915015610b07578080602001905181019061296d919061363a565b610b07576040517f08c379a000000000000000000000000000000000000000000000000000000000815260206004820152602a60248201527f5361666545524332303a204552433230206f7065726174696f6e20646964206e60448201527f6f742073756363656564000000000000000000000000000000000000000000006064820152608401610810565b6000818310612a085781611b7a565b5090919050565b606061272f8484600085856000808673ffffffffffffffffffffffffffffffffffffffff168587604051612a439190613657565b60006040518083038185875af1925050503d8060008114612a80576040519150601f19603f3d011682016040523d82523d6000602084013e612a85565b606091505b509150915061288f8783838760608315612b24578251612b1d5773ffffffffffffffffffffffffffffffffffffffff85163b612b1d576040517f08c379a000000000000000000000000000000000000000000000000000000000815260206004820152601d60248201527f416464726573733a2063616c6c20746f206e6f6e2d636f6e74726163740000006044820152606401610810565b508161272f565b61272f8383815115612b395781518083602001fd5b806040517f08c379a00000000000000000000000000000000000000000000000000000000081526004016108109190613673565b600060208284031215612b7f57600080fd5b813563ffffffff81168114611b7a57600080fd5b73ffffffffffffffffffffffffffffffffffffffff81168114610a2457600080fd5b8015158114610a2457600080fd5b60008060408385031215612bd657600080fd5b8235612be181612b93565b91506020830135612bf181612bb5565b809150509250929050565b60008060408385031215612c0f57600080fd5b8235612c1a81612b93565b946020939093013593505050565b6020808252825182820181905260009190848201906040850190845b81811015612c7657835173ffffffffffffffffffffffffffffffffffffffff1683529284019291840191600101612c44565b50909695505050505050565b600060208284031215612c9457600080fd5b8135611b7a81612b93565b600080600060608486031215612cb457600080fd5b8335612cbf81612b93565b92506020840135612ccf81612b93565b91506040840135612cdf81612bb5565b809150509250925092565b60008060208385031215612cfd57600080fd5b823567ffffffffffffffff80821115612d1557600080fd5b818501915085601f830112612d2957600080fd5b813581811115612d3857600080fd5b8660208260051b8501011115612d4d57600080fd5b60209290920196919550909350505050565b600080600060608486031215612d7457600080fd5b8335612d7f81612b93565b92506020840135612d8f81612b93565b929592945050506040919091013590565b60008060008060608587031215612db657600080fd5b843560038110612dc557600080fd5b9350602085013567ffffffffffffffff80821115612de257600080fd5b818701915087601f830112612df657600080fd5b813581811115612e0557600080fd5b886020828501011115612e1757600080fd5b95986020929092019750949560400135945092505050565b60008060408385031215612e4257600080fd5b8235612e4d81612b93565b91506020830135612bf181612b93565b600060808284031215612e6f57600080fd5b50919050565b600060208284031215612e8757600080fd5b8135611b7a81612bb5565b600080600060608486031215612ea757600080fd5b833567ffffffffffffffff811115612ebe57600080fd5b84016101608187031215612ed157600080fd5b95602085013595506040909401359392505050565b60005b83811015612f01578181015183820152602001612ee9565b83811115610edb5750506000910152565b60008151808452612f2a816020860160208601612ee6565b601f017fffffffffffffffffffffffffffffffffffffffffffffffffffffffffffffffe0169290920160200192915050565b604081526000612f6f6040830185612f12565b90508260208301529392505050565b7f4e487b7100000000000000000000000000000000000000000000000000000000600052603260045260246000fd5b60008083357fffffffffffffffffffffffffffffffffffffffffffffffffffffffffffffffe1843603018112612fe257600080fd5b83018035915067ffffffffffffffff821115612ffd57600080fd5b60200191503681900382131561301257600080fd5b9250929050565b6000808585111561302957600080fd5b8386111561303657600080fd5b5050820193919092039150565b7fffffffff0000000000000000000000000000000000000000000000000000000081358181169160048510156130835780818660040360031b1b83161692505b505092915050565b8183823760009101908152919050565b7f4e487b7100000000000000000000000000000000000000000000000000000000600052601160045260246000fd5b600082198211156130dd576130dd61309b565b500190565b6000602082840312156130f457600080fd5b5051919050565b813561310681612b93565b81547fffffffffffffffffffffffff00000000000000000000000000000000000000001673ffffffffffffffffffffffffffffffffffffffff82161782555060018101602083013561315781612b93565b81547fffffffffffffffffffffffff00000000000000000000000000000000000000001673ffffffffffffffffffffffffffffffffffffffff821617825550604083013560ff811681146131aa57600080fd5b81547fffffffffffffffffffffff00ffffffffffffffffffffffffffffffffffffffff1660a09190911b74ff00000000000000000000000000000000000000001617905560608201356131fc81612b93565b6002820180547fffffffffffffffffffffffff00000000000000000000000000000000000000001673ffffffffffffffffffffffffffffffffffffffff8316179055505050565b73ffffffffffffffffffffffffffffffffffffffff82168152604060208201526000611b7a60408301600881527f6c6973744d6f6465000000000000000000000000000000000000000000000000602082015260400190565b73ffffffffffffffffffffffffffffffffffffffff8381168252821660208201526060604082018190526008908201527f6c6973744d6f64650000000000000000000000000000000000000000000000006080820152600060a0820161272f565b60008282101561330f5761330f61309b565b500390565b60008060008060008060c0878903121561332d57600080fd5b863561333881612b93565b9550602087013561334881612b93565b9450604087013561335881612b93565b959894975094956060810135955060808101359460a0909101359350915050565b6000817fffffffffffffffffffffffffffffffffffffffffffffffffffffffffffffffff04831182151516156133b1576133b161309b565b500290565b6000826133ec577f4e487b7100000000000000000000000000000000000000000000000000000000600052601260045260246000fd5b500490565b73ffffffffffffffffffffffffffffffffffffffff848116825283166020820152606081016002831061344d577f4e487b7100000000000000000000000000000000000000000000000000000000600052602160045260246000fd5b826040830152949350505050565b7fffffffffffffffffffffffffffffffffffffffff00000000000000000000000081358181169160148510156130835760149490940360031b84901b1690921692915050565b73ffffffffffffffffffffffffffffffffffffffff8381168252821660208201526060604082018190526009908201527f77686974656c69737400000000000000000000000000000000000000000000006080820152600060a0820161272f565b73ffffffffffffffffffffffffffffffffffffffff8381168252821660208201526060604082018190526009908201527f626c61636b6c69737400000000000000000000000000000000000000000000006080820152600060a0820161272f565b73ffffffffffffffffffffffffffffffffffffffff84811682528381166020830152821660408201526080606082018190526009908201527f626c61636b6c697374000000000000000000000000000000000000000000000060a0820152600060c082015b95945050505050565b73ffffffffffffffffffffffffffffffffffffffff84811682528381166020830152821660408201526080606082018190526009908201527f77686974656c697374000000000000000000000000000000000000000000000060a0820152600060c082016135c8565b60006020828403121561364c57600080fd5b8151611b7a81612bb5565b60008251613669818460208701612ee6565b9190910192915050565b602081526000611b7a6020830184612f1256fea264697066735822122047ca82068d48ccea2944ee363d84c20113f0ddcbf35924cb49e51a75795476e264736f6c634300080c0033","linkReferences":{},"deployedLinkReferences":{}}