{
  "_format": "hh-sol-artifact-1",
  "contractName": "TokenPaymaster",
  "sourceName": "contracts/paymaster/TokenPaymaster.sol",
  "abi": [
    {
      "inputs": [
        {
          "internalType": "contract IEntryPoint",
          "name": "_entryPoint",
          "type": "address"
        }
      ],
      "stateMutability": "nonpayable",
      "type": "constructor"
    },
    {
      "anonymous": false,
      "inputs": [
        {
          "indexed": true,
          "internalType": "address",
          "name": "caller",
          "type": "address"
        },
        {
          "indexed": true,
          "internalType": "address",
          "name": "sponsor",
          "type": "address"
        },
        {
          "indexed": false,
          "internalType": "uint256",
          "name": "amount",
          "type": "uint256"
        }
      ],
      "name": "AddEthDepositTo",
      "type": "event"
    },
    {
      "anonymous": false,
      "inputs": [
        {
          "indexed": true,
          "internalType": "address",
          "name": "token",
          "type": "address"
        },
        {
          "indexed": true,
          "internalType": "address",
          "name": "recipient",
          "type": "address"
        },
        {
          "indexed": true,
          "internalType": "address",
          "name": "spender",
          "type": "address"
        },
        {
          "indexed": false,
          "internalType": "uint256",
          "name": "amount",
          "type": "uint256"
        }
      ],
      "name": "AddTokenDepositTo",
      "type": "event"
    },
    {
      "anonymous": false,
      "inputs": [
        {
          "indexed": true,
          "internalType": "address[]",
          "name": "tokens",
          "type": "address[]"
        },
        {
          "indexed": true,
          "internalType": "address",
          "name": "sponsor",
          "type": "address"
        }
      ],
      "name": "AddTokens",
      "type": "event"
    },
    {
      "anonymous": false,
      "inputs": [
        {
          "indexed": false,
          "internalType": "bytes[]",
          "name": "data",
          "type": "bytes[]"
        }
      ],
      "name": "BatchActions",
      "type": "event"
    },
    {
      "anonymous": false,
      "inputs": [
        {
          "indexed": true,
          "internalType": "address",
          "name": "token",
          "type": "address"
        },
        {
          "indexed": true,
          "internalType": "address",
          "name": "spender",
          "type": "address"
        }
      ],
      "name": "LockTokenDeposit",
      "type": "event"
    },
    {
      "anonymous": false,
      "inputs": [
        {
          "indexed": true,
          "internalType": "address",
          "name": "previousOwner",
          "type": "address"
        },
        {
          "indexed": true,
          "internalType": "address",
          "name": "newOwner",
          "type": "address"
        }
      ],
      "name": "OwnershipTransferred",
      "type": "event"
    },
    {
      "anonymous": false,
      "inputs": [
        {
          "indexed": false,
          "internalType": "contract IEntryPoint",
          "name": "entryPoint",
          "type": "address"
        }
      ],
      "name": "PaymasterCreated",
      "type": "event"
    },
    {
      "anonymous": false,
      "inputs": [
        {
          "indexed": true,
          "internalType": "bytes32",
          "name": "opHash",
          "type": "bytes32"
        },
        {
          "indexed": true,
          "internalType": "address",
          "name": "spender",
          "type": "address"
        },
        {
          "indexed": true,
          "internalType": "address",
          "name": "sponsor",
          "type": "address"
        },
        {
          "indexed": false,
          "internalType": "uint256",
          "name": "spenderCost",
          "type": "uint256"
        },
        {
          "indexed": false,
          "internalType": "uint256",
          "name": "sponsorCost",
          "type": "uint256"
        }
      ],
      "name": "PostOpGasPaid",
      "type": "event"
    },
    {
      "anonymous": false,
      "inputs": [
        {
          "indexed": true,
          "internalType": "address[]",
          "name": "tokens",
          "type": "address[]"
        },
        {
          "indexed": true,
          "internalType": "address",
          "name": "sponsor",
          "type": "address"
        }
      ],
      "name": "RemoveTokens",
      "type": "event"
    },
    {
      "anonymous": false,
      "inputs": [
        {
          "indexed": true,
          "internalType": "address",
          "name": "sponsor",
          "type": "address"
        },
        {
          "indexed": false,
          "internalType": "bool",
          "name": "mode",
          "type": "bool"
        }
      ],
      "name": "SetListMode",
      "type": "event"
    },
    {
      "anonymous": false,
      "inputs": [
        {
          "indexed": true,
          "internalType": "address",
          "name": "spender",
          "type": "address"
        },
        {
          "indexed": true,
          "internalType": "address",
          "name": "sponsor",
          "type": "address"
        },
        {
          "indexed": false,
          "internalType": "bool",
          "name": "mode",
          "type": "bool"
        }
      ],
      "name": "SetSpenderBlacklistMode",
      "type": "event"
    },
    {
      "anonymous": false,
      "inputs": [
        {
          "indexed": true,
          "internalType": "address",
          "name": "spender",
          "type": "address"
        },
        {
          "indexed": true,
          "internalType": "address",
          "name": "sponsor",
          "type": "address"
        },
        {
          "indexed": false,
          "internalType": "bool",
          "name": "mode",
          "type": "bool"
        }
      ],
      "name": "SetSpenderWhitelistMode",
      "type": "event"
    },
    {
      "anonymous": false,
      "inputs": [
        {
          "indexed": true,
          "internalType": "address",
          "name": "token",
          "type": "address"
        },
        {
          "indexed": true,
          "internalType": "address",
          "name": "sponsor",
          "type": "address"
        },
        {
          "indexed": false,
          "internalType": "bool",
          "name": "mode",
          "type": "bool"
        }
      ],
      "name": "SetTokenBlacklistMode",
      "type": "event"
    },
    {
      "anonymous": false,
      "inputs": [
        {
          "components": [
            {
              "internalType": "contract ITokenPriceOracle",
              "name": "oracle",
              "type": "address"
            },
            {
              "internalType": "contract IERC20",
              "name": "token",
              "type": "address"
            },
            {
              "internalType": "uint8",
              "name": "decimals",
              "type": "uint8"
            },
            {
              "internalType": "address",
              "name": "aggregator",
              "type": "address"
            }
          ],
          "indexed": true,
          "internalType": "struct TokenData",
          "name": "data",
          "type": "tuple"
        }
      ],
      "name": "SetTokenData",
      "type": "event"
    },
    {
      "anonymous": false,
      "inputs": [
        {
          "indexed": true,
          "internalType": "address",
          "name": "sponsor",
          "type": "address"
        },
        {
          "indexed": false,
          "internalType": "bool",
          "name": "mode",
          "type": "bool"
        }
      ],
      "name": "SetTokenListMode",
      "type": "event"
    },
    {
      "anonymous": false,
      "inputs": [
        {
          "indexed": true,
          "internalType": "address",
          "name": "token",
          "type": "address"
        },
        {
          "indexed": true,
          "internalType": "address",
          "name": "sponsor",
          "type": "address"
        },
        {
          "indexed": false,
          "internalType": "bool",
          "name": "mode",
          "type": "bool"
        }
      ],
      "name": "SetTokenWhitelistMode",
      "type": "event"
    },
    {
      "anonymous": false,
      "inputs": [
        {
          "indexed": true,
          "internalType": "address",
          "name": "token",
          "type": "address"
        },
        {
          "indexed": true,
          "internalType": "address",
          "name": "spender",
          "type": "address"
        },
        {
          "indexed": true,
          "internalType": "uint256",
          "name": "unlockBlockNum",
          "type": "uint256"
        }
      ],
      "name": "UnlockTokenDepositAfter",
      "type": "event"
    },
    {
      "anonymous": false,
      "inputs": [
        {
          "indexed": true,
          "internalType": "address",
          "name": "caller",
          "type": "address"
        },
        {
          "indexed": true,
          "internalType": "address",
          "name": "target",
          "type": "address"
        },
        {
          "indexed": false,
          "internalType": "uint256",
          "name": "amount",
          "type": "uint256"
        }
      ],
      "name": "WithdrawEthDepositTo",
      "type": "event"
    },
    {
      "anonymous": false,
      "inputs": [
        {
          "indexed": true,
          "internalType": "address",
          "name": "token",
          "type": "address"
        },
        {
          "indexed": true,
          "internalType": "address",
          "name": "recipient",
          "type": "address"
        },
        {
          "indexed": true,
          "internalType": "address",
          "name": "target",
          "type": "address"
        },
        {
          "indexed": false,
          "internalType": "uint256",
          "name": "amount",
          "type": "uint256"
        }
      ],
      "name": "WithdrawTokenDepositTo",
      "type": "event"
    },
    {
      "inputs": [],
      "name": "COST_OF_POST",
      "outputs": [
        {
          "internalType": "uint256",
          "name": "",
          "type": "uint256"
        }
      ],
      "stateMutability": "view",
      "type": "function"
    },
    {
      "inputs": [],
      "name": "ETH",
      "outputs": [
        {
          "internalType": "address",
          "name": "",
          "type": "address"
        }
      ],
      "stateMutability": "view",
      "type": "function"
    },
    {
      "inputs": [],
      "name": "VERSION",
      "outputs": [
        {
          "internalType": "uint256",
          "name": "",
          "type": "uint256"
        }
      ],
      "stateMutability": "view",
      "type": "function"
    },
    {
      "inputs": [
        {
          "internalType": "address",
          "name": "sponsor",
          "type": "address"
        },
        {
          "internalType": "uint256",
          "name": "amount",
          "type": "uint256"
        }
      ],
      "name": "addEthDepositTo",
      "outputs": [],
      "stateMutability": "payable",
      "type": "function"
    },
    {
      "inputs": [
        {
          "internalType": "address",
          "name": "token",
          "type": "address"
        },
        {
          "internalType": "address",
          "name": "spender",
          "type": "address"
        },
        {
          "internalType": "uint256",
          "name": "amount",
          "type": "uint256"
        }
      ],
      "name": "addTokenDepositTo",
      "outputs": [],
      "stateMutability": "payable",
      "type": "function"
    },
    {
      "inputs": [
        {
          "internalType": "address[]",
          "name": "_tokens",
          "type": "address[]"
        }
      ],
      "name": "addTokens",
      "outputs": [],
      "stateMutability": "nonpayable",
      "type": "function"
    },
    {
      "inputs": [
        {
          "internalType": "bytes[]",
          "name": "data",
          "type": "bytes[]"
        }
      ],
      "name": "batchActions",
      "outputs": [],
      "stateMutability": "payable",
      "type": "function"
    },
    {
      "inputs": [],
      "name": "entryPoint",
      "outputs": [
        {
          "internalType": "contract IEntryPoint",
          "name": "",
          "type": "address"
        }
      ],
      "stateMutability": "view",
      "type": "function"
    },
    {
      "inputs": [
        {
          "internalType": "address",
          "name": "token",
          "type": "address"
        },
        {
          "internalType": "address",
          "name": "spender",
          "type": "address"
        }
      ],
      "name": "getAllTokenData",
      "outputs": [
        {
          "internalType": "uint256",
          "name": "unlockBlock",
          "type": "uint256"
        },
        {
          "internalType": "uint256",
          "name": "tokenAmount",
          "type": "uint256"
        }
      ],
      "stateMutability": "view",
      "type": "function"
    },
    {
      "inputs": [],
      "name": "getAllTokens",
      "outputs": [
        {
          "internalType": "address[]",
          "name": "",
          "type": "address[]"
        }
      ],
      "stateMutability": "view",
      "type": "function"
    },
    {
      "inputs": [
        {
          "internalType": "address",
          "name": "sponsor",
          "type": "address"
        }
      ],
      "name": "getListMode",
      "outputs": [
        {
          "internalType": "bool",
          "name": "",
          "type": "bool"
        }
      ],
      "stateMutability": "view",
      "type": "function"
    },
    {
      "inputs": [
        {
          "internalType": "address",
          "name": "spender",
          "type": "address"
        },
        {
          "internalType": "address",
          "name": "sponsor",
          "type": "address"
        }
      ],
      "name": "getSpenderBlacklisted",
      "outputs": [
        {
          "internalType": "bool",
          "name": "",
          "type": "bool"
        }
      ],
      "stateMutability": "view",
      "type": "function"
    },
    {
      "inputs": [
        {
          "internalType": "address",
          "name": "spender",
          "type": "address"
        },
        {
          "internalType": "address",
          "name": "sponsor",
          "type": "address"
        }
      ],
      "name": "getSpenderWhitelisted",
      "outputs": [
        {
          "internalType": "bool",
          "name": "",
          "type": "bool"
        }
      ],
      "stateMutability": "view",
      "type": "function"
    },
    {
      "inputs": [
        {
          "internalType": "address",
          "name": "token",
          "type": "address"
        },
        {
          "internalType": "address",
          "name": "sponsor",
          "type": "address"
        }
      ],
      "name": "getSponsorTokenUsage",
      "outputs": [
        {
          "internalType": "bool",
          "name": "",
          "type": "bool"
        }
      ],
      "stateMutability": "view",
      "type": "function"
    },
    {
      "inputs": [
        {
          "internalType": "address",
          "name": "token",
          "type": "address"
        }
      ],
      "name": "getToken",
      "outputs": [
        {
          "components": [
            {
              "internalType": "contract ITokenPriceOracle",
              "name": "oracle",
              "type": "address"
            },
            {
              "internalType": "contract IERC20",
              "name": "token",
              "type": "address"
            },
            {
              "internalType": "uint8",
              "name": "decimals",
              "type": "uint8"
            },
            {
              "internalType": "address",
              "name": "aggregator",
              "type": "address"
            }
          ],
          "internalType": "struct TokenData",
          "name": "",
          "type": "tuple"
        }
      ],
      "stateMutability": "view",
      "type": "function"
    },
    {
      "inputs": [
        {
          "internalType": "address",
          "name": "token",
          "type": "address"
        },
        {
          "internalType": "address",
          "name": "spender",
          "type": "address"
        }
      ],
      "name": "getTokenBalance",
      "outputs": [
        {
          "internalType": "uint256",
          "name": "tokenAmount",
          "type": "uint256"
        }
      ],
      "stateMutability": "view",
      "type": "function"
    },
    {
      "inputs": [
        {
          "internalType": "address",
          "name": "token",
          "type": "address"
        },
        {
          "internalType": "address",
          "name": "sponsor",
          "type": "address"
        }
      ],
      "name": "getTokenBlacklisted",
      "outputs": [
        {
          "internalType": "bool",
          "name": "",
          "type": "bool"
        }
      ],
      "stateMutability": "view",
      "type": "function"
    },
    {
      "inputs": [
        {
          "internalType": "address",
          "name": "sponsor",
          "type": "address"
        }
      ],
      "name": "getTokenListMode",
      "outputs": [
        {
          "internalType": "bool",
          "name": "",
          "type": "bool"
        }
      ],
      "stateMutability": "view",
      "type": "function"
    },
    {
      "inputs": [
        {
          "internalType": "address",
          "name": "token",
          "type": "address"
        },
        {
          "internalType": "address",
          "name": "sponsor",
          "type": "address"
        }
      ],
      "name": "getTokenWhitelisted",
      "outputs": [
        {
          "internalType": "bool",
          "name": "",
          "type": "bool"
        }
      ],
      "stateMutability": "view",
      "type": "function"
    },
    {
      "inputs": [
        {
          "internalType": "address",
          "name": "token",
          "type": "address"
        },
        {
          "internalType": "address",
          "name": "spender",
          "type": "address"
        }
      ],
      "name": "getUnlockBlock",
      "outputs": [
        {
          "internalType": "uint256",
          "name": "unlockBlock",
          "type": "uint256"
        }
      ],
      "stateMutability": "view",
      "type": "function"
    },
    {
      "inputs": [
        {
          "internalType": "address",
          "name": "token",
          "type": "address"
        }
      ],
      "name": "lockTokenDeposit",
      "outputs": [],
      "stateMutability": "payable",
      "type": "function"
    },
    {
      "inputs": [],
      "name": "owner",
      "outputs": [
        {
          "internalType": "address",
          "name": "",
          "type": "address"
        }
      ],
      "stateMutability": "view",
      "type": "function"
    },
    {
      "inputs": [
        {
          "internalType": "enum IPaymaster.PostOpMode",
          "name": "mode",
          "type": "uint8"
        },
        {
          "internalType": "bytes",
          "name": "context",
          "type": "bytes"
        },
        {
          "internalType": "uint256",
          "name": "actualGasCost",
          "type": "uint256"
        }
      ],
      "name": "postOp",
      "outputs": [],
      "stateMutability": "nonpayable",
      "type": "function"
    },
    {
      "inputs": [
        {
          "internalType": "address[]",
          "name": "_tokens",
          "type": "address[]"
        }
      ],
      "name": "removeTokens",
      "outputs": [],
      "stateMutability": "nonpayable",
      "type": "function"
    },
    {
      "inputs": [],
      "name": "renounceOwnership",
      "outputs": [],
      "stateMutability": "nonpayable",
      "type": "function"
    },
    {
      "inputs": [
        {
          "internalType": "bool",
          "name": "mode",
          "type": "bool"
        }
      ],
      "name": "setListMode",
      "outputs": [],
      "stateMutability": "payable",
      "type": "function"
    },
    {
      "inputs": [
        {
          "internalType": "address",
          "name": "spender",
          "type": "address"
        },
        {
          "internalType": "bool",
          "name": "mode",
          "type": "bool"
        }
      ],
      "name": "setSpenderBlacklistMode",
      "outputs": [],
      "stateMutability": "payable",
      "type": "function"
    },
    {
      "inputs": [
        {
          "internalType": "address",
          "name": "spender",
          "type": "address"
        },
        {
          "internalType": "bool",
          "name": "mode",
          "type": "bool"
        }
      ],
      "name": "setSpenderWhitelistMode",
      "outputs": [],
      "stateMutability": "payable",
      "type": "function"
    },
    {
      "inputs": [
        {
          "internalType": "address",
          "name": "token",
          "type": "address"
        },
        {
          "internalType": "bool",
          "name": "mode",
          "type": "bool"
        }
      ],
      "name": "setTokenBlacklistMode",
      "outputs": [],
      "stateMutability": "payable",
      "type": "function"
    },
    {
      "inputs": [
        {
          "components": [
            {
              "internalType": "contract ITokenPriceOracle",
              "name": "oracle",
              "type": "address"
            },
            {
              "internalType": "contract IERC20",
              "name": "token",
              "type": "address"
            },
            {
              "internalType": "uint8",
              "name": "decimals",
              "type": "uint8"
            },
            {
              "internalType": "address",
              "name": "aggregator",
              "type": "address"
            }
          ],
          "internalType": "struct TokenData",
          "name": "data",
          "type": "tuple"
        }
      ],
      "name": "setTokenData",
      "outputs": [],
      "stateMutability": "nonpayable",
      "type": "function"
    },
    {
      "inputs": [
        {
          "internalType": "bool",
          "name": "mode",
          "type": "bool"
        }
      ],
      "name": "setTokenListMode",
      "outputs": [],
      "stateMutability": "payable",
      "type": "function"
    },
    {
      "inputs": [
        {
          "internalType": "address",
          "name": "token",
          "type": "address"
        },
        {
          "internalType": "bool",
          "name": "mode",
          "type": "bool"
        }
      ],
      "name": "setTokenWhitelistMode",
      "outputs": [],
      "stateMutability": "payable",
      "type": "function"
    },
    {
      "inputs": [
        {
          "internalType": "address",
          "name": "newOwner",
          "type": "address"
        }
      ],
      "name": "transferOwnership",
      "outputs": [],
      "stateMutability": "nonpayable",
      "type": "function"
    },
    {
      "inputs": [
        {
          "internalType": "address",
          "name": "token",
          "type": "address"
        },
        {
          "internalType": "uint256",
          "name": "num",
          "type": "uint256"
        }
      ],
      "name": "unlockTokenDepositAfter",
      "outputs": [],
      "stateMutability": "payable",
      "type": "function"
    },
    {
      "inputs": [
        {
          "components": [
            {
              "internalType": "address",
              "name": "sender",
              "type": "address"
            },
            {
              "internalType": "uint256",
              "name": "nonce",
              "type": "uint256"
            },
            {
              "internalType": "bytes",
              "name": "initCode",
              "type": "bytes"
            },
            {
              "internalType": "bytes",
              "name": "callData",
              "type": "bytes"
            },
            {
              "internalType": "uint256",
              "name": "callGasLimit",
              "type": "uint256"
            },
            {
              "internalType": "uint256",
              "name": "verificationGasLimit",
              "type": "uint256"
            },
            {
              "internalType": "uint256",
              "name": "preVerificationGas",
              "type": "uint256"
            },
            {
              "internalType": "uint256",
              "name": "maxFeePerGas",
              "type": "uint256"
            },
            {
              "internalType": "uint256",
              "name": "maxPriorityFeePerGas",
              "type": "uint256"
            },
            {
              "internalType": "bytes",
              "name": "paymasterAndData",
              "type": "bytes"
            },
            {
              "internalType": "bytes",
              "name": "signature",
              "type": "bytes"
            }
          ],
          "internalType": "struct UserOperation",
          "name": "userOp",
          "type": "tuple"
        },
        {
          "internalType": "bytes32",
          "name": "userOpHash",
          "type": "bytes32"
        },
        {
          "internalType": "uint256",
          "name": "maxCost",
          "type": "uint256"
        }
      ],
      "name": "validatePaymasterUserOp",
      "outputs": [
        {
          "internalType": "bytes",
          "name": "context",
          "type": "bytes"
        },
        {
          "internalType": "uint256",
          "name": "sigTimeRange",
          "type": "uint256"
        }
      ],
      "stateMutability": "nonpayable",
      "type": "function"
    },
    {
      "inputs": [
        {
          "internalType": "address",
          "name": "target",
          "type": "address"
        },
        {
          "internalType": "uint256",
          "name": "amount",
          "type": "uint256"
        }
      ],
      "name": "withdrawEthDepositTo",
      "outputs": [],
      "stateMutability": "payable",
      "type": "function"
    },
    {
      "inputs": [
        {
          "internalType": "address",
          "name": "token",
          "type": "address"
        },
        {
          "internalType": "address",
          "name": "target",
          "type": "address"
        },
        {
          "internalType": "uint256",
          "name": "amount",
          "type": "uint256"
        }
      ],
      "name": "withdrawTokenDepositTo",
      "outputs": [],
      "stateMutability": "payable",
      "type": "function"
    }
  ],
  "bytecode": "0x60a06040523480156200001157600080fd5b5060405162003982380380620039828339810160408190526200003491620000da565b8062000040336200008a565b6001600160a01b03811660808190526040519081527f58593678eebbfa59e0faffe7f6369641ed5107606603f7dd27140fe9cf58c8d99060200160405180910390a150506200010c565b600080546001600160a01b038381166001600160a01b0319831681178455604051919092169283917f8be0079c531659141344cd1fd0a4f28419497f9722a3daafe3b4186f6b6457e09190a35050565b600060208284031215620000ed57600080fd5b81516001600160a01b03811681146200010557600080fd5b9392505050565b6080516138456200013d600039600081816105f40152818161171d015281816119a10152611d0e01526138456000f3fe60806040526004361061026a5760003560e01c80638fe2d83311610153578063c489744b116100cb578063db09992b1161007f578063f2fde38b11610064578063f2fde38b14610717578063f465c77e14610737578063ffa1ad741461076557600080fd5b8063db09992b146106f1578063e14199141461070457600080fd5b8063d3eccaff116100b0578063d3eccaff14610689578063d41129611461069c578063d56683a2146106d157600080fd5b8063c489744b14610649578063d3a7263d1461066957600080fd5b8063b0d691fe11610122578063ba27ff3111610107578063ba27ff3114610616578063bbc0a1c114610636578063c05073a7146102e257600080fd5b8063b0d691fe146105e2578063b26bfa761461061657600080fd5b80638fe2d8331461057c578063a82e46681461058f578063a9a23409146105a2578063b0273639146105c257600080fd5b8063715018a6116101e65780637af1a0aa116101b55780638322fff21161019a5780638322fff2146104f75780638da5cb5b146105315780638f6dbe861461055c57600080fd5b80637af1a0aa146104d15780637c3d169b146104e457600080fd5b8063715018a614610471578063728c5a3b1461048657806375fb91d914610499578063796d4371146104ac57600080fd5b806355d3ec671161023d57806360a71f461161022257806360a71f461461041e578063642f41531461043e5780636c3824ef1461045157600080fd5b806355d3ec67146102e2578063597704381461031257600080fd5b8063199160e11461026f5780632a5c792a146102845780632d1c850c146102af5780634ae05c7d146102c2575b600080fd5b61028261027d366004612de5565b61077a565b005b34801561029057600080fd5b50610299610867565b6040516102a69190612e1e565b60405180910390f35b6102826102bd366004612e78565b6108d6565b3480156102ce57600080fd5b506102826102dd366004612ee1565b610928565b3480156102ee57600080fd5b506103026102fd366004612f23565b61097b565b60405190151581526020016102a6565b34801561031e57600080fd5b506103cd61032d366004612e78565b6040805160808101825260008082526020820181905291810182905260608101919091525073ffffffffffffffffffffffffffffffffffffffff90811660009081526003602090815260409182902082516080810184528154851681526001820154808616938201939093527401000000000000000000000000000000000000000090920460ff1692820192909252600290910154909116606082015290565b6040516102a69190815173ffffffffffffffffffffffffffffffffffffffff908116825260208084015182169083015260408084015160ff1690830152606092830151169181019190915260800190565b34801561042a57600080fd5b50610302610439366004612e78565b6109a8565b61028261044c366004612f51565b6109d1565b34801561045d57600080fd5b5061028261046c366004612ee1565b610a16565b34801561047d57600080fd5b50610282610a69565b610282610494366004612ee1565b610a7d565b6102826104a7366004612f51565b610cfd565b3480156104b857600080fd5b506104c36201117081565b6040519081526020016102a6565b6102826104df366004612de5565b610d3b565b6102826104f2366004612f6e565b610e1b565b34801561050357600080fd5b5061050c600081565b60405173ffffffffffffffffffffffffffffffffffffffff90911681526020016102a6565b34801561053d57600080fd5b5060005473ffffffffffffffffffffffffffffffffffffffff1661050c565b34801561056857600080fd5b50610302610577366004612e78565b610eaa565b61028261058a366004612faf565b610eb9565b61028261059d366004612faf565b610f1b565b3480156105ae57600080fd5b506102826105bd366004612fdb565b610f80565b3480156105ce57600080fd5b506103026105dd366004612f23565b610f9a565b3480156105ee57600080fd5b5061050c7f000000000000000000000000000000000000000000000000000000000000000081565b34801561062257600080fd5b50610302610631366004612f23565b610faa565b610282610644366004612de5565b610fba565b34801561065557600080fd5b506104c3610664366004612f23565b611098565b34801561067557600080fd5b5061028261068436600461306a565b6110bf565b610282610697366004612faf565b6111c1565b3480156106a857600080fd5b506106bc6106b7366004612f23565b611216565b604080519283526020830191909152016102a6565b3480156106dd57600080fd5b506104c36106ec366004612f23565b611238565b6102826106ff366004612de5565b611248565b610282610712366004612f6e565b611327565b34801561072357600080fd5b50610282610732366004612e78565b6113a9565b34801561074357600080fd5b50610757610752366004613082565b611460565b6040516102a692919061314c565b34801561077157600080fd5b506104c3600681565b600160006107888433611483565b815260208101919091526040016000205460ff1615610808576040517f08c379a000000000000000000000000000000000000000000000000000000000815260206004820152601060248201527f46573531333a20626c61636b6c6973740000000000000000000000000000000060448201526064015b60405180910390fd5b6108138233836114b0565b6040518115158152339073ffffffffffffffffffffffffffffffffffffffff8416907f6d66491fec9d2e6ed347a66151f2836424352b4f1efdf917e0a34ef0bc08697d906020015b60405180910390a35050565b606060048054806020026020016040519081016040528092919081815260200182805480156108cc57602002820191906000526020600020905b815473ffffffffffffffffffffffffffffffffffffffff1681526001909101906020018083116108a1575b5050505050905090565b6108e281336000611501565b604051339073ffffffffffffffffffffffffffffffffffffffff8316907f0ee37b26948caf75d4edd02336e15dbcd9b455f35afe5119fa1513bdc7e1b24c90600090a350565b6109358282336001611526565b6040513390610947908490849061316e565b604051908190038120907f70283c290f112774c15d28ad06bc9a77aa5f20facfe897933c9b3d184c83c3a690600090a35050565b60006001600061098b858561157b565b815260208101919091526040016000205460ff1690505b92915050565b6000600160006109b784611589565b815260208101919091526040016000205460ff1692915050565b6109db33826115aa565b604051811515815233907fe5f5fa7efa83c0688a244ca730f98dd6e0b4f025ccaa6c7c8049c1519b5f5f31906020015b60405180910390a250565b610a238282336000611526565b6040513390610a35908490849061316e565b604051908190038120907fc613f5a5b1f8b685a3cfdd99388f0f5ebc4580a7ad1afedaa71cbd2b291435db90600090a35050565b610a716115f9565b610a7b600061167a565b565b6000805b82811015610c55577f8fe2d83300000000000000000000000000000000000000000000000000000000848483818110610abc57610abc6131bd565b9050602002810190610ace91906131ec565b610add91600491600091613251565b610ae69161327b565b7fffffffff00000000000000000000000000000000000000000000000000000000161415610b6b57600080858584818110610b2357610b236131bd565b9050602002810190610b3591906131ec565b610b43916004908290613251565b810190610b509190612faf565b915091508084019350610b643383836116ef565b5050610c4d565b600030858584818110610b8057610b806131bd565b9050602002810190610b9291906131ec565b604051610ba09291906132c3565b600060405180830381855af49150503d8060008114610bdb576040519150601f19603f3d011682016040523d82523d6000602084013e610be0565b606091505b5050905080610c4b576040517f08c379a000000000000000000000000000000000000000000000000000000000815260206004820152600560248201527f465735303000000000000000000000000000000000000000000000000000000060448201526064016107ff565b505b600101610a81565b50348114610cbf576040517f08c379a000000000000000000000000000000000000000000000000000000000815260206004820152600560248201527f465735303100000000000000000000000000000000000000000000000000000060448201526064016107ff565b7f81fcfcce721cc0767c2d0cd5442bd0d0d284ca35bf2fedc1dfde90a2c306b0e58383604051610cf092919061331c565b60405180910390a1505050565b610d0733826117f5565b604051811515815233907fb7abfba2528e740bd243dd36a89429cd33b12086140f7eadb64355ffeb297e4990602001610a0b565b60016000610d49843361157b565b815260208101919091526040016000205460ff1615610dc4576040517f08c379a000000000000000000000000000000000000000000000000000000000815260206004820152601060248201527f46573531333a2077686974656c6973740000000000000000000000000000000060448201526064016107ff565b610dcf823383611803565b6040518115158152339073ffffffffffffffffffffffffffffffffffffffff8416907f73b530b6ddb298b1ad2f12b2ae17f39d19eac56f4ea25e3deb3be489711899f19060200161085b565b610e2783338484611812565b8173ffffffffffffffffffffffffffffffffffffffff163373ffffffffffffffffffffffffffffffffffffffff168473ffffffffffffffffffffffffffffffffffffffff167f6b03e3d9b0d6275be9474bbf01d74534525157bc1c71587fe96eca23864dfb4c84604051610e9d91815260200190565b60405180910390a4505050565b6000600160006109b78461197c565b80341015610ec657600080fd5b610ed13383836116ef565b60405181815273ffffffffffffffffffffffffffffffffffffffff83169033907f5f810e4670232ef2b81dc8b2ff31673756bd57f7aef9b1968f458c62a3ac80599060200161085b565b610f2f8233610f2a8443613421565b611501565b610f398143613421565b604051339073ffffffffffffffffffffffffffffffffffffffff8516907f2575217a66a382a1b1e539c65f95ee8ccc933da64224e99951c851cabcf6a36f90600090a45050565b610f88611989565b610f9484848484611a28565b50505050565b60006001600061098b8585611b7d565b60006001600061098b8585611483565b60016000610fc733611589565b815260208101919091526040016000205460ff16611041576040517f08c379a000000000000000000000000000000000000000000000000000000000815260206004820152601060248201527f46573531323a20626c61636b6c6973740000000000000000000000000000000060448201526064016107ff565b61104c8233836114b0565b6040518115158152339073ffffffffffffffffffffffffffffffffffffffff8416907f2272082f36346bd8841fdbbe39d5f7cfded842aad507b07ebc1055cbc08fa5ca9060200161085b565b6000600260006110a88585611b97565b815260200190815260200160002054905092915050565b6110c76115f9565b60006110d96040830160208401612e78565b73ffffffffffffffffffffffffffffffffffffffff81166000908152600360205260409020909150829061110d8282613448565b5050600480546001810182556000919091527f8a35acfbc15ff81a39ae7d344fd709f28e8600b4aa8c65c6b64bfe7fe36bd19b0180547fffffffffffffffffffffffff00000000000000000000000000000000000000001673ffffffffffffffffffffffffffffffffffffffff831617905560405161118d90839061358a565b604051908190038120907f9efc7df36232a55c71238057c150a7d3596fbe8f8778f6afdf2fc2aec9d8328990600090a25050565b6111cc338383611ba5565b60405181815273ffffffffffffffffffffffffffffffffffffffff83169033907f6cd08dd2d2f473a0d120ce6e8d8f7d84893bfe31285919213b5e5e1a830afdb99060200161085b565b6000806112238484611238565b915061122f8484611098565b90509250929050565b6000600260006110a88585611d70565b6001600061125584611589565b815260208101919091526040016000205460ff16156112d0576040517f08c379a000000000000000000000000000000000000000000000000000000000815260206004820152601060248201527f46573531323a2077686974656c6973740000000000000000000000000000000060448201526064016107ff565b6112db823383611803565b6040518115158152339073ffffffffffffffffffffffffffffffffffffffff8416907fe57ca4b798d10d6c59a776a05520d537d96cbeb394df5aac34a27b2aab04b81b9060200161085b565b61133383338484611d7e565b8173ffffffffffffffffffffffffffffffffffffffff163373ffffffffffffffffffffffffffffffffffffffff168473ffffffffffffffffffffffffffffffffffffffff167f6922149c9a806df30acf51b7e859162f8e99ae4c013d404c75f2b05a9914925084604051610e9d91815260200190565b6113b16115f9565b73ffffffffffffffffffffffffffffffffffffffff8116611454576040517f08c379a000000000000000000000000000000000000000000000000000000000815260206004820152602660248201527f4f776e61626c653a206e6577206f776e657220697320746865207a65726f206160448201527f646472657373000000000000000000000000000000000000000000000000000060648201526084016107ff565b61145d8161167a565b50565b6060600061146c611989565b611477858585611eaa565b91509150935093915050565b60006114a9838360045b60f81b6000908152606092831b600152911b6015526029902090565b9392505050565b80600160006114bf8686611483565b8152602081019190915260400160002080547fffffffffffffffffffffffffffffffffffffffffffffffffffffffffffffff0016911515919091179055505050565b80600260006115108686611d70565b8152602081019190915260400160002055505050565b60005b8381101561157457611562858583818110611546576115466131bd565b905060200201602081019061155b9190612e78565b848461248a565b8061156c8161362e565b915050611529565b5050505050565b60006114a98383600561148d565b60006109a28260025b60f81b600090815260609190911b6001526015902090565b80600160006115b88561197c565b8152602081019190915260400160002080547fffffffffffffffffffffffffffffffffffffffffffffffffffffffffffffff00169115159190911790555050565b60005473ffffffffffffffffffffffffffffffffffffffff163314610a7b576040517f08c379a000000000000000000000000000000000000000000000000000000000815260206004820181905260248201527f4f776e61626c653a2063616c6c6572206973206e6f7420746865206f776e657260448201526064016107ff565b6000805473ffffffffffffffffffffffffffffffffffffffff8381167fffffffffffffffffffffffff0000000000000000000000000000000000000000831681178455604051919092169283917f8be0079c531659141344cd1fd0a4f28419497f9722a3daafe3b4186f6b6457e09190a35050565b6040517fb760faf90000000000000000000000000000000000000000000000000000000081523060048201527f000000000000000000000000000000000000000000000000000000000000000073ffffffffffffffffffffffffffffffffffffffff169063b760faf99083906024016000604051808303818588803b15801561177757600080fd5b505af115801561178b573d6000803e3d6000fd5b505050505080600260006117a0600086611b97565b815260200190815260200160002060008282546117bd9190613421565b909155505073ffffffffffffffffffffffffffffffffffffffff83811690831614156117f0576117f06000846000611501565b505050565b80600160006115b885611589565b80600160006114bf868661157b565b600061181e8585611238565b9050600061182c8686611b97565b9050811580159061183c57508143115b6118a2576040517f08c379a000000000000000000000000000000000000000000000000000000000815260206004820152600560248201527f465735303300000000000000000000000000000000000000000000000000000060448201526064016107ff565b60008181526002602052604090205483111561191a576040517f08c379a000000000000000000000000000000000000000000000000000000000815260206004820152600c60248201527f46573530343a20746f6b656e000000000000000000000000000000000000000060448201526064016107ff565b60008181526002602052604081208054859290611938908490613667565b909155505073ffffffffffffffffffffffffffffffffffffffff808716600090815260036020526040902060010154166119738186866124d7565b50505050505050565b60006109a2826003611592565b3373ffffffffffffffffffffffffffffffffffffffff7f00000000000000000000000000000000000000000000000000000000000000001614610a7b576040517f08c379a000000000000000000000000000000000000000000000000000000000815260206004820152600560248201527f465730323000000000000000000000000000000000000000000000000000000060448201526064016107ff565b6000808080808080611a3c898b018b61367e565b9650965096509650965096509650600082848662011170611a5d91906136ec565b611a67908c613421565b611a7191906136ec565b611a7b9190613729565b9050611a888689836125ab565b8060026000611a97898b611b97565b81526020019081526020016000206000828254611ab49190613421565b90915550611ac7905085620111706136ec565b611ad1908a613421565b60026000611ae060008b611b97565b81526020019081526020016000206000828254611afd9190613667565b909155505073ffffffffffffffffffffffffffffffffffffffff808816908916837fc43d58d3eb5b4a3eb73eeb50e3f98e6e5d0a082a31e5282dce8b428a81548f4384611b4d8a620111706136ec565b611b57908f613421565b6040805192835260208301919091520160405180910390a4505050505050505050505050565b606082811b60009081529082901b601452602881206114a9565b60006114a9838360016126a2565b6000611bb2600085611b97565b9050611bbf600085611238565b4311611c27576040517f08c379a000000000000000000000000000000000000000000000000000000000815260206004820152600560248201527f465735303300000000000000000000000000000000000000000000000000000060448201526064016107ff565b600081815260026020526040902054821115611c9f576040517f08c379a000000000000000000000000000000000000000000000000000000000815260206004820152600a60248201527f46573530343a206574680000000000000000000000000000000000000000000060448201526064016107ff565b60008181526002602052604081208054849290611cbd908490613667565b90915550506040517f205c287800000000000000000000000000000000000000000000000000000000815273ffffffffffffffffffffffffffffffffffffffff8481166004830152602482018490527f0000000000000000000000000000000000000000000000000000000000000000169063205c287890604401600060405180830381600087803b158015611d5257600080fd5b505af1158015611d66573d6000803e3d6000fd5b5050505050505050565b60006114a9838360006126a2565b73ffffffffffffffffffffffffffffffffffffffff841660009081526003602052604090206001015474010000000000000000000000000000000000000000900460ff16611e28576040517f08c379a000000000000000000000000000000000000000000000000000000000815260206004820152600560248201527f465735303200000000000000000000000000000000000000000000000000000060448201526064016107ff565b73ffffffffffffffffffffffffffffffffffffffff808516600090815260036020526040812060010154909116908290600290611e658887611b97565b81526020019081526020016000206000828254611e829190613421565b90915550611574905073ffffffffffffffffffffffffffffffffffffffff82168530856126c3565b60606000611ebc6101208601866131ec565b9050603c14611f27576040517f08c379a000000000000000000000000000000000000000000000000000000000815260206004820152600560248201527f465735303600000000000000000000000000000000000000000000000000000060448201526064016107ff565b620111708560a0013511611f97576040517f08c379a000000000000000000000000000000000000000000000000000000000815260206004820152600560248201527f465735303700000000000000000000000000000000000000000000000000000060448201526064016107ff565b6000611fa76101208701876131ec565b611fb691602891601491613251565b611fbf91613764565b60601c90506000611fd46101208801886131ec565b611fe2916028908290613251565b611feb91613764565b60601c9050600060026000612001600086611d70565b8152602001908152602001600020549050806000148061202057504381115b612086576040517f08c379a000000000000000000000000000000000000000000000000000000000815260206004820152600560248201527f465735303800000000000000000000000000000000000000000000000000000060448201526064016107ff565b50863560006002816120988585611d70565b81526020019081526020016000205490506000600260006120ba600088611b97565b815260200190815260200160002054905081600014806120d957504382115b61213f576040517f08c379a000000000000000000000000000000000000000000000000000000000815260206004820152600560248201527f465735303900000000000000000000000000000000000000000000000000000060448201526064016107ff565b878110156121a9576040517f08c379a000000000000000000000000000000000000000000000000000000000815260206004820152600560248201527f465735303400000000000000000000000000000000000000000000000000000060448201526064016107ff565b50506121b58184612721565b61221b576040517f08c379a000000000000000000000000000000000000000000000000000000000815260206004820152600560248201527f465735313000000000000000000000000000000000000000000000000000000060448201526064016107ff565b61222582846127a6565b61228b576040517f08c379a000000000000000000000000000000000000000000000000000000000815260206004820152600560248201527f465735313400000000000000000000000000000000000000000000000000000060448201526064016107ff565b600160006122998486611b7d565b815260208101919091526040016000205460ff16612313576040517f08c379a000000000000000000000000000000000000000000000000000000000815260206004820152600560248201527f465735313500000000000000000000000000000000000000000000000000000060448201526064016107ff565b61231d8284610f9a565b612383576040517f08c379a000000000000000000000000000000000000000000000000000000000815260206004820152600560248201527f465735313100000000000000000000000000000000000000000000000000000060448201526064016107ff565b600061238f83886127b6565b905061239c838383612981565b806123ad57506123ad838383612ae2565b612413576040517f08c379a000000000000000000000000000000000000000000000000000000000815260206004820152601560248201527f46573530343a207370656e64657220746f6b656e73000000000000000000000060448201526064016107ff565b600061241e8a612b0d565b6040805173ffffffffffffffffffffffffffffffffffffffff95861660208201529685168782015294909316606086015250608084019190915260a083015260c082019490945260e0808201959095528351808203909501855261010001909252509092600092509050565b60006124968484611b7d565b600090815260016020526040902080547fffffffffffffffffffffffffffffffffffffffffffffffffffffffffffffff001692151592909217909155505050565b60405173ffffffffffffffffffffffffffffffffffffffff83166024820152604481018290526117f09084907fa9059cbb00000000000000000000000000000000000000000000000000000000906064015b604080517fffffffffffffffffffffffffffffffffffffffffffffffffffffffffffffffe08184030181529190526020810180517bffffffffffffffffffffffffffffffffffffffffffffffffffffffff167fffffffff0000000000000000000000000000000000000000000000000000000090931692909217909152612b35565b6125b6838383612981565b156125f25773ffffffffffffffffffffffffffffffffffffffff80841660009081526003602052604090206001015416610f94818430856126c3565b60006125fe8484611b97565b600081815260026020526040902054909150821115612679576040517f08c379a000000000000000000000000000000000000000000000000000000000815260206004820152600560248201527f465735303500000000000000000000000000000000000000000000000000000060448201526064016107ff565b60008181526002602052604081208054849290612697908490613667565b909155505050505050565b60006126bb848484600581111561148d5761148d6135ff565b949350505050565b60405173ffffffffffffffffffffffffffffffffffffffff80851660248301528316604482015260648101829052610f949085907f23b872dd0000000000000000000000000000000000000000000000000000000090608401612529565b6000806001600061273185611589565b815260208101919091526040016000205460ff169050801561277c5760006001600061275d8787611483565b815260208101919091526040016000205460ff161592506109a2915050565b6001600061278a868661157b565b815260208101919091526040016000205460ff16949350505050565b600080600160006127318561197c565b73ffffffffffffffffffffffffffffffffffffffff8281166000908152600360209081526040808320815160808101835281548616815260018201548087168286015260ff7401000000000000000000000000000000000000000090910416818401819052600290920154861660608201819052835160248101919091526044810188905260648082019390935283518082039093018352608401835292810180517bffffffffffffffffffffffffffffffffffffffffffffffffffffffff167f6a2f49180000000000000000000000000000000000000000000000000000000017905282519151939492939092859283929116906128b69085906137aa565b600060405180830381855afa9150503d80600081146128f1576040519150601f19603f3d011682016040523d82523d6000602084013e6128f6565b606091505b509150915081612962576040517f08c379a000000000000000000000000000000000000000000000000000000000815260206004820152600560248201527f465736303000000000000000000000000000000000000000000000000000000060448201526064016107ff565b8080602001905181019061297691906137c6565b979650505050505050565b73ffffffffffffffffffffffffffffffffffffffff8381166000908152600360205260408082206001015490517fdd62ed3e0000000000000000000000000000000000000000000000000000000081528584166004820152306024820152919216908290829063dd62ed3e90604401602060405180830381865afa158015612a0d573d6000803e3d6000fd5b505050506040513d601f19601f82011682018060405250810190612a3191906137c6565b6040517f70a0823100000000000000000000000000000000000000000000000000000000815273ffffffffffffffffffffffffffffffffffffffff87811660048301529192506000918416906370a0823190602401602060405180830381865afa158015612aa3573d6000803e3d6000fd5b505050506040513d601f19601f82011682018060405250810190612ac791906137c6565b90508481101580156129765750509290921015949350505050565b60008160026000612af38787611b97565b815260200190815260200160002054101590509392505050565b600060e082013561010083013580821415612b29575092915050565b6126bb82488301612c41565b6000612b97826040518060400160405280602081526020017f5361666545524332303a206c6f772d6c6576656c2063616c6c206661696c65648152508573ffffffffffffffffffffffffffffffffffffffff16612c579092919063ffffffff16565b8051909150156117f05780806020019051810190612bb591906137df565b6117f0576040517f08c379a000000000000000000000000000000000000000000000000000000000815260206004820152602a60248201527f5361666545524332303a204552433230206f7065726174696f6e20646964206e60448201527f6f7420737563636565640000000000000000000000000000000000000000000060648201526084016107ff565b6000818310612c5057816114a9565b5090919050565b60606126bb8484600085856000808673ffffffffffffffffffffffffffffffffffffffff168587604051612c8b91906137aa565b60006040518083038185875af1925050503d8060008114612cc8576040519150601f19603f3d011682016040523d82523d6000602084013e612ccd565b606091505b50915091506129768783838760608315612d6c578251612d655773ffffffffffffffffffffffffffffffffffffffff85163b612d65576040517f08c379a000000000000000000000000000000000000000000000000000000000815260206004820152601d60248201527f416464726573733a2063616c6c20746f206e6f6e2d636f6e747261637400000060448201526064016107ff565b50816126bb565b6126bb8383815115612d815781518083602001fd5b806040517f08c379a00000000000000000000000000000000000000000000000000000000081526004016107ff91906137fc565b73ffffffffffffffffffffffffffffffffffffffff8116811461145d57600080fd5b801515811461145d57600080fd5b60008060408385031215612df857600080fd5b8235612e0381612db5565b91506020830135612e1381612dd7565b809150509250929050565b6020808252825182820181905260009190848201906040850190845b81811015612e6c57835173ffffffffffffffffffffffffffffffffffffffff1683529284019291840191600101612e3a565b50909695505050505050565b600060208284031215612e8a57600080fd5b81356114a981612db5565b60008083601f840112612ea757600080fd5b50813567ffffffffffffffff811115612ebf57600080fd5b6020830191508360208260051b8501011115612eda57600080fd5b9250929050565b60008060208385031215612ef457600080fd5b823567ffffffffffffffff811115612f0b57600080fd5b612f1785828601612e95565b90969095509350505050565b60008060408385031215612f3657600080fd5b8235612f4181612db5565b91506020830135612e1381612db5565b600060208284031215612f6357600080fd5b81356114a981612dd7565b600080600060608486031215612f8357600080fd5b8335612f8e81612db5565b92506020840135612f9e81612db5565b929592945050506040919091013590565b60008060408385031215612fc257600080fd5b8235612fcd81612db5565b946020939093013593505050565b60008060008060608587031215612ff157600080fd5b84356003811061300057600080fd5b9350602085013567ffffffffffffffff8082111561301d57600080fd5b818701915087601f83011261303157600080fd5b81358181111561304057600080fd5b88602082850101111561305257600080fd5b95986020929092019750949560400135945092505050565b60006080828403121561307c57600080fd5b50919050565b60008060006060848603121561309757600080fd5b833567ffffffffffffffff8111156130ae57600080fd5b840161016081870312156130c157600080fd5b95602085013595506040909401359392505050565b60005b838110156130f15781810151838201526020016130d9565b83811115610f945750506000910152565b6000815180845261311a8160208601602086016130d6565b601f017fffffffffffffffffffffffffffffffffffffffffffffffffffffffffffffffe0169290920160200192915050565b60408152600061315f6040830185613102565b90508260208301529392505050565b60008184825b858110156131b257813561318781612db5565b73ffffffffffffffffffffffffffffffffffffffff1683526020928301929190910190600101613174565b509095945050505050565b7f4e487b7100000000000000000000000000000000000000000000000000000000600052603260045260246000fd5b60008083357fffffffffffffffffffffffffffffffffffffffffffffffffffffffffffffffe184360301811261322157600080fd5b83018035915067ffffffffffffffff82111561323c57600080fd5b602001915036819003821315612eda57600080fd5b6000808585111561326157600080fd5b8386111561326e57600080fd5b5050820193919092039150565b7fffffffff0000000000000000000000000000000000000000000000000000000081358181169160048510156132bb5780818660040360031b1b83161692505b505092915050565b8183823760009101908152919050565b8183528181602085013750600060208284010152600060207fffffffffffffffffffffffffffffffffffffffffffffffffffffffffffffffe0601f840116840101905092915050565b60208082528181018390526000906040600585901b8401810190840186845b878110156133e5577fffffffffffffffffffffffffffffffffffffffffffffffffffffffffffffffc087850301835281357fffffffffffffffffffffffffffffffffffffffffffffffffffffffffffffffe18a360301811261339c57600080fd5b8901803567ffffffffffffffff8111156133b557600080fd5b8036038b13156133c457600080fd5b6133d186828985016132d3565b95505050918401919084019060010161333b565b5091979650505050505050565b7f4e487b7100000000000000000000000000000000000000000000000000000000600052601160045260246000fd5b60008219821115613434576134346133f2565b500190565b60ff8116811461145d57600080fd5b813561345381612db5565b81547fffffffffffffffffffffffff00000000000000000000000000000000000000001673ffffffffffffffffffffffffffffffffffffffff8216178255506001810160208301356134a481612db5565b81547fffffffffffffffffffffffff00000000000000000000000000000000000000001673ffffffffffffffffffffffffffffffffffffffff82161782555060408301356134f181613439565b81547fffffffffffffffffffffff00ffffffffffffffffffffffffffffffffffffffff1660a09190911b74ff000000000000000000000000000000000000000016179055606082013561354381612db5565b6002820180547fffffffffffffffffffffffff00000000000000000000000000000000000000001673ffffffffffffffffffffffffffffffffffffffff8316179055505050565b6000823561359781612db5565b73ffffffffffffffffffffffffffffffffffffffff90811683526020840135906135c082612db5565b90811660208401526040840135906135d782613439565b60ff82166040850152606085013591506135f082612db5565b16606083015250608001919050565b7f4e487b7100000000000000000000000000000000000000000000000000000000600052602160045260246000fd5b60007fffffffffffffffffffffffffffffffffffffffffffffffffffffffffffffffff821415613660576136606133f2565b5060010190565b600082821015613679576136796133f2565b500390565b600080600080600080600060e0888a03121561369957600080fd5b87356136a481612db5565b965060208801356136b481612db5565b955060408801356136c481612db5565b969995985095966060810135965060808101359560a0820135955060c0909101359350915050565b6000817fffffffffffffffffffffffffffffffffffffffffffffffffffffffffffffffff0483118215151615613724576137246133f2565b500290565b60008261375f577f4e487b7100000000000000000000000000000000000000000000000000000000600052601260045260246000fd5b500490565b7fffffffffffffffffffffffffffffffffffffffff00000000000000000000000081358181169160148510156132bb5760149490940360031b84901b1690921692915050565b600082516137bc8184602087016130d6565b9190910192915050565b6000602082840312156137d857600080fd5b5051919050565b6000602082840312156137f157600080fd5b81516114a981612dd7565b6020815260006114a9602083018461310256fea264697066735822122045bc7a06422531ccc93ffa2760114e00c28e61f3cd3df9655e4fe4ad15112f0864736f6c634300080c0033",
  "linkReferences": {},
  "deployedLinkReferences": {}
}