{"_format":"hh-sol-artifact-1","contractName":"TokenPaymaster","sourceName":"contracts/paymaster/TokenPaymaster.sol","abi":[{"inputs":[{"internalType":"contract IEntryPoint","name":"_entryPoint","type":"address"},{"internalType":"contract ITokenPriceOracle","name":"_tokenPriceOracle","type":"address"},{"internalType":"contract IERC20","name":"_token","type":"address"},{"internalType":"contract AggregatorV3Interface","name":"_aggregator","type":"address"}],"stateMutability":"nonpayable","type":"constructor"},{"anonymous":false,"inputs":[{"indexed":true,"internalType":"address","name":"previousOwner","type":"address"},{"indexed":true,"internalType":"address","name":"newOwner","type":"address"}],"name":"OwnershipTransferred","type":"event"},{"inputs":[],"name":"COST_OF_POST","outputs":[{"internalType":"uint256","name":"","type":"uint256"}],"stateMutability":"view","type":"function"},{"inputs":[{"internalType":"address","name":"sponsor","type":"address"},{"internalType":"uint256","name":"amount","type":"uint256"}],"name":"addEthDepositForSponsor","outputs":[],"stateMutability":"payable","type":"function"},{"inputs":[{"internalType":"uint32","name":"unstakeDelaySec","type":"uint32"}],"name":"addStake","outputs":[],"stateMutability":"payable","type":"function"},{"inputs":[{"internalType":"address","name":"account","type":"address"},{"internalType":"uint256","name":"amount","type":"uint256"}],"name":"addTokenDepositTo","outputs":[],"stateMutability":"payable","type":"function"},{"inputs":[{"internalType":"bytes[]","name":"data","type":"bytes[]"}],"name":"batchActions","outputs":[],"stateMutability":"payable","type":"function"},{"inputs":[],"name":"deposit","outputs":[],"stateMutability":"payable","type":"function"},{"inputs":[{"internalType":"address","name":"account","type":"address"}],"name":"depositInfo","outputs":[{"internalType":"uint256","name":"tokenAmount","type":"uint256"},{"internalType":"uint256","name":"sponsorAmount","type":"uint256"},{"internalType":"uint256","name":"_unlockBlockSponsor","type":"uint256"},{"internalType":"uint256","name":"_unlockBlockAccount","type":"uint256"}],"stateMutability":"view","type":"function"},{"inputs":[],"name":"entryPoint","outputs":[{"internalType":"contract IEntryPoint","name":"","type":"address"}],"stateMutability":"view","type":"function"},{"inputs":[],"name":"getDeposit","outputs":[{"internalType":"uint256","name":"","type":"uint256"}],"stateMutability":"view","type":"function"},{"inputs":[{"internalType":"address","name":"sponsor","type":"address"}],"name":"getEthDepositInfoForSponsor","outputs":[{"internalType":"uint256","name":"","type":"uint256"}],"stateMutability":"view","type":"function"},{"inputs":[],"name":"getToken","outputs":[{"internalType":"address","name":"","type":"address"}],"stateMutability":"view","type":"function"},{"inputs":[{"internalType":"address","name":"account","type":"address"},{"internalType":"bool","name":"sponsorMode","type":"bool"}],"name":"getUnlockBlockWithSponsor","outputs":[{"internalType":"uint256","name":"","type":"uint256"}],"stateMutability":"view","type":"function"},{"inputs":[],"name":"lockTokenDeposit","outputs":[],"stateMutability":"payable","type":"function"},{"inputs":[],"name":"owner","outputs":[{"internalType":"address","name":"","type":"address"}],"stateMutability":"view","type":"function"},{"inputs":[{"internalType":"enum IPaymaster.PostOpMode","name":"mode","type":"uint8"},{"internalType":"bytes","name":"context","type":"bytes"},{"internalType":"uint256","name":"actualGasCost","type":"uint256"}],"name":"postOp","outputs":[],"stateMutability":"nonpayable","type":"function"},{"inputs":[],"name":"renounceOwnership","outputs":[],"stateMutability":"nonpayable","type":"function"},{"inputs":[{"internalType":"address","name":"spender","type":"address"},{"internalType":"bool","name":"mode","type":"bool"}],"name":"setSpenderBlackListMode","outputs":[],"stateMutability":"payable","type":"function"},{"inputs":[{"internalType":"address","name":"spender","type":"address"},{"internalType":"bool","name":"isWhiteListed","type":"bool"}],"name":"setSpenderWhiteListMode","outputs":[],"stateMutability":"payable","type":"function"},{"inputs":[{"internalType":"bool","name":"mode","type":"bool"}],"name":"setWhitelistMode","outputs":[],"stateMutability":"payable","type":"function"},{"inputs":[{"internalType":"bytes32","name":"","type":"bytes32"}],"name":"sponsorApprovals","outputs":[{"internalType":"bool","name":"","type":"bool"}],"stateMutability":"view","type":"function"},{"inputs":[{"internalType":"address","name":"","type":"address"}],"name":"sponsorBalances","outputs":[{"internalType":"uint256","name":"","type":"uint256"}],"stateMutability":"view","type":"function"},{"inputs":[{"internalType":"address","name":"","type":"address"}],"name":"tokenBalances","outputs":[{"internalType":"uint256","name":"","type":"uint256"}],"stateMutability":"view","type":"function"},{"inputs":[{"internalType":"address","name":"newOwner","type":"address"}],"name":"transferOwnership","outputs":[],"stateMutability":"nonpayable","type":"function"},{"inputs":[{"internalType":"bytes32","name":"","type":"bytes32"}],"name":"unlockBlock","outputs":[{"internalType":"uint256","name":"","type":"uint256"}],"stateMutability":"view","type":"function"},{"inputs":[{"internalType":"uint256","name":"blockNum","type":"uint256"}],"name":"unlockSponsorEntrypointStakeAfter","outputs":[],"stateMutability":"payable","type":"function"},{"inputs":[],"name":"unlockStake","outputs":[],"stateMutability":"nonpayable","type":"function"},{"inputs":[],"name":"unlockTokenDeposit","outputs":[],"stateMutability":"payable","type":"function"},{"inputs":[{"components":[{"internalType":"address","name":"sender","type":"address"},{"internalType":"uint256","name":"nonce","type":"uint256"},{"internalType":"bytes","name":"initCode","type":"bytes"},{"internalType":"bytes","name":"callData","type":"bytes"},{"internalType":"uint256","name":"callGasLimit","type":"uint256"},{"internalType":"uint256","name":"verificationGasLimit","type":"uint256"},{"internalType":"uint256","name":"preVerificationGas","type":"uint256"},{"internalType":"uint256","name":"maxFeePerGas","type":"uint256"},{"internalType":"uint256","name":"maxPriorityFeePerGas","type":"uint256"},{"internalType":"bytes","name":"paymasterAndData","type":"bytes"},{"internalType":"bytes","name":"signature","type":"bytes"}],"internalType":"struct UserOperation","name":"userOp","type":"tuple"},{"internalType":"bytes32","name":"userOpHash","type":"bytes32"},{"internalType":"uint256","name":"maxCost","type":"uint256"}],"name":"validatePaymasterUserOp","outputs":[{"internalType":"bytes","name":"context","type":"bytes"},{"internalType":"uint256","name":"sigTimeRange","type":"uint256"}],"stateMutability":"nonpayable","type":"function"},{"inputs":[{"internalType":"address","name":"target","type":"address"},{"internalType":"uint256","name":"amount","type":"uint256"}],"name":"withdrawEthDepositTo","outputs":[],"stateMutability":"payable","type":"function"},{"inputs":[{"internalType":"address payable","name":"withdrawAddress","type":"address"}],"name":"withdrawStake","outputs":[],"stateMutability":"nonpayable","type":"function"},{"inputs":[{"internalType":"address payable","name":"withdrawAddress","type":"address"},{"internalType":"uint256","name":"amount","type":"uint256"}],"name":"withdrawTo","outputs":[],"stateMutability":"nonpayable","type":"function"},{"inputs":[{"internalType":"address","name":"target","type":"address"},{"internalType":"uint256","name":"amount","type":"uint256"}],"name":"withdrawTokenDepositTo","outputs":[],"stateMutability":"payable","type":"function"}],"bytecode":"0x60a06040523480156200001157600080fd5b50604051620030e5380380620030e583398101604081905262000034916200023f565b83620000403362000130565b6001600160a01b03166080526200005662000180565b600180546001600160a01b038086166001600160a01b0319928316179092556002805492851692909116821790556040805163313ce56760e01b8152905163313ce567916004808201926020929091908290030181865afa158015620000c0573d6000803e3d6000fd5b505050506040513d601f19601f82011682018060405250810190620000e69190620002a7565b6002805460ff92909216600160a01b0260ff60a01b19909216919091179055600380546001600160a01b039092166001600160a01b031990921691909117905550620002d3915050565b600080546001600160a01b038381166001600160a01b0319831681178455604051919092169283917f8be0079c531659141344cd1fd0a4f28419497f9722a3daafe3b4186f6b6457e09190a35050565b6200018b336200018d565b565b6200019b816000436200019e565b50565b81620001c0576001600160a01b03831660009081526005602052604090208190555b604080516001600160a01b038516602082015280820191909152600760608201526639b837b739b7b960c91b6080820152819060059060009060a00160405160208183030381529060405280519060200120815260200190815260200160002081905550505050565b6001600160a01b03811681146200019b57600080fd5b600080600080608085870312156200025657600080fd5b8451620002638162000229565b6020860151909450620002768162000229565b6040860151909350620002898162000229565b60608601519092506200029c8162000229565b939692955090935050565b600060208284031215620002ba57600080fd5b815160ff81168114620002cc57600080fd5b9392505050565b608051612dbe62000327600039600081816104a501528181610627015281816106f101528181610cb101528181610ec801528181610f58015281816110140152818161148601526116d10152612dbe6000f3fe6080604052600436106101e35760003560e01c80638da5cb5b11610102578063c399ec8811610095578063e6e61d1b11610064578063e6e61d1b14610547578063e8db215d1461055a578063f2fde38b1461059d578063f465c77e146105bd57600080fd5b8063c399ec881461050f578063cd8f80c214610524578063d0e30db01461052c578063d3eccaff1461053457600080fd5b8063b0d691fe116100d1578063b0d691fe14610493578063bb9fe6bf146104c7578063bf9166a0146104dc578063c23a5cea146104ef57600080fd5b80638da5cb5b146104135780639d31b69d1461043e5780639ed0fb681461046b578063a9a234091461047357600080fd5b806355135b9f1161017a578063728c5a3b11610149578063728c5a3b146103b7578063786be65d146103ca578063796d4371146103ea578063876e132b1461040057600080fd5b806355135b9f1461033c57806355aa42cb1461034f5780636344598914610362578063715018a6146103a257600080fd5b806340e15afe116101b657806340e15afe146102ae578063425bc1e9146102e95780634f4400c6146102fc578063523fba7f1461030f57600080fd5b80630396cb60146101e857806315dab52e146101fd578063205c28781461024257806321df0da714610262575b600080fd5b6101fb6101f636600461279b565b6105eb565b005b34801561020957600080fd5b5061022d6102183660046127c1565b60046020526000908152604090205460ff1681565b60405190151581526020015b60405180910390f35b34801561024e57600080fd5b506101fb61025d3660046127fc565b61069d565b34801561026e57600080fd5b5060025473ffffffffffffffffffffffffffffffffffffffff165b60405173ffffffffffffffffffffffffffffffffffffffff9091168152602001610239565b3480156102ba57600080fd5b506102db6102c93660046127c1565b60056020526000908152604090205481565b604051908152602001610239565b6101fb6102f7366004612836565b610735565b6101fb61030a3660046127fc565b610742565b34801561031b57600080fd5b506102db61032a366004612853565b60066020526000908152604090205481565b6101fb61034a3660046127fc565b610751565b6101fb61035d366004612870565b610769565b34801561036e57600080fd5b5061038261037d366004612853565b6108bf565b604080519485526020850193909352918301526060820152608001610239565b3480156103ae57600080fd5b506101fb610914565b6101fb6103c53660046128a9565b610928565b3480156103d657600080fd5b506102db6103e5366004612870565b610bbb565b3480156103f657600080fd5b506102db6188b881565b6101fb61040e3660046127fc565b610c79565b34801561041f57600080fd5b5060005473ffffffffffffffffffffffffffffffffffffffff16610289565b34801561044a57600080fd5b506102db610459366004612853565b60076020526000908152604090205481565b6101fb610c84565b34801561047f57600080fd5b506101fb61048e36600461291e565b610c8d565b34801561049f57600080fd5b506102897f000000000000000000000000000000000000000000000000000000000000000081565b3480156104d357600080fd5b506101fb610ca7565b6101fb6104ea366004612870565b610d2b565b3480156104fb57600080fd5b506101fb61050a366004612853565b610e7b565b34801561051b57600080fd5b506102db610f27565b6101fb610fdd565b6101fb610fe6565b6101fb6105423660046127fc565b61106e565b6101fb6105553660046127c1565b611079565b34801561056657600080fd5b506102db610575366004612853565b73ffffffffffffffffffffffffffffffffffffffff1660009081526007602052604090205490565b3480156105a957600080fd5b506101fb6105b8366004612853565b611083565b3480156105c957600080fd5b506105dd6105d83660046129ad565b611137565b604051610239929190612a77565b6105f361115a565b6040517f0396cb6000000000000000000000000000000000000000000000000000000000815263ffffffff821660048201527f000000000000000000000000000000000000000000000000000000000000000073ffffffffffffffffffffffffffffffffffffffff1690630396cb609034906024016000604051808303818588803b15801561068157600080fd5b505af1158015610695573d6000803e3d6000fd5b505050505050565b6106a561115a565b6040517f205c287800000000000000000000000000000000000000000000000000000000815273ffffffffffffffffffffffffffffffffffffffff8381166004830152602482018390527f0000000000000000000000000000000000000000000000000000000000000000169063205c287890604401600060405180830381600087803b15801561068157600080fd5b61073f33826111db565b50565b61074d33838361129c565b5050565b8034101561075e57600080fd5b61074d338284611458565b600460006107e8336040805173ffffffffffffffffffffffffffffffffffffffff8316602082015280820191909152600960608201527f77686974656c6973740000000000000000000000000000000000000000000000608082015260009060a001604051602081830303815290604052805190602001209050919050565b815260208101919091526040016000205460ff16156108b4576040517f08c379a000000000000000000000000000000000000000000000000000000000815260206004820152604660248201527f546f6b656e5061796d61737465723a206d6f64652069732073657420746f207760448201527f686974656c6973742063616e206e6f7420616464207573657220746f20626c6160648201527f636b6c6973740000000000000000000000000000000000000000000000000000608482015260a4015b60405180910390fd5b61074d33838361155e565b73ffffffffffffffffffffffffffffffffffffffff811660009081526006602090815260408083205460079092528220549091806108fe856001610bbb565b915061090b856000610bbb565b90509193509193565b61091c61115a565b61092660006115af565b565b6000805b82811015610b26577f55135b9f0000000000000000000000000000000000000000000000000000000084848381811061096757610967612a99565b90506020028101906109799190612ac8565b61098891600491600091612b34565b61099191612b5e565b7fffffffff00000000000000000000000000000000000000000000000000000000161415610a16576000808585848181106109ce576109ce612a99565b90506020028101906109e09190612ac8565b6109ee916004908290612b34565b8101906109fb91906127fc565b915091508084019350610a0f338284611458565b5050610b1e565b600030858584818110610a2b57610a2b612a99565b9050602002810190610a3d9190612ac8565b604051610a4b929190612ba6565b600060405180830381855af49150503d8060008114610a86576040519150601f19603f3d011682016040523d82523d6000602084013e610a8b565b606091505b5050905080610b1c576040517f08c379a000000000000000000000000000000000000000000000000000000000815260206004820152603360248201527f546f6b656e5061796d61737465723a20696e7465726e616c206261746368656460448201527f207472616e73616374696f6e206661696c65640000000000000000000000000060648201526084016108ab565b505b60010161092c565b50348114610bb6576040517f08c379a000000000000000000000000000000000000000000000000000000000815260206004820152603860248201527f546f6b656e5061796d61737465723a20426174636865642076616c756520697360448201527f206e6f7420657175616c20746f2073656e742076616c7565000000000000000060648201526084016108ab565b505050565b600081610bee575073ffffffffffffffffffffffffffffffffffffffff8216600090815260056020526040902054610c73565b6040805173ffffffffffffffffffffffffffffffffffffffff8516602082015280820191909152600760608201527f73706f6e736f7200000000000000000000000000000000000000000000000000608082015260059060009060a0016040516020818303038152906040528051906020012081526020019081526020016000205490505b92915050565b61074d338383611624565b610926336116ad565b610c956116b9565b610ca1848484846116fb565b50505050565b610caf61115a565b7f000000000000000000000000000000000000000000000000000000000000000073ffffffffffffffffffffffffffffffffffffffff1663bb9fe6bf6040518163ffffffff1660e01b8152600401600060405180830381600087803b158015610d1757600080fd5b505af1158015610ca1573d6000803e3d6000fd5b60046000610daa336040805173ffffffffffffffffffffffffffffffffffffffff8316602082015280820191909152600960608201527f77686974656c6973740000000000000000000000000000000000000000000000608082015260009060a001604051602081830303815290604052805190602001209050919050565b815260208101919091526040016000205460ff16610e70576040517f08c379a000000000000000000000000000000000000000000000000000000000815260206004820152604660248201527f546f6b656e5061796d61737465723a206d6f64652069732073657420746f206260448201527f6c61636b6c6973742063616e206e6f7420616464207573657220746f2077686960648201527f74656c6973740000000000000000000000000000000000000000000000000000608482015260a4016108ab565b61074d3383836117ea565b610e8361115a565b6040517fc23a5cea00000000000000000000000000000000000000000000000000000000815273ffffffffffffffffffffffffffffffffffffffff82811660048301527f0000000000000000000000000000000000000000000000000000000000000000169063c23a5cea90602401600060405180830381600087803b158015610f0c57600080fd5b505af1158015610f20573d6000803e3d6000fd5b5050505050565b6040517f70a082310000000000000000000000000000000000000000000000000000000081523060048201526000907f000000000000000000000000000000000000000000000000000000000000000073ffffffffffffffffffffffffffffffffffffffff16906370a0823190602401602060405180830381865afa158015610fb4573d6000803e3d6000fd5b505050506040513d601f19601f82011682018060405250810190610fd89190612bb6565b905090565b610926336117f9565b6040517fb760faf90000000000000000000000000000000000000000000000000000000081523060048201527f000000000000000000000000000000000000000000000000000000000000000073ffffffffffffffffffffffffffffffffffffffff169063b760faf99034906024016000604051808303818588803b158015610f0c57600080fd5b61074d338383611805565b61073f33826119d0565b61108b61115a565b73ffffffffffffffffffffffffffffffffffffffff811661112e576040517f08c379a000000000000000000000000000000000000000000000000000000000815260206004820152602660248201527f4f776e61626c653a206e6577206f776e657220697320746865207a65726f206160448201527f646472657373000000000000000000000000000000000000000000000000000060648201526084016108ab565b61073f816115af565b606060006111436116b9565b61114e8585856119e5565b91509150935093915050565b60005473ffffffffffffffffffffffffffffffffffffffff163314610926576040517f08c379a000000000000000000000000000000000000000000000000000000000815260206004820181905260248201527f4f776e61626c653a2063616c6c6572206973206e6f7420746865206f776e657260448201526064016108ab565b806004600061125b856040805173ffffffffffffffffffffffffffffffffffffffff8316602082015280820191909152600960608201527f77686974656c6973740000000000000000000000000000000000000000000000608082015260009060a001604051602081830303815290604052805190602001209050919050565b8152602081019190915260400160002080547fffffffffffffffffffffffffffffffffffffffffffffffffffffffffffffff00169115159190911790555050565b60006112a9846000610bbb565b905080158015906112b957508043115b611345576040517f08c379a000000000000000000000000000000000000000000000000000000000815260206004820152602760248201527f546f6b656e5061796d61737465723a206d75737420756e6c6f636b546f6b656e60448201527f4465706f7369740000000000000000000000000000000000000000000000000060648201526084016108ab565b73ffffffffffffffffffffffffffffffffffffffff84166000908152600660205260409020548211156113fa576040517f08c379a000000000000000000000000000000000000000000000000000000000815260206004820152602a60248201527f546f6b656e5061796d61737465723a20646f6573206e6f74206861766520656e60448201527f6f7567682066756e64730000000000000000000000000000000000000000000060648201526084016108ab565b73ffffffffffffffffffffffffffffffffffffffff84166000908152600660205260408120805484929061142f908490612bfe565b9091555050600254610ca19073ffffffffffffffffffffffffffffffffffffffff168484611ed0565b6040517fb760faf90000000000000000000000000000000000000000000000000000000081523060048201527f000000000000000000000000000000000000000000000000000000000000000073ffffffffffffffffffffffffffffffffffffffff169063b760faf99084906024016000604051808303818588803b1580156114e057600080fd5b505af11580156114f4573d6000803e3d6000fd5b50505073ffffffffffffffffffffffffffffffffffffffff83166000908152600760205260408120805486945090925061152f908490612c15565b909155505073ffffffffffffffffffffffffffffffffffffffff8381169082161415610bb657610bb683611fa4565b806004600061156d8686611fb1565b8152602081019190915260400160002080547fffffffffffffffffffffffffffffffffffffffffffffffffffffffffffffff0016911515919091179055505050565b6000805473ffffffffffffffffffffffffffffffffffffffff8381167fffffffffffffffffffffffff0000000000000000000000000000000000000000831681178455604051919092169283917f8be0079c531659141344cd1fd0a4f28419497f9722a3daafe3b4186f6b6457e09190a35050565b6002546116499073ffffffffffffffffffffffffffffffffffffffff16843084612033565b73ffffffffffffffffffffffffffffffffffffffff82166000908152600660205260408120805483929061167e908490612c15565b909155505073ffffffffffffffffffffffffffffffffffffffff8381169083161415610bb657610bb6836117f9565b61073f81600043612091565b3373ffffffffffffffffffffffffffffffffffffffff7f0000000000000000000000000000000000000000000000000000000000000000161461092657600080fd5b60008080808061170d87890189612c2d565b9450945094509450945060008183856188b86117299190612c7e565b611733908a612c15565b61173d9190612c7e565b6117479190612cbb565b9050611753868261214b565b73ffffffffffffffffffffffffffffffffffffffff851660009081526006602052604081208054839290611788908490612c15565b9091555061179a9050846188b8612c7e565b6117a49088612c15565b73ffffffffffffffffffffffffffffffffffffffff8616600090815260076020526040812080549091906117d9908490612bfe565b909155505050505050505050505050565b806004600061156d868661224c565b61073f81600080612091565b611810836001610bbb565b431161189e576040517f08c379a000000000000000000000000000000000000000000000000000000000815260206004820152602760248201527f546f6b656e5061796d61737465723a206d75737420756e6c6f636b546f6b656e60448201527f4465706f7369740000000000000000000000000000000000000000000000000060648201526084016108ab565b73ffffffffffffffffffffffffffffffffffffffff8316600090815260076020526040902054811115611953576040517f08c379a000000000000000000000000000000000000000000000000000000000815260206004820152602760248201527f546f6b656e5061796d61737465723a206d75737420756e6c6f636b546f6b656e60448201527f4465706f7369740000000000000000000000000000000000000000000000000060648201526084016108ab565b73ffffffffffffffffffffffffffffffffffffffff831660009081526007602052604081208054839290611988908490612bfe565b909155505060405173ffffffffffffffffffffffffffffffffffffffff83169082156108fc029083906000818181858888f19350505050158015610ca1573d6000803e3d6000fd5b61074d8260016119e08443612c15565b612091565b606060006119f7610120860186612ac8565b9050602814611a88576040517f08c379a000000000000000000000000000000000000000000000000000000000815260206004820152603560248201527f546f6b656e5061796d61737465723a207061796d6173746572416e644461746160448201527f206d75737420737065636966792073706f6e736f72000000000000000000000060648201526084016108ab565b6188b88560a0013511611b1d576040517f08c379a000000000000000000000000000000000000000000000000000000000815260206004820152602660248201527f546f6b656e5061796d61737465723a2067617320746f6f206c6f7720666f722060448201527f706f73744f70000000000000000000000000000000000000000000000000000060648201526084016108ab565b366000611b2e610120880188612ac8565b90925090506000611b428260148186612b34565b611b4b91612cf6565b60601c90506000611b5d826001610bbb565b9050801580611b6b57504381115b611bd1576040517f08c379a000000000000000000000000000000000000000000000000000000000815260206004820152601c60248201527f546f6b656e5061796d61737465723a205374616b65204c6f636b65640000000060448201526064016108ab565b88356000611bdf8282610bbb565b9050801580611bed57504381115b611c79576040517f08c379a000000000000000000000000000000000000000000000000000000000815260206004820152602260248201527f546f6b656e5061796d61737465723a206465706f736974206e6f74206c6f636b60448201527f656400000000000000000000000000000000000000000000000000000000000060648201526084016108ab565b73ffffffffffffffffffffffffffffffffffffffff8416600090815260076020526040902054891115611d2e576040517f08c379a000000000000000000000000000000000000000000000000000000000815260206004820152602c60248201527f546f6b656e5061796d61737465723a20646f6573206e6f74206861766520656e60448201527f6f75676820746f2066756e64000000000000000000000000000000000000000060648201526084016108ab565b611d388483612281565b611dc4576040517f08c379a000000000000000000000000000000000000000000000000000000000815260206004820152603360248201527f546f6b656e5061796d61737465723a20686173206e6f74206f7220646f65732060448201527f6e6f7420617070726f7665207370656e6465720000000000000000000000000060648201526084016108ab565b6000611dd0838261235a565b80611e00575073ffffffffffffffffffffffffffffffffffffffff83166000908152600660205260409020548111155b611e66576040517f08c379a000000000000000000000000000000000000000000000000000000000815260206004820181905260248201527f546f6b656e5061796d61737465723a20757365722063616e206e6f742070617960448201526064016108ab565b6000611e718d6124ad565b6040805173ffffffffffffffffffffffffffffffffffffffff9687166020820152979095168786015260608701525060808501525060a0808401989098528051808403909801885260c090920190915250939660009650945050505050565b60405173ffffffffffffffffffffffffffffffffffffffff8316602482015260448101829052610bb69084907fa9059cbb00000000000000000000000000000000000000000000000000000000906064015b604080517fffffffffffffffffffffffffffffffffffffffffffffffffffffffffffffffe08184030181529190526020810180517bffffffffffffffffffffffffffffffffffffffffffffffffffffffff167fffffffff00000000000000000000000000000000000000000000000000000000909316929092179091526124dd565b61073f8160016000612091565b6040805173ffffffffffffffffffffffffffffffffffffffff8085166020830152831691810191909152606080820152600960808201527f626c61636b6c697374000000000000000000000000000000000000000000000060a082015260009060c0015b60405160208183030381529060405280519060200120905092915050565b60405173ffffffffffffffffffffffffffffffffffffffff80851660248301528316604482015260648101829052610ca19085907f23b872dd0000000000000000000000000000000000000000000000000000000090608401611f22565b816120bf5773ffffffffffffffffffffffffffffffffffffffff831660009081526005602052604090208190555b6040805173ffffffffffffffffffffffffffffffffffffffff8516602082015280820191909152600760608201527f73706f6e736f72000000000000000000000000000000000000000000000000006080820152819060059060009060a00160405160208183030381529060405280519060200120815260200190815260200160002081905550505050565b612155828261235a565b1561217f5760025461074d9073ffffffffffffffffffffffffffffffffffffffff16833084612033565b73ffffffffffffffffffffffffffffffffffffffff821660009081526006602052604090205481111561220e576040517f08c379a000000000000000000000000000000000000000000000000000000000815260206004820152601460248201527f446f6573206e6f74206861766520746f6b656e7300000000000000000000000060448201526064016108ab565b73ffffffffffffffffffffffffffffffffffffffff821660009081526006602052604081208054839290612243908490612bfe565b90915550505050565b6040805173ffffffffffffffffffffffffffffffffffffffff8085166020830152831691810191909152600090606001612015565b60008060046000612303866040805173ffffffffffffffffffffffffffffffffffffffff8316602082015280820191909152600960608201527f77686974656c6973740000000000000000000000000000000000000000000000608082015260009060a001604051602081830303815290604052805190602001209050919050565b815260208101919091526040016000205460ff169050806123305761232884846125e9565b915050610c73565b6004600061233e868661224c565b815260208101919091526040016000205460ff16949350505050565b6002546040517fdd62ed3e00000000000000000000000000000000000000000000000000000000815273ffffffffffffffffffffffffffffffffffffffff8481166004830152306024830152600092839291169063dd62ed3e90604401602060405180830381865afa1580156123d4573d6000803e3d6000fd5b505050506040513d601f19601f820116820180604052508101906123f89190612bb6565b6002546040517f70a0823100000000000000000000000000000000000000000000000000000000815273ffffffffffffffffffffffffffffffffffffffff8781166004830152929350600092909116906370a0823190602401602060405180830381865afa15801561246e573d6000803e3d6000fd5b505050506040513d601f19601f820116820180604052508101906124929190612bb6565b90508381101580156124a45750838210155b95945050505050565b600060e0820135610100830135808214156124c9575092915050565b6124d582488301612615565b949350505050565b600061253f826040518060400160405280602081526020017f5361666545524332303a206c6f772d6c6576656c2063616c6c206661696c65648152508573ffffffffffffffffffffffffffffffffffffffff1661262d9092919063ffffffff16565b805190915015610bb6578080602001905181019061255d9190612d3c565b610bb6576040517f08c379a000000000000000000000000000000000000000000000000000000000815260206004820152602a60248201527f5361666545524332303a204552433230206f7065726174696f6e20646964206e60448201527f6f7420737563636565640000000000000000000000000000000000000000000060648201526084016108ab565b6000600460006125f98585611fb1565b815260208101919091526040016000205460ff16159392505050565b60008183106126245781612626565b825b9392505050565b60606124d58484600085856000808673ffffffffffffffffffffffffffffffffffffffff1685876040516126619190612d59565b60006040518083038185875af1925050503d806000811461269e576040519150601f19603f3d011682016040523d82523d6000602084013e6126a3565b606091505b50915091506126b4878383876126bf565b979650505050505050565b6060831561275257825161274b5773ffffffffffffffffffffffffffffffffffffffff85163b61274b576040517f08c379a000000000000000000000000000000000000000000000000000000000815260206004820152601d60248201527f416464726573733a2063616c6c20746f206e6f6e2d636f6e747261637400000060448201526064016108ab565b50816124d5565b6124d583838151156127675781518083602001fd5b806040517f08c379a00000000000000000000000000000000000000000000000000000000081526004016108ab9190612d75565b6000602082840312156127ad57600080fd5b813563ffffffff8116811461262657600080fd5b6000602082840312156127d357600080fd5b5035919050565b73ffffffffffffffffffffffffffffffffffffffff8116811461073f57600080fd5b6000806040838503121561280f57600080fd5b823561281a816127da565b946020939093013593505050565b801515811461073f57600080fd5b60006020828403121561284857600080fd5b813561262681612828565b60006020828403121561286557600080fd5b8135612626816127da565b6000806040838503121561288357600080fd5b823561288e816127da565b9150602083013561289e81612828565b809150509250929050565b600080602083850312156128bc57600080fd5b823567ffffffffffffffff808211156128d457600080fd5b818501915085601f8301126128e857600080fd5b8135818111156128f757600080fd5b8660208260051b850101111561290c57600080fd5b60209290920196919550909350505050565b6000806000806060858703121561293457600080fd5b84356003811061294357600080fd5b9350602085013567ffffffffffffffff8082111561296057600080fd5b818701915087601f83011261297457600080fd5b81358181111561298357600080fd5b88602082850101111561299557600080fd5b95986020929092019750949560400135945092505050565b6000806000606084860312156129c257600080fd5b833567ffffffffffffffff8111156129d957600080fd5b840161016081870312156129ec57600080fd5b95602085013595506040909401359392505050565b60005b83811015612a1c578181015183820152602001612a04565b83811115610ca15750506000910152565b60008151808452612a45816020860160208601612a01565b601f017fffffffffffffffffffffffffffffffffffffffffffffffffffffffffffffffe0169290920160200192915050565b604081526000612a8a6040830185612a2d565b90508260208301529392505050565b7f4e487b7100000000000000000000000000000000000000000000000000000000600052603260045260246000fd5b60008083357fffffffffffffffffffffffffffffffffffffffffffffffffffffffffffffffe1843603018112612afd57600080fd5b83018035915067ffffffffffffffff821115612b1857600080fd5b602001915036819003821315612b2d57600080fd5b9250929050565b60008085851115612b4457600080fd5b83861115612b5157600080fd5b5050820193919092039150565b7fffffffff000000000000000000000000000000000000000000000000000000008135818116916004851015612b9e5780818660040360031b1b83161692505b505092915050565b8183823760009101908152919050565b600060208284031215612bc857600080fd5b5051919050565b7f4e487b7100000000000000000000000000000000000000000000000000000000600052601160045260246000fd5b600082821015612c1057612c10612bcf565b500390565b60008219821115612c2857612c28612bcf565b500190565b600080600080600060a08688031215612c4557600080fd5b8535612c50816127da565b94506020860135612c60816127da565b94979496505050506040830135926060810135926080909101359150565b6000817fffffffffffffffffffffffffffffffffffffffffffffffffffffffffffffffff0483118215151615612cb657612cb6612bcf565b500290565b600082612cf1577f4e487b7100000000000000000000000000000000000000000000000000000000600052601260045260246000fd5b500490565b7fffffffffffffffffffffffffffffffffffffffff0000000000000000000000008135818116916014851015612b9e5760149490940360031b84901b1690921692915050565b600060208284031215612d4e57600080fd5b815161262681612828565b60008251612d6b818460208701612a01565b9190910192915050565b6020815260006126266020830184612a2d56fea2646970667358221220352a72cbfc99ee2ad5228e4d4d1abab820c4ee19cae373ad1c3dc59a9934900964736f6c634300080c0033","linkReferences":{},"deployedLinkReferences":{}}