{"_format":"hh-sol-artifact-1","contractName":"TokenPaymaster","sourceName":"contracts/paymaster/TokenPaymaster.sol","abi":[{"inputs":[{"internalType":"contract IEntryPoint","name":"_entryPoint","type":"address"}],"stateMutability":"nonpayable","type":"constructor"},{"anonymous":false,"inputs":[{"indexed":true,"internalType":"address","name":"previousOwner","type":"address"},{"indexed":true,"internalType":"address","name":"newOwner","type":"address"}],"name":"OwnershipTransferred","type":"event"},{"inputs":[],"name":"COST_OF_POST","outputs":[{"internalType":"uint256","name":"","type":"uint256"}],"stateMutability":"view","type":"function"},{"inputs":[],"name":"ETH","outputs":[{"internalType":"address","name":"","type":"address"}],"stateMutability":"view","type":"function"},{"inputs":[{"internalType":"address","name":"sponsor","type":"address"},{"internalType":"uint256","name":"amount","type":"uint256"}],"name":"addEthDepositTo","outputs":[],"stateMutability":"payable","type":"function"},{"inputs":[{"internalType":"uint32","name":"unstakeDelaySec","type":"uint32"}],"name":"addStake","outputs":[],"stateMutability":"payable","type":"function"},{"inputs":[{"internalType":"address","name":"token","type":"address"},{"internalType":"address","name":"spender","type":"address"},{"internalType":"uint256","name":"amount","type":"uint256"}],"name":"addTokenDepositTo","outputs":[],"stateMutability":"payable","type":"function"},{"inputs":[{"internalType":"bytes[]","name":"data","type":"bytes[]"}],"name":"batchActions","outputs":[],"stateMutability":"payable","type":"function"},{"inputs":[],"name":"deposit","outputs":[],"stateMutability":"payable","type":"function"},{"inputs":[],"name":"entryPoint","outputs":[{"internalType":"contract IEntryPoint","name":"","type":"address"}],"stateMutability":"view","type":"function"},{"inputs":[{"internalType":"address","name":"token","type":"address"},{"internalType":"address","name":"spender","type":"address"}],"name":"getAllTokenData","outputs":[{"internalType":"uint256","name":"unlockBlock","type":"uint256"},{"internalType":"uint256","name":"tokenAmount","type":"uint256"}],"stateMutability":"view","type":"function"},{"inputs":[],"name":"getAllTokens","outputs":[{"internalType":"address[]","name":"","type":"address[]"}],"stateMutability":"view","type":"function"},{"inputs":[],"name":"getDeposit","outputs":[{"internalType":"uint256","name":"","type":"uint256"}],"stateMutability":"view","type":"function"},{"inputs":[{"internalType":"address","name":"sponsor","type":"address"}],"name":"getListMode","outputs":[{"internalType":"bool","name":"","type":"bool"}],"stateMutability":"view","type":"function"},{"inputs":[{"internalType":"address","name":"spender","type":"address"},{"internalType":"address","name":"sponsor","type":"address"}],"name":"getSpenderBlacklisted","outputs":[{"internalType":"bool","name":"","type":"bool"}],"stateMutability":"view","type":"function"},{"inputs":[{"internalType":"address","name":"spender","type":"address"},{"internalType":"address","name":"sponsor","type":"address"}],"name":"getSpenderWhitelisted","outputs":[{"internalType":"bool","name":"","type":"bool"}],"stateMutability":"view","type":"function"},{"inputs":[{"internalType":"address","name":"token","type":"address"},{"internalType":"address","name":"sponsor","type":"address"}],"name":"getSponsorTokenUsage","outputs":[{"internalType":"bool","name":"","type":"bool"}],"stateMutability":"view","type":"function"},{"inputs":[{"internalType":"address","name":"token","type":"address"}],"name":"getToken","outputs":[{"components":[{"internalType":"contract ITokenPriceOracle","name":"oracle","type":"address"},{"internalType":"contract IERC20","name":"token","type":"address"},{"internalType":"uint8","name":"decimals","type":"uint8"},{"internalType":"contract AggregatorV3Interface","name":"aggregator","type":"address"}],"internalType":"struct TokenData","name":"","type":"tuple"}],"stateMutability":"view","type":"function"},{"inputs":[{"internalType":"address","name":"token","type":"address"},{"internalType":"address","name":"spender","type":"address"}],"name":"getTokenBalance","outputs":[{"internalType":"uint256","name":"tokenAmount","type":"uint256"}],"stateMutability":"view","type":"function"},{"inputs":[{"internalType":"address","name":"token","type":"address"},{"internalType":"address","name":"spender","type":"address"}],"name":"getUnlockBlock","outputs":[{"internalType":"uint256","name":"unlockBlock","type":"uint256"}],"stateMutability":"view","type":"function"},{"inputs":[{"internalType":"address","name":"token","type":"address"}],"name":"lockTokenDeposit","outputs":[],"stateMutability":"payable","type":"function"},{"inputs":[],"name":"owner","outputs":[{"internalType":"address","name":"","type":"address"}],"stateMutability":"view","type":"function"},{"inputs":[{"internalType":"enum IPaymaster.PostOpMode","name":"mode","type":"uint8"},{"internalType":"bytes","name":"context","type":"bytes"},{"internalType":"uint256","name":"actualGasCost","type":"uint256"}],"name":"postOp","outputs":[],"stateMutability":"nonpayable","type":"function"},{"inputs":[{"internalType":"address[]","name":"_tokens","type":"address[]"}],"name":"removeTokens","outputs":[],"stateMutability":"nonpayable","type":"function"},{"inputs":[],"name":"renounceOwnership","outputs":[],"stateMutability":"nonpayable","type":"function"},{"inputs":[{"internalType":"bool","name":"mode","type":"bool"}],"name":"setListMode","outputs":[],"stateMutability":"payable","type":"function"},{"inputs":[{"internalType":"address","name":"spender","type":"address"},{"internalType":"bool","name":"mode","type":"bool"}],"name":"setSpenderBlacklistMode","outputs":[],"stateMutability":"payable","type":"function"},{"inputs":[{"internalType":"address","name":"spender","type":"address"},{"internalType":"bool","name":"mode","type":"bool"}],"name":"setSpenderWhitelistMode","outputs":[],"stateMutability":"payable","type":"function"},{"inputs":[{"components":[{"internalType":"contract ITokenPriceOracle","name":"oracle","type":"address"},{"internalType":"contract IERC20","name":"token","type":"address"},{"internalType":"uint8","name":"decimals","type":"uint8"},{"internalType":"contract AggregatorV3Interface","name":"aggregator","type":"address"}],"internalType":"struct TokenData","name":"data","type":"tuple"}],"name":"setTokenData","outputs":[],"stateMutability":"nonpayable","type":"function"},{"inputs":[{"internalType":"address","name":"newOwner","type":"address"}],"name":"transferOwnership","outputs":[],"stateMutability":"nonpayable","type":"function"},{"inputs":[],"name":"unlockStake","outputs":[],"stateMutability":"nonpayable","type":"function"},{"inputs":[{"internalType":"address","name":"token","type":"address"},{"internalType":"uint256","name":"num","type":"uint256"}],"name":"unlockTokenDepositAfter","outputs":[],"stateMutability":"payable","type":"function"},{"inputs":[{"internalType":"address[]","name":"_tokens","type":"address[]"}],"name":"useTokens","outputs":[],"stateMutability":"nonpayable","type":"function"},{"inputs":[{"components":[{"internalType":"address","name":"sender","type":"address"},{"internalType":"uint256","name":"nonce","type":"uint256"},{"internalType":"bytes","name":"initCode","type":"bytes"},{"internalType":"bytes","name":"callData","type":"bytes"},{"internalType":"uint256","name":"callGasLimit","type":"uint256"},{"internalType":"uint256","name":"verificationGasLimit","type":"uint256"},{"internalType":"uint256","name":"preVerificationGas","type":"uint256"},{"internalType":"uint256","name":"maxFeePerGas","type":"uint256"},{"internalType":"uint256","name":"maxPriorityFeePerGas","type":"uint256"},{"internalType":"bytes","name":"paymasterAndData","type":"bytes"},{"internalType":"bytes","name":"signature","type":"bytes"}],"internalType":"struct UserOperation","name":"userOp","type":"tuple"},{"internalType":"bytes32","name":"userOpHash","type":"bytes32"},{"internalType":"uint256","name":"maxCost","type":"uint256"}],"name":"validatePaymasterUserOp","outputs":[{"internalType":"bytes","name":"context","type":"bytes"},{"internalType":"uint256","name":"sigTimeRange","type":"uint256"}],"stateMutability":"nonpayable","type":"function"},{"inputs":[{"internalType":"address","name":"target","type":"address"},{"internalType":"uint256","name":"amount","type":"uint256"}],"name":"withdrawEthDepositTo","outputs":[],"stateMutability":"payable","type":"function"},{"inputs":[{"internalType":"address payable","name":"withdrawAddress","type":"address"}],"name":"withdrawStake","outputs":[],"stateMutability":"nonpayable","type":"function"},{"inputs":[{"internalType":"address payable","name":"withdrawAddress","type":"address"},{"internalType":"uint256","name":"amount","type":"uint256"}],"name":"withdrawTo","outputs":[],"stateMutability":"nonpayable","type":"function"},{"inputs":[{"internalType":"address","name":"token","type":"address"},{"internalType":"address","name":"target","type":"address"},{"internalType":"uint256","name":"amount","type":"uint256"}],"name":"withdrawTokenDepositTo","outputs":[],"stateMutability":"payable","type":"function"}],"bytecode":"0x60a06040523480156200001157600080fd5b5060405162003897380380620038978339810160408190526200003491620000a3565b80620000403362000053565b6001600160a01b031660805250620000d5565b600080546001600160a01b038381166001600160a01b0319831681178455604051919092169283917f8be0079c531659141344cd1fd0a4f28419497f9722a3daafe3b4186f6b6457e09190a35050565b600060208284031215620000b657600080fd5b81516001600160a01b0381168114620000ce57600080fd5b9392505050565b60805161376762000130600039600081816105b3015281816107b20152818161088d01528181610d5601528181610f6d01528181610ffd015281816110d701528181611683015281816119e50152611dab01526137676000f3fe60806040526004361061024f5760003560e01c8063a9a2340911610138578063d0e30db0116100b0578063d56683a21161007f578063e141991411610064578063e141991414610715578063f2fde38b14610728578063f465c77e1461074857600080fd5b8063d56683a2146106e2578063db09992b1461070257600080fd5b8063d0e30db014610672578063d3a7263d1461067a578063d3eccaff1461069a578063d4112961146106ad57600080fd5b8063bb9fe6bf11610107578063c23a5cea116100ec578063c23a5cea1461061d578063c399ec881461063d578063c489744b1461065257600080fd5b8063bb9fe6bf146105f5578063bbc0a1c11461060a57600080fd5b8063a9a2340914610561578063b027363914610581578063b0d691fe146105a1578063ba27ff31146105d557600080fd5b8063715018a6116101cb5780637c3d169b1161019a5780638da5cb5b1161017f5780638da5cb5b146105105780638fe2d8331461053b578063a82e46681461054e57600080fd5b80637c3d169b146104c35780638322fff2146104d657600080fd5b8063715018a614610463578063728c5a3b1461047857806375fb91d91461048b578063796d43711461049e57600080fd5b80632d1c850c116102225780635977043811610207578063597704381461031757806360a71f46146104235780636c3824ef1461044357600080fd5b80632d1c850c146102d457806355d3ec67146102e757600080fd5b80630396cb60146102545780631015e33d14610269578063205c2878146102895780632a5c792a146102a9575b600080fd5b610267610262366004612e6b565b610776565b005b34801561027557600080fd5b50610267610284366004612edd565b610828565b34801561029557600080fd5b506102676102a4366004612f41565b610839565b3480156102b557600080fd5b506102be6108d1565b6040516102cb9190612f6d565b60405180910390f35b6102676102e2366004612fc7565b610940565b3480156102f357600080fd5b50610307610302366004612fe4565b61094f565b60405190151581526020016102cb565b34801561032357600080fd5b506103d2610332366004612fc7565b6040805160808101825260008082526020820181905291810182905260608101919091525073ffffffffffffffffffffffffffffffffffffffff90811660009081526003602090815260409182902082516080810184528154851681526001820154808616938201939093527401000000000000000000000000000000000000000090920460ff1692820192909252600290910154909116606082015290565b6040516102cb9190815173ffffffffffffffffffffffffffffffffffffffff908116825260208084015182169083015260408084015160ff1690830152606092830151169181019190915260800190565b34801561042f57600080fd5b5061030761043e366004612fc7565b61097c565b34801561044f57600080fd5b5061026761045e366004612edd565b610a17565b34801561046f57600080fd5b50610267610a24565b610267610486366004612edd565b610a38565b61026761049936600461302b565b610cd0565b3480156104aa57600080fd5b506104b56201117081565b6040519081526020016102cb565b6102676104d1366004613048565b610cda565b3480156104e257600080fd5b506104eb600081565b60405173ffffffffffffffffffffffffffffffffffffffff90911681526020016102cb565b34801561051c57600080fd5b5060005473ffffffffffffffffffffffffffffffffffffffff166104eb565b610267610549366004612f41565b610ce6565b61026761055c366004612f41565b610cfe565b34801561056d57600080fd5b5061026761057c366004613089565b610d12565b34801561058d57600080fd5b5061030761059c366004612fe4565b610d2c565b3480156105ad57600080fd5b506104eb7f000000000000000000000000000000000000000000000000000000000000000081565b3480156105e157600080fd5b506103076105f0366004612fe4565b610d3c565b34801561060157600080fd5b50610267610d4c565b610267610618366004613118565b610dd0565b34801561062957600080fd5b50610267610638366004612fc7565b610f20565b34801561064957600080fd5b506104b5610fcc565b34801561065e57600080fd5b506104b561066d366004612fe4565b611082565b6102676110a9565b34801561068657600080fd5b50610267610695366004613146565b611131565b6102676106a8366004612f41565b6111f9565b3480156106b957600080fd5b506106cd6106c8366004612fe4565b611204565b604080519283526020830191909152016102cb565b3480156106ee57600080fd5b506104b56106fd366004612fe4565b611226565b610267610710366004613118565b611236565b610267610723366004613048565b611387565b34801561073457600080fd5b50610267610743366004612fc7565b611393565b34801561075457600080fd5b5061076861076336600461315e565b611447565b6040516102cb929190613228565b61077e61146a565b6040517f0396cb6000000000000000000000000000000000000000000000000000000000815263ffffffff821660048201527f000000000000000000000000000000000000000000000000000000000000000073ffffffffffffffffffffffffffffffffffffffff1690630396cb609034906024016000604051808303818588803b15801561080c57600080fd5b505af1158015610820573d6000803e3d6000fd5b505050505050565b61083582823360016114eb565b5050565b61084161146a565b6040517f205c287800000000000000000000000000000000000000000000000000000000815273ffffffffffffffffffffffffffffffffffffffff8381166004830152602482018390527f0000000000000000000000000000000000000000000000000000000000000000169063205c287890604401600060405180830381600087803b15801561080c57600080fd5b6060600480548060200260200160405190810160405280929190818152602001828054801561093657602002820191906000526020600020905b815473ffffffffffffffffffffffffffffffffffffffff16815260019091019060200180831161090b575b5050505050905090565b61094c81336000611539565b50565b60006001600061095f858561155e565b815260208101919091526040016000205460ff1690505b92915050565b6000600160006109fd846040805173ffffffffffffffffffffffffffffffffffffffff8316602082015280820191909152600860608201527f6c6973744d6f6465000000000000000000000000000000000000000000000000608082015260009060a001604051602081830303815290604052805190602001209050919050565b815260208101919091526040016000205460ff1692915050565b61083582823360006114eb565b610a2c61146a565b610a3660006115e0565b565b6000805b82811015610c3b577f8fe2d83300000000000000000000000000000000000000000000000000000000848483818110610a7757610a7761324a565b9050602002810190610a899190613279565b610a98916004916000916132de565b610aa191613308565b7fffffffff00000000000000000000000000000000000000000000000000000000161415610b2657600080858584818110610ade57610ade61324a565b9050602002810190610af09190613279565b610afe9160049082906132de565b810190610b0b9190612f41565b915091508084019350610b1f338383611655565b5050610c33565b600030858584818110610b3b57610b3b61324a565b9050602002810190610b4d9190613279565b604051610b5b929190613350565b600060405180830381855af49150503d8060008114610b96576040519150601f19603f3d011682016040523d82523d6000602084013e610b9b565b606091505b5050905080610c31576040517f08c379a000000000000000000000000000000000000000000000000000000000815260206004820152603360248201527f546f6b656e5061796d61737465723a20696e7465726e616c206261746368656460448201527f207472616e73616374696f6e206661696c65640000000000000000000000000060648201526084015b60405180910390fd5b505b600101610a3c565b50348114610ccb576040517f08c379a000000000000000000000000000000000000000000000000000000000815260206004820152603860248201527f546f6b656e5061796d61737465723a20426174636865642076616c756520697360448201527f206e6f7420657175616c20746f2073656e742076616c756500000000000000006064820152608401610c28565b505050565b61094c3382611756565b610ccb83338484611817565b80341015610cf357600080fd5b610835338383611655565b6108358233610d0d844361338f565b611539565b610d1a6119cd565b610d2684848484611a0f565b50505050565b60006001600061095f8585611af3565b60006001600061095f8585611b28565b610d5461146a565b7f000000000000000000000000000000000000000000000000000000000000000073ffffffffffffffffffffffffffffffffffffffff1663bb9fe6bf6040518163ffffffff1660e01b8152600401600060405180830381600087803b158015610dbc57600080fd5b505af1158015610d26573d6000803e3d6000fd5b60016000610e4f336040805173ffffffffffffffffffffffffffffffffffffffff8316602082015280820191909152600860608201527f6c6973744d6f6465000000000000000000000000000000000000000000000000608082015260009060a001604051602081830303815290604052805190602001209050919050565b815260208101919091526040016000205460ff16610f15576040517f08c379a000000000000000000000000000000000000000000000000000000000815260206004820152604960248201527f546f6b656e5061796d61737465723a206d6f64652069732073657420746f207760448201527f686974656c6973742063616e206e6f7420616464207370656e64657220746f2060648201527f626c61636b6c6973740000000000000000000000000000000000000000000000608482015260a401610c28565b610835338383611b90565b610f2861146a565b6040517fc23a5cea00000000000000000000000000000000000000000000000000000000815273ffffffffffffffffffffffffffffffffffffffff82811660048301527f0000000000000000000000000000000000000000000000000000000000000000169063c23a5cea90602401600060405180830381600087803b158015610fb157600080fd5b505af1158015610fc5573d6000803e3d6000fd5b5050505050565b6040517f70a082310000000000000000000000000000000000000000000000000000000081523060048201526000907f000000000000000000000000000000000000000000000000000000000000000073ffffffffffffffffffffffffffffffffffffffff16906370a0823190602401602060405180830381865afa158015611059573d6000803e3d6000fd5b505050506040513d601f19601f8201168201806040525081019061107d91906133a7565b905090565b6000600260006110928585611be1565b815260200190815260200160002054905092915050565b6040517fb760faf90000000000000000000000000000000000000000000000000000000081523060048201527f000000000000000000000000000000000000000000000000000000000000000073ffffffffffffffffffffffffffffffffffffffff169063b760faf99034906024016000604051808303818588803b158015610fb157600080fd5b61113961146a565b600061114b6040830160208401612fc7565b73ffffffffffffffffffffffffffffffffffffffff81166000908152600360205260409020909150829061117f82826133c0565b5050600480546001810182556000919091527f8a35acfbc15ff81a39ae7d344fd709f28e8600b4aa8c65c6b64bfe7fe36bd19b0180547fffffffffffffffffffffffff00000000000000000000000000000000000000001673ffffffffffffffffffffffffffffffffffffffff9290921691909117905550565b610835338383611bf6565b6000806112118484611226565b915061121d8484611082565b90509250929050565b6000600260006110928585611e0d565b600160006112b5846040805173ffffffffffffffffffffffffffffffffffffffff8316602082015280820191909152600860608201527f6c6973744d6f6465000000000000000000000000000000000000000000000000608082015260009060a001604051602081830303815290604052805190602001209050919050565b815260208101919091526040016000205460ff161561137c576040517f08c379a000000000000000000000000000000000000000000000000000000000815260206004820152604960248201527f546f6b656e5061796d61737465723a206d6f64652069732073657420746f206260448201527f6c61636b6c6973742063616e206e6f7420616464207370656e64657220746f2060648201527f77686974656c6973740000000000000000000000000000000000000000000000608482015260a401610c28565b610835338383611e1b565b610ccb83338484611e2a565b61139b61146a565b73ffffffffffffffffffffffffffffffffffffffff811661143e576040517f08c379a000000000000000000000000000000000000000000000000000000000815260206004820152602660248201527f4f776e61626c653a206e6577206f776e657220697320746865207a65726f206160448201527f64647265737300000000000000000000000000000000000000000000000000006064820152608401610c28565b61094c816115e0565b606060006114536119cd565b61145e858585611f7b565b91509150935093915050565b60005473ffffffffffffffffffffffffffffffffffffffff163314610a36576040517f08c379a000000000000000000000000000000000000000000000000000000000815260206004820181905260248201527f4f776e61626c653a2063616c6c6572206973206e6f7420746865206f776e65726044820152606401610c28565b60005b83811015610fc55761152785858381811061150b5761150b61324a565b90506020020160208101906115209190612fc7565b8484612566565b8061153181613508565b9150506114ee565b80600260006115488686611e0d565b8152602081019190915260400160002055505050565b6040805173ffffffffffffffffffffffffffffffffffffffff8085166020830152831691810191909152606080820152600960808201527f77686974656c697374000000000000000000000000000000000000000000000060a082015260009060c0015b60405160208183030381529060405280519060200120905092915050565b6000805473ffffffffffffffffffffffffffffffffffffffff8381167fffffffffffffffffffffffff0000000000000000000000000000000000000000831681178455604051919092169283917f8be0079c531659141344cd1fd0a4f28419497f9722a3daafe3b4186f6b6457e09190a35050565b6040517fb760faf90000000000000000000000000000000000000000000000000000000081523060048201527f000000000000000000000000000000000000000000000000000000000000000073ffffffffffffffffffffffffffffffffffffffff169063b760faf99083906024016000604051808303818588803b1580156116dd57600080fd5b505af11580156116f1573d6000803e3d6000fd5b50505050508060026000611706600086611be1565b81526020019081526020016000206000828254611723919061338f565b909155505073ffffffffffffffffffffffffffffffffffffffff8381169083161415610ccb57610ccb6000846000611539565b80600160006117d6856040805173ffffffffffffffffffffffffffffffffffffffff8316602082015280820191909152600860608201527f6c6973744d6f6465000000000000000000000000000000000000000000000000608082015260009060a001604051602081830303815290604052805190602001209050919050565b8152602081019190915260400160002080547fffffffffffffffffffffffffffffffffffffffffffffffffffffffffffffff00169115159190911790555050565b60006118238585611226565b905060006118318686611be1565b9050811580159061184157508143115b6118cd576040517f08c379a000000000000000000000000000000000000000000000000000000000815260206004820152602760248201527f546f6b656e5061796d61737465723a206d75737420756e6c6f636b546f6b656e60448201527f4465706f736974000000000000000000000000000000000000000000000000006064820152608401610c28565b60008181526002602052604090205483111561196b576040517f08c379a000000000000000000000000000000000000000000000000000000000815260206004820152602a60248201527f546f6b656e5061796d61737465723a20646f6573206e6f74206861766520656e60448201527f6f7567682066756e6473000000000000000000000000000000000000000000006064820152608401610c28565b60008181526002602052604081208054859290611989908490613541565b909155505073ffffffffffffffffffffffffffffffffffffffff808716600090815260036020526040902060010154166119c48186866125b3565b50505050505050565b3373ffffffffffffffffffffffffffffffffffffffff7f00000000000000000000000000000000000000000000000000000000000000001614610a3657600080fd5b60008080808080611a22888a018a613558565b955095509550955095509550600081838562011170611a4191906135bd565b611a4b908b61338f565b611a5591906135bd565b611a5f91906135fa565b9050611a6c858883612687565b8060026000611a7b888a611be1565b81526020019081526020016000206000828254611a98919061338f565b90915550611aab905084620111706135bd565b611ab5908961338f565b60026000611ac460008a611be1565b81526020019081526020016000206000828254611ae19190613541565b90915550505050505050505050505050565b6040805173ffffffffffffffffffffffffffffffffffffffff80851660208301528316918101919091526000906060016115c2565b6040805173ffffffffffffffffffffffffffffffffffffffff8085166020830152831691810191909152606080820152600960808201527f626c61636b6c697374000000000000000000000000000000000000000000000060a082015260009060c0016115c2565b8060016000611b9f8686611b28565b8152602081019190915260400160002080547fffffffffffffffffffffffffffffffffffffffffffffffffffffffffffffff0016911515919091179055505050565b6000611bef838360016127a3565b9392505050565b6000611c03600085611be1565b9050611c10600085611226565b4311611c9e576040517f08c379a000000000000000000000000000000000000000000000000000000000815260206004820152602760248201527f546f6b656e5061796d61737465723a206d75737420756e6c6f636b546f6b656e60448201527f4465706f736974000000000000000000000000000000000000000000000000006064820152608401610c28565b600081815260026020526040902054821115611d3c576040517f08c379a000000000000000000000000000000000000000000000000000000000815260206004820152602a60248201527f546f6b656e5061796d61737465723a20646f6573206e6f74206861766520656e60448201527f6f7567682066756e6473000000000000000000000000000000000000000000006064820152608401610c28565b60008181526002602052604081208054849290611d5a908490613541565b90915550506040517f205c287800000000000000000000000000000000000000000000000000000000815273ffffffffffffffffffffffffffffffffffffffff8481166004830152602482018490527f0000000000000000000000000000000000000000000000000000000000000000169063205c287890604401600060405180830381600087803b158015611def57600080fd5b505af1158015611e03573d6000803e3d6000fd5b5050505050505050565b6000611bef838360006127a3565b8060016000611b9f868661155e565b73ffffffffffffffffffffffffffffffffffffffff841660009081526003602052604090206001015474010000000000000000000000000000000000000000900460ff16611ef9576040517f08c379a0000000000000000000000000000000000000000000000000000000008152602060048201526024808201527f546f6b656e5061796d61737465723a20546f6b656e20646f6573206e6f74206560448201527f78697374000000000000000000000000000000000000000000000000000000006064820152608401610c28565b73ffffffffffffffffffffffffffffffffffffffff808516600090815260036020526040812060010154909116908290600290611f368887611be1565b81526020019081526020016000206000828254611f53919061338f565b90915550610fc5905073ffffffffffffffffffffffffffffffffffffffff82168530856127d9565b60606000611f8d610120860186613279565b9050603c1461201e576040517f08c379a000000000000000000000000000000000000000000000000000000000815260206004820152603560248201527f546f6b656e5061796d61737465723a207061796d6173746572416e644461746160448201527f206d75737420737065636966792073706f6e736f7200000000000000000000006064820152608401610c28565b620111708560a00135116120b4576040517f08c379a000000000000000000000000000000000000000000000000000000000815260206004820152602660248201527f546f6b656e5061796d61737465723a2067617320746f6f206c6f7720666f722060448201527f706f73744f7000000000000000000000000000000000000000000000000000006064820152608401610c28565b60006120c4610120870187613279565b6120d3916028916014916132de565b6120dc91613635565b60601c905060006120f1610120880188613279565b6120ff9160289082906132de565b61210891613635565b60601c905060006002600061211e600086611e0d565b8152602001908152602001600020549050806000148061213d57504381115b6121a3576040517f08c379a000000000000000000000000000000000000000000000000000000000815260206004820152601c60248201527f546f6b656e5061796d61737465723a205374616b65204c6f636b6564000000006044820152606401610c28565b873560006002816121b48685611e0d565b81526020019081526020016000205490506000600260006121d6600089611be1565b815260200190815260200160002054905081600014806121f557504382115b612281576040517f08c379a000000000000000000000000000000000000000000000000000000000815260206004820152602260248201527f546f6b656e5061796d61737465723a206465706f736974206e6f74206c6f636b60448201527f65640000000000000000000000000000000000000000000000000000000000006064820152608401610c28565b88811015612311576040517f08c379a000000000000000000000000000000000000000000000000000000000815260206004820152602c60248201527f546f6b656e5061796d61737465723a20646f6573206e6f74206861766520656e60448201527f6f75676820746f2066756e6400000000000000000000000000000000000000006064820152608401610c28565b61231b8387612837565b6123a7576040517f08c379a000000000000000000000000000000000000000000000000000000000815260206004820152603360248201527f546f6b656e5061796d61737465723a20686173206e6f74206f7220646f65732060448201527f6e6f7420617070726f7665207370656e646572000000000000000000000000006064820152608401610c28565b6123b18587610d2c565b61243d576040517f08c379a000000000000000000000000000000000000000000000000000000000815260206004820152602e60248201527f546f6b656e5061796d61737465723a2073706f6e736f7220646f6573206e6f7460448201527f20737570706f727420746f6b656e0000000000000000000000000000000000006064820152608401610c28565b6000612449868b61292e565b9050612456868583612a35565b806124675750612467868583612b98565b6124f3576040517f08c379a000000000000000000000000000000000000000000000000000000000815260206004820152602360248201527f546f6b656e5061796d61737465723a207370656e6465722063616e206e6f742060448201527f70617900000000000000000000000000000000000000000000000000000000006064820152608401610c28565b60006124fe8d612bc3565b6040805173ffffffffffffffffffffffffffffffffffffffff97881660208201529987168a820152979095166060890152506080870193909352505060a08401525060c0808301959095528051808303909501855260e0909101905250909360009350915050565b60006125728484611af3565b600090815260016020526040902080547fffffffffffffffffffffffffffffffffffffffffffffffffffffffffffffff001692151592909217909155505050565b60405173ffffffffffffffffffffffffffffffffffffffff8316602482015260448101829052610ccb9084907fa9059cbb00000000000000000000000000000000000000000000000000000000906064015b604080517fffffffffffffffffffffffffffffffffffffffffffffffffffffffffffffffe08184030181529190526020810180517bffffffffffffffffffffffffffffffffffffffffffffffffffffffff167fffffffff0000000000000000000000000000000000000000000000000000000090931692909217909152612beb565b612692838383612a35565b156126ce5773ffffffffffffffffffffffffffffffffffffffff80841660009081526003602052604090206001015416610d26818430856127d9565b60006126da8484611be1565b60008181526002602052604090205490915082111561277a576040517f08c379a0000000000000000000000000000000000000000000000000000000008152602060048201526024808201527f546f6b656e5061796d61737465723a20446f6573206e6f74206861766520746f60448201527f6b656e73000000000000000000000000000000000000000000000000000000006064820152608401610c28565b60008181526002602052604081208054849290612798908490613541565b909155505050505050565b60008383836040516020016127ba9392919061367b565b6040516020818303038152906040528051906020012090509392505050565b60405173ffffffffffffffffffffffffffffffffffffffff80851660248301528316604482015260648101829052610d269085907f23b872dd0000000000000000000000000000000000000000000000000000000090608401612605565b600080600160006128b9856040805173ffffffffffffffffffffffffffffffffffffffff8316602082015280820191909152600860608201527f6c6973744d6f6465000000000000000000000000000000000000000000000000608082015260009060a001604051602081830303815290604052805190602001209050919050565b815260208101919091526040016000205460ff1690508015612904576000600160006128e58787611b28565b815260208101919091526040016000205460ff16159250610976915050565b60016000612912868661155e565b815260208101919091526040016000205460ff16949350505050565b73ffffffffffffffffffffffffffffffffffffffff82811660009081526003602090815260408083208151608081018352815486168082526001830154808816958301959095527401000000000000000000000000000000000000000090940460ff168184018190526002909201549095166060860181905291517f6a2f49180000000000000000000000000000000000000000000000000000000081526004810192909252602482018690526044820152919291636a2f491890606401602060405180830381865afa158015612a09573d6000803e3d6000fd5b505050506040513d601f19601f82011682018060405250810190612a2d91906133a7565b949350505050565b73ffffffffffffffffffffffffffffffffffffffff8381166000908152600360205260408082206001015490517fdd62ed3e0000000000000000000000000000000000000000000000000000000081528584166004820152306024820152919216908290829063dd62ed3e90604401602060405180830381865afa158015612ac1573d6000803e3d6000fd5b505050506040513d601f19601f82011682018060405250810190612ae591906133a7565b6040517f70a0823100000000000000000000000000000000000000000000000000000000815273ffffffffffffffffffffffffffffffffffffffff87811660048301529192506000918416906370a0823190602401602060405180830381865afa158015612b57573d6000803e3d6000fd5b505050506040513d601f19601f82011682018060405250810190612b7b91906133a7565b9050848110158015612b8d5750848210155b979650505050505050565b60008160026000612ba98787611be1565b815260200190815260200160002054101590509392505050565b600060e082013561010083013580821415612bdf575092915050565b612a2d82488301612cf7565b6000612c4d826040518060400160405280602081526020017f5361666545524332303a206c6f772d6c6576656c2063616c6c206661696c65648152508573ffffffffffffffffffffffffffffffffffffffff16612d0d9092919063ffffffff16565b805190915015610ccb5780806020019051810190612c6b91906136e5565b610ccb576040517f08c379a000000000000000000000000000000000000000000000000000000000815260206004820152602a60248201527f5361666545524332303a204552433230206f7065726174696f6e20646964206e60448201527f6f742073756363656564000000000000000000000000000000000000000000006064820152608401610c28565b6000818310612d065781611bef565b5090919050565b6060612a2d8484600085856000808673ffffffffffffffffffffffffffffffffffffffff168587604051612d419190613702565b60006040518083038185875af1925050503d8060008114612d7e576040519150601f19603f3d011682016040523d82523d6000602084013e612d83565b606091505b5091509150612b8d8783838760608315612e22578251612e1b5773ffffffffffffffffffffffffffffffffffffffff85163b612e1b576040517f08c379a000000000000000000000000000000000000000000000000000000000815260206004820152601d60248201527f416464726573733a2063616c6c20746f206e6f6e2d636f6e74726163740000006044820152606401610c28565b5081612a2d565b612a2d8383815115612e375781518083602001fd5b806040517f08c379a0000000000000000000000000000000000000000000000000000000008152600401610c28919061371e565b600060208284031215612e7d57600080fd5b813563ffffffff81168114611bef57600080fd5b60008083601f840112612ea357600080fd5b50813567ffffffffffffffff811115612ebb57600080fd5b6020830191508360208260051b8501011115612ed657600080fd5b9250929050565b60008060208385031215612ef057600080fd5b823567ffffffffffffffff811115612f0757600080fd5b612f1385828601612e91565b90969095509350505050565b73ffffffffffffffffffffffffffffffffffffffff8116811461094c57600080fd5b60008060408385031215612f5457600080fd5b8235612f5f81612f1f565b946020939093013593505050565b6020808252825182820181905260009190848201906040850190845b81811015612fbb57835173ffffffffffffffffffffffffffffffffffffffff1683529284019291840191600101612f89565b50909695505050505050565b600060208284031215612fd957600080fd5b8135611bef81612f1f565b60008060408385031215612ff757600080fd5b823561300281612f1f565b9150602083013561301281612f1f565b809150509250929050565b801515811461094c57600080fd5b60006020828403121561303d57600080fd5b8135611bef8161301d565b60008060006060848603121561305d57600080fd5b833561306881612f1f565b9250602084013561307881612f1f565b929592945050506040919091013590565b6000806000806060858703121561309f57600080fd5b8435600381106130ae57600080fd5b9350602085013567ffffffffffffffff808211156130cb57600080fd5b818701915087601f8301126130df57600080fd5b8135818111156130ee57600080fd5b88602082850101111561310057600080fd5b95986020929092019750949560400135945092505050565b6000806040838503121561312b57600080fd5b823561313681612f1f565b915060208301356130128161301d565b60006080828403121561315857600080fd5b50919050565b60008060006060848603121561317357600080fd5b833567ffffffffffffffff81111561318a57600080fd5b8401610160818703121561319d57600080fd5b95602085013595506040909401359392505050565b60005b838110156131cd5781810151838201526020016131b5565b83811115610d265750506000910152565b600081518084526131f68160208601602086016131b2565b601f017fffffffffffffffffffffffffffffffffffffffffffffffffffffffffffffffe0169290920160200192915050565b60408152600061323b60408301856131de565b90508260208301529392505050565b7f4e487b7100000000000000000000000000000000000000000000000000000000600052603260045260246000fd5b60008083357fffffffffffffffffffffffffffffffffffffffffffffffffffffffffffffffe18436030181126132ae57600080fd5b83018035915067ffffffffffffffff8211156132c957600080fd5b602001915036819003821315612ed657600080fd5b600080858511156132ee57600080fd5b838611156132fb57600080fd5b5050820193919092039150565b7fffffffff0000000000000000000000000000000000000000000000000000000081358181169160048510156133485780818660040360031b1b83161692505b505092915050565b8183823760009101908152919050565b7f4e487b7100000000000000000000000000000000000000000000000000000000600052601160045260246000fd5b600082198211156133a2576133a2613360565b500190565b6000602082840312156133b957600080fd5b5051919050565b81356133cb81612f1f565b81547fffffffffffffffffffffffff00000000000000000000000000000000000000001673ffffffffffffffffffffffffffffffffffffffff82161782555060018101602083013561341c81612f1f565b81547fffffffffffffffffffffffff00000000000000000000000000000000000000001673ffffffffffffffffffffffffffffffffffffffff821617825550604083013560ff8116811461346f57600080fd5b81547fffffffffffffffffffffff00ffffffffffffffffffffffffffffffffffffffff1660a09190911b74ff00000000000000000000000000000000000000001617905560608201356134c181612f1f565b6002820180547fffffffffffffffffffffffff00000000000000000000000000000000000000001673ffffffffffffffffffffffffffffffffffffffff8316179055505050565b60007fffffffffffffffffffffffffffffffffffffffffffffffffffffffffffffffff82141561353a5761353a613360565b5060010190565b60008282101561355357613553613360565b500390565b60008060008060008060c0878903121561357157600080fd5b863561357c81612f1f565b9550602087013561358c81612f1f565b9450604087013561359c81612f1f565b959894975094956060810135955060808101359460a0909101359350915050565b6000817fffffffffffffffffffffffffffffffffffffffffffffffffffffffffffffffff04831182151516156135f5576135f5613360565b500290565b600082613630577f4e487b7100000000000000000000000000000000000000000000000000000000600052601260045260246000fd5b500490565b7fffffffffffffffffffffffffffffffffffffffff00000000000000000000000081358181169160148510156133485760149490940360031b84901b1690921692915050565b73ffffffffffffffffffffffffffffffffffffffff84811682528316602082015260608101600283106136d7577f4e487b7100000000000000000000000000000000000000000000000000000000600052602160045260246000fd5b826040830152949350505050565b6000602082840312156136f757600080fd5b8151611bef8161301d565b600082516137148184602087016131b2565b9190910192915050565b602081526000611bef60208301846131de56fea264697066735822122083fec1e7b755961c9da44b8601e23539b9204857a1365eaa7b81309de6798a6c64736f6c634300080c0033","linkReferences":{},"deployedLinkReferences":{}}