{"_format":"hh-sol-artifact-1","contractName":"UserAuthentication","sourceName":"contracts/validations/UserAuthentication.sol","abi":[{"inputs":[{"components":[{"internalType":"address","name":"sender","type":"address"},{"internalType":"uint256","name":"nonce","type":"uint256"},{"internalType":"bytes","name":"initCode","type":"bytes"},{"internalType":"bytes","name":"callData","type":"bytes"},{"internalType":"uint256","name":"callGasLimit","type":"uint256"},{"internalType":"uint256","name":"verificationGasLimit","type":"uint256"},{"internalType":"uint256","name":"preVerificationGas","type":"uint256"},{"internalType":"uint256","name":"maxFeePerGas","type":"uint256"},{"internalType":"uint256","name":"maxPriorityFeePerGas","type":"uint256"},{"internalType":"bytes","name":"paymasterAndData","type":"bytes"},{"internalType":"bytes","name":"signature","type":"bytes"}],"internalType":"struct UserOperation","name":"userOp","type":"tuple"},{"internalType":"bytes32","name":"userOpHash","type":"bytes32"}],"name":"getUserId","outputs":[{"internalType":"bytes32","name":"","type":"bytes32"}],"stateMutability":"view","type":"function"},{"inputs":[{"components":[{"internalType":"address","name":"sender","type":"address"},{"internalType":"uint256","name":"nonce","type":"uint256"},{"internalType":"bytes","name":"initCode","type":"bytes"},{"internalType":"bytes","name":"callData","type":"bytes"},{"internalType":"uint256","name":"callGasLimit","type":"uint256"},{"internalType":"uint256","name":"verificationGasLimit","type":"uint256"},{"internalType":"uint256","name":"preVerificationGas","type":"uint256"},{"internalType":"uint256","name":"maxFeePerGas","type":"uint256"},{"internalType":"uint256","name":"maxPriorityFeePerGas","type":"uint256"},{"internalType":"bytes","name":"paymasterAndData","type":"bytes"},{"internalType":"bytes","name":"signature","type":"bytes"}],"internalType":"struct UserOperation","name":"op","type":"tuple"},{"internalType":"bytes32","name":"userOpHash","type":"bytes32"}],"name":"recoverUserIdFromSignature","outputs":[{"internalType":"bytes32","name":"","type":"bytes32"}],"stateMutability":"pure","type":"function"},{"inputs":[{"internalType":"enum AuthType","name":"authType","type":"uint8"},{"internalType":"bytes","name":"authMetadata","type":"bytes"},{"components":[{"internalType":"address","name":"sender","type":"address"},{"internalType":"uint256","name":"nonce","type":"uint256"},{"internalType":"bytes","name":"initCode","type":"bytes"},{"internalType":"bytes","name":"callData","type":"bytes"},{"internalType":"uint256","name":"callGasLimit","type":"uint256"},{"internalType":"uint256","name":"verificationGasLimit","type":"uint256"},{"internalType":"uint256","name":"preVerificationGas","type":"uint256"},{"internalType":"uint256","name":"maxFeePerGas","type":"uint256"},{"internalType":"uint256","name":"maxPriorityFeePerGas","type":"uint256"},{"internalType":"bytes","name":"paymasterAndData","type":"bytes"},{"internalType":"bytes","name":"signature","type":"bytes"}],"internalType":"struct UserOperation","name":"userOp","type":"tuple"},{"internalType":"bytes32","name":"userOpHash","type":"bytes32"}],"name":"validate","outputs":[{"internalType":"uint256","name":"sigTimeRange","type":"uint256"}],"stateMutability":"view","type":"function"}],"bytecode":"0x608060405234801561001057600080fd5b50610cc2806100206000396000f3fe608060405234801561001057600080fd5b50600436106100415760003560e01c80633026a8df1461004657806381adfce61461006b578063deca38871461007e575b600080fd5b6100596100543660046107f2565b610091565b60405190815260200160405180910390f35b6100596100793660046107f2565b6100cb565b61005961008c366004610837565b6102d1565b6000806100ab836100a66101408701876108ed565b610375565b73ffffffffffffffffffffffffffffffffffffffff169150505b92915050565b60408051602081019091527f3026a8df00000000000000000000000000000000000000000000000000000000815260009061010584610413565b156101325761012a61011b6101408601866108ed565b61012491610952565b60601c90565b9150506100c5565b60005b600181101561026957600080308484600181106101545761015461099a565b6020020151888860405160240161016c929190610aa8565b604080517fffffffffffffffffffffffffffffffffffffffffffffffffffffffffffffffe08184030181529181526020820180517bffffffffffffffffffffffffffffffffffffffffffffffffffffffff167fffffffff000000000000000000000000000000000000000000000000000000009094169390931790925290516101f59190610bec565b600060405180830381855afa9150503d8060008114610230576040519150601f19603f3d011682016040523d82523d6000602084013e610235565b606091505b5091509150811561025f57808060200190518101906102549190610c27565b9450505050506100c5565b5050600101610135565b506040517f08c379a000000000000000000000000000000000000000000000000000000000815260206004820152601f60248201527f496e636f72726563742041757468656e7469636174696f6e204d6574686f640060448201526064015b60405180910390fd5b6000808680156102e3576102e3610c40565b141561030a5760006102f58686610448565b905061030284848361045d565b91505061036c565b6040517f08c379a000000000000000000000000000000000000000000000000000000000815260206004820181905260248201527f696e76616c696420757365722061757468656e7469636174696f6e207479706560448201526064016102c8565b95945050505050565b6000806103cf856040517f19457468657265756d205369676e6564204d6573736167653a0a3332000000006020820152603c8101829052600090605c01604051602081830303815290604052805190602001209050919050565b905061036c84848080601f01602080910402602001604051908101604052809392919081815260200183838082843760009201919091525085939250506104c69050565b600060c082013515801561042a5750610100820135155b8015610438575060e0820135155b80156100c5575050608001351590565b600061045682840184610c6f565b9392505050565b600061046884610413565b806104af5750610480836100a66101408701876108ed565b73ffffffffffffffffffffffffffffffffffffffff168273ffffffffffffffffffffffffffffffffffffffff16145b156104bc57506000610456565b5060019392505050565b60008060006104d585856104ea565b915091506104e281610530565b509392505050565b6000808251604114156105215760208301516040840151606085015160001a610515878285856106ea565b94509450505050610529565b506000905060025b9250929050565b600081600481111561054457610544610c40565b141561054d5750565b600181600481111561056157610561610c40565b14156105c9576040517f08c379a000000000000000000000000000000000000000000000000000000000815260206004820152601860248201527f45434453413a20696e76616c6964207369676e6174757265000000000000000060448201526064016102c8565b60028160048111156105dd576105dd610c40565b1415610645576040517f08c379a000000000000000000000000000000000000000000000000000000000815260206004820152601f60248201527f45434453413a20696e76616c6964207369676e6174757265206c656e6774680060448201526064016102c8565b600381600481111561065957610659610c40565b14156106e7576040517f08c379a000000000000000000000000000000000000000000000000000000000815260206004820152602260248201527f45434453413a20696e76616c6964207369676e6174757265202773272076616c60448201527f756500000000000000000000000000000000000000000000000000000000000060648201526084016102c8565b50565b6000807f7fffffffffffffffffffffffffffffff5d576e7357a4501ddfe92f46681b20a083111561072157506000905060036107d0565b6040805160008082526020820180845289905260ff881692820192909252606081018690526080810185905260019060a0016020604051602081039080840390855afa158015610775573d6000803e3d6000fd5b50506040517fffffffffffffffffffffffffffffffffffffffffffffffffffffffffffffffe0015191505073ffffffffffffffffffffffffffffffffffffffff81166107c9576000600192509250506107d0565b9150600090505b94509492505050565b600061016082840312156107ec57600080fd5b50919050565b6000806040838503121561080557600080fd5b823567ffffffffffffffff81111561081c57600080fd5b610828858286016107d9565b95602094909401359450505050565b60008060008060006080868803121561084f57600080fd5b85356001811061085e57600080fd5b9450602086013567ffffffffffffffff8082111561087b57600080fd5b818801915088601f83011261088f57600080fd5b81358181111561089e57600080fd5b8960208285010111156108b057600080fd5b6020830196508095505060408801359150808211156108ce57600080fd5b506108db888289016107d9565b95989497509295606001359392505050565b60008083357fffffffffffffffffffffffffffffffffffffffffffffffffffffffffffffffe184360301811261092257600080fd5b83018035915067ffffffffffffffff82111561093d57600080fd5b60200191503681900382131561052957600080fd5b7fffffffffffffffffffffffffffffffffffffffff00000000000000000000000081358181169160148510156109925780818660140360031b1b83161692505b505092915050565b7f4e487b7100000000000000000000000000000000000000000000000000000000600052603260045260246000fd5b73ffffffffffffffffffffffffffffffffffffffff811681146106e757600080fd5b80356109f6816109c9565b919050565b60008083357fffffffffffffffffffffffffffffffffffffffffffffffffffffffffffffffe1843603018112610a3057600080fd5b830160208101925035905067ffffffffffffffff811115610a5057600080fd5b80360383131561052957600080fd5b8183528181602085013750600060208284010152600060207fffffffffffffffffffffffffffffffffffffffffffffffffffffffffffffffe0601f840116840101905092915050565b60408152610ad660408201610abc856109eb565b73ffffffffffffffffffffffffffffffffffffffff169052565b602083013560608201526000610aef60408501856109fb565b610160806080860152610b076101a086018385610a5f565b9250610b1660608801886109fb565b92507fffffffffffffffffffffffffffffffffffffffffffffffffffffffffffffffc0808786030160a0880152610b4e858584610a5f565b9450608089013560c088015260a089013560e0880152610100935060c089013584880152610120915060e089013582880152610140848a013581890152610b97838b018b6109fb565b95509250818887030184890152610baf868685610a5f565b9550610bbd818b018b6109fb565b955093505080878603016101808801525050610bda838383610a5f565b93505050508260208301529392505050565b6000825160005b81811015610c0d5760208186018101518583015201610bf3565b81811115610c1c576000828501525b509190910192915050565b600060208284031215610c3957600080fd5b5051919050565b7f4e487b7100000000000000000000000000000000000000000000000000000000600052602160045260246000fd5b600060208284031215610c8157600080fd5b8135610456816109c956fea2646970667358221220a960359d8089022dd0c1bbce01396675c2c7403a584c766ec3b09e648d5f1dd864736f6c634300080c0033","linkReferences":{},"deployedLinkReferences":{}}