{"_format":"hh-sol-artifact-1","contractName":"UserAuthentication","sourceName":"contracts/validations/UserAuthentication.sol","abi":[{"inputs":[],"name":"VERSION","outputs":[{"internalType":"uint256","name":"","type":"uint256"}],"stateMutability":"view","type":"function"},{"inputs":[{"components":[{"internalType":"address","name":"sender","type":"address"},{"internalType":"uint256","name":"nonce","type":"uint256"},{"internalType":"bytes","name":"initCode","type":"bytes"},{"internalType":"bytes","name":"callData","type":"bytes"},{"internalType":"uint256","name":"callGasLimit","type":"uint256"},{"internalType":"uint256","name":"verificationGasLimit","type":"uint256"},{"internalType":"uint256","name":"preVerificationGas","type":"uint256"},{"internalType":"uint256","name":"maxFeePerGas","type":"uint256"},{"internalType":"uint256","name":"maxPriorityFeePerGas","type":"uint256"},{"internalType":"bytes","name":"paymasterAndData","type":"bytes"},{"internalType":"bytes","name":"signature","type":"bytes"}],"internalType":"struct UserOperation","name":"userOp","type":"tuple"},{"internalType":"bytes32","name":"userOpHash","type":"bytes32"}],"name":"getUserId","outputs":[{"internalType":"bytes32","name":"","type":"bytes32"}],"stateMutability":"view","type":"function"},{"inputs":[{"components":[{"internalType":"address","name":"sender","type":"address"},{"internalType":"uint256","name":"nonce","type":"uint256"},{"internalType":"bytes","name":"initCode","type":"bytes"},{"internalType":"bytes","name":"callData","type":"bytes"},{"internalType":"uint256","name":"callGasLimit","type":"uint256"},{"internalType":"uint256","name":"verificationGasLimit","type":"uint256"},{"internalType":"uint256","name":"preVerificationGas","type":"uint256"},{"internalType":"uint256","name":"maxFeePerGas","type":"uint256"},{"internalType":"uint256","name":"maxPriorityFeePerGas","type":"uint256"},{"internalType":"bytes","name":"paymasterAndData","type":"bytes"},{"internalType":"bytes","name":"signature","type":"bytes"}],"internalType":"struct UserOperation","name":"op","type":"tuple"},{"internalType":"bytes32","name":"userOpHash","type":"bytes32"}],"name":"recoverUserIdFromSignature","outputs":[{"internalType":"bytes32","name":"","type":"bytes32"}],"stateMutability":"pure","type":"function"},{"inputs":[{"internalType":"enum AuthType","name":"authType","type":"uint8"},{"internalType":"bytes","name":"authMetadata","type":"bytes"},{"components":[{"internalType":"address","name":"sender","type":"address"},{"internalType":"uint256","name":"nonce","type":"uint256"},{"internalType":"bytes","name":"initCode","type":"bytes"},{"internalType":"bytes","name":"callData","type":"bytes"},{"internalType":"uint256","name":"callGasLimit","type":"uint256"},{"internalType":"uint256","name":"verificationGasLimit","type":"uint256"},{"internalType":"uint256","name":"preVerificationGas","type":"uint256"},{"internalType":"uint256","name":"maxFeePerGas","type":"uint256"},{"internalType":"uint256","name":"maxPriorityFeePerGas","type":"uint256"},{"internalType":"bytes","name":"paymasterAndData","type":"bytes"},{"internalType":"bytes","name":"signature","type":"bytes"}],"internalType":"struct UserOperation","name":"userOp","type":"tuple"},{"internalType":"bytes32","name":"userOpHash","type":"bytes32"}],"name":"validate","outputs":[{"internalType":"uint256","name":"sigTimeRange","type":"uint256"}],"stateMutability":"view","type":"function"}],"bytecode":"0x608060405234801561001057600080fd5b50610888806100206000396000f3fe608060405234801561001057600080fd5b506004361061004c5760003560e01c80633026a8df1461005157806381adfce614610076578063deca388714610089578063ffa1ad741461009c575b600080fd5b61006461005f366004610645565b6100a4565b60405190815260200160405180910390f35b610064610084366004610645565b6100de565b61006461009736600461068a565b610126565b610064600681565b6000806100be836100b9610140870187610740565b6101cf565b73ffffffffffffffffffffffffffffffffffffffff169150505b92915050565b60006100e98361026d565b156101155761010e6100ff610140850185610740565b610108916107a5565b60601c90565b90506100d8565b61011f83836100a4565b9392505050565b600080868015610138576101386107ed565b141561015f57600061014a86866102a2565b90506101578484836102b0565b9150506101c6565b6040517f08c379a000000000000000000000000000000000000000000000000000000000815260206004820181905260248201527f696e76616c696420757365722061757468656e7469636174696f6e207479706560448201526064015b60405180910390fd5b95945050505050565b600080610229856040517f19457468657265756d205369676e6564204d6573736167653a0a3332000000006020820152603c8101829052600090605c01604051602081830303815290604052805190602001209050919050565b90506101c684848080601f01602080910402602001604051908101604052809392919081815260200183838082843760009201919091525085939250506103199050565b600060c08201351580156102845750610100820135155b8015610292575060e0820135155b80156100d8575050608001351590565b600061011f8284018461081c565b60006102bb8461026d565b8061030257506102d3836100b9610140870187610740565b73ffffffffffffffffffffffffffffffffffffffff168273ffffffffffffffffffffffffffffffffffffffff16145b1561030f5750600061011f565b5060019392505050565b6000806000610328858561033d565b9150915061033581610383565b509392505050565b6000808251604114156103745760208301516040840151606085015160001a6103688782858561053d565b9450945050505061037c565b506000905060025b9250929050565b6000816004811115610397576103976107ed565b14156103a05750565b60018160048111156103b4576103b46107ed565b141561041c576040517f08c379a000000000000000000000000000000000000000000000000000000000815260206004820152601860248201527f45434453413a20696e76616c6964207369676e6174757265000000000000000060448201526064016101bd565b6002816004811115610430576104306107ed565b1415610498576040517f08c379a000000000000000000000000000000000000000000000000000000000815260206004820152601f60248201527f45434453413a20696e76616c6964207369676e6174757265206c656e6774680060448201526064016101bd565b60038160048111156104ac576104ac6107ed565b141561053a576040517f08c379a000000000000000000000000000000000000000000000000000000000815260206004820152602260248201527f45434453413a20696e76616c6964207369676e6174757265202773272076616c60448201527f756500000000000000000000000000000000000000000000000000000000000060648201526084016101bd565b50565b6000807f7fffffffffffffffffffffffffffffff5d576e7357a4501ddfe92f46681b20a08311156105745750600090506003610623565b6040805160008082526020820180845289905260ff881692820192909252606081018690526080810185905260019060a0016020604051602081039080840390855afa1580156105c8573d6000803e3d6000fd5b50506040517fffffffffffffffffffffffffffffffffffffffffffffffffffffffffffffffe0015191505073ffffffffffffffffffffffffffffffffffffffff811661061c57600060019250925050610623565b9150600090505b94509492505050565b6000610160828403121561063f57600080fd5b50919050565b6000806040838503121561065857600080fd5b823567ffffffffffffffff81111561066f57600080fd5b61067b8582860161062c565b95602094909401359450505050565b6000806000806000608086880312156106a257600080fd5b8535600181106106b157600080fd5b9450602086013567ffffffffffffffff808211156106ce57600080fd5b818801915088601f8301126106e257600080fd5b8135818111156106f157600080fd5b89602082850101111561070357600080fd5b60208301965080955050604088013591508082111561072157600080fd5b5061072e8882890161062c565b95989497509295606001359392505050565b60008083357fffffffffffffffffffffffffffffffffffffffffffffffffffffffffffffffe184360301811261077557600080fd5b83018035915067ffffffffffffffff82111561079057600080fd5b60200191503681900382131561037c57600080fd5b7fffffffffffffffffffffffffffffffffffffffff00000000000000000000000081358181169160148510156107e55780818660140360031b1b83161692505b505092915050565b7f4e487b7100000000000000000000000000000000000000000000000000000000600052602160045260246000fd5b60006020828403121561082e57600080fd5b813573ffffffffffffffffffffffffffffffffffffffff8116811461011f57600080fdfea2646970667358221220a4b9e292cdc0419bdb5439a8d34c9c8d49856140838513508faf40dc5c4ad77064736f6c634300080c0033","linkReferences":{},"deployedLinkReferences":{}}