{"_format":"hh-sol-artifact-1","contractName":"UserAuthentication","sourceName":"contracts/validations/UserAuthentication.sol","abi":[{"inputs":[],"name":"VERSION","outputs":[{"internalType":"uint256","name":"","type":"uint256"}],"stateMutability":"view","type":"function"},{"inputs":[{"components":[{"internalType":"address","name":"sender","type":"address"},{"internalType":"uint256","name":"nonce","type":"uint256"},{"internalType":"bytes","name":"initCode","type":"bytes"},{"internalType":"bytes","name":"callData","type":"bytes"},{"internalType":"uint256","name":"callGasLimit","type":"uint256"},{"internalType":"uint256","name":"verificationGasLimit","type":"uint256"},{"internalType":"uint256","name":"preVerificationGas","type":"uint256"},{"internalType":"uint256","name":"maxFeePerGas","type":"uint256"},{"internalType":"uint256","name":"maxPriorityFeePerGas","type":"uint256"},{"internalType":"bytes","name":"paymasterAndData","type":"bytes"},{"internalType":"bytes","name":"signature","type":"bytes"}],"internalType":"struct UserOperation","name":"userOp","type":"tuple"},{"internalType":"bytes32","name":"userOpHash","type":"bytes32"}],"name":"getUserId","outputs":[{"internalType":"bytes32","name":"","type":"bytes32"}],"stateMutability":"view","type":"function"},{"inputs":[{"components":[{"internalType":"address","name":"sender","type":"address"},{"internalType":"uint256","name":"nonce","type":"uint256"},{"internalType":"bytes","name":"initCode","type":"bytes"},{"internalType":"bytes","name":"callData","type":"bytes"},{"internalType":"uint256","name":"callGasLimit","type":"uint256"},{"internalType":"uint256","name":"verificationGasLimit","type":"uint256"},{"internalType":"uint256","name":"preVerificationGas","type":"uint256"},{"internalType":"uint256","name":"maxFeePerGas","type":"uint256"},{"internalType":"uint256","name":"maxPriorityFeePerGas","type":"uint256"},{"internalType":"bytes","name":"paymasterAndData","type":"bytes"},{"internalType":"bytes","name":"signature","type":"bytes"}],"internalType":"struct UserOperation","name":"op","type":"tuple"},{"internalType":"bytes32","name":"userOpHash","type":"bytes32"}],"name":"recoverUserIdFromSignature","outputs":[{"internalType":"bytes32","name":"","type":"bytes32"}],"stateMutability":"pure","type":"function"},{"inputs":[{"internalType":"enum AuthType","name":"authType","type":"uint8"},{"internalType":"bytes","name":"authMetadata","type":"bytes"},{"components":[{"internalType":"address","name":"sender","type":"address"},{"internalType":"uint256","name":"nonce","type":"uint256"},{"internalType":"bytes","name":"initCode","type":"bytes"},{"internalType":"bytes","name":"callData","type":"bytes"},{"internalType":"uint256","name":"callGasLimit","type":"uint256"},{"internalType":"uint256","name":"verificationGasLimit","type":"uint256"},{"internalType":"uint256","name":"preVerificationGas","type":"uint256"},{"internalType":"uint256","name":"maxFeePerGas","type":"uint256"},{"internalType":"uint256","name":"maxPriorityFeePerGas","type":"uint256"},{"internalType":"bytes","name":"paymasterAndData","type":"bytes"},{"internalType":"bytes","name":"signature","type":"bytes"}],"internalType":"struct UserOperation","name":"userOp","type":"tuple"},{"internalType":"bytes32","name":"userOpHash","type":"bytes32"}],"name":"validate","outputs":[{"internalType":"uint256","name":"sigTimeRange","type":"uint256"}],"stateMutability":"view","type":"function"}],"bytecode":"0x608060405234801561001057600080fd5b50610cb8806100206000396000f3fe608060405234801561001057600080fd5b506004361061004c5760003560e01c80633026a8df1461005157806381adfce614610076578063deca388714610089578063ffa1ad741461009c575b600080fd5b61006461005f3660046107e8565b6100a4565b60405190815260200160405180910390f35b6100646100843660046107e8565b6100de565b61006461009736600461082d565b6102e4565b610064600681565b6000806100be836100b96101408701876108e3565b610388565b73ffffffffffffffffffffffffffffffffffffffff169150505b92915050565b60408051602081019091527f3026a8df00000000000000000000000000000000000000000000000000000000815260009061011884610426565b156101455761013d61012e6101408601866108e3565b61013791610948565b60601c90565b9150506100d8565b60005b600181101561027c576000803084846001811061016757610167610990565b6020020151888860405160240161017f929190610a9e565b604080517fffffffffffffffffffffffffffffffffffffffffffffffffffffffffffffffe08184030181529181526020820180517bffffffffffffffffffffffffffffffffffffffffffffffffffffffff167fffffffff000000000000000000000000000000000000000000000000000000009094169390931790925290516102089190610be2565b600060405180830381855afa9150503d8060008114610243576040519150601f19603f3d011682016040523d82523d6000602084013e610248565b606091505b5091509150811561027257808060200190518101906102679190610c1d565b9450505050506100d8565b5050600101610148565b506040517f08c379a000000000000000000000000000000000000000000000000000000000815260206004820152601f60248201527f496e636f72726563742041757468656e7469636174696f6e204d6574686f640060448201526064015b60405180910390fd5b6000808680156102f6576102f6610c36565b141561031d576000610308868661043e565b9050610315848483610453565b91505061037f565b6040517f08c379a000000000000000000000000000000000000000000000000000000000815260206004820181905260248201527f696e76616c696420757365722061757468656e7469636174696f6e207479706560448201526064016102db565b95945050505050565b6000806103e2856040517f19457468657265756d205369676e6564204d6573736167653a0a3332000000006020820152603c8101829052600090605c01604051602081830303815290604052805190602001209050919050565b905061037f84848080601f01602080910402602001604051908101604052809392919081815260200183838082843760009201919091525085939250506104bc9050565b600060c08201351580156100d8575050608001351590565b600061044c82840184610c65565b9392505050565b600061045e84610426565b806104a55750610476836100b96101408701876108e3565b73ffffffffffffffffffffffffffffffffffffffff168273ffffffffffffffffffffffffffffffffffffffff16145b156104b25750600061044c565b5060019392505050565b60008060006104cb85856104e0565b915091506104d881610526565b509392505050565b6000808251604114156105175760208301516040840151606085015160001a61050b878285856106e0565b9450945050505061051f565b506000905060025b9250929050565b600081600481111561053a5761053a610c36565b14156105435750565b600181600481111561055757610557610c36565b14156105bf576040517f08c379a000000000000000000000000000000000000000000000000000000000815260206004820152601860248201527f45434453413a20696e76616c6964207369676e6174757265000000000000000060448201526064016102db565b60028160048111156105d3576105d3610c36565b141561063b576040517f08c379a000000000000000000000000000000000000000000000000000000000815260206004820152601f60248201527f45434453413a20696e76616c6964207369676e6174757265206c656e6774680060448201526064016102db565b600381600481111561064f5761064f610c36565b14156106dd576040517f08c379a000000000000000000000000000000000000000000000000000000000815260206004820152602260248201527f45434453413a20696e76616c6964207369676e6174757265202773272076616c60448201527f756500000000000000000000000000000000000000000000000000000000000060648201526084016102db565b50565b6000807f7fffffffffffffffffffffffffffffff5d576e7357a4501ddfe92f46681b20a083111561071757506000905060036107c6565b6040805160008082526020820180845289905260ff881692820192909252606081018690526080810185905260019060a0016020604051602081039080840390855afa15801561076b573d6000803e3d6000fd5b50506040517fffffffffffffffffffffffffffffffffffffffffffffffffffffffffffffffe0015191505073ffffffffffffffffffffffffffffffffffffffff81166107bf576000600192509250506107c6565b9150600090505b94509492505050565b600061016082840312156107e257600080fd5b50919050565b600080604083850312156107fb57600080fd5b823567ffffffffffffffff81111561081257600080fd5b61081e858286016107cf565b95602094909401359450505050565b60008060008060006080868803121561084557600080fd5b85356001811061085457600080fd5b9450602086013567ffffffffffffffff8082111561087157600080fd5b818801915088601f83011261088557600080fd5b81358181111561089457600080fd5b8960208285010111156108a657600080fd5b6020830196508095505060408801359150808211156108c457600080fd5b506108d1888289016107cf565b95989497509295606001359392505050565b60008083357fffffffffffffffffffffffffffffffffffffffffffffffffffffffffffffffe184360301811261091857600080fd5b83018035915067ffffffffffffffff82111561093357600080fd5b60200191503681900382131561051f57600080fd5b7fffffffffffffffffffffffffffffffffffffffff00000000000000000000000081358181169160148510156109885780818660140360031b1b83161692505b505092915050565b7f4e487b7100000000000000000000000000000000000000000000000000000000600052603260045260246000fd5b73ffffffffffffffffffffffffffffffffffffffff811681146106dd57600080fd5b80356109ec816109bf565b919050565b60008083357fffffffffffffffffffffffffffffffffffffffffffffffffffffffffffffffe1843603018112610a2657600080fd5b830160208101925035905067ffffffffffffffff811115610a4657600080fd5b80360383131561051f57600080fd5b8183528181602085013750600060208284010152600060207fffffffffffffffffffffffffffffffffffffffffffffffffffffffffffffffe0601f840116840101905092915050565b60408152610acc60408201610ab2856109e1565b73ffffffffffffffffffffffffffffffffffffffff169052565b602083013560608201526000610ae560408501856109f1565b610160806080860152610afd6101a086018385610a55565b9250610b0c60608801886109f1565b92507fffffffffffffffffffffffffffffffffffffffffffffffffffffffffffffffc0808786030160a0880152610b44858584610a55565b9450608089013560c088015260a089013560e0880152610100935060c089013584880152610120915060e089013582880152610140848a013581890152610b8d838b018b6109f1565b95509250818887030184890152610ba5868685610a55565b9550610bb3818b018b6109f1565b955093505080878603016101808801525050610bd0838383610a55565b93505050508260208301529392505050565b6000825160005b81811015610c035760208186018101518583015201610be9565b81811115610c12576000828501525b509190910192915050565b600060208284031215610c2f57600080fd5b5051919050565b7f4e487b7100000000000000000000000000000000000000000000000000000000600052602160045260246000fd5b600060208284031215610c7757600080fd5b813561044c816109bf56fea26469706673582212201f6f711d06be026d1cdcf3d6c11d55f3cbed8e580ae133fa5762232eaa90d79f64736f6c634300080c0033","linkReferences":{},"deployedLinkReferences":{}}