{
  "contractName": "AaveSupply",
  "abi": [
    {
      "inputs": [
        {
          "internalType": "address",
          "name": "treasury",
          "type": "address"
        },
        {
          "internalType": "string",
          "name": "key",
          "type": "string"
        }
      ],
      "name": "getData",
      "outputs": [
        {
          "internalType": "bytes",
          "name": "",
          "type": "bytes"
        }
      ],
      "stateMutability": "view",
      "type": "function"
    },
    {
      "inputs": [
        {
          "internalType": "address",
          "name": "user",
          "type": "address"
        }
      ],
      "name": "getVerificationContract",
      "outputs": [],
      "stateMutability": "view",
      "type": "function"
    },
    {
      "inputs": [
        {
          "internalType": "string",
          "name": "",
          "type": "string"
        }
      ],
      "name": "requests",
      "outputs": [
        {
          "internalType": "address",
          "name": "",
          "type": "address"
        }
      ],
      "stateMutability": "view",
      "type": "function"
    },
    {
      "inputs": [
        {
          "internalType": "bytes",
          "name": "data",
          "type": "bytes"
        }
      ],
      "name": "init",
      "outputs": [
        {
          "internalType": "bytes",
          "name": "",
          "type": "bytes"
        }
      ],
      "stateMutability": "payable",
      "type": "function"
    },
    {
      "inputs": [
        {
          "internalType": "bytes",
          "name": "data",
          "type": "bytes"
        }
      ],
      "name": "execute",
      "outputs": [
        {
          "internalType": "bytes",
          "name": "",
          "type": "bytes"
        }
      ],
      "stateMutability": "payable",
      "type": "function"
    }
  ],
  "bytecode": "0x608060405234801561001057600080fd5b506110b3806100206000396000f3fe60806040526004361061004a5760003560e01c806309c5eabe1461004f5780633bf58dba1461007f5780634ddf47d4146100bc578063692d51d2146100ec578063eea9919214610129575b600080fd5b61006960048036038101906100649190610834565b610152565b6040516100769190610905565b60405180910390f35b34801561008b57600080fd5b506100a660048036038101906100a19190610a26565b6103b0565b6040516100b39190610905565b60405180910390f35b6100d660048036038101906100d19190610834565b61047f565b6040516100e39190610905565b60405180910390f35b3480156100f857600080fd5b50610113600480360381019061010e9190610a82565b61050c565b6040516101209190610ada565b60405180910390f35b34801561013557600080fd5b50610150600480360381019061014b9190610af5565b610555565b005b606060008280602001905181019061016a9190610b92565b9050600061017833836103b0565b9050600080600080600061018b86610558565b9450945094509450945060008373ffffffffffffffffffffffffffffffffffffffff166370a08231876040518263ffffffff1660e01b81526004016101d09190610ada565b602060405180830381865afa1580156101ed573d6000803e3d6000fd5b505050506040513d601f19601f820116820180604052508101906102119190610c11565b905060008184106102225781610224565b835b9050600087338360405160240161023d93929190610c4d565b6040516020818303038152906040527f23b872dd000000000000000000000000000000000000000000000000000000007bffffffffffffffffffffffffffffffffffffffffffffffffffffffff19166020820180517bffffffffffffffffffffffffffffffffffffffffffffffffffffffff8381831617835250505050905060006102cb3388600085610591565b90506000818060200190518101906102e39190610cbc565b9050600088858c60006040516024016102ff9493929190610d3b565b6040516020818303038152906040527f617ba037000000000000000000000000000000000000000000000000000000007bffffffffffffffffffffffffffffffffffffffffffffffffffffffff19166020820180517bffffffffffffffffffffffffffffffffffffffffffffffffffffffff8381831617835250505050905061038b338b600084610591565b50604051806020016040528060008152509d5050505050505050505050505050919050565b6060600030836040516020016103c7929190610dd5565b6040516020818303038152906040526040516020016103e69190610e41565b60405160208183030381529060405290508373ffffffffffffffffffffffffffffffffffffffff16639ff420b7826040518263ffffffff1660e01b81526004016104309190610e58565b600060405180830381865afa15801561044d573d6000803e3d6000fd5b505050506040513d6000823e3d601f19601f820116820180604052508101906104769190610eea565b91505092915050565b606060016000803373ffffffffffffffffffffffffffffffffffffffff1673ffffffffffffffffffffffffffffffffffffffff16815260200190815260200160002060006101000a81548160ff02191690831515021790555060006104e383610558565b9450505050506104f4338285610622565b60405180602001604052806000815250915050919050565b6001818051602081018201805184825260208301602085012081835280955050505050506000915054906101000a900473ffffffffffffffffffffffffffffffffffffffff1681565b50565b6000806000806060858060200190518101906105749190610f71565b809550819650829750839850849950505050505091939590929450565b60608473ffffffffffffffffffffffffffffffffffffffff16633595a80d8585856040518463ffffffff1660e01b81526004016105d093929190611008565b6000604051808303816000875af11580156105ef573d6000803e3d6000fd5b505050506040513d6000823e3d601f19601f820116820180604052508101906106189190610eea565b9050949350505050565b60003083604051602001610637929190610dd5565b6040516020818303038152906040526040516020016106569190610e41565b60405160208183030381529060405290508373ffffffffffffffffffffffffffffffffffffffff1663ae65c78b82846040518363ffffffff1660e01b81526004016106a2929190611046565b600060405180830381600087803b1580156106bc57600080fd5b505af11580156106d0573d6000803e3d6000fd5b5050505050505050565b6000604051905090565b600080fd5b600080fd5b600080fd5b600080fd5b6000601f19601f8301169050919050565b7f4e487b7100000000000000000000000000000000000000000000000000000000600052604160045260246000fd5b610741826106f8565b810181811067ffffffffffffffff821117156107605761075f610709565b5b80604052505050565b60006107736106da565b905061077f8282610738565b919050565b600067ffffffffffffffff82111561079f5761079e610709565b5b6107a8826106f8565b9050602081019050919050565b82818337600083830152505050565b60006107d76107d284610784565b610769565b9050828152602081018484840111156107f3576107f26106f3565b5b6107fe8482856107b5565b509392505050565b600082601f83011261081b5761081a6106ee565b5b813561082b8482602086016107c4565b91505092915050565b60006020828403121561084a576108496106e4565b5b600082013567ffffffffffffffff811115610868576108676106e9565b5b61087484828501610806565b91505092915050565b600081519050919050565b600082825260208201905092915050565b60005b838110156108b757808201518184015260208101905061089c565b838111156108c6576000848401525b50505050565b60006108d78261087d565b6108e18185610888565b93506108f1818560208601610899565b6108fa816106f8565b840191505092915050565b6000602082019050818103600083015261091f81846108cc565b905092915050565b600073ffffffffffffffffffffffffffffffffffffffff82169050919050565b600061095282610927565b9050919050565b61096281610947565b811461096d57600080fd5b50565b60008135905061097f81610959565b92915050565b600067ffffffffffffffff8211156109a05761099f610709565b5b6109a9826106f8565b9050602081019050919050565b60006109c96109c484610985565b610769565b9050828152602081018484840111156109e5576109e46106f3565b5b6109f08482856107b5565b509392505050565b600082601f830112610a0d57610a0c6106ee565b5b8135610a1d8482602086016109b6565b91505092915050565b60008060408385031215610a3d57610a3c6106e4565b5b6000610a4b85828601610970565b925050602083013567ffffffffffffffff811115610a6c57610a6b6106e9565b5b610a78858286016109f8565b9150509250929050565b600060208284031215610a9857610a976106e4565b5b600082013567ffffffffffffffff811115610ab657610ab56106e9565b5b610ac2848285016109f8565b91505092915050565b610ad481610947565b82525050565b6000602082019050610aef6000830184610acb565b92915050565b600060208284031215610b0b57610b0a6106e4565b5b6000610b1984828501610970565b91505092915050565b6000610b35610b3084610985565b610769565b905082815260208101848484011115610b5157610b506106f3565b5b610b5c848285610899565b509392505050565b600082601f830112610b7957610b786106ee565b5b8151610b89848260208601610b22565b91505092915050565b600060208284031215610ba857610ba76106e4565b5b600082015167ffffffffffffffff811115610bc657610bc56106e9565b5b610bd284828501610b64565b91505092915050565b6000819050919050565b610bee81610bdb565b8114610bf957600080fd5b50565b600081519050610c0b81610be5565b92915050565b600060208284031215610c2757610c266106e4565b5b6000610c3584828501610bfc565b91505092915050565b610c4781610bdb565b82525050565b6000606082019050610c626000830186610acb565b610c6f6020830185610acb565b610c7c6040830184610c3e565b949350505050565b60008115159050919050565b610c9981610c84565b8114610ca457600080fd5b50565b600081519050610cb681610c90565b92915050565b600060208284031215610cd257610cd16106e4565b5b6000610ce084828501610ca7565b91505092915050565b6000819050919050565b600060ff82169050919050565b6000819050919050565b6000610d25610d20610d1b84610ce9565b610d00565b610cf3565b9050919050565b610d3581610d0a565b82525050565b6000608082019050610d506000830187610acb565b610d5d6020830186610c3e565b610d6a6040830185610acb565b610d776060830184610d2c565b95945050505050565b600081519050919050565b600082825260208201905092915050565b6000610da782610d80565b610db18185610d8b565b9350610dc1818560208601610899565b610dca816106f8565b840191505092915050565b6000604082019050610dea6000830185610acb565b8181036020830152610dfc8184610d9c565b90509392505050565b600081905092915050565b6000610e1b8261087d565b610e258185610e05565b9350610e35818560208601610899565b80840191505092915050565b6000610e4d8284610e10565b915081905092915050565b60006020820190508181036000830152610e728184610d9c565b905092915050565b6000610e8d610e8884610784565b610769565b905082815260208101848484011115610ea957610ea86106f3565b5b610eb4848285610899565b509392505050565b600082601f830112610ed157610ed06106ee565b5b8151610ee1848260208601610e7a565b91505092915050565b600060208284031215610f0057610eff6106e4565b5b600082015167ffffffffffffffff811115610f1e57610f1d6106e9565b5b610f2a84828501610ebc565b91505092915050565b6000610f3e82610927565b9050919050565b610f4e81610f33565b8114610f5957600080fd5b50565b600081519050610f6b81610f45565b92915050565b600080600080600060a08688031215610f8d57610f8c6106e4565b5b6000610f9b88828901610f5c565b9550506020610fac88828901610f5c565b9450506040610fbd88828901610f5c565b9350506060610fce88828901610bfc565b925050608086015167ffffffffffffffff811115610fef57610fee6106e9565b5b610ffb88828901610b64565b9150509295509295909350565b600060608201905061101d6000830186610acb565b61102a6020830185610c3e565b818103604083015261103c81846108cc565b9050949350505050565b600060408201905081810360008301526110608185610d9c565b9050818103602083015261107481846108cc565b9050939250505056fea26469706673582212204617bf90265d09720231a5ce1d9eb68b7ec81ac9b8c7ff80448583b69bf68c2364736f6c634300080a0033",
  "immutableReferences": {},
  "source": "// SPDX-License-Identifier: UNLICENSED\npragma solidity ^0.8.0;\n\nimport \"../Action.sol\";\n\nimport {IPool} from \"@aave/core-v3/contracts/interfaces/IPool.sol\";\nimport \"@openzeppelin/contracts/token/ERC20/ERC20.sol\";\n\ncontract AaveSupply is Action {\n    mapping(string => address) public requests;\n\n    function init(bytes memory data)\n        public\n        payable\n        override\n        returns (bytes memory)\n    {\n        whitelist[msg.sender] = true;\n        (, , , , string memory key) = decode(data);\n        storeData(msg.sender, key, data);\n        return bytes(\"\");\n    }\n\n    function decode(bytes memory data)\n        internal\n        pure\n        returns (\n            address userAddr,\n            address poolAddr,\n            address tokenAddr,\n            uint256 amount,\n            string memory key\n        )\n    {\n        (userAddr, poolAddr, tokenAddr, amount, key) = abi.decode(\n            data,\n            (address, address, address, uint256, string)\n        );\n    }\n\n    function execute(bytes memory data)\n        public\n        payable\n        override\n        returns (bytes memory)\n    {\n        string memory key = abi.decode(data, (string));\n        bytes memory externaldata = getData(msg.sender, key);\n\n        (\n            address userAddr,\n            address poolAddr,\n            address tokenAddr,\n            uint256 amount,\n            string memory throwaway\n        ) = decode(externaldata);\n\n        uint256 userbalance = ERC20(tokenAddr).balanceOf(userAddr);\n        uint256 position = amount < userbalance ? amount : userbalance;\n\n        bytes memory actionData = abi.encodeWithSignature(\n            \"transferFrom(address,address,uint256)\",\n            userAddr,\n            msg.sender,\n            position\n        );\n\n        bytes memory resBytes = sendCallOp(\n            msg.sender,\n            tokenAddr,\n            0,\n            actionData\n        );\n\n        bool res = abi.decode(resBytes, (bool));\n\n        bytes memory supplydata = abi.encodeWithSignature(\n            \"supply(address,uint256,address,uint16)\",\n            tokenAddr,\n            position,\n            userAddr,\n            0\n        );\n\n        sendCallOp(msg.sender, poolAddr, 0, supplydata);\n\n        return bytes(\"\");\n    }\n}\n",
  "sourcePath": "/Users/calebsirak/fun/web3sdk/web3/contracts/wallet/actions/AaveSupply.sol",
  "compiler": {
    "name": "solc",
    "version": "0.8.10+commit.fc410830.Emscripten.clang"
  },
  "schemaVersion": "3.4.10",
  "updatedAt": "2023-01-17T02:01:21.665Z",
  "devdoc": {
    "kind": "dev",
    "methods": {},
    "version": 1
  },
  "userdoc": {
    "kind": "user",
    "methods": {},
    "version": 1
  }
}