{
  "contractName": "AaveLiquadation",
  "abi": [
    {
      "inputs": [
        {
          "internalType": "address",
          "name": "user",
          "type": "address"
        }
      ],
      "name": "getVerificationContract",
      "outputs": [],
      "stateMutability": "view",
      "type": "function"
    },
    {
      "inputs": [
        {
          "internalType": "string",
          "name": "",
          "type": "string"
        }
      ],
      "name": "requests",
      "outputs": [
        {
          "internalType": "bytes",
          "name": "",
          "type": "bytes"
        }
      ],
      "stateMutability": "view",
      "type": "function"
    },
    {
      "inputs": [
        {
          "internalType": "bytes",
          "name": "data",
          "type": "bytes"
        }
      ],
      "name": "init",
      "outputs": [
        {
          "internalType": "bytes",
          "name": "",
          "type": "bytes"
        }
      ],
      "stateMutability": "payable",
      "type": "function"
    },
    {
      "inputs": [],
      "name": "init",
      "outputs": [
        {
          "internalType": "bytes",
          "name": "",
          "type": "bytes"
        }
      ],
      "stateMutability": "payable",
      "type": "function"
    },
    {
      "inputs": [
        {
          "internalType": "bytes",
          "name": "data",
          "type": "bytes"
        }
      ],
      "name": "execute",
      "outputs": [
        {
          "internalType": "bytes",
          "name": "",
          "type": "bytes"
        }
      ],
      "stateMutability": "payable",
      "type": "function"
    }
  ],
  "bytecode": "0x608060405234801561001057600080fd5b5061145e806100206000396000f3fe60806040526004361061004a5760003560e01c806309c5eabe1461004f5780634ddf47d41461007f578063692d51d2146100af578063e1c7392a146100ec578063eea991921461010a575b600080fd5b61006960048036038101906100649190610a7a565b610133565b6040516100769190610b60565b60405180910390f35b61009960048036038101906100949190610a7a565b6104b4565b6040516100a69190610b60565b60405180910390f35b3480156100bb57600080fd5b506100d660048036038101906100d19190610cb2565b6105be565b6040516100e39190610b60565b60405180910390f35b6100f4610674565b6040516101019190610b60565b60405180910390f35b34801561011657600080fd5b50610131600480360381019061012c9190610d59565b6106e2565b005b6060600083838101906101469190610cb2565b905060008060008061016061015b33876106e5565b6107b4565b935093509350935060008373ffffffffffffffffffffffffffffffffffffffff166370a08231866040518263ffffffff1660e01b81526004016101a39190610d95565b602060405180830381865afa1580156101c0573d6000803e3d6000fd5b505050506040513d601f19601f820116820180604052508101906101e49190610de6565b905060008533836040516024016101fd93929190610e22565b6040516020818303038152906040527f23b872dd000000000000000000000000000000000000000000000000000000007bffffffffffffffffffffffffffffffffffffffffffffffffffffffff19166020820180517bffffffffffffffffffffffffffffffffffffffffffffffffffffffff8381831617835250505050905061028933868360006107e6565b5060008573ffffffffffffffffffffffffffffffffffffffff16637535d2466040518163ffffffff1660e01b8152600401602060405180830381865afa1580156102d7573d6000803e3d6000fd5b505050506040513d601f19601f820116820180604052508101906102fb9190610e97565b905060008673ffffffffffffffffffffffffffffffffffffffff1663b16a19de6040518163ffffffff1660e01b8152600401602060405180830381865afa15801561034a573d6000803e3d6000fd5b505050506040513d601f19601f8201168201806040525081019061036e9190610ed9565b90508173ffffffffffffffffffffffffffffffffffffffff166369328dec82868b6040518463ffffffff1660e01b81526004016103ad93929190610f06565b6020604051808303816000875af11580156103cc573d6000803e3d6000fd5b505050506040513d601f19601f820116820180604052508101906103f09190610de6565b5080848960405160240161040693929190610f06565b6040516020818303038152906040527f69328dec000000000000000000000000000000000000000000000000000000007bffffffffffffffffffffffffffffffffffffffffffffffffffffffff19166020820180517bffffffffffffffffffffffffffffffffffffffffffffffffffffffff8381831617835250505050925061049233838560006107e6565b5060405180602001604052806000815250995050505050505050505092915050565b606060016000803373ffffffffffffffffffffffffffffffffffffffff1673ffffffffffffffffffffffffffffffffffffffff16815260200190815260200160002060006101000a81548160ff02191690831515021790555060008060008061051d8787610877565b935093509350935086866001836040516105379190610f84565b9081526020016040518091039020919061055292919061095e565b506105a2338289898080601f016020809104026020016040519081016040528093929190818152602001838380828437600081840152601f19601f820116905080830192505050505050506108a6565b6040518060200160405280600081525094505050505092915050565b60018180516020810182018051848252602083016020850120818352809550505050505060009150905080546105f390610fca565b80601f016020809104026020016040519081016040528092919081815260200182805461061f90610fca565b801561066c5780601f106106415761010080835404028352916020019161066c565b820191906000526020600020905b81548152906001019060200180831161064f57829003601f168201915b505050505081565b606060016000803373ffffffffffffffffffffffffffffffffffffffff1673ffffffffffffffffffffffffffffffffffffffff16815260200190815260200160002060006101000a81548160ff02191690831515021790555060405180602001604052806000815250905090565b50565b6060600030836040516020016106fc929190611046565b60405160208183030381529060405260405160200161071b91906110b2565b60405160208183030381529060405290508373ffffffffffffffffffffffffffffffffffffffff16639ff420b7826040518263ffffffff1660e01b815260040161076591906110c9565b600060405180830381865afa158015610782573d6000803e3d6000fd5b505050506040513d6000823e3d601f19601f820116820180604052508101906107ab919061118c565b91505092915050565b60008060006060848060200190518101906107cf9190611283565b809450819550829650839750505050509193509193565b60608473ffffffffffffffffffffffffffffffffffffffff16633595a80d8584866040518463ffffffff1660e01b815260040161082593929190611306565b6000604051808303816000875af1158015610844573d6000803e3d6000fd5b505050506040513d6000823e3d601f19601f8201168201806040525081019061086d919061118c565b9050949350505050565b60008060006060858581019061088d919061136e565b8094508195508296508397505050505092959194509250565b600030836040516020016108bb929190611046565b6040516020818303038152906040526040516020016108da91906110b2565b60405160208183030381529060405290508373ffffffffffffffffffffffffffffffffffffffff1663ae65c78b82846040518363ffffffff1660e01b81526004016109269291906113f1565b600060405180830381600087803b15801561094057600080fd5b505af1158015610954573d6000803e3d6000fd5b5050505050505050565b82805461096a90610fca565b90600052602060002090601f01602090048101928261098c57600085556109d3565b82601f106109a557803560ff19168380011785556109d3565b828001600101855582156109d3579182015b828111156109d25782358255916020019190600101906109b7565b5b5090506109e091906109e4565b5090565b5b808211156109fd5760008160009055506001016109e5565b5090565b6000604051905090565b600080fd5b600080fd5b600080fd5b600080fd5b600080fd5b60008083601f840112610a3a57610a39610a15565b5b8235905067ffffffffffffffff811115610a5757610a56610a1a565b5b602083019150836001820283011115610a7357610a72610a1f565b5b9250929050565b60008060208385031215610a9157610a90610a0b565b5b600083013567ffffffffffffffff811115610aaf57610aae610a10565b5b610abb85828601610a24565b92509250509250929050565b600081519050919050565b600082825260208201905092915050565b60005b83811015610b01578082015181840152602081019050610ae6565b83811115610b10576000848401525b50505050565b6000601f19601f8301169050919050565b6000610b3282610ac7565b610b3c8185610ad2565b9350610b4c818560208601610ae3565b610b5581610b16565b840191505092915050565b60006020820190508181036000830152610b7a8184610b27565b905092915050565b600080fd5b7f4e487b7100000000000000000000000000000000000000000000000000000000600052604160045260246000fd5b610bbf82610b16565b810181811067ffffffffffffffff82111715610bde57610bdd610b87565b5b80604052505050565b6000610bf1610a01565b9050610bfd8282610bb6565b919050565b600067ffffffffffffffff821115610c1d57610c1c610b87565b5b610c2682610b16565b9050602081019050919050565b82818337600083830152505050565b6000610c55610c5084610c02565b610be7565b905082815260208101848484011115610c7157610c70610b82565b5b610c7c848285610c33565b509392505050565b600082601f830112610c9957610c98610a15565b5b8135610ca9848260208601610c42565b91505092915050565b600060208284031215610cc857610cc7610a0b565b5b600082013567ffffffffffffffff811115610ce657610ce5610a10565b5b610cf284828501610c84565b91505092915050565b600073ffffffffffffffffffffffffffffffffffffffff82169050919050565b6000610d2682610cfb565b9050919050565b610d3681610d1b565b8114610d4157600080fd5b50565b600081359050610d5381610d2d565b92915050565b600060208284031215610d6f57610d6e610a0b565b5b6000610d7d84828501610d44565b91505092915050565b610d8f81610d1b565b82525050565b6000602082019050610daa6000830184610d86565b92915050565b6000819050919050565b610dc381610db0565b8114610dce57600080fd5b50565b600081519050610de081610dba565b92915050565b600060208284031215610dfc57610dfb610a0b565b5b6000610e0a84828501610dd1565b91505092915050565b610e1c81610db0565b82525050565b6000606082019050610e376000830186610d86565b610e446020830185610d86565b610e516040830184610e13565b949350505050565b6000610e6482610d1b565b9050919050565b610e7481610e59565b8114610e7f57600080fd5b50565b600081519050610e9181610e6b565b92915050565b600060208284031215610ead57610eac610a0b565b5b6000610ebb84828501610e82565b91505092915050565b600081519050610ed381610d2d565b92915050565b600060208284031215610eef57610eee610a0b565b5b6000610efd84828501610ec4565b91505092915050565b6000606082019050610f1b6000830186610d86565b610f286020830185610e13565b610f356040830184610d86565b949350505050565b600081519050919050565b600081905092915050565b6000610f5e82610f3d565b610f688185610f48565b9350610f78818560208601610ae3565b80840191505092915050565b6000610f908284610f53565b915081905092915050565b7f4e487b7100000000000000000000000000000000000000000000000000000000600052602260045260246000fd5b60006002820490506001821680610fe257607f821691505b60208210811415610ff657610ff5610f9b565b5b50919050565b600082825260208201905092915050565b600061101882610f3d565b6110228185610ffc565b9350611032818560208601610ae3565b61103b81610b16565b840191505092915050565b600060408201905061105b6000830185610d86565b818103602083015261106d818461100d565b90509392505050565b600081905092915050565b600061108c82610ac7565b6110968185611076565b93506110a6818560208601610ae3565b80840191505092915050565b60006110be8284611081565b915081905092915050565b600060208201905081810360008301526110e3818461100d565b905092915050565b600067ffffffffffffffff82111561110657611105610b87565b5b61110f82610b16565b9050602081019050919050565b600061112f61112a846110eb565b610be7565b90508281526020810184848401111561114b5761114a610b82565b5b611156848285610ae3565b509392505050565b600082601f83011261117357611172610a15565b5b815161118384826020860161111c565b91505092915050565b6000602082840312156111a2576111a1610a0b565b5b600082015167ffffffffffffffff8111156111c0576111bf610a10565b5b6111cc8482850161115e565b91505092915050565b60006111e082610cfb565b9050919050565b6111f0816111d5565b81146111fb57600080fd5b50565b60008151905061120d816111e7565b92915050565b600061122661122184610c02565b610be7565b90508281526020810184848401111561124257611241610b82565b5b61124d848285610ae3565b509392505050565b600082601f83011261126a57611269610a15565b5b815161127a848260208601611213565b91505092915050565b6000806000806080858703121561129d5761129c610a0b565b5b60006112ab878288016111fe565b94505060206112bc878288016111fe565b93505060406112cd87828801610dd1565b925050606085015167ffffffffffffffff8111156112ee576112ed610a10565b5b6112fa87828801611255565b91505092959194509250565b600060608201905061131b6000830186610d86565b6113286020830185610e13565b818103604083015261133a8184610b27565b9050949350505050565b600081359050611353816111e7565b92915050565b60008135905061136881610dba565b92915050565b6000806000806080858703121561138857611387610a0b565b5b600061139687828801611344565b94505060206113a787828801611344565b93505060406113b887828801611359565b925050606085013567ffffffffffffffff8111156113d9576113d8610a10565b5b6113e587828801610c84565b91505092959194509250565b6000604082019050818103600083015261140b818561100d565b9050818103602083015261141f8184610b27565b9050939250505056fea2646970667358221220e47d5da14f17e47e54263076c3961f272d6ed83d2f63e6c6a78e8cad4b321c1964736f6c634300080a0033",
  "immutableReferences": {},
  "source": "// SPDX-License-Identifier: UNLICENSED\npragma solidity ^0.8.0;\n\nimport \"../Action.sol\";\n\nimport {IPool} from \"@aave/core-v3/contracts/interfaces/IPool.sol\";\nimport {AToken} from \"@aave/core-v3/contracts/protocol/tokenization/AToken.sol\";\n\ncontract AaveLiquadation is Action {\n    mapping(string => bytes) public requests;\n\n    function _init(\n        address userAddr,\n        address aTokenAddr,\n        uint256 positionMax,\n        string memory key,\n        bytes calldata data\n    ) private {\n        // require(AToken(aTokenAddr).allowance(userAddr, msg.sender) >= positionMax);\n    }\n\n    function init(bytes calldata data)\n        external\n        payable\n        override\n        returns (bytes memory)\n    {\n        whitelist[msg.sender] = true;\n        (\n            address userAddr,\n            address aTokenAddr,\n            uint256 positionMax,\n            string memory key\n        ) = decode(data);\n\n        requests[key] = data;\n        storeData(msg.sender, key, data);\n        // _init(userAddr, aTokenAddr, positionMax, key, data);\n        return bytes(\"\");\n    }\n\n    function decode(bytes calldata data)\n        internal\n        pure\n        returns (\n            address userAddr,\n            address aTokenAddr,\n            uint256 positionMax,\n            string memory key\n        )\n    {\n        (userAddr, aTokenAddr, positionMax, key) = abi.decode(\n            data,\n            (address, address, uint256, string)\n        );\n    }\n\n    function decodeMem(bytes memory memData)\n        internal\n        pure\n        returns (\n            address userAddr,\n            address aTokenAddr,\n            uint256 positionMax,\n            string memory key\n        )\n    {\n        (userAddr, aTokenAddr, positionMax, key) = abi.decode(\n            memData,\n            (address, address, uint256, string)\n        );\n    }\n\n    function execute(bytes calldata data)\n        external\n        payable\n        override\n        returns (bytes memory)\n    {\n        string memory key = abi.decode(data, (string));\n\n        (\n            address userAddr,\n            address aTokenAddr,\n            uint256 positionMax,\n            string memory throwaway\n        ) = decodeMem(getData(msg.sender, key));\n\n        // require(AToken(aTokenAddr).allowance(userAddr, msg.sender) >= positionMax);\n\n        uint256 balance = AToken(aTokenAddr).balanceOf(userAddr);\n\n        bytes memory actionData = abi.encodeWithSignature(\n            \"transferFrom(address,address,uint256)\",\n            userAddr,\n            msg.sender,\n            balance\n        );\n        sendCallOp(msg.sender, aTokenAddr, actionData, 0);\n\n        IPool pool = AToken(aTokenAddr).POOL();\n        address assetAddr = AToken(aTokenAddr).UNDERLYING_ASSET_ADDRESS();\n\n        pool.withdraw(assetAddr, balance, userAddr); //call op\n        actionData = abi.encodeWithSignature(\n            \"withdraw(address,uint256,address)\",\n            assetAddr,\n            balance,\n            userAddr\n        );\n        sendCallOp(msg.sender, address(pool), actionData, 0);\n\n        return bytes(\"\");\n    }\n}\n",
  "sourcePath": "/Users/calebsirak/fun/wallet-sdk-v1/web3/contracts/wallet/actions/AaveAction.sol",
  "compiler": {
    "name": "solc",
    "version": "0.8.10+commit.fc410830.Emscripten.clang"
  },
  "schemaVersion": "3.4.10",
  "updatedAt": "2023-01-06T09:44:08.591Z",
  "devdoc": {
    "kind": "dev",
    "methods": {},
    "version": 1
  },
  "userdoc": {
    "kind": "user",
    "methods": {},
    "version": 1
  }
}