{
  "contractName": "AaveLiquadation",
  "abi": [
    {
      "inputs": [
        {
          "internalType": "address",
          "name": "treasury",
          "type": "address"
        },
        {
          "internalType": "string",
          "name": "key",
          "type": "string"
        }
      ],
      "name": "getData",
      "outputs": [
        {
          "internalType": "bytes",
          "name": "",
          "type": "bytes"
        }
      ],
      "stateMutability": "view",
      "type": "function"
    },
    {
      "inputs": [
        {
          "internalType": "address",
          "name": "user",
          "type": "address"
        }
      ],
      "name": "getVerificationContract",
      "outputs": [],
      "stateMutability": "view",
      "type": "function"
    },
    {
      "inputs": [
        {
          "internalType": "string",
          "name": "",
          "type": "string"
        }
      ],
      "name": "requests",
      "outputs": [
        {
          "internalType": "address",
          "name": "",
          "type": "address"
        }
      ],
      "stateMutability": "view",
      "type": "function"
    },
    {
      "inputs": [
        {
          "internalType": "bytes",
          "name": "data",
          "type": "bytes"
        }
      ],
      "name": "init",
      "outputs": [
        {
          "internalType": "bytes",
          "name": "",
          "type": "bytes"
        }
      ],
      "stateMutability": "payable",
      "type": "function"
    },
    {
      "inputs": [
        {
          "internalType": "bytes",
          "name": "data",
          "type": "bytes"
        }
      ],
      "name": "execute",
      "outputs": [
        {
          "internalType": "bytes",
          "name": "",
          "type": "bytes"
        }
      ],
      "stateMutability": "payable",
      "type": "function"
    }
  ],
  "bytecode": "0x608060405234801561001057600080fd5b50611256806100206000396000f3fe60806040526004361061004a5760003560e01c806309c5eabe1461004f5780633bf58dba1461007f5780634ddf47d4146100bc578063692d51d2146100ec578063eea9919214610129575b600080fd5b61006960048036038101906100649190610989565b610152565b6040516100769190610a5a565b60405180910390f35b34801561008b57600080fd5b506100a660048036038101906100a19190610b7b565b61050d565b6040516100b39190610a5a565b60405180910390f35b6100d660048036038101906100d19190610989565b6105dc565b6040516100e39190610a5a565b60405180910390f35b3480156100f857600080fd5b50610113600480360381019061010e9190610bd7565b61066e565b6040516101209190610c2f565b60405180910390f35b34801561013557600080fd5b50610150600480360381019061014b9190610c4a565b6106b7565b005b606060008280602001905181019061016a9190610ce7565b90506000610178338361050d565b90506000806000610188846106ba565b92509250925060008273ffffffffffffffffffffffffffffffffffffffff16637535d2466040518163ffffffff1660e01b8152600401602060405180830381865afa1580156101db573d6000803e3d6000fd5b505050506040513d601f19601f820116820180604052508101906101ff9190610d6e565b905060008373ffffffffffffffffffffffffffffffffffffffff1663dd62ed3e86336040518363ffffffff1660e01b815260040161023e929190610d9b565b602060405180830381865afa15801561025b573d6000803e3d6000fd5b505050506040513d601f19601f8201168201806040525081019061027f9190610dfa565b905060008473ffffffffffffffffffffffffffffffffffffffff166370a08231876040518263ffffffff1660e01b81526004016102bc9190610c2f565b602060405180830381865afa1580156102d9573d6000803e3d6000fd5b505050506040513d601f19601f820116820180604052508101906102fd9190610dfa565b9050600081831061030e5781610310565b825b905060008673ffffffffffffffffffffffffffffffffffffffff1663b16a19de6040518163ffffffff1660e01b8152600401602060405180830381865afa15801561035f573d6000803e3d6000fd5b505050506040513d601f19601f820116820180604052508101906103839190610e3c565b9050600088338460405160240161039c93929190610e78565b6040516020818303038152906040527f23b872dd000000000000000000000000000000000000000000000000000000007bffffffffffffffffffffffffffffffffffffffffffffffffffffffff19166020820180517bffffffffffffffffffffffffffffffffffffffffffffffffffffffff83818316178352505050509050600061042a338a6000856106e6565b90506000818060200190518101906104429190610ee7565b9050600084868d60405160240161045b93929190610f14565b6040516020818303038152906040527f69328dec000000000000000000000000000000000000000000000000000000007bffffffffffffffffffffffffffffffffffffffffffffffffffffffff19166020820180517bffffffffffffffffffffffffffffffffffffffffffffffffffffffff838183161783525050505090506104e7338a6000846106e6565b50604051806020016040528060008152509e505050505050505050505050505050919050565b606060003083604051602001610524929190610fa0565b604051602081830303815290604052604051602001610543919061100c565b60405160208183030381529060405290508373ffffffffffffffffffffffffffffffffffffffff16639ff420b7826040518263ffffffff1660e01b815260040161058d9190611023565b600060405180830381865afa1580156105aa573d6000803e3d6000fd5b505050506040513d6000823e3d601f19601f820116820180604052508101906105d391906110b5565b91505092915050565b606060016000803373ffffffffffffffffffffffffffffffffffffffff1673ffffffffffffffffffffffffffffffffffffffff16815260200190815260200160002060006101000a81548160ff0219169083151502179055506000806000610643856106ba565b925092509250610654338287610777565b604051806020016040528060008152509350505050919050565b6001818051602081018201805184825260208301602085012081835280955050505050506000915054906101000a900473ffffffffffffffffffffffffffffffffffffffff1681565b50565b6000806060838060200190518101906106d3919061113c565b8093508194508295505050509193909250565b60608473ffffffffffffffffffffffffffffffffffffffff16633595a80d8585856040518463ffffffff1660e01b8152600401610725939291906111ab565b6000604051808303816000875af1158015610744573d6000803e3d6000fd5b505050506040513d6000823e3d601f19601f8201168201806040525081019061076d91906110b5565b9050949350505050565b6000308360405160200161078c929190610fa0565b6040516020818303038152906040526040516020016107ab919061100c565b60405160208183030381529060405290508373ffffffffffffffffffffffffffffffffffffffff1663ae65c78b82846040518363ffffffff1660e01b81526004016107f79291906111e9565b600060405180830381600087803b15801561081157600080fd5b505af1158015610825573d6000803e3d6000fd5b5050505050505050565b6000604051905090565b600080fd5b600080fd5b600080fd5b600080fd5b6000601f19601f8301169050919050565b7f4e487b7100000000000000000000000000000000000000000000000000000000600052604160045260246000fd5b6108968261084d565b810181811067ffffffffffffffff821117156108b5576108b461085e565b5b80604052505050565b60006108c861082f565b90506108d4828261088d565b919050565b600067ffffffffffffffff8211156108f4576108f361085e565b5b6108fd8261084d565b9050602081019050919050565b82818337600083830152505050565b600061092c610927846108d9565b6108be565b90508281526020810184848401111561094857610947610848565b5b61095384828561090a565b509392505050565b600082601f8301126109705761096f610843565b5b8135610980848260208601610919565b91505092915050565b60006020828403121561099f5761099e610839565b5b600082013567ffffffffffffffff8111156109bd576109bc61083e565b5b6109c98482850161095b565b91505092915050565b600081519050919050565b600082825260208201905092915050565b60005b83811015610a0c5780820151818401526020810190506109f1565b83811115610a1b576000848401525b50505050565b6000610a2c826109d2565b610a3681856109dd565b9350610a468185602086016109ee565b610a4f8161084d565b840191505092915050565b60006020820190508181036000830152610a748184610a21565b905092915050565b600073ffffffffffffffffffffffffffffffffffffffff82169050919050565b6000610aa782610a7c565b9050919050565b610ab781610a9c565b8114610ac257600080fd5b50565b600081359050610ad481610aae565b92915050565b600067ffffffffffffffff821115610af557610af461085e565b5b610afe8261084d565b9050602081019050919050565b6000610b1e610b1984610ada565b6108be565b905082815260208101848484011115610b3a57610b39610848565b5b610b4584828561090a565b509392505050565b600082601f830112610b6257610b61610843565b5b8135610b72848260208601610b0b565b91505092915050565b60008060408385031215610b9257610b91610839565b5b6000610ba085828601610ac5565b925050602083013567ffffffffffffffff811115610bc157610bc061083e565b5b610bcd85828601610b4d565b9150509250929050565b600060208284031215610bed57610bec610839565b5b600082013567ffffffffffffffff811115610c0b57610c0a61083e565b5b610c1784828501610b4d565b91505092915050565b610c2981610a9c565b82525050565b6000602082019050610c446000830184610c20565b92915050565b600060208284031215610c6057610c5f610839565b5b6000610c6e84828501610ac5565b91505092915050565b6000610c8a610c8584610ada565b6108be565b905082815260208101848484011115610ca657610ca5610848565b5b610cb18482856109ee565b509392505050565b600082601f830112610cce57610ccd610843565b5b8151610cde848260208601610c77565b91505092915050565b600060208284031215610cfd57610cfc610839565b5b600082015167ffffffffffffffff811115610d1b57610d1a61083e565b5b610d2784828501610cb9565b91505092915050565b6000610d3b82610a9c565b9050919050565b610d4b81610d30565b8114610d5657600080fd5b50565b600081519050610d6881610d42565b92915050565b600060208284031215610d8457610d83610839565b5b6000610d9284828501610d59565b91505092915050565b6000604082019050610db06000830185610c20565b610dbd6020830184610c20565b9392505050565b6000819050919050565b610dd781610dc4565b8114610de257600080fd5b50565b600081519050610df481610dce565b92915050565b600060208284031215610e1057610e0f610839565b5b6000610e1e84828501610de5565b91505092915050565b600081519050610e3681610aae565b92915050565b600060208284031215610e5257610e51610839565b5b6000610e6084828501610e27565b91505092915050565b610e7281610dc4565b82525050565b6000606082019050610e8d6000830186610c20565b610e9a6020830185610c20565b610ea76040830184610e69565b949350505050565b60008115159050919050565b610ec481610eaf565b8114610ecf57600080fd5b50565b600081519050610ee181610ebb565b92915050565b600060208284031215610efd57610efc610839565b5b6000610f0b84828501610ed2565b91505092915050565b6000606082019050610f296000830186610c20565b610f366020830185610e69565b610f436040830184610c20565b949350505050565b600081519050919050565b600082825260208201905092915050565b6000610f7282610f4b565b610f7c8185610f56565b9350610f8c8185602086016109ee565b610f958161084d565b840191505092915050565b6000604082019050610fb56000830185610c20565b8181036020830152610fc78184610f67565b90509392505050565b600081905092915050565b6000610fe6826109d2565b610ff08185610fd0565b93506110008185602086016109ee565b80840191505092915050565b60006110188284610fdb565b915081905092915050565b6000602082019050818103600083015261103d8184610f67565b905092915050565b6000611058611053846108d9565b6108be565b90508281526020810184848401111561107457611073610848565b5b61107f8482856109ee565b509392505050565b600082601f83011261109c5761109b610843565b5b81516110ac848260208601611045565b91505092915050565b6000602082840312156110cb576110ca610839565b5b600082015167ffffffffffffffff8111156110e9576110e861083e565b5b6110f584828501611087565b91505092915050565b600061110982610a7c565b9050919050565b611119816110fe565b811461112457600080fd5b50565b60008151905061113681611110565b92915050565b60008060006060848603121561115557611154610839565b5b600061116386828701611127565b935050602061117486828701611127565b925050604084015167ffffffffffffffff8111156111955761119461083e565b5b6111a186828701610cb9565b9150509250925092565b60006060820190506111c06000830186610c20565b6111cd6020830185610e69565b81810360408301526111df8184610a21565b9050949350505050565b600060408201905081810360008301526112038185610f67565b905081810360208301526112178184610a21565b9050939250505056fea264697066735822122053a87d2425803d83348daa36d05896ad2d98df68aeee0345f85ba6855b81e90b64736f6c634300080a0033",
  "immutableReferences": {},
  "source": "// SPDX-License-Identifier: UNLICENSED\npragma solidity ^0.8.0;\n\nimport \"../Action.sol\";\n\nimport {IPool} from \"@aave/core-v3/contracts/interfaces/IPool.sol\";\nimport {AToken} from \"@aave/core-v3/contracts/protocol/tokenization/AToken.sol\";\n\ncontract AaveLiquadation is Action {\n    mapping(string => address) public requests;\n\n    function _init(\n        address userAddr,\n        address aTokenAddr,\n        string memory key,\n        bytes memory data\n    ) private {\n        // require(AToken(aTokenAddr).allowance(userAddr, msg.sender) >= positionMax);\n    }\n\n    function init(bytes memory data)\n        public\n        payable\n        override\n        returns (bytes memory)\n    {\n        whitelist[msg.sender] = true;\n        (address userAddr, address aTokenAddr, string memory key) = decode(\n            data\n        );\n\n        storeData(msg.sender, key, data);\n\n        return bytes(\"\");\n    }\n\n    function decode(bytes memory data)\n        internal\n        pure\n        returns (\n            address userAddr,\n            address aTokenAddr,\n            string memory key\n        )\n    {\n        (userAddr, aTokenAddr, key) = abi.decode(\n            data,\n            (address, address, string)\n        );\n    }\n\n    function execute(bytes memory data)\n        public\n        payable\n        override\n        returns (bytes memory)\n    {\n        string memory key = abi.decode(data, (string));\n        bytes memory externaldata = getData(msg.sender, key);\n\n        (\n            address userAddr,\n            address aTokenAddr,\n            string memory throwaway\n        ) = decode(externaldata);\n        IPool pool = AToken(aTokenAddr).POOL();\n\n        uint256 allowance = AToken(aTokenAddr).allowance(userAddr, msg.sender);\n        uint256 userbalance = AToken(aTokenAddr).balanceOf(userAddr);\n        uint256 position = allowance < userbalance ? allowance : userbalance;\n\n        address assetAddr = AToken(aTokenAddr).UNDERLYING_ASSET_ADDRESS();\n\n        bytes memory actionData = abi.encodeWithSignature(\n            \"transferFrom(address,address,uint256)\",\n            userAddr,\n            msg.sender,\n            position\n        );\n\n        bytes memory resBytes = sendCallOp(\n            msg.sender,\n            aTokenAddr,\n            0,\n            actionData\n        );\n\n        bool res = abi.decode(resBytes, (bool));\n\n        bytes memory withdrawdata = abi.encodeWithSignature(\n            \"withdraw(address,uint256,address)\",\n            assetAddr,\n            position,\n            userAddr\n        );\n\n        sendCallOp(msg.sender, address(pool), 0, withdrawdata);\n\n        return bytes(\"\");\n    }\n}\n",
  "sourcePath": "/Users/calebsirak/fun/wallet-sdk-v1/web3/contracts/wallet/actions/AaveAction.sol",
  "compiler": {
    "name": "solc",
    "version": "0.8.10+commit.fc410830.Emscripten.clang"
  },
  "schemaVersion": "3.4.10",
  "updatedAt": "2023-01-07T10:01:14.502Z",
  "devdoc": {
    "kind": "dev",
    "methods": {},
    "version": 1
  },
  "userdoc": {
    "kind": "user",
    "methods": {},
    "version": 1
  }
}