{
  "contractName": "AaveLiquadation",
  "abi": [
    {
      "inputs": [
        {
          "internalType": "address",
          "name": "user",
          "type": "address"
        }
      ],
      "name": "getVerificationContract",
      "outputs": [],
      "stateMutability": "view",
      "type": "function"
    },
    {
      "inputs": [
        {
          "internalType": "bytes",
          "name": "data",
          "type": "bytes"
        }
      ],
      "name": "init",
      "outputs": [
        {
          "internalType": "bytes",
          "name": "",
          "type": "bytes"
        }
      ],
      "stateMutability": "payable",
      "type": "function"
    },
    {
      "inputs": [],
      "name": "init",
      "outputs": [
        {
          "internalType": "bytes",
          "name": "",
          "type": "bytes"
        }
      ],
      "stateMutability": "payable",
      "type": "function"
    },
    {
      "inputs": [
        {
          "internalType": "bytes",
          "name": "data",
          "type": "bytes"
        }
      ],
      "name": "execute",
      "outputs": [
        {
          "internalType": "bytes",
          "name": "",
          "type": "bytes"
        }
      ],
      "stateMutability": "payable",
      "type": "function"
    }
  ],
  "bytecode": "0x608060405234801561001057600080fd5b506112c8806100206000396000f3fe60806040526004361061003f5760003560e01c806309c5eabe146100445780634ddf47d414610074578063e1c7392a146100a4578063eea99192146100c2575b600080fd5b61005e60048036038101906100599190610946565b6100eb565b60405161006b9190610a2c565b60405180910390f35b61008e60048036038101906100899190610946565b610478565b60405161009b9190610a2c565b60405180910390f35b6100ac610513565b6040516100b99190610a2c565b60405180910390f35b3480156100ce57600080fd5b506100e960048036038101906100e49190610aac565b610581565b005b6060600083838101906100fe9190610c09565b90506000806000806101186101133387610584565b610634565b935093509350935061012c84848433610666565b60008373ffffffffffffffffffffffffffffffffffffffff166370a08231866040518263ffffffff1660e01b81526004016101679190610c61565b602060405180830381865afa158015610184573d6000803e3d6000fd5b505050506040513d601f19601f820116820180604052508101906101a89190610cb2565b905060008533836040516024016101c193929190610cee565b6040516020818303038152906040527f23b872dd000000000000000000000000000000000000000000000000000000007bffffffffffffffffffffffffffffffffffffffffffffffffffffffff19166020820180517bffffffffffffffffffffffffffffffffffffffffffffffffffffffff8381831617835250505050905061024d338683600061071d565b5060008573ffffffffffffffffffffffffffffffffffffffff16637535d2466040518163ffffffff1660e01b8152600401602060405180830381865afa15801561029b573d6000803e3d6000fd5b505050506040513d601f19601f820116820180604052508101906102bf9190610d63565b905060008673ffffffffffffffffffffffffffffffffffffffff1663b16a19de6040518163ffffffff1660e01b8152600401602060405180830381865afa15801561030e573d6000803e3d6000fd5b505050506040513d601f19601f820116820180604052508101906103329190610da5565b90508173ffffffffffffffffffffffffffffffffffffffff166369328dec82868b6040518463ffffffff1660e01b815260040161037193929190610dd2565b6020604051808303816000875af1158015610390573d6000803e3d6000fd5b505050506040513d601f19601f820116820180604052508101906103b49190610cb2565b508084896040516024016103ca93929190610dd2565b6040516020818303038152906040527f69328dec000000000000000000000000000000000000000000000000000000007bffffffffffffffffffffffffffffffffffffffffffffffffffffffff19166020820180517bffffffffffffffffffffffffffffffffffffffffffffffffffffffff83818316178352505050509250610456338385600061071d565b5060405180602001604052806000815250995050505050505050505092915050565b606060016000803373ffffffffffffffffffffffffffffffffffffffff1673ffffffffffffffffffffffffffffffffffffffff16815260200190815260200160002060006101000a81548160ff0219169083151502179055506000806000806104e187876107ae565b93509350935093506104f7848484848b8b6107dd565b6040518060200160405280600081525094505050505092915050565b606060016000803373ffffffffffffffffffffffffffffffffffffffff1673ffffffffffffffffffffffffffffffffffffffff16815260200190815260200160002060006101000a81548160ff02191690831515021790555060405180602001604052806000815250905090565b50565b60606000308360405160200161059b929190610e98565b60405160208183030381529060405290508373ffffffffffffffffffffffffffffffffffffffff16639ff420b7826040518263ffffffff1660e01b81526004016105e59190610f0a565b600060405180830381865afa158015610602573d6000803e3d6000fd5b505050506040513d6000823e3d601f19601f8201168201806040525081019061062b9190610fcd565b91505092915050565b600080600060608480602001905181019061064f91906110c4565b809450819550829650839750505050509193509193565b7fffffffffffffffffffffffffffffffffffffffffffffffffffffffffffffffff82101561071757818373ffffffffffffffffffffffffffffffffffffffff1663dd62ed3e86846040518363ffffffff1660e01b81526004016106ca929190611147565b602060405180830381865afa1580156106e7573d6000803e3d6000fd5b505050506040513d601f19601f8201168201806040525081019061070b9190610cb2565b101561071657600080fd5b5b50505050565b60608473ffffffffffffffffffffffffffffffffffffffff16633595a80d8584866040518463ffffffff1660e01b815260040161075c93929190611170565b6000604051808303816000875af115801561077b573d6000803e3d6000fd5b505050506040513d6000823e3d601f19601f820116820180604052508101906107a49190610fcd565b9050949350505050565b6000806000606085858101906107c491906111d8565b8094508195508296508397505050505092959194509250565b61082c338484848080601f016020809104026020016040519081016040528093929190818152602001838380828437600081840152601f19601f82011690508083019250505050505050610834565b505050505050565b60003083604051602001610849929190610e98565b60405160208183030381529060405290508373ffffffffffffffffffffffffffffffffffffffff1663ae65c78b82846040518363ffffffff1660e01b815260040161089592919061125b565b600060405180830381600087803b1580156108af57600080fd5b505af11580156108c3573d6000803e3d6000fd5b5050505050505050565b6000604051905090565b600080fd5b600080fd5b600080fd5b600080fd5b600080fd5b60008083601f840112610906576109056108e1565b5b8235905067ffffffffffffffff811115610923576109226108e6565b5b60208301915083600182028301111561093f5761093e6108eb565b5b9250929050565b6000806020838503121561095d5761095c6108d7565b5b600083013567ffffffffffffffff81111561097b5761097a6108dc565b5b610987858286016108f0565b92509250509250929050565b600081519050919050565b600082825260208201905092915050565b60005b838110156109cd5780820151818401526020810190506109b2565b838111156109dc576000848401525b50505050565b6000601f19601f8301169050919050565b60006109fe82610993565b610a08818561099e565b9350610a188185602086016109af565b610a21816109e2565b840191505092915050565b60006020820190508181036000830152610a4681846109f3565b905092915050565b600073ffffffffffffffffffffffffffffffffffffffff82169050919050565b6000610a7982610a4e565b9050919050565b610a8981610a6e565b8114610a9457600080fd5b50565b600081359050610aa681610a80565b92915050565b600060208284031215610ac257610ac16108d7565b5b6000610ad084828501610a97565b91505092915050565b600080fd5b7f4e487b7100000000000000000000000000000000000000000000000000000000600052604160045260246000fd5b610b16826109e2565b810181811067ffffffffffffffff82111715610b3557610b34610ade565b5b80604052505050565b6000610b486108cd565b9050610b548282610b0d565b919050565b600067ffffffffffffffff821115610b7457610b73610ade565b5b610b7d826109e2565b9050602081019050919050565b82818337600083830152505050565b6000610bac610ba784610b59565b610b3e565b905082815260208101848484011115610bc857610bc7610ad9565b5b610bd3848285610b8a565b509392505050565b600082601f830112610bf057610bef6108e1565b5b8135610c00848260208601610b99565b91505092915050565b600060208284031215610c1f57610c1e6108d7565b5b600082013567ffffffffffffffff811115610c3d57610c3c6108dc565b5b610c4984828501610bdb565b91505092915050565b610c5b81610a6e565b82525050565b6000602082019050610c766000830184610c52565b92915050565b6000819050919050565b610c8f81610c7c565b8114610c9a57600080fd5b50565b600081519050610cac81610c86565b92915050565b600060208284031215610cc857610cc76108d7565b5b6000610cd684828501610c9d565b91505092915050565b610ce881610c7c565b82525050565b6000606082019050610d036000830186610c52565b610d106020830185610c52565b610d1d6040830184610cdf565b949350505050565b6000610d3082610a6e565b9050919050565b610d4081610d25565b8114610d4b57600080fd5b50565b600081519050610d5d81610d37565b92915050565b600060208284031215610d7957610d786108d7565b5b6000610d8784828501610d4e565b91505092915050565b600081519050610d9f81610a80565b92915050565b600060208284031215610dbb57610dba6108d7565b5b6000610dc984828501610d90565b91505092915050565b6000606082019050610de76000830186610c52565b610df46020830185610cdf565b610e016040830184610c52565b949350505050565b60008160601b9050919050565b6000610e2182610e09565b9050919050565b6000610e3382610e16565b9050919050565b610e4b610e4682610a6e565b610e28565b82525050565b600081519050919050565b600081905092915050565b6000610e7282610e51565b610e7c8185610e5c565b9350610e8c8185602086016109af565b80840191505092915050565b6000610ea48285610e3a565b601482019150610eb48284610e67565b91508190509392505050565b600082825260208201905092915050565b6000610edc82610e51565b610ee68185610ec0565b9350610ef68185602086016109af565b610eff816109e2565b840191505092915050565b60006020820190508181036000830152610f248184610ed1565b905092915050565b600067ffffffffffffffff821115610f4757610f46610ade565b5b610f50826109e2565b9050602081019050919050565b6000610f70610f6b84610f2c565b610b3e565b905082815260208101848484011115610f8c57610f8b610ad9565b5b610f978482856109af565b509392505050565b600082601f830112610fb457610fb36108e1565b5b8151610fc4848260208601610f5d565b91505092915050565b600060208284031215610fe357610fe26108d7565b5b600082015167ffffffffffffffff811115611001576110006108dc565b5b61100d84828501610f9f565b91505092915050565b600061102182610a4e565b9050919050565b61103181611016565b811461103c57600080fd5b50565b60008151905061104e81611028565b92915050565b600061106761106284610b59565b610b3e565b90508281526020810184848401111561108357611082610ad9565b5b61108e8482856109af565b509392505050565b600082601f8301126110ab576110aa6108e1565b5b81516110bb848260208601611054565b91505092915050565b600080600080608085870312156110de576110dd6108d7565b5b60006110ec8782880161103f565b94505060206110fd8782880161103f565b935050604061110e87828801610c9d565b925050606085015167ffffffffffffffff81111561112f5761112e6108dc565b5b61113b87828801611096565b91505092959194509250565b600060408201905061115c6000830185610c52565b6111696020830184610c52565b9392505050565b60006060820190506111856000830186610c52565b6111926020830185610cdf565b81810360408301526111a481846109f3565b9050949350505050565b6000813590506111bd81611028565b92915050565b6000813590506111d281610c86565b92915050565b600080600080608085870312156111f2576111f16108d7565b5b6000611200878288016111ae565b9450506020611211878288016111ae565b9350506040611222878288016111c3565b925050606085013567ffffffffffffffff811115611243576112426108dc565b5b61124f87828801610bdb565b91505092959194509250565b600060408201905081810360008301526112758185610ed1565b9050818103602083015261128981846109f3565b9050939250505056fea2646970667358221220a9a1f5d53e4a05a20347b8c4936f5cf4eae22c148cb16878a6f82625df2a016364736f6c634300080a0033",
  "immutableReferences": {},
  "source": "// SPDX-License-Identifier: UNLICENSED\npragma solidity ^0.8.0;\n\nimport \"../Action.sol\";\n\nimport {IPool} from \"@aave/core-v3/contracts/interfaces/IPool.sol\";\nimport {AToken} from \"@aave/core-v3/contracts/protocol/tokenization/AToken.sol\";\n\ncontract AaveLiquadation is Action {\n    function _init(\n        address userAddr,\n        address aTokenAddr,\n        uint256 positionMax,\n        string memory key,\n        bytes calldata data\n    ) private {\n        // verifyAccessToAToken(userAddr, aTokenAddr, positionMax, msg.sender);\n        storeData(msg.sender, key, data);\n    }\n\n    function verifyAccessToAToken(\n        address userAddr,\n        address aTokenAddr,\n        uint256 positionMax,\n        address addr\n    ) private view {\n        if (positionMax < type(uint256).max) {\n            require(\n                AToken(aTokenAddr).allowance(userAddr, addr) >= positionMax\n            );\n        }\n    }\n\n    function init(bytes calldata data)\n        external\n        payable\n        override\n        returns (bytes memory)\n    {\n        whitelist[msg.sender] = true;\n        (\n            address userAddr,\n            address aTokenAddr,\n            uint256 positionMax,\n            string memory key\n        ) = decode(data);\n        _init(userAddr, aTokenAddr, positionMax, key, data);\n        return bytes(\"\");\n    }\n\n    function decode(bytes calldata data)\n        internal\n        pure\n        returns (\n            address userAddr,\n            address aTokenAddr,\n            uint256 positionMax,\n            string memory key\n        )\n    {\n        (userAddr, aTokenAddr, positionMax, key) = abi.decode(\n            data,\n            (address, address, uint256, string)\n        );\n    }\n\n    function decodeMem(bytes memory memData)\n        internal\n        pure\n        returns (\n            address userAddr,\n            address aTokenAddr,\n            uint256 positionMax,\n            string memory key\n        )\n    {\n        (userAddr, aTokenAddr, positionMax, key) = abi.decode(\n            memData,\n            (address, address, uint256, string)\n        );\n    }\n\n    function execute(bytes calldata data)\n        external\n        payable\n        override\n        returns (bytes memory)\n    {\n        string memory key = abi.decode(data, (string));\n\n        (\n            address userAddr,\n            address aTokenAddr,\n            uint256 positionMax,\n            string memory throwaway\n        ) = decodeMem(getData(msg.sender, key));\n\n        verifyAccessToAToken(userAddr, aTokenAddr, positionMax, msg.sender);\n\n        uint256 balance = AToken(aTokenAddr).balanceOf(userAddr);\n\n        bytes memory actionData = abi.encodeWithSignature(\n            \"transferFrom(address,address,uint256)\",\n            userAddr, msg.sender, balance\n        );\n        sendCallOp(msg.sender, aTokenAddr, actionData, 0);\n\n        IPool pool = AToken(aTokenAddr).POOL();\n        address assetAddr = AToken(aTokenAddr).UNDERLYING_ASSET_ADDRESS();\n\n        pool.withdraw(assetAddr, balance, userAddr); //call op\n        actionData = abi.encodeWithSignature(\n            \"withdraw(address,uint256,address)\",\n            assetAddr, balance, userAddr\n        );\n        sendCallOp(msg.sender, address(pool), actionData, 0);\n\n        return bytes(\"\");\n    }\n}\n",
  "sourcePath": "/Users/calebsirak/fun/wallet-sdk-v1/web3/contracts/wallet/actions/AaveAction.sol",
  "compiler": {
    "name": "solc",
    "version": "0.8.10+commit.fc410830.Emscripten.clang"
  },
  "schemaVersion": "3.4.10",
  "updatedAt": "2023-01-04T01:47:10.362Z",
  "devdoc": {
    "kind": "dev",
    "methods": {},
    "version": 1
  },
  "userdoc": {
    "kind": "user",
    "methods": {},
    "version": 1
  }
}