{
  "contractName": "AaveLiquadation",
  "abi": [
    {
      "inputs": [
        {
          "internalType": "bytes",
          "name": "data",
          "type": "bytes"
        }
      ],
      "name": "init",
      "outputs": [
        {
          "internalType": "bytes",
          "name": "",
          "type": "bytes"
        }
      ],
      "stateMutability": "payable",
      "type": "function"
    },
    {
      "inputs": [
        {
          "internalType": "bytes",
          "name": "data",
          "type": "bytes"
        }
      ],
      "name": "execute",
      "outputs": [
        {
          "internalType": "bytes",
          "name": "",
          "type": "bytes"
        }
      ],
      "stateMutability": "payable",
      "type": "function"
    }
  ],
  "bytecode": "0x608060405234801561001057600080fd5b50611094806100206000396000f3fe6080604052600436106100295760003560e01c806309c5eabe1461002e5780634ddf47d41461005e575b600080fd5b6100486004803603810190610043919061072d565b61008e565b6040516100559190610813565b60405180910390f35b6100786004803603810190610073919061072d565b610355565b6040516100859190610813565b60405180910390f35b6060600083838101906100a19190610965565b90506000806000806100bb6100b633876103f0565b6104a0565b93509350935093506100cf848484306104d2565b60008373ffffffffffffffffffffffffffffffffffffffff166370a08231866040518263ffffffff1660e01b815260040161010a91906109ef565b602060405180830381865afa158015610127573d6000803e3d6000fd5b505050506040513d601f19601f8201168201806040525081019061014b9190610a40565b90508373ffffffffffffffffffffffffffffffffffffffff166323b872dd8633846040518463ffffffff1660e01b815260040161018a93929190610a7c565b6020604051808303816000875af11580156101a9573d6000803e3d6000fd5b505050506040513d601f19601f820116820180604052508101906101cd9190610aeb565b5060008473ffffffffffffffffffffffffffffffffffffffff16637535d2466040518163ffffffff1660e01b8152600401602060405180830381865afa15801561021b573d6000803e3d6000fd5b505050506040513d601f19601f8201168201806040525081019061023f9190610b56565b905060008573ffffffffffffffffffffffffffffffffffffffff1663b16a19de6040518163ffffffff1660e01b8152600401602060405180830381865afa15801561028e573d6000803e3d6000fd5b505050506040513d601f19601f820116820180604052508101906102b29190610baf565b90508173ffffffffffffffffffffffffffffffffffffffff166369328dec82858a6040518463ffffffff1660e01b81526004016102f193929190610bdc565b6020604051808303816000875af1158015610310573d6000803e3d6000fd5b505050506040513d601f19601f820116820180604052508101906103349190610a40565b50604051806020016040528060008152509850505050505050505092915050565b606060016000803373ffffffffffffffffffffffffffffffffffffffff1673ffffffffffffffffffffffffffffffffffffffff16815260200190815260200160002060006101000a81548160ff0219169083151502179055506000806000806103be8787610589565b93509350935093506103d4848484848b8b6105b8565b6040518060200160405280600081525094505050505092915050565b606060003083604051602001610407929190610ca2565b60405160208183030381529060405290508373ffffffffffffffffffffffffffffffffffffffff16639ff420b7826040518263ffffffff1660e01b81526004016104519190610d14565b600060405180830381865afa15801561046e573d6000803e3d6000fd5b505050506040513d6000823e3d601f19601f820116820180604052508101906104979190610dd7565b91505092915050565b60008060006060848060200190518101906104bb9190610ece565b809450819550829650839750505050509193509193565b7fffffffffffffffffffffffffffffffffffffffffffffffffffffffffffffffff82101561058357818373ffffffffffffffffffffffffffffffffffffffff1663dd62ed3e86846040518363ffffffff1660e01b8152600401610536929190610f51565b602060405180830381865afa158015610553573d6000803e3d6000fd5b505050506040513d601f19601f820116820180604052508101906105779190610a40565b101561058257600080fd5b5b50505050565b60008060006060858581019061059f9190610fa4565b8094508195508296508397505050505092959194509250565b6105c4868686306104d2565b610613338484848080601f016020809104026020016040519081016040528093929190818152602001838380828437600081840152601f19601f8201169050808301925050505050505061061b565b505050505050565b60003083604051602001610630929190610ca2565b60405160208183030381529060405290508373ffffffffffffffffffffffffffffffffffffffff1663ae65c78b82846040518363ffffffff1660e01b815260040161067c929190611027565b600060405180830381600087803b15801561069657600080fd5b505af11580156106aa573d6000803e3d6000fd5b5050505050505050565b6000604051905090565b600080fd5b600080fd5b600080fd5b600080fd5b600080fd5b60008083601f8401126106ed576106ec6106c8565b5b8235905067ffffffffffffffff81111561070a576107096106cd565b5b602083019150836001820283011115610726576107256106d2565b5b9250929050565b60008060208385031215610744576107436106be565b5b600083013567ffffffffffffffff811115610762576107616106c3565b5b61076e858286016106d7565b92509250509250929050565b600081519050919050565b600082825260208201905092915050565b60005b838110156107b4578082015181840152602081019050610799565b838111156107c3576000848401525b50505050565b6000601f19601f8301169050919050565b60006107e58261077a565b6107ef8185610785565b93506107ff818560208601610796565b610808816107c9565b840191505092915050565b6000602082019050818103600083015261082d81846107da565b905092915050565b600080fd5b7f4e487b7100000000000000000000000000000000000000000000000000000000600052604160045260246000fd5b610872826107c9565b810181811067ffffffffffffffff821117156108915761089061083a565b5b80604052505050565b60006108a46106b4565b90506108b08282610869565b919050565b600067ffffffffffffffff8211156108d0576108cf61083a565b5b6108d9826107c9565b9050602081019050919050565b82818337600083830152505050565b6000610908610903846108b5565b61089a565b90508281526020810184848401111561092457610923610835565b5b61092f8482856108e6565b509392505050565b600082601f83011261094c5761094b6106c8565b5b813561095c8482602086016108f5565b91505092915050565b60006020828403121561097b5761097a6106be565b5b600082013567ffffffffffffffff811115610999576109986106c3565b5b6109a584828501610937565b91505092915050565b600073ffffffffffffffffffffffffffffffffffffffff82169050919050565b60006109d9826109ae565b9050919050565b6109e9816109ce565b82525050565b6000602082019050610a0460008301846109e0565b92915050565b6000819050919050565b610a1d81610a0a565b8114610a2857600080fd5b50565b600081519050610a3a81610a14565b92915050565b600060208284031215610a5657610a556106be565b5b6000610a6484828501610a2b565b91505092915050565b610a7681610a0a565b82525050565b6000606082019050610a9160008301866109e0565b610a9e60208301856109e0565b610aab6040830184610a6d565b949350505050565b60008115159050919050565b610ac881610ab3565b8114610ad357600080fd5b50565b600081519050610ae581610abf565b92915050565b600060208284031215610b0157610b006106be565b5b6000610b0f84828501610ad6565b91505092915050565b6000610b23826109ce565b9050919050565b610b3381610b18565b8114610b3e57600080fd5b50565b600081519050610b5081610b2a565b92915050565b600060208284031215610b6c57610b6b6106be565b5b6000610b7a84828501610b41565b91505092915050565b610b8c816109ce565b8114610b9757600080fd5b50565b600081519050610ba981610b83565b92915050565b600060208284031215610bc557610bc46106be565b5b6000610bd384828501610b9a565b91505092915050565b6000606082019050610bf160008301866109e0565b610bfe6020830185610a6d565b610c0b60408301846109e0565b949350505050565b60008160601b9050919050565b6000610c2b82610c13565b9050919050565b6000610c3d82610c20565b9050919050565b610c55610c50826109ce565b610c32565b82525050565b600081519050919050565b600081905092915050565b6000610c7c82610c5b565b610c868185610c66565b9350610c96818560208601610796565b80840191505092915050565b6000610cae8285610c44565b601482019150610cbe8284610c71565b91508190509392505050565b600082825260208201905092915050565b6000610ce682610c5b565b610cf08185610cca565b9350610d00818560208601610796565b610d09816107c9565b840191505092915050565b60006020820190508181036000830152610d2e8184610cdb565b905092915050565b600067ffffffffffffffff821115610d5157610d5061083a565b5b610d5a826107c9565b9050602081019050919050565b6000610d7a610d7584610d36565b61089a565b905082815260208101848484011115610d9657610d95610835565b5b610da1848285610796565b509392505050565b600082601f830112610dbe57610dbd6106c8565b5b8151610dce848260208601610d67565b91505092915050565b600060208284031215610ded57610dec6106be565b5b600082015167ffffffffffffffff811115610e0b57610e0a6106c3565b5b610e1784828501610da9565b91505092915050565b6000610e2b826109ae565b9050919050565b610e3b81610e20565b8114610e4657600080fd5b50565b600081519050610e5881610e32565b92915050565b6000610e71610e6c846108b5565b61089a565b905082815260208101848484011115610e8d57610e8c610835565b5b610e98848285610796565b509392505050565b600082601f830112610eb557610eb46106c8565b5b8151610ec5848260208601610e5e565b91505092915050565b60008060008060808587031215610ee857610ee76106be565b5b6000610ef687828801610e49565b9450506020610f0787828801610e49565b9350506040610f1887828801610a2b565b925050606085015167ffffffffffffffff811115610f3957610f386106c3565b5b610f4587828801610ea0565b91505092959194509250565b6000604082019050610f6660008301856109e0565b610f7360208301846109e0565b9392505050565b600081359050610f8981610e32565b92915050565b600081359050610f9e81610a14565b92915050565b60008060008060808587031215610fbe57610fbd6106be565b5b6000610fcc87828801610f7a565b9450506020610fdd87828801610f7a565b9350506040610fee87828801610f8f565b925050606085013567ffffffffffffffff81111561100f5761100e6106c3565b5b61101b87828801610937565b91505092959194509250565b600060408201905081810360008301526110418185610cdb565b9050818103602083015261105581846107da565b9050939250505056fea264697066735822122056252e5df41fb7bd4c471770d5ef550c18ab00ffb81996b9d4c2272ed252acde64736f6c634300080a0033",
  "immutableReferences": {},
  "source": "// SPDX-License-Identifier: UNLICENSED\npragma solidity ^0.8.0;\n\nimport \"../Action.sol\";\n\nimport {IPool} from \"@aave/core-v3/contracts/interfaces/IPool.sol\";\nimport {AToken} from \"@aave/core-v3/contracts/protocol/tokenization/AToken.sol\";\n\ncontract AaveLiquadation is Action {\n    mapping(address => bool) private whitelist;\n\n    function _init(\n        address userAddr,\n        address aTokenAddr,\n        uint256 positionMax,\n        string memory key,\n        bytes calldata data\n    ) private {\n        verifyAccessToAToken(userAddr, aTokenAddr, positionMax, address(this));\n        storeData(msg.sender, key, data);\n    }\n\n    function verifyAccessToAToken(\n        address userAddr,\n        address aTokenAddr,\n        uint256 positionMax,\n        address addr\n    ) private view {\n        if (positionMax < type(uint256).max) {\n            require(\n                AToken(aTokenAddr).allowance(userAddr, addr) >= positionMax\n            );\n        }\n    }\n\n    function init(bytes calldata data)\n        external\n        payable\n        override\n        returns (bytes memory)\n    {\n        whitelist[msg.sender] = true;\n        (\n            address userAddr,\n            address aTokenAddr,\n            uint256 positionMax,\n            string memory key\n        ) = decode(data);\n        _init(userAddr, aTokenAddr, positionMax, key, data);\n        return bytes(\"\");\n    }\n\n    function decode(bytes calldata data)\n        internal\n        pure\n        returns (\n            address userAddr,\n            address aTokenAddr,\n            uint256 positionMax,\n            string memory key\n        )\n    {\n        (userAddr, aTokenAddr, positionMax, key) = abi.decode(\n            data,\n            (address, address, uint256, string)\n        );\n    }\n\n    function decodeMem(bytes memory memData)\n        internal\n        pure\n        returns (\n            address userAddr,\n            address aTokenAddr,\n            uint256 positionMax,\n            string memory key\n        )\n    {\n        (userAddr, aTokenAddr, positionMax, key) = abi.decode(\n            memData,\n            (address, address, uint256, string)\n        );\n    }\n\n    function execute(bytes calldata data)\n        external\n        payable\n        override\n        returns (bytes memory)\n    {\n        string memory key = abi.decode(data, (string));\n\n        (\n            address userAddr,\n            address aTokenAddr,\n            uint256 positionMax,\n            string memory throwaway\n        ) = decodeMem(getData(msg.sender, key));\n\n        verifyAccessToAToken(userAddr, aTokenAddr, positionMax, address(this));\n\n        uint256 balance = AToken(aTokenAddr).balanceOf(userAddr);\n\n        AToken(aTokenAddr).transferFrom(userAddr, msg.sender, balance);\n\n        IPool pool = AToken(aTokenAddr).POOL();\n        address assetAddr = AToken(aTokenAddr).UNDERLYING_ASSET_ADDRESS();\n\n        pool.withdraw(assetAddr, balance, userAddr);\n        return bytes(\"\");\n    }\n}\n",
  "sourcePath": "/Users/calebsirak/fun/wallet-sdk-v1/contracts/lib/wallet/actions/AaveAction.sol",
  "compiler": {
    "name": "solc",
    "version": "0.8.10+commit.fc410830.Emscripten.clang"
  },
  "schemaVersion": "3.4.10",
  "updatedAt": "2022-12-27T09:24:11.385Z",
  "devdoc": {
    "kind": "dev",
    "methods": {},
    "version": 1
  },
  "userdoc": {
    "kind": "user",
    "methods": {},
    "version": 1
  }
}