{
  "contractName": "AaveLiquadation",
  "abi": [
    {
      "inputs": [
        {
          "internalType": "address",
          "name": "user",
          "type": "address"
        }
      ],
      "name": "getVerificationContract",
      "outputs": [],
      "stateMutability": "view",
      "type": "function"
    },
    {
      "inputs": [
        {
          "internalType": "string",
          "name": "",
          "type": "string"
        }
      ],
      "name": "requests",
      "outputs": [
        {
          "internalType": "bytes",
          "name": "",
          "type": "bytes"
        }
      ],
      "stateMutability": "view",
      "type": "function"
    },
    {
      "inputs": [
        {
          "internalType": "bytes",
          "name": "data",
          "type": "bytes"
        }
      ],
      "name": "init",
      "outputs": [
        {
          "internalType": "bytes",
          "name": "",
          "type": "bytes"
        }
      ],
      "stateMutability": "payable",
      "type": "function"
    },
    {
      "inputs": [],
      "name": "init",
      "outputs": [
        {
          "internalType": "bytes",
          "name": "",
          "type": "bytes"
        }
      ],
      "stateMutability": "payable",
      "type": "function"
    },
    {
      "inputs": [
        {
          "internalType": "bytes",
          "name": "data",
          "type": "bytes"
        }
      ],
      "name": "execute",
      "outputs": [
        {
          "internalType": "bytes",
          "name": "",
          "type": "bytes"
        }
      ],
      "stateMutability": "payable",
      "type": "function"
    }
  ],
  "bytecode": "0x608060405234801561001057600080fd5b506112ee806100206000396000f3fe60806040526004361061004a5760003560e01c806309c5eabe1461004f5780634ddf47d41461007f578063692d51d2146100af578063e1c7392a146100ec578063eea991921461010a575b600080fd5b61006960048036038101906100649190610954565b610133565b6040516100769190610a3a565b60405180910390f35b61009960048036038101906100949190610954565b6104b4565b6040516100a69190610a3a565b60405180910390f35b3480156100bb57600080fd5b506100d660048036038101906100d19190610b8c565b61056f565b6040516100e39190610a3a565b60405180910390f35b6100f4610625565b6040516101019190610a3a565b60405180910390f35b34801561011657600080fd5b50610131600480360381019061012c9190610c33565b610693565b005b6060600083838101906101469190610b8c565b905060008060008061016061015b3387610696565b610746565b935093509350935060008373ffffffffffffffffffffffffffffffffffffffff166370a08231866040518263ffffffff1660e01b81526004016101a39190610c6f565b602060405180830381865afa1580156101c0573d6000803e3d6000fd5b505050506040513d601f19601f820116820180604052508101906101e49190610cc0565b905060008533836040516024016101fd93929190610cfc565b6040516020818303038152906040527f23b872dd000000000000000000000000000000000000000000000000000000007bffffffffffffffffffffffffffffffffffffffffffffffffffffffff19166020820180517bffffffffffffffffffffffffffffffffffffffffffffffffffffffff838183161783525050505090506102893386836000610778565b5060008573ffffffffffffffffffffffffffffffffffffffff16637535d2466040518163ffffffff1660e01b8152600401602060405180830381865afa1580156102d7573d6000803e3d6000fd5b505050506040513d601f19601f820116820180604052508101906102fb9190610d71565b905060008673ffffffffffffffffffffffffffffffffffffffff1663b16a19de6040518163ffffffff1660e01b8152600401602060405180830381865afa15801561034a573d6000803e3d6000fd5b505050506040513d601f19601f8201168201806040525081019061036e9190610db3565b90508173ffffffffffffffffffffffffffffffffffffffff166369328dec82868b6040518463ffffffff1660e01b81526004016103ad93929190610de0565b6020604051808303816000875af11580156103cc573d6000803e3d6000fd5b505050506040513d601f19601f820116820180604052508101906103f09190610cc0565b5080848960405160240161040693929190610de0565b6040516020818303038152906040527f69328dec000000000000000000000000000000000000000000000000000000007bffffffffffffffffffffffffffffffffffffffffffffffffffffffff19166020820180517bffffffffffffffffffffffffffffffffffffffffffffffffffffffff838183161783525050505092506104923383856000610778565b5060405180602001604052806000815250995050505050505050505092915050565b606060016000803373ffffffffffffffffffffffffffffffffffffffff1673ffffffffffffffffffffffffffffffffffffffff16815260200190815260200160002060006101000a81548160ff02191690831515021790555060008060008061051d8787610809565b935093509350935086866001836040516105379190610e5e565b90815260200160405180910390209190610552929190610838565b506040518060200160405280600081525094505050505092915050565b60018180516020810182018051848252602083016020850120818352809550505050505060009150905080546105a490610ea4565b80601f01602080910402602001604051908101604052809291908181526020018280546105d090610ea4565b801561061d5780601f106105f25761010080835404028352916020019161061d565b820191906000526020600020905b81548152906001019060200180831161060057829003601f168201915b505050505081565b606060016000803373ffffffffffffffffffffffffffffffffffffffff1673ffffffffffffffffffffffffffffffffffffffff16815260200190815260200160002060006101000a81548160ff02191690831515021790555060405180602001604052806000815250905090565b50565b6060600030836040516020016106ad929190610f1e565b60405160208183030381529060405290508373ffffffffffffffffffffffffffffffffffffffff16639ff420b7826040518263ffffffff1660e01b81526004016106f79190610f90565b600060405180830381865afa158015610714573d6000803e3d6000fd5b505050506040513d6000823e3d601f19601f8201168201806040525081019061073d9190611053565b91505092915050565b6000806000606084806020019051810190610761919061114a565b809450819550829650839750505050509193509193565b60608473ffffffffffffffffffffffffffffffffffffffff16633595a80d8584866040518463ffffffff1660e01b81526004016107b7939291906111cd565b6000604051808303816000875af11580156107d6573d6000803e3d6000fd5b505050506040513d6000823e3d601f19601f820116820180604052508101906107ff9190611053565b9050949350505050565b60008060006060858581019061081f9190611235565b8094508195508296508397505050505092959194509250565b82805461084490610ea4565b90600052602060002090601f01602090048101928261086657600085556108ad565b82601f1061087f57803560ff19168380011785556108ad565b828001600101855582156108ad579182015b828111156108ac578235825591602001919060010190610891565b5b5090506108ba91906108be565b5090565b5b808211156108d75760008160009055506001016108bf565b5090565b6000604051905090565b600080fd5b600080fd5b600080fd5b600080fd5b600080fd5b60008083601f840112610914576109136108ef565b5b8235905067ffffffffffffffff811115610931576109306108f4565b5b60208301915083600182028301111561094d5761094c6108f9565b5b9250929050565b6000806020838503121561096b5761096a6108e5565b5b600083013567ffffffffffffffff811115610989576109886108ea565b5b610995858286016108fe565b92509250509250929050565b600081519050919050565b600082825260208201905092915050565b60005b838110156109db5780820151818401526020810190506109c0565b838111156109ea576000848401525b50505050565b6000601f19601f8301169050919050565b6000610a0c826109a1565b610a1681856109ac565b9350610a268185602086016109bd565b610a2f816109f0565b840191505092915050565b60006020820190508181036000830152610a548184610a01565b905092915050565b600080fd5b7f4e487b7100000000000000000000000000000000000000000000000000000000600052604160045260246000fd5b610a99826109f0565b810181811067ffffffffffffffff82111715610ab857610ab7610a61565b5b80604052505050565b6000610acb6108db565b9050610ad78282610a90565b919050565b600067ffffffffffffffff821115610af757610af6610a61565b5b610b00826109f0565b9050602081019050919050565b82818337600083830152505050565b6000610b2f610b2a84610adc565b610ac1565b905082815260208101848484011115610b4b57610b4a610a5c565b5b610b56848285610b0d565b509392505050565b600082601f830112610b7357610b726108ef565b5b8135610b83848260208601610b1c565b91505092915050565b600060208284031215610ba257610ba16108e5565b5b600082013567ffffffffffffffff811115610bc057610bbf6108ea565b5b610bcc84828501610b5e565b91505092915050565b600073ffffffffffffffffffffffffffffffffffffffff82169050919050565b6000610c0082610bd5565b9050919050565b610c1081610bf5565b8114610c1b57600080fd5b50565b600081359050610c2d81610c07565b92915050565b600060208284031215610c4957610c486108e5565b5b6000610c5784828501610c1e565b91505092915050565b610c6981610bf5565b82525050565b6000602082019050610c846000830184610c60565b92915050565b6000819050919050565b610c9d81610c8a565b8114610ca857600080fd5b50565b600081519050610cba81610c94565b92915050565b600060208284031215610cd657610cd56108e5565b5b6000610ce484828501610cab565b91505092915050565b610cf681610c8a565b82525050565b6000606082019050610d116000830186610c60565b610d1e6020830185610c60565b610d2b6040830184610ced565b949350505050565b6000610d3e82610bf5565b9050919050565b610d4e81610d33565b8114610d5957600080fd5b50565b600081519050610d6b81610d45565b92915050565b600060208284031215610d8757610d866108e5565b5b6000610d9584828501610d5c565b91505092915050565b600081519050610dad81610c07565b92915050565b600060208284031215610dc957610dc86108e5565b5b6000610dd784828501610d9e565b91505092915050565b6000606082019050610df56000830186610c60565b610e026020830185610ced565b610e0f6040830184610c60565b949350505050565b600081519050919050565b600081905092915050565b6000610e3882610e17565b610e428185610e22565b9350610e528185602086016109bd565b80840191505092915050565b6000610e6a8284610e2d565b915081905092915050565b7f4e487b7100000000000000000000000000000000000000000000000000000000600052602260045260246000fd5b60006002820490506001821680610ebc57607f821691505b60208210811415610ed057610ecf610e75565b5b50919050565b60008160601b9050919050565b6000610eee82610ed6565b9050919050565b6000610f0082610ee3565b9050919050565b610f18610f1382610bf5565b610ef5565b82525050565b6000610f2a8285610f07565b601482019150610f3a8284610e2d565b91508190509392505050565b600082825260208201905092915050565b6000610f6282610e17565b610f6c8185610f46565b9350610f7c8185602086016109bd565b610f85816109f0565b840191505092915050565b60006020820190508181036000830152610faa8184610f57565b905092915050565b600067ffffffffffffffff821115610fcd57610fcc610a61565b5b610fd6826109f0565b9050602081019050919050565b6000610ff6610ff184610fb2565b610ac1565b90508281526020810184848401111561101257611011610a5c565b5b61101d8482856109bd565b509392505050565b600082601f83011261103a576110396108ef565b5b815161104a848260208601610fe3565b91505092915050565b600060208284031215611069576110686108e5565b5b600082015167ffffffffffffffff811115611087576110866108ea565b5b61109384828501611025565b91505092915050565b60006110a782610bd5565b9050919050565b6110b78161109c565b81146110c257600080fd5b50565b6000815190506110d4816110ae565b92915050565b60006110ed6110e884610adc565b610ac1565b90508281526020810184848401111561110957611108610a5c565b5b6111148482856109bd565b509392505050565b600082601f830112611131576111306108ef565b5b81516111418482602086016110da565b91505092915050565b60008060008060808587031215611164576111636108e5565b5b6000611172878288016110c5565b9450506020611183878288016110c5565b935050604061119487828801610cab565b925050606085015167ffffffffffffffff8111156111b5576111b46108ea565b5b6111c18782880161111c565b91505092959194509250565b60006060820190506111e26000830186610c60565b6111ef6020830185610ced565b81810360408301526112018184610a01565b9050949350505050565b60008135905061121a816110ae565b92915050565b60008135905061122f81610c94565b92915050565b6000806000806080858703121561124f5761124e6108e5565b5b600061125d8782880161120b565b945050602061126e8782880161120b565b935050604061127f87828801611220565b925050606085013567ffffffffffffffff8111156112a05761129f6108ea565b5b6112ac87828801610b5e565b9150509295919450925056fea26469706673582212206b8c77f87c662396ee2661c0e95f09448b307f444577f129b0fb13b865a3c04464736f6c634300080a0033",
  "immutableReferences": {},
  "source": "// SPDX-License-Identifier: UNLICENSED\npragma solidity ^0.8.0;\n\nimport \"../Action.sol\";\n\nimport {IPool} from \"@aave/core-v3/contracts/interfaces/IPool.sol\";\nimport {AToken} from \"@aave/core-v3/contracts/protocol/tokenization/AToken.sol\";\n\ncontract AaveLiquadation is Action {\n    mapping(string => bytes) public requests;\n\n    function _init(\n        address userAddr,\n        address aTokenAddr,\n        uint256 positionMax,\n        string memory key,\n        bytes calldata data\n    ) private {\n        // require(AToken(aTokenAddr).allowance(userAddr, msg.sender) >= positionMax);\n    }\n\n    function init(bytes calldata data)\n        external\n        payable\n        override\n        returns (bytes memory)\n    {\n        whitelist[msg.sender] = true;\n        (\n            address userAddr,\n            address aTokenAddr,\n            uint256 positionMax,\n            string memory key\n        ) = decode(data);\n\n        requests[key] = data;\n        // storeData(msg.sender, key, data);\n        // _init(userAddr, aTokenAddr, positionMax, key, data);\n        return bytes(\"\");\n    }\n\n    function decode(bytes calldata data)\n        internal\n        pure\n        returns (\n            address userAddr,\n            address aTokenAddr,\n            uint256 positionMax,\n            string memory key\n        )\n    {\n        (userAddr, aTokenAddr, positionMax, key) = abi.decode(\n            data,\n            (address, address, uint256, string)\n        );\n    }\n\n    function decodeMem(bytes memory memData)\n        internal\n        pure\n        returns (\n            address userAddr,\n            address aTokenAddr,\n            uint256 positionMax,\n            string memory key\n        )\n    {\n        (userAddr, aTokenAddr, positionMax, key) = abi.decode(\n            memData,\n            (address, address, uint256, string)\n        );\n    }\n\n    function execute(bytes calldata data)\n        external\n        payable\n        override\n        returns (bytes memory)\n    {\n        string memory key = abi.decode(data, (string));\n\n        (\n            address userAddr,\n            address aTokenAddr,\n            uint256 positionMax,\n            string memory throwaway\n        ) = decodeMem(getData(msg.sender, key));\n\n        // require(AToken(aTokenAddr).allowance(userAddr, msg.sender) >= positionMax);\n\n        uint256 balance = AToken(aTokenAddr).balanceOf(userAddr);\n\n        bytes memory actionData = abi.encodeWithSignature(\n            \"transferFrom(address,address,uint256)\",\n            userAddr,\n            msg.sender,\n            balance\n        );\n        sendCallOp(msg.sender, aTokenAddr, actionData, 0);\n\n        IPool pool = AToken(aTokenAddr).POOL();\n        address assetAddr = AToken(aTokenAddr).UNDERLYING_ASSET_ADDRESS();\n\n        pool.withdraw(assetAddr, balance, userAddr); //call op\n        actionData = abi.encodeWithSignature(\n            \"withdraw(address,uint256,address)\",\n            assetAddr,\n            balance,\n            userAddr\n        );\n        sendCallOp(msg.sender, address(pool), actionData, 0);\n\n        return bytes(\"\");\n    }\n}\n",
  "sourcePath": "/Users/calebsirak/fun/wallet-sdk-v1/web3/contracts/wallet/actions/AaveAction.sol",
  "compiler": {
    "name": "solc",
    "version": "0.8.10+commit.fc410830.Emscripten.clang"
  },
  "schemaVersion": "3.4.10",
  "updatedAt": "2023-01-04T22:50:47.745Z",
  "devdoc": {
    "kind": "dev",
    "methods": {},
    "version": 1
  },
  "userdoc": {
    "kind": "user",
    "methods": {},
    "version": 1
  }
}