{
  "contractName": "SimpleAccount",
  "abi": [
    {
      "inputs": [
        {
          "internalType": "contract IEntryPoint",
          "name": "anEntryPoint",
          "type": "address"
        },
        {
          "internalType": "address",
          "name": "anOwner",
          "type": "address"
        }
      ],
      "stateMutability": "nonpayable",
      "type": "constructor"
    },
    {
      "anonymous": false,
      "inputs": [
        {
          "indexed": true,
          "internalType": "address",
          "name": "oldEntryPoint",
          "type": "address"
        },
        {
          "indexed": true,
          "internalType": "address",
          "name": "newEntryPoint",
          "type": "address"
        }
      ],
      "name": "EntryPointChanged",
      "type": "event"
    },
    {
      "inputs": [],
      "name": "owner",
      "outputs": [
        {
          "internalType": "address",
          "name": "",
          "type": "address"
        }
      ],
      "stateMutability": "view",
      "type": "function"
    },
    {
      "inputs": [
        {
          "internalType": "address",
          "name": "newEntryPoint",
          "type": "address"
        }
      ],
      "name": "updateEntryPoint",
      "outputs": [],
      "stateMutability": "nonpayable",
      "type": "function"
    },
    {
      "inputs": [
        {
          "components": [
            {
              "internalType": "address",
              "name": "sender",
              "type": "address"
            },
            {
              "internalType": "uint256",
              "name": "nonce",
              "type": "uint256"
            },
            {
              "internalType": "bytes",
              "name": "initCode",
              "type": "bytes"
            },
            {
              "internalType": "bytes",
              "name": "callData",
              "type": "bytes"
            },
            {
              "internalType": "uint256",
              "name": "callGasLimit",
              "type": "uint256"
            },
            {
              "internalType": "uint256",
              "name": "verificationGasLimit",
              "type": "uint256"
            },
            {
              "internalType": "uint256",
              "name": "preVerificationGas",
              "type": "uint256"
            },
            {
              "internalType": "uint256",
              "name": "maxFeePerGas",
              "type": "uint256"
            },
            {
              "internalType": "uint256",
              "name": "maxPriorityFeePerGas",
              "type": "uint256"
            },
            {
              "internalType": "bytes",
              "name": "paymasterAndData",
              "type": "bytes"
            },
            {
              "internalType": "bytes",
              "name": "signature",
              "type": "bytes"
            }
          ],
          "internalType": "struct UserOperation",
          "name": "userOp",
          "type": "tuple"
        },
        {
          "internalType": "bytes32",
          "name": "userOpHash",
          "type": "bytes32"
        },
        {
          "internalType": "address",
          "name": "aggregator",
          "type": "address"
        },
        {
          "internalType": "uint256",
          "name": "missingAccountFunds",
          "type": "uint256"
        }
      ],
      "name": "validateUserOp",
      "outputs": [
        {
          "internalType": "uint256",
          "name": "deadline",
          "type": "uint256"
        }
      ],
      "stateMutability": "nonpayable",
      "type": "function"
    },
    {
      "stateMutability": "payable",
      "type": "receive"
    },
    {
      "inputs": [],
      "name": "nonce",
      "outputs": [
        {
          "internalType": "uint256",
          "name": "",
          "type": "uint256"
        }
      ],
      "stateMutability": "view",
      "type": "function"
    },
    {
      "inputs": [],
      "name": "entryPoint",
      "outputs": [
        {
          "internalType": "contract IEntryPoint",
          "name": "",
          "type": "address"
        }
      ],
      "stateMutability": "view",
      "type": "function"
    },
    {
      "inputs": [
        {
          "internalType": "address payable",
          "name": "dest",
          "type": "address"
        },
        {
          "internalType": "uint256",
          "name": "amount",
          "type": "uint256"
        }
      ],
      "name": "transfer",
      "outputs": [],
      "stateMutability": "nonpayable",
      "type": "function"
    },
    {
      "inputs": [
        {
          "internalType": "address",
          "name": "dest",
          "type": "address"
        },
        {
          "internalType": "uint256",
          "name": "value",
          "type": "uint256"
        },
        {
          "internalType": "bytes",
          "name": "func",
          "type": "bytes"
        }
      ],
      "name": "exec",
      "outputs": [],
      "stateMutability": "nonpayable",
      "type": "function"
    },
    {
      "inputs": [
        {
          "internalType": "address[]",
          "name": "dest",
          "type": "address[]"
        },
        {
          "internalType": "bytes[]",
          "name": "func",
          "type": "bytes[]"
        }
      ],
      "name": "execBatch",
      "outputs": [],
      "stateMutability": "nonpayable",
      "type": "function"
    },
    {
      "inputs": [
        {
          "internalType": "address",
          "name": "dest",
          "type": "address"
        },
        {
          "internalType": "uint256",
          "name": "value",
          "type": "uint256"
        },
        {
          "internalType": "bytes",
          "name": "func",
          "type": "bytes"
        }
      ],
      "name": "execFromEntryPoint",
      "outputs": [],
      "stateMutability": "nonpayable",
      "type": "function"
    },
    {
      "inputs": [],
      "name": "getDeposit",
      "outputs": [
        {
          "internalType": "uint256",
          "name": "",
          "type": "uint256"
        }
      ],
      "stateMutability": "view",
      "type": "function"
    },
    {
      "inputs": [],
      "name": "addDeposit",
      "outputs": [],
      "stateMutability": "payable",
      "type": "function"
    },
    {
      "inputs": [
        {
          "internalType": "address payable",
          "name": "withdrawAddress",
          "type": "address"
        },
        {
          "internalType": "uint256",
          "name": "amount",
          "type": "uint256"
        }
      ],
      "name": "withdrawDepositTo",
      "outputs": [],
      "stateMutability": "nonpayable",
      "type": "function"
    }
  ],
  "bytecode": "0x60806040523480156200001157600080fd5b5060405162001db438038062001db4833981810160405281019062000037919062000170565b81600160006101000a81548173ffffffffffffffffffffffffffffffffffffffff021916908373ffffffffffffffffffffffffffffffffffffffff160217905550806000600c6101000a81548173ffffffffffffffffffffffffffffffffffffffff021916908373ffffffffffffffffffffffffffffffffffffffff1602179055505050620001b7565b600080fd5b600073ffffffffffffffffffffffffffffffffffffffff82169050919050565b6000620000f382620000c6565b9050919050565b60006200010782620000e6565b9050919050565b6200011981620000fa565b81146200012557600080fd5b50565b60008151905062000139816200010e565b92915050565b6200014a81620000e6565b81146200015657600080fd5b50565b6000815190506200016a816200013f565b92915050565b600080604083850312156200018a5762000189620000c1565b5b60006200019a8582860162000128565b9250506020620001ad8582860162000159565b9150509250929050565b611bed80620001c76000396000f3fe6080604052600436106100ab5760003560e01c80638da5cb5b116100645780638da5cb5b146101a2578063a9059cbb146101cd578063affed0e0146101f6578063b0d691fe14610221578063c399ec881461024c578063d0cb75fa14610277576100b2565b80630565bb67146100b75780630825d1fc146100e05780631b71bb6e1461011d5780634a58db19146101465780634d44560d1461015057806380c5c7d014610179576100b2565b366100b257005b600080fd5b3480156100c357600080fd5b506100de60048036038101906100d9919061103f565b6102a0565b005b3480156100ec57600080fd5b506101076004803603810190610102919061110e565b6102fd565b60405161011491906111a0565b60405180910390f35b34801561012957600080fd5b50610144600480360381019061013f91906111bb565b610349565b005b61014e61035d565b005b34801561015c57600080fd5b5061017760048036038101906101729190611226565b6103dd565b005b34801561018557600080fd5b506101a0600480360381019061019b919061103f565b61045d565b005b3480156101ae57600080fd5b506101b76104ba565b6040516101c49190611275565b60405180910390f35b3480156101d957600080fd5b506101f460048036038101906101ef9190611226565b6104e0565b005b34801561020257600080fd5b5061020b610533565b60405161021891906111a0565b60405180910390f35b34801561022d57600080fd5b50610236610562565b60405161024391906112ef565b60405180910390f35b34801561025857600080fd5b5061026161058c565b60405161026e91906111a0565b60405180910390f35b34801561028357600080fd5b5061029e600480360381019061029991906113b6565b610614565b005b6102a8610726565b6102f7848484848080601f016020809104026020016040519081016040528093929190818152602001838380828437600081840152601f19601f820116905080830192505050505050506107ee565b50505050565b6000610307610872565b6103128585856108e9565b905060008580604001906103269190611446565b905014156103385761033785610a2f565b5b61034182610adc565b949350505050565b610351610b78565b61035a81610b82565b50565b6000610367610562565b73ffffffffffffffffffffffffffffffffffffffff163460405161038a906114da565b60006040518083038185875af1925050503d80600081146103c7576040519150601f19603f3d011682016040523d82523d6000602084013e6103cc565b606091505b50509050806103da57600080fd5b50565b6103e5610726565b6103ed610562565b73ffffffffffffffffffffffffffffffffffffffff1663205c287883836040518363ffffffff1660e01b81526004016104279291906114fe565b600060405180830381600087803b15801561044157600080fd5b505af1158015610455573d6000803e3d6000fd5b505050505050565b610465610872565b6104b4848484848080601f016020809104026020016040519081016040528093929190818152602001838380828437600081840152601f19601f820116905080830192505050505050506107ee565b50505050565b6000600c9054906101000a900473ffffffffffffffffffffffffffffffffffffffff1681565b6104e8610726565b8173ffffffffffffffffffffffffffffffffffffffff166108fc829081150290604051600060405180830381858888f1935050505015801561052e573d6000803e3d6000fd5b505050565b60008060009054906101000a90046bffffffffffffffffffffffff166bffffffffffffffffffffffff16905090565b6000600160009054906101000a900473ffffffffffffffffffffffffffffffffffffffff16905090565b6000610596610562565b73ffffffffffffffffffffffffffffffffffffffff166370a08231306040518263ffffffff1660e01b81526004016105ce9190611275565b602060405180830381865afa1580156105eb573d6000803e3d6000fd5b505050506040513d601f19601f8201168201806040525081019061060f919061153c565b905090565b61061c610726565b818190508484905014610664576040517f08c379a000000000000000000000000000000000000000000000000000000000815260040161065b906115c6565b60405180910390fd5b60005b8484905081101561071f5761070c858583818110610688576106876115e6565b5b905060200201602081019061069d91906111bb565b60008585858181106106b2576106b16115e6565b5b90506020028101906106c49190611446565b8080601f016020809104026020016040519081016040528093929190818152602001838380828437600081840152601f19601f820116905080830192505050505050506107ee565b808061071790611644565b915050610667565b5050505050565b6000600c9054906101000a900473ffffffffffffffffffffffffffffffffffffffff1673ffffffffffffffffffffffffffffffffffffffff163373ffffffffffffffffffffffffffffffffffffffff1614806107ad57503073ffffffffffffffffffffffffffffffffffffffff163373ffffffffffffffffffffffffffffffffffffffff16145b6107ec576040517f08c379a00000000000000000000000000000000000000000000000000000000081526004016107e3906116d9565b60405180910390fd5b565b6000808473ffffffffffffffffffffffffffffffffffffffff1684846040516108179190611768565b60006040518083038185875af1925050503d8060008114610854576040519150601f19603f3d011682016040523d82523d6000602084013e610859565b606091505b50915091508161086b57805160208201fd5b5050505050565b61087a610562565b73ffffffffffffffffffffffffffffffffffffffff163373ffffffffffffffffffffffffffffffffffffffff16146108e7576040517f08c379a00000000000000000000000000000000000000000000000000000000081526004016108de906117cb565b60405180910390fd5b565b6000806108f584610c42565b905061095d8580610140019061090b9190611446565b8080601f016020809104026020016040519081016040528093929190818152602001838380828437600081840152601f19601f8201169050808301925050505050505082610c7290919063ffffffff16565b73ffffffffffffffffffffffffffffffffffffffff166000600c9054906101000a900473ffffffffffffffffffffffffffffffffffffffff1673ffffffffffffffffffffffffffffffffffffffff1614806109e45750600073ffffffffffffffffffffffffffffffffffffffff163273ffffffffffffffffffffffffffffffffffffffff16145b610a23576040517f08c379a0000000000000000000000000000000000000000000000000000000008152600401610a1a90611837565b60405180910390fd5b60009150509392505050565b806020013560008081819054906101000a90046bffffffffffffffffffffffff1680929190610a5d9061186f565b91906101000a8154816bffffffffffffffffffffffff02191690836bffffffffffffffffffffffff1602179055506bffffffffffffffffffffffff1614610ad9576040517f08c379a0000000000000000000000000000000000000000000000000000000008152600401610ad0906118f0565b60405180910390fd5b50565b60008114610b755760003373ffffffffffffffffffffffffffffffffffffffff16827fffffffffffffffffffffffffffffffffffffffffffffffffffffffffffffffff90604051610b2c906114da565b600060405180830381858888f193505050503d8060008114610b6a576040519150601f19603f3d011682016040523d82523d6000602084013e610b6f565b606091505b50509050505b50565b610b80610726565b565b8073ffffffffffffffffffffffffffffffffffffffff16600160009054906101000a900473ffffffffffffffffffffffffffffffffffffffff1673ffffffffffffffffffffffffffffffffffffffff167f450909c1478d09248269d4ad4fa8cba61ca3f50faed58c7aedefa51c7f62b83a60405160405180910390a380600160006101000a81548173ffffffffffffffffffffffffffffffffffffffff021916908373ffffffffffffffffffffffffffffffffffffffff16021790555050565b600081604051602001610c559190611988565b604051602081830303815290604052805190602001209050919050565b6000806000610c818585610c99565b91509150610c8e81610ceb565b819250505092915050565b600080604183511415610cdb5760008060006020860151925060408601519150606086015160001a9050610ccf87828585610e59565b94509450505050610ce4565b60006002915091505b9250929050565b60006004811115610cff57610cfe6119ae565b5b816004811115610d1257610d116119ae565b5b1415610d1d57610e56565b60016004811115610d3157610d306119ae565b5b816004811115610d4457610d436119ae565b5b1415610d85576040517f08c379a0000000000000000000000000000000000000000000000000000000008152600401610d7c90611a29565b60405180910390fd5b60026004811115610d9957610d986119ae565b5b816004811115610dac57610dab6119ae565b5b1415610ded576040517f08c379a0000000000000000000000000000000000000000000000000000000008152600401610de490611a95565b60405180910390fd5b60036004811115610e0157610e006119ae565b5b816004811115610e1457610e136119ae565b5b1415610e55576040517f08c379a0000000000000000000000000000000000000000000000000000000008152600401610e4c90611b27565b60405180910390fd5b5b50565b6000807f7fffffffffffffffffffffffffffffff5d576e7357a4501ddfe92f46681b20a08360001c1115610e94576000600391509150610f33565b600060018787878760405160008152602001604052604051610eb99493929190611b72565b6020604051602081039080840390855afa158015610edb573d6000803e3d6000fd5b505050602060405103519050600073ffffffffffffffffffffffffffffffffffffffff168173ffffffffffffffffffffffffffffffffffffffff161415610f2a57600060019250925050610f33565b80600092509250505b94509492505050565b600080fd5b600080fd5b600073ffffffffffffffffffffffffffffffffffffffff82169050919050565b6000610f7182610f46565b9050919050565b610f8181610f66565b8114610f8c57600080fd5b50565b600081359050610f9e81610f78565b92915050565b6000819050919050565b610fb781610fa4565b8114610fc257600080fd5b50565b600081359050610fd481610fae565b92915050565b600080fd5b600080fd5b600080fd5b60008083601f840112610fff57610ffe610fda565b5b8235905067ffffffffffffffff81111561101c5761101b610fdf565b5b60208301915083600182028301111561103857611037610fe4565b5b9250929050565b6000806000806060858703121561105957611058610f3c565b5b600061106787828801610f8f565b945050602061107887828801610fc5565b935050604085013567ffffffffffffffff81111561109957611098610f41565b5b6110a587828801610fe9565b925092505092959194509250565b600080fd5b600061016082840312156110cf576110ce6110b3565b5b81905092915050565b6000819050919050565b6110eb816110d8565b81146110f657600080fd5b50565b600081359050611108816110e2565b92915050565b6000806000806080858703121561112857611127610f3c565b5b600085013567ffffffffffffffff81111561114657611145610f41565b5b611152878288016110b8565b9450506020611163878288016110f9565b935050604061117487828801610f8f565b925050606061118587828801610fc5565b91505092959194509250565b61119a81610fa4565b82525050565b60006020820190506111b56000830184611191565b92915050565b6000602082840312156111d1576111d0610f3c565b5b60006111df84828501610f8f565b91505092915050565b60006111f382610f46565b9050919050565b611203816111e8565b811461120e57600080fd5b50565b600081359050611220816111fa565b92915050565b6000806040838503121561123d5761123c610f3c565b5b600061124b85828601611211565b925050602061125c85828601610fc5565b9150509250929050565b61126f81610f66565b82525050565b600060208201905061128a6000830184611266565b92915050565b6000819050919050565b60006112b56112b06112ab84610f46565b611290565b610f46565b9050919050565b60006112c78261129a565b9050919050565b60006112d9826112bc565b9050919050565b6112e9816112ce565b82525050565b600060208201905061130460008301846112e0565b92915050565b60008083601f8401126113205761131f610fda565b5b8235905067ffffffffffffffff81111561133d5761133c610fdf565b5b60208301915083602082028301111561135957611358610fe4565b5b9250929050565b60008083601f84011261137657611375610fda565b5b8235905067ffffffffffffffff81111561139357611392610fdf565b5b6020830191508360208202830111156113af576113ae610fe4565b5b9250929050565b600080600080604085870312156113d0576113cf610f3c565b5b600085013567ffffffffffffffff8111156113ee576113ed610f41565b5b6113fa8782880161130a565b9450945050602085013567ffffffffffffffff81111561141d5761141c610f41565b5b61142987828801611360565b925092505092959194509250565b600080fd5b600080fd5b600080fd5b6000808335600160200384360303811261146357611462611437565b5b80840192508235915067ffffffffffffffff8211156114855761148461143c565b5b6020830192506001820236038313156114a1576114a0611441565b5b509250929050565b600081905092915050565b50565b60006114c46000836114a9565b91506114cf826114b4565b600082019050919050565b60006114e5826114b7565b9150819050919050565b6114f8816111e8565b82525050565b600060408201905061151360008301856114ef565b6115206020830184611191565b9392505050565b60008151905061153681610fae565b92915050565b60006020828403121561155257611551610f3c565b5b600061156084828501611527565b91505092915050565b600082825260208201905092915050565b7f77726f6e67206172726179206c656e6774687300000000000000000000000000600082015250565b60006115b0601383611569565b91506115bb8261157a565b602082019050919050565b600060208201905081810360008301526115df816115a3565b9050919050565b7f4e487b7100000000000000000000000000000000000000000000000000000000600052603260045260246000fd5b7f4e487b7100000000000000000000000000000000000000000000000000000000600052601160045260246000fd5b600061164f82610fa4565b91507fffffffffffffffffffffffffffffffffffffffffffffffffffffffffffffffff82141561168257611681611615565b5b600182019050919050565b7f6f6e6c79206f776e657200000000000000000000000000000000000000000000600082015250565b60006116c3600a83611569565b91506116ce8261168d565b602082019050919050565b600060208201905081810360008301526116f2816116b6565b9050919050565b600081519050919050565b60005b83811015611722578082015181840152602081019050611707565b83811115611731576000848401525b50505050565b6000611742826116f9565b61174c81856114a9565b935061175c818560208601611704565b80840191505092915050565b60006117748284611737565b915081905092915050565b7f6163636f756e743a206e6f742066726f6d20456e747279506f696e7400000000600082015250565b60006117b5601c83611569565b91506117c08261177f565b602082019050919050565b600060208201905081810360008301526117e4816117a8565b9050919050565b7f6163636f756e743a2077726f6e67207369676e61747572650000000000000000600082015250565b6000611821601883611569565b915061182c826117eb565b602082019050919050565b6000602082019050818103600083015261185081611814565b9050919050565b60006bffffffffffffffffffffffff82169050919050565b600061187a82611857565b91506bffffffffffffffffffffffff82141561189957611898611615565b5b600182019050919050565b7f6163636f756e743a20696e76616c6964206e6f6e636500000000000000000000600082015250565b60006118da601683611569565b91506118e5826118a4565b602082019050919050565b60006020820190508181036000830152611909816118cd565b9050919050565b600081905092915050565b7f19457468657265756d205369676e6564204d6573736167653a0a333200000000600082015250565b6000611951601c83611910565b915061195c8261191b565b601c82019050919050565b6000819050919050565b61198261197d826110d8565b611967565b82525050565b600061199382611944565b915061199f8284611971565b60208201915081905092915050565b7f4e487b7100000000000000000000000000000000000000000000000000000000600052602160045260246000fd5b7f45434453413a20696e76616c6964207369676e61747572650000000000000000600082015250565b6000611a13601883611569565b9150611a1e826119dd565b602082019050919050565b60006020820190508181036000830152611a4281611a06565b9050919050565b7f45434453413a20696e76616c6964207369676e6174757265206c656e67746800600082015250565b6000611a7f601f83611569565b9150611a8a82611a49565b602082019050919050565b60006020820190508181036000830152611aae81611a72565b9050919050565b7f45434453413a20696e76616c6964207369676e6174757265202773272076616c60008201527f7565000000000000000000000000000000000000000000000000000000000000602082015250565b6000611b11602283611569565b9150611b1c82611ab5565b604082019050919050565b60006020820190508181036000830152611b4081611b04565b9050919050565b611b50816110d8565b82525050565b600060ff82169050919050565b611b6c81611b56565b82525050565b6000608082019050611b876000830187611b47565b611b946020830186611b63565b611ba16040830185611b47565b611bae6060830184611b47565b9594505050505056fea2646970667358221220584b23ea672540175710f6243b4c93d9f31c5d1b447b0e56ca1a88393fcc943f64736f6c634300080a0033",
  "immutableReferences": {},
  "source": "// SPDX-License-Identifier: GPL-3.0\npragma solidity ^0.8.10;\n\n/* solhint-disable avoid-low-level-calls */\n/* solhint-disable no-inline-assembly */\n/* solhint-disable reason-string */\n\nimport \"./BaseAccount.sol\";\nimport \"@openzeppelin/contracts/utils/cryptography/ECDSA.sol\";\n\n/**\n  * minimal account.\n  *  this is sample minimal account.\n  *  has execute, eth handling methods\n  *  has a single signer that can send requests through the entryPoint.\n  */\ncontract SimpleAccount is BaseAccount {\n    using ECDSA for bytes32;\n\n    //explicit sizes of nonce, to fit a single storage cell with \"owner\"\n    uint96 private _nonce;\n    address public owner;\n\n    function nonce() public view virtual override returns (uint256) {\n        return _nonce;\n    }\n\n    function entryPoint() public view virtual override returns (IEntryPoint) {\n        return _entryPoint;\n    }\n\n    IEntryPoint private _entryPoint;\n\n    event EntryPointChanged(address indexed oldEntryPoint, address indexed newEntryPoint);\n\n    // solhint-disable-next-line no-empty-blocks\n    receive() external payable {}\n\n    constructor(IEntryPoint anEntryPoint, address anOwner) {\n        _entryPoint = anEntryPoint;\n        owner = anOwner;\n    }\n\n    modifier onlyOwner() {\n        _onlyOwner();\n        _;\n    }\n\n    function _onlyOwner() internal view {\n        //directly from EOA owner, or through the entryPoint (which gets redirected through execFromEntryPoint)\n        require(msg.sender == owner || msg.sender == address(this), \"only owner\");\n    }\n\n    /**\n     * transfer eth value to a destination address\n     */\n    function transfer(address payable dest, uint256 amount) external onlyOwner {\n        dest.transfer(amount);\n    }\n\n    /**\n     * execute a transaction (called directly from owner, not by entryPoint)\n     */\n    function exec(address dest, uint256 value, bytes calldata func) external onlyOwner {\n        _call(dest, value, func);\n    }\n\n    /**\n     * execute a sequence of transaction\n     */\n    function execBatch(address[] calldata dest, bytes[] calldata func) external onlyOwner {\n        require(dest.length == func.length, \"wrong array lengths\");\n        for (uint256 i = 0; i < dest.length; i++) {\n            _call(dest[i], 0, func[i]);\n        }\n    }\n\n    /**\n     * change entry-point:\n     * an account must have a method for replacing the entryPoint, in case the the entryPoint is\n     * upgraded to a newer version.\n     */\n    function _updateEntryPoint(address newEntryPoint) internal override {\n        emit EntryPointChanged(address(_entryPoint), newEntryPoint);\n        _entryPoint = IEntryPoint(payable(newEntryPoint));\n    }\n\n    function _requireFromAdmin() internal view override {\n        _onlyOwner();\n    }\n\n    /**\n     * validate the userOp is correct.\n     * revert if it doesn't.\n     * - must only be called from the entryPoint.\n     * - make sure the signature is of our supported signer.\n     * - validate current nonce matches request nonce, and increment it.\n     * - pay prefund, in case current deposit is not enough\n     */\n    function _requireFromEntryPoint() internal override view {\n        require(msg.sender == address(entryPoint()), \"account: not from EntryPoint\");\n    }\n\n    // called by entryPoint, only after validateUserOp succeeded.\n    function execFromEntryPoint(address dest, uint256 value, bytes calldata func) external {\n        _requireFromEntryPoint();\n        _call(dest, value, func);\n    }\n\n    /// implement template method of BaseAccount\n    function _validateAndUpdateNonce(UserOperation calldata userOp) internal override {\n        require(_nonce++ == userOp.nonce, \"account: invalid nonce\");\n    }\n\n    /// implement template method of BaseAccount\n    function _validateSignature(UserOperation calldata userOp, bytes32 userOpHash, address)\n    internal override virtual returns (uint256 deadline) {\n        bytes32 hash = userOpHash.toEthSignedMessageHash();\n        //ignore signature mismatch of from==ZERO_ADDRESS (for eth_callUserOp validation purposes)\n        // solhint-disable-next-line avoid-tx-origin\n        require(owner == hash.recover(userOp.signature) || tx.origin == address(0), \"account: wrong signature\");\n        return 0;\n    }\n\n    function _call(address target, uint256 value, bytes memory data) internal {\n        (bool success, bytes memory result) = target.call{value : value}(data);\n        if (!success) {\n            assembly {\n                revert(add(result, 32), mload(result))\n            }\n        }\n    }\n\n    /**\n     * check current account deposit in the entryPoint\n     */\n    function getDeposit() public view returns (uint256) {\n        return entryPoint().balanceOf(address(this));\n    }\n\n    /**\n     * deposit more funds for this account in the entryPoint\n     */\n    function addDeposit() public payable {\n\n        (bool req,) = address(entryPoint()).call{value : msg.value}(\"\");\n        require(req);\n    }\n\n    /**\n     * withdraw value from the account's deposit\n     * @param withdrawAddress target to send to\n     * @param amount to withdraw\n     */\n    function withdrawDepositTo(address payable withdrawAddress, uint256 amount) public onlyOwner {\n        entryPoint().withdrawTo(withdrawAddress, amount);\n    }\n}\n\n",
  "sourcePath": "/Users/calebsirak/fun/web3sdk/web3/contracts/lib/AA/SimpleAccount.sol",
  "compiler": {
    "name": "solc",
    "version": "0.8.10+commit.fc410830.Emscripten.clang"
  },
  "schemaVersion": "3.4.10",
  "updatedAt": "2023-01-14T08:14:22.712Z",
  "devdoc": {
    "kind": "dev",
    "methods": {
      "updateEntryPoint(address)": {
        "params": {
          "newEntryPoint": "the new entrypoint to trust."
        }
      },
      "withdrawDepositTo(address,uint256)": {
        "params": {
          "amount": "to withdraw",
          "withdrawAddress": "target to send to"
        }
      }
    },
    "version": 1
  },
  "userdoc": {
    "kind": "user",
    "methods": {
      "addDeposit()": {
        "notice": "deposit more funds for this account in the entryPoint"
      },
      "entryPoint()": {
        "notice": "return the entryPoint used by this account. subclass should return the current entryPoint used by this account."
      },
      "exec(address,uint256,bytes)": {
        "notice": "execute a transaction (called directly from owner, not by entryPoint)"
      },
      "execBatch(address[],bytes[])": {
        "notice": "execute a sequence of transaction"
      },
      "getDeposit()": {
        "notice": "check current account deposit in the entryPoint"
      },
      "nonce()": {
        "notice": "return the account nonce. subclass should return a nonce value that is used both by _validateAndUpdateNonce, and by the external provider (to read the current nonce)"
      },
      "transfer(address,uint256)": {
        "notice": "transfer eth value to a destination address"
      },
      "updateEntryPoint(address)": {
        "notice": "expose an api to modify the entryPoint. must be called by current \"admin\" of the account."
      },
      "validateUserOp((address,uint256,bytes,bytes,uint256,uint256,uint256,uint256,uint256,bytes,bytes),bytes32,address,uint256)": {
        "notice": "Validate user's signature and nonce. subclass doesn't need to override this method. Instead, it should override the specific internal validation methods."
      },
      "withdrawDepositTo(address,uint256)": {
        "notice": "withdraw value from the account's deposit"
      }
    },
    "notice": "minimal account.  this is sample minimal account.  has execute, eth handling methods  has a single signer that can send requests through the entryPoint.",
    "version": 1
  }
}