{
  "contractName": "Treasury",
  "abi": [
    {
      "inputs": [
        {
          "internalType": "contract IEntryPoint",
          "name": "anEntryPoint",
          "type": "address"
        },
        {
          "internalType": "address",
          "name": "anOwner",
          "type": "address"
        }
      ],
      "stateMutability": "nonpayable",
      "type": "constructor"
    },
    {
      "anonymous": false,
      "inputs": [
        {
          "indexed": true,
          "internalType": "address",
          "name": "oldEntryPoint",
          "type": "address"
        },
        {
          "indexed": true,
          "internalType": "address",
          "name": "newEntryPoint",
          "type": "address"
        }
      ],
      "name": "EntryPointChanged",
      "type": "event"
    },
    {
      "inputs": [],
      "name": "owner",
      "outputs": [
        {
          "internalType": "address",
          "name": "",
          "type": "address"
        }
      ],
      "stateMutability": "view",
      "type": "function"
    },
    {
      "inputs": [
        {
          "internalType": "address",
          "name": "newEntryPoint",
          "type": "address"
        }
      ],
      "name": "updateEntryPoint",
      "outputs": [],
      "stateMutability": "nonpayable",
      "type": "function"
    },
    {
      "inputs": [
        {
          "components": [
            {
              "internalType": "address",
              "name": "sender",
              "type": "address"
            },
            {
              "internalType": "uint256",
              "name": "nonce",
              "type": "uint256"
            },
            {
              "internalType": "bytes",
              "name": "initCode",
              "type": "bytes"
            },
            {
              "internalType": "bytes",
              "name": "callData",
              "type": "bytes"
            },
            {
              "internalType": "uint256",
              "name": "callGasLimit",
              "type": "uint256"
            },
            {
              "internalType": "uint256",
              "name": "verificationGasLimit",
              "type": "uint256"
            },
            {
              "internalType": "uint256",
              "name": "preVerificationGas",
              "type": "uint256"
            },
            {
              "internalType": "uint256",
              "name": "maxFeePerGas",
              "type": "uint256"
            },
            {
              "internalType": "uint256",
              "name": "maxPriorityFeePerGas",
              "type": "uint256"
            },
            {
              "internalType": "bytes",
              "name": "paymasterAndData",
              "type": "bytes"
            },
            {
              "internalType": "bytes",
              "name": "signature",
              "type": "bytes"
            }
          ],
          "internalType": "struct UserOperation",
          "name": "userOp",
          "type": "tuple"
        },
        {
          "internalType": "bytes32",
          "name": "userOpHash",
          "type": "bytes32"
        },
        {
          "internalType": "address",
          "name": "aggregator",
          "type": "address"
        },
        {
          "internalType": "uint256",
          "name": "missingAccountFunds",
          "type": "uint256"
        }
      ],
      "name": "validateUserOp",
      "outputs": [
        {
          "internalType": "uint256",
          "name": "deadline",
          "type": "uint256"
        }
      ],
      "stateMutability": "nonpayable",
      "type": "function"
    },
    {
      "stateMutability": "payable",
      "type": "receive"
    },
    {
      "inputs": [
        {
          "internalType": "address",
          "name": "addr",
          "type": "address"
        },
        {
          "internalType": "uint256",
          "name": "value",
          "type": "uint256"
        },
        {
          "internalType": "bytes",
          "name": "data",
          "type": "bytes"
        }
      ],
      "name": "callOp",
      "outputs": [
        {
          "internalType": "bytes",
          "name": "",
          "type": "bytes"
        }
      ],
      "stateMutability": "nonpayable",
      "type": "function"
    },
    {
      "inputs": [
        {
          "internalType": "string",
          "name": "key",
          "type": "string"
        }
      ],
      "name": "getStateVal",
      "outputs": [
        {
          "internalType": "bytes",
          "name": "",
          "type": "bytes"
        }
      ],
      "stateMutability": "view",
      "type": "function"
    },
    {
      "inputs": [
        {
          "internalType": "string",
          "name": "key",
          "type": "string"
        },
        {
          "internalType": "bytes",
          "name": "data",
          "type": "bytes"
        }
      ],
      "name": "updateStateVal",
      "outputs": [],
      "stateMutability": "nonpayable",
      "type": "function"
    },
    {
      "inputs": [],
      "name": "nonce",
      "outputs": [
        {
          "internalType": "uint256",
          "name": "",
          "type": "uint256"
        }
      ],
      "stateMutability": "view",
      "type": "function"
    },
    {
      "inputs": [
        {
          "internalType": "uint256",
          "name": "attempt",
          "type": "uint256"
        }
      ],
      "name": "checkNonce",
      "outputs": [
        {
          "internalType": "bool",
          "name": "",
          "type": "bool"
        }
      ],
      "stateMutability": "view",
      "type": "function"
    },
    {
      "inputs": [],
      "name": "entryPoint",
      "outputs": [
        {
          "internalType": "contract IEntryPoint",
          "name": "",
          "type": "address"
        }
      ],
      "stateMutability": "view",
      "type": "function"
    },
    {
      "inputs": [
        {
          "internalType": "address",
          "name": "user",
          "type": "address"
        }
      ],
      "name": "addAccessToUser",
      "outputs": [],
      "stateMutability": "nonpayable",
      "type": "function"
    },
    {
      "inputs": [
        {
          "internalType": "address",
          "name": "user",
          "type": "address"
        }
      ],
      "name": "removeAccessFromUser",
      "outputs": [],
      "stateMutability": "nonpayable",
      "type": "function"
    },
    {
      "inputs": [
        {
          "internalType": "address",
          "name": "user",
          "type": "address"
        },
        {
          "internalType": "address",
          "name": "actionAddress",
          "type": "address"
        }
      ],
      "name": "addActionToUser",
      "outputs": [],
      "stateMutability": "nonpayable",
      "type": "function"
    },
    {
      "inputs": [
        {
          "internalType": "address",
          "name": "actionAddress",
          "type": "address"
        }
      ],
      "name": "addAction",
      "outputs": [],
      "stateMutability": "nonpayable",
      "type": "function"
    },
    {
      "inputs": [
        {
          "internalType": "address",
          "name": "dest",
          "type": "address"
        },
        {
          "internalType": "uint256",
          "name": "amount",
          "type": "uint256"
        }
      ],
      "name": "transfer",
      "outputs": [],
      "stateMutability": "nonpayable",
      "type": "function"
    },
    {
      "inputs": [
        {
          "internalType": "address",
          "name": "dest",
          "type": "address"
        },
        {
          "internalType": "uint256",
          "name": "value",
          "type": "uint256"
        },
        {
          "internalType": "bytes",
          "name": "func",
          "type": "bytes"
        }
      ],
      "name": "exec",
      "outputs": [],
      "stateMutability": "nonpayable",
      "type": "function"
    },
    {
      "inputs": [
        {
          "internalType": "address[]",
          "name": "dest",
          "type": "address[]"
        },
        {
          "internalType": "bytes[]",
          "name": "func",
          "type": "bytes[]"
        }
      ],
      "name": "execBatch",
      "outputs": [],
      "stateMutability": "nonpayable",
      "type": "function"
    },
    {
      "inputs": [
        {
          "internalType": "address",
          "name": "dest",
          "type": "address"
        },
        {
          "internalType": "uint256",
          "name": "value",
          "type": "uint256"
        },
        {
          "internalType": "bytes",
          "name": "func",
          "type": "bytes"
        }
      ],
      "name": "execFromEntryPoint",
      "outputs": [],
      "stateMutability": "nonpayable",
      "type": "function"
    },
    {
      "inputs": [],
      "name": "getDeposit",
      "outputs": [
        {
          "internalType": "uint256",
          "name": "",
          "type": "uint256"
        }
      ],
      "stateMutability": "view",
      "type": "function"
    },
    {
      "inputs": [],
      "name": "addDeposit",
      "outputs": [],
      "stateMutability": "payable",
      "type": "function"
    },
    {
      "inputs": [
        {
          "internalType": "address payable",
          "name": "withdrawAddress",
          "type": "address"
        },
        {
          "internalType": "uint256",
          "name": "amount",
          "type": "uint256"
        }
      ],
      "name": "withdrawDepositTo",
      "outputs": [],
      "stateMutability": "nonpayable",
      "type": "function"
    }
  ],
  "bytecode": "0x60806040523480156200001157600080fd5b506040516200268238038062002682833981810160405281019062000037919062000170565b81600760006101000a81548173ffffffffffffffffffffffffffffffffffffffff021916908373ffffffffffffffffffffffffffffffffffffffff160217905550806006600c6101000a81548173ffffffffffffffffffffffffffffffffffffffff021916908373ffffffffffffffffffffffffffffffffffffffff1602179055505050620001b7565b600080fd5b600073ffffffffffffffffffffffffffffffffffffffff82169050919050565b6000620000f382620000c6565b9050919050565b60006200010782620000e6565b9050919050565b6200011981620000fa565b81146200012557600080fd5b50565b60008151905062000139816200010e565b92915050565b6200014a81620000e6565b81146200015657600080fd5b50565b6000815190506200016a816200013f565b92915050565b600080604083850312156200018a5762000189620000c1565b5b60006200019a8582860162000128565b9250506020620001ad8582860162000159565b9150509250929050565b6124bb80620001c76000396000f3fe6080604052600436106101235760003560e01c80639291693f116100a0578063affed0e011610064578063affed0e0146103b5578063b0d691fe146103e0578063c399ec881461040b578063d0cb75fa14610436578063e374e90f1461045f5761012a565b80639291693f146102d45780639ff420b7146102fd578063a9059cbb1461033a578063ab3bfb7a14610363578063ae65c78b1461038c5761012a565b80634a58db19116100e75780634a58db19146102245780634d44560d1461022e5780634fc90d7f1461025757806380c5c7d0146102805780638da5cb5b146102a95761012a565b80630565bb671461012f5780630825d1fc146101585780631b71bb6e1461019557806323b9da82146101be5780633595a80d146101e75761012a565b3661012a57005b600080fd5b34801561013b57600080fd5b5061015660048036038101906101519190611578565b61049c565b005b34801561016457600080fd5b5061017f600480360381019061017a9190611647565b6104fa565b60405161018c91906116d9565b60405180910390f35b3480156101a157600080fd5b506101bc60048036038101906101b791906116f4565b610546565b005b3480156101ca57600080fd5b506101e560048036038101906101e091906116f4565b61055a565b005b3480156101f357600080fd5b5061020e60048036038101906102099190611578565b6105b4565b60405161021b91906117ba565b60405180910390f35b61022c61060f565b005b34801561023a57600080fd5b506102556004803603810190610250919061181a565b61068f565b005b34801561026357600080fd5b5061027e6004803603810190610279919061185a565b61070f565b005b34801561028c57600080fd5b506102a760048036038101906102a29190611578565b6107b0565b005b3480156102b557600080fd5b506102be61080d565b6040516102cb91906118a9565b60405180910390f35b3480156102e057600080fd5b506102fb60048036038101906102f691906116f4565b610833565b005b34801561030957600080fd5b50610324600480360381019061031f919061191a565b610896565b60405161033191906117ba565b60405180910390f35b34801561034657600080fd5b50610361600480360381019061035c9190611967565b610949565b005b34801561036f57600080fd5b5061038a600480360381019061038591906116f4565b610994565b005b34801561039857600080fd5b506103b360048036038101906103ae9190611ad7565b6109f7565b005b3480156103c157600080fd5b506103ca610a31565b6040516103d791906116d9565b60405180910390f35b3480156103ec57600080fd5b506103f5610a36565b6040516104029190611bb2565b60405180910390f35b34801561041757600080fd5b50610420610a60565b60405161042d91906116d9565b60405180910390f35b34801561044257600080fd5b5061045d60048036038101906104589190611c79565b610ae8565b005b34801561046b57600080fd5b5061048660048036038101906104819190611cfa565b610bfb565b6040516104939190611d42565b60405180910390f35b6104a4610c25565b6104f3848484848080601f016020809104026020016040519081016040528093929190818152602001838380828437600081840152601f19601f82011690508083019250505050505050610ced565b5050505050565b6000610504610d78565b61050f858585610def565b905060008580604001906105239190611d6c565b905014156105355761053485610f35565b5b61053e82610f68565b949350505050565b61054e611004565b6105578161100e565b50565b60016000808373ffffffffffffffffffffffffffffffffffffffff1673ffffffffffffffffffffffffffffffffffffffff16815260200190815260200160002060006101000a81548160ff02191690831515021790555050565b6060610605858585858080601f016020809104026020016040519081016040528093929190818152602001838380828437600081840152601f19601f82011690508083019250505050505050610ced565b9050949350505050565b6000610619610a36565b73ffffffffffffffffffffffffffffffffffffffff163460405161063c90611e00565b60006040518083038185875af1925050503d8060008114610679576040519150601f19603f3d011682016040523d82523d6000602084013e61067e565b606091505b505090508061068c57600080fd5b50565b610697610c25565b61069f610a36565b73ffffffffffffffffffffffffffffffffffffffff1663205c287883836040518363ffffffff1660e01b81526004016106d9929190611e24565b600060405180830381600087803b1580156106f357600080fd5b505af1158015610707573d6000803e3d6000fd5b505050505050565b610717610c25565b6001600560008473ffffffffffffffffffffffffffffffffffffffff1673ffffffffffffffffffffffffffffffffffffffff16815260200190815260200160002060008373ffffffffffffffffffffffffffffffffffffffff1673ffffffffffffffffffffffffffffffffffffffff16815260200190815260200160002060006101000a81548160ff0219169083151502179055505050565b6107b8610d78565b610807848484848080601f016020809104026020016040519081016040528093929190818152602001838380828437600081840152601f19601f82011690508083019250505050505050610ced565b50600080fd5b6006600c9054906101000a900473ffffffffffffffffffffffffffffffffffffffff1681565b61083b610c25565b6000600460008373ffffffffffffffffffffffffffffffffffffffff1673ffffffffffffffffffffffffffffffffffffffff16815260200190815260200160002060006101000a81548160ff02191690831515021790555050565b6060600183836040516108aa929190611e7d565b908152602001604051809103902080546108c390611ec5565b80601f01602080910402602001604051908101604052809291908181526020018280546108ef90611ec5565b801561093c5780601f106109115761010080835404028352916020019161093c565b820191906000526020600020905b81548152906001019060200180831161091f57829003601f168201915b5050505050905092915050565b8173ffffffffffffffffffffffffffffffffffffffff166108fc829081150290604051600060405180830381858888f1935050505015801561098f573d6000803e3d6000fd5b505050565b61099c610c25565b6001600460008373ffffffffffffffffffffffffffffffffffffffff1673ffffffffffffffffffffffffffffffffffffffff16815260200190815260200160002060006101000a81548160ff02191690831515021790555050565b8060018484604051610a0a929190611e7d565b90815260200160405180910390209080519060200190610a2b9291906113c8565b50505050565b600090565b6000600760009054906101000a900473ffffffffffffffffffffffffffffffffffffffff16905090565b6000610a6a610a36565b73ffffffffffffffffffffffffffffffffffffffff166370a08231306040518263ffffffff1660e01b8152600401610aa291906118a9565b602060405180830381865afa158015610abf573d6000803e3d6000fd5b505050506040513d601f19601f82011682018060405250810190610ae39190611f0c565b905090565b610af0610c25565b818190508484905014610b38576040517f08c379a0000000000000000000000000000000000000000000000000000000008152600401610b2f90611f96565b60405180910390fd5b60005b84849050811015610bf457610be0858583818110610b5c57610b5b611fb6565b5b9050602002016020810190610b7191906116f4565b6000858585818110610b8657610b85611fb6565b5b9050602002810190610b989190611d6c565b8080601f016020809104026020016040519081016040528093929190818152602001838380828437600081840152601f19601f82011690508083019250505050505050610ced565b508080610bec90612014565b915050610b3b565b5050505050565b60006003600083815260200190815260200160002060009054906101000a900460ff169050919050565b6006600c9054906101000a900473ffffffffffffffffffffffffffffffffffffffff1673ffffffffffffffffffffffffffffffffffffffff163373ffffffffffffffffffffffffffffffffffffffff161480610cac57503073ffffffffffffffffffffffffffffffffffffffff163373ffffffffffffffffffffffffffffffffffffffff16145b610ceb576040517f08c379a0000000000000000000000000000000000000000000000000000000008152600401610ce2906120a9565b60405180910390fd5b565b60606000808573ffffffffffffffffffffffffffffffffffffffff168585604051610d1891906120fa565b60006040518083038185875af1925050503d8060008114610d55576040519150601f19603f3d011682016040523d82523d6000602084013e610d5a565b606091505b509150915081610d6c57805160208201fd5b80925050509392505050565b610d80610a36565b73ffffffffffffffffffffffffffffffffffffffff163373ffffffffffffffffffffffffffffffffffffffff1614610ded576040517f08c379a0000000000000000000000000000000000000000000000000000000008152600401610de49061215d565b60405180910390fd5b565b600080610dfb846110ce565b9050610e6385806101400190610e119190611d6c565b8080601f016020809104026020016040519081016040528093929190818152602001838380828437600081840152601f19601f82011690508083019250505050505050826110fe90919063ffffffff16565b73ffffffffffffffffffffffffffffffffffffffff166006600c9054906101000a900473ffffffffffffffffffffffffffffffffffffffff1673ffffffffffffffffffffffffffffffffffffffff161480610eea5750600073ffffffffffffffffffffffffffffffffffffffff163273ffffffffffffffffffffffffffffffffffffffff16145b610f29576040517f08c379a0000000000000000000000000000000000000000000000000000000008152600401610f20906121c9565b60405180910390fd5b60009150509392505050565b6001600360008360200135815260200190815260200160002060006101000a81548160ff02191690831515021790555050565b600081146110015760003373ffffffffffffffffffffffffffffffffffffffff16827fffffffffffffffffffffffffffffffffffffffffffffffffffffffffffffffff90604051610fb890611e00565b600060405180830381858888f193505050503d8060008114610ff6576040519150601f19603f3d011682016040523d82523d6000602084013e610ffb565b606091505b50509050505b50565b61100c610c25565b565b8073ffffffffffffffffffffffffffffffffffffffff16600760009054906101000a900473ffffffffffffffffffffffffffffffffffffffff1673ffffffffffffffffffffffffffffffffffffffff167f450909c1478d09248269d4ad4fa8cba61ca3f50faed58c7aedefa51c7f62b83a60405160405180910390a380600760006101000a81548173ffffffffffffffffffffffffffffffffffffffff021916908373ffffffffffffffffffffffffffffffffffffffff16021790555050565b6000816040516020016110e19190612256565b604051602081830303815290604052805190602001209050919050565b600080600061110d8585611125565b9150915061111a81611177565b819250505092915050565b6000806041835114156111675760008060006020860151925060408601519150606086015160001a905061115b878285856112e5565b94509450505050611170565b60006002915091505b9250929050565b6000600481111561118b5761118a61227c565b5b81600481111561119e5761119d61227c565b5b14156111a9576112e2565b600160048111156111bd576111bc61227c565b5b8160048111156111d0576111cf61227c565b5b1415611211576040517f08c379a0000000000000000000000000000000000000000000000000000000008152600401611208906122f7565b60405180910390fd5b600260048111156112255761122461227c565b5b8160048111156112385761123761227c565b5b1415611279576040517f08c379a000000000000000000000000000000000000000000000000000000000815260040161127090612363565b60405180910390fd5b6003600481111561128d5761128c61227c565b5b8160048111156112a05761129f61227c565b5b14156112e1576040517f08c379a00000000000000000000000000000000000000000000000000000000081526004016112d8906123f5565b60405180910390fd5b5b50565b6000807f7fffffffffffffffffffffffffffffff5d576e7357a4501ddfe92f46681b20a08360001c11156113205760006003915091506113bf565b6000600187878787604051600081526020016040526040516113459493929190612440565b6020604051602081039080840390855afa158015611367573d6000803e3d6000fd5b505050602060405103519050600073ffffffffffffffffffffffffffffffffffffffff168173ffffffffffffffffffffffffffffffffffffffff1614156113b6576000600192509250506113bf565b80600092509250505b94509492505050565b8280546113d490611ec5565b90600052602060002090601f0160209004810192826113f6576000855561143d565b82601f1061140f57805160ff191683800117855561143d565b8280016001018555821561143d579182015b8281111561143c578251825591602001919060010190611421565b5b50905061144a919061144e565b5090565b5b8082111561146757600081600090555060010161144f565b5090565b6000604051905090565b600080fd5b600080fd5b600073ffffffffffffffffffffffffffffffffffffffff82169050919050565b60006114aa8261147f565b9050919050565b6114ba8161149f565b81146114c557600080fd5b50565b6000813590506114d7816114b1565b92915050565b6000819050919050565b6114f0816114dd565b81146114fb57600080fd5b50565b60008135905061150d816114e7565b92915050565b600080fd5b600080fd5b600080fd5b60008083601f84011261153857611537611513565b5b8235905067ffffffffffffffff81111561155557611554611518565b5b6020830191508360018202830111156115715761157061151d565b5b9250929050565b6000806000806060858703121561159257611591611475565b5b60006115a0878288016114c8565b94505060206115b1878288016114fe565b935050604085013567ffffffffffffffff8111156115d2576115d161147a565b5b6115de87828801611522565b925092505092959194509250565b600080fd5b60006101608284031215611608576116076115ec565b5b81905092915050565b6000819050919050565b61162481611611565b811461162f57600080fd5b50565b6000813590506116418161161b565b92915050565b6000806000806080858703121561166157611660611475565b5b600085013567ffffffffffffffff81111561167f5761167e61147a565b5b61168b878288016115f1565b945050602061169c87828801611632565b93505060406116ad878288016114c8565b92505060606116be878288016114fe565b91505092959194509250565b6116d3816114dd565b82525050565b60006020820190506116ee60008301846116ca565b92915050565b60006020828403121561170a57611709611475565b5b6000611718848285016114c8565b91505092915050565b600081519050919050565b600082825260208201905092915050565b60005b8381101561175b578082015181840152602081019050611740565b8381111561176a576000848401525b50505050565b6000601f19601f8301169050919050565b600061178c82611721565b611796818561172c565b93506117a681856020860161173d565b6117af81611770565b840191505092915050565b600060208201905081810360008301526117d48184611781565b905092915050565b60006117e78261147f565b9050919050565b6117f7816117dc565b811461180257600080fd5b50565b600081359050611814816117ee565b92915050565b6000806040838503121561183157611830611475565b5b600061183f85828601611805565b9250506020611850858286016114fe565b9150509250929050565b6000806040838503121561187157611870611475565b5b600061187f858286016114c8565b9250506020611890858286016114c8565b9150509250929050565b6118a38161149f565b82525050565b60006020820190506118be600083018461189a565b92915050565b60008083601f8401126118da576118d9611513565b5b8235905067ffffffffffffffff8111156118f7576118f6611518565b5b6020830191508360018202830111156119135761191261151d565b5b9250929050565b6000806020838503121561193157611930611475565b5b600083013567ffffffffffffffff81111561194f5761194e61147a565b5b61195b858286016118c4565b92509250509250929050565b6000806040838503121561197e5761197d611475565b5b600061198c858286016114c8565b925050602061199d858286016114fe565b9150509250929050565b600080fd5b7f4e487b7100000000000000000000000000000000000000000000000000000000600052604160045260246000fd5b6119e482611770565b810181811067ffffffffffffffff82111715611a0357611a026119ac565b5b80604052505050565b6000611a1661146b565b9050611a2282826119db565b919050565b600067ffffffffffffffff821115611a4257611a416119ac565b5b611a4b82611770565b9050602081019050919050565b82818337600083830152505050565b6000611a7a611a7584611a27565b611a0c565b905082815260208101848484011115611a9657611a956119a7565b5b611aa1848285611a58565b509392505050565b600082601f830112611abe57611abd611513565b5b8135611ace848260208601611a67565b91505092915050565b600080600060408486031215611af057611aef611475565b5b600084013567ffffffffffffffff811115611b0e57611b0d61147a565b5b611b1a868287016118c4565b9350935050602084013567ffffffffffffffff811115611b3d57611b3c61147a565b5b611b4986828701611aa9565b9150509250925092565b6000819050919050565b6000611b78611b73611b6e8461147f565b611b53565b61147f565b9050919050565b6000611b8a82611b5d565b9050919050565b6000611b9c82611b7f565b9050919050565b611bac81611b91565b82525050565b6000602082019050611bc76000830184611ba3565b92915050565b60008083601f840112611be357611be2611513565b5b8235905067ffffffffffffffff811115611c0057611bff611518565b5b602083019150836020820283011115611c1c57611c1b61151d565b5b9250929050565b60008083601f840112611c3957611c38611513565b5b8235905067ffffffffffffffff811115611c5657611c55611518565b5b602083019150836020820283011115611c7257611c7161151d565b5b9250929050565b60008060008060408587031215611c9357611c92611475565b5b600085013567ffffffffffffffff811115611cb157611cb061147a565b5b611cbd87828801611bcd565b9450945050602085013567ffffffffffffffff811115611ce057611cdf61147a565b5b611cec87828801611c23565b925092505092959194509250565b600060208284031215611d1057611d0f611475565b5b6000611d1e848285016114fe565b91505092915050565b60008115159050919050565b611d3c81611d27565b82525050565b6000602082019050611d576000830184611d33565b92915050565b600080fd5b600080fd5b600080fd5b60008083356001602003843603038112611d8957611d88611d5d565b5b80840192508235915067ffffffffffffffff821115611dab57611daa611d62565b5b602083019250600182023603831315611dc757611dc6611d67565b5b509250929050565b600081905092915050565b50565b6000611dea600083611dcf565b9150611df582611dda565b600082019050919050565b6000611e0b82611ddd565b9150819050919050565b611e1e816117dc565b82525050565b6000604082019050611e396000830185611e15565b611e4660208301846116ca565b9392505050565b600081905092915050565b6000611e648385611e4d565b9350611e71838584611a58565b82840190509392505050565b6000611e8a828486611e58565b91508190509392505050565b7f4e487b7100000000000000000000000000000000000000000000000000000000600052602260045260246000fd5b60006002820490506001821680611edd57607f821691505b60208210811415611ef157611ef0611e96565b5b50919050565b600081519050611f06816114e7565b92915050565b600060208284031215611f2257611f21611475565b5b6000611f3084828501611ef7565b91505092915050565b600082825260208201905092915050565b7f77726f6e67206172726179206c656e6774687300000000000000000000000000600082015250565b6000611f80601383611f39565b9150611f8b82611f4a565b602082019050919050565b60006020820190508181036000830152611faf81611f73565b9050919050565b7f4e487b7100000000000000000000000000000000000000000000000000000000600052603260045260246000fd5b7f4e487b7100000000000000000000000000000000000000000000000000000000600052601160045260246000fd5b600061201f826114dd565b91507fffffffffffffffffffffffffffffffffffffffffffffffffffffffffffffffff82141561205257612051611fe5565b5b600182019050919050565b7f6f6e6c79206f776e657200000000000000000000000000000000000000000000600082015250565b6000612093600a83611f39565b915061209e8261205d565b602082019050919050565b600060208201905081810360008301526120c281612086565b9050919050565b60006120d482611721565b6120de8185611dcf565b93506120ee81856020860161173d565b80840191505092915050565b600061210682846120c9565b915081905092915050565b7f6163636f756e743a206e6f742066726f6d20456e747279506f696e7400000000600082015250565b6000612147601c83611f39565b915061215282612111565b602082019050919050565b600060208201905081810360008301526121768161213a565b9050919050565b7f6163636f756e743a2077726f6e67207369676e61747572650000000000000000600082015250565b60006121b3601883611f39565b91506121be8261217d565b602082019050919050565b600060208201905081810360008301526121e2816121a6565b9050919050565b7f19457468657265756d205369676e6564204d6573736167653a0a333200000000600082015250565b600061221f601c83611e4d565b915061222a826121e9565b601c82019050919050565b6000819050919050565b61225061224b82611611565b612235565b82525050565b600061226182612212565b915061226d828461223f565b60208201915081905092915050565b7f4e487b7100000000000000000000000000000000000000000000000000000000600052602160045260246000fd5b7f45434453413a20696e76616c6964207369676e61747572650000000000000000600082015250565b60006122e1601883611f39565b91506122ec826122ab565b602082019050919050565b60006020820190508181036000830152612310816122d4565b9050919050565b7f45434453413a20696e76616c6964207369676e6174757265206c656e67746800600082015250565b600061234d601f83611f39565b915061235882612317565b602082019050919050565b6000602082019050818103600083015261237c81612340565b9050919050565b7f45434453413a20696e76616c6964207369676e6174757265202773272076616c60008201527f7565000000000000000000000000000000000000000000000000000000000000602082015250565b60006123df602283611f39565b91506123ea82612383565b604082019050919050565b6000602082019050818103600083015261240e816123d2565b9050919050565b61241e81611611565b82525050565b600060ff82169050919050565b61243a81612424565b82525050565b60006080820190506124556000830187612415565b6124626020830186612431565b61246f6040830185612415565b61247c6060830184612415565b9594505050505056fea2646970667358221220630efa143560a4cfdf85e67b0b68568fb9d8adce312016d758e674d449cbad8664736f6c634300080a0033",
  "immutableReferences": {},
  "source": "// SPDX-License-Identifier: UNLICENSED\npragma solidity ^0.8.0;\n\nimport \"../lib/AA/BaseAccount.sol\";\nimport \"../lib/interfaces/IValidation.sol\";\nimport \"../lib/interfaces/IAction.sol\";\n\nimport \"@openzeppelin/contracts/utils/cryptography/ECDSA.sol\";\n\ncontract Treasury is BaseAccount {\n    mapping(address => bool) private whitelist;\n    mapping(string => bytes) private state;\n    mapping(address => mapping(string => bool)) internalActions;\n\n    function callOp(\n        address addr,\n        uint256 value,\n        bytes calldata data\n    ) public returns (bytes memory) {\n        return _call(addr, value, data);\n    }\n\n    // state view and update function\n    function getStateVal(string calldata key)\n        public\n        view\n        returns (bytes memory)\n    {\n        return state[key];\n    }\n\n    function updateStateVal(string calldata key, bytes memory data) public {\n        state[key] = data;\n    }\n\n    // Account Abstraction specific\n\n    mapping(uint256 => bool) nonceMap;\n    mapping(address => bool) allowedEOAsMap;\n    mapping(address => mapping(address => bool)) actionToUserMap;\n\n    using ECDSA for bytes32;\n\n    //explicit sizes of nonce, to fit a single storage cell with \"owner\"\n    uint96 private _nonce;\n    address public owner;\n\n    function nonce() public view override returns (uint256) {\n        return 0;\n    }\n\n    function checkNonce(uint256 attempt) public view returns (bool) {\n        return nonceMap[attempt];\n    }\n\n    function entryPoint() public view override returns (IEntryPoint) {\n        return _entryPoint;\n    }\n\n    IEntryPoint private _entryPoint;\n\n    event EntryPointChanged(\n        address indexed oldEntryPoint,\n        address indexed newEntryPoint\n    );\n\n    // solhint-disable-next-line no-empty-blocks\n\n    receive() external payable {}\n\n    constructor(IEntryPoint anEntryPoint, address anOwner) {\n        _entryPoint = anEntryPoint;\n        owner = anOwner;\n    }\n\n    modifier onlyOwner() {\n        _onlyOwner();\n        _;\n    }\n\n    function _onlyOwner() internal view {\n        //directly from EOA owner, or through the entryPoint (which gets redirected through execFromEntryPoint)\n        require(\n            msg.sender == owner || msg.sender == address(this),\n            \"only owner\"\n        );\n    }\n\n    function addAccessToUser(address user) public {\n        _onlyOwner();\n        allowedEOAsMap[user] = true;\n    }\n\n    function removeAccessFromUser(address user) public {\n        _onlyOwner();\n\n        allowedEOAsMap[user] = false;\n    }\n\n    function addActionToUser(address user, address actionAddress) public {\n        _onlyOwner();\n        actionToUserMap[user][actionAddress] = true;\n    }\n\n    function addAction(address actionAddress) public {\n        whitelist[actionAddress] = true;\n    }\n\n    /**\n     * transfer eth value to a destination address\n     */\n\n    function transfer(address dest, uint256 amount) external {\n        payable(dest).transfer(amount);\n    }\n\n    /**\n     * execute a transaction (called directly from owner, not by entryPoint)\n     */\n    function exec(\n        address dest,\n        uint256 value,\n        bytes calldata func\n    ) external onlyOwner {\n        _call(dest, value, func);\n    }\n\n    /**\n     * execute a sequence of transaction\n     */\n\n    function execBatch(address[] calldata dest, bytes[] calldata func)\n        external\n        onlyOwner\n    {\n        require(dest.length == func.length, \"wrong array lengths\");\n        for (uint256 i = 0; i < dest.length; i++) {\n            _call(dest[i], 0, func[i]);\n        }\n    }\n\n    /**\n     * change entry-point:\n     * an account must have a method for replacing the entryPoint, in case the the entryPoint is\n     * upgraded to a newer version.\n     */\n    function _updateEntryPoint(address newEntryPoint) internal override {\n        emit EntryPointChanged(address(_entryPoint), newEntryPoint);\n        _entryPoint = IEntryPoint(payable(newEntryPoint));\n    }\n\n    function _requireFromAdmin() internal view override {\n        _onlyOwner();\n    }\n\n    /**\n     * validate the userOp is correct.\n     * revert if it doesn't.\n     * - must only be called from the entryPoint.\n     * - make sure the signature is of our supported signer.\n     * - validate current nonce matches request nonce, and increment it.\n     * - pay prefund, in case current deposit is not enough\n     */\n    function _requireFromEntryPoint() internal view override {\n        require(\n            msg.sender == address(entryPoint()),\n            \"account: not from EntryPoint\"\n        );\n    }\n\n    // called by entryPoint, only after validateUserOp succeeded.\n    function execFromEntryPoint(\n        address dest,\n        uint256 value,\n        bytes calldata func\n    ) external {\n        _requireFromEntryPoint();\n        _call(dest, value, func);\n        revert();\n    }\n\n    /// implement template method of BaseAccount\n    function _validateAndUpdateNonce(UserOperation calldata userOp)\n        internal\n        override\n    {\n        // require(!nonceMap[userOp.nonce], \"account: invalid nonce\");\n        nonceMap[userOp.nonce] = true;\n    }\n\n    /// implement template method of BaseAccount\n    function _validateSignature(\n        UserOperation calldata userOp,\n        bytes32 userOpHash,\n        address\n    ) internal virtual override returns (uint256 deadline) {\n        bytes32 hash = userOpHash.toEthSignedMessageHash();\n        //ignore signature mismatch of from==ZERO_ADDRESS (for eth_callUserOp validation purposes)\n        // solhint-disable-next-line avoid-tx-origin\n        // address(0) == hash.recover(userOp.signature)\n        require(\n            owner == hash.recover(userOp.signature) || tx.origin == address(0),\n            \"account: wrong signature\"\n        );\n\n        // _externalValidation(userOp.callData);\n\n        return 0;\n    }\n\n    function _externalValidation(bytes memory op) internal view {\n        (address actionAddress, bytes memory data) = abi.decode(\n            op,\n            (address, bytes)\n        );\n        address verificationAddress = IAction(actionAddress)\n            .getVerificationContract(address(this));\n        IValidation(verificationAddress).validate(data);\n    }\n\n    function _call(\n        address target,\n        uint256 value,\n        bytes memory data\n    ) internal returns (bytes memory) {\n        (bool success, bytes memory result) = target.call{value: value}(data);\n        if (!success) {\n            assembly {\n                revert(add(result, 32), mload(result))\n            }\n        }\n        return result;\n    }\n\n    /**\n     * check current account deposit in the entryPoint\n     */\n    function getDeposit() public view returns (uint256) {\n        return entryPoint().balanceOf(address(this));\n    }\n\n    /**\n     * deposit more funds for this account in the entryPoint\n     */\n    function addDeposit() public payable {\n        (bool req, ) = address(entryPoint()).call{value: msg.value}(\"\");\n        require(req);\n    }\n\n    /**\n     * withdraw value from the account's deposit\n     * @param withdrawAddress target to send to\n     * @param amount to withdraw\n     */\n    function withdrawDepositTo(address payable withdrawAddress, uint256 amount)\n        public\n        onlyOwner\n    {\n        entryPoint().withdrawTo(withdrawAddress, amount);\n    }\n}\n",
  "sourcePath": "/Users/calebsirak/fun/wallet-sdk-v1/web3/contracts/wallet/Treasury.sol",
  "compiler": {
    "name": "solc",
    "version": "0.8.10+commit.fc410830.Emscripten.clang"
  },
  "schemaVersion": "3.4.10",
  "updatedAt": "2023-01-04T20:54:22.609Z",
  "devdoc": {
    "kind": "dev",
    "methods": {
      "updateEntryPoint(address)": {
        "params": {
          "newEntryPoint": "the new entrypoint to trust."
        }
      },
      "withdrawDepositTo(address,uint256)": {
        "params": {
          "amount": "to withdraw",
          "withdrawAddress": "target to send to"
        }
      }
    },
    "version": 1
  },
  "userdoc": {
    "kind": "user",
    "methods": {
      "addDeposit()": {
        "notice": "deposit more funds for this account in the entryPoint"
      },
      "entryPoint()": {
        "notice": "return the entryPoint used by this account. subclass should return the current entryPoint used by this account."
      },
      "exec(address,uint256,bytes)": {
        "notice": "execute a transaction (called directly from owner, not by entryPoint)"
      },
      "execBatch(address[],bytes[])": {
        "notice": "execute a sequence of transaction"
      },
      "getDeposit()": {
        "notice": "check current account deposit in the entryPoint"
      },
      "nonce()": {
        "notice": "return the account nonce. subclass should return a nonce value that is used both by _validateAndUpdateNonce, and by the external provider (to read the current nonce)"
      },
      "transfer(address,uint256)": {
        "notice": "transfer eth value to a destination address"
      },
      "updateEntryPoint(address)": {
        "notice": "expose an api to modify the entryPoint. must be called by current \"admin\" of the account."
      },
      "validateUserOp((address,uint256,bytes,bytes,uint256,uint256,uint256,uint256,uint256,bytes,bytes),bytes32,address,uint256)": {
        "notice": "Validate user's signature and nonce. subclass doesn't need to override this method. Instead, it should override the specific internal validation methods."
      },
      "withdrawDepositTo(address,uint256)": {
        "notice": "withdraw value from the account's deposit"
      }
    },
    "version": 1
  }
}