{
  "contractName": "TreasuryFactory",
  "abi": [
    {
      "inputs": [
        {
          "internalType": "contract IEntryPoint",
          "name": "entryPoint",
          "type": "address"
        },
        {
          "internalType": "address",
          "name": "owner",
          "type": "address"
        },
        {
          "internalType": "uint256",
          "name": "salt",
          "type": "uint256"
        }
      ],
      "name": "createAccount",
      "outputs": [
        {
          "internalType": "contract Treasury",
          "name": "ret",
          "type": "address"
        }
      ],
      "stateMutability": "nonpayable",
      "type": "function"
    },
    {
      "inputs": [
        {
          "internalType": "contract IEntryPoint",
          "name": "entryPoint",
          "type": "address"
        },
        {
          "internalType": "address",
          "name": "owner",
          "type": "address"
        },
        {
          "internalType": "uint256",
          "name": "salt",
          "type": "uint256"
        }
      ],
      "name": "getAddress",
      "outputs": [
        {
          "internalType": "address",
          "name": "",
          "type": "address"
        }
      ],
      "stateMutability": "view",
      "type": "function"
    }
  ],
  "bytecode": "0x608060405234801561001057600080fd5b50612c22806100206000396000f3fe608060405234801561001057600080fd5b50600436106100365760003560e01c806308a6354e1461003b5780631230aea21461006b575b600080fd5b610055600480360381019061005091906102cc565b61009b565b604051610062919061032e565b60405180910390f35b610085600480360381019061008091906102cc565b61011f565b60405161009291906103a8565b60405180910390f35b60006101168260001b604051806020016100b4906101e8565b6020820181038252601f19601f8201166040525086866040516020016100db9291906103f6565b6040516020818303038152906040526040516020016100fb929190610499565b604051602081830303815290604052805190602001206101a8565b90509392505050565b60008061012d85858561009b565b905060008173ffffffffffffffffffffffffffffffffffffffff163b9050600081111561015e5781925050506101a1565b8360001b8686604051610170906101e8565b61017b9291906103f6565b8190604051809103906000f590508015801561019b573d6000803e3d6000fd5b50925050505b9392505050565b60006101b58383306101bd565b905092915050565b6000604051836040820152846020820152828152600b810160ff815360558120925050509392505050565b61272f806104be83390190565b600080fd5b600073ffffffffffffffffffffffffffffffffffffffff82169050919050565b6000610225826101fa565b9050919050565b60006102378261021a565b9050919050565b6102478161022c565b811461025257600080fd5b50565b6000813590506102648161023e565b92915050565b6102738161021a565b811461027e57600080fd5b50565b6000813590506102908161026a565b92915050565b6000819050919050565b6102a981610296565b81146102b457600080fd5b50565b6000813590506102c6816102a0565b92915050565b6000806000606084860312156102e5576102e46101f5565b5b60006102f386828701610255565b935050602061030486828701610281565b9250506040610315868287016102b7565b9150509250925092565b6103288161021a565b82525050565b6000602082019050610343600083018461031f565b92915050565b6000819050919050565b600061036e610369610364846101fa565b610349565b6101fa565b9050919050565b600061038082610353565b9050919050565b600061039282610375565b9050919050565b6103a281610387565b82525050565b60006020820190506103bd6000830184610399565b92915050565b60006103ce82610353565b9050919050565b60006103e0826103c3565b9050919050565b6103f0816103d5565b82525050565b600060408201905061040b60008301856103e7565b610418602083018461031f565b9392505050565b600081519050919050565b600081905092915050565b60005b83811015610453578082015181840152602081019050610438565b83811115610462576000848401525b50505050565b60006104738261041f565b61047d818561042a565b935061048d818560208601610435565b80840191505092915050565b60006104a58285610468565b91506104b18284610468565b9150819050939250505056fe60806040523480156200001157600080fd5b506040516200272f3803806200272f833981810160405281019062000037919062000170565b81600760006101000a81548173ffffffffffffffffffffffffffffffffffffffff021916908373ffffffffffffffffffffffffffffffffffffffff160217905550806006600c6101000a81548173ffffffffffffffffffffffffffffffffffffffff021916908373ffffffffffffffffffffffffffffffffffffffff1602179055505050620001b7565b600080fd5b600073ffffffffffffffffffffffffffffffffffffffff82169050919050565b6000620000f382620000c6565b9050919050565b60006200010782620000e6565b9050919050565b6200011981620000fa565b81146200012557600080fd5b50565b60008151905062000139816200010e565b92915050565b6200014a81620000e6565b81146200015657600080fd5b50565b6000815190506200016a816200013f565b92915050565b600080604083850312156200018a5762000189620000c1565b5b60006200019a8582860162000128565b9250506020620001ad8582860162000159565b9150509250929050565b61256880620001c76000396000f3fe6080604052600436106101235760003560e01c80639291693f116100a0578063affed0e011610064578063affed0e0146103b5578063b0d691fe146103e0578063c399ec881461040b578063d0cb75fa14610436578063e374e90f1461045f5761012a565b80639291693f146102d45780639ff420b7146102fd578063a9059cbb1461033a578063ab3bfb7a14610363578063ae65c78b1461038c5761012a565b80634a58db19116100e75780634a58db19146102245780634d44560d1461022e5780634fc90d7f1461025757806380c5c7d0146102805780638da5cb5b146102a95761012a565b80630565bb671461012f5780630825d1fc146101585780631b71bb6e1461019557806323b9da82146101be5780633595a80d146101e75761012a565b3661012a57005b600080fd5b34801561013b57600080fd5b50610156600480360381019061015191906115b9565b61049c565b005b34801561016457600080fd5b5061017f600480360381019061017a9190611688565b6104fa565b60405161018c919061171a565b60405180910390f35b3480156101a157600080fd5b506101bc60048036038101906101b79190611735565b610546565b005b3480156101ca57600080fd5b506101e560048036038101906101e09190611735565b61055a565b005b3480156101f357600080fd5b5061020e600480360381019061020991906115b9565b6105b4565b60405161021b91906117fb565b60405180910390f35b61022c61060f565b005b34801561023a57600080fd5b506102556004803603810190610250919061185b565b61068f565b005b34801561026357600080fd5b5061027e6004803603810190610279919061189b565b61070f565b005b34801561028c57600080fd5b506102a760048036038101906102a291906115b9565b6107b0565b005b3480156102b557600080fd5b506102be61080e565b6040516102cb91906118ea565b60405180910390f35b3480156102e057600080fd5b506102fb60048036038101906102f69190611735565b610834565b005b34801561030957600080fd5b50610324600480360381019061031f919061195b565b610897565b60405161033191906117fb565b60405180910390f35b34801561034657600080fd5b50610361600480360381019061035c91906119a8565b61094a565b005b34801561036f57600080fd5b5061038a60048036038101906103859190611735565b610995565b005b34801561039857600080fd5b506103b360048036038101906103ae9190611b18565b6109f8565b005b3480156103c157600080fd5b506103ca610a32565b6040516103d7919061171a565b60405180910390f35b3480156103ec57600080fd5b506103f5610a37565b6040516104029190611bf3565b60405180910390f35b34801561041757600080fd5b50610420610a61565b60405161042d919061171a565b60405180910390f35b34801561044257600080fd5b5061045d60048036038101906104589190611cba565b610ae9565b005b34801561046b57600080fd5b5061048660048036038101906104819190611d3b565b610bfc565b6040516104939190611d83565b60405180910390f35b6104a4610c26565b6104f3848484848080601f016020809104026020016040519081016040528093929190818152602001838380828437600081840152601f19601f82011690508083019250505050505050610cee565b5050505050565b6000610504610db9565b61050f858585610e30565b905060008580604001906105239190611dad565b905014156105355761053485610f76565b5b61053e82610fa9565b949350505050565b61054e611045565b6105578161104f565b50565b60016000808373ffffffffffffffffffffffffffffffffffffffff1673ffffffffffffffffffffffffffffffffffffffff16815260200190815260200160002060006101000a81548160ff02191690831515021790555050565b6060610605858585858080601f016020809104026020016040519081016040528093929190818152602001838380828437600081840152601f19601f82011690508083019250505050505050610cee565b9050949350505050565b6000610619610a37565b73ffffffffffffffffffffffffffffffffffffffff163460405161063c90611e41565b60006040518083038185875af1925050503d8060008114610679576040519150601f19603f3d011682016040523d82523d6000602084013e61067e565b606091505b505090508061068c57600080fd5b50565b610697610c26565b61069f610a37565b73ffffffffffffffffffffffffffffffffffffffff1663205c287883836040518363ffffffff1660e01b81526004016106d9929190611e65565b600060405180830381600087803b1580156106f357600080fd5b505af1158015610707573d6000803e3d6000fd5b505050505050565b610717610c26565b6001600560008473ffffffffffffffffffffffffffffffffffffffff1673ffffffffffffffffffffffffffffffffffffffff16815260200190815260200160002060008373ffffffffffffffffffffffffffffffffffffffff1673ffffffffffffffffffffffffffffffffffffffff16815260200190815260200160002060006101000a81548160ff0219169083151502179055505050565b6107b8610db9565b610807848484848080601f016020809104026020016040519081016040528093929190818152602001838380828437600081840152601f19601f82011690508083019250505050505050610cee565b5050505050565b6006600c9054906101000a900473ffffffffffffffffffffffffffffffffffffffff1681565b61083c610c26565b6000600460008373ffffffffffffffffffffffffffffffffffffffff1673ffffffffffffffffffffffffffffffffffffffff16815260200190815260200160002060006101000a81548160ff02191690831515021790555050565b6060600183836040516108ab929190611ebe565b908152602001604051809103902080546108c490611f06565b80601f01602080910402602001604051908101604052809291908181526020018280546108f090611f06565b801561093d5780601f106109125761010080835404028352916020019161093d565b820191906000526020600020905b81548152906001019060200180831161092057829003601f168201915b5050505050905092915050565b8173ffffffffffffffffffffffffffffffffffffffff166108fc829081150290604051600060405180830381858888f19350505050158015610990573d6000803e3d6000fd5b505050565b61099d610c26565b6001600460008373ffffffffffffffffffffffffffffffffffffffff1673ffffffffffffffffffffffffffffffffffffffff16815260200190815260200160002060006101000a81548160ff02191690831515021790555050565b8060018484604051610a0b929190611ebe565b90815260200160405180910390209080519060200190610a2c929190611409565b50505050565b600090565b6000600760009054906101000a900473ffffffffffffffffffffffffffffffffffffffff16905090565b6000610a6b610a37565b73ffffffffffffffffffffffffffffffffffffffff166370a08231306040518263ffffffff1660e01b8152600401610aa391906118ea565b602060405180830381865afa158015610ac0573d6000803e3d6000fd5b505050506040513d601f19601f82011682018060405250810190610ae49190611f4d565b905090565b610af1610c26565b818190508484905014610b39576040517f08c379a0000000000000000000000000000000000000000000000000000000008152600401610b3090611fd7565b60405180910390fd5b60005b84849050811015610bf557610be1858583818110610b5d57610b5c611ff7565b5b9050602002016020810190610b729190611735565b6000858585818110610b8757610b86611ff7565b5b9050602002810190610b999190611dad565b8080601f016020809104026020016040519081016040528093929190818152602001838380828437600081840152601f19601f82011690508083019250505050505050610cee565b508080610bed90612055565b915050610b3c565b5050505050565b60006003600083815260200190815260200160002060009054906101000a900460ff169050919050565b6006600c9054906101000a900473ffffffffffffffffffffffffffffffffffffffff1673ffffffffffffffffffffffffffffffffffffffff163373ffffffffffffffffffffffffffffffffffffffff161480610cad57503073ffffffffffffffffffffffffffffffffffffffff163373ffffffffffffffffffffffffffffffffffffffff16145b610cec576040517f08c379a0000000000000000000000000000000000000000000000000000000008152600401610ce3906120ea565b60405180910390fd5b565b60606000808573ffffffffffffffffffffffffffffffffffffffff168585604051610d19919061213b565b60006040518083038185875af1925050503d8060008114610d56576040519150601f19603f3d011682016040523d82523d6000602084013e610d5b565b606091505b509150915081610da0576040517f08c379a0000000000000000000000000000000000000000000000000000000008152600401610d979061219e565b60405180910390fd5b81610dad57805160208201fd5b80925050509392505050565b610dc1610a37565b73ffffffffffffffffffffffffffffffffffffffff163373ffffffffffffffffffffffffffffffffffffffff1614610e2e576040517f08c379a0000000000000000000000000000000000000000000000000000000008152600401610e259061220a565b60405180910390fd5b565b600080610e3c8461110f565b9050610ea485806101400190610e529190611dad565b8080601f016020809104026020016040519081016040528093929190818152602001838380828437600081840152601f19601f820116905080830192505050505050508261113f90919063ffffffff16565b73ffffffffffffffffffffffffffffffffffffffff166006600c9054906101000a900473ffffffffffffffffffffffffffffffffffffffff1673ffffffffffffffffffffffffffffffffffffffff161480610f2b5750600073ffffffffffffffffffffffffffffffffffffffff163273ffffffffffffffffffffffffffffffffffffffff16145b610f6a576040517f08c379a0000000000000000000000000000000000000000000000000000000008152600401610f6190612276565b60405180910390fd5b60009150509392505050565b6001600360008360200135815260200190815260200160002060006101000a81548160ff02191690831515021790555050565b600081146110425760003373ffffffffffffffffffffffffffffffffffffffff16827fffffffffffffffffffffffffffffffffffffffffffffffffffffffffffffffff90604051610ff990611e41565b600060405180830381858888f193505050503d8060008114611037576040519150601f19603f3d011682016040523d82523d6000602084013e61103c565b606091505b50509050505b50565b61104d610c26565b565b8073ffffffffffffffffffffffffffffffffffffffff16600760009054906101000a900473ffffffffffffffffffffffffffffffffffffffff1673ffffffffffffffffffffffffffffffffffffffff167f450909c1478d09248269d4ad4fa8cba61ca3f50faed58c7aedefa51c7f62b83a60405160405180910390a380600760006101000a81548173ffffffffffffffffffffffffffffffffffffffff021916908373ffffffffffffffffffffffffffffffffffffffff16021790555050565b6000816040516020016111229190612303565b604051602081830303815290604052805190602001209050919050565b600080600061114e8585611166565b9150915061115b816111b8565b819250505092915050565b6000806041835114156111a85760008060006020860151925060408601519150606086015160001a905061119c87828585611326565b945094505050506111b1565b60006002915091505b9250929050565b600060048111156111cc576111cb612329565b5b8160048111156111df576111de612329565b5b14156111ea57611323565b600160048111156111fe576111fd612329565b5b81600481111561121157611210612329565b5b1415611252576040517f08c379a0000000000000000000000000000000000000000000000000000000008152600401611249906123a4565b60405180910390fd5b6002600481111561126657611265612329565b5b81600481111561127957611278612329565b5b14156112ba576040517f08c379a00000000000000000000000000000000000000000000000000000000081526004016112b190612410565b60405180910390fd5b600360048111156112ce576112cd612329565b5b8160048111156112e1576112e0612329565b5b1415611322576040517f08c379a0000000000000000000000000000000000000000000000000000000008152600401611319906124a2565b60405180910390fd5b5b50565b6000807f7fffffffffffffffffffffffffffffff5d576e7357a4501ddfe92f46681b20a08360001c1115611361576000600391509150611400565b60006001878787876040516000815260200160405260405161138694939291906124ed565b6020604051602081039080840390855afa1580156113a8573d6000803e3d6000fd5b505050602060405103519050600073ffffffffffffffffffffffffffffffffffffffff168173ffffffffffffffffffffffffffffffffffffffff1614156113f757600060019250925050611400565b80600092509250505b94509492505050565b82805461141590611f06565b90600052602060002090601f016020900481019282611437576000855561147e565b82601f1061145057805160ff191683800117855561147e565b8280016001018555821561147e579182015b8281111561147d578251825591602001919060010190611462565b5b50905061148b919061148f565b5090565b5b808211156114a8576000816000905550600101611490565b5090565b6000604051905090565b600080fd5b600080fd5b600073ffffffffffffffffffffffffffffffffffffffff82169050919050565b60006114eb826114c0565b9050919050565b6114fb816114e0565b811461150657600080fd5b50565b600081359050611518816114f2565b92915050565b6000819050919050565b6115318161151e565b811461153c57600080fd5b50565b60008135905061154e81611528565b92915050565b600080fd5b600080fd5b600080fd5b60008083601f84011261157957611578611554565b5b8235905067ffffffffffffffff81111561159657611595611559565b5b6020830191508360018202830111156115b2576115b161155e565b5b9250929050565b600080600080606085870312156115d3576115d26114b6565b5b60006115e187828801611509565b94505060206115f28782880161153f565b935050604085013567ffffffffffffffff811115611613576116126114bb565b5b61161f87828801611563565b925092505092959194509250565b600080fd5b600061016082840312156116495761164861162d565b5b81905092915050565b6000819050919050565b61166581611652565b811461167057600080fd5b50565b6000813590506116828161165c565b92915050565b600080600080608085870312156116a2576116a16114b6565b5b600085013567ffffffffffffffff8111156116c0576116bf6114bb565b5b6116cc87828801611632565b94505060206116dd87828801611673565b93505060406116ee87828801611509565b92505060606116ff8782880161153f565b91505092959194509250565b6117148161151e565b82525050565b600060208201905061172f600083018461170b565b92915050565b60006020828403121561174b5761174a6114b6565b5b600061175984828501611509565b91505092915050565b600081519050919050565b600082825260208201905092915050565b60005b8381101561179c578082015181840152602081019050611781565b838111156117ab576000848401525b50505050565b6000601f19601f8301169050919050565b60006117cd82611762565b6117d7818561176d565b93506117e781856020860161177e565b6117f0816117b1565b840191505092915050565b6000602082019050818103600083015261181581846117c2565b905092915050565b6000611828826114c0565b9050919050565b6118388161181d565b811461184357600080fd5b50565b6000813590506118558161182f565b92915050565b60008060408385031215611872576118716114b6565b5b600061188085828601611846565b92505060206118918582860161153f565b9150509250929050565b600080604083850312156118b2576118b16114b6565b5b60006118c085828601611509565b92505060206118d185828601611509565b9150509250929050565b6118e4816114e0565b82525050565b60006020820190506118ff60008301846118db565b92915050565b60008083601f84011261191b5761191a611554565b5b8235905067ffffffffffffffff81111561193857611937611559565b5b6020830191508360018202830111156119545761195361155e565b5b9250929050565b60008060208385031215611972576119716114b6565b5b600083013567ffffffffffffffff8111156119905761198f6114bb565b5b61199c85828601611905565b92509250509250929050565b600080604083850312156119bf576119be6114b6565b5b60006119cd85828601611509565b92505060206119de8582860161153f565b9150509250929050565b600080fd5b7f4e487b7100000000000000000000000000000000000000000000000000000000600052604160045260246000fd5b611a25826117b1565b810181811067ffffffffffffffff82111715611a4457611a436119ed565b5b80604052505050565b6000611a576114ac565b9050611a638282611a1c565b919050565b600067ffffffffffffffff821115611a8357611a826119ed565b5b611a8c826117b1565b9050602081019050919050565b82818337600083830152505050565b6000611abb611ab684611a68565b611a4d565b905082815260208101848484011115611ad757611ad66119e8565b5b611ae2848285611a99565b509392505050565b600082601f830112611aff57611afe611554565b5b8135611b0f848260208601611aa8565b91505092915050565b600080600060408486031215611b3157611b306114b6565b5b600084013567ffffffffffffffff811115611b4f57611b4e6114bb565b5b611b5b86828701611905565b9350935050602084013567ffffffffffffffff811115611b7e57611b7d6114bb565b5b611b8a86828701611aea565b9150509250925092565b6000819050919050565b6000611bb9611bb4611baf846114c0565b611b94565b6114c0565b9050919050565b6000611bcb82611b9e565b9050919050565b6000611bdd82611bc0565b9050919050565b611bed81611bd2565b82525050565b6000602082019050611c086000830184611be4565b92915050565b60008083601f840112611c2457611c23611554565b5b8235905067ffffffffffffffff811115611c4157611c40611559565b5b602083019150836020820283011115611c5d57611c5c61155e565b5b9250929050565b60008083601f840112611c7a57611c79611554565b5b8235905067ffffffffffffffff811115611c9757611c96611559565b5b602083019150836020820283011115611cb357611cb261155e565b5b9250929050565b60008060008060408587031215611cd457611cd36114b6565b5b600085013567ffffffffffffffff811115611cf257611cf16114bb565b5b611cfe87828801611c0e565b9450945050602085013567ffffffffffffffff811115611d2157611d206114bb565b5b611d2d87828801611c64565b925092505092959194509250565b600060208284031215611d5157611d506114b6565b5b6000611d5f8482850161153f565b91505092915050565b60008115159050919050565b611d7d81611d68565b82525050565b6000602082019050611d986000830184611d74565b92915050565b600080fd5b600080fd5b600080fd5b60008083356001602003843603038112611dca57611dc9611d9e565b5b80840192508235915067ffffffffffffffff821115611dec57611deb611da3565b5b602083019250600182023603831315611e0857611e07611da8565b5b509250929050565b600081905092915050565b50565b6000611e2b600083611e10565b9150611e3682611e1b565b600082019050919050565b6000611e4c82611e1e565b9150819050919050565b611e5f8161181d565b82525050565b6000604082019050611e7a6000830185611e56565b611e87602083018461170b565b9392505050565b600081905092915050565b6000611ea58385611e8e565b9350611eb2838584611a99565b82840190509392505050565b6000611ecb828486611e99565b91508190509392505050565b7f4e487b7100000000000000000000000000000000000000000000000000000000600052602260045260246000fd5b60006002820490506001821680611f1e57607f821691505b60208210811415611f3257611f31611ed7565b5b50919050565b600081519050611f4781611528565b92915050565b600060208284031215611f6357611f626114b6565b5b6000611f7184828501611f38565b91505092915050565b600082825260208201905092915050565b7f77726f6e67206172726179206c656e6774687300000000000000000000000000600082015250565b6000611fc1601383611f7a565b9150611fcc82611f8b565b602082019050919050565b60006020820190508181036000830152611ff081611fb4565b9050919050565b7f4e487b7100000000000000000000000000000000000000000000000000000000600052603260045260246000fd5b7f4e487b7100000000000000000000000000000000000000000000000000000000600052601160045260246000fd5b60006120608261151e565b91507fffffffffffffffffffffffffffffffffffffffffffffffffffffffffffffffff82141561209357612092612026565b5b600182019050919050565b7f6f6e6c79206f776e657200000000000000000000000000000000000000000000600082015250565b60006120d4600a83611f7a565b91506120df8261209e565b602082019050919050565b60006020820190508181036000830152612103816120c7565b9050919050565b600061211582611762565b61211f8185611e10565b935061212f81856020860161177e565b80840191505092915050565b6000612147828461210a565b915081905092915050565b7f45787465726e616c2043616c6c204661696c6564000000000000000000000000600082015250565b6000612188601483611f7a565b915061219382612152565b602082019050919050565b600060208201905081810360008301526121b78161217b565b9050919050565b7f6163636f756e743a206e6f742066726f6d20456e747279506f696e7400000000600082015250565b60006121f4601c83611f7a565b91506121ff826121be565b602082019050919050565b60006020820190508181036000830152612223816121e7565b9050919050565b7f6163636f756e743a2077726f6e67207369676e61747572650000000000000000600082015250565b6000612260601883611f7a565b915061226b8261222a565b602082019050919050565b6000602082019050818103600083015261228f81612253565b9050919050565b7f19457468657265756d205369676e6564204d6573736167653a0a333200000000600082015250565b60006122cc601c83611e8e565b91506122d782612296565b601c82019050919050565b6000819050919050565b6122fd6122f882611652565b6122e2565b82525050565b600061230e826122bf565b915061231a82846122ec565b60208201915081905092915050565b7f4e487b7100000000000000000000000000000000000000000000000000000000600052602160045260246000fd5b7f45434453413a20696e76616c6964207369676e61747572650000000000000000600082015250565b600061238e601883611f7a565b915061239982612358565b602082019050919050565b600060208201905081810360008301526123bd81612381565b9050919050565b7f45434453413a20696e76616c6964207369676e6174757265206c656e67746800600082015250565b60006123fa601f83611f7a565b9150612405826123c4565b602082019050919050565b60006020820190508181036000830152612429816123ed565b9050919050565b7f45434453413a20696e76616c6964207369676e6174757265202773272076616c60008201527f7565000000000000000000000000000000000000000000000000000000000000602082015250565b600061248c602283611f7a565b915061249782612430565b604082019050919050565b600060208201905081810360008301526124bb8161247f565b9050919050565b6124cb81611652565b82525050565b600060ff82169050919050565b6124e7816124d1565b82525050565b600060808201905061250260008301876124c2565b61250f60208301866124de565b61251c60408301856124c2565b61252960608301846124c2565b9594505050505056fea2646970667358221220268c30ce68720db4256ebb78dd60ce7cb8cb93cfb1ff06d639db40e60f0a9efe64736f6c634300080a0033a2646970667358221220853c714283091e191c5b4493f0b12201654164471ad64cd549a96273022451f964736f6c634300080a0033",
  "immutableReferences": {},
  "source": "// SPDX-License-Identifier: UNLICENSED\npragma solidity ^0.8.0;\n\nimport \"@openzeppelin/contracts/utils/Create2.sol\";\nimport \"../wallet/Treasury.sol\";\nimport \"../lib/interfaces/IEntryPoint.sol\";\n\ncontract TreasuryFactory {\n    /**\n     * create an account, and return its address.\n     * returns the address even if the account is already deployed.\n     * Note that during UserOperation execution, this method is called only if the account is not deployed.\n     * This method returns an existing account address so that entryPoint.getSenderAddress() would work even after account creation\n     */\n    function createAccount(\n        IEntryPoint entryPoint,\n        address owner,\n        uint256 salt\n    ) public returns (Treasury ret) {\n        address addr = getAddress(entryPoint, owner, salt);\n        uint256 codeSize = addr.code.length;\n        if (codeSize > 0) {\n            return Treasury(payable(addr));\n        }\n        ret = new Treasury{salt: bytes32(salt)}(entryPoint, owner);\n    }\n\n    /**\n     * calculate the counterfactual address of this account as it would be returned by createAccount()\n     */\n    function getAddress(\n        IEntryPoint entryPoint,\n        address owner,\n        uint256 salt\n    ) public view returns (address) {\n        return\n            Create2.computeAddress(\n                bytes32(salt),\n                keccak256(\n                    abi.encodePacked(\n                        type(Treasury).creationCode,\n                        abi.encode(entryPoint, owner)\n                    )\n                )\n            );\n    }\n}\n",
  "sourcePath": "/Users/calebsirak/fun/wallet-sdk-v1/web3/contracts/factory/TreasuryFactory.sol",
  "compiler": {
    "name": "solc",
    "version": "0.8.10+commit.fc410830.Emscripten.clang"
  },
  "schemaVersion": "3.4.10",
  "updatedAt": "2023-01-06T10:49:13.119Z",
  "devdoc": {
    "kind": "dev",
    "methods": {},
    "version": 1
  },
  "userdoc": {
    "kind": "user",
    "methods": {
      "createAccount(address,address,uint256)": {
        "notice": "create an account, and return its address. returns the address even if the account is already deployed. Note that during UserOperation execution, this method is called only if the account is not deployed. This method returns an existing account address so that entryPoint.getSenderAddress() would work even after account creation"
      },
      "getAddress(address,address,uint256)": {
        "notice": "calculate the counterfactual address of this account as it would be returned by createAccount()"
      }
    },
    "version": 1
  }
}