{
  "contractName": "Treasury",
  "abi": [
    {
      "inputs": [
        {
          "internalType": "contract IEntryPoint",
          "name": "anEntryPoint",
          "type": "address"
        },
        {
          "internalType": "address",
          "name": "anOwner",
          "type": "address"
        }
      ],
      "stateMutability": "nonpayable",
      "type": "constructor"
    },
    {
      "anonymous": false,
      "inputs": [
        {
          "indexed": true,
          "internalType": "address",
          "name": "oldEntryPoint",
          "type": "address"
        },
        {
          "indexed": true,
          "internalType": "address",
          "name": "newEntryPoint",
          "type": "address"
        }
      ],
      "name": "EntryPointChanged",
      "type": "event"
    },
    {
      "inputs": [],
      "name": "owner",
      "outputs": [
        {
          "internalType": "address",
          "name": "",
          "type": "address"
        }
      ],
      "stateMutability": "view",
      "type": "function"
    },
    {
      "inputs": [
        {
          "internalType": "address",
          "name": "newEntryPoint",
          "type": "address"
        }
      ],
      "name": "updateEntryPoint",
      "outputs": [],
      "stateMutability": "nonpayable",
      "type": "function"
    },
    {
      "inputs": [
        {
          "components": [
            {
              "internalType": "address",
              "name": "sender",
              "type": "address"
            },
            {
              "internalType": "uint256",
              "name": "nonce",
              "type": "uint256"
            },
            {
              "internalType": "bytes",
              "name": "initCode",
              "type": "bytes"
            },
            {
              "internalType": "bytes",
              "name": "callData",
              "type": "bytes"
            },
            {
              "internalType": "uint256",
              "name": "callGasLimit",
              "type": "uint256"
            },
            {
              "internalType": "uint256",
              "name": "verificationGasLimit",
              "type": "uint256"
            },
            {
              "internalType": "uint256",
              "name": "preVerificationGas",
              "type": "uint256"
            },
            {
              "internalType": "uint256",
              "name": "maxFeePerGas",
              "type": "uint256"
            },
            {
              "internalType": "uint256",
              "name": "maxPriorityFeePerGas",
              "type": "uint256"
            },
            {
              "internalType": "bytes",
              "name": "paymasterAndData",
              "type": "bytes"
            },
            {
              "internalType": "bytes",
              "name": "signature",
              "type": "bytes"
            }
          ],
          "internalType": "struct UserOperation",
          "name": "userOp",
          "type": "tuple"
        },
        {
          "internalType": "bytes32",
          "name": "userOpHash",
          "type": "bytes32"
        },
        {
          "internalType": "address",
          "name": "aggregator",
          "type": "address"
        },
        {
          "internalType": "uint256",
          "name": "missingAccountFunds",
          "type": "uint256"
        }
      ],
      "name": "validateUserOp",
      "outputs": [
        {
          "internalType": "uint256",
          "name": "deadline",
          "type": "uint256"
        }
      ],
      "stateMutability": "nonpayable",
      "type": "function"
    },
    {
      "stateMutability": "payable",
      "type": "receive"
    },
    {
      "inputs": [
        {
          "internalType": "address",
          "name": "addr",
          "type": "address"
        },
        {
          "internalType": "uint256",
          "name": "value",
          "type": "uint256"
        },
        {
          "internalType": "bytes",
          "name": "data",
          "type": "bytes"
        }
      ],
      "name": "callOp",
      "outputs": [
        {
          "internalType": "bytes",
          "name": "",
          "type": "bytes"
        }
      ],
      "stateMutability": "nonpayable",
      "type": "function"
    },
    {
      "inputs": [
        {
          "internalType": "string",
          "name": "key",
          "type": "string"
        }
      ],
      "name": "getStateVal",
      "outputs": [
        {
          "internalType": "bytes",
          "name": "",
          "type": "bytes"
        }
      ],
      "stateMutability": "view",
      "type": "function"
    },
    {
      "inputs": [
        {
          "internalType": "string",
          "name": "key",
          "type": "string"
        },
        {
          "internalType": "bytes",
          "name": "data",
          "type": "bytes"
        }
      ],
      "name": "updateStateVal",
      "outputs": [],
      "stateMutability": "nonpayable",
      "type": "function"
    },
    {
      "inputs": [],
      "name": "nonce",
      "outputs": [
        {
          "internalType": "uint256",
          "name": "",
          "type": "uint256"
        }
      ],
      "stateMutability": "view",
      "type": "function"
    },
    {
      "inputs": [
        {
          "internalType": "uint256",
          "name": "attempt",
          "type": "uint256"
        }
      ],
      "name": "checkNonce",
      "outputs": [
        {
          "internalType": "bool",
          "name": "",
          "type": "bool"
        }
      ],
      "stateMutability": "view",
      "type": "function"
    },
    {
      "inputs": [],
      "name": "entryPoint",
      "outputs": [
        {
          "internalType": "contract IEntryPoint",
          "name": "",
          "type": "address"
        }
      ],
      "stateMutability": "view",
      "type": "function"
    },
    {
      "inputs": [
        {
          "internalType": "address",
          "name": "user",
          "type": "address"
        }
      ],
      "name": "addAccessToUser",
      "outputs": [],
      "stateMutability": "nonpayable",
      "type": "function"
    },
    {
      "inputs": [
        {
          "internalType": "address",
          "name": "user",
          "type": "address"
        }
      ],
      "name": "removeAccessFromUser",
      "outputs": [],
      "stateMutability": "nonpayable",
      "type": "function"
    },
    {
      "inputs": [
        {
          "internalType": "address",
          "name": "user",
          "type": "address"
        },
        {
          "internalType": "address",
          "name": "actionAddress",
          "type": "address"
        }
      ],
      "name": "addActionToUser",
      "outputs": [],
      "stateMutability": "nonpayable",
      "type": "function"
    },
    {
      "inputs": [
        {
          "internalType": "address",
          "name": "actionAddress",
          "type": "address"
        }
      ],
      "name": "addAction",
      "outputs": [],
      "stateMutability": "nonpayable",
      "type": "function"
    },
    {
      "inputs": [
        {
          "internalType": "address",
          "name": "dest",
          "type": "address"
        },
        {
          "internalType": "uint256",
          "name": "amount",
          "type": "uint256"
        }
      ],
      "name": "transfer",
      "outputs": [],
      "stateMutability": "nonpayable",
      "type": "function"
    },
    {
      "inputs": [
        {
          "internalType": "address",
          "name": "dest",
          "type": "address"
        },
        {
          "internalType": "uint256",
          "name": "value",
          "type": "uint256"
        },
        {
          "internalType": "bytes",
          "name": "func",
          "type": "bytes"
        }
      ],
      "name": "exec",
      "outputs": [],
      "stateMutability": "nonpayable",
      "type": "function"
    },
    {
      "inputs": [
        {
          "internalType": "address[]",
          "name": "dest",
          "type": "address[]"
        },
        {
          "internalType": "bytes[]",
          "name": "func",
          "type": "bytes[]"
        }
      ],
      "name": "execBatch",
      "outputs": [],
      "stateMutability": "nonpayable",
      "type": "function"
    },
    {
      "inputs": [
        {
          "internalType": "address",
          "name": "dest",
          "type": "address"
        },
        {
          "internalType": "uint256",
          "name": "value",
          "type": "uint256"
        },
        {
          "internalType": "bytes",
          "name": "func",
          "type": "bytes"
        }
      ],
      "name": "execFromEntryPoint",
      "outputs": [],
      "stateMutability": "nonpayable",
      "type": "function"
    },
    {
      "inputs": [],
      "name": "getDeposit",
      "outputs": [
        {
          "internalType": "uint256",
          "name": "",
          "type": "uint256"
        }
      ],
      "stateMutability": "view",
      "type": "function"
    },
    {
      "inputs": [],
      "name": "addDeposit",
      "outputs": [],
      "stateMutability": "payable",
      "type": "function"
    },
    {
      "inputs": [
        {
          "internalType": "address payable",
          "name": "withdrawAddress",
          "type": "address"
        },
        {
          "internalType": "uint256",
          "name": "amount",
          "type": "uint256"
        }
      ],
      "name": "withdrawDepositTo",
      "outputs": [],
      "stateMutability": "nonpayable",
      "type": "function"
    }
  ],
  "bytecode": "0x60806040523480156200001157600080fd5b506040516200272f3803806200272f833981810160405281019062000037919062000170565b81600760006101000a81548173ffffffffffffffffffffffffffffffffffffffff021916908373ffffffffffffffffffffffffffffffffffffffff160217905550806006600c6101000a81548173ffffffffffffffffffffffffffffffffffffffff021916908373ffffffffffffffffffffffffffffffffffffffff1602179055505050620001b7565b600080fd5b600073ffffffffffffffffffffffffffffffffffffffff82169050919050565b6000620000f382620000c6565b9050919050565b60006200010782620000e6565b9050919050565b6200011981620000fa565b81146200012557600080fd5b50565b60008151905062000139816200010e565b92915050565b6200014a81620000e6565b81146200015657600080fd5b50565b6000815190506200016a816200013f565b92915050565b600080604083850312156200018a5762000189620000c1565b5b60006200019a8582860162000128565b9250506020620001ad8582860162000159565b9150509250929050565b61256880620001c76000396000f3fe6080604052600436106101235760003560e01c80639291693f116100a0578063affed0e011610064578063affed0e0146103b5578063b0d691fe146103e0578063c399ec881461040b578063d0cb75fa14610436578063e374e90f1461045f5761012a565b80639291693f146102d45780639ff420b7146102fd578063a9059cbb1461033a578063ab3bfb7a14610363578063ae65c78b1461038c5761012a565b80634a58db19116100e75780634a58db19146102245780634d44560d1461022e5780634fc90d7f1461025757806380c5c7d0146102805780638da5cb5b146102a95761012a565b80630565bb671461012f5780630825d1fc146101585780631b71bb6e1461019557806323b9da82146101be5780633595a80d146101e75761012a565b3661012a57005b600080fd5b34801561013b57600080fd5b50610156600480360381019061015191906115b9565b61049c565b005b34801561016457600080fd5b5061017f600480360381019061017a9190611688565b6104fa565b60405161018c919061171a565b60405180910390f35b3480156101a157600080fd5b506101bc60048036038101906101b79190611735565b610546565b005b3480156101ca57600080fd5b506101e560048036038101906101e09190611735565b61055a565b005b3480156101f357600080fd5b5061020e600480360381019061020991906115b9565b6105b4565b60405161021b91906117fb565b60405180910390f35b61022c61060f565b005b34801561023a57600080fd5b506102556004803603810190610250919061185b565b61068f565b005b34801561026357600080fd5b5061027e6004803603810190610279919061189b565b61070f565b005b34801561028c57600080fd5b506102a760048036038101906102a291906115b9565b6107b0565b005b3480156102b557600080fd5b506102be61080e565b6040516102cb91906118ea565b60405180910390f35b3480156102e057600080fd5b506102fb60048036038101906102f69190611735565b610834565b005b34801561030957600080fd5b50610324600480360381019061031f919061195b565b610897565b60405161033191906117fb565b60405180910390f35b34801561034657600080fd5b50610361600480360381019061035c91906119a8565b61094a565b005b34801561036f57600080fd5b5061038a60048036038101906103859190611735565b610995565b005b34801561039857600080fd5b506103b360048036038101906103ae9190611b18565b6109f8565b005b3480156103c157600080fd5b506103ca610a32565b6040516103d7919061171a565b60405180910390f35b3480156103ec57600080fd5b506103f5610a37565b6040516104029190611bf3565b60405180910390f35b34801561041757600080fd5b50610420610a61565b60405161042d919061171a565b60405180910390f35b34801561044257600080fd5b5061045d60048036038101906104589190611cba565b610ae9565b005b34801561046b57600080fd5b5061048660048036038101906104819190611d3b565b610bfc565b6040516104939190611d83565b60405180910390f35b6104a4610c26565b6104f3848484848080601f016020809104026020016040519081016040528093929190818152602001838380828437600081840152601f19601f82011690508083019250505050505050610cee565b5050505050565b6000610504610db9565b61050f858585610e30565b905060008580604001906105239190611dad565b905014156105355761053485610f76565b5b61053e82610fa9565b949350505050565b61054e611045565b6105578161104f565b50565b60016000808373ffffffffffffffffffffffffffffffffffffffff1673ffffffffffffffffffffffffffffffffffffffff16815260200190815260200160002060006101000a81548160ff02191690831515021790555050565b6060610605858585858080601f016020809104026020016040519081016040528093929190818152602001838380828437600081840152601f19601f82011690508083019250505050505050610cee565b9050949350505050565b6000610619610a37565b73ffffffffffffffffffffffffffffffffffffffff163460405161063c90611e41565b60006040518083038185875af1925050503d8060008114610679576040519150601f19603f3d011682016040523d82523d6000602084013e61067e565b606091505b505090508061068c57600080fd5b50565b610697610c26565b61069f610a37565b73ffffffffffffffffffffffffffffffffffffffff1663205c287883836040518363ffffffff1660e01b81526004016106d9929190611e65565b600060405180830381600087803b1580156106f357600080fd5b505af1158015610707573d6000803e3d6000fd5b505050505050565b610717610c26565b6001600560008473ffffffffffffffffffffffffffffffffffffffff1673ffffffffffffffffffffffffffffffffffffffff16815260200190815260200160002060008373ffffffffffffffffffffffffffffffffffffffff1673ffffffffffffffffffffffffffffffffffffffff16815260200190815260200160002060006101000a81548160ff0219169083151502179055505050565b6107b8610db9565b610807848484848080601f016020809104026020016040519081016040528093929190818152602001838380828437600081840152601f19601f82011690508083019250505050505050610cee565b5050505050565b6006600c9054906101000a900473ffffffffffffffffffffffffffffffffffffffff1681565b61083c610c26565b6000600460008373ffffffffffffffffffffffffffffffffffffffff1673ffffffffffffffffffffffffffffffffffffffff16815260200190815260200160002060006101000a81548160ff02191690831515021790555050565b6060600183836040516108ab929190611ebe565b908152602001604051809103902080546108c490611f06565b80601f01602080910402602001604051908101604052809291908181526020018280546108f090611f06565b801561093d5780601f106109125761010080835404028352916020019161093d565b820191906000526020600020905b81548152906001019060200180831161092057829003601f168201915b5050505050905092915050565b8173ffffffffffffffffffffffffffffffffffffffff166108fc829081150290604051600060405180830381858888f19350505050158015610990573d6000803e3d6000fd5b505050565b61099d610c26565b6001600460008373ffffffffffffffffffffffffffffffffffffffff1673ffffffffffffffffffffffffffffffffffffffff16815260200190815260200160002060006101000a81548160ff02191690831515021790555050565b8060018484604051610a0b929190611ebe565b90815260200160405180910390209080519060200190610a2c929190611409565b50505050565b600090565b6000600760009054906101000a900473ffffffffffffffffffffffffffffffffffffffff16905090565b6000610a6b610a37565b73ffffffffffffffffffffffffffffffffffffffff166370a08231306040518263ffffffff1660e01b8152600401610aa391906118ea565b602060405180830381865afa158015610ac0573d6000803e3d6000fd5b505050506040513d601f19601f82011682018060405250810190610ae49190611f4d565b905090565b610af1610c26565b818190508484905014610b39576040517f08c379a0000000000000000000000000000000000000000000000000000000008152600401610b3090611fd7565b60405180910390fd5b60005b84849050811015610bf557610be1858583818110610b5d57610b5c611ff7565b5b9050602002016020810190610b729190611735565b6000858585818110610b8757610b86611ff7565b5b9050602002810190610b999190611dad565b8080601f016020809104026020016040519081016040528093929190818152602001838380828437600081840152601f19601f82011690508083019250505050505050610cee565b508080610bed90612055565b915050610b3c565b5050505050565b60006003600083815260200190815260200160002060009054906101000a900460ff169050919050565b6006600c9054906101000a900473ffffffffffffffffffffffffffffffffffffffff1673ffffffffffffffffffffffffffffffffffffffff163373ffffffffffffffffffffffffffffffffffffffff161480610cad57503073ffffffffffffffffffffffffffffffffffffffff163373ffffffffffffffffffffffffffffffffffffffff16145b610cec576040517f08c379a0000000000000000000000000000000000000000000000000000000008152600401610ce3906120ea565b60405180910390fd5b565b60606000808573ffffffffffffffffffffffffffffffffffffffff168585604051610d19919061213b565b60006040518083038185875af1925050503d8060008114610d56576040519150601f19603f3d011682016040523d82523d6000602084013e610d5b565b606091505b509150915081610da0576040517f08c379a0000000000000000000000000000000000000000000000000000000008152600401610d979061219e565b60405180910390fd5b81610dad57805160208201fd5b80925050509392505050565b610dc1610a37565b73ffffffffffffffffffffffffffffffffffffffff163373ffffffffffffffffffffffffffffffffffffffff1614610e2e576040517f08c379a0000000000000000000000000000000000000000000000000000000008152600401610e259061220a565b60405180910390fd5b565b600080610e3c8461110f565b9050610ea485806101400190610e529190611dad565b8080601f016020809104026020016040519081016040528093929190818152602001838380828437600081840152601f19601f820116905080830192505050505050508261113f90919063ffffffff16565b73ffffffffffffffffffffffffffffffffffffffff166006600c9054906101000a900473ffffffffffffffffffffffffffffffffffffffff1673ffffffffffffffffffffffffffffffffffffffff161480610f2b5750600073ffffffffffffffffffffffffffffffffffffffff163273ffffffffffffffffffffffffffffffffffffffff16145b610f6a576040517f08c379a0000000000000000000000000000000000000000000000000000000008152600401610f6190612276565b60405180910390fd5b60009150509392505050565b6001600360008360200135815260200190815260200160002060006101000a81548160ff02191690831515021790555050565b600081146110425760003373ffffffffffffffffffffffffffffffffffffffff16827fffffffffffffffffffffffffffffffffffffffffffffffffffffffffffffffff90604051610ff990611e41565b600060405180830381858888f193505050503d8060008114611037576040519150601f19603f3d011682016040523d82523d6000602084013e61103c565b606091505b50509050505b50565b61104d610c26565b565b8073ffffffffffffffffffffffffffffffffffffffff16600760009054906101000a900473ffffffffffffffffffffffffffffffffffffffff1673ffffffffffffffffffffffffffffffffffffffff167f450909c1478d09248269d4ad4fa8cba61ca3f50faed58c7aedefa51c7f62b83a60405160405180910390a380600760006101000a81548173ffffffffffffffffffffffffffffffffffffffff021916908373ffffffffffffffffffffffffffffffffffffffff16021790555050565b6000816040516020016111229190612303565b604051602081830303815290604052805190602001209050919050565b600080600061114e8585611166565b9150915061115b816111b8565b819250505092915050565b6000806041835114156111a85760008060006020860151925060408601519150606086015160001a905061119c87828585611326565b945094505050506111b1565b60006002915091505b9250929050565b600060048111156111cc576111cb612329565b5b8160048111156111df576111de612329565b5b14156111ea57611323565b600160048111156111fe576111fd612329565b5b81600481111561121157611210612329565b5b1415611252576040517f08c379a0000000000000000000000000000000000000000000000000000000008152600401611249906123a4565b60405180910390fd5b6002600481111561126657611265612329565b5b81600481111561127957611278612329565b5b14156112ba576040517f08c379a00000000000000000000000000000000000000000000000000000000081526004016112b190612410565b60405180910390fd5b600360048111156112ce576112cd612329565b5b8160048111156112e1576112e0612329565b5b1415611322576040517f08c379a0000000000000000000000000000000000000000000000000000000008152600401611319906124a2565b60405180910390fd5b5b50565b6000807f7fffffffffffffffffffffffffffffff5d576e7357a4501ddfe92f46681b20a08360001c1115611361576000600391509150611400565b60006001878787876040516000815260200160405260405161138694939291906124ed565b6020604051602081039080840390855afa1580156113a8573d6000803e3d6000fd5b505050602060405103519050600073ffffffffffffffffffffffffffffffffffffffff168173ffffffffffffffffffffffffffffffffffffffff1614156113f757600060019250925050611400565b80600092509250505b94509492505050565b82805461141590611f06565b90600052602060002090601f016020900481019282611437576000855561147e565b82601f1061145057805160ff191683800117855561147e565b8280016001018555821561147e579182015b8281111561147d578251825591602001919060010190611462565b5b50905061148b919061148f565b5090565b5b808211156114a8576000816000905550600101611490565b5090565b6000604051905090565b600080fd5b600080fd5b600073ffffffffffffffffffffffffffffffffffffffff82169050919050565b60006114eb826114c0565b9050919050565b6114fb816114e0565b811461150657600080fd5b50565b600081359050611518816114f2565b92915050565b6000819050919050565b6115318161151e565b811461153c57600080fd5b50565b60008135905061154e81611528565b92915050565b600080fd5b600080fd5b600080fd5b60008083601f84011261157957611578611554565b5b8235905067ffffffffffffffff81111561159657611595611559565b5b6020830191508360018202830111156115b2576115b161155e565b5b9250929050565b600080600080606085870312156115d3576115d26114b6565b5b60006115e187828801611509565b94505060206115f28782880161153f565b935050604085013567ffffffffffffffff811115611613576116126114bb565b5b61161f87828801611563565b925092505092959194509250565b600080fd5b600061016082840312156116495761164861162d565b5b81905092915050565b6000819050919050565b61166581611652565b811461167057600080fd5b50565b6000813590506116828161165c565b92915050565b600080600080608085870312156116a2576116a16114b6565b5b600085013567ffffffffffffffff8111156116c0576116bf6114bb565b5b6116cc87828801611632565b94505060206116dd87828801611673565b93505060406116ee87828801611509565b92505060606116ff8782880161153f565b91505092959194509250565b6117148161151e565b82525050565b600060208201905061172f600083018461170b565b92915050565b60006020828403121561174b5761174a6114b6565b5b600061175984828501611509565b91505092915050565b600081519050919050565b600082825260208201905092915050565b60005b8381101561179c578082015181840152602081019050611781565b838111156117ab576000848401525b50505050565b6000601f19601f8301169050919050565b60006117cd82611762565b6117d7818561176d565b93506117e781856020860161177e565b6117f0816117b1565b840191505092915050565b6000602082019050818103600083015261181581846117c2565b905092915050565b6000611828826114c0565b9050919050565b6118388161181d565b811461184357600080fd5b50565b6000813590506118558161182f565b92915050565b60008060408385031215611872576118716114b6565b5b600061188085828601611846565b92505060206118918582860161153f565b9150509250929050565b600080604083850312156118b2576118b16114b6565b5b60006118c085828601611509565b92505060206118d185828601611509565b9150509250929050565b6118e4816114e0565b82525050565b60006020820190506118ff60008301846118db565b92915050565b60008083601f84011261191b5761191a611554565b5b8235905067ffffffffffffffff81111561193857611937611559565b5b6020830191508360018202830111156119545761195361155e565b5b9250929050565b60008060208385031215611972576119716114b6565b5b600083013567ffffffffffffffff8111156119905761198f6114bb565b5b61199c85828601611905565b92509250509250929050565b600080604083850312156119bf576119be6114b6565b5b60006119cd85828601611509565b92505060206119de8582860161153f565b9150509250929050565b600080fd5b7f4e487b7100000000000000000000000000000000000000000000000000000000600052604160045260246000fd5b611a25826117b1565b810181811067ffffffffffffffff82111715611a4457611a436119ed565b5b80604052505050565b6000611a576114ac565b9050611a638282611a1c565b919050565b600067ffffffffffffffff821115611a8357611a826119ed565b5b611a8c826117b1565b9050602081019050919050565b82818337600083830152505050565b6000611abb611ab684611a68565b611a4d565b905082815260208101848484011115611ad757611ad66119e8565b5b611ae2848285611a99565b509392505050565b600082601f830112611aff57611afe611554565b5b8135611b0f848260208601611aa8565b91505092915050565b600080600060408486031215611b3157611b306114b6565b5b600084013567ffffffffffffffff811115611b4f57611b4e6114bb565b5b611b5b86828701611905565b9350935050602084013567ffffffffffffffff811115611b7e57611b7d6114bb565b5b611b8a86828701611aea565b9150509250925092565b6000819050919050565b6000611bb9611bb4611baf846114c0565b611b94565b6114c0565b9050919050565b6000611bcb82611b9e565b9050919050565b6000611bdd82611bc0565b9050919050565b611bed81611bd2565b82525050565b6000602082019050611c086000830184611be4565b92915050565b60008083601f840112611c2457611c23611554565b5b8235905067ffffffffffffffff811115611c4157611c40611559565b5b602083019150836020820283011115611c5d57611c5c61155e565b5b9250929050565b60008083601f840112611c7a57611c79611554565b5b8235905067ffffffffffffffff811115611c9757611c96611559565b5b602083019150836020820283011115611cb357611cb261155e565b5b9250929050565b60008060008060408587031215611cd457611cd36114b6565b5b600085013567ffffffffffffffff811115611cf257611cf16114bb565b5b611cfe87828801611c0e565b9450945050602085013567ffffffffffffffff811115611d2157611d206114bb565b5b611d2d87828801611c64565b925092505092959194509250565b600060208284031215611d5157611d506114b6565b5b6000611d5f8482850161153f565b91505092915050565b60008115159050919050565b611d7d81611d68565b82525050565b6000602082019050611d986000830184611d74565b92915050565b600080fd5b600080fd5b600080fd5b60008083356001602003843603038112611dca57611dc9611d9e565b5b80840192508235915067ffffffffffffffff821115611dec57611deb611da3565b5b602083019250600182023603831315611e0857611e07611da8565b5b509250929050565b600081905092915050565b50565b6000611e2b600083611e10565b9150611e3682611e1b565b600082019050919050565b6000611e4c82611e1e565b9150819050919050565b611e5f8161181d565b82525050565b6000604082019050611e7a6000830185611e56565b611e87602083018461170b565b9392505050565b600081905092915050565b6000611ea58385611e8e565b9350611eb2838584611a99565b82840190509392505050565b6000611ecb828486611e99565b91508190509392505050565b7f4e487b7100000000000000000000000000000000000000000000000000000000600052602260045260246000fd5b60006002820490506001821680611f1e57607f821691505b60208210811415611f3257611f31611ed7565b5b50919050565b600081519050611f4781611528565b92915050565b600060208284031215611f6357611f626114b6565b5b6000611f7184828501611f38565b91505092915050565b600082825260208201905092915050565b7f77726f6e67206172726179206c656e6774687300000000000000000000000000600082015250565b6000611fc1601383611f7a565b9150611fcc82611f8b565b602082019050919050565b60006020820190508181036000830152611ff081611fb4565b9050919050565b7f4e487b7100000000000000000000000000000000000000000000000000000000600052603260045260246000fd5b7f4e487b7100000000000000000000000000000000000000000000000000000000600052601160045260246000fd5b60006120608261151e565b91507fffffffffffffffffffffffffffffffffffffffffffffffffffffffffffffffff82141561209357612092612026565b5b600182019050919050565b7f6f6e6c79206f776e657200000000000000000000000000000000000000000000600082015250565b60006120d4600a83611f7a565b91506120df8261209e565b602082019050919050565b60006020820190508181036000830152612103816120c7565b9050919050565b600061211582611762565b61211f8185611e10565b935061212f81856020860161177e565b80840191505092915050565b6000612147828461210a565b915081905092915050565b7f45787465726e616c2043616c6c204661696c6564000000000000000000000000600082015250565b6000612188601483611f7a565b915061219382612152565b602082019050919050565b600060208201905081810360008301526121b78161217b565b9050919050565b7f6163636f756e743a206e6f742066726f6d20456e747279506f696e7400000000600082015250565b60006121f4601c83611f7a565b91506121ff826121be565b602082019050919050565b60006020820190508181036000830152612223816121e7565b9050919050565b7f6163636f756e743a2077726f6e67207369676e61747572650000000000000000600082015250565b6000612260601883611f7a565b915061226b8261222a565b602082019050919050565b6000602082019050818103600083015261228f81612253565b9050919050565b7f19457468657265756d205369676e6564204d6573736167653a0a333200000000600082015250565b60006122cc601c83611e8e565b91506122d782612296565b601c82019050919050565b6000819050919050565b6122fd6122f882611652565b6122e2565b82525050565b600061230e826122bf565b915061231a82846122ec565b60208201915081905092915050565b7f4e487b7100000000000000000000000000000000000000000000000000000000600052602160045260246000fd5b7f45434453413a20696e76616c6964207369676e61747572650000000000000000600082015250565b600061238e601883611f7a565b915061239982612358565b602082019050919050565b600060208201905081810360008301526123bd81612381565b9050919050565b7f45434453413a20696e76616c6964207369676e6174757265206c656e67746800600082015250565b60006123fa601f83611f7a565b9150612405826123c4565b602082019050919050565b60006020820190508181036000830152612429816123ed565b9050919050565b7f45434453413a20696e76616c6964207369676e6174757265202773272076616c60008201527f7565000000000000000000000000000000000000000000000000000000000000602082015250565b600061248c602283611f7a565b915061249782612430565b604082019050919050565b600060208201905081810360008301526124bb8161247f565b9050919050565b6124cb81611652565b82525050565b600060ff82169050919050565b6124e7816124d1565b82525050565b600060808201905061250260008301876124c2565b61250f60208301866124de565b61251c60408301856124c2565b61252960608301846124c2565b9594505050505056fea2646970667358221220268c30ce68720db4256ebb78dd60ce7cb8cb93cfb1ff06d639db40e60f0a9efe64736f6c634300080a0033",
  "immutableReferences": {},
  "source": "// SPDX-License-Identifier: UNLICENSED\npragma solidity ^0.8.0;\n\nimport \"../lib/AA/BaseAccount.sol\";\nimport \"../lib/interfaces/IValidation.sol\";\nimport \"../lib/interfaces/IAction.sol\";\n\nimport \"@openzeppelin/contracts/utils/cryptography/ECDSA.sol\";\n\ncontract Treasury is BaseAccount {\n    mapping(address => bool) private whitelist;\n    mapping(string => bytes) private state;\n    mapping(address => mapping(string => bool)) internalActions;\n\n    function callOp(\n        address addr,\n        uint256 value,\n        bytes calldata data\n    ) public returns (bytes memory) {\n        return _call(addr, value, data);\n    }\n\n    // state view and update function\n    function getStateVal(string calldata key)\n        public\n        view\n        returns (bytes memory)\n    {\n        return state[key];\n    }\n\n    function updateStateVal(string calldata key, bytes memory data) public {\n        state[key] = data;\n    }\n\n    // Account Abstraction specific\n\n    mapping(uint256 => bool) nonceMap;\n    mapping(address => bool) allowedEOAsMap;\n    mapping(address => mapping(address => bool)) actionToUserMap;\n\n    using ECDSA for bytes32;\n\n    //explicit sizes of nonce, to fit a single storage cell with \"owner\"\n    uint96 private _nonce;\n    address public owner;\n\n    function nonce() public view override returns (uint256) {\n        return 0;\n    }\n\n    function checkNonce(uint256 attempt) public view returns (bool) {\n        return nonceMap[attempt];\n    }\n\n    function entryPoint() public view override returns (IEntryPoint) {\n        return _entryPoint;\n    }\n\n    IEntryPoint private _entryPoint;\n\n    event EntryPointChanged(\n        address indexed oldEntryPoint,\n        address indexed newEntryPoint\n    );\n\n    // solhint-disable-next-line no-empty-blocks\n\n    receive() external payable {}\n\n    constructor(IEntryPoint anEntryPoint, address anOwner) {\n        _entryPoint = anEntryPoint;\n        owner = anOwner;\n    }\n\n    modifier onlyOwner() {\n        _onlyOwner();\n        _;\n    }\n\n    function _onlyOwner() internal view {\n        //directly from EOA owner, or through the entryPoint (which gets redirected through execFromEntryPoint)\n        require(\n            msg.sender == owner || msg.sender == address(this),\n            \"only owner\"\n        );\n    }\n\n    function addAccessToUser(address user) public {\n        _onlyOwner();\n        allowedEOAsMap[user] = true;\n    }\n\n    function removeAccessFromUser(address user) public {\n        _onlyOwner();\n\n        allowedEOAsMap[user] = false;\n    }\n\n    function addActionToUser(address user, address actionAddress) public {\n        _onlyOwner();\n        actionToUserMap[user][actionAddress] = true;\n    }\n\n    function addAction(address actionAddress) public {\n        whitelist[actionAddress] = true;\n    }\n\n    /**\n     * transfer eth value to a destination address\n     */\n\n    function transfer(address dest, uint256 amount) external {\n        payable(dest).transfer(amount);\n    }\n\n    /**\n     * execute a transaction (called directly from owner, not by entryPoint)\n     */\n    function exec(\n        address dest,\n        uint256 value,\n        bytes calldata func\n    ) external onlyOwner {\n        _call(dest, value, func);\n    }\n\n    /**\n     * execute a sequence of transaction\n     */\n\n    function execBatch(address[] calldata dest, bytes[] calldata func)\n        external\n        onlyOwner\n    {\n        require(dest.length == func.length, \"wrong array lengths\");\n        for (uint256 i = 0; i < dest.length; i++) {\n            _call(dest[i], 0, func[i]);\n        }\n    }\n\n    /**\n     * change entry-point:\n     * an account must have a method for replacing the entryPoint, in case the the entryPoint is\n     * upgraded to a newer version.\n     */\n    function _updateEntryPoint(address newEntryPoint) internal override {\n        emit EntryPointChanged(address(_entryPoint), newEntryPoint);\n        _entryPoint = IEntryPoint(payable(newEntryPoint));\n    }\n\n    function _requireFromAdmin() internal view override {\n        _onlyOwner();\n    }\n\n    /**\n     * validate the userOp is correct.\n     * revert if it doesn't.\n     * - must only be called from the entryPoint.\n     * - make sure the signature is of our supported signer.\n     * - validate current nonce matches request nonce, and increment it.\n     * - pay prefund, in case current deposit is not enough\n     */\n    function _requireFromEntryPoint() internal view override {\n        require(\n            msg.sender == address(entryPoint()),\n            \"account: not from EntryPoint\"\n        );\n    }\n\n    // called by entryPoint, only after validateUserOp succeeded.\n    function execFromEntryPoint(\n        address dest,\n        uint256 value,\n        bytes calldata func\n    ) external {\n        _requireFromEntryPoint();\n        _call(dest, value, func);\n    }\n\n    /// implement template method of BaseAccount\n    function _validateAndUpdateNonce(UserOperation calldata userOp)\n        internal\n        override\n    {\n        // require(!nonceMap[userOp.nonce], \"account: invalid nonce\");\n        nonceMap[userOp.nonce] = true;\n    }\n\n    /// implement template method of BaseAccount\n    function _validateSignature(\n        UserOperation calldata userOp,\n        bytes32 userOpHash,\n        address\n    ) internal virtual override returns (uint256 deadline) {\n        bytes32 hash = userOpHash.toEthSignedMessageHash();\n        //ignore signature mismatch of from==ZERO_ADDRESS (for eth_callUserOp validation purposes)\n        // solhint-disable-next-line avoid-tx-origin\n        // address(0) == hash.recover(userOp.signature)\n        require(\n            owner == hash.recover(userOp.signature) || tx.origin == address(0),\n            \"account: wrong signature\"\n        );\n\n        // _externalValidation(userOp.callData);\n\n        return 0;\n    }\n\n    function _externalValidation(bytes memory op) internal view {\n        (address actionAddress, bytes memory data) = abi.decode(\n            op,\n            (address, bytes)\n        );\n        address verificationAddress = IAction(actionAddress)\n            .getVerificationContract(address(this));\n        IValidation(verificationAddress).validate(data);\n    }\n\n    function _call(\n        address target,\n        uint256 value,\n        bytes memory data\n    ) internal returns (bytes memory) {\n        (bool success, bytes memory result) = payable(target).call{value: value}(data);\n        require(success, \"External Call Failed\");\n        if (!success) {\n            assembly {\n                revert(add(result, 32), mload(result))\n            }\n        }\n        return result;\n    }\n\n    /**\n     * check current account deposit in the entryPoint\n     */\n    function getDeposit() public view returns (uint256) {\n        return entryPoint().balanceOf(address(this));\n    }\n\n    /**\n     * deposit more funds for this account in the entryPoint\n     */\n    function addDeposit() public payable {\n        (bool req, ) = address(entryPoint()).call{value: msg.value}(\"\");\n        require(req);\n    }\n\n    /**\n     * withdraw value from the account's deposit\n     * @param withdrawAddress target to send to\n     * @param amount to withdraw\n     */\n    function withdrawDepositTo(address payable withdrawAddress, uint256 amount)\n        public\n        onlyOwner\n    {\n        entryPoint().withdrawTo(withdrawAddress, amount);\n    }\n}\n",
  "sourcePath": "/Users/calebsirak/fun/wallet-sdk-v1/web3/contracts/wallet/Treasury.sol",
  "compiler": {
    "name": "solc",
    "version": "0.8.10+commit.fc410830.Emscripten.clang"
  },
  "schemaVersion": "3.4.10",
  "updatedAt": "2023-01-04T22:34:15.881Z",
  "devdoc": {
    "kind": "dev",
    "methods": {
      "updateEntryPoint(address)": {
        "params": {
          "newEntryPoint": "the new entrypoint to trust."
        }
      },
      "withdrawDepositTo(address,uint256)": {
        "params": {
          "amount": "to withdraw",
          "withdrawAddress": "target to send to"
        }
      }
    },
    "version": 1
  },
  "userdoc": {
    "kind": "user",
    "methods": {
      "addDeposit()": {
        "notice": "deposit more funds for this account in the entryPoint"
      },
      "entryPoint()": {
        "notice": "return the entryPoint used by this account. subclass should return the current entryPoint used by this account."
      },
      "exec(address,uint256,bytes)": {
        "notice": "execute a transaction (called directly from owner, not by entryPoint)"
      },
      "execBatch(address[],bytes[])": {
        "notice": "execute a sequence of transaction"
      },
      "getDeposit()": {
        "notice": "check current account deposit in the entryPoint"
      },
      "nonce()": {
        "notice": "return the account nonce. subclass should return a nonce value that is used both by _validateAndUpdateNonce, and by the external provider (to read the current nonce)"
      },
      "transfer(address,uint256)": {
        "notice": "transfer eth value to a destination address"
      },
      "updateEntryPoint(address)": {
        "notice": "expose an api to modify the entryPoint. must be called by current \"admin\" of the account."
      },
      "validateUserOp((address,uint256,bytes,bytes,uint256,uint256,uint256,uint256,uint256,bytes,bytes),bytes32,address,uint256)": {
        "notice": "Validate user's signature and nonce. subclass doesn't need to override this method. Instead, it should override the specific internal validation methods."
      },
      "withdrawDepositTo(address,uint256)": {
        "notice": "withdraw value from the account's deposit"
      }
    },
    "version": 1
  }
}