{
  "contractName": "Treasury",
  "abi": [
    {
      "inputs": [],
      "name": "main",
      "outputs": [],
      "stateMutability": "nonpayable",
      "type": "function"
    },
    {
      "inputs": [
        {
          "internalType": "address",
          "name": "addr",
          "type": "address"
        },
        {
          "internalType": "uint256",
          "name": "value",
          "type": "uint256"
        },
        {
          "internalType": "bytes",
          "name": "data",
          "type": "bytes"
        }
      ],
      "name": "callOp",
      "outputs": [
        {
          "internalType": "bytes",
          "name": "",
          "type": "bytes"
        }
      ],
      "stateMutability": "nonpayable",
      "type": "function"
    },
    {
      "inputs": [
        {
          "internalType": "string",
          "name": "key",
          "type": "string"
        }
      ],
      "name": "getStateVal",
      "outputs": [
        {
          "internalType": "bytes",
          "name": "",
          "type": "bytes"
        }
      ],
      "stateMutability": "view",
      "type": "function"
    },
    {
      "inputs": [
        {
          "internalType": "string",
          "name": "key",
          "type": "string"
        },
        {
          "internalType": "bytes",
          "name": "data",
          "type": "bytes"
        }
      ],
      "name": "updateStateVal",
      "outputs": [],
      "stateMutability": "nonpayable",
      "type": "function"
    }
  ],
  "bytecode": "0x608060405234801561001057600080fd5b5061090d806100206000396000f3fe608060405234801561001057600080fd5b506004361061004c5760003560e01c80633595a80d146100515780639ff420b714610081578063ae65c78b146100b1578063dffeadd0146100cd575b600080fd5b61006b6004803603810190610066919061045c565b6100d7565b6040516100789190610569565b60405180910390f35b61009b600480360381019061009691906105e1565b610132565b6040516100a89190610569565b60405180910390f35b6100cb60048036038101906100c6919061075e565b6101e5565b005b6100d561021f565b005b6060610128858585858080601f016020809104026020016040519081016040528093929190818152602001838380828437600081840152601f19601f82011690508083019250505050505050610221565b9050949350505050565b60606001838360405161014692919061080a565b9081526020016040518091039020805461015f90610852565b80601f016020809104026020016040519081016040528092919081815260200182805461018b90610852565b80156101d85780601f106101ad576101008083540402835291602001916101d8565b820191906000526020600020905b8154815290600101906020018083116101bb57829003601f168201915b5050505050905092915050565b80600184846040516101f892919061080a565b908152602001604051809103902090805190602001906102199291906102ac565b50505050565b565b60606000808573ffffffffffffffffffffffffffffffffffffffff16858560405161024c91906108c0565b60006040518083038185875af1925050503d8060008114610289576040519150601f19603f3d011682016040523d82523d6000602084013e61028e565b606091505b5091509150816102a057805160208201fd5b80925050509392505050565b8280546102b890610852565b90600052602060002090601f0160209004810192826102da5760008555610321565b82601f106102f357805160ff1916838001178555610321565b82800160010185558215610321579182015b82811115610320578251825591602001919060010190610305565b5b50905061032e9190610332565b5090565b5b8082111561034b576000816000905550600101610333565b5090565b6000604051905090565b600080fd5b600080fd5b600073ffffffffffffffffffffffffffffffffffffffff82169050919050565b600061038e82610363565b9050919050565b61039e81610383565b81146103a957600080fd5b50565b6000813590506103bb81610395565b92915050565b6000819050919050565b6103d4816103c1565b81146103df57600080fd5b50565b6000813590506103f1816103cb565b92915050565b600080fd5b600080fd5b600080fd5b60008083601f84011261041c5761041b6103f7565b5b8235905067ffffffffffffffff811115610439576104386103fc565b5b60208301915083600182028301111561045557610454610401565b5b9250929050565b6000806000806060858703121561047657610475610359565b5b6000610484878288016103ac565b9450506020610495878288016103e2565b935050604085013567ffffffffffffffff8111156104b6576104b561035e565b5b6104c287828801610406565b925092505092959194509250565b600081519050919050565b600082825260208201905092915050565b60005b8381101561050a5780820151818401526020810190506104ef565b83811115610519576000848401525b50505050565b6000601f19601f8301169050919050565b600061053b826104d0565b61054581856104db565b93506105558185602086016104ec565b61055e8161051f565b840191505092915050565b600060208201905081810360008301526105838184610530565b905092915050565b60008083601f8401126105a1576105a06103f7565b5b8235905067ffffffffffffffff8111156105be576105bd6103fc565b5b6020830191508360018202830111156105da576105d9610401565b5b9250929050565b600080602083850312156105f8576105f7610359565b5b600083013567ffffffffffffffff8111156106165761061561035e565b5b6106228582860161058b565b92509250509250929050565b600080fd5b7f4e487b7100000000000000000000000000000000000000000000000000000000600052604160045260246000fd5b61066b8261051f565b810181811067ffffffffffffffff8211171561068a57610689610633565b5b80604052505050565b600061069d61034f565b90506106a98282610662565b919050565b600067ffffffffffffffff8211156106c9576106c8610633565b5b6106d28261051f565b9050602081019050919050565b82818337600083830152505050565b60006107016106fc846106ae565b610693565b90508281526020810184848401111561071d5761071c61062e565b5b6107288482856106df565b509392505050565b600082601f830112610745576107446103f7565b5b81356107558482602086016106ee565b91505092915050565b60008060006040848603121561077757610776610359565b5b600084013567ffffffffffffffff8111156107955761079461035e565b5b6107a18682870161058b565b9350935050602084013567ffffffffffffffff8111156107c4576107c361035e565b5b6107d086828701610730565b9150509250925092565b600081905092915050565b60006107f183856107da565b93506107fe8385846106df565b82840190509392505050565b60006108178284866107e5565b91508190509392505050565b7f4e487b7100000000000000000000000000000000000000000000000000000000600052602260045260246000fd5b6000600282049050600182168061086a57607f821691505b6020821081141561087e5761087d610823565b5b50919050565b600081905092915050565b600061089a826104d0565b6108a48185610884565b93506108b48185602086016104ec565b80840191505092915050565b60006108cc828461088f565b91508190509291505056fea2646970667358221220ba09a5efae0354e0d9b06ce40236d4f7550f22b48a24391f661a957603be9a2764736f6c634300080a0033",
  "immutableReferences": {},
  "source": "// SPDX-License-Identifier: UNLICENSED\npragma solidity ^0.8.0;\n\ncontract Treasury {\n    mapping(address => bool) private whitelist;\n    mapping(string => bytes) private state;\n\n    function main() public {}\n\n    function callOp(\n        address addr,\n        uint256 value,\n        bytes calldata data\n    ) public returns (bytes memory) {\n        return _call(addr, value, data);\n    }\n\n    // internal delegate call from EIP-4337\n    function _call(\n        address target,\n        uint256 value,\n        bytes memory data\n    ) internal returns (bytes memory) {\n        (bool success, bytes memory result) = target.call{value: value}(data);\n        if (!success) {\n            assembly {\n                revert(add(result, 32), mload(result))\n            }\n        }\n        return result;\n    }\n\n    // state view and update function\n    function getStateVal(string calldata key)\n        public\n        view\n        returns (bytes memory)\n    {\n        return state[key];\n    }\n\n    function updateStateVal(string calldata key, bytes memory data) public {\n        state[key] = data;\n    }\n}\n",
  "sourcePath": "/Users/calebsirak/fun/wallet-sdk-v1/contracts/lib/wallet/Treasury.sol",
  "compiler": {
    "name": "solc",
    "version": "0.8.10+commit.fc410830.Emscripten.clang"
  },
  "schemaVersion": "3.4.10",
  "updatedAt": "2022-12-27T09:24:11.381Z",
  "devdoc": {
    "kind": "dev",
    "methods": {},
    "version": 1
  },
  "userdoc": {
    "kind": "user",
    "methods": {},
    "version": 1
  }
}