{
  "contractName": "TreasuryFactory",
  "abi": [
    {
      "inputs": [
        {
          "internalType": "contract IEntryPoint",
          "name": "entryPoint",
          "type": "address"
        },
        {
          "internalType": "address",
          "name": "owner",
          "type": "address"
        },
        {
          "internalType": "uint256",
          "name": "salt",
          "type": "uint256"
        }
      ],
      "name": "createAccount",
      "outputs": [
        {
          "internalType": "contract Treasury",
          "name": "ret",
          "type": "address"
        }
      ],
      "stateMutability": "nonpayable",
      "type": "function"
    },
    {
      "inputs": [
        {
          "internalType": "contract IEntryPoint",
          "name": "entryPoint",
          "type": "address"
        },
        {
          "internalType": "address",
          "name": "owner",
          "type": "address"
        },
        {
          "internalType": "uint256",
          "name": "salt",
          "type": "uint256"
        }
      ],
      "name": "getAddress",
      "outputs": [
        {
          "internalType": "address",
          "name": "",
          "type": "address"
        }
      ],
      "stateMutability": "view",
      "type": "function"
    }
  ],
  "bytecode": "0x608060405234801561001057600080fd5b50612c74806100206000396000f3fe608060405234801561001057600080fd5b50600436106100365760003560e01c806308a6354e1461003b5780631230aea21461006b575b600080fd5b610055600480360381019061005091906102cc565b61009b565b604051610062919061032e565b60405180910390f35b610085600480360381019061008091906102cc565b61011f565b60405161009291906103a8565b60405180910390f35b60006101168260001b604051806020016100b4906101e8565b6020820181038252601f19601f8201166040525086866040516020016100db9291906103f6565b6040516020818303038152906040526040516020016100fb929190610499565b604051602081830303815290604052805190602001206101a8565b90509392505050565b60008061012d85858561009b565b905060008173ffffffffffffffffffffffffffffffffffffffff163b9050600081111561015e5781925050506101a1565b8360001b8686604051610170906101e8565b61017b9291906103f6565b8190604051809103906000f590508015801561019b573d6000803e3d6000fd5b50925050505b9392505050565b60006101b58383306101bd565b905092915050565b6000604051836040820152846020820152828152600b810160ff815360558120925050509392505050565b612781806104be83390190565b600080fd5b600073ffffffffffffffffffffffffffffffffffffffff82169050919050565b6000610225826101fa565b9050919050565b60006102378261021a565b9050919050565b6102478161022c565b811461025257600080fd5b50565b6000813590506102648161023e565b92915050565b6102738161021a565b811461027e57600080fd5b50565b6000813590506102908161026a565b92915050565b6000819050919050565b6102a981610296565b81146102b457600080fd5b50565b6000813590506102c6816102a0565b92915050565b6000806000606084860312156102e5576102e46101f5565b5b60006102f386828701610255565b935050602061030486828701610281565b9250506040610315868287016102b7565b9150509250925092565b6103288161021a565b82525050565b6000602082019050610343600083018461031f565b92915050565b6000819050919050565b600061036e610369610364846101fa565b610349565b6101fa565b9050919050565b600061038082610353565b9050919050565b600061039282610375565b9050919050565b6103a281610387565b82525050565b60006020820190506103bd6000830184610399565b92915050565b60006103ce82610353565b9050919050565b60006103e0826103c3565b9050919050565b6103f0816103d5565b82525050565b600060408201905061040b60008301856103e7565b610418602083018461031f565b9392505050565b600081519050919050565b600081905092915050565b60005b83811015610453578082015181840152602081019050610438565b83811115610462576000848401525b50505050565b60006104738261041f565b61047d818561042a565b935061048d818560208601610435565b80840191505092915050565b60006104a58285610468565b91506104b18284610468565b9150819050939250505056fe60806040523480156200001157600080fd5b506040516200278138038062002781833981810160405281019062000037919062000170565b81600760006101000a81548173ffffffffffffffffffffffffffffffffffffffff021916908373ffffffffffffffffffffffffffffffffffffffff160217905550806006600c6101000a81548173ffffffffffffffffffffffffffffffffffffffff021916908373ffffffffffffffffffffffffffffffffffffffff1602179055505050620001b7565b600080fd5b600073ffffffffffffffffffffffffffffffffffffffff82169050919050565b6000620000f382620000c6565b9050919050565b60006200010782620000e6565b9050919050565b6200011981620000fa565b81146200012557600080fd5b50565b60008151905062000139816200010e565b92915050565b6200014a81620000e6565b81146200015657600080fd5b50565b6000815190506200016a816200013f565b92915050565b600080604083850312156200018a5762000189620000c1565b5b60006200019a8582860162000128565b9250506020620001ad8582860162000159565b9150509250929050565b6125ba80620001c76000396000f3fe6080604052600436106101235760003560e01c80639291693f116100a0578063affed0e011610064578063affed0e0146103b5578063b0d691fe146103e0578063c399ec881461040b578063d0cb75fa14610436578063e374e90f1461045f5761012a565b80639291693f146102d45780639ff420b7146102fd578063a9059cbb1461033a578063ab3bfb7a14610363578063ae65c78b1461038c5761012a565b80634a58db19116100e75780634a58db19146102245780634d44560d1461022e5780634fc90d7f1461025757806380c5c7d0146102805780638da5cb5b146102a95761012a565b80630565bb671461012f5780630825d1fc146101585780631b71bb6e1461019557806323b9da82146101be5780633595a80d146101e75761012a565b3661012a57005b600080fd5b34801561013b57600080fd5b50610156600480360381019061015191906115b3565b61049c565b005b34801561016457600080fd5b5061017f600480360381019061017a9190611682565b6104fa565b60405161018c9190611714565b60405180910390f35b3480156101a157600080fd5b506101bc60048036038101906101b7919061172f565b610546565b005b3480156101ca57600080fd5b506101e560048036038101906101e0919061172f565b61055a565b005b3480156101f357600080fd5b5061020e600480360381019061020991906115b3565b6105b4565b60405161021b91906117f5565b60405180910390f35b61022c61060f565b005b34801561023a57600080fd5b5061025560048036038101906102509190611855565b61068f565b005b34801561026357600080fd5b5061027e60048036038101906102799190611895565b61070f565b005b34801561028c57600080fd5b506102a760048036038101906102a291906115b3565b6107b0565b005b3480156102b557600080fd5b506102be61080e565b6040516102cb91906118e4565b60405180910390f35b3480156102e057600080fd5b506102fb60048036038101906102f6919061172f565b610834565b005b34801561030957600080fd5b50610324600480360381019061031f9190611a2f565b610897565b60405161033191906117f5565b60405180910390f35b34801561034657600080fd5b50610361600480360381019061035c9190611a78565b610947565b005b34801561036f57600080fd5b5061038a6004803603810190610385919061172f565b610992565b005b34801561039857600080fd5b506103b360048036038101906103ae9190611b59565b6109f5565b005b3480156103c157600080fd5b506103ca610a2c565b6040516103d79190611714565b60405180910390f35b3480156103ec57600080fd5b506103f5610a31565b6040516104029190611c30565b60405180910390f35b34801561041757600080fd5b50610420610a5b565b60405161042d9190611714565b60405180910390f35b34801561044257600080fd5b5061045d60048036038101906104589190611cf7565b610ae3565b005b34801561046b57600080fd5b5061048660048036038101906104819190611d78565b610bf6565b6040516104939190611dc0565b60405180910390f35b6104a4610c20565b6104f3848484848080601f016020809104026020016040519081016040528093929190818152602001838380828437600081840152601f19601f82011690508083019250505050505050610ce8565b5050505050565b6000610504610db3565b61050f858585610e2a565b905060008580604001906105239190611dea565b905014156105355761053485610f70565b5b61053e82610fa3565b949350505050565b61054e61103f565b61055781611049565b50565b60016000808373ffffffffffffffffffffffffffffffffffffffff1673ffffffffffffffffffffffffffffffffffffffff16815260200190815260200160002060006101000a81548160ff02191690831515021790555050565b6060610605858585858080601f016020809104026020016040519081016040528093929190818152602001838380828437600081840152601f19601f82011690508083019250505050505050610ce8565b9050949350505050565b6000610619610a31565b73ffffffffffffffffffffffffffffffffffffffff163460405161063c90611e7e565b60006040518083038185875af1925050503d8060008114610679576040519150601f19603f3d011682016040523d82523d6000602084013e61067e565b606091505b505090508061068c57600080fd5b50565b610697610c20565b61069f610a31565b73ffffffffffffffffffffffffffffffffffffffff1663205c287883836040518363ffffffff1660e01b81526004016106d9929190611ea2565b600060405180830381600087803b1580156106f357600080fd5b505af1158015610707573d6000803e3d6000fd5b505050505050565b610717610c20565b6001600560008473ffffffffffffffffffffffffffffffffffffffff1673ffffffffffffffffffffffffffffffffffffffff16815260200190815260200160002060008373ffffffffffffffffffffffffffffffffffffffff1673ffffffffffffffffffffffffffffffffffffffff16815260200190815260200160002060006101000a81548160ff0219169083151502179055505050565b6107b8610db3565b610807848484848080601f016020809104026020016040519081016040528093929190818152602001838380828437600081840152601f19601f82011690508083019250505050505050610ce8565b5050505050565b6006600c9054906101000a900473ffffffffffffffffffffffffffffffffffffffff1681565b61083c610c20565b6000600460008373ffffffffffffffffffffffffffffffffffffffff1673ffffffffffffffffffffffffffffffffffffffff16815260200190815260200160002060006101000a81548160ff02191690831515021790555050565b60606001826040516108a99190611f12565b908152602001604051809103902080546108c290611f58565b80601f01602080910402602001604051908101604052809291908181526020018280546108ee90611f58565b801561093b5780601f106109105761010080835404028352916020019161093b565b820191906000526020600020905b81548152906001019060200180831161091e57829003601f168201915b50505050509050919050565b8173ffffffffffffffffffffffffffffffffffffffff166108fc829081150290604051600060405180830381858888f1935050505015801561098d573d6000803e3d6000fd5b505050565b61099a610c20565b6001600460008373ffffffffffffffffffffffffffffffffffffffff1673ffffffffffffffffffffffffffffffffffffffff16815260200190815260200160002060006101000a81548160ff02191690831515021790555050565b80600183604051610a069190611f12565b90815260200160405180910390209080519060200190610a27929190611403565b505050565b600090565b6000600760009054906101000a900473ffffffffffffffffffffffffffffffffffffffff16905090565b6000610a65610a31565b73ffffffffffffffffffffffffffffffffffffffff166370a08231306040518263ffffffff1660e01b8152600401610a9d91906118e4565b602060405180830381865afa158015610aba573d6000803e3d6000fd5b505050506040513d601f19601f82011682018060405250810190610ade9190611f9f565b905090565b610aeb610c20565b818190508484905014610b33576040517f08c379a0000000000000000000000000000000000000000000000000000000008152600401610b2a90612029565b60405180910390fd5b60005b84849050811015610bef57610bdb858583818110610b5757610b56612049565b5b9050602002016020810190610b6c919061172f565b6000858585818110610b8157610b80612049565b5b9050602002810190610b939190611dea565b8080601f016020809104026020016040519081016040528093929190818152602001838380828437600081840152601f19601f82011690508083019250505050505050610ce8565b508080610be7906120a7565b915050610b36565b5050505050565b60006003600083815260200190815260200160002060009054906101000a900460ff169050919050565b6006600c9054906101000a900473ffffffffffffffffffffffffffffffffffffffff1673ffffffffffffffffffffffffffffffffffffffff163373ffffffffffffffffffffffffffffffffffffffff161480610ca757503073ffffffffffffffffffffffffffffffffffffffff163373ffffffffffffffffffffffffffffffffffffffff16145b610ce6576040517f08c379a0000000000000000000000000000000000000000000000000000000008152600401610cdd9061213c565b60405180910390fd5b565b60606000808573ffffffffffffffffffffffffffffffffffffffff168585604051610d13919061218d565b60006040518083038185875af1925050503d8060008114610d50576040519150601f19603f3d011682016040523d82523d6000602084013e610d55565b606091505b509150915081610d9a576040517f08c379a0000000000000000000000000000000000000000000000000000000008152600401610d91906121f0565b60405180910390fd5b81610da757805160208201fd5b80925050509392505050565b610dbb610a31565b73ffffffffffffffffffffffffffffffffffffffff163373ffffffffffffffffffffffffffffffffffffffff1614610e28576040517f08c379a0000000000000000000000000000000000000000000000000000000008152600401610e1f9061225c565b60405180910390fd5b565b600080610e3684611109565b9050610e9e85806101400190610e4c9190611dea565b8080601f016020809104026020016040519081016040528093929190818152602001838380828437600081840152601f19601f820116905080830192505050505050508261113990919063ffffffff16565b73ffffffffffffffffffffffffffffffffffffffff166006600c9054906101000a900473ffffffffffffffffffffffffffffffffffffffff1673ffffffffffffffffffffffffffffffffffffffff161480610f255750600073ffffffffffffffffffffffffffffffffffffffff163273ffffffffffffffffffffffffffffffffffffffff16145b610f64576040517f08c379a0000000000000000000000000000000000000000000000000000000008152600401610f5b906122c8565b60405180910390fd5b60009150509392505050565b6001600360008360200135815260200190815260200160002060006101000a81548160ff02191690831515021790555050565b6000811461103c5760003373ffffffffffffffffffffffffffffffffffffffff16827fffffffffffffffffffffffffffffffffffffffffffffffffffffffffffffffff90604051610ff390611e7e565b600060405180830381858888f193505050503d8060008114611031576040519150601f19603f3d011682016040523d82523d6000602084013e611036565b606091505b50509050505b50565b611047610c20565b565b8073ffffffffffffffffffffffffffffffffffffffff16600760009054906101000a900473ffffffffffffffffffffffffffffffffffffffff1673ffffffffffffffffffffffffffffffffffffffff167f450909c1478d09248269d4ad4fa8cba61ca3f50faed58c7aedefa51c7f62b83a60405160405180910390a380600760006101000a81548173ffffffffffffffffffffffffffffffffffffffff021916908373ffffffffffffffffffffffffffffffffffffffff16021790555050565b60008160405160200161111c9190612355565b604051602081830303815290604052805190602001209050919050565b60008060006111488585611160565b91509150611155816111b2565b819250505092915050565b6000806041835114156111a25760008060006020860151925060408601519150606086015160001a905061119687828585611320565b945094505050506111ab565b60006002915091505b9250929050565b600060048111156111c6576111c561237b565b5b8160048111156111d9576111d861237b565b5b14156111e45761131d565b600160048111156111f8576111f761237b565b5b81600481111561120b5761120a61237b565b5b141561124c576040517f08c379a0000000000000000000000000000000000000000000000000000000008152600401611243906123f6565b60405180910390fd5b600260048111156112605761125f61237b565b5b8160048111156112735761127261237b565b5b14156112b4576040517f08c379a00000000000000000000000000000000000000000000000000000000081526004016112ab90612462565b60405180910390fd5b600360048111156112c8576112c761237b565b5b8160048111156112db576112da61237b565b5b141561131c576040517f08c379a0000000000000000000000000000000000000000000000000000000008152600401611313906124f4565b60405180910390fd5b5b50565b6000807f7fffffffffffffffffffffffffffffff5d576e7357a4501ddfe92f46681b20a08360001c111561135b5760006003915091506113fa565b600060018787878760405160008152602001604052604051611380949392919061253f565b6020604051602081039080840390855afa1580156113a2573d6000803e3d6000fd5b505050602060405103519050600073ffffffffffffffffffffffffffffffffffffffff168173ffffffffffffffffffffffffffffffffffffffff1614156113f1576000600192509250506113fa565b80600092509250505b94509492505050565b82805461140f90611f58565b90600052602060002090601f0160209004810192826114315760008555611478565b82601f1061144a57805160ff1916838001178555611478565b82800160010185558215611478579182015b8281111561147757825182559160200191906001019061145c565b5b5090506114859190611489565b5090565b5b808211156114a257600081600090555060010161148a565b5090565b6000604051905090565b600080fd5b600080fd5b600073ffffffffffffffffffffffffffffffffffffffff82169050919050565b60006114e5826114ba565b9050919050565b6114f5816114da565b811461150057600080fd5b50565b600081359050611512816114ec565b92915050565b6000819050919050565b61152b81611518565b811461153657600080fd5b50565b60008135905061154881611522565b92915050565b600080fd5b600080fd5b600080fd5b60008083601f8401126115735761157261154e565b5b8235905067ffffffffffffffff8111156115905761158f611553565b5b6020830191508360018202830111156115ac576115ab611558565b5b9250929050565b600080600080606085870312156115cd576115cc6114b0565b5b60006115db87828801611503565b94505060206115ec87828801611539565b935050604085013567ffffffffffffffff81111561160d5761160c6114b5565b5b6116198782880161155d565b925092505092959194509250565b600080fd5b6000610160828403121561164357611642611627565b5b81905092915050565b6000819050919050565b61165f8161164c565b811461166a57600080fd5b50565b60008135905061167c81611656565b92915050565b6000806000806080858703121561169c5761169b6114b0565b5b600085013567ffffffffffffffff8111156116ba576116b96114b5565b5b6116c68782880161162c565b94505060206116d78782880161166d565b93505060406116e887828801611503565b92505060606116f987828801611539565b91505092959194509250565b61170e81611518565b82525050565b60006020820190506117296000830184611705565b92915050565b600060208284031215611745576117446114b0565b5b600061175384828501611503565b91505092915050565b600081519050919050565b600082825260208201905092915050565b60005b8381101561179657808201518184015260208101905061177b565b838111156117a5576000848401525b50505050565b6000601f19601f8301169050919050565b60006117c78261175c565b6117d18185611767565b93506117e1818560208601611778565b6117ea816117ab565b840191505092915050565b6000602082019050818103600083015261180f81846117bc565b905092915050565b6000611822826114ba565b9050919050565b61183281611817565b811461183d57600080fd5b50565b60008135905061184f81611829565b92915050565b6000806040838503121561186c5761186b6114b0565b5b600061187a85828601611840565b925050602061188b85828601611539565b9150509250929050565b600080604083850312156118ac576118ab6114b0565b5b60006118ba85828601611503565b92505060206118cb85828601611503565b9150509250929050565b6118de816114da565b82525050565b60006020820190506118f960008301846118d5565b92915050565b600080fd5b7f4e487b7100000000000000000000000000000000000000000000000000000000600052604160045260246000fd5b61193c826117ab565b810181811067ffffffffffffffff8211171561195b5761195a611904565b5b80604052505050565b600061196e6114a6565b905061197a8282611933565b919050565b600067ffffffffffffffff82111561199a57611999611904565b5b6119a3826117ab565b9050602081019050919050565b82818337600083830152505050565b60006119d26119cd8461197f565b611964565b9050828152602081018484840111156119ee576119ed6118ff565b5b6119f98482856119b0565b509392505050565b600082601f830112611a1657611a1561154e565b5b8135611a268482602086016119bf565b91505092915050565b600060208284031215611a4557611a446114b0565b5b600082013567ffffffffffffffff811115611a6357611a626114b5565b5b611a6f84828501611a01565b91505092915050565b60008060408385031215611a8f57611a8e6114b0565b5b6000611a9d85828601611503565b9250506020611aae85828601611539565b9150509250929050565b600067ffffffffffffffff821115611ad357611ad2611904565b5b611adc826117ab565b9050602081019050919050565b6000611afc611af784611ab8565b611964565b905082815260208101848484011115611b1857611b176118ff565b5b611b238482856119b0565b509392505050565b600082601f830112611b4057611b3f61154e565b5b8135611b50848260208601611ae9565b91505092915050565b60008060408385031215611b7057611b6f6114b0565b5b600083013567ffffffffffffffff811115611b8e57611b8d6114b5565b5b611b9a85828601611a01565b925050602083013567ffffffffffffffff811115611bbb57611bba6114b5565b5b611bc785828601611b2b565b9150509250929050565b6000819050919050565b6000611bf6611bf1611bec846114ba565b611bd1565b6114ba565b9050919050565b6000611c0882611bdb565b9050919050565b6000611c1a82611bfd565b9050919050565b611c2a81611c0f565b82525050565b6000602082019050611c456000830184611c21565b92915050565b60008083601f840112611c6157611c6061154e565b5b8235905067ffffffffffffffff811115611c7e57611c7d611553565b5b602083019150836020820283011115611c9a57611c99611558565b5b9250929050565b60008083601f840112611cb757611cb661154e565b5b8235905067ffffffffffffffff811115611cd457611cd3611553565b5b602083019150836020820283011115611cf057611cef611558565b5b9250929050565b60008060008060408587031215611d1157611d106114b0565b5b600085013567ffffffffffffffff811115611d2f57611d2e6114b5565b5b611d3b87828801611c4b565b9450945050602085013567ffffffffffffffff811115611d5e57611d5d6114b5565b5b611d6a87828801611ca1565b925092505092959194509250565b600060208284031215611d8e57611d8d6114b0565b5b6000611d9c84828501611539565b91505092915050565b60008115159050919050565b611dba81611da5565b82525050565b6000602082019050611dd56000830184611db1565b92915050565b600080fd5b600080fd5b600080fd5b60008083356001602003843603038112611e0757611e06611ddb565b5b80840192508235915067ffffffffffffffff821115611e2957611e28611de0565b5b602083019250600182023603831315611e4557611e44611de5565b5b509250929050565b600081905092915050565b50565b6000611e68600083611e4d565b9150611e7382611e58565b600082019050919050565b6000611e8982611e5b565b9150819050919050565b611e9c81611817565b82525050565b6000604082019050611eb76000830185611e93565b611ec46020830184611705565b9392505050565b600081519050919050565b600081905092915050565b6000611eec82611ecb565b611ef68185611ed6565b9350611f06818560208601611778565b80840191505092915050565b6000611f1e8284611ee1565b915081905092915050565b7f4e487b7100000000000000000000000000000000000000000000000000000000600052602260045260246000fd5b60006002820490506001821680611f7057607f821691505b60208210811415611f8457611f83611f29565b5b50919050565b600081519050611f9981611522565b92915050565b600060208284031215611fb557611fb46114b0565b5b6000611fc384828501611f8a565b91505092915050565b600082825260208201905092915050565b7f77726f6e67206172726179206c656e6774687300000000000000000000000000600082015250565b6000612013601383611fcc565b915061201e82611fdd565b602082019050919050565b6000602082019050818103600083015261204281612006565b9050919050565b7f4e487b7100000000000000000000000000000000000000000000000000000000600052603260045260246000fd5b7f4e487b7100000000000000000000000000000000000000000000000000000000600052601160045260246000fd5b60006120b282611518565b91507fffffffffffffffffffffffffffffffffffffffffffffffffffffffffffffffff8214156120e5576120e4612078565b5b600182019050919050565b7f6f6e6c79206f776e657200000000000000000000000000000000000000000000600082015250565b6000612126600a83611fcc565b9150612131826120f0565b602082019050919050565b6000602082019050818103600083015261215581612119565b9050919050565b60006121678261175c565b6121718185611e4d565b9350612181818560208601611778565b80840191505092915050565b6000612199828461215c565b915081905092915050565b7f45787465726e616c2043616c6c204661696c6564000000000000000000000000600082015250565b60006121da601483611fcc565b91506121e5826121a4565b602082019050919050565b60006020820190508181036000830152612209816121cd565b9050919050565b7f6163636f756e743a206e6f742066726f6d20456e747279506f696e7400000000600082015250565b6000612246601c83611fcc565b915061225182612210565b602082019050919050565b6000602082019050818103600083015261227581612239565b9050919050565b7f6163636f756e743a2077726f6e67207369676e61747572650000000000000000600082015250565b60006122b2601883611fcc565b91506122bd8261227c565b602082019050919050565b600060208201905081810360008301526122e1816122a5565b9050919050565b7f19457468657265756d205369676e6564204d6573736167653a0a333200000000600082015250565b600061231e601c83611ed6565b9150612329826122e8565b601c82019050919050565b6000819050919050565b61234f61234a8261164c565b612334565b82525050565b600061236082612311565b915061236c828461233e565b60208201915081905092915050565b7f4e487b7100000000000000000000000000000000000000000000000000000000600052602160045260246000fd5b7f45434453413a20696e76616c6964207369676e61747572650000000000000000600082015250565b60006123e0601883611fcc565b91506123eb826123aa565b602082019050919050565b6000602082019050818103600083015261240f816123d3565b9050919050565b7f45434453413a20696e76616c6964207369676e6174757265206c656e67746800600082015250565b600061244c601f83611fcc565b915061245782612416565b602082019050919050565b6000602082019050818103600083015261247b8161243f565b9050919050565b7f45434453413a20696e76616c6964207369676e6174757265202773272076616c60008201527f7565000000000000000000000000000000000000000000000000000000000000602082015250565b60006124de602283611fcc565b91506124e982612482565b604082019050919050565b6000602082019050818103600083015261250d816124d1565b9050919050565b61251d8161164c565b82525050565b600060ff82169050919050565b61253981612523565b82525050565b60006080820190506125546000830187612514565b6125616020830186612530565b61256e6040830185612514565b61257b6060830184612514565b9594505050505056fea2646970667358221220c1c3dcafc66efa214cf84ae77f7684850e673cae50cf11d6d25d3dc7eda2dc3e64736f6c634300080a0033a26469706673582212206b051725aace2010931262913f6321042ece17c02f2229c7fb7d3034a0eaab8164736f6c634300080a0033",
  "immutableReferences": {},
  "source": "// SPDX-License-Identifier: UNLICENSED\npragma solidity ^0.8.0;\n\nimport \"@openzeppelin/contracts/utils/Create2.sol\";\nimport \"../wallet/Treasury.sol\";\nimport \"../lib/interfaces/IEntryPoint.sol\";\n\ncontract TreasuryFactory {\n    /**\n     * create an account, and return its address.\n     * returns the address even if the account is already deployed.\n     * Note that during UserOperation execution, this method is called only if the account is not deployed.\n     * This method returns an existing account address so that entryPoint.getSenderAddress() would work even after account creation\n     */\n    function createAccount(\n        IEntryPoint entryPoint,\n        address owner,\n        uint256 salt\n    ) public returns (Treasury ret) {\n        address addr = getAddress(entryPoint, owner, salt);\n        uint256 codeSize = addr.code.length;\n        if (codeSize > 0) {\n            return Treasury(payable(addr));\n        }\n        ret = new Treasury{salt: bytes32(salt)}(entryPoint, owner);\n    }\n\n    /**\n     * calculate the counterfactual address of this account as it would be returned by createAccount()\n     */\n    function getAddress(\n        IEntryPoint entryPoint,\n        address owner,\n        uint256 salt\n    ) public view returns (address) {\n        return\n            Create2.computeAddress(\n                bytes32(salt),\n                keccak256(\n                    abi.encodePacked(\n                        type(Treasury).creationCode,\n                        abi.encode(entryPoint, owner)\n                    )\n                )\n            );\n    }\n}\n",
  "sourcePath": "/Users/calebsirak/fun/web3sdk/web3/contracts/factory/TreasuryFactory.sol",
  "compiler": {
    "name": "solc",
    "version": "0.8.10+commit.fc410830.Emscripten.clang"
  },
  "schemaVersion": "3.4.10",
  "updatedAt": "2023-01-14T08:14:22.683Z",
  "devdoc": {
    "kind": "dev",
    "methods": {},
    "version": 1
  },
  "userdoc": {
    "kind": "user",
    "methods": {
      "createAccount(address,address,uint256)": {
        "notice": "create an account, and return its address. returns the address even if the account is already deployed. Note that during UserOperation execution, this method is called only if the account is not deployed. This method returns an existing account address so that entryPoint.getSenderAddress() would work even after account creation"
      },
      "getAddress(address,address,uint256)": {
        "notice": "calculate the counterfactual address of this account as it would be returned by createAccount()"
      }
    },
    "version": 1
  }
}