{
  "contractName": "UniV3Close",
  "abi": [
    {
      "inputs": [
        {
          "internalType": "address",
          "name": "treasury",
          "type": "address"
        },
        {
          "internalType": "string",
          "name": "key",
          "type": "string"
        }
      ],
      "name": "getData",
      "outputs": [
        {
          "internalType": "bytes",
          "name": "",
          "type": "bytes"
        }
      ],
      "stateMutability": "view",
      "type": "function"
    },
    {
      "inputs": [
        {
          "internalType": "address",
          "name": "user",
          "type": "address"
        }
      ],
      "name": "getVerificationContract",
      "outputs": [],
      "stateMutability": "view",
      "type": "function"
    },
    {
      "inputs": [
        {
          "internalType": "bytes",
          "name": "data",
          "type": "bytes"
        }
      ],
      "name": "init",
      "outputs": [
        {
          "internalType": "bytes",
          "name": "",
          "type": "bytes"
        }
      ],
      "stateMutability": "payable",
      "type": "function"
    },
    {
      "inputs": [
        {
          "internalType": "bytes",
          "name": "data",
          "type": "bytes"
        }
      ],
      "name": "execute",
      "outputs": [
        {
          "internalType": "bytes",
          "name": "",
          "type": "bytes"
        }
      ],
      "stateMutability": "payable",
      "type": "function"
    }
  ],
  "bytecode": "0x608060405234801561001057600080fd5b50610ff6806100206000396000f3fe60806040526004361061003f5760003560e01c806309c5eabe146100445780633bf58dba146100745780634ddf47d4146100b1578063eea99192146100e1575b600080fd5b61005e60048036038101906100599190610748565b61010a565b60405161006b9190610819565b60405180910390f35b34801561008057600080fd5b5061009b6004803603810190610096919061093a565b610151565b6040516100a89190610819565b60405180910390f35b6100cb60048036038101906100c69190610748565b610220565b6040516100d89190610819565b60405180910390f35b3480156100ed57600080fd5b5061010860048036038101906101039190610996565b610255565b005b6060600080600061011a85610258565b5092509250925061012b8183610289565b610135838361035c565b5050604051806020016040528060008152509350505050919050565b606060003083604051602001610168929190610a27565b6040516020818303038152906040526040516020016101879190610a93565b60405160208183030381529060405290508373ffffffffffffffffffffffffffffffffffffffff16639ff420b7826040518263ffffffff1660e01b81526004016101d19190610aaa565b600060405180830381865afa1580156101ee573d6000803e3d6000fd5b505050506040513d6000823e3d601f19601f820116820180604052508101906102179190610b3c565b91505092915050565b6060600061022d83610258565b935050505061023d338285610467565b60405180602001604052806000815250915050919050565b50565b600080606080848060200190518101906102729190610c69565b809450819550829650839750505050509193509193565b60008060008060008061029b8861051f565b95509550955095509550955060008686868686866040516024016102c496959493929190610d4c565b6040516020818303038152906040527f7ac2ff7b000000000000000000000000000000000000000000000000000000007bffffffffffffffffffffffffffffffffffffffffffffffffffffffff19166020820180517bffffffffffffffffffffffffffffffffffffffffffffffffffffffff83818316178352505050509050610350338960008461055d565b50505050505050505050565b600080600060405180608001604052808681526020013073ffffffffffffffffffffffffffffffffffffffff1681526020016fffffffffffffffffffffffffffffffff801681526020016fffffffffffffffffffffffffffffffff801681525090506000816040516024016103d19190610e4b565b6040516020818303038152906040527ffc6f7865000000000000000000000000000000000000000000000000000000007bffffffffffffffffffffffffffffffffffffffffffffffffffffffff19166020820180517bffffffffffffffffffffffffffffffffffffffffffffffffffffffff8381831617835250505050905061045d338660008461055d565b5050509250929050565b6000308360405160200161047c929190610a27565b60405160208183030381529060405260405160200161049b9190610a93565b60405160208183030381529060405290508373ffffffffffffffffffffffffffffffffffffffff1663ae65c78b82846040518363ffffffff1660e01b81526004016104e7929190610e66565b600060405180830381600087803b15801561050157600080fd5b505af1158015610515573d6000803e3d6000fd5b5050505050505050565b6000806000806000808680602001905181019061053c9190610ef5565b809650819750829850839950849a50859b5050505050505091939550919395565b60608473ffffffffffffffffffffffffffffffffffffffff16633595a80d8585856040518463ffffffff1660e01b815260040161059c93929190610f82565b6000604051808303816000875af11580156105bb573d6000803e3d6000fd5b505050506040513d6000823e3d601f19601f820116820180604052508101906105e49190610b3c565b9050949350505050565b6000604051905090565b600080fd5b600080fd5b600080fd5b600080fd5b6000601f19601f8301169050919050565b7f4e487b7100000000000000000000000000000000000000000000000000000000600052604160045260246000fd5b6106558261060c565b810181811067ffffffffffffffff821117156106745761067361061d565b5b80604052505050565b60006106876105ee565b9050610693828261064c565b919050565b600067ffffffffffffffff8211156106b3576106b261061d565b5b6106bc8261060c565b9050602081019050919050565b82818337600083830152505050565b60006106eb6106e684610698565b61067d565b90508281526020810184848401111561070757610706610607565b5b6107128482856106c9565b509392505050565b600082601f83011261072f5761072e610602565b5b813561073f8482602086016106d8565b91505092915050565b60006020828403121561075e5761075d6105f8565b5b600082013567ffffffffffffffff81111561077c5761077b6105fd565b5b6107888482850161071a565b91505092915050565b600081519050919050565b600082825260208201905092915050565b60005b838110156107cb5780820151818401526020810190506107b0565b838111156107da576000848401525b50505050565b60006107eb82610791565b6107f5818561079c565b93506108058185602086016107ad565b61080e8161060c565b840191505092915050565b6000602082019050818103600083015261083381846107e0565b905092915050565b600073ffffffffffffffffffffffffffffffffffffffff82169050919050565b60006108668261083b565b9050919050565b6108768161085b565b811461088157600080fd5b50565b6000813590506108938161086d565b92915050565b600067ffffffffffffffff8211156108b4576108b361061d565b5b6108bd8261060c565b9050602081019050919050565b60006108dd6108d884610899565b61067d565b9050828152602081018484840111156108f9576108f8610607565b5b6109048482856106c9565b509392505050565b600082601f83011261092157610920610602565b5b81356109318482602086016108ca565b91505092915050565b60008060408385031215610951576109506105f8565b5b600061095f85828601610884565b925050602083013567ffffffffffffffff8111156109805761097f6105fd565b5b61098c8582860161090c565b9150509250929050565b6000602082840312156109ac576109ab6105f8565b5b60006109ba84828501610884565b91505092915050565b6109cc8161085b565b82525050565b600081519050919050565b600082825260208201905092915050565b60006109f9826109d2565b610a0381856109dd565b9350610a138185602086016107ad565b610a1c8161060c565b840191505092915050565b6000604082019050610a3c60008301856109c3565b8181036020830152610a4e81846109ee565b90509392505050565b600081905092915050565b6000610a6d82610791565b610a778185610a57565b9350610a878185602086016107ad565b80840191505092915050565b6000610a9f8284610a62565b915081905092915050565b60006020820190508181036000830152610ac481846109ee565b905092915050565b6000610adf610ada84610698565b61067d565b905082815260208101848484011115610afb57610afa610607565b5b610b068482856107ad565b509392505050565b600082601f830112610b2357610b22610602565b5b8151610b33848260208601610acc565b91505092915050565b600060208284031215610b5257610b516105f8565b5b600082015167ffffffffffffffff811115610b7057610b6f6105fd565b5b610b7c84828501610b0e565b91505092915050565b6000819050919050565b610b9881610b85565b8114610ba357600080fd5b50565b600081519050610bb581610b8f565b92915050565b6000610bc68261083b565b9050919050565b610bd681610bbb565b8114610be157600080fd5b50565b600081519050610bf381610bcd565b92915050565b6000610c0c610c0784610899565b61067d565b905082815260208101848484011115610c2857610c27610607565b5b610c338482856107ad565b509392505050565b600082601f830112610c5057610c4f610602565b5b8151610c60848260208601610bf9565b91505092915050565b60008060008060808587031215610c8357610c826105f8565b5b6000610c9187828801610ba6565b9450506020610ca287828801610be4565b935050604085015167ffffffffffffffff811115610cc357610cc26105fd565b5b610ccf87828801610b0e565b925050606085015167ffffffffffffffff811115610cf057610cef6105fd565b5b610cfc87828801610c3b565b91505092959194509250565b610d1181610b85565b82525050565b600060ff82169050919050565b610d2d81610d17565b82525050565b6000819050919050565b610d4681610d33565b82525050565b600060c082019050610d6160008301896109c3565b610d6e6020830188610d08565b610d7b6040830187610d08565b610d886060830186610d24565b610d956080830185610d3d565b610da260a0830184610d3d565b979650505050505050565b610db681610b85565b82525050565b610dc58161085b565b82525050565b60006fffffffffffffffffffffffffffffffff82169050919050565b610df081610dcb565b82525050565b608082016000820151610e0c6000850182610dad565b506020820151610e1f6020850182610dbc565b506040820151610e326040850182610de7565b506060820151610e456060850182610de7565b50505050565b6000608082019050610e606000830184610df6565b92915050565b60006040820190508181036000830152610e8081856109ee565b90508181036020830152610e9481846107e0565b90509392505050565b610ea681610d17565b8114610eb157600080fd5b50565b600081519050610ec381610e9d565b92915050565b610ed281610d33565b8114610edd57600080fd5b50565b600081519050610eef81610ec9565b92915050565b60008060008060008060c08789031215610f1257610f116105f8565b5b6000610f2089828a01610be4565b9650506020610f3189828a01610ba6565b9550506040610f4289828a01610ba6565b9450506060610f5389828a01610eb4565b9350506080610f6489828a01610ee0565b92505060a0610f7589828a01610ee0565b9150509295509295509295565b6000606082019050610f9760008301866109c3565b610fa46020830185610d08565b8181036040830152610fb681846107e0565b905094935050505056fea26469706673582212206ad41b110b1255c38fd8fe7192c34bd093ecaaf3781b4c1353e2fd944236dfd264736f6c634300080a0033",
  "immutableReferences": {},
  "source": "// SPDX-License-Identifier: UNLICENSED\npragma solidity ^0.8.0;\n\nimport \"../Action.sol\";\n\ninterface INonfungiblePositionManager {\n    struct MintParams {\n        address token0;\n        address token1;\n        uint24 fee;\n        int24 tickLower;\n        int24 tickUpper;\n        uint256 amount0Desired;\n        uint256 amount1Desired;\n        uint256 amount0Min;\n        uint256 amount1Min;\n        address recipient;\n        uint256 deadline;\n    }\n\n    function mint(MintParams calldata params)\n        external\n        payable\n        returns (\n            uint256 tokenId,\n            uint128 liquidity,\n            uint256 amount0,\n            uint256 amount1\n        );\n\n    struct IncreaseLiquidityParams {\n        uint256 tokenId;\n        uint256 amount0Desired;\n        uint256 amount1Desired;\n        uint256 amount0Min;\n        uint256 amount1Min;\n        uint256 deadline;\n    }\n\n    function increaseLiquidity(IncreaseLiquidityParams calldata params)\n        external\n        payable\n        returns (\n            uint128 liquidity,\n            uint256 amount0,\n            uint256 amount1\n        );\n\n    struct DecreaseLiquidityParams {\n        uint256 tokenId;\n        uint128 liquidity;\n        uint256 amount0Min;\n        uint256 amount1Min;\n        uint256 deadline;\n    }\n\n    function decreaseLiquidity(DecreaseLiquidityParams calldata params)\n        external\n        payable\n        returns (uint256 amount0, uint256 amount1);\n\n    struct CollectParams {\n        uint256 tokenId;\n        address recipient;\n        uint128 amount0Max;\n        uint128 amount1Max;\n    }\n\n    function collect(CollectParams calldata params)\n        external\n        payable\n        returns (uint256 amount0, uint256 amount1);\n}\n\ncontract UniV3Close is Action {\n    function init(bytes memory data)\n        public\n        payable\n        override\n        returns (bytes memory)\n    {\n        (, , , string memory key) = decode(data);\n        storeData(msg.sender, key, data);\n        return bytes(\"\");\n    }\n\n    function execute(bytes memory data)\n        public\n        payable\n        override\n        returns (bytes memory)\n    {\n        (\n            uint256 tokenId,\n            address positionManagerAddress,\n            bytes memory sigInfo,\n\n        ) = decode(data);\n        verifyPermitTransfer(sigInfo, positionManagerAddress);\n        collectAllFees(tokenId, positionManagerAddress);\n        return bytes(\"\");\n    }\n\n    function decodeSig(bytes memory data)\n        internal\n        pure\n        returns (\n            address spender,\n            uint256 tokenId,\n            uint256 deadline,\n            uint8 v,\n            bytes32 r,\n            bytes32 s\n        )\n    {\n        (spender, tokenId, deadline, v, r, s) = abi.decode(\n            data,\n            (address, uint256, uint256, uint8, bytes32, bytes32)\n        );\n    }\n\n    function decode(bytes memory data)\n        internal\n        pure\n        returns (\n            uint256 tokenId,\n            address positionManagerAddress,\n            bytes memory sigInfo,\n            string memory key\n        )\n    {\n        (tokenId, positionManagerAddress, sigInfo, key) = abi.decode(\n            data,\n            (uint256, address, bytes, string)\n        );\n    }\n\n    function verifyPermitTransfer(\n        bytes memory sigInfo,\n        address positionManagerAddress\n    ) private {\n        (\n            address spender,\n            uint256 tokenId,\n            uint256 deadline,\n            uint8 v,\n            bytes32 r,\n            bytes32 s\n        ) = decodeSig(sigInfo);\n        bytes memory data = abi.encodeWithSignature(\n            \"permit(address,uint256,uint256,uint8,bytes32,bytes32)\",\n            spender,\n            tokenId,\n            deadline,\n            v,\n            r,\n            s\n        );\n        sendCallOp(msg.sender, positionManagerAddress, 0, data);\n    }\n\n    function collectAllFees(uint256 tokenId, address positionManagerAddress)\n        internal\n        returns (uint256 amount0, uint256 amount1)\n    {\n        INonfungiblePositionManager.CollectParams\n            memory params = INonfungiblePositionManager.CollectParams({\n                tokenId: tokenId,\n                recipient: address(this),\n                amount0Max: type(uint128).max,\n                amount1Max: type(uint128).max\n            });\n\n        // (amount0, amount1) = nonfungiblePositionManager.collect(params);\n        bytes memory data = abi.encodeWithSignature(\n            \"collect((uint256,address,uint128,uint128))\",\n            params\n        );\n        sendCallOp(msg.sender, positionManagerAddress, 0, data);\n    }\n}\n",
  "sourcePath": "/Users/calebsirak/fun/web3sdk/web3/contracts/wallet/actions/UniCloseAction.sol",
  "compiler": {
    "name": "solc",
    "version": "0.8.10+commit.fc410830.Emscripten.clang"
  },
  "schemaVersion": "3.4.10",
  "updatedAt": "2023-01-14T08:14:22.740Z",
  "devdoc": {
    "kind": "dev",
    "methods": {},
    "version": 1
  },
  "userdoc": {
    "kind": "user",
    "methods": {},
    "version": 1
  }
}