{
  "contractName": "UniV3Close",
  "abi": [
    {
      "inputs": [
        {
          "internalType": "address",
          "name": "user",
          "type": "address"
        }
      ],
      "name": "getVerificationContract",
      "outputs": [],
      "stateMutability": "view",
      "type": "function"
    },
    {
      "inputs": [
        {
          "internalType": "bytes",
          "name": "data",
          "type": "bytes"
        }
      ],
      "name": "init",
      "outputs": [
        {
          "internalType": "bytes",
          "name": "",
          "type": "bytes"
        }
      ],
      "stateMutability": "payable",
      "type": "function"
    },
    {
      "inputs": [],
      "name": "init",
      "outputs": [
        {
          "internalType": "bytes",
          "name": "",
          "type": "bytes"
        }
      ],
      "stateMutability": "payable",
      "type": "function"
    },
    {
      "inputs": [
        {
          "internalType": "bytes",
          "name": "data",
          "type": "bytes"
        }
      ],
      "name": "execute",
      "outputs": [
        {
          "internalType": "bytes",
          "name": "",
          "type": "bytes"
        }
      ],
      "stateMutability": "payable",
      "type": "function"
    }
  ],
  "bytecode": "0x608060405234801561001057600080fd5b50610d7a806100206000396000f3fe60806040526004361061003f5760003560e01c806309c5eabe146100445780634ddf47d414610074578063e1c7392a146100a4578063eea99192146100c2575b600080fd5b61005e600480360381019061005991906105eb565b6100eb565b60405161006b91906106d1565b60405180910390f35b61008e600480360381019061008991906105eb565b610133565b60405161009b91906106d1565b60405180910390f35b6100ac6101a4565b6040516100b991906106d1565b60405180910390f35b3480156100ce57600080fd5b506100e960048036038101906100e49190610751565b610212565b005b606060008060006100fc8686610215565b92509250925061010c818361023c565b610116838361030f565b505060405180602001604052806000815250935050505092915050565b606060016000803373ffffffffffffffffffffffffffffffffffffffff1673ffffffffffffffffffffffffffffffffffffffff16815260200190815260200160002060006101000a81548160ff02191690831515021790555060405180602001604052806000815250905092915050565b606060016000803373ffffffffffffffffffffffffffffffffffffffff1673ffffffffffffffffffffffffffffffffffffffff16815260200190815260200160002060006101000a81548160ff02191690831515021790555060405180602001604052806000815250905090565b50565b600080606084848101906102299190610922565b8093508194508295505050509250925092565b60008060008060008061024e886104a3565b9550955095509550955095506000868686868686604051602401610277969594939291906109e4565b6040516020818303038152906040527f7ac2ff7b000000000000000000000000000000000000000000000000000000007bffffffffffffffffffffffffffffffffffffffffffffffffffffffff19166020820180517bffffffffffffffffffffffffffffffffffffffffffffffffffffffff8381831617835250505050905061030333898360006104e1565b50505050505050505050565b6000806000839050600060405180608001604052808781526020013073ffffffffffffffffffffffffffffffffffffffff1681526020016fffffffffffffffffffffffffffffffff801681526020016fffffffffffffffffffffffffffffffff801681525090508173ffffffffffffffffffffffffffffffffffffffff1663fc6f7865826040518263ffffffff1660e01b81526004016103af9190610ae3565b60408051808303816000875af11580156103cd573d6000803e3d6000fd5b505050506040513d601f19601f820116820180604052508101906103f19190610b13565b809450819550505060008160405160240161040c9190610ae3565b6040516020818303038152906040527ffc6f7865000000000000000000000000000000000000000000000000000000007bffffffffffffffffffffffffffffffffffffffffffffffffffffffff19166020820180517bffffffffffffffffffffffffffffffffffffffffffffffffffffffff8381831617835250505050905061049833878360006104e1565b505050509250929050565b600080600080600080868060200190518101906104c09190610bc0565b809650819750829850839950849a50859b5050505050505091939550919395565b60608473ffffffffffffffffffffffffffffffffffffffff16633595a80d8584866040518463ffffffff1660e01b815260040161052093929190610c4d565b6000604051808303816000875af115801561053f573d6000803e3d6000fd5b505050506040513d6000823e3d601f19601f820116820180604052508101906105689190610cfb565b9050949350505050565b6000604051905090565b600080fd5b600080fd5b600080fd5b600080fd5b600080fd5b60008083601f8401126105ab576105aa610586565b5b8235905067ffffffffffffffff8111156105c8576105c761058b565b5b6020830191508360018202830111156105e4576105e3610590565b5b9250929050565b600080602083850312156106025761060161057c565b5b600083013567ffffffffffffffff8111156106205761061f610581565b5b61062c85828601610595565b92509250509250929050565b600081519050919050565b600082825260208201905092915050565b60005b83811015610672578082015181840152602081019050610657565b83811115610681576000848401525b50505050565b6000601f19601f8301169050919050565b60006106a382610638565b6106ad8185610643565b93506106bd818560208601610654565b6106c681610687565b840191505092915050565b600060208201905081810360008301526106eb8184610698565b905092915050565b600073ffffffffffffffffffffffffffffffffffffffff82169050919050565b600061071e826106f3565b9050919050565b61072e81610713565b811461073957600080fd5b50565b60008135905061074b81610725565b92915050565b6000602082840312156107675761076661057c565b5b60006107758482850161073c565b91505092915050565b6000819050919050565b6107918161077e565b811461079c57600080fd5b50565b6000813590506107ae81610788565b92915050565b60006107bf826106f3565b9050919050565b6107cf816107b4565b81146107da57600080fd5b50565b6000813590506107ec816107c6565b92915050565b600080fd5b7f4e487b7100000000000000000000000000000000000000000000000000000000600052604160045260246000fd5b61082f82610687565b810181811067ffffffffffffffff8211171561084e5761084d6107f7565b5b80604052505050565b6000610861610572565b905061086d8282610826565b919050565b600067ffffffffffffffff82111561088d5761088c6107f7565b5b61089682610687565b9050602081019050919050565b82818337600083830152505050565b60006108c56108c084610872565b610857565b9050828152602081018484840111156108e1576108e06107f2565b5b6108ec8482856108a3565b509392505050565b600082601f83011261090957610908610586565b5b81356109198482602086016108b2565b91505092915050565b60008060006060848603121561093b5761093a61057c565b5b60006109498682870161079f565b935050602061095a868287016107dd565b925050604084013567ffffffffffffffff81111561097b5761097a610581565b5b610987868287016108f4565b9150509250925092565b61099a81610713565b82525050565b6109a98161077e565b82525050565b600060ff82169050919050565b6109c5816109af565b82525050565b6000819050919050565b6109de816109cb565b82525050565b600060c0820190506109f96000830189610991565b610a0660208301886109a0565b610a1360408301876109a0565b610a2060608301866109bc565b610a2d60808301856109d5565b610a3a60a08301846109d5565b979650505050505050565b610a4e8161077e565b82525050565b610a5d81610713565b82525050565b60006fffffffffffffffffffffffffffffffff82169050919050565b610a8881610a63565b82525050565b608082016000820151610aa46000850182610a45565b506020820151610ab76020850182610a54565b506040820151610aca6040850182610a7f565b506060820151610add6060850182610a7f565b50505050565b6000608082019050610af86000830184610a8e565b92915050565b600081519050610b0d81610788565b92915050565b60008060408385031215610b2a57610b2961057c565b5b6000610b3885828601610afe565b9250506020610b4985828601610afe565b9150509250929050565b600081519050610b62816107c6565b92915050565b610b71816109af565b8114610b7c57600080fd5b50565b600081519050610b8e81610b68565b92915050565b610b9d816109cb565b8114610ba857600080fd5b50565b600081519050610bba81610b94565b92915050565b60008060008060008060c08789031215610bdd57610bdc61057c565b5b6000610beb89828a01610b53565b9650506020610bfc89828a01610afe565b9550506040610c0d89828a01610afe565b9450506060610c1e89828a01610b7f565b9350506080610c2f89828a01610bab565b92505060a0610c4089828a01610bab565b9150509295509295509295565b6000606082019050610c626000830186610991565b610c6f60208301856109a0565b8181036040830152610c818184610698565b9050949350505050565b6000610c9e610c9984610872565b610857565b905082815260208101848484011115610cba57610cb96107f2565b5b610cc5848285610654565b509392505050565b600082601f830112610ce257610ce1610586565b5b8151610cf2848260208601610c8b565b91505092915050565b600060208284031215610d1157610d1061057c565b5b600082015167ffffffffffffffff811115610d2f57610d2e610581565b5b610d3b84828501610ccd565b9150509291505056fea26469706673582212201e261f6e10874232a8735c2a42287f1d4f529c65a5f71c29e18b51c2324e7f1e64736f6c634300080a0033",
  "immutableReferences": {},
  "source": "// SPDX-License-Identifier: UNLICENSED\npragma solidity ^0.8.0;\n\nimport \"../Action.sol\";\n\ninterface INonfungiblePositionManager {\n    struct MintParams {\n        address token0;\n        address token1;\n        uint24 fee;\n        int24 tickLower;\n        int24 tickUpper;\n        uint256 amount0Desired;\n        uint256 amount1Desired;\n        uint256 amount0Min;\n        uint256 amount1Min;\n        address recipient;\n        uint256 deadline;\n    }\n\n    function mint(MintParams calldata params)\n        external\n        payable\n        returns (\n            uint256 tokenId,\n            uint128 liquidity,\n            uint256 amount0,\n            uint256 amount1\n        );\n\n    struct IncreaseLiquidityParams {\n        uint256 tokenId;\n        uint256 amount0Desired;\n        uint256 amount1Desired;\n        uint256 amount0Min;\n        uint256 amount1Min;\n        uint256 deadline;\n    }\n\n    function increaseLiquidity(IncreaseLiquidityParams calldata params)\n        external\n        payable\n        returns (\n            uint128 liquidity,\n            uint256 amount0,\n            uint256 amount1\n        );\n\n    struct DecreaseLiquidityParams {\n        uint256 tokenId;\n        uint128 liquidity;\n        uint256 amount0Min;\n        uint256 amount1Min;\n        uint256 deadline;\n    }\n\n    function decreaseLiquidity(DecreaseLiquidityParams calldata params)\n        external\n        payable\n        returns (uint256 amount0, uint256 amount1);\n\n    struct CollectParams {\n        uint256 tokenId;\n        address recipient;\n        uint128 amount0Max;\n        uint128 amount1Max;\n    }\n\n    function collect(CollectParams calldata params)\n        external\n        payable\n        returns (uint256 amount0, uint256 amount1);\n}\n\n\ncontract UniV3Close is Action {\n    // function _init(\n    //     uint256 tokenId,\n    //     address positionManagerAddress,\n    //     bytes calldata data,\n    //     string memory key\n    // ) internal {\n    //     storeData(msg.sender, key, data);\n    // }\n\n    function execute(bytes calldata data)\n        external\n        payable\n        override\n        returns (bytes memory)\n    {\n        (\n            uint256 tokenId,\n            address positionManagerAddress,\n            bytes memory sigInfo\n        ) = decode(data);\n        verifyPermitTransfer(sigInfo, positionManagerAddress);\n        collectAllFees(tokenId, positionManagerAddress);\n        return bytes(\"\");\n    }\n\n    function decodeSig(bytes memory data)\n        internal\n        pure\n        returns (\n            address spender,\n            uint256 tokenId,\n            uint256 deadline,\n            uint8 v,\n            bytes32 r,\n            bytes32 s\n        )\n    {\n        (spender, tokenId, deadline, v, r, s) = abi.decode(\n            data,\n            (address, uint256, uint256, uint8, bytes32, bytes32)\n        );\n    }\n\n    function decode(bytes calldata data)\n        internal\n        pure\n        returns (\n            uint256 tokenId,\n            address positionManagerAddress,\n            bytes memory sigInfo\n        )\n    {\n        (tokenId, positionManagerAddress, sigInfo) = abi.decode(\n            data,\n            (uint256, address, bytes)\n        );\n    }\n\n    function verifyPermitTransfer(\n        bytes memory sigInfo,\n        address positionManagerAddress\n    ) private {\n        (\n            address spender,\n            uint256 tokenId,\n            uint256 deadline,\n            uint8 v,\n            bytes32 r,\n            bytes32 s\n        ) = decodeSig(sigInfo);\n        bytes memory data = abi.encodeWithSignature(\n            \"permit(address,uint256,uint256,uint8,bytes32,bytes32)\",\n            spender,\n            tokenId,\n            deadline,\n            v,\n            r,\n            s\n        );\n        sendCallOp(msg.sender, positionManagerAddress, data, 0);\n    }\n\n    function collectAllFees(uint256 tokenId, address positionManagerAddress)\n        internal\n        returns (uint256 amount0, uint256 amount1)\n    {\n        INonfungiblePositionManager nonfungiblePositionManager = INonfungiblePositionManager(\n                positionManagerAddress\n            );\n        INonfungiblePositionManager.CollectParams\n            memory params = INonfungiblePositionManager.CollectParams({\n                tokenId: tokenId,\n                recipient: address(this),\n                amount0Max: type(uint128).max,\n                amount1Max: type(uint128).max\n            });\n\n        (amount0, amount1) = nonfungiblePositionManager.collect(params);\n        bytes memory data = abi.encodeWithSignature(\n            \"collect((uint256,address,uint128,uint128))\",\n            params\n        );\n        sendCallOp(msg.sender, positionManagerAddress, data, 0);\n    }\n}\n",
  "sourcePath": "/Users/calebsirak/fun/wallet-sdk-v1/web3/contracts/wallet/actions/UniCloseAction.sol",
  "compiler": {
    "name": "solc",
    "version": "0.8.10+commit.fc410830.Emscripten.clang"
  },
  "schemaVersion": "3.4.10",
  "updatedAt": "2023-01-04T22:50:47.750Z",
  "devdoc": {
    "kind": "dev",
    "methods": {},
    "version": 1
  },
  "userdoc": {
    "kind": "user",
    "methods": {},
    "version": 1
  }
}