{
  "contractName": "AaveLiquadation",
  "abi": [
    {
      "inputs": [
        {
          "internalType": "bytes",
          "name": "data",
          "type": "bytes"
        }
      ],
      "name": "init",
      "outputs": [
        {
          "internalType": "bytes",
          "name": "",
          "type": "bytes"
        }
      ],
      "stateMutability": "payable",
      "type": "function"
    },
    {
      "inputs": [
        {
          "internalType": "bytes",
          "name": "data",
          "type": "bytes"
        }
      ],
      "name": "execute",
      "outputs": [
        {
          "internalType": "bytes",
          "name": "",
          "type": "bytes"
        }
      ],
      "stateMutability": "payable",
      "type": "function"
    }
  ],
  "bytecode": "0x608060405234801561001057600080fd5b50610f97806100206000396000f3fe6080604052600436106100295760003560e01c806309c5eabe1461002e5780634ddf47d41461005e575b600080fd5b610048600480360381019061004391906106dc565b61008e565b60405161005591906107c2565b60405180910390f35b610078600480360381019061007391906106dc565b610354565b60405161008591906107c2565b60405180910390f35b6060600083838101906100a19190610914565b90506000806000806100bb6100b633876103ef565b610478565b93509350935093506100ce8484846104aa565b60008373ffffffffffffffffffffffffffffffffffffffff166370a08231866040518263ffffffff1660e01b8152600401610109919061099e565b602060405180830381865afa158015610126573d6000803e3d6000fd5b505050506040513d601f19601f8201168201806040525081019061014a91906109ef565b90508373ffffffffffffffffffffffffffffffffffffffff166323b872dd8633846040518463ffffffff1660e01b815260040161018993929190610a2b565b6020604051808303816000875af11580156101a8573d6000803e3d6000fd5b505050506040513d601f19601f820116820180604052508101906101cc9190610a9a565b5060008473ffffffffffffffffffffffffffffffffffffffff16637535d2466040518163ffffffff1660e01b8152600401602060405180830381865afa15801561021a573d6000803e3d6000fd5b505050506040513d601f19601f8201168201806040525081019061023e9190610b05565b905060008573ffffffffffffffffffffffffffffffffffffffff1663b16a19de6040518163ffffffff1660e01b8152600401602060405180830381865afa15801561028d573d6000803e3d6000fd5b505050506040513d601f19601f820116820180604052508101906102b19190610b5e565b90508173ffffffffffffffffffffffffffffffffffffffff166369328dec82858a6040518463ffffffff1660e01b81526004016102f093929190610b8b565b6020604051808303816000875af115801561030f573d6000803e3d6000fd5b505050506040513d601f19601f8201168201806040525081019061033391906109ef565b50604051806020016040528060008152509850505050505050505092915050565b606060016000803373ffffffffffffffffffffffffffffffffffffffff1673ffffffffffffffffffffffffffffffffffffffff16815260200190815260200160002060006101000a81548160ff0219169083151502179055506000806000806103bd8787610560565b93509350935093506103d3848484848b8b61058f565b6040518060200160405280600081525094505050505092915050565b60608273ffffffffffffffffffffffffffffffffffffffff16639ff420b7836040518263ffffffff1660e01b815260040161042a9190610c17565b600060405180830381865afa158015610447573d6000803e3d6000fd5b505050506040513d6000823e3d601f19601f820116820180604052508101906104709190610cda565b905092915050565b60008060006060848060200190518101906104939190610dd1565b809450819550829650839750505050509193509193565b7fffffffffffffffffffffffffffffffffffffffffffffffffffffffffffffffff81101561055b57808273ffffffffffffffffffffffffffffffffffffffff1663dd62ed3e85336040518363ffffffff1660e01b815260040161050e929190610e54565b602060405180830381865afa15801561052b573d6000803e3d6000fd5b505050506040513d601f19601f8201168201806040525081019061054f91906109ef565b101561055a57600080fd5b5b505050565b6000806000606085858101906105769190610ea7565b8094508195508296508397505050505092959194509250565b61059a8686866104aa565b6105e9338484848080601f016020809104026020016040519081016040528093929190818152602001838380828437600081840152601f19601f820116905080830192505050505050506105f1565b505050505050565b8273ffffffffffffffffffffffffffffffffffffffff1663ae65c78b83836040518363ffffffff1660e01b815260040161062c929190610f2a565b600060405180830381600087803b15801561064657600080fd5b505af115801561065a573d6000803e3d6000fd5b50505050505050565b6000604051905090565b600080fd5b600080fd5b600080fd5b600080fd5b600080fd5b60008083601f84011261069c5761069b610677565b5b8235905067ffffffffffffffff8111156106b9576106b861067c565b5b6020830191508360018202830111156106d5576106d4610681565b5b9250929050565b600080602083850312156106f3576106f261066d565b5b600083013567ffffffffffffffff81111561071157610710610672565b5b61071d85828601610686565b92509250509250929050565b600081519050919050565b600082825260208201905092915050565b60005b83811015610763578082015181840152602081019050610748565b83811115610772576000848401525b50505050565b6000601f19601f8301169050919050565b600061079482610729565b61079e8185610734565b93506107ae818560208601610745565b6107b781610778565b840191505092915050565b600060208201905081810360008301526107dc8184610789565b905092915050565b600080fd5b7f4e487b7100000000000000000000000000000000000000000000000000000000600052604160045260246000fd5b61082182610778565b810181811067ffffffffffffffff821117156108405761083f6107e9565b5b80604052505050565b6000610853610663565b905061085f8282610818565b919050565b600067ffffffffffffffff82111561087f5761087e6107e9565b5b61088882610778565b9050602081019050919050565b82818337600083830152505050565b60006108b76108b284610864565b610849565b9050828152602081018484840111156108d3576108d26107e4565b5b6108de848285610895565b509392505050565b600082601f8301126108fb576108fa610677565b5b813561090b8482602086016108a4565b91505092915050565b60006020828403121561092a5761092961066d565b5b600082013567ffffffffffffffff81111561094857610947610672565b5b610954848285016108e6565b91505092915050565b600073ffffffffffffffffffffffffffffffffffffffff82169050919050565b60006109888261095d565b9050919050565b6109988161097d565b82525050565b60006020820190506109b3600083018461098f565b92915050565b6000819050919050565b6109cc816109b9565b81146109d757600080fd5b50565b6000815190506109e9816109c3565b92915050565b600060208284031215610a0557610a0461066d565b5b6000610a13848285016109da565b91505092915050565b610a25816109b9565b82525050565b6000606082019050610a40600083018661098f565b610a4d602083018561098f565b610a5a6040830184610a1c565b949350505050565b60008115159050919050565b610a7781610a62565b8114610a8257600080fd5b50565b600081519050610a9481610a6e565b92915050565b600060208284031215610ab057610aaf61066d565b5b6000610abe84828501610a85565b91505092915050565b6000610ad28261097d565b9050919050565b610ae281610ac7565b8114610aed57600080fd5b50565b600081519050610aff81610ad9565b92915050565b600060208284031215610b1b57610b1a61066d565b5b6000610b2984828501610af0565b91505092915050565b610b3b8161097d565b8114610b4657600080fd5b50565b600081519050610b5881610b32565b92915050565b600060208284031215610b7457610b7361066d565b5b6000610b8284828501610b49565b91505092915050565b6000606082019050610ba0600083018661098f565b610bad6020830185610a1c565b610bba604083018461098f565b949350505050565b600081519050919050565b600082825260208201905092915050565b6000610be982610bc2565b610bf38185610bcd565b9350610c03818560208601610745565b610c0c81610778565b840191505092915050565b60006020820190508181036000830152610c318184610bde565b905092915050565b600067ffffffffffffffff821115610c5457610c536107e9565b5b610c5d82610778565b9050602081019050919050565b6000610c7d610c7884610c39565b610849565b905082815260208101848484011115610c9957610c986107e4565b5b610ca4848285610745565b509392505050565b600082601f830112610cc157610cc0610677565b5b8151610cd1848260208601610c6a565b91505092915050565b600060208284031215610cf057610cef61066d565b5b600082015167ffffffffffffffff811115610d0e57610d0d610672565b5b610d1a84828501610cac565b91505092915050565b6000610d2e8261095d565b9050919050565b610d3e81610d23565b8114610d4957600080fd5b50565b600081519050610d5b81610d35565b92915050565b6000610d74610d6f84610864565b610849565b905082815260208101848484011115610d9057610d8f6107e4565b5b610d9b848285610745565b509392505050565b600082601f830112610db857610db7610677565b5b8151610dc8848260208601610d61565b91505092915050565b60008060008060808587031215610deb57610dea61066d565b5b6000610df987828801610d4c565b9450506020610e0a87828801610d4c565b9350506040610e1b878288016109da565b925050606085015167ffffffffffffffff811115610e3c57610e3b610672565b5b610e4887828801610da3565b91505092959194509250565b6000604082019050610e69600083018561098f565b610e76602083018461098f565b9392505050565b600081359050610e8c81610d35565b92915050565b600081359050610ea1816109c3565b92915050565b60008060008060808587031215610ec157610ec061066d565b5b6000610ecf87828801610e7d565b9450506020610ee087828801610e7d565b9350506040610ef187828801610e92565b925050606085013567ffffffffffffffff811115610f1257610f11610672565b5b610f1e878288016108e6565b91505092959194509250565b60006040820190508181036000830152610f448185610bde565b90508181036020830152610f588184610789565b9050939250505056fea264697066735822122094294970e27ddbedd695a1edd7a4e2a87b820cdd34c65fc636bc00db1bdadc0964736f6c634300080a0033",
  "immutableReferences": {},
  "source": "// SPDX-License-Identifier: UNLICENSED\npragma solidity ^0.8.0;\n\nimport \"./lib/Action.sol\";\n\nimport {IPool} from \"@aave/core-v3/contracts/interfaces/IPool.sol\";\nimport {AToken} from \"@aave/core-v3/contracts/protocol/tokenization/AToken.sol\";\n\ncontract AaveLiquadation is Action {\n    mapping(address => bool) private whitelist;\n\n    function _init(\n        address userAddr,\n        address aTokenAddr,\n        uint256 positionMax,\n        string memory key,\n        bytes calldata data\n    ) private {\n        verifyAccessToAToken(userAddr, aTokenAddr, positionMax);\n        storeData(msg.sender, key, data);\n    }\n\n    function verifyAccessToAToken(\n        address userAddr,\n        address aTokenAddr,\n        uint256 positionMax\n    ) private {\n        if (positionMax < type(uint256).max) {\n            require(\n                AToken(aTokenAddr).allowance(userAddr, msg.sender) >=\n                    positionMax\n            );\n        }\n    }\n\n    function init(bytes calldata data)\n        external\n        payable\n        override\n        returns (bytes memory)\n    {\n        whitelist[msg.sender] = true;\n        (\n            address userAddr,\n            address aTokenAddr,\n            uint256 positionMax,\n            string memory key\n        ) = decode(data);\n        _init(userAddr, aTokenAddr, positionMax, key, data);\n        return bytes(\"\");\n    }\n\n    function decode(bytes calldata data)\n        internal\n        pure\n        returns (\n            address userAddr,\n            address aTokenAddr,\n            uint256 positionMax,\n            string memory key\n        )\n    {\n        (userAddr, aTokenAddr, positionMax, key) = abi.decode(\n            data,\n            (address, address, uint256, string)\n        );\n    }\n\n    function decodeMem(bytes memory memData)\n        internal\n        pure\n        returns (\n            address userAddr,\n            address aTokenAddr,\n            uint256 positionMax,\n            string memory key\n        )\n    {\n        (userAddr, aTokenAddr, positionMax, key) = abi.decode(\n            memData,\n            (address, address, uint256, string)\n        );\n    }\n\n    function execute(bytes calldata data)\n        external\n        payable\n        override\n        returns (bytes memory)\n    {\n        string memory key = abi.decode(data, (string));\n\n        (\n            address userAddr,\n            address aTokenAddr,\n            uint256 positionMax,\n            string memory throwaway\n        ) = decodeMem(getData(msg.sender, key));\n\n        verifyAccessToAToken(userAddr, aTokenAddr, positionMax);\n\n        uint256 balance = AToken(aTokenAddr).balanceOf(userAddr);\n\n        AToken(aTokenAddr).transferFrom(userAddr, msg.sender, balance);\n\n        IPool pool = AToken(aTokenAddr).POOL();\n        address assetAddr = AToken(aTokenAddr).UNDERLYING_ASSET_ADDRESS();\n\n        pool.withdraw(assetAddr, balance, userAddr);\n        return bytes(\"\");\n    }\n}\n",
  "sourcePath": "/Users/calebsirak/wallet-sdk-v1/contracts/AaveAction.sol",
  "compiler": {
    "name": "solc",
    "version": "0.8.10+commit.fc410830.Emscripten.clang"
  },
  "schemaVersion": "3.4.10",
  "updatedAt": "2022-12-24T03:52:56.492Z",
  "devdoc": {
    "kind": "dev",
    "methods": {},
    "version": 1
  },
  "userdoc": {
    "kind": "user",
    "methods": {},
    "version": 1
  }
}