{
  "contractName": "AaveLiquadation",
  "abi": [
    {
      "inputs": [
        {
          "internalType": "bytes",
          "name": "data",
          "type": "bytes"
        }
      ],
      "name": "init",
      "outputs": [
        {
          "internalType": "bytes",
          "name": "",
          "type": "bytes"
        }
      ],
      "stateMutability": "payable",
      "type": "function"
    },
    {
      "inputs": [
        {
          "components": [
            {
              "internalType": "address",
              "name": "location",
              "type": "address"
            },
            {
              "internalType": "bytes",
              "name": "data",
              "type": "bytes"
            },
            {
              "internalType": "uint256",
              "name": "value",
              "type": "uint256"
            }
          ],
          "internalType": "struct ActionRequest",
          "name": "request",
          "type": "tuple"
        }
      ],
      "name": "execute",
      "outputs": [
        {
          "internalType": "bytes",
          "name": "",
          "type": "bytes"
        }
      ],
      "stateMutability": "payable",
      "type": "function"
    }
  ],
  "bytecode": "0x608060405234801561001057600080fd5b506102ae806100206000396000f3fe6080604052600436106100295760003560e01c806331c47a311461002e5780634ddf47d41461005e575b600080fd5b610048600480360381019061004391906100cb565b61008e565b60405161005591906101a4565b60405180910390f35b6100786004803603810190610073919061022b565b610095565b60405161008591906101a4565b60405180910390f35b6060919050565b606092915050565b600080fd5b600080fd5b600080fd5b6000606082840312156100c2576100c16100a7565b5b81905092915050565b6000602082840312156100e1576100e061009d565b5b600082013567ffffffffffffffff8111156100ff576100fe6100a2565b5b61010b848285016100ac565b91505092915050565b600081519050919050565b600082825260208201905092915050565b60005b8381101561014e578082015181840152602081019050610133565b60008484015250505050565b6000601f19601f8301169050919050565b600061017682610114565b610180818561011f565b9350610190818560208601610130565b6101998161015a565b840191505092915050565b600060208201905081810360008301526101be818461016b565b905092915050565b600080fd5b600080fd5b600080fd5b60008083601f8401126101eb576101ea6101c6565b5b8235905067ffffffffffffffff811115610208576102076101cb565b5b602083019150836001820283011115610224576102236101d0565b5b9250929050565b600080602083850312156102425761024161009d565b5b600083013567ffffffffffffffff8111156102605761025f6100a2565b5b61026c858286016101d5565b9250925050925092905056fea26469706673582212206042be6532cf0167bb8a9035cf59acb1a836640b50fd3a1f2ea29c5b09fd66d964736f6c63430008110033",
  "immutableReferences": {},
  "source": "// SPDX-License-Identifier: UNLICENSED\npragma solidity ^0.8.17;\n\nimport \"./lib/Action.sol\";\n\nimport \"@openzeppelin/contracts/token/ERC20/IERC20.sol\"; // solhint-disable-line\nimport {IPool} from \"@aave/core-v3/contracts/interfaces/IPool.sol\";\n\ncontract AaveLiquadation is Action {\n    mapping(address => bool) whitelist;\n\n    function _init(\n        address poolAddr,\n        address aTokenAddr,\n        uint256 positionMax\n    ) private {\n        IPool pool = IPool(poolAddr);\n    }\n\n    function init(bytes calldata data)\n        external\n        payable\n        override\n        returns (bytes memory)\n    {}\n\n    function execute(ActionRequest calldata request)\n        external\n        payable\n        override\n        returns (bytes memory)\n    {}\n}\n",
  "sourcePath": "/Users/calebsirak/wallet-sdk-v1/contracts/AaveAction.sol",
  "compiler": {
    "name": "solc",
    "version": "0.8.17+commit.8df45f5f.Emscripten.clang"
  },
  "schemaVersion": "3.4.10",
  "updatedAt": "2022-12-23T23:08:27.394Z",
  "devdoc": {
    "kind": "dev",
    "methods": {},
    "version": 1
  },
  "userdoc": {
    "kind": "user",
    "methods": {},
    "version": 1
  }
}