{
  "contractName": "Treasury",
  "abi": [
    {
      "inputs": [],
      "name": "main",
      "outputs": [],
      "stateMutability": "nonpayable",
      "type": "function"
    },
    {
      "inputs": [
        {
          "internalType": "address",
          "name": "addr",
          "type": "address"
        },
        {
          "internalType": "uint256",
          "name": "value",
          "type": "uint256"
        },
        {
          "internalType": "bytes",
          "name": "data",
          "type": "bytes"
        }
      ],
      "name": "callOp",
      "outputs": [
        {
          "internalType": "bytes",
          "name": "",
          "type": "bytes"
        }
      ],
      "stateMutability": "nonpayable",
      "type": "function"
    },
    {
      "inputs": [
        {
          "internalType": "string",
          "name": "key",
          "type": "string"
        }
      ],
      "name": "getStateVal",
      "outputs": [
        {
          "internalType": "bytes",
          "name": "",
          "type": "bytes"
        }
      ],
      "stateMutability": "view",
      "type": "function"
    },
    {
      "inputs": [
        {
          "internalType": "string",
          "name": "key",
          "type": "string"
        },
        {
          "internalType": "bytes",
          "name": "data",
          "type": "bytes"
        }
      ],
      "name": "updateStateVal",
      "outputs": [],
      "stateMutability": "nonpayable",
      "type": "function"
    }
  ],
  "bytecode": "0x608060405234801561001057600080fd5b50610ad7806100206000396000f3fe608060405234801561001057600080fd5b506004361061004c5760003560e01c80633595a80d146100515780639ff420b714610081578063ae65c78b146100b1578063dffeadd0146100cd575b600080fd5b61006b600480360381019061006691906103b2565b6100d7565b60405161007891906104b6565b60405180910390f35b61009b6004803603810190610096919061052e565b610132565b6040516100a891906104b6565b60405180910390f35b6100cb60048036038101906100c691906106ab565b6101e5565b005b6100d5610218565b005b6060610128858585858080601f016020809104026020016040519081016040528093929190818152602001838380828437600081840152601f19601f8201169050808301925050505050505061021a565b9050949350505050565b606060018383604051610146929190610757565b9081526020016040518091039020805461015f9061079f565b80601f016020809104026020016040519081016040528092919081815260200182805461018b9061079f565b80156101d85780601f106101ad576101008083540402835291602001916101d8565b820191906000526020600020905b8154815290600101906020018083116101bb57829003601f168201915b5050505050905092915050565b80600184846040516101f8929190610757565b90815260200160405180910390209081610212919061097c565b50505050565b565b60606000808573ffffffffffffffffffffffffffffffffffffffff1685856040516102459190610a8a565b60006040518083038185875af1925050503d8060008114610282576040519150601f19603f3d011682016040523d82523d6000602084013e610287565b606091505b50915091508161029957805160208201fd5b80925050509392505050565b6000604051905090565b600080fd5b600080fd5b600073ffffffffffffffffffffffffffffffffffffffff82169050919050565b60006102e4826102b9565b9050919050565b6102f4816102d9565b81146102ff57600080fd5b50565b600081359050610311816102eb565b92915050565b6000819050919050565b61032a81610317565b811461033557600080fd5b50565b60008135905061034781610321565b92915050565b600080fd5b600080fd5b600080fd5b60008083601f8401126103725761037161034d565b5b8235905067ffffffffffffffff81111561038f5761038e610352565b5b6020830191508360018202830111156103ab576103aa610357565b5b9250929050565b600080600080606085870312156103cc576103cb6102af565b5b60006103da87828801610302565b94505060206103eb87828801610338565b935050604085013567ffffffffffffffff81111561040c5761040b6102b4565b5b6104188782880161035c565b925092505092959194509250565b600081519050919050565b600082825260208201905092915050565b60005b83811015610460578082015181840152602081019050610445565b60008484015250505050565b6000601f19601f8301169050919050565b600061048882610426565b6104928185610431565b93506104a2818560208601610442565b6104ab8161046c565b840191505092915050565b600060208201905081810360008301526104d0818461047d565b905092915050565b60008083601f8401126104ee576104ed61034d565b5b8235905067ffffffffffffffff81111561050b5761050a610352565b5b60208301915083600182028301111561052757610526610357565b5b9250929050565b60008060208385031215610545576105446102af565b5b600083013567ffffffffffffffff811115610563576105626102b4565b5b61056f858286016104d8565b92509250509250929050565b600080fd5b7f4e487b7100000000000000000000000000000000000000000000000000000000600052604160045260246000fd5b6105b88261046c565b810181811067ffffffffffffffff821117156105d7576105d6610580565b5b80604052505050565b60006105ea6102a5565b90506105f682826105af565b919050565b600067ffffffffffffffff82111561061657610615610580565b5b61061f8261046c565b9050602081019050919050565b82818337600083830152505050565b600061064e610649846105fb565b6105e0565b90508281526020810184848401111561066a5761066961057b565b5b61067584828561062c565b509392505050565b600082601f8301126106925761069161034d565b5b81356106a284826020860161063b565b91505092915050565b6000806000604084860312156106c4576106c36102af565b5b600084013567ffffffffffffffff8111156106e2576106e16102b4565b5b6106ee868287016104d8565b9350935050602084013567ffffffffffffffff811115610711576107106102b4565b5b61071d8682870161067d565b9150509250925092565b600081905092915050565b600061073e8385610727565b935061074b83858461062c565b82840190509392505050565b6000610764828486610732565b91508190509392505050565b7f4e487b7100000000000000000000000000000000000000000000000000000000600052602260045260246000fd5b600060028204905060018216806107b757607f821691505b6020821081036107ca576107c9610770565b5b50919050565b60008190508160005260206000209050919050565b60006020601f8301049050919050565b600082821b905092915050565b6000600883026108327fffffffffffffffffffffffffffffffffffffffffffffffffffffffffffffffff826107f5565b61083c86836107f5565b95508019841693508086168417925050509392505050565b6000819050919050565b600061087961087461086f84610317565b610854565b610317565b9050919050565b6000819050919050565b6108938361085e565b6108a761089f82610880565b848454610802565b825550505050565b600090565b6108bc6108af565b6108c781848461088a565b505050565b5b818110156108eb576108e06000826108b4565b6001810190506108cd565b5050565b601f82111561093057610901816107d0565b61090a846107e5565b81016020851015610919578190505b61092d610925856107e5565b8301826108cc565b50505b505050565b600082821c905092915050565b600061095360001984600802610935565b1980831691505092915050565b600061096c8383610942565b9150826002028217905092915050565b61098582610426565b67ffffffffffffffff81111561099e5761099d610580565b5b6109a8825461079f565b6109b38282856108ef565b600060209050601f8311600181146109e657600084156109d4578287015190505b6109de8582610960565b865550610a46565b601f1984166109f4866107d0565b60005b82811015610a1c578489015182556001820191506020850194506020810190506109f7565b86831015610a395784890151610a35601f891682610942565b8355505b6001600288020188555050505b505050505050565b600081905092915050565b6000610a6482610426565b610a6e8185610a4e565b9350610a7e818560208601610442565b80840191505092915050565b6000610a968284610a59565b91508190509291505056fea26469706673582212204e673839e6d71a47f1a1ffe6e3df30b89d7dae774ee9e407c687e0a8a348ded264736f6c63430008110033",
  "immutableReferences": {},
  "source": "// SPDX-License-Identifier: UNLICENSED\npragma solidity ^0.8.17;\n\ncontract Treasury {\n    mapping(address => bool) private whitelist;\n    mapping(string => bytes) private state;\n\n    function main() public {}\n\n    function callOp(\n        address addr,\n        uint256 value,\n        bytes calldata data\n    ) public returns (bytes memory) {\n        return _call(addr, value, data);\n    }\n\n    // internal delegate call from EIP-4337\n    function _call(\n        address target,\n        uint256 value,\n        bytes memory data\n    ) internal returns (bytes memory) {\n        (bool success, bytes memory result) = target.call{value: value}(data);\n        if (!success) {\n            assembly {\n                revert(add(result, 32), mload(result))\n            }\n        }\n        return result;\n    }\n\n    // state view and update function\n    function getStateVal(string calldata key)\n        public\n        view\n        returns (bytes memory)\n    {\n        return state[key];\n    }\n\n    function updateStateVal(string calldata key, bytes memory data) public {\n        state[key] = data;\n    }\n}\n",
  "sourcePath": "/Users/calebsirak/wallet-sdk-v1/contracts/lib/Treasury.sol",
  "compiler": {
    "name": "solc",
    "version": "0.8.17+commit.8df45f5f.Emscripten.clang"
  },
  "schemaVersion": "3.4.10",
  "updatedAt": "2022-12-23T23:08:27.395Z",
  "devdoc": {
    "kind": "dev",
    "methods": {},
    "version": 1
  },
  "userdoc": {
    "kind": "user",
    "methods": {},
    "version": 1
  }
}